{
	"data": {
		"bytecode": {
			"linkReferences": {},
			"object": "610a66610053600b82828239805160001a607314610046577f4e487b7100000000000000000000000000000000000000000000000000000000600052600060045260246000fd5b30600052607381538281f3fe73000000000000000000000000000000000000000030146080604052600436106100355760003560e01c80634f5fdbe51461003a575b600080fd5b610054600480360381019061004f91906104fd565b61006a565b60405161006191906105b6565b60405180910390f35b60006100a6826100988560405160200161008491906107ea565b6040516020818303038152906040526100ae565b6100bf90919063ffffffff16565b905092915050565b600081805190602001209050919050565b60008060006100ce85856100e6565b915091506100db81610137565b819250505092915050565b60008060418351036101275760008060006020860151925060408601519150606086015160001a905061011b8782858561029d565b94509450505050610130565b60006002915091505b9250929050565b6000600481111561014b5761014a61080c565b5b81600481111561015e5761015d61080c565b5b031561029a57600160048111156101785761017761080c565b5b81600481111561018b5761018a61080c565b5b036101cb576040517f08c379a00000000000000000000000000000000000000000000000000000000081526004016101c290610898565b60405180910390fd5b600260048111156101df576101de61080c565b5b8160048111156101f2576101f161080c565b5b03610232576040517f08c379a000000000000000000000000000000000000000000000000000000000815260040161022990610904565b60405180910390fd5b600360048111156102465761024561080c565b5b8160048111156102595761025861080c565b5b03610299576040517f08c379a000000000000000000000000000000000000000000000000000000000815260040161029090610996565b60405180910390fd5b5b50565b6000807f7fffffffffffffffffffffffffffffff5d576e7357a4501ddfe92f46681b20a08360001c11156102d8576000600391509150610376565b6000600187878787604051600081526020016040526040516102fd94939291906109eb565b6020604051602081039080840390855afa15801561031f573d6000803e3d6000fd5b505050602060405103519050600073ffffffffffffffffffffffffffffffffffffffff168173ffffffffffffffffffffffffffffffffffffffff160361036d57600060019250925050610376565b80600092509250505b94509492505050565b6000604051905090565b600080fd5b600080fd5b600080fd5b600060c082840312156103ae576103ad610393565b5b81905092915050565b600080fd5b600080fd5b6000601f19601f8301169050919050565b7f4e487b7100000000000000000000000000000000000000000000000000000000600052604160045260246000fd5b61040a826103c1565b810181811067ffffffffffffffff82111715610429576104286103d2565b5b80604052505050565b600061043c61037f565b90506104488282610401565b919050565b600067ffffffffffffffff821115610468576104676103d2565b5b610471826103c1565b9050602081019050919050565b82818337600083830152505050565b60006104a061049b8461044d565b610432565b9050828152602081018484840111156104bc576104bb6103bc565b5b6104c784828561047e565b509392505050565b600082601f8301126104e4576104e36103b7565b5b81356104f484826020860161048d565b91505092915050565b6000806040838503121561051457610513610389565b5b600083013567ffffffffffffffff8111156105325761053161038e565b5b61053e85828601610398565b925050602083013567ffffffffffffffff81111561055f5761055e61038e565b5b61056b858286016104cf565b9150509250929050565b600073ffffffffffffffffffffffffffffffffffffffff82169050919050565b60006105a082610575565b9050919050565b6105b081610595565b82525050565b60006020820190506105cb60008301846105a7565b92915050565b6105da81610595565b81146105e557600080fd5b50565b6000813590506105f7816105d1565b92915050565b600061060c60208401846105e8565b905092915050565b61061d81610595565b82525050565b6000819050919050565b61063681610623565b811461064157600080fd5b50565b6000813590506106538161062d565b92915050565b60006106686020840184610644565b905092915050565b61067981610623565b82525050565b600080fd5b600080fd5b600080fd5b600080833560016020038436030381126106ab576106aa610689565b5b83810192508235915060208301925067ffffffffffffffff8211156106d3576106d261067f565b5b6001820236038313156106e9576106e8610684565b5b509250929050565b600082825260208201905092915050565b600061070e83856106f1565b935061071b83858461047e565b610724836103c1565b840190509392505050565b600060c0830161074260008401846105fd565b61074f6000860182610614565b5061075d6020840184610659565b61076a6020860182610670565b506107786040840184610659565b6107856040860182610670565b5061079360608401846105fd565b6107a06060860182610614565b506107ae608084018461068e565b85830360808701526107c1838284610702565b925050506107d260a08401846105fd565b6107df60a0860182610614565b508091505092915050565b60006020820190508181036000830152610804818461072f565b905092915050565b7f4e487b7100000000000000000000000000000000000000000000000000000000600052602160045260246000fd5b600082825260208201905092915050565b7f45434453413a20696e76616c6964207369676e61747572650000000000000000600082015250565b600061088260188361083b565b915061088d8261084c565b602082019050919050565b600060208201905081810360008301526108b181610875565b9050919050565b7f45434453413a20696e76616c6964207369676e6174757265206c656e67746800600082015250565b60006108ee601f8361083b565b91506108f9826108b8565b602082019050919050565b6000602082019050818103600083015261091d816108e1565b9050919050565b7f45434453413a20696e76616c6964207369676e6174757265202773272076616c60008201527f7565000000000000000000000000000000000000000000000000000000000000602082015250565b600061098060228361083b565b915061098b82610924565b604082019050919050565b600060208201905081810360008301526109af81610973565b9050919050565b6000819050919050565b6109c9816109b6565b82525050565b600060ff82169050919050565b6109e5816109cf565b82525050565b6000608082019050610a0060008301876109c0565b610a0d60208301866109dc565b610a1a60408301856109c0565b610a2760608301846109c0565b9594505050505056fea26469706673582212206dd46b7b5dab6507d30838e8413f4747573551c9990c32986110e745f8a0ffbb64736f6c63430008110033",
			"opcodes": "PUSH2 0xA66 PUSH2 0x53 PUSH1 0xB DUP3 DUP3 DUP3 CODECOPY DUP1 MLOAD PUSH1 0x0 BYTE PUSH1 0x73 EQ PUSH2 0x46 JUMPI PUSH32 0x4E487B7100000000000000000000000000000000000000000000000000000000 PUSH1 0x0 MSTORE PUSH1 0x0 PUSH1 0x4 MSTORE PUSH1 0x24 PUSH1 0x0 REVERT JUMPDEST ADDRESS PUSH1 0x0 MSTORE PUSH1 0x73 DUP2 MSTORE8 DUP3 DUP2 RETURN INVALID PUSH20 0x0 ADDRESS EQ PUSH1 0x80 PUSH1 0x40 MSTORE PUSH1 0x4 CALLDATASIZE LT PUSH2 0x35 JUMPI PUSH1 0x0 CALLDATALOAD PUSH1 0xE0 SHR DUP1 PUSH4 0x4F5FDBE5 EQ PUSH2 0x3A JUMPI JUMPDEST PUSH1 0x0 DUP1 REVERT JUMPDEST PUSH2 0x54 PUSH1 0x4 DUP1 CALLDATASIZE SUB DUP2 ADD SWAP1 PUSH2 0x4F SWAP2 SWAP1 PUSH2 0x4FD JUMP JUMPDEST PUSH2 0x6A JUMP JUMPDEST PUSH1 0x40 MLOAD PUSH2 0x61 SWAP2 SWAP1 PUSH2 0x5B6 JUMP JUMPDEST PUSH1 0x40 MLOAD DUP1 SWAP2 SUB SWAP1 RETURN JUMPDEST PUSH1 0x0 PUSH2 0xA6 DUP3 PUSH2 0x98 DUP6 PUSH1 0x40 MLOAD PUSH1 0x20 ADD PUSH2 0x84 SWAP2 SWAP1 PUSH2 0x7EA JUMP JUMPDEST PUSH1 0x40 MLOAD PUSH1 0x20 DUP2 DUP4 SUB SUB DUP2 MSTORE SWAP1 PUSH1 0x40 MSTORE PUSH2 0xAE JUMP JUMPDEST PUSH2 0xBF SWAP1 SWAP2 SWAP1 PUSH4 0xFFFFFFFF AND JUMP JUMPDEST SWAP1 POP SWAP3 SWAP2 POP POP JUMP JUMPDEST PUSH1 0x0 DUP2 DUP1 MLOAD SWAP1 PUSH1 0x20 ADD KECCAK256 SWAP1 POP SWAP2 SWAP1 POP JUMP JUMPDEST PUSH1 0x0 DUP1 PUSH1 0x0 PUSH2 0xCE DUP6 DUP6 PUSH2 0xE6 JUMP JUMPDEST SWAP2 POP SWAP2 POP PUSH2 0xDB DUP2 PUSH2 0x137 JUMP JUMPDEST DUP2 SWAP3 POP POP POP SWAP3 SWAP2 POP POP JUMP JUMPDEST PUSH1 0x0 DUP1 PUSH1 0x41 DUP4 MLOAD SUB PUSH2 0x127 JUMPI PUSH1 0x0 DUP1 PUSH1 0x0 PUSH1 0x20 DUP7 ADD MLOAD SWAP3 POP PUSH1 0x40 DUP7 ADD MLOAD SWAP2 POP PUSH1 0x60 DUP7 ADD MLOAD PUSH1 0x0 BYTE SWAP1 POP PUSH2 0x11B DUP8 DUP3 DUP6 DUP6 PUSH2 0x29D JUMP JUMPDEST SWAP5 POP SWAP5 POP POP POP POP PUSH2 0x130 JUMP JUMPDEST PUSH1 0x0 PUSH1 0x2 SWAP2 POP SWAP2 POP JUMPDEST SWAP3 POP SWAP3 SWAP1 POP JUMP JUMPDEST PUSH1 0x0 PUSH1 0x4 DUP2 GT ISZERO PUSH2 0x14B JUMPI PUSH2 0x14A PUSH2 0x80C JUMP JUMPDEST JUMPDEST DUP2 PUSH1 0x4 DUP2 GT ISZERO PUSH2 0x15E JUMPI PUSH2 0x15D PUSH2 0x80C JUMP JUMPDEST JUMPDEST SUB ISZERO PUSH2 0x29A JUMPI PUSH1 0x1 PUSH1 0x4 DUP2 GT ISZERO PUSH2 0x178 JUMPI PUSH2 0x177 PUSH2 0x80C JUMP JUMPDEST JUMPDEST DUP2 PUSH1 0x4 DUP2 GT ISZERO PUSH2 0x18B JUMPI PUSH2 0x18A PUSH2 0x80C JUMP JUMPDEST JUMPDEST SUB PUSH2 0x1CB JUMPI PUSH1 0x40 MLOAD PUSH32 0x8C379A000000000000000000000000000000000000000000000000000000000 DUP2 MSTORE PUSH1 0x4 ADD PUSH2 0x1C2 SWAP1 PUSH2 0x898 JUMP JUMPDEST PUSH1 0x40 MLOAD DUP1 SWAP2 SUB SWAP1 REVERT JUMPDEST PUSH1 0x2 PUSH1 0x4 DUP2 GT ISZERO PUSH2 0x1DF JUMPI PUSH2 0x1DE PUSH2 0x80C JUMP JUMPDEST JUMPDEST DUP2 PUSH1 0x4 DUP2 GT ISZERO PUSH2 0x1F2 JUMPI PUSH2 0x1F1 PUSH2 0x80C JUMP JUMPDEST JUMPDEST SUB PUSH2 0x232 JUMPI PUSH1 0x40 MLOAD PUSH32 0x8C379A000000000000000000000000000000000000000000000000000000000 DUP2 MSTORE PUSH1 0x4 ADD PUSH2 0x229 SWAP1 PUSH2 0x904 JUMP JUMPDEST PUSH1 0x40 MLOAD DUP1 SWAP2 SUB SWAP1 REVERT JUMPDEST PUSH1 0x3 PUSH1 0x4 DUP2 GT ISZERO PUSH2 0x246 JUMPI PUSH2 0x245 PUSH2 0x80C JUMP JUMPDEST JUMPDEST DUP2 PUSH1 0x4 DUP2 GT ISZERO PUSH2 0x259 JUMPI PUSH2 0x258 PUSH2 0x80C JUMP JUMPDEST JUMPDEST SUB PUSH2 0x299 JUMPI PUSH1 0x40 MLOAD PUSH32 0x8C379A000000000000000000000000000000000000000000000000000000000 DUP2 MSTORE PUSH1 0x4 ADD PUSH2 0x290 SWAP1 PUSH2 0x996 JUMP JUMPDEST PUSH1 0x40 MLOAD DUP1 SWAP2 SUB SWAP1 REVERT JUMPDEST JUMPDEST POP JUMP JUMPDEST PUSH1 0x0 DUP1 PUSH32 0x7FFFFFFFFFFFFFFFFFFFFFFFFFFFFFFF5D576E7357A4501DDFE92F46681B20A0 DUP4 PUSH1 0x0 SHR GT ISZERO PUSH2 0x2D8 JUMPI PUSH1 0x0 PUSH1 0x3 SWAP2 POP SWAP2 POP PUSH2 0x376 JUMP JUMPDEST PUSH1 0x0 PUSH1 0x1 DUP8 DUP8 DUP8 DUP8 PUSH1 0x40 MLOAD PUSH1 0x0 DUP2 MSTORE PUSH1 0x20 ADD PUSH1 0x40 MSTORE PUSH1 0x40 MLOAD PUSH2 0x2FD SWAP5 SWAP4 SWAP3 SWAP2 SWAP1 PUSH2 0x9EB JUMP JUMPDEST PUSH1 0x20 PUSH1 0x40 MLOAD PUSH1 0x20 DUP2 SUB SWAP1 DUP1 DUP5 SUB SWAP1 DUP6 GAS STATICCALL ISZERO DUP1 ISZERO PUSH2 0x31F JUMPI RETURNDATASIZE PUSH1 0x0 DUP1 RETURNDATACOPY RETURNDATASIZE PUSH1 0x0 REVERT JUMPDEST POP POP POP PUSH1 0x20 PUSH1 0x40 MLOAD SUB MLOAD SWAP1 POP PUSH1 0x0 PUSH20 0xFFFFFFFFFFFFFFFFFFFFFFFFFFFFFFFFFFFFFFFF AND DUP2 PUSH20 0xFFFFFFFFFFFFFFFFFFFFFFFFFFFFFFFFFFFFFFFF AND SUB PUSH2 0x36D JUMPI PUSH1 0x0 PUSH1 0x1 SWAP3 POP SWAP3 POP POP PUSH2 0x376 JUMP JUMPDEST DUP1 PUSH1 0x0 SWAP3 POP SWAP3 POP POP JUMPDEST SWAP5 POP SWAP5 SWAP3 POP POP POP JUMP JUMPDEST PUSH1 0x0 PUSH1 0x40 MLOAD SWAP1 POP SWAP1 JUMP JUMPDEST PUSH1 0x0 DUP1 REVERT JUMPDEST PUSH1 0x0 DUP1 REVERT JUMPDEST PUSH1 0x0 DUP1 REVERT JUMPDEST PUSH1 0x0 PUSH1 0xC0 DUP3 DUP5 SUB SLT ISZERO PUSH2 0x3AE JUMPI PUSH2 0x3AD PUSH2 0x393 JUMP JUMPDEST JUMPDEST DUP2 SWAP1 POP SWAP3 SWAP2 POP POP JUMP JUMPDEST PUSH1 0x0 DUP1 REVERT JUMPDEST PUSH1 0x0 DUP1 REVERT JUMPDEST PUSH1 0x0 PUSH1 0x1F NOT PUSH1 0x1F DUP4 ADD AND SWAP1 POP SWAP2 SWAP1 POP JUMP JUMPDEST PUSH32 0x4E487B7100000000000000000000000000000000000000000000000000000000 PUSH1 0x0 MSTORE PUSH1 0x41 PUSH1 0x4 MSTORE PUSH1 0x24 PUSH1 0x0 REVERT JUMPDEST PUSH2 0x40A DUP3 PUSH2 0x3C1 JUMP JUMPDEST DUP2 ADD DUP2 DUP2 LT PUSH8 0xFFFFFFFFFFFFFFFF DUP3 GT OR ISZERO PUSH2 0x429 JUMPI PUSH2 0x428 PUSH2 0x3D2 JUMP JUMPDEST JUMPDEST DUP1 PUSH1 0x40 MSTORE POP POP POP JUMP JUMPDEST PUSH1 0x0 PUSH2 0x43C PUSH2 0x37F JUMP JUMPDEST SWAP1 POP PUSH2 0x448 DUP3 DUP3 PUSH2 0x401 JUMP JUMPDEST SWAP2 SWAP1 POP JUMP JUMPDEST PUSH1 0x0 PUSH8 0xFFFFFFFFFFFFFFFF DUP3 GT ISZERO PUSH2 0x468 JUMPI PUSH2 0x467 PUSH2 0x3D2 JUMP JUMPDEST JUMPDEST PUSH2 0x471 DUP3 PUSH2 0x3C1 JUMP JUMPDEST SWAP1 POP PUSH1 0x20 DUP2 ADD SWAP1 POP SWAP2 SWAP1 POP JUMP JUMPDEST DUP3 DUP2 DUP4 CALLDATACOPY PUSH1 0x0 DUP4 DUP4 ADD MSTORE POP POP POP JUMP JUMPDEST PUSH1 0x0 PUSH2 0x4A0 PUSH2 0x49B DUP5 PUSH2 0x44D JUMP JUMPDEST PUSH2 0x432 JUMP JUMPDEST SWAP1 POP DUP3 DUP2 MSTORE PUSH1 0x20 DUP2 ADD DUP5 DUP5 DUP5 ADD GT ISZERO PUSH2 0x4BC JUMPI PUSH2 0x4BB PUSH2 0x3BC JUMP JUMPDEST JUMPDEST PUSH2 0x4C7 DUP5 DUP3 DUP6 PUSH2 0x47E JUMP JUMPDEST POP SWAP4 SWAP3 POP POP POP JUMP JUMPDEST PUSH1 0x0 DUP3 PUSH1 0x1F DUP4 ADD SLT PUSH2 0x4E4 JUMPI PUSH2 0x4E3 PUSH2 0x3B7 JUMP JUMPDEST JUMPDEST DUP2 CALLDATALOAD PUSH2 0x4F4 DUP5 DUP3 PUSH1 0x20 DUP7 ADD PUSH2 0x48D JUMP JUMPDEST SWAP2 POP POP SWAP3 SWAP2 POP POP JUMP JUMPDEST PUSH1 0x0 DUP1 PUSH1 0x40 DUP4 DUP6 SUB SLT ISZERO PUSH2 0x514 JUMPI PUSH2 0x513 PUSH2 0x389 JUMP JUMPDEST JUMPDEST PUSH1 0x0 DUP4 ADD CALLDATALOAD PUSH8 0xFFFFFFFFFFFFFFFF DUP2 GT ISZERO PUSH2 0x532 JUMPI PUSH2 0x531 PUSH2 0x38E JUMP JUMPDEST JUMPDEST PUSH2 0x53E DUP6 DUP3 DUP7 ADD PUSH2 0x398 JUMP JUMPDEST SWAP3 POP POP PUSH1 0x20 DUP4 ADD CALLDATALOAD PUSH8 0xFFFFFFFFFFFFFFFF DUP2 GT ISZERO PUSH2 0x55F JUMPI PUSH2 0x55E PUSH2 0x38E JUMP JUMPDEST JUMPDEST PUSH2 0x56B DUP6 DUP3 DUP7 ADD PUSH2 0x4CF JUMP JUMPDEST SWAP2 POP POP SWAP3 POP SWAP3 SWAP1 POP JUMP JUMPDEST PUSH1 0x0 PUSH20 0xFFFFFFFFFFFFFFFFFFFFFFFFFFFFFFFFFFFFFFFF DUP3 AND SWAP1 POP SWAP2 SWAP1 POP JUMP JUMPDEST PUSH1 0x0 PUSH2 0x5A0 DUP3 PUSH2 0x575 JUMP JUMPDEST SWAP1 POP SWAP2 SWAP1 POP JUMP JUMPDEST PUSH2 0x5B0 DUP2 PUSH2 0x595 JUMP JUMPDEST DUP3 MSTORE POP POP JUMP JUMPDEST PUSH1 0x0 PUSH1 0x20 DUP3 ADD SWAP1 POP PUSH2 0x5CB PUSH1 0x0 DUP4 ADD DUP5 PUSH2 0x5A7 JUMP JUMPDEST SWAP3 SWAP2 POP POP JUMP JUMPDEST PUSH2 0x5DA DUP2 PUSH2 0x595 JUMP JUMPDEST DUP2 EQ PUSH2 0x5E5 JUMPI PUSH1 0x0 DUP1 REVERT JUMPDEST POP JUMP JUMPDEST PUSH1 0x0 DUP2 CALLDATALOAD SWAP1 POP PUSH2 0x5F7 DUP2 PUSH2 0x5D1 JUMP JUMPDEST SWAP3 SWAP2 POP POP JUMP JUMPDEST PUSH1 0x0 PUSH2 0x60C PUSH1 0x20 DUP5 ADD DUP5 PUSH2 0x5E8 JUMP JUMPDEST SWAP1 POP SWAP3 SWAP2 POP POP JUMP JUMPDEST PUSH2 0x61D DUP2 PUSH2 0x595 JUMP JUMPDEST DUP3 MSTORE POP POP JUMP JUMPDEST PUSH1 0x0 DUP2 SWAP1 POP SWAP2 SWAP1 POP JUMP JUMPDEST PUSH2 0x636 DUP2 PUSH2 0x623 JUMP JUMPDEST DUP2 EQ PUSH2 0x641 JUMPI PUSH1 0x0 DUP1 REVERT JUMPDEST POP JUMP JUMPDEST PUSH1 0x0 DUP2 CALLDATALOAD SWAP1 POP PUSH2 0x653 DUP2 PUSH2 0x62D JUMP JUMPDEST SWAP3 SWAP2 POP POP JUMP JUMPDEST PUSH1 0x0 PUSH2 0x668 PUSH1 0x20 DUP5 ADD DUP5 PUSH2 0x644 JUMP JUMPDEST SWAP1 POP SWAP3 SWAP2 POP POP JUMP JUMPDEST PUSH2 0x679 DUP2 PUSH2 0x623 JUMP JUMPDEST DUP3 MSTORE POP POP JUMP JUMPDEST PUSH1 0x0 DUP1 REVERT JUMPDEST PUSH1 0x0 DUP1 REVERT JUMPDEST PUSH1 0x0 DUP1 REVERT JUMPDEST PUSH1 0x0 DUP1 DUP4 CALLDATALOAD PUSH1 0x1 PUSH1 0x20 SUB DUP5 CALLDATASIZE SUB SUB DUP2 SLT PUSH2 0x6AB JUMPI PUSH2 0x6AA PUSH2 0x689 JUMP JUMPDEST JUMPDEST DUP4 DUP2 ADD SWAP3 POP DUP3 CALLDATALOAD SWAP2 POP PUSH1 0x20 DUP4 ADD SWAP3 POP PUSH8 0xFFFFFFFFFFFFFFFF DUP3 GT ISZERO PUSH2 0x6D3 JUMPI PUSH2 0x6D2 PUSH2 0x67F JUMP JUMPDEST JUMPDEST PUSH1 0x1 DUP3 MUL CALLDATASIZE SUB DUP4 SGT ISZERO PUSH2 0x6E9 JUMPI PUSH2 0x6E8 PUSH2 0x684 JUMP JUMPDEST JUMPDEST POP SWAP3 POP SWAP3 SWAP1 POP JUMP JUMPDEST PUSH1 0x0 DUP3 DUP3 MSTORE PUSH1 0x20 DUP3 ADD SWAP1 POP SWAP3 SWAP2 POP POP JUMP JUMPDEST PUSH1 0x0 PUSH2 0x70E DUP4 DUP6 PUSH2 0x6F1 JUMP JUMPDEST SWAP4 POP PUSH2 0x71B DUP4 DUP6 DUP5 PUSH2 0x47E JUMP JUMPDEST PUSH2 0x724 DUP4 PUSH2 0x3C1 JUMP JUMPDEST DUP5 ADD SWAP1 POP SWAP4 SWAP3 POP POP POP JUMP JUMPDEST PUSH1 0x0 PUSH1 0xC0 DUP4 ADD PUSH2 0x742 PUSH1 0x0 DUP5 ADD DUP5 PUSH2 0x5FD JUMP JUMPDEST PUSH2 0x74F PUSH1 0x0 DUP7 ADD DUP3 PUSH2 0x614 JUMP JUMPDEST POP PUSH2 0x75D PUSH1 0x20 DUP5 ADD DUP5 PUSH2 0x659 JUMP JUMPDEST PUSH2 0x76A PUSH1 0x20 DUP7 ADD DUP3 PUSH2 0x670 JUMP JUMPDEST POP PUSH2 0x778 PUSH1 0x40 DUP5 ADD DUP5 PUSH2 0x659 JUMP JUMPDEST PUSH2 0x785 PUSH1 0x40 DUP7 ADD DUP3 PUSH2 0x670 JUMP JUMPDEST POP PUSH2 0x793 PUSH1 0x60 DUP5 ADD DUP5 PUSH2 0x5FD JUMP JUMPDEST PUSH2 0x7A0 PUSH1 0x60 DUP7 ADD DUP3 PUSH2 0x614 JUMP JUMPDEST POP PUSH2 0x7AE PUSH1 0x80 DUP5 ADD DUP5 PUSH2 0x68E JUMP JUMPDEST DUP6 DUP4 SUB PUSH1 0x80 DUP8 ADD MSTORE PUSH2 0x7C1 DUP4 DUP3 DUP5 PUSH2 0x702 JUMP JUMPDEST SWAP3 POP POP POP PUSH2 0x7D2 PUSH1 0xA0 DUP5 ADD DUP5 PUSH2 0x5FD JUMP JUMPDEST PUSH2 0x7DF PUSH1 0xA0 DUP7 ADD DUP3 PUSH2 0x614 JUMP JUMPDEST POP DUP1 SWAP2 POP POP SWAP3 SWAP2 POP POP JUMP JUMPDEST PUSH1 0x0 PUSH1 0x20 DUP3 ADD SWAP1 POP DUP2 DUP2 SUB PUSH1 0x0 DUP4 ADD MSTORE PUSH2 0x804 DUP2 DUP5 PUSH2 0x72F JUMP JUMPDEST SWAP1 POP SWAP3 SWAP2 POP POP JUMP JUMPDEST PUSH32 0x4E487B7100000000000000000000000000000000000000000000000000000000 PUSH1 0x0 MSTORE PUSH1 0x21 PUSH1 0x4 MSTORE PUSH1 0x24 PUSH1 0x0 REVERT JUMPDEST PUSH1 0x0 DUP3 DUP3 MSTORE PUSH1 0x20 DUP3 ADD SWAP1 POP SWAP3 SWAP2 POP POP JUMP JUMPDEST PUSH32 0x45434453413A20696E76616C6964207369676E61747572650000000000000000 PUSH1 0x0 DUP3 ADD MSTORE POP JUMP JUMPDEST PUSH1 0x0 PUSH2 0x882 PUSH1 0x18 DUP4 PUSH2 0x83B JUMP JUMPDEST SWAP2 POP PUSH2 0x88D DUP3 PUSH2 0x84C JUMP JUMPDEST PUSH1 0x20 DUP3 ADD SWAP1 POP SWAP2 SWAP1 POP JUMP JUMPDEST PUSH1 0x0 PUSH1 0x20 DUP3 ADD SWAP1 POP DUP2 DUP2 SUB PUSH1 0x0 DUP4 ADD MSTORE PUSH2 0x8B1 DUP2 PUSH2 0x875 JUMP JUMPDEST SWAP1 POP SWAP2 SWAP1 POP JUMP JUMPDEST PUSH32 0x45434453413A20696E76616C6964207369676E6174757265206C656E67746800 PUSH1 0x0 DUP3 ADD MSTORE POP JUMP JUMPDEST PUSH1 0x0 PUSH2 0x8EE PUSH1 0x1F DUP4 PUSH2 0x83B JUMP JUMPDEST SWAP2 POP PUSH2 0x8F9 DUP3 PUSH2 0x8B8 JUMP JUMPDEST PUSH1 0x20 DUP3 ADD SWAP1 POP SWAP2 SWAP1 POP JUMP JUMPDEST PUSH1 0x0 PUSH1 0x20 DUP3 ADD SWAP1 POP DUP2 DUP2 SUB PUSH1 0x0 DUP4 ADD MSTORE PUSH2 0x91D DUP2 PUSH2 0x8E1 JUMP JUMPDEST SWAP1 POP SWAP2 SWAP1 POP JUMP JUMPDEST PUSH32 0x45434453413A20696E76616C6964207369676E6174757265202773272076616C PUSH1 0x0 DUP3 ADD MSTORE PUSH32 0x7565000000000000000000000000000000000000000000000000000000000000 PUSH1 0x20 DUP3 ADD MSTORE POP JUMP JUMPDEST PUSH1 0x0 PUSH2 0x980 PUSH1 0x22 DUP4 PUSH2 0x83B JUMP JUMPDEST SWAP2 POP PUSH2 0x98B DUP3 PUSH2 0x924 JUMP JUMPDEST PUSH1 0x40 DUP3 ADD SWAP1 POP SWAP2 SWAP1 POP JUMP JUMPDEST PUSH1 0x0 PUSH1 0x20 DUP3 ADD SWAP1 POP DUP2 DUP2 SUB PUSH1 0x0 DUP4 ADD MSTORE PUSH2 0x9AF DUP2 PUSH2 0x973 JUMP JUMPDEST SWAP1 POP SWAP2 SWAP1 POP JUMP JUMPDEST PUSH1 0x0 DUP2 SWAP1 POP SWAP2 SWAP1 POP JUMP JUMPDEST PUSH2 0x9C9 DUP2 PUSH2 0x9B6 JUMP JUMPDEST DUP3 MSTORE POP POP JUMP JUMPDEST PUSH1 0x0 PUSH1 0xFF DUP3 AND SWAP1 POP SWAP2 SWAP1 POP JUMP JUMPDEST PUSH2 0x9E5 DUP2 PUSH2 0x9CF JUMP JUMPDEST DUP3 MSTORE POP POP JUMP JUMPDEST PUSH1 0x0 PUSH1 0x80 DUP3 ADD SWAP1 POP PUSH2 0xA00 PUSH1 0x0 DUP4 ADD DUP8 PUSH2 0x9C0 JUMP JUMPDEST PUSH2 0xA0D PUSH1 0x20 DUP4 ADD DUP7 PUSH2 0x9DC JUMP JUMPDEST PUSH2 0xA1A PUSH1 0x40 DUP4 ADD DUP6 PUSH2 0x9C0 JUMP JUMPDEST PUSH2 0xA27 PUSH1 0x60 DUP4 ADD DUP5 PUSH2 0x9C0 JUMP JUMPDEST SWAP6 SWAP5 POP POP POP POP POP JUMP INVALID LOG2 PUSH5 0x6970667358 0x22 SLT KECCAK256 PUSH14 0xD46B7B5DAB6507D30838E8413F47 SELFBALANCE JUMPI CALLDATALOAD MLOAD 0xC9 SWAP10 0xC ORIGIN SWAP9 PUSH2 0x10E7 GASLIMIT 0xF8 LOG0 SELFDESTRUCT 0xBB PUSH5 0x736F6C6343 STOP ADDMOD GT STOP CALLER "
		},
		"gasEstimates": {
			"creation": {
				"codeDepositCost": "532400",
				"executionCost": "593",
				"totalCost": "532993"
			},
			"external": {
				"signer(IExchangeAggregator.swapData,bytes)": "infinite"
			},
			"internal": {
				"checkSig(address,bytes memory,bytes memory)": "infinite",
				"hash(bytes memory)": "infinite"
			}
		},
		"methodIdentifiers": {
			"signer(IExchangeAggregator.swapData,bytes)": "4f5fdbe5"
		}
	},
	"abi": [
		{
			"inputs": [
				{
					"components": [
						{
							"internalType": "address",
							"name": "input",
							"type": "address"
						},
						{
							"internalType": "uint256",
							"name": "totalAmount",
							"type": "uint256"
						},
						{
							"internalType": "uint256",
							"name": "feeAmount",
							"type": "uint256"
						},
						{
							"internalType": "address",
							"name": "swapper",
							"type": "address"
						},
						{
							"internalType": "bytes",
							"name": "data",
							"type": "bytes"
						},
						{
							"internalType": "address",
							"name": "sender",
							"type": "address"
						}
					],
					"internalType": "struct IExchangeAggregator.swapData",
					"name": "data",
					"type": "tuple"
				},
				{
					"internalType": "bytes",
					"name": "sig",
					"type": "bytes"
				}
			],
			"name": "signer",
			"outputs": [
				{
					"internalType": "address",
					"name": "",
					"type": "address"
				}
			],
			"stateMutability": "pure",
			"type": "function"
		}
	]
}