{
	"contracts/ExchangeAggregator.sol": {
		"ExchangeAggregator": {
			"abi": [
				{
					"inputs": [
						{
							"internalType": "address",
							"name": "_PriceProvider",
							"type": "address"
						}
					],
					"stateMutability": "nonpayable",
					"type": "constructor"
				},
				{
					"anonymous": false,
					"inputs": [
						{
							"indexed": true,
							"internalType": "address",
							"name": "previousOwner",
							"type": "address"
						},
						{
							"indexed": true,
							"internalType": "address",
							"name": "newOwner",
							"type": "address"
						}
					],
					"name": "OwnershipTransferred",
					"type": "event"
				},
				{
					"inputs": [],
					"name": "Edge",
					"outputs": [],
					"stateMutability": "payable",
					"type": "function"
				},
				{
					"inputs": [],
					"name": "PriceProvider",
					"outputs": [
						{
							"internalType": "address",
							"name": "",
							"type": "address"
						}
					],
					"stateMutability": "view",
					"type": "function"
				},
				{
					"inputs": [
						{
							"components": [
								{
									"internalType": "address",
									"name": "input",
									"type": "address"
								},
								{
									"internalType": "uint256",
									"name": "totalAmount",
									"type": "uint256"
								},
								{
									"internalType": "uint256",
									"name": "feeAmount",
									"type": "uint256"
								},
								{
									"internalType": "address",
									"name": "swapper",
									"type": "address"
								},
								{
									"internalType": "bytes",
									"name": "data",
									"type": "bytes"
								},
								{
									"internalType": "address",
									"name": "sender",
									"type": "address"
								},
								{
									"internalType": "bool",
									"name": "native",
									"type": "bool"
								}
							],
							"internalType": "struct IExchangeAggregator.swapData",
							"name": "data",
							"type": "tuple"
						},
						{
							"internalType": "bytes",
							"name": "sig",
							"type": "bytes"
						}
					],
					"name": "Swap0",
					"outputs": [],
					"stateMutability": "payable",
					"type": "function"
				},
				{
					"inputs": [],
					"name": "balanceETH",
					"outputs": [
						{
							"internalType": "uint256",
							"name": "",
							"type": "uint256"
						}
					],
					"stateMutability": "view",
					"type": "function"
				},
				{
					"inputs": [
						{
							"internalType": "address",
							"name": "token",
							"type": "address"
						}
					],
					"name": "balanceToken",
					"outputs": [
						{
							"internalType": "uint256",
							"name": "",
							"type": "uint256"
						}
					],
					"stateMutability": "view",
					"type": "function"
				},
				{
					"inputs": [
						{
							"internalType": "address",
							"name": "_PriceProvider",
							"type": "address"
						}
					],
					"name": "changePriceProvider",
					"outputs": [],
					"stateMutability": "nonpayable",
					"type": "function"
				},
				{
					"inputs": [
						{
							"internalType": "address",
							"name": "provider",
							"type": "address"
						},
						{
							"internalType": "address",
							"name": "tA",
							"type": "address"
						},
						{
							"internalType": "address",
							"name": "tB",
							"type": "address"
						},
						{
							"internalType": "uint256",
							"name": "amountIn",
							"type": "uint256"
						},
						{
							"internalType": "uint8",
							"name": "version",
							"type": "uint8"
						}
					],
					"name": "estimateAmountOut",
					"outputs": [
						{
							"internalType": "uint256",
							"name": "amountOut",
							"type": "uint256"
						},
						{
							"internalType": "uint24",
							"name": "fee",
							"type": "uint24"
						}
					],
					"stateMutability": "view",
					"type": "function"
				},
				{
					"inputs": [],
					"name": "owner",
					"outputs": [
						{
							"internalType": "address",
							"name": "",
							"type": "address"
						}
					],
					"stateMutability": "view",
					"type": "function"
				},
				{
					"inputs": [],
					"name": "renounceOwnership",
					"outputs": [],
					"stateMutability": "nonpayable",
					"type": "function"
				},
				{
					"inputs": [
						{
							"components": [
								{
									"internalType": "address",
									"name": "input",
									"type": "address"
								},
								{
									"internalType": "uint256",
									"name": "totalAmount",
									"type": "uint256"
								},
								{
									"internalType": "uint256",
									"name": "feeAmount",
									"type": "uint256"
								},
								{
									"internalType": "address",
									"name": "swapper",
									"type": "address"
								},
								{
									"internalType": "bytes",
									"name": "data",
									"type": "bytes"
								},
								{
									"internalType": "address",
									"name": "sender",
									"type": "address"
								},
								{
									"internalType": "bool",
									"name": "native",
									"type": "bool"
								}
							],
							"internalType": "struct IExchangeAggregator.swapData",
							"name": "data",
							"type": "tuple"
						},
						{
							"internalType": "bytes",
							"name": "sig",
							"type": "bytes"
						}
					],
					"name": "swap",
					"outputs": [],
					"stateMutability": "nonpayable",
					"type": "function"
				},
				{
					"inputs": [
						{
							"components": [
								{
									"internalType": "address",
									"name": "input",
									"type": "address"
								},
								{
									"internalType": "uint256",
									"name": "totalAmount",
									"type": "uint256"
								},
								{
									"internalType": "uint256",
									"name": "feeAmount",
									"type": "uint256"
								},
								{
									"internalType": "address",
									"name": "swapper",
									"type": "address"
								},
								{
									"internalType": "bytes",
									"name": "data",
									"type": "bytes"
								},
								{
									"internalType": "address",
									"name": "sender",
									"type": "address"
								},
								{
									"internalType": "bool",
									"name": "native",
									"type": "bool"
								}
							],
							"internalType": "struct IExchangeAggregator.swapData",
							"name": "data",
							"type": "tuple"
						},
						{
							"internalType": "bytes",
							"name": "sig",
							"type": "bytes"
						}
					],
					"name": "swapNativeIn",
					"outputs": [],
					"stateMutability": "payable",
					"type": "function"
				},
				{
					"inputs": [
						{
							"internalType": "address",
							"name": "newOwner",
							"type": "address"
						}
					],
					"name": "transferOwnership",
					"outputs": [],
					"stateMutability": "nonpayable",
					"type": "function"
				},
				{
					"inputs": [
						{
							"internalType": "address",
							"name": "to",
							"type": "address"
						},
						{
							"internalType": "uint256",
							"name": "amount",
							"type": "uint256"
						}
					],
					"name": "withdrawETH",
					"outputs": [],
					"stateMutability": "nonpayable",
					"type": "function"
				},
				{
					"inputs": [
						{
							"internalType": "address",
							"name": "token",
							"type": "address"
						},
						{
							"internalType": "address",
							"name": "to",
							"type": "address"
						},
						{
							"internalType": "uint256",
							"name": "amount",
							"type": "uint256"
						}
					],
					"name": "withdrawToken",
					"outputs": [],
					"stateMutability": "nonpayable",
					"type": "function"
				}
			],
			"devdoc": {
				"kind": "dev",
				"methods": {
					"owner()": {
						"details": "Returns the address of the current owner."
					},
					"renounceOwnership()": {
						"details": "Leaves the contract without owner. It will not be possible to call `onlyOwner` functions anymore. Can only be called by the current owner. NOTE: Renouncing ownership will leave the contract without an owner, thereby removing any functionality that is only available to the owner."
					},
					"transferOwnership(address)": {
						"details": "Transfers ownership of the contract to a new account (`newOwner`). Can only be called by the current owner."
					}
				},
				"version": 1
			},
			"evm": {
				"assembly": "    /* \"contracts/ExchangeAggregator.sol\":379:3251  contract ExchangeAggregator is IExchangeAggregator,Ownable,IPriceProvider {... */\n  mstore(0x40, 0x80)\n    /* \"contracts/ExchangeAggregator.sol\":499:581  constructor(address _PriceProvider){... */\n  callvalue\n  dup1\n  iszero\n  tag_1\n  jumpi\n  0x00\n  dup1\n  revert\ntag_1:\n  pop\n  mload(0x40)\n  sub(codesize, bytecodeSize)\n  dup1\n  bytecodeSize\n  dup4\n  codecopy\n  dup2\n  dup2\n  add\n  0x40\n  mstore\n  dup2\n  add\n  swap1\n  tag_2\n  swap2\n  swap1\n  tag_3\n  jump\t// in\ntag_2:\n    /* \"@openzeppelin/contracts/access/Ownable.sol\":936:968  _transferOwnership(_msgSender()) */\n  tag_7\n    /* \"@openzeppelin/contracts/access/Ownable.sol\":955:967  _msgSender() */\n  tag_8\n    /* \"@openzeppelin/contracts/access/Ownable.sol\":955:965  _msgSender */\n  shl(0x20, tag_9)\n    /* \"@openzeppelin/contracts/access/Ownable.sol\":955:967  _msgSender() */\n  0x20\n  shr\n  jump\t// in\ntag_8:\n    /* \"@openzeppelin/contracts/access/Ownable.sol\":936:954  _transferOwnership */\n  shl(0x20, tag_10)\n    /* \"@openzeppelin/contracts/access/Ownable.sol\":936:968  _transferOwnership(_msgSender()) */\n  0x20\n  shr\n  jump\t// in\ntag_7:\n    /* \"contracts/ExchangeAggregator.sol\":560:574  _PriceProvider */\n  dup1\n    /* \"contracts/ExchangeAggregator.sol\":544:557  PriceProvider */\n  0x01\n  0x00\n    /* \"contracts/ExchangeAggregator.sol\":544:574  PriceProvider = _PriceProvider */\n  0x0100\n  exp\n  dup2\n  sload\n  dup2\n  0xffffffffffffffffffffffffffffffffffffffff\n  mul\n  not\n  and\n  swap1\n  dup4\n  0xffffffffffffffffffffffffffffffffffffffff\n  and\n  mul\n  or\n  swap1\n  sstore\n  pop\n    /* \"contracts/ExchangeAggregator.sol\":499:581  constructor(address _PriceProvider){... */\n  pop\n    /* \"contracts/ExchangeAggregator.sol\":379:3251  contract ExchangeAggregator is IExchangeAggregator,Ownable,IPriceProvider {... */\n  jump(tag_12)\n    /* \"@openzeppelin/contracts/utils/Context.sol\":640:736  function _msgSender() internal view virtual returns (address) {... */\ntag_9:\n    /* \"@openzeppelin/contracts/utils/Context.sol\":693:700  address */\n  0x00\n    /* \"@openzeppelin/contracts/utils/Context.sol\":719:729  msg.sender */\n  caller\n    /* \"@openzeppelin/contracts/utils/Context.sol\":712:729  return msg.sender */\n  swap1\n  pop\n    /* \"@openzeppelin/contracts/utils/Context.sol\":640:736  function _msgSender() internal view virtual returns (address) {... */\n  swap1\n  jump\t// out\n    /* \"@openzeppelin/contracts/access/Ownable.sol\":2433:2620  function _transferOwnership(address newOwner) internal virtual {... */\ntag_10:\n    /* \"@openzeppelin/contracts/access/Ownable.sol\":2506:2522  address oldOwner */\n  0x00\n    /* \"@openzeppelin/contracts/access/Ownable.sol\":2525:2531  _owner */\n  dup1\n  0x00\n  swap1\n  sload\n  swap1\n  0x0100\n  exp\n  swap1\n  div\n  0xffffffffffffffffffffffffffffffffffffffff\n  and\n    /* \"@openzeppelin/contracts/access/Ownable.sol\":2506:2531  address oldOwner = _owner */\n  swap1\n  pop\n    /* \"@openzeppelin/contracts/access/Ownable.sol\":2550:2558  newOwner */\n  dup2\n    /* \"@openzeppelin/contracts/access/Ownable.sol\":2541:2547  _owner */\n  0x00\n  dup1\n    /* \"@openzeppelin/contracts/access/Ownable.sol\":2541:2558  _owner = newOwner */\n  0x0100\n  exp\n  dup2\n  sload\n  dup2\n  0xffffffffffffffffffffffffffffffffffffffff\n  mul\n  not\n  and\n  swap1\n  dup4\n  0xffffffffffffffffffffffffffffffffffffffff\n  and\n  mul\n  or\n  swap1\n  sstore\n  pop\n    /* \"@openzeppelin/contracts/access/Ownable.sol\":2604:2612  newOwner */\n  dup2\n    /* \"@openzeppelin/contracts/access/Ownable.sol\":2573:2613  OwnershipTransferred(oldOwner, newOwner) */\n  0xffffffffffffffffffffffffffffffffffffffff\n  and\n    /* \"@openzeppelin/contracts/access/Ownable.sol\":2594:2602  oldOwner */\n  dup2\n    /* \"@openzeppelin/contracts/access/Ownable.sol\":2573:2613  OwnershipTransferred(oldOwner, newOwner) */\n  0xffffffffffffffffffffffffffffffffffffffff\n  and\n  0x8be0079c531659141344cd1fd0a4f28419497f9722a3daafe3b4186f6b6457e0\n  mload(0x40)\n  mload(0x40)\n  dup1\n  swap2\n  sub\n  swap1\n  log3\n    /* \"@openzeppelin/contracts/access/Ownable.sol\":2496:2620  {... */\n  pop\n    /* \"@openzeppelin/contracts/access/Ownable.sol\":2433:2620  function _transferOwnership(address newOwner) internal virtual {... */\n  pop\n  jump\t// out\n    /* \"#utility.yul\":88:205   */\ntag_16:\n    /* \"#utility.yul\":197:198   */\n  0x00\n    /* \"#utility.yul\":194:195   */\n  dup1\n    /* \"#utility.yul\":187:199   */\n  revert\n    /* \"#utility.yul\":334:460   */\ntag_18:\n    /* \"#utility.yul\":371:378   */\n  0x00\n    /* \"#utility.yul\":411:453   */\n  0xffffffffffffffffffffffffffffffffffffffff\n    /* \"#utility.yul\":404:409   */\n  dup3\n    /* \"#utility.yul\":400:454   */\n  and\n    /* \"#utility.yul\":389:454   */\n  swap1\n  pop\n    /* \"#utility.yul\":334:460   */\n  swap2\n  swap1\n  pop\n  jump\t// out\n    /* \"#utility.yul\":466:562   */\ntag_19:\n    /* \"#utility.yul\":503:510   */\n  0x00\n    /* \"#utility.yul\":532:556   */\n  tag_28\n    /* \"#utility.yul\":550:555   */\n  dup3\n    /* \"#utility.yul\":532:556   */\n  tag_18\n  jump\t// in\ntag_28:\n    /* \"#utility.yul\":521:556   */\n  swap1\n  pop\n    /* \"#utility.yul\":466:562   */\n  swap2\n  swap1\n  pop\n  jump\t// out\n    /* \"#utility.yul\":568:690   */\ntag_20:\n    /* \"#utility.yul\":641:665   */\n  tag_30\n    /* \"#utility.yul\":659:664   */\n  dup2\n    /* \"#utility.yul\":641:665   */\n  tag_19\n  jump\t// in\ntag_30:\n    /* \"#utility.yul\":634:639   */\n  dup2\n    /* \"#utility.yul\":631:666   */\n  eq\n    /* \"#utility.yul\":621:684   */\n  tag_31\n  jumpi\n    /* \"#utility.yul\":680:681   */\n  0x00\n    /* \"#utility.yul\":677:678   */\n  dup1\n    /* \"#utility.yul\":670:682   */\n  revert\n    /* \"#utility.yul\":621:684   */\ntag_31:\n    /* \"#utility.yul\":568:690   */\n  pop\n  jump\t// out\n    /* \"#utility.yul\":696:839   */\ntag_21:\n    /* \"#utility.yul\":753:758   */\n  0x00\n    /* \"#utility.yul\":784:790   */\n  dup2\n    /* \"#utility.yul\":778:791   */\n  mload\n    /* \"#utility.yul\":769:791   */\n  swap1\n  pop\n    /* \"#utility.yul\":800:833   */\n  tag_33\n    /* \"#utility.yul\":827:832   */\n  dup2\n    /* \"#utility.yul\":800:833   */\n  tag_20\n  jump\t// in\ntag_33:\n    /* \"#utility.yul\":696:839   */\n  swap3\n  swap2\n  pop\n  pop\n  jump\t// out\n    /* \"#utility.yul\":845:1196   */\ntag_3:\n    /* \"#utility.yul\":915:921   */\n  0x00\n    /* \"#utility.yul\":964:966   */\n  0x20\n    /* \"#utility.yul\":952:961   */\n  dup3\n    /* \"#utility.yul\":943:950   */\n  dup5\n    /* \"#utility.yul\":939:962   */\n  sub\n    /* \"#utility.yul\":935:967   */\n  slt\n    /* \"#utility.yul\":932:1051   */\n  iszero\n  tag_35\n  jumpi\n    /* \"#utility.yul\":970:1049   */\n  tag_36\n  tag_16\n  jump\t// in\ntag_36:\n    /* \"#utility.yul\":932:1051   */\ntag_35:\n    /* \"#utility.yul\":1090:1091   */\n  0x00\n    /* \"#utility.yul\":1115:1179   */\n  tag_37\n    /* \"#utility.yul\":1171:1178   */\n  dup5\n    /* \"#utility.yul\":1162:1168   */\n  dup3\n    /* \"#utility.yul\":1151:1160   */\n  dup6\n    /* \"#utility.yul\":1147:1169   */\n  add\n    /* \"#utility.yul\":1115:1179   */\n  tag_21\n  jump\t// in\ntag_37:\n    /* \"#utility.yul\":1105:1179   */\n  swap2\n  pop\n    /* \"#utility.yul\":1061:1189   */\n  pop\n    /* \"#utility.yul\":845:1196   */\n  swap3\n  swap2\n  pop\n  pop\n  jump\t// out\n    /* \"contracts/ExchangeAggregator.sol\":379:3251  contract ExchangeAggregator is IExchangeAggregator,Ownable,IPriceProvider {... */\ntag_12:\n  dataSize(sub_0)\n  dup1\n  dataOffset(sub_0)\n  0x00\n  codecopy\n  0x00\n  return\nstop\n\nsub_0: assembly {\n        /* \"contracts/ExchangeAggregator.sol\":379:3251  contract ExchangeAggregator is IExchangeAggregator,Ownable,IPriceProvider {... */\n      mstore(0x40, 0x80)\n      jumpi(tag_1, lt(calldatasize, 0x04))\n      shr(0xe0, calldataload(0x00))\n      dup1\n      0x6f171b51\n      gt\n      tag_16\n      jumpi\n      dup1\n      0xae4f5be8\n      gt\n      tag_17\n      jumpi\n      dup1\n      0xae4f5be8\n      eq\n      tag_12\n      jumpi\n      dup1\n      0xea0dc9f7\n      eq\n      tag_13\n      jumpi\n      dup1\n      0xecbdbb32\n      eq\n      tag_14\n      jumpi\n      dup1\n      0xf2fde38b\n      eq\n      tag_15\n      jumpi\n      jump(tag_1)\n    tag_17:\n      dup1\n      0x6f171b51\n      eq\n      tag_9\n      jumpi\n      dup1\n      0x715018a6\n      eq\n      tag_10\n      jumpi\n      dup1\n      0x8da5cb5b\n      eq\n      tag_11\n      jumpi\n      jump(tag_1)\n    tag_16:\n      dup1\n      0x29f92104\n      gt\n      tag_18\n      jumpi\n      dup1\n      0x29f92104\n      eq\n      tag_5\n      jumpi\n      dup1\n      0x4782f779\n      eq\n      tag_6\n      jumpi\n      dup1\n      0x4e1a67f5\n      eq\n      tag_7\n      jumpi\n      dup1\n      0x6110358d\n      eq\n      tag_8\n      jumpi\n      jump(tag_1)\n    tag_18:\n      dup1\n      0x01e33667\n      eq\n      tag_2\n      jumpi\n      dup1\n      0x04599012\n      eq\n      tag_3\n      jumpi\n      dup1\n      0x105d8ccf\n      eq\n      tag_4\n      jumpi\n    tag_1:\n      0x00\n      dup1\n      revert\n        /* \"contracts/ExchangeAggregator.sol\":2986:3125  function withdrawToken(address token,address to,uint amount) public onlyOwner {... */\n    tag_2:\n      callvalue\n      dup1\n      iszero\n      tag_19\n      jumpi\n      0x00\n      dup1\n      revert\n    tag_19:\n      pop\n      tag_20\n      0x04\n      dup1\n      calldatasize\n      sub\n      dup2\n      add\n      swap1\n      tag_21\n      swap2\n      swap1\n      tag_22\n      jump\t// in\n    tag_21:\n      tag_23\n      jump\t// in\n    tag_20:\n      stop\n        /* \"contracts/ExchangeAggregator.sol\":2633:2756  function balanceToken(address token) public view returns(uint){... */\n    tag_3:\n      callvalue\n      dup1\n      iszero\n      tag_24\n      jumpi\n      0x00\n      dup1\n      revert\n    tag_24:\n      pop\n      tag_25\n      0x04\n      dup1\n      calldatasize\n      sub\n      dup2\n      add\n      swap1\n      tag_26\n      swap2\n      swap1\n      tag_27\n      jump\t// in\n    tag_26:\n      tag_28\n      jump\t// in\n    tag_25:\n      mload(0x40)\n      tag_29\n      swap2\n      swap1\n      tag_30\n      jump\t// in\n    tag_29:\n      mload(0x40)\n      dup1\n      swap2\n      sub\n      swap1\n      return\n        /* \"contracts/ExchangeAggregator.sol\":2588:2627  function Edge() public payable {... */\n    tag_4:\n      tag_31\n      tag_32\n      jump\t// in\n    tag_31:\n      stop\n        /* \"contracts/ExchangeAggregator.sol\":1284:1675  function swapNativeIn(swapData calldata data,bytes calldata sig) public payable {... */\n    tag_5:\n      tag_33\n      0x04\n      dup1\n      calldatasize\n      sub\n      dup2\n      add\n      swap1\n      tag_34\n      swap2\n      swap1\n      tag_35\n      jump\t// in\n    tag_34:\n      tag_36\n      jump\t// in\n    tag_33:\n      stop\n        /* \"contracts/ExchangeAggregator.sol\":2860:2980  function withdrawETH(address to,uint amount) public onlyOwner {... */\n    tag_6:\n      callvalue\n      dup1\n      iszero\n      tag_37\n      jumpi\n      0x00\n      dup1\n      revert\n    tag_37:\n      pop\n      tag_38\n      0x04\n      dup1\n      calldatasize\n      sub\n      dup2\n      add\n      swap1\n      tag_39\n      swap2\n      swap1\n      tag_40\n      jump\t// in\n    tag_39:\n      tag_41\n      jump\t// in\n    tag_38:\n      stop\n        /* \"contracts/ExchangeAggregator.sol\":459:487  address public PriceProvider */\n    tag_7:\n      callvalue\n      dup1\n      iszero\n      tag_42\n      jumpi\n      0x00\n      dup1\n      revert\n    tag_42:\n      pop\n      tag_43\n      tag_44\n      jump\t// in\n    tag_43:\n      mload(0x40)\n      tag_45\n      swap2\n      swap1\n      tag_46\n      jump\t// in\n    tag_45:\n      mload(0x40)\n      dup1\n      swap2\n      sub\n      swap1\n      return\n        /* \"contracts/ExchangeAggregator.sol\":588:842  function estimateAmountOut(address provider,address tA,address tB,uint256 amountIn,uint8 version) external view returns (uint256 amountOut,uint24 fee){... */\n    tag_8:\n      callvalue\n      dup1\n      iszero\n      tag_47\n      jumpi\n      0x00\n      dup1\n      revert\n    tag_47:\n      pop\n      tag_48\n      0x04\n      dup1\n      calldatasize\n      sub\n      dup2\n      add\n      swap1\n      tag_49\n      swap2\n      swap1\n      tag_50\n      jump\t// in\n    tag_49:\n      tag_51\n      jump\t// in\n    tag_48:\n      mload(0x40)\n      tag_52\n      swap3\n      swap2\n      swap1\n      tag_53\n      jump\t// in\n    tag_52:\n      mload(0x40)\n      dup1\n      swap2\n      sub\n      swap1\n      return\n        /* \"contracts/ExchangeAggregator.sol\":1682:2502  function Swap0(swapData calldata data,bytes calldata sig) public payable {... */\n    tag_9:\n      tag_54\n      0x04\n      dup1\n      calldatasize\n      sub\n      dup2\n      add\n      swap1\n      tag_55\n      swap2\n      swap1\n      tag_35\n      jump\t// in\n    tag_55:\n      tag_56\n      jump\t// in\n    tag_54:\n      stop\n        /* \"@openzeppelin/contracts/access/Ownable.sol\":1831:1932  function renounceOwnership() public virtual onlyOwner {... */\n    tag_10:\n      callvalue\n      dup1\n      iszero\n      tag_57\n      jumpi\n      0x00\n      dup1\n      revert\n    tag_57:\n      pop\n      tag_58\n      tag_59\n      jump\t// in\n    tag_58:\n      stop\n        /* \"@openzeppelin/contracts/access/Ownable.sol\":1201:1286  function owner() public view virtual returns (address) {... */\n    tag_11:\n      callvalue\n      dup1\n      iszero\n      tag_60\n      jumpi\n      0x00\n      dup1\n      revert\n    tag_60:\n      pop\n      tag_61\n      tag_62\n      jump\t// in\n    tag_61:\n      mload(0x40)\n      tag_63\n      swap2\n      swap1\n      tag_46\n      jump\t// in\n    tag_63:\n      mload(0x40)\n      dup1\n      swap2\n      sub\n      swap1\n      return\n        /* \"contracts/ExchangeAggregator.sol\":3131:3248  function changePriceProvider(address _PriceProvider) public onlyOwner {... */\n    tag_12:\n      callvalue\n      dup1\n      iszero\n      tag_64\n      jumpi\n      0x00\n      dup1\n      revert\n    tag_64:\n      pop\n      tag_65\n      0x04\n      dup1\n      calldatasize\n      sub\n      dup2\n      add\n      swap1\n      tag_66\n      swap2\n      swap1\n      tag_27\n      jump\t// in\n    tag_66:\n      tag_67\n      jump\t// in\n    tag_65:\n      stop\n        /* \"contracts/ExchangeAggregator.sol\":848:1278  function swap(swapData calldata data,bytes calldata sig) public {... */\n    tag_13:\n      callvalue\n      dup1\n      iszero\n      tag_68\n      jumpi\n      0x00\n      dup1\n      revert\n    tag_68:\n      pop\n      tag_69\n      0x04\n      dup1\n      calldatasize\n      sub\n      dup2\n      add\n      swap1\n      tag_70\n      swap2\n      swap1\n      tag_35\n      jump\t// in\n    tag_70:\n      tag_71\n      jump\t// in\n    tag_69:\n      stop\n        /* \"contracts/ExchangeAggregator.sol\":2762:2854  function balanceETH() public view returns(uint){... */\n    tag_14:\n      callvalue\n      dup1\n      iszero\n      tag_72\n      jumpi\n      0x00\n      dup1\n      revert\n    tag_72:\n      pop\n      tag_73\n      tag_74\n      jump\t// in\n    tag_73:\n      mload(0x40)\n      tag_75\n      swap2\n      swap1\n      tag_30\n      jump\t// in\n    tag_75:\n      mload(0x40)\n      dup1\n      swap2\n      sub\n      swap1\n      return\n        /* \"@openzeppelin/contracts/access/Ownable.sol\":2081:2279  function transferOwnership(address newOwner) public virtual onlyOwner {... */\n    tag_15:\n      callvalue\n      dup1\n      iszero\n      tag_76\n      jumpi\n      0x00\n      dup1\n      revert\n    tag_76:\n      pop\n      tag_77\n      0x04\n      dup1\n      calldatasize\n      sub\n      dup2\n      add\n      swap1\n      tag_78\n      swap2\n      swap1\n      tag_27\n      jump\t// in\n    tag_78:\n      tag_79\n      jump\t// in\n    tag_77:\n      stop\n        /* \"contracts/ExchangeAggregator.sol\":2986:3125  function withdrawToken(address token,address to,uint amount) public onlyOwner {... */\n    tag_23:\n        /* \"@openzeppelin/contracts/access/Ownable.sol\":1094:1107  _checkOwner() */\n      tag_81\n        /* \"@openzeppelin/contracts/access/Ownable.sol\":1094:1105  _checkOwner */\n      tag_82\n        /* \"@openzeppelin/contracts/access/Ownable.sol\":1094:1107  _checkOwner() */\n      jump\t// in\n    tag_81:\n        /* \"contracts/ExchangeAggregator.sol\":3074:3118  TransferHelper.safeTransfer(token,to,amount) */\n      tag_84\n        /* \"contracts/ExchangeAggregator.sol\":3102:3107  token */\n      dup4\n        /* \"contracts/ExchangeAggregator.sol\":3108:3110  to */\n      dup4\n        /* \"contracts/ExchangeAggregator.sol\":3111:3117  amount */\n      dup4\n        /* \"contracts/ExchangeAggregator.sol\":3074:3101  TransferHelper.safeTransfer */\n      tag_85\n        /* \"contracts/ExchangeAggregator.sol\":3074:3118  TransferHelper.safeTransfer(token,to,amount) */\n      jump\t// in\n    tag_84:\n        /* \"contracts/ExchangeAggregator.sol\":2986:3125  function withdrawToken(address token,address to,uint amount) public onlyOwner {... */\n      pop\n      pop\n      pop\n      jump\t// out\n        /* \"contracts/ExchangeAggregator.sol\":2633:2756  function balanceToken(address token) public view returns(uint){... */\n    tag_28:\n        /* \"contracts/ExchangeAggregator.sol\":2690:2694  uint */\n      0x00\n        /* \"contracts/ExchangeAggregator.sol\":2718:2723  token */\n      dup2\n        /* \"contracts/ExchangeAggregator.sol\":2711:2734  IERC20(token).balanceOf */\n      0xffffffffffffffffffffffffffffffffffffffff\n      and\n      0x70a08231\n        /* \"contracts/ExchangeAggregator.sol\":2743:2747  this */\n      address\n        /* \"contracts/ExchangeAggregator.sol\":2711:2749  IERC20(token).balanceOf(address(this)) */\n      mload(0x40)\n      dup3\n      0xffffffff\n      and\n      0xe0\n      shl\n      dup2\n      mstore\n      0x04\n      add\n      tag_87\n      swap2\n      swap1\n      tag_46\n      jump\t// in\n    tag_87:\n      0x20\n      mload(0x40)\n      dup1\n      dup4\n      sub\n      dup2\n      dup7\n      gas\n      staticcall\n      iszero\n      dup1\n      iszero\n      tag_89\n      jumpi\n      returndatasize\n      0x00\n      dup1\n      returndatacopy\n      revert(0x00, returndatasize)\n    tag_89:\n      pop\n      pop\n      pop\n      pop\n      mload(0x40)\n      returndatasize\n      not(0x1f)\n      0x1f\n      dup3\n      add\n      and\n      dup3\n      add\n      dup1\n      0x40\n      mstore\n      pop\n      dup2\n      add\n      swap1\n      tag_90\n      swap2\n      swap1\n      tag_91\n      jump\t// in\n    tag_90:\n        /* \"contracts/ExchangeAggregator.sol\":2704:2749  return IERC20(token).balanceOf(address(this)) */\n      swap1\n      pop\n        /* \"contracts/ExchangeAggregator.sol\":2633:2756  function balanceToken(address token) public view returns(uint){... */\n      swap2\n      swap1\n      pop\n      jump\t// out\n        /* \"contracts/ExchangeAggregator.sol\":2588:2627  function Edge() public payable {... */\n    tag_32:\n      jump\t// out\n        /* \"contracts/ExchangeAggregator.sol\":1284:1675  function swapNativeIn(swapData calldata data,bytes calldata sig) public payable {... */\n    tag_36:\n        /* \"contracts/ExchangeAggregator.sol\":1397:1407  msg.sender */\n      caller\n        /* \"contracts/ExchangeAggregator.sol\":1382:1407  data.sender == msg.sender */\n      0xffffffffffffffffffffffffffffffffffffffff\n      and\n        /* \"contracts/ExchangeAggregator.sol\":1382:1386  data */\n      dup4\n        /* \"contracts/ExchangeAggregator.sol\":1382:1393  data.sender */\n      0xa0\n      add\n      0x20\n      dup2\n      add\n      swap1\n      tag_94\n      swap2\n      swap1\n      tag_27\n      jump\t// in\n    tag_94:\n        /* \"contracts/ExchangeAggregator.sol\":1382:1407  data.sender == msg.sender */\n      0xffffffffffffffffffffffffffffffffffffffff\n      and\n      eq\n        /* \"contracts/ExchangeAggregator.sol\":1374:1425  require(data.sender == msg.sender,\"invaled sender\") */\n      tag_95\n      jumpi\n      mload(0x40)\n      0x08c379a000000000000000000000000000000000000000000000000000000000\n      dup2\n      mstore\n      0x04\n      add\n      tag_96\n      swap1\n      tag_97\n      jump\t// in\n    tag_96:\n      mload(0x40)\n      dup1\n      swap2\n      sub\n      swap1\n      revert\n    tag_95:\n        /* \"contracts/ExchangeAggregator.sol\":1435:1480  utils.checkSig(owner(),abi.encode(data), sig) */\n      tag_98\n        /* \"contracts/ExchangeAggregator.sol\":1450:1457  owner() */\n      tag_99\n        /* \"contracts/ExchangeAggregator.sol\":1450:1455  owner */\n      tag_62\n        /* \"contracts/ExchangeAggregator.sol\":1450:1457  owner() */\n      jump\t// in\n    tag_99:\n        /* \"contracts/ExchangeAggregator.sol\":1469:1473  data */\n      dup5\n        /* \"contracts/ExchangeAggregator.sol\":1458:1474  abi.encode(data) */\n      add(0x20, mload(0x40))\n      tag_100\n      swap2\n      swap1\n      tag_101\n      jump\t// in\n    tag_100:\n      mload(0x40)\n      0x20\n      dup2\n      dup4\n      sub\n      sub\n      dup2\n      mstore\n      swap1\n      0x40\n      mstore\n        /* \"contracts/ExchangeAggregator.sol\":1476:1479  sig */\n      dup5\n      dup5\n        /* \"contracts/ExchangeAggregator.sol\":1435:1480  utils.checkSig(owner(),abi.encode(data), sig) */\n      dup1\n      dup1\n      0x1f\n      add\n      0x20\n      dup1\n      swap2\n      div\n      mul\n      0x20\n      add\n      mload(0x40)\n      swap1\n      dup2\n      add\n      0x40\n      mstore\n      dup1\n      swap4\n      swap3\n      swap2\n      swap1\n      dup2\n      dup2\n      mstore\n      0x20\n      add\n      dup4\n      dup4\n      dup1\n      dup3\n      dup5\n      calldatacopy\n      0x00\n      dup2\n      dup5\n      add\n      mstore\n      not(0x1f)\n      0x1f\n      dup3\n      add\n      and\n      swap1\n      pop\n      dup1\n      dup4\n      add\n      swap3\n      pop\n      pop\n      pop\n      pop\n      pop\n      pop\n      pop\n        /* \"contracts/ExchangeAggregator.sol\":1435:1449  utils.checkSig */\n      tag_102\n        /* \"contracts/ExchangeAggregator.sol\":1435:1480  utils.checkSig(owner(),abi.encode(data), sig) */\n      jump\t// in\n    tag_98:\n        /* \"contracts/ExchangeAggregator.sol\":1511:1515  data */\n      dup3\n        /* \"contracts/ExchangeAggregator.sol\":1511:1527  data.totalAmount */\n      0x20\n      add\n      calldataload\n        /* \"contracts/ExchangeAggregator.sol\":1498:1507  msg.value */\n      callvalue\n        /* \"contracts/ExchangeAggregator.sol\":1498:1527  msg.value >= data.totalAmount */\n      lt\n      iszero\n        /* \"contracts/ExchangeAggregator.sol\":1490:1556  require(msg.value >= data.totalAmount,\"insufficient input amount\") */\n      tag_103\n      jumpi\n      mload(0x40)\n      0x08c379a000000000000000000000000000000000000000000000000000000000\n      dup2\n      mstore\n      0x04\n      add\n      tag_104\n      swap1\n      tag_105\n      jump\t// in\n    tag_104:\n      mload(0x40)\n      dup1\n      swap2\n      sub\n      swap1\n      revert\n    tag_103:\n        /* \"contracts/ExchangeAggregator.sol\":1566:1577  uint amount */\n      0x00\n        /* \"contracts/ExchangeAggregator.sol\":1592:1596  data */\n      dup4\n        /* \"contracts/ExchangeAggregator.sol\":1592:1606  data.feeAmount */\n      0x40\n      add\n      calldataload\n        /* \"contracts/ExchangeAggregator.sol\":1580:1589  msg.value */\n      callvalue\n        /* \"contracts/ExchangeAggregator.sol\":1580:1606  msg.value - data.feeAmount */\n      tag_106\n      swap2\n      swap1\n      tag_107\n      jump\t// in\n    tag_106:\n        /* \"contracts/ExchangeAggregator.sol\":1566:1606  uint amount = msg.value - data.feeAmount */\n      swap1\n      pop\n        /* \"contracts/ExchangeAggregator.sol\":1618:1668  SafeCaller.safeCall(data.swapper,amount,data.data) */\n      tag_108\n        /* \"contracts/ExchangeAggregator.sol\":1638:1642  data */\n      dup5\n        /* \"contracts/ExchangeAggregator.sol\":1638:1650  data.swapper */\n      0x60\n      add\n      0x20\n      dup2\n      add\n      swap1\n      tag_109\n      swap2\n      swap1\n      tag_27\n      jump\t// in\n    tag_109:\n        /* \"contracts/ExchangeAggregator.sol\":1651:1657  amount */\n      dup3\n        /* \"contracts/ExchangeAggregator.sol\":1658:1662  data */\n      dup7\n        /* \"contracts/ExchangeAggregator.sol\":1658:1667  data.data */\n      dup1\n      0x80\n      add\n      swap1\n      tag_110\n      swap2\n      swap1\n      tag_111\n      jump\t// in\n    tag_110:\n        /* \"contracts/ExchangeAggregator.sol\":1618:1668  SafeCaller.safeCall(data.swapper,amount,data.data) */\n      dup1\n      dup1\n      0x1f\n      add\n      0x20\n      dup1\n      swap2\n      div\n      mul\n      0x20\n      add\n      mload(0x40)\n      swap1\n      dup2\n      add\n      0x40\n      mstore\n      dup1\n      swap4\n      swap3\n      swap2\n      swap1\n      dup2\n      dup2\n      mstore\n      0x20\n      add\n      dup4\n      dup4\n      dup1\n      dup3\n      dup5\n      calldatacopy\n      0x00\n      dup2\n      dup5\n      add\n      mstore\n      not(0x1f)\n      0x1f\n      dup3\n      add\n      and\n      swap1\n      pop\n      dup1\n      dup4\n      add\n      swap3\n      pop\n      pop\n      pop\n      pop\n      pop\n      pop\n      pop\n        /* \"contracts/ExchangeAggregator.sol\":1618:1637  SafeCaller.safeCall */\n      tag_112\n        /* \"contracts/ExchangeAggregator.sol\":1618:1668  SafeCaller.safeCall(data.swapper,amount,data.data) */\n      jump\t// in\n    tag_108:\n        /* \"contracts/ExchangeAggregator.sol\":1364:1675  {... */\n      pop\n        /* \"contracts/ExchangeAggregator.sol\":1284:1675  function swapNativeIn(swapData calldata data,bytes calldata sig) public payable {... */\n      pop\n      pop\n      pop\n      jump\t// out\n        /* \"contracts/ExchangeAggregator.sol\":2860:2980  function withdrawETH(address to,uint amount) public onlyOwner {... */\n    tag_41:\n        /* \"@openzeppelin/contracts/access/Ownable.sol\":1094:1107  _checkOwner() */\n      tag_114\n        /* \"@openzeppelin/contracts/access/Ownable.sol\":1094:1105  _checkOwner */\n      tag_82\n        /* \"@openzeppelin/contracts/access/Ownable.sol\":1094:1107  _checkOwner() */\n      jump\t// in\n    tag_114:\n        /* \"contracts/ExchangeAggregator.sol\":2932:2973  TransferHelper.safeTransferETH(to,amount) */\n      tag_116\n        /* \"contracts/ExchangeAggregator.sol\":2963:2965  to */\n      dup3\n        /* \"contracts/ExchangeAggregator.sol\":2966:2972  amount */\n      dup3\n        /* \"contracts/ExchangeAggregator.sol\":2932:2962  TransferHelper.safeTransferETH */\n      tag_117\n        /* \"contracts/ExchangeAggregator.sol\":2932:2973  TransferHelper.safeTransferETH(to,amount) */\n      jump\t// in\n    tag_116:\n        /* \"contracts/ExchangeAggregator.sol\":2860:2980  function withdrawETH(address to,uint amount) public onlyOwner {... */\n      pop\n      pop\n      jump\t// out\n        /* \"contracts/ExchangeAggregator.sol\":459:487  address public PriceProvider */\n    tag_44:\n      0x01\n      0x00\n      swap1\n      sload\n      swap1\n      0x0100\n      exp\n      swap1\n      div\n      0xffffffffffffffffffffffffffffffffffffffff\n      and\n      dup2\n      jump\t// out\n        /* \"contracts/ExchangeAggregator.sol\":588:842  function estimateAmountOut(address provider,address tA,address tB,uint256 amountIn,uint8 version) external view returns (uint256 amountOut,uint24 fee){... */\n    tag_51:\n        /* \"contracts/ExchangeAggregator.sol\":709:726  uint256 amountOut */\n      0x00\n        /* \"contracts/ExchangeAggregator.sol\":727:737  uint24 fee */\n      dup1\n        /* \"contracts/ExchangeAggregator.sol\":770:783  PriceProvider */\n      0x01\n      0x00\n      swap1\n      sload\n      swap1\n      0x0100\n      exp\n      swap1\n      div\n      0xffffffffffffffffffffffffffffffffffffffff\n      and\n        /* \"contracts/ExchangeAggregator.sol\":755:802  IPriceProvider(PriceProvider).estimateAmountOut */\n      0xffffffffffffffffffffffffffffffffffffffff\n      and\n      0x6110358d\n        /* \"contracts/ExchangeAggregator.sol\":803:811  provider */\n      dup9\n        /* \"contracts/ExchangeAggregator.sol\":812:814  tA */\n      dup9\n        /* \"contracts/ExchangeAggregator.sol\":815:817  tB */\n      dup9\n        /* \"contracts/ExchangeAggregator.sol\":818:826  amountIn */\n      dup9\n        /* \"contracts/ExchangeAggregator.sol\":827:834  version */\n      dup9\n        /* \"contracts/ExchangeAggregator.sol\":755:835  IPriceProvider(PriceProvider).estimateAmountOut(provider,tA,tB,amountIn,version) */\n      mload(0x40)\n      dup7\n      0xffffffff\n      and\n      0xe0\n      shl\n      dup2\n      mstore\n      0x04\n      add\n      tag_119\n      swap6\n      swap5\n      swap4\n      swap3\n      swap2\n      swap1\n      tag_120\n      jump\t// in\n    tag_119:\n      0x40\n      dup1\n      mload\n      dup1\n      dup4\n      sub\n      dup2\n      dup7\n      gas\n      staticcall\n      iszero\n      dup1\n      iszero\n      tag_122\n      jumpi\n      returndatasize\n      0x00\n      dup1\n      returndatacopy\n      revert(0x00, returndatasize)\n    tag_122:\n      pop\n      pop\n      pop\n      pop\n      mload(0x40)\n      returndatasize\n      not(0x1f)\n      0x1f\n      dup3\n      add\n      and\n      dup3\n      add\n      dup1\n      0x40\n      mstore\n      pop\n      dup2\n      add\n      swap1\n      tag_123\n      swap2\n      swap1\n      tag_124\n      jump\t// in\n    tag_123:\n        /* \"contracts/ExchangeAggregator.sol\":748:835  return IPriceProvider(PriceProvider).estimateAmountOut(provider,tA,tB,amountIn,version) */\n      swap2\n      pop\n      swap2\n      pop\n        /* \"contracts/ExchangeAggregator.sol\":588:842  function estimateAmountOut(address provider,address tA,address tB,uint256 amountIn,uint8 version) external view returns (uint256 amountOut,uint24 fee){... */\n      swap6\n      pop\n      swap6\n      swap4\n      pop\n      pop\n      pop\n      pop\n      jump\t// out\n        /* \"contracts/ExchangeAggregator.sol\":1682:2502  function Swap0(swapData calldata data,bytes calldata sig) public payable {... */\n    tag_56:\n        /* \"contracts/ExchangeAggregator.sol\":1788:1798  msg.sender */\n      caller\n        /* \"contracts/ExchangeAggregator.sol\":1773:1798  data.sender == msg.sender */\n      0xffffffffffffffffffffffffffffffffffffffff\n      and\n        /* \"contracts/ExchangeAggregator.sol\":1773:1777  data */\n      dup4\n        /* \"contracts/ExchangeAggregator.sol\":1773:1784  data.sender */\n      0xa0\n      add\n      0x20\n      dup2\n      add\n      swap1\n      tag_126\n      swap2\n      swap1\n      tag_27\n      jump\t// in\n    tag_126:\n        /* \"contracts/ExchangeAggregator.sol\":1773:1798  data.sender == msg.sender */\n      0xffffffffffffffffffffffffffffffffffffffff\n      and\n      eq\n        /* \"contracts/ExchangeAggregator.sol\":1765:1816  require(data.sender == msg.sender,\"invaled sender\") */\n      tag_127\n      jumpi\n      mload(0x40)\n      0x08c379a000000000000000000000000000000000000000000000000000000000\n      dup2\n      mstore\n      0x04\n      add\n      tag_128\n      swap1\n      tag_97\n      jump\t// in\n    tag_128:\n      mload(0x40)\n      dup1\n      swap2\n      sub\n      swap1\n      revert\n    tag_127:\n        /* \"contracts/ExchangeAggregator.sol\":1826:1871  utils.checkSig(owner(),abi.encode(data), sig) */\n      tag_129\n        /* \"contracts/ExchangeAggregator.sol\":1841:1848  owner() */\n      tag_130\n        /* \"contracts/ExchangeAggregator.sol\":1841:1846  owner */\n      tag_62\n        /* \"contracts/ExchangeAggregator.sol\":1841:1848  owner() */\n      jump\t// in\n    tag_130:\n        /* \"contracts/ExchangeAggregator.sol\":1860:1864  data */\n      dup5\n        /* \"contracts/ExchangeAggregator.sol\":1849:1865  abi.encode(data) */\n      add(0x20, mload(0x40))\n      tag_131\n      swap2\n      swap1\n      tag_101\n      jump\t// in\n    tag_131:\n      mload(0x40)\n      0x20\n      dup2\n      dup4\n      sub\n      sub\n      dup2\n      mstore\n      swap1\n      0x40\n      mstore\n        /* \"contracts/ExchangeAggregator.sol\":1867:1870  sig */\n      dup5\n      dup5\n        /* \"contracts/ExchangeAggregator.sol\":1826:1871  utils.checkSig(owner(),abi.encode(data), sig) */\n      dup1\n      dup1\n      0x1f\n      add\n      0x20\n      dup1\n      swap2\n      div\n      mul\n      0x20\n      add\n      mload(0x40)\n      swap1\n      dup2\n      add\n      0x40\n      mstore\n      dup1\n      swap4\n      swap3\n      swap2\n      swap1\n      dup2\n      dup2\n      mstore\n      0x20\n      add\n      dup4\n      dup4\n      dup1\n      dup3\n      dup5\n      calldatacopy\n      0x00\n      dup2\n      dup5\n      add\n      mstore\n      not(0x1f)\n      0x1f\n      dup3\n      add\n      and\n      swap1\n      pop\n      dup1\n      dup4\n      add\n      swap3\n      pop\n      pop\n      pop\n      pop\n      pop\n      pop\n      pop\n        /* \"contracts/ExchangeAggregator.sol\":1826:1840  utils.checkSig */\n      tag_102\n        /* \"contracts/ExchangeAggregator.sol\":1826:1871  utils.checkSig(owner(),abi.encode(data), sig) */\n      jump\t// in\n    tag_129:\n        /* \"contracts/ExchangeAggregator.sol\":1881:1894  uint amountIn */\n      0x00\n        /* \"contracts/ExchangeAggregator.sol\":1914:1918  data */\n      dup4\n        /* \"contracts/ExchangeAggregator.sol\":1914:1928  data.feeAmount */\n      0x40\n      add\n      calldataload\n        /* \"contracts/ExchangeAggregator.sol\":1897:1901  data */\n      dup5\n        /* \"contracts/ExchangeAggregator.sol\":1897:1913  data.totalAmount */\n      0x20\n      add\n      calldataload\n        /* \"contracts/ExchangeAggregator.sol\":1897:1928  data.totalAmount-data.feeAmount */\n      tag_132\n      swap2\n      swap1\n      tag_107\n      jump\t// in\n    tag_132:\n        /* \"contracts/ExchangeAggregator.sol\":1881:1928  uint amountIn = data.totalAmount-data.feeAmount */\n      swap1\n      pop\n        /* \"contracts/ExchangeAggregator.sol\":1938:1948  uint value */\n      0x00\n        /* \"contracts/ExchangeAggregator.sol\":1963:1967  data */\n      dup5\n        /* \"contracts/ExchangeAggregator.sol\":1963:1974  data.native */\n      0xc0\n      add\n      0x20\n      dup2\n      add\n      swap1\n      tag_133\n      swap2\n      swap1\n      tag_134\n      jump\t// in\n    tag_133:\n        /* \"contracts/ExchangeAggregator.sol\":1958:2437  if (!data.native) {... */\n      tag_135\n      jumpi\n        /* \"contracts/ExchangeAggregator.sol\":1990:2067  TransferHelper.safeTransferFrom(data.input,msg.sender,address(this),amountIn) */\n      tag_136\n        /* \"contracts/ExchangeAggregator.sol\":2022:2026  data */\n      dup6\n        /* \"contracts/ExchangeAggregator.sol\":2022:2032  data.input */\n      0x00\n      add\n      0x20\n      dup2\n      add\n      swap1\n      tag_137\n      swap2\n      swap1\n      tag_27\n      jump\t// in\n    tag_137:\n        /* \"contracts/ExchangeAggregator.sol\":2033:2043  msg.sender */\n      caller\n        /* \"contracts/ExchangeAggregator.sol\":2052:2056  this */\n      address\n        /* \"contracts/ExchangeAggregator.sol\":2058:2066  amountIn */\n      dup6\n        /* \"contracts/ExchangeAggregator.sol\":1990:2021  TransferHelper.safeTransferFrom */\n      tag_138\n        /* \"contracts/ExchangeAggregator.sol\":1990:2067  TransferHelper.safeTransferFrom(data.input,msg.sender,address(this),amountIn) */\n      jump\t// in\n    tag_136:\n        /* \"contracts/ExchangeAggregator.sol\":2081:2158  TransferHelper.safeTransferFrom(data.input,msg.sender,owner(),data.feeAmount) */\n      tag_139\n        /* \"contracts/ExchangeAggregator.sol\":2113:2117  data */\n      dup6\n        /* \"contracts/ExchangeAggregator.sol\":2113:2123  data.input */\n      0x00\n      add\n      0x20\n      dup2\n      add\n      swap1\n      tag_140\n      swap2\n      swap1\n      tag_27\n      jump\t// in\n    tag_140:\n        /* \"contracts/ExchangeAggregator.sol\":2124:2134  msg.sender */\n      caller\n        /* \"contracts/ExchangeAggregator.sol\":2135:2142  owner() */\n      tag_141\n        /* \"contracts/ExchangeAggregator.sol\":2135:2140  owner */\n      tag_62\n        /* \"contracts/ExchangeAggregator.sol\":2135:2142  owner() */\n      jump\t// in\n    tag_141:\n        /* \"contracts/ExchangeAggregator.sol\":2143:2147  data */\n      dup9\n        /* \"contracts/ExchangeAggregator.sol\":2143:2157  data.feeAmount */\n      0x40\n      add\n      calldataload\n        /* \"contracts/ExchangeAggregator.sol\":2081:2112  TransferHelper.safeTransferFrom */\n      tag_138\n        /* \"contracts/ExchangeAggregator.sol\":2081:2158  TransferHelper.safeTransferFrom(data.input,msg.sender,owner(),data.feeAmount) */\n      jump\t// in\n    tag_139:\n        /* \"contracts/ExchangeAggregator.sol\":2172:2232  TransferHelper.safeApprove(data.input,data.swapper,amountIn) */\n      tag_142\n        /* \"contracts/ExchangeAggregator.sol\":2199:2203  data */\n      dup6\n        /* \"contracts/ExchangeAggregator.sol\":2199:2209  data.input */\n      0x00\n      add\n      0x20\n      dup2\n      add\n      swap1\n      tag_143\n      swap2\n      swap1\n      tag_27\n      jump\t// in\n    tag_143:\n        /* \"contracts/ExchangeAggregator.sol\":2210:2214  data */\n      dup7\n        /* \"contracts/ExchangeAggregator.sol\":2210:2222  data.swapper */\n      0x60\n      add\n      0x20\n      dup2\n      add\n      swap1\n      tag_144\n      swap2\n      swap1\n      tag_27\n      jump\t// in\n    tag_144:\n        /* \"contracts/ExchangeAggregator.sol\":2223:2231  amountIn */\n      dup5\n        /* \"contracts/ExchangeAggregator.sol\":2172:2198  TransferHelper.safeApprove */\n      tag_145\n        /* \"contracts/ExchangeAggregator.sol\":2172:2232  TransferHelper.safeApprove(data.input,data.swapper,amountIn) */\n      jump\t// in\n    tag_142:\n        /* \"contracts/ExchangeAggregator.sol\":1958:2437  if (!data.native) {... */\n      jump(tag_146)\n    tag_135:\n        /* \"contracts/ExchangeAggregator.sol\":2283:2287  data */\n      dup5\n        /* \"contracts/ExchangeAggregator.sol\":2283:2299  data.totalAmount */\n      0x20\n      add\n      calldataload\n        /* \"contracts/ExchangeAggregator.sol\":2270:2279  msg.value */\n      callvalue\n        /* \"contracts/ExchangeAggregator.sol\":2270:2299  msg.value >= data.totalAmount */\n      lt\n      iszero\n        /* \"contracts/ExchangeAggregator.sol\":2262:2328  require(msg.value >= data.totalAmount,\"insufficient input amount\") */\n      tag_147\n      jumpi\n      mload(0x40)\n      0x08c379a000000000000000000000000000000000000000000000000000000000\n      dup2\n      mstore\n      0x04\n      add\n      tag_148\n      swap1\n      tag_105\n      jump\t// in\n    tag_148:\n      mload(0x40)\n      dup1\n      swap2\n      sub\n      swap1\n      revert\n    tag_147:\n        /* \"contracts/ExchangeAggregator.sol\":2342:2396  TransferHelper.safeTransferETH(owner(),data.feeAmount) */\n      tag_149\n        /* \"contracts/ExchangeAggregator.sol\":2373:2380  owner() */\n      tag_150\n        /* \"contracts/ExchangeAggregator.sol\":2373:2378  owner */\n      tag_62\n        /* \"contracts/ExchangeAggregator.sol\":2373:2380  owner() */\n      jump\t// in\n    tag_150:\n        /* \"contracts/ExchangeAggregator.sol\":2381:2385  data */\n      dup7\n        /* \"contracts/ExchangeAggregator.sol\":2381:2395  data.feeAmount */\n      0x40\n      add\n      calldataload\n        /* \"contracts/ExchangeAggregator.sol\":2342:2372  TransferHelper.safeTransferETH */\n      tag_117\n        /* \"contracts/ExchangeAggregator.sol\":2342:2396  TransferHelper.safeTransferETH(owner(),data.feeAmount) */\n      jump\t// in\n    tag_149:\n        /* \"contracts/ExchangeAggregator.sol\":2418:2426  amountIn */\n      dup2\n        /* \"contracts/ExchangeAggregator.sol\":2410:2426  value = amountIn */\n      swap1\n      pop\n        /* \"contracts/ExchangeAggregator.sol\":1958:2437  if (!data.native) {... */\n    tag_146:\n        /* \"contracts/ExchangeAggregator.sol\":2446:2495  SafeCaller.safeCall(data.swapper,value,data.data) */\n      tag_151\n        /* \"contracts/ExchangeAggregator.sol\":2466:2470  data */\n      dup6\n        /* \"contracts/ExchangeAggregator.sol\":2466:2478  data.swapper */\n      0x60\n      add\n      0x20\n      dup2\n      add\n      swap1\n      tag_152\n      swap2\n      swap1\n      tag_27\n      jump\t// in\n    tag_152:\n        /* \"contracts/ExchangeAggregator.sol\":2479:2484  value */\n      dup3\n        /* \"contracts/ExchangeAggregator.sol\":2485:2489  data */\n      dup8\n        /* \"contracts/ExchangeAggregator.sol\":2485:2494  data.data */\n      dup1\n      0x80\n      add\n      swap1\n      tag_153\n      swap2\n      swap1\n      tag_111\n      jump\t// in\n    tag_153:\n        /* \"contracts/ExchangeAggregator.sol\":2446:2495  SafeCaller.safeCall(data.swapper,value,data.data) */\n      dup1\n      dup1\n      0x1f\n      add\n      0x20\n      dup1\n      swap2\n      div\n      mul\n      0x20\n      add\n      mload(0x40)\n      swap1\n      dup2\n      add\n      0x40\n      mstore\n      dup1\n      swap4\n      swap3\n      swap2\n      swap1\n      dup2\n      dup2\n      mstore\n      0x20\n      add\n      dup4\n      dup4\n      dup1\n      dup3\n      dup5\n      calldatacopy\n      0x00\n      dup2\n      dup5\n      add\n      mstore\n      not(0x1f)\n      0x1f\n      dup3\n      add\n      and\n      swap1\n      pop\n      dup1\n      dup4\n      add\n      swap3\n      pop\n      pop\n      pop\n      pop\n      pop\n      pop\n      pop\n        /* \"contracts/ExchangeAggregator.sol\":2446:2465  SafeCaller.safeCall */\n      tag_112\n        /* \"contracts/ExchangeAggregator.sol\":2446:2495  SafeCaller.safeCall(data.swapper,value,data.data) */\n      jump\t// in\n    tag_151:\n        /* \"contracts/ExchangeAggregator.sol\":1755:2502  {... */\n      pop\n      pop\n        /* \"contracts/ExchangeAggregator.sol\":1682:2502  function Swap0(swapData calldata data,bytes calldata sig) public payable {... */\n      pop\n      pop\n      pop\n      jump\t// out\n        /* \"@openzeppelin/contracts/access/Ownable.sol\":1831:1932  function renounceOwnership() public virtual onlyOwner {... */\n    tag_59:\n        /* \"@openzeppelin/contracts/access/Ownable.sol\":1094:1107  _checkOwner() */\n      tag_155\n        /* \"@openzeppelin/contracts/access/Ownable.sol\":1094:1105  _checkOwner */\n      tag_82\n        /* \"@openzeppelin/contracts/access/Ownable.sol\":1094:1107  _checkOwner() */\n      jump\t// in\n    tag_155:\n        /* \"@openzeppelin/contracts/access/Ownable.sol\":1895:1925  _transferOwnership(address(0)) */\n      tag_157\n        /* \"@openzeppelin/contracts/access/Ownable.sol\":1922:1923  0 */\n      0x00\n        /* \"@openzeppelin/contracts/access/Ownable.sol\":1895:1913  _transferOwnership */\n      tag_158\n        /* \"@openzeppelin/contracts/access/Ownable.sol\":1895:1925  _transferOwnership(address(0)) */\n      jump\t// in\n    tag_157:\n        /* \"@openzeppelin/contracts/access/Ownable.sol\":1831:1932  function renounceOwnership() public virtual onlyOwner {... */\n      jump\t// out\n        /* \"@openzeppelin/contracts/access/Ownable.sol\":1201:1286  function owner() public view virtual returns (address) {... */\n    tag_62:\n        /* \"@openzeppelin/contracts/access/Ownable.sol\":1247:1254  address */\n      0x00\n        /* \"@openzeppelin/contracts/access/Ownable.sol\":1273:1279  _owner */\n      dup1\n      0x00\n      swap1\n      sload\n      swap1\n      0x0100\n      exp\n      swap1\n      div\n      0xffffffffffffffffffffffffffffffffffffffff\n      and\n        /* \"@openzeppelin/contracts/access/Ownable.sol\":1266:1279  return _owner */\n      swap1\n      pop\n        /* \"@openzeppelin/contracts/access/Ownable.sol\":1201:1286  function owner() public view virtual returns (address) {... */\n      swap1\n      jump\t// out\n        /* \"contracts/ExchangeAggregator.sol\":3131:3248  function changePriceProvider(address _PriceProvider) public onlyOwner {... */\n    tag_67:\n        /* \"@openzeppelin/contracts/access/Ownable.sol\":1094:1107  _checkOwner() */\n      tag_161\n        /* \"@openzeppelin/contracts/access/Ownable.sol\":1094:1105  _checkOwner */\n      tag_82\n        /* \"@openzeppelin/contracts/access/Ownable.sol\":1094:1107  _checkOwner() */\n      jump\t// in\n    tag_161:\n        /* \"contracts/ExchangeAggregator.sol\":3227:3241  _PriceProvider */\n      dup1\n        /* \"contracts/ExchangeAggregator.sol\":3211:3224  PriceProvider */\n      0x01\n      0x00\n        /* \"contracts/ExchangeAggregator.sol\":3211:3241  PriceProvider = _PriceProvider */\n      0x0100\n      exp\n      dup2\n      sload\n      dup2\n      0xffffffffffffffffffffffffffffffffffffffff\n      mul\n      not\n      and\n      swap1\n      dup4\n      0xffffffffffffffffffffffffffffffffffffffff\n      and\n      mul\n      or\n      swap1\n      sstore\n      pop\n        /* \"contracts/ExchangeAggregator.sol\":3131:3248  function changePriceProvider(address _PriceProvider) public onlyOwner {... */\n      pop\n      jump\t// out\n        /* \"contracts/ExchangeAggregator.sol\":848:1278  function swap(swapData calldata data,bytes calldata sig) public {... */\n    tag_71:\n        /* \"contracts/ExchangeAggregator.sol\":945:955  msg.sender */\n      caller\n        /* \"contracts/ExchangeAggregator.sol\":930:955  data.sender == msg.sender */\n      0xffffffffffffffffffffffffffffffffffffffff\n      and\n        /* \"contracts/ExchangeAggregator.sol\":930:934  data */\n      dup4\n        /* \"contracts/ExchangeAggregator.sol\":930:941  data.sender */\n      0xa0\n      add\n      0x20\n      dup2\n      add\n      swap1\n      tag_164\n      swap2\n      swap1\n      tag_27\n      jump\t// in\n    tag_164:\n        /* \"contracts/ExchangeAggregator.sol\":930:955  data.sender == msg.sender */\n      0xffffffffffffffffffffffffffffffffffffffff\n      and\n      eq\n        /* \"contracts/ExchangeAggregator.sol\":922:973  require(data.sender == msg.sender,\"invaled sender\") */\n      tag_165\n      jumpi\n      mload(0x40)\n      0x08c379a000000000000000000000000000000000000000000000000000000000\n      dup2\n      mstore\n      0x04\n      add\n      tag_166\n      swap1\n      tag_97\n      jump\t// in\n    tag_166:\n      mload(0x40)\n      dup1\n      swap2\n      sub\n      swap1\n      revert\n    tag_165:\n        /* \"contracts/ExchangeAggregator.sol\":983:1028  utils.checkSig(owner(),abi.encode(data), sig) */\n      tag_167\n        /* \"contracts/ExchangeAggregator.sol\":998:1005  owner() */\n      tag_168\n        /* \"contracts/ExchangeAggregator.sol\":998:1003  owner */\n      tag_62\n        /* \"contracts/ExchangeAggregator.sol\":998:1005  owner() */\n      jump\t// in\n    tag_168:\n        /* \"contracts/ExchangeAggregator.sol\":1017:1021  data */\n      dup5\n        /* \"contracts/ExchangeAggregator.sol\":1006:1022  abi.encode(data) */\n      add(0x20, mload(0x40))\n      tag_169\n      swap2\n      swap1\n      tag_101\n      jump\t// in\n    tag_169:\n      mload(0x40)\n      0x20\n      dup2\n      dup4\n      sub\n      sub\n      dup2\n      mstore\n      swap1\n      0x40\n      mstore\n        /* \"contracts/ExchangeAggregator.sol\":1024:1027  sig */\n      dup5\n      dup5\n        /* \"contracts/ExchangeAggregator.sol\":983:1028  utils.checkSig(owner(),abi.encode(data), sig) */\n      dup1\n      dup1\n      0x1f\n      add\n      0x20\n      dup1\n      swap2\n      div\n      mul\n      0x20\n      add\n      mload(0x40)\n      swap1\n      dup2\n      add\n      0x40\n      mstore\n      dup1\n      swap4\n      swap3\n      swap2\n      swap1\n      dup2\n      dup2\n      mstore\n      0x20\n      add\n      dup4\n      dup4\n      dup1\n      dup3\n      dup5\n      calldatacopy\n      0x00\n      dup2\n      dup5\n      add\n      mstore\n      not(0x1f)\n      0x1f\n      dup3\n      add\n      and\n      swap1\n      pop\n      dup1\n      dup4\n      add\n      swap3\n      pop\n      pop\n      pop\n      pop\n      pop\n      pop\n      pop\n        /* \"contracts/ExchangeAggregator.sol\":983:997  utils.checkSig */\n      tag_102\n        /* \"contracts/ExchangeAggregator.sol\":983:1028  utils.checkSig(owner(),abi.encode(data), sig) */\n      jump\t// in\n    tag_167:\n        /* \"contracts/ExchangeAggregator.sol\":1038:1123  TransferHelper.safeTransferFrom(data.input,msg.sender,address(this),data.totalAmount) */\n      tag_170\n        /* \"contracts/ExchangeAggregator.sol\":1070:1074  data */\n      dup4\n        /* \"contracts/ExchangeAggregator.sol\":1070:1080  data.input */\n      0x00\n      add\n      0x20\n      dup2\n      add\n      swap1\n      tag_171\n      swap2\n      swap1\n      tag_27\n      jump\t// in\n    tag_171:\n        /* \"contracts/ExchangeAggregator.sol\":1081:1091  msg.sender */\n      caller\n        /* \"contracts/ExchangeAggregator.sol\":1100:1104  this */\n      address\n        /* \"contracts/ExchangeAggregator.sol\":1106:1110  data */\n      dup7\n        /* \"contracts/ExchangeAggregator.sol\":1106:1122  data.totalAmount */\n      0x20\n      add\n      calldataload\n        /* \"contracts/ExchangeAggregator.sol\":1038:1069  TransferHelper.safeTransferFrom */\n      tag_138\n        /* \"contracts/ExchangeAggregator.sol\":1038:1123  TransferHelper.safeTransferFrom(data.input,msg.sender,address(this),data.totalAmount) */\n      jump\t// in\n    tag_170:\n        /* \"contracts/ExchangeAggregator.sol\":1133:1216  TransferHelper.safeApprove(data.input,data.swapper,data.totalAmount-data.feeAmount) */\n      tag_172\n        /* \"contracts/ExchangeAggregator.sol\":1160:1164  data */\n      dup4\n        /* \"contracts/ExchangeAggregator.sol\":1160:1170  data.input */\n      0x00\n      add\n      0x20\n      dup2\n      add\n      swap1\n      tag_173\n      swap2\n      swap1\n      tag_27\n      jump\t// in\n    tag_173:\n        /* \"contracts/ExchangeAggregator.sol\":1171:1175  data */\n      dup5\n        /* \"contracts/ExchangeAggregator.sol\":1171:1183  data.swapper */\n      0x60\n      add\n      0x20\n      dup2\n      add\n      swap1\n      tag_174\n      swap2\n      swap1\n      tag_27\n      jump\t// in\n    tag_174:\n        /* \"contracts/ExchangeAggregator.sol\":1201:1205  data */\n      dup6\n        /* \"contracts/ExchangeAggregator.sol\":1201:1215  data.feeAmount */\n      0x40\n      add\n      calldataload\n        /* \"contracts/ExchangeAggregator.sol\":1184:1188  data */\n      dup7\n        /* \"contracts/ExchangeAggregator.sol\":1184:1200  data.totalAmount */\n      0x20\n      add\n      calldataload\n        /* \"contracts/ExchangeAggregator.sol\":1184:1215  data.totalAmount-data.feeAmount */\n      tag_175\n      swap2\n      swap1\n      tag_107\n      jump\t// in\n    tag_175:\n        /* \"contracts/ExchangeAggregator.sol\":1133:1159  TransferHelper.safeApprove */\n      tag_145\n        /* \"contracts/ExchangeAggregator.sol\":1133:1216  TransferHelper.safeApprove(data.input,data.swapper,data.totalAmount-data.feeAmount) */\n      jump\t// in\n    tag_172:\n        /* \"contracts/ExchangeAggregator.sol\":1226:1271  SafeCaller.safeCall(data.swapper,0,data.data) */\n      tag_176\n        /* \"contracts/ExchangeAggregator.sol\":1246:1250  data */\n      dup4\n        /* \"contracts/ExchangeAggregator.sol\":1246:1258  data.swapper */\n      0x60\n      add\n      0x20\n      dup2\n      add\n      swap1\n      tag_177\n      swap2\n      swap1\n      tag_27\n      jump\t// in\n    tag_177:\n        /* \"contracts/ExchangeAggregator.sol\":1259:1260  0 */\n      0x00\n        /* \"contracts/ExchangeAggregator.sol\":1261:1265  data */\n      dup6\n        /* \"contracts/ExchangeAggregator.sol\":1261:1270  data.data */\n      dup1\n      0x80\n      add\n      swap1\n      tag_178\n      swap2\n      swap1\n      tag_111\n      jump\t// in\n    tag_178:\n        /* \"contracts/ExchangeAggregator.sol\":1226:1271  SafeCaller.safeCall(data.swapper,0,data.data) */\n      dup1\n      dup1\n      0x1f\n      add\n      0x20\n      dup1\n      swap2\n      div\n      mul\n      0x20\n      add\n      mload(0x40)\n      swap1\n      dup2\n      add\n      0x40\n      mstore\n      dup1\n      swap4\n      swap3\n      swap2\n      swap1\n      dup2\n      dup2\n      mstore\n      0x20\n      add\n      dup4\n      dup4\n      dup1\n      dup3\n      dup5\n      calldatacopy\n      0x00\n      dup2\n      dup5\n      add\n      mstore\n      not(0x1f)\n      0x1f\n      dup3\n      add\n      and\n      swap1\n      pop\n      dup1\n      dup4\n      add\n      swap3\n      pop\n      pop\n      pop\n      pop\n      pop\n      pop\n      pop\n        /* \"contracts/ExchangeAggregator.sol\":1226:1245  SafeCaller.safeCall */\n      tag_112\n        /* \"contracts/ExchangeAggregator.sol\":1226:1271  SafeCaller.safeCall(data.swapper,0,data.data) */\n      jump\t// in\n    tag_176:\n        /* \"contracts/ExchangeAggregator.sol\":848:1278  function swap(swapData calldata data,bytes calldata sig) public {... */\n      pop\n      pop\n      pop\n      jump\t// out\n        /* \"contracts/ExchangeAggregator.sol\":2762:2854  function balanceETH() public view returns(uint){... */\n    tag_74:\n        /* \"contracts/ExchangeAggregator.sol\":2804:2808  uint */\n      0x00\n        /* \"contracts/ExchangeAggregator.sol\":2826:2847  address(this).balance */\n      selfbalance\n        /* \"contracts/ExchangeAggregator.sol\":2819:2847  return address(this).balance */\n      swap1\n      pop\n        /* \"contracts/ExchangeAggregator.sol\":2762:2854  function balanceETH() public view returns(uint){... */\n      swap1\n      jump\t// out\n        /* \"@openzeppelin/contracts/access/Ownable.sol\":2081:2279  function transferOwnership(address newOwner) public virtual onlyOwner {... */\n    tag_79:\n        /* \"@openzeppelin/contracts/access/Ownable.sol\":1094:1107  _checkOwner() */\n      tag_181\n        /* \"@openzeppelin/contracts/access/Ownable.sol\":1094:1105  _checkOwner */\n      tag_82\n        /* \"@openzeppelin/contracts/access/Ownable.sol\":1094:1107  _checkOwner() */\n      jump\t// in\n    tag_181:\n        /* \"@openzeppelin/contracts/access/Ownable.sol\":2189:2190  0 */\n      0x00\n        /* \"@openzeppelin/contracts/access/Ownable.sol\":2169:2191  newOwner != address(0) */\n      0xffffffffffffffffffffffffffffffffffffffff\n      and\n        /* \"@openzeppelin/contracts/access/Ownable.sol\":2169:2177  newOwner */\n      dup2\n        /* \"@openzeppelin/contracts/access/Ownable.sol\":2169:2191  newOwner != address(0) */\n      0xffffffffffffffffffffffffffffffffffffffff\n      and\n      sub\n        /* \"@openzeppelin/contracts/access/Ownable.sol\":2161:2234  require(newOwner != address(0), \"Ownable: new owner is the zero address\") */\n      tag_183\n      jumpi\n      mload(0x40)\n      0x08c379a000000000000000000000000000000000000000000000000000000000\n      dup2\n      mstore\n      0x04\n      add\n      tag_184\n      swap1\n      tag_185\n      jump\t// in\n    tag_184:\n      mload(0x40)\n      dup1\n      swap2\n      sub\n      swap1\n      revert\n    tag_183:\n        /* \"@openzeppelin/contracts/access/Ownable.sol\":2244:2272  _transferOwnership(newOwner) */\n      tag_186\n        /* \"@openzeppelin/contracts/access/Ownable.sol\":2263:2271  newOwner */\n      dup2\n        /* \"@openzeppelin/contracts/access/Ownable.sol\":2244:2262  _transferOwnership */\n      tag_158\n        /* \"@openzeppelin/contracts/access/Ownable.sol\":2244:2272  _transferOwnership(newOwner) */\n      jump\t// in\n    tag_186:\n        /* \"@openzeppelin/contracts/access/Ownable.sol\":2081:2279  function transferOwnership(address newOwner) public virtual onlyOwner {... */\n      pop\n      jump\t// out\n        /* \"@openzeppelin/contracts/access/Ownable.sol\":1359:1489  function _checkOwner() internal view virtual {... */\n    tag_82:\n        /* \"@openzeppelin/contracts/access/Ownable.sol\":1433:1445  _msgSender() */\n      tag_188\n        /* \"@openzeppelin/contracts/access/Ownable.sol\":1433:1443  _msgSender */\n      tag_189\n        /* \"@openzeppelin/contracts/access/Ownable.sol\":1433:1445  _msgSender() */\n      jump\t// in\n    tag_188:\n        /* \"@openzeppelin/contracts/access/Ownable.sol\":1422:1445  owner() == _msgSender() */\n      0xffffffffffffffffffffffffffffffffffffffff\n      and\n        /* \"@openzeppelin/contracts/access/Ownable.sol\":1422:1429  owner() */\n      tag_190\n        /* \"@openzeppelin/contracts/access/Ownable.sol\":1422:1427  owner */\n      tag_62\n        /* \"@openzeppelin/contracts/access/Ownable.sol\":1422:1429  owner() */\n      jump\t// in\n    tag_190:\n        /* \"@openzeppelin/contracts/access/Ownable.sol\":1422:1445  owner() == _msgSender() */\n      0xffffffffffffffffffffffffffffffffffffffff\n      and\n      eq\n        /* \"@openzeppelin/contracts/access/Ownable.sol\":1414:1482  require(owner() == _msgSender(), \"Ownable: caller is not the owner\") */\n      tag_191\n      jumpi\n      mload(0x40)\n      0x08c379a000000000000000000000000000000000000000000000000000000000\n      dup2\n      mstore\n      0x04\n      add\n      tag_192\n      swap1\n      tag_193\n      jump\t// in\n    tag_192:\n      mload(0x40)\n      dup1\n      swap2\n      sub\n      swap1\n      revert\n    tag_191:\n        /* \"@openzeppelin/contracts/access/Ownable.sol\":1359:1489  function _checkOwner() internal view virtual {... */\n      jump\t// out\n        /* \"contracts/libraries/transferHelper.sol\":655:1095  function safeTransfer(... */\n    tag_85:\n        /* \"contracts/libraries/transferHelper.sol\":835:847  bool success */\n      0x00\n        /* \"contracts/libraries/transferHelper.sol\":849:866  bytes memory data */\n      dup1\n        /* \"contracts/libraries/transferHelper.sol\":870:875  token */\n      dup5\n        /* \"contracts/libraries/transferHelper.sol\":870:880  token.call */\n      0xffffffffffffffffffffffffffffffffffffffff\n      and\n        /* \"contracts/libraries/transferHelper.sol\":904:914  0xa9059cbb */\n      0xa9059cbb\n        /* \"contracts/libraries/transferHelper.sol\":916:918  to */\n      dup6\n        /* \"contracts/libraries/transferHelper.sol\":920:925  value */\n      dup6\n        /* \"contracts/libraries/transferHelper.sol\":881:926  abi.encodeWithSelector(0xa9059cbb, to, value) */\n      add(0x24, mload(0x40))\n      tag_195\n      swap3\n      swap2\n      swap1\n      tag_196\n      jump\t// in\n    tag_195:\n      mload(0x40)\n      0x20\n      dup2\n      dup4\n      sub\n      sub\n      dup2\n      mstore\n      swap1\n      0x40\n      mstore\n      swap1\n      0xe0\n      shl\n      0x20\n      dup3\n      add\n      dup1\n      mload\n      0xffffffffffffffffffffffffffffffffffffffffffffffffffffffff\n      dup4\n      dup2\n      dup4\n      and\n      or\n      dup4\n      mstore\n      pop\n      pop\n      pop\n      pop\n        /* \"contracts/libraries/transferHelper.sol\":870:927  token.call(abi.encodeWithSelector(0xa9059cbb, to, value)) */\n      mload(0x40)\n      tag_197\n      swap2\n      swap1\n      tag_198\n      jump\t// in\n    tag_197:\n      0x00\n      mload(0x40)\n      dup1\n      dup4\n      sub\n      dup2\n      0x00\n      dup7\n      gas\n      call\n      swap2\n      pop\n      pop\n      returndatasize\n      dup1\n      0x00\n      dup2\n      eq\n      tag_201\n      jumpi\n      mload(0x40)\n      swap2\n      pop\n      and(add(returndatasize, 0x3f), not(0x1f))\n      dup3\n      add\n      0x40\n      mstore\n      returndatasize\n      dup3\n      mstore\n      returndatasize\n      0x00\n      0x20\n      dup5\n      add\n      returndatacopy\n      jump(tag_200)\n    tag_201:\n      0x60\n      swap2\n      pop\n    tag_200:\n      pop\n        /* \"contracts/libraries/transferHelper.sol\":834:927  (bool success, bytes memory data) = token.call(abi.encodeWithSelector(0xa9059cbb, to, value)) */\n      swap2\n      pop\n      swap2\n      pop\n        /* \"contracts/libraries/transferHelper.sol\":958:965  success */\n      dup2\n        /* \"contracts/libraries/transferHelper.sol\":958:1015  success && (data.length == 0 || abi.decode(data, (bool))) */\n      dup1\n      iszero\n      tag_202\n      jumpi\n      pop\n        /* \"contracts/libraries/transferHelper.sol\":985:986  0 */\n      0x00\n        /* \"contracts/libraries/transferHelper.sol\":970:974  data */\n      dup2\n        /* \"contracts/libraries/transferHelper.sol\":970:981  data.length */\n      mload\n        /* \"contracts/libraries/transferHelper.sol\":970:986  data.length == 0 */\n      eq\n        /* \"contracts/libraries/transferHelper.sol\":970:1014  data.length == 0 || abi.decode(data, (bool)) */\n      dup1\n      tag_203\n      jumpi\n      pop\n        /* \"contracts/libraries/transferHelper.sol\":1001:1005  data */\n      dup1\n        /* \"contracts/libraries/transferHelper.sol\":990:1014  abi.decode(data, (bool)) */\n      dup1\n      0x20\n      add\n      swap1\n      mload\n      dup2\n      add\n      swap1\n      tag_204\n      swap2\n      swap1\n      tag_205\n      jump\t// in\n    tag_204:\n        /* \"contracts/libraries/transferHelper.sol\":970:1014  data.length == 0 || abi.decode(data, (bool)) */\n    tag_203:\n        /* \"contracts/libraries/transferHelper.sol\":958:1015  success && (data.length == 0 || abi.decode(data, (bool))) */\n    tag_202:\n        /* \"contracts/libraries/transferHelper.sol\":937:1088  require(... */\n      tag_206\n      jumpi\n      mload(0x40)\n      0x08c379a000000000000000000000000000000000000000000000000000000000\n      dup2\n      mstore\n      0x04\n      add\n      tag_207\n      swap1\n      tag_208\n      jump\t// in\n    tag_207:\n      mload(0x40)\n      dup1\n      swap2\n      sub\n      swap1\n      revert\n    tag_206:\n        /* \"contracts/libraries/transferHelper.sol\":758:1095  {... */\n      pop\n      pop\n        /* \"contracts/libraries/transferHelper.sol\":655:1095  function safeTransfer(... */\n      pop\n      pop\n      pop\n      jump\t// out\n        /* \"contracts/libraries/utils.sol\":224:484  function checkSig(address owner,bytes memory data, bytes memory sig) internal pure {... */\n    tag_102:\n        /* \"contracts/libraries/utils.sol\":327:331  0x1b */\n      0x1b\n        /* \"contracts/libraries/utils.sol\":317:331  sig[64] = 0x1b */\n      0xf8\n      shl\n        /* \"contracts/libraries/utils.sol\":317:320  sig */\n      dup2\n        /* \"contracts/libraries/utils.sol\":321:323  64 */\n      0x40\n        /* \"contracts/libraries/utils.sol\":317:324  sig[64] */\n      dup2\n      mload\n      dup2\n      lt\n      tag_210\n      jumpi\n      tag_211\n      tag_212\n      jump\t// in\n    tag_211:\n    tag_210:\n      0x20\n      add\n      add\n        /* \"contracts/libraries/utils.sol\":317:331  sig[64] = 0x1b */\n      swap1\n      not(0xffffffffffffffffffffffffffffffffffffffffffffffffffffffffffffff)\n      and\n      swap1\n      dup2\n      0x00\n      byte\n      swap1\n      mstore8\n      pop\n        /* \"contracts/libraries/utils.sol\":372:377  owner */\n      dup3\n        /* \"contracts/libraries/utils.sol\":345:377  hash(data).recover(sig) == owner */\n      0xffffffffffffffffffffffffffffffffffffffff\n      and\n        /* \"contracts/libraries/utils.sol\":345:368  hash(data).recover(sig) */\n      tag_213\n        /* \"contracts/libraries/utils.sol\":364:367  sig */\n      dup3\n        /* \"contracts/libraries/utils.sol\":345:355  hash(data) */\n      tag_214\n        /* \"contracts/libraries/utils.sol\":350:354  data */\n      dup6\n        /* \"contracts/libraries/utils.sol\":345:349  hash */\n      tag_215\n        /* \"contracts/libraries/utils.sol\":345:355  hash(data) */\n      jump\t// in\n    tag_214:\n        /* \"contracts/libraries/utils.sol\":345:363  hash(data).recover */\n      tag_216\n      swap1\n        /* \"contracts/libraries/utils.sol\":345:368  hash(data).recover(sig) */\n      swap2\n      swap1\n      0xffffffff\n      and\n      jump\t// in\n    tag_213:\n        /* \"contracts/libraries/utils.sol\":345:377  hash(data).recover(sig) == owner */\n      0xffffffffffffffffffffffffffffffffffffffff\n      and\n      sub\n        /* \"contracts/libraries/utils.sol\":341:387  if (hash(data).recover(sig) == owner) return ; */\n      iszero\n        /* \"contracts/libraries/utils.sol\":379:387  return ; */\n      tag_209\n        /* \"contracts/libraries/utils.sol\":341:387  if (hash(data).recover(sig) == owner) return ; */\n      jumpi\n        /* \"contracts/libraries/utils.sol\":406:410  0x1c */\n      0x1c\n        /* \"contracts/libraries/utils.sol\":396:410  sig[64] = 0x1c */\n      0xf8\n      shl\n        /* \"contracts/libraries/utils.sol\":396:399  sig */\n      dup2\n        /* \"contracts/libraries/utils.sol\":400:402  64 */\n      0x40\n        /* \"contracts/libraries/utils.sol\":396:403  sig[64] */\n      dup2\n      mload\n      dup2\n      lt\n      tag_218\n      jumpi\n      tag_219\n      tag_212\n      jump\t// in\n    tag_219:\n    tag_218:\n      0x20\n      add\n      add\n        /* \"contracts/libraries/utils.sol\":396:410  sig[64] = 0x1c */\n      swap1\n      not(0xffffffffffffffffffffffffffffffffffffffffffffffffffffffffffffff)\n      and\n      swap1\n      dup2\n      0x00\n      byte\n      swap1\n      mstore8\n      pop\n        /* \"contracts/libraries/utils.sol\":455:460  owner */\n      dup3\n        /* \"contracts/libraries/utils.sol\":428:460  hash(data).recover(sig) == owner */\n      0xffffffffffffffffffffffffffffffffffffffff\n      and\n        /* \"contracts/libraries/utils.sol\":428:451  hash(data).recover(sig) */\n      tag_220\n        /* \"contracts/libraries/utils.sol\":447:450  sig */\n      dup3\n        /* \"contracts/libraries/utils.sol\":428:438  hash(data) */\n      tag_221\n        /* \"contracts/libraries/utils.sol\":433:437  data */\n      dup6\n        /* \"contracts/libraries/utils.sol\":428:432  hash */\n      tag_215\n        /* \"contracts/libraries/utils.sol\":428:438  hash(data) */\n      jump\t// in\n    tag_221:\n        /* \"contracts/libraries/utils.sol\":428:446  hash(data).recover */\n      tag_216\n      swap1\n        /* \"contracts/libraries/utils.sol\":428:451  hash(data).recover(sig) */\n      swap2\n      swap1\n      0xffffffff\n      and\n      jump\t// in\n    tag_220:\n        /* \"contracts/libraries/utils.sol\":428:460  hash(data).recover(sig) == owner */\n      0xffffffffffffffffffffffffffffffffffffffff\n      and\n      eq\n        /* \"contracts/libraries/utils.sol\":420:477  require(hash(data).recover(sig) == owner,\"data tampered\") */\n      tag_222\n      jumpi\n      mload(0x40)\n      0x08c379a000000000000000000000000000000000000000000000000000000000\n      dup2\n      mstore\n      0x04\n      add\n      tag_223\n      swap1\n      tag_224\n      jump\t// in\n    tag_223:\n      mload(0x40)\n      dup1\n      swap2\n      sub\n      swap1\n      revert\n    tag_222:\n        /* \"contracts/libraries/utils.sol\":224:484  function checkSig(address owner,bytes memory data, bytes memory sig) internal pure {... */\n    tag_209:\n      pop\n      pop\n      pop\n      jump\t// out\n        /* \"contracts/libraries/safeCaller.sol\":83:554  function safeCall(... */\n    tag_112:\n        /* \"contracts/libraries/safeCaller.sol\":201:213  bool succeed */\n      0x00\n        /* \"contracts/libraries/safeCaller.sol\":214:233  bytes memory result */\n      dup1\n        /* \"contracts/libraries/safeCaller.sol\":237:246  _contract */\n      dup5\n        /* \"contracts/libraries/safeCaller.sol\":237:251  _contract.call */\n      0xffffffffffffffffffffffffffffffffffffffff\n      and\n        /* \"contracts/libraries/safeCaller.sol\":259:264  value */\n      dup5\n        /* \"contracts/libraries/safeCaller.sol\":266:270  data */\n      dup5\n        /* \"contracts/libraries/safeCaller.sol\":237:271  _contract.call{value: value}(data) */\n      mload(0x40)\n      tag_226\n      swap2\n      swap1\n      tag_198\n      jump\t// in\n    tag_226:\n      0x00\n      mload(0x40)\n      dup1\n      dup4\n      sub\n      dup2\n      dup6\n      dup8\n      gas\n      call\n      swap3\n      pop\n      pop\n      pop\n      returndatasize\n      dup1\n      0x00\n      dup2\n      eq\n      tag_229\n      jumpi\n      mload(0x40)\n      swap2\n      pop\n      and(add(returndatasize, 0x3f), not(0x1f))\n      dup3\n      add\n      0x40\n      mstore\n      returndatasize\n      dup3\n      mstore\n      returndatasize\n      0x00\n      0x20\n      dup5\n      add\n      returndatacopy\n      jump(tag_228)\n    tag_229:\n      0x60\n      swap2\n      pop\n    tag_228:\n      pop\n        /* \"contracts/libraries/safeCaller.sol\":200:271  (bool succeed,bytes memory result) = _contract.call{value: value}(data) */\n      swap2\n      pop\n      swap2\n      pop\n        /* \"contracts/libraries/safeCaller.sol\":286:293  succeed */\n      dup2\n        /* \"contracts/libraries/safeCaller.sol\":281:548  if (!succeed) {... */\n      tag_230\n      jumpi\n        /* \"contracts/libraries/safeCaller.sol\":333:335  68 */\n      0x44\n        /* \"contracts/libraries/safeCaller.sol\":317:323  result */\n      dup2\n        /* \"contracts/libraries/safeCaller.sol\":317:330  result.length */\n      mload\n        /* \"contracts/libraries/safeCaller.sol\":317:335  result.length < 68 */\n      lt\n        /* \"contracts/libraries/safeCaller.sol\":313:386  if (result.length < 68) revert(\"ExchangeAggregator::SafeCaller:safeCall\") */\n      iszero\n      tag_231\n      jumpi\n        /* \"contracts/libraries/safeCaller.sol\":337:386  revert(\"ExchangeAggregator::SafeCaller:safeCall\") */\n      mload(0x40)\n      0x08c379a000000000000000000000000000000000000000000000000000000000\n      dup2\n      mstore\n      0x04\n      add\n      tag_232\n      swap1\n      tag_233\n      jump\t// in\n    tag_232:\n      mload(0x40)\n      dup1\n      swap2\n      sub\n      swap1\n      revert\n        /* \"contracts/libraries/safeCaller.sol\":313:386  if (result.length < 68) revert(\"ExchangeAggregator::SafeCaller:safeCall\") */\n    tag_231:\n        /* \"contracts/libraries/safeCaller.sol\":457:461  0x04 */\n      0x04\n        /* \"contracts/libraries/safeCaller.sol\":449:455  result */\n      dup2\n        /* \"contracts/libraries/safeCaller.sol\":445:462  add(result, 0x04) */\n      add\n        /* \"contracts/libraries/safeCaller.sol\":435:462  result := add(result, 0x04) */\n      swap1\n      pop\n        /* \"contracts/libraries/safeCaller.sol\":515:521  result */\n      dup1\n        /* \"contracts/libraries/safeCaller.sol\":504:532  abi.decode(result, (string)) */\n      dup1\n      0x20\n      add\n      swap1\n      mload\n      dup2\n      add\n      swap1\n      tag_234\n      swap2\n      swap1\n      tag_235\n      jump\t// in\n    tag_234:\n        /* \"contracts/libraries/safeCaller.sol\":497:533  revert(abi.decode(result, (string))) */\n      mload(0x40)\n      0x08c379a000000000000000000000000000000000000000000000000000000000\n      dup2\n      mstore\n      0x04\n      add\n      tag_236\n      swap2\n      swap1\n      tag_237\n      jump\t// in\n    tag_236:\n      mload(0x40)\n      dup1\n      swap2\n      sub\n      swap1\n      revert\n        /* \"contracts/libraries/safeCaller.sol\":281:548  if (!succeed) {... */\n    tag_230:\n        /* \"contracts/libraries/safeCaller.sol\":190:554  {... */\n      pop\n      pop\n        /* \"contracts/libraries/safeCaller.sol\":83:554  function safeCall(... */\n      pop\n      pop\n      pop\n      jump\t// out\n        /* \"contracts/libraries/transferHelper.sol\":1595:1807  function safeTransferETH(address to, uint256 value) internal {... */\n    tag_117:\n        /* \"contracts/libraries/transferHelper.sol\":1667:1679  bool success */\n      0x00\n        /* \"contracts/libraries/transferHelper.sol\":1685:1687  to */\n      dup3\n        /* \"contracts/libraries/transferHelper.sol\":1685:1692  to.call */\n      0xffffffffffffffffffffffffffffffffffffffff\n      and\n        /* \"contracts/libraries/transferHelper.sol\":1700:1705  value */\n      dup3\n        /* \"contracts/libraries/transferHelper.sol\":1717:1718  0 */\n      0x00\n        /* \"contracts/libraries/transferHelper.sol\":1707:1719  new bytes(0) */\n      0xffffffffffffffff\n      dup2\n      gt\n      iszero\n      tag_239\n      jumpi\n      tag_240\n      tag_241\n      jump\t// in\n    tag_240:\n    tag_239:\n      mload(0x40)\n      swap1\n      dup1\n      dup3\n      mstore\n      dup1\n      0x1f\n      add\n      not(0x1f)\n      and\n      0x20\n      add\n      dup3\n      add\n      0x40\n      mstore\n      dup1\n      iszero\n      tag_242\n      jumpi\n      dup2\n      0x20\n      add\n      0x01\n      dup3\n      mul\n      dup1\n      calldatasize\n      dup4\n      calldatacopy\n      dup1\n      dup3\n      add\n      swap2\n      pop\n      pop\n      swap1\n      pop\n    tag_242:\n      pop\n        /* \"contracts/libraries/transferHelper.sol\":1685:1720  to.call{value: value}(new bytes(0)) */\n      mload(0x40)\n      tag_243\n      swap2\n      swap1\n      tag_198\n      jump\t// in\n    tag_243:\n      0x00\n      mload(0x40)\n      dup1\n      dup4\n      sub\n      dup2\n      dup6\n      dup8\n      gas\n      call\n      swap3\n      pop\n      pop\n      pop\n      returndatasize\n      dup1\n      0x00\n      dup2\n      eq\n      tag_246\n      jumpi\n      mload(0x40)\n      swap2\n      pop\n      and(add(returndatasize, 0x3f), not(0x1f))\n      dup3\n      add\n      0x40\n      mstore\n      returndatasize\n      dup3\n      mstore\n      returndatasize\n      0x00\n      0x20\n      dup5\n      add\n      returndatacopy\n      jump(tag_245)\n    tag_246:\n      0x60\n      swap2\n      pop\n    tag_245:\n      pop\n        /* \"contracts/libraries/transferHelper.sol\":1666:1720  (bool success, ) = to.call{value: value}(new bytes(0)) */\n      pop\n      swap1\n      pop\n        /* \"contracts/libraries/transferHelper.sol\":1738:1745  success */\n      dup1\n        /* \"contracts/libraries/transferHelper.sol\":1730:1800  require(success, \"ExchangeAggregator::TransferHelper:safeTransferETH\") */\n      tag_247\n      jumpi\n      mload(0x40)\n      0x08c379a000000000000000000000000000000000000000000000000000000000\n      dup2\n      mstore\n      0x04\n      add\n      tag_248\n      swap1\n      tag_249\n      jump\t// in\n    tag_248:\n      mload(0x40)\n      dup1\n      swap2\n      sub\n      swap1\n      revert\n    tag_247:\n        /* \"contracts/libraries/transferHelper.sol\":1656:1807  {... */\n      pop\n        /* \"contracts/libraries/transferHelper.sol\":1595:1807  function safeTransferETH(address to, uint256 value) internal {... */\n      pop\n      pop\n      jump\t// out\n        /* \"contracts/libraries/transferHelper.sol\":1101:1589  function safeTransferFrom(... */\n    tag_138:\n        /* \"contracts/libraries/transferHelper.sol\":1319:1331  bool success */\n      0x00\n        /* \"contracts/libraries/transferHelper.sol\":1333:1350  bytes memory data */\n      dup1\n        /* \"contracts/libraries/transferHelper.sol\":1354:1359  token */\n      dup6\n        /* \"contracts/libraries/transferHelper.sol\":1354:1364  token.call */\n      0xffffffffffffffffffffffffffffffffffffffff\n      and\n        /* \"contracts/libraries/transferHelper.sol\":1388:1398  0x23b872dd */\n      0x23b872dd\n        /* \"contracts/libraries/transferHelper.sol\":1400:1404  from */\n      dup7\n        /* \"contracts/libraries/transferHelper.sol\":1406:1408  to */\n      dup7\n        /* \"contracts/libraries/transferHelper.sol\":1410:1415  value */\n      dup7\n        /* \"contracts/libraries/transferHelper.sol\":1365:1416  abi.encodeWithSelector(0x23b872dd, from, to, value) */\n      add(0x24, mload(0x40))\n      tag_251\n      swap4\n      swap3\n      swap2\n      swap1\n      tag_252\n      jump\t// in\n    tag_251:\n      mload(0x40)\n      0x20\n      dup2\n      dup4\n      sub\n      sub\n      dup2\n      mstore\n      swap1\n      0x40\n      mstore\n      swap1\n      0xe0\n      shl\n      0x20\n      dup3\n      add\n      dup1\n      mload\n      0xffffffffffffffffffffffffffffffffffffffffffffffffffffffff\n      dup4\n      dup2\n      dup4\n      and\n      or\n      dup4\n      mstore\n      pop\n      pop\n      pop\n      pop\n        /* \"contracts/libraries/transferHelper.sol\":1354:1417  token.call(abi.encodeWithSelector(0x23b872dd, from, to, value)) */\n      mload(0x40)\n      tag_253\n      swap2\n      swap1\n      tag_198\n      jump\t// in\n    tag_253:\n      0x00\n      mload(0x40)\n      dup1\n      dup4\n      sub\n      dup2\n      0x00\n      dup7\n      gas\n      call\n      swap2\n      pop\n      pop\n      returndatasize\n      dup1\n      0x00\n      dup2\n      eq\n      tag_256\n      jumpi\n      mload(0x40)\n      swap2\n      pop\n      and(add(returndatasize, 0x3f), not(0x1f))\n      dup3\n      add\n      0x40\n      mstore\n      returndatasize\n      dup3\n      mstore\n      returndatasize\n      0x00\n      0x20\n      dup5\n      add\n      returndatacopy\n      jump(tag_255)\n    tag_256:\n      0x60\n      swap2\n      pop\n    tag_255:\n      pop\n        /* \"contracts/libraries/transferHelper.sol\":1318:1417  (bool success, bytes memory data) = token.call(abi.encodeWithSelector(0x23b872dd, from, to, value)) */\n      swap2\n      pop\n      swap2\n      pop\n        /* \"contracts/libraries/transferHelper.sol\":1448:1455  success */\n      dup2\n        /* \"contracts/libraries/transferHelper.sol\":1448:1505  success && (data.length == 0 || abi.decode(data, (bool))) */\n      dup1\n      iszero\n      tag_257\n      jumpi\n      pop\n        /* \"contracts/libraries/transferHelper.sol\":1475:1476  0 */\n      0x00\n        /* \"contracts/libraries/transferHelper.sol\":1460:1464  data */\n      dup2\n        /* \"contracts/libraries/transferHelper.sol\":1460:1471  data.length */\n      mload\n        /* \"contracts/libraries/transferHelper.sol\":1460:1476  data.length == 0 */\n      eq\n        /* \"contracts/libraries/transferHelper.sol\":1460:1504  data.length == 0 || abi.decode(data, (bool)) */\n      dup1\n      tag_258\n      jumpi\n      pop\n        /* \"contracts/libraries/transferHelper.sol\":1491:1495  data */\n      dup1\n        /* \"contracts/libraries/transferHelper.sol\":1480:1504  abi.decode(data, (bool)) */\n      dup1\n      0x20\n      add\n      swap1\n      mload\n      dup2\n      add\n      swap1\n      tag_259\n      swap2\n      swap1\n      tag_205\n      jump\t// in\n    tag_259:\n        /* \"contracts/libraries/transferHelper.sol\":1460:1504  data.length == 0 || abi.decode(data, (bool)) */\n    tag_258:\n        /* \"contracts/libraries/transferHelper.sol\":1448:1505  success && (data.length == 0 || abi.decode(data, (bool))) */\n    tag_257:\n        /* \"contracts/libraries/transferHelper.sol\":1427:1582  require(... */\n      tag_260\n      jumpi\n      mload(0x40)\n      0x08c379a000000000000000000000000000000000000000000000000000000000\n      dup2\n      mstore\n      0x04\n      add\n      tag_261\n      swap1\n      tag_262\n      jump\t// in\n    tag_261:\n      mload(0x40)\n      dup1\n      swap2\n      sub\n      swap1\n      revert\n    tag_260:\n        /* \"contracts/libraries/transferHelper.sol\":1230:1589  {... */\n      pop\n      pop\n        /* \"contracts/libraries/transferHelper.sol\":1101:1589  function safeTransferFrom(... */\n      pop\n      pop\n      pop\n      pop\n      jump\t// out\n        /* \"contracts/libraries/transferHelper.sol\":212:649  function safeApprove(... */\n    tag_145:\n        /* \"contracts/libraries/transferHelper.sol\":390:402  bool success */\n      0x00\n        /* \"contracts/libraries/transferHelper.sol\":404:421  bytes memory data */\n      dup1\n        /* \"contracts/libraries/transferHelper.sol\":425:430  token */\n      dup5\n        /* \"contracts/libraries/transferHelper.sol\":425:435  token.call */\n      0xffffffffffffffffffffffffffffffffffffffff\n      and\n        /* \"contracts/libraries/transferHelper.sol\":459:469  0x095ea7b3 */\n      0x095ea7b3\n        /* \"contracts/libraries/transferHelper.sol\":471:473  to */\n      dup6\n        /* \"contracts/libraries/transferHelper.sol\":475:480  value */\n      dup6\n        /* \"contracts/libraries/transferHelper.sol\":436:481  abi.encodeWithSelector(0x095ea7b3, to, value) */\n      add(0x24, mload(0x40))\n      tag_264\n      swap3\n      swap2\n      swap1\n      tag_196\n      jump\t// in\n    tag_264:\n      mload(0x40)\n      0x20\n      dup2\n      dup4\n      sub\n      sub\n      dup2\n      mstore\n      swap1\n      0x40\n      mstore\n      swap1\n      0xe0\n      shl\n      0x20\n      dup3\n      add\n      dup1\n      mload\n      0xffffffffffffffffffffffffffffffffffffffffffffffffffffffff\n      dup4\n      dup2\n      dup4\n      and\n      or\n      dup4\n      mstore\n      pop\n      pop\n      pop\n      pop\n        /* \"contracts/libraries/transferHelper.sol\":425:482  token.call(abi.encodeWithSelector(0x095ea7b3, to, value)) */\n      mload(0x40)\n      tag_265\n      swap2\n      swap1\n      tag_198\n      jump\t// in\n    tag_265:\n      0x00\n      mload(0x40)\n      dup1\n      dup4\n      sub\n      dup2\n      0x00\n      dup7\n      gas\n      call\n      swap2\n      pop\n      pop\n      returndatasize\n      dup1\n      0x00\n      dup2\n      eq\n      tag_268\n      jumpi\n      mload(0x40)\n      swap2\n      pop\n      and(add(returndatasize, 0x3f), not(0x1f))\n      dup3\n      add\n      0x40\n      mstore\n      returndatasize\n      dup3\n      mstore\n      returndatasize\n      0x00\n      0x20\n      dup5\n      add\n      returndatacopy\n      jump(tag_267)\n    tag_268:\n      0x60\n      swap2\n      pop\n    tag_267:\n      pop\n        /* \"contracts/libraries/transferHelper.sol\":389:482  (bool success, bytes memory data) = token.call(abi.encodeWithSelector(0x095ea7b3, to, value)) */\n      swap2\n      pop\n      swap2\n      pop\n        /* \"contracts/libraries/transferHelper.sol\":513:520  success */\n      dup2\n        /* \"contracts/libraries/transferHelper.sol\":513:570  success && (data.length == 0 || abi.decode(data, (bool))) */\n      dup1\n      iszero\n      tag_269\n      jumpi\n      pop\n        /* \"contracts/libraries/transferHelper.sol\":540:541  0 */\n      0x00\n        /* \"contracts/libraries/transferHelper.sol\":525:529  data */\n      dup2\n        /* \"contracts/libraries/transferHelper.sol\":525:536  data.length */\n      mload\n        /* \"contracts/libraries/transferHelper.sol\":525:541  data.length == 0 */\n      eq\n        /* \"contracts/libraries/transferHelper.sol\":525:569  data.length == 0 || abi.decode(data, (bool)) */\n      dup1\n      tag_270\n      jumpi\n      pop\n        /* \"contracts/libraries/transferHelper.sol\":556:560  data */\n      dup1\n        /* \"contracts/libraries/transferHelper.sol\":545:569  abi.decode(data, (bool)) */\n      dup1\n      0x20\n      add\n      swap1\n      mload\n      dup2\n      add\n      swap1\n      tag_271\n      swap2\n      swap1\n      tag_205\n      jump\t// in\n    tag_271:\n        /* \"contracts/libraries/transferHelper.sol\":525:569  data.length == 0 || abi.decode(data, (bool)) */\n    tag_270:\n        /* \"contracts/libraries/transferHelper.sol\":513:570  success && (data.length == 0 || abi.decode(data, (bool))) */\n    tag_269:\n        /* \"contracts/libraries/transferHelper.sol\":492:642  require(... */\n      tag_272\n      jumpi\n      mload(0x40)\n      0x08c379a000000000000000000000000000000000000000000000000000000000\n      dup2\n      mstore\n      0x04\n      add\n      tag_273\n      swap1\n      tag_274\n      jump\t// in\n    tag_273:\n      mload(0x40)\n      dup1\n      swap2\n      sub\n      swap1\n      revert\n    tag_272:\n        /* \"contracts/libraries/transferHelper.sol\":314:649  {... */\n      pop\n      pop\n        /* \"contracts/libraries/transferHelper.sol\":212:649  function safeApprove(... */\n      pop\n      pop\n      pop\n      jump\t// out\n        /* \"@openzeppelin/contracts/access/Ownable.sol\":2433:2620  function _transferOwnership(address newOwner) internal virtual {... */\n    tag_158:\n        /* \"@openzeppelin/contracts/access/Ownable.sol\":2506:2522  address oldOwner */\n      0x00\n        /* \"@openzeppelin/contracts/access/Ownable.sol\":2525:2531  _owner */\n      dup1\n      0x00\n      swap1\n      sload\n      swap1\n      0x0100\n      exp\n      swap1\n      div\n      0xffffffffffffffffffffffffffffffffffffffff\n      and\n        /* \"@openzeppelin/contracts/access/Ownable.sol\":2506:2531  address oldOwner = _owner */\n      swap1\n      pop\n        /* \"@openzeppelin/contracts/access/Ownable.sol\":2550:2558  newOwner */\n      dup2\n        /* \"@openzeppelin/contracts/access/Ownable.sol\":2541:2547  _owner */\n      0x00\n      dup1\n        /* \"@openzeppelin/contracts/access/Ownable.sol\":2541:2558  _owner = newOwner */\n      0x0100\n      exp\n      dup2\n      sload\n      dup2\n      0xffffffffffffffffffffffffffffffffffffffff\n      mul\n      not\n      and\n      swap1\n      dup4\n      0xffffffffffffffffffffffffffffffffffffffff\n      and\n      mul\n      or\n      swap1\n      sstore\n      pop\n        /* \"@openzeppelin/contracts/access/Ownable.sol\":2604:2612  newOwner */\n      dup2\n        /* \"@openzeppelin/contracts/access/Ownable.sol\":2573:2613  OwnershipTransferred(oldOwner, newOwner) */\n      0xffffffffffffffffffffffffffffffffffffffff\n      and\n        /* \"@openzeppelin/contracts/access/Ownable.sol\":2594:2602  oldOwner */\n      dup2\n        /* \"@openzeppelin/contracts/access/Ownable.sol\":2573:2613  OwnershipTransferred(oldOwner, newOwner) */\n      0xffffffffffffffffffffffffffffffffffffffff\n      and\n      0x8be0079c531659141344cd1fd0a4f28419497f9722a3daafe3b4186f6b6457e0\n      mload(0x40)\n      mload(0x40)\n      dup1\n      swap2\n      sub\n      swap1\n      log3\n        /* \"@openzeppelin/contracts/access/Ownable.sol\":2496:2620  {... */\n      pop\n        /* \"@openzeppelin/contracts/access/Ownable.sol\":2433:2620  function _transferOwnership(address newOwner) internal virtual {... */\n      pop\n      jump\t// out\n        /* \"@openzeppelin/contracts/utils/Context.sol\":640:736  function _msgSender() internal view virtual returns (address) {... */\n    tag_189:\n        /* \"@openzeppelin/contracts/utils/Context.sol\":693:700  address */\n      0x00\n        /* \"@openzeppelin/contracts/utils/Context.sol\":719:729  msg.sender */\n      caller\n        /* \"@openzeppelin/contracts/utils/Context.sol\":712:729  return msg.sender */\n      swap1\n      pop\n        /* \"@openzeppelin/contracts/utils/Context.sol\":640:736  function _msgSender() internal view virtual returns (address) {... */\n      swap1\n      jump\t// out\n        /* \"contracts/libraries/utils.sol\":661:764  function hash(bytes memory data) private pure returns (bytes32) {... */\n    tag_215:\n        /* \"contracts/libraries/utils.sol\":716:723  bytes32 */\n      0x00\n        /* \"contracts/libraries/utils.sol\":752:756  data */\n      dup2\n        /* \"contracts/libraries/utils.sol\":742:757  keccak256(data) */\n      dup1\n      mload\n      swap1\n      0x20\n      add\n      keccak256\n        /* \"contracts/libraries/utils.sol\":735:757  return keccak256(data) */\n      swap1\n      pop\n        /* \"contracts/libraries/utils.sol\":661:764  function hash(bytes memory data) private pure returns (bytes32) {... */\n      swap2\n      swap1\n      pop\n      jump\t// out\n        /* \"@openzeppelin/contracts/utils/cryptography/ECDSA.sol\":3661:3888  function recover(bytes32 hash, bytes memory signature) internal pure returns (address) {... */\n    tag_216:\n        /* \"@openzeppelin/contracts/utils/cryptography/ECDSA.sol\":3739:3746  address */\n      0x00\n        /* \"@openzeppelin/contracts/utils/cryptography/ECDSA.sol\":3759:3776  address recovered */\n      dup1\n        /* \"@openzeppelin/contracts/utils/cryptography/ECDSA.sol\":3778:3796  RecoverError error */\n      0x00\n        /* \"@openzeppelin/contracts/utils/cryptography/ECDSA.sol\":3800:3827  tryRecover(hash, signature) */\n      tag_279\n        /* \"@openzeppelin/contracts/utils/cryptography/ECDSA.sol\":3811:3815  hash */\n      dup6\n        /* \"@openzeppelin/contracts/utils/cryptography/ECDSA.sol\":3817:3826  signature */\n      dup6\n        /* \"@openzeppelin/contracts/utils/cryptography/ECDSA.sol\":3800:3810  tryRecover */\n      tag_280\n        /* \"@openzeppelin/contracts/utils/cryptography/ECDSA.sol\":3800:3827  tryRecover(hash, signature) */\n      jump\t// in\n    tag_279:\n        /* \"@openzeppelin/contracts/utils/cryptography/ECDSA.sol\":3758:3827  (address recovered, RecoverError error) = tryRecover(hash, signature) */\n      swap2\n      pop\n      swap2\n      pop\n        /* \"@openzeppelin/contracts/utils/cryptography/ECDSA.sol\":3837:3855  _throwError(error) */\n      tag_281\n        /* \"@openzeppelin/contracts/utils/cryptography/ECDSA.sol\":3849:3854  error */\n      dup2\n        /* \"@openzeppelin/contracts/utils/cryptography/ECDSA.sol\":3837:3848  _throwError */\n      tag_282\n        /* \"@openzeppelin/contracts/utils/cryptography/ECDSA.sol\":3837:3855  _throwError(error) */\n      jump\t// in\n    tag_281:\n        /* \"@openzeppelin/contracts/utils/cryptography/ECDSA.sol\":3872:3881  recovered */\n      dup2\n        /* \"@openzeppelin/contracts/utils/cryptography/ECDSA.sol\":3865:3881  return recovered */\n      swap3\n      pop\n      pop\n      pop\n        /* \"@openzeppelin/contracts/utils/cryptography/ECDSA.sol\":3661:3888  function recover(bytes32 hash, bytes memory signature) internal pure returns (address) {... */\n      swap3\n      swap2\n      pop\n      pop\n      jump\t// out\n        /* \"@openzeppelin/contracts/utils/cryptography/ECDSA.sol\":2145:2875  function tryRecover(bytes32 hash, bytes memory signature) internal pure returns (address, RecoverError) {... */\n    tag_280:\n        /* \"@openzeppelin/contracts/utils/cryptography/ECDSA.sol\":2226:2233  address */\n      0x00\n        /* \"@openzeppelin/contracts/utils/cryptography/ECDSA.sol\":2235:2247  RecoverError */\n      dup1\n        /* \"@openzeppelin/contracts/utils/cryptography/ECDSA.sol\":2283:2285  65 */\n      0x41\n        /* \"@openzeppelin/contracts/utils/cryptography/ECDSA.sol\":2263:2272  signature */\n      dup4\n        /* \"@openzeppelin/contracts/utils/cryptography/ECDSA.sol\":2263:2279  signature.length */\n      mload\n        /* \"@openzeppelin/contracts/utils/cryptography/ECDSA.sol\":2263:2285  signature.length == 65 */\n      sub\n        /* \"@openzeppelin/contracts/utils/cryptography/ECDSA.sol\":2259:2869  if (signature.length == 65) {... */\n      tag_284\n      jumpi\n        /* \"@openzeppelin/contracts/utils/cryptography/ECDSA.sol\":2301:2310  bytes32 r */\n      0x00\n        /* \"@openzeppelin/contracts/utils/cryptography/ECDSA.sol\":2324:2333  bytes32 s */\n      dup1\n        /* \"@openzeppelin/contracts/utils/cryptography/ECDSA.sol\":2347:2354  uint8 v */\n      0x00\n        /* \"@openzeppelin/contracts/utils/cryptography/ECDSA.sol\":2599:2603  0x20 */\n      0x20\n        /* \"@openzeppelin/contracts/utils/cryptography/ECDSA.sol\":2588:2597  signature */\n      dup7\n        /* \"@openzeppelin/contracts/utils/cryptography/ECDSA.sol\":2584:2604  add(signature, 0x20) */\n      add\n        /* \"@openzeppelin/contracts/utils/cryptography/ECDSA.sol\":2578:2605  mload(add(signature, 0x20)) */\n      mload\n        /* \"@openzeppelin/contracts/utils/cryptography/ECDSA.sol\":2573:2605  r := mload(add(signature, 0x20)) */\n      swap3\n      pop\n        /* \"@openzeppelin/contracts/utils/cryptography/ECDSA.sol\":2648:2652  0x40 */\n      0x40\n        /* \"@openzeppelin/contracts/utils/cryptography/ECDSA.sol\":2637:2646  signature */\n      dup7\n        /* \"@openzeppelin/contracts/utils/cryptography/ECDSA.sol\":2633:2653  add(signature, 0x40) */\n      add\n        /* \"@openzeppelin/contracts/utils/cryptography/ECDSA.sol\":2627:2654  mload(add(signature, 0x40)) */\n      mload\n        /* \"@openzeppelin/contracts/utils/cryptography/ECDSA.sol\":2622:2654  s := mload(add(signature, 0x40)) */\n      swap2\n      pop\n        /* \"@openzeppelin/contracts/utils/cryptography/ECDSA.sol\":2705:2709  0x60 */\n      0x60\n        /* \"@openzeppelin/contracts/utils/cryptography/ECDSA.sol\":2694:2703  signature */\n      dup7\n        /* \"@openzeppelin/contracts/utils/cryptography/ECDSA.sol\":2690:2710  add(signature, 0x60) */\n      add\n        /* \"@openzeppelin/contracts/utils/cryptography/ECDSA.sol\":2684:2711  mload(add(signature, 0x60)) */\n      mload\n        /* \"@openzeppelin/contracts/utils/cryptography/ECDSA.sol\":2681:2682  0 */\n      0x00\n        /* \"@openzeppelin/contracts/utils/cryptography/ECDSA.sol\":2676:2712  byte(0, mload(add(signature, 0x60))) */\n      byte\n        /* \"@openzeppelin/contracts/utils/cryptography/ECDSA.sol\":2671:2712  v := byte(0, mload(add(signature, 0x60))) */\n      swap1\n      pop\n        /* \"@openzeppelin/contracts/utils/cryptography/ECDSA.sol\":2746:2771  tryRecover(hash, v, r, s) */\n      tag_285\n        /* \"@openzeppelin/contracts/utils/cryptography/ECDSA.sol\":2757:2761  hash */\n      dup8\n        /* \"@openzeppelin/contracts/utils/cryptography/ECDSA.sol\":2763:2764  v */\n      dup3\n        /* \"@openzeppelin/contracts/utils/cryptography/ECDSA.sol\":2766:2767  r */\n      dup6\n        /* \"@openzeppelin/contracts/utils/cryptography/ECDSA.sol\":2769:2770  s */\n      dup6\n        /* \"@openzeppelin/contracts/utils/cryptography/ECDSA.sol\":2746:2756  tryRecover */\n      tag_286\n        /* \"@openzeppelin/contracts/utils/cryptography/ECDSA.sol\":2746:2771  tryRecover(hash, v, r, s) */\n      jump\t// in\n    tag_285:\n        /* \"@openzeppelin/contracts/utils/cryptography/ECDSA.sol\":2739:2771  return tryRecover(hash, v, r, s) */\n      swap5\n      pop\n      swap5\n      pop\n      pop\n      pop\n      pop\n      jump(tag_283)\n        /* \"@openzeppelin/contracts/utils/cryptography/ECDSA.sol\":2259:2869  if (signature.length == 65) {... */\n    tag_284:\n        /* \"@openzeppelin/contracts/utils/cryptography/ECDSA.sol\":2818:2819  0 */\n      0x00\n        /* \"@openzeppelin/contracts/utils/cryptography/ECDSA.sol\":2822:2857  RecoverError.InvalidSignatureLength */\n      0x02\n        /* \"@openzeppelin/contracts/utils/cryptography/ECDSA.sol\":2802:2858  return (address(0), RecoverError.InvalidSignatureLength) */\n      swap2\n      pop\n      swap2\n      pop\n        /* \"@openzeppelin/contracts/utils/cryptography/ECDSA.sol\":2145:2875  function tryRecover(bytes32 hash, bytes memory signature) internal pure returns (address, RecoverError) {... */\n    tag_283:\n      swap3\n      pop\n      swap3\n      swap1\n      pop\n      jump\t// out\n        /* \"@openzeppelin/contracts/utils/cryptography/ECDSA.sol\":570:1081  function _throwError(RecoverError error) private pure {... */\n    tag_282:\n        /* \"@openzeppelin/contracts/utils/cryptography/ECDSA.sol\":647:667  RecoverError.NoError */\n      0x00\n        /* \"@openzeppelin/contracts/utils/cryptography/ECDSA.sol\":638:667  error == RecoverError.NoError */\n      0x04\n      dup2\n      gt\n      iszero\n      tag_289\n      jumpi\n      tag_290\n      tag_291\n      jump\t// in\n    tag_290:\n    tag_289:\n        /* \"@openzeppelin/contracts/utils/cryptography/ECDSA.sol\":638:643  error */\n      dup2\n        /* \"@openzeppelin/contracts/utils/cryptography/ECDSA.sol\":638:667  error == RecoverError.NoError */\n      0x04\n      dup2\n      gt\n      iszero\n      tag_292\n      jumpi\n      tag_293\n      tag_291\n      jump\t// in\n    tag_293:\n    tag_292:\n      sub\n        /* \"@openzeppelin/contracts/utils/cryptography/ECDSA.sol\":634:1075  if (error == RecoverError.NoError) {... */\n      iszero\n        /* \"@openzeppelin/contracts/utils/cryptography/ECDSA.sol\":683:690  return; */\n      tag_288\n        /* \"@openzeppelin/contracts/utils/cryptography/ECDSA.sol\":634:1075  if (error == RecoverError.NoError) {... */\n      jumpi\n        /* \"@openzeppelin/contracts/utils/cryptography/ECDSA.sol\":743:772  RecoverError.InvalidSignature */\n      0x01\n        /* \"@openzeppelin/contracts/utils/cryptography/ECDSA.sol\":734:772  error == RecoverError.InvalidSignature */\n      0x04\n      dup2\n      gt\n      iszero\n      tag_296\n      jumpi\n      tag_297\n      tag_291\n      jump\t// in\n    tag_297:\n    tag_296:\n        /* \"@openzeppelin/contracts/utils/cryptography/ECDSA.sol\":734:739  error */\n      dup2\n        /* \"@openzeppelin/contracts/utils/cryptography/ECDSA.sol\":734:772  error == RecoverError.InvalidSignature */\n      0x04\n      dup2\n      gt\n      iszero\n      tag_298\n      jumpi\n      tag_299\n      tag_291\n      jump\t// in\n    tag_299:\n    tag_298:\n      sub\n        /* \"@openzeppelin/contracts/utils/cryptography/ECDSA.sol\":730:1075  if (error == RecoverError.InvalidSignature) {... */\n      tag_300\n      jumpi\n        /* \"@openzeppelin/contracts/utils/cryptography/ECDSA.sol\":788:822  revert(\"ECDSA: invalid signature\") */\n      mload(0x40)\n      0x08c379a000000000000000000000000000000000000000000000000000000000\n      dup2\n      mstore\n      0x04\n      add\n      tag_301\n      swap1\n      tag_302\n      jump\t// in\n    tag_301:\n      mload(0x40)\n      dup1\n      swap2\n      sub\n      swap1\n      revert\n        /* \"@openzeppelin/contracts/utils/cryptography/ECDSA.sol\":730:1075  if (error == RecoverError.InvalidSignature) {... */\n    tag_300:\n        /* \"@openzeppelin/contracts/utils/cryptography/ECDSA.sol\":852:887  RecoverError.InvalidSignatureLength */\n      0x02\n        /* \"@openzeppelin/contracts/utils/cryptography/ECDSA.sol\":843:887  error == RecoverError.InvalidSignatureLength */\n      0x04\n      dup2\n      gt\n      iszero\n      tag_304\n      jumpi\n      tag_305\n      tag_291\n      jump\t// in\n    tag_305:\n    tag_304:\n        /* \"@openzeppelin/contracts/utils/cryptography/ECDSA.sol\":843:848  error */\n      dup2\n        /* \"@openzeppelin/contracts/utils/cryptography/ECDSA.sol\":843:887  error == RecoverError.InvalidSignatureLength */\n      0x04\n      dup2\n      gt\n      iszero\n      tag_306\n      jumpi\n      tag_307\n      tag_291\n      jump\t// in\n    tag_307:\n    tag_306:\n      sub\n        /* \"@openzeppelin/contracts/utils/cryptography/ECDSA.sol\":839:1075  if (error == RecoverError.InvalidSignatureLength) {... */\n      tag_308\n      jumpi\n        /* \"@openzeppelin/contracts/utils/cryptography/ECDSA.sol\":903:944  revert(\"ECDSA: invalid signature length\") */\n      mload(0x40)\n      0x08c379a000000000000000000000000000000000000000000000000000000000\n      dup2\n      mstore\n      0x04\n      add\n      tag_309\n      swap1\n      tag_310\n      jump\t// in\n    tag_309:\n      mload(0x40)\n      dup1\n      swap2\n      sub\n      swap1\n      revert\n        /* \"@openzeppelin/contracts/utils/cryptography/ECDSA.sol\":839:1075  if (error == RecoverError.InvalidSignatureLength) {... */\n    tag_308:\n        /* \"@openzeppelin/contracts/utils/cryptography/ECDSA.sol\":974:1004  RecoverError.InvalidSignatureS */\n      0x03\n        /* \"@openzeppelin/contracts/utils/cryptography/ECDSA.sol\":965:1004  error == RecoverError.InvalidSignatureS */\n      0x04\n      dup2\n      gt\n      iszero\n      tag_312\n      jumpi\n      tag_313\n      tag_291\n      jump\t// in\n    tag_313:\n    tag_312:\n        /* \"@openzeppelin/contracts/utils/cryptography/ECDSA.sol\":965:970  error */\n      dup2\n        /* \"@openzeppelin/contracts/utils/cryptography/ECDSA.sol\":965:1004  error == RecoverError.InvalidSignatureS */\n      0x04\n      dup2\n      gt\n      iszero\n      tag_314\n      jumpi\n      tag_315\n      tag_291\n      jump\t// in\n    tag_315:\n    tag_314:\n      sub\n        /* \"@openzeppelin/contracts/utils/cryptography/ECDSA.sol\":961:1075  if (error == RecoverError.InvalidSignatureS) {... */\n      tag_316\n      jumpi\n        /* \"@openzeppelin/contracts/utils/cryptography/ECDSA.sol\":1020:1064  revert(\"ECDSA: invalid signature 's' value\") */\n      mload(0x40)\n      0x08c379a000000000000000000000000000000000000000000000000000000000\n      dup2\n      mstore\n      0x04\n      add\n      tag_317\n      swap1\n      tag_318\n      jump\t// in\n    tag_317:\n      mload(0x40)\n      dup1\n      swap2\n      sub\n      swap1\n      revert\n        /* \"@openzeppelin/contracts/utils/cryptography/ECDSA.sol\":961:1075  if (error == RecoverError.InvalidSignatureS) {... */\n    tag_316:\n        /* \"@openzeppelin/contracts/utils/cryptography/ECDSA.sol\":570:1081  function _throwError(RecoverError error) private pure {... */\n    tag_288:\n      pop\n      jump\t// out\n        /* \"@openzeppelin/contracts/utils/cryptography/ECDSA.sol\":5069:6563  function tryRecover(... */\n    tag_286:\n        /* \"@openzeppelin/contracts/utils/cryptography/ECDSA.sol\":5195:5202  address */\n      0x00\n        /* \"@openzeppelin/contracts/utils/cryptography/ECDSA.sol\":5204:5216  RecoverError */\n      dup1\n        /* \"@openzeppelin/contracts/utils/cryptography/ECDSA.sol\":6119:6185  0x7FFFFFFFFFFFFFFFFFFFFFFFFFFFFFFF5D576E7357A4501DDFE92F46681B20A0 */\n      0x7fffffffffffffffffffffffffffffff5d576e7357a4501ddfe92f46681b20a0\n        /* \"@openzeppelin/contracts/utils/cryptography/ECDSA.sol\":6114:6115  s */\n      dup4\n        /* \"@openzeppelin/contracts/utils/cryptography/ECDSA.sol\":6106:6116  uint256(s) */\n      0x00\n      shr\n        /* \"@openzeppelin/contracts/utils/cryptography/ECDSA.sol\":6106:6185  uint256(s) > 0x7FFFFFFFFFFFFFFFFFFFFFFFFFFFFFFF5D576E7357A4501DDFE92F46681B20A0 */\n      gt\n        /* \"@openzeppelin/contracts/utils/cryptography/ECDSA.sol\":6102:6263  if (uint256(s) > 0x7FFFFFFFFFFFFFFFFFFFFFFFFFFFFFFF5D576E7357A4501DDFE92F46681B20A0) {... */\n      iszero\n      tag_320\n      jumpi\n        /* \"@openzeppelin/contracts/utils/cryptography/ECDSA.sol\":6217:6218  0 */\n      0x00\n        /* \"@openzeppelin/contracts/utils/cryptography/ECDSA.sol\":6221:6251  RecoverError.InvalidSignatureS */\n      0x03\n        /* \"@openzeppelin/contracts/utils/cryptography/ECDSA.sol\":6201:6252  return (address(0), RecoverError.InvalidSignatureS) */\n      swap2\n      pop\n      swap2\n      pop\n      jump(tag_319)\n        /* \"@openzeppelin/contracts/utils/cryptography/ECDSA.sol\":6102:6263  if (uint256(s) > 0x7FFFFFFFFFFFFFFFFFFFFFFFFFFFFFFF5D576E7357A4501DDFE92F46681B20A0) {... */\n    tag_320:\n        /* \"@openzeppelin/contracts/utils/cryptography/ECDSA.sol\":6357:6371  address signer */\n      0x00\n        /* \"@openzeppelin/contracts/utils/cryptography/ECDSA.sol\":6374:6398  ecrecover(hash, v, r, s) */\n      0x01\n        /* \"@openzeppelin/contracts/utils/cryptography/ECDSA.sol\":6384:6388  hash */\n      dup8\n        /* \"@openzeppelin/contracts/utils/cryptography/ECDSA.sol\":6390:6391  v */\n      dup8\n        /* \"@openzeppelin/contracts/utils/cryptography/ECDSA.sol\":6393:6394  r */\n      dup8\n        /* \"@openzeppelin/contracts/utils/cryptography/ECDSA.sol\":6396:6397  s */\n      dup8\n        /* \"@openzeppelin/contracts/utils/cryptography/ECDSA.sol\":6374:6398  ecrecover(hash, v, r, s) */\n      mload(0x40)\n      0x00\n      dup2\n      mstore\n      0x20\n      add\n      0x40\n      mstore\n      mload(0x40)\n      tag_321\n      swap5\n      swap4\n      swap3\n      swap2\n      swap1\n      tag_322\n      jump\t// in\n    tag_321:\n      0x20\n      mload(0x40)\n      0x20\n      dup2\n      sub\n      swap1\n      dup1\n      dup5\n      sub\n      swap1\n      dup6\n      gas\n      staticcall\n      iszero\n      dup1\n      iszero\n      tag_324\n      jumpi\n      returndatasize\n      0x00\n      dup1\n      returndatacopy\n      revert(0x00, returndatasize)\n    tag_324:\n      pop\n      pop\n      pop\n      mload(sub(mload(0x40), 0x20))\n        /* \"@openzeppelin/contracts/utils/cryptography/ECDSA.sol\":6357:6398  address signer = ecrecover(hash, v, r, s) */\n      swap1\n      pop\n        /* \"@openzeppelin/contracts/utils/cryptography/ECDSA.sol\":6430:6431  0 */\n      0x00\n        /* \"@openzeppelin/contracts/utils/cryptography/ECDSA.sol\":6412:6432  signer == address(0) */\n      0xffffffffffffffffffffffffffffffffffffffff\n      and\n        /* \"@openzeppelin/contracts/utils/cryptography/ECDSA.sol\":6412:6418  signer */\n      dup2\n        /* \"@openzeppelin/contracts/utils/cryptography/ECDSA.sol\":6412:6432  signer == address(0) */\n      0xffffffffffffffffffffffffffffffffffffffff\n      and\n      sub\n        /* \"@openzeppelin/contracts/utils/cryptography/ECDSA.sol\":6408:6509  if (signer == address(0)) {... */\n      tag_325\n      jumpi\n        /* \"@openzeppelin/contracts/utils/cryptography/ECDSA.sol\":6464:6465  0 */\n      0x00\n        /* \"@openzeppelin/contracts/utils/cryptography/ECDSA.sol\":6468:6497  RecoverError.InvalidSignature */\n      0x01\n        /* \"@openzeppelin/contracts/utils/cryptography/ECDSA.sol\":6448:6498  return (address(0), RecoverError.InvalidSignature) */\n      swap3\n      pop\n      swap3\n      pop\n      pop\n      jump(tag_319)\n        /* \"@openzeppelin/contracts/utils/cryptography/ECDSA.sol\":6408:6509  if (signer == address(0)) {... */\n    tag_325:\n        /* \"@openzeppelin/contracts/utils/cryptography/ECDSA.sol\":6527:6533  signer */\n      dup1\n        /* \"@openzeppelin/contracts/utils/cryptography/ECDSA.sol\":6535:6555  RecoverError.NoError */\n      0x00\n        /* \"@openzeppelin/contracts/utils/cryptography/ECDSA.sol\":6519:6556  return (signer, RecoverError.NoError) */\n      swap3\n      pop\n      swap3\n      pop\n      pop\n        /* \"@openzeppelin/contracts/utils/cryptography/ECDSA.sol\":5069:6563  function tryRecover(... */\n    tag_319:\n      swap5\n      pop\n      swap5\n      swap3\n      pop\n      pop\n      pop\n      jump\t// out\n        /* \"#utility.yul\":7:82   */\n    tag_326:\n        /* \"#utility.yul\":40:46   */\n      0x00\n        /* \"#utility.yul\":73:75   */\n      0x40\n        /* \"#utility.yul\":67:76   */\n      mload\n        /* \"#utility.yul\":57:76   */\n      swap1\n      pop\n        /* \"#utility.yul\":7:82   */\n      swap1\n      jump\t// out\n        /* \"#utility.yul\":88:205   */\n    tag_327:\n        /* \"#utility.yul\":197:198   */\n      0x00\n        /* \"#utility.yul\":194:195   */\n      dup1\n        /* \"#utility.yul\":187:199   */\n      revert\n        /* \"#utility.yul\":211:328   */\n    tag_328:\n        /* \"#utility.yul\":320:321   */\n      0x00\n        /* \"#utility.yul\":317:318   */\n      dup1\n        /* \"#utility.yul\":310:322   */\n      revert\n        /* \"#utility.yul\":334:460   */\n    tag_329:\n        /* \"#utility.yul\":371:378   */\n      0x00\n        /* \"#utility.yul\":411:453   */\n      0xffffffffffffffffffffffffffffffffffffffff\n        /* \"#utility.yul\":404:409   */\n      dup3\n        /* \"#utility.yul\":400:454   */\n      and\n        /* \"#utility.yul\":389:454   */\n      swap1\n      pop\n        /* \"#utility.yul\":334:460   */\n      swap2\n      swap1\n      pop\n      jump\t// out\n        /* \"#utility.yul\":466:562   */\n    tag_330:\n        /* \"#utility.yul\":503:510   */\n      0x00\n        /* \"#utility.yul\":532:556   */\n      tag_423\n        /* \"#utility.yul\":550:555   */\n      dup3\n        /* \"#utility.yul\":532:556   */\n      tag_329\n      jump\t// in\n    tag_423:\n        /* \"#utility.yul\":521:556   */\n      swap1\n      pop\n        /* \"#utility.yul\":466:562   */\n      swap2\n      swap1\n      pop\n      jump\t// out\n        /* \"#utility.yul\":568:690   */\n    tag_331:\n        /* \"#utility.yul\":641:665   */\n      tag_425\n        /* \"#utility.yul\":659:664   */\n      dup2\n        /* \"#utility.yul\":641:665   */\n      tag_330\n      jump\t// in\n    tag_425:\n        /* \"#utility.yul\":634:639   */\n      dup2\n        /* \"#utility.yul\":631:666   */\n      eq\n        /* \"#utility.yul\":621:684   */\n      tag_426\n      jumpi\n        /* \"#utility.yul\":680:681   */\n      0x00\n        /* \"#utility.yul\":677:678   */\n      dup1\n        /* \"#utility.yul\":670:682   */\n      revert\n        /* \"#utility.yul\":621:684   */\n    tag_426:\n        /* \"#utility.yul\":568:690   */\n      pop\n      jump\t// out\n        /* \"#utility.yul\":696:835   */\n    tag_332:\n        /* \"#utility.yul\":742:747   */\n      0x00\n        /* \"#utility.yul\":780:786   */\n      dup2\n        /* \"#utility.yul\":767:787   */\n      calldataload\n        /* \"#utility.yul\":758:787   */\n      swap1\n      pop\n        /* \"#utility.yul\":796:829   */\n      tag_428\n        /* \"#utility.yul\":823:828   */\n      dup2\n        /* \"#utility.yul\":796:829   */\n      tag_331\n      jump\t// in\n    tag_428:\n        /* \"#utility.yul\":696:835   */\n      swap3\n      swap2\n      pop\n      pop\n      jump\t// out\n        /* \"#utility.yul\":841:918   */\n    tag_333:\n        /* \"#utility.yul\":878:885   */\n      0x00\n        /* \"#utility.yul\":907:912   */\n      dup2\n        /* \"#utility.yul\":896:912   */\n      swap1\n      pop\n        /* \"#utility.yul\":841:918   */\n      swap2\n      swap1\n      pop\n      jump\t// out\n        /* \"#utility.yul\":924:1046   */\n    tag_334:\n        /* \"#utility.yul\":997:1021   */\n      tag_431\n        /* \"#utility.yul\":1015:1020   */\n      dup2\n        /* \"#utility.yul\":997:1021   */\n      tag_333\n      jump\t// in\n    tag_431:\n        /* \"#utility.yul\":990:995   */\n      dup2\n        /* \"#utility.yul\":987:1022   */\n      eq\n        /* \"#utility.yul\":977:1040   */\n      tag_432\n      jumpi\n        /* \"#utility.yul\":1036:1037   */\n      0x00\n        /* \"#utility.yul\":1033:1034   */\n      dup1\n        /* \"#utility.yul\":1026:1038   */\n      revert\n        /* \"#utility.yul\":977:1040   */\n    tag_432:\n        /* \"#utility.yul\":924:1046   */\n      pop\n      jump\t// out\n        /* \"#utility.yul\":1052:1191   */\n    tag_335:\n        /* \"#utility.yul\":1098:1103   */\n      0x00\n        /* \"#utility.yul\":1136:1142   */\n      dup2\n        /* \"#utility.yul\":1123:1143   */\n      calldataload\n        /* \"#utility.yul\":1114:1143   */\n      swap1\n      pop\n        /* \"#utility.yul\":1152:1185   */\n      tag_434\n        /* \"#utility.yul\":1179:1184   */\n      dup2\n        /* \"#utility.yul\":1152:1185   */\n      tag_334\n      jump\t// in\n    tag_434:\n        /* \"#utility.yul\":1052:1191   */\n      swap3\n      swap2\n      pop\n      pop\n      jump\t// out\n        /* \"#utility.yul\":1197:1816   */\n    tag_22:\n        /* \"#utility.yul\":1274:1280   */\n      0x00\n        /* \"#utility.yul\":1282:1288   */\n      dup1\n        /* \"#utility.yul\":1290:1296   */\n      0x00\n        /* \"#utility.yul\":1339:1341   */\n      0x60\n        /* \"#utility.yul\":1327:1336   */\n      dup5\n        /* \"#utility.yul\":1318:1325   */\n      dup7\n        /* \"#utility.yul\":1314:1337   */\n      sub\n        /* \"#utility.yul\":1310:1342   */\n      slt\n        /* \"#utility.yul\":1307:1426   */\n      iszero\n      tag_436\n      jumpi\n        /* \"#utility.yul\":1345:1424   */\n      tag_437\n      tag_327\n      jump\t// in\n    tag_437:\n        /* \"#utility.yul\":1307:1426   */\n    tag_436:\n        /* \"#utility.yul\":1465:1466   */\n      0x00\n        /* \"#utility.yul\":1490:1543   */\n      tag_438\n        /* \"#utility.yul\":1535:1542   */\n      dup7\n        /* \"#utility.yul\":1526:1532   */\n      dup3\n        /* \"#utility.yul\":1515:1524   */\n      dup8\n        /* \"#utility.yul\":1511:1533   */\n      add\n        /* \"#utility.yul\":1490:1543   */\n      tag_332\n      jump\t// in\n    tag_438:\n        /* \"#utility.yul\":1480:1543   */\n      swap4\n      pop\n        /* \"#utility.yul\":1436:1553   */\n      pop\n        /* \"#utility.yul\":1592:1594   */\n      0x20\n        /* \"#utility.yul\":1618:1671   */\n      tag_439\n        /* \"#utility.yul\":1663:1670   */\n      dup7\n        /* \"#utility.yul\":1654:1660   */\n      dup3\n        /* \"#utility.yul\":1643:1652   */\n      dup8\n        /* \"#utility.yul\":1639:1661   */\n      add\n        /* \"#utility.yul\":1618:1671   */\n      tag_332\n      jump\t// in\n    tag_439:\n        /* \"#utility.yul\":1608:1671   */\n      swap3\n      pop\n        /* \"#utility.yul\":1563:1681   */\n      pop\n        /* \"#utility.yul\":1720:1722   */\n      0x40\n        /* \"#utility.yul\":1746:1799   */\n      tag_440\n        /* \"#utility.yul\":1791:1798   */\n      dup7\n        /* \"#utility.yul\":1782:1788   */\n      dup3\n        /* \"#utility.yul\":1771:1780   */\n      dup8\n        /* \"#utility.yul\":1767:1789   */\n      add\n        /* \"#utility.yul\":1746:1799   */\n      tag_335\n      jump\t// in\n    tag_440:\n        /* \"#utility.yul\":1736:1799   */\n      swap2\n      pop\n        /* \"#utility.yul\":1691:1809   */\n      pop\n        /* \"#utility.yul\":1197:1816   */\n      swap3\n      pop\n      swap3\n      pop\n      swap3\n      jump\t// out\n        /* \"#utility.yul\":1822:2151   */\n    tag_27:\n        /* \"#utility.yul\":1881:1887   */\n      0x00\n        /* \"#utility.yul\":1930:1932   */\n      0x20\n        /* \"#utility.yul\":1918:1927   */\n      dup3\n        /* \"#utility.yul\":1909:1916   */\n      dup5\n        /* \"#utility.yul\":1905:1928   */\n      sub\n        /* \"#utility.yul\":1901:1933   */\n      slt\n        /* \"#utility.yul\":1898:2017   */\n      iszero\n      tag_442\n      jumpi\n        /* \"#utility.yul\":1936:2015   */\n      tag_443\n      tag_327\n      jump\t// in\n    tag_443:\n        /* \"#utility.yul\":1898:2017   */\n    tag_442:\n        /* \"#utility.yul\":2056:2057   */\n      0x00\n        /* \"#utility.yul\":2081:2134   */\n      tag_444\n        /* \"#utility.yul\":2126:2133   */\n      dup5\n        /* \"#utility.yul\":2117:2123   */\n      dup3\n        /* \"#utility.yul\":2106:2115   */\n      dup6\n        /* \"#utility.yul\":2102:2124   */\n      add\n        /* \"#utility.yul\":2081:2134   */\n      tag_332\n      jump\t// in\n    tag_444:\n        /* \"#utility.yul\":2071:2134   */\n      swap2\n      pop\n        /* \"#utility.yul\":2027:2144   */\n      pop\n        /* \"#utility.yul\":1822:2151   */\n      swap3\n      swap2\n      pop\n      pop\n      jump\t// out\n        /* \"#utility.yul\":2157:2275   */\n    tag_336:\n        /* \"#utility.yul\":2244:2268   */\n      tag_446\n        /* \"#utility.yul\":2262:2267   */\n      dup2\n        /* \"#utility.yul\":2244:2268   */\n      tag_333\n      jump\t// in\n    tag_446:\n        /* \"#utility.yul\":2239:2242   */\n      dup3\n        /* \"#utility.yul\":2232:2269   */\n      mstore\n        /* \"#utility.yul\":2157:2275   */\n      pop\n      pop\n      jump\t// out\n        /* \"#utility.yul\":2281:2503   */\n    tag_30:\n        /* \"#utility.yul\":2374:2378   */\n      0x00\n        /* \"#utility.yul\":2412:2414   */\n      0x20\n        /* \"#utility.yul\":2401:2410   */\n      dup3\n        /* \"#utility.yul\":2397:2415   */\n      add\n        /* \"#utility.yul\":2389:2415   */\n      swap1\n      pop\n        /* \"#utility.yul\":2425:2496   */\n      tag_448\n        /* \"#utility.yul\":2493:2494   */\n      0x00\n        /* \"#utility.yul\":2482:2491   */\n      dup4\n        /* \"#utility.yul\":2478:2495   */\n      add\n        /* \"#utility.yul\":2469:2475   */\n      dup5\n        /* \"#utility.yul\":2425:2496   */\n      tag_336\n      jump\t// in\n    tag_448:\n        /* \"#utility.yul\":2281:2503   */\n      swap3\n      swap2\n      pop\n      pop\n      jump\t// out\n        /* \"#utility.yul\":2509:2626   */\n    tag_337:\n        /* \"#utility.yul\":2618:2619   */\n      0x00\n        /* \"#utility.yul\":2615:2616   */\n      dup1\n        /* \"#utility.yul\":2608:2620   */\n      revert\n        /* \"#utility.yul\":2675:2908   */\n    tag_338:\n        /* \"#utility.yul\":2749:2754   */\n      0x00\n        /* \"#utility.yul\":2790:2793   */\n      0xe0\n        /* \"#utility.yul\":2781:2787   */\n      dup3\n        /* \"#utility.yul\":2776:2779   */\n      dup5\n        /* \"#utility.yul\":2772:2788   */\n      sub\n        /* \"#utility.yul\":2768:2794   */\n      slt\n        /* \"#utility.yul\":2765:2878   */\n      iszero\n      tag_451\n      jumpi\n        /* \"#utility.yul\":2797:2876   */\n      tag_452\n      tag_337\n      jump\t// in\n    tag_452:\n        /* \"#utility.yul\":2765:2878   */\n    tag_451:\n        /* \"#utility.yul\":2896:2902   */\n      dup2\n        /* \"#utility.yul\":2887:2902   */\n      swap1\n      pop\n        /* \"#utility.yul\":2675:2908   */\n      swap3\n      swap2\n      pop\n      pop\n      jump\t// out\n        /* \"#utility.yul\":2914:3031   */\n    tag_339:\n        /* \"#utility.yul\":3023:3024   */\n      0x00\n        /* \"#utility.yul\":3020:3021   */\n      dup1\n        /* \"#utility.yul\":3013:3025   */\n      revert\n        /* \"#utility.yul\":3037:3154   */\n    tag_340:\n        /* \"#utility.yul\":3146:3147   */\n      0x00\n        /* \"#utility.yul\":3143:3144   */\n      dup1\n        /* \"#utility.yul\":3136:3148   */\n      revert\n        /* \"#utility.yul\":3160:3277   */\n    tag_341:\n        /* \"#utility.yul\":3269:3270   */\n      0x00\n        /* \"#utility.yul\":3266:3267   */\n      dup1\n        /* \"#utility.yul\":3259:3271   */\n      revert\n        /* \"#utility.yul\":3296:3848   */\n    tag_342:\n        /* \"#utility.yul\":3353:3361   */\n      0x00\n        /* \"#utility.yul\":3363:3369   */\n      dup1\n        /* \"#utility.yul\":3413:3416   */\n      dup4\n        /* \"#utility.yul\":3406:3410   */\n      0x1f\n        /* \"#utility.yul\":3398:3404   */\n      dup5\n        /* \"#utility.yul\":3394:3411   */\n      add\n        /* \"#utility.yul\":3390:3417   */\n      slt\n        /* \"#utility.yul\":3380:3502   */\n      tag_457\n      jumpi\n        /* \"#utility.yul\":3421:3500   */\n      tag_458\n      tag_339\n      jump\t// in\n    tag_458:\n        /* \"#utility.yul\":3380:3502   */\n    tag_457:\n        /* \"#utility.yul\":3534:3540   */\n      dup3\n        /* \"#utility.yul\":3521:3541   */\n      calldataload\n        /* \"#utility.yul\":3511:3541   */\n      swap1\n      pop\n        /* \"#utility.yul\":3564:3582   */\n      0xffffffffffffffff\n        /* \"#utility.yul\":3556:3562   */\n      dup2\n        /* \"#utility.yul\":3553:3583   */\n      gt\n        /* \"#utility.yul\":3550:3667   */\n      iszero\n      tag_459\n      jumpi\n        /* \"#utility.yul\":3586:3665   */\n      tag_460\n      tag_340\n      jump\t// in\n    tag_460:\n        /* \"#utility.yul\":3550:3667   */\n    tag_459:\n        /* \"#utility.yul\":3700:3704   */\n      0x20\n        /* \"#utility.yul\":3692:3698   */\n      dup4\n        /* \"#utility.yul\":3688:3705   */\n      add\n        /* \"#utility.yul\":3676:3705   */\n      swap2\n      pop\n        /* \"#utility.yul\":3754:3757   */\n      dup4\n        /* \"#utility.yul\":3746:3750   */\n      0x01\n        /* \"#utility.yul\":3738:3744   */\n      dup3\n        /* \"#utility.yul\":3734:3751   */\n      mul\n        /* \"#utility.yul\":3724:3732   */\n      dup4\n        /* \"#utility.yul\":3720:3752   */\n      add\n        /* \"#utility.yul\":3717:3758   */\n      gt\n        /* \"#utility.yul\":3714:3842   */\n      iszero\n      tag_461\n      jumpi\n        /* \"#utility.yul\":3761:3840   */\n      tag_462\n      tag_341\n      jump\t// in\n    tag_462:\n        /* \"#utility.yul\":3714:3842   */\n    tag_461:\n        /* \"#utility.yul\":3296:3848   */\n      swap3\n      pop\n      swap3\n      swap1\n      pop\n      jump\t// out\n        /* \"#utility.yul\":3854:4742   */\n    tag_35:\n        /* \"#utility.yul\":3961:3967   */\n      0x00\n        /* \"#utility.yul\":3969:3975   */\n      dup1\n        /* \"#utility.yul\":3977:3983   */\n      0x00\n        /* \"#utility.yul\":4026:4028   */\n      0x40\n        /* \"#utility.yul\":4014:4023   */\n      dup5\n        /* \"#utility.yul\":4005:4012   */\n      dup7\n        /* \"#utility.yul\":4001:4024   */\n      sub\n        /* \"#utility.yul\":3997:4029   */\n      slt\n        /* \"#utility.yul\":3994:4113   */\n      iszero\n      tag_464\n      jumpi\n        /* \"#utility.yul\":4032:4111   */\n      tag_465\n      tag_327\n      jump\t// in\n    tag_465:\n        /* \"#utility.yul\":3994:4113   */\n    tag_464:\n        /* \"#utility.yul\":4180:4181   */\n      0x00\n        /* \"#utility.yul\":4169:4178   */\n      dup5\n        /* \"#utility.yul\":4165:4182   */\n      add\n        /* \"#utility.yul\":4152:4183   */\n      calldataload\n        /* \"#utility.yul\":4210:4228   */\n      0xffffffffffffffff\n        /* \"#utility.yul\":4202:4208   */\n      dup2\n        /* \"#utility.yul\":4199:4229   */\n      gt\n        /* \"#utility.yul\":4196:4313   */\n      iszero\n      tag_466\n      jumpi\n        /* \"#utility.yul\":4232:4311   */\n      tag_467\n      tag_328\n      jump\t// in\n    tag_467:\n        /* \"#utility.yul\":4196:4313   */\n    tag_466:\n        /* \"#utility.yul\":4337:4418   */\n      tag_468\n        /* \"#utility.yul\":4410:4417   */\n      dup7\n        /* \"#utility.yul\":4401:4407   */\n      dup3\n        /* \"#utility.yul\":4390:4399   */\n      dup8\n        /* \"#utility.yul\":4386:4408   */\n      add\n        /* \"#utility.yul\":4337:4418   */\n      tag_338\n      jump\t// in\n    tag_468:\n        /* \"#utility.yul\":4327:4418   */\n      swap4\n      pop\n        /* \"#utility.yul\":4123:4428   */\n      pop\n        /* \"#utility.yul\":4495:4497   */\n      0x20\n        /* \"#utility.yul\":4484:4493   */\n      dup5\n        /* \"#utility.yul\":4480:4498   */\n      add\n        /* \"#utility.yul\":4467:4499   */\n      calldataload\n        /* \"#utility.yul\":4526:4544   */\n      0xffffffffffffffff\n        /* \"#utility.yul\":4518:4524   */\n      dup2\n        /* \"#utility.yul\":4515:4545   */\n      gt\n        /* \"#utility.yul\":4512:4629   */\n      iszero\n      tag_469\n      jumpi\n        /* \"#utility.yul\":4548:4627   */\n      tag_470\n      tag_328\n      jump\t// in\n    tag_470:\n        /* \"#utility.yul\":4512:4629   */\n    tag_469:\n        /* \"#utility.yul\":4661:4725   */\n      tag_471\n        /* \"#utility.yul\":4717:4724   */\n      dup7\n        /* \"#utility.yul\":4708:4714   */\n      dup3\n        /* \"#utility.yul\":4697:4706   */\n      dup8\n        /* \"#utility.yul\":4693:4715   */\n      add\n        /* \"#utility.yul\":4661:4725   */\n      tag_342\n      jump\t// in\n    tag_471:\n        /* \"#utility.yul\":4643:4725   */\n      swap3\n      pop\n      swap3\n      pop\n        /* \"#utility.yul\":4438:4735   */\n      pop\n        /* \"#utility.yul\":3854:4742   */\n      swap3\n      pop\n      swap3\n      pop\n      swap3\n      jump\t// out\n        /* \"#utility.yul\":4748:5222   */\n    tag_40:\n        /* \"#utility.yul\":4816:4822   */\n      0x00\n        /* \"#utility.yul\":4824:4830   */\n      dup1\n        /* \"#utility.yul\":4873:4875   */\n      0x40\n        /* \"#utility.yul\":4861:4870   */\n      dup4\n        /* \"#utility.yul\":4852:4859   */\n      dup6\n        /* \"#utility.yul\":4848:4871   */\n      sub\n        /* \"#utility.yul\":4844:4876   */\n      slt\n        /* \"#utility.yul\":4841:4960   */\n      iszero\n      tag_473\n      jumpi\n        /* \"#utility.yul\":4879:4958   */\n      tag_474\n      tag_327\n      jump\t// in\n    tag_474:\n        /* \"#utility.yul\":4841:4960   */\n    tag_473:\n        /* \"#utility.yul\":4999:5000   */\n      0x00\n        /* \"#utility.yul\":5024:5077   */\n      tag_475\n        /* \"#utility.yul\":5069:5076   */\n      dup6\n        /* \"#utility.yul\":5060:5066   */\n      dup3\n        /* \"#utility.yul\":5049:5058   */\n      dup7\n        /* \"#utility.yul\":5045:5067   */\n      add\n        /* \"#utility.yul\":5024:5077   */\n      tag_332\n      jump\t// in\n    tag_475:\n        /* \"#utility.yul\":5014:5077   */\n      swap3\n      pop\n        /* \"#utility.yul\":4970:5087   */\n      pop\n        /* \"#utility.yul\":5126:5128   */\n      0x20\n        /* \"#utility.yul\":5152:5205   */\n      tag_476\n        /* \"#utility.yul\":5197:5204   */\n      dup6\n        /* \"#utility.yul\":5188:5194   */\n      dup3\n        /* \"#utility.yul\":5177:5186   */\n      dup7\n        /* \"#utility.yul\":5173:5195   */\n      add\n        /* \"#utility.yul\":5152:5205   */\n      tag_335\n      jump\t// in\n    tag_476:\n        /* \"#utility.yul\":5142:5205   */\n      swap2\n      pop\n        /* \"#utility.yul\":5097:5215   */\n      pop\n        /* \"#utility.yul\":4748:5222   */\n      swap3\n      pop\n      swap3\n      swap1\n      pop\n      jump\t// out\n        /* \"#utility.yul\":5228:5346   */\n    tag_343:\n        /* \"#utility.yul\":5315:5339   */\n      tag_478\n        /* \"#utility.yul\":5333:5338   */\n      dup2\n        /* \"#utility.yul\":5315:5339   */\n      tag_330\n      jump\t// in\n    tag_478:\n        /* \"#utility.yul\":5310:5313   */\n      dup3\n        /* \"#utility.yul\":5303:5340   */\n      mstore\n        /* \"#utility.yul\":5228:5346   */\n      pop\n      pop\n      jump\t// out\n        /* \"#utility.yul\":5352:5574   */\n    tag_46:\n        /* \"#utility.yul\":5445:5449   */\n      0x00\n        /* \"#utility.yul\":5483:5485   */\n      0x20\n        /* \"#utility.yul\":5472:5481   */\n      dup3\n        /* \"#utility.yul\":5468:5486   */\n      add\n        /* \"#utility.yul\":5460:5486   */\n      swap1\n      pop\n        /* \"#utility.yul\":5496:5567   */\n      tag_480\n        /* \"#utility.yul\":5564:5565   */\n      0x00\n        /* \"#utility.yul\":5553:5562   */\n      dup4\n        /* \"#utility.yul\":5549:5566   */\n      add\n        /* \"#utility.yul\":5540:5546   */\n      dup5\n        /* \"#utility.yul\":5496:5567   */\n      tag_343\n      jump\t// in\n    tag_480:\n        /* \"#utility.yul\":5352:5574   */\n      swap3\n      swap2\n      pop\n      pop\n      jump\t// out\n        /* \"#utility.yul\":5580:5666   */\n    tag_344:\n        /* \"#utility.yul\":5615:5622   */\n      0x00\n        /* \"#utility.yul\":5655:5659   */\n      0xff\n        /* \"#utility.yul\":5648:5653   */\n      dup3\n        /* \"#utility.yul\":5644:5660   */\n      and\n        /* \"#utility.yul\":5633:5660   */\n      swap1\n      pop\n        /* \"#utility.yul\":5580:5666   */\n      swap2\n      swap1\n      pop\n      jump\t// out\n        /* \"#utility.yul\":5672:5790   */\n    tag_345:\n        /* \"#utility.yul\":5743:5765   */\n      tag_483\n        /* \"#utility.yul\":5759:5764   */\n      dup2\n        /* \"#utility.yul\":5743:5765   */\n      tag_344\n      jump\t// in\n    tag_483:\n        /* \"#utility.yul\":5736:5741   */\n      dup2\n        /* \"#utility.yul\":5733:5766   */\n      eq\n        /* \"#utility.yul\":5723:5784   */\n      tag_484\n      jumpi\n        /* \"#utility.yul\":5780:5781   */\n      0x00\n        /* \"#utility.yul\":5777:5778   */\n      dup1\n        /* \"#utility.yul\":5770:5782   */\n      revert\n        /* \"#utility.yul\":5723:5784   */\n    tag_484:\n        /* \"#utility.yul\":5672:5790   */\n      pop\n      jump\t// out\n        /* \"#utility.yul\":5796:5931   */\n    tag_346:\n        /* \"#utility.yul\":5840:5845   */\n      0x00\n        /* \"#utility.yul\":5878:5884   */\n      dup2\n        /* \"#utility.yul\":5865:5885   */\n      calldataload\n        /* \"#utility.yul\":5856:5885   */\n      swap1\n      pop\n        /* \"#utility.yul\":5894:5925   */\n      tag_486\n        /* \"#utility.yul\":5919:5924   */\n      dup2\n        /* \"#utility.yul\":5894:5925   */\n      tag_345\n      jump\t// in\n    tag_486:\n        /* \"#utility.yul\":5796:5931   */\n      swap3\n      swap2\n      pop\n      pop\n      jump\t// out\n        /* \"#utility.yul\":5937:6844   */\n    tag_50:\n        /* \"#utility.yul\":6030:6036   */\n      0x00\n        /* \"#utility.yul\":6038:6044   */\n      dup1\n        /* \"#utility.yul\":6046:6052   */\n      0x00\n        /* \"#utility.yul\":6054:6060   */\n      dup1\n        /* \"#utility.yul\":6062:6068   */\n      0x00\n        /* \"#utility.yul\":6111:6114   */\n      0xa0\n        /* \"#utility.yul\":6099:6108   */\n      dup7\n        /* \"#utility.yul\":6090:6097   */\n      dup9\n        /* \"#utility.yul\":6086:6109   */\n      sub\n        /* \"#utility.yul\":6082:6115   */\n      slt\n        /* \"#utility.yul\":6079:6199   */\n      iszero\n      tag_488\n      jumpi\n        /* \"#utility.yul\":6118:6197   */\n      tag_489\n      tag_327\n      jump\t// in\n    tag_489:\n        /* \"#utility.yul\":6079:6199   */\n    tag_488:\n        /* \"#utility.yul\":6238:6239   */\n      0x00\n        /* \"#utility.yul\":6263:6316   */\n      tag_490\n        /* \"#utility.yul\":6308:6315   */\n      dup9\n        /* \"#utility.yul\":6299:6305   */\n      dup3\n        /* \"#utility.yul\":6288:6297   */\n      dup10\n        /* \"#utility.yul\":6284:6306   */\n      add\n        /* \"#utility.yul\":6263:6316   */\n      tag_332\n      jump\t// in\n    tag_490:\n        /* \"#utility.yul\":6253:6316   */\n      swap6\n      pop\n        /* \"#utility.yul\":6209:6326   */\n      pop\n        /* \"#utility.yul\":6365:6367   */\n      0x20\n        /* \"#utility.yul\":6391:6444   */\n      tag_491\n        /* \"#utility.yul\":6436:6443   */\n      dup9\n        /* \"#utility.yul\":6427:6433   */\n      dup3\n        /* \"#utility.yul\":6416:6425   */\n      dup10\n        /* \"#utility.yul\":6412:6434   */\n      add\n        /* \"#utility.yul\":6391:6444   */\n      tag_332\n      jump\t// in\n    tag_491:\n        /* \"#utility.yul\":6381:6444   */\n      swap5\n      pop\n        /* \"#utility.yul\":6336:6454   */\n      pop\n        /* \"#utility.yul\":6493:6495   */\n      0x40\n        /* \"#utility.yul\":6519:6572   */\n      tag_492\n        /* \"#utility.yul\":6564:6571   */\n      dup9\n        /* \"#utility.yul\":6555:6561   */\n      dup3\n        /* \"#utility.yul\":6544:6553   */\n      dup10\n        /* \"#utility.yul\":6540:6562   */\n      add\n        /* \"#utility.yul\":6519:6572   */\n      tag_332\n      jump\t// in\n    tag_492:\n        /* \"#utility.yul\":6509:6572   */\n      swap4\n      pop\n        /* \"#utility.yul\":6464:6582   */\n      pop\n        /* \"#utility.yul\":6621:6623   */\n      0x60\n        /* \"#utility.yul\":6647:6700   */\n      tag_493\n        /* \"#utility.yul\":6692:6699   */\n      dup9\n        /* \"#utility.yul\":6683:6689   */\n      dup3\n        /* \"#utility.yul\":6672:6681   */\n      dup10\n        /* \"#utility.yul\":6668:6690   */\n      add\n        /* \"#utility.yul\":6647:6700   */\n      tag_335\n      jump\t// in\n    tag_493:\n        /* \"#utility.yul\":6637:6700   */\n      swap3\n      pop\n        /* \"#utility.yul\":6592:6710   */\n      pop\n        /* \"#utility.yul\":6749:6752   */\n      0x80\n        /* \"#utility.yul\":6776:6827   */\n      tag_494\n        /* \"#utility.yul\":6819:6826   */\n      dup9\n        /* \"#utility.yul\":6810:6816   */\n      dup3\n        /* \"#utility.yul\":6799:6808   */\n      dup10\n        /* \"#utility.yul\":6795:6817   */\n      add\n        /* \"#utility.yul\":6776:6827   */\n      tag_346\n      jump\t// in\n    tag_494:\n        /* \"#utility.yul\":6766:6827   */\n      swap2\n      pop\n        /* \"#utility.yul\":6720:6837   */\n      pop\n        /* \"#utility.yul\":5937:6844   */\n      swap3\n      swap6\n      pop\n      swap3\n      swap6\n      swap1\n      swap4\n      pop\n      jump\t// out\n        /* \"#utility.yul\":6850:6941   */\n    tag_347:\n        /* \"#utility.yul\":6886:6893   */\n      0x00\n        /* \"#utility.yul\":6926:6934   */\n      0xffffff\n        /* \"#utility.yul\":6919:6924   */\n      dup3\n        /* \"#utility.yul\":6915:6935   */\n      and\n        /* \"#utility.yul\":6904:6935   */\n      swap1\n      pop\n        /* \"#utility.yul\":6850:6941   */\n      swap2\n      swap1\n      pop\n      jump\t// out\n        /* \"#utility.yul\":6947:7062   */\n    tag_348:\n        /* \"#utility.yul\":7032:7055   */\n      tag_497\n        /* \"#utility.yul\":7049:7054   */\n      dup2\n        /* \"#utility.yul\":7032:7055   */\n      tag_347\n      jump\t// in\n    tag_497:\n        /* \"#utility.yul\":7027:7030   */\n      dup3\n        /* \"#utility.yul\":7020:7056   */\n      mstore\n        /* \"#utility.yul\":6947:7062   */\n      pop\n      pop\n      jump\t// out\n        /* \"#utility.yul\":7068:7396   */\n    tag_53:\n        /* \"#utility.yul\":7187:7191   */\n      0x00\n        /* \"#utility.yul\":7225:7227   */\n      0x40\n        /* \"#utility.yul\":7214:7223   */\n      dup3\n        /* \"#utility.yul\":7210:7228   */\n      add\n        /* \"#utility.yul\":7202:7228   */\n      swap1\n      pop\n        /* \"#utility.yul\":7238:7309   */\n      tag_499\n        /* \"#utility.yul\":7306:7307   */\n      0x00\n        /* \"#utility.yul\":7295:7304   */\n      dup4\n        /* \"#utility.yul\":7291:7308   */\n      add\n        /* \"#utility.yul\":7282:7288   */\n      dup6\n        /* \"#utility.yul\":7238:7309   */\n      tag_336\n      jump\t// in\n    tag_499:\n        /* \"#utility.yul\":7319:7389   */\n      tag_500\n        /* \"#utility.yul\":7385:7387   */\n      0x20\n        /* \"#utility.yul\":7374:7383   */\n      dup4\n        /* \"#utility.yul\":7370:7388   */\n      add\n        /* \"#utility.yul\":7361:7367   */\n      dup5\n        /* \"#utility.yul\":7319:7389   */\n      tag_348\n      jump\t// in\n    tag_500:\n        /* \"#utility.yul\":7068:7396   */\n      swap4\n      swap3\n      pop\n      pop\n      pop\n      jump\t// out\n        /* \"#utility.yul\":7402:7545   */\n    tag_349:\n        /* \"#utility.yul\":7459:7464   */\n      0x00\n        /* \"#utility.yul\":7490:7496   */\n      dup2\n        /* \"#utility.yul\":7484:7497   */\n      mload\n        /* \"#utility.yul\":7475:7497   */\n      swap1\n      pop\n        /* \"#utility.yul\":7506:7539   */\n      tag_502\n        /* \"#utility.yul\":7533:7538   */\n      dup2\n        /* \"#utility.yul\":7506:7539   */\n      tag_334\n      jump\t// in\n    tag_502:\n        /* \"#utility.yul\":7402:7545   */\n      swap3\n      swap2\n      pop\n      pop\n      jump\t// out\n        /* \"#utility.yul\":7551:7902   */\n    tag_91:\n        /* \"#utility.yul\":7621:7627   */\n      0x00\n        /* \"#utility.yul\":7670:7672   */\n      0x20\n        /* \"#utility.yul\":7658:7667   */\n      dup3\n        /* \"#utility.yul\":7649:7656   */\n      dup5\n        /* \"#utility.yul\":7645:7668   */\n      sub\n        /* \"#utility.yul\":7641:7673   */\n      slt\n        /* \"#utility.yul\":7638:7757   */\n      iszero\n      tag_504\n      jumpi\n        /* \"#utility.yul\":7676:7755   */\n      tag_505\n      tag_327\n      jump\t// in\n    tag_505:\n        /* \"#utility.yul\":7638:7757   */\n    tag_504:\n        /* \"#utility.yul\":7796:7797   */\n      0x00\n        /* \"#utility.yul\":7821:7885   */\n      tag_506\n        /* \"#utility.yul\":7877:7884   */\n      dup5\n        /* \"#utility.yul\":7868:7874   */\n      dup3\n        /* \"#utility.yul\":7857:7866   */\n      dup6\n        /* \"#utility.yul\":7853:7875   */\n      add\n        /* \"#utility.yul\":7821:7885   */\n      tag_349\n      jump\t// in\n    tag_506:\n        /* \"#utility.yul\":7811:7885   */\n      swap2\n      pop\n        /* \"#utility.yul\":7767:7895   */\n      pop\n        /* \"#utility.yul\":7551:7902   */\n      swap3\n      swap2\n      pop\n      pop\n      jump\t// out\n        /* \"#utility.yul\":7908:8077   */\n    tag_350:\n        /* \"#utility.yul\":7992:8003   */\n      0x00\n        /* \"#utility.yul\":8026:8032   */\n      dup3\n        /* \"#utility.yul\":8021:8024   */\n      dup3\n        /* \"#utility.yul\":8014:8033   */\n      mstore\n        /* \"#utility.yul\":8066:8070   */\n      0x20\n        /* \"#utility.yul\":8061:8064   */\n      dup3\n        /* \"#utility.yul\":8057:8071   */\n      add\n        /* \"#utility.yul\":8042:8071   */\n      swap1\n      pop\n        /* \"#utility.yul\":7908:8077   */\n      swap3\n      swap2\n      pop\n      pop\n      jump\t// out\n        /* \"#utility.yul\":8083:8247   */\n    tag_351:\n        /* \"#utility.yul\":8223:8239   */\n      0x696e76616c65642073656e646572000000000000000000000000000000000000\n        /* \"#utility.yul\":8219:8220   */\n      0x00\n        /* \"#utility.yul\":8211:8217   */\n      dup3\n        /* \"#utility.yul\":8207:8221   */\n      add\n        /* \"#utility.yul\":8200:8240   */\n      mstore\n        /* \"#utility.yul\":8083:8247   */\n      pop\n      jump\t// out\n        /* \"#utility.yul\":8253:8619   */\n    tag_352:\n        /* \"#utility.yul\":8395:8398   */\n      0x00\n        /* \"#utility.yul\":8416:8483   */\n      tag_510\n        /* \"#utility.yul\":8480:8482   */\n      0x0e\n        /* \"#utility.yul\":8475:8478   */\n      dup4\n        /* \"#utility.yul\":8416:8483   */\n      tag_350\n      jump\t// in\n    tag_510:\n        /* \"#utility.yul\":8409:8483   */\n      swap2\n      pop\n        /* \"#utility.yul\":8492:8585   */\n      tag_511\n        /* \"#utility.yul\":8581:8584   */\n      dup3\n        /* \"#utility.yul\":8492:8585   */\n      tag_351\n      jump\t// in\n    tag_511:\n        /* \"#utility.yul\":8610:8612   */\n      0x20\n        /* \"#utility.yul\":8605:8608   */\n      dup3\n        /* \"#utility.yul\":8601:8613   */\n      add\n        /* \"#utility.yul\":8594:8613   */\n      swap1\n      pop\n        /* \"#utility.yul\":8253:8619   */\n      swap2\n      swap1\n      pop\n      jump\t// out\n        /* \"#utility.yul\":8625:9044   */\n    tag_97:\n        /* \"#utility.yul\":8791:8795   */\n      0x00\n        /* \"#utility.yul\":8829:8831   */\n      0x20\n        /* \"#utility.yul\":8818:8827   */\n      dup3\n        /* \"#utility.yul\":8814:8832   */\n      add\n        /* \"#utility.yul\":8806:8832   */\n      swap1\n      pop\n        /* \"#utility.yul\":8878:8887   */\n      dup2\n        /* \"#utility.yul\":8872:8876   */\n      dup2\n        /* \"#utility.yul\":8868:8888   */\n      sub\n        /* \"#utility.yul\":8864:8865   */\n      0x00\n        /* \"#utility.yul\":8853:8862   */\n      dup4\n        /* \"#utility.yul\":8849:8866   */\n      add\n        /* \"#utility.yul\":8842:8889   */\n      mstore\n        /* \"#utility.yul\":8906:9037   */\n      tag_513\n        /* \"#utility.yul\":9032:9036   */\n      dup2\n        /* \"#utility.yul\":8906:9037   */\n      tag_352\n      jump\t// in\n    tag_513:\n        /* \"#utility.yul\":8898:9037   */\n      swap1\n      pop\n        /* \"#utility.yul\":8625:9044   */\n      swap2\n      swap1\n      pop\n      jump\t// out\n        /* \"#utility.yul\":9050:9172   */\n    tag_353:\n        /* \"#utility.yul\":9102:9107   */\n      0x00\n        /* \"#utility.yul\":9127:9166   */\n      tag_515\n        /* \"#utility.yul\":9162:9164   */\n      0x20\n        /* \"#utility.yul\":9157:9160   */\n      dup5\n        /* \"#utility.yul\":9153:9165   */\n      add\n        /* \"#utility.yul\":9148:9151   */\n      dup5\n        /* \"#utility.yul\":9127:9166   */\n      tag_332\n      jump\t// in\n    tag_515:\n        /* \"#utility.yul\":9118:9166   */\n      swap1\n      pop\n        /* \"#utility.yul\":9050:9172   */\n      swap3\n      swap2\n      pop\n      pop\n      jump\t// out\n        /* \"#utility.yul\":9178:9286   */\n    tag_354:\n        /* \"#utility.yul\":9255:9279   */\n      tag_517\n        /* \"#utility.yul\":9273:9278   */\n      dup2\n        /* \"#utility.yul\":9255:9279   */\n      tag_330\n      jump\t// in\n    tag_517:\n        /* \"#utility.yul\":9250:9253   */\n      dup3\n        /* \"#utility.yul\":9243:9280   */\n      mstore\n        /* \"#utility.yul\":9178:9286   */\n      pop\n      pop\n      jump\t// out\n        /* \"#utility.yul\":9292:9414   */\n    tag_355:\n        /* \"#utility.yul\":9344:9349   */\n      0x00\n        /* \"#utility.yul\":9369:9408   */\n      tag_519\n        /* \"#utility.yul\":9404:9406   */\n      0x20\n        /* \"#utility.yul\":9399:9402   */\n      dup5\n        /* \"#utility.yul\":9395:9407   */\n      add\n        /* \"#utility.yul\":9390:9393   */\n      dup5\n        /* \"#utility.yul\":9369:9408   */\n      tag_335\n      jump\t// in\n    tag_519:\n        /* \"#utility.yul\":9360:9408   */\n      swap1\n      pop\n        /* \"#utility.yul\":9292:9414   */\n      swap3\n      swap2\n      pop\n      pop\n      jump\t// out\n        /* \"#utility.yul\":9420:9528   */\n    tag_356:\n        /* \"#utility.yul\":9497:9521   */\n      tag_521\n        /* \"#utility.yul\":9515:9520   */\n      dup2\n        /* \"#utility.yul\":9497:9521   */\n      tag_333\n      jump\t// in\n    tag_521:\n        /* \"#utility.yul\":9492:9495   */\n      dup3\n        /* \"#utility.yul\":9485:9522   */\n      mstore\n        /* \"#utility.yul\":9420:9528   */\n      pop\n      pop\n      jump\t// out\n        /* \"#utility.yul\":9534:9651   */\n    tag_357:\n        /* \"#utility.yul\":9643:9644   */\n      0x00\n        /* \"#utility.yul\":9640:9641   */\n      dup1\n        /* \"#utility.yul\":9633:9645   */\n      revert\n        /* \"#utility.yul\":9657:9774   */\n    tag_358:\n        /* \"#utility.yul\":9766:9767   */\n      0x00\n        /* \"#utility.yul\":9763:9764   */\n      dup1\n        /* \"#utility.yul\":9756:9768   */\n      revert\n        /* \"#utility.yul\":9780:9897   */\n    tag_359:\n        /* \"#utility.yul\":9889:9890   */\n      0x00\n        /* \"#utility.yul\":9886:9887   */\n      dup1\n        /* \"#utility.yul\":9879:9891   */\n      revert\n        /* \"#utility.yul\":9903:10614   */\n    tag_360:\n        /* \"#utility.yul\":9967:9972   */\n      0x00\n        /* \"#utility.yul\":9974:9980   */\n      dup1\n        /* \"#utility.yul\":10030:10033   */\n      dup4\n        /* \"#utility.yul\":10017:10034   */\n      calldataload\n        /* \"#utility.yul\":10122:10123   */\n      0x01\n        /* \"#utility.yul\":10116:10120   */\n      0x20\n        /* \"#utility.yul\":10112:10124   */\n      sub\n        /* \"#utility.yul\":10101:10109   */\n      dup5\n        /* \"#utility.yul\":10085:10099   */\n      calldatasize\n        /* \"#utility.yul\":10081:10110   */\n      sub\n        /* \"#utility.yul\":10077:10125   */\n      sub\n        /* \"#utility.yul\":10057:10075   */\n      dup2\n        /* \"#utility.yul\":10053:10126   */\n      slt\n        /* \"#utility.yul\":10043:10211   */\n      tag_526\n      jumpi\n        /* \"#utility.yul\":10130:10209   */\n      tag_527\n      tag_359\n      jump\t// in\n    tag_527:\n        /* \"#utility.yul\":10043:10211   */\n    tag_526:\n        /* \"#utility.yul\":10253:10261   */\n      dup4\n        /* \"#utility.yul\":10233:10251   */\n      dup2\n        /* \"#utility.yul\":10229:10262   */\n      add\n        /* \"#utility.yul\":10220:10262   */\n      swap3\n      pop\n        /* \"#utility.yul\":10295:10300   */\n      dup3\n        /* \"#utility.yul\":10282:10301   */\n      calldataload\n        /* \"#utility.yul\":10272:10301   */\n      swap2\n      pop\n        /* \"#utility.yul\":10330:10334   */\n      0x20\n        /* \"#utility.yul\":10323:10328   */\n      dup4\n        /* \"#utility.yul\":10319:10335   */\n      add\n        /* \"#utility.yul\":10310:10335   */\n      swap3\n      pop\n        /* \"#utility.yul\":10358:10376   */\n      0xffffffffffffffff\n        /* \"#utility.yul\":10350:10356   */\n      dup3\n        /* \"#utility.yul\":10347:10377   */\n      gt\n        /* \"#utility.yul\":10344:10461   */\n      iszero\n      tag_528\n      jumpi\n        /* \"#utility.yul\":10380:10459   */\n      tag_529\n      tag_357\n      jump\t// in\n    tag_529:\n        /* \"#utility.yul\":10344:10461   */\n    tag_528:\n        /* \"#utility.yul\":10516:10520   */\n      0x01\n        /* \"#utility.yul\":10508:10514   */\n      dup3\n        /* \"#utility.yul\":10504:10521   */\n      mul\n        /* \"#utility.yul\":10488:10502   */\n      calldatasize\n        /* \"#utility.yul\":10484:10522   */\n      sub\n        /* \"#utility.yul\":10477:10482   */\n      dup4\n        /* \"#utility.yul\":10473:10523   */\n      sgt\n        /* \"#utility.yul\":10470:10607   */\n      iszero\n      tag_530\n      jumpi\n        /* \"#utility.yul\":10526:10605   */\n      tag_531\n      tag_358\n      jump\t// in\n    tag_531:\n        /* \"#utility.yul\":10470:10607   */\n    tag_530:\n        /* \"#utility.yul\":9981:10614   */\n      pop\n        /* \"#utility.yul\":9903:10614   */\n      swap3\n      pop\n      swap3\n      swap1\n      pop\n      jump\t// out\n        /* \"#utility.yul\":10620:10778   */\n    tag_361:\n        /* \"#utility.yul\":10693:10704   */\n      0x00\n        /* \"#utility.yul\":10727:10733   */\n      dup3\n        /* \"#utility.yul\":10722:10725   */\n      dup3\n        /* \"#utility.yul\":10715:10734   */\n      mstore\n        /* \"#utility.yul\":10767:10771   */\n      0x20\n        /* \"#utility.yul\":10762:10765   */\n      dup3\n        /* \"#utility.yul\":10758:10772   */\n      add\n        /* \"#utility.yul\":10743:10772   */\n      swap1\n      pop\n        /* \"#utility.yul\":10620:10778   */\n      swap3\n      swap2\n      pop\n      pop\n      jump\t// out\n        /* \"#utility.yul\":10784:10930   */\n    tag_362:\n        /* \"#utility.yul\":10881:10887   */\n      dup3\n        /* \"#utility.yul\":10876:10879   */\n      dup2\n        /* \"#utility.yul\":10871:10874   */\n      dup4\n        /* \"#utility.yul\":10858:10888   */\n      calldatacopy\n        /* \"#utility.yul\":10922:10923   */\n      0x00\n        /* \"#utility.yul\":10913:10919   */\n      dup4\n        /* \"#utility.yul\":10908:10911   */\n      dup4\n        /* \"#utility.yul\":10904:10920   */\n      add\n        /* \"#utility.yul\":10897:10924   */\n      mstore\n        /* \"#utility.yul\":10784:10930   */\n      pop\n      pop\n      pop\n      jump\t// out\n        /* \"#utility.yul\":10936:11038   */\n    tag_363:\n        /* \"#utility.yul\":10977:10983   */\n      0x00\n        /* \"#utility.yul\":11028:11030   */\n      0x1f\n        /* \"#utility.yul\":11024:11031   */\n      not\n        /* \"#utility.yul\":11019:11021   */\n      0x1f\n        /* \"#utility.yul\":11012:11017   */\n      dup4\n        /* \"#utility.yul\":11008:11022   */\n      add\n        /* \"#utility.yul\":11004:11032   */\n      and\n        /* \"#utility.yul\":10994:11032   */\n      swap1\n      pop\n        /* \"#utility.yul\":10936:11038   */\n      swap2\n      swap1\n      pop\n      jump\t// out\n        /* \"#utility.yul\":11066:11360   */\n    tag_364:\n        /* \"#utility.yul\":11152:11155   */\n      0x00\n        /* \"#utility.yul\":11173:11233   */\n      tag_536\n        /* \"#utility.yul\":11226:11232   */\n      dup4\n        /* \"#utility.yul\":11221:11224   */\n      dup6\n        /* \"#utility.yul\":11173:11233   */\n      tag_361\n      jump\t// in\n    tag_536:\n        /* \"#utility.yul\":11166:11233   */\n      swap4\n      pop\n        /* \"#utility.yul\":11243:11299   */\n      tag_537\n        /* \"#utility.yul\":11292:11298   */\n      dup4\n        /* \"#utility.yul\":11287:11290   */\n      dup6\n        /* \"#utility.yul\":11280:11285   */\n      dup5\n        /* \"#utility.yul\":11243:11299   */\n      tag_362\n      jump\t// in\n    tag_537:\n        /* \"#utility.yul\":11324:11353   */\n      tag_538\n        /* \"#utility.yul\":11346:11352   */\n      dup4\n        /* \"#utility.yul\":11324:11353   */\n      tag_363\n      jump\t// in\n    tag_538:\n        /* \"#utility.yul\":11319:11322   */\n      dup5\n        /* \"#utility.yul\":11315:11354   */\n      add\n        /* \"#utility.yul\":11308:11354   */\n      swap1\n      pop\n        /* \"#utility.yul\":11066:11360   */\n      swap4\n      swap3\n      pop\n      pop\n      pop\n      jump\t// out\n        /* \"#utility.yul\":11366:11456   */\n    tag_365:\n        /* \"#utility.yul\":11400:11407   */\n      0x00\n        /* \"#utility.yul\":11443:11448   */\n      dup2\n        /* \"#utility.yul\":11436:11449   */\n      iszero\n        /* \"#utility.yul\":11429:11450   */\n      iszero\n        /* \"#utility.yul\":11418:11450   */\n      swap1\n      pop\n        /* \"#utility.yul\":11366:11456   */\n      swap2\n      swap1\n      pop\n      jump\t// out\n        /* \"#utility.yul\":11462:11578   */\n    tag_366:\n        /* \"#utility.yul\":11532:11553   */\n      tag_541\n        /* \"#utility.yul\":11547:11552   */\n      dup2\n        /* \"#utility.yul\":11532:11553   */\n      tag_365\n      jump\t// in\n    tag_541:\n        /* \"#utility.yul\":11525:11530   */\n      dup2\n        /* \"#utility.yul\":11522:11554   */\n      eq\n        /* \"#utility.yul\":11512:11572   */\n      tag_542\n      jumpi\n        /* \"#utility.yul\":11568:11569   */\n      0x00\n        /* \"#utility.yul\":11565:11566   */\n      dup1\n        /* \"#utility.yul\":11558:11570   */\n      revert\n        /* \"#utility.yul\":11512:11572   */\n    tag_542:\n        /* \"#utility.yul\":11462:11578   */\n      pop\n      jump\t// out\n        /* \"#utility.yul\":11584:11717   */\n    tag_367:\n        /* \"#utility.yul\":11627:11632   */\n      0x00\n        /* \"#utility.yul\":11665:11671   */\n      dup2\n        /* \"#utility.yul\":11652:11672   */\n      calldataload\n        /* \"#utility.yul\":11643:11672   */\n      swap1\n      pop\n        /* \"#utility.yul\":11681:11711   */\n      tag_544\n        /* \"#utility.yul\":11705:11710   */\n      dup2\n        /* \"#utility.yul\":11681:11711   */\n      tag_366\n      jump\t// in\n    tag_544:\n        /* \"#utility.yul\":11584:11717   */\n      swap3\n      swap2\n      pop\n      pop\n      jump\t// out\n        /* \"#utility.yul\":11723:11839   */\n    tag_368:\n        /* \"#utility.yul\":11772:11777   */\n      0x00\n        /* \"#utility.yul\":11797:11833   */\n      tag_546\n        /* \"#utility.yul\":11829:11831   */\n      0x20\n        /* \"#utility.yul\":11824:11827   */\n      dup5\n        /* \"#utility.yul\":11820:11832   */\n      add\n        /* \"#utility.yul\":11815:11818   */\n      dup5\n        /* \"#utility.yul\":11797:11833   */\n      tag_367\n      jump\t// in\n    tag_546:\n        /* \"#utility.yul\":11788:11833   */\n      swap1\n      pop\n        /* \"#utility.yul\":11723:11839   */\n      swap3\n      swap2\n      pop\n      pop\n      jump\t// out\n        /* \"#utility.yul\":11845:11944   */\n    tag_369:\n        /* \"#utility.yul\":11916:11937   */\n      tag_548\n        /* \"#utility.yul\":11931:11936   */\n      dup2\n        /* \"#utility.yul\":11916:11937   */\n      tag_365\n      jump\t// in\n    tag_548:\n        /* \"#utility.yul\":11911:11914   */\n      dup3\n        /* \"#utility.yul\":11904:11938   */\n      mstore\n        /* \"#utility.yul\":11845:11944   */\n      pop\n      pop\n      jump\t// out\n        /* \"#utility.yul\":12032:13751   */\n    tag_370:\n        /* \"#utility.yul\":12155:12158   */\n      0x00\n        /* \"#utility.yul\":12191:12195   */\n      0xe0\n        /* \"#utility.yul\":12186:12189   */\n      dup4\n        /* \"#utility.yul\":12182:12196   */\n      add\n        /* \"#utility.yul\":12262:12312   */\n      tag_550\n        /* \"#utility.yul\":12306:12310   */\n      0x00\n        /* \"#utility.yul\":12299:12304   */\n      dup5\n        /* \"#utility.yul\":12295:12311   */\n      add\n        /* \"#utility.yul\":12288:12293   */\n      dup5\n        /* \"#utility.yul\":12262:12312   */\n      tag_353\n      jump\t// in\n    tag_550:\n        /* \"#utility.yul\":12325:12388   */\n      tag_551\n        /* \"#utility.yul\":12382:12386   */\n      0x00\n        /* \"#utility.yul\":12377:12380   */\n      dup7\n        /* \"#utility.yul\":12373:12387   */\n      add\n        /* \"#utility.yul\":12359:12371   */\n      dup3\n        /* \"#utility.yul\":12325:12388   */\n      tag_354\n      jump\t// in\n    tag_551:\n        /* \"#utility.yul\":12206:12398   */\n      pop\n        /* \"#utility.yul\":12470:12520   */\n      tag_552\n        /* \"#utility.yul\":12514:12518   */\n      0x20\n        /* \"#utility.yul\":12507:12512   */\n      dup5\n        /* \"#utility.yul\":12503:12519   */\n      add\n        /* \"#utility.yul\":12496:12501   */\n      dup5\n        /* \"#utility.yul\":12470:12520   */\n      tag_355\n      jump\t// in\n    tag_552:\n        /* \"#utility.yul\":12533:12596   */\n      tag_553\n        /* \"#utility.yul\":12590:12594   */\n      0x20\n        /* \"#utility.yul\":12585:12588   */\n      dup7\n        /* \"#utility.yul\":12581:12595   */\n      add\n        /* \"#utility.yul\":12567:12579   */\n      dup3\n        /* \"#utility.yul\":12533:12596   */\n      tag_356\n      jump\t// in\n    tag_553:\n        /* \"#utility.yul\":12408:12606   */\n      pop\n        /* \"#utility.yul\":12676:12726   */\n      tag_554\n        /* \"#utility.yul\":12720:12724   */\n      0x40\n        /* \"#utility.yul\":12713:12718   */\n      dup5\n        /* \"#utility.yul\":12709:12725   */\n      add\n        /* \"#utility.yul\":12702:12707   */\n      dup5\n        /* \"#utility.yul\":12676:12726   */\n      tag_355\n      jump\t// in\n    tag_554:\n        /* \"#utility.yul\":12739:12802   */\n      tag_555\n        /* \"#utility.yul\":12796:12800   */\n      0x40\n        /* \"#utility.yul\":12791:12794   */\n      dup7\n        /* \"#utility.yul\":12787:12801   */\n      add\n        /* \"#utility.yul\":12773:12785   */\n      dup3\n        /* \"#utility.yul\":12739:12802   */\n      tag_356\n      jump\t// in\n    tag_555:\n        /* \"#utility.yul\":12616:12812   */\n      pop\n        /* \"#utility.yul\":12880:12930   */\n      tag_556\n        /* \"#utility.yul\":12924:12928   */\n      0x60\n        /* \"#utility.yul\":12917:12922   */\n      dup5\n        /* \"#utility.yul\":12913:12929   */\n      add\n        /* \"#utility.yul\":12906:12911   */\n      dup5\n        /* \"#utility.yul\":12880:12930   */\n      tag_353\n      jump\t// in\n    tag_556:\n        /* \"#utility.yul\":12943:13006   */\n      tag_557\n        /* \"#utility.yul\":13000:13004   */\n      0x60\n        /* \"#utility.yul\":12995:12998   */\n      dup7\n        /* \"#utility.yul\":12991:13005   */\n      add\n        /* \"#utility.yul\":12977:12989   */\n      dup3\n        /* \"#utility.yul\":12943:13006   */\n      tag_354\n      jump\t// in\n    tag_557:\n        /* \"#utility.yul\":12822:13016   */\n      pop\n        /* \"#utility.yul\":13095:13156   */\n      tag_558\n        /* \"#utility.yul\":13150:13154   */\n      0x80\n        /* \"#utility.yul\":13143:13148   */\n      dup5\n        /* \"#utility.yul\":13139:13155   */\n      add\n        /* \"#utility.yul\":13132:13137   */\n      dup5\n        /* \"#utility.yul\":13095:13156   */\n      tag_360\n      jump\t// in\n    tag_558:\n        /* \"#utility.yul\":13203:13206   */\n      dup6\n        /* \"#utility.yul\":13197:13201   */\n      dup4\n        /* \"#utility.yul\":13193:13207   */\n      sub\n        /* \"#utility.yul\":13186:13190   */\n      0x80\n        /* \"#utility.yul\":13181:13184   */\n      dup8\n        /* \"#utility.yul\":13177:13191   */\n      add\n        /* \"#utility.yul\":13170:13208   */\n      mstore\n        /* \"#utility.yul\":13229:13316   */\n      tag_559\n        /* \"#utility.yul\":13311:13315   */\n      dup4\n        /* \"#utility.yul\":13297:13309   */\n      dup3\n        /* \"#utility.yul\":13283:13295   */\n      dup5\n        /* \"#utility.yul\":13229:13316   */\n      tag_364\n      jump\t// in\n    tag_559:\n        /* \"#utility.yul\":13221:13316   */\n      swap3\n      pop\n        /* \"#utility.yul\":13026:13327   */\n      pop\n      pop\n        /* \"#utility.yul\":13394:13444   */\n      tag_560\n        /* \"#utility.yul\":13438:13442   */\n      0xa0\n        /* \"#utility.yul\":13431:13436   */\n      dup5\n        /* \"#utility.yul\":13427:13443   */\n      add\n        /* \"#utility.yul\":13420:13425   */\n      dup5\n        /* \"#utility.yul\":13394:13444   */\n      tag_353\n      jump\t// in\n    tag_560:\n        /* \"#utility.yul\":13457:13520   */\n      tag_561\n        /* \"#utility.yul\":13514:13518   */\n      0xa0\n        /* \"#utility.yul\":13509:13512   */\n      dup7\n        /* \"#utility.yul\":13505:13519   */\n      add\n        /* \"#utility.yul\":13491:13503   */\n      dup3\n        /* \"#utility.yul\":13457:13520   */\n      tag_354\n      jump\t// in\n    tag_561:\n        /* \"#utility.yul\":13337:13530   */\n      pop\n        /* \"#utility.yul\":13597:13644   */\n      tag_562\n        /* \"#utility.yul\":13638:13642   */\n      0xc0\n        /* \"#utility.yul\":13631:13636   */\n      dup5\n        /* \"#utility.yul\":13627:13643   */\n      add\n        /* \"#utility.yul\":13620:13625   */\n      dup5\n        /* \"#utility.yul\":13597:13644   */\n      tag_368\n      jump\t// in\n    tag_562:\n        /* \"#utility.yul\":13657:13714   */\n      tag_563\n        /* \"#utility.yul\":13708:13712   */\n      0xc0\n        /* \"#utility.yul\":13703:13706   */\n      dup7\n        /* \"#utility.yul\":13699:13713   */\n      add\n        /* \"#utility.yul\":13685:13697   */\n      dup3\n        /* \"#utility.yul\":13657:13714   */\n      tag_369\n      jump\t// in\n    tag_563:\n        /* \"#utility.yul\":13540:13724   */\n      pop\n        /* \"#utility.yul\":13741:13745   */\n      dup1\n        /* \"#utility.yul\":13734:13745   */\n      swap2\n      pop\n        /* \"#utility.yul\":12160:13751   */\n      pop\n        /* \"#utility.yul\":12032:13751   */\n      swap3\n      swap2\n      pop\n      pop\n      jump\t// out\n        /* \"#utility.yul\":13757:14138   */\n    tag_101:\n        /* \"#utility.yul\":13904:13908   */\n      0x00\n        /* \"#utility.yul\":13942:13944   */\n      0x20\n        /* \"#utility.yul\":13931:13940   */\n      dup3\n        /* \"#utility.yul\":13927:13945   */\n      add\n        /* \"#utility.yul\":13919:13945   */\n      swap1\n      pop\n        /* \"#utility.yul\":13991:14000   */\n      dup2\n        /* \"#utility.yul\":13985:13989   */\n      dup2\n        /* \"#utility.yul\":13981:14001   */\n      sub\n        /* \"#utility.yul\":13977:13978   */\n      0x00\n        /* \"#utility.yul\":13966:13975   */\n      dup4\n        /* \"#utility.yul\":13962:13979   */\n      add\n        /* \"#utility.yul\":13955:14002   */\n      mstore\n        /* \"#utility.yul\":14019:14131   */\n      tag_565\n        /* \"#utility.yul\":14126:14130   */\n      dup2\n        /* \"#utility.yul\":14117:14123   */\n      dup5\n        /* \"#utility.yul\":14019:14131   */\n      tag_370\n      jump\t// in\n    tag_565:\n        /* \"#utility.yul\":14011:14131   */\n      swap1\n      pop\n        /* \"#utility.yul\":13757:14138   */\n      swap3\n      swap2\n      pop\n      pop\n      jump\t// out\n        /* \"#utility.yul\":14144:14319   */\n    tag_371:\n        /* \"#utility.yul\":14284:14311   */\n      0x696e73756666696369656e7420696e70757420616d6f756e7400000000000000\n        /* \"#utility.yul\":14280:14281   */\n      0x00\n        /* \"#utility.yul\":14272:14278   */\n      dup3\n        /* \"#utility.yul\":14268:14282   */\n      add\n        /* \"#utility.yul\":14261:14312   */\n      mstore\n        /* \"#utility.yul\":14144:14319   */\n      pop\n      jump\t// out\n        /* \"#utility.yul\":14325:14691   */\n    tag_372:\n        /* \"#utility.yul\":14467:14470   */\n      0x00\n        /* \"#utility.yul\":14488:14555   */\n      tag_568\n        /* \"#utility.yul\":14552:14554   */\n      0x19\n        /* \"#utility.yul\":14547:14550   */\n      dup4\n        /* \"#utility.yul\":14488:14555   */\n      tag_350\n      jump\t// in\n    tag_568:\n        /* \"#utility.yul\":14481:14555   */\n      swap2\n      pop\n        /* \"#utility.yul\":14564:14657   */\n      tag_569\n        /* \"#utility.yul\":14653:14656   */\n      dup3\n        /* \"#utility.yul\":14564:14657   */\n      tag_371\n      jump\t// in\n    tag_569:\n        /* \"#utility.yul\":14682:14684   */\n      0x20\n        /* \"#utility.yul\":14677:14680   */\n      dup3\n        /* \"#utility.yul\":14673:14685   */\n      add\n        /* \"#utility.yul\":14666:14685   */\n      swap1\n      pop\n        /* \"#utility.yul\":14325:14691   */\n      swap2\n      swap1\n      pop\n      jump\t// out\n        /* \"#utility.yul\":14697:15116   */\n    tag_105:\n        /* \"#utility.yul\":14863:14867   */\n      0x00\n        /* \"#utility.yul\":14901:14903   */\n      0x20\n        /* \"#utility.yul\":14890:14899   */\n      dup3\n        /* \"#utility.yul\":14886:14904   */\n      add\n        /* \"#utility.yul\":14878:14904   */\n      swap1\n      pop\n        /* \"#utility.yul\":14950:14959   */\n      dup2\n        /* \"#utility.yul\":14944:14948   */\n      dup2\n        /* \"#utility.yul\":14940:14960   */\n      sub\n        /* \"#utility.yul\":14936:14937   */\n      0x00\n        /* \"#utility.yul\":14925:14934   */\n      dup4\n        /* \"#utility.yul\":14921:14938   */\n      add\n        /* \"#utility.yul\":14914:14961   */\n      mstore\n        /* \"#utility.yul\":14978:15109   */\n      tag_571\n        /* \"#utility.yul\":15104:15108   */\n      dup2\n        /* \"#utility.yul\":14978:15109   */\n      tag_372\n      jump\t// in\n    tag_571:\n        /* \"#utility.yul\":14970:15109   */\n      swap1\n      pop\n        /* \"#utility.yul\":14697:15116   */\n      swap2\n      swap1\n      pop\n      jump\t// out\n        /* \"#utility.yul\":15122:15302   */\n    tag_373:\n        /* \"#utility.yul\":15170:15247   */\n      0x4e487b7100000000000000000000000000000000000000000000000000000000\n        /* \"#utility.yul\":15167:15168   */\n      0x00\n        /* \"#utility.yul\":15160:15248   */\n      mstore\n        /* \"#utility.yul\":15267:15271   */\n      0x11\n        /* \"#utility.yul\":15264:15265   */\n      0x04\n        /* \"#utility.yul\":15257:15272   */\n      mstore\n        /* \"#utility.yul\":15291:15295   */\n      0x24\n        /* \"#utility.yul\":15288:15289   */\n      0x00\n        /* \"#utility.yul\":15281:15296   */\n      revert\n        /* \"#utility.yul\":15308:15502   */\n    tag_107:\n        /* \"#utility.yul\":15348:15352   */\n      0x00\n        /* \"#utility.yul\":15368:15388   */\n      tag_574\n        /* \"#utility.yul\":15386:15387   */\n      dup3\n        /* \"#utility.yul\":15368:15388   */\n      tag_333\n      jump\t// in\n    tag_574:\n        /* \"#utility.yul\":15363:15388   */\n      swap2\n      pop\n        /* \"#utility.yul\":15402:15422   */\n      tag_575\n        /* \"#utility.yul\":15420:15421   */\n      dup4\n        /* \"#utility.yul\":15402:15422   */\n      tag_333\n      jump\t// in\n    tag_575:\n        /* \"#utility.yul\":15397:15422   */\n      swap3\n      pop\n        /* \"#utility.yul\":15446:15447   */\n      dup3\n        /* \"#utility.yul\":15443:15444   */\n      dup3\n        /* \"#utility.yul\":15439:15448   */\n      sub\n        /* \"#utility.yul\":15431:15448   */\n      swap1\n      pop\n        /* \"#utility.yul\":15470:15471   */\n      dup2\n        /* \"#utility.yul\":15464:15468   */\n      dup2\n        /* \"#utility.yul\":15461:15472   */\n      gt\n        /* \"#utility.yul\":15458:15495   */\n      iszero\n      tag_576\n      jumpi\n        /* \"#utility.yul\":15475:15493   */\n      tag_577\n      tag_373\n      jump\t// in\n    tag_577:\n        /* \"#utility.yul\":15458:15495   */\n    tag_576:\n        /* \"#utility.yul\":15308:15502   */\n      swap3\n      swap2\n      pop\n      pop\n      jump\t// out\n        /* \"#utility.yul\":15508:15625   */\n    tag_374:\n        /* \"#utility.yul\":15617:15618   */\n      0x00\n        /* \"#utility.yul\":15614:15615   */\n      dup1\n        /* \"#utility.yul\":15607:15619   */\n      revert\n        /* \"#utility.yul\":15631:15748   */\n    tag_375:\n        /* \"#utility.yul\":15740:15741   */\n      0x00\n        /* \"#utility.yul\":15737:15738   */\n      dup1\n        /* \"#utility.yul\":15730:15742   */\n      revert\n        /* \"#utility.yul\":15754:15871   */\n    tag_376:\n        /* \"#utility.yul\":15863:15864   */\n      0x00\n        /* \"#utility.yul\":15860:15861   */\n      dup1\n        /* \"#utility.yul\":15853:15865   */\n      revert\n        /* \"#utility.yul\":15877:16601   */\n    tag_111:\n        /* \"#utility.yul\":15954:15958   */\n      0x00\n        /* \"#utility.yul\":15960:15966   */\n      dup1\n        /* \"#utility.yul\":16016:16027   */\n      dup4\n        /* \"#utility.yul\":16003:16028   */\n      calldataload\n        /* \"#utility.yul\":16116:16117   */\n      0x01\n        /* \"#utility.yul\":16110:16114   */\n      0x20\n        /* \"#utility.yul\":16106:16118   */\n      sub\n        /* \"#utility.yul\":16095:16103   */\n      dup5\n        /* \"#utility.yul\":16079:16093   */\n      calldatasize\n        /* \"#utility.yul\":16075:16104   */\n      sub\n        /* \"#utility.yul\":16071:16119   */\n      sub\n        /* \"#utility.yul\":16051:16069   */\n      dup2\n        /* \"#utility.yul\":16047:16120   */\n      slt\n        /* \"#utility.yul\":16037:16205   */\n      tag_582\n      jumpi\n        /* \"#utility.yul\":16124:16203   */\n      tag_583\n      tag_374\n      jump\t// in\n    tag_583:\n        /* \"#utility.yul\":16037:16205   */\n    tag_582:\n        /* \"#utility.yul\":16236:16254   */\n      dup1\n        /* \"#utility.yul\":16226:16234   */\n      dup5\n        /* \"#utility.yul\":16222:16255   */\n      add\n        /* \"#utility.yul\":16214:16255   */\n      swap3\n      pop\n        /* \"#utility.yul\":16288:16292   */\n      dup3\n        /* \"#utility.yul\":16275:16293   */\n      calldataload\n        /* \"#utility.yul\":16265:16293   */\n      swap2\n      pop\n        /* \"#utility.yul\":16316:16334   */\n      0xffffffffffffffff\n        /* \"#utility.yul\":16308:16314   */\n      dup3\n        /* \"#utility.yul\":16305:16335   */\n      gt\n        /* \"#utility.yul\":16302:16419   */\n      iszero\n      tag_584\n      jumpi\n        /* \"#utility.yul\":16338:16417   */\n      tag_585\n      tag_375\n      jump\t// in\n    tag_585:\n        /* \"#utility.yul\":16302:16419   */\n    tag_584:\n        /* \"#utility.yul\":16446:16448   */\n      0x20\n        /* \"#utility.yul\":16440:16444   */\n      dup4\n        /* \"#utility.yul\":16436:16449   */\n      add\n        /* \"#utility.yul\":16428:16449   */\n      swap3\n      pop\n        /* \"#utility.yul\":16503:16507   */\n      0x01\n        /* \"#utility.yul\":16495:16501   */\n      dup3\n        /* \"#utility.yul\":16491:16508   */\n      mul\n        /* \"#utility.yul\":16475:16489   */\n      calldatasize\n        /* \"#utility.yul\":16471:16509   */\n      sub\n        /* \"#utility.yul\":16465:16469   */\n      dup4\n        /* \"#utility.yul\":16461:16510   */\n      sgt\n        /* \"#utility.yul\":16458:16594   */\n      iszero\n      tag_586\n      jumpi\n        /* \"#utility.yul\":16513:16592   */\n      tag_587\n      tag_376\n      jump\t// in\n    tag_587:\n        /* \"#utility.yul\":16458:16594   */\n    tag_586:\n        /* \"#utility.yul\":15967:16601   */\n      pop\n        /* \"#utility.yul\":15877:16601   */\n      swap3\n      pop\n      swap3\n      swap1\n      pop\n      jump\t// out\n        /* \"#utility.yul\":16607:16719   */\n    tag_377:\n        /* \"#utility.yul\":16690:16712   */\n      tag_589\n        /* \"#utility.yul\":16706:16711   */\n      dup2\n        /* \"#utility.yul\":16690:16712   */\n      tag_344\n      jump\t// in\n    tag_589:\n        /* \"#utility.yul\":16685:16688   */\n      dup3\n        /* \"#utility.yul\":16678:16713   */\n      mstore\n        /* \"#utility.yul\":16607:16719   */\n      pop\n      pop\n      jump\t// out\n        /* \"#utility.yul\":16725:17381   */\n    tag_120:\n        /* \"#utility.yul\":16926:16930   */\n      0x00\n        /* \"#utility.yul\":16964:16967   */\n      0xa0\n        /* \"#utility.yul\":16953:16962   */\n      dup3\n        /* \"#utility.yul\":16949:16968   */\n      add\n        /* \"#utility.yul\":16941:16968   */\n      swap1\n      pop\n        /* \"#utility.yul\":16978:17049   */\n      tag_591\n        /* \"#utility.yul\":17046:17047   */\n      0x00\n        /* \"#utility.yul\":17035:17044   */\n      dup4\n        /* \"#utility.yul\":17031:17048   */\n      add\n        /* \"#utility.yul\":17022:17028   */\n      dup9\n        /* \"#utility.yul\":16978:17049   */\n      tag_343\n      jump\t// in\n    tag_591:\n        /* \"#utility.yul\":17059:17131   */\n      tag_592\n        /* \"#utility.yul\":17127:17129   */\n      0x20\n        /* \"#utility.yul\":17116:17125   */\n      dup4\n        /* \"#utility.yul\":17112:17130   */\n      add\n        /* \"#utility.yul\":17103:17109   */\n      dup8\n        /* \"#utility.yul\":17059:17131   */\n      tag_343\n      jump\t// in\n    tag_592:\n        /* \"#utility.yul\":17141:17213   */\n      tag_593\n        /* \"#utility.yul\":17209:17211   */\n      0x40\n        /* \"#utility.yul\":17198:17207   */\n      dup4\n        /* \"#utility.yul\":17194:17212   */\n      add\n        /* \"#utility.yul\":17185:17191   */\n      dup7\n        /* \"#utility.yul\":17141:17213   */\n      tag_343\n      jump\t// in\n    tag_593:\n        /* \"#utility.yul\":17223:17295   */\n      tag_594\n        /* \"#utility.yul\":17291:17293   */\n      0x60\n        /* \"#utility.yul\":17280:17289   */\n      dup4\n        /* \"#utility.yul\":17276:17294   */\n      add\n        /* \"#utility.yul\":17267:17273   */\n      dup6\n        /* \"#utility.yul\":17223:17295   */\n      tag_336\n      jump\t// in\n    tag_594:\n        /* \"#utility.yul\":17305:17374   */\n      tag_595\n        /* \"#utility.yul\":17369:17372   */\n      0x80\n        /* \"#utility.yul\":17358:17367   */\n      dup4\n        /* \"#utility.yul\":17354:17373   */\n      add\n        /* \"#utility.yul\":17345:17351   */\n      dup5\n        /* \"#utility.yul\":17305:17374   */\n      tag_377\n      jump\t// in\n    tag_595:\n        /* \"#utility.yul\":16725:17381   */\n      swap7\n      swap6\n      pop\n      pop\n      pop\n      pop\n      pop\n      pop\n      jump\t// out\n        /* \"#utility.yul\":17387:17507   */\n    tag_378:\n        /* \"#utility.yul\":17459:17482   */\n      tag_597\n        /* \"#utility.yul\":17476:17481   */\n      dup2\n        /* \"#utility.yul\":17459:17482   */\n      tag_347\n      jump\t// in\n    tag_597:\n        /* \"#utility.yul\":17452:17457   */\n      dup2\n        /* \"#utility.yul\":17449:17483   */\n      eq\n        /* \"#utility.yul\":17439:17501   */\n      tag_598\n      jumpi\n        /* \"#utility.yul\":17497:17498   */\n      0x00\n        /* \"#utility.yul\":17494:17495   */\n      dup1\n        /* \"#utility.yul\":17487:17499   */\n      revert\n        /* \"#utility.yul\":17439:17501   */\n    tag_598:\n        /* \"#utility.yul\":17387:17507   */\n      pop\n      jump\t// out\n        /* \"#utility.yul\":17513:17654   */\n    tag_379:\n        /* \"#utility.yul\":17569:17574   */\n      0x00\n        /* \"#utility.yul\":17600:17606   */\n      dup2\n        /* \"#utility.yul\":17594:17607   */\n      mload\n        /* \"#utility.yul\":17585:17607   */\n      swap1\n      pop\n        /* \"#utility.yul\":17616:17648   */\n      tag_600\n        /* \"#utility.yul\":17642:17647   */\n      dup2\n        /* \"#utility.yul\":17616:17648   */\n      tag_378\n      jump\t// in\n    tag_600:\n        /* \"#utility.yul\":17513:17654   */\n      swap3\n      swap2\n      pop\n      pop\n      jump\t// out\n        /* \"#utility.yul\":17660:18165   */\n    tag_124:\n        /* \"#utility.yul\":17738:17744   */\n      0x00\n        /* \"#utility.yul\":17746:17752   */\n      dup1\n        /* \"#utility.yul\":17795:17797   */\n      0x40\n        /* \"#utility.yul\":17783:17792   */\n      dup4\n        /* \"#utility.yul\":17774:17781   */\n      dup6\n        /* \"#utility.yul\":17770:17793   */\n      sub\n        /* \"#utility.yul\":17766:17798   */\n      slt\n        /* \"#utility.yul\":17763:17882   */\n      iszero\n      tag_602\n      jumpi\n        /* \"#utility.yul\":17801:17880   */\n      tag_603\n      tag_327\n      jump\t// in\n    tag_603:\n        /* \"#utility.yul\":17763:17882   */\n    tag_602:\n        /* \"#utility.yul\":17921:17922   */\n      0x00\n        /* \"#utility.yul\":17946:18010   */\n      tag_604\n        /* \"#utility.yul\":18002:18009   */\n      dup6\n        /* \"#utility.yul\":17993:17999   */\n      dup3\n        /* \"#utility.yul\":17982:17991   */\n      dup7\n        /* \"#utility.yul\":17978:18000   */\n      add\n        /* \"#utility.yul\":17946:18010   */\n      tag_349\n      jump\t// in\n    tag_604:\n        /* \"#utility.yul\":17936:18010   */\n      swap3\n      pop\n        /* \"#utility.yul\":17892:18020   */\n      pop\n        /* \"#utility.yul\":18059:18061   */\n      0x20\n        /* \"#utility.yul\":18085:18148   */\n      tag_605\n        /* \"#utility.yul\":18140:18147   */\n      dup6\n        /* \"#utility.yul\":18131:18137   */\n      dup3\n        /* \"#utility.yul\":18120:18129   */\n      dup7\n        /* \"#utility.yul\":18116:18138   */\n      add\n        /* \"#utility.yul\":18085:18148   */\n      tag_379\n      jump\t// in\n    tag_605:\n        /* \"#utility.yul\":18075:18148   */\n      swap2\n      pop\n        /* \"#utility.yul\":18030:18158   */\n      pop\n        /* \"#utility.yul\":17660:18165   */\n      swap3\n      pop\n      swap3\n      swap1\n      pop\n      jump\t// out\n        /* \"#utility.yul\":18171:18494   */\n    tag_134:\n        /* \"#utility.yul\":18227:18233   */\n      0x00\n        /* \"#utility.yul\":18276:18278   */\n      0x20\n        /* \"#utility.yul\":18264:18273   */\n      dup3\n        /* \"#utility.yul\":18255:18262   */\n      dup5\n        /* \"#utility.yul\":18251:18274   */\n      sub\n        /* \"#utility.yul\":18247:18279   */\n      slt\n        /* \"#utility.yul\":18244:18363   */\n      iszero\n      tag_607\n      jumpi\n        /* \"#utility.yul\":18282:18361   */\n      tag_608\n      tag_327\n      jump\t// in\n    tag_608:\n        /* \"#utility.yul\":18244:18363   */\n    tag_607:\n        /* \"#utility.yul\":18402:18403   */\n      0x00\n        /* \"#utility.yul\":18427:18477   */\n      tag_609\n        /* \"#utility.yul\":18469:18476   */\n      dup5\n        /* \"#utility.yul\":18460:18466   */\n      dup3\n        /* \"#utility.yul\":18449:18458   */\n      dup6\n        /* \"#utility.yul\":18445:18467   */\n      add\n        /* \"#utility.yul\":18427:18477   */\n      tag_367\n      jump\t// in\n    tag_609:\n        /* \"#utility.yul\":18417:18477   */\n      swap2\n      pop\n        /* \"#utility.yul\":18373:18487   */\n      pop\n        /* \"#utility.yul\":18171:18494   */\n      swap3\n      swap2\n      pop\n      pop\n      jump\t// out\n        /* \"#utility.yul\":18500:18725   */\n    tag_380:\n        /* \"#utility.yul\":18640:18674   */\n      0x4f776e61626c653a206e6577206f776e657220697320746865207a65726f2061\n        /* \"#utility.yul\":18636:18637   */\n      0x00\n        /* \"#utility.yul\":18628:18634   */\n      dup3\n        /* \"#utility.yul\":18624:18638   */\n      add\n        /* \"#utility.yul\":18617:18675   */\n      mstore\n        /* \"#utility.yul\":18709:18717   */\n      0x6464726573730000000000000000000000000000000000000000000000000000\n        /* \"#utility.yul\":18704:18706   */\n      0x20\n        /* \"#utility.yul\":18696:18702   */\n      dup3\n        /* \"#utility.yul\":18692:18707   */\n      add\n        /* \"#utility.yul\":18685:18718   */\n      mstore\n        /* \"#utility.yul\":18500:18725   */\n      pop\n      jump\t// out\n        /* \"#utility.yul\":18731:19097   */\n    tag_381:\n        /* \"#utility.yul\":18873:18876   */\n      0x00\n        /* \"#utility.yul\":18894:18961   */\n      tag_612\n        /* \"#utility.yul\":18958:18960   */\n      0x26\n        /* \"#utility.yul\":18953:18956   */\n      dup4\n        /* \"#utility.yul\":18894:18961   */\n      tag_350\n      jump\t// in\n    tag_612:\n        /* \"#utility.yul\":18887:18961   */\n      swap2\n      pop\n        /* \"#utility.yul\":18970:19063   */\n      tag_613\n        /* \"#utility.yul\":19059:19062   */\n      dup3\n        /* \"#utility.yul\":18970:19063   */\n      tag_380\n      jump\t// in\n    tag_613:\n        /* \"#utility.yul\":19088:19090   */\n      0x40\n        /* \"#utility.yul\":19083:19086   */\n      dup3\n        /* \"#utility.yul\":19079:19091   */\n      add\n        /* \"#utility.yul\":19072:19091   */\n      swap1\n      pop\n        /* \"#utility.yul\":18731:19097   */\n      swap2\n      swap1\n      pop\n      jump\t// out\n        /* \"#utility.yul\":19103:19522   */\n    tag_185:\n        /* \"#utility.yul\":19269:19273   */\n      0x00\n        /* \"#utility.yul\":19307:19309   */\n      0x20\n        /* \"#utility.yul\":19296:19305   */\n      dup3\n        /* \"#utility.yul\":19292:19310   */\n      add\n        /* \"#utility.yul\":19284:19310   */\n      swap1\n      pop\n        /* \"#utility.yul\":19356:19365   */\n      dup2\n        /* \"#utility.yul\":19350:19354   */\n      dup2\n        /* \"#utility.yul\":19346:19366   */\n      sub\n        /* \"#utility.yul\":19342:19343   */\n      0x00\n        /* \"#utility.yul\":19331:19340   */\n      dup4\n        /* \"#utility.yul\":19327:19344   */\n      add\n        /* \"#utility.yul\":19320:19367   */\n      mstore\n        /* \"#utility.yul\":19384:19515   */\n      tag_615\n        /* \"#utility.yul\":19510:19514   */\n      dup2\n        /* \"#utility.yul\":19384:19515   */\n      tag_381\n      jump\t// in\n    tag_615:\n        /* \"#utility.yul\":19376:19515   */\n      swap1\n      pop\n        /* \"#utility.yul\":19103:19522   */\n      swap2\n      swap1\n      pop\n      jump\t// out\n        /* \"#utility.yul\":19528:19710   */\n    tag_382:\n        /* \"#utility.yul\":19668:19702   */\n      0x4f776e61626c653a2063616c6c6572206973206e6f7420746865206f776e6572\n        /* \"#utility.yul\":19664:19665   */\n      0x00\n        /* \"#utility.yul\":19656:19662   */\n      dup3\n        /* \"#utility.yul\":19652:19666   */\n      add\n        /* \"#utility.yul\":19645:19703   */\n      mstore\n        /* \"#utility.yul\":19528:19710   */\n      pop\n      jump\t// out\n        /* \"#utility.yul\":19716:20082   */\n    tag_383:\n        /* \"#utility.yul\":19858:19861   */\n      0x00\n        /* \"#utility.yul\":19879:19946   */\n      tag_618\n        /* \"#utility.yul\":19943:19945   */\n      0x20\n        /* \"#utility.yul\":19938:19941   */\n      dup4\n        /* \"#utility.yul\":19879:19946   */\n      tag_350\n      jump\t// in\n    tag_618:\n        /* \"#utility.yul\":19872:19946   */\n      swap2\n      pop\n        /* \"#utility.yul\":19955:20048   */\n      tag_619\n        /* \"#utility.yul\":20044:20047   */\n      dup3\n        /* \"#utility.yul\":19955:20048   */\n      tag_382\n      jump\t// in\n    tag_619:\n        /* \"#utility.yul\":20073:20075   */\n      0x20\n        /* \"#utility.yul\":20068:20071   */\n      dup3\n        /* \"#utility.yul\":20064:20076   */\n      add\n        /* \"#utility.yul\":20057:20076   */\n      swap1\n      pop\n        /* \"#utility.yul\":19716:20082   */\n      swap2\n      swap1\n      pop\n      jump\t// out\n        /* \"#utility.yul\":20088:20507   */\n    tag_193:\n        /* \"#utility.yul\":20254:20258   */\n      0x00\n        /* \"#utility.yul\":20292:20294   */\n      0x20\n        /* \"#utility.yul\":20281:20290   */\n      dup3\n        /* \"#utility.yul\":20277:20295   */\n      add\n        /* \"#utility.yul\":20269:20295   */\n      swap1\n      pop\n        /* \"#utility.yul\":20341:20350   */\n      dup2\n        /* \"#utility.yul\":20335:20339   */\n      dup2\n        /* \"#utility.yul\":20331:20351   */\n      sub\n        /* \"#utility.yul\":20327:20328   */\n      0x00\n        /* \"#utility.yul\":20316:20325   */\n      dup4\n        /* \"#utility.yul\":20312:20329   */\n      add\n        /* \"#utility.yul\":20305:20352   */\n      mstore\n        /* \"#utility.yul\":20369:20500   */\n      tag_621\n        /* \"#utility.yul\":20495:20499   */\n      dup2\n        /* \"#utility.yul\":20369:20500   */\n      tag_383\n      jump\t// in\n    tag_621:\n        /* \"#utility.yul\":20361:20500   */\n      swap1\n      pop\n        /* \"#utility.yul\":20088:20507   */\n      swap2\n      swap1\n      pop\n      jump\t// out\n        /* \"#utility.yul\":20513:20845   */\n    tag_196:\n        /* \"#utility.yul\":20634:20638   */\n      0x00\n        /* \"#utility.yul\":20672:20674   */\n      0x40\n        /* \"#utility.yul\":20661:20670   */\n      dup3\n        /* \"#utility.yul\":20657:20675   */\n      add\n        /* \"#utility.yul\":20649:20675   */\n      swap1\n      pop\n        /* \"#utility.yul\":20685:20756   */\n      tag_623\n        /* \"#utility.yul\":20753:20754   */\n      0x00\n        /* \"#utility.yul\":20742:20751   */\n      dup4\n        /* \"#utility.yul\":20738:20755   */\n      add\n        /* \"#utility.yul\":20729:20735   */\n      dup6\n        /* \"#utility.yul\":20685:20756   */\n      tag_343\n      jump\t// in\n    tag_623:\n        /* \"#utility.yul\":20766:20838   */\n      tag_624\n        /* \"#utility.yul\":20834:20836   */\n      0x20\n        /* \"#utility.yul\":20823:20832   */\n      dup4\n        /* \"#utility.yul\":20819:20837   */\n      add\n        /* \"#utility.yul\":20810:20816   */\n      dup5\n        /* \"#utility.yul\":20766:20838   */\n      tag_336\n      jump\t// in\n    tag_624:\n        /* \"#utility.yul\":20513:20845   */\n      swap4\n      swap3\n      pop\n      pop\n      pop\n      jump\t// out\n        /* \"#utility.yul\":20851:20949   */\n    tag_384:\n        /* \"#utility.yul\":20902:20908   */\n      0x00\n        /* \"#utility.yul\":20936:20941   */\n      dup2\n        /* \"#utility.yul\":20930:20942   */\n      mload\n        /* \"#utility.yul\":20920:20942   */\n      swap1\n      pop\n        /* \"#utility.yul\":20851:20949   */\n      swap2\n      swap1\n      pop\n      jump\t// out\n        /* \"#utility.yul\":20955:21102   */\n    tag_385:\n        /* \"#utility.yul\":21056:21067   */\n      0x00\n        /* \"#utility.yul\":21093:21096   */\n      dup2\n        /* \"#utility.yul\":21078:21096   */\n      swap1\n      pop\n        /* \"#utility.yul\":20955:21102   */\n      swap3\n      swap2\n      pop\n      pop\n      jump\t// out\n        /* \"#utility.yul\":21108:21354   */\n    tag_386:\n        /* \"#utility.yul\":21189:21190   */\n      0x00\n        /* \"#utility.yul\":21199:21312   */\n    tag_628:\n        /* \"#utility.yul\":21213:21219   */\n      dup4\n        /* \"#utility.yul\":21210:21211   */\n      dup2\n        /* \"#utility.yul\":21207:21220   */\n      lt\n        /* \"#utility.yul\":21199:21312   */\n      iszero\n      tag_630\n      jumpi\n        /* \"#utility.yul\":21298:21299   */\n      dup1\n        /* \"#utility.yul\":21293:21296   */\n      dup3\n        /* \"#utility.yul\":21289:21300   */\n      add\n        /* \"#utility.yul\":21283:21301   */\n      mload\n        /* \"#utility.yul\":21279:21280   */\n      dup2\n        /* \"#utility.yul\":21274:21277   */\n      dup5\n        /* \"#utility.yul\":21270:21281   */\n      add\n        /* \"#utility.yul\":21263:21302   */\n      mstore\n        /* \"#utility.yul\":21235:21237   */\n      0x20\n        /* \"#utility.yul\":21232:21233   */\n      dup2\n        /* \"#utility.yul\":21228:21238   */\n      add\n        /* \"#utility.yul\":21223:21238   */\n      swap1\n      pop\n        /* \"#utility.yul\":21199:21312   */\n      jump(tag_628)\n    tag_630:\n        /* \"#utility.yul\":21346:21347   */\n      0x00\n        /* \"#utility.yul\":21337:21343   */\n      dup5\n        /* \"#utility.yul\":21332:21335   */\n      dup5\n        /* \"#utility.yul\":21328:21344   */\n      add\n        /* \"#utility.yul\":21321:21348   */\n      mstore\n        /* \"#utility.yul\":21170:21354   */\n      pop\n        /* \"#utility.yul\":21108:21354   */\n      pop\n      pop\n      pop\n      jump\t// out\n        /* \"#utility.yul\":21360:21746   */\n    tag_387:\n        /* \"#utility.yul\":21464:21467   */\n      0x00\n        /* \"#utility.yul\":21492:21530   */\n      tag_632\n        /* \"#utility.yul\":21524:21529   */\n      dup3\n        /* \"#utility.yul\":21492:21530   */\n      tag_384\n      jump\t// in\n    tag_632:\n        /* \"#utility.yul\":21546:21634   */\n      tag_633\n        /* \"#utility.yul\":21627:21633   */\n      dup2\n        /* \"#utility.yul\":21622:21625   */\n      dup6\n        /* \"#utility.yul\":21546:21634   */\n      tag_385\n      jump\t// in\n    tag_633:\n        /* \"#utility.yul\":21539:21634   */\n      swap4\n      pop\n        /* \"#utility.yul\":21643:21708   */\n      tag_634\n        /* \"#utility.yul\":21701:21707   */\n      dup2\n        /* \"#utility.yul\":21696:21699   */\n      dup6\n        /* \"#utility.yul\":21689:21693   */\n      0x20\n        /* \"#utility.yul\":21682:21687   */\n      dup7\n        /* \"#utility.yul\":21678:21694   */\n      add\n        /* \"#utility.yul\":21643:21708   */\n      tag_386\n      jump\t// in\n    tag_634:\n        /* \"#utility.yul\":21733:21739   */\n      dup1\n        /* \"#utility.yul\":21728:21731   */\n      dup5\n        /* \"#utility.yul\":21724:21740   */\n      add\n        /* \"#utility.yul\":21717:21740   */\n      swap2\n      pop\n        /* \"#utility.yul\":21468:21746   */\n      pop\n        /* \"#utility.yul\":21360:21746   */\n      swap3\n      swap2\n      pop\n      pop\n      jump\t// out\n        /* \"#utility.yul\":21752:22023   */\n    tag_198:\n        /* \"#utility.yul\":21882:21885   */\n      0x00\n        /* \"#utility.yul\":21904:21997   */\n      tag_636\n        /* \"#utility.yul\":21993:21996   */\n      dup3\n        /* \"#utility.yul\":21984:21990   */\n      dup5\n        /* \"#utility.yul\":21904:21997   */\n      tag_387\n      jump\t// in\n    tag_636:\n        /* \"#utility.yul\":21897:21997   */\n      swap2\n      pop\n        /* \"#utility.yul\":22014:22017   */\n      dup2\n        /* \"#utility.yul\":22007:22017   */\n      swap1\n      pop\n        /* \"#utility.yul\":21752:22023   */\n      swap3\n      swap2\n      pop\n      pop\n      jump\t// out\n        /* \"#utility.yul\":22029:22166   */\n    tag_388:\n        /* \"#utility.yul\":22083:22088   */\n      0x00\n        /* \"#utility.yul\":22114:22120   */\n      dup2\n        /* \"#utility.yul\":22108:22121   */\n      mload\n        /* \"#utility.yul\":22099:22121   */\n      swap1\n      pop\n        /* \"#utility.yul\":22130:22160   */\n      tag_638\n        /* \"#utility.yul\":22154:22159   */\n      dup2\n        /* \"#utility.yul\":22130:22160   */\n      tag_366\n      jump\t// in\n    tag_638:\n        /* \"#utility.yul\":22029:22166   */\n      swap3\n      swap2\n      pop\n      pop\n      jump\t// out\n        /* \"#utility.yul\":22172:22517   */\n    tag_205:\n        /* \"#utility.yul\":22239:22245   */\n      0x00\n        /* \"#utility.yul\":22288:22290   */\n      0x20\n        /* \"#utility.yul\":22276:22285   */\n      dup3\n        /* \"#utility.yul\":22267:22274   */\n      dup5\n        /* \"#utility.yul\":22263:22286   */\n      sub\n        /* \"#utility.yul\":22259:22291   */\n      slt\n        /* \"#utility.yul\":22256:22375   */\n      iszero\n      tag_640\n      jumpi\n        /* \"#utility.yul\":22294:22373   */\n      tag_641\n      tag_327\n      jump\t// in\n    tag_641:\n        /* \"#utility.yul\":22256:22375   */\n    tag_640:\n        /* \"#utility.yul\":22414:22415   */\n      0x00\n        /* \"#utility.yul\":22439:22500   */\n      tag_642\n        /* \"#utility.yul\":22492:22499   */\n      dup5\n        /* \"#utility.yul\":22483:22489   */\n      dup3\n        /* \"#utility.yul\":22472:22481   */\n      dup6\n        /* \"#utility.yul\":22468:22490   */\n      add\n        /* \"#utility.yul\":22439:22500   */\n      tag_388\n      jump\t// in\n    tag_642:\n        /* \"#utility.yul\":22429:22500   */\n      swap2\n      pop\n        /* \"#utility.yul\":22385:22510   */\n      pop\n        /* \"#utility.yul\":22172:22517   */\n      swap3\n      swap2\n      pop\n      pop\n      jump\t// out\n        /* \"#utility.yul\":22523:22757   */\n    tag_389:\n        /* \"#utility.yul\":22663:22697   */\n      0x45786368616e676541676772656761746f723a3a5472616e7366657248656c70\n        /* \"#utility.yul\":22659:22660   */\n      0x00\n        /* \"#utility.yul\":22651:22657   */\n      dup3\n        /* \"#utility.yul\":22647:22661   */\n      add\n        /* \"#utility.yul\":22640:22698   */\n      mstore\n        /* \"#utility.yul\":22732:22749   */\n      0x65723a736166655472616e736665720000000000000000000000000000000000\n        /* \"#utility.yul\":22727:22729   */\n      0x20\n        /* \"#utility.yul\":22719:22725   */\n      dup3\n        /* \"#utility.yul\":22715:22730   */\n      add\n        /* \"#utility.yul\":22708:22750   */\n      mstore\n        /* \"#utility.yul\":22523:22757   */\n      pop\n      jump\t// out\n        /* \"#utility.yul\":22763:23129   */\n    tag_390:\n        /* \"#utility.yul\":22905:22908   */\n      0x00\n        /* \"#utility.yul\":22926:22993   */\n      tag_645\n        /* \"#utility.yul\":22990:22992   */\n      0x2f\n        /* \"#utility.yul\":22985:22988   */\n      dup4\n        /* \"#utility.yul\":22926:22993   */\n      tag_350\n      jump\t// in\n    tag_645:\n        /* \"#utility.yul\":22919:22993   */\n      swap2\n      pop\n        /* \"#utility.yul\":23002:23095   */\n      tag_646\n        /* \"#utility.yul\":23091:23094   */\n      dup3\n        /* \"#utility.yul\":23002:23095   */\n      tag_389\n      jump\t// in\n    tag_646:\n        /* \"#utility.yul\":23120:23122   */\n      0x40\n        /* \"#utility.yul\":23115:23118   */\n      dup3\n        /* \"#utility.yul\":23111:23123   */\n      add\n        /* \"#utility.yul\":23104:23123   */\n      swap1\n      pop\n        /* \"#utility.yul\":22763:23129   */\n      swap2\n      swap1\n      pop\n      jump\t// out\n        /* \"#utility.yul\":23135:23554   */\n    tag_208:\n        /* \"#utility.yul\":23301:23305   */\n      0x00\n        /* \"#utility.yul\":23339:23341   */\n      0x20\n        /* \"#utility.yul\":23328:23337   */\n      dup3\n        /* \"#utility.yul\":23324:23342   */\n      add\n        /* \"#utility.yul\":23316:23342   */\n      swap1\n      pop\n        /* \"#utility.yul\":23388:23397   */\n      dup2\n        /* \"#utility.yul\":23382:23386   */\n      dup2\n        /* \"#utility.yul\":23378:23398   */\n      sub\n        /* \"#utility.yul\":23374:23375   */\n      0x00\n        /* \"#utility.yul\":23363:23372   */\n      dup4\n        /* \"#utility.yul\":23359:23376   */\n      add\n        /* \"#utility.yul\":23352:23399   */\n      mstore\n        /* \"#utility.yul\":23416:23547   */\n      tag_648\n        /* \"#utility.yul\":23542:23546   */\n      dup2\n        /* \"#utility.yul\":23416:23547   */\n      tag_390\n      jump\t// in\n    tag_648:\n        /* \"#utility.yul\":23408:23547   */\n      swap1\n      pop\n        /* \"#utility.yul\":23135:23554   */\n      swap2\n      swap1\n      pop\n      jump\t// out\n        /* \"#utility.yul\":23560:23740   */\n    tag_212:\n        /* \"#utility.yul\":23608:23685   */\n      0x4e487b7100000000000000000000000000000000000000000000000000000000\n        /* \"#utility.yul\":23605:23606   */\n      0x00\n        /* \"#utility.yul\":23598:23686   */\n      mstore\n        /* \"#utility.yul\":23705:23709   */\n      0x32\n        /* \"#utility.yul\":23702:23703   */\n      0x04\n        /* \"#utility.yul\":23695:23710   */\n      mstore\n        /* \"#utility.yul\":23729:23733   */\n      0x24\n        /* \"#utility.yul\":23726:23727   */\n      0x00\n        /* \"#utility.yul\":23719:23734   */\n      revert\n        /* \"#utility.yul\":23746:23909   */\n    tag_391:\n        /* \"#utility.yul\":23886:23901   */\n      0x646174612074616d706572656400000000000000000000000000000000000000\n        /* \"#utility.yul\":23882:23883   */\n      0x00\n        /* \"#utility.yul\":23874:23880   */\n      dup3\n        /* \"#utility.yul\":23870:23884   */\n      add\n        /* \"#utility.yul\":23863:23902   */\n      mstore\n        /* \"#utility.yul\":23746:23909   */\n      pop\n      jump\t// out\n        /* \"#utility.yul\":23915:24281   */\n    tag_392:\n        /* \"#utility.yul\":24057:24060   */\n      0x00\n        /* \"#utility.yul\":24078:24145   */\n      tag_652\n        /* \"#utility.yul\":24142:24144   */\n      0x0d\n        /* \"#utility.yul\":24137:24140   */\n      dup4\n        /* \"#utility.yul\":24078:24145   */\n      tag_350\n      jump\t// in\n    tag_652:\n        /* \"#utility.yul\":24071:24145   */\n      swap2\n      pop\n        /* \"#utility.yul\":24154:24247   */\n      tag_653\n        /* \"#utility.yul\":24243:24246   */\n      dup3\n        /* \"#utility.yul\":24154:24247   */\n      tag_391\n      jump\t// in\n    tag_653:\n        /* \"#utility.yul\":24272:24274   */\n      0x20\n        /* \"#utility.yul\":24267:24270   */\n      dup3\n        /* \"#utility.yul\":24263:24275   */\n      add\n        /* \"#utility.yul\":24256:24275   */\n      swap1\n      pop\n        /* \"#utility.yul\":23915:24281   */\n      swap2\n      swap1\n      pop\n      jump\t// out\n        /* \"#utility.yul\":24287:24706   */\n    tag_224:\n        /* \"#utility.yul\":24453:24457   */\n      0x00\n        /* \"#utility.yul\":24491:24493   */\n      0x20\n        /* \"#utility.yul\":24480:24489   */\n      dup3\n        /* \"#utility.yul\":24476:24494   */\n      add\n        /* \"#utility.yul\":24468:24494   */\n      swap1\n      pop\n        /* \"#utility.yul\":24540:24549   */\n      dup2\n        /* \"#utility.yul\":24534:24538   */\n      dup2\n        /* \"#utility.yul\":24530:24550   */\n      sub\n        /* \"#utility.yul\":24526:24527   */\n      0x00\n        /* \"#utility.yul\":24515:24524   */\n      dup4\n        /* \"#utility.yul\":24511:24528   */\n      add\n        /* \"#utility.yul\":24504:24551   */\n      mstore\n        /* \"#utility.yul\":24568:24699   */\n      tag_655\n        /* \"#utility.yul\":24694:24698   */\n      dup2\n        /* \"#utility.yul\":24568:24699   */\n      tag_392\n      jump\t// in\n    tag_655:\n        /* \"#utility.yul\":24560:24699   */\n      swap1\n      pop\n        /* \"#utility.yul\":24287:24706   */\n      swap2\n      swap1\n      pop\n      jump\t// out\n        /* \"#utility.yul\":24712:24938   */\n    tag_393:\n        /* \"#utility.yul\":24852:24886   */\n      0x45786368616e676541676772656761746f723a3a5361666543616c6c65723a73\n        /* \"#utility.yul\":24848:24849   */\n      0x00\n        /* \"#utility.yul\":24840:24846   */\n      dup3\n        /* \"#utility.yul\":24836:24850   */\n      add\n        /* \"#utility.yul\":24829:24887   */\n      mstore\n        /* \"#utility.yul\":24921:24930   */\n      0x61666543616c6c00000000000000000000000000000000000000000000000000\n        /* \"#utility.yul\":24916:24918   */\n      0x20\n        /* \"#utility.yul\":24908:24914   */\n      dup3\n        /* \"#utility.yul\":24904:24919   */\n      add\n        /* \"#utility.yul\":24897:24931   */\n      mstore\n        /* \"#utility.yul\":24712:24938   */\n      pop\n      jump\t// out\n        /* \"#utility.yul\":24944:25310   */\n    tag_394:\n        /* \"#utility.yul\":25086:25089   */\n      0x00\n        /* \"#utility.yul\":25107:25174   */\n      tag_658\n        /* \"#utility.yul\":25171:25173   */\n      0x27\n        /* \"#utility.yul\":25166:25169   */\n      dup4\n        /* \"#utility.yul\":25107:25174   */\n      tag_350\n      jump\t// in\n    tag_658:\n        /* \"#utility.yul\":25100:25174   */\n      swap2\n      pop\n        /* \"#utility.yul\":25183:25276   */\n      tag_659\n        /* \"#utility.yul\":25272:25275   */\n      dup3\n        /* \"#utility.yul\":25183:25276   */\n      tag_393\n      jump\t// in\n    tag_659:\n        /* \"#utility.yul\":25301:25303   */\n      0x40\n        /* \"#utility.yul\":25296:25299   */\n      dup3\n        /* \"#utility.yul\":25292:25304   */\n      add\n        /* \"#utility.yul\":25285:25304   */\n      swap1\n      pop\n        /* \"#utility.yul\":24944:25310   */\n      swap2\n      swap1\n      pop\n      jump\t// out\n        /* \"#utility.yul\":25316:25735   */\n    tag_233:\n        /* \"#utility.yul\":25482:25486   */\n      0x00\n        /* \"#utility.yul\":25520:25522   */\n      0x20\n        /* \"#utility.yul\":25509:25518   */\n      dup3\n        /* \"#utility.yul\":25505:25523   */\n      add\n        /* \"#utility.yul\":25497:25523   */\n      swap1\n      pop\n        /* \"#utility.yul\":25569:25578   */\n      dup2\n        /* \"#utility.yul\":25563:25567   */\n      dup2\n        /* \"#utility.yul\":25559:25579   */\n      sub\n        /* \"#utility.yul\":25555:25556   */\n      0x00\n        /* \"#utility.yul\":25544:25553   */\n      dup4\n        /* \"#utility.yul\":25540:25557   */\n      add\n        /* \"#utility.yul\":25533:25580   */\n      mstore\n        /* \"#utility.yul\":25597:25728   */\n      tag_661\n        /* \"#utility.yul\":25723:25727   */\n      dup2\n        /* \"#utility.yul\":25597:25728   */\n      tag_394\n      jump\t// in\n    tag_661:\n        /* \"#utility.yul\":25589:25728   */\n      swap1\n      pop\n        /* \"#utility.yul\":25316:25735   */\n      swap2\n      swap1\n      pop\n      jump\t// out\n        /* \"#utility.yul\":25741:25858   */\n    tag_395:\n        /* \"#utility.yul\":25850:25851   */\n      0x00\n        /* \"#utility.yul\":25847:25848   */\n      dup1\n        /* \"#utility.yul\":25840:25852   */\n      revert\n        /* \"#utility.yul\":25864:26044   */\n    tag_241:\n        /* \"#utility.yul\":25912:25989   */\n      0x4e487b7100000000000000000000000000000000000000000000000000000000\n        /* \"#utility.yul\":25909:25910   */\n      0x00\n        /* \"#utility.yul\":25902:25990   */\n      mstore\n        /* \"#utility.yul\":26009:26013   */\n      0x41\n        /* \"#utility.yul\":26006:26007   */\n      0x04\n        /* \"#utility.yul\":25999:26014   */\n      mstore\n        /* \"#utility.yul\":26033:26037   */\n      0x24\n        /* \"#utility.yul\":26030:26031   */\n      0x00\n        /* \"#utility.yul\":26023:26038   */\n      revert\n        /* \"#utility.yul\":26050:26331   */\n    tag_396:\n        /* \"#utility.yul\":26133:26160   */\n      tag_665\n        /* \"#utility.yul\":26155:26159   */\n      dup3\n        /* \"#utility.yul\":26133:26160   */\n      tag_363\n      jump\t// in\n    tag_665:\n        /* \"#utility.yul\":26125:26131   */\n      dup2\n        /* \"#utility.yul\":26121:26161   */\n      add\n        /* \"#utility.yul\":26263:26269   */\n      dup2\n        /* \"#utility.yul\":26251:26261   */\n      dup2\n        /* \"#utility.yul\":26248:26270   */\n      lt\n        /* \"#utility.yul\":26227:26245   */\n      0xffffffffffffffff\n        /* \"#utility.yul\":26215:26225   */\n      dup3\n        /* \"#utility.yul\":26212:26246   */\n      gt\n        /* \"#utility.yul\":26209:26271   */\n      or\n        /* \"#utility.yul\":26206:26294   */\n      iszero\n      tag_666\n      jumpi\n        /* \"#utility.yul\":26274:26292   */\n      tag_667\n      tag_241\n      jump\t// in\n    tag_667:\n        /* \"#utility.yul\":26206:26294   */\n    tag_666:\n        /* \"#utility.yul\":26314:26324   */\n      dup1\n        /* \"#utility.yul\":26310:26312   */\n      0x40\n        /* \"#utility.yul\":26303:26325   */\n      mstore\n        /* \"#utility.yul\":26093:26331   */\n      pop\n        /* \"#utility.yul\":26050:26331   */\n      pop\n      pop\n      jump\t// out\n        /* \"#utility.yul\":26337:26466   */\n    tag_397:\n        /* \"#utility.yul\":26371:26377   */\n      0x00\n        /* \"#utility.yul\":26398:26418   */\n      tag_669\n      tag_326\n      jump\t// in\n    tag_669:\n        /* \"#utility.yul\":26388:26418   */\n      swap1\n      pop\n        /* \"#utility.yul\":26427:26460   */\n      tag_670\n        /* \"#utility.yul\":26455:26459   */\n      dup3\n        /* \"#utility.yul\":26447:26453   */\n      dup3\n        /* \"#utility.yul\":26427:26460   */\n      tag_396\n      jump\t// in\n    tag_670:\n        /* \"#utility.yul\":26337:26466   */\n      swap2\n      swap1\n      pop\n      jump\t// out\n        /* \"#utility.yul\":26472:26780   */\n    tag_398:\n        /* \"#utility.yul\":26534:26538   */\n      0x00\n        /* \"#utility.yul\":26624:26642   */\n      0xffffffffffffffff\n        /* \"#utility.yul\":26616:26622   */\n      dup3\n        /* \"#utility.yul\":26613:26643   */\n      gt\n        /* \"#utility.yul\":26610:26666   */\n      iszero\n      tag_672\n      jumpi\n        /* \"#utility.yul\":26646:26664   */\n      tag_673\n      tag_241\n      jump\t// in\n    tag_673:\n        /* \"#utility.yul\":26610:26666   */\n    tag_672:\n        /* \"#utility.yul\":26684:26713   */\n      tag_674\n        /* \"#utility.yul\":26706:26712   */\n      dup3\n        /* \"#utility.yul\":26684:26713   */\n      tag_363\n      jump\t// in\n    tag_674:\n        /* \"#utility.yul\":26676:26713   */\n      swap1\n      pop\n        /* \"#utility.yul\":26768:26772   */\n      0x20\n        /* \"#utility.yul\":26762:26766   */\n      dup2\n        /* \"#utility.yul\":26758:26773   */\n      add\n        /* \"#utility.yul\":26750:26773   */\n      swap1\n      pop\n        /* \"#utility.yul\":26472:26780   */\n      swap2\n      swap1\n      pop\n      jump\t// out\n        /* \"#utility.yul\":26786:27220   */\n    tag_399:\n        /* \"#utility.yul\":26875:26880   */\n      0x00\n        /* \"#utility.yul\":26900:26966   */\n      tag_676\n        /* \"#utility.yul\":26916:26965   */\n      tag_677\n        /* \"#utility.yul\":26958:26964   */\n      dup5\n        /* \"#utility.yul\":26916:26965   */\n      tag_398\n      jump\t// in\n    tag_677:\n        /* \"#utility.yul\":26900:26966   */\n      tag_397\n      jump\t// in\n    tag_676:\n        /* \"#utility.yul\":26891:26966   */\n      swap1\n      pop\n        /* \"#utility.yul\":26989:26995   */\n      dup3\n        /* \"#utility.yul\":26982:26987   */\n      dup2\n        /* \"#utility.yul\":26975:26996   */\n      mstore\n        /* \"#utility.yul\":27027:27031   */\n      0x20\n        /* \"#utility.yul\":27020:27025   */\n      dup2\n        /* \"#utility.yul\":27016:27032   */\n      add\n        /* \"#utility.yul\":27065:27068   */\n      dup5\n        /* \"#utility.yul\":27056:27062   */\n      dup5\n        /* \"#utility.yul\":27051:27054   */\n      dup5\n        /* \"#utility.yul\":27047:27063   */\n      add\n        /* \"#utility.yul\":27044:27069   */\n      gt\n        /* \"#utility.yul\":27041:27153   */\n      iszero\n      tag_678\n      jumpi\n        /* \"#utility.yul\":27072:27151   */\n      tag_679\n      tag_395\n      jump\t// in\n    tag_679:\n        /* \"#utility.yul\":27041:27153   */\n    tag_678:\n        /* \"#utility.yul\":27162:27214   */\n      tag_680\n        /* \"#utility.yul\":27207:27213   */\n      dup5\n        /* \"#utility.yul\":27202:27205   */\n      dup3\n        /* \"#utility.yul\":27197:27200   */\n      dup6\n        /* \"#utility.yul\":27162:27214   */\n      tag_386\n      jump\t// in\n    tag_680:\n        /* \"#utility.yul\":26881:27220   */\n      pop\n        /* \"#utility.yul\":26786:27220   */\n      swap4\n      swap3\n      pop\n      pop\n      pop\n      jump\t// out\n        /* \"#utility.yul\":27240:27595   */\n    tag_400:\n        /* \"#utility.yul\":27307:27312   */\n      0x00\n        /* \"#utility.yul\":27356:27359   */\n      dup3\n        /* \"#utility.yul\":27349:27353   */\n      0x1f\n        /* \"#utility.yul\":27341:27347   */\n      dup4\n        /* \"#utility.yul\":27337:27354   */\n      add\n        /* \"#utility.yul\":27333:27360   */\n      slt\n        /* \"#utility.yul\":27323:27445   */\n      tag_682\n      jumpi\n        /* \"#utility.yul\":27364:27443   */\n      tag_683\n      tag_339\n      jump\t// in\n    tag_683:\n        /* \"#utility.yul\":27323:27445   */\n    tag_682:\n        /* \"#utility.yul\":27474:27480   */\n      dup2\n        /* \"#utility.yul\":27468:27481   */\n      mload\n        /* \"#utility.yul\":27499:27589   */\n      tag_684\n        /* \"#utility.yul\":27585:27588   */\n      dup5\n        /* \"#utility.yul\":27577:27583   */\n      dup3\n        /* \"#utility.yul\":27570:27574   */\n      0x20\n        /* \"#utility.yul\":27562:27568   */\n      dup7\n        /* \"#utility.yul\":27558:27575   */\n      add\n        /* \"#utility.yul\":27499:27589   */\n      tag_399\n      jump\t// in\n    tag_684:\n        /* \"#utility.yul\":27490:27589   */\n      swap2\n      pop\n        /* \"#utility.yul\":27313:27595   */\n      pop\n        /* \"#utility.yul\":27240:27595   */\n      swap3\n      swap2\n      pop\n      pop\n      jump\t// out\n        /* \"#utility.yul\":27601:28125   */\n    tag_235:\n        /* \"#utility.yul\":27681:27687   */\n      0x00\n        /* \"#utility.yul\":27730:27732   */\n      0x20\n        /* \"#utility.yul\":27718:27727   */\n      dup3\n        /* \"#utility.yul\":27709:27716   */\n      dup5\n        /* \"#utility.yul\":27705:27728   */\n      sub\n        /* \"#utility.yul\":27701:27733   */\n      slt\n        /* \"#utility.yul\":27698:27817   */\n      iszero\n      tag_686\n      jumpi\n        /* \"#utility.yul\":27736:27815   */\n      tag_687\n      tag_327\n      jump\t// in\n    tag_687:\n        /* \"#utility.yul\":27698:27817   */\n    tag_686:\n        /* \"#utility.yul\":27877:27878   */\n      0x00\n        /* \"#utility.yul\":27866:27875   */\n      dup3\n        /* \"#utility.yul\":27862:27879   */\n      add\n        /* \"#utility.yul\":27856:27880   */\n      mload\n        /* \"#utility.yul\":27907:27925   */\n      0xffffffffffffffff\n        /* \"#utility.yul\":27899:27905   */\n      dup2\n        /* \"#utility.yul\":27896:27926   */\n      gt\n        /* \"#utility.yul\":27893:28010   */\n      iszero\n      tag_688\n      jumpi\n        /* \"#utility.yul\":27929:28008   */\n      tag_689\n      tag_328\n      jump\t// in\n    tag_689:\n        /* \"#utility.yul\":27893:28010   */\n    tag_688:\n        /* \"#utility.yul\":28034:28108   */\n      tag_690\n        /* \"#utility.yul\":28100:28107   */\n      dup5\n        /* \"#utility.yul\":28091:28097   */\n      dup3\n        /* \"#utility.yul\":28080:28089   */\n      dup6\n        /* \"#utility.yul\":28076:28098   */\n      add\n        /* \"#utility.yul\":28034:28108   */\n      tag_400\n      jump\t// in\n    tag_690:\n        /* \"#utility.yul\":28024:28108   */\n      swap2\n      pop\n        /* \"#utility.yul\":27827:28118   */\n      pop\n        /* \"#utility.yul\":27601:28125   */\n      swap3\n      swap2\n      pop\n      pop\n      jump\t// out\n        /* \"#utility.yul\":28131:28230   */\n    tag_401:\n        /* \"#utility.yul\":28183:28189   */\n      0x00\n        /* \"#utility.yul\":28217:28222   */\n      dup2\n        /* \"#utility.yul\":28211:28223   */\n      mload\n        /* \"#utility.yul\":28201:28223   */\n      swap1\n      pop\n        /* \"#utility.yul\":28131:28230   */\n      swap2\n      swap1\n      pop\n      jump\t// out\n        /* \"#utility.yul\":28236:28613   */\n    tag_402:\n        /* \"#utility.yul\":28324:28327   */\n      0x00\n        /* \"#utility.yul\":28352:28391   */\n      tag_693\n        /* \"#utility.yul\":28385:28390   */\n      dup3\n        /* \"#utility.yul\":28352:28391   */\n      tag_401\n      jump\t// in\n    tag_693:\n        /* \"#utility.yul\":28407:28478   */\n      tag_694\n        /* \"#utility.yul\":28471:28477   */\n      dup2\n        /* \"#utility.yul\":28466:28469   */\n      dup6\n        /* \"#utility.yul\":28407:28478   */\n      tag_350\n      jump\t// in\n    tag_694:\n        /* \"#utility.yul\":28400:28478   */\n      swap4\n      pop\n        /* \"#utility.yul\":28487:28552   */\n      tag_695\n        /* \"#utility.yul\":28545:28551   */\n      dup2\n        /* \"#utility.yul\":28540:28543   */\n      dup6\n        /* \"#utility.yul\":28533:28537   */\n      0x20\n        /* \"#utility.yul\":28526:28531   */\n      dup7\n        /* \"#utility.yul\":28522:28538   */\n      add\n        /* \"#utility.yul\":28487:28552   */\n      tag_386\n      jump\t// in\n    tag_695:\n        /* \"#utility.yul\":28577:28606   */\n      tag_696\n        /* \"#utility.yul\":28599:28605   */\n      dup2\n        /* \"#utility.yul\":28577:28606   */\n      tag_363\n      jump\t// in\n    tag_696:\n        /* \"#utility.yul\":28572:28575   */\n      dup5\n        /* \"#utility.yul\":28568:28607   */\n      add\n        /* \"#utility.yul\":28561:28607   */\n      swap2\n      pop\n        /* \"#utility.yul\":28328:28613   */\n      pop\n        /* \"#utility.yul\":28236:28613   */\n      swap3\n      swap2\n      pop\n      pop\n      jump\t// out\n        /* \"#utility.yul\":28619:28932   */\n    tag_237:\n        /* \"#utility.yul\":28732:28736   */\n      0x00\n        /* \"#utility.yul\":28770:28772   */\n      0x20\n        /* \"#utility.yul\":28759:28768   */\n      dup3\n        /* \"#utility.yul\":28755:28773   */\n      add\n        /* \"#utility.yul\":28747:28773   */\n      swap1\n      pop\n        /* \"#utility.yul\":28819:28828   */\n      dup2\n        /* \"#utility.yul\":28813:28817   */\n      dup2\n        /* \"#utility.yul\":28809:28829   */\n      sub\n        /* \"#utility.yul\":28805:28806   */\n      0x00\n        /* \"#utility.yul\":28794:28803   */\n      dup4\n        /* \"#utility.yul\":28790:28807   */\n      add\n        /* \"#utility.yul\":28783:28830   */\n      mstore\n        /* \"#utility.yul\":28847:28925   */\n      tag_698\n        /* \"#utility.yul\":28920:28924   */\n      dup2\n        /* \"#utility.yul\":28911:28917   */\n      dup5\n        /* \"#utility.yul\":28847:28925   */\n      tag_402\n      jump\t// in\n    tag_698:\n        /* \"#utility.yul\":28839:28925   */\n      swap1\n      pop\n        /* \"#utility.yul\":28619:28932   */\n      swap3\n      swap2\n      pop\n      pop\n      jump\t// out\n        /* \"#utility.yul\":28938:29175   */\n    tag_403:\n        /* \"#utility.yul\":29078:29112   */\n      0x45786368616e676541676772656761746f723a3a5472616e7366657248656c70\n        /* \"#utility.yul\":29074:29075   */\n      0x00\n        /* \"#utility.yul\":29066:29072   */\n      dup3\n        /* \"#utility.yul\":29062:29076   */\n      add\n        /* \"#utility.yul\":29055:29113   */\n      mstore\n        /* \"#utility.yul\":29147:29167   */\n      0x65723a736166655472616e736665724554480000000000000000000000000000\n        /* \"#utility.yul\":29142:29144   */\n      0x20\n        /* \"#utility.yul\":29134:29140   */\n      dup3\n        /* \"#utility.yul\":29130:29145   */\n      add\n        /* \"#utility.yul\":29123:29168   */\n      mstore\n        /* \"#utility.yul\":28938:29175   */\n      pop\n      jump\t// out\n        /* \"#utility.yul\":29181:29547   */\n    tag_404:\n        /* \"#utility.yul\":29323:29326   */\n      0x00\n        /* \"#utility.yul\":29344:29411   */\n      tag_701\n        /* \"#utility.yul\":29408:29410   */\n      0x32\n        /* \"#utility.yul\":29403:29406   */\n      dup4\n        /* \"#utility.yul\":29344:29411   */\n      tag_350\n      jump\t// in\n    tag_701:\n        /* \"#utility.yul\":29337:29411   */\n      swap2\n      pop\n        /* \"#utility.yul\":29420:29513   */\n      tag_702\n        /* \"#utility.yul\":29509:29512   */\n      dup3\n        /* \"#utility.yul\":29420:29513   */\n      tag_403\n      jump\t// in\n    tag_702:\n        /* \"#utility.yul\":29538:29540   */\n      0x40\n        /* \"#utility.yul\":29533:29536   */\n      dup3\n        /* \"#utility.yul\":29529:29541   */\n      add\n        /* \"#utility.yul\":29522:29541   */\n      swap1\n      pop\n        /* \"#utility.yul\":29181:29547   */\n      swap2\n      swap1\n      pop\n      jump\t// out\n        /* \"#utility.yul\":29553:29972   */\n    tag_249:\n        /* \"#utility.yul\":29719:29723   */\n      0x00\n        /* \"#utility.yul\":29757:29759   */\n      0x20\n        /* \"#utility.yul\":29746:29755   */\n      dup3\n        /* \"#utility.yul\":29742:29760   */\n      add\n        /* \"#utility.yul\":29734:29760   */\n      swap1\n      pop\n        /* \"#utility.yul\":29806:29815   */\n      dup2\n        /* \"#utility.yul\":29800:29804   */\n      dup2\n        /* \"#utility.yul\":29796:29816   */\n      sub\n        /* \"#utility.yul\":29792:29793   */\n      0x00\n        /* \"#utility.yul\":29781:29790   */\n      dup4\n        /* \"#utility.yul\":29777:29794   */\n      add\n        /* \"#utility.yul\":29770:29817   */\n      mstore\n        /* \"#utility.yul\":29834:29965   */\n      tag_704\n        /* \"#utility.yul\":29960:29964   */\n      dup2\n        /* \"#utility.yul\":29834:29965   */\n      tag_404\n      jump\t// in\n    tag_704:\n        /* \"#utility.yul\":29826:29965   */\n      swap1\n      pop\n        /* \"#utility.yul\":29553:29972   */\n      swap2\n      swap1\n      pop\n      jump\t// out\n        /* \"#utility.yul\":29978:30420   */\n    tag_252:\n        /* \"#utility.yul\":30127:30131   */\n      0x00\n        /* \"#utility.yul\":30165:30167   */\n      0x60\n        /* \"#utility.yul\":30154:30163   */\n      dup3\n        /* \"#utility.yul\":30150:30168   */\n      add\n        /* \"#utility.yul\":30142:30168   */\n      swap1\n      pop\n        /* \"#utility.yul\":30178:30249   */\n      tag_706\n        /* \"#utility.yul\":30246:30247   */\n      0x00\n        /* \"#utility.yul\":30235:30244   */\n      dup4\n        /* \"#utility.yul\":30231:30248   */\n      add\n        /* \"#utility.yul\":30222:30228   */\n      dup7\n        /* \"#utility.yul\":30178:30249   */\n      tag_343\n      jump\t// in\n    tag_706:\n        /* \"#utility.yul\":30259:30331   */\n      tag_707\n        /* \"#utility.yul\":30327:30329   */\n      0x20\n        /* \"#utility.yul\":30316:30325   */\n      dup4\n        /* \"#utility.yul\":30312:30330   */\n      add\n        /* \"#utility.yul\":30303:30309   */\n      dup6\n        /* \"#utility.yul\":30259:30331   */\n      tag_343\n      jump\t// in\n    tag_707:\n        /* \"#utility.yul\":30341:30413   */\n      tag_708\n        /* \"#utility.yul\":30409:30411   */\n      0x40\n        /* \"#utility.yul\":30398:30407   */\n      dup4\n        /* \"#utility.yul\":30394:30412   */\n      add\n        /* \"#utility.yul\":30385:30391   */\n      dup5\n        /* \"#utility.yul\":30341:30413   */\n      tag_336\n      jump\t// in\n    tag_708:\n        /* \"#utility.yul\":29978:30420   */\n      swap5\n      swap4\n      pop\n      pop\n      pop\n      pop\n      jump\t// out\n        /* \"#utility.yul\":30426:30664   */\n    tag_405:\n        /* \"#utility.yul\":30566:30600   */\n      0x45786368616e676541676772656761746f723a3a5472616e7366657248656c70\n        /* \"#utility.yul\":30562:30563   */\n      0x00\n        /* \"#utility.yul\":30554:30560   */\n      dup3\n        /* \"#utility.yul\":30550:30564   */\n      add\n        /* \"#utility.yul\":30543:30601   */\n      mstore\n        /* \"#utility.yul\":30635:30656   */\n      0x65723a736166655472616e7366657246726f6d00000000000000000000000000\n        /* \"#utility.yul\":30630:30632   */\n      0x20\n        /* \"#utility.yul\":30622:30628   */\n      dup3\n        /* \"#utility.yul\":30618:30633   */\n      add\n        /* \"#utility.yul\":30611:30657   */\n      mstore\n        /* \"#utility.yul\":30426:30664   */\n      pop\n      jump\t// out\n        /* \"#utility.yul\":30670:31036   */\n    tag_406:\n        /* \"#utility.yul\":30812:30815   */\n      0x00\n        /* \"#utility.yul\":30833:30900   */\n      tag_711\n        /* \"#utility.yul\":30897:30899   */\n      0x33\n        /* \"#utility.yul\":30892:30895   */\n      dup4\n        /* \"#utility.yul\":30833:30900   */\n      tag_350\n      jump\t// in\n    tag_711:\n        /* \"#utility.yul\":30826:30900   */\n      swap2\n      pop\n        /* \"#utility.yul\":30909:31002   */\n      tag_712\n        /* \"#utility.yul\":30998:31001   */\n      dup3\n        /* \"#utility.yul\":30909:31002   */\n      tag_405\n      jump\t// in\n    tag_712:\n        /* \"#utility.yul\":31027:31029   */\n      0x40\n        /* \"#utility.yul\":31022:31025   */\n      dup3\n        /* \"#utility.yul\":31018:31030   */\n      add\n        /* \"#utility.yul\":31011:31030   */\n      swap1\n      pop\n        /* \"#utility.yul\":30670:31036   */\n      swap2\n      swap1\n      pop\n      jump\t// out\n        /* \"#utility.yul\":31042:31461   */\n    tag_262:\n        /* \"#utility.yul\":31208:31212   */\n      0x00\n        /* \"#utility.yul\":31246:31248   */\n      0x20\n        /* \"#utility.yul\":31235:31244   */\n      dup3\n        /* \"#utility.yul\":31231:31249   */\n      add\n        /* \"#utility.yul\":31223:31249   */\n      swap1\n      pop\n        /* \"#utility.yul\":31295:31304   */\n      dup2\n        /* \"#utility.yul\":31289:31293   */\n      dup2\n        /* \"#utility.yul\":31285:31305   */\n      sub\n        /* \"#utility.yul\":31281:31282   */\n      0x00\n        /* \"#utility.yul\":31270:31279   */\n      dup4\n        /* \"#utility.yul\":31266:31283   */\n      add\n        /* \"#utility.yul\":31259:31306   */\n      mstore\n        /* \"#utility.yul\":31323:31454   */\n      tag_714\n        /* \"#utility.yul\":31449:31453   */\n      dup2\n        /* \"#utility.yul\":31323:31454   */\n      tag_406\n      jump\t// in\n    tag_714:\n        /* \"#utility.yul\":31315:31454   */\n      swap1\n      pop\n        /* \"#utility.yul\":31042:31461   */\n      swap2\n      swap1\n      pop\n      jump\t// out\n        /* \"#utility.yul\":31467:31700   */\n    tag_407:\n        /* \"#utility.yul\":31607:31641   */\n      0x45786368616e676541676772656761746f723a3a5472616e7366657248656c70\n        /* \"#utility.yul\":31603:31604   */\n      0x00\n        /* \"#utility.yul\":31595:31601   */\n      dup3\n        /* \"#utility.yul\":31591:31605   */\n      add\n        /* \"#utility.yul\":31584:31642   */\n      mstore\n        /* \"#utility.yul\":31676:31692   */\n      0x65723a73616665417070726f7665000000000000000000000000000000000000\n        /* \"#utility.yul\":31671:31673   */\n      0x20\n        /* \"#utility.yul\":31663:31669   */\n      dup3\n        /* \"#utility.yul\":31659:31674   */\n      add\n        /* \"#utility.yul\":31652:31693   */\n      mstore\n        /* \"#utility.yul\":31467:31700   */\n      pop\n      jump\t// out\n        /* \"#utility.yul\":31706:32072   */\n    tag_408:\n        /* \"#utility.yul\":31848:31851   */\n      0x00\n        /* \"#utility.yul\":31869:31936   */\n      tag_717\n        /* \"#utility.yul\":31933:31935   */\n      0x2e\n        /* \"#utility.yul\":31928:31931   */\n      dup4\n        /* \"#utility.yul\":31869:31936   */\n      tag_350\n      jump\t// in\n    tag_717:\n        /* \"#utility.yul\":31862:31936   */\n      swap2\n      pop\n        /* \"#utility.yul\":31945:32038   */\n      tag_718\n        /* \"#utility.yul\":32034:32037   */\n      dup3\n        /* \"#utility.yul\":31945:32038   */\n      tag_407\n      jump\t// in\n    tag_718:\n        /* \"#utility.yul\":32063:32065   */\n      0x40\n        /* \"#utility.yul\":32058:32061   */\n      dup3\n        /* \"#utility.yul\":32054:32066   */\n      add\n        /* \"#utility.yul\":32047:32066   */\n      swap1\n      pop\n        /* \"#utility.yul\":31706:32072   */\n      swap2\n      swap1\n      pop\n      jump\t// out\n        /* \"#utility.yul\":32078:32497   */\n    tag_274:\n        /* \"#utility.yul\":32244:32248   */\n      0x00\n        /* \"#utility.yul\":32282:32284   */\n      0x20\n        /* \"#utility.yul\":32271:32280   */\n      dup3\n        /* \"#utility.yul\":32267:32285   */\n      add\n        /* \"#utility.yul\":32259:32285   */\n      swap1\n      pop\n        /* \"#utility.yul\":32331:32340   */\n      dup2\n        /* \"#utility.yul\":32325:32329   */\n      dup2\n        /* \"#utility.yul\":32321:32341   */\n      sub\n        /* \"#utility.yul\":32317:32318   */\n      0x00\n        /* \"#utility.yul\":32306:32315   */\n      dup4\n        /* \"#utility.yul\":32302:32319   */\n      add\n        /* \"#utility.yul\":32295:32342   */\n      mstore\n        /* \"#utility.yul\":32359:32490   */\n      tag_720\n        /* \"#utility.yul\":32485:32489   */\n      dup2\n        /* \"#utility.yul\":32359:32490   */\n      tag_408\n      jump\t// in\n    tag_720:\n        /* \"#utility.yul\":32351:32490   */\n      swap1\n      pop\n        /* \"#utility.yul\":32078:32497   */\n      swap2\n      swap1\n      pop\n      jump\t// out\n        /* \"#utility.yul\":32503:32683   */\n    tag_291:\n        /* \"#utility.yul\":32551:32628   */\n      0x4e487b7100000000000000000000000000000000000000000000000000000000\n        /* \"#utility.yul\":32548:32549   */\n      0x00\n        /* \"#utility.yul\":32541:32629   */\n      mstore\n        /* \"#utility.yul\":32648:32652   */\n      0x21\n        /* \"#utility.yul\":32645:32646   */\n      0x04\n        /* \"#utility.yul\":32638:32653   */\n      mstore\n        /* \"#utility.yul\":32672:32676   */\n      0x24\n        /* \"#utility.yul\":32669:32670   */\n      0x00\n        /* \"#utility.yul\":32662:32677   */\n      revert\n        /* \"#utility.yul\":32689:32863   */\n    tag_409:\n        /* \"#utility.yul\":32829:32855   */\n      0x45434453413a20696e76616c6964207369676e61747572650000000000000000\n        /* \"#utility.yul\":32825:32826   */\n      0x00\n        /* \"#utility.yul\":32817:32823   */\n      dup3\n        /* \"#utility.yul\":32813:32827   */\n      add\n        /* \"#utility.yul\":32806:32856   */\n      mstore\n        /* \"#utility.yul\":32689:32863   */\n      pop\n      jump\t// out\n        /* \"#utility.yul\":32869:33235   */\n    tag_410:\n        /* \"#utility.yul\":33011:33014   */\n      0x00\n        /* \"#utility.yul\":33032:33099   */\n      tag_724\n        /* \"#utility.yul\":33096:33098   */\n      0x18\n        /* \"#utility.yul\":33091:33094   */\n      dup4\n        /* \"#utility.yul\":33032:33099   */\n      tag_350\n      jump\t// in\n    tag_724:\n        /* \"#utility.yul\":33025:33099   */\n      swap2\n      pop\n        /* \"#utility.yul\":33108:33201   */\n      tag_725\n        /* \"#utility.yul\":33197:33200   */\n      dup3\n        /* \"#utility.yul\":33108:33201   */\n      tag_409\n      jump\t// in\n    tag_725:\n        /* \"#utility.yul\":33226:33228   */\n      0x20\n        /* \"#utility.yul\":33221:33224   */\n      dup3\n        /* \"#utility.yul\":33217:33229   */\n      add\n        /* \"#utility.yul\":33210:33229   */\n      swap1\n      pop\n        /* \"#utility.yul\":32869:33235   */\n      swap2\n      swap1\n      pop\n      jump\t// out\n        /* \"#utility.yul\":33241:33660   */\n    tag_302:\n        /* \"#utility.yul\":33407:33411   */\n      0x00\n        /* \"#utility.yul\":33445:33447   */\n      0x20\n        /* \"#utility.yul\":33434:33443   */\n      dup3\n        /* \"#utility.yul\":33430:33448   */\n      add\n        /* \"#utility.yul\":33422:33448   */\n      swap1\n      pop\n        /* \"#utility.yul\":33494:33503   */\n      dup2\n        /* \"#utility.yul\":33488:33492   */\n      dup2\n        /* \"#utility.yul\":33484:33504   */\n      sub\n        /* \"#utility.yul\":33480:33481   */\n      0x00\n        /* \"#utility.yul\":33469:33478   */\n      dup4\n        /* \"#utility.yul\":33465:33482   */\n      add\n        /* \"#utility.yul\":33458:33505   */\n      mstore\n        /* \"#utility.yul\":33522:33653   */\n      tag_727\n        /* \"#utility.yul\":33648:33652   */\n      dup2\n        /* \"#utility.yul\":33522:33653   */\n      tag_410\n      jump\t// in\n    tag_727:\n        /* \"#utility.yul\":33514:33653   */\n      swap1\n      pop\n        /* \"#utility.yul\":33241:33660   */\n      swap2\n      swap1\n      pop\n      jump\t// out\n        /* \"#utility.yul\":33666:33847   */\n    tag_411:\n        /* \"#utility.yul\":33806:33839   */\n      0x45434453413a20696e76616c6964207369676e6174757265206c656e67746800\n        /* \"#utility.yul\":33802:33803   */\n      0x00\n        /* \"#utility.yul\":33794:33800   */\n      dup3\n        /* \"#utility.yul\":33790:33804   */\n      add\n        /* \"#utility.yul\":33783:33840   */\n      mstore\n        /* \"#utility.yul\":33666:33847   */\n      pop\n      jump\t// out\n        /* \"#utility.yul\":33853:34219   */\n    tag_412:\n        /* \"#utility.yul\":33995:33998   */\n      0x00\n        /* \"#utility.yul\":34016:34083   */\n      tag_730\n        /* \"#utility.yul\":34080:34082   */\n      0x1f\n        /* \"#utility.yul\":34075:34078   */\n      dup4\n        /* \"#utility.yul\":34016:34083   */\n      tag_350\n      jump\t// in\n    tag_730:\n        /* \"#utility.yul\":34009:34083   */\n      swap2\n      pop\n        /* \"#utility.yul\":34092:34185   */\n      tag_731\n        /* \"#utility.yul\":34181:34184   */\n      dup3\n        /* \"#utility.yul\":34092:34185   */\n      tag_411\n      jump\t// in\n    tag_731:\n        /* \"#utility.yul\":34210:34212   */\n      0x20\n        /* \"#utility.yul\":34205:34208   */\n      dup3\n        /* \"#utility.yul\":34201:34213   */\n      add\n        /* \"#utility.yul\":34194:34213   */\n      swap1\n      pop\n        /* \"#utility.yul\":33853:34219   */\n      swap2\n      swap1\n      pop\n      jump\t// out\n        /* \"#utility.yul\":34225:34644   */\n    tag_310:\n        /* \"#utility.yul\":34391:34395   */\n      0x00\n        /* \"#utility.yul\":34429:34431   */\n      0x20\n        /* \"#utility.yul\":34418:34427   */\n      dup3\n        /* \"#utility.yul\":34414:34432   */\n      add\n        /* \"#utility.yul\":34406:34432   */\n      swap1\n      pop\n        /* \"#utility.yul\":34478:34487   */\n      dup2\n        /* \"#utility.yul\":34472:34476   */\n      dup2\n        /* \"#utility.yul\":34468:34488   */\n      sub\n        /* \"#utility.yul\":34464:34465   */\n      0x00\n        /* \"#utility.yul\":34453:34462   */\n      dup4\n        /* \"#utility.yul\":34449:34466   */\n      add\n        /* \"#utility.yul\":34442:34489   */\n      mstore\n        /* \"#utility.yul\":34506:34637   */\n      tag_733\n        /* \"#utility.yul\":34632:34636   */\n      dup2\n        /* \"#utility.yul\":34506:34637   */\n      tag_412\n      jump\t// in\n    tag_733:\n        /* \"#utility.yul\":34498:34637   */\n      swap1\n      pop\n        /* \"#utility.yul\":34225:34644   */\n      swap2\n      swap1\n      pop\n      jump\t// out\n        /* \"#utility.yul\":34650:34871   */\n    tag_413:\n        /* \"#utility.yul\":34790:34824   */\n      0x45434453413a20696e76616c6964207369676e6174757265202773272076616c\n        /* \"#utility.yul\":34786:34787   */\n      0x00\n        /* \"#utility.yul\":34778:34784   */\n      dup3\n        /* \"#utility.yul\":34774:34788   */\n      add\n        /* \"#utility.yul\":34767:34825   */\n      mstore\n        /* \"#utility.yul\":34859:34863   */\n      0x7565000000000000000000000000000000000000000000000000000000000000\n        /* \"#utility.yul\":34854:34856   */\n      0x20\n        /* \"#utility.yul\":34846:34852   */\n      dup3\n        /* \"#utility.yul\":34842:34857   */\n      add\n        /* \"#utility.yul\":34835:34864   */\n      mstore\n        /* \"#utility.yul\":34650:34871   */\n      pop\n      jump\t// out\n        /* \"#utility.yul\":34877:35243   */\n    tag_414:\n        /* \"#utility.yul\":35019:35022   */\n      0x00\n        /* \"#utility.yul\":35040:35107   */\n      tag_736\n        /* \"#utility.yul\":35104:35106   */\n      0x22\n        /* \"#utility.yul\":35099:35102   */\n      dup4\n        /* \"#utility.yul\":35040:35107   */\n      tag_350\n      jump\t// in\n    tag_736:\n        /* \"#utility.yul\":35033:35107   */\n      swap2\n      pop\n        /* \"#utility.yul\":35116:35209   */\n      tag_737\n        /* \"#utility.yul\":35205:35208   */\n      dup3\n        /* \"#utility.yul\":35116:35209   */\n      tag_413\n      jump\t// in\n    tag_737:\n        /* \"#utility.yul\":35234:35236   */\n      0x40\n        /* \"#utility.yul\":35229:35232   */\n      dup3\n        /* \"#utility.yul\":35225:35237   */\n      add\n        /* \"#utility.yul\":35218:35237   */\n      swap1\n      pop\n        /* \"#utility.yul\":34877:35243   */\n      swap2\n      swap1\n      pop\n      jump\t// out\n        /* \"#utility.yul\":35249:35668   */\n    tag_318:\n        /* \"#utility.yul\":35415:35419   */\n      0x00\n        /* \"#utility.yul\":35453:35455   */\n      0x20\n        /* \"#utility.yul\":35442:35451   */\n      dup3\n        /* \"#utility.yul\":35438:35456   */\n      add\n        /* \"#utility.yul\":35430:35456   */\n      swap1\n      pop\n        /* \"#utility.yul\":35502:35511   */\n      dup2\n        /* \"#utility.yul\":35496:35500   */\n      dup2\n        /* \"#utility.yul\":35492:35512   */\n      sub\n        /* \"#utility.yul\":35488:35489   */\n      0x00\n        /* \"#utility.yul\":35477:35486   */\n      dup4\n        /* \"#utility.yul\":35473:35490   */\n      add\n        /* \"#utility.yul\":35466:35513   */\n      mstore\n        /* \"#utility.yul\":35530:35661   */\n      tag_739\n        /* \"#utility.yul\":35656:35660   */\n      dup2\n        /* \"#utility.yul\":35530:35661   */\n      tag_414\n      jump\t// in\n    tag_739:\n        /* \"#utility.yul\":35522:35661   */\n      swap1\n      pop\n        /* \"#utility.yul\":35249:35668   */\n      swap2\n      swap1\n      pop\n      jump\t// out\n        /* \"#utility.yul\":35674:35751   */\n    tag_415:\n        /* \"#utility.yul\":35711:35718   */\n      0x00\n        /* \"#utility.yul\":35740:35745   */\n      dup2\n        /* \"#utility.yul\":35729:35745   */\n      swap1\n      pop\n        /* \"#utility.yul\":35674:35751   */\n      swap2\n      swap1\n      pop\n      jump\t// out\n        /* \"#utility.yul\":35757:35875   */\n    tag_416:\n        /* \"#utility.yul\":35844:35868   */\n      tag_742\n        /* \"#utility.yul\":35862:35867   */\n      dup2\n        /* \"#utility.yul\":35844:35868   */\n      tag_415\n      jump\t// in\n    tag_742:\n        /* \"#utility.yul\":35839:35842   */\n      dup3\n        /* \"#utility.yul\":35832:35869   */\n      mstore\n        /* \"#utility.yul\":35757:35875   */\n      pop\n      pop\n      jump\t// out\n        /* \"#utility.yul\":35881:36426   */\n    tag_322:\n        /* \"#utility.yul\":36054:36058   */\n      0x00\n        /* \"#utility.yul\":36092:36095   */\n      0x80\n        /* \"#utility.yul\":36081:36090   */\n      dup3\n        /* \"#utility.yul\":36077:36096   */\n      add\n        /* \"#utility.yul\":36069:36096   */\n      swap1\n      pop\n        /* \"#utility.yul\":36106:36177   */\n      tag_744\n        /* \"#utility.yul\":36174:36175   */\n      0x00\n        /* \"#utility.yul\":36163:36172   */\n      dup4\n        /* \"#utility.yul\":36159:36176   */\n      add\n        /* \"#utility.yul\":36150:36156   */\n      dup8\n        /* \"#utility.yul\":36106:36177   */\n      tag_416\n      jump\t// in\n    tag_744:\n        /* \"#utility.yul\":36187:36255   */\n      tag_745\n        /* \"#utility.yul\":36251:36253   */\n      0x20\n        /* \"#utility.yul\":36240:36249   */\n      dup4\n        /* \"#utility.yul\":36236:36254   */\n      add\n        /* \"#utility.yul\":36227:36233   */\n      dup7\n        /* \"#utility.yul\":36187:36255   */\n      tag_377\n      jump\t// in\n    tag_745:\n        /* \"#utility.yul\":36265:36337   */\n      tag_746\n        /* \"#utility.yul\":36333:36335   */\n      0x40\n        /* \"#utility.yul\":36322:36331   */\n      dup4\n        /* \"#utility.yul\":36318:36336   */\n      add\n        /* \"#utility.yul\":36309:36315   */\n      dup6\n        /* \"#utility.yul\":36265:36337   */\n      tag_416\n      jump\t// in\n    tag_746:\n        /* \"#utility.yul\":36347:36419   */\n      tag_747\n        /* \"#utility.yul\":36415:36417   */\n      0x60\n        /* \"#utility.yul\":36404:36413   */\n      dup4\n        /* \"#utility.yul\":36400:36418   */\n      add\n        /* \"#utility.yul\":36391:36397   */\n      dup5\n        /* \"#utility.yul\":36347:36419   */\n      tag_416\n      jump\t// in\n    tag_747:\n        /* \"#utility.yul\":35881:36426   */\n      swap6\n      swap5\n      pop\n      pop\n      pop\n      pop\n      pop\n      jump\t// out\n\n    auxdata: 0xa264697066735822122066f7b97ab36016f6f4bb02c0ec312e7203e91d8bf2f87eb0649f1530f883acf664736f6c63430008120033\n}\n",
				"bytecode": {
					"linkReferences": {},
					"object": "60806040523480156200001157600080fd5b5060405162002bcc38038062002bcc8339818101604052810190620000379190620001d5565b620000576200004b6200009f60201b60201c565b620000a760201b60201c565b80600160006101000a81548173ffffffffffffffffffffffffffffffffffffffff021916908373ffffffffffffffffffffffffffffffffffffffff1602179055505062000207565b600033905090565b60008060009054906101000a900473ffffffffffffffffffffffffffffffffffffffff169050816000806101000a81548173ffffffffffffffffffffffffffffffffffffffff021916908373ffffffffffffffffffffffffffffffffffffffff1602179055508173ffffffffffffffffffffffffffffffffffffffff168173ffffffffffffffffffffffffffffffffffffffff167f8be0079c531659141344cd1fd0a4f28419497f9722a3daafe3b4186f6b6457e060405160405180910390a35050565b600080fd5b600073ffffffffffffffffffffffffffffffffffffffff82169050919050565b60006200019d8262000170565b9050919050565b620001af8162000190565b8114620001bb57600080fd5b50565b600081519050620001cf81620001a4565b92915050565b600060208284031215620001ee57620001ed6200016b565b5b6000620001fe84828501620001be565b91505092915050565b6129b580620002176000396000f3fe6080604052600436106100dd5760003560e01c80636f171b511161007f578063ae4f5be811610059578063ae4f5be81461025e578063ea0dc9f714610287578063ecbdbb32146102b0578063f2fde38b146102db576100dd565b80636f171b5114610200578063715018a61461021c5780638da5cb5b14610233576100dd565b806329f92104116100bb57806329f92104146101525780634782f7791461016e5780634e1a67f5146101975780636110358d146101c2576100dd565b806301e33667146100e2578063045990121461010b578063105d8ccf14610148575b600080fd5b3480156100ee57600080fd5b506101096004803603810190610104919061179a565b610304565b005b34801561011757600080fd5b50610132600480360381019061012d91906117ed565b61031c565b60405161013f9190611829565b60405180910390f35b61015061039f565b005b61016c600480360381019061016791906118cd565b6103a1565b005b34801561017a57600080fd5b5061019560048036038101906101909190611949565b610566565b005b3480156101a357600080fd5b506101ac61057c565b6040516101b99190611998565b60405180910390f35b3480156101ce57600080fd5b506101e960048036038101906101e491906119ec565b6105a2565b6040516101f7929190611a85565b60405180910390f35b61021a600480360381019061021591906118cd565b610656565b005b34801561022857600080fd5b506102316108cd565b005b34801561023f57600080fd5b506102486108e1565b6040516102559190611998565b60405180910390f35b34801561026a57600080fd5b50610285600480360381019061028091906117ed565b61090a565b005b34801561029357600080fd5b506102ae60048036038101906102a991906118cd565b610956565b005b3480156102bc57600080fd5b506102c5610b24565b6040516102d29190611829565b60405180910390f35b3480156102e757600080fd5b5061030260048036038101906102fd91906117ed565b610b2c565b005b61030c610baf565b610317838383610c2d565b505050565b60008173ffffffffffffffffffffffffffffffffffffffff166370a08231306040518263ffffffff1660e01b81526004016103579190611998565b602060405180830381865afa158015610374573d6000803e3d6000fd5b505050506040513d601f19601f820116820180604052508101906103989190611ac3565b9050919050565b565b3373ffffffffffffffffffffffffffffffffffffffff168360a00160208101906103cb91906117ed565b73ffffffffffffffffffffffffffffffffffffffff1614610421576040517f08c379a000000000000000000000000000000000000000000000000000000000815260040161041890611b4d565b60405180910390fd5b61049661042c6108e1565b8460405160200161043d9190611dbd565b60405160208183030381529060405284848080601f016020809104026020016040519081016040528093929190818152602001838380828437600081840152601f19601f82011690508083019250505050505050610d63565b82602001353410156104dd576040517f08c379a00000000000000000000000000000000000000000000000000000000081526004016104d490611e2b565b60405180910390fd5b60008360400135346104ef9190611e7a565b905061056084606001602081019061050791906117ed565b828680608001906105189190611ebd565b8080601f016020809104026020016040519081016040528093929190818152602001838380828437600081840152601f19601f82011690508083019250505050505050610ecf565b50505050565b61056e610baf565b6105788282610fe6565b5050565b600160009054906101000a900473ffffffffffffffffffffffffffffffffffffffff1681565b600080600160009054906101000a900473ffffffffffffffffffffffffffffffffffffffff1673ffffffffffffffffffffffffffffffffffffffff16636110358d88888888886040518663ffffffff1660e01b8152600401610608959493929190611f2f565b6040805180830381865afa158015610624573d6000803e3d6000fd5b505050506040513d601f19601f820116820180604052508101906106489190611fae565b915091509550959350505050565b3373ffffffffffffffffffffffffffffffffffffffff168360a001602081019061068091906117ed565b73ffffffffffffffffffffffffffffffffffffffff16146106d6576040517f08c379a00000000000000000000000000000000000000000000000000000000081526004016106cd90611b4d565b60405180910390fd5b61074b6106e16108e1565b846040516020016106f29190611dbd565b60405160208183030381529060405284848080601f016020809104026020016040519081016040528093929190818152602001838380828437600081840152601f19601f82011690508083019250505050505050610d63565b6000836040013584602001356107619190611e7a565b905060008460c00160208101906107789190611fee565b6107f75761079a85600001602081019061079291906117ed565b3330856110e6565b6107c38560000160208101906107b091906117ed565b336107b96108e1565b88604001356110e6565b6107f28560000160208101906107d991906117ed565b8660600160208101906107ec91906117ed565b8461121f565b610857565b846020013534101561083e576040517f08c379a000000000000000000000000000000000000000000000000000000000815260040161083590611e2b565b60405180910390fd5b6108536108496108e1565b8660400135610fe6565b8190505b6108c685606001602081019061086d91906117ed565b8287806080019061087e9190611ebd565b8080601f016020809104026020016040519081016040528093929190818152602001838380828437600081840152601f19601f82011690508083019250505050505050610ecf565b5050505050565b6108d5610baf565b6108df6000611355565b565b60008060009054906101000a900473ffffffffffffffffffffffffffffffffffffffff16905090565b610912610baf565b80600160006101000a81548173ffffffffffffffffffffffffffffffffffffffff021916908373ffffffffffffffffffffffffffffffffffffffff16021790555050565b3373ffffffffffffffffffffffffffffffffffffffff168360a001602081019061098091906117ed565b73ffffffffffffffffffffffffffffffffffffffff16146109d6576040517f08c379a00000000000000000000000000000000000000000000000000000000081526004016109cd90611b4d565b60405180910390fd5b610a4b6109e16108e1565b846040516020016109f29190611dbd565b60405160208183030381529060405284848080601f016020809104026020016040519081016040528093929190818152602001838380828437600081840152601f19601f82011690508083019250505050505050610d63565b610a6d836000016020810190610a6191906117ed565b333086602001356110e6565b610aaf836000016020810190610a8391906117ed565b846060016020810190610a9691906117ed565b85604001358660200135610aaa9190611e7a565b61121f565b610b1f836060016020810190610ac591906117ed565b6000858060800190610ad79190611ebd565b8080601f016020809104026020016040519081016040528093929190818152602001838380828437600081840152601f19601f82011690508083019250505050505050610ecf565b505050565b600047905090565b610b34610baf565b600073ffffffffffffffffffffffffffffffffffffffff168173ffffffffffffffffffffffffffffffffffffffff1603610ba3576040517f08c379a0000000000000000000000000000000000000000000000000000000008152600401610b9a9061208d565b60405180910390fd5b610bac81611355565b50565b610bb7611419565b73ffffffffffffffffffffffffffffffffffffffff16610bd56108e1565b73ffffffffffffffffffffffffffffffffffffffff1614610c2b576040517f08c379a0000000000000000000000000000000000000000000000000000000008152600401610c22906120f9565b60405180910390fd5b565b6000808473ffffffffffffffffffffffffffffffffffffffff1663a9059cbb8585604051602401610c5f929190612119565b6040516020818303038152906040529060e01b6020820180517bffffffffffffffffffffffffffffffffffffffffffffffffffffffff8381831617835250505050604051610cad91906121b3565b6000604051808303816000865af19150503d8060008114610cea576040519150601f19603f3d011682016040523d82523d6000602084013e610cef565b606091505b5091509150818015610d1d5750600081511480610d1c575080806020019051810190610d1b91906121df565b5b5b610d5c576040517f08c379a0000000000000000000000000000000000000000000000000000000008152600401610d539061227e565b60405180910390fd5b5050505050565b601b60f81b81604081518110610d7c57610d7b61229e565b5b60200101907effffffffffffffffffffffffffffffffffffffffffffffffffffffffffffff1916908160001a9053508273ffffffffffffffffffffffffffffffffffffffff16610ddd82610dcf85611421565b61143290919063ffffffff16565b73ffffffffffffffffffffffffffffffffffffffff160315610eca57601c60f81b81604081518110610e1257610e1161229e565b5b60200101907effffffffffffffffffffffffffffffffffffffffffffffffffffffffffffff1916908160001a9053508273ffffffffffffffffffffffffffffffffffffffff16610e7382610e6585611421565b61143290919063ffffffff16565b73ffffffffffffffffffffffffffffffffffffffff1614610ec9576040517f08c379a0000000000000000000000000000000000000000000000000000000008152600401610ec090612319565b60405180910390fd5b5b505050565b6000808473ffffffffffffffffffffffffffffffffffffffff168484604051610ef891906121b3565b60006040518083038185875af1925050503d8060008114610f35576040519150601f19603f3d011682016040523d82523d6000602084013e610f3a565b606091505b509150915081610fdf57604481511015610f89576040517f08c379a0000000000000000000000000000000000000000000000000000000008152600401610f80906123ab565b60405180910390fd5b60048101905080806020019051810190610fa391906124ec565b6040517f08c379a0000000000000000000000000000000000000000000000000000000008152600401610fd69190612579565b60405180910390fd5b5050505050565b60008273ffffffffffffffffffffffffffffffffffffffff1682600067ffffffffffffffff81111561101b5761101a6123d0565b5b6040519080825280601f01601f19166020018201604052801561104d5781602001600182028036833780820191505090505b5060405161105b91906121b3565b60006040518083038185875af1925050503d8060008114611098576040519150601f19603f3d011682016040523d82523d6000602084013e61109d565b606091505b50509050806110e1576040517f08c379a00000000000000000000000000000000000000000000000000000000081526004016110d89061260d565b60405180910390fd5b505050565b6000808573ffffffffffffffffffffffffffffffffffffffff166323b872dd86868660405160240161111a9392919061262d565b6040516020818303038152906040529060e01b6020820180517bffffffffffffffffffffffffffffffffffffffffffffffffffffffff838183161783525050505060405161116891906121b3565b6000604051808303816000865af19150503d80600081146111a5576040519150601f19603f3d011682016040523d82523d6000602084013e6111aa565b606091505b50915091508180156111d857506000815114806111d75750808060200190518101906111d691906121df565b5b5b611217576040517f08c379a000000000000000000000000000000000000000000000000000000000815260040161120e906126d6565b60405180910390fd5b505050505050565b6000808473ffffffffffffffffffffffffffffffffffffffff1663095ea7b38585604051602401611251929190612119565b6040516020818303038152906040529060e01b6020820180517bffffffffffffffffffffffffffffffffffffffffffffffffffffffff838183161783525050505060405161129f91906121b3565b6000604051808303816000865af19150503d80600081146112dc576040519150601f19603f3d011682016040523d82523d6000602084013e6112e1565b606091505b509150915081801561130f575060008151148061130e57508080602001905181019061130d91906121df565b5b5b61134e576040517f08c379a000000000000000000000000000000000000000000000000000000000815260040161134590612768565b60405180910390fd5b5050505050565b60008060009054906101000a900473ffffffffffffffffffffffffffffffffffffffff169050816000806101000a81548173ffffffffffffffffffffffffffffffffffffffff021916908373ffffffffffffffffffffffffffffffffffffffff1602179055508173ffffffffffffffffffffffffffffffffffffffff168173ffffffffffffffffffffffffffffffffffffffff167f8be0079c531659141344cd1fd0a4f28419497f9722a3daafe3b4186f6b6457e060405160405180910390a35050565b600033905090565b600081805190602001209050919050565b60008060006114418585611459565b9150915061144e816114aa565b819250505092915050565b600080604183510361149a5760008060006020860151925060408601519150606086015160001a905061148e87828585611610565b945094505050506114a3565b60006002915091505b9250929050565b600060048111156114be576114bd612788565b5b8160048111156114d1576114d0612788565b5b031561160d57600160048111156114eb576114ea612788565b5b8160048111156114fe576114fd612788565b5b0361153e576040517f08c379a000000000000000000000000000000000000000000000000000000000815260040161153590612803565b60405180910390fd5b6002600481111561155257611551612788565b5b81600481111561156557611564612788565b5b036115a5576040517f08c379a000000000000000000000000000000000000000000000000000000000815260040161159c9061286f565b60405180910390fd5b600360048111156115b9576115b8612788565b5b8160048111156115cc576115cb612788565b5b0361160c576040517f08c379a000000000000000000000000000000000000000000000000000000000815260040161160390612901565b60405180910390fd5b5b50565b6000807f7fffffffffffffffffffffffffffffff5d576e7357a4501ddfe92f46681b20a08360001c111561164b5760006003915091506116e9565b600060018787878760405160008152602001604052604051611670949392919061293a565b6020604051602081039080840390855afa158015611692573d6000803e3d6000fd5b505050602060405103519050600073ffffffffffffffffffffffffffffffffffffffff168173ffffffffffffffffffffffffffffffffffffffff16036116e0576000600192509250506116e9565b80600092509250505b94509492505050565b6000604051905090565b600080fd5b600080fd5b600073ffffffffffffffffffffffffffffffffffffffff82169050919050565b600061173182611706565b9050919050565b61174181611726565b811461174c57600080fd5b50565b60008135905061175e81611738565b92915050565b6000819050919050565b61177781611764565b811461178257600080fd5b50565b6000813590506117948161176e565b92915050565b6000806000606084860312156117b3576117b26116fc565b5b60006117c18682870161174f565b93505060206117d28682870161174f565b92505060406117e386828701611785565b9150509250925092565b600060208284031215611803576118026116fc565b5b60006118118482850161174f565b91505092915050565b61182381611764565b82525050565b600060208201905061183e600083018461181a565b92915050565b600080fd5b600060e0828403121561185f5761185e611844565b5b81905092915050565b600080fd5b600080fd5b600080fd5b60008083601f84011261188d5761188c611868565b5b8235905067ffffffffffffffff8111156118aa576118a961186d565b5b6020830191508360018202830111156118c6576118c5611872565b5b9250929050565b6000806000604084860312156118e6576118e56116fc565b5b600084013567ffffffffffffffff81111561190457611903611701565b5b61191086828701611849565b935050602084013567ffffffffffffffff81111561193157611930611701565b5b61193d86828701611877565b92509250509250925092565b600080604083850312156119605761195f6116fc565b5b600061196e8582860161174f565b925050602061197f85828601611785565b9150509250929050565b61199281611726565b82525050565b60006020820190506119ad6000830184611989565b92915050565b600060ff82169050919050565b6119c9816119b3565b81146119d457600080fd5b50565b6000813590506119e6816119c0565b92915050565b600080600080600060a08688031215611a0857611a076116fc565b5b6000611a168882890161174f565b9550506020611a278882890161174f565b9450506040611a388882890161174f565b9350506060611a4988828901611785565b9250506080611a5a888289016119d7565b9150509295509295909350565b600062ffffff82169050919050565b611a7f81611a67565b82525050565b6000604082019050611a9a600083018561181a565b611aa76020830184611a76565b9392505050565b600081519050611abd8161176e565b92915050565b600060208284031215611ad957611ad86116fc565b5b6000611ae784828501611aae565b91505092915050565b600082825260208201905092915050565b7f696e76616c65642073656e646572000000000000000000000000000000000000600082015250565b6000611b37600e83611af0565b9150611b4282611b01565b602082019050919050565b60006020820190508181036000830152611b6681611b2a565b9050919050565b6000611b7c602084018461174f565b905092915050565b611b8d81611726565b82525050565b6000611ba26020840184611785565b905092915050565b611bb381611764565b82525050565b600080fd5b600080fd5b600080fd5b60008083356001602003843603038112611be557611be4611bc3565b5b83810192508235915060208301925067ffffffffffffffff821115611c0d57611c0c611bb9565b5b600182023603831315611c2357611c22611bbe565b5b509250929050565b600082825260208201905092915050565b82818337600083830152505050565b6000601f19601f8301169050919050565b6000611c688385611c2b565b9350611c75838584611c3c565b611c7e83611c4b565b840190509392505050565b60008115159050919050565b611c9e81611c89565b8114611ca957600080fd5b50565b600081359050611cbb81611c95565b92915050565b6000611cd06020840184611cac565b905092915050565b611ce181611c89565b82525050565b600060e08301611cfa6000840184611b6d565b611d076000860182611b84565b50611d156020840184611b93565b611d226020860182611baa565b50611d306040840184611b93565b611d3d6040860182611baa565b50611d4b6060840184611b6d565b611d586060860182611b84565b50611d666080840184611bc8565b8583036080870152611d79838284611c5c565b92505050611d8a60a0840184611b6d565b611d9760a0860182611b84565b50611da560c0840184611cc1565b611db260c0860182611cd8565b508091505092915050565b60006020820190508181036000830152611dd78184611ce7565b905092915050565b7f696e73756666696369656e7420696e70757420616d6f756e7400000000000000600082015250565b6000611e15601983611af0565b9150611e2082611ddf565b602082019050919050565b60006020820190508181036000830152611e4481611e08565b9050919050565b7f4e487b7100000000000000000000000000000000000000000000000000000000600052601160045260246000fd5b6000611e8582611764565b9150611e9083611764565b9250828203905081811115611ea857611ea7611e4b565b5b92915050565b600080fd5b600080fd5b600080fd5b60008083356001602003843603038112611eda57611ed9611eae565b5b80840192508235915067ffffffffffffffff821115611efc57611efb611eb3565b5b602083019250600182023603831315611f1857611f17611eb8565b5b509250929050565b611f29816119b3565b82525050565b600060a082019050611f446000830188611989565b611f516020830187611989565b611f5e6040830186611989565b611f6b606083018561181a565b611f786080830184611f20565b9695505050505050565b611f8b81611a67565b8114611f9657600080fd5b50565b600081519050611fa881611f82565b92915050565b60008060408385031215611fc557611fc46116fc565b5b6000611fd385828601611aae565b9250506020611fe485828601611f99565b9150509250929050565b600060208284031215612004576120036116fc565b5b600061201284828501611cac565b91505092915050565b7f4f776e61626c653a206e6577206f776e657220697320746865207a65726f206160008201527f6464726573730000000000000000000000000000000000000000000000000000602082015250565b6000612077602683611af0565b91506120828261201b565b604082019050919050565b600060208201905081810360008301526120a68161206a565b9050919050565b7f4f776e61626c653a2063616c6c6572206973206e6f7420746865206f776e6572600082015250565b60006120e3602083611af0565b91506120ee826120ad565b602082019050919050565b60006020820190508181036000830152612112816120d6565b9050919050565b600060408201905061212e6000830185611989565b61213b602083018461181a565b9392505050565b600081519050919050565b600081905092915050565b60005b8381101561217657808201518184015260208101905061215b565b60008484015250505050565b600061218d82612142565b612197818561214d565b93506121a7818560208601612158565b80840191505092915050565b60006121bf8284612182565b915081905092915050565b6000815190506121d981611c95565b92915050565b6000602082840312156121f5576121f46116fc565b5b6000612203848285016121ca565b91505092915050565b7f45786368616e676541676772656761746f723a3a5472616e7366657248656c7060008201527f65723a736166655472616e736665720000000000000000000000000000000000602082015250565b6000612268602f83611af0565b91506122738261220c565b604082019050919050565b600060208201905081810360008301526122978161225b565b9050919050565b7f4e487b7100000000000000000000000000000000000000000000000000000000600052603260045260246000fd5b7f646174612074616d706572656400000000000000000000000000000000000000600082015250565b6000612303600d83611af0565b915061230e826122cd565b602082019050919050565b60006020820190508181036000830152612332816122f6565b9050919050565b7f45786368616e676541676772656761746f723a3a5361666543616c6c65723a7360008201527f61666543616c6c00000000000000000000000000000000000000000000000000602082015250565b6000612395602783611af0565b91506123a082612339565b604082019050919050565b600060208201905081810360008301526123c481612388565b9050919050565b600080fd5b7f4e487b7100000000000000000000000000000000000000000000000000000000600052604160045260246000fd5b61240882611c4b565b810181811067ffffffffffffffff82111715612427576124266123d0565b5b80604052505050565b600061243a6116f2565b905061244682826123ff565b919050565b600067ffffffffffffffff821115612466576124656123d0565b5b61246f82611c4b565b9050602081019050919050565b600061248f61248a8461244b565b612430565b9050828152602081018484840111156124ab576124aa6123cb565b5b6124b6848285612158565b509392505050565b600082601f8301126124d3576124d2611868565b5b81516124e384826020860161247c565b91505092915050565b600060208284031215612502576125016116fc565b5b600082015167ffffffffffffffff8111156125205761251f611701565b5b61252c848285016124be565b91505092915050565b600081519050919050565b600061254b82612535565b6125558185611af0565b9350612565818560208601612158565b61256e81611c4b565b840191505092915050565b600060208201905081810360008301526125938184612540565b905092915050565b7f45786368616e676541676772656761746f723a3a5472616e7366657248656c7060008201527f65723a736166655472616e736665724554480000000000000000000000000000602082015250565b60006125f7603283611af0565b91506126028261259b565b604082019050919050565b60006020820190508181036000830152612626816125ea565b9050919050565b60006060820190506126426000830186611989565b61264f6020830185611989565b61265c604083018461181a565b949350505050565b7f45786368616e676541676772656761746f723a3a5472616e7366657248656c7060008201527f65723a736166655472616e7366657246726f6d00000000000000000000000000602082015250565b60006126c0603383611af0565b91506126cb82612664565b604082019050919050565b600060208201905081810360008301526126ef816126b3565b9050919050565b7f45786368616e676541676772656761746f723a3a5472616e7366657248656c7060008201527f65723a73616665417070726f7665000000000000000000000000000000000000602082015250565b6000612752602e83611af0565b915061275d826126f6565b604082019050919050565b6000602082019050818103600083015261278181612745565b9050919050565b7f4e487b7100000000000000000000000000000000000000000000000000000000600052602160045260246000fd5b7f45434453413a20696e76616c6964207369676e61747572650000000000000000600082015250565b60006127ed601883611af0565b91506127f8826127b7565b602082019050919050565b6000602082019050818103600083015261281c816127e0565b9050919050565b7f45434453413a20696e76616c6964207369676e6174757265206c656e67746800600082015250565b6000612859601f83611af0565b915061286482612823565b602082019050919050565b600060208201905081810360008301526128888161284c565b9050919050565b7f45434453413a20696e76616c6964207369676e6174757265202773272076616c60008201527f7565000000000000000000000000000000000000000000000000000000000000602082015250565b60006128eb602283611af0565b91506128f68261288f565b604082019050919050565b6000602082019050818103600083015261291a816128de565b9050919050565b6000819050919050565b61293481612921565b82525050565b600060808201905061294f600083018761292b565b61295c6020830186611f20565b612969604083018561292b565b612976606083018461292b565b9594505050505056fea264697066735822122066f7b97ab36016f6f4bb02c0ec312e7203e91d8bf2f87eb0649f1530f883acf664736f6c63430008120033",
					"opcodes": "PUSH1 0x80 PUSH1 0x40 MSTORE CALLVALUE DUP1 ISZERO PUSH3 0x11 JUMPI PUSH1 0x0 DUP1 REVERT JUMPDEST POP PUSH1 0x40 MLOAD PUSH3 0x2BCC CODESIZE SUB DUP1 PUSH3 0x2BCC DUP4 CODECOPY DUP2 DUP2 ADD PUSH1 0x40 MSTORE DUP2 ADD SWAP1 PUSH3 0x37 SWAP2 SWAP1 PUSH3 0x1D5 JUMP JUMPDEST PUSH3 0x57 PUSH3 0x4B PUSH3 0x9F PUSH1 0x20 SHL PUSH1 0x20 SHR JUMP JUMPDEST PUSH3 0xA7 PUSH1 0x20 SHL PUSH1 0x20 SHR JUMP JUMPDEST DUP1 PUSH1 0x1 PUSH1 0x0 PUSH2 0x100 EXP DUP2 SLOAD DUP2 PUSH20 0xFFFFFFFFFFFFFFFFFFFFFFFFFFFFFFFFFFFFFFFF MUL NOT AND SWAP1 DUP4 PUSH20 0xFFFFFFFFFFFFFFFFFFFFFFFFFFFFFFFFFFFFFFFF AND MUL OR SWAP1 SSTORE POP POP PUSH3 0x207 JUMP JUMPDEST PUSH1 0x0 CALLER SWAP1 POP SWAP1 JUMP JUMPDEST PUSH1 0x0 DUP1 PUSH1 0x0 SWAP1 SLOAD SWAP1 PUSH2 0x100 EXP SWAP1 DIV PUSH20 0xFFFFFFFFFFFFFFFFFFFFFFFFFFFFFFFFFFFFFFFF AND SWAP1 POP DUP2 PUSH1 0x0 DUP1 PUSH2 0x100 EXP DUP2 SLOAD DUP2 PUSH20 0xFFFFFFFFFFFFFFFFFFFFFFFFFFFFFFFFFFFFFFFF MUL NOT AND SWAP1 DUP4 PUSH20 0xFFFFFFFFFFFFFFFFFFFFFFFFFFFFFFFFFFFFFFFF AND MUL OR SWAP1 SSTORE POP DUP2 PUSH20 0xFFFFFFFFFFFFFFFFFFFFFFFFFFFFFFFFFFFFFFFF AND DUP2 PUSH20 0xFFFFFFFFFFFFFFFFFFFFFFFFFFFFFFFFFFFFFFFF AND PUSH32 0x8BE0079C531659141344CD1FD0A4F28419497F9722A3DAAFE3B4186F6B6457E0 PUSH1 0x40 MLOAD PUSH1 0x40 MLOAD DUP1 SWAP2 SUB SWAP1 LOG3 POP POP JUMP JUMPDEST PUSH1 0x0 DUP1 REVERT JUMPDEST PUSH1 0x0 PUSH20 0xFFFFFFFFFFFFFFFFFFFFFFFFFFFFFFFFFFFFFFFF DUP3 AND SWAP1 POP SWAP2 SWAP1 POP JUMP JUMPDEST PUSH1 0x0 PUSH3 0x19D DUP3 PUSH3 0x170 JUMP JUMPDEST SWAP1 POP SWAP2 SWAP1 POP JUMP JUMPDEST PUSH3 0x1AF DUP2 PUSH3 0x190 JUMP JUMPDEST DUP2 EQ PUSH3 0x1BB JUMPI PUSH1 0x0 DUP1 REVERT JUMPDEST POP JUMP JUMPDEST PUSH1 0x0 DUP2 MLOAD SWAP1 POP PUSH3 0x1CF DUP2 PUSH3 0x1A4 JUMP JUMPDEST SWAP3 SWAP2 POP POP JUMP JUMPDEST PUSH1 0x0 PUSH1 0x20 DUP3 DUP5 SUB SLT ISZERO PUSH3 0x1EE JUMPI PUSH3 0x1ED PUSH3 0x16B JUMP JUMPDEST JUMPDEST PUSH1 0x0 PUSH3 0x1FE DUP5 DUP3 DUP6 ADD PUSH3 0x1BE JUMP JUMPDEST SWAP2 POP POP SWAP3 SWAP2 POP POP JUMP JUMPDEST PUSH2 0x29B5 DUP1 PUSH3 0x217 PUSH1 0x0 CODECOPY PUSH1 0x0 RETURN INVALID PUSH1 0x80 PUSH1 0x40 MSTORE PUSH1 0x4 CALLDATASIZE LT PUSH2 0xDD JUMPI PUSH1 0x0 CALLDATALOAD PUSH1 0xE0 SHR DUP1 PUSH4 0x6F171B51 GT PUSH2 0x7F JUMPI DUP1 PUSH4 0xAE4F5BE8 GT PUSH2 0x59 JUMPI DUP1 PUSH4 0xAE4F5BE8 EQ PUSH2 0x25E JUMPI DUP1 PUSH4 0xEA0DC9F7 EQ PUSH2 0x287 JUMPI DUP1 PUSH4 0xECBDBB32 EQ PUSH2 0x2B0 JUMPI DUP1 PUSH4 0xF2FDE38B EQ PUSH2 0x2DB JUMPI PUSH2 0xDD JUMP JUMPDEST DUP1 PUSH4 0x6F171B51 EQ PUSH2 0x200 JUMPI DUP1 PUSH4 0x715018A6 EQ PUSH2 0x21C JUMPI DUP1 PUSH4 0x8DA5CB5B EQ PUSH2 0x233 JUMPI PUSH2 0xDD JUMP JUMPDEST DUP1 PUSH4 0x29F92104 GT PUSH2 0xBB JUMPI DUP1 PUSH4 0x29F92104 EQ PUSH2 0x152 JUMPI DUP1 PUSH4 0x4782F779 EQ PUSH2 0x16E JUMPI DUP1 PUSH4 0x4E1A67F5 EQ PUSH2 0x197 JUMPI DUP1 PUSH4 0x6110358D EQ PUSH2 0x1C2 JUMPI PUSH2 0xDD JUMP JUMPDEST DUP1 PUSH4 0x1E33667 EQ PUSH2 0xE2 JUMPI DUP1 PUSH4 0x4599012 EQ PUSH2 0x10B JUMPI DUP1 PUSH4 0x105D8CCF EQ PUSH2 0x148 JUMPI JUMPDEST PUSH1 0x0 DUP1 REVERT JUMPDEST CALLVALUE DUP1 ISZERO PUSH2 0xEE JUMPI PUSH1 0x0 DUP1 REVERT JUMPDEST POP PUSH2 0x109 PUSH1 0x4 DUP1 CALLDATASIZE SUB DUP2 ADD SWAP1 PUSH2 0x104 SWAP2 SWAP1 PUSH2 0x179A JUMP JUMPDEST PUSH2 0x304 JUMP JUMPDEST STOP JUMPDEST CALLVALUE DUP1 ISZERO PUSH2 0x117 JUMPI PUSH1 0x0 DUP1 REVERT JUMPDEST POP PUSH2 0x132 PUSH1 0x4 DUP1 CALLDATASIZE SUB DUP2 ADD SWAP1 PUSH2 0x12D SWAP2 SWAP1 PUSH2 0x17ED JUMP JUMPDEST PUSH2 0x31C JUMP JUMPDEST PUSH1 0x40 MLOAD PUSH2 0x13F SWAP2 SWAP1 PUSH2 0x1829 JUMP JUMPDEST PUSH1 0x40 MLOAD DUP1 SWAP2 SUB SWAP1 RETURN JUMPDEST PUSH2 0x150 PUSH2 0x39F JUMP JUMPDEST STOP JUMPDEST PUSH2 0x16C PUSH1 0x4 DUP1 CALLDATASIZE SUB DUP2 ADD SWAP1 PUSH2 0x167 SWAP2 SWAP1 PUSH2 0x18CD JUMP JUMPDEST PUSH2 0x3A1 JUMP JUMPDEST STOP JUMPDEST CALLVALUE DUP1 ISZERO PUSH2 0x17A JUMPI PUSH1 0x0 DUP1 REVERT JUMPDEST POP PUSH2 0x195 PUSH1 0x4 DUP1 CALLDATASIZE SUB DUP2 ADD SWAP1 PUSH2 0x190 SWAP2 SWAP1 PUSH2 0x1949 JUMP JUMPDEST PUSH2 0x566 JUMP JUMPDEST STOP JUMPDEST CALLVALUE DUP1 ISZERO PUSH2 0x1A3 JUMPI PUSH1 0x0 DUP1 REVERT JUMPDEST POP PUSH2 0x1AC PUSH2 0x57C JUMP JUMPDEST PUSH1 0x40 MLOAD PUSH2 0x1B9 SWAP2 SWAP1 PUSH2 0x1998 JUMP JUMPDEST PUSH1 0x40 MLOAD DUP1 SWAP2 SUB SWAP1 RETURN JUMPDEST CALLVALUE DUP1 ISZERO PUSH2 0x1CE JUMPI PUSH1 0x0 DUP1 REVERT JUMPDEST POP PUSH2 0x1E9 PUSH1 0x4 DUP1 CALLDATASIZE SUB DUP2 ADD SWAP1 PUSH2 0x1E4 SWAP2 SWAP1 PUSH2 0x19EC JUMP JUMPDEST PUSH2 0x5A2 JUMP JUMPDEST PUSH1 0x40 MLOAD PUSH2 0x1F7 SWAP3 SWAP2 SWAP1 PUSH2 0x1A85 JUMP JUMPDEST PUSH1 0x40 MLOAD DUP1 SWAP2 SUB SWAP1 RETURN JUMPDEST PUSH2 0x21A PUSH1 0x4 DUP1 CALLDATASIZE SUB DUP2 ADD SWAP1 PUSH2 0x215 SWAP2 SWAP1 PUSH2 0x18CD JUMP JUMPDEST PUSH2 0x656 JUMP JUMPDEST STOP JUMPDEST CALLVALUE DUP1 ISZERO PUSH2 0x228 JUMPI PUSH1 0x0 DUP1 REVERT JUMPDEST POP PUSH2 0x231 PUSH2 0x8CD JUMP JUMPDEST STOP JUMPDEST CALLVALUE DUP1 ISZERO PUSH2 0x23F JUMPI PUSH1 0x0 DUP1 REVERT JUMPDEST POP PUSH2 0x248 PUSH2 0x8E1 JUMP JUMPDEST PUSH1 0x40 MLOAD PUSH2 0x255 SWAP2 SWAP1 PUSH2 0x1998 JUMP JUMPDEST PUSH1 0x40 MLOAD DUP1 SWAP2 SUB SWAP1 RETURN JUMPDEST CALLVALUE DUP1 ISZERO PUSH2 0x26A JUMPI PUSH1 0x0 DUP1 REVERT JUMPDEST POP PUSH2 0x285 PUSH1 0x4 DUP1 CALLDATASIZE SUB DUP2 ADD SWAP1 PUSH2 0x280 SWAP2 SWAP1 PUSH2 0x17ED JUMP JUMPDEST PUSH2 0x90A JUMP JUMPDEST STOP JUMPDEST CALLVALUE DUP1 ISZERO PUSH2 0x293 JUMPI PUSH1 0x0 DUP1 REVERT JUMPDEST POP PUSH2 0x2AE PUSH1 0x4 DUP1 CALLDATASIZE SUB DUP2 ADD SWAP1 PUSH2 0x2A9 SWAP2 SWAP1 PUSH2 0x18CD JUMP JUMPDEST PUSH2 0x956 JUMP JUMPDEST STOP JUMPDEST CALLVALUE DUP1 ISZERO PUSH2 0x2BC JUMPI PUSH1 0x0 DUP1 REVERT JUMPDEST POP PUSH2 0x2C5 PUSH2 0xB24 JUMP JUMPDEST PUSH1 0x40 MLOAD PUSH2 0x2D2 SWAP2 SWAP1 PUSH2 0x1829 JUMP JUMPDEST PUSH1 0x40 MLOAD DUP1 SWAP2 SUB SWAP1 RETURN JUMPDEST CALLVALUE DUP1 ISZERO PUSH2 0x2E7 JUMPI PUSH1 0x0 DUP1 REVERT JUMPDEST POP PUSH2 0x302 PUSH1 0x4 DUP1 CALLDATASIZE SUB DUP2 ADD SWAP1 PUSH2 0x2FD SWAP2 SWAP1 PUSH2 0x17ED JUMP JUMPDEST PUSH2 0xB2C JUMP JUMPDEST STOP JUMPDEST PUSH2 0x30C PUSH2 0xBAF JUMP JUMPDEST PUSH2 0x317 DUP4 DUP4 DUP4 PUSH2 0xC2D JUMP JUMPDEST POP POP POP JUMP JUMPDEST PUSH1 0x0 DUP2 PUSH20 0xFFFFFFFFFFFFFFFFFFFFFFFFFFFFFFFFFFFFFFFF AND PUSH4 0x70A08231 ADDRESS PUSH1 0x40 MLOAD DUP3 PUSH4 0xFFFFFFFF AND PUSH1 0xE0 SHL DUP2 MSTORE PUSH1 0x4 ADD PUSH2 0x357 SWAP2 SWAP1 PUSH2 0x1998 JUMP JUMPDEST PUSH1 0x20 PUSH1 0x40 MLOAD DUP1 DUP4 SUB DUP2 DUP7 GAS STATICCALL ISZERO DUP1 ISZERO PUSH2 0x374 JUMPI RETURNDATASIZE PUSH1 0x0 DUP1 RETURNDATACOPY RETURNDATASIZE PUSH1 0x0 REVERT JUMPDEST POP POP POP POP PUSH1 0x40 MLOAD RETURNDATASIZE PUSH1 0x1F NOT PUSH1 0x1F DUP3 ADD AND DUP3 ADD DUP1 PUSH1 0x40 MSTORE POP DUP2 ADD SWAP1 PUSH2 0x398 SWAP2 SWAP1 PUSH2 0x1AC3 JUMP JUMPDEST SWAP1 POP SWAP2 SWAP1 POP JUMP JUMPDEST JUMP JUMPDEST CALLER PUSH20 0xFFFFFFFFFFFFFFFFFFFFFFFFFFFFFFFFFFFFFFFF AND DUP4 PUSH1 0xA0 ADD PUSH1 0x20 DUP2 ADD SWAP1 PUSH2 0x3CB SWAP2 SWAP1 PUSH2 0x17ED JUMP JUMPDEST PUSH20 0xFFFFFFFFFFFFFFFFFFFFFFFFFFFFFFFFFFFFFFFF AND EQ PUSH2 0x421 JUMPI PUSH1 0x40 MLOAD PUSH32 0x8C379A000000000000000000000000000000000000000000000000000000000 DUP2 MSTORE PUSH1 0x4 ADD PUSH2 0x418 SWAP1 PUSH2 0x1B4D JUMP JUMPDEST PUSH1 0x40 MLOAD DUP1 SWAP2 SUB SWAP1 REVERT JUMPDEST PUSH2 0x496 PUSH2 0x42C PUSH2 0x8E1 JUMP JUMPDEST DUP5 PUSH1 0x40 MLOAD PUSH1 0x20 ADD PUSH2 0x43D SWAP2 SWAP1 PUSH2 0x1DBD JUMP JUMPDEST PUSH1 0x40 MLOAD PUSH1 0x20 DUP2 DUP4 SUB SUB DUP2 MSTORE SWAP1 PUSH1 0x40 MSTORE DUP5 DUP5 DUP1 DUP1 PUSH1 0x1F ADD PUSH1 0x20 DUP1 SWAP2 DIV MUL PUSH1 0x20 ADD PUSH1 0x40 MLOAD SWAP1 DUP2 ADD PUSH1 0x40 MSTORE DUP1 SWAP4 SWAP3 SWAP2 SWAP1 DUP2 DUP2 MSTORE PUSH1 0x20 ADD DUP4 DUP4 DUP1 DUP3 DUP5 CALLDATACOPY PUSH1 0x0 DUP2 DUP5 ADD MSTORE PUSH1 0x1F NOT PUSH1 0x1F DUP3 ADD AND SWAP1 POP DUP1 DUP4 ADD SWAP3 POP POP POP POP POP POP POP PUSH2 0xD63 JUMP JUMPDEST DUP3 PUSH1 0x20 ADD CALLDATALOAD CALLVALUE LT ISZERO PUSH2 0x4DD JUMPI PUSH1 0x40 MLOAD PUSH32 0x8C379A000000000000000000000000000000000000000000000000000000000 DUP2 MSTORE PUSH1 0x4 ADD PUSH2 0x4D4 SWAP1 PUSH2 0x1E2B JUMP JUMPDEST PUSH1 0x40 MLOAD DUP1 SWAP2 SUB SWAP1 REVERT JUMPDEST PUSH1 0x0 DUP4 PUSH1 0x40 ADD CALLDATALOAD CALLVALUE PUSH2 0x4EF SWAP2 SWAP1 PUSH2 0x1E7A JUMP JUMPDEST SWAP1 POP PUSH2 0x560 DUP5 PUSH1 0x60 ADD PUSH1 0x20 DUP2 ADD SWAP1 PUSH2 0x507 SWAP2 SWAP1 PUSH2 0x17ED JUMP JUMPDEST DUP3 DUP7 DUP1 PUSH1 0x80 ADD SWAP1 PUSH2 0x518 SWAP2 SWAP1 PUSH2 0x1EBD JUMP JUMPDEST DUP1 DUP1 PUSH1 0x1F ADD PUSH1 0x20 DUP1 SWAP2 DIV MUL PUSH1 0x20 ADD PUSH1 0x40 MLOAD SWAP1 DUP2 ADD PUSH1 0x40 MSTORE DUP1 SWAP4 SWAP3 SWAP2 SWAP1 DUP2 DUP2 MSTORE PUSH1 0x20 ADD DUP4 DUP4 DUP1 DUP3 DUP5 CALLDATACOPY PUSH1 0x0 DUP2 DUP5 ADD MSTORE PUSH1 0x1F NOT PUSH1 0x1F DUP3 ADD AND SWAP1 POP DUP1 DUP4 ADD SWAP3 POP POP POP POP POP POP POP PUSH2 0xECF JUMP JUMPDEST POP POP POP POP JUMP JUMPDEST PUSH2 0x56E PUSH2 0xBAF JUMP JUMPDEST PUSH2 0x578 DUP3 DUP3 PUSH2 0xFE6 JUMP JUMPDEST POP POP JUMP JUMPDEST PUSH1 0x1 PUSH1 0x0 SWAP1 SLOAD SWAP1 PUSH2 0x100 EXP SWAP1 DIV PUSH20 0xFFFFFFFFFFFFFFFFFFFFFFFFFFFFFFFFFFFFFFFF AND DUP2 JUMP JUMPDEST PUSH1 0x0 DUP1 PUSH1 0x1 PUSH1 0x0 SWAP1 SLOAD SWAP1 PUSH2 0x100 EXP SWAP1 DIV PUSH20 0xFFFFFFFFFFFFFFFFFFFFFFFFFFFFFFFFFFFFFFFF AND PUSH20 0xFFFFFFFFFFFFFFFFFFFFFFFFFFFFFFFFFFFFFFFF AND PUSH4 0x6110358D DUP9 DUP9 DUP9 DUP9 DUP9 PUSH1 0x40 MLOAD DUP7 PUSH4 0xFFFFFFFF AND PUSH1 0xE0 SHL DUP2 MSTORE PUSH1 0x4 ADD PUSH2 0x608 SWAP6 SWAP5 SWAP4 SWAP3 SWAP2 SWAP1 PUSH2 0x1F2F JUMP JUMPDEST PUSH1 0x40 DUP1 MLOAD DUP1 DUP4 SUB DUP2 DUP7 GAS STATICCALL ISZERO DUP1 ISZERO PUSH2 0x624 JUMPI RETURNDATASIZE PUSH1 0x0 DUP1 RETURNDATACOPY RETURNDATASIZE PUSH1 0x0 REVERT JUMPDEST POP POP POP POP PUSH1 0x40 MLOAD RETURNDATASIZE PUSH1 0x1F NOT PUSH1 0x1F DUP3 ADD AND DUP3 ADD DUP1 PUSH1 0x40 MSTORE POP DUP2 ADD SWAP1 PUSH2 0x648 SWAP2 SWAP1 PUSH2 0x1FAE JUMP JUMPDEST SWAP2 POP SWAP2 POP SWAP6 POP SWAP6 SWAP4 POP POP POP POP JUMP JUMPDEST CALLER PUSH20 0xFFFFFFFFFFFFFFFFFFFFFFFFFFFFFFFFFFFFFFFF AND DUP4 PUSH1 0xA0 ADD PUSH1 0x20 DUP2 ADD SWAP1 PUSH2 0x680 SWAP2 SWAP1 PUSH2 0x17ED JUMP JUMPDEST PUSH20 0xFFFFFFFFFFFFFFFFFFFFFFFFFFFFFFFFFFFFFFFF AND EQ PUSH2 0x6D6 JUMPI PUSH1 0x40 MLOAD PUSH32 0x8C379A000000000000000000000000000000000000000000000000000000000 DUP2 MSTORE PUSH1 0x4 ADD PUSH2 0x6CD SWAP1 PUSH2 0x1B4D JUMP JUMPDEST PUSH1 0x40 MLOAD DUP1 SWAP2 SUB SWAP1 REVERT JUMPDEST PUSH2 0x74B PUSH2 0x6E1 PUSH2 0x8E1 JUMP JUMPDEST DUP5 PUSH1 0x40 MLOAD PUSH1 0x20 ADD PUSH2 0x6F2 SWAP2 SWAP1 PUSH2 0x1DBD JUMP JUMPDEST PUSH1 0x40 MLOAD PUSH1 0x20 DUP2 DUP4 SUB SUB DUP2 MSTORE SWAP1 PUSH1 0x40 MSTORE DUP5 DUP5 DUP1 DUP1 PUSH1 0x1F ADD PUSH1 0x20 DUP1 SWAP2 DIV MUL PUSH1 0x20 ADD PUSH1 0x40 MLOAD SWAP1 DUP2 ADD PUSH1 0x40 MSTORE DUP1 SWAP4 SWAP3 SWAP2 SWAP1 DUP2 DUP2 MSTORE PUSH1 0x20 ADD DUP4 DUP4 DUP1 DUP3 DUP5 CALLDATACOPY PUSH1 0x0 DUP2 DUP5 ADD MSTORE PUSH1 0x1F NOT PUSH1 0x1F DUP3 ADD AND SWAP1 POP DUP1 DUP4 ADD SWAP3 POP POP POP POP POP POP POP PUSH2 0xD63 JUMP JUMPDEST PUSH1 0x0 DUP4 PUSH1 0x40 ADD CALLDATALOAD DUP5 PUSH1 0x20 ADD CALLDATALOAD PUSH2 0x761 SWAP2 SWAP1 PUSH2 0x1E7A JUMP JUMPDEST SWAP1 POP PUSH1 0x0 DUP5 PUSH1 0xC0 ADD PUSH1 0x20 DUP2 ADD SWAP1 PUSH2 0x778 SWAP2 SWAP1 PUSH2 0x1FEE JUMP JUMPDEST PUSH2 0x7F7 JUMPI PUSH2 0x79A DUP6 PUSH1 0x0 ADD PUSH1 0x20 DUP2 ADD SWAP1 PUSH2 0x792 SWAP2 SWAP1 PUSH2 0x17ED JUMP JUMPDEST CALLER ADDRESS DUP6 PUSH2 0x10E6 JUMP JUMPDEST PUSH2 0x7C3 DUP6 PUSH1 0x0 ADD PUSH1 0x20 DUP2 ADD SWAP1 PUSH2 0x7B0 SWAP2 SWAP1 PUSH2 0x17ED JUMP JUMPDEST CALLER PUSH2 0x7B9 PUSH2 0x8E1 JUMP JUMPDEST DUP9 PUSH1 0x40 ADD CALLDATALOAD PUSH2 0x10E6 JUMP JUMPDEST PUSH2 0x7F2 DUP6 PUSH1 0x0 ADD PUSH1 0x20 DUP2 ADD SWAP1 PUSH2 0x7D9 SWAP2 SWAP1 PUSH2 0x17ED JUMP JUMPDEST DUP7 PUSH1 0x60 ADD PUSH1 0x20 DUP2 ADD SWAP1 PUSH2 0x7EC SWAP2 SWAP1 PUSH2 0x17ED JUMP JUMPDEST DUP5 PUSH2 0x121F JUMP JUMPDEST PUSH2 0x857 JUMP JUMPDEST DUP5 PUSH1 0x20 ADD CALLDATALOAD CALLVALUE LT ISZERO PUSH2 0x83E JUMPI PUSH1 0x40 MLOAD PUSH32 0x8C379A000000000000000000000000000000000000000000000000000000000 DUP2 MSTORE PUSH1 0x4 ADD PUSH2 0x835 SWAP1 PUSH2 0x1E2B JUMP JUMPDEST PUSH1 0x40 MLOAD DUP1 SWAP2 SUB SWAP1 REVERT JUMPDEST PUSH2 0x853 PUSH2 0x849 PUSH2 0x8E1 JUMP JUMPDEST DUP7 PUSH1 0x40 ADD CALLDATALOAD PUSH2 0xFE6 JUMP JUMPDEST DUP2 SWAP1 POP JUMPDEST PUSH2 0x8C6 DUP6 PUSH1 0x60 ADD PUSH1 0x20 DUP2 ADD SWAP1 PUSH2 0x86D SWAP2 SWAP1 PUSH2 0x17ED JUMP JUMPDEST DUP3 DUP8 DUP1 PUSH1 0x80 ADD SWAP1 PUSH2 0x87E SWAP2 SWAP1 PUSH2 0x1EBD JUMP JUMPDEST DUP1 DUP1 PUSH1 0x1F ADD PUSH1 0x20 DUP1 SWAP2 DIV MUL PUSH1 0x20 ADD PUSH1 0x40 MLOAD SWAP1 DUP2 ADD PUSH1 0x40 MSTORE DUP1 SWAP4 SWAP3 SWAP2 SWAP1 DUP2 DUP2 MSTORE PUSH1 0x20 ADD DUP4 DUP4 DUP1 DUP3 DUP5 CALLDATACOPY PUSH1 0x0 DUP2 DUP5 ADD MSTORE PUSH1 0x1F NOT PUSH1 0x1F DUP3 ADD AND SWAP1 POP DUP1 DUP4 ADD SWAP3 POP POP POP POP POP POP POP PUSH2 0xECF JUMP JUMPDEST POP POP POP POP POP JUMP JUMPDEST PUSH2 0x8D5 PUSH2 0xBAF JUMP JUMPDEST PUSH2 0x8DF PUSH1 0x0 PUSH2 0x1355 JUMP JUMPDEST JUMP JUMPDEST PUSH1 0x0 DUP1 PUSH1 0x0 SWAP1 SLOAD SWAP1 PUSH2 0x100 EXP SWAP1 DIV PUSH20 0xFFFFFFFFFFFFFFFFFFFFFFFFFFFFFFFFFFFFFFFF AND SWAP1 POP SWAP1 JUMP JUMPDEST PUSH2 0x912 PUSH2 0xBAF JUMP JUMPDEST DUP1 PUSH1 0x1 PUSH1 0x0 PUSH2 0x100 EXP DUP2 SLOAD DUP2 PUSH20 0xFFFFFFFFFFFFFFFFFFFFFFFFFFFFFFFFFFFFFFFF MUL NOT AND SWAP1 DUP4 PUSH20 0xFFFFFFFFFFFFFFFFFFFFFFFFFFFFFFFFFFFFFFFF AND MUL OR SWAP1 SSTORE POP POP JUMP JUMPDEST CALLER PUSH20 0xFFFFFFFFFFFFFFFFFFFFFFFFFFFFFFFFFFFFFFFF AND DUP4 PUSH1 0xA0 ADD PUSH1 0x20 DUP2 ADD SWAP1 PUSH2 0x980 SWAP2 SWAP1 PUSH2 0x17ED JUMP JUMPDEST PUSH20 0xFFFFFFFFFFFFFFFFFFFFFFFFFFFFFFFFFFFFFFFF AND EQ PUSH2 0x9D6 JUMPI PUSH1 0x40 MLOAD PUSH32 0x8C379A000000000000000000000000000000000000000000000000000000000 DUP2 MSTORE PUSH1 0x4 ADD PUSH2 0x9CD SWAP1 PUSH2 0x1B4D JUMP JUMPDEST PUSH1 0x40 MLOAD DUP1 SWAP2 SUB SWAP1 REVERT JUMPDEST PUSH2 0xA4B PUSH2 0x9E1 PUSH2 0x8E1 JUMP JUMPDEST DUP5 PUSH1 0x40 MLOAD PUSH1 0x20 ADD PUSH2 0x9F2 SWAP2 SWAP1 PUSH2 0x1DBD JUMP JUMPDEST PUSH1 0x40 MLOAD PUSH1 0x20 DUP2 DUP4 SUB SUB DUP2 MSTORE SWAP1 PUSH1 0x40 MSTORE DUP5 DUP5 DUP1 DUP1 PUSH1 0x1F ADD PUSH1 0x20 DUP1 SWAP2 DIV MUL PUSH1 0x20 ADD PUSH1 0x40 MLOAD SWAP1 DUP2 ADD PUSH1 0x40 MSTORE DUP1 SWAP4 SWAP3 SWAP2 SWAP1 DUP2 DUP2 MSTORE PUSH1 0x20 ADD DUP4 DUP4 DUP1 DUP3 DUP5 CALLDATACOPY PUSH1 0x0 DUP2 DUP5 ADD MSTORE PUSH1 0x1F NOT PUSH1 0x1F DUP3 ADD AND SWAP1 POP DUP1 DUP4 ADD SWAP3 POP POP POP POP POP POP POP PUSH2 0xD63 JUMP JUMPDEST PUSH2 0xA6D DUP4 PUSH1 0x0 ADD PUSH1 0x20 DUP2 ADD SWAP1 PUSH2 0xA61 SWAP2 SWAP1 PUSH2 0x17ED JUMP JUMPDEST CALLER ADDRESS DUP7 PUSH1 0x20 ADD CALLDATALOAD PUSH2 0x10E6 JUMP JUMPDEST PUSH2 0xAAF DUP4 PUSH1 0x0 ADD PUSH1 0x20 DUP2 ADD SWAP1 PUSH2 0xA83 SWAP2 SWAP1 PUSH2 0x17ED JUMP JUMPDEST DUP5 PUSH1 0x60 ADD PUSH1 0x20 DUP2 ADD SWAP1 PUSH2 0xA96 SWAP2 SWAP1 PUSH2 0x17ED JUMP JUMPDEST DUP6 PUSH1 0x40 ADD CALLDATALOAD DUP7 PUSH1 0x20 ADD CALLDATALOAD PUSH2 0xAAA SWAP2 SWAP1 PUSH2 0x1E7A JUMP JUMPDEST PUSH2 0x121F JUMP JUMPDEST PUSH2 0xB1F DUP4 PUSH1 0x60 ADD PUSH1 0x20 DUP2 ADD SWAP1 PUSH2 0xAC5 SWAP2 SWAP1 PUSH2 0x17ED JUMP JUMPDEST PUSH1 0x0 DUP6 DUP1 PUSH1 0x80 ADD SWAP1 PUSH2 0xAD7 SWAP2 SWAP1 PUSH2 0x1EBD JUMP JUMPDEST DUP1 DUP1 PUSH1 0x1F ADD PUSH1 0x20 DUP1 SWAP2 DIV MUL PUSH1 0x20 ADD PUSH1 0x40 MLOAD SWAP1 DUP2 ADD PUSH1 0x40 MSTORE DUP1 SWAP4 SWAP3 SWAP2 SWAP1 DUP2 DUP2 MSTORE PUSH1 0x20 ADD DUP4 DUP4 DUP1 DUP3 DUP5 CALLDATACOPY PUSH1 0x0 DUP2 DUP5 ADD MSTORE PUSH1 0x1F NOT PUSH1 0x1F DUP3 ADD AND SWAP1 POP DUP1 DUP4 ADD SWAP3 POP POP POP POP POP POP POP PUSH2 0xECF JUMP JUMPDEST POP POP POP JUMP JUMPDEST PUSH1 0x0 SELFBALANCE SWAP1 POP SWAP1 JUMP JUMPDEST PUSH2 0xB34 PUSH2 0xBAF JUMP JUMPDEST PUSH1 0x0 PUSH20 0xFFFFFFFFFFFFFFFFFFFFFFFFFFFFFFFFFFFFFFFF AND DUP2 PUSH20 0xFFFFFFFFFFFFFFFFFFFFFFFFFFFFFFFFFFFFFFFF AND SUB PUSH2 0xBA3 JUMPI PUSH1 0x40 MLOAD PUSH32 0x8C379A000000000000000000000000000000000000000000000000000000000 DUP2 MSTORE PUSH1 0x4 ADD PUSH2 0xB9A SWAP1 PUSH2 0x208D JUMP JUMPDEST PUSH1 0x40 MLOAD DUP1 SWAP2 SUB SWAP1 REVERT JUMPDEST PUSH2 0xBAC DUP2 PUSH2 0x1355 JUMP JUMPDEST POP JUMP JUMPDEST PUSH2 0xBB7 PUSH2 0x1419 JUMP JUMPDEST PUSH20 0xFFFFFFFFFFFFFFFFFFFFFFFFFFFFFFFFFFFFFFFF AND PUSH2 0xBD5 PUSH2 0x8E1 JUMP JUMPDEST PUSH20 0xFFFFFFFFFFFFFFFFFFFFFFFFFFFFFFFFFFFFFFFF AND EQ PUSH2 0xC2B JUMPI PUSH1 0x40 MLOAD PUSH32 0x8C379A000000000000000000000000000000000000000000000000000000000 DUP2 MSTORE PUSH1 0x4 ADD PUSH2 0xC22 SWAP1 PUSH2 0x20F9 JUMP JUMPDEST PUSH1 0x40 MLOAD DUP1 SWAP2 SUB SWAP1 REVERT JUMPDEST JUMP JUMPDEST PUSH1 0x0 DUP1 DUP5 PUSH20 0xFFFFFFFFFFFFFFFFFFFFFFFFFFFFFFFFFFFFFFFF AND PUSH4 0xA9059CBB DUP6 DUP6 PUSH1 0x40 MLOAD PUSH1 0x24 ADD PUSH2 0xC5F SWAP3 SWAP2 SWAP1 PUSH2 0x2119 JUMP JUMPDEST PUSH1 0x40 MLOAD PUSH1 0x20 DUP2 DUP4 SUB SUB DUP2 MSTORE SWAP1 PUSH1 0x40 MSTORE SWAP1 PUSH1 0xE0 SHL PUSH1 0x20 DUP3 ADD DUP1 MLOAD PUSH28 0xFFFFFFFFFFFFFFFFFFFFFFFFFFFFFFFFFFFFFFFFFFFFFFFFFFFFFFFF DUP4 DUP2 DUP4 AND OR DUP4 MSTORE POP POP POP POP PUSH1 0x40 MLOAD PUSH2 0xCAD SWAP2 SWAP1 PUSH2 0x21B3 JUMP JUMPDEST PUSH1 0x0 PUSH1 0x40 MLOAD DUP1 DUP4 SUB DUP2 PUSH1 0x0 DUP7 GAS CALL SWAP2 POP POP RETURNDATASIZE DUP1 PUSH1 0x0 DUP2 EQ PUSH2 0xCEA JUMPI PUSH1 0x40 MLOAD SWAP2 POP PUSH1 0x1F NOT PUSH1 0x3F RETURNDATASIZE ADD AND DUP3 ADD PUSH1 0x40 MSTORE RETURNDATASIZE DUP3 MSTORE RETURNDATASIZE PUSH1 0x0 PUSH1 0x20 DUP5 ADD RETURNDATACOPY PUSH2 0xCEF JUMP JUMPDEST PUSH1 0x60 SWAP2 POP JUMPDEST POP SWAP2 POP SWAP2 POP DUP2 DUP1 ISZERO PUSH2 0xD1D JUMPI POP PUSH1 0x0 DUP2 MLOAD EQ DUP1 PUSH2 0xD1C JUMPI POP DUP1 DUP1 PUSH1 0x20 ADD SWAP1 MLOAD DUP2 ADD SWAP1 PUSH2 0xD1B SWAP2 SWAP1 PUSH2 0x21DF JUMP JUMPDEST JUMPDEST JUMPDEST PUSH2 0xD5C JUMPI PUSH1 0x40 MLOAD PUSH32 0x8C379A000000000000000000000000000000000000000000000000000000000 DUP2 MSTORE PUSH1 0x4 ADD PUSH2 0xD53 SWAP1 PUSH2 0x227E JUMP JUMPDEST PUSH1 0x40 MLOAD DUP1 SWAP2 SUB SWAP1 REVERT JUMPDEST POP POP POP POP POP JUMP JUMPDEST PUSH1 0x1B PUSH1 0xF8 SHL DUP2 PUSH1 0x40 DUP2 MLOAD DUP2 LT PUSH2 0xD7C JUMPI PUSH2 0xD7B PUSH2 0x229E JUMP JUMPDEST JUMPDEST PUSH1 0x20 ADD ADD SWAP1 PUSH31 0xFFFFFFFFFFFFFFFFFFFFFFFFFFFFFFFFFFFFFFFFFFFFFFFFFFFFFFFFFFFFFF NOT AND SWAP1 DUP2 PUSH1 0x0 BYTE SWAP1 MSTORE8 POP DUP3 PUSH20 0xFFFFFFFFFFFFFFFFFFFFFFFFFFFFFFFFFFFFFFFF AND PUSH2 0xDDD DUP3 PUSH2 0xDCF DUP6 PUSH2 0x1421 JUMP JUMPDEST PUSH2 0x1432 SWAP1 SWAP2 SWAP1 PUSH4 0xFFFFFFFF AND JUMP JUMPDEST PUSH20 0xFFFFFFFFFFFFFFFFFFFFFFFFFFFFFFFFFFFFFFFF AND SUB ISZERO PUSH2 0xECA JUMPI PUSH1 0x1C PUSH1 0xF8 SHL DUP2 PUSH1 0x40 DUP2 MLOAD DUP2 LT PUSH2 0xE12 JUMPI PUSH2 0xE11 PUSH2 0x229E JUMP JUMPDEST JUMPDEST PUSH1 0x20 ADD ADD SWAP1 PUSH31 0xFFFFFFFFFFFFFFFFFFFFFFFFFFFFFFFFFFFFFFFFFFFFFFFFFFFFFFFFFFFFFF NOT AND SWAP1 DUP2 PUSH1 0x0 BYTE SWAP1 MSTORE8 POP DUP3 PUSH20 0xFFFFFFFFFFFFFFFFFFFFFFFFFFFFFFFFFFFFFFFF AND PUSH2 0xE73 DUP3 PUSH2 0xE65 DUP6 PUSH2 0x1421 JUMP JUMPDEST PUSH2 0x1432 SWAP1 SWAP2 SWAP1 PUSH4 0xFFFFFFFF AND JUMP JUMPDEST PUSH20 0xFFFFFFFFFFFFFFFFFFFFFFFFFFFFFFFFFFFFFFFF AND EQ PUSH2 0xEC9 JUMPI PUSH1 0x40 MLOAD PUSH32 0x8C379A000000000000000000000000000000000000000000000000000000000 DUP2 MSTORE PUSH1 0x4 ADD PUSH2 0xEC0 SWAP1 PUSH2 0x2319 JUMP JUMPDEST PUSH1 0x40 MLOAD DUP1 SWAP2 SUB SWAP1 REVERT JUMPDEST JUMPDEST POP POP POP JUMP JUMPDEST PUSH1 0x0 DUP1 DUP5 PUSH20 0xFFFFFFFFFFFFFFFFFFFFFFFFFFFFFFFFFFFFFFFF AND DUP5 DUP5 PUSH1 0x40 MLOAD PUSH2 0xEF8 SWAP2 SWAP1 PUSH2 0x21B3 JUMP JUMPDEST PUSH1 0x0 PUSH1 0x40 MLOAD DUP1 DUP4 SUB DUP2 DUP6 DUP8 GAS CALL SWAP3 POP POP POP RETURNDATASIZE DUP1 PUSH1 0x0 DUP2 EQ PUSH2 0xF35 JUMPI PUSH1 0x40 MLOAD SWAP2 POP PUSH1 0x1F NOT PUSH1 0x3F RETURNDATASIZE ADD AND DUP3 ADD PUSH1 0x40 MSTORE RETURNDATASIZE DUP3 MSTORE RETURNDATASIZE PUSH1 0x0 PUSH1 0x20 DUP5 ADD RETURNDATACOPY PUSH2 0xF3A JUMP JUMPDEST PUSH1 0x60 SWAP2 POP JUMPDEST POP SWAP2 POP SWAP2 POP DUP2 PUSH2 0xFDF JUMPI PUSH1 0x44 DUP2 MLOAD LT ISZERO PUSH2 0xF89 JUMPI PUSH1 0x40 MLOAD PUSH32 0x8C379A000000000000000000000000000000000000000000000000000000000 DUP2 MSTORE PUSH1 0x4 ADD PUSH2 0xF80 SWAP1 PUSH2 0x23AB JUMP JUMPDEST PUSH1 0x40 MLOAD DUP1 SWAP2 SUB SWAP1 REVERT JUMPDEST PUSH1 0x4 DUP2 ADD SWAP1 POP DUP1 DUP1 PUSH1 0x20 ADD SWAP1 MLOAD DUP2 ADD SWAP1 PUSH2 0xFA3 SWAP2 SWAP1 PUSH2 0x24EC JUMP JUMPDEST PUSH1 0x40 MLOAD PUSH32 0x8C379A000000000000000000000000000000000000000000000000000000000 DUP2 MSTORE PUSH1 0x4 ADD PUSH2 0xFD6 SWAP2 SWAP1 PUSH2 0x2579 JUMP JUMPDEST PUSH1 0x40 MLOAD DUP1 SWAP2 SUB SWAP1 REVERT JUMPDEST POP POP POP POP POP JUMP JUMPDEST PUSH1 0x0 DUP3 PUSH20 0xFFFFFFFFFFFFFFFFFFFFFFFFFFFFFFFFFFFFFFFF AND DUP3 PUSH1 0x0 PUSH8 0xFFFFFFFFFFFFFFFF DUP2 GT ISZERO PUSH2 0x101B JUMPI PUSH2 0x101A PUSH2 0x23D0 JUMP JUMPDEST JUMPDEST PUSH1 0x40 MLOAD SWAP1 DUP1 DUP3 MSTORE DUP1 PUSH1 0x1F ADD PUSH1 0x1F NOT AND PUSH1 0x20 ADD DUP3 ADD PUSH1 0x40 MSTORE DUP1 ISZERO PUSH2 0x104D JUMPI DUP2 PUSH1 0x20 ADD PUSH1 0x1 DUP3 MUL DUP1 CALLDATASIZE DUP4 CALLDATACOPY DUP1 DUP3 ADD SWAP2 POP POP SWAP1 POP JUMPDEST POP PUSH1 0x40 MLOAD PUSH2 0x105B SWAP2 SWAP1 PUSH2 0x21B3 JUMP JUMPDEST PUSH1 0x0 PUSH1 0x40 MLOAD DUP1 DUP4 SUB DUP2 DUP6 DUP8 GAS CALL SWAP3 POP POP POP RETURNDATASIZE DUP1 PUSH1 0x0 DUP2 EQ PUSH2 0x1098 JUMPI PUSH1 0x40 MLOAD SWAP2 POP PUSH1 0x1F NOT PUSH1 0x3F RETURNDATASIZE ADD AND DUP3 ADD PUSH1 0x40 MSTORE RETURNDATASIZE DUP3 MSTORE RETURNDATASIZE PUSH1 0x0 PUSH1 0x20 DUP5 ADD RETURNDATACOPY PUSH2 0x109D JUMP JUMPDEST PUSH1 0x60 SWAP2 POP JUMPDEST POP POP SWAP1 POP DUP1 PUSH2 0x10E1 JUMPI PUSH1 0x40 MLOAD PUSH32 0x8C379A000000000000000000000000000000000000000000000000000000000 DUP2 MSTORE PUSH1 0x4 ADD PUSH2 0x10D8 SWAP1 PUSH2 0x260D JUMP JUMPDEST PUSH1 0x40 MLOAD DUP1 SWAP2 SUB SWAP1 REVERT JUMPDEST POP POP POP JUMP JUMPDEST PUSH1 0x0 DUP1 DUP6 PUSH20 0xFFFFFFFFFFFFFFFFFFFFFFFFFFFFFFFFFFFFFFFF AND PUSH4 0x23B872DD DUP7 DUP7 DUP7 PUSH1 0x40 MLOAD PUSH1 0x24 ADD PUSH2 0x111A SWAP4 SWAP3 SWAP2 SWAP1 PUSH2 0x262D JUMP JUMPDEST PUSH1 0x40 MLOAD PUSH1 0x20 DUP2 DUP4 SUB SUB DUP2 MSTORE SWAP1 PUSH1 0x40 MSTORE SWAP1 PUSH1 0xE0 SHL PUSH1 0x20 DUP3 ADD DUP1 MLOAD PUSH28 0xFFFFFFFFFFFFFFFFFFFFFFFFFFFFFFFFFFFFFFFFFFFFFFFFFFFFFFFF DUP4 DUP2 DUP4 AND OR DUP4 MSTORE POP POP POP POP PUSH1 0x40 MLOAD PUSH2 0x1168 SWAP2 SWAP1 PUSH2 0x21B3 JUMP JUMPDEST PUSH1 0x0 PUSH1 0x40 MLOAD DUP1 DUP4 SUB DUP2 PUSH1 0x0 DUP7 GAS CALL SWAP2 POP POP RETURNDATASIZE DUP1 PUSH1 0x0 DUP2 EQ PUSH2 0x11A5 JUMPI PUSH1 0x40 MLOAD SWAP2 POP PUSH1 0x1F NOT PUSH1 0x3F RETURNDATASIZE ADD AND DUP3 ADD PUSH1 0x40 MSTORE RETURNDATASIZE DUP3 MSTORE RETURNDATASIZE PUSH1 0x0 PUSH1 0x20 DUP5 ADD RETURNDATACOPY PUSH2 0x11AA JUMP JUMPDEST PUSH1 0x60 SWAP2 POP JUMPDEST POP SWAP2 POP SWAP2 POP DUP2 DUP1 ISZERO PUSH2 0x11D8 JUMPI POP PUSH1 0x0 DUP2 MLOAD EQ DUP1 PUSH2 0x11D7 JUMPI POP DUP1 DUP1 PUSH1 0x20 ADD SWAP1 MLOAD DUP2 ADD SWAP1 PUSH2 0x11D6 SWAP2 SWAP1 PUSH2 0x21DF JUMP JUMPDEST JUMPDEST JUMPDEST PUSH2 0x1217 JUMPI PUSH1 0x40 MLOAD PUSH32 0x8C379A000000000000000000000000000000000000000000000000000000000 DUP2 MSTORE PUSH1 0x4 ADD PUSH2 0x120E SWAP1 PUSH2 0x26D6 JUMP JUMPDEST PUSH1 0x40 MLOAD DUP1 SWAP2 SUB SWAP1 REVERT JUMPDEST POP POP POP POP POP POP JUMP JUMPDEST PUSH1 0x0 DUP1 DUP5 PUSH20 0xFFFFFFFFFFFFFFFFFFFFFFFFFFFFFFFFFFFFFFFF AND PUSH4 0x95EA7B3 DUP6 DUP6 PUSH1 0x40 MLOAD PUSH1 0x24 ADD PUSH2 0x1251 SWAP3 SWAP2 SWAP1 PUSH2 0x2119 JUMP JUMPDEST PUSH1 0x40 MLOAD PUSH1 0x20 DUP2 DUP4 SUB SUB DUP2 MSTORE SWAP1 PUSH1 0x40 MSTORE SWAP1 PUSH1 0xE0 SHL PUSH1 0x20 DUP3 ADD DUP1 MLOAD PUSH28 0xFFFFFFFFFFFFFFFFFFFFFFFFFFFFFFFFFFFFFFFFFFFFFFFFFFFFFFFF DUP4 DUP2 DUP4 AND OR DUP4 MSTORE POP POP POP POP PUSH1 0x40 MLOAD PUSH2 0x129F SWAP2 SWAP1 PUSH2 0x21B3 JUMP JUMPDEST PUSH1 0x0 PUSH1 0x40 MLOAD DUP1 DUP4 SUB DUP2 PUSH1 0x0 DUP7 GAS CALL SWAP2 POP POP RETURNDATASIZE DUP1 PUSH1 0x0 DUP2 EQ PUSH2 0x12DC JUMPI PUSH1 0x40 MLOAD SWAP2 POP PUSH1 0x1F NOT PUSH1 0x3F RETURNDATASIZE ADD AND DUP3 ADD PUSH1 0x40 MSTORE RETURNDATASIZE DUP3 MSTORE RETURNDATASIZE PUSH1 0x0 PUSH1 0x20 DUP5 ADD RETURNDATACOPY PUSH2 0x12E1 JUMP JUMPDEST PUSH1 0x60 SWAP2 POP JUMPDEST POP SWAP2 POP SWAP2 POP DUP2 DUP1 ISZERO PUSH2 0x130F JUMPI POP PUSH1 0x0 DUP2 MLOAD EQ DUP1 PUSH2 0x130E JUMPI POP DUP1 DUP1 PUSH1 0x20 ADD SWAP1 MLOAD DUP2 ADD SWAP1 PUSH2 0x130D SWAP2 SWAP1 PUSH2 0x21DF JUMP JUMPDEST JUMPDEST JUMPDEST PUSH2 0x134E JUMPI PUSH1 0x40 MLOAD PUSH32 0x8C379A000000000000000000000000000000000000000000000000000000000 DUP2 MSTORE PUSH1 0x4 ADD PUSH2 0x1345 SWAP1 PUSH2 0x2768 JUMP JUMPDEST PUSH1 0x40 MLOAD DUP1 SWAP2 SUB SWAP1 REVERT JUMPDEST POP POP POP POP POP JUMP JUMPDEST PUSH1 0x0 DUP1 PUSH1 0x0 SWAP1 SLOAD SWAP1 PUSH2 0x100 EXP SWAP1 DIV PUSH20 0xFFFFFFFFFFFFFFFFFFFFFFFFFFFFFFFFFFFFFFFF AND SWAP1 POP DUP2 PUSH1 0x0 DUP1 PUSH2 0x100 EXP DUP2 SLOAD DUP2 PUSH20 0xFFFFFFFFFFFFFFFFFFFFFFFFFFFFFFFFFFFFFFFF MUL NOT AND SWAP1 DUP4 PUSH20 0xFFFFFFFFFFFFFFFFFFFFFFFFFFFFFFFFFFFFFFFF AND MUL OR SWAP1 SSTORE POP DUP2 PUSH20 0xFFFFFFFFFFFFFFFFFFFFFFFFFFFFFFFFFFFFFFFF AND DUP2 PUSH20 0xFFFFFFFFFFFFFFFFFFFFFFFFFFFFFFFFFFFFFFFF AND PUSH32 0x8BE0079C531659141344CD1FD0A4F28419497F9722A3DAAFE3B4186F6B6457E0 PUSH1 0x40 MLOAD PUSH1 0x40 MLOAD DUP1 SWAP2 SUB SWAP1 LOG3 POP POP JUMP JUMPDEST PUSH1 0x0 CALLER SWAP1 POP SWAP1 JUMP JUMPDEST PUSH1 0x0 DUP2 DUP1 MLOAD SWAP1 PUSH1 0x20 ADD KECCAK256 SWAP1 POP SWAP2 SWAP1 POP JUMP JUMPDEST PUSH1 0x0 DUP1 PUSH1 0x0 PUSH2 0x1441 DUP6 DUP6 PUSH2 0x1459 JUMP JUMPDEST SWAP2 POP SWAP2 POP PUSH2 0x144E DUP2 PUSH2 0x14AA JUMP JUMPDEST DUP2 SWAP3 POP POP POP SWAP3 SWAP2 POP POP JUMP JUMPDEST PUSH1 0x0 DUP1 PUSH1 0x41 DUP4 MLOAD SUB PUSH2 0x149A JUMPI PUSH1 0x0 DUP1 PUSH1 0x0 PUSH1 0x20 DUP7 ADD MLOAD SWAP3 POP PUSH1 0x40 DUP7 ADD MLOAD SWAP2 POP PUSH1 0x60 DUP7 ADD MLOAD PUSH1 0x0 BYTE SWAP1 POP PUSH2 0x148E DUP8 DUP3 DUP6 DUP6 PUSH2 0x1610 JUMP JUMPDEST SWAP5 POP SWAP5 POP POP POP POP PUSH2 0x14A3 JUMP JUMPDEST PUSH1 0x0 PUSH1 0x2 SWAP2 POP SWAP2 POP JUMPDEST SWAP3 POP SWAP3 SWAP1 POP JUMP JUMPDEST PUSH1 0x0 PUSH1 0x4 DUP2 GT ISZERO PUSH2 0x14BE JUMPI PUSH2 0x14BD PUSH2 0x2788 JUMP JUMPDEST JUMPDEST DUP2 PUSH1 0x4 DUP2 GT ISZERO PUSH2 0x14D1 JUMPI PUSH2 0x14D0 PUSH2 0x2788 JUMP JUMPDEST JUMPDEST SUB ISZERO PUSH2 0x160D JUMPI PUSH1 0x1 PUSH1 0x4 DUP2 GT ISZERO PUSH2 0x14EB JUMPI PUSH2 0x14EA PUSH2 0x2788 JUMP JUMPDEST JUMPDEST DUP2 PUSH1 0x4 DUP2 GT ISZERO PUSH2 0x14FE JUMPI PUSH2 0x14FD PUSH2 0x2788 JUMP JUMPDEST JUMPDEST SUB PUSH2 0x153E JUMPI PUSH1 0x40 MLOAD PUSH32 0x8C379A000000000000000000000000000000000000000000000000000000000 DUP2 MSTORE PUSH1 0x4 ADD PUSH2 0x1535 SWAP1 PUSH2 0x2803 JUMP JUMPDEST PUSH1 0x40 MLOAD DUP1 SWAP2 SUB SWAP1 REVERT JUMPDEST PUSH1 0x2 PUSH1 0x4 DUP2 GT ISZERO PUSH2 0x1552 JUMPI PUSH2 0x1551 PUSH2 0x2788 JUMP JUMPDEST JUMPDEST DUP2 PUSH1 0x4 DUP2 GT ISZERO PUSH2 0x1565 JUMPI PUSH2 0x1564 PUSH2 0x2788 JUMP JUMPDEST JUMPDEST SUB PUSH2 0x15A5 JUMPI PUSH1 0x40 MLOAD PUSH32 0x8C379A000000000000000000000000000000000000000000000000000000000 DUP2 MSTORE PUSH1 0x4 ADD PUSH2 0x159C SWAP1 PUSH2 0x286F JUMP JUMPDEST PUSH1 0x40 MLOAD DUP1 SWAP2 SUB SWAP1 REVERT JUMPDEST PUSH1 0x3 PUSH1 0x4 DUP2 GT ISZERO PUSH2 0x15B9 JUMPI PUSH2 0x15B8 PUSH2 0x2788 JUMP JUMPDEST JUMPDEST DUP2 PUSH1 0x4 DUP2 GT ISZERO PUSH2 0x15CC JUMPI PUSH2 0x15CB PUSH2 0x2788 JUMP JUMPDEST JUMPDEST SUB PUSH2 0x160C JUMPI PUSH1 0x40 MLOAD PUSH32 0x8C379A000000000000000000000000000000000000000000000000000000000 DUP2 MSTORE PUSH1 0x4 ADD PUSH2 0x1603 SWAP1 PUSH2 0x2901 JUMP JUMPDEST PUSH1 0x40 MLOAD DUP1 SWAP2 SUB SWAP1 REVERT JUMPDEST JUMPDEST POP JUMP JUMPDEST PUSH1 0x0 DUP1 PUSH32 0x7FFFFFFFFFFFFFFFFFFFFFFFFFFFFFFF5D576E7357A4501DDFE92F46681B20A0 DUP4 PUSH1 0x0 SHR GT ISZERO PUSH2 0x164B JUMPI PUSH1 0x0 PUSH1 0x3 SWAP2 POP SWAP2 POP PUSH2 0x16E9 JUMP JUMPDEST PUSH1 0x0 PUSH1 0x1 DUP8 DUP8 DUP8 DUP8 PUSH1 0x40 MLOAD PUSH1 0x0 DUP2 MSTORE PUSH1 0x20 ADD PUSH1 0x40 MSTORE PUSH1 0x40 MLOAD PUSH2 0x1670 SWAP5 SWAP4 SWAP3 SWAP2 SWAP1 PUSH2 0x293A JUMP JUMPDEST PUSH1 0x20 PUSH1 0x40 MLOAD PUSH1 0x20 DUP2 SUB SWAP1 DUP1 DUP5 SUB SWAP1 DUP6 GAS STATICCALL ISZERO DUP1 ISZERO PUSH2 0x1692 JUMPI RETURNDATASIZE PUSH1 0x0 DUP1 RETURNDATACOPY RETURNDATASIZE PUSH1 0x0 REVERT JUMPDEST POP POP POP PUSH1 0x20 PUSH1 0x40 MLOAD SUB MLOAD SWAP1 POP PUSH1 0x0 PUSH20 0xFFFFFFFFFFFFFFFFFFFFFFFFFFFFFFFFFFFFFFFF AND DUP2 PUSH20 0xFFFFFFFFFFFFFFFFFFFFFFFFFFFFFFFFFFFFFFFF AND SUB PUSH2 0x16E0 JUMPI PUSH1 0x0 PUSH1 0x1 SWAP3 POP SWAP3 POP POP PUSH2 0x16E9 JUMP JUMPDEST DUP1 PUSH1 0x0 SWAP3 POP SWAP3 POP POP JUMPDEST SWAP5 POP SWAP5 SWAP3 POP POP POP JUMP JUMPDEST PUSH1 0x0 PUSH1 0x40 MLOAD SWAP1 POP SWAP1 JUMP JUMPDEST PUSH1 0x0 DUP1 REVERT JUMPDEST PUSH1 0x0 DUP1 REVERT JUMPDEST PUSH1 0x0 PUSH20 0xFFFFFFFFFFFFFFFFFFFFFFFFFFFFFFFFFFFFFFFF DUP3 AND SWAP1 POP SWAP2 SWAP1 POP JUMP JUMPDEST PUSH1 0x0 PUSH2 0x1731 DUP3 PUSH2 0x1706 JUMP JUMPDEST SWAP1 POP SWAP2 SWAP1 POP JUMP JUMPDEST PUSH2 0x1741 DUP2 PUSH2 0x1726 JUMP JUMPDEST DUP2 EQ PUSH2 0x174C JUMPI PUSH1 0x0 DUP1 REVERT JUMPDEST POP JUMP JUMPDEST PUSH1 0x0 DUP2 CALLDATALOAD SWAP1 POP PUSH2 0x175E DUP2 PUSH2 0x1738 JUMP JUMPDEST SWAP3 SWAP2 POP POP JUMP JUMPDEST PUSH1 0x0 DUP2 SWAP1 POP SWAP2 SWAP1 POP JUMP JUMPDEST PUSH2 0x1777 DUP2 PUSH2 0x1764 JUMP JUMPDEST DUP2 EQ PUSH2 0x1782 JUMPI PUSH1 0x0 DUP1 REVERT JUMPDEST POP JUMP JUMPDEST PUSH1 0x0 DUP2 CALLDATALOAD SWAP1 POP PUSH2 0x1794 DUP2 PUSH2 0x176E JUMP JUMPDEST SWAP3 SWAP2 POP POP JUMP JUMPDEST PUSH1 0x0 DUP1 PUSH1 0x0 PUSH1 0x60 DUP5 DUP7 SUB SLT ISZERO PUSH2 0x17B3 JUMPI PUSH2 0x17B2 PUSH2 0x16FC JUMP JUMPDEST JUMPDEST PUSH1 0x0 PUSH2 0x17C1 DUP7 DUP3 DUP8 ADD PUSH2 0x174F JUMP JUMPDEST SWAP4 POP POP PUSH1 0x20 PUSH2 0x17D2 DUP7 DUP3 DUP8 ADD PUSH2 0x174F JUMP JUMPDEST SWAP3 POP POP PUSH1 0x40 PUSH2 0x17E3 DUP7 DUP3 DUP8 ADD PUSH2 0x1785 JUMP JUMPDEST SWAP2 POP POP SWAP3 POP SWAP3 POP SWAP3 JUMP JUMPDEST PUSH1 0x0 PUSH1 0x20 DUP3 DUP5 SUB SLT ISZERO PUSH2 0x1803 JUMPI PUSH2 0x1802 PUSH2 0x16FC JUMP JUMPDEST JUMPDEST PUSH1 0x0 PUSH2 0x1811 DUP5 DUP3 DUP6 ADD PUSH2 0x174F JUMP JUMPDEST SWAP2 POP POP SWAP3 SWAP2 POP POP JUMP JUMPDEST PUSH2 0x1823 DUP2 PUSH2 0x1764 JUMP JUMPDEST DUP3 MSTORE POP POP JUMP JUMPDEST PUSH1 0x0 PUSH1 0x20 DUP3 ADD SWAP1 POP PUSH2 0x183E PUSH1 0x0 DUP4 ADD DUP5 PUSH2 0x181A JUMP JUMPDEST SWAP3 SWAP2 POP POP JUMP JUMPDEST PUSH1 0x0 DUP1 REVERT JUMPDEST PUSH1 0x0 PUSH1 0xE0 DUP3 DUP5 SUB SLT ISZERO PUSH2 0x185F JUMPI PUSH2 0x185E PUSH2 0x1844 JUMP JUMPDEST JUMPDEST DUP2 SWAP1 POP SWAP3 SWAP2 POP POP JUMP JUMPDEST PUSH1 0x0 DUP1 REVERT JUMPDEST PUSH1 0x0 DUP1 REVERT JUMPDEST PUSH1 0x0 DUP1 REVERT JUMPDEST PUSH1 0x0 DUP1 DUP4 PUSH1 0x1F DUP5 ADD SLT PUSH2 0x188D JUMPI PUSH2 0x188C PUSH2 0x1868 JUMP JUMPDEST JUMPDEST DUP3 CALLDATALOAD SWAP1 POP PUSH8 0xFFFFFFFFFFFFFFFF DUP2 GT ISZERO PUSH2 0x18AA JUMPI PUSH2 0x18A9 PUSH2 0x186D JUMP JUMPDEST JUMPDEST PUSH1 0x20 DUP4 ADD SWAP2 POP DUP4 PUSH1 0x1 DUP3 MUL DUP4 ADD GT ISZERO PUSH2 0x18C6 JUMPI PUSH2 0x18C5 PUSH2 0x1872 JUMP JUMPDEST JUMPDEST SWAP3 POP SWAP3 SWAP1 POP JUMP JUMPDEST PUSH1 0x0 DUP1 PUSH1 0x0 PUSH1 0x40 DUP5 DUP7 SUB SLT ISZERO PUSH2 0x18E6 JUMPI PUSH2 0x18E5 PUSH2 0x16FC JUMP JUMPDEST JUMPDEST PUSH1 0x0 DUP5 ADD CALLDATALOAD PUSH8 0xFFFFFFFFFFFFFFFF DUP2 GT ISZERO PUSH2 0x1904 JUMPI PUSH2 0x1903 PUSH2 0x1701 JUMP JUMPDEST JUMPDEST PUSH2 0x1910 DUP7 DUP3 DUP8 ADD PUSH2 0x1849 JUMP JUMPDEST SWAP4 POP POP PUSH1 0x20 DUP5 ADD CALLDATALOAD PUSH8 0xFFFFFFFFFFFFFFFF DUP2 GT ISZERO PUSH2 0x1931 JUMPI PUSH2 0x1930 PUSH2 0x1701 JUMP JUMPDEST JUMPDEST PUSH2 0x193D DUP7 DUP3 DUP8 ADD PUSH2 0x1877 JUMP JUMPDEST SWAP3 POP SWAP3 POP POP SWAP3 POP SWAP3 POP SWAP3 JUMP JUMPDEST PUSH1 0x0 DUP1 PUSH1 0x40 DUP4 DUP6 SUB SLT ISZERO PUSH2 0x1960 JUMPI PUSH2 0x195F PUSH2 0x16FC JUMP JUMPDEST JUMPDEST PUSH1 0x0 PUSH2 0x196E DUP6 DUP3 DUP7 ADD PUSH2 0x174F JUMP JUMPDEST SWAP3 POP POP PUSH1 0x20 PUSH2 0x197F DUP6 DUP3 DUP7 ADD PUSH2 0x1785 JUMP JUMPDEST SWAP2 POP POP SWAP3 POP SWAP3 SWAP1 POP JUMP JUMPDEST PUSH2 0x1992 DUP2 PUSH2 0x1726 JUMP JUMPDEST DUP3 MSTORE POP POP JUMP JUMPDEST PUSH1 0x0 PUSH1 0x20 DUP3 ADD SWAP1 POP PUSH2 0x19AD PUSH1 0x0 DUP4 ADD DUP5 PUSH2 0x1989 JUMP JUMPDEST SWAP3 SWAP2 POP POP JUMP JUMPDEST PUSH1 0x0 PUSH1 0xFF DUP3 AND SWAP1 POP SWAP2 SWAP1 POP JUMP JUMPDEST PUSH2 0x19C9 DUP2 PUSH2 0x19B3 JUMP JUMPDEST DUP2 EQ PUSH2 0x19D4 JUMPI PUSH1 0x0 DUP1 REVERT JUMPDEST POP JUMP JUMPDEST PUSH1 0x0 DUP2 CALLDATALOAD SWAP1 POP PUSH2 0x19E6 DUP2 PUSH2 0x19C0 JUMP JUMPDEST SWAP3 SWAP2 POP POP JUMP JUMPDEST PUSH1 0x0 DUP1 PUSH1 0x0 DUP1 PUSH1 0x0 PUSH1 0xA0 DUP7 DUP9 SUB SLT ISZERO PUSH2 0x1A08 JUMPI PUSH2 0x1A07 PUSH2 0x16FC JUMP JUMPDEST JUMPDEST PUSH1 0x0 PUSH2 0x1A16 DUP9 DUP3 DUP10 ADD PUSH2 0x174F JUMP JUMPDEST SWAP6 POP POP PUSH1 0x20 PUSH2 0x1A27 DUP9 DUP3 DUP10 ADD PUSH2 0x174F JUMP JUMPDEST SWAP5 POP POP PUSH1 0x40 PUSH2 0x1A38 DUP9 DUP3 DUP10 ADD PUSH2 0x174F JUMP JUMPDEST SWAP4 POP POP PUSH1 0x60 PUSH2 0x1A49 DUP9 DUP3 DUP10 ADD PUSH2 0x1785 JUMP JUMPDEST SWAP3 POP POP PUSH1 0x80 PUSH2 0x1A5A DUP9 DUP3 DUP10 ADD PUSH2 0x19D7 JUMP JUMPDEST SWAP2 POP POP SWAP3 SWAP6 POP SWAP3 SWAP6 SWAP1 SWAP4 POP JUMP JUMPDEST PUSH1 0x0 PUSH3 0xFFFFFF DUP3 AND SWAP1 POP SWAP2 SWAP1 POP JUMP JUMPDEST PUSH2 0x1A7F DUP2 PUSH2 0x1A67 JUMP JUMPDEST DUP3 MSTORE POP POP JUMP JUMPDEST PUSH1 0x0 PUSH1 0x40 DUP3 ADD SWAP1 POP PUSH2 0x1A9A PUSH1 0x0 DUP4 ADD DUP6 PUSH2 0x181A JUMP JUMPDEST PUSH2 0x1AA7 PUSH1 0x20 DUP4 ADD DUP5 PUSH2 0x1A76 JUMP JUMPDEST SWAP4 SWAP3 POP POP POP JUMP JUMPDEST PUSH1 0x0 DUP2 MLOAD SWAP1 POP PUSH2 0x1ABD DUP2 PUSH2 0x176E JUMP JUMPDEST SWAP3 SWAP2 POP POP JUMP JUMPDEST PUSH1 0x0 PUSH1 0x20 DUP3 DUP5 SUB SLT ISZERO PUSH2 0x1AD9 JUMPI PUSH2 0x1AD8 PUSH2 0x16FC JUMP JUMPDEST JUMPDEST PUSH1 0x0 PUSH2 0x1AE7 DUP5 DUP3 DUP6 ADD PUSH2 0x1AAE JUMP JUMPDEST SWAP2 POP POP SWAP3 SWAP2 POP POP JUMP JUMPDEST PUSH1 0x0 DUP3 DUP3 MSTORE PUSH1 0x20 DUP3 ADD SWAP1 POP SWAP3 SWAP2 POP POP JUMP JUMPDEST PUSH32 0x696E76616C65642073656E646572000000000000000000000000000000000000 PUSH1 0x0 DUP3 ADD MSTORE POP JUMP JUMPDEST PUSH1 0x0 PUSH2 0x1B37 PUSH1 0xE DUP4 PUSH2 0x1AF0 JUMP JUMPDEST SWAP2 POP PUSH2 0x1B42 DUP3 PUSH2 0x1B01 JUMP JUMPDEST PUSH1 0x20 DUP3 ADD SWAP1 POP SWAP2 SWAP1 POP JUMP JUMPDEST PUSH1 0x0 PUSH1 0x20 DUP3 ADD SWAP1 POP DUP2 DUP2 SUB PUSH1 0x0 DUP4 ADD MSTORE PUSH2 0x1B66 DUP2 PUSH2 0x1B2A JUMP JUMPDEST SWAP1 POP SWAP2 SWAP1 POP JUMP JUMPDEST PUSH1 0x0 PUSH2 0x1B7C PUSH1 0x20 DUP5 ADD DUP5 PUSH2 0x174F JUMP JUMPDEST SWAP1 POP SWAP3 SWAP2 POP POP JUMP JUMPDEST PUSH2 0x1B8D DUP2 PUSH2 0x1726 JUMP JUMPDEST DUP3 MSTORE POP POP JUMP JUMPDEST PUSH1 0x0 PUSH2 0x1BA2 PUSH1 0x20 DUP5 ADD DUP5 PUSH2 0x1785 JUMP JUMPDEST SWAP1 POP SWAP3 SWAP2 POP POP JUMP JUMPDEST PUSH2 0x1BB3 DUP2 PUSH2 0x1764 JUMP JUMPDEST DUP3 MSTORE POP POP JUMP JUMPDEST PUSH1 0x0 DUP1 REVERT JUMPDEST PUSH1 0x0 DUP1 REVERT JUMPDEST PUSH1 0x0 DUP1 REVERT JUMPDEST PUSH1 0x0 DUP1 DUP4 CALLDATALOAD PUSH1 0x1 PUSH1 0x20 SUB DUP5 CALLDATASIZE SUB SUB DUP2 SLT PUSH2 0x1BE5 JUMPI PUSH2 0x1BE4 PUSH2 0x1BC3 JUMP JUMPDEST JUMPDEST DUP4 DUP2 ADD SWAP3 POP DUP3 CALLDATALOAD SWAP2 POP PUSH1 0x20 DUP4 ADD SWAP3 POP PUSH8 0xFFFFFFFFFFFFFFFF DUP3 GT ISZERO PUSH2 0x1C0D JUMPI PUSH2 0x1C0C PUSH2 0x1BB9 JUMP JUMPDEST JUMPDEST PUSH1 0x1 DUP3 MUL CALLDATASIZE SUB DUP4 SGT ISZERO PUSH2 0x1C23 JUMPI PUSH2 0x1C22 PUSH2 0x1BBE JUMP JUMPDEST JUMPDEST POP SWAP3 POP SWAP3 SWAP1 POP JUMP JUMPDEST PUSH1 0x0 DUP3 DUP3 MSTORE PUSH1 0x20 DUP3 ADD SWAP1 POP SWAP3 SWAP2 POP POP JUMP JUMPDEST DUP3 DUP2 DUP4 CALLDATACOPY PUSH1 0x0 DUP4 DUP4 ADD MSTORE POP POP POP JUMP JUMPDEST PUSH1 0x0 PUSH1 0x1F NOT PUSH1 0x1F DUP4 ADD AND SWAP1 POP SWAP2 SWAP1 POP JUMP JUMPDEST PUSH1 0x0 PUSH2 0x1C68 DUP4 DUP6 PUSH2 0x1C2B JUMP JUMPDEST SWAP4 POP PUSH2 0x1C75 DUP4 DUP6 DUP5 PUSH2 0x1C3C JUMP JUMPDEST PUSH2 0x1C7E DUP4 PUSH2 0x1C4B JUMP JUMPDEST DUP5 ADD SWAP1 POP SWAP4 SWAP3 POP POP POP JUMP JUMPDEST PUSH1 0x0 DUP2 ISZERO ISZERO SWAP1 POP SWAP2 SWAP1 POP JUMP JUMPDEST PUSH2 0x1C9E DUP2 PUSH2 0x1C89 JUMP JUMPDEST DUP2 EQ PUSH2 0x1CA9 JUMPI PUSH1 0x0 DUP1 REVERT JUMPDEST POP JUMP JUMPDEST PUSH1 0x0 DUP2 CALLDATALOAD SWAP1 POP PUSH2 0x1CBB DUP2 PUSH2 0x1C95 JUMP JUMPDEST SWAP3 SWAP2 POP POP JUMP JUMPDEST PUSH1 0x0 PUSH2 0x1CD0 PUSH1 0x20 DUP5 ADD DUP5 PUSH2 0x1CAC JUMP JUMPDEST SWAP1 POP SWAP3 SWAP2 POP POP JUMP JUMPDEST PUSH2 0x1CE1 DUP2 PUSH2 0x1C89 JUMP JUMPDEST DUP3 MSTORE POP POP JUMP JUMPDEST PUSH1 0x0 PUSH1 0xE0 DUP4 ADD PUSH2 0x1CFA PUSH1 0x0 DUP5 ADD DUP5 PUSH2 0x1B6D JUMP JUMPDEST PUSH2 0x1D07 PUSH1 0x0 DUP7 ADD DUP3 PUSH2 0x1B84 JUMP JUMPDEST POP PUSH2 0x1D15 PUSH1 0x20 DUP5 ADD DUP5 PUSH2 0x1B93 JUMP JUMPDEST PUSH2 0x1D22 PUSH1 0x20 DUP7 ADD DUP3 PUSH2 0x1BAA JUMP JUMPDEST POP PUSH2 0x1D30 PUSH1 0x40 DUP5 ADD DUP5 PUSH2 0x1B93 JUMP JUMPDEST PUSH2 0x1D3D PUSH1 0x40 DUP7 ADD DUP3 PUSH2 0x1BAA JUMP JUMPDEST POP PUSH2 0x1D4B PUSH1 0x60 DUP5 ADD DUP5 PUSH2 0x1B6D JUMP JUMPDEST PUSH2 0x1D58 PUSH1 0x60 DUP7 ADD DUP3 PUSH2 0x1B84 JUMP JUMPDEST POP PUSH2 0x1D66 PUSH1 0x80 DUP5 ADD DUP5 PUSH2 0x1BC8 JUMP JUMPDEST DUP6 DUP4 SUB PUSH1 0x80 DUP8 ADD MSTORE PUSH2 0x1D79 DUP4 DUP3 DUP5 PUSH2 0x1C5C JUMP JUMPDEST SWAP3 POP POP POP PUSH2 0x1D8A PUSH1 0xA0 DUP5 ADD DUP5 PUSH2 0x1B6D JUMP JUMPDEST PUSH2 0x1D97 PUSH1 0xA0 DUP7 ADD DUP3 PUSH2 0x1B84 JUMP JUMPDEST POP PUSH2 0x1DA5 PUSH1 0xC0 DUP5 ADD DUP5 PUSH2 0x1CC1 JUMP JUMPDEST PUSH2 0x1DB2 PUSH1 0xC0 DUP7 ADD DUP3 PUSH2 0x1CD8 JUMP JUMPDEST POP DUP1 SWAP2 POP POP SWAP3 SWAP2 POP POP JUMP JUMPDEST PUSH1 0x0 PUSH1 0x20 DUP3 ADD SWAP1 POP DUP2 DUP2 SUB PUSH1 0x0 DUP4 ADD MSTORE PUSH2 0x1DD7 DUP2 DUP5 PUSH2 0x1CE7 JUMP JUMPDEST SWAP1 POP SWAP3 SWAP2 POP POP JUMP JUMPDEST PUSH32 0x696E73756666696369656E7420696E70757420616D6F756E7400000000000000 PUSH1 0x0 DUP3 ADD MSTORE POP JUMP JUMPDEST PUSH1 0x0 PUSH2 0x1E15 PUSH1 0x19 DUP4 PUSH2 0x1AF0 JUMP JUMPDEST SWAP2 POP PUSH2 0x1E20 DUP3 PUSH2 0x1DDF JUMP JUMPDEST PUSH1 0x20 DUP3 ADD SWAP1 POP SWAP2 SWAP1 POP JUMP JUMPDEST PUSH1 0x0 PUSH1 0x20 DUP3 ADD SWAP1 POP DUP2 DUP2 SUB PUSH1 0x0 DUP4 ADD MSTORE PUSH2 0x1E44 DUP2 PUSH2 0x1E08 JUMP JUMPDEST SWAP1 POP SWAP2 SWAP1 POP JUMP JUMPDEST PUSH32 0x4E487B7100000000000000000000000000000000000000000000000000000000 PUSH1 0x0 MSTORE PUSH1 0x11 PUSH1 0x4 MSTORE PUSH1 0x24 PUSH1 0x0 REVERT JUMPDEST PUSH1 0x0 PUSH2 0x1E85 DUP3 PUSH2 0x1764 JUMP JUMPDEST SWAP2 POP PUSH2 0x1E90 DUP4 PUSH2 0x1764 JUMP JUMPDEST SWAP3 POP DUP3 DUP3 SUB SWAP1 POP DUP2 DUP2 GT ISZERO PUSH2 0x1EA8 JUMPI PUSH2 0x1EA7 PUSH2 0x1E4B JUMP JUMPDEST JUMPDEST SWAP3 SWAP2 POP POP JUMP JUMPDEST PUSH1 0x0 DUP1 REVERT JUMPDEST PUSH1 0x0 DUP1 REVERT JUMPDEST PUSH1 0x0 DUP1 REVERT JUMPDEST PUSH1 0x0 DUP1 DUP4 CALLDATALOAD PUSH1 0x1 PUSH1 0x20 SUB DUP5 CALLDATASIZE SUB SUB DUP2 SLT PUSH2 0x1EDA JUMPI PUSH2 0x1ED9 PUSH2 0x1EAE JUMP JUMPDEST JUMPDEST DUP1 DUP5 ADD SWAP3 POP DUP3 CALLDATALOAD SWAP2 POP PUSH8 0xFFFFFFFFFFFFFFFF DUP3 GT ISZERO PUSH2 0x1EFC JUMPI PUSH2 0x1EFB PUSH2 0x1EB3 JUMP JUMPDEST JUMPDEST PUSH1 0x20 DUP4 ADD SWAP3 POP PUSH1 0x1 DUP3 MUL CALLDATASIZE SUB DUP4 SGT ISZERO PUSH2 0x1F18 JUMPI PUSH2 0x1F17 PUSH2 0x1EB8 JUMP JUMPDEST JUMPDEST POP SWAP3 POP SWAP3 SWAP1 POP JUMP JUMPDEST PUSH2 0x1F29 DUP2 PUSH2 0x19B3 JUMP JUMPDEST DUP3 MSTORE POP POP JUMP JUMPDEST PUSH1 0x0 PUSH1 0xA0 DUP3 ADD SWAP1 POP PUSH2 0x1F44 PUSH1 0x0 DUP4 ADD DUP9 PUSH2 0x1989 JUMP JUMPDEST PUSH2 0x1F51 PUSH1 0x20 DUP4 ADD DUP8 PUSH2 0x1989 JUMP JUMPDEST PUSH2 0x1F5E PUSH1 0x40 DUP4 ADD DUP7 PUSH2 0x1989 JUMP JUMPDEST PUSH2 0x1F6B PUSH1 0x60 DUP4 ADD DUP6 PUSH2 0x181A JUMP JUMPDEST PUSH2 0x1F78 PUSH1 0x80 DUP4 ADD DUP5 PUSH2 0x1F20 JUMP JUMPDEST SWAP7 SWAP6 POP POP POP POP POP POP JUMP JUMPDEST PUSH2 0x1F8B DUP2 PUSH2 0x1A67 JUMP JUMPDEST DUP2 EQ PUSH2 0x1F96 JUMPI PUSH1 0x0 DUP1 REVERT JUMPDEST POP JUMP JUMPDEST PUSH1 0x0 DUP2 MLOAD SWAP1 POP PUSH2 0x1FA8 DUP2 PUSH2 0x1F82 JUMP JUMPDEST SWAP3 SWAP2 POP POP JUMP JUMPDEST PUSH1 0x0 DUP1 PUSH1 0x40 DUP4 DUP6 SUB SLT ISZERO PUSH2 0x1FC5 JUMPI PUSH2 0x1FC4 PUSH2 0x16FC JUMP JUMPDEST JUMPDEST PUSH1 0x0 PUSH2 0x1FD3 DUP6 DUP3 DUP7 ADD PUSH2 0x1AAE JUMP JUMPDEST SWAP3 POP POP PUSH1 0x20 PUSH2 0x1FE4 DUP6 DUP3 DUP7 ADD PUSH2 0x1F99 JUMP JUMPDEST SWAP2 POP POP SWAP3 POP SWAP3 SWAP1 POP JUMP JUMPDEST PUSH1 0x0 PUSH1 0x20 DUP3 DUP5 SUB SLT ISZERO PUSH2 0x2004 JUMPI PUSH2 0x2003 PUSH2 0x16FC JUMP JUMPDEST JUMPDEST PUSH1 0x0 PUSH2 0x2012 DUP5 DUP3 DUP6 ADD PUSH2 0x1CAC JUMP JUMPDEST SWAP2 POP POP SWAP3 SWAP2 POP POP JUMP JUMPDEST PUSH32 0x4F776E61626C653A206E6577206F776E657220697320746865207A65726F2061 PUSH1 0x0 DUP3 ADD MSTORE PUSH32 0x6464726573730000000000000000000000000000000000000000000000000000 PUSH1 0x20 DUP3 ADD MSTORE POP JUMP JUMPDEST PUSH1 0x0 PUSH2 0x2077 PUSH1 0x26 DUP4 PUSH2 0x1AF0 JUMP JUMPDEST SWAP2 POP PUSH2 0x2082 DUP3 PUSH2 0x201B JUMP JUMPDEST PUSH1 0x40 DUP3 ADD SWAP1 POP SWAP2 SWAP1 POP JUMP JUMPDEST PUSH1 0x0 PUSH1 0x20 DUP3 ADD SWAP1 POP DUP2 DUP2 SUB PUSH1 0x0 DUP4 ADD MSTORE PUSH2 0x20A6 DUP2 PUSH2 0x206A JUMP JUMPDEST SWAP1 POP SWAP2 SWAP1 POP JUMP JUMPDEST PUSH32 0x4F776E61626C653A2063616C6C6572206973206E6F7420746865206F776E6572 PUSH1 0x0 DUP3 ADD MSTORE POP JUMP JUMPDEST PUSH1 0x0 PUSH2 0x20E3 PUSH1 0x20 DUP4 PUSH2 0x1AF0 JUMP JUMPDEST SWAP2 POP PUSH2 0x20EE DUP3 PUSH2 0x20AD JUMP JUMPDEST PUSH1 0x20 DUP3 ADD SWAP1 POP SWAP2 SWAP1 POP JUMP JUMPDEST PUSH1 0x0 PUSH1 0x20 DUP3 ADD SWAP1 POP DUP2 DUP2 SUB PUSH1 0x0 DUP4 ADD MSTORE PUSH2 0x2112 DUP2 PUSH2 0x20D6 JUMP JUMPDEST SWAP1 POP SWAP2 SWAP1 POP JUMP JUMPDEST PUSH1 0x0 PUSH1 0x40 DUP3 ADD SWAP1 POP PUSH2 0x212E PUSH1 0x0 DUP4 ADD DUP6 PUSH2 0x1989 JUMP JUMPDEST PUSH2 0x213B PUSH1 0x20 DUP4 ADD DUP5 PUSH2 0x181A JUMP JUMPDEST SWAP4 SWAP3 POP POP POP JUMP JUMPDEST PUSH1 0x0 DUP2 MLOAD SWAP1 POP SWAP2 SWAP1 POP JUMP JUMPDEST PUSH1 0x0 DUP2 SWAP1 POP SWAP3 SWAP2 POP POP JUMP JUMPDEST PUSH1 0x0 JUMPDEST DUP4 DUP2 LT ISZERO PUSH2 0x2176 JUMPI DUP1 DUP3 ADD MLOAD DUP2 DUP5 ADD MSTORE PUSH1 0x20 DUP2 ADD SWAP1 POP PUSH2 0x215B JUMP JUMPDEST PUSH1 0x0 DUP5 DUP5 ADD MSTORE POP POP POP POP JUMP JUMPDEST PUSH1 0x0 PUSH2 0x218D DUP3 PUSH2 0x2142 JUMP JUMPDEST PUSH2 0x2197 DUP2 DUP6 PUSH2 0x214D JUMP JUMPDEST SWAP4 POP PUSH2 0x21A7 DUP2 DUP6 PUSH1 0x20 DUP7 ADD PUSH2 0x2158 JUMP JUMPDEST DUP1 DUP5 ADD SWAP2 POP POP SWAP3 SWAP2 POP POP JUMP JUMPDEST PUSH1 0x0 PUSH2 0x21BF DUP3 DUP5 PUSH2 0x2182 JUMP JUMPDEST SWAP2 POP DUP2 SWAP1 POP SWAP3 SWAP2 POP POP JUMP JUMPDEST PUSH1 0x0 DUP2 MLOAD SWAP1 POP PUSH2 0x21D9 DUP2 PUSH2 0x1C95 JUMP JUMPDEST SWAP3 SWAP2 POP POP JUMP JUMPDEST PUSH1 0x0 PUSH1 0x20 DUP3 DUP5 SUB SLT ISZERO PUSH2 0x21F5 JUMPI PUSH2 0x21F4 PUSH2 0x16FC JUMP JUMPDEST JUMPDEST PUSH1 0x0 PUSH2 0x2203 DUP5 DUP3 DUP6 ADD PUSH2 0x21CA JUMP JUMPDEST SWAP2 POP POP SWAP3 SWAP2 POP POP JUMP JUMPDEST PUSH32 0x45786368616E676541676772656761746F723A3A5472616E7366657248656C70 PUSH1 0x0 DUP3 ADD MSTORE PUSH32 0x65723A736166655472616E736665720000000000000000000000000000000000 PUSH1 0x20 DUP3 ADD MSTORE POP JUMP JUMPDEST PUSH1 0x0 PUSH2 0x2268 PUSH1 0x2F DUP4 PUSH2 0x1AF0 JUMP JUMPDEST SWAP2 POP PUSH2 0x2273 DUP3 PUSH2 0x220C JUMP JUMPDEST PUSH1 0x40 DUP3 ADD SWAP1 POP SWAP2 SWAP1 POP JUMP JUMPDEST PUSH1 0x0 PUSH1 0x20 DUP3 ADD SWAP1 POP DUP2 DUP2 SUB PUSH1 0x0 DUP4 ADD MSTORE PUSH2 0x2297 DUP2 PUSH2 0x225B JUMP JUMPDEST SWAP1 POP SWAP2 SWAP1 POP JUMP JUMPDEST PUSH32 0x4E487B7100000000000000000000000000000000000000000000000000000000 PUSH1 0x0 MSTORE PUSH1 0x32 PUSH1 0x4 MSTORE PUSH1 0x24 PUSH1 0x0 REVERT JUMPDEST PUSH32 0x646174612074616D706572656400000000000000000000000000000000000000 PUSH1 0x0 DUP3 ADD MSTORE POP JUMP JUMPDEST PUSH1 0x0 PUSH2 0x2303 PUSH1 0xD DUP4 PUSH2 0x1AF0 JUMP JUMPDEST SWAP2 POP PUSH2 0x230E DUP3 PUSH2 0x22CD JUMP JUMPDEST PUSH1 0x20 DUP3 ADD SWAP1 POP SWAP2 SWAP1 POP JUMP JUMPDEST PUSH1 0x0 PUSH1 0x20 DUP3 ADD SWAP1 POP DUP2 DUP2 SUB PUSH1 0x0 DUP4 ADD MSTORE PUSH2 0x2332 DUP2 PUSH2 0x22F6 JUMP JUMPDEST SWAP1 POP SWAP2 SWAP1 POP JUMP JUMPDEST PUSH32 0x45786368616E676541676772656761746F723A3A5361666543616C6C65723A73 PUSH1 0x0 DUP3 ADD MSTORE PUSH32 0x61666543616C6C00000000000000000000000000000000000000000000000000 PUSH1 0x20 DUP3 ADD MSTORE POP JUMP JUMPDEST PUSH1 0x0 PUSH2 0x2395 PUSH1 0x27 DUP4 PUSH2 0x1AF0 JUMP JUMPDEST SWAP2 POP PUSH2 0x23A0 DUP3 PUSH2 0x2339 JUMP JUMPDEST PUSH1 0x40 DUP3 ADD SWAP1 POP SWAP2 SWAP1 POP JUMP JUMPDEST PUSH1 0x0 PUSH1 0x20 DUP3 ADD SWAP1 POP DUP2 DUP2 SUB PUSH1 0x0 DUP4 ADD MSTORE PUSH2 0x23C4 DUP2 PUSH2 0x2388 JUMP JUMPDEST SWAP1 POP SWAP2 SWAP1 POP JUMP JUMPDEST PUSH1 0x0 DUP1 REVERT JUMPDEST PUSH32 0x4E487B7100000000000000000000000000000000000000000000000000000000 PUSH1 0x0 MSTORE PUSH1 0x41 PUSH1 0x4 MSTORE PUSH1 0x24 PUSH1 0x0 REVERT JUMPDEST PUSH2 0x2408 DUP3 PUSH2 0x1C4B JUMP JUMPDEST DUP2 ADD DUP2 DUP2 LT PUSH8 0xFFFFFFFFFFFFFFFF DUP3 GT OR ISZERO PUSH2 0x2427 JUMPI PUSH2 0x2426 PUSH2 0x23D0 JUMP JUMPDEST JUMPDEST DUP1 PUSH1 0x40 MSTORE POP POP POP JUMP JUMPDEST PUSH1 0x0 PUSH2 0x243A PUSH2 0x16F2 JUMP JUMPDEST SWAP1 POP PUSH2 0x2446 DUP3 DUP3 PUSH2 0x23FF JUMP JUMPDEST SWAP2 SWAP1 POP JUMP JUMPDEST PUSH1 0x0 PUSH8 0xFFFFFFFFFFFFFFFF DUP3 GT ISZERO PUSH2 0x2466 JUMPI PUSH2 0x2465 PUSH2 0x23D0 JUMP JUMPDEST JUMPDEST PUSH2 0x246F DUP3 PUSH2 0x1C4B JUMP JUMPDEST SWAP1 POP PUSH1 0x20 DUP2 ADD SWAP1 POP SWAP2 SWAP1 POP JUMP JUMPDEST PUSH1 0x0 PUSH2 0x248F PUSH2 0x248A DUP5 PUSH2 0x244B JUMP JUMPDEST PUSH2 0x2430 JUMP JUMPDEST SWAP1 POP DUP3 DUP2 MSTORE PUSH1 0x20 DUP2 ADD DUP5 DUP5 DUP5 ADD GT ISZERO PUSH2 0x24AB JUMPI PUSH2 0x24AA PUSH2 0x23CB JUMP JUMPDEST JUMPDEST PUSH2 0x24B6 DUP5 DUP3 DUP6 PUSH2 0x2158 JUMP JUMPDEST POP SWAP4 SWAP3 POP POP POP JUMP JUMPDEST PUSH1 0x0 DUP3 PUSH1 0x1F DUP4 ADD SLT PUSH2 0x24D3 JUMPI PUSH2 0x24D2 PUSH2 0x1868 JUMP JUMPDEST JUMPDEST DUP2 MLOAD PUSH2 0x24E3 DUP5 DUP3 PUSH1 0x20 DUP7 ADD PUSH2 0x247C JUMP JUMPDEST SWAP2 POP POP SWAP3 SWAP2 POP POP JUMP JUMPDEST PUSH1 0x0 PUSH1 0x20 DUP3 DUP5 SUB SLT ISZERO PUSH2 0x2502 JUMPI PUSH2 0x2501 PUSH2 0x16FC JUMP JUMPDEST JUMPDEST PUSH1 0x0 DUP3 ADD MLOAD PUSH8 0xFFFFFFFFFFFFFFFF DUP2 GT ISZERO PUSH2 0x2520 JUMPI PUSH2 0x251F PUSH2 0x1701 JUMP JUMPDEST JUMPDEST PUSH2 0x252C DUP5 DUP3 DUP6 ADD PUSH2 0x24BE JUMP JUMPDEST SWAP2 POP POP SWAP3 SWAP2 POP POP JUMP JUMPDEST PUSH1 0x0 DUP2 MLOAD SWAP1 POP SWAP2 SWAP1 POP JUMP JUMPDEST PUSH1 0x0 PUSH2 0x254B DUP3 PUSH2 0x2535 JUMP JUMPDEST PUSH2 0x2555 DUP2 DUP6 PUSH2 0x1AF0 JUMP JUMPDEST SWAP4 POP PUSH2 0x2565 DUP2 DUP6 PUSH1 0x20 DUP7 ADD PUSH2 0x2158 JUMP JUMPDEST PUSH2 0x256E DUP2 PUSH2 0x1C4B JUMP JUMPDEST DUP5 ADD SWAP2 POP POP SWAP3 SWAP2 POP POP JUMP JUMPDEST PUSH1 0x0 PUSH1 0x20 DUP3 ADD SWAP1 POP DUP2 DUP2 SUB PUSH1 0x0 DUP4 ADD MSTORE PUSH2 0x2593 DUP2 DUP5 PUSH2 0x2540 JUMP JUMPDEST SWAP1 POP SWAP3 SWAP2 POP POP JUMP JUMPDEST PUSH32 0x45786368616E676541676772656761746F723A3A5472616E7366657248656C70 PUSH1 0x0 DUP3 ADD MSTORE PUSH32 0x65723A736166655472616E736665724554480000000000000000000000000000 PUSH1 0x20 DUP3 ADD MSTORE POP JUMP JUMPDEST PUSH1 0x0 PUSH2 0x25F7 PUSH1 0x32 DUP4 PUSH2 0x1AF0 JUMP JUMPDEST SWAP2 POP PUSH2 0x2602 DUP3 PUSH2 0x259B JUMP JUMPDEST PUSH1 0x40 DUP3 ADD SWAP1 POP SWAP2 SWAP1 POP JUMP JUMPDEST PUSH1 0x0 PUSH1 0x20 DUP3 ADD SWAP1 POP DUP2 DUP2 SUB PUSH1 0x0 DUP4 ADD MSTORE PUSH2 0x2626 DUP2 PUSH2 0x25EA JUMP JUMPDEST SWAP1 POP SWAP2 SWAP1 POP JUMP JUMPDEST PUSH1 0x0 PUSH1 0x60 DUP3 ADD SWAP1 POP PUSH2 0x2642 PUSH1 0x0 DUP4 ADD DUP7 PUSH2 0x1989 JUMP JUMPDEST PUSH2 0x264F PUSH1 0x20 DUP4 ADD DUP6 PUSH2 0x1989 JUMP JUMPDEST PUSH2 0x265C PUSH1 0x40 DUP4 ADD DUP5 PUSH2 0x181A JUMP JUMPDEST SWAP5 SWAP4 POP POP POP POP JUMP JUMPDEST PUSH32 0x45786368616E676541676772656761746F723A3A5472616E7366657248656C70 PUSH1 0x0 DUP3 ADD MSTORE PUSH32 0x65723A736166655472616E7366657246726F6D00000000000000000000000000 PUSH1 0x20 DUP3 ADD MSTORE POP JUMP JUMPDEST PUSH1 0x0 PUSH2 0x26C0 PUSH1 0x33 DUP4 PUSH2 0x1AF0 JUMP JUMPDEST SWAP2 POP PUSH2 0x26CB DUP3 PUSH2 0x2664 JUMP JUMPDEST PUSH1 0x40 DUP3 ADD SWAP1 POP SWAP2 SWAP1 POP JUMP JUMPDEST PUSH1 0x0 PUSH1 0x20 DUP3 ADD SWAP1 POP DUP2 DUP2 SUB PUSH1 0x0 DUP4 ADD MSTORE PUSH2 0x26EF DUP2 PUSH2 0x26B3 JUMP JUMPDEST SWAP1 POP SWAP2 SWAP1 POP JUMP JUMPDEST PUSH32 0x45786368616E676541676772656761746F723A3A5472616E7366657248656C70 PUSH1 0x0 DUP3 ADD MSTORE PUSH32 0x65723A73616665417070726F7665000000000000000000000000000000000000 PUSH1 0x20 DUP3 ADD MSTORE POP JUMP JUMPDEST PUSH1 0x0 PUSH2 0x2752 PUSH1 0x2E DUP4 PUSH2 0x1AF0 JUMP JUMPDEST SWAP2 POP PUSH2 0x275D DUP3 PUSH2 0x26F6 JUMP JUMPDEST PUSH1 0x40 DUP3 ADD SWAP1 POP SWAP2 SWAP1 POP JUMP JUMPDEST PUSH1 0x0 PUSH1 0x20 DUP3 ADD SWAP1 POP DUP2 DUP2 SUB PUSH1 0x0 DUP4 ADD MSTORE PUSH2 0x2781 DUP2 PUSH2 0x2745 JUMP JUMPDEST SWAP1 POP SWAP2 SWAP1 POP JUMP JUMPDEST PUSH32 0x4E487B7100000000000000000000000000000000000000000000000000000000 PUSH1 0x0 MSTORE PUSH1 0x21 PUSH1 0x4 MSTORE PUSH1 0x24 PUSH1 0x0 REVERT JUMPDEST PUSH32 0x45434453413A20696E76616C6964207369676E61747572650000000000000000 PUSH1 0x0 DUP3 ADD MSTORE POP JUMP JUMPDEST PUSH1 0x0 PUSH2 0x27ED PUSH1 0x18 DUP4 PUSH2 0x1AF0 JUMP JUMPDEST SWAP2 POP PUSH2 0x27F8 DUP3 PUSH2 0x27B7 JUMP JUMPDEST PUSH1 0x20 DUP3 ADD SWAP1 POP SWAP2 SWAP1 POP JUMP JUMPDEST PUSH1 0x0 PUSH1 0x20 DUP3 ADD SWAP1 POP DUP2 DUP2 SUB PUSH1 0x0 DUP4 ADD MSTORE PUSH2 0x281C DUP2 PUSH2 0x27E0 JUMP JUMPDEST SWAP1 POP SWAP2 SWAP1 POP JUMP JUMPDEST PUSH32 0x45434453413A20696E76616C6964207369676E6174757265206C656E67746800 PUSH1 0x0 DUP3 ADD MSTORE POP JUMP JUMPDEST PUSH1 0x0 PUSH2 0x2859 PUSH1 0x1F DUP4 PUSH2 0x1AF0 JUMP JUMPDEST SWAP2 POP PUSH2 0x2864 DUP3 PUSH2 0x2823 JUMP JUMPDEST PUSH1 0x20 DUP3 ADD SWAP1 POP SWAP2 SWAP1 POP JUMP JUMPDEST PUSH1 0x0 PUSH1 0x20 DUP3 ADD SWAP1 POP DUP2 DUP2 SUB PUSH1 0x0 DUP4 ADD MSTORE PUSH2 0x2888 DUP2 PUSH2 0x284C JUMP JUMPDEST SWAP1 POP SWAP2 SWAP1 POP JUMP JUMPDEST PUSH32 0x45434453413A20696E76616C6964207369676E6174757265202773272076616C PUSH1 0x0 DUP3 ADD MSTORE PUSH32 0x7565000000000000000000000000000000000000000000000000000000000000 PUSH1 0x20 DUP3 ADD MSTORE POP JUMP JUMPDEST PUSH1 0x0 PUSH2 0x28EB PUSH1 0x22 DUP4 PUSH2 0x1AF0 JUMP JUMPDEST SWAP2 POP PUSH2 0x28F6 DUP3 PUSH2 0x288F JUMP JUMPDEST PUSH1 0x40 DUP3 ADD SWAP1 POP SWAP2 SWAP1 POP JUMP JUMPDEST PUSH1 0x0 PUSH1 0x20 DUP3 ADD SWAP1 POP DUP2 DUP2 SUB PUSH1 0x0 DUP4 ADD MSTORE PUSH2 0x291A DUP2 PUSH2 0x28DE JUMP JUMPDEST SWAP1 POP SWAP2 SWAP1 POP JUMP JUMPDEST PUSH1 0x0 DUP2 SWAP1 POP SWAP2 SWAP1 POP JUMP JUMPDEST PUSH2 0x2934 DUP2 PUSH2 0x2921 JUMP JUMPDEST DUP3 MSTORE POP POP JUMP JUMPDEST PUSH1 0x0 PUSH1 0x80 DUP3 ADD SWAP1 POP PUSH2 0x294F PUSH1 0x0 DUP4 ADD DUP8 PUSH2 0x292B JUMP JUMPDEST PUSH2 0x295C PUSH1 0x20 DUP4 ADD DUP7 PUSH2 0x1F20 JUMP JUMPDEST PUSH2 0x2969 PUSH1 0x40 DUP4 ADD DUP6 PUSH2 0x292B JUMP JUMPDEST PUSH2 0x2976 PUSH1 0x60 DUP4 ADD DUP5 PUSH2 0x292B JUMP JUMPDEST SWAP6 SWAP5 POP POP POP POP POP JUMP INVALID LOG2 PUSH5 0x6970667358 0x22 SLT KECCAK256 PUSH7 0xF7B97AB36016F6 DELEGATECALL 0xBB MUL 0xC0 0xEC BALANCE 0x2E PUSH19 0x3E91D8BF2F87EB0649F1530F883ACF664736F PUSH13 0x63430008120033000000000000 "
				},
				"gasEstimates": {
					"creation": {
						"codeDepositCost": "2135400",
						"executionCost": "infinite",
						"totalCost": "infinite"
					},
					"external": {
						"Edge()": "188",
						"PriceProvider()": "2581",
						"Swap0((address,uint256,uint256,address,bytes,address,bool),bytes)": "infinite",
						"balanceETH()": "405",
						"balanceToken(address)": "infinite",
						"changePriceProvider(address)": "27008",
						"estimateAmountOut(address,address,address,uint256,uint8)": "infinite",
						"owner()": "2589",
						"renounceOwnership()": "30443",
						"swap((address,uint256,uint256,address,bytes,address,bool),bytes)": "infinite",
						"swapNativeIn((address,uint256,uint256,address,bytes,address,bool),bytes)": "infinite",
						"transferOwnership(address)": "30832",
						"withdrawETH(address,uint256)": "infinite",
						"withdrawToken(address,address,uint256)": "infinite"
					}
				},
				"methodIdentifiers": {
					"Edge()": "105d8ccf",
					"PriceProvider()": "4e1a67f5",
					"Swap0((address,uint256,uint256,address,bytes,address,bool),bytes)": "6f171b51",
					"balanceETH()": "ecbdbb32",
					"balanceToken(address)": "04599012",
					"changePriceProvider(address)": "ae4f5be8",
					"estimateAmountOut(address,address,address,uint256,uint8)": "6110358d",
					"owner()": "8da5cb5b",
					"renounceOwnership()": "715018a6",
					"swap((address,uint256,uint256,address,bytes,address,bool),bytes)": "ea0dc9f7",
					"swapNativeIn((address,uint256,uint256,address,bytes,address,bool),bytes)": "29f92104",
					"transferOwnership(address)": "f2fde38b",
					"withdrawETH(address,uint256)": "4782f779",
					"withdrawToken(address,address,uint256)": "01e33667"
				}
			},
			"storageLayout": {
				"storage": [
					{
						"astId": 7,
						"contract": "contracts/ExchangeAggregator.sol:ExchangeAggregator",
						"label": "_owner",
						"offset": 0,
						"slot": "0",
						"type": "t_address"
					},
					{
						"astId": 1494,
						"contract": "contracts/ExchangeAggregator.sol:ExchangeAggregator",
						"label": "PriceProvider",
						"offset": 0,
						"slot": "1",
						"type": "t_address"
					}
				],
				"types": {
					"t_address": {
						"encoding": "inplace",
						"label": "address",
						"numberOfBytes": "20"
					}
				}
			},
			"userdoc": {
				"kind": "user",
				"methods": {},
				"version": 1
			}
		}
	}
}