{
	"contracts/libraries/utils.sol": {
		"utils": {
			"abi": [
				{
					"inputs": [
						{
							"components": [
								{
									"internalType": "address",
									"name": "input",
									"type": "address"
								},
								{
									"internalType": "uint256",
									"name": "totalAmount",
									"type": "uint256"
								},
								{
									"internalType": "uint256",
									"name": "feeAmount",
									"type": "uint256"
								},
								{
									"internalType": "address",
									"name": "swapper",
									"type": "address"
								},
								{
									"internalType": "bytes",
									"name": "data",
									"type": "bytes"
								},
								{
									"internalType": "address",
									"name": "sender",
									"type": "address"
								},
								{
									"internalType": "bool",
									"name": "native",
									"type": "bool"
								}
							],
							"internalType": "struct IExchangeAggregator.swapData",
							"name": "data",
							"type": "tuple"
						},
						{
							"internalType": "bytes",
							"name": "sig",
							"type": "bytes"
						}
					],
					"name": "signer",
					"outputs": [
						{
							"internalType": "address",
							"name": "",
							"type": "address"
						}
					],
					"stateMutability": "pure",
					"type": "function"
				}
			],
			"devdoc": {
				"kind": "dev",
				"methods": {},
				"version": 1
			},
			"evm": {
				"assembly": "    /* \"contracts/libraries/utils.sol\":170:766  library utils {... */\n  dataSize(sub_0)\n  dataOffset(sub_0)\n  0x0b\n  dup3\n  dup3\n  dup3\n  codecopy\n  dup1\n  mload\n  0x00\n  byte\n  0x73\n  eq\n  tag_1\n  jumpi\n  mstore(0x00, 0x4e487b7100000000000000000000000000000000000000000000000000000000)\n  mstore(0x04, 0x00)\n  revert(0x00, 0x24)\ntag_1:\n  mstore(0x00, address)\n  0x73\n  dup2\n  mstore8\n  dup3\n  dup2\n  return\nstop\n\nsub_0: assembly {\n        /* \"contracts/libraries/utils.sol\":170:766  library utils {... */\n      eq(address, deployTimeAddress())\n      mstore(0x40, 0x80)\n      jumpi(tag_1, lt(calldatasize, 0x04))\n      shr(0xe0, calldataload(0x00))\n      dup1\n      0x4f5fdbe5\n      eq\n      tag_2\n      jumpi\n    tag_1:\n      0x00\n      dup1\n      revert\n        /* \"contracts/libraries/utils.sol\":490:655  function signer(IExchangeAggregator.swapData calldata data, bytes memory sig) public pure returns(address){... */\n    tag_2:\n      tag_3\n      0x04\n      dup1\n      calldatasize\n      sub\n      dup2\n      add\n      swap1\n      tag_4\n      swap2\n      swap1\n      tag_5\n      jump\t// in\n    tag_4:\n      tag_6\n      jump\t// in\n    tag_3:\n      mload(0x40)\n      tag_7\n      swap2\n      swap1\n      tag_8\n      jump\t// in\n    tag_7:\n      mload(0x40)\n      dup1\n      swap2\n      sub\n      swap1\n      return\n    tag_6:\n        /* \"contracts/libraries/utils.sol\":588:595  address */\n      0x00\n        /* \"contracts/libraries/utils.sol\":613:648  hash(abi.encode(data)).recover(sig) */\n      tag_10\n        /* \"contracts/libraries/utils.sol\":644:647  sig */\n      dup3\n        /* \"contracts/libraries/utils.sol\":613:635  hash(abi.encode(data)) */\n      tag_11\n        /* \"contracts/libraries/utils.sol\":629:633  data */\n      dup6\n        /* \"contracts/libraries/utils.sol\":618:634  abi.encode(data) */\n      add(0x20, mload(0x40))\n      tag_12\n      swap2\n      swap1\n      tag_13\n      jump\t// in\n    tag_12:\n      mload(0x40)\n      0x20\n      dup2\n      dup4\n      sub\n      sub\n      dup2\n      mstore\n      swap1\n      0x40\n      mstore\n        /* \"contracts/libraries/utils.sol\":613:617  hash */\n      tag_14\n        /* \"contracts/libraries/utils.sol\":613:635  hash(abi.encode(data)) */\n      jump\t// in\n    tag_11:\n        /* \"contracts/libraries/utils.sol\":613:643  hash(abi.encode(data)).recover */\n      tag_15\n      swap1\n        /* \"contracts/libraries/utils.sol\":613:648  hash(abi.encode(data)).recover(sig) */\n      swap2\n      swap1\n      0xffffffff\n      and\n      jump\t// in\n    tag_10:\n        /* \"contracts/libraries/utils.sol\":606:648  return hash(abi.encode(data)).recover(sig) */\n      swap1\n      pop\n        /* \"contracts/libraries/utils.sol\":490:655  function signer(IExchangeAggregator.swapData calldata data, bytes memory sig) public pure returns(address){... */\n      swap3\n      swap2\n      pop\n      pop\n      jump\t// out\n        /* \"contracts/libraries/utils.sol\":661:764  function hash(bytes memory data) private pure returns (bytes32) {... */\n    tag_14:\n        /* \"contracts/libraries/utils.sol\":716:723  bytes32 */\n      0x00\n        /* \"contracts/libraries/utils.sol\":752:756  data */\n      dup2\n        /* \"contracts/libraries/utils.sol\":742:757  keccak256(data) */\n      dup1\n      mload\n      swap1\n      0x20\n      add\n      keccak256\n        /* \"contracts/libraries/utils.sol\":735:757  return keccak256(data) */\n      swap1\n      pop\n        /* \"contracts/libraries/utils.sol\":661:764  function hash(bytes memory data) private pure returns (bytes32) {... */\n      swap2\n      swap1\n      pop\n      jump\t// out\n        /* \"@openzeppelin/contracts/utils/cryptography/ECDSA.sol\":3661:3888  function recover(bytes32 hash, bytes memory signature) internal pure returns (address) {... */\n    tag_15:\n        /* \"@openzeppelin/contracts/utils/cryptography/ECDSA.sol\":3739:3746  address */\n      0x00\n        /* \"@openzeppelin/contracts/utils/cryptography/ECDSA.sol\":3759:3776  address recovered */\n      dup1\n        /* \"@openzeppelin/contracts/utils/cryptography/ECDSA.sol\":3778:3796  RecoverError error */\n      0x00\n        /* \"@openzeppelin/contracts/utils/cryptography/ECDSA.sol\":3800:3827  tryRecover(hash, signature) */\n      tag_18\n        /* \"@openzeppelin/contracts/utils/cryptography/ECDSA.sol\":3811:3815  hash */\n      dup6\n        /* \"@openzeppelin/contracts/utils/cryptography/ECDSA.sol\":3817:3826  signature */\n      dup6\n        /* \"@openzeppelin/contracts/utils/cryptography/ECDSA.sol\":3800:3810  tryRecover */\n      tag_19\n        /* \"@openzeppelin/contracts/utils/cryptography/ECDSA.sol\":3800:3827  tryRecover(hash, signature) */\n      jump\t// in\n    tag_18:\n        /* \"@openzeppelin/contracts/utils/cryptography/ECDSA.sol\":3758:3827  (address recovered, RecoverError error) = tryRecover(hash, signature) */\n      swap2\n      pop\n      swap2\n      pop\n        /* \"@openzeppelin/contracts/utils/cryptography/ECDSA.sol\":3837:3855  _throwError(error) */\n      tag_20\n        /* \"@openzeppelin/contracts/utils/cryptography/ECDSA.sol\":3849:3854  error */\n      dup2\n        /* \"@openzeppelin/contracts/utils/cryptography/ECDSA.sol\":3837:3848  _throwError */\n      tag_21\n        /* \"@openzeppelin/contracts/utils/cryptography/ECDSA.sol\":3837:3855  _throwError(error) */\n      jump\t// in\n    tag_20:\n        /* \"@openzeppelin/contracts/utils/cryptography/ECDSA.sol\":3872:3881  recovered */\n      dup2\n        /* \"@openzeppelin/contracts/utils/cryptography/ECDSA.sol\":3865:3881  return recovered */\n      swap3\n      pop\n      pop\n      pop\n        /* \"@openzeppelin/contracts/utils/cryptography/ECDSA.sol\":3661:3888  function recover(bytes32 hash, bytes memory signature) internal pure returns (address) {... */\n      swap3\n      swap2\n      pop\n      pop\n      jump\t// out\n        /* \"@openzeppelin/contracts/utils/cryptography/ECDSA.sol\":2145:2875  function tryRecover(bytes32 hash, bytes memory signature) internal pure returns (address, RecoverError) {... */\n    tag_19:\n        /* \"@openzeppelin/contracts/utils/cryptography/ECDSA.sol\":2226:2233  address */\n      0x00\n        /* \"@openzeppelin/contracts/utils/cryptography/ECDSA.sol\":2235:2247  RecoverError */\n      dup1\n        /* \"@openzeppelin/contracts/utils/cryptography/ECDSA.sol\":2283:2285  65 */\n      0x41\n        /* \"@openzeppelin/contracts/utils/cryptography/ECDSA.sol\":2263:2272  signature */\n      dup4\n        /* \"@openzeppelin/contracts/utils/cryptography/ECDSA.sol\":2263:2279  signature.length */\n      mload\n        /* \"@openzeppelin/contracts/utils/cryptography/ECDSA.sol\":2263:2285  signature.length == 65 */\n      sub\n        /* \"@openzeppelin/contracts/utils/cryptography/ECDSA.sol\":2259:2869  if (signature.length == 65) {... */\n      tag_23\n      jumpi\n        /* \"@openzeppelin/contracts/utils/cryptography/ECDSA.sol\":2301:2310  bytes32 r */\n      0x00\n        /* \"@openzeppelin/contracts/utils/cryptography/ECDSA.sol\":2324:2333  bytes32 s */\n      dup1\n        /* \"@openzeppelin/contracts/utils/cryptography/ECDSA.sol\":2347:2354  uint8 v */\n      0x00\n        /* \"@openzeppelin/contracts/utils/cryptography/ECDSA.sol\":2599:2603  0x20 */\n      0x20\n        /* \"@openzeppelin/contracts/utils/cryptography/ECDSA.sol\":2588:2597  signature */\n      dup7\n        /* \"@openzeppelin/contracts/utils/cryptography/ECDSA.sol\":2584:2604  add(signature, 0x20) */\n      add\n        /* \"@openzeppelin/contracts/utils/cryptography/ECDSA.sol\":2578:2605  mload(add(signature, 0x20)) */\n      mload\n        /* \"@openzeppelin/contracts/utils/cryptography/ECDSA.sol\":2573:2605  r := mload(add(signature, 0x20)) */\n      swap3\n      pop\n        /* \"@openzeppelin/contracts/utils/cryptography/ECDSA.sol\":2648:2652  0x40 */\n      0x40\n        /* \"@openzeppelin/contracts/utils/cryptography/ECDSA.sol\":2637:2646  signature */\n      dup7\n        /* \"@openzeppelin/contracts/utils/cryptography/ECDSA.sol\":2633:2653  add(signature, 0x40) */\n      add\n        /* \"@openzeppelin/contracts/utils/cryptography/ECDSA.sol\":2627:2654  mload(add(signature, 0x40)) */\n      mload\n        /* \"@openzeppelin/contracts/utils/cryptography/ECDSA.sol\":2622:2654  s := mload(add(signature, 0x40)) */\n      swap2\n      pop\n        /* \"@openzeppelin/contracts/utils/cryptography/ECDSA.sol\":2705:2709  0x60 */\n      0x60\n        /* \"@openzeppelin/contracts/utils/cryptography/ECDSA.sol\":2694:2703  signature */\n      dup7\n        /* \"@openzeppelin/contracts/utils/cryptography/ECDSA.sol\":2690:2710  add(signature, 0x60) */\n      add\n        /* \"@openzeppelin/contracts/utils/cryptography/ECDSA.sol\":2684:2711  mload(add(signature, 0x60)) */\n      mload\n        /* \"@openzeppelin/contracts/utils/cryptography/ECDSA.sol\":2681:2682  0 */\n      0x00\n        /* \"@openzeppelin/contracts/utils/cryptography/ECDSA.sol\":2676:2712  byte(0, mload(add(signature, 0x60))) */\n      byte\n        /* \"@openzeppelin/contracts/utils/cryptography/ECDSA.sol\":2671:2712  v := byte(0, mload(add(signature, 0x60))) */\n      swap1\n      pop\n        /* \"@openzeppelin/contracts/utils/cryptography/ECDSA.sol\":2746:2771  tryRecover(hash, v, r, s) */\n      tag_24\n        /* \"@openzeppelin/contracts/utils/cryptography/ECDSA.sol\":2757:2761  hash */\n      dup8\n        /* \"@openzeppelin/contracts/utils/cryptography/ECDSA.sol\":2763:2764  v */\n      dup3\n        /* \"@openzeppelin/contracts/utils/cryptography/ECDSA.sol\":2766:2767  r */\n      dup6\n        /* \"@openzeppelin/contracts/utils/cryptography/ECDSA.sol\":2769:2770  s */\n      dup6\n        /* \"@openzeppelin/contracts/utils/cryptography/ECDSA.sol\":2746:2756  tryRecover */\n      tag_25\n        /* \"@openzeppelin/contracts/utils/cryptography/ECDSA.sol\":2746:2771  tryRecover(hash, v, r, s) */\n      jump\t// in\n    tag_24:\n        /* \"@openzeppelin/contracts/utils/cryptography/ECDSA.sol\":2739:2771  return tryRecover(hash, v, r, s) */\n      swap5\n      pop\n      swap5\n      pop\n      pop\n      pop\n      pop\n      jump(tag_22)\n        /* \"@openzeppelin/contracts/utils/cryptography/ECDSA.sol\":2259:2869  if (signature.length == 65) {... */\n    tag_23:\n        /* \"@openzeppelin/contracts/utils/cryptography/ECDSA.sol\":2818:2819  0 */\n      0x00\n        /* \"@openzeppelin/contracts/utils/cryptography/ECDSA.sol\":2822:2857  RecoverError.InvalidSignatureLength */\n      0x02\n        /* \"@openzeppelin/contracts/utils/cryptography/ECDSA.sol\":2802:2858  return (address(0), RecoverError.InvalidSignatureLength) */\n      swap2\n      pop\n      swap2\n      pop\n        /* \"@openzeppelin/contracts/utils/cryptography/ECDSA.sol\":2145:2875  function tryRecover(bytes32 hash, bytes memory signature) internal pure returns (address, RecoverError) {... */\n    tag_22:\n      swap3\n      pop\n      swap3\n      swap1\n      pop\n      jump\t// out\n        /* \"@openzeppelin/contracts/utils/cryptography/ECDSA.sol\":570:1081  function _throwError(RecoverError error) private pure {... */\n    tag_21:\n        /* \"@openzeppelin/contracts/utils/cryptography/ECDSA.sol\":647:667  RecoverError.NoError */\n      0x00\n        /* \"@openzeppelin/contracts/utils/cryptography/ECDSA.sol\":638:667  error == RecoverError.NoError */\n      0x04\n      dup2\n      gt\n      iszero\n      tag_28\n      jumpi\n      tag_29\n      tag_30\n      jump\t// in\n    tag_29:\n    tag_28:\n        /* \"@openzeppelin/contracts/utils/cryptography/ECDSA.sol\":638:643  error */\n      dup2\n        /* \"@openzeppelin/contracts/utils/cryptography/ECDSA.sol\":638:667  error == RecoverError.NoError */\n      0x04\n      dup2\n      gt\n      iszero\n      tag_31\n      jumpi\n      tag_32\n      tag_30\n      jump\t// in\n    tag_32:\n    tag_31:\n      sub\n        /* \"@openzeppelin/contracts/utils/cryptography/ECDSA.sol\":634:1075  if (error == RecoverError.NoError) {... */\n      iszero\n        /* \"@openzeppelin/contracts/utils/cryptography/ECDSA.sol\":683:690  return; */\n      tag_27\n        /* \"@openzeppelin/contracts/utils/cryptography/ECDSA.sol\":634:1075  if (error == RecoverError.NoError) {... */\n      jumpi\n        /* \"@openzeppelin/contracts/utils/cryptography/ECDSA.sol\":743:772  RecoverError.InvalidSignature */\n      0x01\n        /* \"@openzeppelin/contracts/utils/cryptography/ECDSA.sol\":734:772  error == RecoverError.InvalidSignature */\n      0x04\n      dup2\n      gt\n      iszero\n      tag_35\n      jumpi\n      tag_36\n      tag_30\n      jump\t// in\n    tag_36:\n    tag_35:\n        /* \"@openzeppelin/contracts/utils/cryptography/ECDSA.sol\":734:739  error */\n      dup2\n        /* \"@openzeppelin/contracts/utils/cryptography/ECDSA.sol\":734:772  error == RecoverError.InvalidSignature */\n      0x04\n      dup2\n      gt\n      iszero\n      tag_37\n      jumpi\n      tag_38\n      tag_30\n      jump\t// in\n    tag_38:\n    tag_37:\n      sub\n        /* \"@openzeppelin/contracts/utils/cryptography/ECDSA.sol\":730:1075  if (error == RecoverError.InvalidSignature) {... */\n      tag_39\n      jumpi\n        /* \"@openzeppelin/contracts/utils/cryptography/ECDSA.sol\":788:822  revert(\"ECDSA: invalid signature\") */\n      mload(0x40)\n      0x08c379a000000000000000000000000000000000000000000000000000000000\n      dup2\n      mstore\n      0x04\n      add\n      tag_40\n      swap1\n      tag_41\n      jump\t// in\n    tag_40:\n      mload(0x40)\n      dup1\n      swap2\n      sub\n      swap1\n      revert\n        /* \"@openzeppelin/contracts/utils/cryptography/ECDSA.sol\":730:1075  if (error == RecoverError.InvalidSignature) {... */\n    tag_39:\n        /* \"@openzeppelin/contracts/utils/cryptography/ECDSA.sol\":852:887  RecoverError.InvalidSignatureLength */\n      0x02\n        /* \"@openzeppelin/contracts/utils/cryptography/ECDSA.sol\":843:887  error == RecoverError.InvalidSignatureLength */\n      0x04\n      dup2\n      gt\n      iszero\n      tag_43\n      jumpi\n      tag_44\n      tag_30\n      jump\t// in\n    tag_44:\n    tag_43:\n        /* \"@openzeppelin/contracts/utils/cryptography/ECDSA.sol\":843:848  error */\n      dup2\n        /* \"@openzeppelin/contracts/utils/cryptography/ECDSA.sol\":843:887  error == RecoverError.InvalidSignatureLength */\n      0x04\n      dup2\n      gt\n      iszero\n      tag_45\n      jumpi\n      tag_46\n      tag_30\n      jump\t// in\n    tag_46:\n    tag_45:\n      sub\n        /* \"@openzeppelin/contracts/utils/cryptography/ECDSA.sol\":839:1075  if (error == RecoverError.InvalidSignatureLength) {... */\n      tag_47\n      jumpi\n        /* \"@openzeppelin/contracts/utils/cryptography/ECDSA.sol\":903:944  revert(\"ECDSA: invalid signature length\") */\n      mload(0x40)\n      0x08c379a000000000000000000000000000000000000000000000000000000000\n      dup2\n      mstore\n      0x04\n      add\n      tag_48\n      swap1\n      tag_49\n      jump\t// in\n    tag_48:\n      mload(0x40)\n      dup1\n      swap2\n      sub\n      swap1\n      revert\n        /* \"@openzeppelin/contracts/utils/cryptography/ECDSA.sol\":839:1075  if (error == RecoverError.InvalidSignatureLength) {... */\n    tag_47:\n        /* \"@openzeppelin/contracts/utils/cryptography/ECDSA.sol\":974:1004  RecoverError.InvalidSignatureS */\n      0x03\n        /* \"@openzeppelin/contracts/utils/cryptography/ECDSA.sol\":965:1004  error == RecoverError.InvalidSignatureS */\n      0x04\n      dup2\n      gt\n      iszero\n      tag_51\n      jumpi\n      tag_52\n      tag_30\n      jump\t// in\n    tag_52:\n    tag_51:\n        /* \"@openzeppelin/contracts/utils/cryptography/ECDSA.sol\":965:970  error */\n      dup2\n        /* \"@openzeppelin/contracts/utils/cryptography/ECDSA.sol\":965:1004  error == RecoverError.InvalidSignatureS */\n      0x04\n      dup2\n      gt\n      iszero\n      tag_53\n      jumpi\n      tag_54\n      tag_30\n      jump\t// in\n    tag_54:\n    tag_53:\n      sub\n        /* \"@openzeppelin/contracts/utils/cryptography/ECDSA.sol\":961:1075  if (error == RecoverError.InvalidSignatureS) {... */\n      tag_55\n      jumpi\n        /* \"@openzeppelin/contracts/utils/cryptography/ECDSA.sol\":1020:1064  revert(\"ECDSA: invalid signature 's' value\") */\n      mload(0x40)\n      0x08c379a000000000000000000000000000000000000000000000000000000000\n      dup2\n      mstore\n      0x04\n      add\n      tag_56\n      swap1\n      tag_57\n      jump\t// in\n    tag_56:\n      mload(0x40)\n      dup1\n      swap2\n      sub\n      swap1\n      revert\n        /* \"@openzeppelin/contracts/utils/cryptography/ECDSA.sol\":961:1075  if (error == RecoverError.InvalidSignatureS) {... */\n    tag_55:\n        /* \"@openzeppelin/contracts/utils/cryptography/ECDSA.sol\":570:1081  function _throwError(RecoverError error) private pure {... */\n    tag_27:\n      pop\n      jump\t// out\n        /* \"@openzeppelin/contracts/utils/cryptography/ECDSA.sol\":5069:6563  function tryRecover(... */\n    tag_25:\n        /* \"@openzeppelin/contracts/utils/cryptography/ECDSA.sol\":5195:5202  address */\n      0x00\n        /* \"@openzeppelin/contracts/utils/cryptography/ECDSA.sol\":5204:5216  RecoverError */\n      dup1\n        /* \"@openzeppelin/contracts/utils/cryptography/ECDSA.sol\":6119:6185  0x7FFFFFFFFFFFFFFFFFFFFFFFFFFFFFFF5D576E7357A4501DDFE92F46681B20A0 */\n      0x7fffffffffffffffffffffffffffffff5d576e7357a4501ddfe92f46681b20a0\n        /* \"@openzeppelin/contracts/utils/cryptography/ECDSA.sol\":6114:6115  s */\n      dup4\n        /* \"@openzeppelin/contracts/utils/cryptography/ECDSA.sol\":6106:6116  uint256(s) */\n      0x00\n      shr\n        /* \"@openzeppelin/contracts/utils/cryptography/ECDSA.sol\":6106:6185  uint256(s) > 0x7FFFFFFFFFFFFFFFFFFFFFFFFFFFFFFF5D576E7357A4501DDFE92F46681B20A0 */\n      gt\n        /* \"@openzeppelin/contracts/utils/cryptography/ECDSA.sol\":6102:6263  if (uint256(s) > 0x7FFFFFFFFFFFFFFFFFFFFFFFFFFFFFFF5D576E7357A4501DDFE92F46681B20A0) {... */\n      iszero\n      tag_59\n      jumpi\n        /* \"@openzeppelin/contracts/utils/cryptography/ECDSA.sol\":6217:6218  0 */\n      0x00\n        /* \"@openzeppelin/contracts/utils/cryptography/ECDSA.sol\":6221:6251  RecoverError.InvalidSignatureS */\n      0x03\n        /* \"@openzeppelin/contracts/utils/cryptography/ECDSA.sol\":6201:6252  return (address(0), RecoverError.InvalidSignatureS) */\n      swap2\n      pop\n      swap2\n      pop\n      jump(tag_58)\n        /* \"@openzeppelin/contracts/utils/cryptography/ECDSA.sol\":6102:6263  if (uint256(s) > 0x7FFFFFFFFFFFFFFFFFFFFFFFFFFFFFFF5D576E7357A4501DDFE92F46681B20A0) {... */\n    tag_59:\n        /* \"@openzeppelin/contracts/utils/cryptography/ECDSA.sol\":6357:6371  address signer */\n      0x00\n        /* \"@openzeppelin/contracts/utils/cryptography/ECDSA.sol\":6374:6398  ecrecover(hash, v, r, s) */\n      0x01\n        /* \"@openzeppelin/contracts/utils/cryptography/ECDSA.sol\":6384:6388  hash */\n      dup8\n        /* \"@openzeppelin/contracts/utils/cryptography/ECDSA.sol\":6390:6391  v */\n      dup8\n        /* \"@openzeppelin/contracts/utils/cryptography/ECDSA.sol\":6393:6394  r */\n      dup8\n        /* \"@openzeppelin/contracts/utils/cryptography/ECDSA.sol\":6396:6397  s */\n      dup8\n        /* \"@openzeppelin/contracts/utils/cryptography/ECDSA.sol\":6374:6398  ecrecover(hash, v, r, s) */\n      mload(0x40)\n      0x00\n      dup2\n      mstore\n      0x20\n      add\n      0x40\n      mstore\n      mload(0x40)\n      tag_60\n      swap5\n      swap4\n      swap3\n      swap2\n      swap1\n      tag_61\n      jump\t// in\n    tag_60:\n      0x20\n      mload(0x40)\n      0x20\n      dup2\n      sub\n      swap1\n      dup1\n      dup5\n      sub\n      swap1\n      dup6\n      gas\n      staticcall\n      iszero\n      dup1\n      iszero\n      tag_63\n      jumpi\n      returndatasize\n      0x00\n      dup1\n      returndatacopy\n      revert(0x00, returndatasize)\n    tag_63:\n      pop\n      pop\n      pop\n      mload(sub(mload(0x40), 0x20))\n        /* \"@openzeppelin/contracts/utils/cryptography/ECDSA.sol\":6357:6398  address signer = ecrecover(hash, v, r, s) */\n      swap1\n      pop\n        /* \"@openzeppelin/contracts/utils/cryptography/ECDSA.sol\":6430:6431  0 */\n      0x00\n        /* \"@openzeppelin/contracts/utils/cryptography/ECDSA.sol\":6412:6432  signer == address(0) */\n      0xffffffffffffffffffffffffffffffffffffffff\n      and\n        /* \"@openzeppelin/contracts/utils/cryptography/ECDSA.sol\":6412:6418  signer */\n      dup2\n        /* \"@openzeppelin/contracts/utils/cryptography/ECDSA.sol\":6412:6432  signer == address(0) */\n      0xffffffffffffffffffffffffffffffffffffffff\n      and\n      sub\n        /* \"@openzeppelin/contracts/utils/cryptography/ECDSA.sol\":6408:6509  if (signer == address(0)) {... */\n      tag_64\n      jumpi\n        /* \"@openzeppelin/contracts/utils/cryptography/ECDSA.sol\":6464:6465  0 */\n      0x00\n        /* \"@openzeppelin/contracts/utils/cryptography/ECDSA.sol\":6468:6497  RecoverError.InvalidSignature */\n      0x01\n        /* \"@openzeppelin/contracts/utils/cryptography/ECDSA.sol\":6448:6498  return (address(0), RecoverError.InvalidSignature) */\n      swap3\n      pop\n      swap3\n      pop\n      pop\n      jump(tag_58)\n        /* \"@openzeppelin/contracts/utils/cryptography/ECDSA.sol\":6408:6509  if (signer == address(0)) {... */\n    tag_64:\n        /* \"@openzeppelin/contracts/utils/cryptography/ECDSA.sol\":6527:6533  signer */\n      dup1\n        /* \"@openzeppelin/contracts/utils/cryptography/ECDSA.sol\":6535:6555  RecoverError.NoError */\n      0x00\n        /* \"@openzeppelin/contracts/utils/cryptography/ECDSA.sol\":6519:6556  return (signer, RecoverError.NoError) */\n      swap3\n      pop\n      swap3\n      pop\n      pop\n        /* \"@openzeppelin/contracts/utils/cryptography/ECDSA.sol\":5069:6563  function tryRecover(... */\n    tag_58:\n      swap5\n      pop\n      swap5\n      swap3\n      pop\n      pop\n      pop\n      jump\t// out\n        /* \"#utility.yul\":7:82   */\n    tag_65:\n        /* \"#utility.yul\":40:46   */\n      0x00\n        /* \"#utility.yul\":73:75   */\n      0x40\n        /* \"#utility.yul\":67:76   */\n      mload\n        /* \"#utility.yul\":57:76   */\n      swap1\n      pop\n        /* \"#utility.yul\":7:82   */\n      swap1\n      jump\t// out\n        /* \"#utility.yul\":88:205   */\n    tag_66:\n        /* \"#utility.yul\":197:198   */\n      0x00\n        /* \"#utility.yul\":194:195   */\n      dup1\n        /* \"#utility.yul\":187:199   */\n      revert\n        /* \"#utility.yul\":211:328   */\n    tag_67:\n        /* \"#utility.yul\":320:321   */\n      0x00\n        /* \"#utility.yul\":317:318   */\n      dup1\n        /* \"#utility.yul\":310:322   */\n      revert\n        /* \"#utility.yul\":334:451   */\n    tag_68:\n        /* \"#utility.yul\":443:444   */\n      0x00\n        /* \"#utility.yul\":440:441   */\n      dup1\n        /* \"#utility.yul\":433:445   */\n      revert\n        /* \"#utility.yul\":500:733   */\n    tag_69:\n        /* \"#utility.yul\":574:579   */\n      0x00\n        /* \"#utility.yul\":615:618   */\n      0xe0\n        /* \"#utility.yul\":606:612   */\n      dup3\n        /* \"#utility.yul\":601:604   */\n      dup5\n        /* \"#utility.yul\":597:613   */\n      sub\n        /* \"#utility.yul\":593:619   */\n      slt\n        /* \"#utility.yul\":590:703   */\n      iszero\n      tag_121\n      jumpi\n        /* \"#utility.yul\":622:701   */\n      tag_122\n      tag_68\n      jump\t// in\n    tag_122:\n        /* \"#utility.yul\":590:703   */\n    tag_121:\n        /* \"#utility.yul\":721:727   */\n      dup2\n        /* \"#utility.yul\":712:727   */\n      swap1\n      pop\n        /* \"#utility.yul\":500:733   */\n      swap3\n      swap2\n      pop\n      pop\n      jump\t// out\n        /* \"#utility.yul\":739:856   */\n    tag_70:\n        /* \"#utility.yul\":848:849   */\n      0x00\n        /* \"#utility.yul\":845:846   */\n      dup1\n        /* \"#utility.yul\":838:850   */\n      revert\n        /* \"#utility.yul\":862:979   */\n    tag_71:\n        /* \"#utility.yul\":971:972   */\n      0x00\n        /* \"#utility.yul\":968:969   */\n      dup1\n        /* \"#utility.yul\":961:973   */\n      revert\n        /* \"#utility.yul\":985:1087   */\n    tag_72:\n        /* \"#utility.yul\":1026:1032   */\n      0x00\n        /* \"#utility.yul\":1077:1079   */\n      0x1f\n        /* \"#utility.yul\":1073:1080   */\n      not\n        /* \"#utility.yul\":1068:1070   */\n      0x1f\n        /* \"#utility.yul\":1061:1066   */\n      dup4\n        /* \"#utility.yul\":1057:1071   */\n      add\n        /* \"#utility.yul\":1053:1081   */\n      and\n        /* \"#utility.yul\":1043:1081   */\n      swap1\n      pop\n        /* \"#utility.yul\":985:1087   */\n      swap2\n      swap1\n      pop\n      jump\t// out\n        /* \"#utility.yul\":1093:1273   */\n    tag_73:\n        /* \"#utility.yul\":1141:1218   */\n      0x4e487b7100000000000000000000000000000000000000000000000000000000\n        /* \"#utility.yul\":1138:1139   */\n      0x00\n        /* \"#utility.yul\":1131:1219   */\n      mstore\n        /* \"#utility.yul\":1238:1242   */\n      0x41\n        /* \"#utility.yul\":1235:1236   */\n      0x04\n        /* \"#utility.yul\":1228:1243   */\n      mstore\n        /* \"#utility.yul\":1262:1266   */\n      0x24\n        /* \"#utility.yul\":1259:1260   */\n      0x00\n        /* \"#utility.yul\":1252:1267   */\n      revert\n        /* \"#utility.yul\":1279:1560   */\n    tag_74:\n        /* \"#utility.yul\":1362:1389   */\n      tag_128\n        /* \"#utility.yul\":1384:1388   */\n      dup3\n        /* \"#utility.yul\":1362:1389   */\n      tag_72\n      jump\t// in\n    tag_128:\n        /* \"#utility.yul\":1354:1360   */\n      dup2\n        /* \"#utility.yul\":1350:1390   */\n      add\n        /* \"#utility.yul\":1492:1498   */\n      dup2\n        /* \"#utility.yul\":1480:1490   */\n      dup2\n        /* \"#utility.yul\":1477:1499   */\n      lt\n        /* \"#utility.yul\":1456:1474   */\n      0xffffffffffffffff\n        /* \"#utility.yul\":1444:1454   */\n      dup3\n        /* \"#utility.yul\":1441:1475   */\n      gt\n        /* \"#utility.yul\":1438:1500   */\n      or\n        /* \"#utility.yul\":1435:1523   */\n      iszero\n      tag_129\n      jumpi\n        /* \"#utility.yul\":1503:1521   */\n      tag_130\n      tag_73\n      jump\t// in\n    tag_130:\n        /* \"#utility.yul\":1435:1523   */\n    tag_129:\n        /* \"#utility.yul\":1543:1553   */\n      dup1\n        /* \"#utility.yul\":1539:1541   */\n      0x40\n        /* \"#utility.yul\":1532:1554   */\n      mstore\n        /* \"#utility.yul\":1322:1560   */\n      pop\n        /* \"#utility.yul\":1279:1560   */\n      pop\n      pop\n      jump\t// out\n        /* \"#utility.yul\":1566:1695   */\n    tag_75:\n        /* \"#utility.yul\":1600:1606   */\n      0x00\n        /* \"#utility.yul\":1627:1647   */\n      tag_132\n      tag_65\n      jump\t// in\n    tag_132:\n        /* \"#utility.yul\":1617:1647   */\n      swap1\n      pop\n        /* \"#utility.yul\":1656:1689   */\n      tag_133\n        /* \"#utility.yul\":1684:1688   */\n      dup3\n        /* \"#utility.yul\":1676:1682   */\n      dup3\n        /* \"#utility.yul\":1656:1689   */\n      tag_74\n      jump\t// in\n    tag_133:\n        /* \"#utility.yul\":1566:1695   */\n      swap2\n      swap1\n      pop\n      jump\t// out\n        /* \"#utility.yul\":1701:2008   */\n    tag_76:\n        /* \"#utility.yul\":1762:1766   */\n      0x00\n        /* \"#utility.yul\":1852:1870   */\n      0xffffffffffffffff\n        /* \"#utility.yul\":1844:1850   */\n      dup3\n        /* \"#utility.yul\":1841:1871   */\n      gt\n        /* \"#utility.yul\":1838:1894   */\n      iszero\n      tag_135\n      jumpi\n        /* \"#utility.yul\":1874:1892   */\n      tag_136\n      tag_73\n      jump\t// in\n    tag_136:\n        /* \"#utility.yul\":1838:1894   */\n    tag_135:\n        /* \"#utility.yul\":1912:1941   */\n      tag_137\n        /* \"#utility.yul\":1934:1940   */\n      dup3\n        /* \"#utility.yul\":1912:1941   */\n      tag_72\n      jump\t// in\n    tag_137:\n        /* \"#utility.yul\":1904:1941   */\n      swap1\n      pop\n        /* \"#utility.yul\":1996:2000   */\n      0x20\n        /* \"#utility.yul\":1990:1994   */\n      dup2\n        /* \"#utility.yul\":1986:2001   */\n      add\n        /* \"#utility.yul\":1978:2001   */\n      swap1\n      pop\n        /* \"#utility.yul\":1701:2008   */\n      swap2\n      swap1\n      pop\n      jump\t// out\n        /* \"#utility.yul\":2014:2160   */\n    tag_77:\n        /* \"#utility.yul\":2111:2117   */\n      dup3\n        /* \"#utility.yul\":2106:2109   */\n      dup2\n        /* \"#utility.yul\":2101:2104   */\n      dup4\n        /* \"#utility.yul\":2088:2118   */\n      calldatacopy\n        /* \"#utility.yul\":2152:2153   */\n      0x00\n        /* \"#utility.yul\":2143:2149   */\n      dup4\n        /* \"#utility.yul\":2138:2141   */\n      dup4\n        /* \"#utility.yul\":2134:2150   */\n      add\n        /* \"#utility.yul\":2127:2154   */\n      mstore\n        /* \"#utility.yul\":2014:2160   */\n      pop\n      pop\n      pop\n      jump\t// out\n        /* \"#utility.yul\":2166:2589   */\n    tag_78:\n        /* \"#utility.yul\":2243:2248   */\n      0x00\n        /* \"#utility.yul\":2268:2333   */\n      tag_140\n        /* \"#utility.yul\":2284:2332   */\n      tag_141\n        /* \"#utility.yul\":2325:2331   */\n      dup5\n        /* \"#utility.yul\":2284:2332   */\n      tag_76\n      jump\t// in\n    tag_141:\n        /* \"#utility.yul\":2268:2333   */\n      tag_75\n      jump\t// in\n    tag_140:\n        /* \"#utility.yul\":2259:2333   */\n      swap1\n      pop\n        /* \"#utility.yul\":2356:2362   */\n      dup3\n        /* \"#utility.yul\":2349:2354   */\n      dup2\n        /* \"#utility.yul\":2342:2363   */\n      mstore\n        /* \"#utility.yul\":2394:2398   */\n      0x20\n        /* \"#utility.yul\":2387:2392   */\n      dup2\n        /* \"#utility.yul\":2383:2399   */\n      add\n        /* \"#utility.yul\":2432:2435   */\n      dup5\n        /* \"#utility.yul\":2423:2429   */\n      dup5\n        /* \"#utility.yul\":2418:2421   */\n      dup5\n        /* \"#utility.yul\":2414:2430   */\n      add\n        /* \"#utility.yul\":2411:2436   */\n      gt\n        /* \"#utility.yul\":2408:2520   */\n      iszero\n      tag_142\n      jumpi\n        /* \"#utility.yul\":2439:2518   */\n      tag_143\n      tag_71\n      jump\t// in\n    tag_143:\n        /* \"#utility.yul\":2408:2520   */\n    tag_142:\n        /* \"#utility.yul\":2529:2583   */\n      tag_144\n        /* \"#utility.yul\":2576:2582   */\n      dup5\n        /* \"#utility.yul\":2571:2574   */\n      dup3\n        /* \"#utility.yul\":2566:2569   */\n      dup6\n        /* \"#utility.yul\":2529:2583   */\n      tag_77\n      jump\t// in\n    tag_144:\n        /* \"#utility.yul\":2249:2589   */\n      pop\n        /* \"#utility.yul\":2166:2589   */\n      swap4\n      swap3\n      pop\n      pop\n      pop\n      jump\t// out\n        /* \"#utility.yul\":2608:2946   */\n    tag_79:\n        /* \"#utility.yul\":2663:2668   */\n      0x00\n        /* \"#utility.yul\":2712:2715   */\n      dup3\n        /* \"#utility.yul\":2705:2709   */\n      0x1f\n        /* \"#utility.yul\":2697:2703   */\n      dup4\n        /* \"#utility.yul\":2693:2710   */\n      add\n        /* \"#utility.yul\":2689:2716   */\n      slt\n        /* \"#utility.yul\":2679:2801   */\n      tag_146\n      jumpi\n        /* \"#utility.yul\":2720:2799   */\n      tag_147\n      tag_70\n      jump\t// in\n    tag_147:\n        /* \"#utility.yul\":2679:2801   */\n    tag_146:\n        /* \"#utility.yul\":2837:2843   */\n      dup2\n        /* \"#utility.yul\":2824:2844   */\n      calldataload\n        /* \"#utility.yul\":2862:2940   */\n      tag_148\n        /* \"#utility.yul\":2936:2939   */\n      dup5\n        /* \"#utility.yul\":2928:2934   */\n      dup3\n        /* \"#utility.yul\":2921:2925   */\n      0x20\n        /* \"#utility.yul\":2913:2919   */\n      dup7\n        /* \"#utility.yul\":2909:2926   */\n      add\n        /* \"#utility.yul\":2862:2940   */\n      tag_78\n      jump\t// in\n    tag_148:\n        /* \"#utility.yul\":2853:2940   */\n      swap2\n      pop\n        /* \"#utility.yul\":2669:2946   */\n      pop\n        /* \"#utility.yul\":2608:2946   */\n      swap3\n      swap2\n      pop\n      pop\n      jump\t// out\n        /* \"#utility.yul\":2952:3820   */\n    tag_5:\n        /* \"#utility.yul\":3057:3063   */\n      0x00\n        /* \"#utility.yul\":3065:3071   */\n      dup1\n        /* \"#utility.yul\":3114:3116   */\n      0x40\n        /* \"#utility.yul\":3102:3111   */\n      dup4\n        /* \"#utility.yul\":3093:3100   */\n      dup6\n        /* \"#utility.yul\":3089:3112   */\n      sub\n        /* \"#utility.yul\":3085:3117   */\n      slt\n        /* \"#utility.yul\":3082:3201   */\n      iszero\n      tag_150\n      jumpi\n        /* \"#utility.yul\":3120:3199   */\n      tag_151\n      tag_66\n      jump\t// in\n    tag_151:\n        /* \"#utility.yul\":3082:3201   */\n    tag_150:\n        /* \"#utility.yul\":3268:3269   */\n      0x00\n        /* \"#utility.yul\":3257:3266   */\n      dup4\n        /* \"#utility.yul\":3253:3270   */\n      add\n        /* \"#utility.yul\":3240:3271   */\n      calldataload\n        /* \"#utility.yul\":3298:3316   */\n      0xffffffffffffffff\n        /* \"#utility.yul\":3290:3296   */\n      dup2\n        /* \"#utility.yul\":3287:3317   */\n      gt\n        /* \"#utility.yul\":3284:3401   */\n      iszero\n      tag_152\n      jumpi\n        /* \"#utility.yul\":3320:3399   */\n      tag_153\n      tag_67\n      jump\t// in\n    tag_153:\n        /* \"#utility.yul\":3284:3401   */\n    tag_152:\n        /* \"#utility.yul\":3425:3506   */\n      tag_154\n        /* \"#utility.yul\":3498:3505   */\n      dup6\n        /* \"#utility.yul\":3489:3495   */\n      dup3\n        /* \"#utility.yul\":3478:3487   */\n      dup7\n        /* \"#utility.yul\":3474:3496   */\n      add\n        /* \"#utility.yul\":3425:3506   */\n      tag_69\n      jump\t// in\n    tag_154:\n        /* \"#utility.yul\":3415:3506   */\n      swap3\n      pop\n        /* \"#utility.yul\":3211:3516   */\n      pop\n        /* \"#utility.yul\":3583:3585   */\n      0x20\n        /* \"#utility.yul\":3572:3581   */\n      dup4\n        /* \"#utility.yul\":3568:3586   */\n      add\n        /* \"#utility.yul\":3555:3587   */\n      calldataload\n        /* \"#utility.yul\":3614:3632   */\n      0xffffffffffffffff\n        /* \"#utility.yul\":3606:3612   */\n      dup2\n        /* \"#utility.yul\":3603:3633   */\n      gt\n        /* \"#utility.yul\":3600:3717   */\n      iszero\n      tag_155\n      jumpi\n        /* \"#utility.yul\":3636:3715   */\n      tag_156\n      tag_67\n      jump\t// in\n    tag_156:\n        /* \"#utility.yul\":3600:3717   */\n    tag_155:\n        /* \"#utility.yul\":3741:3803   */\n      tag_157\n        /* \"#utility.yul\":3795:3802   */\n      dup6\n        /* \"#utility.yul\":3786:3792   */\n      dup3\n        /* \"#utility.yul\":3775:3784   */\n      dup7\n        /* \"#utility.yul\":3771:3793   */\n      add\n        /* \"#utility.yul\":3741:3803   */\n      tag_79\n      jump\t// in\n    tag_157:\n        /* \"#utility.yul\":3731:3803   */\n      swap2\n      pop\n        /* \"#utility.yul\":3526:3813   */\n      pop\n        /* \"#utility.yul\":2952:3820   */\n      swap3\n      pop\n      swap3\n      swap1\n      pop\n      jump\t// out\n        /* \"#utility.yul\":3826:3952   */\n    tag_80:\n        /* \"#utility.yul\":3863:3870   */\n      0x00\n        /* \"#utility.yul\":3903:3945   */\n      0xffffffffffffffffffffffffffffffffffffffff\n        /* \"#utility.yul\":3896:3901   */\n      dup3\n        /* \"#utility.yul\":3892:3946   */\n      and\n        /* \"#utility.yul\":3881:3946   */\n      swap1\n      pop\n        /* \"#utility.yul\":3826:3952   */\n      swap2\n      swap1\n      pop\n      jump\t// out\n        /* \"#utility.yul\":3958:4054   */\n    tag_81:\n        /* \"#utility.yul\":3995:4002   */\n      0x00\n        /* \"#utility.yul\":4024:4048   */\n      tag_160\n        /* \"#utility.yul\":4042:4047   */\n      dup3\n        /* \"#utility.yul\":4024:4048   */\n      tag_80\n      jump\t// in\n    tag_160:\n        /* \"#utility.yul\":4013:4048   */\n      swap1\n      pop\n        /* \"#utility.yul\":3958:4054   */\n      swap2\n      swap1\n      pop\n      jump\t// out\n        /* \"#utility.yul\":4060:4186   */\n    tag_82:\n        /* \"#utility.yul\":4155:4179   */\n      tag_162\n        /* \"#utility.yul\":4173:4178   */\n      dup2\n        /* \"#utility.yul\":4155:4179   */\n      tag_81\n      jump\t// in\n    tag_162:\n        /* \"#utility.yul\":4150:4153   */\n      dup3\n        /* \"#utility.yul\":4143:4180   */\n      mstore\n        /* \"#utility.yul\":4060:4186   */\n      pop\n      pop\n      jump\t// out\n        /* \"#utility.yul\":4192:4430   */\n    tag_8:\n        /* \"#utility.yul\":4293:4297   */\n      0x00\n        /* \"#utility.yul\":4331:4333   */\n      0x20\n        /* \"#utility.yul\":4320:4329   */\n      dup3\n        /* \"#utility.yul\":4316:4334   */\n      add\n        /* \"#utility.yul\":4308:4334   */\n      swap1\n      pop\n        /* \"#utility.yul\":4344:4423   */\n      tag_164\n        /* \"#utility.yul\":4420:4421   */\n      0x00\n        /* \"#utility.yul\":4409:4418   */\n      dup4\n        /* \"#utility.yul\":4405:4422   */\n      add\n        /* \"#utility.yul\":4396:4402   */\n      dup5\n        /* \"#utility.yul\":4344:4423   */\n      tag_82\n      jump\t// in\n    tag_164:\n        /* \"#utility.yul\":4192:4430   */\n      swap3\n      swap2\n      pop\n      pop\n      jump\t// out\n        /* \"#utility.yul\":4436:4558   */\n    tag_83:\n        /* \"#utility.yul\":4509:4533   */\n      tag_166\n        /* \"#utility.yul\":4527:4532   */\n      dup2\n        /* \"#utility.yul\":4509:4533   */\n      tag_81\n      jump\t// in\n    tag_166:\n        /* \"#utility.yul\":4502:4507   */\n      dup2\n        /* \"#utility.yul\":4499:4534   */\n      eq\n        /* \"#utility.yul\":4489:4552   */\n      tag_167\n      jumpi\n        /* \"#utility.yul\":4548:4549   */\n      0x00\n        /* \"#utility.yul\":4545:4546   */\n      dup1\n        /* \"#utility.yul\":4538:4550   */\n      revert\n        /* \"#utility.yul\":4489:4552   */\n    tag_167:\n        /* \"#utility.yul\":4436:4558   */\n      pop\n      jump\t// out\n        /* \"#utility.yul\":4564:4703   */\n    tag_84:\n        /* \"#utility.yul\":4610:4615   */\n      0x00\n        /* \"#utility.yul\":4648:4654   */\n      dup2\n        /* \"#utility.yul\":4635:4655   */\n      calldataload\n        /* \"#utility.yul\":4626:4655   */\n      swap1\n      pop\n        /* \"#utility.yul\":4664:4697   */\n      tag_169\n        /* \"#utility.yul\":4691:4696   */\n      dup2\n        /* \"#utility.yul\":4664:4697   */\n      tag_83\n      jump\t// in\n    tag_169:\n        /* \"#utility.yul\":4564:4703   */\n      swap3\n      swap2\n      pop\n      pop\n      jump\t// out\n        /* \"#utility.yul\":4709:4831   */\n    tag_85:\n        /* \"#utility.yul\":4761:4766   */\n      0x00\n        /* \"#utility.yul\":4786:4825   */\n      tag_171\n        /* \"#utility.yul\":4821:4823   */\n      0x20\n        /* \"#utility.yul\":4816:4819   */\n      dup5\n        /* \"#utility.yul\":4812:4824   */\n      add\n        /* \"#utility.yul\":4807:4810   */\n      dup5\n        /* \"#utility.yul\":4786:4825   */\n      tag_84\n      jump\t// in\n    tag_171:\n        /* \"#utility.yul\":4777:4825   */\n      swap1\n      pop\n        /* \"#utility.yul\":4709:4831   */\n      swap3\n      swap2\n      pop\n      pop\n      jump\t// out\n        /* \"#utility.yul\":4837:4945   */\n    tag_86:\n        /* \"#utility.yul\":4914:4938   */\n      tag_173\n        /* \"#utility.yul\":4932:4937   */\n      dup2\n        /* \"#utility.yul\":4914:4938   */\n      tag_81\n      jump\t// in\n    tag_173:\n        /* \"#utility.yul\":4909:4912   */\n      dup3\n        /* \"#utility.yul\":4902:4939   */\n      mstore\n        /* \"#utility.yul\":4837:4945   */\n      pop\n      pop\n      jump\t// out\n        /* \"#utility.yul\":4951:5028   */\n    tag_87:\n        /* \"#utility.yul\":4988:4995   */\n      0x00\n        /* \"#utility.yul\":5017:5022   */\n      dup2\n        /* \"#utility.yul\":5006:5022   */\n      swap1\n      pop\n        /* \"#utility.yul\":4951:5028   */\n      swap2\n      swap1\n      pop\n      jump\t// out\n        /* \"#utility.yul\":5034:5156   */\n    tag_88:\n        /* \"#utility.yul\":5107:5131   */\n      tag_176\n        /* \"#utility.yul\":5125:5130   */\n      dup2\n        /* \"#utility.yul\":5107:5131   */\n      tag_87\n      jump\t// in\n    tag_176:\n        /* \"#utility.yul\":5100:5105   */\n      dup2\n        /* \"#utility.yul\":5097:5132   */\n      eq\n        /* \"#utility.yul\":5087:5150   */\n      tag_177\n      jumpi\n        /* \"#utility.yul\":5146:5147   */\n      0x00\n        /* \"#utility.yul\":5143:5144   */\n      dup1\n        /* \"#utility.yul\":5136:5148   */\n      revert\n        /* \"#utility.yul\":5087:5150   */\n    tag_177:\n        /* \"#utility.yul\":5034:5156   */\n      pop\n      jump\t// out\n        /* \"#utility.yul\":5162:5301   */\n    tag_89:\n        /* \"#utility.yul\":5208:5213   */\n      0x00\n        /* \"#utility.yul\":5246:5252   */\n      dup2\n        /* \"#utility.yul\":5233:5253   */\n      calldataload\n        /* \"#utility.yul\":5224:5253   */\n      swap1\n      pop\n        /* \"#utility.yul\":5262:5295   */\n      tag_179\n        /* \"#utility.yul\":5289:5294   */\n      dup2\n        /* \"#utility.yul\":5262:5295   */\n      tag_88\n      jump\t// in\n    tag_179:\n        /* \"#utility.yul\":5162:5301   */\n      swap3\n      swap2\n      pop\n      pop\n      jump\t// out\n        /* \"#utility.yul\":5307:5429   */\n    tag_90:\n        /* \"#utility.yul\":5359:5364   */\n      0x00\n        /* \"#utility.yul\":5384:5423   */\n      tag_181\n        /* \"#utility.yul\":5419:5421   */\n      0x20\n        /* \"#utility.yul\":5414:5417   */\n      dup5\n        /* \"#utility.yul\":5410:5422   */\n      add\n        /* \"#utility.yul\":5405:5408   */\n      dup5\n        /* \"#utility.yul\":5384:5423   */\n      tag_89\n      jump\t// in\n    tag_181:\n        /* \"#utility.yul\":5375:5423   */\n      swap1\n      pop\n        /* \"#utility.yul\":5307:5429   */\n      swap3\n      swap2\n      pop\n      pop\n      jump\t// out\n        /* \"#utility.yul\":5435:5543   */\n    tag_91:\n        /* \"#utility.yul\":5512:5536   */\n      tag_183\n        /* \"#utility.yul\":5530:5535   */\n      dup2\n        /* \"#utility.yul\":5512:5536   */\n      tag_87\n      jump\t// in\n    tag_183:\n        /* \"#utility.yul\":5507:5510   */\n      dup3\n        /* \"#utility.yul\":5500:5537   */\n      mstore\n        /* \"#utility.yul\":5435:5543   */\n      pop\n      pop\n      jump\t// out\n        /* \"#utility.yul\":5549:5666   */\n    tag_92:\n        /* \"#utility.yul\":5658:5659   */\n      0x00\n        /* \"#utility.yul\":5655:5656   */\n      dup1\n        /* \"#utility.yul\":5648:5660   */\n      revert\n        /* \"#utility.yul\":5672:5789   */\n    tag_93:\n        /* \"#utility.yul\":5781:5782   */\n      0x00\n        /* \"#utility.yul\":5778:5779   */\n      dup1\n        /* \"#utility.yul\":5771:5783   */\n      revert\n        /* \"#utility.yul\":5795:5912   */\n    tag_94:\n        /* \"#utility.yul\":5904:5905   */\n      0x00\n        /* \"#utility.yul\":5901:5902   */\n      dup1\n        /* \"#utility.yul\":5894:5906   */\n      revert\n        /* \"#utility.yul\":5918:6629   */\n    tag_95:\n        /* \"#utility.yul\":5982:5987   */\n      0x00\n        /* \"#utility.yul\":5989:5995   */\n      dup1\n        /* \"#utility.yul\":6045:6048   */\n      dup4\n        /* \"#utility.yul\":6032:6049   */\n      calldataload\n        /* \"#utility.yul\":6137:6138   */\n      0x01\n        /* \"#utility.yul\":6131:6135   */\n      0x20\n        /* \"#utility.yul\":6127:6139   */\n      sub\n        /* \"#utility.yul\":6116:6124   */\n      dup5\n        /* \"#utility.yul\":6100:6114   */\n      calldatasize\n        /* \"#utility.yul\":6096:6125   */\n      sub\n        /* \"#utility.yul\":6092:6140   */\n      sub\n        /* \"#utility.yul\":6072:6090   */\n      dup2\n        /* \"#utility.yul\":6068:6141   */\n      slt\n        /* \"#utility.yul\":6058:6226   */\n      tag_188\n      jumpi\n        /* \"#utility.yul\":6145:6224   */\n      tag_189\n      tag_94\n      jump\t// in\n    tag_189:\n        /* \"#utility.yul\":6058:6226   */\n    tag_188:\n        /* \"#utility.yul\":6268:6276   */\n      dup4\n        /* \"#utility.yul\":6248:6266   */\n      dup2\n        /* \"#utility.yul\":6244:6277   */\n      add\n        /* \"#utility.yul\":6235:6277   */\n      swap3\n      pop\n        /* \"#utility.yul\":6310:6315   */\n      dup3\n        /* \"#utility.yul\":6297:6316   */\n      calldataload\n        /* \"#utility.yul\":6287:6316   */\n      swap2\n      pop\n        /* \"#utility.yul\":6345:6349   */\n      0x20\n        /* \"#utility.yul\":6338:6343   */\n      dup4\n        /* \"#utility.yul\":6334:6350   */\n      add\n        /* \"#utility.yul\":6325:6350   */\n      swap3\n      pop\n        /* \"#utility.yul\":6373:6391   */\n      0xffffffffffffffff\n        /* \"#utility.yul\":6365:6371   */\n      dup3\n        /* \"#utility.yul\":6362:6392   */\n      gt\n        /* \"#utility.yul\":6359:6476   */\n      iszero\n      tag_190\n      jumpi\n        /* \"#utility.yul\":6395:6474   */\n      tag_191\n      tag_92\n      jump\t// in\n    tag_191:\n        /* \"#utility.yul\":6359:6476   */\n    tag_190:\n        /* \"#utility.yul\":6531:6535   */\n      0x01\n        /* \"#utility.yul\":6523:6529   */\n      dup3\n        /* \"#utility.yul\":6519:6536   */\n      mul\n        /* \"#utility.yul\":6503:6517   */\n      calldatasize\n        /* \"#utility.yul\":6499:6537   */\n      sub\n        /* \"#utility.yul\":6492:6497   */\n      dup4\n        /* \"#utility.yul\":6488:6538   */\n      sgt\n        /* \"#utility.yul\":6485:6622   */\n      iszero\n      tag_192\n      jumpi\n        /* \"#utility.yul\":6541:6620   */\n      tag_193\n      tag_93\n      jump\t// in\n    tag_193:\n        /* \"#utility.yul\":6485:6622   */\n    tag_192:\n        /* \"#utility.yul\":5996:6629   */\n      pop\n        /* \"#utility.yul\":5918:6629   */\n      swap3\n      pop\n      swap3\n      swap1\n      pop\n      jump\t// out\n        /* \"#utility.yul\":6635:6793   */\n    tag_96:\n        /* \"#utility.yul\":6708:6719   */\n      0x00\n        /* \"#utility.yul\":6742:6748   */\n      dup3\n        /* \"#utility.yul\":6737:6740   */\n      dup3\n        /* \"#utility.yul\":6730:6749   */\n      mstore\n        /* \"#utility.yul\":6782:6786   */\n      0x20\n        /* \"#utility.yul\":6777:6780   */\n      dup3\n        /* \"#utility.yul\":6773:6787   */\n      add\n        /* \"#utility.yul\":6758:6787   */\n      swap1\n      pop\n        /* \"#utility.yul\":6635:6793   */\n      swap3\n      swap2\n      pop\n      pop\n      jump\t// out\n        /* \"#utility.yul\":6821:7115   */\n    tag_97:\n        /* \"#utility.yul\":6907:6910   */\n      0x00\n        /* \"#utility.yul\":6928:6988   */\n      tag_196\n        /* \"#utility.yul\":6981:6987   */\n      dup4\n        /* \"#utility.yul\":6976:6979   */\n      dup6\n        /* \"#utility.yul\":6928:6988   */\n      tag_96\n      jump\t// in\n    tag_196:\n        /* \"#utility.yul\":6921:6988   */\n      swap4\n      pop\n        /* \"#utility.yul\":6998:7054   */\n      tag_197\n        /* \"#utility.yul\":7047:7053   */\n      dup4\n        /* \"#utility.yul\":7042:7045   */\n      dup6\n        /* \"#utility.yul\":7035:7040   */\n      dup5\n        /* \"#utility.yul\":6998:7054   */\n      tag_77\n      jump\t// in\n    tag_197:\n        /* \"#utility.yul\":7079:7108   */\n      tag_198\n        /* \"#utility.yul\":7101:7107   */\n      dup4\n        /* \"#utility.yul\":7079:7108   */\n      tag_72\n      jump\t// in\n    tag_198:\n        /* \"#utility.yul\":7074:7077   */\n      dup5\n        /* \"#utility.yul\":7070:7109   */\n      add\n        /* \"#utility.yul\":7063:7109   */\n      swap1\n      pop\n        /* \"#utility.yul\":6821:7115   */\n      swap4\n      swap3\n      pop\n      pop\n      pop\n      jump\t// out\n        /* \"#utility.yul\":7121:7211   */\n    tag_98:\n        /* \"#utility.yul\":7155:7162   */\n      0x00\n        /* \"#utility.yul\":7198:7203   */\n      dup2\n        /* \"#utility.yul\":7191:7204   */\n      iszero\n        /* \"#utility.yul\":7184:7205   */\n      iszero\n        /* \"#utility.yul\":7173:7205   */\n      swap1\n      pop\n        /* \"#utility.yul\":7121:7211   */\n      swap2\n      swap1\n      pop\n      jump\t// out\n        /* \"#utility.yul\":7217:7333   */\n    tag_99:\n        /* \"#utility.yul\":7287:7308   */\n      tag_201\n        /* \"#utility.yul\":7302:7307   */\n      dup2\n        /* \"#utility.yul\":7287:7308   */\n      tag_98\n      jump\t// in\n    tag_201:\n        /* \"#utility.yul\":7280:7285   */\n      dup2\n        /* \"#utility.yul\":7277:7309   */\n      eq\n        /* \"#utility.yul\":7267:7327   */\n      tag_202\n      jumpi\n        /* \"#utility.yul\":7323:7324   */\n      0x00\n        /* \"#utility.yul\":7320:7321   */\n      dup1\n        /* \"#utility.yul\":7313:7325   */\n      revert\n        /* \"#utility.yul\":7267:7327   */\n    tag_202:\n        /* \"#utility.yul\":7217:7333   */\n      pop\n      jump\t// out\n        /* \"#utility.yul\":7339:7472   */\n    tag_100:\n        /* \"#utility.yul\":7382:7387   */\n      0x00\n        /* \"#utility.yul\":7420:7426   */\n      dup2\n        /* \"#utility.yul\":7407:7427   */\n      calldataload\n        /* \"#utility.yul\":7398:7427   */\n      swap1\n      pop\n        /* \"#utility.yul\":7436:7466   */\n      tag_204\n        /* \"#utility.yul\":7460:7465   */\n      dup2\n        /* \"#utility.yul\":7436:7466   */\n      tag_99\n      jump\t// in\n    tag_204:\n        /* \"#utility.yul\":7339:7472   */\n      swap3\n      swap2\n      pop\n      pop\n      jump\t// out\n        /* \"#utility.yul\":7478:7594   */\n    tag_101:\n        /* \"#utility.yul\":7527:7532   */\n      0x00\n        /* \"#utility.yul\":7552:7588   */\n      tag_206\n        /* \"#utility.yul\":7584:7586   */\n      0x20\n        /* \"#utility.yul\":7579:7582   */\n      dup5\n        /* \"#utility.yul\":7575:7587   */\n      add\n        /* \"#utility.yul\":7570:7573   */\n      dup5\n        /* \"#utility.yul\":7552:7588   */\n      tag_100\n      jump\t// in\n    tag_206:\n        /* \"#utility.yul\":7543:7588   */\n      swap1\n      pop\n        /* \"#utility.yul\":7478:7594   */\n      swap3\n      swap2\n      pop\n      pop\n      jump\t// out\n        /* \"#utility.yul\":7600:7699   */\n    tag_102:\n        /* \"#utility.yul\":7671:7692   */\n      tag_208\n        /* \"#utility.yul\":7686:7691   */\n      dup2\n        /* \"#utility.yul\":7671:7692   */\n      tag_98\n      jump\t// in\n    tag_208:\n        /* \"#utility.yul\":7666:7669   */\n      dup3\n        /* \"#utility.yul\":7659:7693   */\n      mstore\n        /* \"#utility.yul\":7600:7699   */\n      pop\n      pop\n      jump\t// out\n        /* \"#utility.yul\":7787:9506   */\n    tag_103:\n        /* \"#utility.yul\":7910:7913   */\n      0x00\n        /* \"#utility.yul\":7946:7950   */\n      0xe0\n        /* \"#utility.yul\":7941:7944   */\n      dup4\n        /* \"#utility.yul\":7937:7951   */\n      add\n        /* \"#utility.yul\":8017:8067   */\n      tag_210\n        /* \"#utility.yul\":8061:8065   */\n      0x00\n        /* \"#utility.yul\":8054:8059   */\n      dup5\n        /* \"#utility.yul\":8050:8066   */\n      add\n        /* \"#utility.yul\":8043:8048   */\n      dup5\n        /* \"#utility.yul\":8017:8067   */\n      tag_85\n      jump\t// in\n    tag_210:\n        /* \"#utility.yul\":8080:8143   */\n      tag_211\n        /* \"#utility.yul\":8137:8141   */\n      0x00\n        /* \"#utility.yul\":8132:8135   */\n      dup7\n        /* \"#utility.yul\":8128:8142   */\n      add\n        /* \"#utility.yul\":8114:8126   */\n      dup3\n        /* \"#utility.yul\":8080:8143   */\n      tag_86\n      jump\t// in\n    tag_211:\n        /* \"#utility.yul\":7961:8153   */\n      pop\n        /* \"#utility.yul\":8225:8275   */\n      tag_212\n        /* \"#utility.yul\":8269:8273   */\n      0x20\n        /* \"#utility.yul\":8262:8267   */\n      dup5\n        /* \"#utility.yul\":8258:8274   */\n      add\n        /* \"#utility.yul\":8251:8256   */\n      dup5\n        /* \"#utility.yul\":8225:8275   */\n      tag_90\n      jump\t// in\n    tag_212:\n        /* \"#utility.yul\":8288:8351   */\n      tag_213\n        /* \"#utility.yul\":8345:8349   */\n      0x20\n        /* \"#utility.yul\":8340:8343   */\n      dup7\n        /* \"#utility.yul\":8336:8350   */\n      add\n        /* \"#utility.yul\":8322:8334   */\n      dup3\n        /* \"#utility.yul\":8288:8351   */\n      tag_91\n      jump\t// in\n    tag_213:\n        /* \"#utility.yul\":8163:8361   */\n      pop\n        /* \"#utility.yul\":8431:8481   */\n      tag_214\n        /* \"#utility.yul\":8475:8479   */\n      0x40\n        /* \"#utility.yul\":8468:8473   */\n      dup5\n        /* \"#utility.yul\":8464:8480   */\n      add\n        /* \"#utility.yul\":8457:8462   */\n      dup5\n        /* \"#utility.yul\":8431:8481   */\n      tag_90\n      jump\t// in\n    tag_214:\n        /* \"#utility.yul\":8494:8557   */\n      tag_215\n        /* \"#utility.yul\":8551:8555   */\n      0x40\n        /* \"#utility.yul\":8546:8549   */\n      dup7\n        /* \"#utility.yul\":8542:8556   */\n      add\n        /* \"#utility.yul\":8528:8540   */\n      dup3\n        /* \"#utility.yul\":8494:8557   */\n      tag_91\n      jump\t// in\n    tag_215:\n        /* \"#utility.yul\":8371:8567   */\n      pop\n        /* \"#utility.yul\":8635:8685   */\n      tag_216\n        /* \"#utility.yul\":8679:8683   */\n      0x60\n        /* \"#utility.yul\":8672:8677   */\n      dup5\n        /* \"#utility.yul\":8668:8684   */\n      add\n        /* \"#utility.yul\":8661:8666   */\n      dup5\n        /* \"#utility.yul\":8635:8685   */\n      tag_85\n      jump\t// in\n    tag_216:\n        /* \"#utility.yul\":8698:8761   */\n      tag_217\n        /* \"#utility.yul\":8755:8759   */\n      0x60\n        /* \"#utility.yul\":8750:8753   */\n      dup7\n        /* \"#utility.yul\":8746:8760   */\n      add\n        /* \"#utility.yul\":8732:8744   */\n      dup3\n        /* \"#utility.yul\":8698:8761   */\n      tag_86\n      jump\t// in\n    tag_217:\n        /* \"#utility.yul\":8577:8771   */\n      pop\n        /* \"#utility.yul\":8850:8911   */\n      tag_218\n        /* \"#utility.yul\":8905:8909   */\n      0x80\n        /* \"#utility.yul\":8898:8903   */\n      dup5\n        /* \"#utility.yul\":8894:8910   */\n      add\n        /* \"#utility.yul\":8887:8892   */\n      dup5\n        /* \"#utility.yul\":8850:8911   */\n      tag_95\n      jump\t// in\n    tag_218:\n        /* \"#utility.yul\":8958:8961   */\n      dup6\n        /* \"#utility.yul\":8952:8956   */\n      dup4\n        /* \"#utility.yul\":8948:8962   */\n      sub\n        /* \"#utility.yul\":8941:8945   */\n      0x80\n        /* \"#utility.yul\":8936:8939   */\n      dup8\n        /* \"#utility.yul\":8932:8946   */\n      add\n        /* \"#utility.yul\":8925:8963   */\n      mstore\n        /* \"#utility.yul\":8984:9071   */\n      tag_219\n        /* \"#utility.yul\":9066:9070   */\n      dup4\n        /* \"#utility.yul\":9052:9064   */\n      dup3\n        /* \"#utility.yul\":9038:9050   */\n      dup5\n        /* \"#utility.yul\":8984:9071   */\n      tag_97\n      jump\t// in\n    tag_219:\n        /* \"#utility.yul\":8976:9071   */\n      swap3\n      pop\n        /* \"#utility.yul\":8781:9082   */\n      pop\n      pop\n        /* \"#utility.yul\":9149:9199   */\n      tag_220\n        /* \"#utility.yul\":9193:9197   */\n      0xa0\n        /* \"#utility.yul\":9186:9191   */\n      dup5\n        /* \"#utility.yul\":9182:9198   */\n      add\n        /* \"#utility.yul\":9175:9180   */\n      dup5\n        /* \"#utility.yul\":9149:9199   */\n      tag_85\n      jump\t// in\n    tag_220:\n        /* \"#utility.yul\":9212:9275   */\n      tag_221\n        /* \"#utility.yul\":9269:9273   */\n      0xa0\n        /* \"#utility.yul\":9264:9267   */\n      dup7\n        /* \"#utility.yul\":9260:9274   */\n      add\n        /* \"#utility.yul\":9246:9258   */\n      dup3\n        /* \"#utility.yul\":9212:9275   */\n      tag_86\n      jump\t// in\n    tag_221:\n        /* \"#utility.yul\":9092:9285   */\n      pop\n        /* \"#utility.yul\":9352:9399   */\n      tag_222\n        /* \"#utility.yul\":9393:9397   */\n      0xc0\n        /* \"#utility.yul\":9386:9391   */\n      dup5\n        /* \"#utility.yul\":9382:9398   */\n      add\n        /* \"#utility.yul\":9375:9380   */\n      dup5\n        /* \"#utility.yul\":9352:9399   */\n      tag_101\n      jump\t// in\n    tag_222:\n        /* \"#utility.yul\":9412:9469   */\n      tag_223\n        /* \"#utility.yul\":9463:9467   */\n      0xc0\n        /* \"#utility.yul\":9458:9461   */\n      dup7\n        /* \"#utility.yul\":9454:9468   */\n      add\n        /* \"#utility.yul\":9440:9452   */\n      dup3\n        /* \"#utility.yul\":9412:9469   */\n      tag_102\n      jump\t// in\n    tag_223:\n        /* \"#utility.yul\":9295:9479   */\n      pop\n        /* \"#utility.yul\":9496:9500   */\n      dup1\n        /* \"#utility.yul\":9489:9500   */\n      swap2\n      pop\n        /* \"#utility.yul\":7915:9506   */\n      pop\n        /* \"#utility.yul\":7787:9506   */\n      swap3\n      swap2\n      pop\n      pop\n      jump\t// out\n        /* \"#utility.yul\":9512:9893   */\n    tag_13:\n        /* \"#utility.yul\":9659:9663   */\n      0x00\n        /* \"#utility.yul\":9697:9699   */\n      0x20\n        /* \"#utility.yul\":9686:9695   */\n      dup3\n        /* \"#utility.yul\":9682:9700   */\n      add\n        /* \"#utility.yul\":9674:9700   */\n      swap1\n      pop\n        /* \"#utility.yul\":9746:9755   */\n      dup2\n        /* \"#utility.yul\":9740:9744   */\n      dup2\n        /* \"#utility.yul\":9736:9756   */\n      sub\n        /* \"#utility.yul\":9732:9733   */\n      0x00\n        /* \"#utility.yul\":9721:9730   */\n      dup4\n        /* \"#utility.yul\":9717:9734   */\n      add\n        /* \"#utility.yul\":9710:9757   */\n      mstore\n        /* \"#utility.yul\":9774:9886   */\n      tag_225\n        /* \"#utility.yul\":9881:9885   */\n      dup2\n        /* \"#utility.yul\":9872:9878   */\n      dup5\n        /* \"#utility.yul\":9774:9886   */\n      tag_103\n      jump\t// in\n    tag_225:\n        /* \"#utility.yul\":9766:9886   */\n      swap1\n      pop\n        /* \"#utility.yul\":9512:9893   */\n      swap3\n      swap2\n      pop\n      pop\n      jump\t// out\n        /* \"#utility.yul\":9899:10079   */\n    tag_30:\n        /* \"#utility.yul\":9947:10024   */\n      0x4e487b7100000000000000000000000000000000000000000000000000000000\n        /* \"#utility.yul\":9944:9945   */\n      0x00\n        /* \"#utility.yul\":9937:10025   */\n      mstore\n        /* \"#utility.yul\":10044:10048   */\n      0x21\n        /* \"#utility.yul\":10041:10042   */\n      0x04\n        /* \"#utility.yul\":10034:10049   */\n      mstore\n        /* \"#utility.yul\":10068:10072   */\n      0x24\n        /* \"#utility.yul\":10065:10066   */\n      0x00\n        /* \"#utility.yul\":10058:10073   */\n      revert\n        /* \"#utility.yul\":10085:10254   */\n    tag_104:\n        /* \"#utility.yul\":10169:10180   */\n      0x00\n        /* \"#utility.yul\":10203:10209   */\n      dup3\n        /* \"#utility.yul\":10198:10201   */\n      dup3\n        /* \"#utility.yul\":10191:10210   */\n      mstore\n        /* \"#utility.yul\":10243:10247   */\n      0x20\n        /* \"#utility.yul\":10238:10241   */\n      dup3\n        /* \"#utility.yul\":10234:10248   */\n      add\n        /* \"#utility.yul\":10219:10248   */\n      swap1\n      pop\n        /* \"#utility.yul\":10085:10254   */\n      swap3\n      swap2\n      pop\n      pop\n      jump\t// out\n        /* \"#utility.yul\":10260:10434   */\n    tag_105:\n        /* \"#utility.yul\":10400:10426   */\n      0x45434453413a20696e76616c6964207369676e61747572650000000000000000\n        /* \"#utility.yul\":10396:10397   */\n      0x00\n        /* \"#utility.yul\":10388:10394   */\n      dup3\n        /* \"#utility.yul\":10384:10398   */\n      add\n        /* \"#utility.yul\":10377:10427   */\n      mstore\n        /* \"#utility.yul\":10260:10434   */\n      pop\n      jump\t// out\n        /* \"#utility.yul\":10440:10806   */\n    tag_106:\n        /* \"#utility.yul\":10582:10585   */\n      0x00\n        /* \"#utility.yul\":10603:10670   */\n      tag_230\n        /* \"#utility.yul\":10667:10669   */\n      0x18\n        /* \"#utility.yul\":10662:10665   */\n      dup4\n        /* \"#utility.yul\":10603:10670   */\n      tag_104\n      jump\t// in\n    tag_230:\n        /* \"#utility.yul\":10596:10670   */\n      swap2\n      pop\n        /* \"#utility.yul\":10679:10772   */\n      tag_231\n        /* \"#utility.yul\":10768:10771   */\n      dup3\n        /* \"#utility.yul\":10679:10772   */\n      tag_105\n      jump\t// in\n    tag_231:\n        /* \"#utility.yul\":10797:10799   */\n      0x20\n        /* \"#utility.yul\":10792:10795   */\n      dup3\n        /* \"#utility.yul\":10788:10800   */\n      add\n        /* \"#utility.yul\":10781:10800   */\n      swap1\n      pop\n        /* \"#utility.yul\":10440:10806   */\n      swap2\n      swap1\n      pop\n      jump\t// out\n        /* \"#utility.yul\":10812:11231   */\n    tag_41:\n        /* \"#utility.yul\":10978:10982   */\n      0x00\n        /* \"#utility.yul\":11016:11018   */\n      0x20\n        /* \"#utility.yul\":11005:11014   */\n      dup3\n        /* \"#utility.yul\":11001:11019   */\n      add\n        /* \"#utility.yul\":10993:11019   */\n      swap1\n      pop\n        /* \"#utility.yul\":11065:11074   */\n      dup2\n        /* \"#utility.yul\":11059:11063   */\n      dup2\n        /* \"#utility.yul\":11055:11075   */\n      sub\n        /* \"#utility.yul\":11051:11052   */\n      0x00\n        /* \"#utility.yul\":11040:11049   */\n      dup4\n        /* \"#utility.yul\":11036:11053   */\n      add\n        /* \"#utility.yul\":11029:11076   */\n      mstore\n        /* \"#utility.yul\":11093:11224   */\n      tag_233\n        /* \"#utility.yul\":11219:11223   */\n      dup2\n        /* \"#utility.yul\":11093:11224   */\n      tag_106\n      jump\t// in\n    tag_233:\n        /* \"#utility.yul\":11085:11224   */\n      swap1\n      pop\n        /* \"#utility.yul\":10812:11231   */\n      swap2\n      swap1\n      pop\n      jump\t// out\n        /* \"#utility.yul\":11237:11418   */\n    tag_107:\n        /* \"#utility.yul\":11377:11410   */\n      0x45434453413a20696e76616c6964207369676e6174757265206c656e67746800\n        /* \"#utility.yul\":11373:11374   */\n      0x00\n        /* \"#utility.yul\":11365:11371   */\n      dup3\n        /* \"#utility.yul\":11361:11375   */\n      add\n        /* \"#utility.yul\":11354:11411   */\n      mstore\n        /* \"#utility.yul\":11237:11418   */\n      pop\n      jump\t// out\n        /* \"#utility.yul\":11424:11790   */\n    tag_108:\n        /* \"#utility.yul\":11566:11569   */\n      0x00\n        /* \"#utility.yul\":11587:11654   */\n      tag_236\n        /* \"#utility.yul\":11651:11653   */\n      0x1f\n        /* \"#utility.yul\":11646:11649   */\n      dup4\n        /* \"#utility.yul\":11587:11654   */\n      tag_104\n      jump\t// in\n    tag_236:\n        /* \"#utility.yul\":11580:11654   */\n      swap2\n      pop\n        /* \"#utility.yul\":11663:11756   */\n      tag_237\n        /* \"#utility.yul\":11752:11755   */\n      dup3\n        /* \"#utility.yul\":11663:11756   */\n      tag_107\n      jump\t// in\n    tag_237:\n        /* \"#utility.yul\":11781:11783   */\n      0x20\n        /* \"#utility.yul\":11776:11779   */\n      dup3\n        /* \"#utility.yul\":11772:11784   */\n      add\n        /* \"#utility.yul\":11765:11784   */\n      swap1\n      pop\n        /* \"#utility.yul\":11424:11790   */\n      swap2\n      swap1\n      pop\n      jump\t// out\n        /* \"#utility.yul\":11796:12215   */\n    tag_49:\n        /* \"#utility.yul\":11962:11966   */\n      0x00\n        /* \"#utility.yul\":12000:12002   */\n      0x20\n        /* \"#utility.yul\":11989:11998   */\n      dup3\n        /* \"#utility.yul\":11985:12003   */\n      add\n        /* \"#utility.yul\":11977:12003   */\n      swap1\n      pop\n        /* \"#utility.yul\":12049:12058   */\n      dup2\n        /* \"#utility.yul\":12043:12047   */\n      dup2\n        /* \"#utility.yul\":12039:12059   */\n      sub\n        /* \"#utility.yul\":12035:12036   */\n      0x00\n        /* \"#utility.yul\":12024:12033   */\n      dup4\n        /* \"#utility.yul\":12020:12037   */\n      add\n        /* \"#utility.yul\":12013:12060   */\n      mstore\n        /* \"#utility.yul\":12077:12208   */\n      tag_239\n        /* \"#utility.yul\":12203:12207   */\n      dup2\n        /* \"#utility.yul\":12077:12208   */\n      tag_108\n      jump\t// in\n    tag_239:\n        /* \"#utility.yul\":12069:12208   */\n      swap1\n      pop\n        /* \"#utility.yul\":11796:12215   */\n      swap2\n      swap1\n      pop\n      jump\t// out\n        /* \"#utility.yul\":12221:12442   */\n    tag_109:\n        /* \"#utility.yul\":12361:12395   */\n      0x45434453413a20696e76616c6964207369676e6174757265202773272076616c\n        /* \"#utility.yul\":12357:12358   */\n      0x00\n        /* \"#utility.yul\":12349:12355   */\n      dup3\n        /* \"#utility.yul\":12345:12359   */\n      add\n        /* \"#utility.yul\":12338:12396   */\n      mstore\n        /* \"#utility.yul\":12430:12434   */\n      0x7565000000000000000000000000000000000000000000000000000000000000\n        /* \"#utility.yul\":12425:12427   */\n      0x20\n        /* \"#utility.yul\":12417:12423   */\n      dup3\n        /* \"#utility.yul\":12413:12428   */\n      add\n        /* \"#utility.yul\":12406:12435   */\n      mstore\n        /* \"#utility.yul\":12221:12442   */\n      pop\n      jump\t// out\n        /* \"#utility.yul\":12448:12814   */\n    tag_110:\n        /* \"#utility.yul\":12590:12593   */\n      0x00\n        /* \"#utility.yul\":12611:12678   */\n      tag_242\n        /* \"#utility.yul\":12675:12677   */\n      0x22\n        /* \"#utility.yul\":12670:12673   */\n      dup4\n        /* \"#utility.yul\":12611:12678   */\n      tag_104\n      jump\t// in\n    tag_242:\n        /* \"#utility.yul\":12604:12678   */\n      swap2\n      pop\n        /* \"#utility.yul\":12687:12780   */\n      tag_243\n        /* \"#utility.yul\":12776:12779   */\n      dup3\n        /* \"#utility.yul\":12687:12780   */\n      tag_109\n      jump\t// in\n    tag_243:\n        /* \"#utility.yul\":12805:12807   */\n      0x40\n        /* \"#utility.yul\":12800:12803   */\n      dup3\n        /* \"#utility.yul\":12796:12808   */\n      add\n        /* \"#utility.yul\":12789:12808   */\n      swap1\n      pop\n        /* \"#utility.yul\":12448:12814   */\n      swap2\n      swap1\n      pop\n      jump\t// out\n        /* \"#utility.yul\":12820:13239   */\n    tag_57:\n        /* \"#utility.yul\":12986:12990   */\n      0x00\n        /* \"#utility.yul\":13024:13026   */\n      0x20\n        /* \"#utility.yul\":13013:13022   */\n      dup3\n        /* \"#utility.yul\":13009:13027   */\n      add\n        /* \"#utility.yul\":13001:13027   */\n      swap1\n      pop\n        /* \"#utility.yul\":13073:13082   */\n      dup2\n        /* \"#utility.yul\":13067:13071   */\n      dup2\n        /* \"#utility.yul\":13063:13083   */\n      sub\n        /* \"#utility.yul\":13059:13060   */\n      0x00\n        /* \"#utility.yul\":13048:13057   */\n      dup4\n        /* \"#utility.yul\":13044:13061   */\n      add\n        /* \"#utility.yul\":13037:13084   */\n      mstore\n        /* \"#utility.yul\":13101:13232   */\n      tag_245\n        /* \"#utility.yul\":13227:13231   */\n      dup2\n        /* \"#utility.yul\":13101:13232   */\n      tag_110\n      jump\t// in\n    tag_245:\n        /* \"#utility.yul\":13093:13232   */\n      swap1\n      pop\n        /* \"#utility.yul\":12820:13239   */\n      swap2\n      swap1\n      pop\n      jump\t// out\n        /* \"#utility.yul\":13245:13322   */\n    tag_111:\n        /* \"#utility.yul\":13282:13289   */\n      0x00\n        /* \"#utility.yul\":13311:13316   */\n      dup2\n        /* \"#utility.yul\":13300:13316   */\n      swap1\n      pop\n        /* \"#utility.yul\":13245:13322   */\n      swap2\n      swap1\n      pop\n      jump\t// out\n        /* \"#utility.yul\":13328:13446   */\n    tag_112:\n        /* \"#utility.yul\":13415:13439   */\n      tag_248\n        /* \"#utility.yul\":13433:13438   */\n      dup2\n        /* \"#utility.yul\":13415:13439   */\n      tag_111\n      jump\t// in\n    tag_248:\n        /* \"#utility.yul\":13410:13413   */\n      dup3\n        /* \"#utility.yul\":13403:13440   */\n      mstore\n        /* \"#utility.yul\":13328:13446   */\n      pop\n      pop\n      jump\t// out\n        /* \"#utility.yul\":13452:13538   */\n    tag_113:\n        /* \"#utility.yul\":13487:13494   */\n      0x00\n        /* \"#utility.yul\":13527:13531   */\n      0xff\n        /* \"#utility.yul\":13520:13525   */\n      dup3\n        /* \"#utility.yul\":13516:13532   */\n      and\n        /* \"#utility.yul\":13505:13532   */\n      swap1\n      pop\n        /* \"#utility.yul\":13452:13538   */\n      swap2\n      swap1\n      pop\n      jump\t// out\n        /* \"#utility.yul\":13544:13656   */\n    tag_114:\n        /* \"#utility.yul\":13627:13649   */\n      tag_251\n        /* \"#utility.yul\":13643:13648   */\n      dup2\n        /* \"#utility.yul\":13627:13649   */\n      tag_113\n      jump\t// in\n    tag_251:\n        /* \"#utility.yul\":13622:13625   */\n      dup3\n        /* \"#utility.yul\":13615:13650   */\n      mstore\n        /* \"#utility.yul\":13544:13656   */\n      pop\n      pop\n      jump\t// out\n        /* \"#utility.yul\":13662:14207   */\n    tag_61:\n        /* \"#utility.yul\":13835:13839   */\n      0x00\n        /* \"#utility.yul\":13873:13876   */\n      0x80\n        /* \"#utility.yul\":13862:13871   */\n      dup3\n        /* \"#utility.yul\":13858:13877   */\n      add\n        /* \"#utility.yul\":13850:13877   */\n      swap1\n      pop\n        /* \"#utility.yul\":13887:13958   */\n      tag_253\n        /* \"#utility.yul\":13955:13956   */\n      0x00\n        /* \"#utility.yul\":13944:13953   */\n      dup4\n        /* \"#utility.yul\":13940:13957   */\n      add\n        /* \"#utility.yul\":13931:13937   */\n      dup8\n        /* \"#utility.yul\":13887:13958   */\n      tag_112\n      jump\t// in\n    tag_253:\n        /* \"#utility.yul\":13968:14036   */\n      tag_254\n        /* \"#utility.yul\":14032:14034   */\n      0x20\n        /* \"#utility.yul\":14021:14030   */\n      dup4\n        /* \"#utility.yul\":14017:14035   */\n      add\n        /* \"#utility.yul\":14008:14014   */\n      dup7\n        /* \"#utility.yul\":13968:14036   */\n      tag_114\n      jump\t// in\n    tag_254:\n        /* \"#utility.yul\":14046:14118   */\n      tag_255\n        /* \"#utility.yul\":14114:14116   */\n      0x40\n        /* \"#utility.yul\":14103:14112   */\n      dup4\n        /* \"#utility.yul\":14099:14117   */\n      add\n        /* \"#utility.yul\":14090:14096   */\n      dup6\n        /* \"#utility.yul\":14046:14118   */\n      tag_112\n      jump\t// in\n    tag_255:\n        /* \"#utility.yul\":14128:14200   */\n      tag_256\n        /* \"#utility.yul\":14196:14198   */\n      0x60\n        /* \"#utility.yul\":14185:14194   */\n      dup4\n        /* \"#utility.yul\":14181:14199   */\n      add\n        /* \"#utility.yul\":14172:14178   */\n      dup5\n        /* \"#utility.yul\":14128:14200   */\n      tag_112\n      jump\t// in\n    tag_256:\n        /* \"#utility.yul\":13662:14207   */\n      swap6\n      swap5\n      pop\n      pop\n      pop\n      pop\n      pop\n      jump\t// out\n\n    auxdata: 0xa2646970667358221220ef7416fc4235c51f328a780aa0c36142911753b87910e5ac54a4588f0dd9fba364736f6c63430008120033\n}\n",
				"bytecode": {
					"linkReferences": {},
					"object": "610adf610053600b82828239805160001a607314610046577f4e487b7100000000000000000000000000000000000000000000000000000000600052600060045260246000fd5b30600052607381538281f3fe73000000000000000000000000000000000000000030146080604052600436106100355760003560e01c80634f5fdbe51461003a575b600080fd5b610054600480360381019061004f91906104fd565b61006a565b60405161006191906105b6565b60405180910390f35b60006100a682610098856040516020016100849190610863565b6040516020818303038152906040526100ae565b6100bf90919063ffffffff16565b905092915050565b600081805190602001209050919050565b60008060006100ce85856100e6565b915091506100db81610137565b819250505092915050565b60008060418351036101275760008060006020860151925060408601519150606086015160001a905061011b8782858561029d565b94509450505050610130565b60006002915091505b9250929050565b6000600481111561014b5761014a610885565b5b81600481111561015e5761015d610885565b5b031561029a576001600481111561017857610177610885565b5b81600481111561018b5761018a610885565b5b036101cb576040517f08c379a00000000000000000000000000000000000000000000000000000000081526004016101c290610911565b60405180910390fd5b600260048111156101df576101de610885565b5b8160048111156101f2576101f1610885565b5b03610232576040517f08c379a00000000000000000000000000000000000000000000000000000000081526004016102299061097d565b60405180910390fd5b6003600481111561024657610245610885565b5b81600481111561025957610258610885565b5b03610299576040517f08c379a000000000000000000000000000000000000000000000000000000000815260040161029090610a0f565b60405180910390fd5b5b50565b6000807f7fffffffffffffffffffffffffffffff5d576e7357a4501ddfe92f46681b20a08360001c11156102d8576000600391509150610376565b6000600187878787604051600081526020016040526040516102fd9493929190610a64565b6020604051602081039080840390855afa15801561031f573d6000803e3d6000fd5b505050602060405103519050600073ffffffffffffffffffffffffffffffffffffffff168173ffffffffffffffffffffffffffffffffffffffff160361036d57600060019250925050610376565b80600092509250505b94509492505050565b6000604051905090565b600080fd5b600080fd5b600080fd5b600060e082840312156103ae576103ad610393565b5b81905092915050565b600080fd5b600080fd5b6000601f19601f8301169050919050565b7f4e487b7100000000000000000000000000000000000000000000000000000000600052604160045260246000fd5b61040a826103c1565b810181811067ffffffffffffffff82111715610429576104286103d2565b5b80604052505050565b600061043c61037f565b90506104488282610401565b919050565b600067ffffffffffffffff821115610468576104676103d2565b5b610471826103c1565b9050602081019050919050565b82818337600083830152505050565b60006104a061049b8461044d565b610432565b9050828152602081018484840111156104bc576104bb6103bc565b5b6104c784828561047e565b509392505050565b600082601f8301126104e4576104e36103b7565b5b81356104f484826020860161048d565b91505092915050565b6000806040838503121561051457610513610389565b5b600083013567ffffffffffffffff8111156105325761053161038e565b5b61053e85828601610398565b925050602083013567ffffffffffffffff81111561055f5761055e61038e565b5b61056b858286016104cf565b9150509250929050565b600073ffffffffffffffffffffffffffffffffffffffff82169050919050565b60006105a082610575565b9050919050565b6105b081610595565b82525050565b60006020820190506105cb60008301846105a7565b92915050565b6105da81610595565b81146105e557600080fd5b50565b6000813590506105f7816105d1565b92915050565b600061060c60208401846105e8565b905092915050565b61061d81610595565b82525050565b6000819050919050565b61063681610623565b811461064157600080fd5b50565b6000813590506106538161062d565b92915050565b60006106686020840184610644565b905092915050565b61067981610623565b82525050565b600080fd5b600080fd5b600080fd5b600080833560016020038436030381126106ab576106aa610689565b5b83810192508235915060208301925067ffffffffffffffff8211156106d3576106d261067f565b5b6001820236038313156106e9576106e8610684565b5b509250929050565b600082825260208201905092915050565b600061070e83856106f1565b935061071b83858461047e565b610724836103c1565b840190509392505050565b60008115159050919050565b6107448161072f565b811461074f57600080fd5b50565b6000813590506107618161073b565b92915050565b60006107766020840184610752565b905092915050565b6107878161072f565b82525050565b600060e083016107a060008401846105fd565b6107ad6000860182610614565b506107bb6020840184610659565b6107c86020860182610670565b506107d66040840184610659565b6107e36040860182610670565b506107f160608401846105fd565b6107fe6060860182610614565b5061080c608084018461068e565b858303608087015261081f838284610702565b9250505061083060a08401846105fd565b61083d60a0860182610614565b5061084b60c0840184610767565b61085860c086018261077e565b508091505092915050565b6000602082019050818103600083015261087d818461078d565b905092915050565b7f4e487b7100000000000000000000000000000000000000000000000000000000600052602160045260246000fd5b600082825260208201905092915050565b7f45434453413a20696e76616c6964207369676e61747572650000000000000000600082015250565b60006108fb6018836108b4565b9150610906826108c5565b602082019050919050565b6000602082019050818103600083015261092a816108ee565b9050919050565b7f45434453413a20696e76616c6964207369676e6174757265206c656e67746800600082015250565b6000610967601f836108b4565b915061097282610931565b602082019050919050565b600060208201905081810360008301526109968161095a565b9050919050565b7f45434453413a20696e76616c6964207369676e6174757265202773272076616c60008201527f7565000000000000000000000000000000000000000000000000000000000000602082015250565b60006109f96022836108b4565b9150610a048261099d565b604082019050919050565b60006020820190508181036000830152610a28816109ec565b9050919050565b6000819050919050565b610a4281610a2f565b82525050565b600060ff82169050919050565b610a5e81610a48565b82525050565b6000608082019050610a796000830187610a39565b610a866020830186610a55565b610a936040830185610a39565b610aa06060830184610a39565b9594505050505056fea2646970667358221220ef7416fc4235c51f328a780aa0c36142911753b87910e5ac54a4588f0dd9fba364736f6c63430008120033",
					"opcodes": "PUSH2 0xADF PUSH2 0x53 PUSH1 0xB DUP3 DUP3 DUP3 CODECOPY DUP1 MLOAD PUSH1 0x0 BYTE PUSH1 0x73 EQ PUSH2 0x46 JUMPI PUSH32 0x4E487B7100000000000000000000000000000000000000000000000000000000 PUSH1 0x0 MSTORE PUSH1 0x0 PUSH1 0x4 MSTORE PUSH1 0x24 PUSH1 0x0 REVERT JUMPDEST ADDRESS PUSH1 0x0 MSTORE PUSH1 0x73 DUP2 MSTORE8 DUP3 DUP2 RETURN INVALID PUSH20 0x0 ADDRESS EQ PUSH1 0x80 PUSH1 0x40 MSTORE PUSH1 0x4 CALLDATASIZE LT PUSH2 0x35 JUMPI PUSH1 0x0 CALLDATALOAD PUSH1 0xE0 SHR DUP1 PUSH4 0x4F5FDBE5 EQ PUSH2 0x3A JUMPI JUMPDEST PUSH1 0x0 DUP1 REVERT JUMPDEST PUSH2 0x54 PUSH1 0x4 DUP1 CALLDATASIZE SUB DUP2 ADD SWAP1 PUSH2 0x4F SWAP2 SWAP1 PUSH2 0x4FD JUMP JUMPDEST PUSH2 0x6A JUMP JUMPDEST PUSH1 0x40 MLOAD PUSH2 0x61 SWAP2 SWAP1 PUSH2 0x5B6 JUMP JUMPDEST PUSH1 0x40 MLOAD DUP1 SWAP2 SUB SWAP1 RETURN JUMPDEST PUSH1 0x0 PUSH2 0xA6 DUP3 PUSH2 0x98 DUP6 PUSH1 0x40 MLOAD PUSH1 0x20 ADD PUSH2 0x84 SWAP2 SWAP1 PUSH2 0x863 JUMP JUMPDEST PUSH1 0x40 MLOAD PUSH1 0x20 DUP2 DUP4 SUB SUB DUP2 MSTORE SWAP1 PUSH1 0x40 MSTORE PUSH2 0xAE JUMP JUMPDEST PUSH2 0xBF SWAP1 SWAP2 SWAP1 PUSH4 0xFFFFFFFF AND JUMP JUMPDEST SWAP1 POP SWAP3 SWAP2 POP POP JUMP JUMPDEST PUSH1 0x0 DUP2 DUP1 MLOAD SWAP1 PUSH1 0x20 ADD KECCAK256 SWAP1 POP SWAP2 SWAP1 POP JUMP JUMPDEST PUSH1 0x0 DUP1 PUSH1 0x0 PUSH2 0xCE DUP6 DUP6 PUSH2 0xE6 JUMP JUMPDEST SWAP2 POP SWAP2 POP PUSH2 0xDB DUP2 PUSH2 0x137 JUMP JUMPDEST DUP2 SWAP3 POP POP POP SWAP3 SWAP2 POP POP JUMP JUMPDEST PUSH1 0x0 DUP1 PUSH1 0x41 DUP4 MLOAD SUB PUSH2 0x127 JUMPI PUSH1 0x0 DUP1 PUSH1 0x0 PUSH1 0x20 DUP7 ADD MLOAD SWAP3 POP PUSH1 0x40 DUP7 ADD MLOAD SWAP2 POP PUSH1 0x60 DUP7 ADD MLOAD PUSH1 0x0 BYTE SWAP1 POP PUSH2 0x11B DUP8 DUP3 DUP6 DUP6 PUSH2 0x29D JUMP JUMPDEST SWAP5 POP SWAP5 POP POP POP POP PUSH2 0x130 JUMP JUMPDEST PUSH1 0x0 PUSH1 0x2 SWAP2 POP SWAP2 POP JUMPDEST SWAP3 POP SWAP3 SWAP1 POP JUMP JUMPDEST PUSH1 0x0 PUSH1 0x4 DUP2 GT ISZERO PUSH2 0x14B JUMPI PUSH2 0x14A PUSH2 0x885 JUMP JUMPDEST JUMPDEST DUP2 PUSH1 0x4 DUP2 GT ISZERO PUSH2 0x15E JUMPI PUSH2 0x15D PUSH2 0x885 JUMP JUMPDEST JUMPDEST SUB ISZERO PUSH2 0x29A JUMPI PUSH1 0x1 PUSH1 0x4 DUP2 GT ISZERO PUSH2 0x178 JUMPI PUSH2 0x177 PUSH2 0x885 JUMP JUMPDEST JUMPDEST DUP2 PUSH1 0x4 DUP2 GT ISZERO PUSH2 0x18B JUMPI PUSH2 0x18A PUSH2 0x885 JUMP JUMPDEST JUMPDEST SUB PUSH2 0x1CB JUMPI PUSH1 0x40 MLOAD PUSH32 0x8C379A000000000000000000000000000000000000000000000000000000000 DUP2 MSTORE PUSH1 0x4 ADD PUSH2 0x1C2 SWAP1 PUSH2 0x911 JUMP JUMPDEST PUSH1 0x40 MLOAD DUP1 SWAP2 SUB SWAP1 REVERT JUMPDEST PUSH1 0x2 PUSH1 0x4 DUP2 GT ISZERO PUSH2 0x1DF JUMPI PUSH2 0x1DE PUSH2 0x885 JUMP JUMPDEST JUMPDEST DUP2 PUSH1 0x4 DUP2 GT ISZERO PUSH2 0x1F2 JUMPI PUSH2 0x1F1 PUSH2 0x885 JUMP JUMPDEST JUMPDEST SUB PUSH2 0x232 JUMPI PUSH1 0x40 MLOAD PUSH32 0x8C379A000000000000000000000000000000000000000000000000000000000 DUP2 MSTORE PUSH1 0x4 ADD PUSH2 0x229 SWAP1 PUSH2 0x97D JUMP JUMPDEST PUSH1 0x40 MLOAD DUP1 SWAP2 SUB SWAP1 REVERT JUMPDEST PUSH1 0x3 PUSH1 0x4 DUP2 GT ISZERO PUSH2 0x246 JUMPI PUSH2 0x245 PUSH2 0x885 JUMP JUMPDEST JUMPDEST DUP2 PUSH1 0x4 DUP2 GT ISZERO PUSH2 0x259 JUMPI PUSH2 0x258 PUSH2 0x885 JUMP JUMPDEST JUMPDEST SUB PUSH2 0x299 JUMPI PUSH1 0x40 MLOAD PUSH32 0x8C379A000000000000000000000000000000000000000000000000000000000 DUP2 MSTORE PUSH1 0x4 ADD PUSH2 0x290 SWAP1 PUSH2 0xA0F JUMP JUMPDEST PUSH1 0x40 MLOAD DUP1 SWAP2 SUB SWAP1 REVERT JUMPDEST JUMPDEST POP JUMP JUMPDEST PUSH1 0x0 DUP1 PUSH32 0x7FFFFFFFFFFFFFFFFFFFFFFFFFFFFFFF5D576E7357A4501DDFE92F46681B20A0 DUP4 PUSH1 0x0 SHR GT ISZERO PUSH2 0x2D8 JUMPI PUSH1 0x0 PUSH1 0x3 SWAP2 POP SWAP2 POP PUSH2 0x376 JUMP JUMPDEST PUSH1 0x0 PUSH1 0x1 DUP8 DUP8 DUP8 DUP8 PUSH1 0x40 MLOAD PUSH1 0x0 DUP2 MSTORE PUSH1 0x20 ADD PUSH1 0x40 MSTORE PUSH1 0x40 MLOAD PUSH2 0x2FD SWAP5 SWAP4 SWAP3 SWAP2 SWAP1 PUSH2 0xA64 JUMP JUMPDEST PUSH1 0x20 PUSH1 0x40 MLOAD PUSH1 0x20 DUP2 SUB SWAP1 DUP1 DUP5 SUB SWAP1 DUP6 GAS STATICCALL ISZERO DUP1 ISZERO PUSH2 0x31F JUMPI RETURNDATASIZE PUSH1 0x0 DUP1 RETURNDATACOPY RETURNDATASIZE PUSH1 0x0 REVERT JUMPDEST POP POP POP PUSH1 0x20 PUSH1 0x40 MLOAD SUB MLOAD SWAP1 POP PUSH1 0x0 PUSH20 0xFFFFFFFFFFFFFFFFFFFFFFFFFFFFFFFFFFFFFFFF AND DUP2 PUSH20 0xFFFFFFFFFFFFFFFFFFFFFFFFFFFFFFFFFFFFFFFF AND SUB PUSH2 0x36D JUMPI PUSH1 0x0 PUSH1 0x1 SWAP3 POP SWAP3 POP POP PUSH2 0x376 JUMP JUMPDEST DUP1 PUSH1 0x0 SWAP3 POP SWAP3 POP POP JUMPDEST SWAP5 POP SWAP5 SWAP3 POP POP POP JUMP JUMPDEST PUSH1 0x0 PUSH1 0x40 MLOAD SWAP1 POP SWAP1 JUMP JUMPDEST PUSH1 0x0 DUP1 REVERT JUMPDEST PUSH1 0x0 DUP1 REVERT JUMPDEST PUSH1 0x0 DUP1 REVERT JUMPDEST PUSH1 0x0 PUSH1 0xE0 DUP3 DUP5 SUB SLT ISZERO PUSH2 0x3AE JUMPI PUSH2 0x3AD PUSH2 0x393 JUMP JUMPDEST JUMPDEST DUP2 SWAP1 POP SWAP3 SWAP2 POP POP JUMP JUMPDEST PUSH1 0x0 DUP1 REVERT JUMPDEST PUSH1 0x0 DUP1 REVERT JUMPDEST PUSH1 0x0 PUSH1 0x1F NOT PUSH1 0x1F DUP4 ADD AND SWAP1 POP SWAP2 SWAP1 POP JUMP JUMPDEST PUSH32 0x4E487B7100000000000000000000000000000000000000000000000000000000 PUSH1 0x0 MSTORE PUSH1 0x41 PUSH1 0x4 MSTORE PUSH1 0x24 PUSH1 0x0 REVERT JUMPDEST PUSH2 0x40A DUP3 PUSH2 0x3C1 JUMP JUMPDEST DUP2 ADD DUP2 DUP2 LT PUSH8 0xFFFFFFFFFFFFFFFF DUP3 GT OR ISZERO PUSH2 0x429 JUMPI PUSH2 0x428 PUSH2 0x3D2 JUMP JUMPDEST JUMPDEST DUP1 PUSH1 0x40 MSTORE POP POP POP JUMP JUMPDEST PUSH1 0x0 PUSH2 0x43C PUSH2 0x37F JUMP JUMPDEST SWAP1 POP PUSH2 0x448 DUP3 DUP3 PUSH2 0x401 JUMP JUMPDEST SWAP2 SWAP1 POP JUMP JUMPDEST PUSH1 0x0 PUSH8 0xFFFFFFFFFFFFFFFF DUP3 GT ISZERO PUSH2 0x468 JUMPI PUSH2 0x467 PUSH2 0x3D2 JUMP JUMPDEST JUMPDEST PUSH2 0x471 DUP3 PUSH2 0x3C1 JUMP JUMPDEST SWAP1 POP PUSH1 0x20 DUP2 ADD SWAP1 POP SWAP2 SWAP1 POP JUMP JUMPDEST DUP3 DUP2 DUP4 CALLDATACOPY PUSH1 0x0 DUP4 DUP4 ADD MSTORE POP POP POP JUMP JUMPDEST PUSH1 0x0 PUSH2 0x4A0 PUSH2 0x49B DUP5 PUSH2 0x44D JUMP JUMPDEST PUSH2 0x432 JUMP JUMPDEST SWAP1 POP DUP3 DUP2 MSTORE PUSH1 0x20 DUP2 ADD DUP5 DUP5 DUP5 ADD GT ISZERO PUSH2 0x4BC JUMPI PUSH2 0x4BB PUSH2 0x3BC JUMP JUMPDEST JUMPDEST PUSH2 0x4C7 DUP5 DUP3 DUP6 PUSH2 0x47E JUMP JUMPDEST POP SWAP4 SWAP3 POP POP POP JUMP JUMPDEST PUSH1 0x0 DUP3 PUSH1 0x1F DUP4 ADD SLT PUSH2 0x4E4 JUMPI PUSH2 0x4E3 PUSH2 0x3B7 JUMP JUMPDEST JUMPDEST DUP2 CALLDATALOAD PUSH2 0x4F4 DUP5 DUP3 PUSH1 0x20 DUP7 ADD PUSH2 0x48D JUMP JUMPDEST SWAP2 POP POP SWAP3 SWAP2 POP POP JUMP JUMPDEST PUSH1 0x0 DUP1 PUSH1 0x40 DUP4 DUP6 SUB SLT ISZERO PUSH2 0x514 JUMPI PUSH2 0x513 PUSH2 0x389 JUMP JUMPDEST JUMPDEST PUSH1 0x0 DUP4 ADD CALLDATALOAD PUSH8 0xFFFFFFFFFFFFFFFF DUP2 GT ISZERO PUSH2 0x532 JUMPI PUSH2 0x531 PUSH2 0x38E JUMP JUMPDEST JUMPDEST PUSH2 0x53E DUP6 DUP3 DUP7 ADD PUSH2 0x398 JUMP JUMPDEST SWAP3 POP POP PUSH1 0x20 DUP4 ADD CALLDATALOAD PUSH8 0xFFFFFFFFFFFFFFFF DUP2 GT ISZERO PUSH2 0x55F JUMPI PUSH2 0x55E PUSH2 0x38E JUMP JUMPDEST JUMPDEST PUSH2 0x56B DUP6 DUP3 DUP7 ADD PUSH2 0x4CF JUMP JUMPDEST SWAP2 POP POP SWAP3 POP SWAP3 SWAP1 POP JUMP JUMPDEST PUSH1 0x0 PUSH20 0xFFFFFFFFFFFFFFFFFFFFFFFFFFFFFFFFFFFFFFFF DUP3 AND SWAP1 POP SWAP2 SWAP1 POP JUMP JUMPDEST PUSH1 0x0 PUSH2 0x5A0 DUP3 PUSH2 0x575 JUMP JUMPDEST SWAP1 POP SWAP2 SWAP1 POP JUMP JUMPDEST PUSH2 0x5B0 DUP2 PUSH2 0x595 JUMP JUMPDEST DUP3 MSTORE POP POP JUMP JUMPDEST PUSH1 0x0 PUSH1 0x20 DUP3 ADD SWAP1 POP PUSH2 0x5CB PUSH1 0x0 DUP4 ADD DUP5 PUSH2 0x5A7 JUMP JUMPDEST SWAP3 SWAP2 POP POP JUMP JUMPDEST PUSH2 0x5DA DUP2 PUSH2 0x595 JUMP JUMPDEST DUP2 EQ PUSH2 0x5E5 JUMPI PUSH1 0x0 DUP1 REVERT JUMPDEST POP JUMP JUMPDEST PUSH1 0x0 DUP2 CALLDATALOAD SWAP1 POP PUSH2 0x5F7 DUP2 PUSH2 0x5D1 JUMP JUMPDEST SWAP3 SWAP2 POP POP JUMP JUMPDEST PUSH1 0x0 PUSH2 0x60C PUSH1 0x20 DUP5 ADD DUP5 PUSH2 0x5E8 JUMP JUMPDEST SWAP1 POP SWAP3 SWAP2 POP POP JUMP JUMPDEST PUSH2 0x61D DUP2 PUSH2 0x595 JUMP JUMPDEST DUP3 MSTORE POP POP JUMP JUMPDEST PUSH1 0x0 DUP2 SWAP1 POP SWAP2 SWAP1 POP JUMP JUMPDEST PUSH2 0x636 DUP2 PUSH2 0x623 JUMP JUMPDEST DUP2 EQ PUSH2 0x641 JUMPI PUSH1 0x0 DUP1 REVERT JUMPDEST POP JUMP JUMPDEST PUSH1 0x0 DUP2 CALLDATALOAD SWAP1 POP PUSH2 0x653 DUP2 PUSH2 0x62D JUMP JUMPDEST SWAP3 SWAP2 POP POP JUMP JUMPDEST PUSH1 0x0 PUSH2 0x668 PUSH1 0x20 DUP5 ADD DUP5 PUSH2 0x644 JUMP JUMPDEST SWAP1 POP SWAP3 SWAP2 POP POP JUMP JUMPDEST PUSH2 0x679 DUP2 PUSH2 0x623 JUMP JUMPDEST DUP3 MSTORE POP POP JUMP JUMPDEST PUSH1 0x0 DUP1 REVERT JUMPDEST PUSH1 0x0 DUP1 REVERT JUMPDEST PUSH1 0x0 DUP1 REVERT JUMPDEST PUSH1 0x0 DUP1 DUP4 CALLDATALOAD PUSH1 0x1 PUSH1 0x20 SUB DUP5 CALLDATASIZE SUB SUB DUP2 SLT PUSH2 0x6AB JUMPI PUSH2 0x6AA PUSH2 0x689 JUMP JUMPDEST JUMPDEST DUP4 DUP2 ADD SWAP3 POP DUP3 CALLDATALOAD SWAP2 POP PUSH1 0x20 DUP4 ADD SWAP3 POP PUSH8 0xFFFFFFFFFFFFFFFF DUP3 GT ISZERO PUSH2 0x6D3 JUMPI PUSH2 0x6D2 PUSH2 0x67F JUMP JUMPDEST JUMPDEST PUSH1 0x1 DUP3 MUL CALLDATASIZE SUB DUP4 SGT ISZERO PUSH2 0x6E9 JUMPI PUSH2 0x6E8 PUSH2 0x684 JUMP JUMPDEST JUMPDEST POP SWAP3 POP SWAP3 SWAP1 POP JUMP JUMPDEST PUSH1 0x0 DUP3 DUP3 MSTORE PUSH1 0x20 DUP3 ADD SWAP1 POP SWAP3 SWAP2 POP POP JUMP JUMPDEST PUSH1 0x0 PUSH2 0x70E DUP4 DUP6 PUSH2 0x6F1 JUMP JUMPDEST SWAP4 POP PUSH2 0x71B DUP4 DUP6 DUP5 PUSH2 0x47E JUMP JUMPDEST PUSH2 0x724 DUP4 PUSH2 0x3C1 JUMP JUMPDEST DUP5 ADD SWAP1 POP SWAP4 SWAP3 POP POP POP JUMP JUMPDEST PUSH1 0x0 DUP2 ISZERO ISZERO SWAP1 POP SWAP2 SWAP1 POP JUMP JUMPDEST PUSH2 0x744 DUP2 PUSH2 0x72F JUMP JUMPDEST DUP2 EQ PUSH2 0x74F JUMPI PUSH1 0x0 DUP1 REVERT JUMPDEST POP JUMP JUMPDEST PUSH1 0x0 DUP2 CALLDATALOAD SWAP1 POP PUSH2 0x761 DUP2 PUSH2 0x73B JUMP JUMPDEST SWAP3 SWAP2 POP POP JUMP JUMPDEST PUSH1 0x0 PUSH2 0x776 PUSH1 0x20 DUP5 ADD DUP5 PUSH2 0x752 JUMP JUMPDEST SWAP1 POP SWAP3 SWAP2 POP POP JUMP JUMPDEST PUSH2 0x787 DUP2 PUSH2 0x72F JUMP JUMPDEST DUP3 MSTORE POP POP JUMP JUMPDEST PUSH1 0x0 PUSH1 0xE0 DUP4 ADD PUSH2 0x7A0 PUSH1 0x0 DUP5 ADD DUP5 PUSH2 0x5FD JUMP JUMPDEST PUSH2 0x7AD PUSH1 0x0 DUP7 ADD DUP3 PUSH2 0x614 JUMP JUMPDEST POP PUSH2 0x7BB PUSH1 0x20 DUP5 ADD DUP5 PUSH2 0x659 JUMP JUMPDEST PUSH2 0x7C8 PUSH1 0x20 DUP7 ADD DUP3 PUSH2 0x670 JUMP JUMPDEST POP PUSH2 0x7D6 PUSH1 0x40 DUP5 ADD DUP5 PUSH2 0x659 JUMP JUMPDEST PUSH2 0x7E3 PUSH1 0x40 DUP7 ADD DUP3 PUSH2 0x670 JUMP JUMPDEST POP PUSH2 0x7F1 PUSH1 0x60 DUP5 ADD DUP5 PUSH2 0x5FD JUMP JUMPDEST PUSH2 0x7FE PUSH1 0x60 DUP7 ADD DUP3 PUSH2 0x614 JUMP JUMPDEST POP PUSH2 0x80C PUSH1 0x80 DUP5 ADD DUP5 PUSH2 0x68E JUMP JUMPDEST DUP6 DUP4 SUB PUSH1 0x80 DUP8 ADD MSTORE PUSH2 0x81F DUP4 DUP3 DUP5 PUSH2 0x702 JUMP JUMPDEST SWAP3 POP POP POP PUSH2 0x830 PUSH1 0xA0 DUP5 ADD DUP5 PUSH2 0x5FD JUMP JUMPDEST PUSH2 0x83D PUSH1 0xA0 DUP7 ADD DUP3 PUSH2 0x614 JUMP JUMPDEST POP PUSH2 0x84B PUSH1 0xC0 DUP5 ADD DUP5 PUSH2 0x767 JUMP JUMPDEST PUSH2 0x858 PUSH1 0xC0 DUP7 ADD DUP3 PUSH2 0x77E JUMP JUMPDEST POP DUP1 SWAP2 POP POP SWAP3 SWAP2 POP POP JUMP JUMPDEST PUSH1 0x0 PUSH1 0x20 DUP3 ADD SWAP1 POP DUP2 DUP2 SUB PUSH1 0x0 DUP4 ADD MSTORE PUSH2 0x87D DUP2 DUP5 PUSH2 0x78D JUMP JUMPDEST SWAP1 POP SWAP3 SWAP2 POP POP JUMP JUMPDEST PUSH32 0x4E487B7100000000000000000000000000000000000000000000000000000000 PUSH1 0x0 MSTORE PUSH1 0x21 PUSH1 0x4 MSTORE PUSH1 0x24 PUSH1 0x0 REVERT JUMPDEST PUSH1 0x0 DUP3 DUP3 MSTORE PUSH1 0x20 DUP3 ADD SWAP1 POP SWAP3 SWAP2 POP POP JUMP JUMPDEST PUSH32 0x45434453413A20696E76616C6964207369676E61747572650000000000000000 PUSH1 0x0 DUP3 ADD MSTORE POP JUMP JUMPDEST PUSH1 0x0 PUSH2 0x8FB PUSH1 0x18 DUP4 PUSH2 0x8B4 JUMP JUMPDEST SWAP2 POP PUSH2 0x906 DUP3 PUSH2 0x8C5 JUMP JUMPDEST PUSH1 0x20 DUP3 ADD SWAP1 POP SWAP2 SWAP1 POP JUMP JUMPDEST PUSH1 0x0 PUSH1 0x20 DUP3 ADD SWAP1 POP DUP2 DUP2 SUB PUSH1 0x0 DUP4 ADD MSTORE PUSH2 0x92A DUP2 PUSH2 0x8EE JUMP JUMPDEST SWAP1 POP SWAP2 SWAP1 POP JUMP JUMPDEST PUSH32 0x45434453413A20696E76616C6964207369676E6174757265206C656E67746800 PUSH1 0x0 DUP3 ADD MSTORE POP JUMP JUMPDEST PUSH1 0x0 PUSH2 0x967 PUSH1 0x1F DUP4 PUSH2 0x8B4 JUMP JUMPDEST SWAP2 POP PUSH2 0x972 DUP3 PUSH2 0x931 JUMP JUMPDEST PUSH1 0x20 DUP3 ADD SWAP1 POP SWAP2 SWAP1 POP JUMP JUMPDEST PUSH1 0x0 PUSH1 0x20 DUP3 ADD SWAP1 POP DUP2 DUP2 SUB PUSH1 0x0 DUP4 ADD MSTORE PUSH2 0x996 DUP2 PUSH2 0x95A JUMP JUMPDEST SWAP1 POP SWAP2 SWAP1 POP JUMP JUMPDEST PUSH32 0x45434453413A20696E76616C6964207369676E6174757265202773272076616C PUSH1 0x0 DUP3 ADD MSTORE PUSH32 0x7565000000000000000000000000000000000000000000000000000000000000 PUSH1 0x20 DUP3 ADD MSTORE POP JUMP JUMPDEST PUSH1 0x0 PUSH2 0x9F9 PUSH1 0x22 DUP4 PUSH2 0x8B4 JUMP JUMPDEST SWAP2 POP PUSH2 0xA04 DUP3 PUSH2 0x99D JUMP JUMPDEST PUSH1 0x40 DUP3 ADD SWAP1 POP SWAP2 SWAP1 POP JUMP JUMPDEST PUSH1 0x0 PUSH1 0x20 DUP3 ADD SWAP1 POP DUP2 DUP2 SUB PUSH1 0x0 DUP4 ADD MSTORE PUSH2 0xA28 DUP2 PUSH2 0x9EC JUMP JUMPDEST SWAP1 POP SWAP2 SWAP1 POP JUMP JUMPDEST PUSH1 0x0 DUP2 SWAP1 POP SWAP2 SWAP1 POP JUMP JUMPDEST PUSH2 0xA42 DUP2 PUSH2 0xA2F JUMP JUMPDEST DUP3 MSTORE POP POP JUMP JUMPDEST PUSH1 0x0 PUSH1 0xFF DUP3 AND SWAP1 POP SWAP2 SWAP1 POP JUMP JUMPDEST PUSH2 0xA5E DUP2 PUSH2 0xA48 JUMP JUMPDEST DUP3 MSTORE POP POP JUMP JUMPDEST PUSH1 0x0 PUSH1 0x80 DUP3 ADD SWAP1 POP PUSH2 0xA79 PUSH1 0x0 DUP4 ADD DUP8 PUSH2 0xA39 JUMP JUMPDEST PUSH2 0xA86 PUSH1 0x20 DUP4 ADD DUP7 PUSH2 0xA55 JUMP JUMPDEST PUSH2 0xA93 PUSH1 0x40 DUP4 ADD DUP6 PUSH2 0xA39 JUMP JUMPDEST PUSH2 0xAA0 PUSH1 0x60 DUP4 ADD DUP5 PUSH2 0xA39 JUMP JUMPDEST SWAP6 SWAP5 POP POP POP POP POP JUMP INVALID LOG2 PUSH5 0x6970667358 0x22 SLT KECCAK256 0xEF PUSH21 0x16FC4235C51F328A780AA0C36142911753B87910E5 0xAC SLOAD LOG4 PC DUP16 0xD 0xD9 0xFB LOG3 PUSH5 0x736F6C6343 STOP ADDMOD SLT STOP CALLER "
				},
				"gasEstimates": {
					"creation": {
						"codeDepositCost": "556600",
						"executionCost": "616",
						"totalCost": "557216"
					},
					"external": {
						"signer(IExchangeAggregator.swapData,bytes)": "infinite"
					},
					"internal": {
						"checkSig(address,bytes memory,bytes memory)": "infinite",
						"hash(bytes memory)": "infinite"
					}
				},
				"methodIdentifiers": {
					"signer(IExchangeAggregator.swapData,bytes)": "4f5fdbe5"
				}
			},
			"storageLayout": {
				"storage": [],
				"types": null
			},
			"userdoc": {
				"kind": "user",
				"methods": {},
				"version": 1
			}
		}
	}
}