{
	"contracts/bridge.sol": {
		"ALLBridge": {
			"abi": [
				{
					"inputs": [
						{
							"internalType": "bytes",
							"name": "data",
							"type": "bytes"
						},
						{
							"internalType": "uint256",
							"name": "amountIn",
							"type": "uint256"
						}
					],
					"name": "Bridge",
					"outputs": [],
					"stateMutability": "payable",
					"type": "function"
				},
				{
					"inputs": [],
					"name": "bridge",
					"outputs": [
						{
							"internalType": "address",
							"name": "",
							"type": "address"
						}
					],
					"stateMutability": "view",
					"type": "function"
				},
				{
					"inputs": [
						{
							"internalType": "bytes",
							"name": "data",
							"type": "bytes"
						}
					],
					"name": "decode",
					"outputs": [
						{
							"components": [
								{
									"internalType": "uint256",
									"name": "totalAmount",
									"type": "uint256"
								},
								{
									"internalType": "bytes32",
									"name": "tokenAddress",
									"type": "bytes32"
								},
								{
									"internalType": "bytes32",
									"name": "recipient",
									"type": "bytes32"
								},
								{
									"internalType": "uint8",
									"name": "destinationChainId",
									"type": "uint8"
								},
								{
									"internalType": "bytes32",
									"name": "receiveTokenAddress",
									"type": "bytes32"
								},
								{
									"internalType": "uint256",
									"name": "nonce",
									"type": "uint256"
								},
								{
									"internalType": "enum IAllBridge.MessengerProtocol",
									"name": "messenger",
									"type": "uint8"
								}
							],
							"internalType": "struct ALLBridge.allBridgeInput",
							"name": "",
							"type": "tuple"
						}
					],
					"stateMutability": "pure",
					"type": "function"
				}
			],
			"devdoc": {
				"kind": "dev",
				"methods": {},
				"version": 1
			},
			"evm": {
				"assembly": "    /* \"contracts/bridge.sol\":559:1740  contract ALLBridge is IBridge {    ... */\n  mstore(0x40, 0x80)\n  callvalue\n  dup1\n  iszero\n  tag_1\n  jumpi\n  0x00\n  dup1\n  revert\ntag_1:\n  pop\n  dataSize(sub_0)\n  dup1\n  dataOffset(sub_0)\n  0x00\n  codecopy\n  0x00\n  return\nstop\n\nsub_0: assembly {\n        /* \"contracts/bridge.sol\":559:1740  contract ALLBridge is IBridge {    ... */\n      mstore(0x40, 0x80)\n      jumpi(tag_1, lt(calldatasize, 0x04))\n      shr(0xe0, calldataload(0x00))\n      dup1\n      0x0a2fb374\n      eq\n      tag_2\n      jumpi\n      dup1\n      0xe5c5e9a3\n      eq\n      tag_3\n      jumpi\n      dup1\n      0xe78cea92\n      eq\n      tag_4\n      jumpi\n    tag_1:\n      0x00\n      dup1\n      revert\n        /* \"contracts/bridge.sol\":890:1590  function Bridge(bytes calldata data,uint amountIn) public payable {... */\n    tag_2:\n      tag_5\n      0x04\n      dup1\n      calldatasize\n      sub\n      dup2\n      add\n      swap1\n      tag_6\n      swap2\n      swap1\n      tag_7\n      jump\t// in\n    tag_6:\n      tag_8\n      jump\t// in\n    tag_5:\n      stop\n        /* \"contracts/bridge.sol\":1601:1737  function decode(bytes calldata data) public pure returns(allBridgeInput memory){... */\n    tag_3:\n      callvalue\n      dup1\n      iszero\n      tag_9\n      jumpi\n      0x00\n      dup1\n      revert\n    tag_9:\n      pop\n      tag_10\n      0x04\n      dup1\n      calldatasize\n      sub\n      dup2\n      add\n      swap1\n      tag_11\n      swap2\n      swap1\n      tag_12\n      jump\t// in\n    tag_11:\n      tag_13\n      jump\t// in\n    tag_10:\n      mload(0x40)\n      tag_14\n      swap2\n      swap1\n      tag_15\n      jump\t// in\n    tag_14:\n      mload(0x40)\n      dup1\n      swap2\n      sub\n      swap1\n      return\n        /* \"contracts/bridge.sol\":599:620  address public bridge */\n    tag_4:\n      callvalue\n      dup1\n      iszero\n      tag_16\n      jumpi\n      0x00\n      dup1\n      revert\n    tag_16:\n      pop\n      tag_17\n      tag_18\n      jump\t// in\n    tag_17:\n      mload(0x40)\n      tag_19\n      swap2\n      swap1\n      tag_20\n      jump\t// in\n    tag_19:\n      mload(0x40)\n      dup1\n      swap2\n      sub\n      swap1\n      return\n        /* \"contracts/bridge.sol\":890:1590  function Bridge(bytes calldata data,uint amountIn) public payable {... */\n    tag_8:\n        /* \"contracts/bridge.sol\":967:994  allBridgeInput memory input */\n      0x00\n        /* \"contracts/bridge.sol\":1009:1013  data */\n      dup4\n      dup4\n        /* \"contracts/bridge.sol\":998:1031  abi.decode(data,(allBridgeInput)) */\n      dup2\n      add\n      swap1\n      tag_22\n      swap2\n      swap1\n      tag_23\n      jump\t// in\n    tag_22:\n        /* \"contracts/bridge.sol\":966:1031  (allBridgeInput memory input) = abi.decode(data,(allBridgeInput)) */\n      swap1\n      pop\n        /* \"contracts/bridge.sol\":1046:1066  address tokenAddress */\n      0x00\n        /* \"contracts/bridge.sol\":1093:1098  input */\n      dup2\n        /* \"contracts/bridge.sol\":1093:1111  input.tokenAddress */\n      0x20\n      add\n      mload\n        /* \"contracts/bridge.sol\":1085:1112  uint256(input.tokenAddress) */\n      0x00\n      shr\n        /* \"contracts/bridge.sol\":1046:1114  address tokenAddress = address(uint160(uint256(input.tokenAddress))) */\n      swap1\n      pop\n        /* \"contracts/bridge.sol\":1128:1207  TransferHelper.safeTransferFrom(tokenAddress,msg.sender,address(this),amountIn) */\n      tag_24\n        /* \"contracts/bridge.sol\":1160:1172  tokenAddress */\n      dup2\n        /* \"contracts/bridge.sol\":1173:1183  msg.sender */\n      caller\n        /* \"contracts/bridge.sol\":1192:1196  this */\n      address\n        /* \"contracts/bridge.sol\":1198:1206  amountIn */\n      dup7\n        /* \"contracts/bridge.sol\":1128:1159  TransferHelper.safeTransferFrom */\n      tag_25\n        /* \"contracts/bridge.sol\":1128:1207  TransferHelper.safeTransferFrom(tokenAddress,msg.sender,address(this),amountIn) */\n      jump\t// in\n    tag_24:\n        /* \"contracts/bridge.sol\":1221:1277  TransferHelper.safeApprove(tokenAddress,bridge,amountIn) */\n      tag_26\n        /* \"contracts/bridge.sol\":1248:1260  tokenAddress */\n      dup2\n        /* \"contracts/bridge.sol\":1261:1267  bridge */\n      0x00\n      dup1\n      sload\n      swap1\n      0x0100\n      exp\n      swap1\n      div\n      0xffffffffffffffffffffffffffffffffffffffff\n      and\n        /* \"contracts/bridge.sol\":1268:1276  amountIn */\n      dup6\n        /* \"contracts/bridge.sol\":1221:1247  TransferHelper.safeApprove */\n      tag_27\n        /* \"contracts/bridge.sol\":1221:1277  TransferHelper.safeApprove(tokenAddress,bridge,amountIn) */\n      jump\t// in\n    tag_26:\n        /* \"contracts/bridge.sol\":1302:1308  bridge */\n      0x00\n      dup1\n      sload\n      swap1\n      0x0100\n      exp\n      swap1\n      div\n      0xffffffffffffffffffffffffffffffffffffffff\n      and\n        /* \"contracts/bridge.sol\":1291:1323  IAllBridge(bridge).swapAndBridge */\n      0xffffffffffffffffffffffffffffffffffffffff\n      and\n      0xf35e37d3\n        /* \"contracts/bridge.sol\":1330:1339  msg.value */\n      callvalue\n        /* \"contracts/bridge.sol\":1358:1363  input */\n      dup5\n        /* \"contracts/bridge.sol\":1358:1376  input.tokenAddress */\n      0x20\n      add\n      mload\n        /* \"contracts/bridge.sol\":1394:1402  amountIn */\n      dup7\n        /* \"contracts/bridge.sol\":1420:1425  input */\n      dup7\n        /* \"contracts/bridge.sol\":1420:1435  input.recipient */\n      0x40\n      add\n      mload\n        /* \"contracts/bridge.sol\":1453:1458  input */\n      dup8\n        /* \"contracts/bridge.sol\":1453:1477  input.destinationChainId */\n      0x60\n      add\n      mload\n        /* \"contracts/bridge.sol\":1495:1500  input */\n      dup9\n        /* \"contracts/bridge.sol\":1495:1520  input.receiveTokenAddress */\n      0x80\n      add\n      mload\n        /* \"contracts/bridge.sol\":1538:1543  input */\n      dup10\n        /* \"contracts/bridge.sol\":1538:1549  input.nonce */\n      0xa0\n      add\n      mload\n        /* \"contracts/bridge.sol\":1567:1572  input */\n      dup11\n        /* \"contracts/bridge.sol\":1567:1582  input.messenger */\n      0xc0\n      add\n      mload\n        /* \"contracts/bridge.sol\":1291:1583  IAllBridge(bridge).swapAndBridge{value:msg.value}(... */\n      mload(0x40)\n      dup10\n      0xffffffff\n      and\n      0xe0\n      shl\n      dup2\n      mstore\n      0x04\n      add\n      tag_28\n      swap8\n      swap7\n      swap6\n      swap5\n      swap4\n      swap3\n      swap2\n      swap1\n      tag_29\n      jump\t// in\n    tag_28:\n      0x00\n      mload(0x40)\n      dup1\n      dup4\n      sub\n      dup2\n      dup6\n      dup9\n      dup1\n      extcodesize\n      iszero\n      dup1\n      iszero\n      tag_30\n      jumpi\n      0x00\n      dup1\n      revert\n    tag_30:\n      pop\n      gas\n      call\n      iszero\n      dup1\n      iszero\n      tag_32\n      jumpi\n      returndatasize\n      0x00\n      dup1\n      returndatacopy\n      revert(0x00, returndatasize)\n    tag_32:\n      pop\n      pop\n      pop\n      pop\n      pop\n        /* \"contracts/bridge.sol\":956:1590  {... */\n      pop\n      pop\n        /* \"contracts/bridge.sol\":890:1590  function Bridge(bytes calldata data,uint amountIn) public payable {... */\n      pop\n      pop\n      pop\n      jump\t// out\n        /* \"contracts/bridge.sol\":1601:1737  function decode(bytes calldata data) public pure returns(allBridgeInput memory){... */\n    tag_13:\n        /* \"contracts/bridge.sol\":1658:1679  allBridgeInput memory */\n      tag_33\n      tag_34\n      jump\t// in\n    tag_33:\n        /* \"contracts/bridge.sol\":1708:1712  data */\n      dup3\n      dup3\n        /* \"contracts/bridge.sol\":1697:1730  abi.decode(data,(allBridgeInput)) */\n      dup2\n      add\n      swap1\n      tag_36\n      swap2\n      swap1\n      tag_23\n      jump\t// in\n    tag_36:\n        /* \"contracts/bridge.sol\":1690:1730  return abi.decode(data,(allBridgeInput)) */\n      swap1\n      pop\n        /* \"contracts/bridge.sol\":1601:1737  function decode(bytes calldata data) public pure returns(allBridgeInput memory){... */\n      swap3\n      swap2\n      pop\n      pop\n      jump\t// out\n        /* \"contracts/bridge.sol\":599:620  address public bridge */\n    tag_18:\n      0x00\n      dup1\n      sload\n      swap1\n      0x0100\n      exp\n      swap1\n      div\n      0xffffffffffffffffffffffffffffffffffffffff\n      and\n      dup2\n      jump\t// out\n        /* \"contracts/libraries/transferHelper.sol\":1101:1589  function safeTransferFrom(... */\n    tag_25:\n        /* \"contracts/libraries/transferHelper.sol\":1319:1331  bool success */\n      0x00\n        /* \"contracts/libraries/transferHelper.sol\":1333:1350  bytes memory data */\n      dup1\n        /* \"contracts/libraries/transferHelper.sol\":1354:1359  token */\n      dup6\n        /* \"contracts/libraries/transferHelper.sol\":1354:1364  token.call */\n      0xffffffffffffffffffffffffffffffffffffffff\n      and\n        /* \"contracts/libraries/transferHelper.sol\":1388:1398  0x23b872dd */\n      0x23b872dd\n        /* \"contracts/libraries/transferHelper.sol\":1400:1404  from */\n      dup7\n        /* \"contracts/libraries/transferHelper.sol\":1406:1408  to */\n      dup7\n        /* \"contracts/libraries/transferHelper.sol\":1410:1415  value */\n      dup7\n        /* \"contracts/libraries/transferHelper.sol\":1365:1416  abi.encodeWithSelector(0x23b872dd, from, to, value) */\n      add(0x24, mload(0x40))\n      tag_38\n      swap4\n      swap3\n      swap2\n      swap1\n      tag_39\n      jump\t// in\n    tag_38:\n      mload(0x40)\n      0x20\n      dup2\n      dup4\n      sub\n      sub\n      dup2\n      mstore\n      swap1\n      0x40\n      mstore\n      swap1\n      0xe0\n      shl\n      0x20\n      dup3\n      add\n      dup1\n      mload\n      0xffffffffffffffffffffffffffffffffffffffffffffffffffffffff\n      dup4\n      dup2\n      dup4\n      and\n      or\n      dup4\n      mstore\n      pop\n      pop\n      pop\n      pop\n        /* \"contracts/libraries/transferHelper.sol\":1354:1417  token.call(abi.encodeWithSelector(0x23b872dd, from, to, value)) */\n      mload(0x40)\n      tag_40\n      swap2\n      swap1\n      tag_41\n      jump\t// in\n    tag_40:\n      0x00\n      mload(0x40)\n      dup1\n      dup4\n      sub\n      dup2\n      0x00\n      dup7\n      gas\n      call\n      swap2\n      pop\n      pop\n      returndatasize\n      dup1\n      0x00\n      dup2\n      eq\n      tag_44\n      jumpi\n      mload(0x40)\n      swap2\n      pop\n      and(add(returndatasize, 0x3f), not(0x1f))\n      dup3\n      add\n      0x40\n      mstore\n      returndatasize\n      dup3\n      mstore\n      returndatasize\n      0x00\n      0x20\n      dup5\n      add\n      returndatacopy\n      jump(tag_43)\n    tag_44:\n      0x60\n      swap2\n      pop\n    tag_43:\n      pop\n        /* \"contracts/libraries/transferHelper.sol\":1318:1417  (bool success, bytes memory data) = token.call(abi.encodeWithSelector(0x23b872dd, from, to, value)) */\n      swap2\n      pop\n      swap2\n      pop\n        /* \"contracts/libraries/transferHelper.sol\":1448:1455  success */\n      dup2\n        /* \"contracts/libraries/transferHelper.sol\":1448:1505  success && (data.length == 0 || abi.decode(data, (bool))) */\n      dup1\n      iszero\n      tag_45\n      jumpi\n      pop\n        /* \"contracts/libraries/transferHelper.sol\":1475:1476  0 */\n      0x00\n        /* \"contracts/libraries/transferHelper.sol\":1460:1464  data */\n      dup2\n        /* \"contracts/libraries/transferHelper.sol\":1460:1471  data.length */\n      mload\n        /* \"contracts/libraries/transferHelper.sol\":1460:1476  data.length == 0 */\n      eq\n        /* \"contracts/libraries/transferHelper.sol\":1460:1504  data.length == 0 || abi.decode(data, (bool)) */\n      dup1\n      tag_46\n      jumpi\n      pop\n        /* \"contracts/libraries/transferHelper.sol\":1491:1495  data */\n      dup1\n        /* \"contracts/libraries/transferHelper.sol\":1480:1504  abi.decode(data, (bool)) */\n      dup1\n      0x20\n      add\n      swap1\n      mload\n      dup2\n      add\n      swap1\n      tag_47\n      swap2\n      swap1\n      tag_48\n      jump\t// in\n    tag_47:\n        /* \"contracts/libraries/transferHelper.sol\":1460:1504  data.length == 0 || abi.decode(data, (bool)) */\n    tag_46:\n        /* \"contracts/libraries/transferHelper.sol\":1448:1505  success && (data.length == 0 || abi.decode(data, (bool))) */\n    tag_45:\n        /* \"contracts/libraries/transferHelper.sol\":1427:1582  require(... */\n      tag_49\n      jumpi\n      mload(0x40)\n      0x08c379a000000000000000000000000000000000000000000000000000000000\n      dup2\n      mstore\n      0x04\n      add\n      tag_50\n      swap1\n      tag_51\n      jump\t// in\n    tag_50:\n      mload(0x40)\n      dup1\n      swap2\n      sub\n      swap1\n      revert\n    tag_49:\n        /* \"contracts/libraries/transferHelper.sol\":1230:1589  {... */\n      pop\n      pop\n        /* \"contracts/libraries/transferHelper.sol\":1101:1589  function safeTransferFrom(... */\n      pop\n      pop\n      pop\n      pop\n      jump\t// out\n        /* \"contracts/libraries/transferHelper.sol\":212:649  function safeApprove(... */\n    tag_27:\n        /* \"contracts/libraries/transferHelper.sol\":390:402  bool success */\n      0x00\n        /* \"contracts/libraries/transferHelper.sol\":404:421  bytes memory data */\n      dup1\n        /* \"contracts/libraries/transferHelper.sol\":425:430  token */\n      dup5\n        /* \"contracts/libraries/transferHelper.sol\":425:435  token.call */\n      0xffffffffffffffffffffffffffffffffffffffff\n      and\n        /* \"contracts/libraries/transferHelper.sol\":459:469  0x095ea7b3 */\n      0x095ea7b3\n        /* \"contracts/libraries/transferHelper.sol\":471:473  to */\n      dup6\n        /* \"contracts/libraries/transferHelper.sol\":475:480  value */\n      dup6\n        /* \"contracts/libraries/transferHelper.sol\":436:481  abi.encodeWithSelector(0x095ea7b3, to, value) */\n      add(0x24, mload(0x40))\n      tag_53\n      swap3\n      swap2\n      swap1\n      tag_54\n      jump\t// in\n    tag_53:\n      mload(0x40)\n      0x20\n      dup2\n      dup4\n      sub\n      sub\n      dup2\n      mstore\n      swap1\n      0x40\n      mstore\n      swap1\n      0xe0\n      shl\n      0x20\n      dup3\n      add\n      dup1\n      mload\n      0xffffffffffffffffffffffffffffffffffffffffffffffffffffffff\n      dup4\n      dup2\n      dup4\n      and\n      or\n      dup4\n      mstore\n      pop\n      pop\n      pop\n      pop\n        /* \"contracts/libraries/transferHelper.sol\":425:482  token.call(abi.encodeWithSelector(0x095ea7b3, to, value)) */\n      mload(0x40)\n      tag_55\n      swap2\n      swap1\n      tag_41\n      jump\t// in\n    tag_55:\n      0x00\n      mload(0x40)\n      dup1\n      dup4\n      sub\n      dup2\n      0x00\n      dup7\n      gas\n      call\n      swap2\n      pop\n      pop\n      returndatasize\n      dup1\n      0x00\n      dup2\n      eq\n      tag_58\n      jumpi\n      mload(0x40)\n      swap2\n      pop\n      and(add(returndatasize, 0x3f), not(0x1f))\n      dup3\n      add\n      0x40\n      mstore\n      returndatasize\n      dup3\n      mstore\n      returndatasize\n      0x00\n      0x20\n      dup5\n      add\n      returndatacopy\n      jump(tag_57)\n    tag_58:\n      0x60\n      swap2\n      pop\n    tag_57:\n      pop\n        /* \"contracts/libraries/transferHelper.sol\":389:482  (bool success, bytes memory data) = token.call(abi.encodeWithSelector(0x095ea7b3, to, value)) */\n      swap2\n      pop\n      swap2\n      pop\n        /* \"contracts/libraries/transferHelper.sol\":513:520  success */\n      dup2\n        /* \"contracts/libraries/transferHelper.sol\":513:570  success && (data.length == 0 || abi.decode(data, (bool))) */\n      dup1\n      iszero\n      tag_59\n      jumpi\n      pop\n        /* \"contracts/libraries/transferHelper.sol\":540:541  0 */\n      0x00\n        /* \"contracts/libraries/transferHelper.sol\":525:529  data */\n      dup2\n        /* \"contracts/libraries/transferHelper.sol\":525:536  data.length */\n      mload\n        /* \"contracts/libraries/transferHelper.sol\":525:541  data.length == 0 */\n      eq\n        /* \"contracts/libraries/transferHelper.sol\":525:569  data.length == 0 || abi.decode(data, (bool)) */\n      dup1\n      tag_60\n      jumpi\n      pop\n        /* \"contracts/libraries/transferHelper.sol\":556:560  data */\n      dup1\n        /* \"contracts/libraries/transferHelper.sol\":545:569  abi.decode(data, (bool)) */\n      dup1\n      0x20\n      add\n      swap1\n      mload\n      dup2\n      add\n      swap1\n      tag_61\n      swap2\n      swap1\n      tag_48\n      jump\t// in\n    tag_61:\n        /* \"contracts/libraries/transferHelper.sol\":525:569  data.length == 0 || abi.decode(data, (bool)) */\n    tag_60:\n        /* \"contracts/libraries/transferHelper.sol\":513:570  success && (data.length == 0 || abi.decode(data, (bool))) */\n    tag_59:\n        /* \"contracts/libraries/transferHelper.sol\":492:642  require(... */\n      tag_62\n      jumpi\n      mload(0x40)\n      0x08c379a000000000000000000000000000000000000000000000000000000000\n      dup2\n      mstore\n      0x04\n      add\n      tag_63\n      swap1\n      tag_64\n      jump\t// in\n    tag_63:\n      mload(0x40)\n      dup1\n      swap2\n      sub\n      swap1\n      revert\n    tag_62:\n        /* \"contracts/libraries/transferHelper.sol\":314:649  {... */\n      pop\n      pop\n        /* \"contracts/libraries/transferHelper.sol\":212:649  function safeApprove(... */\n      pop\n      pop\n      pop\n      jump\t// out\n    tag_34:\n      mload(0x40)\n      dup1\n      0xe0\n      add\n      0x40\n      mstore\n      dup1\n      0x00\n      dup2\n      mstore\n      0x20\n      add\n      0x00\n      dup1\n      not\n      and\n      dup2\n      mstore\n      0x20\n      add\n      0x00\n      dup1\n      not\n      and\n      dup2\n      mstore\n      0x20\n      add\n      and(0xff, 0x00)\n      dup2\n      mstore\n      0x20\n      add\n      0x00\n      dup1\n      not\n      and\n      dup2\n      mstore\n      0x20\n      add\n      0x00\n      dup2\n      mstore\n      0x20\n      add\n      0x00\n      0x03\n      dup2\n      gt\n      iszero\n      tag_65\n      jumpi\n      tag_66\n      tag_67\n      jump\t// in\n    tag_66:\n    tag_65:\n      dup2\n      mstore\n      pop\n      swap1\n      jump\t// out\n        /* \"#utility.yul\":7:82   */\n    tag_68:\n        /* \"#utility.yul\":40:46   */\n      0x00\n        /* \"#utility.yul\":73:75   */\n      0x40\n        /* \"#utility.yul\":67:76   */\n      mload\n        /* \"#utility.yul\":57:76   */\n      swap1\n      pop\n        /* \"#utility.yul\":7:82   */\n      swap1\n      jump\t// out\n        /* \"#utility.yul\":88:205   */\n    tag_69:\n        /* \"#utility.yul\":197:198   */\n      0x00\n        /* \"#utility.yul\":194:195   */\n      dup1\n        /* \"#utility.yul\":187:199   */\n      revert\n        /* \"#utility.yul\":211:328   */\n    tag_70:\n        /* \"#utility.yul\":320:321   */\n      0x00\n        /* \"#utility.yul\":317:318   */\n      dup1\n        /* \"#utility.yul\":310:322   */\n      revert\n        /* \"#utility.yul\":334:451   */\n    tag_71:\n        /* \"#utility.yul\":443:444   */\n      0x00\n        /* \"#utility.yul\":440:441   */\n      dup1\n        /* \"#utility.yul\":433:445   */\n      revert\n        /* \"#utility.yul\":457:574   */\n    tag_72:\n        /* \"#utility.yul\":566:567   */\n      0x00\n        /* \"#utility.yul\":563:564   */\n      dup1\n        /* \"#utility.yul\":556:568   */\n      revert\n        /* \"#utility.yul\":580:697   */\n    tag_73:\n        /* \"#utility.yul\":689:690   */\n      0x00\n        /* \"#utility.yul\":686:687   */\n      dup1\n        /* \"#utility.yul\":679:691   */\n      revert\n        /* \"#utility.yul\":716:1268   */\n    tag_74:\n        /* \"#utility.yul\":773:781   */\n      0x00\n        /* \"#utility.yul\":783:789   */\n      dup1\n        /* \"#utility.yul\":833:836   */\n      dup4\n        /* \"#utility.yul\":826:830   */\n      0x1f\n        /* \"#utility.yul\":818:824   */\n      dup5\n        /* \"#utility.yul\":814:831   */\n      add\n        /* \"#utility.yul\":810:837   */\n      slt\n        /* \"#utility.yul\":800:922   */\n      tag_128\n      jumpi\n        /* \"#utility.yul\":841:920   */\n      tag_129\n      tag_71\n      jump\t// in\n    tag_129:\n        /* \"#utility.yul\":800:922   */\n    tag_128:\n        /* \"#utility.yul\":954:960   */\n      dup3\n        /* \"#utility.yul\":941:961   */\n      calldataload\n        /* \"#utility.yul\":931:961   */\n      swap1\n      pop\n        /* \"#utility.yul\":984:1002   */\n      0xffffffffffffffff\n        /* \"#utility.yul\":976:982   */\n      dup2\n        /* \"#utility.yul\":973:1003   */\n      gt\n        /* \"#utility.yul\":970:1087   */\n      iszero\n      tag_130\n      jumpi\n        /* \"#utility.yul\":1006:1085   */\n      tag_131\n      tag_72\n      jump\t// in\n    tag_131:\n        /* \"#utility.yul\":970:1087   */\n    tag_130:\n        /* \"#utility.yul\":1120:1124   */\n      0x20\n        /* \"#utility.yul\":1112:1118   */\n      dup4\n        /* \"#utility.yul\":1108:1125   */\n      add\n        /* \"#utility.yul\":1096:1125   */\n      swap2\n      pop\n        /* \"#utility.yul\":1174:1177   */\n      dup4\n        /* \"#utility.yul\":1166:1170   */\n      0x01\n        /* \"#utility.yul\":1158:1164   */\n      dup3\n        /* \"#utility.yul\":1154:1171   */\n      mul\n        /* \"#utility.yul\":1144:1152   */\n      dup4\n        /* \"#utility.yul\":1140:1172   */\n      add\n        /* \"#utility.yul\":1137:1178   */\n      gt\n        /* \"#utility.yul\":1134:1262   */\n      iszero\n      tag_132\n      jumpi\n        /* \"#utility.yul\":1181:1260   */\n      tag_133\n      tag_73\n      jump\t// in\n    tag_133:\n        /* \"#utility.yul\":1134:1262   */\n    tag_132:\n        /* \"#utility.yul\":716:1268   */\n      swap3\n      pop\n      swap3\n      swap1\n      pop\n      jump\t// out\n        /* \"#utility.yul\":1274:1351   */\n    tag_75:\n        /* \"#utility.yul\":1311:1318   */\n      0x00\n        /* \"#utility.yul\":1340:1345   */\n      dup2\n        /* \"#utility.yul\":1329:1345   */\n      swap1\n      pop\n        /* \"#utility.yul\":1274:1351   */\n      swap2\n      swap1\n      pop\n      jump\t// out\n        /* \"#utility.yul\":1357:1479   */\n    tag_76:\n        /* \"#utility.yul\":1430:1454   */\n      tag_136\n        /* \"#utility.yul\":1448:1453   */\n      dup2\n        /* \"#utility.yul\":1430:1454   */\n      tag_75\n      jump\t// in\n    tag_136:\n        /* \"#utility.yul\":1423:1428   */\n      dup2\n        /* \"#utility.yul\":1420:1455   */\n      eq\n        /* \"#utility.yul\":1410:1473   */\n      tag_137\n      jumpi\n        /* \"#utility.yul\":1469:1470   */\n      0x00\n        /* \"#utility.yul\":1466:1467   */\n      dup1\n        /* \"#utility.yul\":1459:1471   */\n      revert\n        /* \"#utility.yul\":1410:1473   */\n    tag_137:\n        /* \"#utility.yul\":1357:1479   */\n      pop\n      jump\t// out\n        /* \"#utility.yul\":1485:1624   */\n    tag_77:\n        /* \"#utility.yul\":1531:1536   */\n      0x00\n        /* \"#utility.yul\":1569:1575   */\n      dup2\n        /* \"#utility.yul\":1556:1576   */\n      calldataload\n        /* \"#utility.yul\":1547:1576   */\n      swap1\n      pop\n        /* \"#utility.yul\":1585:1618   */\n      tag_139\n        /* \"#utility.yul\":1612:1617   */\n      dup2\n        /* \"#utility.yul\":1585:1618   */\n      tag_76\n      jump\t// in\n    tag_139:\n        /* \"#utility.yul\":1485:1624   */\n      swap3\n      swap2\n      pop\n      pop\n      jump\t// out\n        /* \"#utility.yul\":1630:2302   */\n    tag_7:\n        /* \"#utility.yul\":1709:1715   */\n      0x00\n        /* \"#utility.yul\":1717:1723   */\n      dup1\n        /* \"#utility.yul\":1725:1731   */\n      0x00\n        /* \"#utility.yul\":1774:1776   */\n      0x40\n        /* \"#utility.yul\":1762:1771   */\n      dup5\n        /* \"#utility.yul\":1753:1760   */\n      dup7\n        /* \"#utility.yul\":1749:1772   */\n      sub\n        /* \"#utility.yul\":1745:1777   */\n      slt\n        /* \"#utility.yul\":1742:1861   */\n      iszero\n      tag_141\n      jumpi\n        /* \"#utility.yul\":1780:1859   */\n      tag_142\n      tag_69\n      jump\t// in\n    tag_142:\n        /* \"#utility.yul\":1742:1861   */\n    tag_141:\n        /* \"#utility.yul\":1928:1929   */\n      0x00\n        /* \"#utility.yul\":1917:1926   */\n      dup5\n        /* \"#utility.yul\":1913:1930   */\n      add\n        /* \"#utility.yul\":1900:1931   */\n      calldataload\n        /* \"#utility.yul\":1958:1976   */\n      0xffffffffffffffff\n        /* \"#utility.yul\":1950:1956   */\n      dup2\n        /* \"#utility.yul\":1947:1977   */\n      gt\n        /* \"#utility.yul\":1944:2061   */\n      iszero\n      tag_143\n      jumpi\n        /* \"#utility.yul\":1980:2059   */\n      tag_144\n      tag_70\n      jump\t// in\n    tag_144:\n        /* \"#utility.yul\":1944:2061   */\n    tag_143:\n        /* \"#utility.yul\":2093:2157   */\n      tag_145\n        /* \"#utility.yul\":2149:2156   */\n      dup7\n        /* \"#utility.yul\":2140:2146   */\n      dup3\n        /* \"#utility.yul\":2129:2138   */\n      dup8\n        /* \"#utility.yul\":2125:2147   */\n      add\n        /* \"#utility.yul\":2093:2157   */\n      tag_74\n      jump\t// in\n    tag_145:\n        /* \"#utility.yul\":2075:2157   */\n      swap4\n      pop\n      swap4\n      pop\n        /* \"#utility.yul\":1871:2167   */\n      pop\n        /* \"#utility.yul\":2206:2208   */\n      0x20\n        /* \"#utility.yul\":2232:2285   */\n      tag_146\n        /* \"#utility.yul\":2277:2284   */\n      dup7\n        /* \"#utility.yul\":2268:2274   */\n      dup3\n        /* \"#utility.yul\":2257:2266   */\n      dup8\n        /* \"#utility.yul\":2253:2275   */\n      add\n        /* \"#utility.yul\":2232:2285   */\n      tag_77\n      jump\t// in\n    tag_146:\n        /* \"#utility.yul\":2222:2285   */\n      swap2\n      pop\n        /* \"#utility.yul\":2177:2295   */\n      pop\n        /* \"#utility.yul\":1630:2302   */\n      swap3\n      pop\n      swap3\n      pop\n      swap3\n      jump\t// out\n        /* \"#utility.yul\":2308:2835   */\n    tag_12:\n        /* \"#utility.yul\":2378:2384   */\n      0x00\n        /* \"#utility.yul\":2386:2392   */\n      dup1\n        /* \"#utility.yul\":2435:2437   */\n      0x20\n        /* \"#utility.yul\":2423:2432   */\n      dup4\n        /* \"#utility.yul\":2414:2421   */\n      dup6\n        /* \"#utility.yul\":2410:2433   */\n      sub\n        /* \"#utility.yul\":2406:2438   */\n      slt\n        /* \"#utility.yul\":2403:2522   */\n      iszero\n      tag_148\n      jumpi\n        /* \"#utility.yul\":2441:2520   */\n      tag_149\n      tag_69\n      jump\t// in\n    tag_149:\n        /* \"#utility.yul\":2403:2522   */\n    tag_148:\n        /* \"#utility.yul\":2589:2590   */\n      0x00\n        /* \"#utility.yul\":2578:2587   */\n      dup4\n        /* \"#utility.yul\":2574:2591   */\n      add\n        /* \"#utility.yul\":2561:2592   */\n      calldataload\n        /* \"#utility.yul\":2619:2637   */\n      0xffffffffffffffff\n        /* \"#utility.yul\":2611:2617   */\n      dup2\n        /* \"#utility.yul\":2608:2638   */\n      gt\n        /* \"#utility.yul\":2605:2722   */\n      iszero\n      tag_150\n      jumpi\n        /* \"#utility.yul\":2641:2720   */\n      tag_151\n      tag_70\n      jump\t// in\n    tag_151:\n        /* \"#utility.yul\":2605:2722   */\n    tag_150:\n        /* \"#utility.yul\":2754:2818   */\n      tag_152\n        /* \"#utility.yul\":2810:2817   */\n      dup6\n        /* \"#utility.yul\":2801:2807   */\n      dup3\n        /* \"#utility.yul\":2790:2799   */\n      dup7\n        /* \"#utility.yul\":2786:2808   */\n      add\n        /* \"#utility.yul\":2754:2818   */\n      tag_74\n      jump\t// in\n    tag_152:\n        /* \"#utility.yul\":2736:2818   */\n      swap3\n      pop\n      swap3\n      pop\n        /* \"#utility.yul\":2532:2828   */\n      pop\n        /* \"#utility.yul\":2308:2835   */\n      swap3\n      pop\n      swap3\n      swap1\n      pop\n      jump\t// out\n        /* \"#utility.yul\":2841:2949   */\n    tag_78:\n        /* \"#utility.yul\":2918:2942   */\n      tag_154\n        /* \"#utility.yul\":2936:2941   */\n      dup2\n        /* \"#utility.yul\":2918:2942   */\n      tag_75\n      jump\t// in\n    tag_154:\n        /* \"#utility.yul\":2913:2916   */\n      dup3\n        /* \"#utility.yul\":2906:2943   */\n      mstore\n        /* \"#utility.yul\":2841:2949   */\n      pop\n      pop\n      jump\t// out\n        /* \"#utility.yul\":2955:3032   */\n    tag_79:\n        /* \"#utility.yul\":2992:2999   */\n      0x00\n        /* \"#utility.yul\":3021:3026   */\n      dup2\n        /* \"#utility.yul\":3010:3026   */\n      swap1\n      pop\n        /* \"#utility.yul\":2955:3032   */\n      swap2\n      swap1\n      pop\n      jump\t// out\n        /* \"#utility.yul\":3038:3146   */\n    tag_80:\n        /* \"#utility.yul\":3115:3139   */\n      tag_157\n        /* \"#utility.yul\":3133:3138   */\n      dup2\n        /* \"#utility.yul\":3115:3139   */\n      tag_79\n      jump\t// in\n    tag_157:\n        /* \"#utility.yul\":3110:3113   */\n      dup3\n        /* \"#utility.yul\":3103:3140   */\n      mstore\n        /* \"#utility.yul\":3038:3146   */\n      pop\n      pop\n      jump\t// out\n        /* \"#utility.yul\":3152:3238   */\n    tag_81:\n        /* \"#utility.yul\":3187:3194   */\n      0x00\n        /* \"#utility.yul\":3227:3231   */\n      0xff\n        /* \"#utility.yul\":3220:3225   */\n      dup3\n        /* \"#utility.yul\":3216:3232   */\n      and\n        /* \"#utility.yul\":3205:3232   */\n      swap1\n      pop\n        /* \"#utility.yul\":3152:3238   */\n      swap2\n      swap1\n      pop\n      jump\t// out\n        /* \"#utility.yul\":3244:3346   */\n    tag_82:\n        /* \"#utility.yul\":3317:3339   */\n      tag_160\n        /* \"#utility.yul\":3333:3338   */\n      dup2\n        /* \"#utility.yul\":3317:3339   */\n      tag_81\n      jump\t// in\n    tag_160:\n        /* \"#utility.yul\":3312:3315   */\n      dup3\n        /* \"#utility.yul\":3305:3340   */\n      mstore\n        /* \"#utility.yul\":3244:3346   */\n      pop\n      pop\n      jump\t// out\n        /* \"#utility.yul\":3352:3532   */\n    tag_67:\n        /* \"#utility.yul\":3400:3477   */\n      0x4e487b7100000000000000000000000000000000000000000000000000000000\n        /* \"#utility.yul\":3397:3398   */\n      0x00\n        /* \"#utility.yul\":3390:3478   */\n      mstore\n        /* \"#utility.yul\":3497:3501   */\n      0x21\n        /* \"#utility.yul\":3494:3495   */\n      0x04\n        /* \"#utility.yul\":3487:3502   */\n      mstore\n        /* \"#utility.yul\":3521:3525   */\n      0x24\n        /* \"#utility.yul\":3518:3519   */\n      0x00\n        /* \"#utility.yul\":3511:3526   */\n      revert\n        /* \"#utility.yul\":3538:3662   */\n    tag_83:\n        /* \"#utility.yul\":3630:3631   */\n      0x04\n        /* \"#utility.yul\":3623:3628   */\n      dup2\n        /* \"#utility.yul\":3620:3632   */\n      lt\n        /* \"#utility.yul\":3610:3656   */\n      tag_163\n      jumpi\n        /* \"#utility.yul\":3636:3654   */\n      tag_164\n      tag_67\n      jump\t// in\n    tag_164:\n        /* \"#utility.yul\":3610:3656   */\n    tag_163:\n        /* \"#utility.yul\":3538:3662   */\n      pop\n      jump\t// out\n        /* \"#utility.yul\":3668:3817   */\n    tag_84:\n        /* \"#utility.yul\":3724:3731   */\n      0x00\n        /* \"#utility.yul\":3753:3758   */\n      dup2\n        /* \"#utility.yul\":3742:3758   */\n      swap1\n      pop\n        /* \"#utility.yul\":3759:3811   */\n      tag_166\n        /* \"#utility.yul\":3805:3810   */\n      dup3\n        /* \"#utility.yul\":3759:3811   */\n      tag_83\n      jump\t// in\n    tag_166:\n        /* \"#utility.yul\":3668:3817   */\n      swap2\n      swap1\n      pop\n      jump\t// out\n        /* \"#utility.yul\":3823:3972   */\n    tag_85:\n        /* \"#utility.yul\":3890:3899   */\n      0x00\n        /* \"#utility.yul\":3923:3966   */\n      tag_168\n        /* \"#utility.yul\":3960:3965   */\n      dup3\n        /* \"#utility.yul\":3923:3966   */\n      tag_84\n      jump\t// in\n    tag_168:\n        /* \"#utility.yul\":3910:3966   */\n      swap1\n      pop\n        /* \"#utility.yul\":3823:3972   */\n      swap2\n      swap1\n      pop\n      jump\t// out\n        /* \"#utility.yul\":3978:4133   */\n    tag_86:\n        /* \"#utility.yul\":4072:4126   */\n      tag_170\n        /* \"#utility.yul\":4120:4125   */\n      dup2\n        /* \"#utility.yul\":4072:4126   */\n      tag_85\n      jump\t// in\n    tag_170:\n        /* \"#utility.yul\":4067:4070   */\n      dup3\n        /* \"#utility.yul\":4060:4127   */\n      mstore\n        /* \"#utility.yul\":3978:4133   */\n      pop\n      pop\n      jump\t// out\n        /* \"#utility.yul\":4213:5668   */\n    tag_87:\n        /* \"#utility.yul\":4370:4374   */\n      0xe0\n        /* \"#utility.yul\":4365:4368   */\n      dup3\n        /* \"#utility.yul\":4361:4375   */\n      add\n        /* \"#utility.yul\":4464:4468   */\n      0x00\n        /* \"#utility.yul\":4457:4462   */\n      dup3\n        /* \"#utility.yul\":4453:4469   */\n      add\n        /* \"#utility.yul\":4447:4470   */\n      mload\n        /* \"#utility.yul\":4483:4546   */\n      tag_172\n        /* \"#utility.yul\":4540:4544   */\n      0x00\n        /* \"#utility.yul\":4535:4538   */\n      dup6\n        /* \"#utility.yul\":4531:4545   */\n      add\n        /* \"#utility.yul\":4517:4529   */\n      dup3\n        /* \"#utility.yul\":4483:4546   */\n      tag_78\n      jump\t// in\n    tag_172:\n        /* \"#utility.yul\":4385:4556   */\n      pop\n        /* \"#utility.yul\":4646:4650   */\n      0x20\n        /* \"#utility.yul\":4639:4644   */\n      dup3\n        /* \"#utility.yul\":4635:4651   */\n      add\n        /* \"#utility.yul\":4629:4652   */\n      mload\n        /* \"#utility.yul\":4665:4728   */\n      tag_173\n        /* \"#utility.yul\":4722:4726   */\n      0x20\n        /* \"#utility.yul\":4717:4720   */\n      dup6\n        /* \"#utility.yul\":4713:4727   */\n      add\n        /* \"#utility.yul\":4699:4711   */\n      dup3\n        /* \"#utility.yul\":4665:4728   */\n      tag_80\n      jump\t// in\n    tag_173:\n        /* \"#utility.yul\":4566:4738   */\n      pop\n        /* \"#utility.yul\":4825:4829   */\n      0x40\n        /* \"#utility.yul\":4818:4823   */\n      dup3\n        /* \"#utility.yul\":4814:4830   */\n      add\n        /* \"#utility.yul\":4808:4831   */\n      mload\n        /* \"#utility.yul\":4844:4907   */\n      tag_174\n        /* \"#utility.yul\":4901:4905   */\n      0x40\n        /* \"#utility.yul\":4896:4899   */\n      dup6\n        /* \"#utility.yul\":4892:4906   */\n      add\n        /* \"#utility.yul\":4878:4890   */\n      dup3\n        /* \"#utility.yul\":4844:4907   */\n      tag_80\n      jump\t// in\n    tag_174:\n        /* \"#utility.yul\":4748:4917   */\n      pop\n        /* \"#utility.yul\":5013:5017   */\n      0x60\n        /* \"#utility.yul\":5006:5011   */\n      dup3\n        /* \"#utility.yul\":5002:5018   */\n      add\n        /* \"#utility.yul\":4996:5019   */\n      mload\n        /* \"#utility.yul\":5032:5091   */\n      tag_175\n        /* \"#utility.yul\":5085:5089   */\n      0x60\n        /* \"#utility.yul\":5080:5083   */\n      dup6\n        /* \"#utility.yul\":5076:5090   */\n      add\n        /* \"#utility.yul\":5062:5074   */\n      dup3\n        /* \"#utility.yul\":5032:5091   */\n      tag_82\n      jump\t// in\n    tag_175:\n        /* \"#utility.yul\":4927:5101   */\n      pop\n        /* \"#utility.yul\":5198:5202   */\n      0x80\n        /* \"#utility.yul\":5191:5196   */\n      dup3\n        /* \"#utility.yul\":5187:5203   */\n      add\n        /* \"#utility.yul\":5181:5204   */\n      mload\n        /* \"#utility.yul\":5217:5280   */\n      tag_176\n        /* \"#utility.yul\":5274:5278   */\n      0x80\n        /* \"#utility.yul\":5269:5272   */\n      dup6\n        /* \"#utility.yul\":5265:5279   */\n      add\n        /* \"#utility.yul\":5251:5263   */\n      dup3\n        /* \"#utility.yul\":5217:5280   */\n      tag_80\n      jump\t// in\n    tag_176:\n        /* \"#utility.yul\":5111:5290   */\n      pop\n        /* \"#utility.yul\":5373:5377   */\n      0xa0\n        /* \"#utility.yul\":5366:5371   */\n      dup3\n        /* \"#utility.yul\":5362:5378   */\n      add\n        /* \"#utility.yul\":5356:5379   */\n      mload\n        /* \"#utility.yul\":5392:5455   */\n      tag_177\n        /* \"#utility.yul\":5449:5453   */\n      0xa0\n        /* \"#utility.yul\":5444:5447   */\n      dup6\n        /* \"#utility.yul\":5440:5454   */\n      add\n        /* \"#utility.yul\":5426:5438   */\n      dup3\n        /* \"#utility.yul\":5392:5455   */\n      tag_78\n      jump\t// in\n    tag_177:\n        /* \"#utility.yul\":5300:5465   */\n      pop\n        /* \"#utility.yul\":5552:5556   */\n      0xc0\n        /* \"#utility.yul\":5545:5550   */\n      dup3\n        /* \"#utility.yul\":5541:5557   */\n      add\n        /* \"#utility.yul\":5535:5558   */\n      mload\n        /* \"#utility.yul\":5571:5651   */\n      tag_178\n        /* \"#utility.yul\":5645:5649   */\n      0xc0\n        /* \"#utility.yul\":5640:5643   */\n      dup6\n        /* \"#utility.yul\":5636:5650   */\n      add\n        /* \"#utility.yul\":5622:5634   */\n      dup3\n        /* \"#utility.yul\":5571:5651   */\n      tag_86\n      jump\t// in\n    tag_178:\n        /* \"#utility.yul\":5475:5661   */\n      pop\n        /* \"#utility.yul\":4339:5668   */\n      pop\n        /* \"#utility.yul\":4213:5668   */\n      pop\n      pop\n      jump\t// out\n        /* \"#utility.yul\":5674:6017   */\n    tag_15:\n        /* \"#utility.yul\":5827:5831   */\n      0x00\n        /* \"#utility.yul\":5865:5868   */\n      0xe0\n        /* \"#utility.yul\":5854:5863   */\n      dup3\n        /* \"#utility.yul\":5850:5869   */\n      add\n        /* \"#utility.yul\":5842:5869   */\n      swap1\n      pop\n        /* \"#utility.yul\":5879:6010   */\n      tag_180\n        /* \"#utility.yul\":6007:6008   */\n      0x00\n        /* \"#utility.yul\":5996:6005   */\n      dup4\n        /* \"#utility.yul\":5992:6009   */\n      add\n        /* \"#utility.yul\":5983:5989   */\n      dup5\n        /* \"#utility.yul\":5879:6010   */\n      tag_87\n      jump\t// in\n    tag_180:\n        /* \"#utility.yul\":5674:6017   */\n      swap3\n      swap2\n      pop\n      pop\n      jump\t// out\n        /* \"#utility.yul\":6023:6149   */\n    tag_88:\n        /* \"#utility.yul\":6060:6067   */\n      0x00\n        /* \"#utility.yul\":6100:6142   */\n      0xffffffffffffffffffffffffffffffffffffffff\n        /* \"#utility.yul\":6093:6098   */\n      dup3\n        /* \"#utility.yul\":6089:6143   */\n      and\n        /* \"#utility.yul\":6078:6143   */\n      swap1\n      pop\n        /* \"#utility.yul\":6023:6149   */\n      swap2\n      swap1\n      pop\n      jump\t// out\n        /* \"#utility.yul\":6155:6251   */\n    tag_89:\n        /* \"#utility.yul\":6192:6199   */\n      0x00\n        /* \"#utility.yul\":6221:6245   */\n      tag_183\n        /* \"#utility.yul\":6239:6244   */\n      dup3\n        /* \"#utility.yul\":6221:6245   */\n      tag_88\n      jump\t// in\n    tag_183:\n        /* \"#utility.yul\":6210:6245   */\n      swap1\n      pop\n        /* \"#utility.yul\":6155:6251   */\n      swap2\n      swap1\n      pop\n      jump\t// out\n        /* \"#utility.yul\":6257:6375   */\n    tag_90:\n        /* \"#utility.yul\":6344:6368   */\n      tag_185\n        /* \"#utility.yul\":6362:6367   */\n      dup2\n        /* \"#utility.yul\":6344:6368   */\n      tag_89\n      jump\t// in\n    tag_185:\n        /* \"#utility.yul\":6339:6342   */\n      dup3\n        /* \"#utility.yul\":6332:6369   */\n      mstore\n        /* \"#utility.yul\":6257:6375   */\n      pop\n      pop\n      jump\t// out\n        /* \"#utility.yul\":6381:6603   */\n    tag_20:\n        /* \"#utility.yul\":6474:6478   */\n      0x00\n        /* \"#utility.yul\":6512:6514   */\n      0x20\n        /* \"#utility.yul\":6501:6510   */\n      dup3\n        /* \"#utility.yul\":6497:6515   */\n      add\n        /* \"#utility.yul\":6489:6515   */\n      swap1\n      pop\n        /* \"#utility.yul\":6525:6596   */\n      tag_187\n        /* \"#utility.yul\":6593:6594   */\n      0x00\n        /* \"#utility.yul\":6582:6591   */\n      dup4\n        /* \"#utility.yul\":6578:6595   */\n      add\n        /* \"#utility.yul\":6569:6575   */\n      dup5\n        /* \"#utility.yul\":6525:6596   */\n      tag_90\n      jump\t// in\n    tag_187:\n        /* \"#utility.yul\":6381:6603   */\n      swap3\n      swap2\n      pop\n      pop\n      jump\t// out\n        /* \"#utility.yul\":6609:6726   */\n    tag_91:\n        /* \"#utility.yul\":6718:6719   */\n      0x00\n        /* \"#utility.yul\":6715:6716   */\n      dup1\n        /* \"#utility.yul\":6708:6720   */\n      revert\n        /* \"#utility.yul\":6732:6834   */\n    tag_92:\n        /* \"#utility.yul\":6773:6779   */\n      0x00\n        /* \"#utility.yul\":6824:6826   */\n      0x1f\n        /* \"#utility.yul\":6820:6827   */\n      not\n        /* \"#utility.yul\":6815:6817   */\n      0x1f\n        /* \"#utility.yul\":6808:6813   */\n      dup4\n        /* \"#utility.yul\":6804:6818   */\n      add\n        /* \"#utility.yul\":6800:6828   */\n      and\n        /* \"#utility.yul\":6790:6828   */\n      swap1\n      pop\n        /* \"#utility.yul\":6732:6834   */\n      swap2\n      swap1\n      pop\n      jump\t// out\n        /* \"#utility.yul\":6840:7020   */\n    tag_93:\n        /* \"#utility.yul\":6888:6965   */\n      0x4e487b7100000000000000000000000000000000000000000000000000000000\n        /* \"#utility.yul\":6885:6886   */\n      0x00\n        /* \"#utility.yul\":6878:6966   */\n      mstore\n        /* \"#utility.yul\":6985:6989   */\n      0x41\n        /* \"#utility.yul\":6982:6983   */\n      0x04\n        /* \"#utility.yul\":6975:6990   */\n      mstore\n        /* \"#utility.yul\":7009:7013   */\n      0x24\n        /* \"#utility.yul\":7006:7007   */\n      0x00\n        /* \"#utility.yul\":6999:7014   */\n      revert\n        /* \"#utility.yul\":7026:7307   */\n    tag_94:\n        /* \"#utility.yul\":7109:7136   */\n      tag_192\n        /* \"#utility.yul\":7131:7135   */\n      dup3\n        /* \"#utility.yul\":7109:7136   */\n      tag_92\n      jump\t// in\n    tag_192:\n        /* \"#utility.yul\":7101:7107   */\n      dup2\n        /* \"#utility.yul\":7097:7137   */\n      add\n        /* \"#utility.yul\":7239:7245   */\n      dup2\n        /* \"#utility.yul\":7227:7237   */\n      dup2\n        /* \"#utility.yul\":7224:7246   */\n      lt\n        /* \"#utility.yul\":7203:7221   */\n      0xffffffffffffffff\n        /* \"#utility.yul\":7191:7201   */\n      dup3\n        /* \"#utility.yul\":7188:7222   */\n      gt\n        /* \"#utility.yul\":7185:7247   */\n      or\n        /* \"#utility.yul\":7182:7270   */\n      iszero\n      tag_193\n      jumpi\n        /* \"#utility.yul\":7250:7268   */\n      tag_194\n      tag_93\n      jump\t// in\n    tag_194:\n        /* \"#utility.yul\":7182:7270   */\n    tag_193:\n        /* \"#utility.yul\":7290:7300   */\n      dup1\n        /* \"#utility.yul\":7286:7288   */\n      0x40\n        /* \"#utility.yul\":7279:7301   */\n      mstore\n        /* \"#utility.yul\":7069:7307   */\n      pop\n        /* \"#utility.yul\":7026:7307   */\n      pop\n      pop\n      jump\t// out\n        /* \"#utility.yul\":7313:7442   */\n    tag_95:\n        /* \"#utility.yul\":7347:7353   */\n      0x00\n        /* \"#utility.yul\":7374:7394   */\n      tag_196\n      tag_68\n      jump\t// in\n    tag_196:\n        /* \"#utility.yul\":7364:7394   */\n      swap1\n      pop\n        /* \"#utility.yul\":7403:7436   */\n      tag_197\n        /* \"#utility.yul\":7431:7435   */\n      dup3\n        /* \"#utility.yul\":7423:7429   */\n      dup3\n        /* \"#utility.yul\":7403:7436   */\n      tag_94\n      jump\t// in\n    tag_197:\n        /* \"#utility.yul\":7313:7442   */\n      swap2\n      swap1\n      pop\n      jump\t// out\n        /* \"#utility.yul\":7571:7693   */\n    tag_97:\n        /* \"#utility.yul\":7644:7668   */\n      tag_200\n        /* \"#utility.yul\":7662:7667   */\n      dup2\n        /* \"#utility.yul\":7644:7668   */\n      tag_79\n      jump\t// in\n    tag_200:\n        /* \"#utility.yul\":7637:7642   */\n      dup2\n        /* \"#utility.yul\":7634:7669   */\n      eq\n        /* \"#utility.yul\":7624:7687   */\n      tag_201\n      jumpi\n        /* \"#utility.yul\":7683:7684   */\n      0x00\n        /* \"#utility.yul\":7680:7681   */\n      dup1\n        /* \"#utility.yul\":7673:7685   */\n      revert\n        /* \"#utility.yul\":7624:7687   */\n    tag_201:\n        /* \"#utility.yul\":7571:7693   */\n      pop\n      jump\t// out\n        /* \"#utility.yul\":7699:7838   */\n    tag_98:\n        /* \"#utility.yul\":7745:7750   */\n      0x00\n        /* \"#utility.yul\":7783:7789   */\n      dup2\n        /* \"#utility.yul\":7770:7790   */\n      calldataload\n        /* \"#utility.yul\":7761:7790   */\n      swap1\n      pop\n        /* \"#utility.yul\":7799:7832   */\n      tag_203\n        /* \"#utility.yul\":7826:7831   */\n      dup2\n        /* \"#utility.yul\":7799:7832   */\n      tag_97\n      jump\t// in\n    tag_203:\n        /* \"#utility.yul\":7699:7838   */\n      swap3\n      swap2\n      pop\n      pop\n      jump\t// out\n        /* \"#utility.yul\":7844:7962   */\n    tag_99:\n        /* \"#utility.yul\":7915:7937   */\n      tag_205\n        /* \"#utility.yul\":7931:7936   */\n      dup2\n        /* \"#utility.yul\":7915:7937   */\n      tag_81\n      jump\t// in\n    tag_205:\n        /* \"#utility.yul\":7908:7913   */\n      dup2\n        /* \"#utility.yul\":7905:7938   */\n      eq\n        /* \"#utility.yul\":7895:7956   */\n      tag_206\n      jumpi\n        /* \"#utility.yul\":7952:7953   */\n      0x00\n        /* \"#utility.yul\":7949:7950   */\n      dup1\n        /* \"#utility.yul\":7942:7954   */\n      revert\n        /* \"#utility.yul\":7895:7956   */\n    tag_206:\n        /* \"#utility.yul\":7844:7962   */\n      pop\n      jump\t// out\n        /* \"#utility.yul\":7968:8103   */\n    tag_100:\n        /* \"#utility.yul\":8012:8017   */\n      0x00\n        /* \"#utility.yul\":8050:8056   */\n      dup2\n        /* \"#utility.yul\":8037:8057   */\n      calldataload\n        /* \"#utility.yul\":8028:8057   */\n      swap1\n      pop\n        /* \"#utility.yul\":8066:8097   */\n      tag_208\n        /* \"#utility.yul\":8091:8096   */\n      dup2\n        /* \"#utility.yul\":8066:8097   */\n      tag_99\n      jump\t// in\n    tag_208:\n        /* \"#utility.yul\":7968:8103   */\n      swap3\n      swap2\n      pop\n      pop\n      jump\t// out\n        /* \"#utility.yul\":8109:8227   */\n    tag_101:\n        /* \"#utility.yul\":8201:8202   */\n      0x04\n        /* \"#utility.yul\":8194:8199   */\n      dup2\n        /* \"#utility.yul\":8191:8203   */\n      lt\n        /* \"#utility.yul\":8181:8221   */\n      tag_210\n      jumpi\n        /* \"#utility.yul\":8217:8218   */\n      0x00\n        /* \"#utility.yul\":8214:8215   */\n      dup1\n        /* \"#utility.yul\":8207:8219   */\n      revert\n        /* \"#utility.yul\":8181:8221   */\n    tag_210:\n        /* \"#utility.yul\":8109:8227   */\n      pop\n      jump\t// out\n        /* \"#utility.yul\":8233:8410   */\n    tag_102:\n        /* \"#utility.yul\":8298:8303   */\n      0x00\n        /* \"#utility.yul\":8336:8342   */\n      dup2\n        /* \"#utility.yul\":8323:8343   */\n      calldataload\n        /* \"#utility.yul\":8314:8343   */\n      swap1\n      pop\n        /* \"#utility.yul\":8352:8404   */\n      tag_212\n        /* \"#utility.yul\":8398:8403   */\n      dup2\n        /* \"#utility.yul\":8352:8404   */\n      tag_101\n      jump\t// in\n    tag_212:\n        /* \"#utility.yul\":8233:8410   */\n      swap3\n      swap2\n      pop\n      pop\n      jump\t// out\n        /* \"#utility.yul\":8455:9914   */\n    tag_103:\n        /* \"#utility.yul\":8534:8539   */\n      0x00\n        /* \"#utility.yul\":8578:8582   */\n      0xe0\n        /* \"#utility.yul\":8566:8575   */\n      dup3\n        /* \"#utility.yul\":8561:8564   */\n      dup5\n        /* \"#utility.yul\":8557:8576   */\n      sub\n        /* \"#utility.yul\":8553:8583   */\n      slt\n        /* \"#utility.yul\":8550:8667   */\n      iszero\n      tag_214\n      jumpi\n        /* \"#utility.yul\":8586:8665   */\n      tag_215\n      tag_91\n      jump\t// in\n    tag_215:\n        /* \"#utility.yul\":8550:8667   */\n    tag_214:\n        /* \"#utility.yul\":8685:8706   */\n      tag_216\n        /* \"#utility.yul\":8701:8705   */\n      0xe0\n        /* \"#utility.yul\":8685:8706   */\n      tag_95\n      jump\t// in\n    tag_216:\n        /* \"#utility.yul\":8676:8706   */\n      swap1\n      pop\n        /* \"#utility.yul\":8772:8773   */\n      0x00\n        /* \"#utility.yul\":8812:8861   */\n      tag_217\n        /* \"#utility.yul\":8857:8860   */\n      dup5\n        /* \"#utility.yul\":8848:8854   */\n      dup3\n        /* \"#utility.yul\":8837:8846   */\n      dup6\n        /* \"#utility.yul\":8833:8855   */\n      add\n        /* \"#utility.yul\":8812:8861   */\n      tag_77\n      jump\t// in\n    tag_217:\n        /* \"#utility.yul\":8805:8809   */\n      0x00\n        /* \"#utility.yul\":8798:8803   */\n      dup4\n        /* \"#utility.yul\":8794:8810   */\n      add\n        /* \"#utility.yul\":8787:8862   */\n      mstore\n        /* \"#utility.yul\":8716:8873   */\n      pop\n        /* \"#utility.yul\":8940:8942   */\n      0x20\n        /* \"#utility.yul\":8981:9030   */\n      tag_218\n        /* \"#utility.yul\":9026:9029   */\n      dup5\n        /* \"#utility.yul\":9017:9023   */\n      dup3\n        /* \"#utility.yul\":9006:9015   */\n      dup6\n        /* \"#utility.yul\":9002:9024   */\n      add\n        /* \"#utility.yul\":8981:9030   */\n      tag_98\n      jump\t// in\n    tag_218:\n        /* \"#utility.yul\":8974:8978   */\n      0x20\n        /* \"#utility.yul\":8967:8972   */\n      dup4\n        /* \"#utility.yul\":8963:8979   */\n      add\n        /* \"#utility.yul\":8956:9031   */\n      mstore\n        /* \"#utility.yul\":8883:9042   */\n      pop\n        /* \"#utility.yul\":9106:9108   */\n      0x40\n        /* \"#utility.yul\":9147:9196   */\n      tag_219\n        /* \"#utility.yul\":9192:9195   */\n      dup5\n        /* \"#utility.yul\":9183:9189   */\n      dup3\n        /* \"#utility.yul\":9172:9181   */\n      dup6\n        /* \"#utility.yul\":9168:9190   */\n      add\n        /* \"#utility.yul\":9147:9196   */\n      tag_98\n      jump\t// in\n    tag_219:\n        /* \"#utility.yul\":9140:9144   */\n      0x40\n        /* \"#utility.yul\":9133:9138   */\n      dup4\n        /* \"#utility.yul\":9129:9145   */\n      add\n        /* \"#utility.yul\":9122:9197   */\n      mstore\n        /* \"#utility.yul\":9052:9208   */\n      pop\n        /* \"#utility.yul\":9281:9283   */\n      0x60\n        /* \"#utility.yul\":9322:9369   */\n      tag_220\n        /* \"#utility.yul\":9365:9368   */\n      dup5\n        /* \"#utility.yul\":9356:9362   */\n      dup3\n        /* \"#utility.yul\":9345:9354   */\n      dup6\n        /* \"#utility.yul\":9341:9363   */\n      add\n        /* \"#utility.yul\":9322:9369   */\n      tag_100\n      jump\t// in\n    tag_220:\n        /* \"#utility.yul\":9315:9319   */\n      0x60\n        /* \"#utility.yul\":9308:9313   */\n      dup4\n        /* \"#utility.yul\":9304:9320   */\n      add\n        /* \"#utility.yul\":9297:9370   */\n      mstore\n        /* \"#utility.yul\":9218:9381   */\n      pop\n        /* \"#utility.yul\":9455:9458   */\n      0x80\n        /* \"#utility.yul\":9497:9546   */\n      tag_221\n        /* \"#utility.yul\":9542:9545   */\n      dup5\n        /* \"#utility.yul\":9533:9539   */\n      dup3\n        /* \"#utility.yul\":9522:9531   */\n      dup6\n        /* \"#utility.yul\":9518:9540   */\n      add\n        /* \"#utility.yul\":9497:9546   */\n      tag_98\n      jump\t// in\n    tag_221:\n        /* \"#utility.yul\":9490:9494   */\n      0x80\n        /* \"#utility.yul\":9483:9488   */\n      dup4\n        /* \"#utility.yul\":9479:9495   */\n      add\n        /* \"#utility.yul\":9472:9547   */\n      mstore\n        /* \"#utility.yul\":9391:9558   */\n      pop\n        /* \"#utility.yul\":9618:9621   */\n      0xa0\n        /* \"#utility.yul\":9660:9709   */\n      tag_222\n        /* \"#utility.yul\":9705:9708   */\n      dup5\n        /* \"#utility.yul\":9696:9702   */\n      dup3\n        /* \"#utility.yul\":9685:9694   */\n      dup6\n        /* \"#utility.yul\":9681:9703   */\n      add\n        /* \"#utility.yul\":9660:9709   */\n      tag_77\n      jump\t// in\n    tag_222:\n        /* \"#utility.yul\":9653:9657   */\n      0xa0\n        /* \"#utility.yul\":9646:9651   */\n      dup4\n        /* \"#utility.yul\":9642:9658   */\n      add\n        /* \"#utility.yul\":9635:9710   */\n      mstore\n        /* \"#utility.yul\":9568:9721   */\n      pop\n        /* \"#utility.yul\":9785:9788   */\n      0xc0\n        /* \"#utility.yul\":9827:9895   */\n      tag_223\n        /* \"#utility.yul\":9891:9894   */\n      dup5\n        /* \"#utility.yul\":9882:9888   */\n      dup3\n        /* \"#utility.yul\":9871:9880   */\n      dup6\n        /* \"#utility.yul\":9867:9889   */\n      add\n        /* \"#utility.yul\":9827:9895   */\n      tag_102\n      jump\t// in\n    tag_223:\n        /* \"#utility.yul\":9820:9824   */\n      0xc0\n        /* \"#utility.yul\":9813:9818   */\n      dup4\n        /* \"#utility.yul\":9809:9825   */\n      add\n        /* \"#utility.yul\":9802:9896   */\n      mstore\n        /* \"#utility.yul\":9731:9907   */\n      pop\n        /* \"#utility.yul\":8455:9914   */\n      swap3\n      swap2\n      pop\n      pop\n      jump\t// out\n        /* \"#utility.yul\":9920:10310   */\n    tag_23:\n        /* \"#utility.yul\":10009:10015   */\n      0x00\n        /* \"#utility.yul\":10058:10061   */\n      0xe0\n        /* \"#utility.yul\":10046:10055   */\n      dup3\n        /* \"#utility.yul\":10037:10044   */\n      dup5\n        /* \"#utility.yul\":10033:10056   */\n      sub\n        /* \"#utility.yul\":10029:10062   */\n      slt\n        /* \"#utility.yul\":10026:10146   */\n      iszero\n      tag_225\n      jumpi\n        /* \"#utility.yul\":10065:10144   */\n      tag_226\n      tag_69\n      jump\t// in\n    tag_226:\n        /* \"#utility.yul\":10026:10146   */\n    tag_225:\n        /* \"#utility.yul\":10185:10186   */\n      0x00\n        /* \"#utility.yul\":10210:10293   */\n      tag_227\n        /* \"#utility.yul\":10285:10292   */\n      dup5\n        /* \"#utility.yul\":10276:10282   */\n      dup3\n        /* \"#utility.yul\":10265:10274   */\n      dup6\n        /* \"#utility.yul\":10261:10283   */\n      add\n        /* \"#utility.yul\":10210:10293   */\n      tag_103\n      jump\t// in\n    tag_227:\n        /* \"#utility.yul\":10200:10293   */\n      swap2\n      pop\n        /* \"#utility.yul\":10156:10303   */\n      pop\n        /* \"#utility.yul\":9920:10310   */\n      swap3\n      swap2\n      pop\n      pop\n      jump\t// out\n        /* \"#utility.yul\":10316:10434   */\n    tag_104:\n        /* \"#utility.yul\":10403:10427   */\n      tag_229\n        /* \"#utility.yul\":10421:10426   */\n      dup2\n        /* \"#utility.yul\":10403:10427   */\n      tag_79\n      jump\t// in\n    tag_229:\n        /* \"#utility.yul\":10398:10401   */\n      dup3\n        /* \"#utility.yul\":10391:10428   */\n      mstore\n        /* \"#utility.yul\":10316:10434   */\n      pop\n      pop\n      jump\t// out\n        /* \"#utility.yul\":10440:10558   */\n    tag_105:\n        /* \"#utility.yul\":10527:10551   */\n      tag_231\n        /* \"#utility.yul\":10545:10550   */\n      dup2\n        /* \"#utility.yul\":10527:10551   */\n      tag_75\n      jump\t// in\n    tag_231:\n        /* \"#utility.yul\":10522:10525   */\n      dup3\n        /* \"#utility.yul\":10515:10552   */\n      mstore\n        /* \"#utility.yul\":10440:10558   */\n      pop\n      pop\n      jump\t// out\n        /* \"#utility.yul\":10564:10676   */\n    tag_106:\n        /* \"#utility.yul\":10647:10669   */\n      tag_233\n        /* \"#utility.yul\":10663:10668   */\n      dup2\n        /* \"#utility.yul\":10647:10669   */\n      tag_81\n      jump\t// in\n    tag_233:\n        /* \"#utility.yul\":10642:10645   */\n      dup3\n        /* \"#utility.yul\":10635:10670   */\n      mstore\n        /* \"#utility.yul\":10564:10676   */\n      pop\n      pop\n      jump\t// out\n        /* \"#utility.yul\":10682:10847   */\n    tag_107:\n        /* \"#utility.yul\":10786:10840   */\n      tag_235\n        /* \"#utility.yul\":10834:10839   */\n      dup2\n        /* \"#utility.yul\":10786:10840   */\n      tag_85\n      jump\t// in\n    tag_235:\n        /* \"#utility.yul\":10781:10784   */\n      dup3\n        /* \"#utility.yul\":10774:10841   */\n      mstore\n        /* \"#utility.yul\":10682:10847   */\n      pop\n      pop\n      jump\t// out\n        /* \"#utility.yul\":10853:11765   */\n    tag_29:\n        /* \"#utility.yul\":11127:11131   */\n      0x00\n        /* \"#utility.yul\":11165:11168   */\n      0xe0\n        /* \"#utility.yul\":11154:11163   */\n      dup3\n        /* \"#utility.yul\":11150:11169   */\n      add\n        /* \"#utility.yul\":11142:11169   */\n      swap1\n      pop\n        /* \"#utility.yul\":11179:11250   */\n      tag_237\n        /* \"#utility.yul\":11247:11248   */\n      0x00\n        /* \"#utility.yul\":11236:11245   */\n      dup4\n        /* \"#utility.yul\":11232:11249   */\n      add\n        /* \"#utility.yul\":11223:11229   */\n      dup11\n        /* \"#utility.yul\":11179:11250   */\n      tag_104\n      jump\t// in\n    tag_237:\n        /* \"#utility.yul\":11260:11332   */\n      tag_238\n        /* \"#utility.yul\":11328:11330   */\n      0x20\n        /* \"#utility.yul\":11317:11326   */\n      dup4\n        /* \"#utility.yul\":11313:11331   */\n      add\n        /* \"#utility.yul\":11304:11310   */\n      dup10\n        /* \"#utility.yul\":11260:11332   */\n      tag_105\n      jump\t// in\n    tag_238:\n        /* \"#utility.yul\":11342:11414   */\n      tag_239\n        /* \"#utility.yul\":11410:11412   */\n      0x40\n        /* \"#utility.yul\":11399:11408   */\n      dup4\n        /* \"#utility.yul\":11395:11413   */\n      add\n        /* \"#utility.yul\":11386:11392   */\n      dup9\n        /* \"#utility.yul\":11342:11414   */\n      tag_104\n      jump\t// in\n    tag_239:\n        /* \"#utility.yul\":11424:11492   */\n      tag_240\n        /* \"#utility.yul\":11488:11490   */\n      0x60\n        /* \"#utility.yul\":11477:11486   */\n      dup4\n        /* \"#utility.yul\":11473:11491   */\n      add\n        /* \"#utility.yul\":11464:11470   */\n      dup8\n        /* \"#utility.yul\":11424:11492   */\n      tag_106\n      jump\t// in\n    tag_240:\n        /* \"#utility.yul\":11502:11575   */\n      tag_241\n        /* \"#utility.yul\":11570:11573   */\n      0x80\n        /* \"#utility.yul\":11559:11568   */\n      dup4\n        /* \"#utility.yul\":11555:11574   */\n      add\n        /* \"#utility.yul\":11546:11552   */\n      dup7\n        /* \"#utility.yul\":11502:11575   */\n      tag_104\n      jump\t// in\n    tag_241:\n        /* \"#utility.yul\":11585:11658   */\n      tag_242\n        /* \"#utility.yul\":11653:11656   */\n      0xa0\n        /* \"#utility.yul\":11642:11651   */\n      dup4\n        /* \"#utility.yul\":11638:11657   */\n      add\n        /* \"#utility.yul\":11629:11635   */\n      dup6\n        /* \"#utility.yul\":11585:11658   */\n      tag_105\n      jump\t// in\n    tag_242:\n        /* \"#utility.yul\":11668:11758   */\n      tag_243\n        /* \"#utility.yul\":11753:11756   */\n      0xc0\n        /* \"#utility.yul\":11742:11751   */\n      dup4\n        /* \"#utility.yul\":11738:11757   */\n      add\n        /* \"#utility.yul\":11729:11735   */\n      dup5\n        /* \"#utility.yul\":11668:11758   */\n      tag_107\n      jump\t// in\n    tag_243:\n        /* \"#utility.yul\":10853:11765   */\n      swap9\n      swap8\n      pop\n      pop\n      pop\n      pop\n      pop\n      pop\n      pop\n      pop\n      jump\t// out\n        /* \"#utility.yul\":11771:12213   */\n    tag_39:\n        /* \"#utility.yul\":11920:11924   */\n      0x00\n        /* \"#utility.yul\":11958:11960   */\n      0x60\n        /* \"#utility.yul\":11947:11956   */\n      dup3\n        /* \"#utility.yul\":11943:11961   */\n      add\n        /* \"#utility.yul\":11935:11961   */\n      swap1\n      pop\n        /* \"#utility.yul\":11971:12042   */\n      tag_245\n        /* \"#utility.yul\":12039:12040   */\n      0x00\n        /* \"#utility.yul\":12028:12037   */\n      dup4\n        /* \"#utility.yul\":12024:12041   */\n      add\n        /* \"#utility.yul\":12015:12021   */\n      dup7\n        /* \"#utility.yul\":11971:12042   */\n      tag_90\n      jump\t// in\n    tag_245:\n        /* \"#utility.yul\":12052:12124   */\n      tag_246\n        /* \"#utility.yul\":12120:12122   */\n      0x20\n        /* \"#utility.yul\":12109:12118   */\n      dup4\n        /* \"#utility.yul\":12105:12123   */\n      add\n        /* \"#utility.yul\":12096:12102   */\n      dup6\n        /* \"#utility.yul\":12052:12124   */\n      tag_90\n      jump\t// in\n    tag_246:\n        /* \"#utility.yul\":12134:12206   */\n      tag_247\n        /* \"#utility.yul\":12202:12204   */\n      0x40\n        /* \"#utility.yul\":12191:12200   */\n      dup4\n        /* \"#utility.yul\":12187:12205   */\n      add\n        /* \"#utility.yul\":12178:12184   */\n      dup5\n        /* \"#utility.yul\":12134:12206   */\n      tag_105\n      jump\t// in\n    tag_247:\n        /* \"#utility.yul\":11771:12213   */\n      swap5\n      swap4\n      pop\n      pop\n      pop\n      pop\n      jump\t// out\n        /* \"#utility.yul\":12219:12317   */\n    tag_108:\n        /* \"#utility.yul\":12270:12276   */\n      0x00\n        /* \"#utility.yul\":12304:12309   */\n      dup2\n        /* \"#utility.yul\":12298:12310   */\n      mload\n        /* \"#utility.yul\":12288:12310   */\n      swap1\n      pop\n        /* \"#utility.yul\":12219:12317   */\n      swap2\n      swap1\n      pop\n      jump\t// out\n        /* \"#utility.yul\":12323:12470   */\n    tag_109:\n        /* \"#utility.yul\":12424:12435   */\n      0x00\n        /* \"#utility.yul\":12461:12464   */\n      dup2\n        /* \"#utility.yul\":12446:12464   */\n      swap1\n      pop\n        /* \"#utility.yul\":12323:12470   */\n      swap3\n      swap2\n      pop\n      pop\n      jump\t// out\n        /* \"#utility.yul\":12476:12722   */\n    tag_110:\n        /* \"#utility.yul\":12557:12558   */\n      0x00\n        /* \"#utility.yul\":12567:12680   */\n    tag_251:\n        /* \"#utility.yul\":12581:12587   */\n      dup4\n        /* \"#utility.yul\":12578:12579   */\n      dup2\n        /* \"#utility.yul\":12575:12588   */\n      lt\n        /* \"#utility.yul\":12567:12680   */\n      iszero\n      tag_253\n      jumpi\n        /* \"#utility.yul\":12666:12667   */\n      dup1\n        /* \"#utility.yul\":12661:12664   */\n      dup3\n        /* \"#utility.yul\":12657:12668   */\n      add\n        /* \"#utility.yul\":12651:12669   */\n      mload\n        /* \"#utility.yul\":12647:12648   */\n      dup2\n        /* \"#utility.yul\":12642:12645   */\n      dup5\n        /* \"#utility.yul\":12638:12649   */\n      add\n        /* \"#utility.yul\":12631:12670   */\n      mstore\n        /* \"#utility.yul\":12603:12605   */\n      0x20\n        /* \"#utility.yul\":12600:12601   */\n      dup2\n        /* \"#utility.yul\":12596:12606   */\n      add\n        /* \"#utility.yul\":12591:12606   */\n      swap1\n      pop\n        /* \"#utility.yul\":12567:12680   */\n      jump(tag_251)\n    tag_253:\n        /* \"#utility.yul\":12714:12715   */\n      0x00\n        /* \"#utility.yul\":12705:12711   */\n      dup5\n        /* \"#utility.yul\":12700:12703   */\n      dup5\n        /* \"#utility.yul\":12696:12712   */\n      add\n        /* \"#utility.yul\":12689:12716   */\n      mstore\n        /* \"#utility.yul\":12538:12722   */\n      pop\n        /* \"#utility.yul\":12476:12722   */\n      pop\n      pop\n      pop\n      jump\t// out\n        /* \"#utility.yul\":12728:13114   */\n    tag_111:\n        /* \"#utility.yul\":12832:12835   */\n      0x00\n        /* \"#utility.yul\":12860:12898   */\n      tag_255\n        /* \"#utility.yul\":12892:12897   */\n      dup3\n        /* \"#utility.yul\":12860:12898   */\n      tag_108\n      jump\t// in\n    tag_255:\n        /* \"#utility.yul\":12914:13002   */\n      tag_256\n        /* \"#utility.yul\":12995:13001   */\n      dup2\n        /* \"#utility.yul\":12990:12993   */\n      dup6\n        /* \"#utility.yul\":12914:13002   */\n      tag_109\n      jump\t// in\n    tag_256:\n        /* \"#utility.yul\":12907:13002   */\n      swap4\n      pop\n        /* \"#utility.yul\":13011:13076   */\n      tag_257\n        /* \"#utility.yul\":13069:13075   */\n      dup2\n        /* \"#utility.yul\":13064:13067   */\n      dup6\n        /* \"#utility.yul\":13057:13061   */\n      0x20\n        /* \"#utility.yul\":13050:13055   */\n      dup7\n        /* \"#utility.yul\":13046:13062   */\n      add\n        /* \"#utility.yul\":13011:13076   */\n      tag_110\n      jump\t// in\n    tag_257:\n        /* \"#utility.yul\":13101:13107   */\n      dup1\n        /* \"#utility.yul\":13096:13099   */\n      dup5\n        /* \"#utility.yul\":13092:13108   */\n      add\n        /* \"#utility.yul\":13085:13108   */\n      swap2\n      pop\n        /* \"#utility.yul\":12836:13114   */\n      pop\n        /* \"#utility.yul\":12728:13114   */\n      swap3\n      swap2\n      pop\n      pop\n      jump\t// out\n        /* \"#utility.yul\":13120:13391   */\n    tag_41:\n        /* \"#utility.yul\":13250:13253   */\n      0x00\n        /* \"#utility.yul\":13272:13365   */\n      tag_259\n        /* \"#utility.yul\":13361:13364   */\n      dup3\n        /* \"#utility.yul\":13352:13358   */\n      dup5\n        /* \"#utility.yul\":13272:13365   */\n      tag_111\n      jump\t// in\n    tag_259:\n        /* \"#utility.yul\":13265:13365   */\n      swap2\n      pop\n        /* \"#utility.yul\":13382:13385   */\n      dup2\n        /* \"#utility.yul\":13375:13385   */\n      swap1\n      pop\n        /* \"#utility.yul\":13120:13391   */\n      swap3\n      swap2\n      pop\n      pop\n      jump\t// out\n        /* \"#utility.yul\":13397:13487   */\n    tag_112:\n        /* \"#utility.yul\":13431:13438   */\n      0x00\n        /* \"#utility.yul\":13474:13479   */\n      dup2\n        /* \"#utility.yul\":13467:13480   */\n      iszero\n        /* \"#utility.yul\":13460:13481   */\n      iszero\n        /* \"#utility.yul\":13449:13481   */\n      swap1\n      pop\n        /* \"#utility.yul\":13397:13487   */\n      swap2\n      swap1\n      pop\n      jump\t// out\n        /* \"#utility.yul\":13493:13609   */\n    tag_113:\n        /* \"#utility.yul\":13563:13584   */\n      tag_262\n        /* \"#utility.yul\":13578:13583   */\n      dup2\n        /* \"#utility.yul\":13563:13584   */\n      tag_112\n      jump\t// in\n    tag_262:\n        /* \"#utility.yul\":13556:13561   */\n      dup2\n        /* \"#utility.yul\":13553:13585   */\n      eq\n        /* \"#utility.yul\":13543:13603   */\n      tag_263\n      jumpi\n        /* \"#utility.yul\":13599:13600   */\n      0x00\n        /* \"#utility.yul\":13596:13597   */\n      dup1\n        /* \"#utility.yul\":13589:13601   */\n      revert\n        /* \"#utility.yul\":13543:13603   */\n    tag_263:\n        /* \"#utility.yul\":13493:13609   */\n      pop\n      jump\t// out\n        /* \"#utility.yul\":13615:13752   */\n    tag_114:\n        /* \"#utility.yul\":13669:13674   */\n      0x00\n        /* \"#utility.yul\":13700:13706   */\n      dup2\n        /* \"#utility.yul\":13694:13707   */\n      mload\n        /* \"#utility.yul\":13685:13707   */\n      swap1\n      pop\n        /* \"#utility.yul\":13716:13746   */\n      tag_265\n        /* \"#utility.yul\":13740:13745   */\n      dup2\n        /* \"#utility.yul\":13716:13746   */\n      tag_113\n      jump\t// in\n    tag_265:\n        /* \"#utility.yul\":13615:13752   */\n      swap3\n      swap2\n      pop\n      pop\n      jump\t// out\n        /* \"#utility.yul\":13758:14103   */\n    tag_48:\n        /* \"#utility.yul\":13825:13831   */\n      0x00\n        /* \"#utility.yul\":13874:13876   */\n      0x20\n        /* \"#utility.yul\":13862:13871   */\n      dup3\n        /* \"#utility.yul\":13853:13860   */\n      dup5\n        /* \"#utility.yul\":13849:13872   */\n      sub\n        /* \"#utility.yul\":13845:13877   */\n      slt\n        /* \"#utility.yul\":13842:13961   */\n      iszero\n      tag_267\n      jumpi\n        /* \"#utility.yul\":13880:13959   */\n      tag_268\n      tag_69\n      jump\t// in\n    tag_268:\n        /* \"#utility.yul\":13842:13961   */\n    tag_267:\n        /* \"#utility.yul\":14000:14001   */\n      0x00\n        /* \"#utility.yul\":14025:14086   */\n      tag_269\n        /* \"#utility.yul\":14078:14085   */\n      dup5\n        /* \"#utility.yul\":14069:14075   */\n      dup3\n        /* \"#utility.yul\":14058:14067   */\n      dup6\n        /* \"#utility.yul\":14054:14076   */\n      add\n        /* \"#utility.yul\":14025:14086   */\n      tag_114\n      jump\t// in\n    tag_269:\n        /* \"#utility.yul\":14015:14086   */\n      swap2\n      pop\n        /* \"#utility.yul\":13971:14096   */\n      pop\n        /* \"#utility.yul\":13758:14103   */\n      swap3\n      swap2\n      pop\n      pop\n      jump\t// out\n        /* \"#utility.yul\":14109:14278   */\n    tag_115:\n        /* \"#utility.yul\":14193:14204   */\n      0x00\n        /* \"#utility.yul\":14227:14233   */\n      dup3\n        /* \"#utility.yul\":14222:14225   */\n      dup3\n        /* \"#utility.yul\":14215:14234   */\n      mstore\n        /* \"#utility.yul\":14267:14271   */\n      0x20\n        /* \"#utility.yul\":14262:14265   */\n      dup3\n        /* \"#utility.yul\":14258:14272   */\n      add\n        /* \"#utility.yul\":14243:14272   */\n      swap1\n      pop\n        /* \"#utility.yul\":14109:14278   */\n      swap3\n      swap2\n      pop\n      pop\n      jump\t// out\n        /* \"#utility.yul\":14284:14522   */\n    tag_116:\n        /* \"#utility.yul\":14424:14458   */\n      0x45786368616e676541676772656761746f723a3a5472616e7366657248656c70\n        /* \"#utility.yul\":14420:14421   */\n      0x00\n        /* \"#utility.yul\":14412:14418   */\n      dup3\n        /* \"#utility.yul\":14408:14422   */\n      add\n        /* \"#utility.yul\":14401:14459   */\n      mstore\n        /* \"#utility.yul\":14493:14514   */\n      0x65723a736166655472616e7366657246726f6d00000000000000000000000000\n        /* \"#utility.yul\":14488:14490   */\n      0x20\n        /* \"#utility.yul\":14480:14486   */\n      dup3\n        /* \"#utility.yul\":14476:14491   */\n      add\n        /* \"#utility.yul\":14469:14515   */\n      mstore\n        /* \"#utility.yul\":14284:14522   */\n      pop\n      jump\t// out\n        /* \"#utility.yul\":14528:14894   */\n    tag_117:\n        /* \"#utility.yul\":14670:14673   */\n      0x00\n        /* \"#utility.yul\":14691:14758   */\n      tag_273\n        /* \"#utility.yul\":14755:14757   */\n      0x33\n        /* \"#utility.yul\":14750:14753   */\n      dup4\n        /* \"#utility.yul\":14691:14758   */\n      tag_115\n      jump\t// in\n    tag_273:\n        /* \"#utility.yul\":14684:14758   */\n      swap2\n      pop\n        /* \"#utility.yul\":14767:14860   */\n      tag_274\n        /* \"#utility.yul\":14856:14859   */\n      dup3\n        /* \"#utility.yul\":14767:14860   */\n      tag_116\n      jump\t// in\n    tag_274:\n        /* \"#utility.yul\":14885:14887   */\n      0x40\n        /* \"#utility.yul\":14880:14883   */\n      dup3\n        /* \"#utility.yul\":14876:14888   */\n      add\n        /* \"#utility.yul\":14869:14888   */\n      swap1\n      pop\n        /* \"#utility.yul\":14528:14894   */\n      swap2\n      swap1\n      pop\n      jump\t// out\n        /* \"#utility.yul\":14900:15319   */\n    tag_51:\n        /* \"#utility.yul\":15066:15070   */\n      0x00\n        /* \"#utility.yul\":15104:15106   */\n      0x20\n        /* \"#utility.yul\":15093:15102   */\n      dup3\n        /* \"#utility.yul\":15089:15107   */\n      add\n        /* \"#utility.yul\":15081:15107   */\n      swap1\n      pop\n        /* \"#utility.yul\":15153:15162   */\n      dup2\n        /* \"#utility.yul\":15147:15151   */\n      dup2\n        /* \"#utility.yul\":15143:15163   */\n      sub\n        /* \"#utility.yul\":15139:15140   */\n      0x00\n        /* \"#utility.yul\":15128:15137   */\n      dup4\n        /* \"#utility.yul\":15124:15141   */\n      add\n        /* \"#utility.yul\":15117:15164   */\n      mstore\n        /* \"#utility.yul\":15181:15312   */\n      tag_276\n        /* \"#utility.yul\":15307:15311   */\n      dup2\n        /* \"#utility.yul\":15181:15312   */\n      tag_117\n      jump\t// in\n    tag_276:\n        /* \"#utility.yul\":15173:15312   */\n      swap1\n      pop\n        /* \"#utility.yul\":14900:15319   */\n      swap2\n      swap1\n      pop\n      jump\t// out\n        /* \"#utility.yul\":15325:15657   */\n    tag_54:\n        /* \"#utility.yul\":15446:15450   */\n      0x00\n        /* \"#utility.yul\":15484:15486   */\n      0x40\n        /* \"#utility.yul\":15473:15482   */\n      dup3\n        /* \"#utility.yul\":15469:15487   */\n      add\n        /* \"#utility.yul\":15461:15487   */\n      swap1\n      pop\n        /* \"#utility.yul\":15497:15568   */\n      tag_278\n        /* \"#utility.yul\":15565:15566   */\n      0x00\n        /* \"#utility.yul\":15554:15563   */\n      dup4\n        /* \"#utility.yul\":15550:15567   */\n      add\n        /* \"#utility.yul\":15541:15547   */\n      dup6\n        /* \"#utility.yul\":15497:15568   */\n      tag_90\n      jump\t// in\n    tag_278:\n        /* \"#utility.yul\":15578:15650   */\n      tag_279\n        /* \"#utility.yul\":15646:15648   */\n      0x20\n        /* \"#utility.yul\":15635:15644   */\n      dup4\n        /* \"#utility.yul\":15631:15649   */\n      add\n        /* \"#utility.yul\":15622:15628   */\n      dup5\n        /* \"#utility.yul\":15578:15650   */\n      tag_105\n      jump\t// in\n    tag_279:\n        /* \"#utility.yul\":15325:15657   */\n      swap4\n      swap3\n      pop\n      pop\n      pop\n      jump\t// out\n        /* \"#utility.yul\":15663:15896   */\n    tag_118:\n        /* \"#utility.yul\":15803:15837   */\n      0x45786368616e676541676772656761746f723a3a5472616e7366657248656c70\n        /* \"#utility.yul\":15799:15800   */\n      0x00\n        /* \"#utility.yul\":15791:15797   */\n      dup3\n        /* \"#utility.yul\":15787:15801   */\n      add\n        /* \"#utility.yul\":15780:15838   */\n      mstore\n        /* \"#utility.yul\":15872:15888   */\n      0x65723a73616665417070726f7665000000000000000000000000000000000000\n        /* \"#utility.yul\":15867:15869   */\n      0x20\n        /* \"#utility.yul\":15859:15865   */\n      dup3\n        /* \"#utility.yul\":15855:15870   */\n      add\n        /* \"#utility.yul\":15848:15889   */\n      mstore\n        /* \"#utility.yul\":15663:15896   */\n      pop\n      jump\t// out\n        /* \"#utility.yul\":15902:16268   */\n    tag_119:\n        /* \"#utility.yul\":16044:16047   */\n      0x00\n        /* \"#utility.yul\":16065:16132   */\n      tag_282\n        /* \"#utility.yul\":16129:16131   */\n      0x2e\n        /* \"#utility.yul\":16124:16127   */\n      dup4\n        /* \"#utility.yul\":16065:16132   */\n      tag_115\n      jump\t// in\n    tag_282:\n        /* \"#utility.yul\":16058:16132   */\n      swap2\n      pop\n        /* \"#utility.yul\":16141:16234   */\n      tag_283\n        /* \"#utility.yul\":16230:16233   */\n      dup3\n        /* \"#utility.yul\":16141:16234   */\n      tag_118\n      jump\t// in\n    tag_283:\n        /* \"#utility.yul\":16259:16261   */\n      0x40\n        /* \"#utility.yul\":16254:16257   */\n      dup3\n        /* \"#utility.yul\":16250:16262   */\n      add\n        /* \"#utility.yul\":16243:16262   */\n      swap1\n      pop\n        /* \"#utility.yul\":15902:16268   */\n      swap2\n      swap1\n      pop\n      jump\t// out\n        /* \"#utility.yul\":16274:16693   */\n    tag_64:\n        /* \"#utility.yul\":16440:16444   */\n      0x00\n        /* \"#utility.yul\":16478:16480   */\n      0x20\n        /* \"#utility.yul\":16467:16476   */\n      dup3\n        /* \"#utility.yul\":16463:16481   */\n      add\n        /* \"#utility.yul\":16455:16481   */\n      swap1\n      pop\n        /* \"#utility.yul\":16527:16536   */\n      dup2\n        /* \"#utility.yul\":16521:16525   */\n      dup2\n        /* \"#utility.yul\":16517:16537   */\n      sub\n        /* \"#utility.yul\":16513:16514   */\n      0x00\n        /* \"#utility.yul\":16502:16511   */\n      dup4\n        /* \"#utility.yul\":16498:16515   */\n      add\n        /* \"#utility.yul\":16491:16538   */\n      mstore\n        /* \"#utility.yul\":16555:16686   */\n      tag_285\n        /* \"#utility.yul\":16681:16685   */\n      dup2\n        /* \"#utility.yul\":16555:16686   */\n      tag_119\n      jump\t// in\n    tag_285:\n        /* \"#utility.yul\":16547:16686   */\n      swap1\n      pop\n        /* \"#utility.yul\":16274:16693   */\n      swap2\n      swap1\n      pop\n      jump\t// out\n\n    auxdata: 0xa26469706673582212200a610d1170c80ae463ee584f8efe09fa57e7638cb167b70b13e8dbd684b9ac0c64736f6c63430008120033\n}\n",
				"bytecode": {
					"linkReferences": {},
					"object": "608060405234801561001057600080fd5b50610d45806100206000396000f3fe6080604052600436106100345760003560e01c80630a2fb37414610039578063e5c5e9a314610055578063e78cea9214610092575b600080fd5b610053600480360381019061004e9190610586565b6100bd565b005b34801561006157600080fd5b5061007c600480360381019061007791906105e6565b6101ca565b604051610089919061077c565b60405180910390f35b34801561009e57600080fd5b506100a76101e9565b6040516100b491906107d8565b60405180910390f35b600083838101906100ce91906109b5565b90506000816020015160001c90506100e88133308661020d565b6101138160008054906101000a900473ffffffffffffffffffffffffffffffffffffffff1685610346565b60008054906101000a900473ffffffffffffffffffffffffffffffffffffffff1673ffffffffffffffffffffffffffffffffffffffff1663f35e37d3348460200151868660400151876060015188608001518960a001518a60c001516040518963ffffffff1660e01b81526004016101919796959493929190610a1e565b6000604051808303818588803b1580156101aa57600080fd5b505af11580156101be573d6000803e3d6000fd5b50505050505050505050565b6101d261047c565b82828101906101e191906109b5565b905092915050565b60008054906101000a900473ffffffffffffffffffffffffffffffffffffffff1681565b6000808573ffffffffffffffffffffffffffffffffffffffff166323b872dd86868660405160240161024193929190610a8d565b6040516020818303038152906040529060e01b6020820180517bffffffffffffffffffffffffffffffffffffffffffffffffffffffff838183161783525050505060405161028f9190610b35565b6000604051808303816000865af19150503d80600081146102cc576040519150601f19603f3d011682016040523d82523d6000602084013e6102d1565b606091505b50915091508180156102ff57506000815114806102fe5750808060200190518101906102fd9190610b84565b5b5b61033e576040517f08c379a000000000000000000000000000000000000000000000000000000000815260040161033590610c34565b60405180910390fd5b505050505050565b6000808473ffffffffffffffffffffffffffffffffffffffff1663095ea7b38585604051602401610378929190610c54565b6040516020818303038152906040529060e01b6020820180517bffffffffffffffffffffffffffffffffffffffffffffffffffffffff83818316178352505050506040516103c69190610b35565b6000604051808303816000865af19150503d8060008114610403576040519150601f19603f3d011682016040523d82523d6000602084013e610408565b606091505b509150915081801561043657506000815114806104355750808060200190518101906104349190610b84565b5b5b610475576040517f08c379a000000000000000000000000000000000000000000000000000000000815260040161046c90610cef565b60405180910390fd5b5050505050565b6040518060e00160405280600081526020016000801916815260200160008019168152602001600060ff1681526020016000801916815260200160008152602001600060038111156104d1576104d0610677565b5b81525090565b6000604051905090565b600080fd5b600080fd5b600080fd5b600080fd5b600080fd5b60008083601f8401126105105761050f6104eb565b5b8235905067ffffffffffffffff81111561052d5761052c6104f0565b5b602083019150836001820283011115610549576105486104f5565b5b9250929050565b6000819050919050565b61056381610550565b811461056e57600080fd5b50565b6000813590506105808161055a565b92915050565b60008060006040848603121561059f5761059e6104e1565b5b600084013567ffffffffffffffff8111156105bd576105bc6104e6565b5b6105c9868287016104fa565b935093505060206105dc86828701610571565b9150509250925092565b600080602083850312156105fd576105fc6104e1565b5b600083013567ffffffffffffffff81111561061b5761061a6104e6565b5b610627858286016104fa565b92509250509250929050565b61063c81610550565b82525050565b6000819050919050565b61065581610642565b82525050565b600060ff82169050919050565b6106718161065b565b82525050565b7f4e487b7100000000000000000000000000000000000000000000000000000000600052602160045260246000fd5b600481106106b7576106b6610677565b5b50565b60008190506106c8826106a6565b919050565b60006106d8826106ba565b9050919050565b6106e8816106cd565b82525050565b60e0820160008201516107046000850182610633565b506020820151610717602085018261064c565b50604082015161072a604085018261064c565b50606082015161073d6060850182610668565b506080820151610750608085018261064c565b5060a082015161076360a0850182610633565b5060c082015161077660c08501826106df565b50505050565b600060e08201905061079160008301846106ee565b92915050565b600073ffffffffffffffffffffffffffffffffffffffff82169050919050565b60006107c282610797565b9050919050565b6107d2816107b7565b82525050565b60006020820190506107ed60008301846107c9565b92915050565b600080fd5b6000601f19601f8301169050919050565b7f4e487b7100000000000000000000000000000000000000000000000000000000600052604160045260246000fd5b610841826107f8565b810181811067ffffffffffffffff821117156108605761085f610809565b5b80604052505050565b60006108736104d7565b905061087f8282610838565b919050565b61088d81610642565b811461089857600080fd5b50565b6000813590506108aa81610884565b92915050565b6108b98161065b565b81146108c457600080fd5b50565b6000813590506108d6816108b0565b92915050565b600481106108e957600080fd5b50565b6000813590506108fb816108dc565b92915050565b600060e08284031215610917576109166107f3565b5b61092160e0610869565b9050600061093184828501610571565b60008301525060206109458482850161089b565b60208301525060406109598482850161089b565b604083015250606061096d848285016108c7565b60608301525060806109818482850161089b565b60808301525060a061099584828501610571565b60a08301525060c06109a9848285016108ec565b60c08301525092915050565b600060e082840312156109cb576109ca6104e1565b5b60006109d984828501610901565b91505092915050565b6109eb81610642565b82525050565b6109fa81610550565b82525050565b610a098161065b565b82525050565b610a18816106cd565b82525050565b600060e082019050610a33600083018a6109e2565b610a4060208301896109f1565b610a4d60408301886109e2565b610a5a6060830187610a00565b610a6760808301866109e2565b610a7460a08301856109f1565b610a8160c0830184610a0f565b98975050505050505050565b6000606082019050610aa260008301866107c9565b610aaf60208301856107c9565b610abc60408301846109f1565b949350505050565b600081519050919050565b600081905092915050565b60005b83811015610af8578082015181840152602081019050610add565b60008484015250505050565b6000610b0f82610ac4565b610b198185610acf565b9350610b29818560208601610ada565b80840191505092915050565b6000610b418284610b04565b915081905092915050565b60008115159050919050565b610b6181610b4c565b8114610b6c57600080fd5b50565b600081519050610b7e81610b58565b92915050565b600060208284031215610b9a57610b996104e1565b5b6000610ba884828501610b6f565b91505092915050565b600082825260208201905092915050565b7f45786368616e676541676772656761746f723a3a5472616e7366657248656c7060008201527f65723a736166655472616e7366657246726f6d00000000000000000000000000602082015250565b6000610c1e603383610bb1565b9150610c2982610bc2565b604082019050919050565b60006020820190508181036000830152610c4d81610c11565b9050919050565b6000604082019050610c6960008301856107c9565b610c7660208301846109f1565b9392505050565b7f45786368616e676541676772656761746f723a3a5472616e7366657248656c7060008201527f65723a73616665417070726f7665000000000000000000000000000000000000602082015250565b6000610cd9602e83610bb1565b9150610ce482610c7d565b604082019050919050565b60006020820190508181036000830152610d0881610ccc565b905091905056fea26469706673582212200a610d1170c80ae463ee584f8efe09fa57e7638cb167b70b13e8dbd684b9ac0c64736f6c63430008120033",
					"opcodes": "PUSH1 0x80 PUSH1 0x40 MSTORE CALLVALUE DUP1 ISZERO PUSH2 0x10 JUMPI PUSH1 0x0 DUP1 REVERT JUMPDEST POP PUSH2 0xD45 DUP1 PUSH2 0x20 PUSH1 0x0 CODECOPY PUSH1 0x0 RETURN INVALID PUSH1 0x80 PUSH1 0x40 MSTORE PUSH1 0x4 CALLDATASIZE LT PUSH2 0x34 JUMPI PUSH1 0x0 CALLDATALOAD PUSH1 0xE0 SHR DUP1 PUSH4 0xA2FB374 EQ PUSH2 0x39 JUMPI DUP1 PUSH4 0xE5C5E9A3 EQ PUSH2 0x55 JUMPI DUP1 PUSH4 0xE78CEA92 EQ PUSH2 0x92 JUMPI JUMPDEST PUSH1 0x0 DUP1 REVERT JUMPDEST PUSH2 0x53 PUSH1 0x4 DUP1 CALLDATASIZE SUB DUP2 ADD SWAP1 PUSH2 0x4E SWAP2 SWAP1 PUSH2 0x586 JUMP JUMPDEST PUSH2 0xBD JUMP JUMPDEST STOP JUMPDEST CALLVALUE DUP1 ISZERO PUSH2 0x61 JUMPI PUSH1 0x0 DUP1 REVERT JUMPDEST POP PUSH2 0x7C PUSH1 0x4 DUP1 CALLDATASIZE SUB DUP2 ADD SWAP1 PUSH2 0x77 SWAP2 SWAP1 PUSH2 0x5E6 JUMP JUMPDEST PUSH2 0x1CA JUMP JUMPDEST PUSH1 0x40 MLOAD PUSH2 0x89 SWAP2 SWAP1 PUSH2 0x77C JUMP JUMPDEST PUSH1 0x40 MLOAD DUP1 SWAP2 SUB SWAP1 RETURN JUMPDEST CALLVALUE DUP1 ISZERO PUSH2 0x9E JUMPI PUSH1 0x0 DUP1 REVERT JUMPDEST POP PUSH2 0xA7 PUSH2 0x1E9 JUMP JUMPDEST PUSH1 0x40 MLOAD PUSH2 0xB4 SWAP2 SWAP1 PUSH2 0x7D8 JUMP JUMPDEST PUSH1 0x40 MLOAD DUP1 SWAP2 SUB SWAP1 RETURN JUMPDEST PUSH1 0x0 DUP4 DUP4 DUP2 ADD SWAP1 PUSH2 0xCE SWAP2 SWAP1 PUSH2 0x9B5 JUMP JUMPDEST SWAP1 POP PUSH1 0x0 DUP2 PUSH1 0x20 ADD MLOAD PUSH1 0x0 SHR SWAP1 POP PUSH2 0xE8 DUP2 CALLER ADDRESS DUP7 PUSH2 0x20D JUMP JUMPDEST PUSH2 0x113 DUP2 PUSH1 0x0 DUP1 SLOAD SWAP1 PUSH2 0x100 EXP SWAP1 DIV PUSH20 0xFFFFFFFFFFFFFFFFFFFFFFFFFFFFFFFFFFFFFFFF AND DUP6 PUSH2 0x346 JUMP JUMPDEST PUSH1 0x0 DUP1 SLOAD SWAP1 PUSH2 0x100 EXP SWAP1 DIV PUSH20 0xFFFFFFFFFFFFFFFFFFFFFFFFFFFFFFFFFFFFFFFF AND PUSH20 0xFFFFFFFFFFFFFFFFFFFFFFFFFFFFFFFFFFFFFFFF AND PUSH4 0xF35E37D3 CALLVALUE DUP5 PUSH1 0x20 ADD MLOAD DUP7 DUP7 PUSH1 0x40 ADD MLOAD DUP8 PUSH1 0x60 ADD MLOAD DUP9 PUSH1 0x80 ADD MLOAD DUP10 PUSH1 0xA0 ADD MLOAD DUP11 PUSH1 0xC0 ADD MLOAD PUSH1 0x40 MLOAD DUP10 PUSH4 0xFFFFFFFF AND PUSH1 0xE0 SHL DUP2 MSTORE PUSH1 0x4 ADD PUSH2 0x191 SWAP8 SWAP7 SWAP6 SWAP5 SWAP4 SWAP3 SWAP2 SWAP1 PUSH2 0xA1E JUMP JUMPDEST PUSH1 0x0 PUSH1 0x40 MLOAD DUP1 DUP4 SUB DUP2 DUP6 DUP9 DUP1 EXTCODESIZE ISZERO DUP1 ISZERO PUSH2 0x1AA JUMPI PUSH1 0x0 DUP1 REVERT JUMPDEST POP GAS CALL ISZERO DUP1 ISZERO PUSH2 0x1BE JUMPI RETURNDATASIZE PUSH1 0x0 DUP1 RETURNDATACOPY RETURNDATASIZE PUSH1 0x0 REVERT JUMPDEST POP POP POP POP POP POP POP POP POP POP JUMP JUMPDEST PUSH2 0x1D2 PUSH2 0x47C JUMP JUMPDEST DUP3 DUP3 DUP2 ADD SWAP1 PUSH2 0x1E1 SWAP2 SWAP1 PUSH2 0x9B5 JUMP JUMPDEST SWAP1 POP SWAP3 SWAP2 POP POP JUMP JUMPDEST PUSH1 0x0 DUP1 SLOAD SWAP1 PUSH2 0x100 EXP SWAP1 DIV PUSH20 0xFFFFFFFFFFFFFFFFFFFFFFFFFFFFFFFFFFFFFFFF AND DUP2 JUMP JUMPDEST PUSH1 0x0 DUP1 DUP6 PUSH20 0xFFFFFFFFFFFFFFFFFFFFFFFFFFFFFFFFFFFFFFFF AND PUSH4 0x23B872DD DUP7 DUP7 DUP7 PUSH1 0x40 MLOAD PUSH1 0x24 ADD PUSH2 0x241 SWAP4 SWAP3 SWAP2 SWAP1 PUSH2 0xA8D JUMP JUMPDEST PUSH1 0x40 MLOAD PUSH1 0x20 DUP2 DUP4 SUB SUB DUP2 MSTORE SWAP1 PUSH1 0x40 MSTORE SWAP1 PUSH1 0xE0 SHL PUSH1 0x20 DUP3 ADD DUP1 MLOAD PUSH28 0xFFFFFFFFFFFFFFFFFFFFFFFFFFFFFFFFFFFFFFFFFFFFFFFFFFFFFFFF DUP4 DUP2 DUP4 AND OR DUP4 MSTORE POP POP POP POP PUSH1 0x40 MLOAD PUSH2 0x28F SWAP2 SWAP1 PUSH2 0xB35 JUMP JUMPDEST PUSH1 0x0 PUSH1 0x40 MLOAD DUP1 DUP4 SUB DUP2 PUSH1 0x0 DUP7 GAS CALL SWAP2 POP POP RETURNDATASIZE DUP1 PUSH1 0x0 DUP2 EQ PUSH2 0x2CC JUMPI PUSH1 0x40 MLOAD SWAP2 POP PUSH1 0x1F NOT PUSH1 0x3F RETURNDATASIZE ADD AND DUP3 ADD PUSH1 0x40 MSTORE RETURNDATASIZE DUP3 MSTORE RETURNDATASIZE PUSH1 0x0 PUSH1 0x20 DUP5 ADD RETURNDATACOPY PUSH2 0x2D1 JUMP JUMPDEST PUSH1 0x60 SWAP2 POP JUMPDEST POP SWAP2 POP SWAP2 POP DUP2 DUP1 ISZERO PUSH2 0x2FF JUMPI POP PUSH1 0x0 DUP2 MLOAD EQ DUP1 PUSH2 0x2FE JUMPI POP DUP1 DUP1 PUSH1 0x20 ADD SWAP1 MLOAD DUP2 ADD SWAP1 PUSH2 0x2FD SWAP2 SWAP1 PUSH2 0xB84 JUMP JUMPDEST JUMPDEST JUMPDEST PUSH2 0x33E JUMPI PUSH1 0x40 MLOAD PUSH32 0x8C379A000000000000000000000000000000000000000000000000000000000 DUP2 MSTORE PUSH1 0x4 ADD PUSH2 0x335 SWAP1 PUSH2 0xC34 JUMP JUMPDEST PUSH1 0x40 MLOAD DUP1 SWAP2 SUB SWAP1 REVERT JUMPDEST POP POP POP POP POP POP JUMP JUMPDEST PUSH1 0x0 DUP1 DUP5 PUSH20 0xFFFFFFFFFFFFFFFFFFFFFFFFFFFFFFFFFFFFFFFF AND PUSH4 0x95EA7B3 DUP6 DUP6 PUSH1 0x40 MLOAD PUSH1 0x24 ADD PUSH2 0x378 SWAP3 SWAP2 SWAP1 PUSH2 0xC54 JUMP JUMPDEST PUSH1 0x40 MLOAD PUSH1 0x20 DUP2 DUP4 SUB SUB DUP2 MSTORE SWAP1 PUSH1 0x40 MSTORE SWAP1 PUSH1 0xE0 SHL PUSH1 0x20 DUP3 ADD DUP1 MLOAD PUSH28 0xFFFFFFFFFFFFFFFFFFFFFFFFFFFFFFFFFFFFFFFFFFFFFFFFFFFFFFFF DUP4 DUP2 DUP4 AND OR DUP4 MSTORE POP POP POP POP PUSH1 0x40 MLOAD PUSH2 0x3C6 SWAP2 SWAP1 PUSH2 0xB35 JUMP JUMPDEST PUSH1 0x0 PUSH1 0x40 MLOAD DUP1 DUP4 SUB DUP2 PUSH1 0x0 DUP7 GAS CALL SWAP2 POP POP RETURNDATASIZE DUP1 PUSH1 0x0 DUP2 EQ PUSH2 0x403 JUMPI PUSH1 0x40 MLOAD SWAP2 POP PUSH1 0x1F NOT PUSH1 0x3F RETURNDATASIZE ADD AND DUP3 ADD PUSH1 0x40 MSTORE RETURNDATASIZE DUP3 MSTORE RETURNDATASIZE PUSH1 0x0 PUSH1 0x20 DUP5 ADD RETURNDATACOPY PUSH2 0x408 JUMP JUMPDEST PUSH1 0x60 SWAP2 POP JUMPDEST POP SWAP2 POP SWAP2 POP DUP2 DUP1 ISZERO PUSH2 0x436 JUMPI POP PUSH1 0x0 DUP2 MLOAD EQ DUP1 PUSH2 0x435 JUMPI POP DUP1 DUP1 PUSH1 0x20 ADD SWAP1 MLOAD DUP2 ADD SWAP1 PUSH2 0x434 SWAP2 SWAP1 PUSH2 0xB84 JUMP JUMPDEST JUMPDEST JUMPDEST PUSH2 0x475 JUMPI PUSH1 0x40 MLOAD PUSH32 0x8C379A000000000000000000000000000000000000000000000000000000000 DUP2 MSTORE PUSH1 0x4 ADD PUSH2 0x46C SWAP1 PUSH2 0xCEF JUMP JUMPDEST PUSH1 0x40 MLOAD DUP1 SWAP2 SUB SWAP1 REVERT JUMPDEST POP POP POP POP POP JUMP JUMPDEST PUSH1 0x40 MLOAD DUP1 PUSH1 0xE0 ADD PUSH1 0x40 MSTORE DUP1 PUSH1 0x0 DUP2 MSTORE PUSH1 0x20 ADD PUSH1 0x0 DUP1 NOT AND DUP2 MSTORE PUSH1 0x20 ADD PUSH1 0x0 DUP1 NOT AND DUP2 MSTORE PUSH1 0x20 ADD PUSH1 0x0 PUSH1 0xFF AND DUP2 MSTORE PUSH1 0x20 ADD PUSH1 0x0 DUP1 NOT AND DUP2 MSTORE PUSH1 0x20 ADD PUSH1 0x0 DUP2 MSTORE PUSH1 0x20 ADD PUSH1 0x0 PUSH1 0x3 DUP2 GT ISZERO PUSH2 0x4D1 JUMPI PUSH2 0x4D0 PUSH2 0x677 JUMP JUMPDEST JUMPDEST DUP2 MSTORE POP SWAP1 JUMP JUMPDEST PUSH1 0x0 PUSH1 0x40 MLOAD SWAP1 POP SWAP1 JUMP JUMPDEST PUSH1 0x0 DUP1 REVERT JUMPDEST PUSH1 0x0 DUP1 REVERT JUMPDEST PUSH1 0x0 DUP1 REVERT JUMPDEST PUSH1 0x0 DUP1 REVERT JUMPDEST PUSH1 0x0 DUP1 REVERT JUMPDEST PUSH1 0x0 DUP1 DUP4 PUSH1 0x1F DUP5 ADD SLT PUSH2 0x510 JUMPI PUSH2 0x50F PUSH2 0x4EB JUMP JUMPDEST JUMPDEST DUP3 CALLDATALOAD SWAP1 POP PUSH8 0xFFFFFFFFFFFFFFFF DUP2 GT ISZERO PUSH2 0x52D JUMPI PUSH2 0x52C PUSH2 0x4F0 JUMP JUMPDEST JUMPDEST PUSH1 0x20 DUP4 ADD SWAP2 POP DUP4 PUSH1 0x1 DUP3 MUL DUP4 ADD GT ISZERO PUSH2 0x549 JUMPI PUSH2 0x548 PUSH2 0x4F5 JUMP JUMPDEST JUMPDEST SWAP3 POP SWAP3 SWAP1 POP JUMP JUMPDEST PUSH1 0x0 DUP2 SWAP1 POP SWAP2 SWAP1 POP JUMP JUMPDEST PUSH2 0x563 DUP2 PUSH2 0x550 JUMP JUMPDEST DUP2 EQ PUSH2 0x56E JUMPI PUSH1 0x0 DUP1 REVERT JUMPDEST POP JUMP JUMPDEST PUSH1 0x0 DUP2 CALLDATALOAD SWAP1 POP PUSH2 0x580 DUP2 PUSH2 0x55A JUMP JUMPDEST SWAP3 SWAP2 POP POP JUMP JUMPDEST PUSH1 0x0 DUP1 PUSH1 0x0 PUSH1 0x40 DUP5 DUP7 SUB SLT ISZERO PUSH2 0x59F JUMPI PUSH2 0x59E PUSH2 0x4E1 JUMP JUMPDEST JUMPDEST PUSH1 0x0 DUP5 ADD CALLDATALOAD PUSH8 0xFFFFFFFFFFFFFFFF DUP2 GT ISZERO PUSH2 0x5BD JUMPI PUSH2 0x5BC PUSH2 0x4E6 JUMP JUMPDEST JUMPDEST PUSH2 0x5C9 DUP7 DUP3 DUP8 ADD PUSH2 0x4FA JUMP JUMPDEST SWAP4 POP SWAP4 POP POP PUSH1 0x20 PUSH2 0x5DC DUP7 DUP3 DUP8 ADD PUSH2 0x571 JUMP JUMPDEST SWAP2 POP POP SWAP3 POP SWAP3 POP SWAP3 JUMP JUMPDEST PUSH1 0x0 DUP1 PUSH1 0x20 DUP4 DUP6 SUB SLT ISZERO PUSH2 0x5FD JUMPI PUSH2 0x5FC PUSH2 0x4E1 JUMP JUMPDEST JUMPDEST PUSH1 0x0 DUP4 ADD CALLDATALOAD PUSH8 0xFFFFFFFFFFFFFFFF DUP2 GT ISZERO PUSH2 0x61B JUMPI PUSH2 0x61A PUSH2 0x4E6 JUMP JUMPDEST JUMPDEST PUSH2 0x627 DUP6 DUP3 DUP7 ADD PUSH2 0x4FA JUMP JUMPDEST SWAP3 POP SWAP3 POP POP SWAP3 POP SWAP3 SWAP1 POP JUMP JUMPDEST PUSH2 0x63C DUP2 PUSH2 0x550 JUMP JUMPDEST DUP3 MSTORE POP POP JUMP JUMPDEST PUSH1 0x0 DUP2 SWAP1 POP SWAP2 SWAP1 POP JUMP JUMPDEST PUSH2 0x655 DUP2 PUSH2 0x642 JUMP JUMPDEST DUP3 MSTORE POP POP JUMP JUMPDEST PUSH1 0x0 PUSH1 0xFF DUP3 AND SWAP1 POP SWAP2 SWAP1 POP JUMP JUMPDEST PUSH2 0x671 DUP2 PUSH2 0x65B JUMP JUMPDEST DUP3 MSTORE POP POP JUMP JUMPDEST PUSH32 0x4E487B7100000000000000000000000000000000000000000000000000000000 PUSH1 0x0 MSTORE PUSH1 0x21 PUSH1 0x4 MSTORE PUSH1 0x24 PUSH1 0x0 REVERT JUMPDEST PUSH1 0x4 DUP2 LT PUSH2 0x6B7 JUMPI PUSH2 0x6B6 PUSH2 0x677 JUMP JUMPDEST JUMPDEST POP JUMP JUMPDEST PUSH1 0x0 DUP2 SWAP1 POP PUSH2 0x6C8 DUP3 PUSH2 0x6A6 JUMP JUMPDEST SWAP2 SWAP1 POP JUMP JUMPDEST PUSH1 0x0 PUSH2 0x6D8 DUP3 PUSH2 0x6BA JUMP JUMPDEST SWAP1 POP SWAP2 SWAP1 POP JUMP JUMPDEST PUSH2 0x6E8 DUP2 PUSH2 0x6CD JUMP JUMPDEST DUP3 MSTORE POP POP JUMP JUMPDEST PUSH1 0xE0 DUP3 ADD PUSH1 0x0 DUP3 ADD MLOAD PUSH2 0x704 PUSH1 0x0 DUP6 ADD DUP3 PUSH2 0x633 JUMP JUMPDEST POP PUSH1 0x20 DUP3 ADD MLOAD PUSH2 0x717 PUSH1 0x20 DUP6 ADD DUP3 PUSH2 0x64C JUMP JUMPDEST POP PUSH1 0x40 DUP3 ADD MLOAD PUSH2 0x72A PUSH1 0x40 DUP6 ADD DUP3 PUSH2 0x64C JUMP JUMPDEST POP PUSH1 0x60 DUP3 ADD MLOAD PUSH2 0x73D PUSH1 0x60 DUP6 ADD DUP3 PUSH2 0x668 JUMP JUMPDEST POP PUSH1 0x80 DUP3 ADD MLOAD PUSH2 0x750 PUSH1 0x80 DUP6 ADD DUP3 PUSH2 0x64C JUMP JUMPDEST POP PUSH1 0xA0 DUP3 ADD MLOAD PUSH2 0x763 PUSH1 0xA0 DUP6 ADD DUP3 PUSH2 0x633 JUMP JUMPDEST POP PUSH1 0xC0 DUP3 ADD MLOAD PUSH2 0x776 PUSH1 0xC0 DUP6 ADD DUP3 PUSH2 0x6DF JUMP JUMPDEST POP POP POP POP JUMP JUMPDEST PUSH1 0x0 PUSH1 0xE0 DUP3 ADD SWAP1 POP PUSH2 0x791 PUSH1 0x0 DUP4 ADD DUP5 PUSH2 0x6EE JUMP JUMPDEST SWAP3 SWAP2 POP POP JUMP JUMPDEST PUSH1 0x0 PUSH20 0xFFFFFFFFFFFFFFFFFFFFFFFFFFFFFFFFFFFFFFFF DUP3 AND SWAP1 POP SWAP2 SWAP1 POP JUMP JUMPDEST PUSH1 0x0 PUSH2 0x7C2 DUP3 PUSH2 0x797 JUMP JUMPDEST SWAP1 POP SWAP2 SWAP1 POP JUMP JUMPDEST PUSH2 0x7D2 DUP2 PUSH2 0x7B7 JUMP JUMPDEST DUP3 MSTORE POP POP JUMP JUMPDEST PUSH1 0x0 PUSH1 0x20 DUP3 ADD SWAP1 POP PUSH2 0x7ED PUSH1 0x0 DUP4 ADD DUP5 PUSH2 0x7C9 JUMP JUMPDEST SWAP3 SWAP2 POP POP JUMP JUMPDEST PUSH1 0x0 DUP1 REVERT JUMPDEST PUSH1 0x0 PUSH1 0x1F NOT PUSH1 0x1F DUP4 ADD AND SWAP1 POP SWAP2 SWAP1 POP JUMP JUMPDEST PUSH32 0x4E487B7100000000000000000000000000000000000000000000000000000000 PUSH1 0x0 MSTORE PUSH1 0x41 PUSH1 0x4 MSTORE PUSH1 0x24 PUSH1 0x0 REVERT JUMPDEST PUSH2 0x841 DUP3 PUSH2 0x7F8 JUMP JUMPDEST DUP2 ADD DUP2 DUP2 LT PUSH8 0xFFFFFFFFFFFFFFFF DUP3 GT OR ISZERO PUSH2 0x860 JUMPI PUSH2 0x85F PUSH2 0x809 JUMP JUMPDEST JUMPDEST DUP1 PUSH1 0x40 MSTORE POP POP POP JUMP JUMPDEST PUSH1 0x0 PUSH2 0x873 PUSH2 0x4D7 JUMP JUMPDEST SWAP1 POP PUSH2 0x87F DUP3 DUP3 PUSH2 0x838 JUMP JUMPDEST SWAP2 SWAP1 POP JUMP JUMPDEST PUSH2 0x88D DUP2 PUSH2 0x642 JUMP JUMPDEST DUP2 EQ PUSH2 0x898 JUMPI PUSH1 0x0 DUP1 REVERT JUMPDEST POP JUMP JUMPDEST PUSH1 0x0 DUP2 CALLDATALOAD SWAP1 POP PUSH2 0x8AA DUP2 PUSH2 0x884 JUMP JUMPDEST SWAP3 SWAP2 POP POP JUMP JUMPDEST PUSH2 0x8B9 DUP2 PUSH2 0x65B JUMP JUMPDEST DUP2 EQ PUSH2 0x8C4 JUMPI PUSH1 0x0 DUP1 REVERT JUMPDEST POP JUMP JUMPDEST PUSH1 0x0 DUP2 CALLDATALOAD SWAP1 POP PUSH2 0x8D6 DUP2 PUSH2 0x8B0 JUMP JUMPDEST SWAP3 SWAP2 POP POP JUMP JUMPDEST PUSH1 0x4 DUP2 LT PUSH2 0x8E9 JUMPI PUSH1 0x0 DUP1 REVERT JUMPDEST POP JUMP JUMPDEST PUSH1 0x0 DUP2 CALLDATALOAD SWAP1 POP PUSH2 0x8FB DUP2 PUSH2 0x8DC JUMP JUMPDEST SWAP3 SWAP2 POP POP JUMP JUMPDEST PUSH1 0x0 PUSH1 0xE0 DUP3 DUP5 SUB SLT ISZERO PUSH2 0x917 JUMPI PUSH2 0x916 PUSH2 0x7F3 JUMP JUMPDEST JUMPDEST PUSH2 0x921 PUSH1 0xE0 PUSH2 0x869 JUMP JUMPDEST SWAP1 POP PUSH1 0x0 PUSH2 0x931 DUP5 DUP3 DUP6 ADD PUSH2 0x571 JUMP JUMPDEST PUSH1 0x0 DUP4 ADD MSTORE POP PUSH1 0x20 PUSH2 0x945 DUP5 DUP3 DUP6 ADD PUSH2 0x89B JUMP JUMPDEST PUSH1 0x20 DUP4 ADD MSTORE POP PUSH1 0x40 PUSH2 0x959 DUP5 DUP3 DUP6 ADD PUSH2 0x89B JUMP JUMPDEST PUSH1 0x40 DUP4 ADD MSTORE POP PUSH1 0x60 PUSH2 0x96D DUP5 DUP3 DUP6 ADD PUSH2 0x8C7 JUMP JUMPDEST PUSH1 0x60 DUP4 ADD MSTORE POP PUSH1 0x80 PUSH2 0x981 DUP5 DUP3 DUP6 ADD PUSH2 0x89B JUMP JUMPDEST PUSH1 0x80 DUP4 ADD MSTORE POP PUSH1 0xA0 PUSH2 0x995 DUP5 DUP3 DUP6 ADD PUSH2 0x571 JUMP JUMPDEST PUSH1 0xA0 DUP4 ADD MSTORE POP PUSH1 0xC0 PUSH2 0x9A9 DUP5 DUP3 DUP6 ADD PUSH2 0x8EC JUMP JUMPDEST PUSH1 0xC0 DUP4 ADD MSTORE POP SWAP3 SWAP2 POP POP JUMP JUMPDEST PUSH1 0x0 PUSH1 0xE0 DUP3 DUP5 SUB SLT ISZERO PUSH2 0x9CB JUMPI PUSH2 0x9CA PUSH2 0x4E1 JUMP JUMPDEST JUMPDEST PUSH1 0x0 PUSH2 0x9D9 DUP5 DUP3 DUP6 ADD PUSH2 0x901 JUMP JUMPDEST SWAP2 POP POP SWAP3 SWAP2 POP POP JUMP JUMPDEST PUSH2 0x9EB DUP2 PUSH2 0x642 JUMP JUMPDEST DUP3 MSTORE POP POP JUMP JUMPDEST PUSH2 0x9FA DUP2 PUSH2 0x550 JUMP JUMPDEST DUP3 MSTORE POP POP JUMP JUMPDEST PUSH2 0xA09 DUP2 PUSH2 0x65B JUMP JUMPDEST DUP3 MSTORE POP POP JUMP JUMPDEST PUSH2 0xA18 DUP2 PUSH2 0x6CD JUMP JUMPDEST DUP3 MSTORE POP POP JUMP JUMPDEST PUSH1 0x0 PUSH1 0xE0 DUP3 ADD SWAP1 POP PUSH2 0xA33 PUSH1 0x0 DUP4 ADD DUP11 PUSH2 0x9E2 JUMP JUMPDEST PUSH2 0xA40 PUSH1 0x20 DUP4 ADD DUP10 PUSH2 0x9F1 JUMP JUMPDEST PUSH2 0xA4D PUSH1 0x40 DUP4 ADD DUP9 PUSH2 0x9E2 JUMP JUMPDEST PUSH2 0xA5A PUSH1 0x60 DUP4 ADD DUP8 PUSH2 0xA00 JUMP JUMPDEST PUSH2 0xA67 PUSH1 0x80 DUP4 ADD DUP7 PUSH2 0x9E2 JUMP JUMPDEST PUSH2 0xA74 PUSH1 0xA0 DUP4 ADD DUP6 PUSH2 0x9F1 JUMP JUMPDEST PUSH2 0xA81 PUSH1 0xC0 DUP4 ADD DUP5 PUSH2 0xA0F JUMP JUMPDEST SWAP9 SWAP8 POP POP POP POP POP POP POP POP JUMP JUMPDEST PUSH1 0x0 PUSH1 0x60 DUP3 ADD SWAP1 POP PUSH2 0xAA2 PUSH1 0x0 DUP4 ADD DUP7 PUSH2 0x7C9 JUMP JUMPDEST PUSH2 0xAAF PUSH1 0x20 DUP4 ADD DUP6 PUSH2 0x7C9 JUMP JUMPDEST PUSH2 0xABC PUSH1 0x40 DUP4 ADD DUP5 PUSH2 0x9F1 JUMP JUMPDEST SWAP5 SWAP4 POP POP POP POP JUMP JUMPDEST PUSH1 0x0 DUP2 MLOAD SWAP1 POP SWAP2 SWAP1 POP JUMP JUMPDEST PUSH1 0x0 DUP2 SWAP1 POP SWAP3 SWAP2 POP POP JUMP JUMPDEST PUSH1 0x0 JUMPDEST DUP4 DUP2 LT ISZERO PUSH2 0xAF8 JUMPI DUP1 DUP3 ADD MLOAD DUP2 DUP5 ADD MSTORE PUSH1 0x20 DUP2 ADD SWAP1 POP PUSH2 0xADD JUMP JUMPDEST PUSH1 0x0 DUP5 DUP5 ADD MSTORE POP POP POP POP JUMP JUMPDEST PUSH1 0x0 PUSH2 0xB0F DUP3 PUSH2 0xAC4 JUMP JUMPDEST PUSH2 0xB19 DUP2 DUP6 PUSH2 0xACF JUMP JUMPDEST SWAP4 POP PUSH2 0xB29 DUP2 DUP6 PUSH1 0x20 DUP7 ADD PUSH2 0xADA JUMP JUMPDEST DUP1 DUP5 ADD SWAP2 POP POP SWAP3 SWAP2 POP POP JUMP JUMPDEST PUSH1 0x0 PUSH2 0xB41 DUP3 DUP5 PUSH2 0xB04 JUMP JUMPDEST SWAP2 POP DUP2 SWAP1 POP SWAP3 SWAP2 POP POP JUMP JUMPDEST PUSH1 0x0 DUP2 ISZERO ISZERO SWAP1 POP SWAP2 SWAP1 POP JUMP JUMPDEST PUSH2 0xB61 DUP2 PUSH2 0xB4C JUMP JUMPDEST DUP2 EQ PUSH2 0xB6C JUMPI PUSH1 0x0 DUP1 REVERT JUMPDEST POP JUMP JUMPDEST PUSH1 0x0 DUP2 MLOAD SWAP1 POP PUSH2 0xB7E DUP2 PUSH2 0xB58 JUMP JUMPDEST SWAP3 SWAP2 POP POP JUMP JUMPDEST PUSH1 0x0 PUSH1 0x20 DUP3 DUP5 SUB SLT ISZERO PUSH2 0xB9A JUMPI PUSH2 0xB99 PUSH2 0x4E1 JUMP JUMPDEST JUMPDEST PUSH1 0x0 PUSH2 0xBA8 DUP5 DUP3 DUP6 ADD PUSH2 0xB6F JUMP JUMPDEST SWAP2 POP POP SWAP3 SWAP2 POP POP JUMP JUMPDEST PUSH1 0x0 DUP3 DUP3 MSTORE PUSH1 0x20 DUP3 ADD SWAP1 POP SWAP3 SWAP2 POP POP JUMP JUMPDEST PUSH32 0x45786368616E676541676772656761746F723A3A5472616E7366657248656C70 PUSH1 0x0 DUP3 ADD MSTORE PUSH32 0x65723A736166655472616E7366657246726F6D00000000000000000000000000 PUSH1 0x20 DUP3 ADD MSTORE POP JUMP JUMPDEST PUSH1 0x0 PUSH2 0xC1E PUSH1 0x33 DUP4 PUSH2 0xBB1 JUMP JUMPDEST SWAP2 POP PUSH2 0xC29 DUP3 PUSH2 0xBC2 JUMP JUMPDEST PUSH1 0x40 DUP3 ADD SWAP1 POP SWAP2 SWAP1 POP JUMP JUMPDEST PUSH1 0x0 PUSH1 0x20 DUP3 ADD SWAP1 POP DUP2 DUP2 SUB PUSH1 0x0 DUP4 ADD MSTORE PUSH2 0xC4D DUP2 PUSH2 0xC11 JUMP JUMPDEST SWAP1 POP SWAP2 SWAP1 POP JUMP JUMPDEST PUSH1 0x0 PUSH1 0x40 DUP3 ADD SWAP1 POP PUSH2 0xC69 PUSH1 0x0 DUP4 ADD DUP6 PUSH2 0x7C9 JUMP JUMPDEST PUSH2 0xC76 PUSH1 0x20 DUP4 ADD DUP5 PUSH2 0x9F1 JUMP JUMPDEST SWAP4 SWAP3 POP POP POP JUMP JUMPDEST PUSH32 0x45786368616E676541676772656761746F723A3A5472616E7366657248656C70 PUSH1 0x0 DUP3 ADD MSTORE PUSH32 0x65723A73616665417070726F7665000000000000000000000000000000000000 PUSH1 0x20 DUP3 ADD MSTORE POP JUMP JUMPDEST PUSH1 0x0 PUSH2 0xCD9 PUSH1 0x2E DUP4 PUSH2 0xBB1 JUMP JUMPDEST SWAP2 POP PUSH2 0xCE4 DUP3 PUSH2 0xC7D JUMP JUMPDEST PUSH1 0x40 DUP3 ADD SWAP1 POP SWAP2 SWAP1 POP JUMP JUMPDEST PUSH1 0x0 PUSH1 0x20 DUP3 ADD SWAP1 POP DUP2 DUP2 SUB PUSH1 0x0 DUP4 ADD MSTORE PUSH2 0xD08 DUP2 PUSH2 0xCCC JUMP JUMPDEST SWAP1 POP SWAP2 SWAP1 POP JUMP INVALID LOG2 PUSH5 0x6970667358 0x22 SLT KECCAK256 EXP PUSH2 0xD11 PUSH17 0xC80AE463EE584F8EFE09FA57E7638CB167 0xB7 SIGNEXTEND SGT 0xE8 0xDB 0xD6 DUP5 0xB9 0xAC 0xC PUSH5 0x736F6C6343 STOP ADDMOD SLT STOP CALLER "
				},
				"gasEstimates": {
					"creation": {
						"codeDepositCost": "679400",
						"executionCost": "715",
						"totalCost": "680115"
					},
					"external": {
						"Bridge(bytes,uint256)": "infinite",
						"bridge()": "2533",
						"decode(bytes)": "infinite"
					}
				},
				"methodIdentifiers": {
					"Bridge(bytes,uint256)": "0a2fb374",
					"bridge()": "e78cea92",
					"decode(bytes)": "e5c5e9a3"
				}
			},
			"storageLayout": {
				"storage": [
					{
						"astId": 32,
						"contract": "contracts/bridge.sol:ALLBridge",
						"label": "bridge",
						"offset": 0,
						"slot": "0",
						"type": "t_address"
					}
				],
				"types": {
					"t_address": {
						"encoding": "inplace",
						"label": "address",
						"numberOfBytes": "20"
					}
				}
			},
			"userdoc": {
				"kind": "user",
				"methods": {},
				"version": 1
			}
		}
	}
}