{
	"contracts/AllBridge.sol": {
		"ALLBridge": {
			"abi": [
				{
					"anonymous": false,
					"inputs": [
						{
							"indexed": true,
							"internalType": "address",
							"name": "previousOwner",
							"type": "address"
						},
						{
							"indexed": true,
							"internalType": "address",
							"name": "newOwner",
							"type": "address"
						}
					],
					"name": "OwnershipTransferred",
					"type": "event"
				},
				{
					"inputs": [
						{
							"internalType": "bytes",
							"name": "data",
							"type": "bytes"
						},
						{
							"internalType": "uint256",
							"name": "amountIn",
							"type": "uint256"
						}
					],
					"name": "Bridge",
					"outputs": [],
					"stateMutability": "payable",
					"type": "function"
				},
				{
					"inputs": [
						{
							"internalType": "address",
							"name": "token",
							"type": "address"
						},
						{
							"internalType": "address",
							"name": "pool",
							"type": "address"
						}
					],
					"name": "approveToken",
					"outputs": [],
					"stateMutability": "nonpayable",
					"type": "function"
				},
				{
					"inputs": [],
					"name": "owner",
					"outputs": [
						{
							"internalType": "address",
							"name": "",
							"type": "address"
						}
					],
					"stateMutability": "view",
					"type": "function"
				},
				{
					"inputs": [],
					"name": "renounceOwnership",
					"outputs": [],
					"stateMutability": "nonpayable",
					"type": "function"
				},
				{
					"inputs": [
						{
							"internalType": "address",
							"name": "newOwner",
							"type": "address"
						}
					],
					"name": "transferOwnership",
					"outputs": [],
					"stateMutability": "nonpayable",
					"type": "function"
				}
			],
			"devdoc": {
				"kind": "dev",
				"methods": {
					"owner()": {
						"details": "Returns the address of the current owner."
					},
					"renounceOwnership()": {
						"details": "Leaves the contract without owner. It will not be possible to call `onlyOwner` functions anymore. Can only be called by the current owner. NOTE: Renouncing ownership will leave the contract without an owner, thereby removing any functionality that is only available to the owner."
					},
					"transferOwnership(address)": {
						"details": "Transfers ownership of the contract to a new account (`newOwner`). Can only be called by the current owner."
					}
				},
				"version": 1
			},
			"evm": {
				"assembly": "    /* \"contracts/AllBridge.sol\":612:1782  contract ALLBridge is IBridge,Ownable {    ... */\n  mstore(0x40, 0x80)\n    /* \"contracts/AllBridge.sol\":678:744  0xffffffffffffffffffffffffffffffffffffffffffffffffffffffffffffffff */\n  0xffffffffffffffffffffffffffffffffffffffffffffffffffffffffffffffff\n    /* \"contracts/AllBridge.sol\":660:744  uint256 MAX_INT = 0xffffffffffffffffffffffffffffffffffffffffffffffffffffffffffffffff */\n  0x01\n  sstore\n    /* \"contracts/AllBridge.sol\":612:1782  contract ALLBridge is IBridge,Ownable {    ... */\n  callvalue\n  dup1\n  iszero\n  tag_1\n  jumpi\n  0x00\n  dup1\n  revert\ntag_1:\n  pop\n    /* \"@openzeppelin/contracts/access/Ownable.sol\":936:968  _transferOwnership(_msgSender()) */\n  tag_4\n    /* \"@openzeppelin/contracts/access/Ownable.sol\":955:967  _msgSender() */\n  tag_5\n    /* \"@openzeppelin/contracts/access/Ownable.sol\":955:965  _msgSender */\n  shl(0x20, tag_6)\n    /* \"@openzeppelin/contracts/access/Ownable.sol\":955:967  _msgSender() */\n  0x20\n  shr\n  jump\t// in\ntag_5:\n    /* \"@openzeppelin/contracts/access/Ownable.sol\":936:954  _transferOwnership */\n  shl(0x20, tag_7)\n    /* \"@openzeppelin/contracts/access/Ownable.sol\":936:968  _transferOwnership(_msgSender()) */\n  0x20\n  shr\n  jump\t// in\ntag_4:\n    /* \"contracts/AllBridge.sol\":612:1782  contract ALLBridge is IBridge,Ownable {    ... */\n  jump(tag_8)\n    /* \"@openzeppelin/contracts/utils/Context.sol\":640:736  function _msgSender() internal view virtual returns (address) {... */\ntag_6:\n    /* \"@openzeppelin/contracts/utils/Context.sol\":693:700  address */\n  0x00\n    /* \"@openzeppelin/contracts/utils/Context.sol\":719:729  msg.sender */\n  caller\n    /* \"@openzeppelin/contracts/utils/Context.sol\":712:729  return msg.sender */\n  swap1\n  pop\n    /* \"@openzeppelin/contracts/utils/Context.sol\":640:736  function _msgSender() internal view virtual returns (address) {... */\n  swap1\n  jump\t// out\n    /* \"@openzeppelin/contracts/access/Ownable.sol\":2433:2620  function _transferOwnership(address newOwner) internal virtual {... */\ntag_7:\n    /* \"@openzeppelin/contracts/access/Ownable.sol\":2506:2522  address oldOwner */\n  0x00\n    /* \"@openzeppelin/contracts/access/Ownable.sol\":2525:2531  _owner */\n  dup1\n  0x00\n  swap1\n  sload\n  swap1\n  0x0100\n  exp\n  swap1\n  div\n  0xffffffffffffffffffffffffffffffffffffffff\n  and\n    /* \"@openzeppelin/contracts/access/Ownable.sol\":2506:2531  address oldOwner = _owner */\n  swap1\n  pop\n    /* \"@openzeppelin/contracts/access/Ownable.sol\":2550:2558  newOwner */\n  dup2\n    /* \"@openzeppelin/contracts/access/Ownable.sol\":2541:2547  _owner */\n  0x00\n  dup1\n    /* \"@openzeppelin/contracts/access/Ownable.sol\":2541:2558  _owner = newOwner */\n  0x0100\n  exp\n  dup2\n  sload\n  dup2\n  0xffffffffffffffffffffffffffffffffffffffff\n  mul\n  not\n  and\n  swap1\n  dup4\n  0xffffffffffffffffffffffffffffffffffffffff\n  and\n  mul\n  or\n  swap1\n  sstore\n  pop\n    /* \"@openzeppelin/contracts/access/Ownable.sol\":2604:2612  newOwner */\n  dup2\n    /* \"@openzeppelin/contracts/access/Ownable.sol\":2573:2613  OwnershipTransferred(oldOwner, newOwner) */\n  0xffffffffffffffffffffffffffffffffffffffff\n  and\n    /* \"@openzeppelin/contracts/access/Ownable.sol\":2594:2602  oldOwner */\n  dup2\n    /* \"@openzeppelin/contracts/access/Ownable.sol\":2573:2613  OwnershipTransferred(oldOwner, newOwner) */\n  0xffffffffffffffffffffffffffffffffffffffff\n  and\n  0x8be0079c531659141344cd1fd0a4f28419497f9722a3daafe3b4186f6b6457e0\n  mload(0x40)\n  mload(0x40)\n  dup1\n  swap2\n  sub\n  swap1\n  log3\n    /* \"@openzeppelin/contracts/access/Ownable.sol\":2496:2620  {... */\n  pop\n    /* \"@openzeppelin/contracts/access/Ownable.sol\":2433:2620  function _transferOwnership(address newOwner) internal virtual {... */\n  pop\n  jump\t// out\n    /* \"contracts/AllBridge.sol\":612:1782  contract ALLBridge is IBridge,Ownable {    ... */\ntag_8:\n  dataSize(sub_0)\n  dup1\n  dataOffset(sub_0)\n  0x00\n  codecopy\n  0x00\n  return\nstop\n\nsub_0: assembly {\n        /* \"contracts/AllBridge.sol\":612:1782  contract ALLBridge is IBridge,Ownable {    ... */\n      mstore(0x40, 0x80)\n      jumpi(tag_1, lt(calldatasize, 0x04))\n      shr(0xe0, calldataload(0x00))\n      dup1\n      0x03105b04\n      eq\n      tag_2\n      jumpi\n      dup1\n      0x0a2fb374\n      eq\n      tag_3\n      jumpi\n      dup1\n      0x715018a6\n      eq\n      tag_4\n      jumpi\n      dup1\n      0x8da5cb5b\n      eq\n      tag_5\n      jumpi\n      dup1\n      0xf2fde38b\n      eq\n      tag_6\n      jumpi\n    tag_1:\n      0x00\n      dup1\n      revert\n        /* \"contracts/AllBridge.sol\":1649:1779  function approveToken(address token,address pool) public onlyOwner {... */\n    tag_2:\n      callvalue\n      dup1\n      iszero\n      tag_7\n      jumpi\n      0x00\n      dup1\n      revert\n    tag_7:\n      pop\n      tag_8\n      0x04\n      dup1\n      calldatasize\n      sub\n      dup2\n      add\n      swap1\n      tag_9\n      swap2\n      swap1\n      tag_10\n      jump\t// in\n    tag_9:\n      tag_11\n      jump\t// in\n    tag_8:\n      stop\n        /* \"contracts/AllBridge.sol\":1009:1644  function Bridge(bytes calldata data,uint amountIn) public payable {... */\n    tag_3:\n      tag_12\n      0x04\n      dup1\n      calldatasize\n      sub\n      dup2\n      add\n      swap1\n      tag_13\n      swap2\n      swap1\n      tag_14\n      jump\t// in\n    tag_13:\n      tag_15\n      jump\t// in\n    tag_12:\n      stop\n        /* \"@openzeppelin/contracts/access/Ownable.sol\":1831:1932  function renounceOwnership() public virtual onlyOwner {... */\n    tag_4:\n      callvalue\n      dup1\n      iszero\n      tag_16\n      jumpi\n      0x00\n      dup1\n      revert\n    tag_16:\n      pop\n      tag_17\n      tag_18\n      jump\t// in\n    tag_17:\n      stop\n        /* \"@openzeppelin/contracts/access/Ownable.sol\":1201:1286  function owner() public view virtual returns (address) {... */\n    tag_5:\n      callvalue\n      dup1\n      iszero\n      tag_19\n      jumpi\n      0x00\n      dup1\n      revert\n    tag_19:\n      pop\n      tag_20\n      tag_21\n      jump\t// in\n    tag_20:\n      mload(0x40)\n      tag_22\n      swap2\n      swap1\n      tag_23\n      jump\t// in\n    tag_22:\n      mload(0x40)\n      dup1\n      swap2\n      sub\n      swap1\n      return\n        /* \"@openzeppelin/contracts/access/Ownable.sol\":2081:2279  function transferOwnership(address newOwner) public virtual onlyOwner {... */\n    tag_6:\n      callvalue\n      dup1\n      iszero\n      tag_24\n      jumpi\n      0x00\n      dup1\n      revert\n    tag_24:\n      pop\n      tag_25\n      0x04\n      dup1\n      calldatasize\n      sub\n      dup2\n      add\n      swap1\n      tag_26\n      swap2\n      swap1\n      tag_27\n      jump\t// in\n    tag_26:\n      tag_28\n      jump\t// in\n    tag_25:\n      stop\n        /* \"contracts/AllBridge.sol\":1649:1779  function approveToken(address token,address pool) public onlyOwner {... */\n    tag_11:\n        /* \"@openzeppelin/contracts/access/Ownable.sol\":1094:1107  _checkOwner() */\n      tag_30\n        /* \"@openzeppelin/contracts/access/Ownable.sol\":1094:1105  _checkOwner */\n      tag_31\n        /* \"@openzeppelin/contracts/access/Ownable.sol\":1094:1107  _checkOwner() */\n      jump\t// in\n    tag_30:\n        /* \"contracts/AllBridge.sol\":1726:1772  TransferHelper.safeApprove(token,pool,MAX_INT) */\n      tag_33\n        /* \"contracts/AllBridge.sol\":1753:1758  token */\n      dup3\n        /* \"contracts/AllBridge.sol\":1759:1763  pool */\n      dup3\n        /* \"contracts/AllBridge.sol\":1764:1771  MAX_INT */\n      sload(0x01)\n        /* \"contracts/AllBridge.sol\":1726:1752  TransferHelper.safeApprove */\n      tag_34\n        /* \"contracts/AllBridge.sol\":1726:1772  TransferHelper.safeApprove(token,pool,MAX_INT) */\n      jump\t// in\n    tag_33:\n        /* \"contracts/AllBridge.sol\":1649:1779  function approveToken(address token,address pool) public onlyOwner {... */\n      pop\n      pop\n      jump\t// out\n        /* \"contracts/AllBridge.sol\":1009:1644  function Bridge(bytes calldata data,uint amountIn) public payable {... */\n    tag_15:\n        /* \"contracts/AllBridge.sol\":1086:1113  allBridgeInput memory input */\n      0x00\n        /* \"contracts/AllBridge.sol\":1128:1132  data */\n      dup4\n      dup4\n        /* \"contracts/AllBridge.sol\":1117:1150  abi.decode(data,(allBridgeInput)) */\n      dup2\n      add\n      swap1\n      tag_36\n      swap2\n      swap1\n      tag_37\n      jump\t// in\n    tag_36:\n        /* \"contracts/AllBridge.sol\":1085:1150  (allBridgeInput memory input) = abi.decode(data,(allBridgeInput)) */\n      swap1\n      pop\n        /* \"contracts/AllBridge.sol\":1164:1184  address tokenAddress */\n      0x00\n        /* \"contracts/AllBridge.sol\":1211:1216  input */\n      dup2\n        /* \"contracts/AllBridge.sol\":1211:1229  input.tokenAddress */\n      0x20\n      add\n      mload\n        /* \"contracts/AllBridge.sol\":1203:1230  uint256(input.tokenAddress) */\n      0x00\n      shr\n        /* \"contracts/AllBridge.sol\":1164:1232  address tokenAddress = address(uint160(uint256(input.tokenAddress))) */\n      swap1\n      pop\n        /* \"contracts/AllBridge.sol\":1246:1325  TransferHelper.safeTransferFrom(tokenAddress,msg.sender,address(this),amountIn) */\n      tag_38\n        /* \"contracts/AllBridge.sol\":1278:1290  tokenAddress */\n      dup2\n        /* \"contracts/AllBridge.sol\":1291:1301  msg.sender */\n      caller\n        /* \"contracts/AllBridge.sol\":1310:1314  this */\n      address\n        /* \"contracts/AllBridge.sol\":1316:1324  amountIn */\n      dup7\n        /* \"contracts/AllBridge.sol\":1246:1277  TransferHelper.safeTransferFrom */\n      tag_39\n        /* \"contracts/AllBridge.sol\":1246:1325  TransferHelper.safeTransferFrom(tokenAddress,msg.sender,address(this),amountIn) */\n      jump\t// in\n    tag_38:\n        /* \"contracts/AllBridge.sol\":1350:1355  input */\n      dup2\n        /* \"contracts/AllBridge.sol\":1350:1362  input.bridge */\n      0x00\n      add\n      mload\n        /* \"contracts/AllBridge.sol\":1339:1377  IAllBridge(input.bridge).swapAndBridge */\n      0xffffffffffffffffffffffffffffffffffffffff\n      and\n      0xf35e37d3\n        /* \"contracts/AllBridge.sol\":1384:1393  msg.value */\n      callvalue\n        /* \"contracts/AllBridge.sol\":1412:1417  input */\n      dup5\n        /* \"contracts/AllBridge.sol\":1412:1430  input.tokenAddress */\n      0x20\n      add\n      mload\n        /* \"contracts/AllBridge.sol\":1448:1456  amountIn */\n      dup7\n        /* \"contracts/AllBridge.sol\":1474:1479  input */\n      dup7\n        /* \"contracts/AllBridge.sol\":1474:1489  input.recipient */\n      0x40\n      add\n      mload\n        /* \"contracts/AllBridge.sol\":1507:1512  input */\n      dup8\n        /* \"contracts/AllBridge.sol\":1507:1531  input.destinationChainId */\n      0x60\n      add\n      mload\n        /* \"contracts/AllBridge.sol\":1549:1554  input */\n      dup9\n        /* \"contracts/AllBridge.sol\":1549:1574  input.receiveTokenAddress */\n      0x80\n      add\n      mload\n        /* \"contracts/AllBridge.sol\":1592:1597  input */\n      dup10\n        /* \"contracts/AllBridge.sol\":1592:1603  input.nonce */\n      0xa0\n      add\n      mload\n        /* \"contracts/AllBridge.sol\":1621:1626  input */\n      dup11\n        /* \"contracts/AllBridge.sol\":1621:1636  input.messenger */\n      0xc0\n      add\n      mload\n        /* \"contracts/AllBridge.sol\":1339:1637  IAllBridge(input.bridge).swapAndBridge{value:msg.value}(... */\n      mload(0x40)\n      dup10\n      0xffffffff\n      and\n      0xe0\n      shl\n      dup2\n      mstore\n      0x04\n      add\n      tag_40\n      swap8\n      swap7\n      swap6\n      swap5\n      swap4\n      swap3\n      swap2\n      swap1\n      tag_41\n      jump\t// in\n    tag_40:\n      0x00\n      mload(0x40)\n      dup1\n      dup4\n      sub\n      dup2\n      dup6\n      dup9\n      dup1\n      extcodesize\n      iszero\n      dup1\n      iszero\n      tag_42\n      jumpi\n      0x00\n      dup1\n      revert\n    tag_42:\n      pop\n      gas\n      call\n      iszero\n      dup1\n      iszero\n      tag_44\n      jumpi\n      returndatasize\n      0x00\n      dup1\n      returndatacopy\n      revert(0x00, returndatasize)\n    tag_44:\n      pop\n      pop\n      pop\n      pop\n      pop\n        /* \"contracts/AllBridge.sol\":1075:1644  {... */\n      pop\n      pop\n        /* \"contracts/AllBridge.sol\":1009:1644  function Bridge(bytes calldata data,uint amountIn) public payable {... */\n      pop\n      pop\n      pop\n      jump\t// out\n        /* \"@openzeppelin/contracts/access/Ownable.sol\":1831:1932  function renounceOwnership() public virtual onlyOwner {... */\n    tag_18:\n        /* \"@openzeppelin/contracts/access/Ownable.sol\":1094:1107  _checkOwner() */\n      tag_46\n        /* \"@openzeppelin/contracts/access/Ownable.sol\":1094:1105  _checkOwner */\n      tag_31\n        /* \"@openzeppelin/contracts/access/Ownable.sol\":1094:1107  _checkOwner() */\n      jump\t// in\n    tag_46:\n        /* \"@openzeppelin/contracts/access/Ownable.sol\":1895:1925  _transferOwnership(address(0)) */\n      tag_48\n        /* \"@openzeppelin/contracts/access/Ownable.sol\":1922:1923  0 */\n      0x00\n        /* \"@openzeppelin/contracts/access/Ownable.sol\":1895:1913  _transferOwnership */\n      tag_49\n        /* \"@openzeppelin/contracts/access/Ownable.sol\":1895:1925  _transferOwnership(address(0)) */\n      jump\t// in\n    tag_48:\n        /* \"@openzeppelin/contracts/access/Ownable.sol\":1831:1932  function renounceOwnership() public virtual onlyOwner {... */\n      jump\t// out\n        /* \"@openzeppelin/contracts/access/Ownable.sol\":1201:1286  function owner() public view virtual returns (address) {... */\n    tag_21:\n        /* \"@openzeppelin/contracts/access/Ownable.sol\":1247:1254  address */\n      0x00\n        /* \"@openzeppelin/contracts/access/Ownable.sol\":1273:1279  _owner */\n      dup1\n      0x00\n      swap1\n      sload\n      swap1\n      0x0100\n      exp\n      swap1\n      div\n      0xffffffffffffffffffffffffffffffffffffffff\n      and\n        /* \"@openzeppelin/contracts/access/Ownable.sol\":1266:1279  return _owner */\n      swap1\n      pop\n        /* \"@openzeppelin/contracts/access/Ownable.sol\":1201:1286  function owner() public view virtual returns (address) {... */\n      swap1\n      jump\t// out\n        /* \"@openzeppelin/contracts/access/Ownable.sol\":2081:2279  function transferOwnership(address newOwner) public virtual onlyOwner {... */\n    tag_28:\n        /* \"@openzeppelin/contracts/access/Ownable.sol\":1094:1107  _checkOwner() */\n      tag_52\n        /* \"@openzeppelin/contracts/access/Ownable.sol\":1094:1105  _checkOwner */\n      tag_31\n        /* \"@openzeppelin/contracts/access/Ownable.sol\":1094:1107  _checkOwner() */\n      jump\t// in\n    tag_52:\n        /* \"@openzeppelin/contracts/access/Ownable.sol\":2189:2190  0 */\n      0x00\n        /* \"@openzeppelin/contracts/access/Ownable.sol\":2169:2191  newOwner != address(0) */\n      0xffffffffffffffffffffffffffffffffffffffff\n      and\n        /* \"@openzeppelin/contracts/access/Ownable.sol\":2169:2177  newOwner */\n      dup2\n        /* \"@openzeppelin/contracts/access/Ownable.sol\":2169:2191  newOwner != address(0) */\n      0xffffffffffffffffffffffffffffffffffffffff\n      and\n      sub\n        /* \"@openzeppelin/contracts/access/Ownable.sol\":2161:2234  require(newOwner != address(0), \"Ownable: new owner is the zero address\") */\n      tag_54\n      jumpi\n      mload(0x40)\n      0x08c379a000000000000000000000000000000000000000000000000000000000\n      dup2\n      mstore\n      0x04\n      add\n      tag_55\n      swap1\n      tag_56\n      jump\t// in\n    tag_55:\n      mload(0x40)\n      dup1\n      swap2\n      sub\n      swap1\n      revert\n    tag_54:\n        /* \"@openzeppelin/contracts/access/Ownable.sol\":2244:2272  _transferOwnership(newOwner) */\n      tag_57\n        /* \"@openzeppelin/contracts/access/Ownable.sol\":2263:2271  newOwner */\n      dup2\n        /* \"@openzeppelin/contracts/access/Ownable.sol\":2244:2262  _transferOwnership */\n      tag_49\n        /* \"@openzeppelin/contracts/access/Ownable.sol\":2244:2272  _transferOwnership(newOwner) */\n      jump\t// in\n    tag_57:\n        /* \"@openzeppelin/contracts/access/Ownable.sol\":2081:2279  function transferOwnership(address newOwner) public virtual onlyOwner {... */\n      pop\n      jump\t// out\n        /* \"@openzeppelin/contracts/access/Ownable.sol\":1359:1489  function _checkOwner() internal view virtual {... */\n    tag_31:\n        /* \"@openzeppelin/contracts/access/Ownable.sol\":1433:1445  _msgSender() */\n      tag_59\n        /* \"@openzeppelin/contracts/access/Ownable.sol\":1433:1443  _msgSender */\n      tag_60\n        /* \"@openzeppelin/contracts/access/Ownable.sol\":1433:1445  _msgSender() */\n      jump\t// in\n    tag_59:\n        /* \"@openzeppelin/contracts/access/Ownable.sol\":1422:1445  owner() == _msgSender() */\n      0xffffffffffffffffffffffffffffffffffffffff\n      and\n        /* \"@openzeppelin/contracts/access/Ownable.sol\":1422:1429  owner() */\n      tag_61\n        /* \"@openzeppelin/contracts/access/Ownable.sol\":1422:1427  owner */\n      tag_21\n        /* \"@openzeppelin/contracts/access/Ownable.sol\":1422:1429  owner() */\n      jump\t// in\n    tag_61:\n        /* \"@openzeppelin/contracts/access/Ownable.sol\":1422:1445  owner() == _msgSender() */\n      0xffffffffffffffffffffffffffffffffffffffff\n      and\n      eq\n        /* \"@openzeppelin/contracts/access/Ownable.sol\":1414:1482  require(owner() == _msgSender(), \"Ownable: caller is not the owner\") */\n      tag_62\n      jumpi\n      mload(0x40)\n      0x08c379a000000000000000000000000000000000000000000000000000000000\n      dup2\n      mstore\n      0x04\n      add\n      tag_63\n      swap1\n      tag_64\n      jump\t// in\n    tag_63:\n      mload(0x40)\n      dup1\n      swap2\n      sub\n      swap1\n      revert\n    tag_62:\n        /* \"@openzeppelin/contracts/access/Ownable.sol\":1359:1489  function _checkOwner() internal view virtual {... */\n      jump\t// out\n        /* \"contracts/libraries/transferHelper.sol\":212:629  function safeApprove(... */\n    tag_34:\n        /* \"contracts/libraries/transferHelper.sol\":390:402  bool success */\n      0x00\n        /* \"contracts/libraries/transferHelper.sol\":404:421  bytes memory data */\n      dup1\n        /* \"contracts/libraries/transferHelper.sol\":425:430  token */\n      dup5\n        /* \"contracts/libraries/transferHelper.sol\":425:435  token.call */\n      0xffffffffffffffffffffffffffffffffffffffff\n      and\n        /* \"contracts/libraries/transferHelper.sol\":459:469  0x095ea7b3 */\n      0x095ea7b3\n        /* \"contracts/libraries/transferHelper.sol\":471:473  to */\n      dup6\n        /* \"contracts/libraries/transferHelper.sol\":475:480  value */\n      dup6\n        /* \"contracts/libraries/transferHelper.sol\":436:481  abi.encodeWithSelector(0x095ea7b3, to, value) */\n      add(0x24, mload(0x40))\n      tag_66\n      swap3\n      swap2\n      swap1\n      tag_67\n      jump\t// in\n    tag_66:\n      mload(0x40)\n      0x20\n      dup2\n      dup4\n      sub\n      sub\n      dup2\n      mstore\n      swap1\n      0x40\n      mstore\n      swap1\n      0xe0\n      shl\n      0x20\n      dup3\n      add\n      dup1\n      mload\n      0xffffffffffffffffffffffffffffffffffffffffffffffffffffffff\n      dup4\n      dup2\n      dup4\n      and\n      or\n      dup4\n      mstore\n      pop\n      pop\n      pop\n      pop\n        /* \"contracts/libraries/transferHelper.sol\":425:482  token.call(abi.encodeWithSelector(0x095ea7b3, to, value)) */\n      mload(0x40)\n      tag_68\n      swap2\n      swap1\n      tag_69\n      jump\t// in\n    tag_68:\n      0x00\n      mload(0x40)\n      dup1\n      dup4\n      sub\n      dup2\n      0x00\n      dup7\n      gas\n      call\n      swap2\n      pop\n      pop\n      returndatasize\n      dup1\n      0x00\n      dup2\n      eq\n      tag_72\n      jumpi\n      mload(0x40)\n      swap2\n      pop\n      and(add(returndatasize, 0x3f), not(0x1f))\n      dup3\n      add\n      0x40\n      mstore\n      returndatasize\n      dup3\n      mstore\n      returndatasize\n      0x00\n      0x20\n      dup5\n      add\n      returndatacopy\n      jump(tag_71)\n    tag_72:\n      0x60\n      swap2\n      pop\n    tag_71:\n      pop\n        /* \"contracts/libraries/transferHelper.sol\":389:482  (bool success, bytes memory data) = token.call(abi.encodeWithSelector(0x095ea7b3, to, value)) */\n      swap2\n      pop\n      swap2\n      pop\n        /* \"contracts/libraries/transferHelper.sol\":513:520  success */\n      dup2\n        /* \"contracts/libraries/transferHelper.sol\":513:570  success && (data.length == 0 || abi.decode(data, (bool))) */\n      dup1\n      iszero\n      tag_73\n      jumpi\n      pop\n        /* \"contracts/libraries/transferHelper.sol\":540:541  0 */\n      0x00\n        /* \"contracts/libraries/transferHelper.sol\":525:529  data */\n      dup2\n        /* \"contracts/libraries/transferHelper.sol\":525:536  data.length */\n      mload\n        /* \"contracts/libraries/transferHelper.sol\":525:541  data.length == 0 */\n      eq\n        /* \"contracts/libraries/transferHelper.sol\":525:569  data.length == 0 || abi.decode(data, (bool)) */\n      dup1\n      tag_74\n      jumpi\n      pop\n        /* \"contracts/libraries/transferHelper.sol\":556:560  data */\n      dup1\n        /* \"contracts/libraries/transferHelper.sol\":545:569  abi.decode(data, (bool)) */\n      dup1\n      0x20\n      add\n      swap1\n      mload\n      dup2\n      add\n      swap1\n      tag_75\n      swap2\n      swap1\n      tag_76\n      jump\t// in\n    tag_75:\n        /* \"contracts/libraries/transferHelper.sol\":525:569  data.length == 0 || abi.decode(data, (bool)) */\n    tag_74:\n        /* \"contracts/libraries/transferHelper.sol\":513:570  success && (data.length == 0 || abi.decode(data, (bool))) */\n    tag_73:\n        /* \"contracts/libraries/transferHelper.sol\":492:622  require(... */\n      tag_77\n      jumpi\n      mload(0x40)\n      0x08c379a000000000000000000000000000000000000000000000000000000000\n      dup2\n      mstore\n      0x04\n      add\n      tag_78\n      swap1\n      tag_79\n      jump\t// in\n    tag_78:\n      mload(0x40)\n      dup1\n      swap2\n      sub\n      swap1\n      revert\n    tag_77:\n        /* \"contracts/libraries/transferHelper.sol\":314:629  {... */\n      pop\n      pop\n        /* \"contracts/libraries/transferHelper.sol\":212:629  function safeApprove(... */\n      pop\n      pop\n      pop\n      jump\t// out\n        /* \"contracts/libraries/transferHelper.sol\":1061:1529  function safeTransferFrom(... */\n    tag_39:\n        /* \"contracts/libraries/transferHelper.sol\":1279:1291  bool success */\n      0x00\n        /* \"contracts/libraries/transferHelper.sol\":1293:1310  bytes memory data */\n      dup1\n        /* \"contracts/libraries/transferHelper.sol\":1314:1319  token */\n      dup6\n        /* \"contracts/libraries/transferHelper.sol\":1314:1324  token.call */\n      0xffffffffffffffffffffffffffffffffffffffff\n      and\n        /* \"contracts/libraries/transferHelper.sol\":1348:1358  0x23b872dd */\n      0x23b872dd\n        /* \"contracts/libraries/transferHelper.sol\":1360:1364  from */\n      dup7\n        /* \"contracts/libraries/transferHelper.sol\":1366:1368  to */\n      dup7\n        /* \"contracts/libraries/transferHelper.sol\":1370:1375  value */\n      dup7\n        /* \"contracts/libraries/transferHelper.sol\":1325:1376  abi.encodeWithSelector(0x23b872dd, from, to, value) */\n      add(0x24, mload(0x40))\n      tag_81\n      swap4\n      swap3\n      swap2\n      swap1\n      tag_82\n      jump\t// in\n    tag_81:\n      mload(0x40)\n      0x20\n      dup2\n      dup4\n      sub\n      sub\n      dup2\n      mstore\n      swap1\n      0x40\n      mstore\n      swap1\n      0xe0\n      shl\n      0x20\n      dup3\n      add\n      dup1\n      mload\n      0xffffffffffffffffffffffffffffffffffffffffffffffffffffffff\n      dup4\n      dup2\n      dup4\n      and\n      or\n      dup4\n      mstore\n      pop\n      pop\n      pop\n      pop\n        /* \"contracts/libraries/transferHelper.sol\":1314:1377  token.call(abi.encodeWithSelector(0x23b872dd, from, to, value)) */\n      mload(0x40)\n      tag_83\n      swap2\n      swap1\n      tag_69\n      jump\t// in\n    tag_83:\n      0x00\n      mload(0x40)\n      dup1\n      dup4\n      sub\n      dup2\n      0x00\n      dup7\n      gas\n      call\n      swap2\n      pop\n      pop\n      returndatasize\n      dup1\n      0x00\n      dup2\n      eq\n      tag_86\n      jumpi\n      mload(0x40)\n      swap2\n      pop\n      and(add(returndatasize, 0x3f), not(0x1f))\n      dup3\n      add\n      0x40\n      mstore\n      returndatasize\n      dup3\n      mstore\n      returndatasize\n      0x00\n      0x20\n      dup5\n      add\n      returndatacopy\n      jump(tag_85)\n    tag_86:\n      0x60\n      swap2\n      pop\n    tag_85:\n      pop\n        /* \"contracts/libraries/transferHelper.sol\":1278:1377  (bool success, bytes memory data) = token.call(abi.encodeWithSelector(0x23b872dd, from, to, value)) */\n      swap2\n      pop\n      swap2\n      pop\n        /* \"contracts/libraries/transferHelper.sol\":1408:1415  success */\n      dup2\n        /* \"contracts/libraries/transferHelper.sol\":1408:1465  success && (data.length == 0 || abi.decode(data, (bool))) */\n      dup1\n      iszero\n      tag_87\n      jumpi\n      pop\n        /* \"contracts/libraries/transferHelper.sol\":1435:1436  0 */\n      0x00\n        /* \"contracts/libraries/transferHelper.sol\":1420:1424  data */\n      dup2\n        /* \"contracts/libraries/transferHelper.sol\":1420:1431  data.length */\n      mload\n        /* \"contracts/libraries/transferHelper.sol\":1420:1436  data.length == 0 */\n      eq\n        /* \"contracts/libraries/transferHelper.sol\":1420:1464  data.length == 0 || abi.decode(data, (bool)) */\n      dup1\n      tag_88\n      jumpi\n      pop\n        /* \"contracts/libraries/transferHelper.sol\":1451:1455  data */\n      dup1\n        /* \"contracts/libraries/transferHelper.sol\":1440:1464  abi.decode(data, (bool)) */\n      dup1\n      0x20\n      add\n      swap1\n      mload\n      dup2\n      add\n      swap1\n      tag_89\n      swap2\n      swap1\n      tag_76\n      jump\t// in\n    tag_89:\n        /* \"contracts/libraries/transferHelper.sol\":1420:1464  data.length == 0 || abi.decode(data, (bool)) */\n    tag_88:\n        /* \"contracts/libraries/transferHelper.sol\":1408:1465  success && (data.length == 0 || abi.decode(data, (bool))) */\n    tag_87:\n        /* \"contracts/libraries/transferHelper.sol\":1387:1522  require(... */\n      tag_90\n      jumpi\n      mload(0x40)\n      0x08c379a000000000000000000000000000000000000000000000000000000000\n      dup2\n      mstore\n      0x04\n      add\n      tag_91\n      swap1\n      tag_92\n      jump\t// in\n    tag_91:\n      mload(0x40)\n      dup1\n      swap2\n      sub\n      swap1\n      revert\n    tag_90:\n        /* \"contracts/libraries/transferHelper.sol\":1190:1529  {... */\n      pop\n      pop\n        /* \"contracts/libraries/transferHelper.sol\":1061:1529  function safeTransferFrom(... */\n      pop\n      pop\n      pop\n      pop\n      jump\t// out\n        /* \"@openzeppelin/contracts/access/Ownable.sol\":2433:2620  function _transferOwnership(address newOwner) internal virtual {... */\n    tag_49:\n        /* \"@openzeppelin/contracts/access/Ownable.sol\":2506:2522  address oldOwner */\n      0x00\n        /* \"@openzeppelin/contracts/access/Ownable.sol\":2525:2531  _owner */\n      dup1\n      0x00\n      swap1\n      sload\n      swap1\n      0x0100\n      exp\n      swap1\n      div\n      0xffffffffffffffffffffffffffffffffffffffff\n      and\n        /* \"@openzeppelin/contracts/access/Ownable.sol\":2506:2531  address oldOwner = _owner */\n      swap1\n      pop\n        /* \"@openzeppelin/contracts/access/Ownable.sol\":2550:2558  newOwner */\n      dup2\n        /* \"@openzeppelin/contracts/access/Ownable.sol\":2541:2547  _owner */\n      0x00\n      dup1\n        /* \"@openzeppelin/contracts/access/Ownable.sol\":2541:2558  _owner = newOwner */\n      0x0100\n      exp\n      dup2\n      sload\n      dup2\n      0xffffffffffffffffffffffffffffffffffffffff\n      mul\n      not\n      and\n      swap1\n      dup4\n      0xffffffffffffffffffffffffffffffffffffffff\n      and\n      mul\n      or\n      swap1\n      sstore\n      pop\n        /* \"@openzeppelin/contracts/access/Ownable.sol\":2604:2612  newOwner */\n      dup2\n        /* \"@openzeppelin/contracts/access/Ownable.sol\":2573:2613  OwnershipTransferred(oldOwner, newOwner) */\n      0xffffffffffffffffffffffffffffffffffffffff\n      and\n        /* \"@openzeppelin/contracts/access/Ownable.sol\":2594:2602  oldOwner */\n      dup2\n        /* \"@openzeppelin/contracts/access/Ownable.sol\":2573:2613  OwnershipTransferred(oldOwner, newOwner) */\n      0xffffffffffffffffffffffffffffffffffffffff\n      and\n      0x8be0079c531659141344cd1fd0a4f28419497f9722a3daafe3b4186f6b6457e0\n      mload(0x40)\n      mload(0x40)\n      dup1\n      swap2\n      sub\n      swap1\n      log3\n        /* \"@openzeppelin/contracts/access/Ownable.sol\":2496:2620  {... */\n      pop\n        /* \"@openzeppelin/contracts/access/Ownable.sol\":2433:2620  function _transferOwnership(address newOwner) internal virtual {... */\n      pop\n      jump\t// out\n        /* \"@openzeppelin/contracts/utils/Context.sol\":640:736  function _msgSender() internal view virtual returns (address) {... */\n    tag_60:\n        /* \"@openzeppelin/contracts/utils/Context.sol\":693:700  address */\n      0x00\n        /* \"@openzeppelin/contracts/utils/Context.sol\":719:729  msg.sender */\n      caller\n        /* \"@openzeppelin/contracts/utils/Context.sol\":712:729  return msg.sender */\n      swap1\n      pop\n        /* \"@openzeppelin/contracts/utils/Context.sol\":640:736  function _msgSender() internal view virtual returns (address) {... */\n      swap1\n      jump\t// out\n        /* \"#utility.yul\":7:82   */\n    tag_95:\n        /* \"#utility.yul\":40:46   */\n      0x00\n        /* \"#utility.yul\":73:75   */\n      0x40\n        /* \"#utility.yul\":67:76   */\n      mload\n        /* \"#utility.yul\":57:76   */\n      swap1\n      pop\n        /* \"#utility.yul\":7:82   */\n      swap1\n      jump\t// out\n        /* \"#utility.yul\":88:205   */\n    tag_96:\n        /* \"#utility.yul\":197:198   */\n      0x00\n        /* \"#utility.yul\":194:195   */\n      dup1\n        /* \"#utility.yul\":187:199   */\n      revert\n        /* \"#utility.yul\":211:328   */\n    tag_97:\n        /* \"#utility.yul\":320:321   */\n      0x00\n        /* \"#utility.yul\":317:318   */\n      dup1\n        /* \"#utility.yul\":310:322   */\n      revert\n        /* \"#utility.yul\":334:460   */\n    tag_98:\n        /* \"#utility.yul\":371:378   */\n      0x00\n        /* \"#utility.yul\":411:453   */\n      0xffffffffffffffffffffffffffffffffffffffff\n        /* \"#utility.yul\":404:409   */\n      dup3\n        /* \"#utility.yul\":400:454   */\n      and\n        /* \"#utility.yul\":389:454   */\n      swap1\n      pop\n        /* \"#utility.yul\":334:460   */\n      swap2\n      swap1\n      pop\n      jump\t// out\n        /* \"#utility.yul\":466:562   */\n    tag_99:\n        /* \"#utility.yul\":503:510   */\n      0x00\n        /* \"#utility.yul\":532:556   */\n      tag_155\n        /* \"#utility.yul\":550:555   */\n      dup3\n        /* \"#utility.yul\":532:556   */\n      tag_98\n      jump\t// in\n    tag_155:\n        /* \"#utility.yul\":521:556   */\n      swap1\n      pop\n        /* \"#utility.yul\":466:562   */\n      swap2\n      swap1\n      pop\n      jump\t// out\n        /* \"#utility.yul\":568:690   */\n    tag_100:\n        /* \"#utility.yul\":641:665   */\n      tag_157\n        /* \"#utility.yul\":659:664   */\n      dup2\n        /* \"#utility.yul\":641:665   */\n      tag_99\n      jump\t// in\n    tag_157:\n        /* \"#utility.yul\":634:639   */\n      dup2\n        /* \"#utility.yul\":631:666   */\n      eq\n        /* \"#utility.yul\":621:684   */\n      tag_158\n      jumpi\n        /* \"#utility.yul\":680:681   */\n      0x00\n        /* \"#utility.yul\":677:678   */\n      dup1\n        /* \"#utility.yul\":670:682   */\n      revert\n        /* \"#utility.yul\":621:684   */\n    tag_158:\n        /* \"#utility.yul\":568:690   */\n      pop\n      jump\t// out\n        /* \"#utility.yul\":696:835   */\n    tag_101:\n        /* \"#utility.yul\":742:747   */\n      0x00\n        /* \"#utility.yul\":780:786   */\n      dup2\n        /* \"#utility.yul\":767:787   */\n      calldataload\n        /* \"#utility.yul\":758:787   */\n      swap1\n      pop\n        /* \"#utility.yul\":796:829   */\n      tag_160\n        /* \"#utility.yul\":823:828   */\n      dup2\n        /* \"#utility.yul\":796:829   */\n      tag_100\n      jump\t// in\n    tag_160:\n        /* \"#utility.yul\":696:835   */\n      swap3\n      swap2\n      pop\n      pop\n      jump\t// out\n        /* \"#utility.yul\":841:1315   */\n    tag_10:\n        /* \"#utility.yul\":909:915   */\n      0x00\n        /* \"#utility.yul\":917:923   */\n      dup1\n        /* \"#utility.yul\":966:968   */\n      0x40\n        /* \"#utility.yul\":954:963   */\n      dup4\n        /* \"#utility.yul\":945:952   */\n      dup6\n        /* \"#utility.yul\":941:964   */\n      sub\n        /* \"#utility.yul\":937:969   */\n      slt\n        /* \"#utility.yul\":934:1053   */\n      iszero\n      tag_162\n      jumpi\n        /* \"#utility.yul\":972:1051   */\n      tag_163\n      tag_96\n      jump\t// in\n    tag_163:\n        /* \"#utility.yul\":934:1053   */\n    tag_162:\n        /* \"#utility.yul\":1092:1093   */\n      0x00\n        /* \"#utility.yul\":1117:1170   */\n      tag_164\n        /* \"#utility.yul\":1162:1169   */\n      dup6\n        /* \"#utility.yul\":1153:1159   */\n      dup3\n        /* \"#utility.yul\":1142:1151   */\n      dup7\n        /* \"#utility.yul\":1138:1160   */\n      add\n        /* \"#utility.yul\":1117:1170   */\n      tag_101\n      jump\t// in\n    tag_164:\n        /* \"#utility.yul\":1107:1170   */\n      swap3\n      pop\n        /* \"#utility.yul\":1063:1180   */\n      pop\n        /* \"#utility.yul\":1219:1221   */\n      0x20\n        /* \"#utility.yul\":1245:1298   */\n      tag_165\n        /* \"#utility.yul\":1290:1297   */\n      dup6\n        /* \"#utility.yul\":1281:1287   */\n      dup3\n        /* \"#utility.yul\":1270:1279   */\n      dup7\n        /* \"#utility.yul\":1266:1288   */\n      add\n        /* \"#utility.yul\":1245:1298   */\n      tag_101\n      jump\t// in\n    tag_165:\n        /* \"#utility.yul\":1235:1298   */\n      swap2\n      pop\n        /* \"#utility.yul\":1190:1308   */\n      pop\n        /* \"#utility.yul\":841:1315   */\n      swap3\n      pop\n      swap3\n      swap1\n      pop\n      jump\t// out\n        /* \"#utility.yul\":1321:1438   */\n    tag_102:\n        /* \"#utility.yul\":1430:1431   */\n      0x00\n        /* \"#utility.yul\":1427:1428   */\n      dup1\n        /* \"#utility.yul\":1420:1432   */\n      revert\n        /* \"#utility.yul\":1444:1561   */\n    tag_103:\n        /* \"#utility.yul\":1553:1554   */\n      0x00\n        /* \"#utility.yul\":1550:1551   */\n      dup1\n        /* \"#utility.yul\":1543:1555   */\n      revert\n        /* \"#utility.yul\":1567:1684   */\n    tag_104:\n        /* \"#utility.yul\":1676:1677   */\n      0x00\n        /* \"#utility.yul\":1673:1674   */\n      dup1\n        /* \"#utility.yul\":1666:1678   */\n      revert\n        /* \"#utility.yul\":1703:2255   */\n    tag_105:\n        /* \"#utility.yul\":1760:1768   */\n      0x00\n        /* \"#utility.yul\":1770:1776   */\n      dup1\n        /* \"#utility.yul\":1820:1823   */\n      dup4\n        /* \"#utility.yul\":1813:1817   */\n      0x1f\n        /* \"#utility.yul\":1805:1811   */\n      dup5\n        /* \"#utility.yul\":1801:1818   */\n      add\n        /* \"#utility.yul\":1797:1824   */\n      slt\n        /* \"#utility.yul\":1787:1909   */\n      tag_170\n      jumpi\n        /* \"#utility.yul\":1828:1907   */\n      tag_171\n      tag_102\n      jump\t// in\n    tag_171:\n        /* \"#utility.yul\":1787:1909   */\n    tag_170:\n        /* \"#utility.yul\":1941:1947   */\n      dup3\n        /* \"#utility.yul\":1928:1948   */\n      calldataload\n        /* \"#utility.yul\":1918:1948   */\n      swap1\n      pop\n        /* \"#utility.yul\":1971:1989   */\n      0xffffffffffffffff\n        /* \"#utility.yul\":1963:1969   */\n      dup2\n        /* \"#utility.yul\":1960:1990   */\n      gt\n        /* \"#utility.yul\":1957:2074   */\n      iszero\n      tag_172\n      jumpi\n        /* \"#utility.yul\":1993:2072   */\n      tag_173\n      tag_103\n      jump\t// in\n    tag_173:\n        /* \"#utility.yul\":1957:2074   */\n    tag_172:\n        /* \"#utility.yul\":2107:2111   */\n      0x20\n        /* \"#utility.yul\":2099:2105   */\n      dup4\n        /* \"#utility.yul\":2095:2112   */\n      add\n        /* \"#utility.yul\":2083:2112   */\n      swap2\n      pop\n        /* \"#utility.yul\":2161:2164   */\n      dup4\n        /* \"#utility.yul\":2153:2157   */\n      0x01\n        /* \"#utility.yul\":2145:2151   */\n      dup3\n        /* \"#utility.yul\":2141:2158   */\n      mul\n        /* \"#utility.yul\":2131:2139   */\n      dup4\n        /* \"#utility.yul\":2127:2159   */\n      add\n        /* \"#utility.yul\":2124:2165   */\n      gt\n        /* \"#utility.yul\":2121:2249   */\n      iszero\n      tag_174\n      jumpi\n        /* \"#utility.yul\":2168:2247   */\n      tag_175\n      tag_104\n      jump\t// in\n    tag_175:\n        /* \"#utility.yul\":2121:2249   */\n    tag_174:\n        /* \"#utility.yul\":1703:2255   */\n      swap3\n      pop\n      swap3\n      swap1\n      pop\n      jump\t// out\n        /* \"#utility.yul\":2261:2338   */\n    tag_106:\n        /* \"#utility.yul\":2298:2305   */\n      0x00\n        /* \"#utility.yul\":2327:2332   */\n      dup2\n        /* \"#utility.yul\":2316:2332   */\n      swap1\n      pop\n        /* \"#utility.yul\":2261:2338   */\n      swap2\n      swap1\n      pop\n      jump\t// out\n        /* \"#utility.yul\":2344:2466   */\n    tag_107:\n        /* \"#utility.yul\":2417:2441   */\n      tag_178\n        /* \"#utility.yul\":2435:2440   */\n      dup2\n        /* \"#utility.yul\":2417:2441   */\n      tag_106\n      jump\t// in\n    tag_178:\n        /* \"#utility.yul\":2410:2415   */\n      dup2\n        /* \"#utility.yul\":2407:2442   */\n      eq\n        /* \"#utility.yul\":2397:2460   */\n      tag_179\n      jumpi\n        /* \"#utility.yul\":2456:2457   */\n      0x00\n        /* \"#utility.yul\":2453:2454   */\n      dup1\n        /* \"#utility.yul\":2446:2458   */\n      revert\n        /* \"#utility.yul\":2397:2460   */\n    tag_179:\n        /* \"#utility.yul\":2344:2466   */\n      pop\n      jump\t// out\n        /* \"#utility.yul\":2472:2611   */\n    tag_108:\n        /* \"#utility.yul\":2518:2523   */\n      0x00\n        /* \"#utility.yul\":2556:2562   */\n      dup2\n        /* \"#utility.yul\":2543:2563   */\n      calldataload\n        /* \"#utility.yul\":2534:2563   */\n      swap1\n      pop\n        /* \"#utility.yul\":2572:2605   */\n      tag_181\n        /* \"#utility.yul\":2599:2604   */\n      dup2\n        /* \"#utility.yul\":2572:2605   */\n      tag_107\n      jump\t// in\n    tag_181:\n        /* \"#utility.yul\":2472:2611   */\n      swap3\n      swap2\n      pop\n      pop\n      jump\t// out\n        /* \"#utility.yul\":2617:3289   */\n    tag_14:\n        /* \"#utility.yul\":2696:2702   */\n      0x00\n        /* \"#utility.yul\":2704:2710   */\n      dup1\n        /* \"#utility.yul\":2712:2718   */\n      0x00\n        /* \"#utility.yul\":2761:2763   */\n      0x40\n        /* \"#utility.yul\":2749:2758   */\n      dup5\n        /* \"#utility.yul\":2740:2747   */\n      dup7\n        /* \"#utility.yul\":2736:2759   */\n      sub\n        /* \"#utility.yul\":2732:2764   */\n      slt\n        /* \"#utility.yul\":2729:2848   */\n      iszero\n      tag_183\n      jumpi\n        /* \"#utility.yul\":2767:2846   */\n      tag_184\n      tag_96\n      jump\t// in\n    tag_184:\n        /* \"#utility.yul\":2729:2848   */\n    tag_183:\n        /* \"#utility.yul\":2915:2916   */\n      0x00\n        /* \"#utility.yul\":2904:2913   */\n      dup5\n        /* \"#utility.yul\":2900:2917   */\n      add\n        /* \"#utility.yul\":2887:2918   */\n      calldataload\n        /* \"#utility.yul\":2945:2963   */\n      0xffffffffffffffff\n        /* \"#utility.yul\":2937:2943   */\n      dup2\n        /* \"#utility.yul\":2934:2964   */\n      gt\n        /* \"#utility.yul\":2931:3048   */\n      iszero\n      tag_185\n      jumpi\n        /* \"#utility.yul\":2967:3046   */\n      tag_186\n      tag_97\n      jump\t// in\n    tag_186:\n        /* \"#utility.yul\":2931:3048   */\n    tag_185:\n        /* \"#utility.yul\":3080:3144   */\n      tag_187\n        /* \"#utility.yul\":3136:3143   */\n      dup7\n        /* \"#utility.yul\":3127:3133   */\n      dup3\n        /* \"#utility.yul\":3116:3125   */\n      dup8\n        /* \"#utility.yul\":3112:3134   */\n      add\n        /* \"#utility.yul\":3080:3144   */\n      tag_105\n      jump\t// in\n    tag_187:\n        /* \"#utility.yul\":3062:3144   */\n      swap4\n      pop\n      swap4\n      pop\n        /* \"#utility.yul\":2858:3154   */\n      pop\n        /* \"#utility.yul\":3193:3195   */\n      0x20\n        /* \"#utility.yul\":3219:3272   */\n      tag_188\n        /* \"#utility.yul\":3264:3271   */\n      dup7\n        /* \"#utility.yul\":3255:3261   */\n      dup3\n        /* \"#utility.yul\":3244:3253   */\n      dup8\n        /* \"#utility.yul\":3240:3262   */\n      add\n        /* \"#utility.yul\":3219:3272   */\n      tag_108\n      jump\t// in\n    tag_188:\n        /* \"#utility.yul\":3209:3272   */\n      swap2\n      pop\n        /* \"#utility.yul\":3164:3282   */\n      pop\n        /* \"#utility.yul\":2617:3289   */\n      swap3\n      pop\n      swap3\n      pop\n      swap3\n      jump\t// out\n        /* \"#utility.yul\":3295:3413   */\n    tag_109:\n        /* \"#utility.yul\":3382:3406   */\n      tag_190\n        /* \"#utility.yul\":3400:3405   */\n      dup2\n        /* \"#utility.yul\":3382:3406   */\n      tag_99\n      jump\t// in\n    tag_190:\n        /* \"#utility.yul\":3377:3380   */\n      dup3\n        /* \"#utility.yul\":3370:3407   */\n      mstore\n        /* \"#utility.yul\":3295:3413   */\n      pop\n      pop\n      jump\t// out\n        /* \"#utility.yul\":3419:3641   */\n    tag_23:\n        /* \"#utility.yul\":3512:3516   */\n      0x00\n        /* \"#utility.yul\":3550:3552   */\n      0x20\n        /* \"#utility.yul\":3539:3548   */\n      dup3\n        /* \"#utility.yul\":3535:3553   */\n      add\n        /* \"#utility.yul\":3527:3553   */\n      swap1\n      pop\n        /* \"#utility.yul\":3563:3634   */\n      tag_192\n        /* \"#utility.yul\":3631:3632   */\n      0x00\n        /* \"#utility.yul\":3620:3629   */\n      dup4\n        /* \"#utility.yul\":3616:3633   */\n      add\n        /* \"#utility.yul\":3607:3613   */\n      dup5\n        /* \"#utility.yul\":3563:3634   */\n      tag_109\n      jump\t// in\n    tag_192:\n        /* \"#utility.yul\":3419:3641   */\n      swap3\n      swap2\n      pop\n      pop\n      jump\t// out\n        /* \"#utility.yul\":3647:3976   */\n    tag_27:\n        /* \"#utility.yul\":3706:3712   */\n      0x00\n        /* \"#utility.yul\":3755:3757   */\n      0x20\n        /* \"#utility.yul\":3743:3752   */\n      dup3\n        /* \"#utility.yul\":3734:3741   */\n      dup5\n        /* \"#utility.yul\":3730:3753   */\n      sub\n        /* \"#utility.yul\":3726:3758   */\n      slt\n        /* \"#utility.yul\":3723:3842   */\n      iszero\n      tag_194\n      jumpi\n        /* \"#utility.yul\":3761:3840   */\n      tag_195\n      tag_96\n      jump\t// in\n    tag_195:\n        /* \"#utility.yul\":3723:3842   */\n    tag_194:\n        /* \"#utility.yul\":3881:3882   */\n      0x00\n        /* \"#utility.yul\":3906:3959   */\n      tag_196\n        /* \"#utility.yul\":3951:3958   */\n      dup5\n        /* \"#utility.yul\":3942:3948   */\n      dup3\n        /* \"#utility.yul\":3931:3940   */\n      dup6\n        /* \"#utility.yul\":3927:3949   */\n      add\n        /* \"#utility.yul\":3906:3959   */\n      tag_101\n      jump\t// in\n    tag_196:\n        /* \"#utility.yul\":3896:3959   */\n      swap2\n      pop\n        /* \"#utility.yul\":3852:3969   */\n      pop\n        /* \"#utility.yul\":3647:3976   */\n      swap3\n      swap2\n      pop\n      pop\n      jump\t// out\n        /* \"#utility.yul\":3982:4099   */\n    tag_110:\n        /* \"#utility.yul\":4091:4092   */\n      0x00\n        /* \"#utility.yul\":4088:4089   */\n      dup1\n        /* \"#utility.yul\":4081:4093   */\n      revert\n        /* \"#utility.yul\":4105:4207   */\n    tag_111:\n        /* \"#utility.yul\":4146:4152   */\n      0x00\n        /* \"#utility.yul\":4197:4199   */\n      0x1f\n        /* \"#utility.yul\":4193:4200   */\n      not\n        /* \"#utility.yul\":4188:4190   */\n      0x1f\n        /* \"#utility.yul\":4181:4186   */\n      dup4\n        /* \"#utility.yul\":4177:4191   */\n      add\n        /* \"#utility.yul\":4173:4201   */\n      and\n        /* \"#utility.yul\":4163:4201   */\n      swap1\n      pop\n        /* \"#utility.yul\":4105:4207   */\n      swap2\n      swap1\n      pop\n      jump\t// out\n        /* \"#utility.yul\":4213:4393   */\n    tag_112:\n        /* \"#utility.yul\":4261:4338   */\n      0x4e487b7100000000000000000000000000000000000000000000000000000000\n        /* \"#utility.yul\":4258:4259   */\n      0x00\n        /* \"#utility.yul\":4251:4339   */\n      mstore\n        /* \"#utility.yul\":4358:4362   */\n      0x41\n        /* \"#utility.yul\":4355:4356   */\n      0x04\n        /* \"#utility.yul\":4348:4363   */\n      mstore\n        /* \"#utility.yul\":4382:4386   */\n      0x24\n        /* \"#utility.yul\":4379:4380   */\n      0x00\n        /* \"#utility.yul\":4372:4387   */\n      revert\n        /* \"#utility.yul\":4399:4680   */\n    tag_113:\n        /* \"#utility.yul\":4482:4509   */\n      tag_201\n        /* \"#utility.yul\":4504:4508   */\n      dup3\n        /* \"#utility.yul\":4482:4509   */\n      tag_111\n      jump\t// in\n    tag_201:\n        /* \"#utility.yul\":4474:4480   */\n      dup2\n        /* \"#utility.yul\":4470:4510   */\n      add\n        /* \"#utility.yul\":4612:4618   */\n      dup2\n        /* \"#utility.yul\":4600:4610   */\n      dup2\n        /* \"#utility.yul\":4597:4619   */\n      lt\n        /* \"#utility.yul\":4576:4594   */\n      0xffffffffffffffff\n        /* \"#utility.yul\":4564:4574   */\n      dup3\n        /* \"#utility.yul\":4561:4595   */\n      gt\n        /* \"#utility.yul\":4558:4620   */\n      or\n        /* \"#utility.yul\":4555:4643   */\n      iszero\n      tag_202\n      jumpi\n        /* \"#utility.yul\":4623:4641   */\n      tag_203\n      tag_112\n      jump\t// in\n    tag_203:\n        /* \"#utility.yul\":4555:4643   */\n    tag_202:\n        /* \"#utility.yul\":4663:4673   */\n      dup1\n        /* \"#utility.yul\":4659:4661   */\n      0x40\n        /* \"#utility.yul\":4652:4674   */\n      mstore\n        /* \"#utility.yul\":4442:4680   */\n      pop\n        /* \"#utility.yul\":4399:4680   */\n      pop\n      pop\n      jump\t// out\n        /* \"#utility.yul\":4686:4815   */\n    tag_114:\n        /* \"#utility.yul\":4720:4726   */\n      0x00\n        /* \"#utility.yul\":4747:4767   */\n      tag_205\n      tag_95\n      jump\t// in\n    tag_205:\n        /* \"#utility.yul\":4737:4767   */\n      swap1\n      pop\n        /* \"#utility.yul\":4776:4809   */\n      tag_206\n        /* \"#utility.yul\":4804:4808   */\n      dup3\n        /* \"#utility.yul\":4796:4802   */\n      dup3\n        /* \"#utility.yul\":4776:4809   */\n      tag_113\n      jump\t// in\n    tag_206:\n        /* \"#utility.yul\":4686:4815   */\n      swap2\n      swap1\n      pop\n      jump\t// out\n        /* \"#utility.yul\":4944:5021   */\n    tag_116:\n        /* \"#utility.yul\":4981:4988   */\n      0x00\n        /* \"#utility.yul\":5010:5015   */\n      dup2\n        /* \"#utility.yul\":4999:5015   */\n      swap1\n      pop\n        /* \"#utility.yul\":4944:5021   */\n      swap2\n      swap1\n      pop\n      jump\t// out\n        /* \"#utility.yul\":5027:5149   */\n    tag_117:\n        /* \"#utility.yul\":5100:5124   */\n      tag_210\n        /* \"#utility.yul\":5118:5123   */\n      dup2\n        /* \"#utility.yul\":5100:5124   */\n      tag_116\n      jump\t// in\n    tag_210:\n        /* \"#utility.yul\":5093:5098   */\n      dup2\n        /* \"#utility.yul\":5090:5125   */\n      eq\n        /* \"#utility.yul\":5080:5143   */\n      tag_211\n      jumpi\n        /* \"#utility.yul\":5139:5140   */\n      0x00\n        /* \"#utility.yul\":5136:5137   */\n      dup1\n        /* \"#utility.yul\":5129:5141   */\n      revert\n        /* \"#utility.yul\":5080:5143   */\n    tag_211:\n        /* \"#utility.yul\":5027:5149   */\n      pop\n      jump\t// out\n        /* \"#utility.yul\":5155:5294   */\n    tag_118:\n        /* \"#utility.yul\":5201:5206   */\n      0x00\n        /* \"#utility.yul\":5239:5245   */\n      dup2\n        /* \"#utility.yul\":5226:5246   */\n      calldataload\n        /* \"#utility.yul\":5217:5246   */\n      swap1\n      pop\n        /* \"#utility.yul\":5255:5288   */\n      tag_213\n        /* \"#utility.yul\":5282:5287   */\n      dup2\n        /* \"#utility.yul\":5255:5288   */\n      tag_117\n      jump\t// in\n    tag_213:\n        /* \"#utility.yul\":5155:5294   */\n      swap3\n      swap2\n      pop\n      pop\n      jump\t// out\n        /* \"#utility.yul\":5300:5386   */\n    tag_119:\n        /* \"#utility.yul\":5335:5342   */\n      0x00\n        /* \"#utility.yul\":5375:5379   */\n      0xff\n        /* \"#utility.yul\":5368:5373   */\n      dup3\n        /* \"#utility.yul\":5364:5380   */\n      and\n        /* \"#utility.yul\":5353:5380   */\n      swap1\n      pop\n        /* \"#utility.yul\":5300:5386   */\n      swap2\n      swap1\n      pop\n      jump\t// out\n        /* \"#utility.yul\":5392:5510   */\n    tag_120:\n        /* \"#utility.yul\":5463:5485   */\n      tag_216\n        /* \"#utility.yul\":5479:5484   */\n      dup2\n        /* \"#utility.yul\":5463:5485   */\n      tag_119\n      jump\t// in\n    tag_216:\n        /* \"#utility.yul\":5456:5461   */\n      dup2\n        /* \"#utility.yul\":5453:5486   */\n      eq\n        /* \"#utility.yul\":5443:5504   */\n      tag_217\n      jumpi\n        /* \"#utility.yul\":5500:5501   */\n      0x00\n        /* \"#utility.yul\":5497:5498   */\n      dup1\n        /* \"#utility.yul\":5490:5502   */\n      revert\n        /* \"#utility.yul\":5443:5504   */\n    tag_217:\n        /* \"#utility.yul\":5392:5510   */\n      pop\n      jump\t// out\n        /* \"#utility.yul\":5516:5651   */\n    tag_121:\n        /* \"#utility.yul\":5560:5565   */\n      0x00\n        /* \"#utility.yul\":5598:5604   */\n      dup2\n        /* \"#utility.yul\":5585:5605   */\n      calldataload\n        /* \"#utility.yul\":5576:5605   */\n      swap1\n      pop\n        /* \"#utility.yul\":5614:5645   */\n      tag_219\n        /* \"#utility.yul\":5639:5644   */\n      dup2\n        /* \"#utility.yul\":5614:5645   */\n      tag_120\n      jump\t// in\n    tag_219:\n        /* \"#utility.yul\":5516:5651   */\n      swap3\n      swap2\n      pop\n      pop\n      jump\t// out\n        /* \"#utility.yul\":5657:5777   */\n    tag_122:\n        /* \"#utility.yul\":5751:5752   */\n      0x04\n        /* \"#utility.yul\":5744:5749   */\n      dup2\n        /* \"#utility.yul\":5741:5753   */\n      lt\n        /* \"#utility.yul\":5731:5771   */\n      tag_221\n      jumpi\n        /* \"#utility.yul\":5767:5768   */\n      0x00\n        /* \"#utility.yul\":5764:5765   */\n      dup1\n        /* \"#utility.yul\":5757:5769   */\n      revert\n        /* \"#utility.yul\":5731:5771   */\n    tag_221:\n        /* \"#utility.yul\":5657:5777   */\n      pop\n      jump\t// out\n        /* \"#utility.yul\":5783:5964   */\n    tag_123:\n        /* \"#utility.yul\":5850:5855   */\n      0x00\n        /* \"#utility.yul\":5888:5894   */\n      dup2\n        /* \"#utility.yul\":5875:5895   */\n      calldataload\n        /* \"#utility.yul\":5866:5895   */\n      swap1\n      pop\n        /* \"#utility.yul\":5904:5958   */\n      tag_223\n        /* \"#utility.yul\":5952:5957   */\n      dup2\n        /* \"#utility.yul\":5904:5958   */\n      tag_122\n      jump\t// in\n    tag_223:\n        /* \"#utility.yul\":5783:5964   */\n      swap3\n      swap2\n      pop\n      pop\n      jump\t// out\n        /* \"#utility.yul\":6009:7466   */\n    tag_124:\n        /* \"#utility.yul\":6089:6094   */\n      0x00\n        /* \"#utility.yul\":6133:6137   */\n      0xe0\n        /* \"#utility.yul\":6121:6130   */\n      dup3\n        /* \"#utility.yul\":6116:6119   */\n      dup5\n        /* \"#utility.yul\":6112:6131   */\n      sub\n        /* \"#utility.yul\":6108:6138   */\n      slt\n        /* \"#utility.yul\":6105:6222   */\n      iszero\n      tag_225\n      jumpi\n        /* \"#utility.yul\":6141:6220   */\n      tag_226\n      tag_110\n      jump\t// in\n    tag_226:\n        /* \"#utility.yul\":6105:6222   */\n    tag_225:\n        /* \"#utility.yul\":6240:6261   */\n      tag_227\n        /* \"#utility.yul\":6256:6260   */\n      0xe0\n        /* \"#utility.yul\":6240:6261   */\n      tag_114\n      jump\t// in\n    tag_227:\n        /* \"#utility.yul\":6231:6261   */\n      swap1\n      pop\n        /* \"#utility.yul\":6322:6323   */\n      0x00\n        /* \"#utility.yul\":6362:6411   */\n      tag_228\n        /* \"#utility.yul\":6407:6410   */\n      dup5\n        /* \"#utility.yul\":6398:6404   */\n      dup3\n        /* \"#utility.yul\":6387:6396   */\n      dup6\n        /* \"#utility.yul\":6383:6405   */\n      add\n        /* \"#utility.yul\":6362:6411   */\n      tag_101\n      jump\t// in\n    tag_228:\n        /* \"#utility.yul\":6355:6359   */\n      0x00\n        /* \"#utility.yul\":6348:6353   */\n      dup4\n        /* \"#utility.yul\":6344:6360   */\n      add\n        /* \"#utility.yul\":6337:6412   */\n      mstore\n        /* \"#utility.yul\":6271:6423   */\n      pop\n        /* \"#utility.yul\":6490:6492   */\n      0x20\n        /* \"#utility.yul\":6531:6580   */\n      tag_229\n        /* \"#utility.yul\":6576:6579   */\n      dup5\n        /* \"#utility.yul\":6567:6573   */\n      dup3\n        /* \"#utility.yul\":6556:6565   */\n      dup6\n        /* \"#utility.yul\":6552:6574   */\n      add\n        /* \"#utility.yul\":6531:6580   */\n      tag_118\n      jump\t// in\n    tag_229:\n        /* \"#utility.yul\":6524:6528   */\n      0x20\n        /* \"#utility.yul\":6517:6522   */\n      dup4\n        /* \"#utility.yul\":6513:6529   */\n      add\n        /* \"#utility.yul\":6506:6581   */\n      mstore\n        /* \"#utility.yul\":6433:6592   */\n      pop\n        /* \"#utility.yul\":6656:6658   */\n      0x40\n        /* \"#utility.yul\":6697:6746   */\n      tag_230\n        /* \"#utility.yul\":6742:6745   */\n      dup5\n        /* \"#utility.yul\":6733:6739   */\n      dup3\n        /* \"#utility.yul\":6722:6731   */\n      dup6\n        /* \"#utility.yul\":6718:6740   */\n      add\n        /* \"#utility.yul\":6697:6746   */\n      tag_118\n      jump\t// in\n    tag_230:\n        /* \"#utility.yul\":6690:6694   */\n      0x40\n        /* \"#utility.yul\":6683:6688   */\n      dup4\n        /* \"#utility.yul\":6679:6695   */\n      add\n        /* \"#utility.yul\":6672:6747   */\n      mstore\n        /* \"#utility.yul\":6602:6758   */\n      pop\n        /* \"#utility.yul\":6831:6833   */\n      0x60\n        /* \"#utility.yul\":6872:6919   */\n      tag_231\n        /* \"#utility.yul\":6915:6918   */\n      dup5\n        /* \"#utility.yul\":6906:6912   */\n      dup3\n        /* \"#utility.yul\":6895:6904   */\n      dup6\n        /* \"#utility.yul\":6891:6913   */\n      add\n        /* \"#utility.yul\":6872:6919   */\n      tag_121\n      jump\t// in\n    tag_231:\n        /* \"#utility.yul\":6865:6869   */\n      0x60\n        /* \"#utility.yul\":6858:6863   */\n      dup4\n        /* \"#utility.yul\":6854:6870   */\n      add\n        /* \"#utility.yul\":6847:6920   */\n      mstore\n        /* \"#utility.yul\":6768:6931   */\n      pop\n        /* \"#utility.yul\":7005:7008   */\n      0x80\n        /* \"#utility.yul\":7047:7096   */\n      tag_232\n        /* \"#utility.yul\":7092:7095   */\n      dup5\n        /* \"#utility.yul\":7083:7089   */\n      dup3\n        /* \"#utility.yul\":7072:7081   */\n      dup6\n        /* \"#utility.yul\":7068:7090   */\n      add\n        /* \"#utility.yul\":7047:7096   */\n      tag_118\n      jump\t// in\n    tag_232:\n        /* \"#utility.yul\":7040:7044   */\n      0x80\n        /* \"#utility.yul\":7033:7038   */\n      dup4\n        /* \"#utility.yul\":7029:7045   */\n      add\n        /* \"#utility.yul\":7022:7097   */\n      mstore\n        /* \"#utility.yul\":6941:7108   */\n      pop\n        /* \"#utility.yul\":7168:7171   */\n      0xa0\n        /* \"#utility.yul\":7210:7259   */\n      tag_233\n        /* \"#utility.yul\":7255:7258   */\n      dup5\n        /* \"#utility.yul\":7246:7252   */\n      dup3\n        /* \"#utility.yul\":7235:7244   */\n      dup6\n        /* \"#utility.yul\":7231:7253   */\n      add\n        /* \"#utility.yul\":7210:7259   */\n      tag_108\n      jump\t// in\n    tag_233:\n        /* \"#utility.yul\":7203:7207   */\n      0xa0\n        /* \"#utility.yul\":7196:7201   */\n      dup4\n        /* \"#utility.yul\":7192:7208   */\n      add\n        /* \"#utility.yul\":7185:7260   */\n      mstore\n        /* \"#utility.yul\":7118:7271   */\n      pop\n        /* \"#utility.yul\":7335:7338   */\n      0xc0\n        /* \"#utility.yul\":7377:7447   */\n      tag_234\n        /* \"#utility.yul\":7443:7446   */\n      dup5\n        /* \"#utility.yul\":7434:7440   */\n      dup3\n        /* \"#utility.yul\":7423:7432   */\n      dup6\n        /* \"#utility.yul\":7419:7441   */\n      add\n        /* \"#utility.yul\":7377:7447   */\n      tag_123\n      jump\t// in\n    tag_234:\n        /* \"#utility.yul\":7370:7374   */\n      0xc0\n        /* \"#utility.yul\":7363:7368   */\n      dup4\n        /* \"#utility.yul\":7359:7375   */\n      add\n        /* \"#utility.yul\":7352:7448   */\n      mstore\n        /* \"#utility.yul\":7281:7459   */\n      pop\n        /* \"#utility.yul\":6009:7466   */\n      swap3\n      swap2\n      pop\n      pop\n      jump\t// out\n        /* \"#utility.yul\":7472:7864   */\n    tag_37:\n        /* \"#utility.yul\":7562:7568   */\n      0x00\n        /* \"#utility.yul\":7611:7614   */\n      0xe0\n        /* \"#utility.yul\":7599:7608   */\n      dup3\n        /* \"#utility.yul\":7590:7597   */\n      dup5\n        /* \"#utility.yul\":7586:7609   */\n      sub\n        /* \"#utility.yul\":7582:7615   */\n      slt\n        /* \"#utility.yul\":7579:7699   */\n      iszero\n      tag_236\n      jumpi\n        /* \"#utility.yul\":7618:7697   */\n      tag_237\n      tag_96\n      jump\t// in\n    tag_237:\n        /* \"#utility.yul\":7579:7699   */\n    tag_236:\n        /* \"#utility.yul\":7738:7739   */\n      0x00\n        /* \"#utility.yul\":7763:7847   */\n      tag_238\n        /* \"#utility.yul\":7839:7846   */\n      dup5\n        /* \"#utility.yul\":7830:7836   */\n      dup3\n        /* \"#utility.yul\":7819:7828   */\n      dup6\n        /* \"#utility.yul\":7815:7837   */\n      add\n        /* \"#utility.yul\":7763:7847   */\n      tag_124\n      jump\t// in\n    tag_238:\n        /* \"#utility.yul\":7753:7847   */\n      swap2\n      pop\n        /* \"#utility.yul\":7709:7857   */\n      pop\n        /* \"#utility.yul\":7472:7864   */\n      swap3\n      swap2\n      pop\n      pop\n      jump\t// out\n        /* \"#utility.yul\":7870:7988   */\n    tag_125:\n        /* \"#utility.yul\":7957:7981   */\n      tag_240\n        /* \"#utility.yul\":7975:7980   */\n      dup2\n        /* \"#utility.yul\":7957:7981   */\n      tag_116\n      jump\t// in\n    tag_240:\n        /* \"#utility.yul\":7952:7955   */\n      dup3\n        /* \"#utility.yul\":7945:7982   */\n      mstore\n        /* \"#utility.yul\":7870:7988   */\n      pop\n      pop\n      jump\t// out\n        /* \"#utility.yul\":7994:8112   */\n    tag_126:\n        /* \"#utility.yul\":8081:8105   */\n      tag_242\n        /* \"#utility.yul\":8099:8104   */\n      dup2\n        /* \"#utility.yul\":8081:8105   */\n      tag_106\n      jump\t// in\n    tag_242:\n        /* \"#utility.yul\":8076:8079   */\n      dup3\n        /* \"#utility.yul\":8069:8106   */\n      mstore\n        /* \"#utility.yul\":7994:8112   */\n      pop\n      pop\n      jump\t// out\n        /* \"#utility.yul\":8118:8230   */\n    tag_127:\n        /* \"#utility.yul\":8201:8223   */\n      tag_244\n        /* \"#utility.yul\":8217:8222   */\n      dup2\n        /* \"#utility.yul\":8201:8223   */\n      tag_119\n      jump\t// in\n    tag_244:\n        /* \"#utility.yul\":8196:8199   */\n      dup3\n        /* \"#utility.yul\":8189:8224   */\n      mstore\n        /* \"#utility.yul\":8118:8230   */\n      pop\n      pop\n      jump\t// out\n        /* \"#utility.yul\":8236:8416   */\n    tag_128:\n        /* \"#utility.yul\":8284:8361   */\n      0x4e487b7100000000000000000000000000000000000000000000000000000000\n        /* \"#utility.yul\":8281:8282   */\n      0x00\n        /* \"#utility.yul\":8274:8362   */\n      mstore\n        /* \"#utility.yul\":8381:8385   */\n      0x21\n        /* \"#utility.yul\":8378:8379   */\n      0x04\n        /* \"#utility.yul\":8371:8386   */\n      mstore\n        /* \"#utility.yul\":8405:8409   */\n      0x24\n        /* \"#utility.yul\":8402:8403   */\n      0x00\n        /* \"#utility.yul\":8395:8410   */\n      revert\n        /* \"#utility.yul\":8422:8548   */\n    tag_129:\n        /* \"#utility.yul\":8516:8517   */\n      0x04\n        /* \"#utility.yul\":8509:8514   */\n      dup2\n        /* \"#utility.yul\":8506:8518   */\n      lt\n        /* \"#utility.yul\":8496:8542   */\n      tag_247\n      jumpi\n        /* \"#utility.yul\":8522:8540   */\n      tag_248\n      tag_128\n      jump\t// in\n    tag_248:\n        /* \"#utility.yul\":8496:8542   */\n    tag_247:\n        /* \"#utility.yul\":8422:8548   */\n      pop\n      jump\t// out\n        /* \"#utility.yul\":8554:8707   */\n    tag_130:\n        /* \"#utility.yul\":8612:8619   */\n      0x00\n        /* \"#utility.yul\":8641:8646   */\n      dup2\n        /* \"#utility.yul\":8630:8646   */\n      swap1\n      pop\n        /* \"#utility.yul\":8647:8701   */\n      tag_250\n        /* \"#utility.yul\":8695:8700   */\n      dup3\n        /* \"#utility.yul\":8647:8701   */\n      tag_129\n      jump\t// in\n    tag_250:\n        /* \"#utility.yul\":8554:8707   */\n      swap2\n      swap1\n      pop\n      jump\t// out\n        /* \"#utility.yul\":8713:8866   */\n    tag_131:\n        /* \"#utility.yul\":8782:8791   */\n      0x00\n        /* \"#utility.yul\":8815:8860   */\n      tag_252\n        /* \"#utility.yul\":8854:8859   */\n      dup3\n        /* \"#utility.yul\":8815:8860   */\n      tag_130\n      jump\t// in\n    tag_252:\n        /* \"#utility.yul\":8802:8860   */\n      swap1\n      pop\n        /* \"#utility.yul\":8713:8866   */\n      swap2\n      swap1\n      pop\n      jump\t// out\n        /* \"#utility.yul\":8872:9041   */\n    tag_132:\n        /* \"#utility.yul\":8978:9034   */\n      tag_254\n        /* \"#utility.yul\":9028:9033   */\n      dup2\n        /* \"#utility.yul\":8978:9034   */\n      tag_131\n      jump\t// in\n    tag_254:\n        /* \"#utility.yul\":8973:8976   */\n      dup3\n        /* \"#utility.yul\":8966:9035   */\n      mstore\n        /* \"#utility.yul\":8872:9041   */\n      pop\n      pop\n      jump\t// out\n        /* \"#utility.yul\":9047:9963   */\n    tag_41:\n        /* \"#utility.yul\":9323:9327   */\n      0x00\n        /* \"#utility.yul\":9361:9364   */\n      0xe0\n        /* \"#utility.yul\":9350:9359   */\n      dup3\n        /* \"#utility.yul\":9346:9365   */\n      add\n        /* \"#utility.yul\":9338:9365   */\n      swap1\n      pop\n        /* \"#utility.yul\":9375:9446   */\n      tag_256\n        /* \"#utility.yul\":9443:9444   */\n      0x00\n        /* \"#utility.yul\":9432:9441   */\n      dup4\n        /* \"#utility.yul\":9428:9445   */\n      add\n        /* \"#utility.yul\":9419:9425   */\n      dup11\n        /* \"#utility.yul\":9375:9446   */\n      tag_125\n      jump\t// in\n    tag_256:\n        /* \"#utility.yul\":9456:9528   */\n      tag_257\n        /* \"#utility.yul\":9524:9526   */\n      0x20\n        /* \"#utility.yul\":9513:9522   */\n      dup4\n        /* \"#utility.yul\":9509:9527   */\n      add\n        /* \"#utility.yul\":9500:9506   */\n      dup10\n        /* \"#utility.yul\":9456:9528   */\n      tag_126\n      jump\t// in\n    tag_257:\n        /* \"#utility.yul\":9538:9610   */\n      tag_258\n        /* \"#utility.yul\":9606:9608   */\n      0x40\n        /* \"#utility.yul\":9595:9604   */\n      dup4\n        /* \"#utility.yul\":9591:9609   */\n      add\n        /* \"#utility.yul\":9582:9588   */\n      dup9\n        /* \"#utility.yul\":9538:9610   */\n      tag_125\n      jump\t// in\n    tag_258:\n        /* \"#utility.yul\":9620:9688   */\n      tag_259\n        /* \"#utility.yul\":9684:9686   */\n      0x60\n        /* \"#utility.yul\":9673:9682   */\n      dup4\n        /* \"#utility.yul\":9669:9687   */\n      add\n        /* \"#utility.yul\":9660:9666   */\n      dup8\n        /* \"#utility.yul\":9620:9688   */\n      tag_127\n      jump\t// in\n    tag_259:\n        /* \"#utility.yul\":9698:9771   */\n      tag_260\n        /* \"#utility.yul\":9766:9769   */\n      0x80\n        /* \"#utility.yul\":9755:9764   */\n      dup4\n        /* \"#utility.yul\":9751:9770   */\n      add\n        /* \"#utility.yul\":9742:9748   */\n      dup7\n        /* \"#utility.yul\":9698:9771   */\n      tag_125\n      jump\t// in\n    tag_260:\n        /* \"#utility.yul\":9781:9854   */\n      tag_261\n        /* \"#utility.yul\":9849:9852   */\n      0xa0\n        /* \"#utility.yul\":9838:9847   */\n      dup4\n        /* \"#utility.yul\":9834:9853   */\n      add\n        /* \"#utility.yul\":9825:9831   */\n      dup6\n        /* \"#utility.yul\":9781:9854   */\n      tag_126\n      jump\t// in\n    tag_261:\n        /* \"#utility.yul\":9864:9956   */\n      tag_262\n        /* \"#utility.yul\":9951:9954   */\n      0xc0\n        /* \"#utility.yul\":9940:9949   */\n      dup4\n        /* \"#utility.yul\":9936:9955   */\n      add\n        /* \"#utility.yul\":9927:9933   */\n      dup5\n        /* \"#utility.yul\":9864:9956   */\n      tag_132\n      jump\t// in\n    tag_262:\n        /* \"#utility.yul\":9047:9963   */\n      swap9\n      swap8\n      pop\n      pop\n      pop\n      pop\n      pop\n      pop\n      pop\n      pop\n      jump\t// out\n        /* \"#utility.yul\":9969:10138   */\n    tag_133:\n        /* \"#utility.yul\":10053:10064   */\n      0x00\n        /* \"#utility.yul\":10087:10093   */\n      dup3\n        /* \"#utility.yul\":10082:10085   */\n      dup3\n        /* \"#utility.yul\":10075:10094   */\n      mstore\n        /* \"#utility.yul\":10127:10131   */\n      0x20\n        /* \"#utility.yul\":10122:10125   */\n      dup3\n        /* \"#utility.yul\":10118:10132   */\n      add\n        /* \"#utility.yul\":10103:10132   */\n      swap1\n      pop\n        /* \"#utility.yul\":9969:10138   */\n      swap3\n      swap2\n      pop\n      pop\n      jump\t// out\n        /* \"#utility.yul\":10144:10369   */\n    tag_134:\n        /* \"#utility.yul\":10284:10318   */\n      0x4f776e61626c653a206e6577206f776e657220697320746865207a65726f2061\n        /* \"#utility.yul\":10280:10281   */\n      0x00\n        /* \"#utility.yul\":10272:10278   */\n      dup3\n        /* \"#utility.yul\":10268:10282   */\n      add\n        /* \"#utility.yul\":10261:10319   */\n      mstore\n        /* \"#utility.yul\":10353:10361   */\n      0x6464726573730000000000000000000000000000000000000000000000000000\n        /* \"#utility.yul\":10348:10350   */\n      0x20\n        /* \"#utility.yul\":10340:10346   */\n      dup3\n        /* \"#utility.yul\":10336:10351   */\n      add\n        /* \"#utility.yul\":10329:10362   */\n      mstore\n        /* \"#utility.yul\":10144:10369   */\n      pop\n      jump\t// out\n        /* \"#utility.yul\":10375:10741   */\n    tag_135:\n        /* \"#utility.yul\":10517:10520   */\n      0x00\n        /* \"#utility.yul\":10538:10605   */\n      tag_266\n        /* \"#utility.yul\":10602:10604   */\n      0x26\n        /* \"#utility.yul\":10597:10600   */\n      dup4\n        /* \"#utility.yul\":10538:10605   */\n      tag_133\n      jump\t// in\n    tag_266:\n        /* \"#utility.yul\":10531:10605   */\n      swap2\n      pop\n        /* \"#utility.yul\":10614:10707   */\n      tag_267\n        /* \"#utility.yul\":10703:10706   */\n      dup3\n        /* \"#utility.yul\":10614:10707   */\n      tag_134\n      jump\t// in\n    tag_267:\n        /* \"#utility.yul\":10732:10734   */\n      0x40\n        /* \"#utility.yul\":10727:10730   */\n      dup3\n        /* \"#utility.yul\":10723:10735   */\n      add\n        /* \"#utility.yul\":10716:10735   */\n      swap1\n      pop\n        /* \"#utility.yul\":10375:10741   */\n      swap2\n      swap1\n      pop\n      jump\t// out\n        /* \"#utility.yul\":10747:11166   */\n    tag_56:\n        /* \"#utility.yul\":10913:10917   */\n      0x00\n        /* \"#utility.yul\":10951:10953   */\n      0x20\n        /* \"#utility.yul\":10940:10949   */\n      dup3\n        /* \"#utility.yul\":10936:10954   */\n      add\n        /* \"#utility.yul\":10928:10954   */\n      swap1\n      pop\n        /* \"#utility.yul\":11000:11009   */\n      dup2\n        /* \"#utility.yul\":10994:10998   */\n      dup2\n        /* \"#utility.yul\":10990:11010   */\n      sub\n        /* \"#utility.yul\":10986:10987   */\n      0x00\n        /* \"#utility.yul\":10975:10984   */\n      dup4\n        /* \"#utility.yul\":10971:10988   */\n      add\n        /* \"#utility.yul\":10964:11011   */\n      mstore\n        /* \"#utility.yul\":11028:11159   */\n      tag_269\n        /* \"#utility.yul\":11154:11158   */\n      dup2\n        /* \"#utility.yul\":11028:11159   */\n      tag_135\n      jump\t// in\n    tag_269:\n        /* \"#utility.yul\":11020:11159   */\n      swap1\n      pop\n        /* \"#utility.yul\":10747:11166   */\n      swap2\n      swap1\n      pop\n      jump\t// out\n        /* \"#utility.yul\":11172:11354   */\n    tag_136:\n        /* \"#utility.yul\":11312:11346   */\n      0x4f776e61626c653a2063616c6c6572206973206e6f7420746865206f776e6572\n        /* \"#utility.yul\":11308:11309   */\n      0x00\n        /* \"#utility.yul\":11300:11306   */\n      dup3\n        /* \"#utility.yul\":11296:11310   */\n      add\n        /* \"#utility.yul\":11289:11347   */\n      mstore\n        /* \"#utility.yul\":11172:11354   */\n      pop\n      jump\t// out\n        /* \"#utility.yul\":11360:11726   */\n    tag_137:\n        /* \"#utility.yul\":11502:11505   */\n      0x00\n        /* \"#utility.yul\":11523:11590   */\n      tag_272\n        /* \"#utility.yul\":11587:11589   */\n      0x20\n        /* \"#utility.yul\":11582:11585   */\n      dup4\n        /* \"#utility.yul\":11523:11590   */\n      tag_133\n      jump\t// in\n    tag_272:\n        /* \"#utility.yul\":11516:11590   */\n      swap2\n      pop\n        /* \"#utility.yul\":11599:11692   */\n      tag_273\n        /* \"#utility.yul\":11688:11691   */\n      dup3\n        /* \"#utility.yul\":11599:11692   */\n      tag_136\n      jump\t// in\n    tag_273:\n        /* \"#utility.yul\":11717:11719   */\n      0x20\n        /* \"#utility.yul\":11712:11715   */\n      dup3\n        /* \"#utility.yul\":11708:11720   */\n      add\n        /* \"#utility.yul\":11701:11720   */\n      swap1\n      pop\n        /* \"#utility.yul\":11360:11726   */\n      swap2\n      swap1\n      pop\n      jump\t// out\n        /* \"#utility.yul\":11732:12151   */\n    tag_64:\n        /* \"#utility.yul\":11898:11902   */\n      0x00\n        /* \"#utility.yul\":11936:11938   */\n      0x20\n        /* \"#utility.yul\":11925:11934   */\n      dup3\n        /* \"#utility.yul\":11921:11939   */\n      add\n        /* \"#utility.yul\":11913:11939   */\n      swap1\n      pop\n        /* \"#utility.yul\":11985:11994   */\n      dup2\n        /* \"#utility.yul\":11979:11983   */\n      dup2\n        /* \"#utility.yul\":11975:11995   */\n      sub\n        /* \"#utility.yul\":11971:11972   */\n      0x00\n        /* \"#utility.yul\":11960:11969   */\n      dup4\n        /* \"#utility.yul\":11956:11973   */\n      add\n        /* \"#utility.yul\":11949:11996   */\n      mstore\n        /* \"#utility.yul\":12013:12144   */\n      tag_275\n        /* \"#utility.yul\":12139:12143   */\n      dup2\n        /* \"#utility.yul\":12013:12144   */\n      tag_137\n      jump\t// in\n    tag_275:\n        /* \"#utility.yul\":12005:12144   */\n      swap1\n      pop\n        /* \"#utility.yul\":11732:12151   */\n      swap2\n      swap1\n      pop\n      jump\t// out\n        /* \"#utility.yul\":12157:12489   */\n    tag_67:\n        /* \"#utility.yul\":12278:12282   */\n      0x00\n        /* \"#utility.yul\":12316:12318   */\n      0x40\n        /* \"#utility.yul\":12305:12314   */\n      dup3\n        /* \"#utility.yul\":12301:12319   */\n      add\n        /* \"#utility.yul\":12293:12319   */\n      swap1\n      pop\n        /* \"#utility.yul\":12329:12400   */\n      tag_277\n        /* \"#utility.yul\":12397:12398   */\n      0x00\n        /* \"#utility.yul\":12386:12395   */\n      dup4\n        /* \"#utility.yul\":12382:12399   */\n      add\n        /* \"#utility.yul\":12373:12379   */\n      dup6\n        /* \"#utility.yul\":12329:12400   */\n      tag_109\n      jump\t// in\n    tag_277:\n        /* \"#utility.yul\":12410:12482   */\n      tag_278\n        /* \"#utility.yul\":12478:12480   */\n      0x20\n        /* \"#utility.yul\":12467:12476   */\n      dup4\n        /* \"#utility.yul\":12463:12481   */\n      add\n        /* \"#utility.yul\":12454:12460   */\n      dup5\n        /* \"#utility.yul\":12410:12482   */\n      tag_126\n      jump\t// in\n    tag_278:\n        /* \"#utility.yul\":12157:12489   */\n      swap4\n      swap3\n      pop\n      pop\n      pop\n      jump\t// out\n        /* \"#utility.yul\":12495:12593   */\n    tag_138:\n        /* \"#utility.yul\":12546:12552   */\n      0x00\n        /* \"#utility.yul\":12580:12585   */\n      dup2\n        /* \"#utility.yul\":12574:12586   */\n      mload\n        /* \"#utility.yul\":12564:12586   */\n      swap1\n      pop\n        /* \"#utility.yul\":12495:12593   */\n      swap2\n      swap1\n      pop\n      jump\t// out\n        /* \"#utility.yul\":12599:12746   */\n    tag_139:\n        /* \"#utility.yul\":12700:12711   */\n      0x00\n        /* \"#utility.yul\":12737:12740   */\n      dup2\n        /* \"#utility.yul\":12722:12740   */\n      swap1\n      pop\n        /* \"#utility.yul\":12599:12746   */\n      swap3\n      swap2\n      pop\n      pop\n      jump\t// out\n        /* \"#utility.yul\":12752:12998   */\n    tag_140:\n        /* \"#utility.yul\":12833:12834   */\n      0x00\n        /* \"#utility.yul\":12843:12956   */\n    tag_282:\n        /* \"#utility.yul\":12857:12863   */\n      dup4\n        /* \"#utility.yul\":12854:12855   */\n      dup2\n        /* \"#utility.yul\":12851:12864   */\n      lt\n        /* \"#utility.yul\":12843:12956   */\n      iszero\n      tag_284\n      jumpi\n        /* \"#utility.yul\":12942:12943   */\n      dup1\n        /* \"#utility.yul\":12937:12940   */\n      dup3\n        /* \"#utility.yul\":12933:12944   */\n      add\n        /* \"#utility.yul\":12927:12945   */\n      mload\n        /* \"#utility.yul\":12923:12924   */\n      dup2\n        /* \"#utility.yul\":12918:12921   */\n      dup5\n        /* \"#utility.yul\":12914:12925   */\n      add\n        /* \"#utility.yul\":12907:12946   */\n      mstore\n        /* \"#utility.yul\":12879:12881   */\n      0x20\n        /* \"#utility.yul\":12876:12877   */\n      dup2\n        /* \"#utility.yul\":12872:12882   */\n      add\n        /* \"#utility.yul\":12867:12882   */\n      swap1\n      pop\n        /* \"#utility.yul\":12843:12956   */\n      jump(tag_282)\n    tag_284:\n        /* \"#utility.yul\":12990:12991   */\n      0x00\n        /* \"#utility.yul\":12981:12987   */\n      dup5\n        /* \"#utility.yul\":12976:12979   */\n      dup5\n        /* \"#utility.yul\":12972:12988   */\n      add\n        /* \"#utility.yul\":12965:12992   */\n      mstore\n        /* \"#utility.yul\":12814:12998   */\n      pop\n        /* \"#utility.yul\":12752:12998   */\n      pop\n      pop\n      pop\n      jump\t// out\n        /* \"#utility.yul\":13004:13390   */\n    tag_141:\n        /* \"#utility.yul\":13108:13111   */\n      0x00\n        /* \"#utility.yul\":13136:13174   */\n      tag_286\n        /* \"#utility.yul\":13168:13173   */\n      dup3\n        /* \"#utility.yul\":13136:13174   */\n      tag_138\n      jump\t// in\n    tag_286:\n        /* \"#utility.yul\":13190:13278   */\n      tag_287\n        /* \"#utility.yul\":13271:13277   */\n      dup2\n        /* \"#utility.yul\":13266:13269   */\n      dup6\n        /* \"#utility.yul\":13190:13278   */\n      tag_139\n      jump\t// in\n    tag_287:\n        /* \"#utility.yul\":13183:13278   */\n      swap4\n      pop\n        /* \"#utility.yul\":13287:13352   */\n      tag_288\n        /* \"#utility.yul\":13345:13351   */\n      dup2\n        /* \"#utility.yul\":13340:13343   */\n      dup6\n        /* \"#utility.yul\":13333:13337   */\n      0x20\n        /* \"#utility.yul\":13326:13331   */\n      dup7\n        /* \"#utility.yul\":13322:13338   */\n      add\n        /* \"#utility.yul\":13287:13352   */\n      tag_140\n      jump\t// in\n    tag_288:\n        /* \"#utility.yul\":13377:13383   */\n      dup1\n        /* \"#utility.yul\":13372:13375   */\n      dup5\n        /* \"#utility.yul\":13368:13384   */\n      add\n        /* \"#utility.yul\":13361:13384   */\n      swap2\n      pop\n        /* \"#utility.yul\":13112:13390   */\n      pop\n        /* \"#utility.yul\":13004:13390   */\n      swap3\n      swap2\n      pop\n      pop\n      jump\t// out\n        /* \"#utility.yul\":13396:13667   */\n    tag_69:\n        /* \"#utility.yul\":13526:13529   */\n      0x00\n        /* \"#utility.yul\":13548:13641   */\n      tag_290\n        /* \"#utility.yul\":13637:13640   */\n      dup3\n        /* \"#utility.yul\":13628:13634   */\n      dup5\n        /* \"#utility.yul\":13548:13641   */\n      tag_141\n      jump\t// in\n    tag_290:\n        /* \"#utility.yul\":13541:13641   */\n      swap2\n      pop\n        /* \"#utility.yul\":13658:13661   */\n      dup2\n        /* \"#utility.yul\":13651:13661   */\n      swap1\n      pop\n        /* \"#utility.yul\":13396:13667   */\n      swap3\n      swap2\n      pop\n      pop\n      jump\t// out\n        /* \"#utility.yul\":13673:13763   */\n    tag_142:\n        /* \"#utility.yul\":13707:13714   */\n      0x00\n        /* \"#utility.yul\":13750:13755   */\n      dup2\n        /* \"#utility.yul\":13743:13756   */\n      iszero\n        /* \"#utility.yul\":13736:13757   */\n      iszero\n        /* \"#utility.yul\":13725:13757   */\n      swap1\n      pop\n        /* \"#utility.yul\":13673:13763   */\n      swap2\n      swap1\n      pop\n      jump\t// out\n        /* \"#utility.yul\":13769:13885   */\n    tag_143:\n        /* \"#utility.yul\":13839:13860   */\n      tag_293\n        /* \"#utility.yul\":13854:13859   */\n      dup2\n        /* \"#utility.yul\":13839:13860   */\n      tag_142\n      jump\t// in\n    tag_293:\n        /* \"#utility.yul\":13832:13837   */\n      dup2\n        /* \"#utility.yul\":13829:13861   */\n      eq\n        /* \"#utility.yul\":13819:13879   */\n      tag_294\n      jumpi\n        /* \"#utility.yul\":13875:13876   */\n      0x00\n        /* \"#utility.yul\":13872:13873   */\n      dup1\n        /* \"#utility.yul\":13865:13877   */\n      revert\n        /* \"#utility.yul\":13819:13879   */\n    tag_294:\n        /* \"#utility.yul\":13769:13885   */\n      pop\n      jump\t// out\n        /* \"#utility.yul\":13891:14028   */\n    tag_144:\n        /* \"#utility.yul\":13945:13950   */\n      0x00\n        /* \"#utility.yul\":13976:13982   */\n      dup2\n        /* \"#utility.yul\":13970:13983   */\n      mload\n        /* \"#utility.yul\":13961:13983   */\n      swap1\n      pop\n        /* \"#utility.yul\":13992:14022   */\n      tag_296\n        /* \"#utility.yul\":14016:14021   */\n      dup2\n        /* \"#utility.yul\":13992:14022   */\n      tag_143\n      jump\t// in\n    tag_296:\n        /* \"#utility.yul\":13891:14028   */\n      swap3\n      swap2\n      pop\n      pop\n      jump\t// out\n        /* \"#utility.yul\":14034:14379   */\n    tag_76:\n        /* \"#utility.yul\":14101:14107   */\n      0x00\n        /* \"#utility.yul\":14150:14152   */\n      0x20\n        /* \"#utility.yul\":14138:14147   */\n      dup3\n        /* \"#utility.yul\":14129:14136   */\n      dup5\n        /* \"#utility.yul\":14125:14148   */\n      sub\n        /* \"#utility.yul\":14121:14153   */\n      slt\n        /* \"#utility.yul\":14118:14237   */\n      iszero\n      tag_298\n      jumpi\n        /* \"#utility.yul\":14156:14235   */\n      tag_299\n      tag_96\n      jump\t// in\n    tag_299:\n        /* \"#utility.yul\":14118:14237   */\n    tag_298:\n        /* \"#utility.yul\":14276:14277   */\n      0x00\n        /* \"#utility.yul\":14301:14362   */\n      tag_300\n        /* \"#utility.yul\":14354:14361   */\n      dup5\n        /* \"#utility.yul\":14345:14351   */\n      dup3\n        /* \"#utility.yul\":14334:14343   */\n      dup6\n        /* \"#utility.yul\":14330:14352   */\n      add\n        /* \"#utility.yul\":14301:14362   */\n      tag_144\n      jump\t// in\n    tag_300:\n        /* \"#utility.yul\":14291:14362   */\n      swap2\n      pop\n        /* \"#utility.yul\":14247:14372   */\n      pop\n        /* \"#utility.yul\":14034:14379   */\n      swap3\n      swap2\n      pop\n      pop\n      jump\t// out\n        /* \"#utility.yul\":14385:14561   */\n    tag_145:\n        /* \"#utility.yul\":14525:14553   */\n      0x5472616e7366657248656c7065723a73616665417070726f7665000000000000\n        /* \"#utility.yul\":14521:14522   */\n      0x00\n        /* \"#utility.yul\":14513:14519   */\n      dup3\n        /* \"#utility.yul\":14509:14523   */\n      add\n        /* \"#utility.yul\":14502:14554   */\n      mstore\n        /* \"#utility.yul\":14385:14561   */\n      pop\n      jump\t// out\n        /* \"#utility.yul\":14567:14933   */\n    tag_146:\n        /* \"#utility.yul\":14709:14712   */\n      0x00\n        /* \"#utility.yul\":14730:14797   */\n      tag_303\n        /* \"#utility.yul\":14794:14796   */\n      0x1a\n        /* \"#utility.yul\":14789:14792   */\n      dup4\n        /* \"#utility.yul\":14730:14797   */\n      tag_133\n      jump\t// in\n    tag_303:\n        /* \"#utility.yul\":14723:14797   */\n      swap2\n      pop\n        /* \"#utility.yul\":14806:14899   */\n      tag_304\n        /* \"#utility.yul\":14895:14898   */\n      dup3\n        /* \"#utility.yul\":14806:14899   */\n      tag_145\n      jump\t// in\n    tag_304:\n        /* \"#utility.yul\":14924:14926   */\n      0x20\n        /* \"#utility.yul\":14919:14922   */\n      dup3\n        /* \"#utility.yul\":14915:14927   */\n      add\n        /* \"#utility.yul\":14908:14927   */\n      swap1\n      pop\n        /* \"#utility.yul\":14567:14933   */\n      swap2\n      swap1\n      pop\n      jump\t// out\n        /* \"#utility.yul\":14939:15358   */\n    tag_79:\n        /* \"#utility.yul\":15105:15109   */\n      0x00\n        /* \"#utility.yul\":15143:15145   */\n      0x20\n        /* \"#utility.yul\":15132:15141   */\n      dup3\n        /* \"#utility.yul\":15128:15146   */\n      add\n        /* \"#utility.yul\":15120:15146   */\n      swap1\n      pop\n        /* \"#utility.yul\":15192:15201   */\n      dup2\n        /* \"#utility.yul\":15186:15190   */\n      dup2\n        /* \"#utility.yul\":15182:15202   */\n      sub\n        /* \"#utility.yul\":15178:15179   */\n      0x00\n        /* \"#utility.yul\":15167:15176   */\n      dup4\n        /* \"#utility.yul\":15163:15180   */\n      add\n        /* \"#utility.yul\":15156:15203   */\n      mstore\n        /* \"#utility.yul\":15220:15351   */\n      tag_306\n        /* \"#utility.yul\":15346:15350   */\n      dup2\n        /* \"#utility.yul\":15220:15351   */\n      tag_146\n      jump\t// in\n    tag_306:\n        /* \"#utility.yul\":15212:15351   */\n      swap1\n      pop\n        /* \"#utility.yul\":14939:15358   */\n      swap2\n      swap1\n      pop\n      jump\t// out\n        /* \"#utility.yul\":15364:15806   */\n    tag_82:\n        /* \"#utility.yul\":15513:15517   */\n      0x00\n        /* \"#utility.yul\":15551:15553   */\n      0x60\n        /* \"#utility.yul\":15540:15549   */\n      dup3\n        /* \"#utility.yul\":15536:15554   */\n      add\n        /* \"#utility.yul\":15528:15554   */\n      swap1\n      pop\n        /* \"#utility.yul\":15564:15635   */\n      tag_308\n        /* \"#utility.yul\":15632:15633   */\n      0x00\n        /* \"#utility.yul\":15621:15630   */\n      dup4\n        /* \"#utility.yul\":15617:15634   */\n      add\n        /* \"#utility.yul\":15608:15614   */\n      dup7\n        /* \"#utility.yul\":15564:15635   */\n      tag_109\n      jump\t// in\n    tag_308:\n        /* \"#utility.yul\":15645:15717   */\n      tag_309\n        /* \"#utility.yul\":15713:15715   */\n      0x20\n        /* \"#utility.yul\":15702:15711   */\n      dup4\n        /* \"#utility.yul\":15698:15716   */\n      add\n        /* \"#utility.yul\":15689:15695   */\n      dup6\n        /* \"#utility.yul\":15645:15717   */\n      tag_109\n      jump\t// in\n    tag_309:\n        /* \"#utility.yul\":15727:15799   */\n      tag_310\n        /* \"#utility.yul\":15795:15797   */\n      0x40\n        /* \"#utility.yul\":15784:15793   */\n      dup4\n        /* \"#utility.yul\":15780:15798   */\n      add\n        /* \"#utility.yul\":15771:15777   */\n      dup5\n        /* \"#utility.yul\":15727:15799   */\n      tag_126\n      jump\t// in\n    tag_310:\n        /* \"#utility.yul\":15364:15806   */\n      swap5\n      swap4\n      pop\n      pop\n      pop\n      pop\n      jump\t// out\n        /* \"#utility.yul\":15812:15993   */\n    tag_147:\n        /* \"#utility.yul\":15952:15985   */\n      0x5472616e7366657248656c7065723a736166655472616e7366657246726f6d00\n        /* \"#utility.yul\":15948:15949   */\n      0x00\n        /* \"#utility.yul\":15940:15946   */\n      dup3\n        /* \"#utility.yul\":15936:15950   */\n      add\n        /* \"#utility.yul\":15929:15986   */\n      mstore\n        /* \"#utility.yul\":15812:15993   */\n      pop\n      jump\t// out\n        /* \"#utility.yul\":15999:16365   */\n    tag_148:\n        /* \"#utility.yul\":16141:16144   */\n      0x00\n        /* \"#utility.yul\":16162:16229   */\n      tag_313\n        /* \"#utility.yul\":16226:16228   */\n      0x1f\n        /* \"#utility.yul\":16221:16224   */\n      dup4\n        /* \"#utility.yul\":16162:16229   */\n      tag_133\n      jump\t// in\n    tag_313:\n        /* \"#utility.yul\":16155:16229   */\n      swap2\n      pop\n        /* \"#utility.yul\":16238:16331   */\n      tag_314\n        /* \"#utility.yul\":16327:16330   */\n      dup3\n        /* \"#utility.yul\":16238:16331   */\n      tag_147\n      jump\t// in\n    tag_314:\n        /* \"#utility.yul\":16356:16358   */\n      0x20\n        /* \"#utility.yul\":16351:16354   */\n      dup3\n        /* \"#utility.yul\":16347:16359   */\n      add\n        /* \"#utility.yul\":16340:16359   */\n      swap1\n      pop\n        /* \"#utility.yul\":15999:16365   */\n      swap2\n      swap1\n      pop\n      jump\t// out\n        /* \"#utility.yul\":16371:16790   */\n    tag_92:\n        /* \"#utility.yul\":16537:16541   */\n      0x00\n        /* \"#utility.yul\":16575:16577   */\n      0x20\n        /* \"#utility.yul\":16564:16573   */\n      dup3\n        /* \"#utility.yul\":16560:16578   */\n      add\n        /* \"#utility.yul\":16552:16578   */\n      swap1\n      pop\n        /* \"#utility.yul\":16624:16633   */\n      dup2\n        /* \"#utility.yul\":16618:16622   */\n      dup2\n        /* \"#utility.yul\":16614:16634   */\n      sub\n        /* \"#utility.yul\":16610:16611   */\n      0x00\n        /* \"#utility.yul\":16599:16608   */\n      dup4\n        /* \"#utility.yul\":16595:16612   */\n      add\n        /* \"#utility.yul\":16588:16635   */\n      mstore\n        /* \"#utility.yul\":16652:16783   */\n      tag_316\n        /* \"#utility.yul\":16778:16782   */\n      dup2\n        /* \"#utility.yul\":16652:16783   */\n      tag_148\n      jump\t// in\n    tag_316:\n        /* \"#utility.yul\":16644:16783   */\n      swap1\n      pop\n        /* \"#utility.yul\":16371:16790   */\n      swap2\n      swap1\n      pop\n      jump\t// out\n\n    auxdata: 0xa26469706673582212201bf3c3733b43e9a919743549e5219e8b95d614a5bc2ff3c9cdf8d52f4069f95164736f6c63430008120033\n}\n",
				"bytecode": {
					"linkReferences": {},
					"object": "60806040527fffffffffffffffffffffffffffffffffffffffffffffffffffffffffffffffff60015534801561003457600080fd5b5061005161004661005660201b60201c565b61005e60201b60201c565b610122565b600033905090565b60008060009054906101000a900473ffffffffffffffffffffffffffffffffffffffff169050816000806101000a81548173ffffffffffffffffffffffffffffffffffffffff021916908373ffffffffffffffffffffffffffffffffffffffff1602179055508173ffffffffffffffffffffffffffffffffffffffff168173ffffffffffffffffffffffffffffffffffffffff167f8be0079c531659141344cd1fd0a4f28419497f9722a3daafe3b4186f6b6457e060405160405180910390a35050565b610ede806101316000396000f3fe60806040526004361061004a5760003560e01c806303105b041461004f5780630a2fb37414610078578063715018a6146100945780638da5cb5b146100ab578063f2fde38b146100d6575b600080fd5b34801561005b57600080fd5b50610076600480360381019061007191906106c9565b6100ff565b005b610092600480360381019061008d91906107a4565b610118565b005b3480156100a057600080fd5b506100a96101de565b005b3480156100b757600080fd5b506100c06101f2565b6040516100cd9190610813565b60405180910390f35b3480156100e257600080fd5b506100fd60048036038101906100f8919061082e565b61021b565b005b61010761029e565b610114828260015461031c565b5050565b600083838101906101299190610a34565b90506000816020015160001c905061014381333086610452565b816000015173ffffffffffffffffffffffffffffffffffffffff1663f35e37d3348460200151868660400151876060015188608001518960a001518a60c001516040518963ffffffff1660e01b81526004016101a59796959493929190610b05565b6000604051808303818588803b1580156101be57600080fd5b505af11580156101d2573d6000803e3d6000fd5b50505050505050505050565b6101e661029e565b6101f0600061058b565b565b60008060009054906101000a900473ffffffffffffffffffffffffffffffffffffffff16905090565b61022361029e565b600073ffffffffffffffffffffffffffffffffffffffff168173ffffffffffffffffffffffffffffffffffffffff1603610292576040517f08c379a000000000000000000000000000000000000000000000000000000000815260040161028990610bf7565b60405180910390fd5b61029b8161058b565b50565b6102a661064f565b73ffffffffffffffffffffffffffffffffffffffff166102c46101f2565b73ffffffffffffffffffffffffffffffffffffffff161461031a576040517f08c379a000000000000000000000000000000000000000000000000000000000815260040161031190610c63565b60405180910390fd5b565b6000808473ffffffffffffffffffffffffffffffffffffffff1663095ea7b3858560405160240161034e929190610c83565b6040516020818303038152906040529060e01b6020820180517bffffffffffffffffffffffffffffffffffffffffffffffffffffffff838183161783525050505060405161039c9190610d1d565b6000604051808303816000865af19150503d80600081146103d9576040519150601f19603f3d011682016040523d82523d6000602084013e6103de565b606091505b509150915081801561040c575060008151148061040b57508080602001905181019061040a9190610d6c565b5b5b61044b576040517f08c379a000000000000000000000000000000000000000000000000000000000815260040161044290610de5565b60405180910390fd5b5050505050565b6000808573ffffffffffffffffffffffffffffffffffffffff166323b872dd86868660405160240161048693929190610e05565b6040516020818303038152906040529060e01b6020820180517bffffffffffffffffffffffffffffffffffffffffffffffffffffffff83818316178352505050506040516104d49190610d1d565b6000604051808303816000865af19150503d8060008114610511576040519150601f19603f3d011682016040523d82523d6000602084013e610516565b606091505b509150915081801561054457506000815114806105435750808060200190518101906105429190610d6c565b5b5b610583576040517f08c379a000000000000000000000000000000000000000000000000000000000815260040161057a90610e88565b60405180910390fd5b505050505050565b60008060009054906101000a900473ffffffffffffffffffffffffffffffffffffffff169050816000806101000a81548173ffffffffffffffffffffffffffffffffffffffff021916908373ffffffffffffffffffffffffffffffffffffffff1602179055508173ffffffffffffffffffffffffffffffffffffffff168173ffffffffffffffffffffffffffffffffffffffff167f8be0079c531659141344cd1fd0a4f28419497f9722a3daafe3b4186f6b6457e060405160405180910390a35050565b600033905090565b6000604051905090565b600080fd5b600080fd5b600073ffffffffffffffffffffffffffffffffffffffff82169050919050565b60006106968261066b565b9050919050565b6106a68161068b565b81146106b157600080fd5b50565b6000813590506106c38161069d565b92915050565b600080604083850312156106e0576106df610661565b5b60006106ee858286016106b4565b92505060206106ff858286016106b4565b9150509250929050565b600080fd5b600080fd5b600080fd5b60008083601f84011261072e5761072d610709565b5b8235905067ffffffffffffffff81111561074b5761074a61070e565b5b60208301915083600182028301111561076757610766610713565b5b9250929050565b6000819050919050565b6107818161076e565b811461078c57600080fd5b50565b60008135905061079e81610778565b92915050565b6000806000604084860312156107bd576107bc610661565b5b600084013567ffffffffffffffff8111156107db576107da610666565b5b6107e786828701610718565b935093505060206107fa8682870161078f565b9150509250925092565b61080d8161068b565b82525050565b60006020820190506108286000830184610804565b92915050565b60006020828403121561084457610843610661565b5b6000610852848285016106b4565b91505092915050565b600080fd5b6000601f19601f8301169050919050565b7f4e487b7100000000000000000000000000000000000000000000000000000000600052604160045260246000fd5b6108a982610860565b810181811067ffffffffffffffff821117156108c8576108c7610871565b5b80604052505050565b60006108db610657565b90506108e782826108a0565b919050565b6000819050919050565b6108ff816108ec565b811461090a57600080fd5b50565b60008135905061091c816108f6565b92915050565b600060ff82169050919050565b61093881610922565b811461094357600080fd5b50565b6000813590506109558161092f565b92915050565b6004811061096857600080fd5b50565b60008135905061097a8161095b565b92915050565b600060e082840312156109965761099561085b565b5b6109a060e06108d1565b905060006109b0848285016106b4565b60008301525060206109c48482850161090d565b60208301525060406109d88482850161090d565b60408301525060606109ec84828501610946565b6060830152506080610a008482850161090d565b60808301525060a0610a148482850161078f565b60a08301525060c0610a288482850161096b565b60c08301525092915050565b600060e08284031215610a4a57610a49610661565b5b6000610a5884828501610980565b91505092915050565b610a6a816108ec565b82525050565b610a798161076e565b82525050565b610a8881610922565b82525050565b7f4e487b7100000000000000000000000000000000000000000000000000000000600052602160045260246000fd5b60048110610ace57610acd610a8e565b5b50565b6000819050610adf82610abd565b919050565b6000610aef82610ad1565b9050919050565b610aff81610ae4565b82525050565b600060e082019050610b1a600083018a610a61565b610b276020830189610a70565b610b346040830188610a61565b610b416060830187610a7f565b610b4e6080830186610a61565b610b5b60a0830185610a70565b610b6860c0830184610af6565b98975050505050505050565b600082825260208201905092915050565b7f4f776e61626c653a206e6577206f776e657220697320746865207a65726f206160008201527f6464726573730000000000000000000000000000000000000000000000000000602082015250565b6000610be1602683610b74565b9150610bec82610b85565b604082019050919050565b60006020820190508181036000830152610c1081610bd4565b9050919050565b7f4f776e61626c653a2063616c6c6572206973206e6f7420746865206f776e6572600082015250565b6000610c4d602083610b74565b9150610c5882610c17565b602082019050919050565b60006020820190508181036000830152610c7c81610c40565b9050919050565b6000604082019050610c986000830185610804565b610ca56020830184610a70565b9392505050565b600081519050919050565b600081905092915050565b60005b83811015610ce0578082015181840152602081019050610cc5565b60008484015250505050565b6000610cf782610cac565b610d018185610cb7565b9350610d11818560208601610cc2565b80840191505092915050565b6000610d298284610cec565b915081905092915050565b60008115159050919050565b610d4981610d34565b8114610d5457600080fd5b50565b600081519050610d6681610d40565b92915050565b600060208284031215610d8257610d81610661565b5b6000610d9084828501610d57565b91505092915050565b7f5472616e7366657248656c7065723a73616665417070726f7665000000000000600082015250565b6000610dcf601a83610b74565b9150610dda82610d99565b602082019050919050565b60006020820190508181036000830152610dfe81610dc2565b9050919050565b6000606082019050610e1a6000830186610804565b610e276020830185610804565b610e346040830184610a70565b949350505050565b7f5472616e7366657248656c7065723a736166655472616e7366657246726f6d00600082015250565b6000610e72601f83610b74565b9150610e7d82610e3c565b602082019050919050565b60006020820190508181036000830152610ea181610e65565b905091905056fea26469706673582212201bf3c3733b43e9a919743549e5219e8b95d614a5bc2ff3c9cdf8d52f4069f95164736f6c63430008120033",
					"opcodes": "PUSH1 0x80 PUSH1 0x40 MSTORE PUSH32 0xFFFFFFFFFFFFFFFFFFFFFFFFFFFFFFFFFFFFFFFFFFFFFFFFFFFFFFFFFFFFFFFF PUSH1 0x1 SSTORE CALLVALUE DUP1 ISZERO PUSH2 0x34 JUMPI PUSH1 0x0 DUP1 REVERT JUMPDEST POP PUSH2 0x51 PUSH2 0x46 PUSH2 0x56 PUSH1 0x20 SHL PUSH1 0x20 SHR JUMP JUMPDEST PUSH2 0x5E PUSH1 0x20 SHL PUSH1 0x20 SHR JUMP JUMPDEST PUSH2 0x122 JUMP JUMPDEST PUSH1 0x0 CALLER SWAP1 POP SWAP1 JUMP JUMPDEST PUSH1 0x0 DUP1 PUSH1 0x0 SWAP1 SLOAD SWAP1 PUSH2 0x100 EXP SWAP1 DIV PUSH20 0xFFFFFFFFFFFFFFFFFFFFFFFFFFFFFFFFFFFFFFFF AND SWAP1 POP DUP2 PUSH1 0x0 DUP1 PUSH2 0x100 EXP DUP2 SLOAD DUP2 PUSH20 0xFFFFFFFFFFFFFFFFFFFFFFFFFFFFFFFFFFFFFFFF MUL NOT AND SWAP1 DUP4 PUSH20 0xFFFFFFFFFFFFFFFFFFFFFFFFFFFFFFFFFFFFFFFF AND MUL OR SWAP1 SSTORE POP DUP2 PUSH20 0xFFFFFFFFFFFFFFFFFFFFFFFFFFFFFFFFFFFFFFFF AND DUP2 PUSH20 0xFFFFFFFFFFFFFFFFFFFFFFFFFFFFFFFFFFFFFFFF AND PUSH32 0x8BE0079C531659141344CD1FD0A4F28419497F9722A3DAAFE3B4186F6B6457E0 PUSH1 0x40 MLOAD PUSH1 0x40 MLOAD DUP1 SWAP2 SUB SWAP1 LOG3 POP POP JUMP JUMPDEST PUSH2 0xEDE DUP1 PUSH2 0x131 PUSH1 0x0 CODECOPY PUSH1 0x0 RETURN INVALID PUSH1 0x80 PUSH1 0x40 MSTORE PUSH1 0x4 CALLDATASIZE LT PUSH2 0x4A JUMPI PUSH1 0x0 CALLDATALOAD PUSH1 0xE0 SHR DUP1 PUSH4 0x3105B04 EQ PUSH2 0x4F JUMPI DUP1 PUSH4 0xA2FB374 EQ PUSH2 0x78 JUMPI DUP1 PUSH4 0x715018A6 EQ PUSH2 0x94 JUMPI DUP1 PUSH4 0x8DA5CB5B EQ PUSH2 0xAB JUMPI DUP1 PUSH4 0xF2FDE38B EQ PUSH2 0xD6 JUMPI JUMPDEST PUSH1 0x0 DUP1 REVERT JUMPDEST CALLVALUE DUP1 ISZERO PUSH2 0x5B JUMPI PUSH1 0x0 DUP1 REVERT JUMPDEST POP PUSH2 0x76 PUSH1 0x4 DUP1 CALLDATASIZE SUB DUP2 ADD SWAP1 PUSH2 0x71 SWAP2 SWAP1 PUSH2 0x6C9 JUMP JUMPDEST PUSH2 0xFF JUMP JUMPDEST STOP JUMPDEST PUSH2 0x92 PUSH1 0x4 DUP1 CALLDATASIZE SUB DUP2 ADD SWAP1 PUSH2 0x8D SWAP2 SWAP1 PUSH2 0x7A4 JUMP JUMPDEST PUSH2 0x118 JUMP JUMPDEST STOP JUMPDEST CALLVALUE DUP1 ISZERO PUSH2 0xA0 JUMPI PUSH1 0x0 DUP1 REVERT JUMPDEST POP PUSH2 0xA9 PUSH2 0x1DE JUMP JUMPDEST STOP JUMPDEST CALLVALUE DUP1 ISZERO PUSH2 0xB7 JUMPI PUSH1 0x0 DUP1 REVERT JUMPDEST POP PUSH2 0xC0 PUSH2 0x1F2 JUMP JUMPDEST PUSH1 0x40 MLOAD PUSH2 0xCD SWAP2 SWAP1 PUSH2 0x813 JUMP JUMPDEST PUSH1 0x40 MLOAD DUP1 SWAP2 SUB SWAP1 RETURN JUMPDEST CALLVALUE DUP1 ISZERO PUSH2 0xE2 JUMPI PUSH1 0x0 DUP1 REVERT JUMPDEST POP PUSH2 0xFD PUSH1 0x4 DUP1 CALLDATASIZE SUB DUP2 ADD SWAP1 PUSH2 0xF8 SWAP2 SWAP1 PUSH2 0x82E JUMP JUMPDEST PUSH2 0x21B JUMP JUMPDEST STOP JUMPDEST PUSH2 0x107 PUSH2 0x29E JUMP JUMPDEST PUSH2 0x114 DUP3 DUP3 PUSH1 0x1 SLOAD PUSH2 0x31C JUMP JUMPDEST POP POP JUMP JUMPDEST PUSH1 0x0 DUP4 DUP4 DUP2 ADD SWAP1 PUSH2 0x129 SWAP2 SWAP1 PUSH2 0xA34 JUMP JUMPDEST SWAP1 POP PUSH1 0x0 DUP2 PUSH1 0x20 ADD MLOAD PUSH1 0x0 SHR SWAP1 POP PUSH2 0x143 DUP2 CALLER ADDRESS DUP7 PUSH2 0x452 JUMP JUMPDEST DUP2 PUSH1 0x0 ADD MLOAD PUSH20 0xFFFFFFFFFFFFFFFFFFFFFFFFFFFFFFFFFFFFFFFF AND PUSH4 0xF35E37D3 CALLVALUE DUP5 PUSH1 0x20 ADD MLOAD DUP7 DUP7 PUSH1 0x40 ADD MLOAD DUP8 PUSH1 0x60 ADD MLOAD DUP9 PUSH1 0x80 ADD MLOAD DUP10 PUSH1 0xA0 ADD MLOAD DUP11 PUSH1 0xC0 ADD MLOAD PUSH1 0x40 MLOAD DUP10 PUSH4 0xFFFFFFFF AND PUSH1 0xE0 SHL DUP2 MSTORE PUSH1 0x4 ADD PUSH2 0x1A5 SWAP8 SWAP7 SWAP6 SWAP5 SWAP4 SWAP3 SWAP2 SWAP1 PUSH2 0xB05 JUMP JUMPDEST PUSH1 0x0 PUSH1 0x40 MLOAD DUP1 DUP4 SUB DUP2 DUP6 DUP9 DUP1 EXTCODESIZE ISZERO DUP1 ISZERO PUSH2 0x1BE JUMPI PUSH1 0x0 DUP1 REVERT JUMPDEST POP GAS CALL ISZERO DUP1 ISZERO PUSH2 0x1D2 JUMPI RETURNDATASIZE PUSH1 0x0 DUP1 RETURNDATACOPY RETURNDATASIZE PUSH1 0x0 REVERT JUMPDEST POP POP POP POP POP POP POP POP POP POP JUMP JUMPDEST PUSH2 0x1E6 PUSH2 0x29E JUMP JUMPDEST PUSH2 0x1F0 PUSH1 0x0 PUSH2 0x58B JUMP JUMPDEST JUMP JUMPDEST PUSH1 0x0 DUP1 PUSH1 0x0 SWAP1 SLOAD SWAP1 PUSH2 0x100 EXP SWAP1 DIV PUSH20 0xFFFFFFFFFFFFFFFFFFFFFFFFFFFFFFFFFFFFFFFF AND SWAP1 POP SWAP1 JUMP JUMPDEST PUSH2 0x223 PUSH2 0x29E JUMP JUMPDEST PUSH1 0x0 PUSH20 0xFFFFFFFFFFFFFFFFFFFFFFFFFFFFFFFFFFFFFFFF AND DUP2 PUSH20 0xFFFFFFFFFFFFFFFFFFFFFFFFFFFFFFFFFFFFFFFF AND SUB PUSH2 0x292 JUMPI PUSH1 0x40 MLOAD PUSH32 0x8C379A000000000000000000000000000000000000000000000000000000000 DUP2 MSTORE PUSH1 0x4 ADD PUSH2 0x289 SWAP1 PUSH2 0xBF7 JUMP JUMPDEST PUSH1 0x40 MLOAD DUP1 SWAP2 SUB SWAP1 REVERT JUMPDEST PUSH2 0x29B DUP2 PUSH2 0x58B JUMP JUMPDEST POP JUMP JUMPDEST PUSH2 0x2A6 PUSH2 0x64F JUMP JUMPDEST PUSH20 0xFFFFFFFFFFFFFFFFFFFFFFFFFFFFFFFFFFFFFFFF AND PUSH2 0x2C4 PUSH2 0x1F2 JUMP JUMPDEST PUSH20 0xFFFFFFFFFFFFFFFFFFFFFFFFFFFFFFFFFFFFFFFF AND EQ PUSH2 0x31A JUMPI PUSH1 0x40 MLOAD PUSH32 0x8C379A000000000000000000000000000000000000000000000000000000000 DUP2 MSTORE PUSH1 0x4 ADD PUSH2 0x311 SWAP1 PUSH2 0xC63 JUMP JUMPDEST PUSH1 0x40 MLOAD DUP1 SWAP2 SUB SWAP1 REVERT JUMPDEST JUMP JUMPDEST PUSH1 0x0 DUP1 DUP5 PUSH20 0xFFFFFFFFFFFFFFFFFFFFFFFFFFFFFFFFFFFFFFFF AND PUSH4 0x95EA7B3 DUP6 DUP6 PUSH1 0x40 MLOAD PUSH1 0x24 ADD PUSH2 0x34E SWAP3 SWAP2 SWAP1 PUSH2 0xC83 JUMP JUMPDEST PUSH1 0x40 MLOAD PUSH1 0x20 DUP2 DUP4 SUB SUB DUP2 MSTORE SWAP1 PUSH1 0x40 MSTORE SWAP1 PUSH1 0xE0 SHL PUSH1 0x20 DUP3 ADD DUP1 MLOAD PUSH28 0xFFFFFFFFFFFFFFFFFFFFFFFFFFFFFFFFFFFFFFFFFFFFFFFFFFFFFFFF DUP4 DUP2 DUP4 AND OR DUP4 MSTORE POP POP POP POP PUSH1 0x40 MLOAD PUSH2 0x39C SWAP2 SWAP1 PUSH2 0xD1D JUMP JUMPDEST PUSH1 0x0 PUSH1 0x40 MLOAD DUP1 DUP4 SUB DUP2 PUSH1 0x0 DUP7 GAS CALL SWAP2 POP POP RETURNDATASIZE DUP1 PUSH1 0x0 DUP2 EQ PUSH2 0x3D9 JUMPI PUSH1 0x40 MLOAD SWAP2 POP PUSH1 0x1F NOT PUSH1 0x3F RETURNDATASIZE ADD AND DUP3 ADD PUSH1 0x40 MSTORE RETURNDATASIZE DUP3 MSTORE RETURNDATASIZE PUSH1 0x0 PUSH1 0x20 DUP5 ADD RETURNDATACOPY PUSH2 0x3DE JUMP JUMPDEST PUSH1 0x60 SWAP2 POP JUMPDEST POP SWAP2 POP SWAP2 POP DUP2 DUP1 ISZERO PUSH2 0x40C JUMPI POP PUSH1 0x0 DUP2 MLOAD EQ DUP1 PUSH2 0x40B JUMPI POP DUP1 DUP1 PUSH1 0x20 ADD SWAP1 MLOAD DUP2 ADD SWAP1 PUSH2 0x40A SWAP2 SWAP1 PUSH2 0xD6C JUMP JUMPDEST JUMPDEST JUMPDEST PUSH2 0x44B JUMPI PUSH1 0x40 MLOAD PUSH32 0x8C379A000000000000000000000000000000000000000000000000000000000 DUP2 MSTORE PUSH1 0x4 ADD PUSH2 0x442 SWAP1 PUSH2 0xDE5 JUMP JUMPDEST PUSH1 0x40 MLOAD DUP1 SWAP2 SUB SWAP1 REVERT JUMPDEST POP POP POP POP POP JUMP JUMPDEST PUSH1 0x0 DUP1 DUP6 PUSH20 0xFFFFFFFFFFFFFFFFFFFFFFFFFFFFFFFFFFFFFFFF AND PUSH4 0x23B872DD DUP7 DUP7 DUP7 PUSH1 0x40 MLOAD PUSH1 0x24 ADD PUSH2 0x486 SWAP4 SWAP3 SWAP2 SWAP1 PUSH2 0xE05 JUMP JUMPDEST PUSH1 0x40 MLOAD PUSH1 0x20 DUP2 DUP4 SUB SUB DUP2 MSTORE SWAP1 PUSH1 0x40 MSTORE SWAP1 PUSH1 0xE0 SHL PUSH1 0x20 DUP3 ADD DUP1 MLOAD PUSH28 0xFFFFFFFFFFFFFFFFFFFFFFFFFFFFFFFFFFFFFFFFFFFFFFFFFFFFFFFF DUP4 DUP2 DUP4 AND OR DUP4 MSTORE POP POP POP POP PUSH1 0x40 MLOAD PUSH2 0x4D4 SWAP2 SWAP1 PUSH2 0xD1D JUMP JUMPDEST PUSH1 0x0 PUSH1 0x40 MLOAD DUP1 DUP4 SUB DUP2 PUSH1 0x0 DUP7 GAS CALL SWAP2 POP POP RETURNDATASIZE DUP1 PUSH1 0x0 DUP2 EQ PUSH2 0x511 JUMPI PUSH1 0x40 MLOAD SWAP2 POP PUSH1 0x1F NOT PUSH1 0x3F RETURNDATASIZE ADD AND DUP3 ADD PUSH1 0x40 MSTORE RETURNDATASIZE DUP3 MSTORE RETURNDATASIZE PUSH1 0x0 PUSH1 0x20 DUP5 ADD RETURNDATACOPY PUSH2 0x516 JUMP JUMPDEST PUSH1 0x60 SWAP2 POP JUMPDEST POP SWAP2 POP SWAP2 POP DUP2 DUP1 ISZERO PUSH2 0x544 JUMPI POP PUSH1 0x0 DUP2 MLOAD EQ DUP1 PUSH2 0x543 JUMPI POP DUP1 DUP1 PUSH1 0x20 ADD SWAP1 MLOAD DUP2 ADD SWAP1 PUSH2 0x542 SWAP2 SWAP1 PUSH2 0xD6C JUMP JUMPDEST JUMPDEST JUMPDEST PUSH2 0x583 JUMPI PUSH1 0x40 MLOAD PUSH32 0x8C379A000000000000000000000000000000000000000000000000000000000 DUP2 MSTORE PUSH1 0x4 ADD PUSH2 0x57A SWAP1 PUSH2 0xE88 JUMP JUMPDEST PUSH1 0x40 MLOAD DUP1 SWAP2 SUB SWAP1 REVERT JUMPDEST POP POP POP POP POP POP JUMP JUMPDEST PUSH1 0x0 DUP1 PUSH1 0x0 SWAP1 SLOAD SWAP1 PUSH2 0x100 EXP SWAP1 DIV PUSH20 0xFFFFFFFFFFFFFFFFFFFFFFFFFFFFFFFFFFFFFFFF AND SWAP1 POP DUP2 PUSH1 0x0 DUP1 PUSH2 0x100 EXP DUP2 SLOAD DUP2 PUSH20 0xFFFFFFFFFFFFFFFFFFFFFFFFFFFFFFFFFFFFFFFF MUL NOT AND SWAP1 DUP4 PUSH20 0xFFFFFFFFFFFFFFFFFFFFFFFFFFFFFFFFFFFFFFFF AND MUL OR SWAP1 SSTORE POP DUP2 PUSH20 0xFFFFFFFFFFFFFFFFFFFFFFFFFFFFFFFFFFFFFFFF AND DUP2 PUSH20 0xFFFFFFFFFFFFFFFFFFFFFFFFFFFFFFFFFFFFFFFF AND PUSH32 0x8BE0079C531659141344CD1FD0A4F28419497F9722A3DAAFE3B4186F6B6457E0 PUSH1 0x40 MLOAD PUSH1 0x40 MLOAD DUP1 SWAP2 SUB SWAP1 LOG3 POP POP JUMP JUMPDEST PUSH1 0x0 CALLER SWAP1 POP SWAP1 JUMP JUMPDEST PUSH1 0x0 PUSH1 0x40 MLOAD SWAP1 POP SWAP1 JUMP JUMPDEST PUSH1 0x0 DUP1 REVERT JUMPDEST PUSH1 0x0 DUP1 REVERT JUMPDEST PUSH1 0x0 PUSH20 0xFFFFFFFFFFFFFFFFFFFFFFFFFFFFFFFFFFFFFFFF DUP3 AND SWAP1 POP SWAP2 SWAP1 POP JUMP JUMPDEST PUSH1 0x0 PUSH2 0x696 DUP3 PUSH2 0x66B JUMP JUMPDEST SWAP1 POP SWAP2 SWAP1 POP JUMP JUMPDEST PUSH2 0x6A6 DUP2 PUSH2 0x68B JUMP JUMPDEST DUP2 EQ PUSH2 0x6B1 JUMPI PUSH1 0x0 DUP1 REVERT JUMPDEST POP JUMP JUMPDEST PUSH1 0x0 DUP2 CALLDATALOAD SWAP1 POP PUSH2 0x6C3 DUP2 PUSH2 0x69D JUMP JUMPDEST SWAP3 SWAP2 POP POP JUMP JUMPDEST PUSH1 0x0 DUP1 PUSH1 0x40 DUP4 DUP6 SUB SLT ISZERO PUSH2 0x6E0 JUMPI PUSH2 0x6DF PUSH2 0x661 JUMP JUMPDEST JUMPDEST PUSH1 0x0 PUSH2 0x6EE DUP6 DUP3 DUP7 ADD PUSH2 0x6B4 JUMP JUMPDEST SWAP3 POP POP PUSH1 0x20 PUSH2 0x6FF DUP6 DUP3 DUP7 ADD PUSH2 0x6B4 JUMP JUMPDEST SWAP2 POP POP SWAP3 POP SWAP3 SWAP1 POP JUMP JUMPDEST PUSH1 0x0 DUP1 REVERT JUMPDEST PUSH1 0x0 DUP1 REVERT JUMPDEST PUSH1 0x0 DUP1 REVERT JUMPDEST PUSH1 0x0 DUP1 DUP4 PUSH1 0x1F DUP5 ADD SLT PUSH2 0x72E JUMPI PUSH2 0x72D PUSH2 0x709 JUMP JUMPDEST JUMPDEST DUP3 CALLDATALOAD SWAP1 POP PUSH8 0xFFFFFFFFFFFFFFFF DUP2 GT ISZERO PUSH2 0x74B JUMPI PUSH2 0x74A PUSH2 0x70E JUMP JUMPDEST JUMPDEST PUSH1 0x20 DUP4 ADD SWAP2 POP DUP4 PUSH1 0x1 DUP3 MUL DUP4 ADD GT ISZERO PUSH2 0x767 JUMPI PUSH2 0x766 PUSH2 0x713 JUMP JUMPDEST JUMPDEST SWAP3 POP SWAP3 SWAP1 POP JUMP JUMPDEST PUSH1 0x0 DUP2 SWAP1 POP SWAP2 SWAP1 POP JUMP JUMPDEST PUSH2 0x781 DUP2 PUSH2 0x76E JUMP JUMPDEST DUP2 EQ PUSH2 0x78C JUMPI PUSH1 0x0 DUP1 REVERT JUMPDEST POP JUMP JUMPDEST PUSH1 0x0 DUP2 CALLDATALOAD SWAP1 POP PUSH2 0x79E DUP2 PUSH2 0x778 JUMP JUMPDEST SWAP3 SWAP2 POP POP JUMP JUMPDEST PUSH1 0x0 DUP1 PUSH1 0x0 PUSH1 0x40 DUP5 DUP7 SUB SLT ISZERO PUSH2 0x7BD JUMPI PUSH2 0x7BC PUSH2 0x661 JUMP JUMPDEST JUMPDEST PUSH1 0x0 DUP5 ADD CALLDATALOAD PUSH8 0xFFFFFFFFFFFFFFFF DUP2 GT ISZERO PUSH2 0x7DB JUMPI PUSH2 0x7DA PUSH2 0x666 JUMP JUMPDEST JUMPDEST PUSH2 0x7E7 DUP7 DUP3 DUP8 ADD PUSH2 0x718 JUMP JUMPDEST SWAP4 POP SWAP4 POP POP PUSH1 0x20 PUSH2 0x7FA DUP7 DUP3 DUP8 ADD PUSH2 0x78F JUMP JUMPDEST SWAP2 POP POP SWAP3 POP SWAP3 POP SWAP3 JUMP JUMPDEST PUSH2 0x80D DUP2 PUSH2 0x68B JUMP JUMPDEST DUP3 MSTORE POP POP JUMP JUMPDEST PUSH1 0x0 PUSH1 0x20 DUP3 ADD SWAP1 POP PUSH2 0x828 PUSH1 0x0 DUP4 ADD DUP5 PUSH2 0x804 JUMP JUMPDEST SWAP3 SWAP2 POP POP JUMP JUMPDEST PUSH1 0x0 PUSH1 0x20 DUP3 DUP5 SUB SLT ISZERO PUSH2 0x844 JUMPI PUSH2 0x843 PUSH2 0x661 JUMP JUMPDEST JUMPDEST PUSH1 0x0 PUSH2 0x852 DUP5 DUP3 DUP6 ADD PUSH2 0x6B4 JUMP JUMPDEST SWAP2 POP POP SWAP3 SWAP2 POP POP JUMP JUMPDEST PUSH1 0x0 DUP1 REVERT JUMPDEST PUSH1 0x0 PUSH1 0x1F NOT PUSH1 0x1F DUP4 ADD AND SWAP1 POP SWAP2 SWAP1 POP JUMP JUMPDEST PUSH32 0x4E487B7100000000000000000000000000000000000000000000000000000000 PUSH1 0x0 MSTORE PUSH1 0x41 PUSH1 0x4 MSTORE PUSH1 0x24 PUSH1 0x0 REVERT JUMPDEST PUSH2 0x8A9 DUP3 PUSH2 0x860 JUMP JUMPDEST DUP2 ADD DUP2 DUP2 LT PUSH8 0xFFFFFFFFFFFFFFFF DUP3 GT OR ISZERO PUSH2 0x8C8 JUMPI PUSH2 0x8C7 PUSH2 0x871 JUMP JUMPDEST JUMPDEST DUP1 PUSH1 0x40 MSTORE POP POP POP JUMP JUMPDEST PUSH1 0x0 PUSH2 0x8DB PUSH2 0x657 JUMP JUMPDEST SWAP1 POP PUSH2 0x8E7 DUP3 DUP3 PUSH2 0x8A0 JUMP JUMPDEST SWAP2 SWAP1 POP JUMP JUMPDEST PUSH1 0x0 DUP2 SWAP1 POP SWAP2 SWAP1 POP JUMP JUMPDEST PUSH2 0x8FF DUP2 PUSH2 0x8EC JUMP JUMPDEST DUP2 EQ PUSH2 0x90A JUMPI PUSH1 0x0 DUP1 REVERT JUMPDEST POP JUMP JUMPDEST PUSH1 0x0 DUP2 CALLDATALOAD SWAP1 POP PUSH2 0x91C DUP2 PUSH2 0x8F6 JUMP JUMPDEST SWAP3 SWAP2 POP POP JUMP JUMPDEST PUSH1 0x0 PUSH1 0xFF DUP3 AND SWAP1 POP SWAP2 SWAP1 POP JUMP JUMPDEST PUSH2 0x938 DUP2 PUSH2 0x922 JUMP JUMPDEST DUP2 EQ PUSH2 0x943 JUMPI PUSH1 0x0 DUP1 REVERT JUMPDEST POP JUMP JUMPDEST PUSH1 0x0 DUP2 CALLDATALOAD SWAP1 POP PUSH2 0x955 DUP2 PUSH2 0x92F JUMP JUMPDEST SWAP3 SWAP2 POP POP JUMP JUMPDEST PUSH1 0x4 DUP2 LT PUSH2 0x968 JUMPI PUSH1 0x0 DUP1 REVERT JUMPDEST POP JUMP JUMPDEST PUSH1 0x0 DUP2 CALLDATALOAD SWAP1 POP PUSH2 0x97A DUP2 PUSH2 0x95B JUMP JUMPDEST SWAP3 SWAP2 POP POP JUMP JUMPDEST PUSH1 0x0 PUSH1 0xE0 DUP3 DUP5 SUB SLT ISZERO PUSH2 0x996 JUMPI PUSH2 0x995 PUSH2 0x85B JUMP JUMPDEST JUMPDEST PUSH2 0x9A0 PUSH1 0xE0 PUSH2 0x8D1 JUMP JUMPDEST SWAP1 POP PUSH1 0x0 PUSH2 0x9B0 DUP5 DUP3 DUP6 ADD PUSH2 0x6B4 JUMP JUMPDEST PUSH1 0x0 DUP4 ADD MSTORE POP PUSH1 0x20 PUSH2 0x9C4 DUP5 DUP3 DUP6 ADD PUSH2 0x90D JUMP JUMPDEST PUSH1 0x20 DUP4 ADD MSTORE POP PUSH1 0x40 PUSH2 0x9D8 DUP5 DUP3 DUP6 ADD PUSH2 0x90D JUMP JUMPDEST PUSH1 0x40 DUP4 ADD MSTORE POP PUSH1 0x60 PUSH2 0x9EC DUP5 DUP3 DUP6 ADD PUSH2 0x946 JUMP JUMPDEST PUSH1 0x60 DUP4 ADD MSTORE POP PUSH1 0x80 PUSH2 0xA00 DUP5 DUP3 DUP6 ADD PUSH2 0x90D JUMP JUMPDEST PUSH1 0x80 DUP4 ADD MSTORE POP PUSH1 0xA0 PUSH2 0xA14 DUP5 DUP3 DUP6 ADD PUSH2 0x78F JUMP JUMPDEST PUSH1 0xA0 DUP4 ADD MSTORE POP PUSH1 0xC0 PUSH2 0xA28 DUP5 DUP3 DUP6 ADD PUSH2 0x96B JUMP JUMPDEST PUSH1 0xC0 DUP4 ADD MSTORE POP SWAP3 SWAP2 POP POP JUMP JUMPDEST PUSH1 0x0 PUSH1 0xE0 DUP3 DUP5 SUB SLT ISZERO PUSH2 0xA4A JUMPI PUSH2 0xA49 PUSH2 0x661 JUMP JUMPDEST JUMPDEST PUSH1 0x0 PUSH2 0xA58 DUP5 DUP3 DUP6 ADD PUSH2 0x980 JUMP JUMPDEST SWAP2 POP POP SWAP3 SWAP2 POP POP JUMP JUMPDEST PUSH2 0xA6A DUP2 PUSH2 0x8EC JUMP JUMPDEST DUP3 MSTORE POP POP JUMP JUMPDEST PUSH2 0xA79 DUP2 PUSH2 0x76E JUMP JUMPDEST DUP3 MSTORE POP POP JUMP JUMPDEST PUSH2 0xA88 DUP2 PUSH2 0x922 JUMP JUMPDEST DUP3 MSTORE POP POP JUMP JUMPDEST PUSH32 0x4E487B7100000000000000000000000000000000000000000000000000000000 PUSH1 0x0 MSTORE PUSH1 0x21 PUSH1 0x4 MSTORE PUSH1 0x24 PUSH1 0x0 REVERT JUMPDEST PUSH1 0x4 DUP2 LT PUSH2 0xACE JUMPI PUSH2 0xACD PUSH2 0xA8E JUMP JUMPDEST JUMPDEST POP JUMP JUMPDEST PUSH1 0x0 DUP2 SWAP1 POP PUSH2 0xADF DUP3 PUSH2 0xABD JUMP JUMPDEST SWAP2 SWAP1 POP JUMP JUMPDEST PUSH1 0x0 PUSH2 0xAEF DUP3 PUSH2 0xAD1 JUMP JUMPDEST SWAP1 POP SWAP2 SWAP1 POP JUMP JUMPDEST PUSH2 0xAFF DUP2 PUSH2 0xAE4 JUMP JUMPDEST DUP3 MSTORE POP POP JUMP JUMPDEST PUSH1 0x0 PUSH1 0xE0 DUP3 ADD SWAP1 POP PUSH2 0xB1A PUSH1 0x0 DUP4 ADD DUP11 PUSH2 0xA61 JUMP JUMPDEST PUSH2 0xB27 PUSH1 0x20 DUP4 ADD DUP10 PUSH2 0xA70 JUMP JUMPDEST PUSH2 0xB34 PUSH1 0x40 DUP4 ADD DUP9 PUSH2 0xA61 JUMP JUMPDEST PUSH2 0xB41 PUSH1 0x60 DUP4 ADD DUP8 PUSH2 0xA7F JUMP JUMPDEST PUSH2 0xB4E PUSH1 0x80 DUP4 ADD DUP7 PUSH2 0xA61 JUMP JUMPDEST PUSH2 0xB5B PUSH1 0xA0 DUP4 ADD DUP6 PUSH2 0xA70 JUMP JUMPDEST PUSH2 0xB68 PUSH1 0xC0 DUP4 ADD DUP5 PUSH2 0xAF6 JUMP JUMPDEST SWAP9 SWAP8 POP POP POP POP POP POP POP POP JUMP JUMPDEST PUSH1 0x0 DUP3 DUP3 MSTORE PUSH1 0x20 DUP3 ADD SWAP1 POP SWAP3 SWAP2 POP POP JUMP JUMPDEST PUSH32 0x4F776E61626C653A206E6577206F776E657220697320746865207A65726F2061 PUSH1 0x0 DUP3 ADD MSTORE PUSH32 0x6464726573730000000000000000000000000000000000000000000000000000 PUSH1 0x20 DUP3 ADD MSTORE POP JUMP JUMPDEST PUSH1 0x0 PUSH2 0xBE1 PUSH1 0x26 DUP4 PUSH2 0xB74 JUMP JUMPDEST SWAP2 POP PUSH2 0xBEC DUP3 PUSH2 0xB85 JUMP JUMPDEST PUSH1 0x40 DUP3 ADD SWAP1 POP SWAP2 SWAP1 POP JUMP JUMPDEST PUSH1 0x0 PUSH1 0x20 DUP3 ADD SWAP1 POP DUP2 DUP2 SUB PUSH1 0x0 DUP4 ADD MSTORE PUSH2 0xC10 DUP2 PUSH2 0xBD4 JUMP JUMPDEST SWAP1 POP SWAP2 SWAP1 POP JUMP JUMPDEST PUSH32 0x4F776E61626C653A2063616C6C6572206973206E6F7420746865206F776E6572 PUSH1 0x0 DUP3 ADD MSTORE POP JUMP JUMPDEST PUSH1 0x0 PUSH2 0xC4D PUSH1 0x20 DUP4 PUSH2 0xB74 JUMP JUMPDEST SWAP2 POP PUSH2 0xC58 DUP3 PUSH2 0xC17 JUMP JUMPDEST PUSH1 0x20 DUP3 ADD SWAP1 POP SWAP2 SWAP1 POP JUMP JUMPDEST PUSH1 0x0 PUSH1 0x20 DUP3 ADD SWAP1 POP DUP2 DUP2 SUB PUSH1 0x0 DUP4 ADD MSTORE PUSH2 0xC7C DUP2 PUSH2 0xC40 JUMP JUMPDEST SWAP1 POP SWAP2 SWAP1 POP JUMP JUMPDEST PUSH1 0x0 PUSH1 0x40 DUP3 ADD SWAP1 POP PUSH2 0xC98 PUSH1 0x0 DUP4 ADD DUP6 PUSH2 0x804 JUMP JUMPDEST PUSH2 0xCA5 PUSH1 0x20 DUP4 ADD DUP5 PUSH2 0xA70 JUMP JUMPDEST SWAP4 SWAP3 POP POP POP JUMP JUMPDEST PUSH1 0x0 DUP2 MLOAD SWAP1 POP SWAP2 SWAP1 POP JUMP JUMPDEST PUSH1 0x0 DUP2 SWAP1 POP SWAP3 SWAP2 POP POP JUMP JUMPDEST PUSH1 0x0 JUMPDEST DUP4 DUP2 LT ISZERO PUSH2 0xCE0 JUMPI DUP1 DUP3 ADD MLOAD DUP2 DUP5 ADD MSTORE PUSH1 0x20 DUP2 ADD SWAP1 POP PUSH2 0xCC5 JUMP JUMPDEST PUSH1 0x0 DUP5 DUP5 ADD MSTORE POP POP POP POP JUMP JUMPDEST PUSH1 0x0 PUSH2 0xCF7 DUP3 PUSH2 0xCAC JUMP JUMPDEST PUSH2 0xD01 DUP2 DUP6 PUSH2 0xCB7 JUMP JUMPDEST SWAP4 POP PUSH2 0xD11 DUP2 DUP6 PUSH1 0x20 DUP7 ADD PUSH2 0xCC2 JUMP JUMPDEST DUP1 DUP5 ADD SWAP2 POP POP SWAP3 SWAP2 POP POP JUMP JUMPDEST PUSH1 0x0 PUSH2 0xD29 DUP3 DUP5 PUSH2 0xCEC JUMP JUMPDEST SWAP2 POP DUP2 SWAP1 POP SWAP3 SWAP2 POP POP JUMP JUMPDEST PUSH1 0x0 DUP2 ISZERO ISZERO SWAP1 POP SWAP2 SWAP1 POP JUMP JUMPDEST PUSH2 0xD49 DUP2 PUSH2 0xD34 JUMP JUMPDEST DUP2 EQ PUSH2 0xD54 JUMPI PUSH1 0x0 DUP1 REVERT JUMPDEST POP JUMP JUMPDEST PUSH1 0x0 DUP2 MLOAD SWAP1 POP PUSH2 0xD66 DUP2 PUSH2 0xD40 JUMP JUMPDEST SWAP3 SWAP2 POP POP JUMP JUMPDEST PUSH1 0x0 PUSH1 0x20 DUP3 DUP5 SUB SLT ISZERO PUSH2 0xD82 JUMPI PUSH2 0xD81 PUSH2 0x661 JUMP JUMPDEST JUMPDEST PUSH1 0x0 PUSH2 0xD90 DUP5 DUP3 DUP6 ADD PUSH2 0xD57 JUMP JUMPDEST SWAP2 POP POP SWAP3 SWAP2 POP POP JUMP JUMPDEST PUSH32 0x5472616E7366657248656C7065723A73616665417070726F7665000000000000 PUSH1 0x0 DUP3 ADD MSTORE POP JUMP JUMPDEST PUSH1 0x0 PUSH2 0xDCF PUSH1 0x1A DUP4 PUSH2 0xB74 JUMP JUMPDEST SWAP2 POP PUSH2 0xDDA DUP3 PUSH2 0xD99 JUMP JUMPDEST PUSH1 0x20 DUP3 ADD SWAP1 POP SWAP2 SWAP1 POP JUMP JUMPDEST PUSH1 0x0 PUSH1 0x20 DUP3 ADD SWAP1 POP DUP2 DUP2 SUB PUSH1 0x0 DUP4 ADD MSTORE PUSH2 0xDFE DUP2 PUSH2 0xDC2 JUMP JUMPDEST SWAP1 POP SWAP2 SWAP1 POP JUMP JUMPDEST PUSH1 0x0 PUSH1 0x60 DUP3 ADD SWAP1 POP PUSH2 0xE1A PUSH1 0x0 DUP4 ADD DUP7 PUSH2 0x804 JUMP JUMPDEST PUSH2 0xE27 PUSH1 0x20 DUP4 ADD DUP6 PUSH2 0x804 JUMP JUMPDEST PUSH2 0xE34 PUSH1 0x40 DUP4 ADD DUP5 PUSH2 0xA70 JUMP JUMPDEST SWAP5 SWAP4 POP POP POP POP JUMP JUMPDEST PUSH32 0x5472616E7366657248656C7065723A736166655472616E7366657246726F6D00 PUSH1 0x0 DUP3 ADD MSTORE POP JUMP JUMPDEST PUSH1 0x0 PUSH2 0xE72 PUSH1 0x1F DUP4 PUSH2 0xB74 JUMP JUMPDEST SWAP2 POP PUSH2 0xE7D DUP3 PUSH2 0xE3C JUMP JUMPDEST PUSH1 0x20 DUP3 ADD SWAP1 POP SWAP2 SWAP1 POP JUMP JUMPDEST PUSH1 0x0 PUSH1 0x20 DUP3 ADD SWAP1 POP DUP2 DUP2 SUB PUSH1 0x0 DUP4 ADD MSTORE PUSH2 0xEA1 DUP2 PUSH2 0xE65 JUMP JUMPDEST SWAP1 POP SWAP2 SWAP1 POP JUMP INVALID LOG2 PUSH5 0x6970667358 0x22 SLT KECCAK256 SHL RETURN 0xC3 PUSH20 0x3B43E9A919743549E5219E8B95D614A5BC2FF3C9 0xCD 0xF8 0xD5 0x2F BLOCKHASH PUSH10 0xF95164736F6C63430008 SLT STOP CALLER "
				},
				"gasEstimates": {
					"creation": {
						"codeDepositCost": "761200",
						"executionCost": "infinite",
						"totalCost": "infinite"
					},
					"external": {
						"Bridge(bytes,uint256)": "infinite",
						"approveToken(address,address)": "infinite",
						"owner()": "2566",
						"renounceOwnership()": "30420",
						"transferOwnership(address)": "30810"
					}
				},
				"methodIdentifiers": {
					"Bridge(bytes,uint256)": "0a2fb374",
					"approveToken(address,address)": "03105b04",
					"owner()": "8da5cb5b",
					"renounceOwnership()": "715018a6",
					"transferOwnership(address)": "f2fde38b"
				}
			},
			"storageLayout": {
				"storage": [
					{
						"astId": 7,
						"contract": "contracts/AllBridge.sol:ALLBridge",
						"label": "_owner",
						"offset": 0,
						"slot": "0",
						"type": "t_address"
					},
					{
						"astId": 171,
						"contract": "contracts/AllBridge.sol:ALLBridge",
						"label": "MAX_INT",
						"offset": 0,
						"slot": "1",
						"type": "t_uint256"
					}
				],
				"types": {
					"t_address": {
						"encoding": "inplace",
						"label": "address",
						"numberOfBytes": "20"
					},
					"t_uint256": {
						"encoding": "inplace",
						"label": "uint256",
						"numberOfBytes": "32"
					}
				}
			},
			"userdoc": {
				"kind": "user",
				"methods": {},
				"version": 1
			}
		}
	}
}