{
	"contracts/ExchangeAggregator.sol": {
		"ExchangeAggregator": {
			"abi": [
				{
					"inputs": [],
					"stateMutability": "nonpayable",
					"type": "constructor"
				},
				{
					"anonymous": false,
					"inputs": [
						{
							"indexed": true,
							"internalType": "address",
							"name": "previousOwner",
							"type": "address"
						},
						{
							"indexed": true,
							"internalType": "address",
							"name": "newOwner",
							"type": "address"
						}
					],
					"name": "OwnershipTransferred",
					"type": "event"
				},
				{
					"inputs": [
						{
							"internalType": "address",
							"name": "token",
							"type": "address"
						}
					],
					"name": "Balance",
					"outputs": [
						{
							"internalType": "uint256",
							"name": "",
							"type": "uint256"
						}
					],
					"stateMutability": "view",
					"type": "function"
				},
				{
					"inputs": [],
					"name": "BalanceETH",
					"outputs": [
						{
							"internalType": "uint256",
							"name": "",
							"type": "uint256"
						}
					],
					"stateMutability": "view",
					"type": "function"
				},
				{
					"inputs": [
						{
							"components": [
								{
									"internalType": "address",
									"name": "bridge",
									"type": "address"
								},
								{
									"internalType": "address",
									"name": "tokenIn",
									"type": "address"
								},
								{
									"internalType": "address",
									"name": "sender",
									"type": "address"
								},
								{
									"internalType": "uint256",
									"name": "bridgeFee",
									"type": "uint256"
								},
								{
									"internalType": "bool",
									"name": "afterSwap",
									"type": "bool"
								},
								{
									"internalType": "uint256",
									"name": "amountIn",
									"type": "uint256"
								},
								{
									"internalType": "uint256",
									"name": "feeAmount",
									"type": "uint256"
								},
								{
									"internalType": "bytes",
									"name": "bridgeData",
									"type": "bytes"
								}
							],
							"internalType": "struct IBridgeAggregator.bridgeInput",
							"name": "data",
							"type": "tuple"
						},
						{
							"internalType": "bytes",
							"name": "sig",
							"type": "bytes"
						}
					],
					"name": "Bridge",
					"outputs": [],
					"stateMutability": "payable",
					"type": "function"
				},
				{
					"inputs": [
						{
							"internalType": "address",
							"name": "_feeReciever",
							"type": "address"
						}
					],
					"name": "ChangeFeeReciever",
					"outputs": [],
					"stateMutability": "nonpayable",
					"type": "function"
				},
				{
					"inputs": [
						{
							"components": [
								{
									"internalType": "address",
									"name": "tokenIn",
									"type": "address"
								},
								{
									"internalType": "address",
									"name": "tokenOut",
									"type": "address"
								},
								{
									"internalType": "uint256",
									"name": "totalAmount",
									"type": "uint256"
								},
								{
									"internalType": "uint256",
									"name": "feeAmount",
									"type": "uint256"
								},
								{
									"internalType": "uint256",
									"name": "amountIn",
									"type": "uint256"
								},
								{
									"internalType": "bool",
									"name": "fromContract",
									"type": "bool"
								},
								{
									"internalType": "address",
									"name": "swapper",
									"type": "address"
								},
								{
									"internalType": "bytes",
									"name": "swapperData",
									"type": "bytes"
								},
								{
									"internalType": "address",
									"name": "sender",
									"type": "address"
								},
								{
									"internalType": "address",
									"name": "receiver",
									"type": "address"
								},
								{
									"internalType": "bool",
									"name": "native",
									"type": "bool"
								}
							],
							"internalType": "struct IExchangeAggregator.swapInput",
							"name": "data",
							"type": "tuple"
						},
						{
							"internalType": "bytes",
							"name": "sig",
							"type": "bytes"
						}
					],
					"name": "Swap",
					"outputs": [],
					"stateMutability": "payable",
					"type": "function"
				},
				{
					"inputs": [
						{
							"internalType": "address",
							"name": "token",
							"type": "address"
						},
						{
							"internalType": "address",
							"name": "to",
							"type": "address"
						},
						{
							"internalType": "uint256",
							"name": "amount",
							"type": "uint256"
						}
					],
					"name": "Withdraw",
					"outputs": [],
					"stateMutability": "nonpayable",
					"type": "function"
				},
				{
					"inputs": [
						{
							"internalType": "address",
							"name": "to",
							"type": "address"
						},
						{
							"internalType": "uint256",
							"name": "amount",
							"type": "uint256"
						}
					],
					"name": "WithdrawETH",
					"outputs": [],
					"stateMutability": "payable",
					"type": "function"
				},
				{
					"inputs": [
						{
							"internalType": "address",
							"name": "priceProvider",
							"type": "address"
						},
						{
							"internalType": "address",
							"name": "provider",
							"type": "address"
						},
						{
							"internalType": "address",
							"name": "tA",
							"type": "address"
						},
						{
							"internalType": "address",
							"name": "tB",
							"type": "address"
						},
						{
							"internalType": "uint256",
							"name": "amountIn",
							"type": "uint256"
						},
						{
							"internalType": "uint8",
							"name": "version",
							"type": "uint8"
						}
					],
					"name": "estimateAmountOut",
					"outputs": [
						{
							"internalType": "uint256",
							"name": "amountOut",
							"type": "uint256"
						},
						{
							"internalType": "uint24",
							"name": "fee",
							"type": "uint24"
						}
					],
					"stateMutability": "view",
					"type": "function"
				},
				{
					"inputs": [],
					"name": "feeReciever",
					"outputs": [
						{
							"internalType": "address",
							"name": "",
							"type": "address"
						}
					],
					"stateMutability": "view",
					"type": "function"
				},
				{
					"inputs": [
						{
							"internalType": "bytes[]",
							"name": "data",
							"type": "bytes[]"
						}
					],
					"name": "multicall",
					"outputs": [
						{
							"internalType": "bytes[]",
							"name": "results",
							"type": "bytes[]"
						}
					],
					"stateMutability": "payable",
					"type": "function"
				},
				{
					"inputs": [],
					"name": "owner",
					"outputs": [
						{
							"internalType": "address",
							"name": "",
							"type": "address"
						}
					],
					"stateMutability": "view",
					"type": "function"
				},
				{
					"inputs": [],
					"name": "renounceOwnership",
					"outputs": [],
					"stateMutability": "nonpayable",
					"type": "function"
				},
				{
					"inputs": [],
					"name": "swapAmountOut",
					"outputs": [
						{
							"internalType": "uint256",
							"name": "",
							"type": "uint256"
						}
					],
					"stateMutability": "view",
					"type": "function"
				},
				{
					"inputs": [
						{
							"internalType": "address",
							"name": "newOwner",
							"type": "address"
						}
					],
					"name": "transferOwnership",
					"outputs": [],
					"stateMutability": "nonpayable",
					"type": "function"
				},
				{
					"stateMutability": "payable",
					"type": "receive"
				}
			],
			"devdoc": {
				"kind": "dev",
				"methods": {
					"owner()": {
						"details": "Returns the address of the current owner."
					},
					"renounceOwnership()": {
						"details": "Leaves the contract without owner. It will not be possible to call `onlyOwner` functions anymore. Can only be called by the current owner. NOTE: Renouncing ownership will leave the contract without an owner, thereby removing any functionality that is only available to the owner."
					},
					"transferOwnership(address)": {
						"details": "Transfers ownership of the contract to a new account (`newOwner`). Can only be called by the current owner."
					}
				},
				"version": 1
			},
			"evm": {
				"assembly": "    /* \"contracts/ExchangeAggregator.sol\":486:4145  contract ExchangeAggregator is ... */\n  mstore(0x40, 0x80)\n    /* \"contracts/ExchangeAggregator.sol\":932:986  constructor(){... */\n  callvalue\n  dup1\n  iszero\n  tag_1\n  jumpi\n  0x00\n  dup1\n  revert\ntag_1:\n  pop\n    /* \"@openzeppelin/contracts/access/Ownable.sol\":936:968  _transferOwnership(_msgSender()) */\n  tag_5\n    /* \"@openzeppelin/contracts/access/Ownable.sol\":955:967  _msgSender() */\n  tag_6\n    /* \"@openzeppelin/contracts/access/Ownable.sol\":955:965  _msgSender */\n  shl(0x20, tag_7)\n    /* \"@openzeppelin/contracts/access/Ownable.sol\":955:967  _msgSender() */\n  0x20\n  shr\n  jump\t// in\ntag_6:\n    /* \"@openzeppelin/contracts/access/Ownable.sol\":936:954  _transferOwnership */\n  shl(0x20, tag_8)\n    /* \"@openzeppelin/contracts/access/Ownable.sol\":936:968  _transferOwnership(_msgSender()) */\n  0x20\n  shr\n  jump\t// in\ntag_5:\n    /* \"contracts/ExchangeAggregator.sol\":969:979  msg.sender */\n  caller\n    /* \"contracts/ExchangeAggregator.sol\":955:966  feeReciever */\n  0x01\n  0x00\n    /* \"contracts/ExchangeAggregator.sol\":955:979  feeReciever = msg.sender */\n  0x0100\n  exp\n  dup2\n  sload\n  dup2\n  0xffffffffffffffffffffffffffffffffffffffff\n  mul\n  not\n  and\n  swap1\n  dup4\n  0xffffffffffffffffffffffffffffffffffffffff\n  and\n  mul\n  or\n  swap1\n  sstore\n  pop\n    /* \"contracts/ExchangeAggregator.sol\":486:4145  contract ExchangeAggregator is ... */\n  jump(tag_10)\n    /* \"@openzeppelin/contracts/utils/Context.sol\":640:736  function _msgSender() internal view virtual returns (address) {... */\ntag_7:\n    /* \"@openzeppelin/contracts/utils/Context.sol\":693:700  address */\n  0x00\n    /* \"@openzeppelin/contracts/utils/Context.sol\":719:729  msg.sender */\n  caller\n    /* \"@openzeppelin/contracts/utils/Context.sol\":712:729  return msg.sender */\n  swap1\n  pop\n    /* \"@openzeppelin/contracts/utils/Context.sol\":640:736  function _msgSender() internal view virtual returns (address) {... */\n  swap1\n  jump\t// out\n    /* \"@openzeppelin/contracts/access/Ownable.sol\":2433:2620  function _transferOwnership(address newOwner) internal virtual {... */\ntag_8:\n    /* \"@openzeppelin/contracts/access/Ownable.sol\":2506:2522  address oldOwner */\n  0x00\n    /* \"@openzeppelin/contracts/access/Ownable.sol\":2525:2531  _owner */\n  dup1\n  0x00\n  swap1\n  sload\n  swap1\n  0x0100\n  exp\n  swap1\n  div\n  0xffffffffffffffffffffffffffffffffffffffff\n  and\n    /* \"@openzeppelin/contracts/access/Ownable.sol\":2506:2531  address oldOwner = _owner */\n  swap1\n  pop\n    /* \"@openzeppelin/contracts/access/Ownable.sol\":2550:2558  newOwner */\n  dup2\n    /* \"@openzeppelin/contracts/access/Ownable.sol\":2541:2547  _owner */\n  0x00\n  dup1\n    /* \"@openzeppelin/contracts/access/Ownable.sol\":2541:2558  _owner = newOwner */\n  0x0100\n  exp\n  dup2\n  sload\n  dup2\n  0xffffffffffffffffffffffffffffffffffffffff\n  mul\n  not\n  and\n  swap1\n  dup4\n  0xffffffffffffffffffffffffffffffffffffffff\n  and\n  mul\n  or\n  swap1\n  sstore\n  pop\n    /* \"@openzeppelin/contracts/access/Ownable.sol\":2604:2612  newOwner */\n  dup2\n    /* \"@openzeppelin/contracts/access/Ownable.sol\":2573:2613  OwnershipTransferred(oldOwner, newOwner) */\n  0xffffffffffffffffffffffffffffffffffffffff\n  and\n    /* \"@openzeppelin/contracts/access/Ownable.sol\":2594:2602  oldOwner */\n  dup2\n    /* \"@openzeppelin/contracts/access/Ownable.sol\":2573:2613  OwnershipTransferred(oldOwner, newOwner) */\n  0xffffffffffffffffffffffffffffffffffffffff\n  and\n  0x8be0079c531659141344cd1fd0a4f28419497f9722a3daafe3b4186f6b6457e0\n  mload(0x40)\n  mload(0x40)\n  dup1\n  swap2\n  sub\n  swap1\n  log3\n    /* \"@openzeppelin/contracts/access/Ownable.sol\":2496:2620  {... */\n  pop\n    /* \"@openzeppelin/contracts/access/Ownable.sol\":2433:2620  function _transferOwnership(address newOwner) internal virtual {... */\n  pop\n  jump\t// out\n    /* \"contracts/ExchangeAggregator.sol\":486:4145  contract ExchangeAggregator is ... */\ntag_10:\n  dataSize(sub_0)\n  dup1\n  dataOffset(sub_0)\n  0x00\n  codecopy\n  0x00\n  return\nstop\n\nsub_0: assembly {\n        /* \"contracts/ExchangeAggregator.sol\":486:4145  contract ExchangeAggregator is ... */\n      mstore(0x40, 0x80)\n      jumpi(tag_1, lt(calldatasize, 0x04))\n      shr(0xe0, calldataload(0x00))\n      dup1\n      0x8da5cb5b\n      gt\n      tag_17\n      jumpi\n      dup1\n      0xac9650d8\n      gt\n      tag_18\n      jumpi\n      dup1\n      0xac9650d8\n      eq\n      tag_13\n      jumpi\n      dup1\n      0xddd0fcd5\n      eq\n      tag_14\n      jumpi\n      dup1\n      0xf2fde38b\n      eq\n      tag_15\n      jumpi\n      dup1\n      0xf61db740\n      eq\n      tag_16\n      jumpi\n      jump(tag_2)\n    tag_18:\n      dup1\n      0x8da5cb5b\n      eq\n      tag_10\n      jumpi\n      dup1\n      0x9b1bfa7f\n      eq\n      tag_11\n      jumpi\n      dup1\n      0xa299ed7d\n      eq\n      tag_12\n      jumpi\n      jump(tag_2)\n    tag_17:\n      dup1\n      0x3f464ff5\n      gt\n      tag_19\n      jumpi\n      dup1\n      0x3f464ff5\n      eq\n      tag_6\n      jumpi\n      dup1\n      0x566e45b1\n      eq\n      tag_7\n      jumpi\n      dup1\n      0x5cedfda0\n      eq\n      tag_8\n      jumpi\n      dup1\n      0x715018a6\n      eq\n      tag_9\n      jumpi\n      jump(tag_2)\n    tag_19:\n      dup1\n      0x22cedf7d\n      eq\n      tag_3\n      jumpi\n      dup1\n      0x231da50d\n      eq\n      tag_4\n      jumpi\n      dup1\n      0x239fcf0f\n      eq\n      tag_5\n      jumpi\n      jump(tag_2)\n    tag_1:\n      jumpi(tag_2, calldatasize)\n      stop\n    tag_2:\n      0x00\n      dup1\n      revert\n        /* \"contracts/ExchangeAggregator.sol\":1310:1338  uint256 public swapAmountOut */\n    tag_3:\n      callvalue\n      dup1\n      iszero\n      tag_22\n      jumpi\n      0x00\n      dup1\n      revert\n    tag_22:\n      pop\n      tag_23\n      tag_24\n      jump\t// in\n    tag_23:\n      mload(0x40)\n      tag_25\n      swap2\n      swap1\n      tag_26\n      jump\t// in\n    tag_25:\n      mload(0x40)\n      dup1\n      swap2\n      sub\n      swap1\n      return\n        /* \"contracts/ExchangeAggregator.sol\":3767:3862  function BalanceETH() public view returns(uint256){... */\n    tag_4:\n      callvalue\n      dup1\n      iszero\n      tag_27\n      jumpi\n      0x00\n      dup1\n      revert\n    tag_27:\n      pop\n      tag_28\n      tag_29\n      jump\t// in\n    tag_28:\n      mload(0x40)\n      tag_30\n      swap2\n      swap1\n      tag_26\n      jump\t// in\n    tag_30:\n      mload(0x40)\n      dup1\n      swap2\n      sub\n      swap1\n      return\n        /* \"contracts/ExchangeAggregator.sol\":3638:3761  function Balance(address token) public view returns(uint256) {... */\n    tag_5:\n      callvalue\n      dup1\n      iszero\n      tag_31\n      jumpi\n      0x00\n      dup1\n      revert\n    tag_31:\n      pop\n      tag_32\n      0x04\n      dup1\n      calldatasize\n      sub\n      dup2\n      add\n      swap1\n      tag_33\n      swap2\n      swap1\n      tag_34\n      jump\t// in\n    tag_33:\n      tag_35\n      jump\t// in\n    tag_32:\n      mload(0x40)\n      tag_36\n      swap2\n      swap1\n      tag_26\n      jump\t// in\n    tag_36:\n      mload(0x40)\n      dup1\n      swap2\n      sub\n      swap1\n      return\n        /* \"contracts/ExchangeAggregator.sol\":1344:2605  function Swap(swapInput calldata data,bytes calldata sig) public payable signatureNotProcessed(sig) {... */\n    tag_6:\n      tag_37\n      0x04\n      dup1\n      calldatasize\n      sub\n      dup2\n      add\n      swap1\n      tag_38\n      swap2\n      swap1\n      tag_39\n      jump\t// in\n    tag_38:\n      tag_40\n      jump\t// in\n    tag_37:\n      stop\n        /* \"contracts/ExchangeAggregator.sol\":4011:4142  function WithdrawETH(address to,uint256 amount) public payable onlyOwner {... */\n    tag_7:\n      tag_41\n      0x04\n      dup1\n      calldatasize\n      sub\n      dup2\n      add\n      swap1\n      tag_42\n      swap2\n      swap1\n      tag_43\n      jump\t// in\n    tag_42:\n      tag_44\n      jump\t// in\n    tag_41:\n      stop\n        /* \"contracts/ExchangeAggregator.sol\":2612:3517  function Bridge(bridgeInput calldata data,bytes calldata sig) public payable signatureNotProcessed(sig) {... */\n    tag_8:\n      tag_45\n      0x04\n      dup1\n      calldatasize\n      sub\n      dup2\n      add\n      swap1\n      tag_46\n      swap2\n      swap1\n      tag_47\n      jump\t// in\n    tag_46:\n      tag_48\n      jump\t// in\n    tag_45:\n      stop\n        /* \"@openzeppelin/contracts/access/Ownable.sol\":1831:1932  function renounceOwnership() public virtual onlyOwner {... */\n    tag_9:\n      callvalue\n      dup1\n      iszero\n      tag_49\n      jumpi\n      0x00\n      dup1\n      revert\n    tag_49:\n      pop\n      tag_50\n      tag_51\n      jump\t// in\n    tag_50:\n      stop\n        /* \"@openzeppelin/contracts/access/Ownable.sol\":1201:1286  function owner() public view virtual returns (address) {... */\n    tag_10:\n      callvalue\n      dup1\n      iszero\n      tag_52\n      jumpi\n      0x00\n      dup1\n      revert\n    tag_52:\n      pop\n      tag_53\n      tag_54\n      jump\t// in\n    tag_53:\n      mload(0x40)\n      tag_55\n      swap2\n      swap1\n      tag_56\n      jump\t// in\n    tag_55:\n      mload(0x40)\n      dup1\n      swap2\n      sub\n      swap1\n      return\n        /* \"contracts/ExchangeAggregator.sol\":3868:4005  function Withdraw(address token,address to,uint256 amount) public onlyOwner {... */\n    tag_11:\n      callvalue\n      dup1\n      iszero\n      tag_57\n      jumpi\n      0x00\n      dup1\n      revert\n    tag_57:\n      pop\n      tag_58\n      0x04\n      dup1\n      calldatasize\n      sub\n      dup2\n      add\n      swap1\n      tag_59\n      swap2\n      swap1\n      tag_60\n      jump\t// in\n    tag_59:\n      tag_61\n      jump\t// in\n    tag_58:\n      stop\n        /* \"contracts/ExchangeAggregator.sol\":1027:1304  function estimateAmountOut(address priceProvider, address provider,address tA,address tB,uint256 amountIn,uint8 version) external view returns (uint256 amountOut,uint24 fee){... */\n    tag_12:\n      callvalue\n      dup1\n      iszero\n      tag_62\n      jumpi\n      0x00\n      dup1\n      revert\n    tag_62:\n      pop\n      tag_63\n      0x04\n      dup1\n      calldatasize\n      sub\n      dup2\n      add\n      swap1\n      tag_64\n      swap2\n      swap1\n      tag_65\n      jump\t// in\n    tag_64:\n      tag_66\n      jump\t// in\n    tag_63:\n      mload(0x40)\n      tag_67\n      swap3\n      swap2\n      swap1\n      tag_68\n      jump\t// in\n    tag_67:\n      mload(0x40)\n      dup1\n      swap2\n      sub\n      swap1\n      return\n        /* \"contracts/Multicall.sol\":91:735  function multicall(bytes[] calldata data) public payable returns (bytes[] memory results) {... */\n    tag_13:\n      tag_69\n      0x04\n      dup1\n      calldatasize\n      sub\n      dup2\n      add\n      swap1\n      tag_70\n      swap2\n      swap1\n      tag_71\n      jump\t// in\n    tag_70:\n      tag_72\n      jump\t// in\n    tag_69:\n      mload(0x40)\n      tag_73\n      swap2\n      swap1\n      tag_74\n      jump\t// in\n    tag_73:\n      mload(0x40)\n      dup1\n      swap2\n      sub\n      swap1\n      return\n        /* \"contracts/ExchangeAggregator.sol\":3523:3632  function ChangeFeeReciever(address _feeReciever) public onlyOwner {... */\n    tag_14:\n      callvalue\n      dup1\n      iszero\n      tag_75\n      jumpi\n      0x00\n      dup1\n      revert\n    tag_75:\n      pop\n      tag_76\n      0x04\n      dup1\n      calldatasize\n      sub\n      dup2\n      add\n      swap1\n      tag_77\n      swap2\n      swap1\n      tag_34\n      jump\t// in\n    tag_77:\n      tag_78\n      jump\t// in\n    tag_76:\n      stop\n        /* \"@openzeppelin/contracts/access/Ownable.sol\":2081:2279  function transferOwnership(address newOwner) public virtual onlyOwner {... */\n    tag_15:\n      callvalue\n      dup1\n      iszero\n      tag_79\n      jumpi\n      0x00\n      dup1\n      revert\n    tag_79:\n      pop\n      tag_80\n      0x04\n      dup1\n      calldatasize\n      sub\n      dup2\n      add\n      swap1\n      tag_81\n      swap2\n      swap1\n      tag_34\n      jump\t// in\n    tag_81:\n      tag_82\n      jump\t// in\n    tag_80:\n      stop\n        /* \"contracts/ExchangeAggregator.sol\":600:626  address public feeReciever */\n    tag_16:\n      callvalue\n      dup1\n      iszero\n      tag_83\n      jumpi\n      0x00\n      dup1\n      revert\n    tag_83:\n      pop\n      tag_84\n      tag_85\n      jump\t// in\n    tag_84:\n      mload(0x40)\n      tag_86\n      swap2\n      swap1\n      tag_56\n      jump\t// in\n    tag_86:\n      mload(0x40)\n      dup1\n      swap2\n      sub\n      swap1\n      return\n        /* \"contracts/ExchangeAggregator.sol\":1310:1338  uint256 public swapAmountOut */\n    tag_24:\n      sload(0x03)\n      dup2\n      jump\t// out\n        /* \"contracts/ExchangeAggregator.sol\":3767:3862  function BalanceETH() public view returns(uint256){... */\n    tag_29:\n        /* \"contracts/ExchangeAggregator.sol\":3809:3816  uint256 */\n      0x00\n        /* \"contracts/ExchangeAggregator.sol\":3834:3855  address(this).balance */\n      selfbalance\n        /* \"contracts/ExchangeAggregator.sol\":3827:3855  return address(this).balance */\n      swap1\n      pop\n        /* \"contracts/ExchangeAggregator.sol\":3767:3862  function BalanceETH() public view returns(uint256){... */\n      swap1\n      jump\t// out\n        /* \"contracts/ExchangeAggregator.sol\":3638:3761  function Balance(address token) public view returns(uint256) {... */\n    tag_35:\n        /* \"contracts/ExchangeAggregator.sol\":3690:3697  uint256 */\n      0x00\n        /* \"contracts/ExchangeAggregator.sol\":3723:3728  token */\n      dup2\n        /* \"contracts/ExchangeAggregator.sol\":3716:3739  IERC20(token).balanceOf */\n      0xffffffffffffffffffffffffffffffffffffffff\n      and\n      0x70a08231\n        /* \"contracts/ExchangeAggregator.sol\":3748:3752  this */\n      address\n        /* \"contracts/ExchangeAggregator.sol\":3716:3754  IERC20(token).balanceOf(address(this)) */\n      mload(0x40)\n      dup3\n      0xffffffff\n      and\n      0xe0\n      shl\n      dup2\n      mstore\n      0x04\n      add\n      tag_89\n      swap2\n      swap1\n      tag_56\n      jump\t// in\n    tag_89:\n      0x20\n      mload(0x40)\n      dup1\n      dup4\n      sub\n      dup2\n      dup7\n      gas\n      staticcall\n      iszero\n      dup1\n      iszero\n      tag_91\n      jumpi\n      returndatasize\n      0x00\n      dup1\n      returndatacopy\n      revert(0x00, returndatasize)\n    tag_91:\n      pop\n      pop\n      pop\n      pop\n      mload(0x40)\n      returndatasize\n      not(0x1f)\n      0x1f\n      dup3\n      add\n      and\n      dup3\n      add\n      dup1\n      0x40\n      mstore\n      pop\n      dup2\n      add\n      swap1\n      tag_92\n      swap2\n      swap1\n      tag_93\n      jump\t// in\n    tag_92:\n        /* \"contracts/ExchangeAggregator.sol\":3709:3754  return IERC20(token).balanceOf(address(this)) */\n      swap1\n      pop\n        /* \"contracts/ExchangeAggregator.sol\":3638:3761  function Balance(address token) public view returns(uint256) {... */\n      swap2\n      swap1\n      pop\n      jump\t// out\n        /* \"contracts/ExchangeAggregator.sol\":1344:2605  function Swap(swapInput calldata data,bytes calldata sig) public payable signatureNotProcessed(sig) {... */\n    tag_40:\n        /* \"contracts/ExchangeAggregator.sol\":1439:1442  sig */\n      dup2\n      dup2\n        /* \"contracts/ExchangeAggregator.sol\":806:825  processedSignatures */\n      0x02\n        /* \"contracts/ExchangeAggregator.sol\":826:829  sig */\n      dup3\n      dup3\n        /* \"contracts/ExchangeAggregator.sol\":806:830  processedSignatures[sig] */\n      mload(0x40)\n      tag_95\n      swap3\n      swap2\n      swap1\n      tag_96\n      jump\t// in\n    tag_95:\n      swap1\n      dup2\n      mstore\n      0x20\n      add\n      mload(0x40)\n      dup1\n      swap2\n      sub\n      swap1\n      keccak256\n      0x00\n      swap1\n      sload\n      swap1\n      0x0100\n      exp\n      swap1\n      div\n      0xff\n      and\n        /* \"contracts/ExchangeAggregator.sol\":805:830  !processedSignatures[sig] */\n      iszero\n        /* \"contracts/ExchangeAggregator.sol\":797:864  require(!processedSignatures[sig], \"this txData already processed\") */\n      tag_97\n      jumpi\n      mload(0x40)\n      0x08c379a000000000000000000000000000000000000000000000000000000000\n      dup2\n      mstore\n      0x04\n      add\n      tag_98\n      swap1\n      tag_99\n      jump\t// in\n    tag_98:\n      mload(0x40)\n      dup1\n      swap2\n      sub\n      swap1\n      revert\n    tag_97:\n        /* \"contracts/ExchangeAggregator.sol\":1477:1487  msg.sender */\n      caller\n        /* \"contracts/ExchangeAggregator.sol\":1462:1487  data.sender == msg.sender */\n      0xffffffffffffffffffffffffffffffffffffffff\n      and\n        /* \"contracts/ExchangeAggregator.sol\":1462:1466  data */\n      dup6\n        /* \"contracts/ExchangeAggregator.sol\":1462:1473  data.sender */\n      0x0100\n      add\n      0x20\n      dup2\n      add\n      swap1\n      tag_101\n      swap2\n      swap1\n      tag_34\n      jump\t// in\n    tag_101:\n        /* \"contracts/ExchangeAggregator.sol\":1462:1487  data.sender == msg.sender */\n      0xffffffffffffffffffffffffffffffffffffffff\n      and\n      eq\n        /* \"contracts/ExchangeAggregator.sol\":1454:1505  require(data.sender == msg.sender,\"invalid sender\") */\n      tag_102\n      jumpi\n      mload(0x40)\n      0x08c379a000000000000000000000000000000000000000000000000000000000\n      dup2\n      mstore\n      0x04\n      add\n      tag_103\n      swap1\n      tag_104\n      jump\t// in\n    tag_103:\n      mload(0x40)\n      dup1\n      swap2\n      sub\n      swap1\n      revert\n    tag_102:\n        /* \"contracts/ExchangeAggregator.sol\":1515:1560  utils.checkSig(owner(),abi.encode(data), sig) */\n      tag_105\n        /* \"contracts/ExchangeAggregator.sol\":1530:1537  owner() */\n      tag_106\n        /* \"contracts/ExchangeAggregator.sol\":1530:1535  owner */\n      tag_54\n        /* \"contracts/ExchangeAggregator.sol\":1530:1537  owner() */\n      jump\t// in\n    tag_106:\n        /* \"contracts/ExchangeAggregator.sol\":1549:1553  data */\n      dup7\n        /* \"contracts/ExchangeAggregator.sol\":1538:1554  abi.encode(data) */\n      add(0x20, mload(0x40))\n      tag_107\n      swap2\n      swap1\n      tag_108\n      jump\t// in\n    tag_107:\n      mload(0x40)\n      0x20\n      dup2\n      dup4\n      sub\n      sub\n      dup2\n      mstore\n      swap1\n      0x40\n      mstore\n        /* \"contracts/ExchangeAggregator.sol\":1556:1559  sig */\n      dup7\n      dup7\n        /* \"contracts/ExchangeAggregator.sol\":1515:1560  utils.checkSig(owner(),abi.encode(data), sig) */\n      dup1\n      dup1\n      0x1f\n      add\n      0x20\n      dup1\n      swap2\n      div\n      mul\n      0x20\n      add\n      mload(0x40)\n      swap1\n      dup2\n      add\n      0x40\n      mstore\n      dup1\n      swap4\n      swap3\n      swap2\n      swap1\n      dup2\n      dup2\n      mstore\n      0x20\n      add\n      dup4\n      dup4\n      dup1\n      dup3\n      dup5\n      calldatacopy\n      0x00\n      dup2\n      dup5\n      add\n      mstore\n      not(0x1f)\n      0x1f\n      dup3\n      add\n      and\n      swap1\n      pop\n      dup1\n      dup4\n      add\n      swap3\n      pop\n      pop\n      pop\n      pop\n      pop\n      pop\n      pop\n        /* \"contracts/ExchangeAggregator.sol\":1515:1529  utils.checkSig */\n      tag_109\n        /* \"contracts/ExchangeAggregator.sol\":1515:1560  utils.checkSig(owner(),abi.encode(data), sig) */\n      jump\t// in\n    tag_105:\n        /* \"contracts/ExchangeAggregator.sol\":1570:1580  uint value */\n      0x00\n        /* \"contracts/ExchangeAggregator.sol\":1595:1599  data */\n      dup6\n        /* \"contracts/ExchangeAggregator.sol\":1595:1606  data.native */\n      0x0140\n      add\n      0x20\n      dup2\n      add\n      swap1\n      tag_110\n      swap2\n      swap1\n      tag_111\n      jump\t// in\n    tag_110:\n        /* \"contracts/ExchangeAggregator.sol\":1590:2190  if (!data.native) {... */\n      tag_112\n      jumpi\n        /* \"contracts/ExchangeAggregator.sol\":1627:1631  data */\n      dup6\n        /* \"contracts/ExchangeAggregator.sol\":1627:1644  data.fromContract */\n      0xa0\n      add\n      0x20\n      dup2\n      add\n      swap1\n      tag_113\n      swap2\n      swap1\n      tag_111\n      jump\t// in\n    tag_113:\n        /* \"contracts/ExchangeAggregator.sol\":1622:1766  if (!data.fromContract) {... */\n      tag_114\n      jumpi\n        /* \"contracts/ExchangeAggregator.sol\":1664:1751  TransferHelper.safeTransferFrom(data.tokenIn,msg.sender,address(this),data.totalAmount) */\n      tag_115\n        /* \"contracts/ExchangeAggregator.sol\":1696:1700  data */\n      dup7\n        /* \"contracts/ExchangeAggregator.sol\":1696:1708  data.tokenIn */\n      0x00\n      add\n      0x20\n      dup2\n      add\n      swap1\n      tag_116\n      swap2\n      swap1\n      tag_34\n      jump\t// in\n    tag_116:\n        /* \"contracts/ExchangeAggregator.sol\":1709:1719  msg.sender */\n      caller\n        /* \"contracts/ExchangeAggregator.sol\":1728:1732  this */\n      address\n        /* \"contracts/ExchangeAggregator.sol\":1734:1738  data */\n      dup10\n        /* \"contracts/ExchangeAggregator.sol\":1734:1750  data.totalAmount */\n      0x40\n      add\n      calldataload\n        /* \"contracts/ExchangeAggregator.sol\":1664:1695  TransferHelper.safeTransferFrom */\n      tag_117\n        /* \"contracts/ExchangeAggregator.sol\":1664:1751  TransferHelper.safeTransferFrom(data.tokenIn,msg.sender,address(this),data.totalAmount) */\n      jump\t// in\n    tag_115:\n        /* \"contracts/ExchangeAggregator.sol\":1622:1766  if (!data.fromContract) {... */\n    tag_114:\n        /* \"contracts/ExchangeAggregator.sol\":1800:1801  0 */\n      0x00\n        /* \"contracts/ExchangeAggregator.sol\":1783:1787  data */\n      dup7\n        /* \"contracts/ExchangeAggregator.sol\":1783:1797  data.feeAmount */\n      0x60\n      add\n      calldataload\n        /* \"contracts/ExchangeAggregator.sol\":1783:1801  data.feeAmount > 0 */\n      gt\n        /* \"contracts/ExchangeAggregator.sol\":1779:1903  if (data.feeAmount > 0){... */\n      iszero\n      tag_118\n      jumpi\n        /* \"contracts/ExchangeAggregator.sol\":1820:1888  TransferHelper.safeTransfer(data.tokenIn,feeReciever,data.feeAmount) */\n      tag_119\n        /* \"contracts/ExchangeAggregator.sol\":1848:1852  data */\n      dup7\n        /* \"contracts/ExchangeAggregator.sol\":1848:1860  data.tokenIn */\n      0x00\n      add\n      0x20\n      dup2\n      add\n      swap1\n      tag_120\n      swap2\n      swap1\n      tag_34\n      jump\t// in\n    tag_120:\n        /* \"contracts/ExchangeAggregator.sol\":1861:1872  feeReciever */\n      0x01\n      0x00\n      swap1\n      sload\n      swap1\n      0x0100\n      exp\n      swap1\n      div\n      0xffffffffffffffffffffffffffffffffffffffff\n      and\n        /* \"contracts/ExchangeAggregator.sol\":1873:1877  data */\n      dup9\n        /* \"contracts/ExchangeAggregator.sol\":1873:1887  data.feeAmount */\n      0x60\n      add\n      calldataload\n        /* \"contracts/ExchangeAggregator.sol\":1820:1847  TransferHelper.safeTransfer */\n      tag_121\n        /* \"contracts/ExchangeAggregator.sol\":1820:1888  TransferHelper.safeTransfer(data.tokenIn,feeReciever,data.feeAmount) */\n      jump\t// in\n    tag_119:\n        /* \"contracts/ExchangeAggregator.sol\":1779:1903  if (data.feeAmount > 0){... */\n    tag_118:\n        /* \"contracts/ExchangeAggregator.sol\":1916:1983  TransferHelper.safeApprove(data.tokenIn,data.swapper,data.amountIn) */\n      tag_122\n        /* \"contracts/ExchangeAggregator.sol\":1943:1947  data */\n      dup7\n        /* \"contracts/ExchangeAggregator.sol\":1943:1955  data.tokenIn */\n      0x00\n      add\n      0x20\n      dup2\n      add\n      swap1\n      tag_123\n      swap2\n      swap1\n      tag_34\n      jump\t// in\n    tag_123:\n        /* \"contracts/ExchangeAggregator.sol\":1956:1960  data */\n      dup8\n        /* \"contracts/ExchangeAggregator.sol\":1956:1968  data.swapper */\n      0xc0\n      add\n      0x20\n      dup2\n      add\n      swap1\n      tag_124\n      swap2\n      swap1\n      tag_34\n      jump\t// in\n    tag_124:\n        /* \"contracts/ExchangeAggregator.sol\":1969:1973  data */\n      dup9\n        /* \"contracts/ExchangeAggregator.sol\":1969:1982  data.amountIn */\n      0x80\n      add\n      calldataload\n        /* \"contracts/ExchangeAggregator.sol\":1916:1942  TransferHelper.safeApprove */\n      tag_125\n        /* \"contracts/ExchangeAggregator.sol\":1916:1983  TransferHelper.safeApprove(data.tokenIn,data.swapper,data.amountIn) */\n      jump\t// in\n    tag_122:\n        /* \"contracts/ExchangeAggregator.sol\":1590:2190  if (!data.native) {... */\n      jump(tag_126)\n    tag_112:\n        /* \"contracts/ExchangeAggregator.sol\":2034:2038  data */\n      dup6\n        /* \"contracts/ExchangeAggregator.sol\":2034:2050  data.totalAmount */\n      0x40\n      add\n      calldataload\n        /* \"contracts/ExchangeAggregator.sol\":2021:2030  msg.value */\n      callvalue\n        /* \"contracts/ExchangeAggregator.sol\":2021:2050  msg.value >= data.totalAmount */\n      lt\n      iszero\n        /* \"contracts/ExchangeAggregator.sol\":2013:2072  require(msg.value >= data.totalAmount,\"insufficient value\") */\n      tag_127\n      jumpi\n      mload(0x40)\n      0x08c379a000000000000000000000000000000000000000000000000000000000\n      dup2\n      mstore\n      0x04\n      add\n      tag_128\n      swap1\n      tag_129\n      jump\t// in\n    tag_128:\n      mload(0x40)\n      dup1\n      swap2\n      sub\n      swap1\n      revert\n    tag_127:\n        /* \"contracts/ExchangeAggregator.sol\":2086:2144  TransferHelper.safeTransferETH(feeReciever,data.feeAmount) */\n      tag_130\n        /* \"contracts/ExchangeAggregator.sol\":2117:2128  feeReciever */\n      0x01\n      0x00\n      swap1\n      sload\n      swap1\n      0x0100\n      exp\n      swap1\n      div\n      0xffffffffffffffffffffffffffffffffffffffff\n      and\n        /* \"contracts/ExchangeAggregator.sol\":2129:2133  data */\n      dup8\n        /* \"contracts/ExchangeAggregator.sol\":2129:2143  data.feeAmount */\n      0x60\n      add\n      calldataload\n        /* \"contracts/ExchangeAggregator.sol\":2086:2116  TransferHelper.safeTransferETH */\n      tag_131\n        /* \"contracts/ExchangeAggregator.sol\":2086:2144  TransferHelper.safeTransferETH(feeReciever,data.feeAmount) */\n      jump\t// in\n    tag_130:\n        /* \"contracts/ExchangeAggregator.sol\":2166:2170  data */\n      dup6\n        /* \"contracts/ExchangeAggregator.sol\":2166:2179  data.amountIn */\n      0x80\n      add\n      calldataload\n        /* \"contracts/ExchangeAggregator.sol\":2158:2179  value = data.amountIn */\n      swap1\n      pop\n        /* \"contracts/ExchangeAggregator.sol\":1590:2190  if (!data.native) {... */\n    tag_126:\n        /* \"contracts/ExchangeAggregator.sol\":2200:2216  uint256 balance0 */\n      0x00\n        /* \"contracts/ExchangeAggregator.sol\":2226:2230  data */\n      dup7\n        /* \"contracts/ExchangeAggregator.sol\":2226:2239  data.tokenOut */\n      0x20\n      add\n      0x20\n      dup2\n      add\n      swap1\n      tag_132\n      swap2\n      swap1\n      tag_34\n      jump\t// in\n    tag_132:\n        /* \"contracts/ExchangeAggregator.sol\":2219:2250  IERC20(data.tokenOut).balanceOf */\n      0xffffffffffffffffffffffffffffffffffffffff\n      and\n      0x70a08231\n        /* \"contracts/ExchangeAggregator.sol\":2259:2263  this */\n      address\n        /* \"contracts/ExchangeAggregator.sol\":2219:2265  IERC20(data.tokenOut).balanceOf(address(this)) */\n      mload(0x40)\n      dup3\n      0xffffffff\n      and\n      0xe0\n      shl\n      dup2\n      mstore\n      0x04\n      add\n      tag_133\n      swap2\n      swap1\n      tag_56\n      jump\t// in\n    tag_133:\n      0x20\n      mload(0x40)\n      dup1\n      dup4\n      sub\n      dup2\n      dup7\n      gas\n      staticcall\n      iszero\n      dup1\n      iszero\n      tag_135\n      jumpi\n      returndatasize\n      0x00\n      dup1\n      returndatacopy\n      revert(0x00, returndatasize)\n    tag_135:\n      pop\n      pop\n      pop\n      pop\n      mload(0x40)\n      returndatasize\n      not(0x1f)\n      0x1f\n      dup3\n      add\n      and\n      dup3\n      add\n      dup1\n      0x40\n      mstore\n      pop\n      dup2\n      add\n      swap1\n      tag_136\n      swap2\n      swap1\n      tag_93\n      jump\t// in\n    tag_136:\n        /* \"contracts/ExchangeAggregator.sol\":2200:2265  uint256 balance0 = IERC20(data.tokenOut).balanceOf(address(this)) */\n      swap1\n      pop\n        /* \"contracts/ExchangeAggregator.sol\":2275:2331  SafeCaller.safeCall(data.swapper,value,data.swapperData) */\n      tag_137\n        /* \"contracts/ExchangeAggregator.sol\":2295:2299  data */\n      dup8\n        /* \"contracts/ExchangeAggregator.sol\":2295:2307  data.swapper */\n      0xc0\n      add\n      0x20\n      dup2\n      add\n      swap1\n      tag_138\n      swap2\n      swap1\n      tag_34\n      jump\t// in\n    tag_138:\n        /* \"contracts/ExchangeAggregator.sol\":2308:2313  value */\n      dup4\n        /* \"contracts/ExchangeAggregator.sol\":2314:2318  data */\n      dup10\n        /* \"contracts/ExchangeAggregator.sol\":2314:2330  data.swapperData */\n      dup1\n      0xe0\n      add\n      swap1\n      tag_139\n      swap2\n      swap1\n      tag_140\n      jump\t// in\n    tag_139:\n        /* \"contracts/ExchangeAggregator.sol\":2275:2331  SafeCaller.safeCall(data.swapper,value,data.swapperData) */\n      dup1\n      dup1\n      0x1f\n      add\n      0x20\n      dup1\n      swap2\n      div\n      mul\n      0x20\n      add\n      mload(0x40)\n      swap1\n      dup2\n      add\n      0x40\n      mstore\n      dup1\n      swap4\n      swap3\n      swap2\n      swap1\n      dup2\n      dup2\n      mstore\n      0x20\n      add\n      dup4\n      dup4\n      dup1\n      dup3\n      dup5\n      calldatacopy\n      0x00\n      dup2\n      dup5\n      add\n      mstore\n      not(0x1f)\n      0x1f\n      dup3\n      add\n      and\n      swap1\n      pop\n      dup1\n      dup4\n      add\n      swap3\n      pop\n      pop\n      pop\n      pop\n      pop\n      pop\n      pop\n        /* \"contracts/ExchangeAggregator.sol\":2275:2294  SafeCaller.safeCall */\n      tag_141\n        /* \"contracts/ExchangeAggregator.sol\":2275:2331  SafeCaller.safeCall(data.swapper,value,data.swapperData) */\n      jump\t// in\n    tag_137:\n        /* \"contracts/ExchangeAggregator.sol\":2341:2357  uint256 balance1 */\n      0x00\n        /* \"contracts/ExchangeAggregator.sol\":2367:2371  data */\n      dup8\n        /* \"contracts/ExchangeAggregator.sol\":2367:2380  data.tokenOut */\n      0x20\n      add\n      0x20\n      dup2\n      add\n      swap1\n      tag_142\n      swap2\n      swap1\n      tag_34\n      jump\t// in\n    tag_142:\n        /* \"contracts/ExchangeAggregator.sol\":2360:2391  IERC20(data.tokenOut).balanceOf */\n      0xffffffffffffffffffffffffffffffffffffffff\n      and\n      0x70a08231\n        /* \"contracts/ExchangeAggregator.sol\":2400:2404  this */\n      address\n        /* \"contracts/ExchangeAggregator.sol\":2360:2406  IERC20(data.tokenOut).balanceOf(address(this)) */\n      mload(0x40)\n      dup3\n      0xffffffff\n      and\n      0xe0\n      shl\n      dup2\n      mstore\n      0x04\n      add\n      tag_143\n      swap2\n      swap1\n      tag_56\n      jump\t// in\n    tag_143:\n      0x20\n      mload(0x40)\n      dup1\n      dup4\n      sub\n      dup2\n      dup7\n      gas\n      staticcall\n      iszero\n      dup1\n      iszero\n      tag_145\n      jumpi\n      returndatasize\n      0x00\n      dup1\n      returndatacopy\n      revert(0x00, returndatasize)\n    tag_145:\n      pop\n      pop\n      pop\n      pop\n      mload(0x40)\n      returndatasize\n      not(0x1f)\n      0x1f\n      dup3\n      add\n      and\n      dup3\n      add\n      dup1\n      0x40\n      mstore\n      pop\n      dup2\n      add\n      swap1\n      tag_146\n      swap2\n      swap1\n      tag_93\n      jump\t// in\n    tag_146:\n        /* \"contracts/ExchangeAggregator.sol\":2341:2406  uint256 balance1 = IERC20(data.tokenOut).balanceOf(address(this)) */\n      swap1\n      pop\n        /* \"contracts/ExchangeAggregator.sol\":2440:2448  balance0 */\n      dup2\n        /* \"contracts/ExchangeAggregator.sol\":2429:2437  balance1 */\n      dup2\n        /* \"contracts/ExchangeAggregator.sol\":2429:2448  balance1 > balance0 */\n      gt\n        /* \"contracts/ExchangeAggregator.sol\":2425:2558  if (balance1 > balance0){      ... */\n      iszero\n      tag_147\n      jumpi\n        /* \"contracts/ExchangeAggregator.sol\":2492:2500  balance0 */\n      dup2\n        /* \"contracts/ExchangeAggregator.sol\":2481:2489  balance1 */\n      dup2\n        /* \"contracts/ExchangeAggregator.sol\":2481:2500  balance1 - balance0 */\n      tag_148\n      swap2\n      swap1\n      tag_149\n      jump\t// in\n    tag_148:\n        /* \"contracts/ExchangeAggregator.sol\":2465:2478  swapAmountOut */\n      0x03\n        /* \"contracts/ExchangeAggregator.sol\":2465:2500  swapAmountOut = balance1 - balance0 */\n      dup2\n      swap1\n      sstore\n      pop\n        /* \"contracts/ExchangeAggregator.sol\":2425:2558  if (balance1 > balance0){      ... */\n      jump(tag_150)\n    tag_147:\n        /* \"contracts/ExchangeAggregator.sol\":2546:2547  0 */\n      0x00\n        /* \"contracts/ExchangeAggregator.sol\":2530:2543  swapAmountOut */\n      0x03\n        /* \"contracts/ExchangeAggregator.sol\":2530:2547  swapAmountOut = 0 */\n      dup2\n      swap1\n      sstore\n      pop\n        /* \"contracts/ExchangeAggregator.sol\":2425:2558  if (balance1 > balance0){      ... */\n    tag_150:\n        /* \"contracts/ExchangeAggregator.sol\":2594:2598  true */\n      0x01\n        /* \"contracts/ExchangeAggregator.sol\":2567:2586  processedSignatures */\n      0x02\n        /* \"contracts/ExchangeAggregator.sol\":2587:2590  sig */\n      dup9\n      dup9\n        /* \"contracts/ExchangeAggregator.sol\":2567:2591  processedSignatures[sig] */\n      mload(0x40)\n      tag_151\n      swap3\n      swap2\n      swap1\n      tag_96\n      jump\t// in\n    tag_151:\n      swap1\n      dup2\n      mstore\n      0x20\n      add\n      mload(0x40)\n      dup1\n      swap2\n      sub\n      swap1\n      keccak256\n      0x00\n        /* \"contracts/ExchangeAggregator.sol\":2567:2598  processedSignatures[sig] = true */\n      0x0100\n      exp\n      dup2\n      sload\n      dup2\n      0xff\n      mul\n      not\n      and\n      swap1\n      dup4\n      iszero\n      iszero\n      mul\n      or\n      swap1\n      sstore\n      pop\n        /* \"contracts/ExchangeAggregator.sol\":1444:2605  {... */\n      pop\n      pop\n      pop\n        /* \"contracts/ExchangeAggregator.sol\":912:916  true */\n      0x01\n        /* \"contracts/ExchangeAggregator.sol\":885:904  processedSignatures */\n      0x02\n        /* \"contracts/ExchangeAggregator.sol\":905:908  sig */\n      dup4\n      dup4\n        /* \"contracts/ExchangeAggregator.sol\":885:909  processedSignatures[sig] */\n      mload(0x40)\n      tag_152\n      swap3\n      swap2\n      swap1\n      tag_96\n      jump\t// in\n    tag_152:\n      swap1\n      dup2\n      mstore\n      0x20\n      add\n      mload(0x40)\n      dup1\n      swap2\n      sub\n      swap1\n      keccak256\n      0x00\n        /* \"contracts/ExchangeAggregator.sol\":885:916  processedSignatures[sig] = true */\n      0x0100\n      exp\n      dup2\n      sload\n      dup2\n      0xff\n      mul\n      not\n      and\n      swap1\n      dup4\n      iszero\n      iszero\n      mul\n      or\n      swap1\n      sstore\n      pop\n        /* \"contracts/ExchangeAggregator.sol\":1344:2605  function Swap(swapInput calldata data,bytes calldata sig) public payable signatureNotProcessed(sig) {... */\n      pop\n      pop\n      pop\n      pop\n      pop\n      jump\t// out\n        /* \"contracts/ExchangeAggregator.sol\":4011:4142  function WithdrawETH(address to,uint256 amount) public payable onlyOwner {... */\n    tag_44:\n        /* \"@openzeppelin/contracts/access/Ownable.sol\":1094:1107  _checkOwner() */\n      tag_154\n        /* \"@openzeppelin/contracts/access/Ownable.sol\":1094:1105  _checkOwner */\n      tag_155\n        /* \"@openzeppelin/contracts/access/Ownable.sol\":1094:1107  _checkOwner() */\n      jump\t// in\n    tag_154:\n        /* \"contracts/ExchangeAggregator.sol\":4094:4135  TransferHelper.safeTransferETH(to,amount) */\n      tag_157\n        /* \"contracts/ExchangeAggregator.sol\":4125:4127  to */\n      dup3\n        /* \"contracts/ExchangeAggregator.sol\":4128:4134  amount */\n      dup3\n        /* \"contracts/ExchangeAggregator.sol\":4094:4124  TransferHelper.safeTransferETH */\n      tag_131\n        /* \"contracts/ExchangeAggregator.sol\":4094:4135  TransferHelper.safeTransferETH(to,amount) */\n      jump\t// in\n    tag_157:\n        /* \"contracts/ExchangeAggregator.sol\":4011:4142  function WithdrawETH(address to,uint256 amount) public payable onlyOwner {... */\n      pop\n      pop\n      jump\t// out\n        /* \"contracts/ExchangeAggregator.sol\":2612:3517  function Bridge(bridgeInput calldata data,bytes calldata sig) public payable signatureNotProcessed(sig) {... */\n    tag_48:\n        /* \"contracts/ExchangeAggregator.sol\":2711:2714  sig */\n      dup2\n      dup2\n        /* \"contracts/ExchangeAggregator.sol\":806:825  processedSignatures */\n      0x02\n        /* \"contracts/ExchangeAggregator.sol\":826:829  sig */\n      dup3\n      dup3\n        /* \"contracts/ExchangeAggregator.sol\":806:830  processedSignatures[sig] */\n      mload(0x40)\n      tag_159\n      swap3\n      swap2\n      swap1\n      tag_96\n      jump\t// in\n    tag_159:\n      swap1\n      dup2\n      mstore\n      0x20\n      add\n      mload(0x40)\n      dup1\n      swap2\n      sub\n      swap1\n      keccak256\n      0x00\n      swap1\n      sload\n      swap1\n      0x0100\n      exp\n      swap1\n      div\n      0xff\n      and\n        /* \"contracts/ExchangeAggregator.sol\":805:830  !processedSignatures[sig] */\n      iszero\n        /* \"contracts/ExchangeAggregator.sol\":797:864  require(!processedSignatures[sig], \"this txData already processed\") */\n      tag_160\n      jumpi\n      mload(0x40)\n      0x08c379a000000000000000000000000000000000000000000000000000000000\n      dup2\n      mstore\n      0x04\n      add\n      tag_161\n      swap1\n      tag_99\n      jump\t// in\n    tag_161:\n      mload(0x40)\n      dup1\n      swap2\n      sub\n      swap1\n      revert\n    tag_160:\n        /* \"contracts/ExchangeAggregator.sol\":2749:2759  msg.sender */\n      caller\n        /* \"contracts/ExchangeAggregator.sol\":2734:2759  data.sender == msg.sender */\n      0xffffffffffffffffffffffffffffffffffffffff\n      and\n        /* \"contracts/ExchangeAggregator.sol\":2734:2738  data */\n      dup6\n        /* \"contracts/ExchangeAggregator.sol\":2734:2745  data.sender */\n      0x40\n      add\n      0x20\n      dup2\n      add\n      swap1\n      tag_163\n      swap2\n      swap1\n      tag_34\n      jump\t// in\n    tag_163:\n        /* \"contracts/ExchangeAggregator.sol\":2734:2759  data.sender == msg.sender */\n      0xffffffffffffffffffffffffffffffffffffffff\n      and\n      eq\n        /* \"contracts/ExchangeAggregator.sol\":2726:2777  require(data.sender == msg.sender,\"invalid sender\") */\n      tag_164\n      jumpi\n      mload(0x40)\n      0x08c379a000000000000000000000000000000000000000000000000000000000\n      dup2\n      mstore\n      0x04\n      add\n      tag_165\n      swap1\n      tag_104\n      jump\t// in\n    tag_165:\n      mload(0x40)\n      dup1\n      swap2\n      sub\n      swap1\n      revert\n    tag_164:\n        /* \"contracts/ExchangeAggregator.sol\":2808:2812  data */\n      dup5\n        /* \"contracts/ExchangeAggregator.sol\":2808:2822  data.bridgeFee */\n      0x60\n      add\n      calldataload\n        /* \"contracts/ExchangeAggregator.sol\":2795:2804  msg.value */\n      callvalue\n        /* \"contracts/ExchangeAggregator.sol\":2795:2822  msg.value >= data.bridgeFee */\n      lt\n      iszero\n        /* \"contracts/ExchangeAggregator.sol\":2787:2844  require(msg.value >= data.bridgeFee,\"insufficient value\") */\n      tag_166\n      jumpi\n      mload(0x40)\n      0x08c379a000000000000000000000000000000000000000000000000000000000\n      dup2\n      mstore\n      0x04\n      add\n      tag_167\n      swap1\n      tag_129\n      jump\t// in\n    tag_167:\n      mload(0x40)\n      dup1\n      swap2\n      sub\n      swap1\n      revert\n    tag_166:\n        /* \"contracts/ExchangeAggregator.sol\":2854:2899  utils.checkSig(owner(),abi.encode(data), sig) */\n      tag_168\n        /* \"contracts/ExchangeAggregator.sol\":2869:2876  owner() */\n      tag_169\n        /* \"contracts/ExchangeAggregator.sol\":2869:2874  owner */\n      tag_54\n        /* \"contracts/ExchangeAggregator.sol\":2869:2876  owner() */\n      jump\t// in\n    tag_169:\n        /* \"contracts/ExchangeAggregator.sol\":2888:2892  data */\n      dup7\n        /* \"contracts/ExchangeAggregator.sol\":2877:2893  abi.encode(data) */\n      add(0x20, mload(0x40))\n      tag_170\n      swap2\n      swap1\n      tag_171\n      jump\t// in\n    tag_170:\n      mload(0x40)\n      0x20\n      dup2\n      dup4\n      sub\n      sub\n      dup2\n      mstore\n      swap1\n      0x40\n      mstore\n        /* \"contracts/ExchangeAggregator.sol\":2895:2898  sig */\n      dup7\n      dup7\n        /* \"contracts/ExchangeAggregator.sol\":2854:2899  utils.checkSig(owner(),abi.encode(data), sig) */\n      dup1\n      dup1\n      0x1f\n      add\n      0x20\n      dup1\n      swap2\n      div\n      mul\n      0x20\n      add\n      mload(0x40)\n      swap1\n      dup2\n      add\n      0x40\n      mstore\n      dup1\n      swap4\n      swap3\n      swap2\n      swap1\n      dup2\n      dup2\n      mstore\n      0x20\n      add\n      dup4\n      dup4\n      dup1\n      dup3\n      dup5\n      calldatacopy\n      0x00\n      dup2\n      dup5\n      add\n      mstore\n      not(0x1f)\n      0x1f\n      dup3\n      add\n      and\n      swap1\n      pop\n      dup1\n      dup4\n      add\n      swap3\n      pop\n      pop\n      pop\n      pop\n      pop\n      pop\n      pop\n        /* \"contracts/ExchangeAggregator.sol\":2854:2868  utils.checkSig */\n      tag_109\n        /* \"contracts/ExchangeAggregator.sol\":2854:2899  utils.checkSig(owner(),abi.encode(data), sig) */\n      jump\t// in\n    tag_168:\n        /* \"contracts/ExchangeAggregator.sol\":2909:2922  uint amountIn */\n      0x00\n        /* \"contracts/ExchangeAggregator.sol\":2936:2940  data */\n      dup6\n        /* \"contracts/ExchangeAggregator.sol\":2936:2950  data.afterSwap */\n      0x80\n      add\n      0x20\n      dup2\n      add\n      swap1\n      tag_172\n      swap2\n      swap1\n      tag_111\n      jump\t// in\n    tag_172:\n        /* \"contracts/ExchangeAggregator.sol\":2932:3353  if (data.afterSwap) {... */\n      iszero\n      tag_173\n      jumpi\n        /* \"contracts/ExchangeAggregator.sol\":2977:2990  swapAmountOut */\n      sload(0x03)\n        /* \"contracts/ExchangeAggregator.sol\":2966:2990  amountIn = swapAmountOut */\n      swap1\n      pop\n        /* \"contracts/ExchangeAggregator.sol\":3020:3021  0 */\n      0x00\n        /* \"contracts/ExchangeAggregator.sol\":3004:3017  swapAmountOut */\n      0x03\n        /* \"contracts/ExchangeAggregator.sol\":3004:3021  swapAmountOut = 0 */\n      dup2\n      swap1\n      sstore\n      pop\n        /* \"contracts/ExchangeAggregator.sol\":2932:3353  if (data.afterSwap) {... */\n      jump(tag_174)\n    tag_173:\n        /* \"contracts/ExchangeAggregator.sol\":3063:3162  TransferHelper.safeTransferFrom(data.tokenIn,msg.sender,address(this),data.amountIn+data.feeAmount) */\n      tag_175\n        /* \"contracts/ExchangeAggregator.sol\":3095:3099  data */\n      dup7\n        /* \"contracts/ExchangeAggregator.sol\":3095:3107  data.tokenIn */\n      0x20\n      add\n      0x20\n      dup2\n      add\n      swap1\n      tag_176\n      swap2\n      swap1\n      tag_34\n      jump\t// in\n    tag_176:\n        /* \"contracts/ExchangeAggregator.sol\":3108:3118  msg.sender */\n      caller\n        /* \"contracts/ExchangeAggregator.sol\":3127:3131  this */\n      address\n        /* \"contracts/ExchangeAggregator.sol\":3147:3151  data */\n      dup10\n        /* \"contracts/ExchangeAggregator.sol\":3147:3161  data.feeAmount */\n      0xc0\n      add\n      calldataload\n        /* \"contracts/ExchangeAggregator.sol\":3133:3137  data */\n      dup11\n        /* \"contracts/ExchangeAggregator.sol\":3133:3146  data.amountIn */\n      0xa0\n      add\n      calldataload\n        /* \"contracts/ExchangeAggregator.sol\":3133:3161  data.amountIn+data.feeAmount */\n      tag_177\n      swap2\n      swap1\n      tag_178\n      jump\t// in\n    tag_177:\n        /* \"contracts/ExchangeAggregator.sol\":3063:3094  TransferHelper.safeTransferFrom */\n      tag_117\n        /* \"contracts/ExchangeAggregator.sol\":3063:3162  TransferHelper.safeTransferFrom(data.tokenIn,msg.sender,address(this),data.amountIn+data.feeAmount) */\n      jump\t// in\n    tag_175:\n        /* \"contracts/ExchangeAggregator.sol\":3197:3198  0 */\n      0x00\n        /* \"contracts/ExchangeAggregator.sol\":3180:3184  data */\n      dup7\n        /* \"contracts/ExchangeAggregator.sol\":3180:3194  data.feeAmount */\n      0xc0\n      add\n      calldataload\n        /* \"contracts/ExchangeAggregator.sol\":3180:3198  data.feeAmount > 0 */\n      gt\n        /* \"contracts/ExchangeAggregator.sol\":3176:3305  if (data.feeAmount > 0) {... */\n      iszero\n      tag_179\n      jumpi\n        /* \"contracts/ExchangeAggregator.sol\":3222:3290  TransferHelper.safeTransfer(data.tokenIn,feeReciever,data.feeAmount) */\n      tag_180\n        /* \"contracts/ExchangeAggregator.sol\":3250:3254  data */\n      dup7\n        /* \"contracts/ExchangeAggregator.sol\":3250:3262  data.tokenIn */\n      0x20\n      add\n      0x20\n      dup2\n      add\n      swap1\n      tag_181\n      swap2\n      swap1\n      tag_34\n      jump\t// in\n    tag_181:\n        /* \"contracts/ExchangeAggregator.sol\":3263:3274  feeReciever */\n      0x01\n      0x00\n      swap1\n      sload\n      swap1\n      0x0100\n      exp\n      swap1\n      div\n      0xffffffffffffffffffffffffffffffffffffffff\n      and\n        /* \"contracts/ExchangeAggregator.sol\":3275:3279  data */\n      dup9\n        /* \"contracts/ExchangeAggregator.sol\":3275:3289  data.feeAmount */\n      0xc0\n      add\n      calldataload\n        /* \"contracts/ExchangeAggregator.sol\":3222:3249  TransferHelper.safeTransfer */\n      tag_121\n        /* \"contracts/ExchangeAggregator.sol\":3222:3290  TransferHelper.safeTransfer(data.tokenIn,feeReciever,data.feeAmount) */\n      jump\t// in\n    tag_180:\n        /* \"contracts/ExchangeAggregator.sol\":3176:3305  if (data.feeAmount > 0) {... */\n    tag_179:\n        /* \"contracts/ExchangeAggregator.sol\":3329:3333  data */\n      dup6\n        /* \"contracts/ExchangeAggregator.sol\":3329:3342  data.amountIn */\n      0xa0\n      add\n      calldataload\n        /* \"contracts/ExchangeAggregator.sol\":3318:3342  amountIn = data.amountIn */\n      swap1\n      pop\n        /* \"contracts/ExchangeAggregator.sol\":2932:3353  if (data.afterSwap) {... */\n    tag_174:\n        /* \"contracts/ExchangeAggregator.sol\":3364:3425  TransferHelper.safeApprove(data.tokenIn,data.bridge,amountIn) */\n      tag_182\n        /* \"contracts/ExchangeAggregator.sol\":3391:3395  data */\n      dup7\n        /* \"contracts/ExchangeAggregator.sol\":3391:3403  data.tokenIn */\n      0x20\n      add\n      0x20\n      dup2\n      add\n      swap1\n      tag_183\n      swap2\n      swap1\n      tag_34\n      jump\t// in\n    tag_183:\n        /* \"contracts/ExchangeAggregator.sol\":3404:3408  data */\n      dup8\n        /* \"contracts/ExchangeAggregator.sol\":3404:3415  data.bridge */\n      0x00\n      add\n      0x20\n      dup2\n      add\n      swap1\n      tag_184\n      swap2\n      swap1\n      tag_34\n      jump\t// in\n    tag_184:\n        /* \"contracts/ExchangeAggregator.sol\":3416:3424  amountIn */\n      dup4\n        /* \"contracts/ExchangeAggregator.sol\":3364:3390  TransferHelper.safeApprove */\n      tag_125\n        /* \"contracts/ExchangeAggregator.sol\":3364:3425  TransferHelper.safeApprove(data.tokenIn,data.bridge,amountIn) */\n      jump\t// in\n    tag_182:\n        /* \"contracts/ExchangeAggregator.sol\":3443:3447  data */\n      dup6\n        /* \"contracts/ExchangeAggregator.sol\":3443:3454  data.bridge */\n      0x00\n      add\n      0x20\n      dup2\n      add\n      swap1\n      tag_185\n      swap2\n      swap1\n      tag_34\n      jump\t// in\n    tag_185:\n        /* \"contracts/ExchangeAggregator.sol\":3435:3462  IBridge(data.bridge).Bridge */\n      0xffffffffffffffffffffffffffffffffffffffff\n      and\n      0x0a2fb374\n        /* \"contracts/ExchangeAggregator.sol\":3469:3473  data */\n      dup8\n        /* \"contracts/ExchangeAggregator.sol\":3469:3483  data.bridgeFee */\n      0x60\n      add\n      calldataload\n        /* \"contracts/ExchangeAggregator.sol\":3485:3489  data */\n      dup9\n        /* \"contracts/ExchangeAggregator.sol\":3485:3500  data.bridgeData */\n      dup1\n      0xe0\n      add\n      swap1\n      tag_186\n      swap2\n      swap1\n      tag_140\n      jump\t// in\n    tag_186:\n        /* \"contracts/ExchangeAggregator.sol\":3501:3509  amountIn */\n      dup6\n        /* \"contracts/ExchangeAggregator.sol\":3435:3510  IBridge(data.bridge).Bridge{value:data.bridgeFee}(data.bridgeData,amountIn) */\n      mload(0x40)\n      dup6\n      0xffffffff\n      and\n      0xe0\n      shl\n      dup2\n      mstore\n      0x04\n      add\n      tag_187\n      swap4\n      swap3\n      swap2\n      swap1\n      tag_188\n      jump\t// in\n    tag_187:\n      0x00\n      mload(0x40)\n      dup1\n      dup4\n      sub\n      dup2\n      dup6\n      dup9\n      dup1\n      extcodesize\n      iszero\n      dup1\n      iszero\n      tag_189\n      jumpi\n      0x00\n      dup1\n      revert\n    tag_189:\n      pop\n      gas\n      call\n      iszero\n      dup1\n      iszero\n      tag_191\n      jumpi\n      returndatasize\n      0x00\n      dup1\n      returndatacopy\n      revert(0x00, returndatasize)\n    tag_191:\n      pop\n      pop\n      pop\n      pop\n      pop\n        /* \"contracts/ExchangeAggregator.sol\":2716:3517  {... */\n      pop\n        /* \"contracts/ExchangeAggregator.sol\":912:916  true */\n      0x01\n        /* \"contracts/ExchangeAggregator.sol\":885:904  processedSignatures */\n      0x02\n        /* \"contracts/ExchangeAggregator.sol\":905:908  sig */\n      dup4\n      dup4\n        /* \"contracts/ExchangeAggregator.sol\":885:909  processedSignatures[sig] */\n      mload(0x40)\n      tag_192\n      swap3\n      swap2\n      swap1\n      tag_96\n      jump\t// in\n    tag_192:\n      swap1\n      dup2\n      mstore\n      0x20\n      add\n      mload(0x40)\n      dup1\n      swap2\n      sub\n      swap1\n      keccak256\n      0x00\n        /* \"contracts/ExchangeAggregator.sol\":885:916  processedSignatures[sig] = true */\n      0x0100\n      exp\n      dup2\n      sload\n      dup2\n      0xff\n      mul\n      not\n      and\n      swap1\n      dup4\n      iszero\n      iszero\n      mul\n      or\n      swap1\n      sstore\n      pop\n        /* \"contracts/ExchangeAggregator.sol\":2612:3517  function Bridge(bridgeInput calldata data,bytes calldata sig) public payable signatureNotProcessed(sig) {... */\n      pop\n      pop\n      pop\n      pop\n      pop\n      jump\t// out\n        /* \"@openzeppelin/contracts/access/Ownable.sol\":1831:1932  function renounceOwnership() public virtual onlyOwner {... */\n    tag_51:\n        /* \"@openzeppelin/contracts/access/Ownable.sol\":1094:1107  _checkOwner() */\n      tag_194\n        /* \"@openzeppelin/contracts/access/Ownable.sol\":1094:1105  _checkOwner */\n      tag_155\n        /* \"@openzeppelin/contracts/access/Ownable.sol\":1094:1107  _checkOwner() */\n      jump\t// in\n    tag_194:\n        /* \"@openzeppelin/contracts/access/Ownable.sol\":1895:1925  _transferOwnership(address(0)) */\n      tag_196\n        /* \"@openzeppelin/contracts/access/Ownable.sol\":1922:1923  0 */\n      0x00\n        /* \"@openzeppelin/contracts/access/Ownable.sol\":1895:1913  _transferOwnership */\n      tag_197\n        /* \"@openzeppelin/contracts/access/Ownable.sol\":1895:1925  _transferOwnership(address(0)) */\n      jump\t// in\n    tag_196:\n        /* \"@openzeppelin/contracts/access/Ownable.sol\":1831:1932  function renounceOwnership() public virtual onlyOwner {... */\n      jump\t// out\n        /* \"@openzeppelin/contracts/access/Ownable.sol\":1201:1286  function owner() public view virtual returns (address) {... */\n    tag_54:\n        /* \"@openzeppelin/contracts/access/Ownable.sol\":1247:1254  address */\n      0x00\n        /* \"@openzeppelin/contracts/access/Ownable.sol\":1273:1279  _owner */\n      dup1\n      0x00\n      swap1\n      sload\n      swap1\n      0x0100\n      exp\n      swap1\n      div\n      0xffffffffffffffffffffffffffffffffffffffff\n      and\n        /* \"@openzeppelin/contracts/access/Ownable.sol\":1266:1279  return _owner */\n      swap1\n      pop\n        /* \"@openzeppelin/contracts/access/Ownable.sol\":1201:1286  function owner() public view virtual returns (address) {... */\n      swap1\n      jump\t// out\n        /* \"contracts/ExchangeAggregator.sol\":3868:4005  function Withdraw(address token,address to,uint256 amount) public onlyOwner {... */\n    tag_61:\n        /* \"@openzeppelin/contracts/access/Ownable.sol\":1094:1107  _checkOwner() */\n      tag_200\n        /* \"@openzeppelin/contracts/access/Ownable.sol\":1094:1105  _checkOwner */\n      tag_155\n        /* \"@openzeppelin/contracts/access/Ownable.sol\":1094:1107  _checkOwner() */\n      jump\t// in\n    tag_200:\n        /* \"contracts/ExchangeAggregator.sol\":3954:3998  TransferHelper.safeTransfer(token,to,amount) */\n      tag_202\n        /* \"contracts/ExchangeAggregator.sol\":3982:3987  token */\n      dup4\n        /* \"contracts/ExchangeAggregator.sol\":3988:3990  to */\n      dup4\n        /* \"contracts/ExchangeAggregator.sol\":3991:3997  amount */\n      dup4\n        /* \"contracts/ExchangeAggregator.sol\":3954:3981  TransferHelper.safeTransfer */\n      tag_121\n        /* \"contracts/ExchangeAggregator.sol\":3954:3998  TransferHelper.safeTransfer(token,to,amount) */\n      jump\t// in\n    tag_202:\n        /* \"contracts/ExchangeAggregator.sol\":3868:4005  function Withdraw(address token,address to,uint256 amount) public onlyOwner {... */\n      pop\n      pop\n      pop\n      jump\t// out\n        /* \"contracts/ExchangeAggregator.sol\":1027:1304  function estimateAmountOut(address priceProvider, address provider,address tA,address tB,uint256 amountIn,uint8 version) external view returns (uint256 amountOut,uint24 fee){... */\n    tag_66:\n        /* \"contracts/ExchangeAggregator.sol\":1171:1188  uint256 amountOut */\n      0x00\n        /* \"contracts/ExchangeAggregator.sol\":1189:1199  uint24 fee */\n      dup1\n        /* \"contracts/ExchangeAggregator.sol\":1232:1245  priceProvider */\n      dup8\n        /* \"contracts/ExchangeAggregator.sol\":1217:1264  IPriceProvider(priceProvider).estimateAmountOut */\n      0xffffffffffffffffffffffffffffffffffffffff\n      and\n      0x6110358d\n        /* \"contracts/ExchangeAggregator.sol\":1265:1273  provider */\n      dup9\n        /* \"contracts/ExchangeAggregator.sol\":1274:1276  tA */\n      dup9\n        /* \"contracts/ExchangeAggregator.sol\":1277:1279  tB */\n      dup9\n        /* \"contracts/ExchangeAggregator.sol\":1280:1288  amountIn */\n      dup9\n        /* \"contracts/ExchangeAggregator.sol\":1289:1296  version */\n      dup9\n        /* \"contracts/ExchangeAggregator.sol\":1217:1297  IPriceProvider(priceProvider).estimateAmountOut(provider,tA,tB,amountIn,version) */\n      mload(0x40)\n      dup7\n      0xffffffff\n      and\n      0xe0\n      shl\n      dup2\n      mstore\n      0x04\n      add\n      tag_204\n      swap6\n      swap5\n      swap4\n      swap3\n      swap2\n      swap1\n      tag_205\n      jump\t// in\n    tag_204:\n      0x40\n      dup1\n      mload\n      dup1\n      dup4\n      sub\n      dup2\n      dup7\n      gas\n      staticcall\n      iszero\n      dup1\n      iszero\n      tag_207\n      jumpi\n      returndatasize\n      0x00\n      dup1\n      returndatacopy\n      revert(0x00, returndatasize)\n    tag_207:\n      pop\n      pop\n      pop\n      pop\n      mload(0x40)\n      returndatasize\n      not(0x1f)\n      0x1f\n      dup3\n      add\n      and\n      dup3\n      add\n      dup1\n      0x40\n      mstore\n      pop\n      dup2\n      add\n      swap1\n      tag_208\n      swap2\n      swap1\n      tag_209\n      jump\t// in\n    tag_208:\n        /* \"contracts/ExchangeAggregator.sol\":1210:1297  return IPriceProvider(priceProvider).estimateAmountOut(provider,tA,tB,amountIn,version) */\n      swap2\n      pop\n      swap2\n      pop\n        /* \"contracts/ExchangeAggregator.sol\":1027:1304  function estimateAmountOut(address priceProvider, address provider,address tA,address tB,uint256 amountIn,uint8 version) external view returns (uint256 amountOut,uint24 fee){... */\n      swap7\n      pop\n      swap7\n      swap5\n      pop\n      pop\n      pop\n      pop\n      pop\n      jump\t// out\n        /* \"contracts/Multicall.sol\":91:735  function multicall(bytes[] calldata data) public payable returns (bytes[] memory results) {... */\n    tag_72:\n        /* \"contracts/Multicall.sol\":157:179  bytes[] memory results */\n      0x60\n        /* \"contracts/Multicall.sol\":213:217  data */\n      dup3\n      dup3\n        /* \"contracts/Multicall.sol\":213:224  data.length */\n      swap1\n      pop\n        /* \"contracts/Multicall.sol\":201:225  new bytes[](data.length) */\n      0xffffffffffffffff\n      dup2\n      gt\n      iszero\n      tag_211\n      jumpi\n      tag_212\n      tag_213\n      jump\t// in\n    tag_212:\n    tag_211:\n      mload(0x40)\n      swap1\n      dup1\n      dup3\n      mstore\n      dup1\n      0x20\n      mul\n      0x20\n      add\n      dup3\n      add\n      0x40\n      mstore\n      dup1\n      iszero\n      tag_214\n      jumpi\n      dup2\n      0x20\n      add\n    tag_215:\n      0x60\n      dup2\n      mstore\n      0x20\n      add\n      swap1\n      0x01\n      swap1\n      sub\n      swap1\n      dup2\n      tag_215\n      jumpi\n      swap1\n      pop\n    tag_214:\n      pop\n        /* \"contracts/Multicall.sol\":191:225  results = new bytes[](data.length) */\n      swap1\n      pop\n        /* \"contracts/Multicall.sol\":240:249  uint256 i */\n      0x00\n        /* \"contracts/Multicall.sol\":235:729  for (uint256 i = 0; i < data.length; i++) {... */\n    tag_216:\n        /* \"contracts/Multicall.sol\":259:263  data */\n      dup4\n      dup4\n        /* \"contracts/Multicall.sol\":259:270  data.length */\n      swap1\n      pop\n        /* \"contracts/Multicall.sol\":255:256  i */\n      dup2\n        /* \"contracts/Multicall.sol\":255:270  i < data.length */\n      lt\n        /* \"contracts/Multicall.sol\":235:729  for (uint256 i = 0; i < data.length; i++) {... */\n      iszero\n      tag_217\n      jumpi\n        /* \"contracts/Multicall.sol\":292:304  bool success */\n      0x00\n        /* \"contracts/Multicall.sol\":306:325  bytes memory result */\n      dup1\n        /* \"contracts/Multicall.sol\":337:341  this */\n      address\n        /* \"contracts/Multicall.sol\":329:355  address(this).delegatecall */\n      0xffffffffffffffffffffffffffffffffffffffff\n      and\n        /* \"contracts/Multicall.sol\":356:360  data */\n      dup7\n      dup7\n        /* \"contracts/Multicall.sol\":361:362  i */\n      dup6\n        /* \"contracts/Multicall.sol\":356:363  data[i] */\n      dup2\n      dup2\n      lt\n      tag_219\n      jumpi\n      tag_220\n      tag_221\n      jump\t// in\n    tag_220:\n    tag_219:\n      swap1\n      pop\n      0x20\n      mul\n      dup2\n      add\n      swap1\n      tag_222\n      swap2\n      swap1\n      tag_140\n      jump\t// in\n    tag_222:\n        /* \"contracts/Multicall.sol\":329:364  address(this).delegatecall(data[i]) */\n      mload(0x40)\n      tag_223\n      swap3\n      swap2\n      swap1\n      tag_96\n      jump\t// in\n    tag_223:\n      0x00\n      mload(0x40)\n      dup1\n      dup4\n      sub\n      dup2\n      dup6\n      gas\n      delegatecall\n      swap2\n      pop\n      pop\n      returndatasize\n      dup1\n      0x00\n      dup2\n      eq\n      tag_226\n      jumpi\n      mload(0x40)\n      swap2\n      pop\n      and(add(returndatasize, 0x3f), not(0x1f))\n      dup3\n      add\n      0x40\n      mstore\n      returndatasize\n      dup3\n      mstore\n      returndatasize\n      0x00\n      0x20\n      dup5\n      add\n      returndatacopy\n      jump(tag_225)\n    tag_226:\n      0x60\n      swap2\n      pop\n    tag_225:\n      pop\n        /* \"contracts/Multicall.sol\":291:364  (bool success, bytes memory result) = address(this).delegatecall(data[i]) */\n      swap2\n      pop\n      swap2\n      pop\n        /* \"contracts/Multicall.sol\":384:391  success */\n      dup2\n        /* \"contracts/Multicall.sol\":379:685  if (!success) {... */\n      tag_227\n      jumpi\n        /* \"contracts/Multicall.sol\":511:513  68 */\n      0x44\n        /* \"contracts/Multicall.sol\":495:501  result */\n      dup2\n        /* \"contracts/Multicall.sol\":495:508  result.length */\n      mload\n        /* \"contracts/Multicall.sol\":495:513  result.length < 68 */\n      lt\n        /* \"contracts/Multicall.sol\":491:523  if (result.length < 68) revert() */\n      iszero\n      tag_228\n      jumpi\n        /* \"contracts/Multicall.sol\":515:523  revert() */\n      0x00\n      dup1\n      revert\n        /* \"contracts/Multicall.sol\":491:523  if (result.length < 68) revert() */\n    tag_228:\n        /* \"contracts/Multicall.sol\":594:598  0x04 */\n      0x04\n        /* \"contracts/Multicall.sol\":586:592  result */\n      dup2\n        /* \"contracts/Multicall.sol\":582:599  add(result, 0x04) */\n      add\n        /* \"contracts/Multicall.sol\":572:599  result := add(result, 0x04) */\n      swap1\n      pop\n        /* \"contracts/Multicall.sol\":652:658  result */\n      dup1\n        /* \"contracts/Multicall.sol\":641:669  abi.decode(result, (string)) */\n      dup1\n      0x20\n      add\n      swap1\n      mload\n      dup2\n      add\n      swap1\n      tag_229\n      swap2\n      swap1\n      tag_230\n      jump\t// in\n    tag_229:\n        /* \"contracts/Multicall.sol\":634:670  revert(abi.decode(result, (string))) */\n      mload(0x40)\n      0x08c379a000000000000000000000000000000000000000000000000000000000\n      dup2\n      mstore\n      0x04\n      add\n      tag_231\n      swap2\n      swap1\n      tag_232\n      jump\t// in\n    tag_231:\n      mload(0x40)\n      dup1\n      swap2\n      sub\n      swap1\n      revert\n        /* \"contracts/Multicall.sol\":379:685  if (!success) {... */\n    tag_227:\n        /* \"contracts/Multicall.sol\":712:718  result */\n      dup1\n        /* \"contracts/Multicall.sol\":699:706  results */\n      dup5\n        /* \"contracts/Multicall.sol\":707:708  i */\n      dup5\n        /* \"contracts/Multicall.sol\":699:709  results[i] */\n      dup2\n      mload\n      dup2\n      lt\n      tag_233\n      jumpi\n      tag_234\n      tag_221\n      jump\t// in\n    tag_234:\n    tag_233:\n      0x20\n      mul\n      0x20\n      add\n      add\n        /* \"contracts/Multicall.sol\":699:718  results[i] = result */\n      dup2\n      swap1\n      mstore\n      pop\n        /* \"contracts/Multicall.sol\":277:729  {... */\n      pop\n      pop\n        /* \"contracts/Multicall.sol\":272:275  i++ */\n      dup1\n      dup1\n      tag_235\n      swap1\n      tag_236\n      jump\t// in\n    tag_235:\n      swap2\n      pop\n      pop\n        /* \"contracts/Multicall.sol\":235:729  for (uint256 i = 0; i < data.length; i++) {... */\n      jump(tag_216)\n    tag_217:\n      pop\n        /* \"contracts/Multicall.sol\":91:735  function multicall(bytes[] calldata data) public payable returns (bytes[] memory results) {... */\n      swap3\n      swap2\n      pop\n      pop\n      jump\t// out\n        /* \"contracts/ExchangeAggregator.sol\":3523:3632  function ChangeFeeReciever(address _feeReciever) public onlyOwner {... */\n    tag_78:\n        /* \"@openzeppelin/contracts/access/Ownable.sol\":1094:1107  _checkOwner() */\n      tag_238\n        /* \"@openzeppelin/contracts/access/Ownable.sol\":1094:1105  _checkOwner */\n      tag_155\n        /* \"@openzeppelin/contracts/access/Ownable.sol\":1094:1107  _checkOwner() */\n      jump\t// in\n    tag_238:\n        /* \"contracts/ExchangeAggregator.sol\":3613:3625  _feeReciever */\n      dup1\n        /* \"contracts/ExchangeAggregator.sol\":3599:3610  feeReciever */\n      0x01\n      0x00\n        /* \"contracts/ExchangeAggregator.sol\":3599:3625  feeReciever = _feeReciever */\n      0x0100\n      exp\n      dup2\n      sload\n      dup2\n      0xffffffffffffffffffffffffffffffffffffffff\n      mul\n      not\n      and\n      swap1\n      dup4\n      0xffffffffffffffffffffffffffffffffffffffff\n      and\n      mul\n      or\n      swap1\n      sstore\n      pop\n        /* \"contracts/ExchangeAggregator.sol\":3523:3632  function ChangeFeeReciever(address _feeReciever) public onlyOwner {... */\n      pop\n      jump\t// out\n        /* \"@openzeppelin/contracts/access/Ownable.sol\":2081:2279  function transferOwnership(address newOwner) public virtual onlyOwner {... */\n    tag_82:\n        /* \"@openzeppelin/contracts/access/Ownable.sol\":1094:1107  _checkOwner() */\n      tag_241\n        /* \"@openzeppelin/contracts/access/Ownable.sol\":1094:1105  _checkOwner */\n      tag_155\n        /* \"@openzeppelin/contracts/access/Ownable.sol\":1094:1107  _checkOwner() */\n      jump\t// in\n    tag_241:\n        /* \"@openzeppelin/contracts/access/Ownable.sol\":2189:2190  0 */\n      0x00\n        /* \"@openzeppelin/contracts/access/Ownable.sol\":2169:2191  newOwner != address(0) */\n      0xffffffffffffffffffffffffffffffffffffffff\n      and\n        /* \"@openzeppelin/contracts/access/Ownable.sol\":2169:2177  newOwner */\n      dup2\n        /* \"@openzeppelin/contracts/access/Ownable.sol\":2169:2191  newOwner != address(0) */\n      0xffffffffffffffffffffffffffffffffffffffff\n      and\n      sub\n        /* \"@openzeppelin/contracts/access/Ownable.sol\":2161:2234  require(newOwner != address(0), \"Ownable: new owner is the zero address\") */\n      tag_243\n      jumpi\n      mload(0x40)\n      0x08c379a000000000000000000000000000000000000000000000000000000000\n      dup2\n      mstore\n      0x04\n      add\n      tag_244\n      swap1\n      tag_245\n      jump\t// in\n    tag_244:\n      mload(0x40)\n      dup1\n      swap2\n      sub\n      swap1\n      revert\n    tag_243:\n        /* \"@openzeppelin/contracts/access/Ownable.sol\":2244:2272  _transferOwnership(newOwner) */\n      tag_246\n        /* \"@openzeppelin/contracts/access/Ownable.sol\":2263:2271  newOwner */\n      dup2\n        /* \"@openzeppelin/contracts/access/Ownable.sol\":2244:2262  _transferOwnership */\n      tag_197\n        /* \"@openzeppelin/contracts/access/Ownable.sol\":2244:2272  _transferOwnership(newOwner) */\n      jump\t// in\n    tag_246:\n        /* \"@openzeppelin/contracts/access/Ownable.sol\":2081:2279  function transferOwnership(address newOwner) public virtual onlyOwner {... */\n      pop\n      jump\t// out\n        /* \"contracts/ExchangeAggregator.sol\":600:626  address public feeReciever */\n    tag_85:\n      0x01\n      0x00\n      swap1\n      sload\n      swap1\n      0x0100\n      exp\n      swap1\n      div\n      0xffffffffffffffffffffffffffffffffffffffff\n      and\n      dup2\n      jump\t// out\n        /* \"contracts/libraries/utils.sol\":224:484  function checkSig(address owner,bytes memory data, bytes memory sig) internal pure {... */\n    tag_109:\n        /* \"contracts/libraries/utils.sol\":327:331  0x1b */\n      0x1b\n        /* \"contracts/libraries/utils.sol\":317:331  sig[64] = 0x1b */\n      0xf8\n      shl\n        /* \"contracts/libraries/utils.sol\":317:320  sig */\n      dup2\n        /* \"contracts/libraries/utils.sol\":321:323  64 */\n      0x40\n        /* \"contracts/libraries/utils.sol\":317:324  sig[64] */\n      dup2\n      mload\n      dup2\n      lt\n      tag_248\n      jumpi\n      tag_249\n      tag_221\n      jump\t// in\n    tag_249:\n    tag_248:\n      0x20\n      add\n      add\n        /* \"contracts/libraries/utils.sol\":317:331  sig[64] = 0x1b */\n      swap1\n      not(0xffffffffffffffffffffffffffffffffffffffffffffffffffffffffffffff)\n      and\n      swap1\n      dup2\n      0x00\n      byte\n      swap1\n      mstore8\n      pop\n        /* \"contracts/libraries/utils.sol\":372:377  owner */\n      dup3\n        /* \"contracts/libraries/utils.sol\":345:377  hash(data).recover(sig) == owner */\n      0xffffffffffffffffffffffffffffffffffffffff\n      and\n        /* \"contracts/libraries/utils.sol\":345:368  hash(data).recover(sig) */\n      tag_250\n        /* \"contracts/libraries/utils.sol\":364:367  sig */\n      dup3\n        /* \"contracts/libraries/utils.sol\":345:355  hash(data) */\n      tag_251\n        /* \"contracts/libraries/utils.sol\":350:354  data */\n      dup6\n        /* \"contracts/libraries/utils.sol\":345:349  hash */\n      tag_252\n        /* \"contracts/libraries/utils.sol\":345:355  hash(data) */\n      jump\t// in\n    tag_251:\n        /* \"contracts/libraries/utils.sol\":345:363  hash(data).recover */\n      tag_253\n      swap1\n        /* \"contracts/libraries/utils.sol\":345:368  hash(data).recover(sig) */\n      swap2\n      swap1\n      0xffffffff\n      and\n      jump\t// in\n    tag_250:\n        /* \"contracts/libraries/utils.sol\":345:377  hash(data).recover(sig) == owner */\n      0xffffffffffffffffffffffffffffffffffffffff\n      and\n      sub\n        /* \"contracts/libraries/utils.sol\":341:387  if (hash(data).recover(sig) == owner) return ; */\n      iszero\n        /* \"contracts/libraries/utils.sol\":379:387  return ; */\n      tag_247\n        /* \"contracts/libraries/utils.sol\":341:387  if (hash(data).recover(sig) == owner) return ; */\n      jumpi\n        /* \"contracts/libraries/utils.sol\":406:410  0x1c */\n      0x1c\n        /* \"contracts/libraries/utils.sol\":396:410  sig[64] = 0x1c */\n      0xf8\n      shl\n        /* \"contracts/libraries/utils.sol\":396:399  sig */\n      dup2\n        /* \"contracts/libraries/utils.sol\":400:402  64 */\n      0x40\n        /* \"contracts/libraries/utils.sol\":396:403  sig[64] */\n      dup2\n      mload\n      dup2\n      lt\n      tag_255\n      jumpi\n      tag_256\n      tag_221\n      jump\t// in\n    tag_256:\n    tag_255:\n      0x20\n      add\n      add\n        /* \"contracts/libraries/utils.sol\":396:410  sig[64] = 0x1c */\n      swap1\n      not(0xffffffffffffffffffffffffffffffffffffffffffffffffffffffffffffff)\n      and\n      swap1\n      dup2\n      0x00\n      byte\n      swap1\n      mstore8\n      pop\n        /* \"contracts/libraries/utils.sol\":455:460  owner */\n      dup3\n        /* \"contracts/libraries/utils.sol\":428:460  hash(data).recover(sig) == owner */\n      0xffffffffffffffffffffffffffffffffffffffff\n      and\n        /* \"contracts/libraries/utils.sol\":428:451  hash(data).recover(sig) */\n      tag_257\n        /* \"contracts/libraries/utils.sol\":447:450  sig */\n      dup3\n        /* \"contracts/libraries/utils.sol\":428:438  hash(data) */\n      tag_258\n        /* \"contracts/libraries/utils.sol\":433:437  data */\n      dup6\n        /* \"contracts/libraries/utils.sol\":428:432  hash */\n      tag_252\n        /* \"contracts/libraries/utils.sol\":428:438  hash(data) */\n      jump\t// in\n    tag_258:\n        /* \"contracts/libraries/utils.sol\":428:446  hash(data).recover */\n      tag_253\n      swap1\n        /* \"contracts/libraries/utils.sol\":428:451  hash(data).recover(sig) */\n      swap2\n      swap1\n      0xffffffff\n      and\n      jump\t// in\n    tag_257:\n        /* \"contracts/libraries/utils.sol\":428:460  hash(data).recover(sig) == owner */\n      0xffffffffffffffffffffffffffffffffffffffff\n      and\n      eq\n        /* \"contracts/libraries/utils.sol\":420:477  require(hash(data).recover(sig) == owner,\"data tampered\") */\n      tag_259\n      jumpi\n      mload(0x40)\n      0x08c379a000000000000000000000000000000000000000000000000000000000\n      dup2\n      mstore\n      0x04\n      add\n      tag_260\n      swap1\n      tag_261\n      jump\t// in\n    tag_260:\n      mload(0x40)\n      dup1\n      swap2\n      sub\n      swap1\n      revert\n    tag_259:\n        /* \"contracts/libraries/utils.sol\":224:484  function checkSig(address owner,bytes memory data, bytes memory sig) internal pure {... */\n    tag_247:\n      pop\n      pop\n      pop\n      jump\t// out\n        /* \"contracts/libraries/transferHelper.sol\":1061:1529  function safeTransferFrom(... */\n    tag_117:\n        /* \"contracts/libraries/transferHelper.sol\":1279:1291  bool success */\n      0x00\n        /* \"contracts/libraries/transferHelper.sol\":1293:1310  bytes memory data */\n      dup1\n        /* \"contracts/libraries/transferHelper.sol\":1314:1319  token */\n      dup6\n        /* \"contracts/libraries/transferHelper.sol\":1314:1324  token.call */\n      0xffffffffffffffffffffffffffffffffffffffff\n      and\n        /* \"contracts/libraries/transferHelper.sol\":1348:1358  0x23b872dd */\n      0x23b872dd\n        /* \"contracts/libraries/transferHelper.sol\":1360:1364  from */\n      dup7\n        /* \"contracts/libraries/transferHelper.sol\":1366:1368  to */\n      dup7\n        /* \"contracts/libraries/transferHelper.sol\":1370:1375  value */\n      dup7\n        /* \"contracts/libraries/transferHelper.sol\":1325:1376  abi.encodeWithSelector(0x23b872dd, from, to, value) */\n      add(0x24, mload(0x40))\n      tag_263\n      swap4\n      swap3\n      swap2\n      swap1\n      tag_264\n      jump\t// in\n    tag_263:\n      mload(0x40)\n      0x20\n      dup2\n      dup4\n      sub\n      sub\n      dup2\n      mstore\n      swap1\n      0x40\n      mstore\n      swap1\n      0xe0\n      shl\n      0x20\n      dup3\n      add\n      dup1\n      mload\n      0xffffffffffffffffffffffffffffffffffffffffffffffffffffffff\n      dup4\n      dup2\n      dup4\n      and\n      or\n      dup4\n      mstore\n      pop\n      pop\n      pop\n      pop\n        /* \"contracts/libraries/transferHelper.sol\":1314:1377  token.call(abi.encodeWithSelector(0x23b872dd, from, to, value)) */\n      mload(0x40)\n      tag_265\n      swap2\n      swap1\n      tag_266\n      jump\t// in\n    tag_265:\n      0x00\n      mload(0x40)\n      dup1\n      dup4\n      sub\n      dup2\n      0x00\n      dup7\n      gas\n      call\n      swap2\n      pop\n      pop\n      returndatasize\n      dup1\n      0x00\n      dup2\n      eq\n      tag_269\n      jumpi\n      mload(0x40)\n      swap2\n      pop\n      and(add(returndatasize, 0x3f), not(0x1f))\n      dup3\n      add\n      0x40\n      mstore\n      returndatasize\n      dup3\n      mstore\n      returndatasize\n      0x00\n      0x20\n      dup5\n      add\n      returndatacopy\n      jump(tag_268)\n    tag_269:\n      0x60\n      swap2\n      pop\n    tag_268:\n      pop\n        /* \"contracts/libraries/transferHelper.sol\":1278:1377  (bool success, bytes memory data) = token.call(abi.encodeWithSelector(0x23b872dd, from, to, value)) */\n      swap2\n      pop\n      swap2\n      pop\n        /* \"contracts/libraries/transferHelper.sol\":1408:1415  success */\n      dup2\n        /* \"contracts/libraries/transferHelper.sol\":1408:1465  success && (data.length == 0 || abi.decode(data, (bool))) */\n      dup1\n      iszero\n      tag_270\n      jumpi\n      pop\n        /* \"contracts/libraries/transferHelper.sol\":1435:1436  0 */\n      0x00\n        /* \"contracts/libraries/transferHelper.sol\":1420:1424  data */\n      dup2\n        /* \"contracts/libraries/transferHelper.sol\":1420:1431  data.length */\n      mload\n        /* \"contracts/libraries/transferHelper.sol\":1420:1436  data.length == 0 */\n      eq\n        /* \"contracts/libraries/transferHelper.sol\":1420:1464  data.length == 0 || abi.decode(data, (bool)) */\n      dup1\n      tag_271\n      jumpi\n      pop\n        /* \"contracts/libraries/transferHelper.sol\":1451:1455  data */\n      dup1\n        /* \"contracts/libraries/transferHelper.sol\":1440:1464  abi.decode(data, (bool)) */\n      dup1\n      0x20\n      add\n      swap1\n      mload\n      dup2\n      add\n      swap1\n      tag_272\n      swap2\n      swap1\n      tag_273\n      jump\t// in\n    tag_272:\n        /* \"contracts/libraries/transferHelper.sol\":1420:1464  data.length == 0 || abi.decode(data, (bool)) */\n    tag_271:\n        /* \"contracts/libraries/transferHelper.sol\":1408:1465  success && (data.length == 0 || abi.decode(data, (bool))) */\n    tag_270:\n        /* \"contracts/libraries/transferHelper.sol\":1387:1522  require(... */\n      tag_274\n      jumpi\n      mload(0x40)\n      0x08c379a000000000000000000000000000000000000000000000000000000000\n      dup2\n      mstore\n      0x04\n      add\n      tag_275\n      swap1\n      tag_276\n      jump\t// in\n    tag_275:\n      mload(0x40)\n      dup1\n      swap2\n      sub\n      swap1\n      revert\n    tag_274:\n        /* \"contracts/libraries/transferHelper.sol\":1190:1529  {... */\n      pop\n      pop\n        /* \"contracts/libraries/transferHelper.sol\":1061:1529  function safeTransferFrom(... */\n      pop\n      pop\n      pop\n      pop\n      jump\t// out\n        /* \"contracts/libraries/transferHelper.sol\":635:1055  function safeTransfer(... */\n    tag_121:\n        /* \"contracts/libraries/transferHelper.sol\":815:827  bool success */\n      0x00\n        /* \"contracts/libraries/transferHelper.sol\":829:846  bytes memory data */\n      dup1\n        /* \"contracts/libraries/transferHelper.sol\":850:855  token */\n      dup5\n        /* \"contracts/libraries/transferHelper.sol\":850:860  token.call */\n      0xffffffffffffffffffffffffffffffffffffffff\n      and\n        /* \"contracts/libraries/transferHelper.sol\":884:894  0xa9059cbb */\n      0xa9059cbb\n        /* \"contracts/libraries/transferHelper.sol\":896:898  to */\n      dup6\n        /* \"contracts/libraries/transferHelper.sol\":900:905  value */\n      dup6\n        /* \"contracts/libraries/transferHelper.sol\":861:906  abi.encodeWithSelector(0xa9059cbb, to, value) */\n      add(0x24, mload(0x40))\n      tag_278\n      swap3\n      swap2\n      swap1\n      tag_279\n      jump\t// in\n    tag_278:\n      mload(0x40)\n      0x20\n      dup2\n      dup4\n      sub\n      sub\n      dup2\n      mstore\n      swap1\n      0x40\n      mstore\n      swap1\n      0xe0\n      shl\n      0x20\n      dup3\n      add\n      dup1\n      mload\n      0xffffffffffffffffffffffffffffffffffffffffffffffffffffffff\n      dup4\n      dup2\n      dup4\n      and\n      or\n      dup4\n      mstore\n      pop\n      pop\n      pop\n      pop\n        /* \"contracts/libraries/transferHelper.sol\":850:907  token.call(abi.encodeWithSelector(0xa9059cbb, to, value)) */\n      mload(0x40)\n      tag_280\n      swap2\n      swap1\n      tag_266\n      jump\t// in\n    tag_280:\n      0x00\n      mload(0x40)\n      dup1\n      dup4\n      sub\n      dup2\n      0x00\n      dup7\n      gas\n      call\n      swap2\n      pop\n      pop\n      returndatasize\n      dup1\n      0x00\n      dup2\n      eq\n      tag_283\n      jumpi\n      mload(0x40)\n      swap2\n      pop\n      and(add(returndatasize, 0x3f), not(0x1f))\n      dup3\n      add\n      0x40\n      mstore\n      returndatasize\n      dup3\n      mstore\n      returndatasize\n      0x00\n      0x20\n      dup5\n      add\n      returndatacopy\n      jump(tag_282)\n    tag_283:\n      0x60\n      swap2\n      pop\n    tag_282:\n      pop\n        /* \"contracts/libraries/transferHelper.sol\":814:907  (bool success, bytes memory data) = token.call(abi.encodeWithSelector(0xa9059cbb, to, value)) */\n      swap2\n      pop\n      swap2\n      pop\n        /* \"contracts/libraries/transferHelper.sol\":938:945  success */\n      dup2\n        /* \"contracts/libraries/transferHelper.sol\":938:995  success && (data.length == 0 || abi.decode(data, (bool))) */\n      dup1\n      iszero\n      tag_284\n      jumpi\n      pop\n        /* \"contracts/libraries/transferHelper.sol\":965:966  0 */\n      0x00\n        /* \"contracts/libraries/transferHelper.sol\":950:954  data */\n      dup2\n        /* \"contracts/libraries/transferHelper.sol\":950:961  data.length */\n      mload\n        /* \"contracts/libraries/transferHelper.sol\":950:966  data.length == 0 */\n      eq\n        /* \"contracts/libraries/transferHelper.sol\":950:994  data.length == 0 || abi.decode(data, (bool)) */\n      dup1\n      tag_285\n      jumpi\n      pop\n        /* \"contracts/libraries/transferHelper.sol\":981:985  data */\n      dup1\n        /* \"contracts/libraries/transferHelper.sol\":970:994  abi.decode(data, (bool)) */\n      dup1\n      0x20\n      add\n      swap1\n      mload\n      dup2\n      add\n      swap1\n      tag_286\n      swap2\n      swap1\n      tag_273\n      jump\t// in\n    tag_286:\n        /* \"contracts/libraries/transferHelper.sol\":950:994  data.length == 0 || abi.decode(data, (bool)) */\n    tag_285:\n        /* \"contracts/libraries/transferHelper.sol\":938:995  success && (data.length == 0 || abi.decode(data, (bool))) */\n    tag_284:\n        /* \"contracts/libraries/transferHelper.sol\":917:1048  require(... */\n      tag_287\n      jumpi\n      mload(0x40)\n      0x08c379a000000000000000000000000000000000000000000000000000000000\n      dup2\n      mstore\n      0x04\n      add\n      tag_288\n      swap1\n      tag_289\n      jump\t// in\n    tag_288:\n      mload(0x40)\n      dup1\n      swap2\n      sub\n      swap1\n      revert\n    tag_287:\n        /* \"contracts/libraries/transferHelper.sol\":738:1055  {... */\n      pop\n      pop\n        /* \"contracts/libraries/transferHelper.sol\":635:1055  function safeTransfer(... */\n      pop\n      pop\n      pop\n      jump\t// out\n        /* \"contracts/libraries/transferHelper.sol\":212:629  function safeApprove(... */\n    tag_125:\n        /* \"contracts/libraries/transferHelper.sol\":390:402  bool success */\n      0x00\n        /* \"contracts/libraries/transferHelper.sol\":404:421  bytes memory data */\n      dup1\n        /* \"contracts/libraries/transferHelper.sol\":425:430  token */\n      dup5\n        /* \"contracts/libraries/transferHelper.sol\":425:435  token.call */\n      0xffffffffffffffffffffffffffffffffffffffff\n      and\n        /* \"contracts/libraries/transferHelper.sol\":459:469  0x095ea7b3 */\n      0x095ea7b3\n        /* \"contracts/libraries/transferHelper.sol\":471:473  to */\n      dup6\n        /* \"contracts/libraries/transferHelper.sol\":475:480  value */\n      dup6\n        /* \"contracts/libraries/transferHelper.sol\":436:481  abi.encodeWithSelector(0x095ea7b3, to, value) */\n      add(0x24, mload(0x40))\n      tag_291\n      swap3\n      swap2\n      swap1\n      tag_279\n      jump\t// in\n    tag_291:\n      mload(0x40)\n      0x20\n      dup2\n      dup4\n      sub\n      sub\n      dup2\n      mstore\n      swap1\n      0x40\n      mstore\n      swap1\n      0xe0\n      shl\n      0x20\n      dup3\n      add\n      dup1\n      mload\n      0xffffffffffffffffffffffffffffffffffffffffffffffffffffffff\n      dup4\n      dup2\n      dup4\n      and\n      or\n      dup4\n      mstore\n      pop\n      pop\n      pop\n      pop\n        /* \"contracts/libraries/transferHelper.sol\":425:482  token.call(abi.encodeWithSelector(0x095ea7b3, to, value)) */\n      mload(0x40)\n      tag_292\n      swap2\n      swap1\n      tag_266\n      jump\t// in\n    tag_292:\n      0x00\n      mload(0x40)\n      dup1\n      dup4\n      sub\n      dup2\n      0x00\n      dup7\n      gas\n      call\n      swap2\n      pop\n      pop\n      returndatasize\n      dup1\n      0x00\n      dup2\n      eq\n      tag_295\n      jumpi\n      mload(0x40)\n      swap2\n      pop\n      and(add(returndatasize, 0x3f), not(0x1f))\n      dup3\n      add\n      0x40\n      mstore\n      returndatasize\n      dup3\n      mstore\n      returndatasize\n      0x00\n      0x20\n      dup5\n      add\n      returndatacopy\n      jump(tag_294)\n    tag_295:\n      0x60\n      swap2\n      pop\n    tag_294:\n      pop\n        /* \"contracts/libraries/transferHelper.sol\":389:482  (bool success, bytes memory data) = token.call(abi.encodeWithSelector(0x095ea7b3, to, value)) */\n      swap2\n      pop\n      swap2\n      pop\n        /* \"contracts/libraries/transferHelper.sol\":513:520  success */\n      dup2\n        /* \"contracts/libraries/transferHelper.sol\":513:570  success && (data.length == 0 || abi.decode(data, (bool))) */\n      dup1\n      iszero\n      tag_296\n      jumpi\n      pop\n        /* \"contracts/libraries/transferHelper.sol\":540:541  0 */\n      0x00\n        /* \"contracts/libraries/transferHelper.sol\":525:529  data */\n      dup2\n        /* \"contracts/libraries/transferHelper.sol\":525:536  data.length */\n      mload\n        /* \"contracts/libraries/transferHelper.sol\":525:541  data.length == 0 */\n      eq\n        /* \"contracts/libraries/transferHelper.sol\":525:569  data.length == 0 || abi.decode(data, (bool)) */\n      dup1\n      tag_297\n      jumpi\n      pop\n        /* \"contracts/libraries/transferHelper.sol\":556:560  data */\n      dup1\n        /* \"contracts/libraries/transferHelper.sol\":545:569  abi.decode(data, (bool)) */\n      dup1\n      0x20\n      add\n      swap1\n      mload\n      dup2\n      add\n      swap1\n      tag_298\n      swap2\n      swap1\n      tag_273\n      jump\t// in\n    tag_298:\n        /* \"contracts/libraries/transferHelper.sol\":525:569  data.length == 0 || abi.decode(data, (bool)) */\n    tag_297:\n        /* \"contracts/libraries/transferHelper.sol\":513:570  success && (data.length == 0 || abi.decode(data, (bool))) */\n    tag_296:\n        /* \"contracts/libraries/transferHelper.sol\":492:622  require(... */\n      tag_299\n      jumpi\n      mload(0x40)\n      0x08c379a000000000000000000000000000000000000000000000000000000000\n      dup2\n      mstore\n      0x04\n      add\n      tag_300\n      swap1\n      tag_301\n      jump\t// in\n    tag_300:\n      mload(0x40)\n      dup1\n      swap2\n      sub\n      swap1\n      revert\n    tag_299:\n        /* \"contracts/libraries/transferHelper.sol\":314:629  {... */\n      pop\n      pop\n        /* \"contracts/libraries/transferHelper.sol\":212:629  function safeApprove(... */\n      pop\n      pop\n      pop\n      jump\t// out\n        /* \"contracts/libraries/transferHelper.sol\":1535:1727  function safeTransferETH(address to, uint256 value) internal {... */\n    tag_131:\n        /* \"contracts/libraries/transferHelper.sol\":1607:1619  bool success */\n      0x00\n        /* \"contracts/libraries/transferHelper.sol\":1625:1627  to */\n      dup3\n        /* \"contracts/libraries/transferHelper.sol\":1625:1632  to.call */\n      0xffffffffffffffffffffffffffffffffffffffff\n      and\n        /* \"contracts/libraries/transferHelper.sol\":1640:1645  value */\n      dup3\n        /* \"contracts/libraries/transferHelper.sol\":1657:1658  0 */\n      0x00\n        /* \"contracts/libraries/transferHelper.sol\":1647:1659  new bytes(0) */\n      0xffffffffffffffff\n      dup2\n      gt\n      iszero\n      tag_303\n      jumpi\n      tag_304\n      tag_213\n      jump\t// in\n    tag_304:\n    tag_303:\n      mload(0x40)\n      swap1\n      dup1\n      dup3\n      mstore\n      dup1\n      0x1f\n      add\n      not(0x1f)\n      and\n      0x20\n      add\n      dup3\n      add\n      0x40\n      mstore\n      dup1\n      iszero\n      tag_305\n      jumpi\n      dup2\n      0x20\n      add\n      0x01\n      dup3\n      mul\n      dup1\n      calldatasize\n      dup4\n      calldatacopy\n      dup1\n      dup3\n      add\n      swap2\n      pop\n      pop\n      swap1\n      pop\n    tag_305:\n      pop\n        /* \"contracts/libraries/transferHelper.sol\":1625:1660  to.call{value: value}(new bytes(0)) */\n      mload(0x40)\n      tag_306\n      swap2\n      swap1\n      tag_266\n      jump\t// in\n    tag_306:\n      0x00\n      mload(0x40)\n      dup1\n      dup4\n      sub\n      dup2\n      dup6\n      dup8\n      gas\n      call\n      swap3\n      pop\n      pop\n      pop\n      returndatasize\n      dup1\n      0x00\n      dup2\n      eq\n      tag_309\n      jumpi\n      mload(0x40)\n      swap2\n      pop\n      and(add(returndatasize, 0x3f), not(0x1f))\n      dup3\n      add\n      0x40\n      mstore\n      returndatasize\n      dup3\n      mstore\n      returndatasize\n      0x00\n      0x20\n      dup5\n      add\n      returndatacopy\n      jump(tag_308)\n    tag_309:\n      0x60\n      swap2\n      pop\n    tag_308:\n      pop\n        /* \"contracts/libraries/transferHelper.sol\":1606:1660  (bool success, ) = to.call{value: value}(new bytes(0)) */\n      pop\n      swap1\n      pop\n        /* \"contracts/libraries/transferHelper.sol\":1678:1685  success */\n      dup1\n        /* \"contracts/libraries/transferHelper.sol\":1670:1720  require(success, \"TransferHelper:safeTransferETH\") */\n      tag_310\n      jumpi\n      mload(0x40)\n      0x08c379a000000000000000000000000000000000000000000000000000000000\n      dup2\n      mstore\n      0x04\n      add\n      tag_311\n      swap1\n      tag_312\n      jump\t// in\n    tag_311:\n      mload(0x40)\n      dup1\n      swap2\n      sub\n      swap1\n      revert\n    tag_310:\n        /* \"contracts/libraries/transferHelper.sol\":1596:1727  {... */\n      pop\n        /* \"contracts/libraries/transferHelper.sol\":1535:1727  function safeTransferETH(address to, uint256 value) internal {... */\n      pop\n      pop\n      jump\t// out\n        /* \"contracts/libraries/safeCaller.sol\":83:554  function safeCall(... */\n    tag_141:\n        /* \"contracts/libraries/safeCaller.sol\":201:213  bool succeed */\n      0x00\n        /* \"contracts/libraries/safeCaller.sol\":214:233  bytes memory result */\n      dup1\n        /* \"contracts/libraries/safeCaller.sol\":237:246  _contract */\n      dup5\n        /* \"contracts/libraries/safeCaller.sol\":237:251  _contract.call */\n      0xffffffffffffffffffffffffffffffffffffffff\n      and\n        /* \"contracts/libraries/safeCaller.sol\":259:264  value */\n      dup5\n        /* \"contracts/libraries/safeCaller.sol\":266:270  data */\n      dup5\n        /* \"contracts/libraries/safeCaller.sol\":237:271  _contract.call{value: value}(data) */\n      mload(0x40)\n      tag_314\n      swap2\n      swap1\n      tag_266\n      jump\t// in\n    tag_314:\n      0x00\n      mload(0x40)\n      dup1\n      dup4\n      sub\n      dup2\n      dup6\n      dup8\n      gas\n      call\n      swap3\n      pop\n      pop\n      pop\n      returndatasize\n      dup1\n      0x00\n      dup2\n      eq\n      tag_317\n      jumpi\n      mload(0x40)\n      swap2\n      pop\n      and(add(returndatasize, 0x3f), not(0x1f))\n      dup3\n      add\n      0x40\n      mstore\n      returndatasize\n      dup3\n      mstore\n      returndatasize\n      0x00\n      0x20\n      dup5\n      add\n      returndatacopy\n      jump(tag_316)\n    tag_317:\n      0x60\n      swap2\n      pop\n    tag_316:\n      pop\n        /* \"contracts/libraries/safeCaller.sol\":200:271  (bool succeed,bytes memory result) = _contract.call{value: value}(data) */\n      swap2\n      pop\n      swap2\n      pop\n        /* \"contracts/libraries/safeCaller.sol\":286:293  succeed */\n      dup2\n        /* \"contracts/libraries/safeCaller.sol\":281:548  if (!succeed) {... */\n      tag_318\n      jumpi\n        /* \"contracts/libraries/safeCaller.sol\":333:335  68 */\n      0x44\n        /* \"contracts/libraries/safeCaller.sol\":317:323  result */\n      dup2\n        /* \"contracts/libraries/safeCaller.sol\":317:330  result.length */\n      mload\n        /* \"contracts/libraries/safeCaller.sol\":317:335  result.length < 68 */\n      lt\n        /* \"contracts/libraries/safeCaller.sol\":313:386  if (result.length < 68) revert(\"ExchangeAggregator::SafeCaller:safeCall\") */\n      iszero\n      tag_319\n      jumpi\n        /* \"contracts/libraries/safeCaller.sol\":337:386  revert(\"ExchangeAggregator::SafeCaller:safeCall\") */\n      mload(0x40)\n      0x08c379a000000000000000000000000000000000000000000000000000000000\n      dup2\n      mstore\n      0x04\n      add\n      tag_320\n      swap1\n      tag_321\n      jump\t// in\n    tag_320:\n      mload(0x40)\n      dup1\n      swap2\n      sub\n      swap1\n      revert\n        /* \"contracts/libraries/safeCaller.sol\":313:386  if (result.length < 68) revert(\"ExchangeAggregator::SafeCaller:safeCall\") */\n    tag_319:\n        /* \"contracts/libraries/safeCaller.sol\":457:461  0x04 */\n      0x04\n        /* \"contracts/libraries/safeCaller.sol\":449:455  result */\n      dup2\n        /* \"contracts/libraries/safeCaller.sol\":445:462  add(result, 0x04) */\n      add\n        /* \"contracts/libraries/safeCaller.sol\":435:462  result := add(result, 0x04) */\n      swap1\n      pop\n        /* \"contracts/libraries/safeCaller.sol\":515:521  result */\n      dup1\n        /* \"contracts/libraries/safeCaller.sol\":504:532  abi.decode(result, (string)) */\n      dup1\n      0x20\n      add\n      swap1\n      mload\n      dup2\n      add\n      swap1\n      tag_322\n      swap2\n      swap1\n      tag_230\n      jump\t// in\n    tag_322:\n        /* \"contracts/libraries/safeCaller.sol\":497:533  revert(abi.decode(result, (string))) */\n      mload(0x40)\n      0x08c379a000000000000000000000000000000000000000000000000000000000\n      dup2\n      mstore\n      0x04\n      add\n      tag_323\n      swap2\n      swap1\n      tag_232\n      jump\t// in\n    tag_323:\n      mload(0x40)\n      dup1\n      swap2\n      sub\n      swap1\n      revert\n        /* \"contracts/libraries/safeCaller.sol\":281:548  if (!succeed) {... */\n    tag_318:\n        /* \"contracts/libraries/safeCaller.sol\":190:554  {... */\n      pop\n      pop\n        /* \"contracts/libraries/safeCaller.sol\":83:554  function safeCall(... */\n      pop\n      pop\n      pop\n      jump\t// out\n        /* \"@openzeppelin/contracts/access/Ownable.sol\":1359:1489  function _checkOwner() internal view virtual {... */\n    tag_155:\n        /* \"@openzeppelin/contracts/access/Ownable.sol\":1433:1445  _msgSender() */\n      tag_325\n        /* \"@openzeppelin/contracts/access/Ownable.sol\":1433:1443  _msgSender */\n      tag_326\n        /* \"@openzeppelin/contracts/access/Ownable.sol\":1433:1445  _msgSender() */\n      jump\t// in\n    tag_325:\n        /* \"@openzeppelin/contracts/access/Ownable.sol\":1422:1445  owner() == _msgSender() */\n      0xffffffffffffffffffffffffffffffffffffffff\n      and\n        /* \"@openzeppelin/contracts/access/Ownable.sol\":1422:1429  owner() */\n      tag_327\n        /* \"@openzeppelin/contracts/access/Ownable.sol\":1422:1427  owner */\n      tag_54\n        /* \"@openzeppelin/contracts/access/Ownable.sol\":1422:1429  owner() */\n      jump\t// in\n    tag_327:\n        /* \"@openzeppelin/contracts/access/Ownable.sol\":1422:1445  owner() == _msgSender() */\n      0xffffffffffffffffffffffffffffffffffffffff\n      and\n      eq\n        /* \"@openzeppelin/contracts/access/Ownable.sol\":1414:1482  require(owner() == _msgSender(), \"Ownable: caller is not the owner\") */\n      tag_328\n      jumpi\n      mload(0x40)\n      0x08c379a000000000000000000000000000000000000000000000000000000000\n      dup2\n      mstore\n      0x04\n      add\n      tag_329\n      swap1\n      tag_330\n      jump\t// in\n    tag_329:\n      mload(0x40)\n      dup1\n      swap2\n      sub\n      swap1\n      revert\n    tag_328:\n        /* \"@openzeppelin/contracts/access/Ownable.sol\":1359:1489  function _checkOwner() internal view virtual {... */\n      jump\t// out\n        /* \"@openzeppelin/contracts/access/Ownable.sol\":2433:2620  function _transferOwnership(address newOwner) internal virtual {... */\n    tag_197:\n        /* \"@openzeppelin/contracts/access/Ownable.sol\":2506:2522  address oldOwner */\n      0x00\n        /* \"@openzeppelin/contracts/access/Ownable.sol\":2525:2531  _owner */\n      dup1\n      0x00\n      swap1\n      sload\n      swap1\n      0x0100\n      exp\n      swap1\n      div\n      0xffffffffffffffffffffffffffffffffffffffff\n      and\n        /* \"@openzeppelin/contracts/access/Ownable.sol\":2506:2531  address oldOwner = _owner */\n      swap1\n      pop\n        /* \"@openzeppelin/contracts/access/Ownable.sol\":2550:2558  newOwner */\n      dup2\n        /* \"@openzeppelin/contracts/access/Ownable.sol\":2541:2547  _owner */\n      0x00\n      dup1\n        /* \"@openzeppelin/contracts/access/Ownable.sol\":2541:2558  _owner = newOwner */\n      0x0100\n      exp\n      dup2\n      sload\n      dup2\n      0xffffffffffffffffffffffffffffffffffffffff\n      mul\n      not\n      and\n      swap1\n      dup4\n      0xffffffffffffffffffffffffffffffffffffffff\n      and\n      mul\n      or\n      swap1\n      sstore\n      pop\n        /* \"@openzeppelin/contracts/access/Ownable.sol\":2604:2612  newOwner */\n      dup2\n        /* \"@openzeppelin/contracts/access/Ownable.sol\":2573:2613  OwnershipTransferred(oldOwner, newOwner) */\n      0xffffffffffffffffffffffffffffffffffffffff\n      and\n        /* \"@openzeppelin/contracts/access/Ownable.sol\":2594:2602  oldOwner */\n      dup2\n        /* \"@openzeppelin/contracts/access/Ownable.sol\":2573:2613  OwnershipTransferred(oldOwner, newOwner) */\n      0xffffffffffffffffffffffffffffffffffffffff\n      and\n      0x8be0079c531659141344cd1fd0a4f28419497f9722a3daafe3b4186f6b6457e0\n      mload(0x40)\n      mload(0x40)\n      dup1\n      swap2\n      sub\n      swap1\n      log3\n        /* \"@openzeppelin/contracts/access/Ownable.sol\":2496:2620  {... */\n      pop\n        /* \"@openzeppelin/contracts/access/Ownable.sol\":2433:2620  function _transferOwnership(address newOwner) internal virtual {... */\n      pop\n      jump\t// out\n        /* \"contracts/libraries/utils.sol\":490:593  function hash(bytes memory data) private pure returns (bytes32) {... */\n    tag_252:\n        /* \"contracts/libraries/utils.sol\":545:552  bytes32 */\n      0x00\n        /* \"contracts/libraries/utils.sol\":581:585  data */\n      dup2\n        /* \"contracts/libraries/utils.sol\":571:586  keccak256(data) */\n      dup1\n      mload\n      swap1\n      0x20\n      add\n      keccak256\n        /* \"contracts/libraries/utils.sol\":564:586  return keccak256(data) */\n      swap1\n      pop\n        /* \"contracts/libraries/utils.sol\":490:593  function hash(bytes memory data) private pure returns (bytes32) {... */\n      swap2\n      swap1\n      pop\n      jump\t// out\n        /* \"@openzeppelin/contracts/utils/cryptography/ECDSA.sol\":3661:3888  function recover(bytes32 hash, bytes memory signature) internal pure returns (address) {... */\n    tag_253:\n        /* \"@openzeppelin/contracts/utils/cryptography/ECDSA.sol\":3739:3746  address */\n      0x00\n        /* \"@openzeppelin/contracts/utils/cryptography/ECDSA.sol\":3759:3776  address recovered */\n      dup1\n        /* \"@openzeppelin/contracts/utils/cryptography/ECDSA.sol\":3778:3796  RecoverError error */\n      0x00\n        /* \"@openzeppelin/contracts/utils/cryptography/ECDSA.sol\":3800:3827  tryRecover(hash, signature) */\n      tag_334\n        /* \"@openzeppelin/contracts/utils/cryptography/ECDSA.sol\":3811:3815  hash */\n      dup6\n        /* \"@openzeppelin/contracts/utils/cryptography/ECDSA.sol\":3817:3826  signature */\n      dup6\n        /* \"@openzeppelin/contracts/utils/cryptography/ECDSA.sol\":3800:3810  tryRecover */\n      tag_335\n        /* \"@openzeppelin/contracts/utils/cryptography/ECDSA.sol\":3800:3827  tryRecover(hash, signature) */\n      jump\t// in\n    tag_334:\n        /* \"@openzeppelin/contracts/utils/cryptography/ECDSA.sol\":3758:3827  (address recovered, RecoverError error) = tryRecover(hash, signature) */\n      swap2\n      pop\n      swap2\n      pop\n        /* \"@openzeppelin/contracts/utils/cryptography/ECDSA.sol\":3837:3855  _throwError(error) */\n      tag_336\n        /* \"@openzeppelin/contracts/utils/cryptography/ECDSA.sol\":3849:3854  error */\n      dup2\n        /* \"@openzeppelin/contracts/utils/cryptography/ECDSA.sol\":3837:3848  _throwError */\n      tag_337\n        /* \"@openzeppelin/contracts/utils/cryptography/ECDSA.sol\":3837:3855  _throwError(error) */\n      jump\t// in\n    tag_336:\n        /* \"@openzeppelin/contracts/utils/cryptography/ECDSA.sol\":3872:3881  recovered */\n      dup2\n        /* \"@openzeppelin/contracts/utils/cryptography/ECDSA.sol\":3865:3881  return recovered */\n      swap3\n      pop\n      pop\n      pop\n        /* \"@openzeppelin/contracts/utils/cryptography/ECDSA.sol\":3661:3888  function recover(bytes32 hash, bytes memory signature) internal pure returns (address) {... */\n      swap3\n      swap2\n      pop\n      pop\n      jump\t// out\n        /* \"@openzeppelin/contracts/utils/Context.sol\":640:736  function _msgSender() internal view virtual returns (address) {... */\n    tag_326:\n        /* \"@openzeppelin/contracts/utils/Context.sol\":693:700  address */\n      0x00\n        /* \"@openzeppelin/contracts/utils/Context.sol\":719:729  msg.sender */\n      caller\n        /* \"@openzeppelin/contracts/utils/Context.sol\":712:729  return msg.sender */\n      swap1\n      pop\n        /* \"@openzeppelin/contracts/utils/Context.sol\":640:736  function _msgSender() internal view virtual returns (address) {... */\n      swap1\n      jump\t// out\n        /* \"@openzeppelin/contracts/utils/cryptography/ECDSA.sol\":2145:2875  function tryRecover(bytes32 hash, bytes memory signature) internal pure returns (address, RecoverError) {... */\n    tag_335:\n        /* \"@openzeppelin/contracts/utils/cryptography/ECDSA.sol\":2226:2233  address */\n      0x00\n        /* \"@openzeppelin/contracts/utils/cryptography/ECDSA.sol\":2235:2247  RecoverError */\n      dup1\n        /* \"@openzeppelin/contracts/utils/cryptography/ECDSA.sol\":2283:2285  65 */\n      0x41\n        /* \"@openzeppelin/contracts/utils/cryptography/ECDSA.sol\":2263:2272  signature */\n      dup4\n        /* \"@openzeppelin/contracts/utils/cryptography/ECDSA.sol\":2263:2279  signature.length */\n      mload\n        /* \"@openzeppelin/contracts/utils/cryptography/ECDSA.sol\":2263:2285  signature.length == 65 */\n      sub\n        /* \"@openzeppelin/contracts/utils/cryptography/ECDSA.sol\":2259:2869  if (signature.length == 65) {... */\n      tag_340\n      jumpi\n        /* \"@openzeppelin/contracts/utils/cryptography/ECDSA.sol\":2301:2310  bytes32 r */\n      0x00\n        /* \"@openzeppelin/contracts/utils/cryptography/ECDSA.sol\":2324:2333  bytes32 s */\n      dup1\n        /* \"@openzeppelin/contracts/utils/cryptography/ECDSA.sol\":2347:2354  uint8 v */\n      0x00\n        /* \"@openzeppelin/contracts/utils/cryptography/ECDSA.sol\":2599:2603  0x20 */\n      0x20\n        /* \"@openzeppelin/contracts/utils/cryptography/ECDSA.sol\":2588:2597  signature */\n      dup7\n        /* \"@openzeppelin/contracts/utils/cryptography/ECDSA.sol\":2584:2604  add(signature, 0x20) */\n      add\n        /* \"@openzeppelin/contracts/utils/cryptography/ECDSA.sol\":2578:2605  mload(add(signature, 0x20)) */\n      mload\n        /* \"@openzeppelin/contracts/utils/cryptography/ECDSA.sol\":2573:2605  r := mload(add(signature, 0x20)) */\n      swap3\n      pop\n        /* \"@openzeppelin/contracts/utils/cryptography/ECDSA.sol\":2648:2652  0x40 */\n      0x40\n        /* \"@openzeppelin/contracts/utils/cryptography/ECDSA.sol\":2637:2646  signature */\n      dup7\n        /* \"@openzeppelin/contracts/utils/cryptography/ECDSA.sol\":2633:2653  add(signature, 0x40) */\n      add\n        /* \"@openzeppelin/contracts/utils/cryptography/ECDSA.sol\":2627:2654  mload(add(signature, 0x40)) */\n      mload\n        /* \"@openzeppelin/contracts/utils/cryptography/ECDSA.sol\":2622:2654  s := mload(add(signature, 0x40)) */\n      swap2\n      pop\n        /* \"@openzeppelin/contracts/utils/cryptography/ECDSA.sol\":2705:2709  0x60 */\n      0x60\n        /* \"@openzeppelin/contracts/utils/cryptography/ECDSA.sol\":2694:2703  signature */\n      dup7\n        /* \"@openzeppelin/contracts/utils/cryptography/ECDSA.sol\":2690:2710  add(signature, 0x60) */\n      add\n        /* \"@openzeppelin/contracts/utils/cryptography/ECDSA.sol\":2684:2711  mload(add(signature, 0x60)) */\n      mload\n        /* \"@openzeppelin/contracts/utils/cryptography/ECDSA.sol\":2681:2682  0 */\n      0x00\n        /* \"@openzeppelin/contracts/utils/cryptography/ECDSA.sol\":2676:2712  byte(0, mload(add(signature, 0x60))) */\n      byte\n        /* \"@openzeppelin/contracts/utils/cryptography/ECDSA.sol\":2671:2712  v := byte(0, mload(add(signature, 0x60))) */\n      swap1\n      pop\n        /* \"@openzeppelin/contracts/utils/cryptography/ECDSA.sol\":2746:2771  tryRecover(hash, v, r, s) */\n      tag_341\n        /* \"@openzeppelin/contracts/utils/cryptography/ECDSA.sol\":2757:2761  hash */\n      dup8\n        /* \"@openzeppelin/contracts/utils/cryptography/ECDSA.sol\":2763:2764  v */\n      dup3\n        /* \"@openzeppelin/contracts/utils/cryptography/ECDSA.sol\":2766:2767  r */\n      dup6\n        /* \"@openzeppelin/contracts/utils/cryptography/ECDSA.sol\":2769:2770  s */\n      dup6\n        /* \"@openzeppelin/contracts/utils/cryptography/ECDSA.sol\":2746:2756  tryRecover */\n      tag_342\n        /* \"@openzeppelin/contracts/utils/cryptography/ECDSA.sol\":2746:2771  tryRecover(hash, v, r, s) */\n      jump\t// in\n    tag_341:\n        /* \"@openzeppelin/contracts/utils/cryptography/ECDSA.sol\":2739:2771  return tryRecover(hash, v, r, s) */\n      swap5\n      pop\n      swap5\n      pop\n      pop\n      pop\n      pop\n      jump(tag_339)\n        /* \"@openzeppelin/contracts/utils/cryptography/ECDSA.sol\":2259:2869  if (signature.length == 65) {... */\n    tag_340:\n        /* \"@openzeppelin/contracts/utils/cryptography/ECDSA.sol\":2818:2819  0 */\n      0x00\n        /* \"@openzeppelin/contracts/utils/cryptography/ECDSA.sol\":2822:2857  RecoverError.InvalidSignatureLength */\n      0x02\n        /* \"@openzeppelin/contracts/utils/cryptography/ECDSA.sol\":2802:2858  return (address(0), RecoverError.InvalidSignatureLength) */\n      swap2\n      pop\n      swap2\n      pop\n        /* \"@openzeppelin/contracts/utils/cryptography/ECDSA.sol\":2145:2875  function tryRecover(bytes32 hash, bytes memory signature) internal pure returns (address, RecoverError) {... */\n    tag_339:\n      swap3\n      pop\n      swap3\n      swap1\n      pop\n      jump\t// out\n        /* \"@openzeppelin/contracts/utils/cryptography/ECDSA.sol\":570:1081  function _throwError(RecoverError error) private pure {... */\n    tag_337:\n        /* \"@openzeppelin/contracts/utils/cryptography/ECDSA.sol\":647:667  RecoverError.NoError */\n      0x00\n        /* \"@openzeppelin/contracts/utils/cryptography/ECDSA.sol\":638:667  error == RecoverError.NoError */\n      0x04\n      dup2\n      gt\n      iszero\n      tag_345\n      jumpi\n      tag_346\n      tag_347\n      jump\t// in\n    tag_346:\n    tag_345:\n        /* \"@openzeppelin/contracts/utils/cryptography/ECDSA.sol\":638:643  error */\n      dup2\n        /* \"@openzeppelin/contracts/utils/cryptography/ECDSA.sol\":638:667  error == RecoverError.NoError */\n      0x04\n      dup2\n      gt\n      iszero\n      tag_348\n      jumpi\n      tag_349\n      tag_347\n      jump\t// in\n    tag_349:\n    tag_348:\n      sub\n        /* \"@openzeppelin/contracts/utils/cryptography/ECDSA.sol\":634:1075  if (error == RecoverError.NoError) {... */\n      iszero\n        /* \"@openzeppelin/contracts/utils/cryptography/ECDSA.sol\":683:690  return; */\n      tag_344\n        /* \"@openzeppelin/contracts/utils/cryptography/ECDSA.sol\":634:1075  if (error == RecoverError.NoError) {... */\n      jumpi\n        /* \"@openzeppelin/contracts/utils/cryptography/ECDSA.sol\":743:772  RecoverError.InvalidSignature */\n      0x01\n        /* \"@openzeppelin/contracts/utils/cryptography/ECDSA.sol\":734:772  error == RecoverError.InvalidSignature */\n      0x04\n      dup2\n      gt\n      iszero\n      tag_352\n      jumpi\n      tag_353\n      tag_347\n      jump\t// in\n    tag_353:\n    tag_352:\n        /* \"@openzeppelin/contracts/utils/cryptography/ECDSA.sol\":734:739  error */\n      dup2\n        /* \"@openzeppelin/contracts/utils/cryptography/ECDSA.sol\":734:772  error == RecoverError.InvalidSignature */\n      0x04\n      dup2\n      gt\n      iszero\n      tag_354\n      jumpi\n      tag_355\n      tag_347\n      jump\t// in\n    tag_355:\n    tag_354:\n      sub\n        /* \"@openzeppelin/contracts/utils/cryptography/ECDSA.sol\":730:1075  if (error == RecoverError.InvalidSignature) {... */\n      tag_356\n      jumpi\n        /* \"@openzeppelin/contracts/utils/cryptography/ECDSA.sol\":788:822  revert(\"ECDSA: invalid signature\") */\n      mload(0x40)\n      0x08c379a000000000000000000000000000000000000000000000000000000000\n      dup2\n      mstore\n      0x04\n      add\n      tag_357\n      swap1\n      tag_358\n      jump\t// in\n    tag_357:\n      mload(0x40)\n      dup1\n      swap2\n      sub\n      swap1\n      revert\n        /* \"@openzeppelin/contracts/utils/cryptography/ECDSA.sol\":730:1075  if (error == RecoverError.InvalidSignature) {... */\n    tag_356:\n        /* \"@openzeppelin/contracts/utils/cryptography/ECDSA.sol\":852:887  RecoverError.InvalidSignatureLength */\n      0x02\n        /* \"@openzeppelin/contracts/utils/cryptography/ECDSA.sol\":843:887  error == RecoverError.InvalidSignatureLength */\n      0x04\n      dup2\n      gt\n      iszero\n      tag_360\n      jumpi\n      tag_361\n      tag_347\n      jump\t// in\n    tag_361:\n    tag_360:\n        /* \"@openzeppelin/contracts/utils/cryptography/ECDSA.sol\":843:848  error */\n      dup2\n        /* \"@openzeppelin/contracts/utils/cryptography/ECDSA.sol\":843:887  error == RecoverError.InvalidSignatureLength */\n      0x04\n      dup2\n      gt\n      iszero\n      tag_362\n      jumpi\n      tag_363\n      tag_347\n      jump\t// in\n    tag_363:\n    tag_362:\n      sub\n        /* \"@openzeppelin/contracts/utils/cryptography/ECDSA.sol\":839:1075  if (error == RecoverError.InvalidSignatureLength) {... */\n      tag_364\n      jumpi\n        /* \"@openzeppelin/contracts/utils/cryptography/ECDSA.sol\":903:944  revert(\"ECDSA: invalid signature length\") */\n      mload(0x40)\n      0x08c379a000000000000000000000000000000000000000000000000000000000\n      dup2\n      mstore\n      0x04\n      add\n      tag_365\n      swap1\n      tag_366\n      jump\t// in\n    tag_365:\n      mload(0x40)\n      dup1\n      swap2\n      sub\n      swap1\n      revert\n        /* \"@openzeppelin/contracts/utils/cryptography/ECDSA.sol\":839:1075  if (error == RecoverError.InvalidSignatureLength) {... */\n    tag_364:\n        /* \"@openzeppelin/contracts/utils/cryptography/ECDSA.sol\":974:1004  RecoverError.InvalidSignatureS */\n      0x03\n        /* \"@openzeppelin/contracts/utils/cryptography/ECDSA.sol\":965:1004  error == RecoverError.InvalidSignatureS */\n      0x04\n      dup2\n      gt\n      iszero\n      tag_368\n      jumpi\n      tag_369\n      tag_347\n      jump\t// in\n    tag_369:\n    tag_368:\n        /* \"@openzeppelin/contracts/utils/cryptography/ECDSA.sol\":965:970  error */\n      dup2\n        /* \"@openzeppelin/contracts/utils/cryptography/ECDSA.sol\":965:1004  error == RecoverError.InvalidSignatureS */\n      0x04\n      dup2\n      gt\n      iszero\n      tag_370\n      jumpi\n      tag_371\n      tag_347\n      jump\t// in\n    tag_371:\n    tag_370:\n      sub\n        /* \"@openzeppelin/contracts/utils/cryptography/ECDSA.sol\":961:1075  if (error == RecoverError.InvalidSignatureS) {... */\n      tag_372\n      jumpi\n        /* \"@openzeppelin/contracts/utils/cryptography/ECDSA.sol\":1020:1064  revert(\"ECDSA: invalid signature 's' value\") */\n      mload(0x40)\n      0x08c379a000000000000000000000000000000000000000000000000000000000\n      dup2\n      mstore\n      0x04\n      add\n      tag_373\n      swap1\n      tag_374\n      jump\t// in\n    tag_373:\n      mload(0x40)\n      dup1\n      swap2\n      sub\n      swap1\n      revert\n        /* \"@openzeppelin/contracts/utils/cryptography/ECDSA.sol\":961:1075  if (error == RecoverError.InvalidSignatureS) {... */\n    tag_372:\n        /* \"@openzeppelin/contracts/utils/cryptography/ECDSA.sol\":570:1081  function _throwError(RecoverError error) private pure {... */\n    tag_344:\n      pop\n      jump\t// out\n        /* \"@openzeppelin/contracts/utils/cryptography/ECDSA.sol\":5069:6563  function tryRecover(... */\n    tag_342:\n        /* \"@openzeppelin/contracts/utils/cryptography/ECDSA.sol\":5195:5202  address */\n      0x00\n        /* \"@openzeppelin/contracts/utils/cryptography/ECDSA.sol\":5204:5216  RecoverError */\n      dup1\n        /* \"@openzeppelin/contracts/utils/cryptography/ECDSA.sol\":6119:6185  0x7FFFFFFFFFFFFFFFFFFFFFFFFFFFFFFF5D576E7357A4501DDFE92F46681B20A0 */\n      0x7fffffffffffffffffffffffffffffff5d576e7357a4501ddfe92f46681b20a0\n        /* \"@openzeppelin/contracts/utils/cryptography/ECDSA.sol\":6114:6115  s */\n      dup4\n        /* \"@openzeppelin/contracts/utils/cryptography/ECDSA.sol\":6106:6116  uint256(s) */\n      0x00\n      shr\n        /* \"@openzeppelin/contracts/utils/cryptography/ECDSA.sol\":6106:6185  uint256(s) > 0x7FFFFFFFFFFFFFFFFFFFFFFFFFFFFFFF5D576E7357A4501DDFE92F46681B20A0 */\n      gt\n        /* \"@openzeppelin/contracts/utils/cryptography/ECDSA.sol\":6102:6263  if (uint256(s) > 0x7FFFFFFFFFFFFFFFFFFFFFFFFFFFFFFF5D576E7357A4501DDFE92F46681B20A0) {... */\n      iszero\n      tag_376\n      jumpi\n        /* \"@openzeppelin/contracts/utils/cryptography/ECDSA.sol\":6217:6218  0 */\n      0x00\n        /* \"@openzeppelin/contracts/utils/cryptography/ECDSA.sol\":6221:6251  RecoverError.InvalidSignatureS */\n      0x03\n        /* \"@openzeppelin/contracts/utils/cryptography/ECDSA.sol\":6201:6252  return (address(0), RecoverError.InvalidSignatureS) */\n      swap2\n      pop\n      swap2\n      pop\n      jump(tag_375)\n        /* \"@openzeppelin/contracts/utils/cryptography/ECDSA.sol\":6102:6263  if (uint256(s) > 0x7FFFFFFFFFFFFFFFFFFFFFFFFFFFFFFF5D576E7357A4501DDFE92F46681B20A0) {... */\n    tag_376:\n        /* \"@openzeppelin/contracts/utils/cryptography/ECDSA.sol\":6357:6371  address signer */\n      0x00\n        /* \"@openzeppelin/contracts/utils/cryptography/ECDSA.sol\":6374:6398  ecrecover(hash, v, r, s) */\n      0x01\n        /* \"@openzeppelin/contracts/utils/cryptography/ECDSA.sol\":6384:6388  hash */\n      dup8\n        /* \"@openzeppelin/contracts/utils/cryptography/ECDSA.sol\":6390:6391  v */\n      dup8\n        /* \"@openzeppelin/contracts/utils/cryptography/ECDSA.sol\":6393:6394  r */\n      dup8\n        /* \"@openzeppelin/contracts/utils/cryptography/ECDSA.sol\":6396:6397  s */\n      dup8\n        /* \"@openzeppelin/contracts/utils/cryptography/ECDSA.sol\":6374:6398  ecrecover(hash, v, r, s) */\n      mload(0x40)\n      0x00\n      dup2\n      mstore\n      0x20\n      add\n      0x40\n      mstore\n      mload(0x40)\n      tag_377\n      swap5\n      swap4\n      swap3\n      swap2\n      swap1\n      tag_378\n      jump\t// in\n    tag_377:\n      0x20\n      mload(0x40)\n      0x20\n      dup2\n      sub\n      swap1\n      dup1\n      dup5\n      sub\n      swap1\n      dup6\n      gas\n      staticcall\n      iszero\n      dup1\n      iszero\n      tag_380\n      jumpi\n      returndatasize\n      0x00\n      dup1\n      returndatacopy\n      revert(0x00, returndatasize)\n    tag_380:\n      pop\n      pop\n      pop\n      mload(sub(mload(0x40), 0x20))\n        /* \"@openzeppelin/contracts/utils/cryptography/ECDSA.sol\":6357:6398  address signer = ecrecover(hash, v, r, s) */\n      swap1\n      pop\n        /* \"@openzeppelin/contracts/utils/cryptography/ECDSA.sol\":6430:6431  0 */\n      0x00\n        /* \"@openzeppelin/contracts/utils/cryptography/ECDSA.sol\":6412:6432  signer == address(0) */\n      0xffffffffffffffffffffffffffffffffffffffff\n      and\n        /* \"@openzeppelin/contracts/utils/cryptography/ECDSA.sol\":6412:6418  signer */\n      dup2\n        /* \"@openzeppelin/contracts/utils/cryptography/ECDSA.sol\":6412:6432  signer == address(0) */\n      0xffffffffffffffffffffffffffffffffffffffff\n      and\n      sub\n        /* \"@openzeppelin/contracts/utils/cryptography/ECDSA.sol\":6408:6509  if (signer == address(0)) {... */\n      tag_381\n      jumpi\n        /* \"@openzeppelin/contracts/utils/cryptography/ECDSA.sol\":6464:6465  0 */\n      0x00\n        /* \"@openzeppelin/contracts/utils/cryptography/ECDSA.sol\":6468:6497  RecoverError.InvalidSignature */\n      0x01\n        /* \"@openzeppelin/contracts/utils/cryptography/ECDSA.sol\":6448:6498  return (address(0), RecoverError.InvalidSignature) */\n      swap3\n      pop\n      swap3\n      pop\n      pop\n      jump(tag_375)\n        /* \"@openzeppelin/contracts/utils/cryptography/ECDSA.sol\":6408:6509  if (signer == address(0)) {... */\n    tag_381:\n        /* \"@openzeppelin/contracts/utils/cryptography/ECDSA.sol\":6527:6533  signer */\n      dup1\n        /* \"@openzeppelin/contracts/utils/cryptography/ECDSA.sol\":6535:6555  RecoverError.NoError */\n      0x00\n        /* \"@openzeppelin/contracts/utils/cryptography/ECDSA.sol\":6519:6556  return (signer, RecoverError.NoError) */\n      swap3\n      pop\n      swap3\n      pop\n      pop\n        /* \"@openzeppelin/contracts/utils/cryptography/ECDSA.sol\":5069:6563  function tryRecover(... */\n    tag_375:\n      swap5\n      pop\n      swap5\n      swap3\n      pop\n      pop\n      pop\n      jump\t// out\n        /* \"#utility.yul\":7:84   */\n    tag_382:\n        /* \"#utility.yul\":44:51   */\n      0x00\n        /* \"#utility.yul\":73:78   */\n      dup2\n        /* \"#utility.yul\":62:78   */\n      swap1\n      pop\n        /* \"#utility.yul\":7:84   */\n      swap2\n      swap1\n      pop\n      jump\t// out\n        /* \"#utility.yul\":90:208   */\n    tag_383:\n        /* \"#utility.yul\":177:201   */\n      tag_491\n        /* \"#utility.yul\":195:200   */\n      dup2\n        /* \"#utility.yul\":177:201   */\n      tag_382\n      jump\t// in\n    tag_491:\n        /* \"#utility.yul\":172:175   */\n      dup3\n        /* \"#utility.yul\":165:202   */\n      mstore\n        /* \"#utility.yul\":90:208   */\n      pop\n      pop\n      jump\t// out\n        /* \"#utility.yul\":214:436   */\n    tag_26:\n        /* \"#utility.yul\":307:311   */\n      0x00\n        /* \"#utility.yul\":345:347   */\n      0x20\n        /* \"#utility.yul\":334:343   */\n      dup3\n        /* \"#utility.yul\":330:348   */\n      add\n        /* \"#utility.yul\":322:348   */\n      swap1\n      pop\n        /* \"#utility.yul\":358:429   */\n      tag_493\n        /* \"#utility.yul\":426:427   */\n      0x00\n        /* \"#utility.yul\":415:424   */\n      dup4\n        /* \"#utility.yul\":411:428   */\n      add\n        /* \"#utility.yul\":402:408   */\n      dup5\n        /* \"#utility.yul\":358:429   */\n      tag_383\n      jump\t// in\n    tag_493:\n        /* \"#utility.yul\":214:436   */\n      swap3\n      swap2\n      pop\n      pop\n      jump\t// out\n        /* \"#utility.yul\":442:517   */\n    tag_384:\n        /* \"#utility.yul\":475:481   */\n      0x00\n        /* \"#utility.yul\":508:510   */\n      0x40\n        /* \"#utility.yul\":502:511   */\n      mload\n        /* \"#utility.yul\":492:511   */\n      swap1\n      pop\n        /* \"#utility.yul\":442:517   */\n      swap1\n      jump\t// out\n        /* \"#utility.yul\":523:640   */\n    tag_385:\n        /* \"#utility.yul\":632:633   */\n      0x00\n        /* \"#utility.yul\":629:630   */\n      dup1\n        /* \"#utility.yul\":622:634   */\n      revert\n        /* \"#utility.yul\":646:763   */\n    tag_386:\n        /* \"#utility.yul\":755:756   */\n      0x00\n        /* \"#utility.yul\":752:753   */\n      dup1\n        /* \"#utility.yul\":745:757   */\n      revert\n        /* \"#utility.yul\":769:895   */\n    tag_387:\n        /* \"#utility.yul\":806:813   */\n      0x00\n        /* \"#utility.yul\":846:888   */\n      0xffffffffffffffffffffffffffffffffffffffff\n        /* \"#utility.yul\":839:844   */\n      dup3\n        /* \"#utility.yul\":835:889   */\n      and\n        /* \"#utility.yul\":824:889   */\n      swap1\n      pop\n        /* \"#utility.yul\":769:895   */\n      swap2\n      swap1\n      pop\n      jump\t// out\n        /* \"#utility.yul\":901:997   */\n    tag_388:\n        /* \"#utility.yul\":938:945   */\n      0x00\n        /* \"#utility.yul\":967:991   */\n      tag_499\n        /* \"#utility.yul\":985:990   */\n      dup3\n        /* \"#utility.yul\":967:991   */\n      tag_387\n      jump\t// in\n    tag_499:\n        /* \"#utility.yul\":956:991   */\n      swap1\n      pop\n        /* \"#utility.yul\":901:997   */\n      swap2\n      swap1\n      pop\n      jump\t// out\n        /* \"#utility.yul\":1003:1125   */\n    tag_389:\n        /* \"#utility.yul\":1076:1100   */\n      tag_501\n        /* \"#utility.yul\":1094:1099   */\n      dup2\n        /* \"#utility.yul\":1076:1100   */\n      tag_388\n      jump\t// in\n    tag_501:\n        /* \"#utility.yul\":1069:1074   */\n      dup2\n        /* \"#utility.yul\":1066:1101   */\n      eq\n        /* \"#utility.yul\":1056:1119   */\n      tag_502\n      jumpi\n        /* \"#utility.yul\":1115:1116   */\n      0x00\n        /* \"#utility.yul\":1112:1113   */\n      dup1\n        /* \"#utility.yul\":1105:1117   */\n      revert\n        /* \"#utility.yul\":1056:1119   */\n    tag_502:\n        /* \"#utility.yul\":1003:1125   */\n      pop\n      jump\t// out\n        /* \"#utility.yul\":1131:1270   */\n    tag_390:\n        /* \"#utility.yul\":1177:1182   */\n      0x00\n        /* \"#utility.yul\":1215:1221   */\n      dup2\n        /* \"#utility.yul\":1202:1222   */\n      calldataload\n        /* \"#utility.yul\":1193:1222   */\n      swap1\n      pop\n        /* \"#utility.yul\":1231:1264   */\n      tag_504\n        /* \"#utility.yul\":1258:1263   */\n      dup2\n        /* \"#utility.yul\":1231:1264   */\n      tag_389\n      jump\t// in\n    tag_504:\n        /* \"#utility.yul\":1131:1270   */\n      swap3\n      swap2\n      pop\n      pop\n      jump\t// out\n        /* \"#utility.yul\":1276:1605   */\n    tag_34:\n        /* \"#utility.yul\":1335:1341   */\n      0x00\n        /* \"#utility.yul\":1384:1386   */\n      0x20\n        /* \"#utility.yul\":1372:1381   */\n      dup3\n        /* \"#utility.yul\":1363:1370   */\n      dup5\n        /* \"#utility.yul\":1359:1382   */\n      sub\n        /* \"#utility.yul\":1355:1387   */\n      slt\n        /* \"#utility.yul\":1352:1471   */\n      iszero\n      tag_506\n      jumpi\n        /* \"#utility.yul\":1390:1469   */\n      tag_507\n      tag_385\n      jump\t// in\n    tag_507:\n        /* \"#utility.yul\":1352:1471   */\n    tag_506:\n        /* \"#utility.yul\":1510:1511   */\n      0x00\n        /* \"#utility.yul\":1535:1588   */\n      tag_508\n        /* \"#utility.yul\":1580:1587   */\n      dup5\n        /* \"#utility.yul\":1571:1577   */\n      dup3\n        /* \"#utility.yul\":1560:1569   */\n      dup6\n        /* \"#utility.yul\":1556:1578   */\n      add\n        /* \"#utility.yul\":1535:1588   */\n      tag_390\n      jump\t// in\n    tag_508:\n        /* \"#utility.yul\":1525:1588   */\n      swap2\n      pop\n        /* \"#utility.yul\":1481:1598   */\n      pop\n        /* \"#utility.yul\":1276:1605   */\n      swap3\n      swap2\n      pop\n      pop\n      jump\t// out\n        /* \"#utility.yul\":1611:1728   */\n    tag_391:\n        /* \"#utility.yul\":1720:1721   */\n      0x00\n        /* \"#utility.yul\":1717:1718   */\n      dup1\n        /* \"#utility.yul\":1710:1722   */\n      revert\n        /* \"#utility.yul\":1778:2012   */\n    tag_392:\n        /* \"#utility.yul\":1853:1858   */\n      0x00\n        /* \"#utility.yul\":1894:1897   */\n      0x0160\n        /* \"#utility.yul\":1885:1891   */\n      dup3\n        /* \"#utility.yul\":1880:1883   */\n      dup5\n        /* \"#utility.yul\":1876:1892   */\n      sub\n        /* \"#utility.yul\":1872:1898   */\n      slt\n        /* \"#utility.yul\":1869:1982   */\n      iszero\n      tag_511\n      jumpi\n        /* \"#utility.yul\":1901:1980   */\n      tag_512\n      tag_391\n      jump\t// in\n    tag_512:\n        /* \"#utility.yul\":1869:1982   */\n    tag_511:\n        /* \"#utility.yul\":2000:2006   */\n      dup2\n        /* \"#utility.yul\":1991:2006   */\n      swap1\n      pop\n        /* \"#utility.yul\":1778:2012   */\n      swap3\n      swap2\n      pop\n      pop\n      jump\t// out\n        /* \"#utility.yul\":2018:2135   */\n    tag_393:\n        /* \"#utility.yul\":2127:2128   */\n      0x00\n        /* \"#utility.yul\":2124:2125   */\n      dup1\n        /* \"#utility.yul\":2117:2129   */\n      revert\n        /* \"#utility.yul\":2141:2258   */\n    tag_394:\n        /* \"#utility.yul\":2250:2251   */\n      0x00\n        /* \"#utility.yul\":2247:2248   */\n      dup1\n        /* \"#utility.yul\":2240:2252   */\n      revert\n        /* \"#utility.yul\":2264:2381   */\n    tag_395:\n        /* \"#utility.yul\":2373:2374   */\n      0x00\n        /* \"#utility.yul\":2370:2371   */\n      dup1\n        /* \"#utility.yul\":2363:2375   */\n      revert\n        /* \"#utility.yul\":2400:2952   */\n    tag_396:\n        /* \"#utility.yul\":2457:2465   */\n      0x00\n        /* \"#utility.yul\":2467:2473   */\n      dup1\n        /* \"#utility.yul\":2517:2520   */\n      dup4\n        /* \"#utility.yul\":2510:2514   */\n      0x1f\n        /* \"#utility.yul\":2502:2508   */\n      dup5\n        /* \"#utility.yul\":2498:2515   */\n      add\n        /* \"#utility.yul\":2494:2521   */\n      slt\n        /* \"#utility.yul\":2484:2606   */\n      tag_517\n      jumpi\n        /* \"#utility.yul\":2525:2604   */\n      tag_518\n      tag_393\n      jump\t// in\n    tag_518:\n        /* \"#utility.yul\":2484:2606   */\n    tag_517:\n        /* \"#utility.yul\":2638:2644   */\n      dup3\n        /* \"#utility.yul\":2625:2645   */\n      calldataload\n        /* \"#utility.yul\":2615:2645   */\n      swap1\n      pop\n        /* \"#utility.yul\":2668:2686   */\n      0xffffffffffffffff\n        /* \"#utility.yul\":2660:2666   */\n      dup2\n        /* \"#utility.yul\":2657:2687   */\n      gt\n        /* \"#utility.yul\":2654:2771   */\n      iszero\n      tag_519\n      jumpi\n        /* \"#utility.yul\":2690:2769   */\n      tag_520\n      tag_394\n      jump\t// in\n    tag_520:\n        /* \"#utility.yul\":2654:2771   */\n    tag_519:\n        /* \"#utility.yul\":2804:2808   */\n      0x20\n        /* \"#utility.yul\":2796:2802   */\n      dup4\n        /* \"#utility.yul\":2792:2809   */\n      add\n        /* \"#utility.yul\":2780:2809   */\n      swap2\n      pop\n        /* \"#utility.yul\":2858:2861   */\n      dup4\n        /* \"#utility.yul\":2850:2854   */\n      0x01\n        /* \"#utility.yul\":2842:2848   */\n      dup3\n        /* \"#utility.yul\":2838:2855   */\n      mul\n        /* \"#utility.yul\":2828:2836   */\n      dup4\n        /* \"#utility.yul\":2824:2856   */\n      add\n        /* \"#utility.yul\":2821:2862   */\n      gt\n        /* \"#utility.yul\":2818:2946   */\n      iszero\n      tag_521\n      jumpi\n        /* \"#utility.yul\":2865:2944   */\n      tag_522\n      tag_395\n      jump\t// in\n    tag_522:\n        /* \"#utility.yul\":2818:2946   */\n    tag_521:\n        /* \"#utility.yul\":2400:2952   */\n      swap3\n      pop\n      swap3\n      swap1\n      pop\n      jump\t// out\n        /* \"#utility.yul\":2958:3848   */\n    tag_39:\n        /* \"#utility.yul\":3066:3072   */\n      0x00\n        /* \"#utility.yul\":3074:3080   */\n      dup1\n        /* \"#utility.yul\":3082:3088   */\n      0x00\n        /* \"#utility.yul\":3131:3133   */\n      0x40\n        /* \"#utility.yul\":3119:3128   */\n      dup5\n        /* \"#utility.yul\":3110:3117   */\n      dup7\n        /* \"#utility.yul\":3106:3129   */\n      sub\n        /* \"#utility.yul\":3102:3134   */\n      slt\n        /* \"#utility.yul\":3099:3218   */\n      iszero\n      tag_524\n      jumpi\n        /* \"#utility.yul\":3137:3216   */\n      tag_525\n      tag_385\n      jump\t// in\n    tag_525:\n        /* \"#utility.yul\":3099:3218   */\n    tag_524:\n        /* \"#utility.yul\":3285:3286   */\n      0x00\n        /* \"#utility.yul\":3274:3283   */\n      dup5\n        /* \"#utility.yul\":3270:3287   */\n      add\n        /* \"#utility.yul\":3257:3288   */\n      calldataload\n        /* \"#utility.yul\":3315:3333   */\n      0xffffffffffffffff\n        /* \"#utility.yul\":3307:3313   */\n      dup2\n        /* \"#utility.yul\":3304:3334   */\n      gt\n        /* \"#utility.yul\":3301:3418   */\n      iszero\n      tag_526\n      jumpi\n        /* \"#utility.yul\":3337:3416   */\n      tag_527\n      tag_386\n      jump\t// in\n    tag_527:\n        /* \"#utility.yul\":3301:3418   */\n    tag_526:\n        /* \"#utility.yul\":3442:3524   */\n      tag_528\n        /* \"#utility.yul\":3516:3523   */\n      dup7\n        /* \"#utility.yul\":3507:3513   */\n      dup3\n        /* \"#utility.yul\":3496:3505   */\n      dup8\n        /* \"#utility.yul\":3492:3514   */\n      add\n        /* \"#utility.yul\":3442:3524   */\n      tag_392\n      jump\t// in\n    tag_528:\n        /* \"#utility.yul\":3432:3524   */\n      swap4\n      pop\n        /* \"#utility.yul\":3228:3534   */\n      pop\n        /* \"#utility.yul\":3601:3603   */\n      0x20\n        /* \"#utility.yul\":3590:3599   */\n      dup5\n        /* \"#utility.yul\":3586:3604   */\n      add\n        /* \"#utility.yul\":3573:3605   */\n      calldataload\n        /* \"#utility.yul\":3632:3650   */\n      0xffffffffffffffff\n        /* \"#utility.yul\":3624:3630   */\n      dup2\n        /* \"#utility.yul\":3621:3651   */\n      gt\n        /* \"#utility.yul\":3618:3735   */\n      iszero\n      tag_529\n      jumpi\n        /* \"#utility.yul\":3654:3733   */\n      tag_530\n      tag_386\n      jump\t// in\n    tag_530:\n        /* \"#utility.yul\":3618:3735   */\n    tag_529:\n        /* \"#utility.yul\":3767:3831   */\n      tag_531\n        /* \"#utility.yul\":3823:3830   */\n      dup7\n        /* \"#utility.yul\":3814:3820   */\n      dup3\n        /* \"#utility.yul\":3803:3812   */\n      dup8\n        /* \"#utility.yul\":3799:3821   */\n      add\n        /* \"#utility.yul\":3767:3831   */\n      tag_396\n      jump\t// in\n    tag_531:\n        /* \"#utility.yul\":3749:3831   */\n      swap3\n      pop\n      swap3\n      pop\n        /* \"#utility.yul\":3544:3841   */\n      pop\n        /* \"#utility.yul\":2958:3848   */\n      swap3\n      pop\n      swap3\n      pop\n      swap3\n      jump\t// out\n        /* \"#utility.yul\":3854:3976   */\n    tag_397:\n        /* \"#utility.yul\":3927:3951   */\n      tag_533\n        /* \"#utility.yul\":3945:3950   */\n      dup2\n        /* \"#utility.yul\":3927:3951   */\n      tag_382\n      jump\t// in\n    tag_533:\n        /* \"#utility.yul\":3920:3925   */\n      dup2\n        /* \"#utility.yul\":3917:3952   */\n      eq\n        /* \"#utility.yul\":3907:3970   */\n      tag_534\n      jumpi\n        /* \"#utility.yul\":3966:3967   */\n      0x00\n        /* \"#utility.yul\":3963:3964   */\n      dup1\n        /* \"#utility.yul\":3956:3968   */\n      revert\n        /* \"#utility.yul\":3907:3970   */\n    tag_534:\n        /* \"#utility.yul\":3854:3976   */\n      pop\n      jump\t// out\n        /* \"#utility.yul\":3982:4121   */\n    tag_398:\n        /* \"#utility.yul\":4028:4033   */\n      0x00\n        /* \"#utility.yul\":4066:4072   */\n      dup2\n        /* \"#utility.yul\":4053:4073   */\n      calldataload\n        /* \"#utility.yul\":4044:4073   */\n      swap1\n      pop\n        /* \"#utility.yul\":4082:4115   */\n      tag_536\n        /* \"#utility.yul\":4109:4114   */\n      dup2\n        /* \"#utility.yul\":4082:4115   */\n      tag_397\n      jump\t// in\n    tag_536:\n        /* \"#utility.yul\":3982:4121   */\n      swap3\n      swap2\n      pop\n      pop\n      jump\t// out\n        /* \"#utility.yul\":4127:4601   */\n    tag_43:\n        /* \"#utility.yul\":4195:4201   */\n      0x00\n        /* \"#utility.yul\":4203:4209   */\n      dup1\n        /* \"#utility.yul\":4252:4254   */\n      0x40\n        /* \"#utility.yul\":4240:4249   */\n      dup4\n        /* \"#utility.yul\":4231:4238   */\n      dup6\n        /* \"#utility.yul\":4227:4250   */\n      sub\n        /* \"#utility.yul\":4223:4255   */\n      slt\n        /* \"#utility.yul\":4220:4339   */\n      iszero\n      tag_538\n      jumpi\n        /* \"#utility.yul\":4258:4337   */\n      tag_539\n      tag_385\n      jump\t// in\n    tag_539:\n        /* \"#utility.yul\":4220:4339   */\n    tag_538:\n        /* \"#utility.yul\":4378:4379   */\n      0x00\n        /* \"#utility.yul\":4403:4456   */\n      tag_540\n        /* \"#utility.yul\":4448:4455   */\n      dup6\n        /* \"#utility.yul\":4439:4445   */\n      dup3\n        /* \"#utility.yul\":4428:4437   */\n      dup7\n        /* \"#utility.yul\":4424:4446   */\n      add\n        /* \"#utility.yul\":4403:4456   */\n      tag_390\n      jump\t// in\n    tag_540:\n        /* \"#utility.yul\":4393:4456   */\n      swap3\n      pop\n        /* \"#utility.yul\":4349:4466   */\n      pop\n        /* \"#utility.yul\":4505:4507   */\n      0x20\n        /* \"#utility.yul\":4531:4584   */\n      tag_541\n        /* \"#utility.yul\":4576:4583   */\n      dup6\n        /* \"#utility.yul\":4567:4573   */\n      dup3\n        /* \"#utility.yul\":4556:4565   */\n      dup7\n        /* \"#utility.yul\":4552:4574   */\n      add\n        /* \"#utility.yul\":4531:4584   */\n      tag_398\n      jump\t// in\n    tag_541:\n        /* \"#utility.yul\":4521:4584   */\n      swap2\n      pop\n        /* \"#utility.yul\":4476:4594   */\n      pop\n        /* \"#utility.yul\":4127:4601   */\n      swap3\n      pop\n      swap3\n      swap1\n      pop\n      jump\t// out\n        /* \"#utility.yul\":4651:4887   */\n    tag_399:\n        /* \"#utility.yul\":4728:4733   */\n      0x00\n        /* \"#utility.yul\":4769:4772   */\n      0x0100\n        /* \"#utility.yul\":4760:4766   */\n      dup3\n        /* \"#utility.yul\":4755:4758   */\n      dup5\n        /* \"#utility.yul\":4751:4767   */\n      sub\n        /* \"#utility.yul\":4747:4773   */\n      slt\n        /* \"#utility.yul\":4744:4857   */\n      iszero\n      tag_543\n      jumpi\n        /* \"#utility.yul\":4776:4855   */\n      tag_544\n      tag_391\n      jump\t// in\n    tag_544:\n        /* \"#utility.yul\":4744:4857   */\n    tag_543:\n        /* \"#utility.yul\":4875:4881   */\n      dup2\n        /* \"#utility.yul\":4866:4881   */\n      swap1\n      pop\n        /* \"#utility.yul\":4651:4887   */\n      swap3\n      swap2\n      pop\n      pop\n      jump\t// out\n        /* \"#utility.yul\":4893:5787   */\n    tag_47:\n        /* \"#utility.yul\":5003:5009   */\n      0x00\n        /* \"#utility.yul\":5011:5017   */\n      dup1\n        /* \"#utility.yul\":5019:5025   */\n      0x00\n        /* \"#utility.yul\":5068:5070   */\n      0x40\n        /* \"#utility.yul\":5056:5065   */\n      dup5\n        /* \"#utility.yul\":5047:5054   */\n      dup7\n        /* \"#utility.yul\":5043:5066   */\n      sub\n        /* \"#utility.yul\":5039:5071   */\n      slt\n        /* \"#utility.yul\":5036:5155   */\n      iszero\n      tag_546\n      jumpi\n        /* \"#utility.yul\":5074:5153   */\n      tag_547\n      tag_385\n      jump\t// in\n    tag_547:\n        /* \"#utility.yul\":5036:5155   */\n    tag_546:\n        /* \"#utility.yul\":5222:5223   */\n      0x00\n        /* \"#utility.yul\":5211:5220   */\n      dup5\n        /* \"#utility.yul\":5207:5224   */\n      add\n        /* \"#utility.yul\":5194:5225   */\n      calldataload\n        /* \"#utility.yul\":5252:5270   */\n      0xffffffffffffffff\n        /* \"#utility.yul\":5244:5250   */\n      dup2\n        /* \"#utility.yul\":5241:5271   */\n      gt\n        /* \"#utility.yul\":5238:5355   */\n      iszero\n      tag_548\n      jumpi\n        /* \"#utility.yul\":5274:5353   */\n      tag_549\n      tag_386\n      jump\t// in\n    tag_549:\n        /* \"#utility.yul\":5238:5355   */\n    tag_548:\n        /* \"#utility.yul\":5379:5463   */\n      tag_550\n        /* \"#utility.yul\":5455:5462   */\n      dup7\n        /* \"#utility.yul\":5446:5452   */\n      dup3\n        /* \"#utility.yul\":5435:5444   */\n      dup8\n        /* \"#utility.yul\":5431:5453   */\n      add\n        /* \"#utility.yul\":5379:5463   */\n      tag_399\n      jump\t// in\n    tag_550:\n        /* \"#utility.yul\":5369:5463   */\n      swap4\n      pop\n        /* \"#utility.yul\":5165:5473   */\n      pop\n        /* \"#utility.yul\":5540:5542   */\n      0x20\n        /* \"#utility.yul\":5529:5538   */\n      dup5\n        /* \"#utility.yul\":5525:5543   */\n      add\n        /* \"#utility.yul\":5512:5544   */\n      calldataload\n        /* \"#utility.yul\":5571:5589   */\n      0xffffffffffffffff\n        /* \"#utility.yul\":5563:5569   */\n      dup2\n        /* \"#utility.yul\":5560:5590   */\n      gt\n        /* \"#utility.yul\":5557:5674   */\n      iszero\n      tag_551\n      jumpi\n        /* \"#utility.yul\":5593:5672   */\n      tag_552\n      tag_386\n      jump\t// in\n    tag_552:\n        /* \"#utility.yul\":5557:5674   */\n    tag_551:\n        /* \"#utility.yul\":5706:5770   */\n      tag_553\n        /* \"#utility.yul\":5762:5769   */\n      dup7\n        /* \"#utility.yul\":5753:5759   */\n      dup3\n        /* \"#utility.yul\":5742:5751   */\n      dup8\n        /* \"#utility.yul\":5738:5760   */\n      add\n        /* \"#utility.yul\":5706:5770   */\n      tag_396\n      jump\t// in\n    tag_553:\n        /* \"#utility.yul\":5688:5770   */\n      swap3\n      pop\n      swap3\n      pop\n        /* \"#utility.yul\":5483:5780   */\n      pop\n        /* \"#utility.yul\":4893:5787   */\n      swap3\n      pop\n      swap3\n      pop\n      swap3\n      jump\t// out\n        /* \"#utility.yul\":5793:5911   */\n    tag_400:\n        /* \"#utility.yul\":5880:5904   */\n      tag_555\n        /* \"#utility.yul\":5898:5903   */\n      dup2\n        /* \"#utility.yul\":5880:5904   */\n      tag_388\n      jump\t// in\n    tag_555:\n        /* \"#utility.yul\":5875:5878   */\n      dup3\n        /* \"#utility.yul\":5868:5905   */\n      mstore\n        /* \"#utility.yul\":5793:5911   */\n      pop\n      pop\n      jump\t// out\n        /* \"#utility.yul\":5917:6139   */\n    tag_56:\n        /* \"#utility.yul\":6010:6014   */\n      0x00\n        /* \"#utility.yul\":6048:6050   */\n      0x20\n        /* \"#utility.yul\":6037:6046   */\n      dup3\n        /* \"#utility.yul\":6033:6051   */\n      add\n        /* \"#utility.yul\":6025:6051   */\n      swap1\n      pop\n        /* \"#utility.yul\":6061:6132   */\n      tag_557\n        /* \"#utility.yul\":6129:6130   */\n      0x00\n        /* \"#utility.yul\":6118:6127   */\n      dup4\n        /* \"#utility.yul\":6114:6131   */\n      add\n        /* \"#utility.yul\":6105:6111   */\n      dup5\n        /* \"#utility.yul\":6061:6132   */\n      tag_400\n      jump\t// in\n    tag_557:\n        /* \"#utility.yul\":5917:6139   */\n      swap3\n      swap2\n      pop\n      pop\n      jump\t// out\n        /* \"#utility.yul\":6145:6764   */\n    tag_60:\n        /* \"#utility.yul\":6222:6228   */\n      0x00\n        /* \"#utility.yul\":6230:6236   */\n      dup1\n        /* \"#utility.yul\":6238:6244   */\n      0x00\n        /* \"#utility.yul\":6287:6289   */\n      0x60\n        /* \"#utility.yul\":6275:6284   */\n      dup5\n        /* \"#utility.yul\":6266:6273   */\n      dup7\n        /* \"#utility.yul\":6262:6285   */\n      sub\n        /* \"#utility.yul\":6258:6290   */\n      slt\n        /* \"#utility.yul\":6255:6374   */\n      iszero\n      tag_559\n      jumpi\n        /* \"#utility.yul\":6293:6372   */\n      tag_560\n      tag_385\n      jump\t// in\n    tag_560:\n        /* \"#utility.yul\":6255:6374   */\n    tag_559:\n        /* \"#utility.yul\":6413:6414   */\n      0x00\n        /* \"#utility.yul\":6438:6491   */\n      tag_561\n        /* \"#utility.yul\":6483:6490   */\n      dup7\n        /* \"#utility.yul\":6474:6480   */\n      dup3\n        /* \"#utility.yul\":6463:6472   */\n      dup8\n        /* \"#utility.yul\":6459:6481   */\n      add\n        /* \"#utility.yul\":6438:6491   */\n      tag_390\n      jump\t// in\n    tag_561:\n        /* \"#utility.yul\":6428:6491   */\n      swap4\n      pop\n        /* \"#utility.yul\":6384:6501   */\n      pop\n        /* \"#utility.yul\":6540:6542   */\n      0x20\n        /* \"#utility.yul\":6566:6619   */\n      tag_562\n        /* \"#utility.yul\":6611:6618   */\n      dup7\n        /* \"#utility.yul\":6602:6608   */\n      dup3\n        /* \"#utility.yul\":6591:6600   */\n      dup8\n        /* \"#utility.yul\":6587:6609   */\n      add\n        /* \"#utility.yul\":6566:6619   */\n      tag_390\n      jump\t// in\n    tag_562:\n        /* \"#utility.yul\":6556:6619   */\n      swap3\n      pop\n        /* \"#utility.yul\":6511:6629   */\n      pop\n        /* \"#utility.yul\":6668:6670   */\n      0x40\n        /* \"#utility.yul\":6694:6747   */\n      tag_563\n        /* \"#utility.yul\":6739:6746   */\n      dup7\n        /* \"#utility.yul\":6730:6736   */\n      dup3\n        /* \"#utility.yul\":6719:6728   */\n      dup8\n        /* \"#utility.yul\":6715:6737   */\n      add\n        /* \"#utility.yul\":6694:6747   */\n      tag_398\n      jump\t// in\n    tag_563:\n        /* \"#utility.yul\":6684:6747   */\n      swap2\n      pop\n        /* \"#utility.yul\":6639:6757   */\n      pop\n        /* \"#utility.yul\":6145:6764   */\n      swap3\n      pop\n      swap3\n      pop\n      swap3\n      jump\t// out\n        /* \"#utility.yul\":6770:6856   */\n    tag_401:\n        /* \"#utility.yul\":6805:6812   */\n      0x00\n        /* \"#utility.yul\":6845:6849   */\n      0xff\n        /* \"#utility.yul\":6838:6843   */\n      dup3\n        /* \"#utility.yul\":6834:6850   */\n      and\n        /* \"#utility.yul\":6823:6850   */\n      swap1\n      pop\n        /* \"#utility.yul\":6770:6856   */\n      swap2\n      swap1\n      pop\n      jump\t// out\n        /* \"#utility.yul\":6862:6980   */\n    tag_402:\n        /* \"#utility.yul\":6933:6955   */\n      tag_566\n        /* \"#utility.yul\":6949:6954   */\n      dup2\n        /* \"#utility.yul\":6933:6955   */\n      tag_401\n      jump\t// in\n    tag_566:\n        /* \"#utility.yul\":6926:6931   */\n      dup2\n        /* \"#utility.yul\":6923:6956   */\n      eq\n        /* \"#utility.yul\":6913:6974   */\n      tag_567\n      jumpi\n        /* \"#utility.yul\":6970:6971   */\n      0x00\n        /* \"#utility.yul\":6967:6968   */\n      dup1\n        /* \"#utility.yul\":6960:6972   */\n      revert\n        /* \"#utility.yul\":6913:6974   */\n    tag_567:\n        /* \"#utility.yul\":6862:6980   */\n      pop\n      jump\t// out\n        /* \"#utility.yul\":6986:7121   */\n    tag_403:\n        /* \"#utility.yul\":7030:7035   */\n      0x00\n        /* \"#utility.yul\":7068:7074   */\n      dup2\n        /* \"#utility.yul\":7055:7075   */\n      calldataload\n        /* \"#utility.yul\":7046:7075   */\n      swap1\n      pop\n        /* \"#utility.yul\":7084:7115   */\n      tag_569\n        /* \"#utility.yul\":7109:7114   */\n      dup2\n        /* \"#utility.yul\":7084:7115   */\n      tag_402\n      jump\t// in\n    tag_569:\n        /* \"#utility.yul\":6986:7121   */\n      swap3\n      swap2\n      pop\n      pop\n      jump\t// out\n        /* \"#utility.yul\":7127:8180   */\n    tag_65:\n        /* \"#utility.yul\":7229:7235   */\n      0x00\n        /* \"#utility.yul\":7237:7243   */\n      dup1\n        /* \"#utility.yul\":7245:7251   */\n      0x00\n        /* \"#utility.yul\":7253:7259   */\n      dup1\n        /* \"#utility.yul\":7261:7267   */\n      0x00\n        /* \"#utility.yul\":7269:7275   */\n      dup1\n        /* \"#utility.yul\":7318:7321   */\n      0xc0\n        /* \"#utility.yul\":7306:7315   */\n      dup8\n        /* \"#utility.yul\":7297:7304   */\n      dup10\n        /* \"#utility.yul\":7293:7316   */\n      sub\n        /* \"#utility.yul\":7289:7322   */\n      slt\n        /* \"#utility.yul\":7286:7406   */\n      iszero\n      tag_571\n      jumpi\n        /* \"#utility.yul\":7325:7404   */\n      tag_572\n      tag_385\n      jump\t// in\n    tag_572:\n        /* \"#utility.yul\":7286:7406   */\n    tag_571:\n        /* \"#utility.yul\":7445:7446   */\n      0x00\n        /* \"#utility.yul\":7470:7523   */\n      tag_573\n        /* \"#utility.yul\":7515:7522   */\n      dup10\n        /* \"#utility.yul\":7506:7512   */\n      dup3\n        /* \"#utility.yul\":7495:7504   */\n      dup11\n        /* \"#utility.yul\":7491:7513   */\n      add\n        /* \"#utility.yul\":7470:7523   */\n      tag_390\n      jump\t// in\n    tag_573:\n        /* \"#utility.yul\":7460:7523   */\n      swap7\n      pop\n        /* \"#utility.yul\":7416:7533   */\n      pop\n        /* \"#utility.yul\":7572:7574   */\n      0x20\n        /* \"#utility.yul\":7598:7651   */\n      tag_574\n        /* \"#utility.yul\":7643:7650   */\n      dup10\n        /* \"#utility.yul\":7634:7640   */\n      dup3\n        /* \"#utility.yul\":7623:7632   */\n      dup11\n        /* \"#utility.yul\":7619:7641   */\n      add\n        /* \"#utility.yul\":7598:7651   */\n      tag_390\n      jump\t// in\n    tag_574:\n        /* \"#utility.yul\":7588:7651   */\n      swap6\n      pop\n        /* \"#utility.yul\":7543:7661   */\n      pop\n        /* \"#utility.yul\":7700:7702   */\n      0x40\n        /* \"#utility.yul\":7726:7779   */\n      tag_575\n        /* \"#utility.yul\":7771:7778   */\n      dup10\n        /* \"#utility.yul\":7762:7768   */\n      dup3\n        /* \"#utility.yul\":7751:7760   */\n      dup11\n        /* \"#utility.yul\":7747:7769   */\n      add\n        /* \"#utility.yul\":7726:7779   */\n      tag_390\n      jump\t// in\n    tag_575:\n        /* \"#utility.yul\":7716:7779   */\n      swap5\n      pop\n        /* \"#utility.yul\":7671:7789   */\n      pop\n        /* \"#utility.yul\":7828:7830   */\n      0x60\n        /* \"#utility.yul\":7854:7907   */\n      tag_576\n        /* \"#utility.yul\":7899:7906   */\n      dup10\n        /* \"#utility.yul\":7890:7896   */\n      dup3\n        /* \"#utility.yul\":7879:7888   */\n      dup11\n        /* \"#utility.yul\":7875:7897   */\n      add\n        /* \"#utility.yul\":7854:7907   */\n      tag_390\n      jump\t// in\n    tag_576:\n        /* \"#utility.yul\":7844:7907   */\n      swap4\n      pop\n        /* \"#utility.yul\":7799:7917   */\n      pop\n        /* \"#utility.yul\":7956:7959   */\n      0x80\n        /* \"#utility.yul\":7983:8036   */\n      tag_577\n        /* \"#utility.yul\":8028:8035   */\n      dup10\n        /* \"#utility.yul\":8019:8025   */\n      dup3\n        /* \"#utility.yul\":8008:8017   */\n      dup11\n        /* \"#utility.yul\":8004:8026   */\n      add\n        /* \"#utility.yul\":7983:8036   */\n      tag_398\n      jump\t// in\n    tag_577:\n        /* \"#utility.yul\":7973:8036   */\n      swap3\n      pop\n        /* \"#utility.yul\":7927:8046   */\n      pop\n        /* \"#utility.yul\":8085:8088   */\n      0xa0\n        /* \"#utility.yul\":8112:8163   */\n      tag_578\n        /* \"#utility.yul\":8155:8162   */\n      dup10\n        /* \"#utility.yul\":8146:8152   */\n      dup3\n        /* \"#utility.yul\":8135:8144   */\n      dup11\n        /* \"#utility.yul\":8131:8153   */\n      add\n        /* \"#utility.yul\":8112:8163   */\n      tag_403\n      jump\t// in\n    tag_578:\n        /* \"#utility.yul\":8102:8163   */\n      swap2\n      pop\n        /* \"#utility.yul\":8056:8173   */\n      pop\n        /* \"#utility.yul\":7127:8180   */\n      swap3\n      swap6\n      pop\n      swap3\n      swap6\n      pop\n      swap3\n      swap6\n      jump\t// out\n        /* \"#utility.yul\":8186:8277   */\n    tag_404:\n        /* \"#utility.yul\":8222:8229   */\n      0x00\n        /* \"#utility.yul\":8262:8270   */\n      0xffffff\n        /* \"#utility.yul\":8255:8260   */\n      dup3\n        /* \"#utility.yul\":8251:8271   */\n      and\n        /* \"#utility.yul\":8240:8271   */\n      swap1\n      pop\n        /* \"#utility.yul\":8186:8277   */\n      swap2\n      swap1\n      pop\n      jump\t// out\n        /* \"#utility.yul\":8283:8398   */\n    tag_405:\n        /* \"#utility.yul\":8368:8391   */\n      tag_581\n        /* \"#utility.yul\":8385:8390   */\n      dup2\n        /* \"#utility.yul\":8368:8391   */\n      tag_404\n      jump\t// in\n    tag_581:\n        /* \"#utility.yul\":8363:8366   */\n      dup3\n        /* \"#utility.yul\":8356:8392   */\n      mstore\n        /* \"#utility.yul\":8283:8398   */\n      pop\n      pop\n      jump\t// out\n        /* \"#utility.yul\":8404:8732   */\n    tag_68:\n        /* \"#utility.yul\":8523:8527   */\n      0x00\n        /* \"#utility.yul\":8561:8563   */\n      0x40\n        /* \"#utility.yul\":8550:8559   */\n      dup3\n        /* \"#utility.yul\":8546:8564   */\n      add\n        /* \"#utility.yul\":8538:8564   */\n      swap1\n      pop\n        /* \"#utility.yul\":8574:8645   */\n      tag_583\n        /* \"#utility.yul\":8642:8643   */\n      0x00\n        /* \"#utility.yul\":8631:8640   */\n      dup4\n        /* \"#utility.yul\":8627:8644   */\n      add\n        /* \"#utility.yul\":8618:8624   */\n      dup6\n        /* \"#utility.yul\":8574:8645   */\n      tag_383\n      jump\t// in\n    tag_583:\n        /* \"#utility.yul\":8655:8725   */\n      tag_584\n        /* \"#utility.yul\":8721:8723   */\n      0x20\n        /* \"#utility.yul\":8710:8719   */\n      dup4\n        /* \"#utility.yul\":8706:8724   */\n      add\n        /* \"#utility.yul\":8697:8703   */\n      dup5\n        /* \"#utility.yul\":8655:8725   */\n      tag_405\n      jump\t// in\n    tag_584:\n        /* \"#utility.yul\":8404:8732   */\n      swap4\n      swap3\n      pop\n      pop\n      pop\n      jump\t// out\n        /* \"#utility.yul\":8753:9332   */\n    tag_406:\n        /* \"#utility.yul\":8837:8845   */\n      0x00\n        /* \"#utility.yul\":8847:8853   */\n      dup1\n        /* \"#utility.yul\":8897:8900   */\n      dup4\n        /* \"#utility.yul\":8890:8894   */\n      0x1f\n        /* \"#utility.yul\":8882:8888   */\n      dup5\n        /* \"#utility.yul\":8878:8895   */\n      add\n        /* \"#utility.yul\":8874:8901   */\n      slt\n        /* \"#utility.yul\":8864:8986   */\n      tag_586\n      jumpi\n        /* \"#utility.yul\":8905:8984   */\n      tag_587\n      tag_393\n      jump\t// in\n    tag_587:\n        /* \"#utility.yul\":8864:8986   */\n    tag_586:\n        /* \"#utility.yul\":9018:9024   */\n      dup3\n        /* \"#utility.yul\":9005:9025   */\n      calldataload\n        /* \"#utility.yul\":8995:9025   */\n      swap1\n      pop\n        /* \"#utility.yul\":9048:9066   */\n      0xffffffffffffffff\n        /* \"#utility.yul\":9040:9046   */\n      dup2\n        /* \"#utility.yul\":9037:9067   */\n      gt\n        /* \"#utility.yul\":9034:9151   */\n      iszero\n      tag_588\n      jumpi\n        /* \"#utility.yul\":9070:9149   */\n      tag_589\n      tag_394\n      jump\t// in\n    tag_589:\n        /* \"#utility.yul\":9034:9151   */\n    tag_588:\n        /* \"#utility.yul\":9184:9188   */\n      0x20\n        /* \"#utility.yul\":9176:9182   */\n      dup4\n        /* \"#utility.yul\":9172:9189   */\n      add\n        /* \"#utility.yul\":9160:9189   */\n      swap2\n      pop\n        /* \"#utility.yul\":9238:9241   */\n      dup4\n        /* \"#utility.yul\":9230:9234   */\n      0x20\n        /* \"#utility.yul\":9222:9228   */\n      dup3\n        /* \"#utility.yul\":9218:9235   */\n      mul\n        /* \"#utility.yul\":9208:9216   */\n      dup4\n        /* \"#utility.yul\":9204:9236   */\n      add\n        /* \"#utility.yul\":9201:9242   */\n      gt\n        /* \"#utility.yul\":9198:9326   */\n      iszero\n      tag_590\n      jumpi\n        /* \"#utility.yul\":9245:9324   */\n      tag_591\n      tag_395\n      jump\t// in\n    tag_591:\n        /* \"#utility.yul\":9198:9326   */\n    tag_590:\n        /* \"#utility.yul\":8753:9332   */\n      swap3\n      pop\n      swap3\n      swap1\n      pop\n      jump\t// out\n        /* \"#utility.yul\":9338:9919   */\n    tag_71:\n        /* \"#utility.yul\":9435:9441   */\n      0x00\n        /* \"#utility.yul\":9443:9449   */\n      dup1\n        /* \"#utility.yul\":9492:9494   */\n      0x20\n        /* \"#utility.yul\":9480:9489   */\n      dup4\n        /* \"#utility.yul\":9471:9478   */\n      dup6\n        /* \"#utility.yul\":9467:9490   */\n      sub\n        /* \"#utility.yul\":9463:9495   */\n      slt\n        /* \"#utility.yul\":9460:9579   */\n      iszero\n      tag_593\n      jumpi\n        /* \"#utility.yul\":9498:9577   */\n      tag_594\n      tag_385\n      jump\t// in\n    tag_594:\n        /* \"#utility.yul\":9460:9579   */\n    tag_593:\n        /* \"#utility.yul\":9646:9647   */\n      0x00\n        /* \"#utility.yul\":9635:9644   */\n      dup4\n        /* \"#utility.yul\":9631:9648   */\n      add\n        /* \"#utility.yul\":9618:9649   */\n      calldataload\n        /* \"#utility.yul\":9676:9694   */\n      0xffffffffffffffff\n        /* \"#utility.yul\":9668:9674   */\n      dup2\n        /* \"#utility.yul\":9665:9695   */\n      gt\n        /* \"#utility.yul\":9662:9779   */\n      iszero\n      tag_595\n      jumpi\n        /* \"#utility.yul\":9698:9777   */\n      tag_596\n      tag_386\n      jump\t// in\n    tag_596:\n        /* \"#utility.yul\":9662:9779   */\n    tag_595:\n        /* \"#utility.yul\":9811:9902   */\n      tag_597\n        /* \"#utility.yul\":9894:9901   */\n      dup6\n        /* \"#utility.yul\":9885:9891   */\n      dup3\n        /* \"#utility.yul\":9874:9883   */\n      dup7\n        /* \"#utility.yul\":9870:9892   */\n      add\n        /* \"#utility.yul\":9811:9902   */\n      tag_406\n      jump\t// in\n    tag_597:\n        /* \"#utility.yul\":9793:9902   */\n      swap3\n      pop\n      swap3\n      pop\n        /* \"#utility.yul\":9589:9912   */\n      pop\n        /* \"#utility.yul\":9338:9919   */\n      swap3\n      pop\n      swap3\n      swap1\n      pop\n      jump\t// out\n        /* \"#utility.yul\":9925:10048   */\n    tag_407:\n        /* \"#utility.yul\":10001:10007   */\n      0x00\n        /* \"#utility.yul\":10035:10040   */\n      dup2\n        /* \"#utility.yul\":10029:10041   */\n      mload\n        /* \"#utility.yul\":10019:10041   */\n      swap1\n      pop\n        /* \"#utility.yul\":9925:10048   */\n      swap2\n      swap1\n      pop\n      jump\t// out\n        /* \"#utility.yul\":10054:10247   */\n    tag_408:\n        /* \"#utility.yul\":10162:10173   */\n      0x00\n        /* \"#utility.yul\":10196:10202   */\n      dup3\n        /* \"#utility.yul\":10191:10194   */\n      dup3\n        /* \"#utility.yul\":10184:10203   */\n      mstore\n        /* \"#utility.yul\":10236:10240   */\n      0x20\n        /* \"#utility.yul\":10231:10234   */\n      dup3\n        /* \"#utility.yul\":10227:10241   */\n      add\n        /* \"#utility.yul\":10212:10241   */\n      swap1\n      pop\n        /* \"#utility.yul\":10054:10247   */\n      swap3\n      swap2\n      pop\n      pop\n      jump\t// out\n        /* \"#utility.yul\":10253:10394   */\n    tag_409:\n        /* \"#utility.yul\":10329:10333   */\n      0x00\n        /* \"#utility.yul\":10352:10355   */\n      dup2\n        /* \"#utility.yul\":10344:10355   */\n      swap1\n      pop\n        /* \"#utility.yul\":10382:10386   */\n      0x20\n        /* \"#utility.yul\":10377:10380   */\n      dup3\n        /* \"#utility.yul\":10373:10387   */\n      add\n        /* \"#utility.yul\":10365:10387   */\n      swap1\n      pop\n        /* \"#utility.yul\":10253:10394   */\n      swap2\n      swap1\n      pop\n      jump\t// out\n        /* \"#utility.yul\":10400:10498   */\n    tag_410:\n        /* \"#utility.yul\":10451:10457   */\n      0x00\n        /* \"#utility.yul\":10485:10490   */\n      dup2\n        /* \"#utility.yul\":10479:10491   */\n      mload\n        /* \"#utility.yul\":10469:10491   */\n      swap1\n      pop\n        /* \"#utility.yul\":10400:10498   */\n      swap2\n      swap1\n      pop\n      jump\t// out\n        /* \"#utility.yul\":10504:10662   */\n    tag_411:\n        /* \"#utility.yul\":10577:10588   */\n      0x00\n        /* \"#utility.yul\":10611:10617   */\n      dup3\n        /* \"#utility.yul\":10606:10609   */\n      dup3\n        /* \"#utility.yul\":10599:10618   */\n      mstore\n        /* \"#utility.yul\":10651:10655   */\n      0x20\n        /* \"#utility.yul\":10646:10649   */\n      dup3\n        /* \"#utility.yul\":10642:10656   */\n      add\n        /* \"#utility.yul\":10627:10656   */\n      swap1\n      pop\n        /* \"#utility.yul\":10504:10662   */\n      swap3\n      swap2\n      pop\n      pop\n      jump\t// out\n        /* \"#utility.yul\":10668:10914   */\n    tag_412:\n        /* \"#utility.yul\":10749:10750   */\n      0x00\n        /* \"#utility.yul\":10759:10872   */\n    tag_604:\n        /* \"#utility.yul\":10773:10779   */\n      dup4\n        /* \"#utility.yul\":10770:10771   */\n      dup2\n        /* \"#utility.yul\":10767:10780   */\n      lt\n        /* \"#utility.yul\":10759:10872   */\n      iszero\n      tag_606\n      jumpi\n        /* \"#utility.yul\":10858:10859   */\n      dup1\n        /* \"#utility.yul\":10853:10856   */\n      dup3\n        /* \"#utility.yul\":10849:10860   */\n      add\n        /* \"#utility.yul\":10843:10861   */\n      mload\n        /* \"#utility.yul\":10839:10840   */\n      dup2\n        /* \"#utility.yul\":10834:10837   */\n      dup5\n        /* \"#utility.yul\":10830:10841   */\n      add\n        /* \"#utility.yul\":10823:10862   */\n      mstore\n        /* \"#utility.yul\":10795:10797   */\n      0x20\n        /* \"#utility.yul\":10792:10793   */\n      dup2\n        /* \"#utility.yul\":10788:10798   */\n      add\n        /* \"#utility.yul\":10783:10798   */\n      swap1\n      pop\n        /* \"#utility.yul\":10759:10872   */\n      jump(tag_604)\n    tag_606:\n        /* \"#utility.yul\":10906:10907   */\n      0x00\n        /* \"#utility.yul\":10897:10903   */\n      dup5\n        /* \"#utility.yul\":10892:10895   */\n      dup5\n        /* \"#utility.yul\":10888:10904   */\n      add\n        /* \"#utility.yul\":10881:10908   */\n      mstore\n        /* \"#utility.yul\":10730:10914   */\n      pop\n        /* \"#utility.yul\":10668:10914   */\n      pop\n      pop\n      pop\n      jump\t// out\n        /* \"#utility.yul\":10920:11022   */\n    tag_413:\n        /* \"#utility.yul\":10961:10967   */\n      0x00\n        /* \"#utility.yul\":11012:11014   */\n      0x1f\n        /* \"#utility.yul\":11008:11015   */\n      not\n        /* \"#utility.yul\":11003:11005   */\n      0x1f\n        /* \"#utility.yul\":10996:11001   */\n      dup4\n        /* \"#utility.yul\":10992:11006   */\n      add\n        /* \"#utility.yul\":10988:11016   */\n      and\n        /* \"#utility.yul\":10978:11016   */\n      swap1\n      pop\n        /* \"#utility.yul\":10920:11022   */\n      swap2\n      swap1\n      pop\n      jump\t// out\n        /* \"#utility.yul\":11028:11381   */\n    tag_414:\n        /* \"#utility.yul\":11104:11107   */\n      0x00\n        /* \"#utility.yul\":11132:11170   */\n      tag_609\n        /* \"#utility.yul\":11164:11169   */\n      dup3\n        /* \"#utility.yul\":11132:11170   */\n      tag_410\n      jump\t// in\n    tag_609:\n        /* \"#utility.yul\":11186:11246   */\n      tag_610\n        /* \"#utility.yul\":11239:11245   */\n      dup2\n        /* \"#utility.yul\":11234:11237   */\n      dup6\n        /* \"#utility.yul\":11186:11246   */\n      tag_411\n      jump\t// in\n    tag_610:\n        /* \"#utility.yul\":11179:11246   */\n      swap4\n      pop\n        /* \"#utility.yul\":11255:11320   */\n      tag_611\n        /* \"#utility.yul\":11313:11319   */\n      dup2\n        /* \"#utility.yul\":11308:11311   */\n      dup6\n        /* \"#utility.yul\":11301:11305   */\n      0x20\n        /* \"#utility.yul\":11294:11299   */\n      dup7\n        /* \"#utility.yul\":11290:11306   */\n      add\n        /* \"#utility.yul\":11255:11320   */\n      tag_412\n      jump\t// in\n    tag_611:\n        /* \"#utility.yul\":11345:11374   */\n      tag_612\n        /* \"#utility.yul\":11367:11373   */\n      dup2\n        /* \"#utility.yul\":11345:11374   */\n      tag_413\n      jump\t// in\n    tag_612:\n        /* \"#utility.yul\":11340:11343   */\n      dup5\n        /* \"#utility.yul\":11336:11375   */\n      add\n        /* \"#utility.yul\":11329:11375   */\n      swap2\n      pop\n        /* \"#utility.yul\":11108:11381   */\n      pop\n        /* \"#utility.yul\":11028:11381   */\n      swap3\n      swap2\n      pop\n      pop\n      jump\t// out\n        /* \"#utility.yul\":11387:11579   */\n    tag_415:\n        /* \"#utility.yul\":11474:11484   */\n      0x00\n        /* \"#utility.yul\":11509:11573   */\n      tag_614\n        /* \"#utility.yul\":11569:11572   */\n      dup4\n        /* \"#utility.yul\":11561:11567   */\n      dup4\n        /* \"#utility.yul\":11509:11573   */\n      tag_414\n      jump\t// in\n    tag_614:\n        /* \"#utility.yul\":11495:11573   */\n      swap1\n      pop\n        /* \"#utility.yul\":11387:11579   */\n      swap3\n      swap2\n      pop\n      pop\n      jump\t// out\n        /* \"#utility.yul\":11585:11707   */\n    tag_416:\n        /* \"#utility.yul\":11664:11668   */\n      0x00\n        /* \"#utility.yul\":11696:11700   */\n      0x20\n        /* \"#utility.yul\":11691:11694   */\n      dup3\n        /* \"#utility.yul\":11687:11701   */\n      add\n        /* \"#utility.yul\":11679:11701   */\n      swap1\n      pop\n        /* \"#utility.yul\":11585:11707   */\n      swap2\n      swap1\n      pop\n      jump\t// out\n        /* \"#utility.yul\":11739:12722   */\n    tag_417:\n        /* \"#utility.yul\":11876:11879   */\n      0x00\n        /* \"#utility.yul\":11905:11968   */\n      tag_617\n        /* \"#utility.yul\":11962:11967   */\n      dup3\n        /* \"#utility.yul\":11905:11968   */\n      tag_407\n      jump\t// in\n    tag_617:\n        /* \"#utility.yul\":11984:12079   */\n      tag_618\n        /* \"#utility.yul\":12072:12078   */\n      dup2\n        /* \"#utility.yul\":12067:12070   */\n      dup6\n        /* \"#utility.yul\":11984:12079   */\n      tag_408\n      jump\t// in\n    tag_618:\n        /* \"#utility.yul\":11977:12079   */\n      swap4\n      pop\n        /* \"#utility.yul\":12105:12108   */\n      dup4\n        /* \"#utility.yul\":12150:12154   */\n      0x20\n        /* \"#utility.yul\":12142:12148   */\n      dup3\n        /* \"#utility.yul\":12138:12155   */\n      mul\n        /* \"#utility.yul\":12133:12136   */\n      dup6\n        /* \"#utility.yul\":12129:12156   */\n      add\n        /* \"#utility.yul\":12180:12245   */\n      tag_619\n        /* \"#utility.yul\":12239:12244   */\n      dup6\n        /* \"#utility.yul\":12180:12245   */\n      tag_409\n      jump\t// in\n    tag_619:\n        /* \"#utility.yul\":12268:12275   */\n      dup1\n        /* \"#utility.yul\":12299:12300   */\n      0x00\n        /* \"#utility.yul\":12284:12677   */\n    tag_620:\n        /* \"#utility.yul\":12309:12315   */\n      dup6\n        /* \"#utility.yul\":12306:12307   */\n      dup2\n        /* \"#utility.yul\":12303:12316   */\n      lt\n        /* \"#utility.yul\":12284:12677   */\n      iszero\n      tag_622\n      jumpi\n        /* \"#utility.yul\":12380:12389   */\n      dup5\n        /* \"#utility.yul\":12374:12378   */\n      dup5\n        /* \"#utility.yul\":12370:12390   */\n      sub\n        /* \"#utility.yul\":12365:12368   */\n      dup10\n        /* \"#utility.yul\":12358:12391   */\n      mstore\n        /* \"#utility.yul\":12431:12437   */\n      dup2\n        /* \"#utility.yul\":12425:12438   */\n      mload\n        /* \"#utility.yul\":12459:12541   */\n      tag_623\n        /* \"#utility.yul\":12536:12540   */\n      dup6\n        /* \"#utility.yul\":12521:12534   */\n      dup3\n        /* \"#utility.yul\":12459:12541   */\n      tag_415\n      jump\t// in\n    tag_623:\n        /* \"#utility.yul\":12451:12541   */\n      swap5\n      pop\n        /* \"#utility.yul\":12564:12633   */\n      tag_624\n        /* \"#utility.yul\":12626:12632   */\n      dup4\n        /* \"#utility.yul\":12564:12633   */\n      tag_416\n      jump\t// in\n    tag_624:\n        /* \"#utility.yul\":12554:12633   */\n      swap3\n      pop\n        /* \"#utility.yul\":12662:12666   */\n      0x20\n        /* \"#utility.yul\":12657:12660   */\n      dup11\n        /* \"#utility.yul\":12653:12667   */\n      add\n        /* \"#utility.yul\":12646:12667   */\n      swap10\n      pop\n        /* \"#utility.yul\":12344:12677   */\n      pop\n        /* \"#utility.yul\":12331:12332   */\n      0x01\n        /* \"#utility.yul\":12328:12329   */\n      dup2\n        /* \"#utility.yul\":12324:12333   */\n      add\n        /* \"#utility.yul\":12319:12333   */\n      swap1\n      pop\n        /* \"#utility.yul\":12284:12677   */\n      jump(tag_620)\n    tag_622:\n        /* \"#utility.yul\":12288:12302   */\n      pop\n        /* \"#utility.yul\":12693:12697   */\n      dup3\n        /* \"#utility.yul\":12686:12697   */\n      swap8\n      pop\n        /* \"#utility.yul\":12713:12716   */\n      dup8\n        /* \"#utility.yul\":12706:12716   */\n      swap6\n      pop\n        /* \"#utility.yul\":11881:12722   */\n      pop\n      pop\n      pop\n      pop\n      pop\n        /* \"#utility.yul\":11739:12722   */\n      swap3\n      swap2\n      pop\n      pop\n      jump\t// out\n        /* \"#utility.yul\":12728:13137   */\n    tag_74:\n        /* \"#utility.yul\":12889:12893   */\n      0x00\n        /* \"#utility.yul\":12927:12929   */\n      0x20\n        /* \"#utility.yul\":12916:12925   */\n      dup3\n        /* \"#utility.yul\":12912:12930   */\n      add\n        /* \"#utility.yul\":12904:12930   */\n      swap1\n      pop\n        /* \"#utility.yul\":12976:12985   */\n      dup2\n        /* \"#utility.yul\":12970:12974   */\n      dup2\n        /* \"#utility.yul\":12966:12986   */\n      sub\n        /* \"#utility.yul\":12962:12963   */\n      0x00\n        /* \"#utility.yul\":12951:12960   */\n      dup4\n        /* \"#utility.yul\":12947:12964   */\n      add\n        /* \"#utility.yul\":12940:12987   */\n      mstore\n        /* \"#utility.yul\":13004:13130   */\n      tag_626\n        /* \"#utility.yul\":13125:13129   */\n      dup2\n        /* \"#utility.yul\":13116:13122   */\n      dup5\n        /* \"#utility.yul\":13004:13130   */\n      tag_417\n      jump\t// in\n    tag_626:\n        /* \"#utility.yul\":12996:13130   */\n      swap1\n      pop\n        /* \"#utility.yul\":12728:13137   */\n      swap3\n      swap2\n      pop\n      pop\n      jump\t// out\n        /* \"#utility.yul\":13143:13286   */\n    tag_418:\n        /* \"#utility.yul\":13200:13205   */\n      0x00\n        /* \"#utility.yul\":13231:13237   */\n      dup2\n        /* \"#utility.yul\":13225:13238   */\n      mload\n        /* \"#utility.yul\":13216:13238   */\n      swap1\n      pop\n        /* \"#utility.yul\":13247:13280   */\n      tag_628\n        /* \"#utility.yul\":13274:13279   */\n      dup2\n        /* \"#utility.yul\":13247:13280   */\n      tag_397\n      jump\t// in\n    tag_628:\n        /* \"#utility.yul\":13143:13286   */\n      swap3\n      swap2\n      pop\n      pop\n      jump\t// out\n        /* \"#utility.yul\":13292:13643   */\n    tag_93:\n        /* \"#utility.yul\":13362:13368   */\n      0x00\n        /* \"#utility.yul\":13411:13413   */\n      0x20\n        /* \"#utility.yul\":13399:13408   */\n      dup3\n        /* \"#utility.yul\":13390:13397   */\n      dup5\n        /* \"#utility.yul\":13386:13409   */\n      sub\n        /* \"#utility.yul\":13382:13414   */\n      slt\n        /* \"#utility.yul\":13379:13498   */\n      iszero\n      tag_630\n      jumpi\n        /* \"#utility.yul\":13417:13496   */\n      tag_631\n      tag_385\n      jump\t// in\n    tag_631:\n        /* \"#utility.yul\":13379:13498   */\n    tag_630:\n        /* \"#utility.yul\":13537:13538   */\n      0x00\n        /* \"#utility.yul\":13562:13626   */\n      tag_632\n        /* \"#utility.yul\":13618:13625   */\n      dup5\n        /* \"#utility.yul\":13609:13615   */\n      dup3\n        /* \"#utility.yul\":13598:13607   */\n      dup6\n        /* \"#utility.yul\":13594:13616   */\n      add\n        /* \"#utility.yul\":13562:13626   */\n      tag_418\n      jump\t// in\n    tag_632:\n        /* \"#utility.yul\":13552:13626   */\n      swap2\n      pop\n        /* \"#utility.yul\":13508:13636   */\n      pop\n        /* \"#utility.yul\":13292:13643   */\n      swap3\n      swap2\n      pop\n      pop\n      jump\t// out\n        /* \"#utility.yul\":13649:13796   */\n    tag_419:\n        /* \"#utility.yul\":13750:13761   */\n      0x00\n        /* \"#utility.yul\":13787:13790   */\n      dup2\n        /* \"#utility.yul\":13772:13790   */\n      swap1\n      pop\n        /* \"#utility.yul\":13649:13796   */\n      swap3\n      swap2\n      pop\n      pop\n      jump\t// out\n        /* \"#utility.yul\":13802:13948   */\n    tag_420:\n        /* \"#utility.yul\":13899:13905   */\n      dup3\n        /* \"#utility.yul\":13894:13897   */\n      dup2\n        /* \"#utility.yul\":13889:13892   */\n      dup4\n        /* \"#utility.yul\":13876:13906   */\n      calldatacopy\n        /* \"#utility.yul\":13940:13941   */\n      0x00\n        /* \"#utility.yul\":13931:13937   */\n      dup4\n        /* \"#utility.yul\":13926:13929   */\n      dup4\n        /* \"#utility.yul\":13922:13938   */\n      add\n        /* \"#utility.yul\":13915:13942   */\n      mstore\n        /* \"#utility.yul\":13802:13948   */\n      pop\n      pop\n      pop\n      jump\t// out\n        /* \"#utility.yul\":13976:14303   */\n    tag_421:\n        /* \"#utility.yul\":14090:14093   */\n      0x00\n        /* \"#utility.yul\":14111:14199   */\n      tag_636\n        /* \"#utility.yul\":14192:14198   */\n      dup4\n        /* \"#utility.yul\":14187:14190   */\n      dup6\n        /* \"#utility.yul\":14111:14199   */\n      tag_419\n      jump\t// in\n    tag_636:\n        /* \"#utility.yul\":14104:14199   */\n      swap4\n      pop\n        /* \"#utility.yul\":14209:14265   */\n      tag_637\n        /* \"#utility.yul\":14258:14264   */\n      dup4\n        /* \"#utility.yul\":14253:14256   */\n      dup6\n        /* \"#utility.yul\":14246:14251   */\n      dup5\n        /* \"#utility.yul\":14209:14265   */\n      tag_420\n      jump\t// in\n    tag_637:\n        /* \"#utility.yul\":14290:14296   */\n      dup3\n        /* \"#utility.yul\":14285:14288   */\n      dup5\n        /* \"#utility.yul\":14281:14297   */\n      add\n        /* \"#utility.yul\":14274:14297   */\n      swap1\n      pop\n        /* \"#utility.yul\":13976:14303   */\n      swap4\n      swap3\n      pop\n      pop\n      pop\n      jump\t// out\n        /* \"#utility.yul\":14309:14600   */\n    tag_96:\n        /* \"#utility.yul\":14449:14452   */\n      0x00\n        /* \"#utility.yul\":14471:14574   */\n      tag_639\n        /* \"#utility.yul\":14570:14573   */\n      dup3\n        /* \"#utility.yul\":14561:14567   */\n      dup5\n        /* \"#utility.yul\":14553:14559   */\n      dup7\n        /* \"#utility.yul\":14471:14574   */\n      tag_421\n      jump\t// in\n    tag_639:\n        /* \"#utility.yul\":14464:14574   */\n      swap2\n      pop\n        /* \"#utility.yul\":14591:14594   */\n      dup2\n        /* \"#utility.yul\":14584:14594   */\n      swap1\n      pop\n        /* \"#utility.yul\":14309:14600   */\n      swap4\n      swap3\n      pop\n      pop\n      pop\n      jump\t// out\n        /* \"#utility.yul\":14606:14775   */\n    tag_422:\n        /* \"#utility.yul\":14690:14701   */\n      0x00\n        /* \"#utility.yul\":14724:14730   */\n      dup3\n        /* \"#utility.yul\":14719:14722   */\n      dup3\n        /* \"#utility.yul\":14712:14731   */\n      mstore\n        /* \"#utility.yul\":14764:14768   */\n      0x20\n        /* \"#utility.yul\":14759:14762   */\n      dup3\n        /* \"#utility.yul\":14755:14769   */\n      add\n        /* \"#utility.yul\":14740:14769   */\n      swap1\n      pop\n        /* \"#utility.yul\":14606:14775   */\n      swap3\n      swap2\n      pop\n      pop\n      jump\t// out\n        /* \"#utility.yul\":14781:14960   */\n    tag_423:\n        /* \"#utility.yul\":14921:14952   */\n      0x746869732074784461746120616c72656164792070726f636573736564000000\n        /* \"#utility.yul\":14917:14918   */\n      0x00\n        /* \"#utility.yul\":14909:14915   */\n      dup3\n        /* \"#utility.yul\":14905:14919   */\n      add\n        /* \"#utility.yul\":14898:14953   */\n      mstore\n        /* \"#utility.yul\":14781:14960   */\n      pop\n      jump\t// out\n        /* \"#utility.yul\":14966:15332   */\n    tag_424:\n        /* \"#utility.yul\":15108:15111   */\n      0x00\n        /* \"#utility.yul\":15129:15196   */\n      tag_643\n        /* \"#utility.yul\":15193:15195   */\n      0x1d\n        /* \"#utility.yul\":15188:15191   */\n      dup4\n        /* \"#utility.yul\":15129:15196   */\n      tag_422\n      jump\t// in\n    tag_643:\n        /* \"#utility.yul\":15122:15196   */\n      swap2\n      pop\n        /* \"#utility.yul\":15205:15298   */\n      tag_644\n        /* \"#utility.yul\":15294:15297   */\n      dup3\n        /* \"#utility.yul\":15205:15298   */\n      tag_423\n      jump\t// in\n    tag_644:\n        /* \"#utility.yul\":15323:15325   */\n      0x20\n        /* \"#utility.yul\":15318:15321   */\n      dup3\n        /* \"#utility.yul\":15314:15326   */\n      add\n        /* \"#utility.yul\":15307:15326   */\n      swap1\n      pop\n        /* \"#utility.yul\":14966:15332   */\n      swap2\n      swap1\n      pop\n      jump\t// out\n        /* \"#utility.yul\":15338:15757   */\n    tag_99:\n        /* \"#utility.yul\":15504:15508   */\n      0x00\n        /* \"#utility.yul\":15542:15544   */\n      0x20\n        /* \"#utility.yul\":15531:15540   */\n      dup3\n        /* \"#utility.yul\":15527:15545   */\n      add\n        /* \"#utility.yul\":15519:15545   */\n      swap1\n      pop\n        /* \"#utility.yul\":15591:15600   */\n      dup2\n        /* \"#utility.yul\":15585:15589   */\n      dup2\n        /* \"#utility.yul\":15581:15601   */\n      sub\n        /* \"#utility.yul\":15577:15578   */\n      0x00\n        /* \"#utility.yul\":15566:15575   */\n      dup4\n        /* \"#utility.yul\":15562:15579   */\n      add\n        /* \"#utility.yul\":15555:15602   */\n      mstore\n        /* \"#utility.yul\":15619:15750   */\n      tag_646\n        /* \"#utility.yul\":15745:15749   */\n      dup2\n        /* \"#utility.yul\":15619:15750   */\n      tag_424\n      jump\t// in\n    tag_646:\n        /* \"#utility.yul\":15611:15750   */\n      swap1\n      pop\n        /* \"#utility.yul\":15338:15757   */\n      swap2\n      swap1\n      pop\n      jump\t// out\n        /* \"#utility.yul\":15763:15927   */\n    tag_425:\n        /* \"#utility.yul\":15903:15919   */\n      0x696e76616c69642073656e646572000000000000000000000000000000000000\n        /* \"#utility.yul\":15899:15900   */\n      0x00\n        /* \"#utility.yul\":15891:15897   */\n      dup3\n        /* \"#utility.yul\":15887:15901   */\n      add\n        /* \"#utility.yul\":15880:15920   */\n      mstore\n        /* \"#utility.yul\":15763:15927   */\n      pop\n      jump\t// out\n        /* \"#utility.yul\":15933:16299   */\n    tag_426:\n        /* \"#utility.yul\":16075:16078   */\n      0x00\n        /* \"#utility.yul\":16096:16163   */\n      tag_649\n        /* \"#utility.yul\":16160:16162   */\n      0x0e\n        /* \"#utility.yul\":16155:16158   */\n      dup4\n        /* \"#utility.yul\":16096:16163   */\n      tag_422\n      jump\t// in\n    tag_649:\n        /* \"#utility.yul\":16089:16163   */\n      swap2\n      pop\n        /* \"#utility.yul\":16172:16265   */\n      tag_650\n        /* \"#utility.yul\":16261:16264   */\n      dup3\n        /* \"#utility.yul\":16172:16265   */\n      tag_425\n      jump\t// in\n    tag_650:\n        /* \"#utility.yul\":16290:16292   */\n      0x20\n        /* \"#utility.yul\":16285:16288   */\n      dup3\n        /* \"#utility.yul\":16281:16293   */\n      add\n        /* \"#utility.yul\":16274:16293   */\n      swap1\n      pop\n        /* \"#utility.yul\":15933:16299   */\n      swap2\n      swap1\n      pop\n      jump\t// out\n        /* \"#utility.yul\":16305:16724   */\n    tag_104:\n        /* \"#utility.yul\":16471:16475   */\n      0x00\n        /* \"#utility.yul\":16509:16511   */\n      0x20\n        /* \"#utility.yul\":16498:16507   */\n      dup3\n        /* \"#utility.yul\":16494:16512   */\n      add\n        /* \"#utility.yul\":16486:16512   */\n      swap1\n      pop\n        /* \"#utility.yul\":16558:16567   */\n      dup2\n        /* \"#utility.yul\":16552:16556   */\n      dup2\n        /* \"#utility.yul\":16548:16568   */\n      sub\n        /* \"#utility.yul\":16544:16545   */\n      0x00\n        /* \"#utility.yul\":16533:16542   */\n      dup4\n        /* \"#utility.yul\":16529:16546   */\n      add\n        /* \"#utility.yul\":16522:16569   */\n      mstore\n        /* \"#utility.yul\":16586:16717   */\n      tag_652\n        /* \"#utility.yul\":16712:16716   */\n      dup2\n        /* \"#utility.yul\":16586:16717   */\n      tag_426\n      jump\t// in\n    tag_652:\n        /* \"#utility.yul\":16578:16717   */\n      swap1\n      pop\n        /* \"#utility.yul\":16305:16724   */\n      swap2\n      swap1\n      pop\n      jump\t// out\n        /* \"#utility.yul\":16730:16852   */\n    tag_427:\n        /* \"#utility.yul\":16782:16787   */\n      0x00\n        /* \"#utility.yul\":16807:16846   */\n      tag_654\n        /* \"#utility.yul\":16842:16844   */\n      0x20\n        /* \"#utility.yul\":16837:16840   */\n      dup5\n        /* \"#utility.yul\":16833:16845   */\n      add\n        /* \"#utility.yul\":16828:16831   */\n      dup5\n        /* \"#utility.yul\":16807:16846   */\n      tag_390\n      jump\t// in\n    tag_654:\n        /* \"#utility.yul\":16798:16846   */\n      swap1\n      pop\n        /* \"#utility.yul\":16730:16852   */\n      swap3\n      swap2\n      pop\n      pop\n      jump\t// out\n        /* \"#utility.yul\":16858:16966   */\n    tag_428:\n        /* \"#utility.yul\":16935:16959   */\n      tag_656\n        /* \"#utility.yul\":16953:16958   */\n      dup2\n        /* \"#utility.yul\":16935:16959   */\n      tag_388\n      jump\t// in\n    tag_656:\n        /* \"#utility.yul\":16930:16933   */\n      dup3\n        /* \"#utility.yul\":16923:16960   */\n      mstore\n        /* \"#utility.yul\":16858:16966   */\n      pop\n      pop\n      jump\t// out\n        /* \"#utility.yul\":16972:17094   */\n    tag_429:\n        /* \"#utility.yul\":17024:17029   */\n      0x00\n        /* \"#utility.yul\":17049:17088   */\n      tag_658\n        /* \"#utility.yul\":17084:17086   */\n      0x20\n        /* \"#utility.yul\":17079:17082   */\n      dup5\n        /* \"#utility.yul\":17075:17087   */\n      add\n        /* \"#utility.yul\":17070:17073   */\n      dup5\n        /* \"#utility.yul\":17049:17088   */\n      tag_398\n      jump\t// in\n    tag_658:\n        /* \"#utility.yul\":17040:17088   */\n      swap1\n      pop\n        /* \"#utility.yul\":16972:17094   */\n      swap3\n      swap2\n      pop\n      pop\n      jump\t// out\n        /* \"#utility.yul\":17100:17208   */\n    tag_430:\n        /* \"#utility.yul\":17177:17201   */\n      tag_660\n        /* \"#utility.yul\":17195:17200   */\n      dup2\n        /* \"#utility.yul\":17177:17201   */\n      tag_382\n      jump\t// in\n    tag_660:\n        /* \"#utility.yul\":17172:17175   */\n      dup3\n        /* \"#utility.yul\":17165:17202   */\n      mstore\n        /* \"#utility.yul\":17100:17208   */\n      pop\n      pop\n      jump\t// out\n        /* \"#utility.yul\":17214:17304   */\n    tag_431:\n        /* \"#utility.yul\":17248:17255   */\n      0x00\n        /* \"#utility.yul\":17291:17296   */\n      dup2\n        /* \"#utility.yul\":17284:17297   */\n      iszero\n        /* \"#utility.yul\":17277:17298   */\n      iszero\n        /* \"#utility.yul\":17266:17298   */\n      swap1\n      pop\n        /* \"#utility.yul\":17214:17304   */\n      swap2\n      swap1\n      pop\n      jump\t// out\n        /* \"#utility.yul\":17310:17426   */\n    tag_432:\n        /* \"#utility.yul\":17380:17401   */\n      tag_663\n        /* \"#utility.yul\":17395:17400   */\n      dup2\n        /* \"#utility.yul\":17380:17401   */\n      tag_431\n      jump\t// in\n    tag_663:\n        /* \"#utility.yul\":17373:17378   */\n      dup2\n        /* \"#utility.yul\":17370:17402   */\n      eq\n        /* \"#utility.yul\":17360:17420   */\n      tag_664\n      jumpi\n        /* \"#utility.yul\":17416:17417   */\n      0x00\n        /* \"#utility.yul\":17413:17414   */\n      dup1\n        /* \"#utility.yul\":17406:17418   */\n      revert\n        /* \"#utility.yul\":17360:17420   */\n    tag_664:\n        /* \"#utility.yul\":17310:17426   */\n      pop\n      jump\t// out\n        /* \"#utility.yul\":17432:17565   */\n    tag_433:\n        /* \"#utility.yul\":17475:17480   */\n      0x00\n        /* \"#utility.yul\":17513:17519   */\n      dup2\n        /* \"#utility.yul\":17500:17520   */\n      calldataload\n        /* \"#utility.yul\":17491:17520   */\n      swap1\n      pop\n        /* \"#utility.yul\":17529:17559   */\n      tag_666\n        /* \"#utility.yul\":17553:17558   */\n      dup2\n        /* \"#utility.yul\":17529:17559   */\n      tag_432\n      jump\t// in\n    tag_666:\n        /* \"#utility.yul\":17432:17565   */\n      swap3\n      swap2\n      pop\n      pop\n      jump\t// out\n        /* \"#utility.yul\":17571:17687   */\n    tag_434:\n        /* \"#utility.yul\":17620:17625   */\n      0x00\n        /* \"#utility.yul\":17645:17681   */\n      tag_668\n        /* \"#utility.yul\":17677:17679   */\n      0x20\n        /* \"#utility.yul\":17672:17675   */\n      dup5\n        /* \"#utility.yul\":17668:17680   */\n      add\n        /* \"#utility.yul\":17663:17666   */\n      dup5\n        /* \"#utility.yul\":17645:17681   */\n      tag_433\n      jump\t// in\n    tag_668:\n        /* \"#utility.yul\":17636:17681   */\n      swap1\n      pop\n        /* \"#utility.yul\":17571:17687   */\n      swap3\n      swap2\n      pop\n      pop\n      jump\t// out\n        /* \"#utility.yul\":17693:17792   */\n    tag_435:\n        /* \"#utility.yul\":17764:17785   */\n      tag_670\n        /* \"#utility.yul\":17779:17784   */\n      dup2\n        /* \"#utility.yul\":17764:17785   */\n      tag_431\n      jump\t// in\n    tag_670:\n        /* \"#utility.yul\":17759:17762   */\n      dup3\n        /* \"#utility.yul\":17752:17786   */\n      mstore\n        /* \"#utility.yul\":17693:17792   */\n      pop\n      pop\n      jump\t// out\n        /* \"#utility.yul\":17798:17915   */\n    tag_436:\n        /* \"#utility.yul\":17907:17908   */\n      0x00\n        /* \"#utility.yul\":17904:17905   */\n      dup1\n        /* \"#utility.yul\":17897:17909   */\n      revert\n        /* \"#utility.yul\":17921:18038   */\n    tag_437:\n        /* \"#utility.yul\":18030:18031   */\n      0x00\n        /* \"#utility.yul\":18027:18028   */\n      dup1\n        /* \"#utility.yul\":18020:18032   */\n      revert\n        /* \"#utility.yul\":18044:18161   */\n    tag_438:\n        /* \"#utility.yul\":18153:18154   */\n      0x00\n        /* \"#utility.yul\":18150:18151   */\n      dup1\n        /* \"#utility.yul\":18143:18155   */\n      revert\n        /* \"#utility.yul\":18167:18878   */\n    tag_439:\n        /* \"#utility.yul\":18231:18236   */\n      0x00\n        /* \"#utility.yul\":18238:18244   */\n      dup1\n        /* \"#utility.yul\":18294:18297   */\n      dup4\n        /* \"#utility.yul\":18281:18298   */\n      calldataload\n        /* \"#utility.yul\":18386:18387   */\n      0x01\n        /* \"#utility.yul\":18380:18384   */\n      0x20\n        /* \"#utility.yul\":18376:18388   */\n      sub\n        /* \"#utility.yul\":18365:18373   */\n      dup5\n        /* \"#utility.yul\":18349:18363   */\n      calldatasize\n        /* \"#utility.yul\":18345:18374   */\n      sub\n        /* \"#utility.yul\":18341:18389   */\n      sub\n        /* \"#utility.yul\":18321:18339   */\n      dup2\n        /* \"#utility.yul\":18317:18390   */\n      slt\n        /* \"#utility.yul\":18307:18475   */\n      tag_675\n      jumpi\n        /* \"#utility.yul\":18394:18473   */\n      tag_676\n      tag_438\n      jump\t// in\n    tag_676:\n        /* \"#utility.yul\":18307:18475   */\n    tag_675:\n        /* \"#utility.yul\":18517:18525   */\n      dup4\n        /* \"#utility.yul\":18497:18515   */\n      dup2\n        /* \"#utility.yul\":18493:18526   */\n      add\n        /* \"#utility.yul\":18484:18526   */\n      swap3\n      pop\n        /* \"#utility.yul\":18559:18564   */\n      dup3\n        /* \"#utility.yul\":18546:18565   */\n      calldataload\n        /* \"#utility.yul\":18536:18565   */\n      swap2\n      pop\n        /* \"#utility.yul\":18594:18598   */\n      0x20\n        /* \"#utility.yul\":18587:18592   */\n      dup4\n        /* \"#utility.yul\":18583:18599   */\n      add\n        /* \"#utility.yul\":18574:18599   */\n      swap3\n      pop\n        /* \"#utility.yul\":18622:18640   */\n      0xffffffffffffffff\n        /* \"#utility.yul\":18614:18620   */\n      dup3\n        /* \"#utility.yul\":18611:18641   */\n      gt\n        /* \"#utility.yul\":18608:18725   */\n      iszero\n      tag_677\n      jumpi\n        /* \"#utility.yul\":18644:18723   */\n      tag_678\n      tag_436\n      jump\t// in\n    tag_678:\n        /* \"#utility.yul\":18608:18725   */\n    tag_677:\n        /* \"#utility.yul\":18780:18784   */\n      0x01\n        /* \"#utility.yul\":18772:18778   */\n      dup3\n        /* \"#utility.yul\":18768:18785   */\n      mul\n        /* \"#utility.yul\":18752:18766   */\n      calldatasize\n        /* \"#utility.yul\":18748:18786   */\n      sub\n        /* \"#utility.yul\":18741:18746   */\n      dup4\n        /* \"#utility.yul\":18737:18787   */\n      sgt\n        /* \"#utility.yul\":18734:18871   */\n      iszero\n      tag_679\n      jumpi\n        /* \"#utility.yul\":18790:18869   */\n      tag_680\n      tag_437\n      jump\t// in\n    tag_680:\n        /* \"#utility.yul\":18734:18871   */\n    tag_679:\n        /* \"#utility.yul\":18245:18878   */\n      pop\n        /* \"#utility.yul\":18167:18878   */\n      swap3\n      pop\n      swap3\n      swap1\n      pop\n      jump\t// out\n        /* \"#utility.yul\":18906:19200   */\n    tag_440:\n        /* \"#utility.yul\":18992:18995   */\n      0x00\n        /* \"#utility.yul\":19013:19073   */\n      tag_682\n        /* \"#utility.yul\":19066:19072   */\n      dup4\n        /* \"#utility.yul\":19061:19064   */\n      dup6\n        /* \"#utility.yul\":19013:19073   */\n      tag_411\n      jump\t// in\n    tag_682:\n        /* \"#utility.yul\":19006:19073   */\n      swap4\n      pop\n        /* \"#utility.yul\":19083:19139   */\n      tag_683\n        /* \"#utility.yul\":19132:19138   */\n      dup4\n        /* \"#utility.yul\":19127:19130   */\n      dup6\n        /* \"#utility.yul\":19120:19125   */\n      dup5\n        /* \"#utility.yul\":19083:19139   */\n      tag_420\n      jump\t// in\n    tag_683:\n        /* \"#utility.yul\":19164:19193   */\n      tag_684\n        /* \"#utility.yul\":19186:19192   */\n      dup4\n        /* \"#utility.yul\":19164:19193   */\n      tag_413\n      jump\t// in\n    tag_684:\n        /* \"#utility.yul\":19159:19162   */\n      dup5\n        /* \"#utility.yul\":19155:19194   */\n      add\n        /* \"#utility.yul\":19148:19194   */\n      swap1\n      pop\n        /* \"#utility.yul\":18906:19200   */\n      swap4\n      swap3\n      pop\n      pop\n      pop\n      jump\t// out\n        /* \"#utility.yul\":19290:21849   */\n    tag_441:\n        /* \"#utility.yul\":19415:19418   */\n      0x00\n        /* \"#utility.yul\":19451:19457   */\n      0x0160\n        /* \"#utility.yul\":19446:19449   */\n      dup4\n        /* \"#utility.yul\":19442:19458   */\n      add\n        /* \"#utility.yul\":19526:19576   */\n      tag_686\n        /* \"#utility.yul\":19570:19574   */\n      0x00\n        /* \"#utility.yul\":19563:19568   */\n      dup5\n        /* \"#utility.yul\":19559:19575   */\n      add\n        /* \"#utility.yul\":19552:19557   */\n      dup5\n        /* \"#utility.yul\":19526:19576   */\n      tag_427\n      jump\t// in\n    tag_686:\n        /* \"#utility.yul\":19589:19652   */\n      tag_687\n        /* \"#utility.yul\":19646:19650   */\n      0x00\n        /* \"#utility.yul\":19641:19644   */\n      dup7\n        /* \"#utility.yul\":19637:19651   */\n      add\n        /* \"#utility.yul\":19623:19635   */\n      dup3\n        /* \"#utility.yul\":19589:19652   */\n      tag_428\n      jump\t// in\n    tag_687:\n        /* \"#utility.yul\":19468:19662   */\n      pop\n        /* \"#utility.yul\":19731:19781   */\n      tag_688\n        /* \"#utility.yul\":19775:19779   */\n      0x20\n        /* \"#utility.yul\":19768:19773   */\n      dup5\n        /* \"#utility.yul\":19764:19780   */\n      add\n        /* \"#utility.yul\":19757:19762   */\n      dup5\n        /* \"#utility.yul\":19731:19781   */\n      tag_427\n      jump\t// in\n    tag_688:\n        /* \"#utility.yul\":19794:19857   */\n      tag_689\n        /* \"#utility.yul\":19851:19855   */\n      0x20\n        /* \"#utility.yul\":19846:19849   */\n      dup7\n        /* \"#utility.yul\":19842:19856   */\n      add\n        /* \"#utility.yul\":19828:19840   */\n      dup3\n        /* \"#utility.yul\":19794:19857   */\n      tag_428\n      jump\t// in\n    tag_689:\n        /* \"#utility.yul\":19672:19867   */\n      pop\n        /* \"#utility.yul\":19939:19989   */\n      tag_690\n        /* \"#utility.yul\":19983:19987   */\n      0x40\n        /* \"#utility.yul\":19976:19981   */\n      dup5\n        /* \"#utility.yul\":19972:19988   */\n      add\n        /* \"#utility.yul\":19965:19970   */\n      dup5\n        /* \"#utility.yul\":19939:19989   */\n      tag_429\n      jump\t// in\n    tag_690:\n        /* \"#utility.yul\":20002:20065   */\n      tag_691\n        /* \"#utility.yul\":20059:20063   */\n      0x40\n        /* \"#utility.yul\":20054:20057   */\n      dup7\n        /* \"#utility.yul\":20050:20064   */\n      add\n        /* \"#utility.yul\":20036:20048   */\n      dup3\n        /* \"#utility.yul\":20002:20065   */\n      tag_430\n      jump\t// in\n    tag_691:\n        /* \"#utility.yul\":19877:20075   */\n      pop\n        /* \"#utility.yul\":20145:20195   */\n      tag_692\n        /* \"#utility.yul\":20189:20193   */\n      0x60\n        /* \"#utility.yul\":20182:20187   */\n      dup5\n        /* \"#utility.yul\":20178:20194   */\n      add\n        /* \"#utility.yul\":20171:20176   */\n      dup5\n        /* \"#utility.yul\":20145:20195   */\n      tag_429\n      jump\t// in\n    tag_692:\n        /* \"#utility.yul\":20208:20271   */\n      tag_693\n        /* \"#utility.yul\":20265:20269   */\n      0x60\n        /* \"#utility.yul\":20260:20263   */\n      dup7\n        /* \"#utility.yul\":20256:20270   */\n      add\n        /* \"#utility.yul\":20242:20254   */\n      dup3\n        /* \"#utility.yul\":20208:20271   */\n      tag_430\n      jump\t// in\n    tag_693:\n        /* \"#utility.yul\":20085:20281   */\n      pop\n        /* \"#utility.yul\":20350:20400   */\n      tag_694\n        /* \"#utility.yul\":20394:20398   */\n      0x80\n        /* \"#utility.yul\":20387:20392   */\n      dup5\n        /* \"#utility.yul\":20383:20399   */\n      add\n        /* \"#utility.yul\":20376:20381   */\n      dup5\n        /* \"#utility.yul\":20350:20400   */\n      tag_429\n      jump\t// in\n    tag_694:\n        /* \"#utility.yul\":20413:20476   */\n      tag_695\n        /* \"#utility.yul\":20470:20474   */\n      0x80\n        /* \"#utility.yul\":20465:20468   */\n      dup7\n        /* \"#utility.yul\":20461:20475   */\n      add\n        /* \"#utility.yul\":20447:20459   */\n      dup3\n        /* \"#utility.yul\":20413:20476   */\n      tag_430\n      jump\t// in\n    tag_695:\n        /* \"#utility.yul\":20291:20486   */\n      pop\n        /* \"#utility.yul\":20559:20606   */\n      tag_696\n        /* \"#utility.yul\":20600:20604   */\n      0xa0\n        /* \"#utility.yul\":20593:20598   */\n      dup5\n        /* \"#utility.yul\":20589:20605   */\n      add\n        /* \"#utility.yul\":20582:20587   */\n      dup5\n        /* \"#utility.yul\":20559:20606   */\n      tag_434\n      jump\t// in\n    tag_696:\n        /* \"#utility.yul\":20619:20676   */\n      tag_697\n        /* \"#utility.yul\":20670:20674   */\n      0xa0\n        /* \"#utility.yul\":20665:20668   */\n      dup7\n        /* \"#utility.yul\":20661:20675   */\n      add\n        /* \"#utility.yul\":20647:20659   */\n      dup3\n        /* \"#utility.yul\":20619:20676   */\n      tag_435\n      jump\t// in\n    tag_697:\n        /* \"#utility.yul\":20496:20686   */\n      pop\n        /* \"#utility.yul\":20754:20804   */\n      tag_698\n        /* \"#utility.yul\":20798:20802   */\n      0xc0\n        /* \"#utility.yul\":20791:20796   */\n      dup5\n        /* \"#utility.yul\":20787:20803   */\n      add\n        /* \"#utility.yul\":20780:20785   */\n      dup5\n        /* \"#utility.yul\":20754:20804   */\n      tag_427\n      jump\t// in\n    tag_698:\n        /* \"#utility.yul\":20817:20880   */\n      tag_699\n        /* \"#utility.yul\":20874:20878   */\n      0xc0\n        /* \"#utility.yul\":20869:20872   */\n      dup7\n        /* \"#utility.yul\":20865:20879   */\n      add\n        /* \"#utility.yul\":20851:20863   */\n      dup3\n        /* \"#utility.yul\":20817:20880   */\n      tag_428\n      jump\t// in\n    tag_699:\n        /* \"#utility.yul\":20696:20890   */\n      pop\n        /* \"#utility.yul\":20976:21037   */\n      tag_700\n        /* \"#utility.yul\":21031:21035   */\n      0xe0\n        /* \"#utility.yul\":21024:21029   */\n      dup5\n        /* \"#utility.yul\":21020:21036   */\n      add\n        /* \"#utility.yul\":21013:21018   */\n      dup5\n        /* \"#utility.yul\":20976:21037   */\n      tag_439\n      jump\t// in\n    tag_700:\n        /* \"#utility.yul\":21084:21087   */\n      dup6\n        /* \"#utility.yul\":21078:21082   */\n      dup4\n        /* \"#utility.yul\":21074:21088   */\n      sub\n        /* \"#utility.yul\":21067:21071   */\n      0xe0\n        /* \"#utility.yul\":21062:21065   */\n      dup8\n        /* \"#utility.yul\":21058:21072   */\n      add\n        /* \"#utility.yul\":21051:21089   */\n      mstore\n        /* \"#utility.yul\":21110:21197   */\n      tag_701\n        /* \"#utility.yul\":21192:21196   */\n      dup4\n        /* \"#utility.yul\":21178:21190   */\n      dup3\n        /* \"#utility.yul\":21164:21176   */\n      dup5\n        /* \"#utility.yul\":21110:21197   */\n      tag_440\n      jump\t// in\n    tag_701:\n        /* \"#utility.yul\":21102:21197   */\n      swap3\n      pop\n        /* \"#utility.yul\":20900:21208   */\n      pop\n      pop\n        /* \"#utility.yul\":21275:21327   */\n      tag_702\n        /* \"#utility.yul\":21319:21325   */\n      0x0100\n        /* \"#utility.yul\":21312:21317   */\n      dup5\n        /* \"#utility.yul\":21308:21326   */\n      add\n        /* \"#utility.yul\":21301:21306   */\n      dup5\n        /* \"#utility.yul\":21275:21327   */\n      tag_427\n      jump\t// in\n    tag_702:\n        /* \"#utility.yul\":21340:21405   */\n      tag_703\n        /* \"#utility.yul\":21397:21403   */\n      0x0100\n        /* \"#utility.yul\":21392:21395   */\n      dup7\n        /* \"#utility.yul\":21388:21404   */\n      add\n        /* \"#utility.yul\":21374:21386   */\n      dup3\n        /* \"#utility.yul\":21340:21405   */\n      tag_428\n      jump\t// in\n    tag_703:\n        /* \"#utility.yul\":21218:21415   */\n      pop\n        /* \"#utility.yul\":21484:21536   */\n      tag_704\n        /* \"#utility.yul\":21528:21534   */\n      0x0120\n        /* \"#utility.yul\":21521:21526   */\n      dup5\n        /* \"#utility.yul\":21517:21535   */\n      add\n        /* \"#utility.yul\":21510:21515   */\n      dup5\n        /* \"#utility.yul\":21484:21536   */\n      tag_427\n      jump\t// in\n    tag_704:\n        /* \"#utility.yul\":21549:21614   */\n      tag_705\n        /* \"#utility.yul\":21606:21612   */\n      0x0120\n        /* \"#utility.yul\":21601:21604   */\n      dup7\n        /* \"#utility.yul\":21597:21613   */\n      add\n        /* \"#utility.yul\":21583:21595   */\n      dup3\n        /* \"#utility.yul\":21549:21614   */\n      tag_428\n      jump\t// in\n    tag_705:\n        /* \"#utility.yul\":21425:21624   */\n      pop\n        /* \"#utility.yul\":21691:21740   */\n      tag_706\n        /* \"#utility.yul\":21732:21738   */\n      0x0140\n        /* \"#utility.yul\":21725:21730   */\n      dup5\n        /* \"#utility.yul\":21721:21739   */\n      add\n        /* \"#utility.yul\":21714:21719   */\n      dup5\n        /* \"#utility.yul\":21691:21740   */\n      tag_434\n      jump\t// in\n    tag_706:\n        /* \"#utility.yul\":21753:21812   */\n      tag_707\n        /* \"#utility.yul\":21804:21810   */\n      0x0140\n        /* \"#utility.yul\":21799:21802   */\n      dup7\n        /* \"#utility.yul\":21795:21811   */\n      add\n        /* \"#utility.yul\":21781:21793   */\n      dup3\n        /* \"#utility.yul\":21753:21812   */\n      tag_435\n      jump\t// in\n    tag_707:\n        /* \"#utility.yul\":21634:21822   */\n      pop\n        /* \"#utility.yul\":21839:21843   */\n      dup1\n        /* \"#utility.yul\":21832:21843   */\n      swap2\n      pop\n        /* \"#utility.yul\":19420:21849   */\n      pop\n        /* \"#utility.yul\":19290:21849   */\n      swap3\n      swap2\n      pop\n      pop\n      jump\t// out\n        /* \"#utility.yul\":21855:22240   */\n    tag_108:\n        /* \"#utility.yul\":22004:22008   */\n      0x00\n        /* \"#utility.yul\":22042:22044   */\n      0x20\n        /* \"#utility.yul\":22031:22040   */\n      dup3\n        /* \"#utility.yul\":22027:22045   */\n      add\n        /* \"#utility.yul\":22019:22045   */\n      swap1\n      pop\n        /* \"#utility.yul\":22091:22100   */\n      dup2\n        /* \"#utility.yul\":22085:22089   */\n      dup2\n        /* \"#utility.yul\":22081:22101   */\n      sub\n        /* \"#utility.yul\":22077:22078   */\n      0x00\n        /* \"#utility.yul\":22066:22075   */\n      dup4\n        /* \"#utility.yul\":22062:22079   */\n      add\n        /* \"#utility.yul\":22055:22102   */\n      mstore\n        /* \"#utility.yul\":22119:22233   */\n      tag_709\n        /* \"#utility.yul\":22228:22232   */\n      dup2\n        /* \"#utility.yul\":22219:22225   */\n      dup5\n        /* \"#utility.yul\":22119:22233   */\n      tag_441\n      jump\t// in\n    tag_709:\n        /* \"#utility.yul\":22111:22233   */\n      swap1\n      pop\n        /* \"#utility.yul\":21855:22240   */\n      swap3\n      swap2\n      pop\n      pop\n      jump\t// out\n        /* \"#utility.yul\":22246:22569   */\n    tag_111:\n        /* \"#utility.yul\":22302:22308   */\n      0x00\n        /* \"#utility.yul\":22351:22353   */\n      0x20\n        /* \"#utility.yul\":22339:22348   */\n      dup3\n        /* \"#utility.yul\":22330:22337   */\n      dup5\n        /* \"#utility.yul\":22326:22349   */\n      sub\n        /* \"#utility.yul\":22322:22354   */\n      slt\n        /* \"#utility.yul\":22319:22438   */\n      iszero\n      tag_711\n      jumpi\n        /* \"#utility.yul\":22357:22436   */\n      tag_712\n      tag_385\n      jump\t// in\n    tag_712:\n        /* \"#utility.yul\":22319:22438   */\n    tag_711:\n        /* \"#utility.yul\":22477:22478   */\n      0x00\n        /* \"#utility.yul\":22502:22552   */\n      tag_713\n        /* \"#utility.yul\":22544:22551   */\n      dup5\n        /* \"#utility.yul\":22535:22541   */\n      dup3\n        /* \"#utility.yul\":22524:22533   */\n      dup6\n        /* \"#utility.yul\":22520:22542   */\n      add\n        /* \"#utility.yul\":22502:22552   */\n      tag_433\n      jump\t// in\n    tag_713:\n        /* \"#utility.yul\":22492:22552   */\n      swap2\n      pop\n        /* \"#utility.yul\":22448:22562   */\n      pop\n        /* \"#utility.yul\":22246:22569   */\n      swap3\n      swap2\n      pop\n      pop\n      jump\t// out\n        /* \"#utility.yul\":22575:22743   */\n    tag_442:\n        /* \"#utility.yul\":22715:22735   */\n      0x696e73756666696369656e742076616c75650000000000000000000000000000\n        /* \"#utility.yul\":22711:22712   */\n      0x00\n        /* \"#utility.yul\":22703:22709   */\n      dup3\n        /* \"#utility.yul\":22699:22713   */\n      add\n        /* \"#utility.yul\":22692:22736   */\n      mstore\n        /* \"#utility.yul\":22575:22743   */\n      pop\n      jump\t// out\n        /* \"#utility.yul\":22749:23115   */\n    tag_443:\n        /* \"#utility.yul\":22891:22894   */\n      0x00\n        /* \"#utility.yul\":22912:22979   */\n      tag_716\n        /* \"#utility.yul\":22976:22978   */\n      0x12\n        /* \"#utility.yul\":22971:22974   */\n      dup4\n        /* \"#utility.yul\":22912:22979   */\n      tag_422\n      jump\t// in\n    tag_716:\n        /* \"#utility.yul\":22905:22979   */\n      swap2\n      pop\n        /* \"#utility.yul\":22988:23081   */\n      tag_717\n        /* \"#utility.yul\":23077:23080   */\n      dup3\n        /* \"#utility.yul\":22988:23081   */\n      tag_442\n      jump\t// in\n    tag_717:\n        /* \"#utility.yul\":23106:23108   */\n      0x20\n        /* \"#utility.yul\":23101:23104   */\n      dup3\n        /* \"#utility.yul\":23097:23109   */\n      add\n        /* \"#utility.yul\":23090:23109   */\n      swap1\n      pop\n        /* \"#utility.yul\":22749:23115   */\n      swap2\n      swap1\n      pop\n      jump\t// out\n        /* \"#utility.yul\":23121:23540   */\n    tag_129:\n        /* \"#utility.yul\":23287:23291   */\n      0x00\n        /* \"#utility.yul\":23325:23327   */\n      0x20\n        /* \"#utility.yul\":23314:23323   */\n      dup3\n        /* \"#utility.yul\":23310:23328   */\n      add\n        /* \"#utility.yul\":23302:23328   */\n      swap1\n      pop\n        /* \"#utility.yul\":23374:23383   */\n      dup2\n        /* \"#utility.yul\":23368:23372   */\n      dup2\n        /* \"#utility.yul\":23364:23384   */\n      sub\n        /* \"#utility.yul\":23360:23361   */\n      0x00\n        /* \"#utility.yul\":23349:23358   */\n      dup4\n        /* \"#utility.yul\":23345:23362   */\n      add\n        /* \"#utility.yul\":23338:23385   */\n      mstore\n        /* \"#utility.yul\":23402:23533   */\n      tag_719\n        /* \"#utility.yul\":23528:23532   */\n      dup2\n        /* \"#utility.yul\":23402:23533   */\n      tag_443\n      jump\t// in\n    tag_719:\n        /* \"#utility.yul\":23394:23533   */\n      swap1\n      pop\n        /* \"#utility.yul\":23121:23540   */\n      swap2\n      swap1\n      pop\n      jump\t// out\n        /* \"#utility.yul\":23546:23663   */\n    tag_444:\n        /* \"#utility.yul\":23655:23656   */\n      0x00\n        /* \"#utility.yul\":23652:23653   */\n      dup1\n        /* \"#utility.yul\":23645:23657   */\n      revert\n        /* \"#utility.yul\":23669:23786   */\n    tag_445:\n        /* \"#utility.yul\":23778:23779   */\n      0x00\n        /* \"#utility.yul\":23775:23776   */\n      dup1\n        /* \"#utility.yul\":23768:23780   */\n      revert\n        /* \"#utility.yul\":23792:23909   */\n    tag_446:\n        /* \"#utility.yul\":23901:23902   */\n      0x00\n        /* \"#utility.yul\":23898:23899   */\n      dup1\n        /* \"#utility.yul\":23891:23903   */\n      revert\n        /* \"#utility.yul\":23915:24639   */\n    tag_140:\n        /* \"#utility.yul\":23992:23996   */\n      0x00\n        /* \"#utility.yul\":23998:24004   */\n      dup1\n        /* \"#utility.yul\":24054:24065   */\n      dup4\n        /* \"#utility.yul\":24041:24066   */\n      calldataload\n        /* \"#utility.yul\":24154:24155   */\n      0x01\n        /* \"#utility.yul\":24148:24152   */\n      0x20\n        /* \"#utility.yul\":24144:24156   */\n      sub\n        /* \"#utility.yul\":24133:24141   */\n      dup5\n        /* \"#utility.yul\":24117:24131   */\n      calldatasize\n        /* \"#utility.yul\":24113:24142   */\n      sub\n        /* \"#utility.yul\":24109:24157   */\n      sub\n        /* \"#utility.yul\":24089:24107   */\n      dup2\n        /* \"#utility.yul\":24085:24158   */\n      slt\n        /* \"#utility.yul\":24075:24243   */\n      tag_724\n      jumpi\n        /* \"#utility.yul\":24162:24241   */\n      tag_725\n      tag_444\n      jump\t// in\n    tag_725:\n        /* \"#utility.yul\":24075:24243   */\n    tag_724:\n        /* \"#utility.yul\":24274:24292   */\n      dup1\n        /* \"#utility.yul\":24264:24272   */\n      dup5\n        /* \"#utility.yul\":24260:24293   */\n      add\n        /* \"#utility.yul\":24252:24293   */\n      swap3\n      pop\n        /* \"#utility.yul\":24326:24330   */\n      dup3\n        /* \"#utility.yul\":24313:24331   */\n      calldataload\n        /* \"#utility.yul\":24303:24331   */\n      swap2\n      pop\n        /* \"#utility.yul\":24354:24372   */\n      0xffffffffffffffff\n        /* \"#utility.yul\":24346:24352   */\n      dup3\n        /* \"#utility.yul\":24343:24373   */\n      gt\n        /* \"#utility.yul\":24340:24457   */\n      iszero\n      tag_726\n      jumpi\n        /* \"#utility.yul\":24376:24455   */\n      tag_727\n      tag_445\n      jump\t// in\n    tag_727:\n        /* \"#utility.yul\":24340:24457   */\n    tag_726:\n        /* \"#utility.yul\":24484:24486   */\n      0x20\n        /* \"#utility.yul\":24478:24482   */\n      dup4\n        /* \"#utility.yul\":24474:24487   */\n      add\n        /* \"#utility.yul\":24466:24487   */\n      swap3\n      pop\n        /* \"#utility.yul\":24541:24545   */\n      0x01\n        /* \"#utility.yul\":24533:24539   */\n      dup3\n        /* \"#utility.yul\":24529:24546   */\n      mul\n        /* \"#utility.yul\":24513:24527   */\n      calldatasize\n        /* \"#utility.yul\":24509:24547   */\n      sub\n        /* \"#utility.yul\":24503:24507   */\n      dup4\n        /* \"#utility.yul\":24499:24548   */\n      sgt\n        /* \"#utility.yul\":24496:24632   */\n      iszero\n      tag_728\n      jumpi\n        /* \"#utility.yul\":24551:24630   */\n      tag_729\n      tag_446\n      jump\t// in\n    tag_729:\n        /* \"#utility.yul\":24496:24632   */\n    tag_728:\n        /* \"#utility.yul\":24005:24639   */\n      pop\n        /* \"#utility.yul\":23915:24639   */\n      swap3\n      pop\n      swap3\n      swap1\n      pop\n      jump\t// out\n        /* \"#utility.yul\":24645:24825   */\n    tag_447:\n        /* \"#utility.yul\":24693:24770   */\n      0x4e487b7100000000000000000000000000000000000000000000000000000000\n        /* \"#utility.yul\":24690:24691   */\n      0x00\n        /* \"#utility.yul\":24683:24771   */\n      mstore\n        /* \"#utility.yul\":24790:24794   */\n      0x11\n        /* \"#utility.yul\":24787:24788   */\n      0x04\n        /* \"#utility.yul\":24780:24795   */\n      mstore\n        /* \"#utility.yul\":24814:24818   */\n      0x24\n        /* \"#utility.yul\":24811:24812   */\n      0x00\n        /* \"#utility.yul\":24804:24819   */\n      revert\n        /* \"#utility.yul\":24831:25025   */\n    tag_149:\n        /* \"#utility.yul\":24871:24875   */\n      0x00\n        /* \"#utility.yul\":24891:24911   */\n      tag_732\n        /* \"#utility.yul\":24909:24910   */\n      dup3\n        /* \"#utility.yul\":24891:24911   */\n      tag_382\n      jump\t// in\n    tag_732:\n        /* \"#utility.yul\":24886:24911   */\n      swap2\n      pop\n        /* \"#utility.yul\":24925:24945   */\n      tag_733\n        /* \"#utility.yul\":24943:24944   */\n      dup4\n        /* \"#utility.yul\":24925:24945   */\n      tag_382\n      jump\t// in\n    tag_733:\n        /* \"#utility.yul\":24920:24945   */\n      swap3\n      pop\n        /* \"#utility.yul\":24969:24970   */\n      dup3\n        /* \"#utility.yul\":24966:24967   */\n      dup3\n        /* \"#utility.yul\":24962:24971   */\n      sub\n        /* \"#utility.yul\":24954:24971   */\n      swap1\n      pop\n        /* \"#utility.yul\":24993:24994   */\n      dup2\n        /* \"#utility.yul\":24987:24991   */\n      dup2\n        /* \"#utility.yul\":24984:24995   */\n      gt\n        /* \"#utility.yul\":24981:25018   */\n      iszero\n      tag_734\n      jumpi\n        /* \"#utility.yul\":24998:25016   */\n      tag_735\n      tag_447\n      jump\t// in\n    tag_735:\n        /* \"#utility.yul\":24981:25018   */\n    tag_734:\n        /* \"#utility.yul\":24831:25025   */\n      swap3\n      swap2\n      pop\n      pop\n      jump\t// out\n        /* \"#utility.yul\":25115:27055   */\n    tag_448:\n        /* \"#utility.yul\":25244:25247   */\n      0x00\n        /* \"#utility.yul\":25280:25286   */\n      0x0100\n        /* \"#utility.yul\":25275:25278   */\n      dup4\n        /* \"#utility.yul\":25271:25287   */\n      add\n        /* \"#utility.yul\":25354:25404   */\n      tag_737\n        /* \"#utility.yul\":25398:25402   */\n      0x00\n        /* \"#utility.yul\":25391:25396   */\n      dup5\n        /* \"#utility.yul\":25387:25403   */\n      add\n        /* \"#utility.yul\":25380:25385   */\n      dup5\n        /* \"#utility.yul\":25354:25404   */\n      tag_427\n      jump\t// in\n    tag_737:\n        /* \"#utility.yul\":25417:25480   */\n      tag_738\n        /* \"#utility.yul\":25474:25478   */\n      0x00\n        /* \"#utility.yul\":25469:25472   */\n      dup7\n        /* \"#utility.yul\":25465:25479   */\n      add\n        /* \"#utility.yul\":25451:25463   */\n      dup3\n        /* \"#utility.yul\":25417:25480   */\n      tag_428\n      jump\t// in\n    tag_738:\n        /* \"#utility.yul\":25297:25490   */\n      pop\n        /* \"#utility.yul\":25558:25608   */\n      tag_739\n        /* \"#utility.yul\":25602:25606   */\n      0x20\n        /* \"#utility.yul\":25595:25600   */\n      dup5\n        /* \"#utility.yul\":25591:25607   */\n      add\n        /* \"#utility.yul\":25584:25589   */\n      dup5\n        /* \"#utility.yul\":25558:25608   */\n      tag_427\n      jump\t// in\n    tag_739:\n        /* \"#utility.yul\":25621:25684   */\n      tag_740\n        /* \"#utility.yul\":25678:25682   */\n      0x20\n        /* \"#utility.yul\":25673:25676   */\n      dup7\n        /* \"#utility.yul\":25669:25683   */\n      add\n        /* \"#utility.yul\":25655:25667   */\n      dup3\n        /* \"#utility.yul\":25621:25684   */\n      tag_428\n      jump\t// in\n    tag_740:\n        /* \"#utility.yul\":25500:25694   */\n      pop\n        /* \"#utility.yul\":25761:25811   */\n      tag_741\n        /* \"#utility.yul\":25805:25809   */\n      0x40\n        /* \"#utility.yul\":25798:25803   */\n      dup5\n        /* \"#utility.yul\":25794:25810   */\n      add\n        /* \"#utility.yul\":25787:25792   */\n      dup5\n        /* \"#utility.yul\":25761:25811   */\n      tag_427\n      jump\t// in\n    tag_741:\n        /* \"#utility.yul\":25824:25887   */\n      tag_742\n        /* \"#utility.yul\":25881:25885   */\n      0x40\n        /* \"#utility.yul\":25876:25879   */\n      dup7\n        /* \"#utility.yul\":25872:25886   */\n      add\n        /* \"#utility.yul\":25858:25870   */\n      dup3\n        /* \"#utility.yul\":25824:25887   */\n      tag_428\n      jump\t// in\n    tag_742:\n        /* \"#utility.yul\":25704:25897   */\n      pop\n        /* \"#utility.yul\":25967:26017   */\n      tag_743\n        /* \"#utility.yul\":26011:26015   */\n      0x60\n        /* \"#utility.yul\":26004:26009   */\n      dup5\n        /* \"#utility.yul\":26000:26016   */\n      add\n        /* \"#utility.yul\":25993:25998   */\n      dup5\n        /* \"#utility.yul\":25967:26017   */\n      tag_429\n      jump\t// in\n    tag_743:\n        /* \"#utility.yul\":26030:26093   */\n      tag_744\n        /* \"#utility.yul\":26087:26091   */\n      0x60\n        /* \"#utility.yul\":26082:26085   */\n      dup7\n        /* \"#utility.yul\":26078:26092   */\n      add\n        /* \"#utility.yul\":26064:26076   */\n      dup3\n        /* \"#utility.yul\":26030:26093   */\n      tag_430\n      jump\t// in\n    tag_744:\n        /* \"#utility.yul\":25907:26103   */\n      pop\n        /* \"#utility.yul\":26173:26220   */\n      tag_745\n        /* \"#utility.yul\":26214:26218   */\n      0x80\n        /* \"#utility.yul\":26207:26212   */\n      dup5\n        /* \"#utility.yul\":26203:26219   */\n      add\n        /* \"#utility.yul\":26196:26201   */\n      dup5\n        /* \"#utility.yul\":26173:26220   */\n      tag_434\n      jump\t// in\n    tag_745:\n        /* \"#utility.yul\":26233:26290   */\n      tag_746\n        /* \"#utility.yul\":26284:26288   */\n      0x80\n        /* \"#utility.yul\":26279:26282   */\n      dup7\n        /* \"#utility.yul\":26275:26289   */\n      add\n        /* \"#utility.yul\":26261:26273   */\n      dup3\n        /* \"#utility.yul\":26233:26290   */\n      tag_435\n      jump\t// in\n    tag_746:\n        /* \"#utility.yul\":26113:26300   */\n      pop\n        /* \"#utility.yul\":26369:26419   */\n      tag_747\n        /* \"#utility.yul\":26413:26417   */\n      0xa0\n        /* \"#utility.yul\":26406:26411   */\n      dup5\n        /* \"#utility.yul\":26402:26418   */\n      add\n        /* \"#utility.yul\":26395:26400   */\n      dup5\n        /* \"#utility.yul\":26369:26419   */\n      tag_429\n      jump\t// in\n    tag_747:\n        /* \"#utility.yul\":26432:26495   */\n      tag_748\n        /* \"#utility.yul\":26489:26493   */\n      0xa0\n        /* \"#utility.yul\":26484:26487   */\n      dup7\n        /* \"#utility.yul\":26480:26494   */\n      add\n        /* \"#utility.yul\":26466:26478   */\n      dup3\n        /* \"#utility.yul\":26432:26495   */\n      tag_430\n      jump\t// in\n    tag_748:\n        /* \"#utility.yul\":26310:26505   */\n      pop\n        /* \"#utility.yul\":26575:26625   */\n      tag_749\n        /* \"#utility.yul\":26619:26623   */\n      0xc0\n        /* \"#utility.yul\":26612:26617   */\n      dup5\n        /* \"#utility.yul\":26608:26624   */\n      add\n        /* \"#utility.yul\":26601:26606   */\n      dup5\n        /* \"#utility.yul\":26575:26625   */\n      tag_429\n      jump\t// in\n    tag_749:\n        /* \"#utility.yul\":26638:26701   */\n      tag_750\n        /* \"#utility.yul\":26695:26699   */\n      0xc0\n        /* \"#utility.yul\":26690:26693   */\n      dup7\n        /* \"#utility.yul\":26686:26700   */\n      add\n        /* \"#utility.yul\":26672:26684   */\n      dup3\n        /* \"#utility.yul\":26638:26701   */\n      tag_430\n      jump\t// in\n    tag_750:\n        /* \"#utility.yul\":26515:26711   */\n      pop\n        /* \"#utility.yul\":26796:26857   */\n      tag_751\n        /* \"#utility.yul\":26851:26855   */\n      0xe0\n        /* \"#utility.yul\":26844:26849   */\n      dup5\n        /* \"#utility.yul\":26840:26856   */\n      add\n        /* \"#utility.yul\":26833:26838   */\n      dup5\n        /* \"#utility.yul\":26796:26857   */\n      tag_439\n      jump\t// in\n    tag_751:\n        /* \"#utility.yul\":26904:26907   */\n      dup6\n        /* \"#utility.yul\":26898:26902   */\n      dup4\n        /* \"#utility.yul\":26894:26908   */\n      sub\n        /* \"#utility.yul\":26887:26891   */\n      0xe0\n        /* \"#utility.yul\":26882:26885   */\n      dup8\n        /* \"#utility.yul\":26878:26892   */\n      add\n        /* \"#utility.yul\":26871:26909   */\n      mstore\n        /* \"#utility.yul\":26930:27017   */\n      tag_752\n        /* \"#utility.yul\":27012:27016   */\n      dup4\n        /* \"#utility.yul\":26998:27010   */\n      dup3\n        /* \"#utility.yul\":26984:26996   */\n      dup5\n        /* \"#utility.yul\":26930:27017   */\n      tag_440\n      jump\t// in\n    tag_752:\n        /* \"#utility.yul\":26922:27017   */\n      swap3\n      pop\n        /* \"#utility.yul\":26721:27028   */\n      pop\n      pop\n        /* \"#utility.yul\":27045:27049   */\n      dup1\n        /* \"#utility.yul\":27038:27049   */\n      swap2\n      pop\n        /* \"#utility.yul\":25249:27055   */\n      pop\n        /* \"#utility.yul\":25115:27055   */\n      swap3\n      swap2\n      pop\n      pop\n      jump\t// out\n        /* \"#utility.yul\":27061:27454   */\n    tag_171:\n        /* \"#utility.yul\":27214:27218   */\n      0x00\n        /* \"#utility.yul\":27252:27254   */\n      0x20\n        /* \"#utility.yul\":27241:27250   */\n      dup3\n        /* \"#utility.yul\":27237:27255   */\n      add\n        /* \"#utility.yul\":27229:27255   */\n      swap1\n      pop\n        /* \"#utility.yul\":27301:27310   */\n      dup2\n        /* \"#utility.yul\":27295:27299   */\n      dup2\n        /* \"#utility.yul\":27291:27311   */\n      sub\n        /* \"#utility.yul\":27287:27288   */\n      0x00\n        /* \"#utility.yul\":27276:27285   */\n      dup4\n        /* \"#utility.yul\":27272:27289   */\n      add\n        /* \"#utility.yul\":27265:27312   */\n      mstore\n        /* \"#utility.yul\":27329:27447   */\n      tag_754\n        /* \"#utility.yul\":27442:27446   */\n      dup2\n        /* \"#utility.yul\":27433:27439   */\n      dup5\n        /* \"#utility.yul\":27329:27447   */\n      tag_448\n      jump\t// in\n    tag_754:\n        /* \"#utility.yul\":27321:27447   */\n      swap1\n      pop\n        /* \"#utility.yul\":27061:27454   */\n      swap3\n      swap2\n      pop\n      pop\n      jump\t// out\n        /* \"#utility.yul\":27460:27651   */\n    tag_178:\n        /* \"#utility.yul\":27500:27503   */\n      0x00\n        /* \"#utility.yul\":27519:27539   */\n      tag_756\n        /* \"#utility.yul\":27537:27538   */\n      dup3\n        /* \"#utility.yul\":27519:27539   */\n      tag_382\n      jump\t// in\n    tag_756:\n        /* \"#utility.yul\":27514:27539   */\n      swap2\n      pop\n        /* \"#utility.yul\":27553:27573   */\n      tag_757\n        /* \"#utility.yul\":27571:27572   */\n      dup4\n        /* \"#utility.yul\":27553:27573   */\n      tag_382\n      jump\t// in\n    tag_757:\n        /* \"#utility.yul\":27548:27573   */\n      swap3\n      pop\n        /* \"#utility.yul\":27596:27597   */\n      dup3\n        /* \"#utility.yul\":27593:27594   */\n      dup3\n        /* \"#utility.yul\":27589:27598   */\n      add\n        /* \"#utility.yul\":27582:27598   */\n      swap1\n      pop\n        /* \"#utility.yul\":27617:27620   */\n      dup1\n        /* \"#utility.yul\":27614:27615   */\n      dup3\n        /* \"#utility.yul\":27611:27621   */\n      gt\n        /* \"#utility.yul\":27608:27644   */\n      iszero\n      tag_758\n      jumpi\n        /* \"#utility.yul\":27624:27642   */\n      tag_759\n      tag_447\n      jump\t// in\n    tag_759:\n        /* \"#utility.yul\":27608:27644   */\n    tag_758:\n        /* \"#utility.yul\":27460:27651   */\n      swap3\n      swap2\n      pop\n      pop\n      jump\t// out\n        /* \"#utility.yul\":27657:27825   */\n    tag_449:\n        /* \"#utility.yul\":27740:27751   */\n      0x00\n        /* \"#utility.yul\":27774:27780   */\n      dup3\n        /* \"#utility.yul\":27769:27772   */\n      dup3\n        /* \"#utility.yul\":27762:27781   */\n      mstore\n        /* \"#utility.yul\":27814:27818   */\n      0x20\n        /* \"#utility.yul\":27809:27812   */\n      dup3\n        /* \"#utility.yul\":27805:27819   */\n      add\n        /* \"#utility.yul\":27790:27819   */\n      swap1\n      pop\n        /* \"#utility.yul\":27657:27825   */\n      swap3\n      swap2\n      pop\n      pop\n      jump\t// out\n        /* \"#utility.yul\":27853:28167   */\n    tag_450:\n        /* \"#utility.yul\":27949:27952   */\n      0x00\n        /* \"#utility.yul\":27970:28040   */\n      tag_762\n        /* \"#utility.yul\":28033:28039   */\n      dup4\n        /* \"#utility.yul\":28028:28031   */\n      dup6\n        /* \"#utility.yul\":27970:28040   */\n      tag_449\n      jump\t// in\n    tag_762:\n        /* \"#utility.yul\":27963:28040   */\n      swap4\n      pop\n        /* \"#utility.yul\":28050:28106   */\n      tag_763\n        /* \"#utility.yul\":28099:28105   */\n      dup4\n        /* \"#utility.yul\":28094:28097   */\n      dup6\n        /* \"#utility.yul\":28087:28092   */\n      dup5\n        /* \"#utility.yul\":28050:28106   */\n      tag_420\n      jump\t// in\n    tag_763:\n        /* \"#utility.yul\":28131:28160   */\n      tag_764\n        /* \"#utility.yul\":28153:28159   */\n      dup4\n        /* \"#utility.yul\":28131:28160   */\n      tag_413\n      jump\t// in\n    tag_764:\n        /* \"#utility.yul\":28126:28129   */\n      dup5\n        /* \"#utility.yul\":28122:28161   */\n      add\n        /* \"#utility.yul\":28115:28161   */\n      swap1\n      pop\n        /* \"#utility.yul\":27853:28167   */\n      swap4\n      swap3\n      pop\n      pop\n      pop\n      jump\t// out\n        /* \"#utility.yul\":28173:28612   */\n    tag_188:\n        /* \"#utility.yul\":28322:28326   */\n      0x00\n        /* \"#utility.yul\":28360:28362   */\n      0x40\n        /* \"#utility.yul\":28349:28358   */\n      dup3\n        /* \"#utility.yul\":28345:28363   */\n      add\n        /* \"#utility.yul\":28337:28363   */\n      swap1\n      pop\n        /* \"#utility.yul\":28409:28418   */\n      dup2\n        /* \"#utility.yul\":28403:28407   */\n      dup2\n        /* \"#utility.yul\":28399:28419   */\n      sub\n        /* \"#utility.yul\":28395:28396   */\n      0x00\n        /* \"#utility.yul\":28384:28393   */\n      dup4\n        /* \"#utility.yul\":28380:28397   */\n      add\n        /* \"#utility.yul\":28373:28420   */\n      mstore\n        /* \"#utility.yul\":28437:28523   */\n      tag_766\n        /* \"#utility.yul\":28518:28522   */\n      dup2\n        /* \"#utility.yul\":28509:28515   */\n      dup6\n        /* \"#utility.yul\":28501:28507   */\n      dup8\n        /* \"#utility.yul\":28437:28523   */\n      tag_450\n      jump\t// in\n    tag_766:\n        /* \"#utility.yul\":28429:28523   */\n      swap1\n      pop\n        /* \"#utility.yul\":28533:28605   */\n      tag_767\n        /* \"#utility.yul\":28601:28603   */\n      0x20\n        /* \"#utility.yul\":28590:28599   */\n      dup4\n        /* \"#utility.yul\":28586:28604   */\n      add\n        /* \"#utility.yul\":28577:28583   */\n      dup5\n        /* \"#utility.yul\":28533:28605   */\n      tag_383\n      jump\t// in\n    tag_767:\n        /* \"#utility.yul\":28173:28612   */\n      swap5\n      swap4\n      pop\n      pop\n      pop\n      pop\n      jump\t// out\n        /* \"#utility.yul\":28618:28730   */\n    tag_451:\n        /* \"#utility.yul\":28701:28723   */\n      tag_769\n        /* \"#utility.yul\":28717:28722   */\n      dup2\n        /* \"#utility.yul\":28701:28723   */\n      tag_401\n      jump\t// in\n    tag_769:\n        /* \"#utility.yul\":28696:28699   */\n      dup3\n        /* \"#utility.yul\":28689:28724   */\n      mstore\n        /* \"#utility.yul\":28618:28730   */\n      pop\n      pop\n      jump\t// out\n        /* \"#utility.yul\":28736:29392   */\n    tag_205:\n        /* \"#utility.yul\":28937:28941   */\n      0x00\n        /* \"#utility.yul\":28975:28978   */\n      0xa0\n        /* \"#utility.yul\":28964:28973   */\n      dup3\n        /* \"#utility.yul\":28960:28979   */\n      add\n        /* \"#utility.yul\":28952:28979   */\n      swap1\n      pop\n        /* \"#utility.yul\":28989:29060   */\n      tag_771\n        /* \"#utility.yul\":29057:29058   */\n      0x00\n        /* \"#utility.yul\":29046:29055   */\n      dup4\n        /* \"#utility.yul\":29042:29059   */\n      add\n        /* \"#utility.yul\":29033:29039   */\n      dup9\n        /* \"#utility.yul\":28989:29060   */\n      tag_400\n      jump\t// in\n    tag_771:\n        /* \"#utility.yul\":29070:29142   */\n      tag_772\n        /* \"#utility.yul\":29138:29140   */\n      0x20\n        /* \"#utility.yul\":29127:29136   */\n      dup4\n        /* \"#utility.yul\":29123:29141   */\n      add\n        /* \"#utility.yul\":29114:29120   */\n      dup8\n        /* \"#utility.yul\":29070:29142   */\n      tag_400\n      jump\t// in\n    tag_772:\n        /* \"#utility.yul\":29152:29224   */\n      tag_773\n        /* \"#utility.yul\":29220:29222   */\n      0x40\n        /* \"#utility.yul\":29209:29218   */\n      dup4\n        /* \"#utility.yul\":29205:29223   */\n      add\n        /* \"#utility.yul\":29196:29202   */\n      dup7\n        /* \"#utility.yul\":29152:29224   */\n      tag_400\n      jump\t// in\n    tag_773:\n        /* \"#utility.yul\":29234:29306   */\n      tag_774\n        /* \"#utility.yul\":29302:29304   */\n      0x60\n        /* \"#utility.yul\":29291:29300   */\n      dup4\n        /* \"#utility.yul\":29287:29305   */\n      add\n        /* \"#utility.yul\":29278:29284   */\n      dup6\n        /* \"#utility.yul\":29234:29306   */\n      tag_383\n      jump\t// in\n    tag_774:\n        /* \"#utility.yul\":29316:29385   */\n      tag_775\n        /* \"#utility.yul\":29380:29383   */\n      0x80\n        /* \"#utility.yul\":29369:29378   */\n      dup4\n        /* \"#utility.yul\":29365:29384   */\n      add\n        /* \"#utility.yul\":29356:29362   */\n      dup5\n        /* \"#utility.yul\":29316:29385   */\n      tag_451\n      jump\t// in\n    tag_775:\n        /* \"#utility.yul\":28736:29392   */\n      swap7\n      swap6\n      pop\n      pop\n      pop\n      pop\n      pop\n      pop\n      jump\t// out\n        /* \"#utility.yul\":29398:29518   */\n    tag_452:\n        /* \"#utility.yul\":29470:29493   */\n      tag_777\n        /* \"#utility.yul\":29487:29492   */\n      dup2\n        /* \"#utility.yul\":29470:29493   */\n      tag_404\n      jump\t// in\n    tag_777:\n        /* \"#utility.yul\":29463:29468   */\n      dup2\n        /* \"#utility.yul\":29460:29494   */\n      eq\n        /* \"#utility.yul\":29450:29512   */\n      tag_778\n      jumpi\n        /* \"#utility.yul\":29508:29509   */\n      0x00\n        /* \"#utility.yul\":29505:29506   */\n      dup1\n        /* \"#utility.yul\":29498:29510   */\n      revert\n        /* \"#utility.yul\":29450:29512   */\n    tag_778:\n        /* \"#utility.yul\":29398:29518   */\n      pop\n      jump\t// out\n        /* \"#utility.yul\":29524:29665   */\n    tag_453:\n        /* \"#utility.yul\":29580:29585   */\n      0x00\n        /* \"#utility.yul\":29611:29617   */\n      dup2\n        /* \"#utility.yul\":29605:29618   */\n      mload\n        /* \"#utility.yul\":29596:29618   */\n      swap1\n      pop\n        /* \"#utility.yul\":29627:29659   */\n      tag_780\n        /* \"#utility.yul\":29653:29658   */\n      dup2\n        /* \"#utility.yul\":29627:29659   */\n      tag_452\n      jump\t// in\n    tag_780:\n        /* \"#utility.yul\":29524:29665   */\n      swap3\n      swap2\n      pop\n      pop\n      jump\t// out\n        /* \"#utility.yul\":29671:30176   */\n    tag_209:\n        /* \"#utility.yul\":29749:29755   */\n      0x00\n        /* \"#utility.yul\":29757:29763   */\n      dup1\n        /* \"#utility.yul\":29806:29808   */\n      0x40\n        /* \"#utility.yul\":29794:29803   */\n      dup4\n        /* \"#utility.yul\":29785:29792   */\n      dup6\n        /* \"#utility.yul\":29781:29804   */\n      sub\n        /* \"#utility.yul\":29777:29809   */\n      slt\n        /* \"#utility.yul\":29774:29893   */\n      iszero\n      tag_782\n      jumpi\n        /* \"#utility.yul\":29812:29891   */\n      tag_783\n      tag_385\n      jump\t// in\n    tag_783:\n        /* \"#utility.yul\":29774:29893   */\n    tag_782:\n        /* \"#utility.yul\":29932:29933   */\n      0x00\n        /* \"#utility.yul\":29957:30021   */\n      tag_784\n        /* \"#utility.yul\":30013:30020   */\n      dup6\n        /* \"#utility.yul\":30004:30010   */\n      dup3\n        /* \"#utility.yul\":29993:30002   */\n      dup7\n        /* \"#utility.yul\":29989:30011   */\n      add\n        /* \"#utility.yul\":29957:30021   */\n      tag_418\n      jump\t// in\n    tag_784:\n        /* \"#utility.yul\":29947:30021   */\n      swap3\n      pop\n        /* \"#utility.yul\":29903:30031   */\n      pop\n        /* \"#utility.yul\":30070:30072   */\n      0x20\n        /* \"#utility.yul\":30096:30159   */\n      tag_785\n        /* \"#utility.yul\":30151:30158   */\n      dup6\n        /* \"#utility.yul\":30142:30148   */\n      dup3\n        /* \"#utility.yul\":30131:30140   */\n      dup7\n        /* \"#utility.yul\":30127:30149   */\n      add\n        /* \"#utility.yul\":30096:30159   */\n      tag_453\n      jump\t// in\n    tag_785:\n        /* \"#utility.yul\":30086:30159   */\n      swap2\n      pop\n        /* \"#utility.yul\":30041:30169   */\n      pop\n        /* \"#utility.yul\":29671:30176   */\n      swap3\n      pop\n      swap3\n      swap1\n      pop\n      jump\t// out\n        /* \"#utility.yul\":30182:30362   */\n    tag_213:\n        /* \"#utility.yul\":30230:30307   */\n      0x4e487b7100000000000000000000000000000000000000000000000000000000\n        /* \"#utility.yul\":30227:30228   */\n      0x00\n        /* \"#utility.yul\":30220:30308   */\n      mstore\n        /* \"#utility.yul\":30327:30331   */\n      0x41\n        /* \"#utility.yul\":30324:30325   */\n      0x04\n        /* \"#utility.yul\":30317:30332   */\n      mstore\n        /* \"#utility.yul\":30351:30355   */\n      0x24\n        /* \"#utility.yul\":30348:30349   */\n      0x00\n        /* \"#utility.yul\":30341:30356   */\n      revert\n        /* \"#utility.yul\":30368:30548   */\n    tag_221:\n        /* \"#utility.yul\":30416:30493   */\n      0x4e487b7100000000000000000000000000000000000000000000000000000000\n        /* \"#utility.yul\":30413:30414   */\n      0x00\n        /* \"#utility.yul\":30406:30494   */\n      mstore\n        /* \"#utility.yul\":30513:30517   */\n      0x32\n        /* \"#utility.yul\":30510:30511   */\n      0x04\n        /* \"#utility.yul\":30503:30518   */\n      mstore\n        /* \"#utility.yul\":30537:30541   */\n      0x24\n        /* \"#utility.yul\":30534:30535   */\n      0x00\n        /* \"#utility.yul\":30527:30542   */\n      revert\n        /* \"#utility.yul\":30554:30671   */\n    tag_454:\n        /* \"#utility.yul\":30663:30664   */\n      0x00\n        /* \"#utility.yul\":30660:30661   */\n      dup1\n        /* \"#utility.yul\":30653:30665   */\n      revert\n        /* \"#utility.yul\":30677:30958   */\n    tag_455:\n        /* \"#utility.yul\":30760:30787   */\n      tag_790\n        /* \"#utility.yul\":30782:30786   */\n      dup3\n        /* \"#utility.yul\":30760:30787   */\n      tag_413\n      jump\t// in\n    tag_790:\n        /* \"#utility.yul\":30752:30758   */\n      dup2\n        /* \"#utility.yul\":30748:30788   */\n      add\n        /* \"#utility.yul\":30890:30896   */\n      dup2\n        /* \"#utility.yul\":30878:30888   */\n      dup2\n        /* \"#utility.yul\":30875:30897   */\n      lt\n        /* \"#utility.yul\":30854:30872   */\n      0xffffffffffffffff\n        /* \"#utility.yul\":30842:30852   */\n      dup3\n        /* \"#utility.yul\":30839:30873   */\n      gt\n        /* \"#utility.yul\":30836:30898   */\n      or\n        /* \"#utility.yul\":30833:30921   */\n      iszero\n      tag_791\n      jumpi\n        /* \"#utility.yul\":30901:30919   */\n      tag_792\n      tag_213\n      jump\t// in\n    tag_792:\n        /* \"#utility.yul\":30833:30921   */\n    tag_791:\n        /* \"#utility.yul\":30941:30951   */\n      dup1\n        /* \"#utility.yul\":30937:30939   */\n      0x40\n        /* \"#utility.yul\":30930:30952   */\n      mstore\n        /* \"#utility.yul\":30720:30958   */\n      pop\n        /* \"#utility.yul\":30677:30958   */\n      pop\n      pop\n      jump\t// out\n        /* \"#utility.yul\":30964:31093   */\n    tag_456:\n        /* \"#utility.yul\":30998:31004   */\n      0x00\n        /* \"#utility.yul\":31025:31045   */\n      tag_794\n      tag_384\n      jump\t// in\n    tag_794:\n        /* \"#utility.yul\":31015:31045   */\n      swap1\n      pop\n        /* \"#utility.yul\":31054:31087   */\n      tag_795\n        /* \"#utility.yul\":31082:31086   */\n      dup3\n        /* \"#utility.yul\":31074:31080   */\n      dup3\n        /* \"#utility.yul\":31054:31087   */\n      tag_455\n      jump\t// in\n    tag_795:\n        /* \"#utility.yul\":30964:31093   */\n      swap2\n      swap1\n      pop\n      jump\t// out\n        /* \"#utility.yul\":31099:31407   */\n    tag_457:\n        /* \"#utility.yul\":31161:31165   */\n      0x00\n        /* \"#utility.yul\":31251:31269   */\n      0xffffffffffffffff\n        /* \"#utility.yul\":31243:31249   */\n      dup3\n        /* \"#utility.yul\":31240:31270   */\n      gt\n        /* \"#utility.yul\":31237:31293   */\n      iszero\n      tag_797\n      jumpi\n        /* \"#utility.yul\":31273:31291   */\n      tag_798\n      tag_213\n      jump\t// in\n    tag_798:\n        /* \"#utility.yul\":31237:31293   */\n    tag_797:\n        /* \"#utility.yul\":31311:31340   */\n      tag_799\n        /* \"#utility.yul\":31333:31339   */\n      dup3\n        /* \"#utility.yul\":31311:31340   */\n      tag_413\n      jump\t// in\n    tag_799:\n        /* \"#utility.yul\":31303:31340   */\n      swap1\n      pop\n        /* \"#utility.yul\":31395:31399   */\n      0x20\n        /* \"#utility.yul\":31389:31393   */\n      dup2\n        /* \"#utility.yul\":31385:31400   */\n      add\n        /* \"#utility.yul\":31377:31400   */\n      swap1\n      pop\n        /* \"#utility.yul\":31099:31407   */\n      swap2\n      swap1\n      pop\n      jump\t// out\n        /* \"#utility.yul\":31413:31847   */\n    tag_458:\n        /* \"#utility.yul\":31502:31507   */\n      0x00\n        /* \"#utility.yul\":31527:31593   */\n      tag_801\n        /* \"#utility.yul\":31543:31592   */\n      tag_802\n        /* \"#utility.yul\":31585:31591   */\n      dup5\n        /* \"#utility.yul\":31543:31592   */\n      tag_457\n      jump\t// in\n    tag_802:\n        /* \"#utility.yul\":31527:31593   */\n      tag_456\n      jump\t// in\n    tag_801:\n        /* \"#utility.yul\":31518:31593   */\n      swap1\n      pop\n        /* \"#utility.yul\":31616:31622   */\n      dup3\n        /* \"#utility.yul\":31609:31614   */\n      dup2\n        /* \"#utility.yul\":31602:31623   */\n      mstore\n        /* \"#utility.yul\":31654:31658   */\n      0x20\n        /* \"#utility.yul\":31647:31652   */\n      dup2\n        /* \"#utility.yul\":31643:31659   */\n      add\n        /* \"#utility.yul\":31692:31695   */\n      dup5\n        /* \"#utility.yul\":31683:31689   */\n      dup5\n        /* \"#utility.yul\":31678:31681   */\n      dup5\n        /* \"#utility.yul\":31674:31690   */\n      add\n        /* \"#utility.yul\":31671:31696   */\n      gt\n        /* \"#utility.yul\":31668:31780   */\n      iszero\n      tag_803\n      jumpi\n        /* \"#utility.yul\":31699:31778   */\n      tag_804\n      tag_454\n      jump\t// in\n    tag_804:\n        /* \"#utility.yul\":31668:31780   */\n    tag_803:\n        /* \"#utility.yul\":31789:31841   */\n      tag_805\n        /* \"#utility.yul\":31834:31840   */\n      dup5\n        /* \"#utility.yul\":31829:31832   */\n      dup3\n        /* \"#utility.yul\":31824:31827   */\n      dup6\n        /* \"#utility.yul\":31789:31841   */\n      tag_412\n      jump\t// in\n    tag_805:\n        /* \"#utility.yul\":31508:31847   */\n      pop\n        /* \"#utility.yul\":31413:31847   */\n      swap4\n      swap3\n      pop\n      pop\n      pop\n      jump\t// out\n        /* \"#utility.yul\":31867:32222   */\n    tag_459:\n        /* \"#utility.yul\":31934:31939   */\n      0x00\n        /* \"#utility.yul\":31983:31986   */\n      dup3\n        /* \"#utility.yul\":31976:31980   */\n      0x1f\n        /* \"#utility.yul\":31968:31974   */\n      dup4\n        /* \"#utility.yul\":31964:31981   */\n      add\n        /* \"#utility.yul\":31960:31987   */\n      slt\n        /* \"#utility.yul\":31950:32072   */\n      tag_807\n      jumpi\n        /* \"#utility.yul\":31991:32070   */\n      tag_808\n      tag_393\n      jump\t// in\n    tag_808:\n        /* \"#utility.yul\":31950:32072   */\n    tag_807:\n        /* \"#utility.yul\":32101:32107   */\n      dup2\n        /* \"#utility.yul\":32095:32108   */\n      mload\n        /* \"#utility.yul\":32126:32216   */\n      tag_809\n        /* \"#utility.yul\":32212:32215   */\n      dup5\n        /* \"#utility.yul\":32204:32210   */\n      dup3\n        /* \"#utility.yul\":32197:32201   */\n      0x20\n        /* \"#utility.yul\":32189:32195   */\n      dup7\n        /* \"#utility.yul\":32185:32202   */\n      add\n        /* \"#utility.yul\":32126:32216   */\n      tag_458\n      jump\t// in\n    tag_809:\n        /* \"#utility.yul\":32117:32216   */\n      swap2\n      pop\n        /* \"#utility.yul\":31940:32222   */\n      pop\n        /* \"#utility.yul\":31867:32222   */\n      swap3\n      swap2\n      pop\n      pop\n      jump\t// out\n        /* \"#utility.yul\":32228:32752   */\n    tag_230:\n        /* \"#utility.yul\":32308:32314   */\n      0x00\n        /* \"#utility.yul\":32357:32359   */\n      0x20\n        /* \"#utility.yul\":32345:32354   */\n      dup3\n        /* \"#utility.yul\":32336:32343   */\n      dup5\n        /* \"#utility.yul\":32332:32355   */\n      sub\n        /* \"#utility.yul\":32328:32360   */\n      slt\n        /* \"#utility.yul\":32325:32444   */\n      iszero\n      tag_811\n      jumpi\n        /* \"#utility.yul\":32363:32442   */\n      tag_812\n      tag_385\n      jump\t// in\n    tag_812:\n        /* \"#utility.yul\":32325:32444   */\n    tag_811:\n        /* \"#utility.yul\":32504:32505   */\n      0x00\n        /* \"#utility.yul\":32493:32502   */\n      dup3\n        /* \"#utility.yul\":32489:32506   */\n      add\n        /* \"#utility.yul\":32483:32507   */\n      mload\n        /* \"#utility.yul\":32534:32552   */\n      0xffffffffffffffff\n        /* \"#utility.yul\":32526:32532   */\n      dup2\n        /* \"#utility.yul\":32523:32553   */\n      gt\n        /* \"#utility.yul\":32520:32637   */\n      iszero\n      tag_813\n      jumpi\n        /* \"#utility.yul\":32556:32635   */\n      tag_814\n      tag_386\n      jump\t// in\n    tag_814:\n        /* \"#utility.yul\":32520:32637   */\n    tag_813:\n        /* \"#utility.yul\":32661:32735   */\n      tag_815\n        /* \"#utility.yul\":32727:32734   */\n      dup5\n        /* \"#utility.yul\":32718:32724   */\n      dup3\n        /* \"#utility.yul\":32707:32716   */\n      dup6\n        /* \"#utility.yul\":32703:32725   */\n      add\n        /* \"#utility.yul\":32661:32735   */\n      tag_459\n      jump\t// in\n    tag_815:\n        /* \"#utility.yul\":32651:32735   */\n      swap2\n      pop\n        /* \"#utility.yul\":32454:32745   */\n      pop\n        /* \"#utility.yul\":32228:32752   */\n      swap3\n      swap2\n      pop\n      pop\n      jump\t// out\n        /* \"#utility.yul\":32758:32857   */\n    tag_460:\n        /* \"#utility.yul\":32810:32816   */\n      0x00\n        /* \"#utility.yul\":32844:32849   */\n      dup2\n        /* \"#utility.yul\":32838:32850   */\n      mload\n        /* \"#utility.yul\":32828:32850   */\n      swap1\n      pop\n        /* \"#utility.yul\":32758:32857   */\n      swap2\n      swap1\n      pop\n      jump\t// out\n        /* \"#utility.yul\":32863:33240   */\n    tag_461:\n        /* \"#utility.yul\":32951:32954   */\n      0x00\n        /* \"#utility.yul\":32979:33018   */\n      tag_818\n        /* \"#utility.yul\":33012:33017   */\n      dup3\n        /* \"#utility.yul\":32979:33018   */\n      tag_460\n      jump\t// in\n    tag_818:\n        /* \"#utility.yul\":33034:33105   */\n      tag_819\n        /* \"#utility.yul\":33098:33104   */\n      dup2\n        /* \"#utility.yul\":33093:33096   */\n      dup6\n        /* \"#utility.yul\":33034:33105   */\n      tag_422\n      jump\t// in\n    tag_819:\n        /* \"#utility.yul\":33027:33105   */\n      swap4\n      pop\n        /* \"#utility.yul\":33114:33179   */\n      tag_820\n        /* \"#utility.yul\":33172:33178   */\n      dup2\n        /* \"#utility.yul\":33167:33170   */\n      dup6\n        /* \"#utility.yul\":33160:33164   */\n      0x20\n        /* \"#utility.yul\":33153:33158   */\n      dup7\n        /* \"#utility.yul\":33149:33165   */\n      add\n        /* \"#utility.yul\":33114:33179   */\n      tag_412\n      jump\t// in\n    tag_820:\n        /* \"#utility.yul\":33204:33233   */\n      tag_821\n        /* \"#utility.yul\":33226:33232   */\n      dup2\n        /* \"#utility.yul\":33204:33233   */\n      tag_413\n      jump\t// in\n    tag_821:\n        /* \"#utility.yul\":33199:33202   */\n      dup5\n        /* \"#utility.yul\":33195:33234   */\n      add\n        /* \"#utility.yul\":33188:33234   */\n      swap2\n      pop\n        /* \"#utility.yul\":32955:33240   */\n      pop\n        /* \"#utility.yul\":32863:33240   */\n      swap3\n      swap2\n      pop\n      pop\n      jump\t// out\n        /* \"#utility.yul\":33246:33559   */\n    tag_232:\n        /* \"#utility.yul\":33359:33363   */\n      0x00\n        /* \"#utility.yul\":33397:33399   */\n      0x20\n        /* \"#utility.yul\":33386:33395   */\n      dup3\n        /* \"#utility.yul\":33382:33400   */\n      add\n        /* \"#utility.yul\":33374:33400   */\n      swap1\n      pop\n        /* \"#utility.yul\":33446:33455   */\n      dup2\n        /* \"#utility.yul\":33440:33444   */\n      dup2\n        /* \"#utility.yul\":33436:33456   */\n      sub\n        /* \"#utility.yul\":33432:33433   */\n      0x00\n        /* \"#utility.yul\":33421:33430   */\n      dup4\n        /* \"#utility.yul\":33417:33434   */\n      add\n        /* \"#utility.yul\":33410:33457   */\n      mstore\n        /* \"#utility.yul\":33474:33552   */\n      tag_823\n        /* \"#utility.yul\":33547:33551   */\n      dup2\n        /* \"#utility.yul\":33538:33544   */\n      dup5\n        /* \"#utility.yul\":33474:33552   */\n      tag_461\n      jump\t// in\n    tag_823:\n        /* \"#utility.yul\":33466:33552   */\n      swap1\n      pop\n        /* \"#utility.yul\":33246:33559   */\n      swap3\n      swap2\n      pop\n      pop\n      jump\t// out\n        /* \"#utility.yul\":33565:33798   */\n    tag_236:\n        /* \"#utility.yul\":33604:33607   */\n      0x00\n        /* \"#utility.yul\":33627:33651   */\n      tag_825\n        /* \"#utility.yul\":33645:33650   */\n      dup3\n        /* \"#utility.yul\":33627:33651   */\n      tag_382\n      jump\t// in\n    tag_825:\n        /* \"#utility.yul\":33618:33651   */\n      swap2\n      pop\n        /* \"#utility.yul\":33673:33739   */\n      0xffffffffffffffffffffffffffffffffffffffffffffffffffffffffffffffff\n        /* \"#utility.yul\":33666:33671   */\n      dup3\n        /* \"#utility.yul\":33663:33740   */\n      sub\n        /* \"#utility.yul\":33660:33763   */\n      tag_826\n      jumpi\n        /* \"#utility.yul\":33743:33761   */\n      tag_827\n      tag_447\n      jump\t// in\n    tag_827:\n        /* \"#utility.yul\":33660:33763   */\n    tag_826:\n        /* \"#utility.yul\":33790:33791   */\n      0x01\n        /* \"#utility.yul\":33783:33788   */\n      dup3\n        /* \"#utility.yul\":33779:33792   */\n      add\n        /* \"#utility.yul\":33772:33792   */\n      swap1\n      pop\n        /* \"#utility.yul\":33565:33798   */\n      swap2\n      swap1\n      pop\n      jump\t// out\n        /* \"#utility.yul\":33804:34029   */\n    tag_462:\n        /* \"#utility.yul\":33944:33978   */\n      0x4f776e61626c653a206e6577206f776e657220697320746865207a65726f2061\n        /* \"#utility.yul\":33940:33941   */\n      0x00\n        /* \"#utility.yul\":33932:33938   */\n      dup3\n        /* \"#utility.yul\":33928:33942   */\n      add\n        /* \"#utility.yul\":33921:33979   */\n      mstore\n        /* \"#utility.yul\":34013:34021   */\n      0x6464726573730000000000000000000000000000000000000000000000000000\n        /* \"#utility.yul\":34008:34010   */\n      0x20\n        /* \"#utility.yul\":34000:34006   */\n      dup3\n        /* \"#utility.yul\":33996:34011   */\n      add\n        /* \"#utility.yul\":33989:34022   */\n      mstore\n        /* \"#utility.yul\":33804:34029   */\n      pop\n      jump\t// out\n        /* \"#utility.yul\":34035:34401   */\n    tag_463:\n        /* \"#utility.yul\":34177:34180   */\n      0x00\n        /* \"#utility.yul\":34198:34265   */\n      tag_830\n        /* \"#utility.yul\":34262:34264   */\n      0x26\n        /* \"#utility.yul\":34257:34260   */\n      dup4\n        /* \"#utility.yul\":34198:34265   */\n      tag_422\n      jump\t// in\n    tag_830:\n        /* \"#utility.yul\":34191:34265   */\n      swap2\n      pop\n        /* \"#utility.yul\":34274:34367   */\n      tag_831\n        /* \"#utility.yul\":34363:34366   */\n      dup3\n        /* \"#utility.yul\":34274:34367   */\n      tag_462\n      jump\t// in\n    tag_831:\n        /* \"#utility.yul\":34392:34394   */\n      0x40\n        /* \"#utility.yul\":34387:34390   */\n      dup3\n        /* \"#utility.yul\":34383:34395   */\n      add\n        /* \"#utility.yul\":34376:34395   */\n      swap1\n      pop\n        /* \"#utility.yul\":34035:34401   */\n      swap2\n      swap1\n      pop\n      jump\t// out\n        /* \"#utility.yul\":34407:34826   */\n    tag_245:\n        /* \"#utility.yul\":34573:34577   */\n      0x00\n        /* \"#utility.yul\":34611:34613   */\n      0x20\n        /* \"#utility.yul\":34600:34609   */\n      dup3\n        /* \"#utility.yul\":34596:34614   */\n      add\n        /* \"#utility.yul\":34588:34614   */\n      swap1\n      pop\n        /* \"#utility.yul\":34660:34669   */\n      dup2\n        /* \"#utility.yul\":34654:34658   */\n      dup2\n        /* \"#utility.yul\":34650:34670   */\n      sub\n        /* \"#utility.yul\":34646:34647   */\n      0x00\n        /* \"#utility.yul\":34635:34644   */\n      dup4\n        /* \"#utility.yul\":34631:34648   */\n      add\n        /* \"#utility.yul\":34624:34671   */\n      mstore\n        /* \"#utility.yul\":34688:34819   */\n      tag_833\n        /* \"#utility.yul\":34814:34818   */\n      dup2\n        /* \"#utility.yul\":34688:34819   */\n      tag_463\n      jump\t// in\n    tag_833:\n        /* \"#utility.yul\":34680:34819   */\n      swap1\n      pop\n        /* \"#utility.yul\":34407:34826   */\n      swap2\n      swap1\n      pop\n      jump\t// out\n        /* \"#utility.yul\":34832:34995   */\n    tag_464:\n        /* \"#utility.yul\":34972:34987   */\n      0x646174612074616d706572656400000000000000000000000000000000000000\n        /* \"#utility.yul\":34968:34969   */\n      0x00\n        /* \"#utility.yul\":34960:34966   */\n      dup3\n        /* \"#utility.yul\":34956:34970   */\n      add\n        /* \"#utility.yul\":34949:34988   */\n      mstore\n        /* \"#utility.yul\":34832:34995   */\n      pop\n      jump\t// out\n        /* \"#utility.yul\":35001:35367   */\n    tag_465:\n        /* \"#utility.yul\":35143:35146   */\n      0x00\n        /* \"#utility.yul\":35164:35231   */\n      tag_836\n        /* \"#utility.yul\":35228:35230   */\n      0x0d\n        /* \"#utility.yul\":35223:35226   */\n      dup4\n        /* \"#utility.yul\":35164:35231   */\n      tag_422\n      jump\t// in\n    tag_836:\n        /* \"#utility.yul\":35157:35231   */\n      swap2\n      pop\n        /* \"#utility.yul\":35240:35333   */\n      tag_837\n        /* \"#utility.yul\":35329:35332   */\n      dup3\n        /* \"#utility.yul\":35240:35333   */\n      tag_464\n      jump\t// in\n    tag_837:\n        /* \"#utility.yul\":35358:35360   */\n      0x20\n        /* \"#utility.yul\":35353:35356   */\n      dup3\n        /* \"#utility.yul\":35349:35361   */\n      add\n        /* \"#utility.yul\":35342:35361   */\n      swap1\n      pop\n        /* \"#utility.yul\":35001:35367   */\n      swap2\n      swap1\n      pop\n      jump\t// out\n        /* \"#utility.yul\":35373:35792   */\n    tag_261:\n        /* \"#utility.yul\":35539:35543   */\n      0x00\n        /* \"#utility.yul\":35577:35579   */\n      0x20\n        /* \"#utility.yul\":35566:35575   */\n      dup3\n        /* \"#utility.yul\":35562:35580   */\n      add\n        /* \"#utility.yul\":35554:35580   */\n      swap1\n      pop\n        /* \"#utility.yul\":35626:35635   */\n      dup2\n        /* \"#utility.yul\":35620:35624   */\n      dup2\n        /* \"#utility.yul\":35616:35636   */\n      sub\n        /* \"#utility.yul\":35612:35613   */\n      0x00\n        /* \"#utility.yul\":35601:35610   */\n      dup4\n        /* \"#utility.yul\":35597:35614   */\n      add\n        /* \"#utility.yul\":35590:35637   */\n      mstore\n        /* \"#utility.yul\":35654:35785   */\n      tag_839\n        /* \"#utility.yul\":35780:35784   */\n      dup2\n        /* \"#utility.yul\":35654:35785   */\n      tag_465\n      jump\t// in\n    tag_839:\n        /* \"#utility.yul\":35646:35785   */\n      swap1\n      pop\n        /* \"#utility.yul\":35373:35792   */\n      swap2\n      swap1\n      pop\n      jump\t// out\n        /* \"#utility.yul\":35798:36240   */\n    tag_264:\n        /* \"#utility.yul\":35947:35951   */\n      0x00\n        /* \"#utility.yul\":35985:35987   */\n      0x60\n        /* \"#utility.yul\":35974:35983   */\n      dup3\n        /* \"#utility.yul\":35970:35988   */\n      add\n        /* \"#utility.yul\":35962:35988   */\n      swap1\n      pop\n        /* \"#utility.yul\":35998:36069   */\n      tag_841\n        /* \"#utility.yul\":36066:36067   */\n      0x00\n        /* \"#utility.yul\":36055:36064   */\n      dup4\n        /* \"#utility.yul\":36051:36068   */\n      add\n        /* \"#utility.yul\":36042:36048   */\n      dup7\n        /* \"#utility.yul\":35998:36069   */\n      tag_400\n      jump\t// in\n    tag_841:\n        /* \"#utility.yul\":36079:36151   */\n      tag_842\n        /* \"#utility.yul\":36147:36149   */\n      0x20\n        /* \"#utility.yul\":36136:36145   */\n      dup4\n        /* \"#utility.yul\":36132:36150   */\n      add\n        /* \"#utility.yul\":36123:36129   */\n      dup6\n        /* \"#utility.yul\":36079:36151   */\n      tag_400\n      jump\t// in\n    tag_842:\n        /* \"#utility.yul\":36161:36233   */\n      tag_843\n        /* \"#utility.yul\":36229:36231   */\n      0x40\n        /* \"#utility.yul\":36218:36227   */\n      dup4\n        /* \"#utility.yul\":36214:36232   */\n      add\n        /* \"#utility.yul\":36205:36211   */\n      dup5\n        /* \"#utility.yul\":36161:36233   */\n      tag_383\n      jump\t// in\n    tag_843:\n        /* \"#utility.yul\":35798:36240   */\n      swap5\n      swap4\n      pop\n      pop\n      pop\n      pop\n      jump\t// out\n        /* \"#utility.yul\":36246:36632   */\n    tag_466:\n        /* \"#utility.yul\":36350:36353   */\n      0x00\n        /* \"#utility.yul\":36378:36416   */\n      tag_845\n        /* \"#utility.yul\":36410:36415   */\n      dup3\n        /* \"#utility.yul\":36378:36416   */\n      tag_410\n      jump\t// in\n    tag_845:\n        /* \"#utility.yul\":36432:36520   */\n      tag_846\n        /* \"#utility.yul\":36513:36519   */\n      dup2\n        /* \"#utility.yul\":36508:36511   */\n      dup6\n        /* \"#utility.yul\":36432:36520   */\n      tag_419\n      jump\t// in\n    tag_846:\n        /* \"#utility.yul\":36425:36520   */\n      swap4\n      pop\n        /* \"#utility.yul\":36529:36594   */\n      tag_847\n        /* \"#utility.yul\":36587:36593   */\n      dup2\n        /* \"#utility.yul\":36582:36585   */\n      dup6\n        /* \"#utility.yul\":36575:36579   */\n      0x20\n        /* \"#utility.yul\":36568:36573   */\n      dup7\n        /* \"#utility.yul\":36564:36580   */\n      add\n        /* \"#utility.yul\":36529:36594   */\n      tag_412\n      jump\t// in\n    tag_847:\n        /* \"#utility.yul\":36619:36625   */\n      dup1\n        /* \"#utility.yul\":36614:36617   */\n      dup5\n        /* \"#utility.yul\":36610:36626   */\n      add\n        /* \"#utility.yul\":36603:36626   */\n      swap2\n      pop\n        /* \"#utility.yul\":36354:36632   */\n      pop\n        /* \"#utility.yul\":36246:36632   */\n      swap3\n      swap2\n      pop\n      pop\n      jump\t// out\n        /* \"#utility.yul\":36638:36909   */\n    tag_266:\n        /* \"#utility.yul\":36768:36771   */\n      0x00\n        /* \"#utility.yul\":36790:36883   */\n      tag_849\n        /* \"#utility.yul\":36879:36882   */\n      dup3\n        /* \"#utility.yul\":36870:36876   */\n      dup5\n        /* \"#utility.yul\":36790:36883   */\n      tag_466\n      jump\t// in\n    tag_849:\n        /* \"#utility.yul\":36783:36883   */\n      swap2\n      pop\n        /* \"#utility.yul\":36900:36903   */\n      dup2\n        /* \"#utility.yul\":36893:36903   */\n      swap1\n      pop\n        /* \"#utility.yul\":36638:36909   */\n      swap3\n      swap2\n      pop\n      pop\n      jump\t// out\n        /* \"#utility.yul\":36915:37052   */\n    tag_467:\n        /* \"#utility.yul\":36969:36974   */\n      0x00\n        /* \"#utility.yul\":37000:37006   */\n      dup2\n        /* \"#utility.yul\":36994:37007   */\n      mload\n        /* \"#utility.yul\":36985:37007   */\n      swap1\n      pop\n        /* \"#utility.yul\":37016:37046   */\n      tag_851\n        /* \"#utility.yul\":37040:37045   */\n      dup2\n        /* \"#utility.yul\":37016:37046   */\n      tag_432\n      jump\t// in\n    tag_851:\n        /* \"#utility.yul\":36915:37052   */\n      swap3\n      swap2\n      pop\n      pop\n      jump\t// out\n        /* \"#utility.yul\":37058:37403   */\n    tag_273:\n        /* \"#utility.yul\":37125:37131   */\n      0x00\n        /* \"#utility.yul\":37174:37176   */\n      0x20\n        /* \"#utility.yul\":37162:37171   */\n      dup3\n        /* \"#utility.yul\":37153:37160   */\n      dup5\n        /* \"#utility.yul\":37149:37172   */\n      sub\n        /* \"#utility.yul\":37145:37177   */\n      slt\n        /* \"#utility.yul\":37142:37261   */\n      iszero\n      tag_853\n      jumpi\n        /* \"#utility.yul\":37180:37259   */\n      tag_854\n      tag_385\n      jump\t// in\n    tag_854:\n        /* \"#utility.yul\":37142:37261   */\n    tag_853:\n        /* \"#utility.yul\":37300:37301   */\n      0x00\n        /* \"#utility.yul\":37325:37386   */\n      tag_855\n        /* \"#utility.yul\":37378:37385   */\n      dup5\n        /* \"#utility.yul\":37369:37375   */\n      dup3\n        /* \"#utility.yul\":37358:37367   */\n      dup6\n        /* \"#utility.yul\":37354:37376   */\n      add\n        /* \"#utility.yul\":37325:37386   */\n      tag_467\n      jump\t// in\n    tag_855:\n        /* \"#utility.yul\":37315:37386   */\n      swap2\n      pop\n        /* \"#utility.yul\":37271:37396   */\n      pop\n        /* \"#utility.yul\":37058:37403   */\n      swap3\n      swap2\n      pop\n      pop\n      jump\t// out\n        /* \"#utility.yul\":37409:37590   */\n    tag_468:\n        /* \"#utility.yul\":37549:37582   */\n      0x5472616e7366657248656c7065723a736166655472616e7366657246726f6d00\n        /* \"#utility.yul\":37545:37546   */\n      0x00\n        /* \"#utility.yul\":37537:37543   */\n      dup3\n        /* \"#utility.yul\":37533:37547   */\n      add\n        /* \"#utility.yul\":37526:37583   */\n      mstore\n        /* \"#utility.yul\":37409:37590   */\n      pop\n      jump\t// out\n        /* \"#utility.yul\":37596:37962   */\n    tag_469:\n        /* \"#utility.yul\":37738:37741   */\n      0x00\n        /* \"#utility.yul\":37759:37826   */\n      tag_858\n        /* \"#utility.yul\":37823:37825   */\n      0x1f\n        /* \"#utility.yul\":37818:37821   */\n      dup4\n        /* \"#utility.yul\":37759:37826   */\n      tag_422\n      jump\t// in\n    tag_858:\n        /* \"#utility.yul\":37752:37826   */\n      swap2\n      pop\n        /* \"#utility.yul\":37835:37928   */\n      tag_859\n        /* \"#utility.yul\":37924:37927   */\n      dup3\n        /* \"#utility.yul\":37835:37928   */\n      tag_468\n      jump\t// in\n    tag_859:\n        /* \"#utility.yul\":37953:37955   */\n      0x20\n        /* \"#utility.yul\":37948:37951   */\n      dup3\n        /* \"#utility.yul\":37944:37956   */\n      add\n        /* \"#utility.yul\":37937:37956   */\n      swap1\n      pop\n        /* \"#utility.yul\":37596:37962   */\n      swap2\n      swap1\n      pop\n      jump\t// out\n        /* \"#utility.yul\":37968:38387   */\n    tag_276:\n        /* \"#utility.yul\":38134:38138   */\n      0x00\n        /* \"#utility.yul\":38172:38174   */\n      0x20\n        /* \"#utility.yul\":38161:38170   */\n      dup3\n        /* \"#utility.yul\":38157:38175   */\n      add\n        /* \"#utility.yul\":38149:38175   */\n      swap1\n      pop\n        /* \"#utility.yul\":38221:38230   */\n      dup2\n        /* \"#utility.yul\":38215:38219   */\n      dup2\n        /* \"#utility.yul\":38211:38231   */\n      sub\n        /* \"#utility.yul\":38207:38208   */\n      0x00\n        /* \"#utility.yul\":38196:38205   */\n      dup4\n        /* \"#utility.yul\":38192:38209   */\n      add\n        /* \"#utility.yul\":38185:38232   */\n      mstore\n        /* \"#utility.yul\":38249:38380   */\n      tag_861\n        /* \"#utility.yul\":38375:38379   */\n      dup2\n        /* \"#utility.yul\":38249:38380   */\n      tag_469\n      jump\t// in\n    tag_861:\n        /* \"#utility.yul\":38241:38380   */\n      swap1\n      pop\n        /* \"#utility.yul\":37968:38387   */\n      swap2\n      swap1\n      pop\n      jump\t// out\n        /* \"#utility.yul\":38393:38725   */\n    tag_279:\n        /* \"#utility.yul\":38514:38518   */\n      0x00\n        /* \"#utility.yul\":38552:38554   */\n      0x40\n        /* \"#utility.yul\":38541:38550   */\n      dup3\n        /* \"#utility.yul\":38537:38555   */\n      add\n        /* \"#utility.yul\":38529:38555   */\n      swap1\n      pop\n        /* \"#utility.yul\":38565:38636   */\n      tag_863\n        /* \"#utility.yul\":38633:38634   */\n      0x00\n        /* \"#utility.yul\":38622:38631   */\n      dup4\n        /* \"#utility.yul\":38618:38635   */\n      add\n        /* \"#utility.yul\":38609:38615   */\n      dup6\n        /* \"#utility.yul\":38565:38636   */\n      tag_400\n      jump\t// in\n    tag_863:\n        /* \"#utility.yul\":38646:38718   */\n      tag_864\n        /* \"#utility.yul\":38714:38716   */\n      0x20\n        /* \"#utility.yul\":38703:38712   */\n      dup4\n        /* \"#utility.yul\":38699:38717   */\n      add\n        /* \"#utility.yul\":38690:38696   */\n      dup5\n        /* \"#utility.yul\":38646:38718   */\n      tag_383\n      jump\t// in\n    tag_864:\n        /* \"#utility.yul\":38393:38725   */\n      swap4\n      swap3\n      pop\n      pop\n      pop\n      jump\t// out\n        /* \"#utility.yul\":38731:38908   */\n    tag_470:\n        /* \"#utility.yul\":38871:38900   */\n      0x5472616e7366657248656c7065723a736166655472616e736665720000000000\n        /* \"#utility.yul\":38867:38868   */\n      0x00\n        /* \"#utility.yul\":38859:38865   */\n      dup3\n        /* \"#utility.yul\":38855:38869   */\n      add\n        /* \"#utility.yul\":38848:38901   */\n      mstore\n        /* \"#utility.yul\":38731:38908   */\n      pop\n      jump\t// out\n        /* \"#utility.yul\":38914:39280   */\n    tag_471:\n        /* \"#utility.yul\":39056:39059   */\n      0x00\n        /* \"#utility.yul\":39077:39144   */\n      tag_867\n        /* \"#utility.yul\":39141:39143   */\n      0x1b\n        /* \"#utility.yul\":39136:39139   */\n      dup4\n        /* \"#utility.yul\":39077:39144   */\n      tag_422\n      jump\t// in\n    tag_867:\n        /* \"#utility.yul\":39070:39144   */\n      swap2\n      pop\n        /* \"#utility.yul\":39153:39246   */\n      tag_868\n        /* \"#utility.yul\":39242:39245   */\n      dup3\n        /* \"#utility.yul\":39153:39246   */\n      tag_470\n      jump\t// in\n    tag_868:\n        /* \"#utility.yul\":39271:39273   */\n      0x20\n        /* \"#utility.yul\":39266:39269   */\n      dup3\n        /* \"#utility.yul\":39262:39274   */\n      add\n        /* \"#utility.yul\":39255:39274   */\n      swap1\n      pop\n        /* \"#utility.yul\":38914:39280   */\n      swap2\n      swap1\n      pop\n      jump\t// out\n        /* \"#utility.yul\":39286:39705   */\n    tag_289:\n        /* \"#utility.yul\":39452:39456   */\n      0x00\n        /* \"#utility.yul\":39490:39492   */\n      0x20\n        /* \"#utility.yul\":39479:39488   */\n      dup3\n        /* \"#utility.yul\":39475:39493   */\n      add\n        /* \"#utility.yul\":39467:39493   */\n      swap1\n      pop\n        /* \"#utility.yul\":39539:39548   */\n      dup2\n        /* \"#utility.yul\":39533:39537   */\n      dup2\n        /* \"#utility.yul\":39529:39549   */\n      sub\n        /* \"#utility.yul\":39525:39526   */\n      0x00\n        /* \"#utility.yul\":39514:39523   */\n      dup4\n        /* \"#utility.yul\":39510:39527   */\n      add\n        /* \"#utility.yul\":39503:39550   */\n      mstore\n        /* \"#utility.yul\":39567:39698   */\n      tag_870\n        /* \"#utility.yul\":39693:39697   */\n      dup2\n        /* \"#utility.yul\":39567:39698   */\n      tag_471\n      jump\t// in\n    tag_870:\n        /* \"#utility.yul\":39559:39698   */\n      swap1\n      pop\n        /* \"#utility.yul\":39286:39705   */\n      swap2\n      swap1\n      pop\n      jump\t// out\n        /* \"#utility.yul\":39711:39887   */\n    tag_472:\n        /* \"#utility.yul\":39851:39879   */\n      0x5472616e7366657248656c7065723a73616665417070726f7665000000000000\n        /* \"#utility.yul\":39847:39848   */\n      0x00\n        /* \"#utility.yul\":39839:39845   */\n      dup3\n        /* \"#utility.yul\":39835:39849   */\n      add\n        /* \"#utility.yul\":39828:39880   */\n      mstore\n        /* \"#utility.yul\":39711:39887   */\n      pop\n      jump\t// out\n        /* \"#utility.yul\":39893:40259   */\n    tag_473:\n        /* \"#utility.yul\":40035:40038   */\n      0x00\n        /* \"#utility.yul\":40056:40123   */\n      tag_873\n        /* \"#utility.yul\":40120:40122   */\n      0x1a\n        /* \"#utility.yul\":40115:40118   */\n      dup4\n        /* \"#utility.yul\":40056:40123   */\n      tag_422\n      jump\t// in\n    tag_873:\n        /* \"#utility.yul\":40049:40123   */\n      swap2\n      pop\n        /* \"#utility.yul\":40132:40225   */\n      tag_874\n        /* \"#utility.yul\":40221:40224   */\n      dup3\n        /* \"#utility.yul\":40132:40225   */\n      tag_472\n      jump\t// in\n    tag_874:\n        /* \"#utility.yul\":40250:40252   */\n      0x20\n        /* \"#utility.yul\":40245:40248   */\n      dup3\n        /* \"#utility.yul\":40241:40253   */\n      add\n        /* \"#utility.yul\":40234:40253   */\n      swap1\n      pop\n        /* \"#utility.yul\":39893:40259   */\n      swap2\n      swap1\n      pop\n      jump\t// out\n        /* \"#utility.yul\":40265:40684   */\n    tag_301:\n        /* \"#utility.yul\":40431:40435   */\n      0x00\n        /* \"#utility.yul\":40469:40471   */\n      0x20\n        /* \"#utility.yul\":40458:40467   */\n      dup3\n        /* \"#utility.yul\":40454:40472   */\n      add\n        /* \"#utility.yul\":40446:40472   */\n      swap1\n      pop\n        /* \"#utility.yul\":40518:40527   */\n      dup2\n        /* \"#utility.yul\":40512:40516   */\n      dup2\n        /* \"#utility.yul\":40508:40528   */\n      sub\n        /* \"#utility.yul\":40504:40505   */\n      0x00\n        /* \"#utility.yul\":40493:40502   */\n      dup4\n        /* \"#utility.yul\":40489:40506   */\n      add\n        /* \"#utility.yul\":40482:40529   */\n      mstore\n        /* \"#utility.yul\":40546:40677   */\n      tag_876\n        /* \"#utility.yul\":40672:40676   */\n      dup2\n        /* \"#utility.yul\":40546:40677   */\n      tag_473\n      jump\t// in\n    tag_876:\n        /* \"#utility.yul\":40538:40677   */\n      swap1\n      pop\n        /* \"#utility.yul\":40265:40684   */\n      swap2\n      swap1\n      pop\n      jump\t// out\n        /* \"#utility.yul\":40690:40870   */\n    tag_474:\n        /* \"#utility.yul\":40830:40862   */\n      0x5472616e7366657248656c7065723a736166655472616e736665724554480000\n        /* \"#utility.yul\":40826:40827   */\n      0x00\n        /* \"#utility.yul\":40818:40824   */\n      dup3\n        /* \"#utility.yul\":40814:40828   */\n      add\n        /* \"#utility.yul\":40807:40863   */\n      mstore\n        /* \"#utility.yul\":40690:40870   */\n      pop\n      jump\t// out\n        /* \"#utility.yul\":40876:41242   */\n    tag_475:\n        /* \"#utility.yul\":41018:41021   */\n      0x00\n        /* \"#utility.yul\":41039:41106   */\n      tag_879\n        /* \"#utility.yul\":41103:41105   */\n      0x1e\n        /* \"#utility.yul\":41098:41101   */\n      dup4\n        /* \"#utility.yul\":41039:41106   */\n      tag_422\n      jump\t// in\n    tag_879:\n        /* \"#utility.yul\":41032:41106   */\n      swap2\n      pop\n        /* \"#utility.yul\":41115:41208   */\n      tag_880\n        /* \"#utility.yul\":41204:41207   */\n      dup3\n        /* \"#utility.yul\":41115:41208   */\n      tag_474\n      jump\t// in\n    tag_880:\n        /* \"#utility.yul\":41233:41235   */\n      0x20\n        /* \"#utility.yul\":41228:41231   */\n      dup3\n        /* \"#utility.yul\":41224:41236   */\n      add\n        /* \"#utility.yul\":41217:41236   */\n      swap1\n      pop\n        /* \"#utility.yul\":40876:41242   */\n      swap2\n      swap1\n      pop\n      jump\t// out\n        /* \"#utility.yul\":41248:41667   */\n    tag_312:\n        /* \"#utility.yul\":41414:41418   */\n      0x00\n        /* \"#utility.yul\":41452:41454   */\n      0x20\n        /* \"#utility.yul\":41441:41450   */\n      dup3\n        /* \"#utility.yul\":41437:41455   */\n      add\n        /* \"#utility.yul\":41429:41455   */\n      swap1\n      pop\n        /* \"#utility.yul\":41501:41510   */\n      dup2\n        /* \"#utility.yul\":41495:41499   */\n      dup2\n        /* \"#utility.yul\":41491:41511   */\n      sub\n        /* \"#utility.yul\":41487:41488   */\n      0x00\n        /* \"#utility.yul\":41476:41485   */\n      dup4\n        /* \"#utility.yul\":41472:41489   */\n      add\n        /* \"#utility.yul\":41465:41512   */\n      mstore\n        /* \"#utility.yul\":41529:41660   */\n      tag_882\n        /* \"#utility.yul\":41655:41659   */\n      dup2\n        /* \"#utility.yul\":41529:41660   */\n      tag_475\n      jump\t// in\n    tag_882:\n        /* \"#utility.yul\":41521:41660   */\n      swap1\n      pop\n        /* \"#utility.yul\":41248:41667   */\n      swap2\n      swap1\n      pop\n      jump\t// out\n        /* \"#utility.yul\":41673:41899   */\n    tag_476:\n        /* \"#utility.yul\":41813:41847   */\n      0x45786368616e676541676772656761746f723a3a5361666543616c6c65723a73\n        /* \"#utility.yul\":41809:41810   */\n      0x00\n        /* \"#utility.yul\":41801:41807   */\n      dup3\n        /* \"#utility.yul\":41797:41811   */\n      add\n        /* \"#utility.yul\":41790:41848   */\n      mstore\n        /* \"#utility.yul\":41882:41891   */\n      0x61666543616c6c00000000000000000000000000000000000000000000000000\n        /* \"#utility.yul\":41877:41879   */\n      0x20\n        /* \"#utility.yul\":41869:41875   */\n      dup3\n        /* \"#utility.yul\":41865:41880   */\n      add\n        /* \"#utility.yul\":41858:41892   */\n      mstore\n        /* \"#utility.yul\":41673:41899   */\n      pop\n      jump\t// out\n        /* \"#utility.yul\":41905:42271   */\n    tag_477:\n        /* \"#utility.yul\":42047:42050   */\n      0x00\n        /* \"#utility.yul\":42068:42135   */\n      tag_885\n        /* \"#utility.yul\":42132:42134   */\n      0x27\n        /* \"#utility.yul\":42127:42130   */\n      dup4\n        /* \"#utility.yul\":42068:42135   */\n      tag_422\n      jump\t// in\n    tag_885:\n        /* \"#utility.yul\":42061:42135   */\n      swap2\n      pop\n        /* \"#utility.yul\":42144:42237   */\n      tag_886\n        /* \"#utility.yul\":42233:42236   */\n      dup3\n        /* \"#utility.yul\":42144:42237   */\n      tag_476\n      jump\t// in\n    tag_886:\n        /* \"#utility.yul\":42262:42264   */\n      0x40\n        /* \"#utility.yul\":42257:42260   */\n      dup3\n        /* \"#utility.yul\":42253:42265   */\n      add\n        /* \"#utility.yul\":42246:42265   */\n      swap1\n      pop\n        /* \"#utility.yul\":41905:42271   */\n      swap2\n      swap1\n      pop\n      jump\t// out\n        /* \"#utility.yul\":42277:42696   */\n    tag_321:\n        /* \"#utility.yul\":42443:42447   */\n      0x00\n        /* \"#utility.yul\":42481:42483   */\n      0x20\n        /* \"#utility.yul\":42470:42479   */\n      dup3\n        /* \"#utility.yul\":42466:42484   */\n      add\n        /* \"#utility.yul\":42458:42484   */\n      swap1\n      pop\n        /* \"#utility.yul\":42530:42539   */\n      dup2\n        /* \"#utility.yul\":42524:42528   */\n      dup2\n        /* \"#utility.yul\":42520:42540   */\n      sub\n        /* \"#utility.yul\":42516:42517   */\n      0x00\n        /* \"#utility.yul\":42505:42514   */\n      dup4\n        /* \"#utility.yul\":42501:42518   */\n      add\n        /* \"#utility.yul\":42494:42541   */\n      mstore\n        /* \"#utility.yul\":42558:42689   */\n      tag_888\n        /* \"#utility.yul\":42684:42688   */\n      dup2\n        /* \"#utility.yul\":42558:42689   */\n      tag_477\n      jump\t// in\n    tag_888:\n        /* \"#utility.yul\":42550:42689   */\n      swap1\n      pop\n        /* \"#utility.yul\":42277:42696   */\n      swap2\n      swap1\n      pop\n      jump\t// out\n        /* \"#utility.yul\":42702:42884   */\n    tag_478:\n        /* \"#utility.yul\":42842:42876   */\n      0x4f776e61626c653a2063616c6c6572206973206e6f7420746865206f776e6572\n        /* \"#utility.yul\":42838:42839   */\n      0x00\n        /* \"#utility.yul\":42830:42836   */\n      dup3\n        /* \"#utility.yul\":42826:42840   */\n      add\n        /* \"#utility.yul\":42819:42877   */\n      mstore\n        /* \"#utility.yul\":42702:42884   */\n      pop\n      jump\t// out\n        /* \"#utility.yul\":42890:43256   */\n    tag_479:\n        /* \"#utility.yul\":43032:43035   */\n      0x00\n        /* \"#utility.yul\":43053:43120   */\n      tag_891\n        /* \"#utility.yul\":43117:43119   */\n      0x20\n        /* \"#utility.yul\":43112:43115   */\n      dup4\n        /* \"#utility.yul\":43053:43120   */\n      tag_422\n      jump\t// in\n    tag_891:\n        /* \"#utility.yul\":43046:43120   */\n      swap2\n      pop\n        /* \"#utility.yul\":43129:43222   */\n      tag_892\n        /* \"#utility.yul\":43218:43221   */\n      dup3\n        /* \"#utility.yul\":43129:43222   */\n      tag_478\n      jump\t// in\n    tag_892:\n        /* \"#utility.yul\":43247:43249   */\n      0x20\n        /* \"#utility.yul\":43242:43245   */\n      dup3\n        /* \"#utility.yul\":43238:43250   */\n      add\n        /* \"#utility.yul\":43231:43250   */\n      swap1\n      pop\n        /* \"#utility.yul\":42890:43256   */\n      swap2\n      swap1\n      pop\n      jump\t// out\n        /* \"#utility.yul\":43262:43681   */\n    tag_330:\n        /* \"#utility.yul\":43428:43432   */\n      0x00\n        /* \"#utility.yul\":43466:43468   */\n      0x20\n        /* \"#utility.yul\":43455:43464   */\n      dup3\n        /* \"#utility.yul\":43451:43469   */\n      add\n        /* \"#utility.yul\":43443:43469   */\n      swap1\n      pop\n        /* \"#utility.yul\":43515:43524   */\n      dup2\n        /* \"#utility.yul\":43509:43513   */\n      dup2\n        /* \"#utility.yul\":43505:43525   */\n      sub\n        /* \"#utility.yul\":43501:43502   */\n      0x00\n        /* \"#utility.yul\":43490:43499   */\n      dup4\n        /* \"#utility.yul\":43486:43503   */\n      add\n        /* \"#utility.yul\":43479:43526   */\n      mstore\n        /* \"#utility.yul\":43543:43674   */\n      tag_894\n        /* \"#utility.yul\":43669:43673   */\n      dup2\n        /* \"#utility.yul\":43543:43674   */\n      tag_479\n      jump\t// in\n    tag_894:\n        /* \"#utility.yul\":43535:43674   */\n      swap1\n      pop\n        /* \"#utility.yul\":43262:43681   */\n      swap2\n      swap1\n      pop\n      jump\t// out\n        /* \"#utility.yul\":43687:43867   */\n    tag_347:\n        /* \"#utility.yul\":43735:43812   */\n      0x4e487b7100000000000000000000000000000000000000000000000000000000\n        /* \"#utility.yul\":43732:43733   */\n      0x00\n        /* \"#utility.yul\":43725:43813   */\n      mstore\n        /* \"#utility.yul\":43832:43836   */\n      0x21\n        /* \"#utility.yul\":43829:43830   */\n      0x04\n        /* \"#utility.yul\":43822:43837   */\n      mstore\n        /* \"#utility.yul\":43856:43860   */\n      0x24\n        /* \"#utility.yul\":43853:43854   */\n      0x00\n        /* \"#utility.yul\":43846:43861   */\n      revert\n        /* \"#utility.yul\":43873:44047   */\n    tag_480:\n        /* \"#utility.yul\":44013:44039   */\n      0x45434453413a20696e76616c6964207369676e61747572650000000000000000\n        /* \"#utility.yul\":44009:44010   */\n      0x00\n        /* \"#utility.yul\":44001:44007   */\n      dup3\n        /* \"#utility.yul\":43997:44011   */\n      add\n        /* \"#utility.yul\":43990:44040   */\n      mstore\n        /* \"#utility.yul\":43873:44047   */\n      pop\n      jump\t// out\n        /* \"#utility.yul\":44053:44419   */\n    tag_481:\n        /* \"#utility.yul\":44195:44198   */\n      0x00\n        /* \"#utility.yul\":44216:44283   */\n      tag_898\n        /* \"#utility.yul\":44280:44282   */\n      0x18\n        /* \"#utility.yul\":44275:44278   */\n      dup4\n        /* \"#utility.yul\":44216:44283   */\n      tag_422\n      jump\t// in\n    tag_898:\n        /* \"#utility.yul\":44209:44283   */\n      swap2\n      pop\n        /* \"#utility.yul\":44292:44385   */\n      tag_899\n        /* \"#utility.yul\":44381:44384   */\n      dup3\n        /* \"#utility.yul\":44292:44385   */\n      tag_480\n      jump\t// in\n    tag_899:\n        /* \"#utility.yul\":44410:44412   */\n      0x20\n        /* \"#utility.yul\":44405:44408   */\n      dup3\n        /* \"#utility.yul\":44401:44413   */\n      add\n        /* \"#utility.yul\":44394:44413   */\n      swap1\n      pop\n        /* \"#utility.yul\":44053:44419   */\n      swap2\n      swap1\n      pop\n      jump\t// out\n        /* \"#utility.yul\":44425:44844   */\n    tag_358:\n        /* \"#utility.yul\":44591:44595   */\n      0x00\n        /* \"#utility.yul\":44629:44631   */\n      0x20\n        /* \"#utility.yul\":44618:44627   */\n      dup3\n        /* \"#utility.yul\":44614:44632   */\n      add\n        /* \"#utility.yul\":44606:44632   */\n      swap1\n      pop\n        /* \"#utility.yul\":44678:44687   */\n      dup2\n        /* \"#utility.yul\":44672:44676   */\n      dup2\n        /* \"#utility.yul\":44668:44688   */\n      sub\n        /* \"#utility.yul\":44664:44665   */\n      0x00\n        /* \"#utility.yul\":44653:44662   */\n      dup4\n        /* \"#utility.yul\":44649:44666   */\n      add\n        /* \"#utility.yul\":44642:44689   */\n      mstore\n        /* \"#utility.yul\":44706:44837   */\n      tag_901\n        /* \"#utility.yul\":44832:44836   */\n      dup2\n        /* \"#utility.yul\":44706:44837   */\n      tag_481\n      jump\t// in\n    tag_901:\n        /* \"#utility.yul\":44698:44837   */\n      swap1\n      pop\n        /* \"#utility.yul\":44425:44844   */\n      swap2\n      swap1\n      pop\n      jump\t// out\n        /* \"#utility.yul\":44850:45031   */\n    tag_482:\n        /* \"#utility.yul\":44990:45023   */\n      0x45434453413a20696e76616c6964207369676e6174757265206c656e67746800\n        /* \"#utility.yul\":44986:44987   */\n      0x00\n        /* \"#utility.yul\":44978:44984   */\n      dup3\n        /* \"#utility.yul\":44974:44988   */\n      add\n        /* \"#utility.yul\":44967:45024   */\n      mstore\n        /* \"#utility.yul\":44850:45031   */\n      pop\n      jump\t// out\n        /* \"#utility.yul\":45037:45403   */\n    tag_483:\n        /* \"#utility.yul\":45179:45182   */\n      0x00\n        /* \"#utility.yul\":45200:45267   */\n      tag_904\n        /* \"#utility.yul\":45264:45266   */\n      0x1f\n        /* \"#utility.yul\":45259:45262   */\n      dup4\n        /* \"#utility.yul\":45200:45267   */\n      tag_422\n      jump\t// in\n    tag_904:\n        /* \"#utility.yul\":45193:45267   */\n      swap2\n      pop\n        /* \"#utility.yul\":45276:45369   */\n      tag_905\n        /* \"#utility.yul\":45365:45368   */\n      dup3\n        /* \"#utility.yul\":45276:45369   */\n      tag_482\n      jump\t// in\n    tag_905:\n        /* \"#utility.yul\":45394:45396   */\n      0x20\n        /* \"#utility.yul\":45389:45392   */\n      dup3\n        /* \"#utility.yul\":45385:45397   */\n      add\n        /* \"#utility.yul\":45378:45397   */\n      swap1\n      pop\n        /* \"#utility.yul\":45037:45403   */\n      swap2\n      swap1\n      pop\n      jump\t// out\n        /* \"#utility.yul\":45409:45828   */\n    tag_366:\n        /* \"#utility.yul\":45575:45579   */\n      0x00\n        /* \"#utility.yul\":45613:45615   */\n      0x20\n        /* \"#utility.yul\":45602:45611   */\n      dup3\n        /* \"#utility.yul\":45598:45616   */\n      add\n        /* \"#utility.yul\":45590:45616   */\n      swap1\n      pop\n        /* \"#utility.yul\":45662:45671   */\n      dup2\n        /* \"#utility.yul\":45656:45660   */\n      dup2\n        /* \"#utility.yul\":45652:45672   */\n      sub\n        /* \"#utility.yul\":45648:45649   */\n      0x00\n        /* \"#utility.yul\":45637:45646   */\n      dup4\n        /* \"#utility.yul\":45633:45650   */\n      add\n        /* \"#utility.yul\":45626:45673   */\n      mstore\n        /* \"#utility.yul\":45690:45821   */\n      tag_907\n        /* \"#utility.yul\":45816:45820   */\n      dup2\n        /* \"#utility.yul\":45690:45821   */\n      tag_483\n      jump\t// in\n    tag_907:\n        /* \"#utility.yul\":45682:45821   */\n      swap1\n      pop\n        /* \"#utility.yul\":45409:45828   */\n      swap2\n      swap1\n      pop\n      jump\t// out\n        /* \"#utility.yul\":45834:46055   */\n    tag_484:\n        /* \"#utility.yul\":45974:46008   */\n      0x45434453413a20696e76616c6964207369676e6174757265202773272076616c\n        /* \"#utility.yul\":45970:45971   */\n      0x00\n        /* \"#utility.yul\":45962:45968   */\n      dup3\n        /* \"#utility.yul\":45958:45972   */\n      add\n        /* \"#utility.yul\":45951:46009   */\n      mstore\n        /* \"#utility.yul\":46043:46047   */\n      0x7565000000000000000000000000000000000000000000000000000000000000\n        /* \"#utility.yul\":46038:46040   */\n      0x20\n        /* \"#utility.yul\":46030:46036   */\n      dup3\n        /* \"#utility.yul\":46026:46041   */\n      add\n        /* \"#utility.yul\":46019:46048   */\n      mstore\n        /* \"#utility.yul\":45834:46055   */\n      pop\n      jump\t// out\n        /* \"#utility.yul\":46061:46427   */\n    tag_485:\n        /* \"#utility.yul\":46203:46206   */\n      0x00\n        /* \"#utility.yul\":46224:46291   */\n      tag_910\n        /* \"#utility.yul\":46288:46290   */\n      0x22\n        /* \"#utility.yul\":46283:46286   */\n      dup4\n        /* \"#utility.yul\":46224:46291   */\n      tag_422\n      jump\t// in\n    tag_910:\n        /* \"#utility.yul\":46217:46291   */\n      swap2\n      pop\n        /* \"#utility.yul\":46300:46393   */\n      tag_911\n        /* \"#utility.yul\":46389:46392   */\n      dup3\n        /* \"#utility.yul\":46300:46393   */\n      tag_484\n      jump\t// in\n    tag_911:\n        /* \"#utility.yul\":46418:46420   */\n      0x40\n        /* \"#utility.yul\":46413:46416   */\n      dup3\n        /* \"#utility.yul\":46409:46421   */\n      add\n        /* \"#utility.yul\":46402:46421   */\n      swap1\n      pop\n        /* \"#utility.yul\":46061:46427   */\n      swap2\n      swap1\n      pop\n      jump\t// out\n        /* \"#utility.yul\":46433:46852   */\n    tag_374:\n        /* \"#utility.yul\":46599:46603   */\n      0x00\n        /* \"#utility.yul\":46637:46639   */\n      0x20\n        /* \"#utility.yul\":46626:46635   */\n      dup3\n        /* \"#utility.yul\":46622:46640   */\n      add\n        /* \"#utility.yul\":46614:46640   */\n      swap1\n      pop\n        /* \"#utility.yul\":46686:46695   */\n      dup2\n        /* \"#utility.yul\":46680:46684   */\n      dup2\n        /* \"#utility.yul\":46676:46696   */\n      sub\n        /* \"#utility.yul\":46672:46673   */\n      0x00\n        /* \"#utility.yul\":46661:46670   */\n      dup4\n        /* \"#utility.yul\":46657:46674   */\n      add\n        /* \"#utility.yul\":46650:46697   */\n      mstore\n        /* \"#utility.yul\":46714:46845   */\n      tag_913\n        /* \"#utility.yul\":46840:46844   */\n      dup2\n        /* \"#utility.yul\":46714:46845   */\n      tag_485\n      jump\t// in\n    tag_913:\n        /* \"#utility.yul\":46706:46845   */\n      swap1\n      pop\n        /* \"#utility.yul\":46433:46852   */\n      swap2\n      swap1\n      pop\n      jump\t// out\n        /* \"#utility.yul\":46858:46935   */\n    tag_486:\n        /* \"#utility.yul\":46895:46902   */\n      0x00\n        /* \"#utility.yul\":46924:46929   */\n      dup2\n        /* \"#utility.yul\":46913:46929   */\n      swap1\n      pop\n        /* \"#utility.yul\":46858:46935   */\n      swap2\n      swap1\n      pop\n      jump\t// out\n        /* \"#utility.yul\":46941:47059   */\n    tag_487:\n        /* \"#utility.yul\":47028:47052   */\n      tag_916\n        /* \"#utility.yul\":47046:47051   */\n      dup2\n        /* \"#utility.yul\":47028:47052   */\n      tag_486\n      jump\t// in\n    tag_916:\n        /* \"#utility.yul\":47023:47026   */\n      dup3\n        /* \"#utility.yul\":47016:47053   */\n      mstore\n        /* \"#utility.yul\":46941:47059   */\n      pop\n      pop\n      jump\t// out\n        /* \"#utility.yul\":47065:47610   */\n    tag_378:\n        /* \"#utility.yul\":47238:47242   */\n      0x00\n        /* \"#utility.yul\":47276:47279   */\n      0x80\n        /* \"#utility.yul\":47265:47274   */\n      dup3\n        /* \"#utility.yul\":47261:47280   */\n      add\n        /* \"#utility.yul\":47253:47280   */\n      swap1\n      pop\n        /* \"#utility.yul\":47290:47361   */\n      tag_918\n        /* \"#utility.yul\":47358:47359   */\n      0x00\n        /* \"#utility.yul\":47347:47356   */\n      dup4\n        /* \"#utility.yul\":47343:47360   */\n      add\n        /* \"#utility.yul\":47334:47340   */\n      dup8\n        /* \"#utility.yul\":47290:47361   */\n      tag_487\n      jump\t// in\n    tag_918:\n        /* \"#utility.yul\":47371:47439   */\n      tag_919\n        /* \"#utility.yul\":47435:47437   */\n      0x20\n        /* \"#utility.yul\":47424:47433   */\n      dup4\n        /* \"#utility.yul\":47420:47438   */\n      add\n        /* \"#utility.yul\":47411:47417   */\n      dup7\n        /* \"#utility.yul\":47371:47439   */\n      tag_451\n      jump\t// in\n    tag_919:\n        /* \"#utility.yul\":47449:47521   */\n      tag_920\n        /* \"#utility.yul\":47517:47519   */\n      0x40\n        /* \"#utility.yul\":47506:47515   */\n      dup4\n        /* \"#utility.yul\":47502:47520   */\n      add\n        /* \"#utility.yul\":47493:47499   */\n      dup6\n        /* \"#utility.yul\":47449:47521   */\n      tag_487\n      jump\t// in\n    tag_920:\n        /* \"#utility.yul\":47531:47603   */\n      tag_921\n        /* \"#utility.yul\":47599:47601   */\n      0x60\n        /* \"#utility.yul\":47588:47597   */\n      dup4\n        /* \"#utility.yul\":47584:47602   */\n      add\n        /* \"#utility.yul\":47575:47581   */\n      dup5\n        /* \"#utility.yul\":47531:47603   */\n      tag_487\n      jump\t// in\n    tag_921:\n        /* \"#utility.yul\":47065:47610   */\n      swap6\n      swap5\n      pop\n      pop\n      pop\n      pop\n      pop\n      jump\t// out\n\n    auxdata: 0xa26469706673582212201a253159ed8869166abce26424f79daa464c684fdd7ba915238ad83d57b0c52164736f6c63430008120033\n}\n",
				"bytecode": {
					"linkReferences": {},
					"object": "60806040523480156200001157600080fd5b5062000032620000266200007960201b60201c565b6200008160201b60201c565b33600160006101000a81548173ffffffffffffffffffffffffffffffffffffffff021916908373ffffffffffffffffffffffffffffffffffffffff16021790555062000145565b600033905090565b60008060009054906101000a900473ffffffffffffffffffffffffffffffffffffffff169050816000806101000a81548173ffffffffffffffffffffffffffffffffffffffff021916908373ffffffffffffffffffffffffffffffffffffffff1602179055508173ffffffffffffffffffffffffffffffffffffffff168173ffffffffffffffffffffffffffffffffffffffff167f8be0079c531659141344cd1fd0a4f28419497f9722a3daafe3b4186f6b6457e060405160405180910390a35050565b61329d80620001556000396000f3fe6080604052600436106100e15760003560e01c80638da5cb5b1161007f578063ac9650d811610059578063ac9650d81461027d578063ddd0fcd5146102ad578063f2fde38b146102d6578063f61db740146102ff576100e8565b80638da5cb5b146101eb5780639b1bfa7f14610216578063a299ed7d1461023f576100e8565b80633f464ff5116100bb5780633f464ff514610180578063566e45b11461019c5780635cedfda0146101b8578063715018a6146101d4576100e8565b806322cedf7d146100ed578063231da50d14610118578063239fcf0f14610143576100e8565b366100e857005b600080fd5b3480156100f957600080fd5b5061010261032a565b60405161010f9190611aff565b60405180910390f35b34801561012457600080fd5b5061012d610330565b60405161013a9190611aff565b60405180910390f35b34801561014f57600080fd5b5061016a60048036038101906101659190611b8c565b610338565b6040516101779190611aff565b60405180910390f35b61019a60048036038101906101959190611c43565b6103bb565b005b6101b660048036038101906101b19190611ceb565b6108b0565b005b6101d260048036038101906101cd9190611d4b565b6108c6565b005b3480156101e057600080fd5b506101e9610c2c565b005b3480156101f757600080fd5b50610200610c40565b60405161020d9190611dd6565b60405180910390f35b34801561022257600080fd5b5061023d60048036038101906102389190611df1565b610c69565b005b34801561024b57600080fd5b5061026660048036038101906102619190611e7d565b610c81565b604051610274929190611f28565b60405180910390f35b61029760048036038101906102929190611fa7565b610d14565b6040516102a49190612146565b60405180910390f35b3480156102b957600080fd5b506102d460048036038101906102cf9190611b8c565b610eae565b005b3480156102e257600080fd5b506102fd60048036038101906102f89190611b8c565b610efa565b005b34801561030b57600080fd5b50610314610f7d565b6040516103219190611dd6565b60405180910390f35b60035481565b600047905090565b60008173ffffffffffffffffffffffffffffffffffffffff166370a08231306040518263ffffffff1660e01b81526004016103739190611dd6565b602060405180830381865afa158015610390573d6000803e3d6000fd5b505050506040513d601f19601f820116820180604052508101906103b4919061217d565b9050919050565b8181600282826040516103cf9291906121e9565b908152602001604051809103902060009054906101000a900460ff161561042b576040517f08c379a00000000000000000000000000000000000000000000000000000000081526004016104229061225f565b60405180910390fd5b3373ffffffffffffffffffffffffffffffffffffffff16856101000160208101906104569190611b8c565b73ffffffffffffffffffffffffffffffffffffffff16146104ac576040517f08c379a00000000000000000000000000000000000000000000000000000000081526004016104a3906122cb565b60405180910390fd5b6105216104b7610c40565b866040516020016104c8919061257d565b60405160208183030381529060405286868080601f016020809104026020016040519081016040528093929190818152602001838380828437600081840152601f19601f82011690508083019250505050505050610fa3565b600085610140016020810190610537919061259f565b6105fe578560a001602081019061054e919061259f565b610575576105748660000160208101906105689190611b8c565b3330896040013561110f565b5b6000866060013511156105c6576105c58660000160208101906105989190611b8c565b600160009054906101000a900473ffffffffffffffffffffffffffffffffffffffff168860600135611248565b5b6105f98660000160208101906105dc9190611b8c565b8760c00160208101906105ef9190611b8c565b886080013561137e565b61067d565b8560400135341015610645576040517f08c379a000000000000000000000000000000000000000000000000000000000815260040161063c90612618565b60405180910390fd5b610675600160009054906101000a900473ffffffffffffffffffffffffffffffffffffffff1687606001356114b4565b856080013590505b60008660200160208101906106929190611b8c565b73ffffffffffffffffffffffffffffffffffffffff166370a08231306040518263ffffffff1660e01b81526004016106ca9190611dd6565b602060405180830381865afa1580156106e7573d6000803e3d6000fd5b505050506040513d601f19601f8201168201806040525081019061070b919061217d565b905061077c8760c00160208101906107239190611b8c565b83898060e001906107349190612647565b8080601f016020809104026020016040519081016040528093929190818152602001838380828437600081840152601f19601f820116905080830192505050505050506115b4565b60008760200160208101906107919190611b8c565b73ffffffffffffffffffffffffffffffffffffffff166370a08231306040518263ffffffff1660e01b81526004016107c99190611dd6565b602060405180830381865afa1580156107e6573d6000803e3d6000fd5b505050506040513d601f19601f8201168201806040525081019061080a919061217d565b90508181111561082b57818161082091906126d9565b600381905550610834565b60006003819055505b6001600288886040516108489291906121e9565b908152602001604051809103902060006101000a81548160ff0219169083151502179055505050506001600283836040516108849291906121e9565b908152602001604051809103902060006101000a81548160ff0219169083151502179055505050505050565b6108b86116cb565b6108c282826114b4565b5050565b8181600282826040516108da9291906121e9565b908152602001604051809103902060009054906101000a900460ff1615610936576040517f08c379a000000000000000000000000000000000000000000000000000000000815260040161092d9061225f565b60405180910390fd5b3373ffffffffffffffffffffffffffffffffffffffff168560400160208101906109609190611b8c565b73ffffffffffffffffffffffffffffffffffffffff16146109b6576040517f08c379a00000000000000000000000000000000000000000000000000000000081526004016109ad906122cb565b60405180910390fd5b84606001353410156109fd576040517f08c379a00000000000000000000000000000000000000000000000000000000081526004016109f490612618565b60405180910390fd5b610a72610a08610c40565b86604051602001610a1991906127ff565b60405160208183030381529060405286868080601f016020809104026020016040519081016040528093929190818152602001838380828437600081840152601f19601f82011690508083019250505050505050610fa3565b6000856080016020810190610a87919061259f565b15610a9e5760035490506000600381905550610b28565b610acf866020016020810190610ab49190611b8c565b33308960c001358a60a00135610aca9190612821565b61110f565b60008660c001351115610b2057610b1f866020016020810190610af29190611b8c565b600160009054906101000a900473ffffffffffffffffffffffffffffffffffffffff168860c00135611248565b5b8560a0013590505b610b57866020016020810190610b3e9190611b8c565b876000016020810190610b519190611b8c565b8361137e565b856000016020810190610b6a9190611b8c565b73ffffffffffffffffffffffffffffffffffffffff16630a2fb3748760600135888060e00190610b9a9190612647565b856040518563ffffffff1660e01b8152600401610bb993929190612893565b6000604051808303818588803b158015610bd257600080fd5b505af1158015610be6573d6000803e3d6000fd5b505050505050600160028383604051610c009291906121e9565b908152602001604051809103902060006101000a81548160ff0219169083151502179055505050505050565b610c346116cb565b610c3e6000611749565b565b60008060009054906101000a900473ffffffffffffffffffffffffffffffffffffffff16905090565b610c716116cb565b610c7c838383611248565b505050565b6000808773ffffffffffffffffffffffffffffffffffffffff16636110358d88888888886040518663ffffffff1660e01b8152600401610cc59594939291906128d4565b6040805180830381865afa158015610ce1573d6000803e3d6000fd5b505050506040513d601f19601f82011682018060405250810190610d059190612953565b91509150965096945050505050565b60608282905067ffffffffffffffff811115610d3357610d32612993565b5b604051908082528060200260200182016040528015610d6657816020015b6060815260200190600190039081610d515790505b50905060005b83839050811015610ea7576000803073ffffffffffffffffffffffffffffffffffffffff16868685818110610da457610da36129c2565b5b9050602002810190610db69190612647565b604051610dc49291906121e9565b600060405180830381855af49150503d8060008114610dff576040519150601f19603f3d011682016040523d82523d6000602084013e610e04565b606091505b509150915081610e7357604481511015610e1d57600080fd5b60048101905080806020019051810190610e379190612ae3565b6040517f08c379a0000000000000000000000000000000000000000000000000000000008152600401610e6a9190612b70565b60405180910390fd5b80848481518110610e8757610e866129c2565b5b602002602001018190525050508080610e9f90612b92565b915050610d6c565b5092915050565b610eb66116cb565b80600160006101000a81548173ffffffffffffffffffffffffffffffffffffffff021916908373ffffffffffffffffffffffffffffffffffffffff16021790555050565b610f026116cb565b600073ffffffffffffffffffffffffffffffffffffffff168173ffffffffffffffffffffffffffffffffffffffff1603610f71576040517f08c379a0000000000000000000000000000000000000000000000000000000008152600401610f6890612c4c565b60405180910390fd5b610f7a81611749565b50565b600160009054906101000a900473ffffffffffffffffffffffffffffffffffffffff1681565b601b60f81b81604081518110610fbc57610fbb6129c2565b5b60200101907effffffffffffffffffffffffffffffffffffffffffffffffffffffffffffff1916908160001a9053508273ffffffffffffffffffffffffffffffffffffffff1661101d8261100f8561180d565b61181e90919063ffffffff16565b73ffffffffffffffffffffffffffffffffffffffff16031561110a57601c60f81b81604081518110611052576110516129c2565b5b60200101907effffffffffffffffffffffffffffffffffffffffffffffffffffffffffffff1916908160001a9053508273ffffffffffffffffffffffffffffffffffffffff166110b3826110a58561180d565b61181e90919063ffffffff16565b73ffffffffffffffffffffffffffffffffffffffff1614611109576040517f08c379a000000000000000000000000000000000000000000000000000000000815260040161110090612cb8565b60405180910390fd5b5b505050565b6000808573ffffffffffffffffffffffffffffffffffffffff166323b872dd86868660405160240161114393929190612cd8565b6040516020818303038152906040529060e01b6020820180517bffffffffffffffffffffffffffffffffffffffffffffffffffffffff83818316178352505050506040516111919190612d40565b6000604051808303816000865af19150503d80600081146111ce576040519150601f19603f3d011682016040523d82523d6000602084013e6111d3565b606091505b509150915081801561120157506000815114806112005750808060200190518101906111ff9190612d6c565b5b5b611240576040517f08c379a000000000000000000000000000000000000000000000000000000000815260040161123790612de5565b60405180910390fd5b505050505050565b6000808473ffffffffffffffffffffffffffffffffffffffff1663a9059cbb858560405160240161127a929190612e05565b6040516020818303038152906040529060e01b6020820180517bffffffffffffffffffffffffffffffffffffffffffffffffffffffff83818316178352505050506040516112c89190612d40565b6000604051808303816000865af19150503d8060008114611305576040519150601f19603f3d011682016040523d82523d6000602084013e61130a565b606091505b509150915081801561133857506000815114806113375750808060200190518101906113369190612d6c565b5b5b611377576040517f08c379a000000000000000000000000000000000000000000000000000000000815260040161136e90612e7a565b60405180910390fd5b5050505050565b6000808473ffffffffffffffffffffffffffffffffffffffff1663095ea7b385856040516024016113b0929190612e05565b6040516020818303038152906040529060e01b6020820180517bffffffffffffffffffffffffffffffffffffffffffffffffffffffff83818316178352505050506040516113fe9190612d40565b6000604051808303816000865af19150503d806000811461143b576040519150601f19603f3d011682016040523d82523d6000602084013e611440565b606091505b509150915081801561146e575060008151148061146d57508080602001905181019061146c9190612d6c565b5b5b6114ad576040517f08c379a00000000000000000000000000000000000000000000000000000000081526004016114a490612ee6565b60405180910390fd5b5050505050565b60008273ffffffffffffffffffffffffffffffffffffffff1682600067ffffffffffffffff8111156114e9576114e8612993565b5b6040519080825280601f01601f19166020018201604052801561151b5781602001600182028036833780820191505090505b506040516115299190612d40565b60006040518083038185875af1925050503d8060008114611566576040519150601f19603f3d011682016040523d82523d6000602084013e61156b565b606091505b50509050806115af576040517f08c379a00000000000000000000000000000000000000000000000000000000081526004016115a690612f52565b60405180910390fd5b505050565b6000808473ffffffffffffffffffffffffffffffffffffffff1684846040516115dd9190612d40565b60006040518083038185875af1925050503d806000811461161a576040519150601f19603f3d011682016040523d82523d6000602084013e61161f565b606091505b5091509150816116c45760448151101561166e576040517f08c379a000000000000000000000000000000000000000000000000000000000815260040161166590612fe4565b60405180910390fd5b600481019050808060200190518101906116889190612ae3565b6040517f08c379a00000000000000000000000000000000000000000000000000000000081526004016116bb9190612b70565b60405180910390fd5b5050505050565b6116d3611845565b73ffffffffffffffffffffffffffffffffffffffff166116f1610c40565b73ffffffffffffffffffffffffffffffffffffffff1614611747576040517f08c379a000000000000000000000000000000000000000000000000000000000815260040161173e90613050565b60405180910390fd5b565b60008060009054906101000a900473ffffffffffffffffffffffffffffffffffffffff169050816000806101000a81548173ffffffffffffffffffffffffffffffffffffffff021916908373ffffffffffffffffffffffffffffffffffffffff1602179055508173ffffffffffffffffffffffffffffffffffffffff168173ffffffffffffffffffffffffffffffffffffffff167f8be0079c531659141344cd1fd0a4f28419497f9722a3daafe3b4186f6b6457e060405160405180910390a35050565b600081805190602001209050919050565b600080600061182d858561184d565b9150915061183a8161189e565b819250505092915050565b600033905090565b600080604183510361188e5760008060006020860151925060408601519150606086015160001a905061188287828585611a04565b94509450505050611897565b60006002915091505b9250929050565b600060048111156118b2576118b1613070565b5b8160048111156118c5576118c4613070565b5b0315611a0157600160048111156118df576118de613070565b5b8160048111156118f2576118f1613070565b5b03611932576040517f08c379a0000000000000000000000000000000000000000000000000000000008152600401611929906130eb565b60405180910390fd5b6002600481111561194657611945613070565b5b81600481111561195957611958613070565b5b03611999576040517f08c379a000000000000000000000000000000000000000000000000000000000815260040161199090613157565b60405180910390fd5b600360048111156119ad576119ac613070565b5b8160048111156119c0576119bf613070565b5b03611a00576040517f08c379a00000000000000000000000000000000000000000000000000000000081526004016119f7906131e9565b60405180910390fd5b5b50565b6000807f7fffffffffffffffffffffffffffffff5d576e7357a4501ddfe92f46681b20a08360001c1115611a3f576000600391509150611add565b600060018787878760405160008152602001604052604051611a649493929190613222565b6020604051602081039080840390855afa158015611a86573d6000803e3d6000fd5b505050602060405103519050600073ffffffffffffffffffffffffffffffffffffffff168173ffffffffffffffffffffffffffffffffffffffff1603611ad457600060019250925050611add565b80600092509250505b94509492505050565b6000819050919050565b611af981611ae6565b82525050565b6000602082019050611b146000830184611af0565b92915050565b6000604051905090565b600080fd5b600080fd5b600073ffffffffffffffffffffffffffffffffffffffff82169050919050565b6000611b5982611b2e565b9050919050565b611b6981611b4e565b8114611b7457600080fd5b50565b600081359050611b8681611b60565b92915050565b600060208284031215611ba257611ba1611b24565b5b6000611bb084828501611b77565b91505092915050565b600080fd5b60006101608284031215611bd557611bd4611bb9565b5b81905092915050565b600080fd5b600080fd5b600080fd5b60008083601f840112611c0357611c02611bde565b5b8235905067ffffffffffffffff811115611c2057611c1f611be3565b5b602083019150836001820283011115611c3c57611c3b611be8565b5b9250929050565b600080600060408486031215611c5c57611c5b611b24565b5b600084013567ffffffffffffffff811115611c7a57611c79611b29565b5b611c8686828701611bbe565b935050602084013567ffffffffffffffff811115611ca757611ca6611b29565b5b611cb386828701611bed565b92509250509250925092565b611cc881611ae6565b8114611cd357600080fd5b50565b600081359050611ce581611cbf565b92915050565b60008060408385031215611d0257611d01611b24565b5b6000611d1085828601611b77565b9250506020611d2185828601611cd6565b9150509250929050565b60006101008284031215611d4257611d41611bb9565b5b81905092915050565b600080600060408486031215611d6457611d63611b24565b5b600084013567ffffffffffffffff811115611d8257611d81611b29565b5b611d8e86828701611d2b565b935050602084013567ffffffffffffffff811115611daf57611dae611b29565b5b611dbb86828701611bed565b92509250509250925092565b611dd081611b4e565b82525050565b6000602082019050611deb6000830184611dc7565b92915050565b600080600060608486031215611e0a57611e09611b24565b5b6000611e1886828701611b77565b9350506020611e2986828701611b77565b9250506040611e3a86828701611cd6565b9150509250925092565b600060ff82169050919050565b611e5a81611e44565b8114611e6557600080fd5b50565b600081359050611e7781611e51565b92915050565b60008060008060008060c08789031215611e9a57611e99611b24565b5b6000611ea889828a01611b77565b9650506020611eb989828a01611b77565b9550506040611eca89828a01611b77565b9450506060611edb89828a01611b77565b9350506080611eec89828a01611cd6565b92505060a0611efd89828a01611e68565b9150509295509295509295565b600062ffffff82169050919050565b611f2281611f0a565b82525050565b6000604082019050611f3d6000830185611af0565b611f4a6020830184611f19565b9392505050565b60008083601f840112611f6757611f66611bde565b5b8235905067ffffffffffffffff811115611f8457611f83611be3565b5b602083019150836020820283011115611fa057611f9f611be8565b5b9250929050565b60008060208385031215611fbe57611fbd611b24565b5b600083013567ffffffffffffffff811115611fdc57611fdb611b29565b5b611fe885828601611f51565b92509250509250929050565b600081519050919050565b600082825260208201905092915050565b6000819050602082019050919050565b600081519050919050565b600082825260208201905092915050565b60005b8381101561205a57808201518184015260208101905061203f565b60008484015250505050565b6000601f19601f8301169050919050565b600061208282612020565b61208c818561202b565b935061209c81856020860161203c565b6120a581612066565b840191505092915050565b60006120bc8383612077565b905092915050565b6000602082019050919050565b60006120dc82611ff4565b6120e68185611fff565b9350836020820285016120f885612010565b8060005b85811015612134578484038952815161211585826120b0565b9450612120836120c4565b925060208a019950506001810190506120fc565b50829750879550505050505092915050565b6000602082019050818103600083015261216081846120d1565b905092915050565b60008151905061217781611cbf565b92915050565b60006020828403121561219357612192611b24565b5b60006121a184828501612168565b91505092915050565b600081905092915050565b82818337600083830152505050565b60006121d083856121aa565b93506121dd8385846121b5565b82840190509392505050565b60006121f68284866121c4565b91508190509392505050565b600082825260208201905092915050565b7f746869732074784461746120616c72656164792070726f636573736564000000600082015250565b6000612249601d83612202565b915061225482612213565b602082019050919050565b600060208201905081810360008301526122788161223c565b9050919050565b7f696e76616c69642073656e646572000000000000000000000000000000000000600082015250565b60006122b5600e83612202565b91506122c08261227f565b602082019050919050565b600060208201905081810360008301526122e4816122a8565b9050919050565b60006122fa6020840184611b77565b905092915050565b61230b81611b4e565b82525050565b60006123206020840184611cd6565b905092915050565b61233181611ae6565b82525050565b60008115159050919050565b61234c81612337565b811461235757600080fd5b50565b60008135905061236981612343565b92915050565b600061237e602084018461235a565b905092915050565b61238f81612337565b82525050565b600080fd5b600080fd5b600080fd5b600080833560016020038436030381126123c1576123c061239f565b5b83810192508235915060208301925067ffffffffffffffff8211156123e9576123e8612395565b5b6001820236038313156123ff576123fe61239a565b5b509250929050565b6000612413838561202b565b93506124208385846121b5565b61242983612066565b840190509392505050565b6000610160830161244860008401846122eb565b6124556000860182612302565b5061246360208401846122eb565b6124706020860182612302565b5061247e6040840184612311565b61248b6040860182612328565b506124996060840184612311565b6124a66060860182612328565b506124b46080840184612311565b6124c16080860182612328565b506124cf60a084018461236f565b6124dc60a0860182612386565b506124ea60c08401846122eb565b6124f760c0860182612302565b5061250560e08401846123a4565b85830360e0870152612518838284612407565b9250505061252a6101008401846122eb565b612538610100860182612302565b506125476101208401846122eb565b612555610120860182612302565b5061256461014084018461236f565b612572610140860182612386565b508091505092915050565b600060208201905081810360008301526125978184612434565b905092915050565b6000602082840312156125b5576125b4611b24565b5b60006125c38482850161235a565b91505092915050565b7f696e73756666696369656e742076616c75650000000000000000000000000000600082015250565b6000612602601283612202565b915061260d826125cc565b602082019050919050565b60006020820190508181036000830152612631816125f5565b9050919050565b600080fd5b600080fd5b600080fd5b6000808335600160200384360303811261266457612663612638565b5b80840192508235915067ffffffffffffffff8211156126865761268561263d565b5b6020830192506001820236038313156126a2576126a1612642565b5b509250929050565b7f4e487b7100000000000000000000000000000000000000000000000000000000600052601160045260246000fd5b60006126e482611ae6565b91506126ef83611ae6565b9250828203905081811115612707576127066126aa565b5b92915050565b6000610100830161272160008401846122eb565b61272e6000860182612302565b5061273c60208401846122eb565b6127496020860182612302565b5061275760408401846122eb565b6127646040860182612302565b506127726060840184612311565b61277f6060860182612328565b5061278d608084018461236f565b61279a6080860182612386565b506127a860a0840184612311565b6127b560a0860182612328565b506127c360c0840184612311565b6127d060c0860182612328565b506127de60e08401846123a4565b85830360e08701526127f1838284612407565b925050508091505092915050565b60006020820190508181036000830152612819818461270d565b905092915050565b600061282c82611ae6565b915061283783611ae6565b925082820190508082111561284f5761284e6126aa565b5b92915050565b600082825260208201905092915050565b60006128728385612855565b935061287f8385846121b5565b61288883612066565b840190509392505050565b600060408201905081810360008301526128ae818587612866565b90506128bd6020830184611af0565b949350505050565b6128ce81611e44565b82525050565b600060a0820190506128e96000830188611dc7565b6128f66020830187611dc7565b6129036040830186611dc7565b6129106060830185611af0565b61291d60808301846128c5565b9695505050505050565b61293081611f0a565b811461293b57600080fd5b50565b60008151905061294d81612927565b92915050565b6000806040838503121561296a57612969611b24565b5b600061297885828601612168565b92505060206129898582860161293e565b9150509250929050565b7f4e487b7100000000000000000000000000000000000000000000000000000000600052604160045260246000fd5b7f4e487b7100000000000000000000000000000000000000000000000000000000600052603260045260246000fd5b600080fd5b6129ff82612066565b810181811067ffffffffffffffff82111715612a1e57612a1d612993565b5b80604052505050565b6000612a31611b1a565b9050612a3d82826129f6565b919050565b600067ffffffffffffffff821115612a5d57612a5c612993565b5b612a6682612066565b9050602081019050919050565b6000612a86612a8184612a42565b612a27565b905082815260208101848484011115612aa257612aa16129f1565b5b612aad84828561203c565b509392505050565b600082601f830112612aca57612ac9611bde565b5b8151612ada848260208601612a73565b91505092915050565b600060208284031215612af957612af8611b24565b5b600082015167ffffffffffffffff811115612b1757612b16611b29565b5b612b2384828501612ab5565b91505092915050565b600081519050919050565b6000612b4282612b2c565b612b4c8185612202565b9350612b5c81856020860161203c565b612b6581612066565b840191505092915050565b60006020820190508181036000830152612b8a8184612b37565b905092915050565b6000612b9d82611ae6565b91507fffffffffffffffffffffffffffffffffffffffffffffffffffffffffffffffff8203612bcf57612bce6126aa565b5b600182019050919050565b7f4f776e61626c653a206e6577206f776e657220697320746865207a65726f206160008201527f6464726573730000000000000000000000000000000000000000000000000000602082015250565b6000612c36602683612202565b9150612c4182612bda565b604082019050919050565b60006020820190508181036000830152612c6581612c29565b9050919050565b7f646174612074616d706572656400000000000000000000000000000000000000600082015250565b6000612ca2600d83612202565b9150612cad82612c6c565b602082019050919050565b60006020820190508181036000830152612cd181612c95565b9050919050565b6000606082019050612ced6000830186611dc7565b612cfa6020830185611dc7565b612d076040830184611af0565b949350505050565b6000612d1a82612020565b612d2481856121aa565b9350612d3481856020860161203c565b80840191505092915050565b6000612d4c8284612d0f565b915081905092915050565b600081519050612d6681612343565b92915050565b600060208284031215612d8257612d81611b24565b5b6000612d9084828501612d57565b91505092915050565b7f5472616e7366657248656c7065723a736166655472616e7366657246726f6d00600082015250565b6000612dcf601f83612202565b9150612dda82612d99565b602082019050919050565b60006020820190508181036000830152612dfe81612dc2565b9050919050565b6000604082019050612e1a6000830185611dc7565b612e276020830184611af0565b9392505050565b7f5472616e7366657248656c7065723a736166655472616e736665720000000000600082015250565b6000612e64601b83612202565b9150612e6f82612e2e565b602082019050919050565b60006020820190508181036000830152612e9381612e57565b9050919050565b7f5472616e7366657248656c7065723a73616665417070726f7665000000000000600082015250565b6000612ed0601a83612202565b9150612edb82612e9a565b602082019050919050565b60006020820190508181036000830152612eff81612ec3565b9050919050565b7f5472616e7366657248656c7065723a736166655472616e736665724554480000600082015250565b6000612f3c601e83612202565b9150612f4782612f06565b602082019050919050565b60006020820190508181036000830152612f6b81612f2f565b9050919050565b7f45786368616e676541676772656761746f723a3a5361666543616c6c65723a7360008201527f61666543616c6c00000000000000000000000000000000000000000000000000602082015250565b6000612fce602783612202565b9150612fd982612f72565b604082019050919050565b60006020820190508181036000830152612ffd81612fc1565b9050919050565b7f4f776e61626c653a2063616c6c6572206973206e6f7420746865206f776e6572600082015250565b600061303a602083612202565b915061304582613004565b602082019050919050565b600060208201905081810360008301526130698161302d565b9050919050565b7f4e487b7100000000000000000000000000000000000000000000000000000000600052602160045260246000fd5b7f45434453413a20696e76616c6964207369676e61747572650000000000000000600082015250565b60006130d5601883612202565b91506130e08261309f565b602082019050919050565b60006020820190508181036000830152613104816130c8565b9050919050565b7f45434453413a20696e76616c6964207369676e6174757265206c656e67746800600082015250565b6000613141601f83612202565b915061314c8261310b565b602082019050919050565b6000602082019050818103600083015261317081613134565b9050919050565b7f45434453413a20696e76616c6964207369676e6174757265202773272076616c60008201527f7565000000000000000000000000000000000000000000000000000000000000602082015250565b60006131d3602283612202565b91506131de82613177565b604082019050919050565b60006020820190508181036000830152613202816131c6565b9050919050565b6000819050919050565b61321c81613209565b82525050565b60006080820190506132376000830187613213565b61324460208301866128c5565b6132516040830185613213565b61325e6060830184613213565b9594505050505056fea26469706673582212201a253159ed8869166abce26424f79daa464c684fdd7ba915238ad83d57b0c52164736f6c63430008120033",
					"opcodes": "PUSH1 0x80 PUSH1 0x40 MSTORE CALLVALUE DUP1 ISZERO PUSH3 0x11 JUMPI PUSH1 0x0 DUP1 REVERT JUMPDEST POP PUSH3 0x32 PUSH3 0x26 PUSH3 0x79 PUSH1 0x20 SHL PUSH1 0x20 SHR JUMP JUMPDEST PUSH3 0x81 PUSH1 0x20 SHL PUSH1 0x20 SHR JUMP JUMPDEST CALLER PUSH1 0x1 PUSH1 0x0 PUSH2 0x100 EXP DUP2 SLOAD DUP2 PUSH20 0xFFFFFFFFFFFFFFFFFFFFFFFFFFFFFFFFFFFFFFFF MUL NOT AND SWAP1 DUP4 PUSH20 0xFFFFFFFFFFFFFFFFFFFFFFFFFFFFFFFFFFFFFFFF AND MUL OR SWAP1 SSTORE POP PUSH3 0x145 JUMP JUMPDEST PUSH1 0x0 CALLER SWAP1 POP SWAP1 JUMP JUMPDEST PUSH1 0x0 DUP1 PUSH1 0x0 SWAP1 SLOAD SWAP1 PUSH2 0x100 EXP SWAP1 DIV PUSH20 0xFFFFFFFFFFFFFFFFFFFFFFFFFFFFFFFFFFFFFFFF AND SWAP1 POP DUP2 PUSH1 0x0 DUP1 PUSH2 0x100 EXP DUP2 SLOAD DUP2 PUSH20 0xFFFFFFFFFFFFFFFFFFFFFFFFFFFFFFFFFFFFFFFF MUL NOT AND SWAP1 DUP4 PUSH20 0xFFFFFFFFFFFFFFFFFFFFFFFFFFFFFFFFFFFFFFFF AND MUL OR SWAP1 SSTORE POP DUP2 PUSH20 0xFFFFFFFFFFFFFFFFFFFFFFFFFFFFFFFFFFFFFFFF AND DUP2 PUSH20 0xFFFFFFFFFFFFFFFFFFFFFFFFFFFFFFFFFFFFFFFF AND PUSH32 0x8BE0079C531659141344CD1FD0A4F28419497F9722A3DAAFE3B4186F6B6457E0 PUSH1 0x40 MLOAD PUSH1 0x40 MLOAD DUP1 SWAP2 SUB SWAP1 LOG3 POP POP JUMP JUMPDEST PUSH2 0x329D DUP1 PUSH3 0x155 PUSH1 0x0 CODECOPY PUSH1 0x0 RETURN INVALID PUSH1 0x80 PUSH1 0x40 MSTORE PUSH1 0x4 CALLDATASIZE LT PUSH2 0xE1 JUMPI PUSH1 0x0 CALLDATALOAD PUSH1 0xE0 SHR DUP1 PUSH4 0x8DA5CB5B GT PUSH2 0x7F JUMPI DUP1 PUSH4 0xAC9650D8 GT PUSH2 0x59 JUMPI DUP1 PUSH4 0xAC9650D8 EQ PUSH2 0x27D JUMPI DUP1 PUSH4 0xDDD0FCD5 EQ PUSH2 0x2AD JUMPI DUP1 PUSH4 0xF2FDE38B EQ PUSH2 0x2D6 JUMPI DUP1 PUSH4 0xF61DB740 EQ PUSH2 0x2FF JUMPI PUSH2 0xE8 JUMP JUMPDEST DUP1 PUSH4 0x8DA5CB5B EQ PUSH2 0x1EB JUMPI DUP1 PUSH4 0x9B1BFA7F EQ PUSH2 0x216 JUMPI DUP1 PUSH4 0xA299ED7D EQ PUSH2 0x23F JUMPI PUSH2 0xE8 JUMP JUMPDEST DUP1 PUSH4 0x3F464FF5 GT PUSH2 0xBB JUMPI DUP1 PUSH4 0x3F464FF5 EQ PUSH2 0x180 JUMPI DUP1 PUSH4 0x566E45B1 EQ PUSH2 0x19C JUMPI DUP1 PUSH4 0x5CEDFDA0 EQ PUSH2 0x1B8 JUMPI DUP1 PUSH4 0x715018A6 EQ PUSH2 0x1D4 JUMPI PUSH2 0xE8 JUMP JUMPDEST DUP1 PUSH4 0x22CEDF7D EQ PUSH2 0xED JUMPI DUP1 PUSH4 0x231DA50D EQ PUSH2 0x118 JUMPI DUP1 PUSH4 0x239FCF0F EQ PUSH2 0x143 JUMPI PUSH2 0xE8 JUMP JUMPDEST CALLDATASIZE PUSH2 0xE8 JUMPI STOP JUMPDEST PUSH1 0x0 DUP1 REVERT JUMPDEST CALLVALUE DUP1 ISZERO PUSH2 0xF9 JUMPI PUSH1 0x0 DUP1 REVERT JUMPDEST POP PUSH2 0x102 PUSH2 0x32A JUMP JUMPDEST PUSH1 0x40 MLOAD PUSH2 0x10F SWAP2 SWAP1 PUSH2 0x1AFF JUMP JUMPDEST PUSH1 0x40 MLOAD DUP1 SWAP2 SUB SWAP1 RETURN JUMPDEST CALLVALUE DUP1 ISZERO PUSH2 0x124 JUMPI PUSH1 0x0 DUP1 REVERT JUMPDEST POP PUSH2 0x12D PUSH2 0x330 JUMP JUMPDEST PUSH1 0x40 MLOAD PUSH2 0x13A SWAP2 SWAP1 PUSH2 0x1AFF JUMP JUMPDEST PUSH1 0x40 MLOAD DUP1 SWAP2 SUB SWAP1 RETURN JUMPDEST CALLVALUE DUP1 ISZERO PUSH2 0x14F JUMPI PUSH1 0x0 DUP1 REVERT JUMPDEST POP PUSH2 0x16A PUSH1 0x4 DUP1 CALLDATASIZE SUB DUP2 ADD SWAP1 PUSH2 0x165 SWAP2 SWAP1 PUSH2 0x1B8C JUMP JUMPDEST PUSH2 0x338 JUMP JUMPDEST PUSH1 0x40 MLOAD PUSH2 0x177 SWAP2 SWAP1 PUSH2 0x1AFF JUMP JUMPDEST PUSH1 0x40 MLOAD DUP1 SWAP2 SUB SWAP1 RETURN JUMPDEST PUSH2 0x19A PUSH1 0x4 DUP1 CALLDATASIZE SUB DUP2 ADD SWAP1 PUSH2 0x195 SWAP2 SWAP1 PUSH2 0x1C43 JUMP JUMPDEST PUSH2 0x3BB JUMP JUMPDEST STOP JUMPDEST PUSH2 0x1B6 PUSH1 0x4 DUP1 CALLDATASIZE SUB DUP2 ADD SWAP1 PUSH2 0x1B1 SWAP2 SWAP1 PUSH2 0x1CEB JUMP JUMPDEST PUSH2 0x8B0 JUMP JUMPDEST STOP JUMPDEST PUSH2 0x1D2 PUSH1 0x4 DUP1 CALLDATASIZE SUB DUP2 ADD SWAP1 PUSH2 0x1CD SWAP2 SWAP1 PUSH2 0x1D4B JUMP JUMPDEST PUSH2 0x8C6 JUMP JUMPDEST STOP JUMPDEST CALLVALUE DUP1 ISZERO PUSH2 0x1E0 JUMPI PUSH1 0x0 DUP1 REVERT JUMPDEST POP PUSH2 0x1E9 PUSH2 0xC2C JUMP JUMPDEST STOP JUMPDEST CALLVALUE DUP1 ISZERO PUSH2 0x1F7 JUMPI PUSH1 0x0 DUP1 REVERT JUMPDEST POP PUSH2 0x200 PUSH2 0xC40 JUMP JUMPDEST PUSH1 0x40 MLOAD PUSH2 0x20D SWAP2 SWAP1 PUSH2 0x1DD6 JUMP JUMPDEST PUSH1 0x40 MLOAD DUP1 SWAP2 SUB SWAP1 RETURN JUMPDEST CALLVALUE DUP1 ISZERO PUSH2 0x222 JUMPI PUSH1 0x0 DUP1 REVERT JUMPDEST POP PUSH2 0x23D PUSH1 0x4 DUP1 CALLDATASIZE SUB DUP2 ADD SWAP1 PUSH2 0x238 SWAP2 SWAP1 PUSH2 0x1DF1 JUMP JUMPDEST PUSH2 0xC69 JUMP JUMPDEST STOP JUMPDEST CALLVALUE DUP1 ISZERO PUSH2 0x24B JUMPI PUSH1 0x0 DUP1 REVERT JUMPDEST POP PUSH2 0x266 PUSH1 0x4 DUP1 CALLDATASIZE SUB DUP2 ADD SWAP1 PUSH2 0x261 SWAP2 SWAP1 PUSH2 0x1E7D JUMP JUMPDEST PUSH2 0xC81 JUMP JUMPDEST PUSH1 0x40 MLOAD PUSH2 0x274 SWAP3 SWAP2 SWAP1 PUSH2 0x1F28 JUMP JUMPDEST PUSH1 0x40 MLOAD DUP1 SWAP2 SUB SWAP1 RETURN JUMPDEST PUSH2 0x297 PUSH1 0x4 DUP1 CALLDATASIZE SUB DUP2 ADD SWAP1 PUSH2 0x292 SWAP2 SWAP1 PUSH2 0x1FA7 JUMP JUMPDEST PUSH2 0xD14 JUMP JUMPDEST PUSH1 0x40 MLOAD PUSH2 0x2A4 SWAP2 SWAP1 PUSH2 0x2146 JUMP JUMPDEST PUSH1 0x40 MLOAD DUP1 SWAP2 SUB SWAP1 RETURN JUMPDEST CALLVALUE DUP1 ISZERO PUSH2 0x2B9 JUMPI PUSH1 0x0 DUP1 REVERT JUMPDEST POP PUSH2 0x2D4 PUSH1 0x4 DUP1 CALLDATASIZE SUB DUP2 ADD SWAP1 PUSH2 0x2CF SWAP2 SWAP1 PUSH2 0x1B8C JUMP JUMPDEST PUSH2 0xEAE JUMP JUMPDEST STOP JUMPDEST CALLVALUE DUP1 ISZERO PUSH2 0x2E2 JUMPI PUSH1 0x0 DUP1 REVERT JUMPDEST POP PUSH2 0x2FD PUSH1 0x4 DUP1 CALLDATASIZE SUB DUP2 ADD SWAP1 PUSH2 0x2F8 SWAP2 SWAP1 PUSH2 0x1B8C JUMP JUMPDEST PUSH2 0xEFA JUMP JUMPDEST STOP JUMPDEST CALLVALUE DUP1 ISZERO PUSH2 0x30B JUMPI PUSH1 0x0 DUP1 REVERT JUMPDEST POP PUSH2 0x314 PUSH2 0xF7D JUMP JUMPDEST PUSH1 0x40 MLOAD PUSH2 0x321 SWAP2 SWAP1 PUSH2 0x1DD6 JUMP JUMPDEST PUSH1 0x40 MLOAD DUP1 SWAP2 SUB SWAP1 RETURN JUMPDEST PUSH1 0x3 SLOAD DUP2 JUMP JUMPDEST PUSH1 0x0 SELFBALANCE SWAP1 POP SWAP1 JUMP JUMPDEST PUSH1 0x0 DUP2 PUSH20 0xFFFFFFFFFFFFFFFFFFFFFFFFFFFFFFFFFFFFFFFF AND PUSH4 0x70A08231 ADDRESS PUSH1 0x40 MLOAD DUP3 PUSH4 0xFFFFFFFF AND PUSH1 0xE0 SHL DUP2 MSTORE PUSH1 0x4 ADD PUSH2 0x373 SWAP2 SWAP1 PUSH2 0x1DD6 JUMP JUMPDEST PUSH1 0x20 PUSH1 0x40 MLOAD DUP1 DUP4 SUB DUP2 DUP7 GAS STATICCALL ISZERO DUP1 ISZERO PUSH2 0x390 JUMPI RETURNDATASIZE PUSH1 0x0 DUP1 RETURNDATACOPY RETURNDATASIZE PUSH1 0x0 REVERT JUMPDEST POP POP POP POP PUSH1 0x40 MLOAD RETURNDATASIZE PUSH1 0x1F NOT PUSH1 0x1F DUP3 ADD AND DUP3 ADD DUP1 PUSH1 0x40 MSTORE POP DUP2 ADD SWAP1 PUSH2 0x3B4 SWAP2 SWAP1 PUSH2 0x217D JUMP JUMPDEST SWAP1 POP SWAP2 SWAP1 POP JUMP JUMPDEST DUP2 DUP2 PUSH1 0x2 DUP3 DUP3 PUSH1 0x40 MLOAD PUSH2 0x3CF SWAP3 SWAP2 SWAP1 PUSH2 0x21E9 JUMP JUMPDEST SWAP1 DUP2 MSTORE PUSH1 0x20 ADD PUSH1 0x40 MLOAD DUP1 SWAP2 SUB SWAP1 KECCAK256 PUSH1 0x0 SWAP1 SLOAD SWAP1 PUSH2 0x100 EXP SWAP1 DIV PUSH1 0xFF AND ISZERO PUSH2 0x42B JUMPI PUSH1 0x40 MLOAD PUSH32 0x8C379A000000000000000000000000000000000000000000000000000000000 DUP2 MSTORE PUSH1 0x4 ADD PUSH2 0x422 SWAP1 PUSH2 0x225F JUMP JUMPDEST PUSH1 0x40 MLOAD DUP1 SWAP2 SUB SWAP1 REVERT JUMPDEST CALLER PUSH20 0xFFFFFFFFFFFFFFFFFFFFFFFFFFFFFFFFFFFFFFFF AND DUP6 PUSH2 0x100 ADD PUSH1 0x20 DUP2 ADD SWAP1 PUSH2 0x456 SWAP2 SWAP1 PUSH2 0x1B8C JUMP JUMPDEST PUSH20 0xFFFFFFFFFFFFFFFFFFFFFFFFFFFFFFFFFFFFFFFF AND EQ PUSH2 0x4AC JUMPI PUSH1 0x40 MLOAD PUSH32 0x8C379A000000000000000000000000000000000000000000000000000000000 DUP2 MSTORE PUSH1 0x4 ADD PUSH2 0x4A3 SWAP1 PUSH2 0x22CB JUMP JUMPDEST PUSH1 0x40 MLOAD DUP1 SWAP2 SUB SWAP1 REVERT JUMPDEST PUSH2 0x521 PUSH2 0x4B7 PUSH2 0xC40 JUMP JUMPDEST DUP7 PUSH1 0x40 MLOAD PUSH1 0x20 ADD PUSH2 0x4C8 SWAP2 SWAP1 PUSH2 0x257D JUMP JUMPDEST PUSH1 0x40 MLOAD PUSH1 0x20 DUP2 DUP4 SUB SUB DUP2 MSTORE SWAP1 PUSH1 0x40 MSTORE DUP7 DUP7 DUP1 DUP1 PUSH1 0x1F ADD PUSH1 0x20 DUP1 SWAP2 DIV MUL PUSH1 0x20 ADD PUSH1 0x40 MLOAD SWAP1 DUP2 ADD PUSH1 0x40 MSTORE DUP1 SWAP4 SWAP3 SWAP2 SWAP1 DUP2 DUP2 MSTORE PUSH1 0x20 ADD DUP4 DUP4 DUP1 DUP3 DUP5 CALLDATACOPY PUSH1 0x0 DUP2 DUP5 ADD MSTORE PUSH1 0x1F NOT PUSH1 0x1F DUP3 ADD AND SWAP1 POP DUP1 DUP4 ADD SWAP3 POP POP POP POP POP POP POP PUSH2 0xFA3 JUMP JUMPDEST PUSH1 0x0 DUP6 PUSH2 0x140 ADD PUSH1 0x20 DUP2 ADD SWAP1 PUSH2 0x537 SWAP2 SWAP1 PUSH2 0x259F JUMP JUMPDEST PUSH2 0x5FE JUMPI DUP6 PUSH1 0xA0 ADD PUSH1 0x20 DUP2 ADD SWAP1 PUSH2 0x54E SWAP2 SWAP1 PUSH2 0x259F JUMP JUMPDEST PUSH2 0x575 JUMPI PUSH2 0x574 DUP7 PUSH1 0x0 ADD PUSH1 0x20 DUP2 ADD SWAP1 PUSH2 0x568 SWAP2 SWAP1 PUSH2 0x1B8C JUMP JUMPDEST CALLER ADDRESS DUP10 PUSH1 0x40 ADD CALLDATALOAD PUSH2 0x110F JUMP JUMPDEST JUMPDEST PUSH1 0x0 DUP7 PUSH1 0x60 ADD CALLDATALOAD GT ISZERO PUSH2 0x5C6 JUMPI PUSH2 0x5C5 DUP7 PUSH1 0x0 ADD PUSH1 0x20 DUP2 ADD SWAP1 PUSH2 0x598 SWAP2 SWAP1 PUSH2 0x1B8C JUMP JUMPDEST PUSH1 0x1 PUSH1 0x0 SWAP1 SLOAD SWAP1 PUSH2 0x100 EXP SWAP1 DIV PUSH20 0xFFFFFFFFFFFFFFFFFFFFFFFFFFFFFFFFFFFFFFFF AND DUP9 PUSH1 0x60 ADD CALLDATALOAD PUSH2 0x1248 JUMP JUMPDEST JUMPDEST PUSH2 0x5F9 DUP7 PUSH1 0x0 ADD PUSH1 0x20 DUP2 ADD SWAP1 PUSH2 0x5DC SWAP2 SWAP1 PUSH2 0x1B8C JUMP JUMPDEST DUP8 PUSH1 0xC0 ADD PUSH1 0x20 DUP2 ADD SWAP1 PUSH2 0x5EF SWAP2 SWAP1 PUSH2 0x1B8C JUMP JUMPDEST DUP9 PUSH1 0x80 ADD CALLDATALOAD PUSH2 0x137E JUMP JUMPDEST PUSH2 0x67D JUMP JUMPDEST DUP6 PUSH1 0x40 ADD CALLDATALOAD CALLVALUE LT ISZERO PUSH2 0x645 JUMPI PUSH1 0x40 MLOAD PUSH32 0x8C379A000000000000000000000000000000000000000000000000000000000 DUP2 MSTORE PUSH1 0x4 ADD PUSH2 0x63C SWAP1 PUSH2 0x2618 JUMP JUMPDEST PUSH1 0x40 MLOAD DUP1 SWAP2 SUB SWAP1 REVERT JUMPDEST PUSH2 0x675 PUSH1 0x1 PUSH1 0x0 SWAP1 SLOAD SWAP1 PUSH2 0x100 EXP SWAP1 DIV PUSH20 0xFFFFFFFFFFFFFFFFFFFFFFFFFFFFFFFFFFFFFFFF AND DUP8 PUSH1 0x60 ADD CALLDATALOAD PUSH2 0x14B4 JUMP JUMPDEST DUP6 PUSH1 0x80 ADD CALLDATALOAD SWAP1 POP JUMPDEST PUSH1 0x0 DUP7 PUSH1 0x20 ADD PUSH1 0x20 DUP2 ADD SWAP1 PUSH2 0x692 SWAP2 SWAP1 PUSH2 0x1B8C JUMP JUMPDEST PUSH20 0xFFFFFFFFFFFFFFFFFFFFFFFFFFFFFFFFFFFFFFFF AND PUSH4 0x70A08231 ADDRESS PUSH1 0x40 MLOAD DUP3 PUSH4 0xFFFFFFFF AND PUSH1 0xE0 SHL DUP2 MSTORE PUSH1 0x4 ADD PUSH2 0x6CA SWAP2 SWAP1 PUSH2 0x1DD6 JUMP JUMPDEST PUSH1 0x20 PUSH1 0x40 MLOAD DUP1 DUP4 SUB DUP2 DUP7 GAS STATICCALL ISZERO DUP1 ISZERO PUSH2 0x6E7 JUMPI RETURNDATASIZE PUSH1 0x0 DUP1 RETURNDATACOPY RETURNDATASIZE PUSH1 0x0 REVERT JUMPDEST POP POP POP POP PUSH1 0x40 MLOAD RETURNDATASIZE PUSH1 0x1F NOT PUSH1 0x1F DUP3 ADD AND DUP3 ADD DUP1 PUSH1 0x40 MSTORE POP DUP2 ADD SWAP1 PUSH2 0x70B SWAP2 SWAP1 PUSH2 0x217D JUMP JUMPDEST SWAP1 POP PUSH2 0x77C DUP8 PUSH1 0xC0 ADD PUSH1 0x20 DUP2 ADD SWAP1 PUSH2 0x723 SWAP2 SWAP1 PUSH2 0x1B8C JUMP JUMPDEST DUP4 DUP10 DUP1 PUSH1 0xE0 ADD SWAP1 PUSH2 0x734 SWAP2 SWAP1 PUSH2 0x2647 JUMP JUMPDEST DUP1 DUP1 PUSH1 0x1F ADD PUSH1 0x20 DUP1 SWAP2 DIV MUL PUSH1 0x20 ADD PUSH1 0x40 MLOAD SWAP1 DUP2 ADD PUSH1 0x40 MSTORE DUP1 SWAP4 SWAP3 SWAP2 SWAP1 DUP2 DUP2 MSTORE PUSH1 0x20 ADD DUP4 DUP4 DUP1 DUP3 DUP5 CALLDATACOPY PUSH1 0x0 DUP2 DUP5 ADD MSTORE PUSH1 0x1F NOT PUSH1 0x1F DUP3 ADD AND SWAP1 POP DUP1 DUP4 ADD SWAP3 POP POP POP POP POP POP POP PUSH2 0x15B4 JUMP JUMPDEST PUSH1 0x0 DUP8 PUSH1 0x20 ADD PUSH1 0x20 DUP2 ADD SWAP1 PUSH2 0x791 SWAP2 SWAP1 PUSH2 0x1B8C JUMP JUMPDEST PUSH20 0xFFFFFFFFFFFFFFFFFFFFFFFFFFFFFFFFFFFFFFFF AND PUSH4 0x70A08231 ADDRESS PUSH1 0x40 MLOAD DUP3 PUSH4 0xFFFFFFFF AND PUSH1 0xE0 SHL DUP2 MSTORE PUSH1 0x4 ADD PUSH2 0x7C9 SWAP2 SWAP1 PUSH2 0x1DD6 JUMP JUMPDEST PUSH1 0x20 PUSH1 0x40 MLOAD DUP1 DUP4 SUB DUP2 DUP7 GAS STATICCALL ISZERO DUP1 ISZERO PUSH2 0x7E6 JUMPI RETURNDATASIZE PUSH1 0x0 DUP1 RETURNDATACOPY RETURNDATASIZE PUSH1 0x0 REVERT JUMPDEST POP POP POP POP PUSH1 0x40 MLOAD RETURNDATASIZE PUSH1 0x1F NOT PUSH1 0x1F DUP3 ADD AND DUP3 ADD DUP1 PUSH1 0x40 MSTORE POP DUP2 ADD SWAP1 PUSH2 0x80A SWAP2 SWAP1 PUSH2 0x217D JUMP JUMPDEST SWAP1 POP DUP2 DUP2 GT ISZERO PUSH2 0x82B JUMPI DUP2 DUP2 PUSH2 0x820 SWAP2 SWAP1 PUSH2 0x26D9 JUMP JUMPDEST PUSH1 0x3 DUP2 SWAP1 SSTORE POP PUSH2 0x834 JUMP JUMPDEST PUSH1 0x0 PUSH1 0x3 DUP2 SWAP1 SSTORE POP JUMPDEST PUSH1 0x1 PUSH1 0x2 DUP9 DUP9 PUSH1 0x40 MLOAD PUSH2 0x848 SWAP3 SWAP2 SWAP1 PUSH2 0x21E9 JUMP JUMPDEST SWAP1 DUP2 MSTORE PUSH1 0x20 ADD PUSH1 0x40 MLOAD DUP1 SWAP2 SUB SWAP1 KECCAK256 PUSH1 0x0 PUSH2 0x100 EXP DUP2 SLOAD DUP2 PUSH1 0xFF MUL NOT AND SWAP1 DUP4 ISZERO ISZERO MUL OR SWAP1 SSTORE POP POP POP POP PUSH1 0x1 PUSH1 0x2 DUP4 DUP4 PUSH1 0x40 MLOAD PUSH2 0x884 SWAP3 SWAP2 SWAP1 PUSH2 0x21E9 JUMP JUMPDEST SWAP1 DUP2 MSTORE PUSH1 0x20 ADD PUSH1 0x40 MLOAD DUP1 SWAP2 SUB SWAP1 KECCAK256 PUSH1 0x0 PUSH2 0x100 EXP DUP2 SLOAD DUP2 PUSH1 0xFF MUL NOT AND SWAP1 DUP4 ISZERO ISZERO MUL OR SWAP1 SSTORE POP POP POP POP POP POP JUMP JUMPDEST PUSH2 0x8B8 PUSH2 0x16CB JUMP JUMPDEST PUSH2 0x8C2 DUP3 DUP3 PUSH2 0x14B4 JUMP JUMPDEST POP POP JUMP JUMPDEST DUP2 DUP2 PUSH1 0x2 DUP3 DUP3 PUSH1 0x40 MLOAD PUSH2 0x8DA SWAP3 SWAP2 SWAP1 PUSH2 0x21E9 JUMP JUMPDEST SWAP1 DUP2 MSTORE PUSH1 0x20 ADD PUSH1 0x40 MLOAD DUP1 SWAP2 SUB SWAP1 KECCAK256 PUSH1 0x0 SWAP1 SLOAD SWAP1 PUSH2 0x100 EXP SWAP1 DIV PUSH1 0xFF AND ISZERO PUSH2 0x936 JUMPI PUSH1 0x40 MLOAD PUSH32 0x8C379A000000000000000000000000000000000000000000000000000000000 DUP2 MSTORE PUSH1 0x4 ADD PUSH2 0x92D SWAP1 PUSH2 0x225F JUMP JUMPDEST PUSH1 0x40 MLOAD DUP1 SWAP2 SUB SWAP1 REVERT JUMPDEST CALLER PUSH20 0xFFFFFFFFFFFFFFFFFFFFFFFFFFFFFFFFFFFFFFFF AND DUP6 PUSH1 0x40 ADD PUSH1 0x20 DUP2 ADD SWAP1 PUSH2 0x960 SWAP2 SWAP1 PUSH2 0x1B8C JUMP JUMPDEST PUSH20 0xFFFFFFFFFFFFFFFFFFFFFFFFFFFFFFFFFFFFFFFF AND EQ PUSH2 0x9B6 JUMPI PUSH1 0x40 MLOAD PUSH32 0x8C379A000000000000000000000000000000000000000000000000000000000 DUP2 MSTORE PUSH1 0x4 ADD PUSH2 0x9AD SWAP1 PUSH2 0x22CB JUMP JUMPDEST PUSH1 0x40 MLOAD DUP1 SWAP2 SUB SWAP1 REVERT JUMPDEST DUP5 PUSH1 0x60 ADD CALLDATALOAD CALLVALUE LT ISZERO PUSH2 0x9FD JUMPI PUSH1 0x40 MLOAD PUSH32 0x8C379A000000000000000000000000000000000000000000000000000000000 DUP2 MSTORE PUSH1 0x4 ADD PUSH2 0x9F4 SWAP1 PUSH2 0x2618 JUMP JUMPDEST PUSH1 0x40 MLOAD DUP1 SWAP2 SUB SWAP1 REVERT JUMPDEST PUSH2 0xA72 PUSH2 0xA08 PUSH2 0xC40 JUMP JUMPDEST DUP7 PUSH1 0x40 MLOAD PUSH1 0x20 ADD PUSH2 0xA19 SWAP2 SWAP1 PUSH2 0x27FF JUMP JUMPDEST PUSH1 0x40 MLOAD PUSH1 0x20 DUP2 DUP4 SUB SUB DUP2 MSTORE SWAP1 PUSH1 0x40 MSTORE DUP7 DUP7 DUP1 DUP1 PUSH1 0x1F ADD PUSH1 0x20 DUP1 SWAP2 DIV MUL PUSH1 0x20 ADD PUSH1 0x40 MLOAD SWAP1 DUP2 ADD PUSH1 0x40 MSTORE DUP1 SWAP4 SWAP3 SWAP2 SWAP1 DUP2 DUP2 MSTORE PUSH1 0x20 ADD DUP4 DUP4 DUP1 DUP3 DUP5 CALLDATACOPY PUSH1 0x0 DUP2 DUP5 ADD MSTORE PUSH1 0x1F NOT PUSH1 0x1F DUP3 ADD AND SWAP1 POP DUP1 DUP4 ADD SWAP3 POP POP POP POP POP POP POP PUSH2 0xFA3 JUMP JUMPDEST PUSH1 0x0 DUP6 PUSH1 0x80 ADD PUSH1 0x20 DUP2 ADD SWAP1 PUSH2 0xA87 SWAP2 SWAP1 PUSH2 0x259F JUMP JUMPDEST ISZERO PUSH2 0xA9E JUMPI PUSH1 0x3 SLOAD SWAP1 POP PUSH1 0x0 PUSH1 0x3 DUP2 SWAP1 SSTORE POP PUSH2 0xB28 JUMP JUMPDEST PUSH2 0xACF DUP7 PUSH1 0x20 ADD PUSH1 0x20 DUP2 ADD SWAP1 PUSH2 0xAB4 SWAP2 SWAP1 PUSH2 0x1B8C JUMP JUMPDEST CALLER ADDRESS DUP10 PUSH1 0xC0 ADD CALLDATALOAD DUP11 PUSH1 0xA0 ADD CALLDATALOAD PUSH2 0xACA SWAP2 SWAP1 PUSH2 0x2821 JUMP JUMPDEST PUSH2 0x110F JUMP JUMPDEST PUSH1 0x0 DUP7 PUSH1 0xC0 ADD CALLDATALOAD GT ISZERO PUSH2 0xB20 JUMPI PUSH2 0xB1F DUP7 PUSH1 0x20 ADD PUSH1 0x20 DUP2 ADD SWAP1 PUSH2 0xAF2 SWAP2 SWAP1 PUSH2 0x1B8C JUMP JUMPDEST PUSH1 0x1 PUSH1 0x0 SWAP1 SLOAD SWAP1 PUSH2 0x100 EXP SWAP1 DIV PUSH20 0xFFFFFFFFFFFFFFFFFFFFFFFFFFFFFFFFFFFFFFFF AND DUP9 PUSH1 0xC0 ADD CALLDATALOAD PUSH2 0x1248 JUMP JUMPDEST JUMPDEST DUP6 PUSH1 0xA0 ADD CALLDATALOAD SWAP1 POP JUMPDEST PUSH2 0xB57 DUP7 PUSH1 0x20 ADD PUSH1 0x20 DUP2 ADD SWAP1 PUSH2 0xB3E SWAP2 SWAP1 PUSH2 0x1B8C JUMP JUMPDEST DUP8 PUSH1 0x0 ADD PUSH1 0x20 DUP2 ADD SWAP1 PUSH2 0xB51 SWAP2 SWAP1 PUSH2 0x1B8C JUMP JUMPDEST DUP4 PUSH2 0x137E JUMP JUMPDEST DUP6 PUSH1 0x0 ADD PUSH1 0x20 DUP2 ADD SWAP1 PUSH2 0xB6A SWAP2 SWAP1 PUSH2 0x1B8C JUMP JUMPDEST PUSH20 0xFFFFFFFFFFFFFFFFFFFFFFFFFFFFFFFFFFFFFFFF AND PUSH4 0xA2FB374 DUP8 PUSH1 0x60 ADD CALLDATALOAD DUP9 DUP1 PUSH1 0xE0 ADD SWAP1 PUSH2 0xB9A SWAP2 SWAP1 PUSH2 0x2647 JUMP JUMPDEST DUP6 PUSH1 0x40 MLOAD DUP6 PUSH4 0xFFFFFFFF AND PUSH1 0xE0 SHL DUP2 MSTORE PUSH1 0x4 ADD PUSH2 0xBB9 SWAP4 SWAP3 SWAP2 SWAP1 PUSH2 0x2893 JUMP JUMPDEST PUSH1 0x0 PUSH1 0x40 MLOAD DUP1 DUP4 SUB DUP2 DUP6 DUP9 DUP1 EXTCODESIZE ISZERO DUP1 ISZERO PUSH2 0xBD2 JUMPI PUSH1 0x0 DUP1 REVERT JUMPDEST POP GAS CALL ISZERO DUP1 ISZERO PUSH2 0xBE6 JUMPI RETURNDATASIZE PUSH1 0x0 DUP1 RETURNDATACOPY RETURNDATASIZE PUSH1 0x0 REVERT JUMPDEST POP POP POP POP POP POP PUSH1 0x1 PUSH1 0x2 DUP4 DUP4 PUSH1 0x40 MLOAD PUSH2 0xC00 SWAP3 SWAP2 SWAP1 PUSH2 0x21E9 JUMP JUMPDEST SWAP1 DUP2 MSTORE PUSH1 0x20 ADD PUSH1 0x40 MLOAD DUP1 SWAP2 SUB SWAP1 KECCAK256 PUSH1 0x0 PUSH2 0x100 EXP DUP2 SLOAD DUP2 PUSH1 0xFF MUL NOT AND SWAP1 DUP4 ISZERO ISZERO MUL OR SWAP1 SSTORE POP POP POP POP POP POP JUMP JUMPDEST PUSH2 0xC34 PUSH2 0x16CB JUMP JUMPDEST PUSH2 0xC3E PUSH1 0x0 PUSH2 0x1749 JUMP JUMPDEST JUMP JUMPDEST PUSH1 0x0 DUP1 PUSH1 0x0 SWAP1 SLOAD SWAP1 PUSH2 0x100 EXP SWAP1 DIV PUSH20 0xFFFFFFFFFFFFFFFFFFFFFFFFFFFFFFFFFFFFFFFF AND SWAP1 POP SWAP1 JUMP JUMPDEST PUSH2 0xC71 PUSH2 0x16CB JUMP JUMPDEST PUSH2 0xC7C DUP4 DUP4 DUP4 PUSH2 0x1248 JUMP JUMPDEST POP POP POP JUMP JUMPDEST PUSH1 0x0 DUP1 DUP8 PUSH20 0xFFFFFFFFFFFFFFFFFFFFFFFFFFFFFFFFFFFFFFFF AND PUSH4 0x6110358D DUP9 DUP9 DUP9 DUP9 DUP9 PUSH1 0x40 MLOAD DUP7 PUSH4 0xFFFFFFFF AND PUSH1 0xE0 SHL DUP2 MSTORE PUSH1 0x4 ADD PUSH2 0xCC5 SWAP6 SWAP5 SWAP4 SWAP3 SWAP2 SWAP1 PUSH2 0x28D4 JUMP JUMPDEST PUSH1 0x40 DUP1 MLOAD DUP1 DUP4 SUB DUP2 DUP7 GAS STATICCALL ISZERO DUP1 ISZERO PUSH2 0xCE1 JUMPI RETURNDATASIZE PUSH1 0x0 DUP1 RETURNDATACOPY RETURNDATASIZE PUSH1 0x0 REVERT JUMPDEST POP POP POP POP PUSH1 0x40 MLOAD RETURNDATASIZE PUSH1 0x1F NOT PUSH1 0x1F DUP3 ADD AND DUP3 ADD DUP1 PUSH1 0x40 MSTORE POP DUP2 ADD SWAP1 PUSH2 0xD05 SWAP2 SWAP1 PUSH2 0x2953 JUMP JUMPDEST SWAP2 POP SWAP2 POP SWAP7 POP SWAP7 SWAP5 POP POP POP POP POP JUMP JUMPDEST PUSH1 0x60 DUP3 DUP3 SWAP1 POP PUSH8 0xFFFFFFFFFFFFFFFF DUP2 GT ISZERO PUSH2 0xD33 JUMPI PUSH2 0xD32 PUSH2 0x2993 JUMP JUMPDEST JUMPDEST PUSH1 0x40 MLOAD SWAP1 DUP1 DUP3 MSTORE DUP1 PUSH1 0x20 MUL PUSH1 0x20 ADD DUP3 ADD PUSH1 0x40 MSTORE DUP1 ISZERO PUSH2 0xD66 JUMPI DUP2 PUSH1 0x20 ADD JUMPDEST PUSH1 0x60 DUP2 MSTORE PUSH1 0x20 ADD SWAP1 PUSH1 0x1 SWAP1 SUB SWAP1 DUP2 PUSH2 0xD51 JUMPI SWAP1 POP JUMPDEST POP SWAP1 POP PUSH1 0x0 JUMPDEST DUP4 DUP4 SWAP1 POP DUP2 LT ISZERO PUSH2 0xEA7 JUMPI PUSH1 0x0 DUP1 ADDRESS PUSH20 0xFFFFFFFFFFFFFFFFFFFFFFFFFFFFFFFFFFFFFFFF AND DUP7 DUP7 DUP6 DUP2 DUP2 LT PUSH2 0xDA4 JUMPI PUSH2 0xDA3 PUSH2 0x29C2 JUMP JUMPDEST JUMPDEST SWAP1 POP PUSH1 0x20 MUL DUP2 ADD SWAP1 PUSH2 0xDB6 SWAP2 SWAP1 PUSH2 0x2647 JUMP JUMPDEST PUSH1 0x40 MLOAD PUSH2 0xDC4 SWAP3 SWAP2 SWAP1 PUSH2 0x21E9 JUMP JUMPDEST PUSH1 0x0 PUSH1 0x40 MLOAD DUP1 DUP4 SUB DUP2 DUP6 GAS DELEGATECALL SWAP2 POP POP RETURNDATASIZE DUP1 PUSH1 0x0 DUP2 EQ PUSH2 0xDFF JUMPI PUSH1 0x40 MLOAD SWAP2 POP PUSH1 0x1F NOT PUSH1 0x3F RETURNDATASIZE ADD AND DUP3 ADD PUSH1 0x40 MSTORE RETURNDATASIZE DUP3 MSTORE RETURNDATASIZE PUSH1 0x0 PUSH1 0x20 DUP5 ADD RETURNDATACOPY PUSH2 0xE04 JUMP JUMPDEST PUSH1 0x60 SWAP2 POP JUMPDEST POP SWAP2 POP SWAP2 POP DUP2 PUSH2 0xE73 JUMPI PUSH1 0x44 DUP2 MLOAD LT ISZERO PUSH2 0xE1D JUMPI PUSH1 0x0 DUP1 REVERT JUMPDEST PUSH1 0x4 DUP2 ADD SWAP1 POP DUP1 DUP1 PUSH1 0x20 ADD SWAP1 MLOAD DUP2 ADD SWAP1 PUSH2 0xE37 SWAP2 SWAP1 PUSH2 0x2AE3 JUMP JUMPDEST PUSH1 0x40 MLOAD PUSH32 0x8C379A000000000000000000000000000000000000000000000000000000000 DUP2 MSTORE PUSH1 0x4 ADD PUSH2 0xE6A SWAP2 SWAP1 PUSH2 0x2B70 JUMP JUMPDEST PUSH1 0x40 MLOAD DUP1 SWAP2 SUB SWAP1 REVERT JUMPDEST DUP1 DUP5 DUP5 DUP2 MLOAD DUP2 LT PUSH2 0xE87 JUMPI PUSH2 0xE86 PUSH2 0x29C2 JUMP JUMPDEST JUMPDEST PUSH1 0x20 MUL PUSH1 0x20 ADD ADD DUP2 SWAP1 MSTORE POP POP POP DUP1 DUP1 PUSH2 0xE9F SWAP1 PUSH2 0x2B92 JUMP JUMPDEST SWAP2 POP POP PUSH2 0xD6C JUMP JUMPDEST POP SWAP3 SWAP2 POP POP JUMP JUMPDEST PUSH2 0xEB6 PUSH2 0x16CB JUMP JUMPDEST DUP1 PUSH1 0x1 PUSH1 0x0 PUSH2 0x100 EXP DUP2 SLOAD DUP2 PUSH20 0xFFFFFFFFFFFFFFFFFFFFFFFFFFFFFFFFFFFFFFFF MUL NOT AND SWAP1 DUP4 PUSH20 0xFFFFFFFFFFFFFFFFFFFFFFFFFFFFFFFFFFFFFFFF AND MUL OR SWAP1 SSTORE POP POP JUMP JUMPDEST PUSH2 0xF02 PUSH2 0x16CB JUMP JUMPDEST PUSH1 0x0 PUSH20 0xFFFFFFFFFFFFFFFFFFFFFFFFFFFFFFFFFFFFFFFF AND DUP2 PUSH20 0xFFFFFFFFFFFFFFFFFFFFFFFFFFFFFFFFFFFFFFFF AND SUB PUSH2 0xF71 JUMPI PUSH1 0x40 MLOAD PUSH32 0x8C379A000000000000000000000000000000000000000000000000000000000 DUP2 MSTORE PUSH1 0x4 ADD PUSH2 0xF68 SWAP1 PUSH2 0x2C4C JUMP JUMPDEST PUSH1 0x40 MLOAD DUP1 SWAP2 SUB SWAP1 REVERT JUMPDEST PUSH2 0xF7A DUP2 PUSH2 0x1749 JUMP JUMPDEST POP JUMP JUMPDEST PUSH1 0x1 PUSH1 0x0 SWAP1 SLOAD SWAP1 PUSH2 0x100 EXP SWAP1 DIV PUSH20 0xFFFFFFFFFFFFFFFFFFFFFFFFFFFFFFFFFFFFFFFF AND DUP2 JUMP JUMPDEST PUSH1 0x1B PUSH1 0xF8 SHL DUP2 PUSH1 0x40 DUP2 MLOAD DUP2 LT PUSH2 0xFBC JUMPI PUSH2 0xFBB PUSH2 0x29C2 JUMP JUMPDEST JUMPDEST PUSH1 0x20 ADD ADD SWAP1 PUSH31 0xFFFFFFFFFFFFFFFFFFFFFFFFFFFFFFFFFFFFFFFFFFFFFFFFFFFFFFFFFFFFFF NOT AND SWAP1 DUP2 PUSH1 0x0 BYTE SWAP1 MSTORE8 POP DUP3 PUSH20 0xFFFFFFFFFFFFFFFFFFFFFFFFFFFFFFFFFFFFFFFF AND PUSH2 0x101D DUP3 PUSH2 0x100F DUP6 PUSH2 0x180D JUMP JUMPDEST PUSH2 0x181E SWAP1 SWAP2 SWAP1 PUSH4 0xFFFFFFFF AND JUMP JUMPDEST PUSH20 0xFFFFFFFFFFFFFFFFFFFFFFFFFFFFFFFFFFFFFFFF AND SUB ISZERO PUSH2 0x110A JUMPI PUSH1 0x1C PUSH1 0xF8 SHL DUP2 PUSH1 0x40 DUP2 MLOAD DUP2 LT PUSH2 0x1052 JUMPI PUSH2 0x1051 PUSH2 0x29C2 JUMP JUMPDEST JUMPDEST PUSH1 0x20 ADD ADD SWAP1 PUSH31 0xFFFFFFFFFFFFFFFFFFFFFFFFFFFFFFFFFFFFFFFFFFFFFFFFFFFFFFFFFFFFFF NOT AND SWAP1 DUP2 PUSH1 0x0 BYTE SWAP1 MSTORE8 POP DUP3 PUSH20 0xFFFFFFFFFFFFFFFFFFFFFFFFFFFFFFFFFFFFFFFF AND PUSH2 0x10B3 DUP3 PUSH2 0x10A5 DUP6 PUSH2 0x180D JUMP JUMPDEST PUSH2 0x181E SWAP1 SWAP2 SWAP1 PUSH4 0xFFFFFFFF AND JUMP JUMPDEST PUSH20 0xFFFFFFFFFFFFFFFFFFFFFFFFFFFFFFFFFFFFFFFF AND EQ PUSH2 0x1109 JUMPI PUSH1 0x40 MLOAD PUSH32 0x8C379A000000000000000000000000000000000000000000000000000000000 DUP2 MSTORE PUSH1 0x4 ADD PUSH2 0x1100 SWAP1 PUSH2 0x2CB8 JUMP JUMPDEST PUSH1 0x40 MLOAD DUP1 SWAP2 SUB SWAP1 REVERT JUMPDEST JUMPDEST POP POP POP JUMP JUMPDEST PUSH1 0x0 DUP1 DUP6 PUSH20 0xFFFFFFFFFFFFFFFFFFFFFFFFFFFFFFFFFFFFFFFF AND PUSH4 0x23B872DD DUP7 DUP7 DUP7 PUSH1 0x40 MLOAD PUSH1 0x24 ADD PUSH2 0x1143 SWAP4 SWAP3 SWAP2 SWAP1 PUSH2 0x2CD8 JUMP JUMPDEST PUSH1 0x40 MLOAD PUSH1 0x20 DUP2 DUP4 SUB SUB DUP2 MSTORE SWAP1 PUSH1 0x40 MSTORE SWAP1 PUSH1 0xE0 SHL PUSH1 0x20 DUP3 ADD DUP1 MLOAD PUSH28 0xFFFFFFFFFFFFFFFFFFFFFFFFFFFFFFFFFFFFFFFFFFFFFFFFFFFFFFFF DUP4 DUP2 DUP4 AND OR DUP4 MSTORE POP POP POP POP PUSH1 0x40 MLOAD PUSH2 0x1191 SWAP2 SWAP1 PUSH2 0x2D40 JUMP JUMPDEST PUSH1 0x0 PUSH1 0x40 MLOAD DUP1 DUP4 SUB DUP2 PUSH1 0x0 DUP7 GAS CALL SWAP2 POP POP RETURNDATASIZE DUP1 PUSH1 0x0 DUP2 EQ PUSH2 0x11CE JUMPI PUSH1 0x40 MLOAD SWAP2 POP PUSH1 0x1F NOT PUSH1 0x3F RETURNDATASIZE ADD AND DUP3 ADD PUSH1 0x40 MSTORE RETURNDATASIZE DUP3 MSTORE RETURNDATASIZE PUSH1 0x0 PUSH1 0x20 DUP5 ADD RETURNDATACOPY PUSH2 0x11D3 JUMP JUMPDEST PUSH1 0x60 SWAP2 POP JUMPDEST POP SWAP2 POP SWAP2 POP DUP2 DUP1 ISZERO PUSH2 0x1201 JUMPI POP PUSH1 0x0 DUP2 MLOAD EQ DUP1 PUSH2 0x1200 JUMPI POP DUP1 DUP1 PUSH1 0x20 ADD SWAP1 MLOAD DUP2 ADD SWAP1 PUSH2 0x11FF SWAP2 SWAP1 PUSH2 0x2D6C JUMP JUMPDEST JUMPDEST JUMPDEST PUSH2 0x1240 JUMPI PUSH1 0x40 MLOAD PUSH32 0x8C379A000000000000000000000000000000000000000000000000000000000 DUP2 MSTORE PUSH1 0x4 ADD PUSH2 0x1237 SWAP1 PUSH2 0x2DE5 JUMP JUMPDEST PUSH1 0x40 MLOAD DUP1 SWAP2 SUB SWAP1 REVERT JUMPDEST POP POP POP POP POP POP JUMP JUMPDEST PUSH1 0x0 DUP1 DUP5 PUSH20 0xFFFFFFFFFFFFFFFFFFFFFFFFFFFFFFFFFFFFFFFF AND PUSH4 0xA9059CBB DUP6 DUP6 PUSH1 0x40 MLOAD PUSH1 0x24 ADD PUSH2 0x127A SWAP3 SWAP2 SWAP1 PUSH2 0x2E05 JUMP JUMPDEST PUSH1 0x40 MLOAD PUSH1 0x20 DUP2 DUP4 SUB SUB DUP2 MSTORE SWAP1 PUSH1 0x40 MSTORE SWAP1 PUSH1 0xE0 SHL PUSH1 0x20 DUP3 ADD DUP1 MLOAD PUSH28 0xFFFFFFFFFFFFFFFFFFFFFFFFFFFFFFFFFFFFFFFFFFFFFFFFFFFFFFFF DUP4 DUP2 DUP4 AND OR DUP4 MSTORE POP POP POP POP PUSH1 0x40 MLOAD PUSH2 0x12C8 SWAP2 SWAP1 PUSH2 0x2D40 JUMP JUMPDEST PUSH1 0x0 PUSH1 0x40 MLOAD DUP1 DUP4 SUB DUP2 PUSH1 0x0 DUP7 GAS CALL SWAP2 POP POP RETURNDATASIZE DUP1 PUSH1 0x0 DUP2 EQ PUSH2 0x1305 JUMPI PUSH1 0x40 MLOAD SWAP2 POP PUSH1 0x1F NOT PUSH1 0x3F RETURNDATASIZE ADD AND DUP3 ADD PUSH1 0x40 MSTORE RETURNDATASIZE DUP3 MSTORE RETURNDATASIZE PUSH1 0x0 PUSH1 0x20 DUP5 ADD RETURNDATACOPY PUSH2 0x130A JUMP JUMPDEST PUSH1 0x60 SWAP2 POP JUMPDEST POP SWAP2 POP SWAP2 POP DUP2 DUP1 ISZERO PUSH2 0x1338 JUMPI POP PUSH1 0x0 DUP2 MLOAD EQ DUP1 PUSH2 0x1337 JUMPI POP DUP1 DUP1 PUSH1 0x20 ADD SWAP1 MLOAD DUP2 ADD SWAP1 PUSH2 0x1336 SWAP2 SWAP1 PUSH2 0x2D6C JUMP JUMPDEST JUMPDEST JUMPDEST PUSH2 0x1377 JUMPI PUSH1 0x40 MLOAD PUSH32 0x8C379A000000000000000000000000000000000000000000000000000000000 DUP2 MSTORE PUSH1 0x4 ADD PUSH2 0x136E SWAP1 PUSH2 0x2E7A JUMP JUMPDEST PUSH1 0x40 MLOAD DUP1 SWAP2 SUB SWAP1 REVERT JUMPDEST POP POP POP POP POP JUMP JUMPDEST PUSH1 0x0 DUP1 DUP5 PUSH20 0xFFFFFFFFFFFFFFFFFFFFFFFFFFFFFFFFFFFFFFFF AND PUSH4 0x95EA7B3 DUP6 DUP6 PUSH1 0x40 MLOAD PUSH1 0x24 ADD PUSH2 0x13B0 SWAP3 SWAP2 SWAP1 PUSH2 0x2E05 JUMP JUMPDEST PUSH1 0x40 MLOAD PUSH1 0x20 DUP2 DUP4 SUB SUB DUP2 MSTORE SWAP1 PUSH1 0x40 MSTORE SWAP1 PUSH1 0xE0 SHL PUSH1 0x20 DUP3 ADD DUP1 MLOAD PUSH28 0xFFFFFFFFFFFFFFFFFFFFFFFFFFFFFFFFFFFFFFFFFFFFFFFFFFFFFFFF DUP4 DUP2 DUP4 AND OR DUP4 MSTORE POP POP POP POP PUSH1 0x40 MLOAD PUSH2 0x13FE SWAP2 SWAP1 PUSH2 0x2D40 JUMP JUMPDEST PUSH1 0x0 PUSH1 0x40 MLOAD DUP1 DUP4 SUB DUP2 PUSH1 0x0 DUP7 GAS CALL SWAP2 POP POP RETURNDATASIZE DUP1 PUSH1 0x0 DUP2 EQ PUSH2 0x143B JUMPI PUSH1 0x40 MLOAD SWAP2 POP PUSH1 0x1F NOT PUSH1 0x3F RETURNDATASIZE ADD AND DUP3 ADD PUSH1 0x40 MSTORE RETURNDATASIZE DUP3 MSTORE RETURNDATASIZE PUSH1 0x0 PUSH1 0x20 DUP5 ADD RETURNDATACOPY PUSH2 0x1440 JUMP JUMPDEST PUSH1 0x60 SWAP2 POP JUMPDEST POP SWAP2 POP SWAP2 POP DUP2 DUP1 ISZERO PUSH2 0x146E JUMPI POP PUSH1 0x0 DUP2 MLOAD EQ DUP1 PUSH2 0x146D JUMPI POP DUP1 DUP1 PUSH1 0x20 ADD SWAP1 MLOAD DUP2 ADD SWAP1 PUSH2 0x146C SWAP2 SWAP1 PUSH2 0x2D6C JUMP JUMPDEST JUMPDEST JUMPDEST PUSH2 0x14AD JUMPI PUSH1 0x40 MLOAD PUSH32 0x8C379A000000000000000000000000000000000000000000000000000000000 DUP2 MSTORE PUSH1 0x4 ADD PUSH2 0x14A4 SWAP1 PUSH2 0x2EE6 JUMP JUMPDEST PUSH1 0x40 MLOAD DUP1 SWAP2 SUB SWAP1 REVERT JUMPDEST POP POP POP POP POP JUMP JUMPDEST PUSH1 0x0 DUP3 PUSH20 0xFFFFFFFFFFFFFFFFFFFFFFFFFFFFFFFFFFFFFFFF AND DUP3 PUSH1 0x0 PUSH8 0xFFFFFFFFFFFFFFFF DUP2 GT ISZERO PUSH2 0x14E9 JUMPI PUSH2 0x14E8 PUSH2 0x2993 JUMP JUMPDEST JUMPDEST PUSH1 0x40 MLOAD SWAP1 DUP1 DUP3 MSTORE DUP1 PUSH1 0x1F ADD PUSH1 0x1F NOT AND PUSH1 0x20 ADD DUP3 ADD PUSH1 0x40 MSTORE DUP1 ISZERO PUSH2 0x151B JUMPI DUP2 PUSH1 0x20 ADD PUSH1 0x1 DUP3 MUL DUP1 CALLDATASIZE DUP4 CALLDATACOPY DUP1 DUP3 ADD SWAP2 POP POP SWAP1 POP JUMPDEST POP PUSH1 0x40 MLOAD PUSH2 0x1529 SWAP2 SWAP1 PUSH2 0x2D40 JUMP JUMPDEST PUSH1 0x0 PUSH1 0x40 MLOAD DUP1 DUP4 SUB DUP2 DUP6 DUP8 GAS CALL SWAP3 POP POP POP RETURNDATASIZE DUP1 PUSH1 0x0 DUP2 EQ PUSH2 0x1566 JUMPI PUSH1 0x40 MLOAD SWAP2 POP PUSH1 0x1F NOT PUSH1 0x3F RETURNDATASIZE ADD AND DUP3 ADD PUSH1 0x40 MSTORE RETURNDATASIZE DUP3 MSTORE RETURNDATASIZE PUSH1 0x0 PUSH1 0x20 DUP5 ADD RETURNDATACOPY PUSH2 0x156B JUMP JUMPDEST PUSH1 0x60 SWAP2 POP JUMPDEST POP POP SWAP1 POP DUP1 PUSH2 0x15AF JUMPI PUSH1 0x40 MLOAD PUSH32 0x8C379A000000000000000000000000000000000000000000000000000000000 DUP2 MSTORE PUSH1 0x4 ADD PUSH2 0x15A6 SWAP1 PUSH2 0x2F52 JUMP JUMPDEST PUSH1 0x40 MLOAD DUP1 SWAP2 SUB SWAP1 REVERT JUMPDEST POP POP POP JUMP JUMPDEST PUSH1 0x0 DUP1 DUP5 PUSH20 0xFFFFFFFFFFFFFFFFFFFFFFFFFFFFFFFFFFFFFFFF AND DUP5 DUP5 PUSH1 0x40 MLOAD PUSH2 0x15DD SWAP2 SWAP1 PUSH2 0x2D40 JUMP JUMPDEST PUSH1 0x0 PUSH1 0x40 MLOAD DUP1 DUP4 SUB DUP2 DUP6 DUP8 GAS CALL SWAP3 POP POP POP RETURNDATASIZE DUP1 PUSH1 0x0 DUP2 EQ PUSH2 0x161A JUMPI PUSH1 0x40 MLOAD SWAP2 POP PUSH1 0x1F NOT PUSH1 0x3F RETURNDATASIZE ADD AND DUP3 ADD PUSH1 0x40 MSTORE RETURNDATASIZE DUP3 MSTORE RETURNDATASIZE PUSH1 0x0 PUSH1 0x20 DUP5 ADD RETURNDATACOPY PUSH2 0x161F JUMP JUMPDEST PUSH1 0x60 SWAP2 POP JUMPDEST POP SWAP2 POP SWAP2 POP DUP2 PUSH2 0x16C4 JUMPI PUSH1 0x44 DUP2 MLOAD LT ISZERO PUSH2 0x166E JUMPI PUSH1 0x40 MLOAD PUSH32 0x8C379A000000000000000000000000000000000000000000000000000000000 DUP2 MSTORE PUSH1 0x4 ADD PUSH2 0x1665 SWAP1 PUSH2 0x2FE4 JUMP JUMPDEST PUSH1 0x40 MLOAD DUP1 SWAP2 SUB SWAP1 REVERT JUMPDEST PUSH1 0x4 DUP2 ADD SWAP1 POP DUP1 DUP1 PUSH1 0x20 ADD SWAP1 MLOAD DUP2 ADD SWAP1 PUSH2 0x1688 SWAP2 SWAP1 PUSH2 0x2AE3 JUMP JUMPDEST PUSH1 0x40 MLOAD PUSH32 0x8C379A000000000000000000000000000000000000000000000000000000000 DUP2 MSTORE PUSH1 0x4 ADD PUSH2 0x16BB SWAP2 SWAP1 PUSH2 0x2B70 JUMP JUMPDEST PUSH1 0x40 MLOAD DUP1 SWAP2 SUB SWAP1 REVERT JUMPDEST POP POP POP POP POP JUMP JUMPDEST PUSH2 0x16D3 PUSH2 0x1845 JUMP JUMPDEST PUSH20 0xFFFFFFFFFFFFFFFFFFFFFFFFFFFFFFFFFFFFFFFF AND PUSH2 0x16F1 PUSH2 0xC40 JUMP JUMPDEST PUSH20 0xFFFFFFFFFFFFFFFFFFFFFFFFFFFFFFFFFFFFFFFF AND EQ PUSH2 0x1747 JUMPI PUSH1 0x40 MLOAD PUSH32 0x8C379A000000000000000000000000000000000000000000000000000000000 DUP2 MSTORE PUSH1 0x4 ADD PUSH2 0x173E SWAP1 PUSH2 0x3050 JUMP JUMPDEST PUSH1 0x40 MLOAD DUP1 SWAP2 SUB SWAP1 REVERT JUMPDEST JUMP JUMPDEST PUSH1 0x0 DUP1 PUSH1 0x0 SWAP1 SLOAD SWAP1 PUSH2 0x100 EXP SWAP1 DIV PUSH20 0xFFFFFFFFFFFFFFFFFFFFFFFFFFFFFFFFFFFFFFFF AND SWAP1 POP DUP2 PUSH1 0x0 DUP1 PUSH2 0x100 EXP DUP2 SLOAD DUP2 PUSH20 0xFFFFFFFFFFFFFFFFFFFFFFFFFFFFFFFFFFFFFFFF MUL NOT AND SWAP1 DUP4 PUSH20 0xFFFFFFFFFFFFFFFFFFFFFFFFFFFFFFFFFFFFFFFF AND MUL OR SWAP1 SSTORE POP DUP2 PUSH20 0xFFFFFFFFFFFFFFFFFFFFFFFFFFFFFFFFFFFFFFFF AND DUP2 PUSH20 0xFFFFFFFFFFFFFFFFFFFFFFFFFFFFFFFFFFFFFFFF AND PUSH32 0x8BE0079C531659141344CD1FD0A4F28419497F9722A3DAAFE3B4186F6B6457E0 PUSH1 0x40 MLOAD PUSH1 0x40 MLOAD DUP1 SWAP2 SUB SWAP1 LOG3 POP POP JUMP JUMPDEST PUSH1 0x0 DUP2 DUP1 MLOAD SWAP1 PUSH1 0x20 ADD KECCAK256 SWAP1 POP SWAP2 SWAP1 POP JUMP JUMPDEST PUSH1 0x0 DUP1 PUSH1 0x0 PUSH2 0x182D DUP6 DUP6 PUSH2 0x184D JUMP JUMPDEST SWAP2 POP SWAP2 POP PUSH2 0x183A DUP2 PUSH2 0x189E JUMP JUMPDEST DUP2 SWAP3 POP POP POP SWAP3 SWAP2 POP POP JUMP JUMPDEST PUSH1 0x0 CALLER SWAP1 POP SWAP1 JUMP JUMPDEST PUSH1 0x0 DUP1 PUSH1 0x41 DUP4 MLOAD SUB PUSH2 0x188E JUMPI PUSH1 0x0 DUP1 PUSH1 0x0 PUSH1 0x20 DUP7 ADD MLOAD SWAP3 POP PUSH1 0x40 DUP7 ADD MLOAD SWAP2 POP PUSH1 0x60 DUP7 ADD MLOAD PUSH1 0x0 BYTE SWAP1 POP PUSH2 0x1882 DUP8 DUP3 DUP6 DUP6 PUSH2 0x1A04 JUMP JUMPDEST SWAP5 POP SWAP5 POP POP POP POP PUSH2 0x1897 JUMP JUMPDEST PUSH1 0x0 PUSH1 0x2 SWAP2 POP SWAP2 POP JUMPDEST SWAP3 POP SWAP3 SWAP1 POP JUMP JUMPDEST PUSH1 0x0 PUSH1 0x4 DUP2 GT ISZERO PUSH2 0x18B2 JUMPI PUSH2 0x18B1 PUSH2 0x3070 JUMP JUMPDEST JUMPDEST DUP2 PUSH1 0x4 DUP2 GT ISZERO PUSH2 0x18C5 JUMPI PUSH2 0x18C4 PUSH2 0x3070 JUMP JUMPDEST JUMPDEST SUB ISZERO PUSH2 0x1A01 JUMPI PUSH1 0x1 PUSH1 0x4 DUP2 GT ISZERO PUSH2 0x18DF JUMPI PUSH2 0x18DE PUSH2 0x3070 JUMP JUMPDEST JUMPDEST DUP2 PUSH1 0x4 DUP2 GT ISZERO PUSH2 0x18F2 JUMPI PUSH2 0x18F1 PUSH2 0x3070 JUMP JUMPDEST JUMPDEST SUB PUSH2 0x1932 JUMPI PUSH1 0x40 MLOAD PUSH32 0x8C379A000000000000000000000000000000000000000000000000000000000 DUP2 MSTORE PUSH1 0x4 ADD PUSH2 0x1929 SWAP1 PUSH2 0x30EB JUMP JUMPDEST PUSH1 0x40 MLOAD DUP1 SWAP2 SUB SWAP1 REVERT JUMPDEST PUSH1 0x2 PUSH1 0x4 DUP2 GT ISZERO PUSH2 0x1946 JUMPI PUSH2 0x1945 PUSH2 0x3070 JUMP JUMPDEST JUMPDEST DUP2 PUSH1 0x4 DUP2 GT ISZERO PUSH2 0x1959 JUMPI PUSH2 0x1958 PUSH2 0x3070 JUMP JUMPDEST JUMPDEST SUB PUSH2 0x1999 JUMPI PUSH1 0x40 MLOAD PUSH32 0x8C379A000000000000000000000000000000000000000000000000000000000 DUP2 MSTORE PUSH1 0x4 ADD PUSH2 0x1990 SWAP1 PUSH2 0x3157 JUMP JUMPDEST PUSH1 0x40 MLOAD DUP1 SWAP2 SUB SWAP1 REVERT JUMPDEST PUSH1 0x3 PUSH1 0x4 DUP2 GT ISZERO PUSH2 0x19AD JUMPI PUSH2 0x19AC PUSH2 0x3070 JUMP JUMPDEST JUMPDEST DUP2 PUSH1 0x4 DUP2 GT ISZERO PUSH2 0x19C0 JUMPI PUSH2 0x19BF PUSH2 0x3070 JUMP JUMPDEST JUMPDEST SUB PUSH2 0x1A00 JUMPI PUSH1 0x40 MLOAD PUSH32 0x8C379A000000000000000000000000000000000000000000000000000000000 DUP2 MSTORE PUSH1 0x4 ADD PUSH2 0x19F7 SWAP1 PUSH2 0x31E9 JUMP JUMPDEST PUSH1 0x40 MLOAD DUP1 SWAP2 SUB SWAP1 REVERT JUMPDEST JUMPDEST POP JUMP JUMPDEST PUSH1 0x0 DUP1 PUSH32 0x7FFFFFFFFFFFFFFFFFFFFFFFFFFFFFFF5D576E7357A4501DDFE92F46681B20A0 DUP4 PUSH1 0x0 SHR GT ISZERO PUSH2 0x1A3F JUMPI PUSH1 0x0 PUSH1 0x3 SWAP2 POP SWAP2 POP PUSH2 0x1ADD JUMP JUMPDEST PUSH1 0x0 PUSH1 0x1 DUP8 DUP8 DUP8 DUP8 PUSH1 0x40 MLOAD PUSH1 0x0 DUP2 MSTORE PUSH1 0x20 ADD PUSH1 0x40 MSTORE PUSH1 0x40 MLOAD PUSH2 0x1A64 SWAP5 SWAP4 SWAP3 SWAP2 SWAP1 PUSH2 0x3222 JUMP JUMPDEST PUSH1 0x20 PUSH1 0x40 MLOAD PUSH1 0x20 DUP2 SUB SWAP1 DUP1 DUP5 SUB SWAP1 DUP6 GAS STATICCALL ISZERO DUP1 ISZERO PUSH2 0x1A86 JUMPI RETURNDATASIZE PUSH1 0x0 DUP1 RETURNDATACOPY RETURNDATASIZE PUSH1 0x0 REVERT JUMPDEST POP POP POP PUSH1 0x20 PUSH1 0x40 MLOAD SUB MLOAD SWAP1 POP PUSH1 0x0 PUSH20 0xFFFFFFFFFFFFFFFFFFFFFFFFFFFFFFFFFFFFFFFF AND DUP2 PUSH20 0xFFFFFFFFFFFFFFFFFFFFFFFFFFFFFFFFFFFFFFFF AND SUB PUSH2 0x1AD4 JUMPI PUSH1 0x0 PUSH1 0x1 SWAP3 POP SWAP3 POP POP PUSH2 0x1ADD JUMP JUMPDEST DUP1 PUSH1 0x0 SWAP3 POP SWAP3 POP POP JUMPDEST SWAP5 POP SWAP5 SWAP3 POP POP POP JUMP JUMPDEST PUSH1 0x0 DUP2 SWAP1 POP SWAP2 SWAP1 POP JUMP JUMPDEST PUSH2 0x1AF9 DUP2 PUSH2 0x1AE6 JUMP JUMPDEST DUP3 MSTORE POP POP JUMP JUMPDEST PUSH1 0x0 PUSH1 0x20 DUP3 ADD SWAP1 POP PUSH2 0x1B14 PUSH1 0x0 DUP4 ADD DUP5 PUSH2 0x1AF0 JUMP JUMPDEST SWAP3 SWAP2 POP POP JUMP JUMPDEST PUSH1 0x0 PUSH1 0x40 MLOAD SWAP1 POP SWAP1 JUMP JUMPDEST PUSH1 0x0 DUP1 REVERT JUMPDEST PUSH1 0x0 DUP1 REVERT JUMPDEST PUSH1 0x0 PUSH20 0xFFFFFFFFFFFFFFFFFFFFFFFFFFFFFFFFFFFFFFFF DUP3 AND SWAP1 POP SWAP2 SWAP1 POP JUMP JUMPDEST PUSH1 0x0 PUSH2 0x1B59 DUP3 PUSH2 0x1B2E JUMP JUMPDEST SWAP1 POP SWAP2 SWAP1 POP JUMP JUMPDEST PUSH2 0x1B69 DUP2 PUSH2 0x1B4E JUMP JUMPDEST DUP2 EQ PUSH2 0x1B74 JUMPI PUSH1 0x0 DUP1 REVERT JUMPDEST POP JUMP JUMPDEST PUSH1 0x0 DUP2 CALLDATALOAD SWAP1 POP PUSH2 0x1B86 DUP2 PUSH2 0x1B60 JUMP JUMPDEST SWAP3 SWAP2 POP POP JUMP JUMPDEST PUSH1 0x0 PUSH1 0x20 DUP3 DUP5 SUB SLT ISZERO PUSH2 0x1BA2 JUMPI PUSH2 0x1BA1 PUSH2 0x1B24 JUMP JUMPDEST JUMPDEST PUSH1 0x0 PUSH2 0x1BB0 DUP5 DUP3 DUP6 ADD PUSH2 0x1B77 JUMP JUMPDEST SWAP2 POP POP SWAP3 SWAP2 POP POP JUMP JUMPDEST PUSH1 0x0 DUP1 REVERT JUMPDEST PUSH1 0x0 PUSH2 0x160 DUP3 DUP5 SUB SLT ISZERO PUSH2 0x1BD5 JUMPI PUSH2 0x1BD4 PUSH2 0x1BB9 JUMP JUMPDEST JUMPDEST DUP2 SWAP1 POP SWAP3 SWAP2 POP POP JUMP JUMPDEST PUSH1 0x0 DUP1 REVERT JUMPDEST PUSH1 0x0 DUP1 REVERT JUMPDEST PUSH1 0x0 DUP1 REVERT JUMPDEST PUSH1 0x0 DUP1 DUP4 PUSH1 0x1F DUP5 ADD SLT PUSH2 0x1C03 JUMPI PUSH2 0x1C02 PUSH2 0x1BDE JUMP JUMPDEST JUMPDEST DUP3 CALLDATALOAD SWAP1 POP PUSH8 0xFFFFFFFFFFFFFFFF DUP2 GT ISZERO PUSH2 0x1C20 JUMPI PUSH2 0x1C1F PUSH2 0x1BE3 JUMP JUMPDEST JUMPDEST PUSH1 0x20 DUP4 ADD SWAP2 POP DUP4 PUSH1 0x1 DUP3 MUL DUP4 ADD GT ISZERO PUSH2 0x1C3C JUMPI PUSH2 0x1C3B PUSH2 0x1BE8 JUMP JUMPDEST JUMPDEST SWAP3 POP SWAP3 SWAP1 POP JUMP JUMPDEST PUSH1 0x0 DUP1 PUSH1 0x0 PUSH1 0x40 DUP5 DUP7 SUB SLT ISZERO PUSH2 0x1C5C JUMPI PUSH2 0x1C5B PUSH2 0x1B24 JUMP JUMPDEST JUMPDEST PUSH1 0x0 DUP5 ADD CALLDATALOAD PUSH8 0xFFFFFFFFFFFFFFFF DUP2 GT ISZERO PUSH2 0x1C7A JUMPI PUSH2 0x1C79 PUSH2 0x1B29 JUMP JUMPDEST JUMPDEST PUSH2 0x1C86 DUP7 DUP3 DUP8 ADD PUSH2 0x1BBE JUMP JUMPDEST SWAP4 POP POP PUSH1 0x20 DUP5 ADD CALLDATALOAD PUSH8 0xFFFFFFFFFFFFFFFF DUP2 GT ISZERO PUSH2 0x1CA7 JUMPI PUSH2 0x1CA6 PUSH2 0x1B29 JUMP JUMPDEST JUMPDEST PUSH2 0x1CB3 DUP7 DUP3 DUP8 ADD PUSH2 0x1BED JUMP JUMPDEST SWAP3 POP SWAP3 POP POP SWAP3 POP SWAP3 POP SWAP3 JUMP JUMPDEST PUSH2 0x1CC8 DUP2 PUSH2 0x1AE6 JUMP JUMPDEST DUP2 EQ PUSH2 0x1CD3 JUMPI PUSH1 0x0 DUP1 REVERT JUMPDEST POP JUMP JUMPDEST PUSH1 0x0 DUP2 CALLDATALOAD SWAP1 POP PUSH2 0x1CE5 DUP2 PUSH2 0x1CBF JUMP JUMPDEST SWAP3 SWAP2 POP POP JUMP JUMPDEST PUSH1 0x0 DUP1 PUSH1 0x40 DUP4 DUP6 SUB SLT ISZERO PUSH2 0x1D02 JUMPI PUSH2 0x1D01 PUSH2 0x1B24 JUMP JUMPDEST JUMPDEST PUSH1 0x0 PUSH2 0x1D10 DUP6 DUP3 DUP7 ADD PUSH2 0x1B77 JUMP JUMPDEST SWAP3 POP POP PUSH1 0x20 PUSH2 0x1D21 DUP6 DUP3 DUP7 ADD PUSH2 0x1CD6 JUMP JUMPDEST SWAP2 POP POP SWAP3 POP SWAP3 SWAP1 POP JUMP JUMPDEST PUSH1 0x0 PUSH2 0x100 DUP3 DUP5 SUB SLT ISZERO PUSH2 0x1D42 JUMPI PUSH2 0x1D41 PUSH2 0x1BB9 JUMP JUMPDEST JUMPDEST DUP2 SWAP1 POP SWAP3 SWAP2 POP POP JUMP JUMPDEST PUSH1 0x0 DUP1 PUSH1 0x0 PUSH1 0x40 DUP5 DUP7 SUB SLT ISZERO PUSH2 0x1D64 JUMPI PUSH2 0x1D63 PUSH2 0x1B24 JUMP JUMPDEST JUMPDEST PUSH1 0x0 DUP5 ADD CALLDATALOAD PUSH8 0xFFFFFFFFFFFFFFFF DUP2 GT ISZERO PUSH2 0x1D82 JUMPI PUSH2 0x1D81 PUSH2 0x1B29 JUMP JUMPDEST JUMPDEST PUSH2 0x1D8E DUP7 DUP3 DUP8 ADD PUSH2 0x1D2B JUMP JUMPDEST SWAP4 POP POP PUSH1 0x20 DUP5 ADD CALLDATALOAD PUSH8 0xFFFFFFFFFFFFFFFF DUP2 GT ISZERO PUSH2 0x1DAF JUMPI PUSH2 0x1DAE PUSH2 0x1B29 JUMP JUMPDEST JUMPDEST PUSH2 0x1DBB DUP7 DUP3 DUP8 ADD PUSH2 0x1BED JUMP JUMPDEST SWAP3 POP SWAP3 POP POP SWAP3 POP SWAP3 POP SWAP3 JUMP JUMPDEST PUSH2 0x1DD0 DUP2 PUSH2 0x1B4E JUMP JUMPDEST DUP3 MSTORE POP POP JUMP JUMPDEST PUSH1 0x0 PUSH1 0x20 DUP3 ADD SWAP1 POP PUSH2 0x1DEB PUSH1 0x0 DUP4 ADD DUP5 PUSH2 0x1DC7 JUMP JUMPDEST SWAP3 SWAP2 POP POP JUMP JUMPDEST PUSH1 0x0 DUP1 PUSH1 0x0 PUSH1 0x60 DUP5 DUP7 SUB SLT ISZERO PUSH2 0x1E0A JUMPI PUSH2 0x1E09 PUSH2 0x1B24 JUMP JUMPDEST JUMPDEST PUSH1 0x0 PUSH2 0x1E18 DUP7 DUP3 DUP8 ADD PUSH2 0x1B77 JUMP JUMPDEST SWAP4 POP POP PUSH1 0x20 PUSH2 0x1E29 DUP7 DUP3 DUP8 ADD PUSH2 0x1B77 JUMP JUMPDEST SWAP3 POP POP PUSH1 0x40 PUSH2 0x1E3A DUP7 DUP3 DUP8 ADD PUSH2 0x1CD6 JUMP JUMPDEST SWAP2 POP POP SWAP3 POP SWAP3 POP SWAP3 JUMP JUMPDEST PUSH1 0x0 PUSH1 0xFF DUP3 AND SWAP1 POP SWAP2 SWAP1 POP JUMP JUMPDEST PUSH2 0x1E5A DUP2 PUSH2 0x1E44 JUMP JUMPDEST DUP2 EQ PUSH2 0x1E65 JUMPI PUSH1 0x0 DUP1 REVERT JUMPDEST POP JUMP JUMPDEST PUSH1 0x0 DUP2 CALLDATALOAD SWAP1 POP PUSH2 0x1E77 DUP2 PUSH2 0x1E51 JUMP JUMPDEST SWAP3 SWAP2 POP POP JUMP JUMPDEST PUSH1 0x0 DUP1 PUSH1 0x0 DUP1 PUSH1 0x0 DUP1 PUSH1 0xC0 DUP8 DUP10 SUB SLT ISZERO PUSH2 0x1E9A JUMPI PUSH2 0x1E99 PUSH2 0x1B24 JUMP JUMPDEST JUMPDEST PUSH1 0x0 PUSH2 0x1EA8 DUP10 DUP3 DUP11 ADD PUSH2 0x1B77 JUMP JUMPDEST SWAP7 POP POP PUSH1 0x20 PUSH2 0x1EB9 DUP10 DUP3 DUP11 ADD PUSH2 0x1B77 JUMP JUMPDEST SWAP6 POP POP PUSH1 0x40 PUSH2 0x1ECA DUP10 DUP3 DUP11 ADD PUSH2 0x1B77 JUMP JUMPDEST SWAP5 POP POP PUSH1 0x60 PUSH2 0x1EDB DUP10 DUP3 DUP11 ADD PUSH2 0x1B77 JUMP JUMPDEST SWAP4 POP POP PUSH1 0x80 PUSH2 0x1EEC DUP10 DUP3 DUP11 ADD PUSH2 0x1CD6 JUMP JUMPDEST SWAP3 POP POP PUSH1 0xA0 PUSH2 0x1EFD DUP10 DUP3 DUP11 ADD PUSH2 0x1E68 JUMP JUMPDEST SWAP2 POP POP SWAP3 SWAP6 POP SWAP3 SWAP6 POP SWAP3 SWAP6 JUMP JUMPDEST PUSH1 0x0 PUSH3 0xFFFFFF DUP3 AND SWAP1 POP SWAP2 SWAP1 POP JUMP JUMPDEST PUSH2 0x1F22 DUP2 PUSH2 0x1F0A JUMP JUMPDEST DUP3 MSTORE POP POP JUMP JUMPDEST PUSH1 0x0 PUSH1 0x40 DUP3 ADD SWAP1 POP PUSH2 0x1F3D PUSH1 0x0 DUP4 ADD DUP6 PUSH2 0x1AF0 JUMP JUMPDEST PUSH2 0x1F4A PUSH1 0x20 DUP4 ADD DUP5 PUSH2 0x1F19 JUMP JUMPDEST SWAP4 SWAP3 POP POP POP JUMP JUMPDEST PUSH1 0x0 DUP1 DUP4 PUSH1 0x1F DUP5 ADD SLT PUSH2 0x1F67 JUMPI PUSH2 0x1F66 PUSH2 0x1BDE JUMP JUMPDEST JUMPDEST DUP3 CALLDATALOAD SWAP1 POP PUSH8 0xFFFFFFFFFFFFFFFF DUP2 GT ISZERO PUSH2 0x1F84 JUMPI PUSH2 0x1F83 PUSH2 0x1BE3 JUMP JUMPDEST JUMPDEST PUSH1 0x20 DUP4 ADD SWAP2 POP DUP4 PUSH1 0x20 DUP3 MUL DUP4 ADD GT ISZERO PUSH2 0x1FA0 JUMPI PUSH2 0x1F9F PUSH2 0x1BE8 JUMP JUMPDEST JUMPDEST SWAP3 POP SWAP3 SWAP1 POP JUMP JUMPDEST PUSH1 0x0 DUP1 PUSH1 0x20 DUP4 DUP6 SUB SLT ISZERO PUSH2 0x1FBE JUMPI PUSH2 0x1FBD PUSH2 0x1B24 JUMP JUMPDEST JUMPDEST PUSH1 0x0 DUP4 ADD CALLDATALOAD PUSH8 0xFFFFFFFFFFFFFFFF DUP2 GT ISZERO PUSH2 0x1FDC JUMPI PUSH2 0x1FDB PUSH2 0x1B29 JUMP JUMPDEST JUMPDEST PUSH2 0x1FE8 DUP6 DUP3 DUP7 ADD PUSH2 0x1F51 JUMP JUMPDEST SWAP3 POP SWAP3 POP POP SWAP3 POP SWAP3 SWAP1 POP JUMP JUMPDEST PUSH1 0x0 DUP2 MLOAD SWAP1 POP SWAP2 SWAP1 POP JUMP JUMPDEST PUSH1 0x0 DUP3 DUP3 MSTORE PUSH1 0x20 DUP3 ADD SWAP1 POP SWAP3 SWAP2 POP POP JUMP JUMPDEST PUSH1 0x0 DUP2 SWAP1 POP PUSH1 0x20 DUP3 ADD SWAP1 POP SWAP2 SWAP1 POP JUMP JUMPDEST PUSH1 0x0 DUP2 MLOAD SWAP1 POP SWAP2 SWAP1 POP JUMP JUMPDEST PUSH1 0x0 DUP3 DUP3 MSTORE PUSH1 0x20 DUP3 ADD SWAP1 POP SWAP3 SWAP2 POP POP JUMP JUMPDEST PUSH1 0x0 JUMPDEST DUP4 DUP2 LT ISZERO PUSH2 0x205A JUMPI DUP1 DUP3 ADD MLOAD DUP2 DUP5 ADD MSTORE PUSH1 0x20 DUP2 ADD SWAP1 POP PUSH2 0x203F JUMP JUMPDEST PUSH1 0x0 DUP5 DUP5 ADD MSTORE POP POP POP POP JUMP JUMPDEST PUSH1 0x0 PUSH1 0x1F NOT PUSH1 0x1F DUP4 ADD AND SWAP1 POP SWAP2 SWAP1 POP JUMP JUMPDEST PUSH1 0x0 PUSH2 0x2082 DUP3 PUSH2 0x2020 JUMP JUMPDEST PUSH2 0x208C DUP2 DUP6 PUSH2 0x202B JUMP JUMPDEST SWAP4 POP PUSH2 0x209C DUP2 DUP6 PUSH1 0x20 DUP7 ADD PUSH2 0x203C JUMP JUMPDEST PUSH2 0x20A5 DUP2 PUSH2 0x2066 JUMP JUMPDEST DUP5 ADD SWAP2 POP POP SWAP3 SWAP2 POP POP JUMP JUMPDEST PUSH1 0x0 PUSH2 0x20BC DUP4 DUP4 PUSH2 0x2077 JUMP JUMPDEST SWAP1 POP SWAP3 SWAP2 POP POP JUMP JUMPDEST PUSH1 0x0 PUSH1 0x20 DUP3 ADD SWAP1 POP SWAP2 SWAP1 POP JUMP JUMPDEST PUSH1 0x0 PUSH2 0x20DC DUP3 PUSH2 0x1FF4 JUMP JUMPDEST PUSH2 0x20E6 DUP2 DUP6 PUSH2 0x1FFF JUMP JUMPDEST SWAP4 POP DUP4 PUSH1 0x20 DUP3 MUL DUP6 ADD PUSH2 0x20F8 DUP6 PUSH2 0x2010 JUMP JUMPDEST DUP1 PUSH1 0x0 JUMPDEST DUP6 DUP2 LT ISZERO PUSH2 0x2134 JUMPI DUP5 DUP5 SUB DUP10 MSTORE DUP2 MLOAD PUSH2 0x2115 DUP6 DUP3 PUSH2 0x20B0 JUMP JUMPDEST SWAP5 POP PUSH2 0x2120 DUP4 PUSH2 0x20C4 JUMP JUMPDEST SWAP3 POP PUSH1 0x20 DUP11 ADD SWAP10 POP POP PUSH1 0x1 DUP2 ADD SWAP1 POP PUSH2 0x20FC JUMP JUMPDEST POP DUP3 SWAP8 POP DUP8 SWAP6 POP POP POP POP POP POP SWAP3 SWAP2 POP POP JUMP JUMPDEST PUSH1 0x0 PUSH1 0x20 DUP3 ADD SWAP1 POP DUP2 DUP2 SUB PUSH1 0x0 DUP4 ADD MSTORE PUSH2 0x2160 DUP2 DUP5 PUSH2 0x20D1 JUMP JUMPDEST SWAP1 POP SWAP3 SWAP2 POP POP JUMP JUMPDEST PUSH1 0x0 DUP2 MLOAD SWAP1 POP PUSH2 0x2177 DUP2 PUSH2 0x1CBF JUMP JUMPDEST SWAP3 SWAP2 POP POP JUMP JUMPDEST PUSH1 0x0 PUSH1 0x20 DUP3 DUP5 SUB SLT ISZERO PUSH2 0x2193 JUMPI PUSH2 0x2192 PUSH2 0x1B24 JUMP JUMPDEST JUMPDEST PUSH1 0x0 PUSH2 0x21A1 DUP5 DUP3 DUP6 ADD PUSH2 0x2168 JUMP JUMPDEST SWAP2 POP POP SWAP3 SWAP2 POP POP JUMP JUMPDEST PUSH1 0x0 DUP2 SWAP1 POP SWAP3 SWAP2 POP POP JUMP JUMPDEST DUP3 DUP2 DUP4 CALLDATACOPY PUSH1 0x0 DUP4 DUP4 ADD MSTORE POP POP POP JUMP JUMPDEST PUSH1 0x0 PUSH2 0x21D0 DUP4 DUP6 PUSH2 0x21AA JUMP JUMPDEST SWAP4 POP PUSH2 0x21DD DUP4 DUP6 DUP5 PUSH2 0x21B5 JUMP JUMPDEST DUP3 DUP5 ADD SWAP1 POP SWAP4 SWAP3 POP POP POP JUMP JUMPDEST PUSH1 0x0 PUSH2 0x21F6 DUP3 DUP5 DUP7 PUSH2 0x21C4 JUMP JUMPDEST SWAP2 POP DUP2 SWAP1 POP SWAP4 SWAP3 POP POP POP JUMP JUMPDEST PUSH1 0x0 DUP3 DUP3 MSTORE PUSH1 0x20 DUP3 ADD SWAP1 POP SWAP3 SWAP2 POP POP JUMP JUMPDEST PUSH32 0x746869732074784461746120616C72656164792070726F636573736564000000 PUSH1 0x0 DUP3 ADD MSTORE POP JUMP JUMPDEST PUSH1 0x0 PUSH2 0x2249 PUSH1 0x1D DUP4 PUSH2 0x2202 JUMP JUMPDEST SWAP2 POP PUSH2 0x2254 DUP3 PUSH2 0x2213 JUMP JUMPDEST PUSH1 0x20 DUP3 ADD SWAP1 POP SWAP2 SWAP1 POP JUMP JUMPDEST PUSH1 0x0 PUSH1 0x20 DUP3 ADD SWAP1 POP DUP2 DUP2 SUB PUSH1 0x0 DUP4 ADD MSTORE PUSH2 0x2278 DUP2 PUSH2 0x223C JUMP JUMPDEST SWAP1 POP SWAP2 SWAP1 POP JUMP JUMPDEST PUSH32 0x696E76616C69642073656E646572000000000000000000000000000000000000 PUSH1 0x0 DUP3 ADD MSTORE POP JUMP JUMPDEST PUSH1 0x0 PUSH2 0x22B5 PUSH1 0xE DUP4 PUSH2 0x2202 JUMP JUMPDEST SWAP2 POP PUSH2 0x22C0 DUP3 PUSH2 0x227F JUMP JUMPDEST PUSH1 0x20 DUP3 ADD SWAP1 POP SWAP2 SWAP1 POP JUMP JUMPDEST PUSH1 0x0 PUSH1 0x20 DUP3 ADD SWAP1 POP DUP2 DUP2 SUB PUSH1 0x0 DUP4 ADD MSTORE PUSH2 0x22E4 DUP2 PUSH2 0x22A8 JUMP JUMPDEST SWAP1 POP SWAP2 SWAP1 POP JUMP JUMPDEST PUSH1 0x0 PUSH2 0x22FA PUSH1 0x20 DUP5 ADD DUP5 PUSH2 0x1B77 JUMP JUMPDEST SWAP1 POP SWAP3 SWAP2 POP POP JUMP JUMPDEST PUSH2 0x230B DUP2 PUSH2 0x1B4E JUMP JUMPDEST DUP3 MSTORE POP POP JUMP JUMPDEST PUSH1 0x0 PUSH2 0x2320 PUSH1 0x20 DUP5 ADD DUP5 PUSH2 0x1CD6 JUMP JUMPDEST SWAP1 POP SWAP3 SWAP2 POP POP JUMP JUMPDEST PUSH2 0x2331 DUP2 PUSH2 0x1AE6 JUMP JUMPDEST DUP3 MSTORE POP POP JUMP JUMPDEST PUSH1 0x0 DUP2 ISZERO ISZERO SWAP1 POP SWAP2 SWAP1 POP JUMP JUMPDEST PUSH2 0x234C DUP2 PUSH2 0x2337 JUMP JUMPDEST DUP2 EQ PUSH2 0x2357 JUMPI PUSH1 0x0 DUP1 REVERT JUMPDEST POP JUMP JUMPDEST PUSH1 0x0 DUP2 CALLDATALOAD SWAP1 POP PUSH2 0x2369 DUP2 PUSH2 0x2343 JUMP JUMPDEST SWAP3 SWAP2 POP POP JUMP JUMPDEST PUSH1 0x0 PUSH2 0x237E PUSH1 0x20 DUP5 ADD DUP5 PUSH2 0x235A JUMP JUMPDEST SWAP1 POP SWAP3 SWAP2 POP POP JUMP JUMPDEST PUSH2 0x238F DUP2 PUSH2 0x2337 JUMP JUMPDEST DUP3 MSTORE POP POP JUMP JUMPDEST PUSH1 0x0 DUP1 REVERT JUMPDEST PUSH1 0x0 DUP1 REVERT JUMPDEST PUSH1 0x0 DUP1 REVERT JUMPDEST PUSH1 0x0 DUP1 DUP4 CALLDATALOAD PUSH1 0x1 PUSH1 0x20 SUB DUP5 CALLDATASIZE SUB SUB DUP2 SLT PUSH2 0x23C1 JUMPI PUSH2 0x23C0 PUSH2 0x239F JUMP JUMPDEST JUMPDEST DUP4 DUP2 ADD SWAP3 POP DUP3 CALLDATALOAD SWAP2 POP PUSH1 0x20 DUP4 ADD SWAP3 POP PUSH8 0xFFFFFFFFFFFFFFFF DUP3 GT ISZERO PUSH2 0x23E9 JUMPI PUSH2 0x23E8 PUSH2 0x2395 JUMP JUMPDEST JUMPDEST PUSH1 0x1 DUP3 MUL CALLDATASIZE SUB DUP4 SGT ISZERO PUSH2 0x23FF JUMPI PUSH2 0x23FE PUSH2 0x239A JUMP JUMPDEST JUMPDEST POP SWAP3 POP SWAP3 SWAP1 POP JUMP JUMPDEST PUSH1 0x0 PUSH2 0x2413 DUP4 DUP6 PUSH2 0x202B JUMP JUMPDEST SWAP4 POP PUSH2 0x2420 DUP4 DUP6 DUP5 PUSH2 0x21B5 JUMP JUMPDEST PUSH2 0x2429 DUP4 PUSH2 0x2066 JUMP JUMPDEST DUP5 ADD SWAP1 POP SWAP4 SWAP3 POP POP POP JUMP JUMPDEST PUSH1 0x0 PUSH2 0x160 DUP4 ADD PUSH2 0x2448 PUSH1 0x0 DUP5 ADD DUP5 PUSH2 0x22EB JUMP JUMPDEST PUSH2 0x2455 PUSH1 0x0 DUP7 ADD DUP3 PUSH2 0x2302 JUMP JUMPDEST POP PUSH2 0x2463 PUSH1 0x20 DUP5 ADD DUP5 PUSH2 0x22EB JUMP JUMPDEST PUSH2 0x2470 PUSH1 0x20 DUP7 ADD DUP3 PUSH2 0x2302 JUMP JUMPDEST POP PUSH2 0x247E PUSH1 0x40 DUP5 ADD DUP5 PUSH2 0x2311 JUMP JUMPDEST PUSH2 0x248B PUSH1 0x40 DUP7 ADD DUP3 PUSH2 0x2328 JUMP JUMPDEST POP PUSH2 0x2499 PUSH1 0x60 DUP5 ADD DUP5 PUSH2 0x2311 JUMP JUMPDEST PUSH2 0x24A6 PUSH1 0x60 DUP7 ADD DUP3 PUSH2 0x2328 JUMP JUMPDEST POP PUSH2 0x24B4 PUSH1 0x80 DUP5 ADD DUP5 PUSH2 0x2311 JUMP JUMPDEST PUSH2 0x24C1 PUSH1 0x80 DUP7 ADD DUP3 PUSH2 0x2328 JUMP JUMPDEST POP PUSH2 0x24CF PUSH1 0xA0 DUP5 ADD DUP5 PUSH2 0x236F JUMP JUMPDEST PUSH2 0x24DC PUSH1 0xA0 DUP7 ADD DUP3 PUSH2 0x2386 JUMP JUMPDEST POP PUSH2 0x24EA PUSH1 0xC0 DUP5 ADD DUP5 PUSH2 0x22EB JUMP JUMPDEST PUSH2 0x24F7 PUSH1 0xC0 DUP7 ADD DUP3 PUSH2 0x2302 JUMP JUMPDEST POP PUSH2 0x2505 PUSH1 0xE0 DUP5 ADD DUP5 PUSH2 0x23A4 JUMP JUMPDEST DUP6 DUP4 SUB PUSH1 0xE0 DUP8 ADD MSTORE PUSH2 0x2518 DUP4 DUP3 DUP5 PUSH2 0x2407 JUMP JUMPDEST SWAP3 POP POP POP PUSH2 0x252A PUSH2 0x100 DUP5 ADD DUP5 PUSH2 0x22EB JUMP JUMPDEST PUSH2 0x2538 PUSH2 0x100 DUP7 ADD DUP3 PUSH2 0x2302 JUMP JUMPDEST POP PUSH2 0x2547 PUSH2 0x120 DUP5 ADD DUP5 PUSH2 0x22EB JUMP JUMPDEST PUSH2 0x2555 PUSH2 0x120 DUP7 ADD DUP3 PUSH2 0x2302 JUMP JUMPDEST POP PUSH2 0x2564 PUSH2 0x140 DUP5 ADD DUP5 PUSH2 0x236F JUMP JUMPDEST PUSH2 0x2572 PUSH2 0x140 DUP7 ADD DUP3 PUSH2 0x2386 JUMP JUMPDEST POP DUP1 SWAP2 POP POP SWAP3 SWAP2 POP POP JUMP JUMPDEST PUSH1 0x0 PUSH1 0x20 DUP3 ADD SWAP1 POP DUP2 DUP2 SUB PUSH1 0x0 DUP4 ADD MSTORE PUSH2 0x2597 DUP2 DUP5 PUSH2 0x2434 JUMP JUMPDEST SWAP1 POP SWAP3 SWAP2 POP POP JUMP JUMPDEST PUSH1 0x0 PUSH1 0x20 DUP3 DUP5 SUB SLT ISZERO PUSH2 0x25B5 JUMPI PUSH2 0x25B4 PUSH2 0x1B24 JUMP JUMPDEST JUMPDEST PUSH1 0x0 PUSH2 0x25C3 DUP5 DUP3 DUP6 ADD PUSH2 0x235A JUMP JUMPDEST SWAP2 POP POP SWAP3 SWAP2 POP POP JUMP JUMPDEST PUSH32 0x696E73756666696369656E742076616C75650000000000000000000000000000 PUSH1 0x0 DUP3 ADD MSTORE POP JUMP JUMPDEST PUSH1 0x0 PUSH2 0x2602 PUSH1 0x12 DUP4 PUSH2 0x2202 JUMP JUMPDEST SWAP2 POP PUSH2 0x260D DUP3 PUSH2 0x25CC JUMP JUMPDEST PUSH1 0x20 DUP3 ADD SWAP1 POP SWAP2 SWAP1 POP JUMP JUMPDEST PUSH1 0x0 PUSH1 0x20 DUP3 ADD SWAP1 POP DUP2 DUP2 SUB PUSH1 0x0 DUP4 ADD MSTORE PUSH2 0x2631 DUP2 PUSH2 0x25F5 JUMP JUMPDEST SWAP1 POP SWAP2 SWAP1 POP JUMP JUMPDEST PUSH1 0x0 DUP1 REVERT JUMPDEST PUSH1 0x0 DUP1 REVERT JUMPDEST PUSH1 0x0 DUP1 REVERT JUMPDEST PUSH1 0x0 DUP1 DUP4 CALLDATALOAD PUSH1 0x1 PUSH1 0x20 SUB DUP5 CALLDATASIZE SUB SUB DUP2 SLT PUSH2 0x2664 JUMPI PUSH2 0x2663 PUSH2 0x2638 JUMP JUMPDEST JUMPDEST DUP1 DUP5 ADD SWAP3 POP DUP3 CALLDATALOAD SWAP2 POP PUSH8 0xFFFFFFFFFFFFFFFF DUP3 GT ISZERO PUSH2 0x2686 JUMPI PUSH2 0x2685 PUSH2 0x263D JUMP JUMPDEST JUMPDEST PUSH1 0x20 DUP4 ADD SWAP3 POP PUSH1 0x1 DUP3 MUL CALLDATASIZE SUB DUP4 SGT ISZERO PUSH2 0x26A2 JUMPI PUSH2 0x26A1 PUSH2 0x2642 JUMP JUMPDEST JUMPDEST POP SWAP3 POP SWAP3 SWAP1 POP JUMP JUMPDEST PUSH32 0x4E487B7100000000000000000000000000000000000000000000000000000000 PUSH1 0x0 MSTORE PUSH1 0x11 PUSH1 0x4 MSTORE PUSH1 0x24 PUSH1 0x0 REVERT JUMPDEST PUSH1 0x0 PUSH2 0x26E4 DUP3 PUSH2 0x1AE6 JUMP JUMPDEST SWAP2 POP PUSH2 0x26EF DUP4 PUSH2 0x1AE6 JUMP JUMPDEST SWAP3 POP DUP3 DUP3 SUB SWAP1 POP DUP2 DUP2 GT ISZERO PUSH2 0x2707 JUMPI PUSH2 0x2706 PUSH2 0x26AA JUMP JUMPDEST JUMPDEST SWAP3 SWAP2 POP POP JUMP JUMPDEST PUSH1 0x0 PUSH2 0x100 DUP4 ADD PUSH2 0x2721 PUSH1 0x0 DUP5 ADD DUP5 PUSH2 0x22EB JUMP JUMPDEST PUSH2 0x272E PUSH1 0x0 DUP7 ADD DUP3 PUSH2 0x2302 JUMP JUMPDEST POP PUSH2 0x273C PUSH1 0x20 DUP5 ADD DUP5 PUSH2 0x22EB JUMP JUMPDEST PUSH2 0x2749 PUSH1 0x20 DUP7 ADD DUP3 PUSH2 0x2302 JUMP JUMPDEST POP PUSH2 0x2757 PUSH1 0x40 DUP5 ADD DUP5 PUSH2 0x22EB JUMP JUMPDEST PUSH2 0x2764 PUSH1 0x40 DUP7 ADD DUP3 PUSH2 0x2302 JUMP JUMPDEST POP PUSH2 0x2772 PUSH1 0x60 DUP5 ADD DUP5 PUSH2 0x2311 JUMP JUMPDEST PUSH2 0x277F PUSH1 0x60 DUP7 ADD DUP3 PUSH2 0x2328 JUMP JUMPDEST POP PUSH2 0x278D PUSH1 0x80 DUP5 ADD DUP5 PUSH2 0x236F JUMP JUMPDEST PUSH2 0x279A PUSH1 0x80 DUP7 ADD DUP3 PUSH2 0x2386 JUMP JUMPDEST POP PUSH2 0x27A8 PUSH1 0xA0 DUP5 ADD DUP5 PUSH2 0x2311 JUMP JUMPDEST PUSH2 0x27B5 PUSH1 0xA0 DUP7 ADD DUP3 PUSH2 0x2328 JUMP JUMPDEST POP PUSH2 0x27C3 PUSH1 0xC0 DUP5 ADD DUP5 PUSH2 0x2311 JUMP JUMPDEST PUSH2 0x27D0 PUSH1 0xC0 DUP7 ADD DUP3 PUSH2 0x2328 JUMP JUMPDEST POP PUSH2 0x27DE PUSH1 0xE0 DUP5 ADD DUP5 PUSH2 0x23A4 JUMP JUMPDEST DUP6 DUP4 SUB PUSH1 0xE0 DUP8 ADD MSTORE PUSH2 0x27F1 DUP4 DUP3 DUP5 PUSH2 0x2407 JUMP JUMPDEST SWAP3 POP POP POP DUP1 SWAP2 POP POP SWAP3 SWAP2 POP POP JUMP JUMPDEST PUSH1 0x0 PUSH1 0x20 DUP3 ADD SWAP1 POP DUP2 DUP2 SUB PUSH1 0x0 DUP4 ADD MSTORE PUSH2 0x2819 DUP2 DUP5 PUSH2 0x270D JUMP JUMPDEST SWAP1 POP SWAP3 SWAP2 POP POP JUMP JUMPDEST PUSH1 0x0 PUSH2 0x282C DUP3 PUSH2 0x1AE6 JUMP JUMPDEST SWAP2 POP PUSH2 0x2837 DUP4 PUSH2 0x1AE6 JUMP JUMPDEST SWAP3 POP DUP3 DUP3 ADD SWAP1 POP DUP1 DUP3 GT ISZERO PUSH2 0x284F JUMPI PUSH2 0x284E PUSH2 0x26AA JUMP JUMPDEST JUMPDEST SWAP3 SWAP2 POP POP JUMP JUMPDEST PUSH1 0x0 DUP3 DUP3 MSTORE PUSH1 0x20 DUP3 ADD SWAP1 POP SWAP3 SWAP2 POP POP JUMP JUMPDEST PUSH1 0x0 PUSH2 0x2872 DUP4 DUP6 PUSH2 0x2855 JUMP JUMPDEST SWAP4 POP PUSH2 0x287F DUP4 DUP6 DUP5 PUSH2 0x21B5 JUMP JUMPDEST PUSH2 0x2888 DUP4 PUSH2 0x2066 JUMP JUMPDEST DUP5 ADD SWAP1 POP SWAP4 SWAP3 POP POP POP JUMP JUMPDEST PUSH1 0x0 PUSH1 0x40 DUP3 ADD SWAP1 POP DUP2 DUP2 SUB PUSH1 0x0 DUP4 ADD MSTORE PUSH2 0x28AE DUP2 DUP6 DUP8 PUSH2 0x2866 JUMP JUMPDEST SWAP1 POP PUSH2 0x28BD PUSH1 0x20 DUP4 ADD DUP5 PUSH2 0x1AF0 JUMP JUMPDEST SWAP5 SWAP4 POP POP POP POP JUMP JUMPDEST PUSH2 0x28CE DUP2 PUSH2 0x1E44 JUMP JUMPDEST DUP3 MSTORE POP POP JUMP JUMPDEST PUSH1 0x0 PUSH1 0xA0 DUP3 ADD SWAP1 POP PUSH2 0x28E9 PUSH1 0x0 DUP4 ADD DUP9 PUSH2 0x1DC7 JUMP JUMPDEST PUSH2 0x28F6 PUSH1 0x20 DUP4 ADD DUP8 PUSH2 0x1DC7 JUMP JUMPDEST PUSH2 0x2903 PUSH1 0x40 DUP4 ADD DUP7 PUSH2 0x1DC7 JUMP JUMPDEST PUSH2 0x2910 PUSH1 0x60 DUP4 ADD DUP6 PUSH2 0x1AF0 JUMP JUMPDEST PUSH2 0x291D PUSH1 0x80 DUP4 ADD DUP5 PUSH2 0x28C5 JUMP JUMPDEST SWAP7 SWAP6 POP POP POP POP POP POP JUMP JUMPDEST PUSH2 0x2930 DUP2 PUSH2 0x1F0A JUMP JUMPDEST DUP2 EQ PUSH2 0x293B JUMPI PUSH1 0x0 DUP1 REVERT JUMPDEST POP JUMP JUMPDEST PUSH1 0x0 DUP2 MLOAD SWAP1 POP PUSH2 0x294D DUP2 PUSH2 0x2927 JUMP JUMPDEST SWAP3 SWAP2 POP POP JUMP JUMPDEST PUSH1 0x0 DUP1 PUSH1 0x40 DUP4 DUP6 SUB SLT ISZERO PUSH2 0x296A JUMPI PUSH2 0x2969 PUSH2 0x1B24 JUMP JUMPDEST JUMPDEST PUSH1 0x0 PUSH2 0x2978 DUP6 DUP3 DUP7 ADD PUSH2 0x2168 JUMP JUMPDEST SWAP3 POP POP PUSH1 0x20 PUSH2 0x2989 DUP6 DUP3 DUP7 ADD PUSH2 0x293E JUMP JUMPDEST SWAP2 POP POP SWAP3 POP SWAP3 SWAP1 POP JUMP JUMPDEST PUSH32 0x4E487B7100000000000000000000000000000000000000000000000000000000 PUSH1 0x0 MSTORE PUSH1 0x41 PUSH1 0x4 MSTORE PUSH1 0x24 PUSH1 0x0 REVERT JUMPDEST PUSH32 0x4E487B7100000000000000000000000000000000000000000000000000000000 PUSH1 0x0 MSTORE PUSH1 0x32 PUSH1 0x4 MSTORE PUSH1 0x24 PUSH1 0x0 REVERT JUMPDEST PUSH1 0x0 DUP1 REVERT JUMPDEST PUSH2 0x29FF DUP3 PUSH2 0x2066 JUMP JUMPDEST DUP2 ADD DUP2 DUP2 LT PUSH8 0xFFFFFFFFFFFFFFFF DUP3 GT OR ISZERO PUSH2 0x2A1E JUMPI PUSH2 0x2A1D PUSH2 0x2993 JUMP JUMPDEST JUMPDEST DUP1 PUSH1 0x40 MSTORE POP POP POP JUMP JUMPDEST PUSH1 0x0 PUSH2 0x2A31 PUSH2 0x1B1A JUMP JUMPDEST SWAP1 POP PUSH2 0x2A3D DUP3 DUP3 PUSH2 0x29F6 JUMP JUMPDEST SWAP2 SWAP1 POP JUMP JUMPDEST PUSH1 0x0 PUSH8 0xFFFFFFFFFFFFFFFF DUP3 GT ISZERO PUSH2 0x2A5D JUMPI PUSH2 0x2A5C PUSH2 0x2993 JUMP JUMPDEST JUMPDEST PUSH2 0x2A66 DUP3 PUSH2 0x2066 JUMP JUMPDEST SWAP1 POP PUSH1 0x20 DUP2 ADD SWAP1 POP SWAP2 SWAP1 POP JUMP JUMPDEST PUSH1 0x0 PUSH2 0x2A86 PUSH2 0x2A81 DUP5 PUSH2 0x2A42 JUMP JUMPDEST PUSH2 0x2A27 JUMP JUMPDEST SWAP1 POP DUP3 DUP2 MSTORE PUSH1 0x20 DUP2 ADD DUP5 DUP5 DUP5 ADD GT ISZERO PUSH2 0x2AA2 JUMPI PUSH2 0x2AA1 PUSH2 0x29F1 JUMP JUMPDEST JUMPDEST PUSH2 0x2AAD DUP5 DUP3 DUP6 PUSH2 0x203C JUMP JUMPDEST POP SWAP4 SWAP3 POP POP POP JUMP JUMPDEST PUSH1 0x0 DUP3 PUSH1 0x1F DUP4 ADD SLT PUSH2 0x2ACA JUMPI PUSH2 0x2AC9 PUSH2 0x1BDE JUMP JUMPDEST JUMPDEST DUP2 MLOAD PUSH2 0x2ADA DUP5 DUP3 PUSH1 0x20 DUP7 ADD PUSH2 0x2A73 JUMP JUMPDEST SWAP2 POP POP SWAP3 SWAP2 POP POP JUMP JUMPDEST PUSH1 0x0 PUSH1 0x20 DUP3 DUP5 SUB SLT ISZERO PUSH2 0x2AF9 JUMPI PUSH2 0x2AF8 PUSH2 0x1B24 JUMP JUMPDEST JUMPDEST PUSH1 0x0 DUP3 ADD MLOAD PUSH8 0xFFFFFFFFFFFFFFFF DUP2 GT ISZERO PUSH2 0x2B17 JUMPI PUSH2 0x2B16 PUSH2 0x1B29 JUMP JUMPDEST JUMPDEST PUSH2 0x2B23 DUP5 DUP3 DUP6 ADD PUSH2 0x2AB5 JUMP JUMPDEST SWAP2 POP POP SWAP3 SWAP2 POP POP JUMP JUMPDEST PUSH1 0x0 DUP2 MLOAD SWAP1 POP SWAP2 SWAP1 POP JUMP JUMPDEST PUSH1 0x0 PUSH2 0x2B42 DUP3 PUSH2 0x2B2C JUMP JUMPDEST PUSH2 0x2B4C DUP2 DUP6 PUSH2 0x2202 JUMP JUMPDEST SWAP4 POP PUSH2 0x2B5C DUP2 DUP6 PUSH1 0x20 DUP7 ADD PUSH2 0x203C JUMP JUMPDEST PUSH2 0x2B65 DUP2 PUSH2 0x2066 JUMP JUMPDEST DUP5 ADD SWAP2 POP POP SWAP3 SWAP2 POP POP JUMP JUMPDEST PUSH1 0x0 PUSH1 0x20 DUP3 ADD SWAP1 POP DUP2 DUP2 SUB PUSH1 0x0 DUP4 ADD MSTORE PUSH2 0x2B8A DUP2 DUP5 PUSH2 0x2B37 JUMP JUMPDEST SWAP1 POP SWAP3 SWAP2 POP POP JUMP JUMPDEST PUSH1 0x0 PUSH2 0x2B9D DUP3 PUSH2 0x1AE6 JUMP JUMPDEST SWAP2 POP PUSH32 0xFFFFFFFFFFFFFFFFFFFFFFFFFFFFFFFFFFFFFFFFFFFFFFFFFFFFFFFFFFFFFFFF DUP3 SUB PUSH2 0x2BCF JUMPI PUSH2 0x2BCE PUSH2 0x26AA JUMP JUMPDEST JUMPDEST PUSH1 0x1 DUP3 ADD SWAP1 POP SWAP2 SWAP1 POP JUMP JUMPDEST PUSH32 0x4F776E61626C653A206E6577206F776E657220697320746865207A65726F2061 PUSH1 0x0 DUP3 ADD MSTORE PUSH32 0x6464726573730000000000000000000000000000000000000000000000000000 PUSH1 0x20 DUP3 ADD MSTORE POP JUMP JUMPDEST PUSH1 0x0 PUSH2 0x2C36 PUSH1 0x26 DUP4 PUSH2 0x2202 JUMP JUMPDEST SWAP2 POP PUSH2 0x2C41 DUP3 PUSH2 0x2BDA JUMP JUMPDEST PUSH1 0x40 DUP3 ADD SWAP1 POP SWAP2 SWAP1 POP JUMP JUMPDEST PUSH1 0x0 PUSH1 0x20 DUP3 ADD SWAP1 POP DUP2 DUP2 SUB PUSH1 0x0 DUP4 ADD MSTORE PUSH2 0x2C65 DUP2 PUSH2 0x2C29 JUMP JUMPDEST SWAP1 POP SWAP2 SWAP1 POP JUMP JUMPDEST PUSH32 0x646174612074616D706572656400000000000000000000000000000000000000 PUSH1 0x0 DUP3 ADD MSTORE POP JUMP JUMPDEST PUSH1 0x0 PUSH2 0x2CA2 PUSH1 0xD DUP4 PUSH2 0x2202 JUMP JUMPDEST SWAP2 POP PUSH2 0x2CAD DUP3 PUSH2 0x2C6C JUMP JUMPDEST PUSH1 0x20 DUP3 ADD SWAP1 POP SWAP2 SWAP1 POP JUMP JUMPDEST PUSH1 0x0 PUSH1 0x20 DUP3 ADD SWAP1 POP DUP2 DUP2 SUB PUSH1 0x0 DUP4 ADD MSTORE PUSH2 0x2CD1 DUP2 PUSH2 0x2C95 JUMP JUMPDEST SWAP1 POP SWAP2 SWAP1 POP JUMP JUMPDEST PUSH1 0x0 PUSH1 0x60 DUP3 ADD SWAP1 POP PUSH2 0x2CED PUSH1 0x0 DUP4 ADD DUP7 PUSH2 0x1DC7 JUMP JUMPDEST PUSH2 0x2CFA PUSH1 0x20 DUP4 ADD DUP6 PUSH2 0x1DC7 JUMP JUMPDEST PUSH2 0x2D07 PUSH1 0x40 DUP4 ADD DUP5 PUSH2 0x1AF0 JUMP JUMPDEST SWAP5 SWAP4 POP POP POP POP JUMP JUMPDEST PUSH1 0x0 PUSH2 0x2D1A DUP3 PUSH2 0x2020 JUMP JUMPDEST PUSH2 0x2D24 DUP2 DUP6 PUSH2 0x21AA JUMP JUMPDEST SWAP4 POP PUSH2 0x2D34 DUP2 DUP6 PUSH1 0x20 DUP7 ADD PUSH2 0x203C JUMP JUMPDEST DUP1 DUP5 ADD SWAP2 POP POP SWAP3 SWAP2 POP POP JUMP JUMPDEST PUSH1 0x0 PUSH2 0x2D4C DUP3 DUP5 PUSH2 0x2D0F JUMP JUMPDEST SWAP2 POP DUP2 SWAP1 POP SWAP3 SWAP2 POP POP JUMP JUMPDEST PUSH1 0x0 DUP2 MLOAD SWAP1 POP PUSH2 0x2D66 DUP2 PUSH2 0x2343 JUMP JUMPDEST SWAP3 SWAP2 POP POP JUMP JUMPDEST PUSH1 0x0 PUSH1 0x20 DUP3 DUP5 SUB SLT ISZERO PUSH2 0x2D82 JUMPI PUSH2 0x2D81 PUSH2 0x1B24 JUMP JUMPDEST JUMPDEST PUSH1 0x0 PUSH2 0x2D90 DUP5 DUP3 DUP6 ADD PUSH2 0x2D57 JUMP JUMPDEST SWAP2 POP POP SWAP3 SWAP2 POP POP JUMP JUMPDEST PUSH32 0x5472616E7366657248656C7065723A736166655472616E7366657246726F6D00 PUSH1 0x0 DUP3 ADD MSTORE POP JUMP JUMPDEST PUSH1 0x0 PUSH2 0x2DCF PUSH1 0x1F DUP4 PUSH2 0x2202 JUMP JUMPDEST SWAP2 POP PUSH2 0x2DDA DUP3 PUSH2 0x2D99 JUMP JUMPDEST PUSH1 0x20 DUP3 ADD SWAP1 POP SWAP2 SWAP1 POP JUMP JUMPDEST PUSH1 0x0 PUSH1 0x20 DUP3 ADD SWAP1 POP DUP2 DUP2 SUB PUSH1 0x0 DUP4 ADD MSTORE PUSH2 0x2DFE DUP2 PUSH2 0x2DC2 JUMP JUMPDEST SWAP1 POP SWAP2 SWAP1 POP JUMP JUMPDEST PUSH1 0x0 PUSH1 0x40 DUP3 ADD SWAP1 POP PUSH2 0x2E1A PUSH1 0x0 DUP4 ADD DUP6 PUSH2 0x1DC7 JUMP JUMPDEST PUSH2 0x2E27 PUSH1 0x20 DUP4 ADD DUP5 PUSH2 0x1AF0 JUMP JUMPDEST SWAP4 SWAP3 POP POP POP JUMP JUMPDEST PUSH32 0x5472616E7366657248656C7065723A736166655472616E736665720000000000 PUSH1 0x0 DUP3 ADD MSTORE POP JUMP JUMPDEST PUSH1 0x0 PUSH2 0x2E64 PUSH1 0x1B DUP4 PUSH2 0x2202 JUMP JUMPDEST SWAP2 POP PUSH2 0x2E6F DUP3 PUSH2 0x2E2E JUMP JUMPDEST PUSH1 0x20 DUP3 ADD SWAP1 POP SWAP2 SWAP1 POP JUMP JUMPDEST PUSH1 0x0 PUSH1 0x20 DUP3 ADD SWAP1 POP DUP2 DUP2 SUB PUSH1 0x0 DUP4 ADD MSTORE PUSH2 0x2E93 DUP2 PUSH2 0x2E57 JUMP JUMPDEST SWAP1 POP SWAP2 SWAP1 POP JUMP JUMPDEST PUSH32 0x5472616E7366657248656C7065723A73616665417070726F7665000000000000 PUSH1 0x0 DUP3 ADD MSTORE POP JUMP JUMPDEST PUSH1 0x0 PUSH2 0x2ED0 PUSH1 0x1A DUP4 PUSH2 0x2202 JUMP JUMPDEST SWAP2 POP PUSH2 0x2EDB DUP3 PUSH2 0x2E9A JUMP JUMPDEST PUSH1 0x20 DUP3 ADD SWAP1 POP SWAP2 SWAP1 POP JUMP JUMPDEST PUSH1 0x0 PUSH1 0x20 DUP3 ADD SWAP1 POP DUP2 DUP2 SUB PUSH1 0x0 DUP4 ADD MSTORE PUSH2 0x2EFF DUP2 PUSH2 0x2EC3 JUMP JUMPDEST SWAP1 POP SWAP2 SWAP1 POP JUMP JUMPDEST PUSH32 0x5472616E7366657248656C7065723A736166655472616E736665724554480000 PUSH1 0x0 DUP3 ADD MSTORE POP JUMP JUMPDEST PUSH1 0x0 PUSH2 0x2F3C PUSH1 0x1E DUP4 PUSH2 0x2202 JUMP JUMPDEST SWAP2 POP PUSH2 0x2F47 DUP3 PUSH2 0x2F06 JUMP JUMPDEST PUSH1 0x20 DUP3 ADD SWAP1 POP SWAP2 SWAP1 POP JUMP JUMPDEST PUSH1 0x0 PUSH1 0x20 DUP3 ADD SWAP1 POP DUP2 DUP2 SUB PUSH1 0x0 DUP4 ADD MSTORE PUSH2 0x2F6B DUP2 PUSH2 0x2F2F JUMP JUMPDEST SWAP1 POP SWAP2 SWAP1 POP JUMP JUMPDEST PUSH32 0x45786368616E676541676772656761746F723A3A5361666543616C6C65723A73 PUSH1 0x0 DUP3 ADD MSTORE PUSH32 0x61666543616C6C00000000000000000000000000000000000000000000000000 PUSH1 0x20 DUP3 ADD MSTORE POP JUMP JUMPDEST PUSH1 0x0 PUSH2 0x2FCE PUSH1 0x27 DUP4 PUSH2 0x2202 JUMP JUMPDEST SWAP2 POP PUSH2 0x2FD9 DUP3 PUSH2 0x2F72 JUMP JUMPDEST PUSH1 0x40 DUP3 ADD SWAP1 POP SWAP2 SWAP1 POP JUMP JUMPDEST PUSH1 0x0 PUSH1 0x20 DUP3 ADD SWAP1 POP DUP2 DUP2 SUB PUSH1 0x0 DUP4 ADD MSTORE PUSH2 0x2FFD DUP2 PUSH2 0x2FC1 JUMP JUMPDEST SWAP1 POP SWAP2 SWAP1 POP JUMP JUMPDEST PUSH32 0x4F776E61626C653A2063616C6C6572206973206E6F7420746865206F776E6572 PUSH1 0x0 DUP3 ADD MSTORE POP JUMP JUMPDEST PUSH1 0x0 PUSH2 0x303A PUSH1 0x20 DUP4 PUSH2 0x2202 JUMP JUMPDEST SWAP2 POP PUSH2 0x3045 DUP3 PUSH2 0x3004 JUMP JUMPDEST PUSH1 0x20 DUP3 ADD SWAP1 POP SWAP2 SWAP1 POP JUMP JUMPDEST PUSH1 0x0 PUSH1 0x20 DUP3 ADD SWAP1 POP DUP2 DUP2 SUB PUSH1 0x0 DUP4 ADD MSTORE PUSH2 0x3069 DUP2 PUSH2 0x302D JUMP JUMPDEST SWAP1 POP SWAP2 SWAP1 POP JUMP JUMPDEST PUSH32 0x4E487B7100000000000000000000000000000000000000000000000000000000 PUSH1 0x0 MSTORE PUSH1 0x21 PUSH1 0x4 MSTORE PUSH1 0x24 PUSH1 0x0 REVERT JUMPDEST PUSH32 0x45434453413A20696E76616C6964207369676E61747572650000000000000000 PUSH1 0x0 DUP3 ADD MSTORE POP JUMP JUMPDEST PUSH1 0x0 PUSH2 0x30D5 PUSH1 0x18 DUP4 PUSH2 0x2202 JUMP JUMPDEST SWAP2 POP PUSH2 0x30E0 DUP3 PUSH2 0x309F JUMP JUMPDEST PUSH1 0x20 DUP3 ADD SWAP1 POP SWAP2 SWAP1 POP JUMP JUMPDEST PUSH1 0x0 PUSH1 0x20 DUP3 ADD SWAP1 POP DUP2 DUP2 SUB PUSH1 0x0 DUP4 ADD MSTORE PUSH2 0x3104 DUP2 PUSH2 0x30C8 JUMP JUMPDEST SWAP1 POP SWAP2 SWAP1 POP JUMP JUMPDEST PUSH32 0x45434453413A20696E76616C6964207369676E6174757265206C656E67746800 PUSH1 0x0 DUP3 ADD MSTORE POP JUMP JUMPDEST PUSH1 0x0 PUSH2 0x3141 PUSH1 0x1F DUP4 PUSH2 0x2202 JUMP JUMPDEST SWAP2 POP PUSH2 0x314C DUP3 PUSH2 0x310B JUMP JUMPDEST PUSH1 0x20 DUP3 ADD SWAP1 POP SWAP2 SWAP1 POP JUMP JUMPDEST PUSH1 0x0 PUSH1 0x20 DUP3 ADD SWAP1 POP DUP2 DUP2 SUB PUSH1 0x0 DUP4 ADD MSTORE PUSH2 0x3170 DUP2 PUSH2 0x3134 JUMP JUMPDEST SWAP1 POP SWAP2 SWAP1 POP JUMP JUMPDEST PUSH32 0x45434453413A20696E76616C6964207369676E6174757265202773272076616C PUSH1 0x0 DUP3 ADD MSTORE PUSH32 0x7565000000000000000000000000000000000000000000000000000000000000 PUSH1 0x20 DUP3 ADD MSTORE POP JUMP JUMPDEST PUSH1 0x0 PUSH2 0x31D3 PUSH1 0x22 DUP4 PUSH2 0x2202 JUMP JUMPDEST SWAP2 POP PUSH2 0x31DE DUP3 PUSH2 0x3177 JUMP JUMPDEST PUSH1 0x40 DUP3 ADD SWAP1 POP SWAP2 SWAP1 POP JUMP JUMPDEST PUSH1 0x0 PUSH1 0x20 DUP3 ADD SWAP1 POP DUP2 DUP2 SUB PUSH1 0x0 DUP4 ADD MSTORE PUSH2 0x3202 DUP2 PUSH2 0x31C6 JUMP JUMPDEST SWAP1 POP SWAP2 SWAP1 POP JUMP JUMPDEST PUSH1 0x0 DUP2 SWAP1 POP SWAP2 SWAP1 POP JUMP JUMPDEST PUSH2 0x321C DUP2 PUSH2 0x3209 JUMP JUMPDEST DUP3 MSTORE POP POP JUMP JUMPDEST PUSH1 0x0 PUSH1 0x80 DUP3 ADD SWAP1 POP PUSH2 0x3237 PUSH1 0x0 DUP4 ADD DUP8 PUSH2 0x3213 JUMP JUMPDEST PUSH2 0x3244 PUSH1 0x20 DUP4 ADD DUP7 PUSH2 0x28C5 JUMP JUMPDEST PUSH2 0x3251 PUSH1 0x40 DUP4 ADD DUP6 PUSH2 0x3213 JUMP JUMPDEST PUSH2 0x325E PUSH1 0x60 DUP4 ADD DUP5 PUSH2 0x3213 JUMP JUMPDEST SWAP6 SWAP5 POP POP POP POP POP JUMP INVALID LOG2 PUSH5 0x6970667358 0x22 SLT KECCAK256 BYTE 0x25 BALANCE MSIZE 0xED DUP9 PUSH10 0x166ABCE26424F79DAA46 0x4C PUSH9 0x4FDD7BA915238AD83D JUMPI 0xB0 0xC5 0x21 PUSH5 0x736F6C6343 STOP ADDMOD SLT STOP CALLER "
				},
				"gasEstimates": {
					"creation": {
						"codeDepositCost": "2591400",
						"executionCost": "infinite",
						"totalCost": "infinite"
					},
					"external": {
						"Balance(address)": "infinite",
						"BalanceETH()": "385",
						"Bridge((address,address,address,uint256,bool,uint256,uint256,bytes),bytes)": "infinite",
						"ChangeFeeReciever(address)": "27030",
						"Swap((address,address,uint256,uint256,uint256,bool,address,bytes,address,address,bool),bytes)": "infinite",
						"Withdraw(address,address,uint256)": "infinite",
						"WithdrawETH(address,uint256)": "infinite",
						"estimateAmountOut(address,address,address,address,uint256,uint8)": "infinite",
						"feeReciever()": "2602",
						"multicall(bytes[])": "infinite",
						"owner()": "2545",
						"renounceOwnership()": "30487",
						"swapAmountOut()": "2453",
						"transferOwnership(address)": "30810"
					}
				},
				"methodIdentifiers": {
					"Balance(address)": "239fcf0f",
					"BalanceETH()": "231da50d",
					"Bridge((address,address,address,uint256,bool,uint256,uint256,bytes),bytes)": "5cedfda0",
					"ChangeFeeReciever(address)": "ddd0fcd5",
					"Swap((address,address,uint256,uint256,uint256,bool,address,bytes,address,address,bool),bytes)": "3f464ff5",
					"Withdraw(address,address,uint256)": "9b1bfa7f",
					"WithdrawETH(address,uint256)": "566e45b1",
					"estimateAmountOut(address,address,address,address,uint256,uint8)": "a299ed7d",
					"feeReciever()": "f61db740",
					"multicall(bytes[])": "ac9650d8",
					"owner()": "8da5cb5b",
					"renounceOwnership()": "715018a6",
					"swapAmountOut()": "22cedf7d",
					"transferOwnership(address)": "f2fde38b"
				}
			},
			"storageLayout": {
				"storage": [
					{
						"astId": 7,
						"contract": "contracts/ExchangeAggregator.sol:ExchangeAggregator",
						"label": "_owner",
						"offset": 0,
						"slot": "0",
						"type": "t_address"
					},
					{
						"astId": 1499,
						"contract": "contracts/ExchangeAggregator.sol:ExchangeAggregator",
						"label": "feeReciever",
						"offset": 0,
						"slot": "1",
						"type": "t_address"
					},
					{
						"astId": 1503,
						"contract": "contracts/ExchangeAggregator.sol:ExchangeAggregator",
						"label": "processedSignatures",
						"offset": 0,
						"slot": "2",
						"type": "t_mapping(t_bytes_memory_ptr,t_bool)"
					},
					{
						"astId": 1569,
						"contract": "contracts/ExchangeAggregator.sol:ExchangeAggregator",
						"label": "swapAmountOut",
						"offset": 0,
						"slot": "3",
						"type": "t_uint256"
					}
				],
				"types": {
					"t_address": {
						"encoding": "inplace",
						"label": "address",
						"numberOfBytes": "20"
					},
					"t_bool": {
						"encoding": "inplace",
						"label": "bool",
						"numberOfBytes": "1"
					},
					"t_bytes_memory_ptr": {
						"encoding": "bytes",
						"label": "bytes",
						"numberOfBytes": "32"
					},
					"t_mapping(t_bytes_memory_ptr,t_bool)": {
						"encoding": "mapping",
						"key": "t_bytes_memory_ptr",
						"label": "mapping(bytes => bool)",
						"numberOfBytes": "32",
						"value": "t_bool"
					},
					"t_uint256": {
						"encoding": "inplace",
						"label": "uint256",
						"numberOfBytes": "32"
					}
				}
			},
			"userdoc": {
				"kind": "user",
				"methods": {},
				"version": 1
			}
		}
	}
}