{
	"contracts/ExchangeAggregator.sol": {
		"ExchangeAggregator": {
			"abi": [
				{
					"inputs": [
						{
							"internalType": "address",
							"name": "_WETH",
							"type": "address"
						},
						{
							"internalType": "address",
							"name": "_priceAggregator",
							"type": "address"
						}
					],
					"stateMutability": "nonpayable",
					"type": "constructor"
				},
				{
					"anonymous": false,
					"inputs": [
						{
							"indexed": true,
							"internalType": "address",
							"name": "previousOwner",
							"type": "address"
						},
						{
							"indexed": true,
							"internalType": "address",
							"name": "newOwner",
							"type": "address"
						}
					],
					"name": "OwnershipTransferred",
					"type": "event"
				},
				{
					"inputs": [],
					"name": "WETH",
					"outputs": [
						{
							"internalType": "address",
							"name": "",
							"type": "address"
						}
					],
					"stateMutability": "view",
					"type": "function"
				},
				{
					"inputs": [],
					"name": "balanceETH",
					"outputs": [
						{
							"internalType": "uint256",
							"name": "",
							"type": "uint256"
						}
					],
					"stateMutability": "view",
					"type": "function"
				},
				{
					"inputs": [
						{
							"internalType": "address",
							"name": "token",
							"type": "address"
						}
					],
					"name": "balanceToken",
					"outputs": [
						{
							"internalType": "uint256",
							"name": "",
							"type": "uint256"
						}
					],
					"stateMutability": "view",
					"type": "function"
				},
				{
					"inputs": [
						{
							"components": [
								{
									"internalType": "address",
									"name": "t1",
									"type": "address"
								},
								{
									"internalType": "address",
									"name": "t2",
									"type": "address"
								},
								{
									"internalType": "address",
									"name": "provider",
									"type": "address"
								},
								{
									"internalType": "uint8",
									"name": "providerVersion",
									"type": "uint8"
								}
							],
							"internalType": "struct IPriceAggregator.input[]",
							"name": "inputs",
							"type": "tuple[]"
						}
					],
					"name": "getPrices",
					"outputs": [
						{
							"components": [
								{
									"internalType": "address",
									"name": "t1",
									"type": "address"
								},
								{
									"internalType": "address",
									"name": "t2",
									"type": "address"
								},
								{
									"internalType": "uint256",
									"name": "price",
									"type": "uint256"
								},
								{
									"internalType": "uint24",
									"name": "fee",
									"type": "uint24"
								}
							],
							"internalType": "struct IPriceAggregator.output[]",
							"name": "",
							"type": "tuple[]"
						}
					],
					"stateMutability": "view",
					"type": "function"
				},
				{
					"inputs": [],
					"name": "owner",
					"outputs": [
						{
							"internalType": "address",
							"name": "",
							"type": "address"
						}
					],
					"stateMutability": "view",
					"type": "function"
				},
				{
					"inputs": [],
					"name": "priceAggregator",
					"outputs": [
						{
							"internalType": "address",
							"name": "",
							"type": "address"
						}
					],
					"stateMutability": "view",
					"type": "function"
				},
				{
					"inputs": [],
					"name": "renounceOwnership",
					"outputs": [],
					"stateMutability": "nonpayable",
					"type": "function"
				},
				{
					"inputs": [
						{
							"components": [
								{
									"internalType": "address",
									"name": "input",
									"type": "address"
								},
								{
									"internalType": "uint256",
									"name": "totalAmount",
									"type": "uint256"
								},
								{
									"internalType": "uint256",
									"name": "feeAmount",
									"type": "uint256"
								},
								{
									"internalType": "address",
									"name": "swapper",
									"type": "address"
								},
								{
									"internalType": "bytes",
									"name": "data",
									"type": "bytes"
								},
								{
									"internalType": "address",
									"name": "sender",
									"type": "address"
								}
							],
							"internalType": "struct ExchangeAggregator.swapData",
							"name": "data",
							"type": "tuple"
						},
						{
							"internalType": "bytes",
							"name": "sig",
							"type": "bytes"
						}
					],
					"name": "signer",
					"outputs": [
						{
							"internalType": "address",
							"name": "",
							"type": "address"
						}
					],
					"stateMutability": "pure",
					"type": "function"
				},
				{
					"inputs": [
						{
							"components": [
								{
									"internalType": "address",
									"name": "input",
									"type": "address"
								},
								{
									"internalType": "uint256",
									"name": "totalAmount",
									"type": "uint256"
								},
								{
									"internalType": "uint256",
									"name": "feeAmount",
									"type": "uint256"
								},
								{
									"internalType": "address",
									"name": "swapper",
									"type": "address"
								},
								{
									"internalType": "bytes",
									"name": "data",
									"type": "bytes"
								},
								{
									"internalType": "address",
									"name": "sender",
									"type": "address"
								}
							],
							"internalType": "struct ExchangeAggregator.swapData",
							"name": "data",
							"type": "tuple"
						},
						{
							"internalType": "bytes",
							"name": "sig",
							"type": "bytes"
						}
					],
					"name": "swap",
					"outputs": [],
					"stateMutability": "nonpayable",
					"type": "function"
				},
				{
					"inputs": [
						{
							"components": [
								{
									"internalType": "address",
									"name": "input",
									"type": "address"
								},
								{
									"internalType": "uint256",
									"name": "totalAmount",
									"type": "uint256"
								},
								{
									"internalType": "uint256",
									"name": "feeAmount",
									"type": "uint256"
								},
								{
									"internalType": "address",
									"name": "swapper",
									"type": "address"
								},
								{
									"internalType": "bytes",
									"name": "data",
									"type": "bytes"
								},
								{
									"internalType": "address",
									"name": "sender",
									"type": "address"
								}
							],
							"internalType": "struct ExchangeAggregator.swapData",
							"name": "data",
							"type": "tuple"
						},
						{
							"internalType": "bytes",
							"name": "sig",
							"type": "bytes"
						}
					],
					"name": "swapNativeIn",
					"outputs": [],
					"stateMutability": "payable",
					"type": "function"
				},
				{
					"inputs": [
						{
							"internalType": "address",
							"name": "newOwner",
							"type": "address"
						}
					],
					"name": "transferOwnership",
					"outputs": [],
					"stateMutability": "nonpayable",
					"type": "function"
				},
				{
					"inputs": [
						{
							"internalType": "address",
							"name": "to",
							"type": "address"
						},
						{
							"internalType": "uint256",
							"name": "amount",
							"type": "uint256"
						}
					],
					"name": "withdrawETH",
					"outputs": [],
					"stateMutability": "nonpayable",
					"type": "function"
				},
				{
					"inputs": [
						{
							"internalType": "address",
							"name": "token",
							"type": "address"
						},
						{
							"internalType": "address",
							"name": "to",
							"type": "address"
						},
						{
							"internalType": "uint256",
							"name": "amount",
							"type": "uint256"
						}
					],
					"name": "withdrawToken",
					"outputs": [],
					"stateMutability": "nonpayable",
					"type": "function"
				}
			],
			"devdoc": {
				"kind": "dev",
				"methods": {
					"owner()": {
						"details": "Returns the address of the current owner."
					},
					"renounceOwnership()": {
						"details": "Leaves the contract without owner. It will not be possible to call `onlyOwner` functions anymore. Can only be called by the current owner. NOTE: Renouncing ownership will leave the contract without an owner, thereby removing any functionality that is only available to the owner."
					},
					"transferOwnership(address)": {
						"details": "Transfers ownership of the contract to a new account (`newOwner`). Can only be called by the current owner."
					}
				},
				"version": 1
			},
			"evm": {
				"assembly": "    /* \"contracts/ExchangeAggregator.sol\":366:2809  contract ExchangeAggregator is Ownable,IPriceAggregator {... */\n  mstore(0x40, 0x80)\n    /* \"contracts/ExchangeAggregator.sol\":518:642  constructor(address _WETH,address _priceAggregator){... */\n  callvalue\n  dup1\n  iszero\n  tag_1\n  jumpi\n  0x00\n  dup1\n  revert\ntag_1:\n  pop\n  mload(0x40)\n  sub(codesize, bytecodeSize)\n  dup1\n  bytecodeSize\n  dup4\n  codecopy\n  dup2\n  dup2\n  add\n  0x40\n  mstore\n  dup2\n  add\n  swap1\n  tag_2\n  swap2\n  swap1\n  tag_3\n  jump\t// in\ntag_2:\n    /* \"@openzeppelin/contracts/access/Ownable.sol\":936:968  _transferOwnership(_msgSender()) */\n  tag_7\n    /* \"@openzeppelin/contracts/access/Ownable.sol\":955:967  _msgSender() */\n  tag_8\n    /* \"@openzeppelin/contracts/access/Ownable.sol\":955:965  _msgSender */\n  shl(0x20, tag_9)\n    /* \"@openzeppelin/contracts/access/Ownable.sol\":955:967  _msgSender() */\n  0x20\n  shr\n  jump\t// in\ntag_8:\n    /* \"@openzeppelin/contracts/access/Ownable.sol\":936:954  _transferOwnership */\n  shl(0x20, tag_10)\n    /* \"@openzeppelin/contracts/access/Ownable.sol\":936:968  _transferOwnership(_msgSender()) */\n  0x20\n  shr\n  jump\t// in\ntag_7:\n    /* \"contracts/ExchangeAggregator.sol\":586:591  _WETH */\n  dup2\n    /* \"contracts/ExchangeAggregator.sol\":579:583  WETH */\n  0x01\n  0x00\n    /* \"contracts/ExchangeAggregator.sol\":579:591  WETH = _WETH */\n  0x0100\n  exp\n  dup2\n  sload\n  dup2\n  0xffffffffffffffffffffffffffffffffffffffff\n  mul\n  not\n  and\n  swap1\n  dup4\n  0xffffffffffffffffffffffffffffffffffffffff\n  and\n  mul\n  or\n  swap1\n  sstore\n  pop\n    /* \"contracts/ExchangeAggregator.sol\":619:635  _priceAggregator */\n  dup1\n    /* \"contracts/ExchangeAggregator.sol\":601:616  priceAggregator */\n  0x02\n  0x00\n    /* \"contracts/ExchangeAggregator.sol\":601:635  priceAggregator = _priceAggregator */\n  0x0100\n  exp\n  dup2\n  sload\n  dup2\n  0xffffffffffffffffffffffffffffffffffffffff\n  mul\n  not\n  and\n  swap1\n  dup4\n  0xffffffffffffffffffffffffffffffffffffffff\n  and\n  mul\n  or\n  swap1\n  sstore\n  pop\n    /* \"contracts/ExchangeAggregator.sol\":518:642  constructor(address _WETH,address _priceAggregator){... */\n  pop\n  pop\n    /* \"contracts/ExchangeAggregator.sol\":366:2809  contract ExchangeAggregator is Ownable,IPriceAggregator {... */\n  jump(tag_12)\n    /* \"@openzeppelin/contracts/utils/Context.sol\":640:736  function _msgSender() internal view virtual returns (address) {... */\ntag_9:\n    /* \"@openzeppelin/contracts/utils/Context.sol\":693:700  address */\n  0x00\n    /* \"@openzeppelin/contracts/utils/Context.sol\":719:729  msg.sender */\n  caller\n    /* \"@openzeppelin/contracts/utils/Context.sol\":712:729  return msg.sender */\n  swap1\n  pop\n    /* \"@openzeppelin/contracts/utils/Context.sol\":640:736  function _msgSender() internal view virtual returns (address) {... */\n  swap1\n  jump\t// out\n    /* \"@openzeppelin/contracts/access/Ownable.sol\":2433:2620  function _transferOwnership(address newOwner) internal virtual {... */\ntag_10:\n    /* \"@openzeppelin/contracts/access/Ownable.sol\":2506:2522  address oldOwner */\n  0x00\n    /* \"@openzeppelin/contracts/access/Ownable.sol\":2525:2531  _owner */\n  dup1\n  0x00\n  swap1\n  sload\n  swap1\n  0x0100\n  exp\n  swap1\n  div\n  0xffffffffffffffffffffffffffffffffffffffff\n  and\n    /* \"@openzeppelin/contracts/access/Ownable.sol\":2506:2531  address oldOwner = _owner */\n  swap1\n  pop\n    /* \"@openzeppelin/contracts/access/Ownable.sol\":2550:2558  newOwner */\n  dup2\n    /* \"@openzeppelin/contracts/access/Ownable.sol\":2541:2547  _owner */\n  0x00\n  dup1\n    /* \"@openzeppelin/contracts/access/Ownable.sol\":2541:2558  _owner = newOwner */\n  0x0100\n  exp\n  dup2\n  sload\n  dup2\n  0xffffffffffffffffffffffffffffffffffffffff\n  mul\n  not\n  and\n  swap1\n  dup4\n  0xffffffffffffffffffffffffffffffffffffffff\n  and\n  mul\n  or\n  swap1\n  sstore\n  pop\n    /* \"@openzeppelin/contracts/access/Ownable.sol\":2604:2612  newOwner */\n  dup2\n    /* \"@openzeppelin/contracts/access/Ownable.sol\":2573:2613  OwnershipTransferred(oldOwner, newOwner) */\n  0xffffffffffffffffffffffffffffffffffffffff\n  and\n    /* \"@openzeppelin/contracts/access/Ownable.sol\":2594:2602  oldOwner */\n  dup2\n    /* \"@openzeppelin/contracts/access/Ownable.sol\":2573:2613  OwnershipTransferred(oldOwner, newOwner) */\n  0xffffffffffffffffffffffffffffffffffffffff\n  and\n  0x8be0079c531659141344cd1fd0a4f28419497f9722a3daafe3b4186f6b6457e0\n  mload(0x40)\n  mload(0x40)\n  dup1\n  swap2\n  sub\n  swap1\n  log3\n    /* \"@openzeppelin/contracts/access/Ownable.sol\":2496:2620  {... */\n  pop\n    /* \"@openzeppelin/contracts/access/Ownable.sol\":2433:2620  function _transferOwnership(address newOwner) internal virtual {... */\n  pop\n  jump\t// out\n    /* \"#utility.yul\":88:205   */\ntag_16:\n    /* \"#utility.yul\":197:198   */\n  0x00\n    /* \"#utility.yul\":194:195   */\n  dup1\n    /* \"#utility.yul\":187:199   */\n  revert\n    /* \"#utility.yul\":334:460   */\ntag_18:\n    /* \"#utility.yul\":371:378   */\n  0x00\n    /* \"#utility.yul\":411:453   */\n  0xffffffffffffffffffffffffffffffffffffffff\n    /* \"#utility.yul\":404:409   */\n  dup3\n    /* \"#utility.yul\":400:454   */\n  and\n    /* \"#utility.yul\":389:454   */\n  swap1\n  pop\n    /* \"#utility.yul\":334:460   */\n  swap2\n  swap1\n  pop\n  jump\t// out\n    /* \"#utility.yul\":466:562   */\ntag_19:\n    /* \"#utility.yul\":503:510   */\n  0x00\n    /* \"#utility.yul\":532:556   */\n  tag_28\n    /* \"#utility.yul\":550:555   */\n  dup3\n    /* \"#utility.yul\":532:556   */\n  tag_18\n  jump\t// in\ntag_28:\n    /* \"#utility.yul\":521:556   */\n  swap1\n  pop\n    /* \"#utility.yul\":466:562   */\n  swap2\n  swap1\n  pop\n  jump\t// out\n    /* \"#utility.yul\":568:690   */\ntag_20:\n    /* \"#utility.yul\":641:665   */\n  tag_30\n    /* \"#utility.yul\":659:664   */\n  dup2\n    /* \"#utility.yul\":641:665   */\n  tag_19\n  jump\t// in\ntag_30:\n    /* \"#utility.yul\":634:639   */\n  dup2\n    /* \"#utility.yul\":631:666   */\n  eq\n    /* \"#utility.yul\":621:684   */\n  tag_31\n  jumpi\n    /* \"#utility.yul\":680:681   */\n  0x00\n    /* \"#utility.yul\":677:678   */\n  dup1\n    /* \"#utility.yul\":670:682   */\n  revert\n    /* \"#utility.yul\":621:684   */\ntag_31:\n    /* \"#utility.yul\":568:690   */\n  pop\n  jump\t// out\n    /* \"#utility.yul\":696:839   */\ntag_21:\n    /* \"#utility.yul\":753:758   */\n  0x00\n    /* \"#utility.yul\":784:790   */\n  dup2\n    /* \"#utility.yul\":778:791   */\n  mload\n    /* \"#utility.yul\":769:791   */\n  swap1\n  pop\n    /* \"#utility.yul\":800:833   */\n  tag_33\n    /* \"#utility.yul\":827:832   */\n  dup2\n    /* \"#utility.yul\":800:833   */\n  tag_20\n  jump\t// in\ntag_33:\n    /* \"#utility.yul\":696:839   */\n  swap3\n  swap2\n  pop\n  pop\n  jump\t// out\n    /* \"#utility.yul\":845:1352   */\ntag_3:\n    /* \"#utility.yul\":924:930   */\n  0x00\n    /* \"#utility.yul\":932:938   */\n  dup1\n    /* \"#utility.yul\":981:983   */\n  0x40\n    /* \"#utility.yul\":969:978   */\n  dup4\n    /* \"#utility.yul\":960:967   */\n  dup6\n    /* \"#utility.yul\":956:979   */\n  sub\n    /* \"#utility.yul\":952:984   */\n  slt\n    /* \"#utility.yul\":949:1068   */\n  iszero\n  tag_35\n  jumpi\n    /* \"#utility.yul\":987:1066   */\n  tag_36\n  tag_16\n  jump\t// in\ntag_36:\n    /* \"#utility.yul\":949:1068   */\ntag_35:\n    /* \"#utility.yul\":1107:1108   */\n  0x00\n    /* \"#utility.yul\":1132:1196   */\n  tag_37\n    /* \"#utility.yul\":1188:1195   */\n  dup6\n    /* \"#utility.yul\":1179:1185   */\n  dup3\n    /* \"#utility.yul\":1168:1177   */\n  dup7\n    /* \"#utility.yul\":1164:1186   */\n  add\n    /* \"#utility.yul\":1132:1196   */\n  tag_21\n  jump\t// in\ntag_37:\n    /* \"#utility.yul\":1122:1196   */\n  swap3\n  pop\n    /* \"#utility.yul\":1078:1206   */\n  pop\n    /* \"#utility.yul\":1245:1247   */\n  0x20\n    /* \"#utility.yul\":1271:1335   */\n  tag_38\n    /* \"#utility.yul\":1327:1334   */\n  dup6\n    /* \"#utility.yul\":1318:1324   */\n  dup3\n    /* \"#utility.yul\":1307:1316   */\n  dup7\n    /* \"#utility.yul\":1303:1325   */\n  add\n    /* \"#utility.yul\":1271:1335   */\n  tag_21\n  jump\t// in\ntag_38:\n    /* \"#utility.yul\":1261:1335   */\n  swap2\n  pop\n    /* \"#utility.yul\":1216:1345   */\n  pop\n    /* \"#utility.yul\":845:1352   */\n  swap3\n  pop\n  swap3\n  swap1\n  pop\n  jump\t// out\n    /* \"contracts/ExchangeAggregator.sol\":366:2809  contract ExchangeAggregator is Ownable,IPriceAggregator {... */\ntag_12:\n  dataSize(sub_0)\n  dup1\n  dataOffset(sub_0)\n  0x00\n  codecopy\n  0x00\n  return\nstop\n\nsub_0: assembly {\n        /* \"contracts/ExchangeAggregator.sol\":366:2809  contract ExchangeAggregator is Ownable,IPriceAggregator {... */\n      mstore(0x40, 0x80)\n      jumpi(tag_1, lt(calldatasize, 0x04))\n      shr(0xe0, calldataload(0x00))\n      dup1\n      0x715018a6\n      gt\n      tag_15\n      jumpi\n      dup1\n      0xb0867883\n      gt\n      tag_16\n      jumpi\n      dup1\n      0xb0867883\n      eq\n      tag_11\n      jumpi\n      dup1\n      0xecbdbb32\n      eq\n      tag_12\n      jumpi\n      dup1\n      0xf2fde38b\n      eq\n      tag_13\n      jumpi\n      dup1\n      0xff514fa3\n      eq\n      tag_14\n      jumpi\n      jump(tag_1)\n    tag_16:\n      dup1\n      0x715018a6\n      eq\n      tag_8\n      jumpi\n      dup1\n      0x8da5cb5b\n      eq\n      tag_9\n      jumpi\n      dup1\n      0xad5c4648\n      eq\n      tag_10\n      jumpi\n      jump(tag_1)\n    tag_15:\n      dup1\n      0x01e33667\n      eq\n      tag_2\n      jumpi\n      dup1\n      0x04599012\n      eq\n      tag_3\n      jumpi\n      dup1\n      0x2906799b\n      eq\n      tag_4\n      jumpi\n      dup1\n      0x3078fff5\n      eq\n      tag_5\n      jumpi\n      dup1\n      0x4782f779\n      eq\n      tag_6\n      jumpi\n      dup1\n      0x5d86acf1\n      eq\n      tag_7\n      jumpi\n    tag_1:\n      0x00\n      dup1\n      revert\n        /* \"contracts/ExchangeAggregator.sol\":2151:2290  function withdrawToken(address token,address to,uint amount) public onlyOwner {... */\n    tag_2:\n      callvalue\n      dup1\n      iszero\n      tag_17\n      jumpi\n      0x00\n      dup1\n      revert\n    tag_17:\n      pop\n      tag_18\n      0x04\n      dup1\n      calldatasize\n      sub\n      dup2\n      add\n      swap1\n      tag_19\n      swap2\n      swap1\n      tag_20\n      jump\t// in\n    tag_19:\n      tag_21\n      jump\t// in\n    tag_18:\n      stop\n        /* \"contracts/ExchangeAggregator.sol\":1798:1921  function balanceToken(address token) public view returns(uint){... */\n    tag_3:\n      callvalue\n      dup1\n      iszero\n      tag_22\n      jumpi\n      0x00\n      dup1\n      revert\n    tag_22:\n      pop\n      tag_23\n      0x04\n      dup1\n      calldatasize\n      sub\n      dup2\n      add\n      swap1\n      tag_24\n      swap2\n      swap1\n      tag_25\n      jump\t// in\n    tag_24:\n      tag_26\n      jump\t// in\n    tag_23:\n      mload(0x40)\n      tag_27\n      swap2\n      swap1\n      tag_28\n      jump\t// in\n    tag_27:\n      mload(0x40)\n      dup1\n      swap2\n      sub\n      swap1\n      return\n        /* \"contracts/ExchangeAggregator.sol\":819:1235  function swap(swapData calldata data,bytes calldata sig) public {... */\n    tag_4:\n      callvalue\n      dup1\n      iszero\n      tag_29\n      jumpi\n      0x00\n      dup1\n      revert\n    tag_29:\n      pop\n      tag_30\n      0x04\n      dup1\n      calldatasize\n      sub\n      dup2\n      add\n      swap1\n      tag_31\n      swap2\n      swap1\n      tag_32\n      jump\t// in\n    tag_31:\n      tag_33\n      jump\t// in\n    tag_30:\n      stop\n        /* \"contracts/ExchangeAggregator.sol\":482:512  address public priceAggregator */\n    tag_5:\n      callvalue\n      dup1\n      iszero\n      tag_34\n      jumpi\n      0x00\n      dup1\n      revert\n    tag_34:\n      pop\n      tag_35\n      tag_36\n      jump\t// in\n    tag_35:\n      mload(0x40)\n      tag_37\n      swap2\n      swap1\n      tag_38\n      jump\t// in\n    tag_37:\n      mload(0x40)\n      dup1\n      swap2\n      sub\n      swap1\n      return\n        /* \"contracts/ExchangeAggregator.sol\":2025:2145  function withdrawETH(address to,uint amount) public onlyOwner {... */\n    tag_6:\n      callvalue\n      dup1\n      iszero\n      tag_39\n      jumpi\n      0x00\n      dup1\n      revert\n    tag_39:\n      pop\n      tag_40\n      0x04\n      dup1\n      calldatasize\n      sub\n      dup2\n      add\n      swap1\n      tag_41\n      swap2\n      swap1\n      tag_42\n      jump\t// in\n    tag_41:\n      tag_43\n      jump\t// in\n    tag_40:\n      stop\n        /* \"contracts/ExchangeAggregator.sol\":1241:1618  function swapNativeIn(swapData calldata data,bytes calldata sig) public payable {... */\n    tag_7:\n      tag_44\n      0x04\n      dup1\n      calldatasize\n      sub\n      dup2\n      add\n      swap1\n      tag_45\n      swap2\n      swap1\n      tag_32\n      jump\t// in\n    tag_45:\n      tag_46\n      jump\t// in\n    tag_44:\n      stop\n        /* \"@openzeppelin/contracts/access/Ownable.sol\":1831:1932  function renounceOwnership() public virtual onlyOwner {... */\n    tag_8:\n      callvalue\n      dup1\n      iszero\n      tag_47\n      jumpi\n      0x00\n      dup1\n      revert\n    tag_47:\n      pop\n      tag_48\n      tag_49\n      jump\t// in\n    tag_48:\n      stop\n        /* \"@openzeppelin/contracts/access/Ownable.sol\":1201:1286  function owner() public view virtual returns (address) {... */\n    tag_9:\n      callvalue\n      dup1\n      iszero\n      tag_50\n      jumpi\n      0x00\n      dup1\n      revert\n    tag_50:\n      pop\n      tag_51\n      tag_52\n      jump\t// in\n    tag_51:\n      mload(0x40)\n      tag_53\n      swap2\n      swap1\n      tag_38\n      jump\t// in\n    tag_53:\n      mload(0x40)\n      dup1\n      swap2\n      sub\n      swap1\n      return\n        /* \"contracts/ExchangeAggregator.sol\":457:476  address public WETH */\n    tag_10:\n      callvalue\n      dup1\n      iszero\n      tag_54\n      jumpi\n      0x00\n      dup1\n      revert\n    tag_54:\n      pop\n      tag_55\n      tag_56\n      jump\t// in\n    tag_55:\n      mload(0x40)\n      tag_57\n      swap2\n      swap1\n      tag_38\n      jump\t// in\n    tag_57:\n      mload(0x40)\n      dup1\n      swap2\n      sub\n      swap1\n      return\n        /* \"contracts/ExchangeAggregator.sol\":2552:2697  function signer(swapData calldata data, bytes memory sig) public pure returns(address){... */\n    tag_11:\n      callvalue\n      dup1\n      iszero\n      tag_58\n      jumpi\n      0x00\n      dup1\n      revert\n    tag_58:\n      pop\n      tag_59\n      0x04\n      dup1\n      calldatasize\n      sub\n      dup2\n      add\n      swap1\n      tag_60\n      swap2\n      swap1\n      tag_61\n      jump\t// in\n    tag_60:\n      tag_62\n      jump\t// in\n    tag_59:\n      mload(0x40)\n      tag_63\n      swap2\n      swap1\n      tag_38\n      jump\t// in\n    tag_63:\n      mload(0x40)\n      dup1\n      swap2\n      sub\n      swap1\n      return\n        /* \"contracts/ExchangeAggregator.sol\":1927:2019  function balanceETH() public view returns(uint){... */\n    tag_12:\n      callvalue\n      dup1\n      iszero\n      tag_64\n      jumpi\n      0x00\n      dup1\n      revert\n    tag_64:\n      pop\n      tag_65\n      tag_66\n      jump\t// in\n    tag_65:\n      mload(0x40)\n      tag_67\n      swap2\n      swap1\n      tag_28\n      jump\t// in\n    tag_67:\n      mload(0x40)\n      dup1\n      swap2\n      sub\n      swap1\n      return\n        /* \"@openzeppelin/contracts/access/Ownable.sol\":2081:2279  function transferOwnership(address newOwner) public virtual onlyOwner {... */\n    tag_13:\n      callvalue\n      dup1\n      iszero\n      tag_68\n      jumpi\n      0x00\n      dup1\n      revert\n    tag_68:\n      pop\n      tag_69\n      0x04\n      dup1\n      calldatasize\n      sub\n      dup2\n      add\n      swap1\n      tag_70\n      swap2\n      swap1\n      tag_25\n      jump\t// in\n    tag_70:\n      tag_71\n      jump\t// in\n    tag_69:\n      stop\n        /* \"contracts/ExchangeAggregator.sol\":1625:1790  function getPrices(input[] memory inputs) external override view returns (output[] memory){... */\n    tag_14:\n      callvalue\n      dup1\n      iszero\n      tag_72\n      jumpi\n      0x00\n      dup1\n      revert\n    tag_72:\n      pop\n      tag_73\n      0x04\n      dup1\n      calldatasize\n      sub\n      dup2\n      add\n      swap1\n      tag_74\n      swap2\n      swap1\n      tag_75\n      jump\t// in\n    tag_74:\n      tag_76\n      jump\t// in\n    tag_73:\n      mload(0x40)\n      tag_77\n      swap2\n      swap1\n      tag_78\n      jump\t// in\n    tag_77:\n      mload(0x40)\n      dup1\n      swap2\n      sub\n      swap1\n      return\n        /* \"contracts/ExchangeAggregator.sol\":2151:2290  function withdrawToken(address token,address to,uint amount) public onlyOwner {... */\n    tag_21:\n        /* \"@openzeppelin/contracts/access/Ownable.sol\":1094:1107  _checkOwner() */\n      tag_80\n        /* \"@openzeppelin/contracts/access/Ownable.sol\":1094:1105  _checkOwner */\n      tag_81\n        /* \"@openzeppelin/contracts/access/Ownable.sol\":1094:1107  _checkOwner() */\n      jump\t// in\n    tag_80:\n        /* \"contracts/ExchangeAggregator.sol\":2239:2283  TransferHelper.safeTransfer(token,to,amount) */\n      tag_83\n        /* \"contracts/ExchangeAggregator.sol\":2267:2272  token */\n      dup4\n        /* \"contracts/ExchangeAggregator.sol\":2273:2275  to */\n      dup4\n        /* \"contracts/ExchangeAggregator.sol\":2276:2282  amount */\n      dup4\n        /* \"contracts/ExchangeAggregator.sol\":2239:2266  TransferHelper.safeTransfer */\n      tag_84\n        /* \"contracts/ExchangeAggregator.sol\":2239:2283  TransferHelper.safeTransfer(token,to,amount) */\n      jump\t// in\n    tag_83:\n        /* \"contracts/ExchangeAggregator.sol\":2151:2290  function withdrawToken(address token,address to,uint amount) public onlyOwner {... */\n      pop\n      pop\n      pop\n      jump\t// out\n        /* \"contracts/ExchangeAggregator.sol\":1798:1921  function balanceToken(address token) public view returns(uint){... */\n    tag_26:\n        /* \"contracts/ExchangeAggregator.sol\":1855:1859  uint */\n      0x00\n        /* \"contracts/ExchangeAggregator.sol\":1883:1888  token */\n      dup2\n        /* \"contracts/ExchangeAggregator.sol\":1876:1899  IERC20(token).balanceOf */\n      0xffffffffffffffffffffffffffffffffffffffff\n      and\n      0x70a08231\n        /* \"contracts/ExchangeAggregator.sol\":1908:1912  this */\n      address\n        /* \"contracts/ExchangeAggregator.sol\":1876:1914  IERC20(token).balanceOf(address(this)) */\n      mload(0x40)\n      dup3\n      0xffffffff\n      and\n      0xe0\n      shl\n      dup2\n      mstore\n      0x04\n      add\n      tag_86\n      swap2\n      swap1\n      tag_38\n      jump\t// in\n    tag_86:\n      0x20\n      mload(0x40)\n      dup1\n      dup4\n      sub\n      dup2\n      dup7\n      gas\n      staticcall\n      iszero\n      dup1\n      iszero\n      tag_88\n      jumpi\n      returndatasize\n      0x00\n      dup1\n      returndatacopy\n      revert(0x00, returndatasize)\n    tag_88:\n      pop\n      pop\n      pop\n      pop\n      mload(0x40)\n      returndatasize\n      not(0x1f)\n      0x1f\n      dup3\n      add\n      and\n      dup3\n      add\n      dup1\n      0x40\n      mstore\n      pop\n      dup2\n      add\n      swap1\n      tag_89\n      swap2\n      swap1\n      tag_90\n      jump\t// in\n    tag_89:\n        /* \"contracts/ExchangeAggregator.sol\":1869:1914  return IERC20(token).balanceOf(address(this)) */\n      swap1\n      pop\n        /* \"contracts/ExchangeAggregator.sol\":1798:1921  function balanceToken(address token) public view returns(uint){... */\n      swap2\n      swap1\n      pop\n      jump\t// out\n        /* \"contracts/ExchangeAggregator.sol\":819:1235  function swap(swapData calldata data,bytes calldata sig) public {... */\n    tag_33:\n        /* \"contracts/ExchangeAggregator.sol\":916:926  msg.sender */\n      caller\n        /* \"contracts/ExchangeAggregator.sol\":901:926  data.sender == msg.sender */\n      0xffffffffffffffffffffffffffffffffffffffff\n      and\n        /* \"contracts/ExchangeAggregator.sol\":901:905  data */\n      dup4\n        /* \"contracts/ExchangeAggregator.sol\":901:912  data.sender */\n      0xa0\n      add\n      0x20\n      dup2\n      add\n      swap1\n      tag_92\n      swap2\n      swap1\n      tag_25\n      jump\t// in\n    tag_92:\n        /* \"contracts/ExchangeAggregator.sol\":901:926  data.sender == msg.sender */\n      0xffffffffffffffffffffffffffffffffffffffff\n      and\n      eq\n        /* \"contracts/ExchangeAggregator.sol\":893:944  require(data.sender == msg.sender,\"invaled sender\") */\n      tag_93\n      jumpi\n      mload(0x40)\n      0x08c379a000000000000000000000000000000000000000000000000000000000\n      dup2\n      mstore\n      0x04\n      add\n      tag_94\n      swap1\n      tag_95\n      jump\t// in\n    tag_94:\n      mload(0x40)\n      dup1\n      swap2\n      sub\n      swap1\n      revert\n    tag_93:\n        /* \"contracts/ExchangeAggregator.sol\":954:985  checkSig(abi.encode(data), sig) */\n      tag_96\n        /* \"contracts/ExchangeAggregator.sol\":974:978  data */\n      dup4\n        /* \"contracts/ExchangeAggregator.sol\":963:979  abi.encode(data) */\n      add(0x20, mload(0x40))\n      tag_97\n      swap2\n      swap1\n      tag_98\n      jump\t// in\n    tag_97:\n      mload(0x40)\n      0x20\n      dup2\n      dup4\n      sub\n      sub\n      dup2\n      mstore\n      swap1\n      0x40\n      mstore\n        /* \"contracts/ExchangeAggregator.sol\":981:984  sig */\n      dup4\n      dup4\n        /* \"contracts/ExchangeAggregator.sol\":954:985  checkSig(abi.encode(data), sig) */\n      dup1\n      dup1\n      0x1f\n      add\n      0x20\n      dup1\n      swap2\n      div\n      mul\n      0x20\n      add\n      mload(0x40)\n      swap1\n      dup2\n      add\n      0x40\n      mstore\n      dup1\n      swap4\n      swap3\n      swap2\n      swap1\n      dup2\n      dup2\n      mstore\n      0x20\n      add\n      dup4\n      dup4\n      dup1\n      dup3\n      dup5\n      calldatacopy\n      0x00\n      dup2\n      dup5\n      add\n      mstore\n      not(0x1f)\n      0x1f\n      dup3\n      add\n      and\n      swap1\n      pop\n      dup1\n      dup4\n      add\n      swap3\n      pop\n      pop\n      pop\n      pop\n      pop\n      pop\n      pop\n        /* \"contracts/ExchangeAggregator.sol\":954:962  checkSig */\n      tag_99\n        /* \"contracts/ExchangeAggregator.sol\":954:985  checkSig(abi.encode(data), sig) */\n      jump\t// in\n    tag_96:\n        /* \"contracts/ExchangeAggregator.sol\":995:1080  TransferHelper.safeTransferFrom(data.input,msg.sender,address(this),data.totalAmount) */\n      tag_100\n        /* \"contracts/ExchangeAggregator.sol\":1027:1031  data */\n      dup4\n        /* \"contracts/ExchangeAggregator.sol\":1027:1037  data.input */\n      0x00\n      add\n      0x20\n      dup2\n      add\n      swap1\n      tag_101\n      swap2\n      swap1\n      tag_25\n      jump\t// in\n    tag_101:\n        /* \"contracts/ExchangeAggregator.sol\":1038:1048  msg.sender */\n      caller\n        /* \"contracts/ExchangeAggregator.sol\":1057:1061  this */\n      address\n        /* \"contracts/ExchangeAggregator.sol\":1063:1067  data */\n      dup7\n        /* \"contracts/ExchangeAggregator.sol\":1063:1079  data.totalAmount */\n      0x20\n      add\n      calldataload\n        /* \"contracts/ExchangeAggregator.sol\":995:1026  TransferHelper.safeTransferFrom */\n      tag_102\n        /* \"contracts/ExchangeAggregator.sol\":995:1080  TransferHelper.safeTransferFrom(data.input,msg.sender,address(this),data.totalAmount) */\n      jump\t// in\n    tag_100:\n        /* \"contracts/ExchangeAggregator.sol\":1090:1173  TransferHelper.safeApprove(data.input,data.swapper,data.totalAmount-data.feeAmount) */\n      tag_103\n        /* \"contracts/ExchangeAggregator.sol\":1117:1121  data */\n      dup4\n        /* \"contracts/ExchangeAggregator.sol\":1117:1127  data.input */\n      0x00\n      add\n      0x20\n      dup2\n      add\n      swap1\n      tag_104\n      swap2\n      swap1\n      tag_25\n      jump\t// in\n    tag_104:\n        /* \"contracts/ExchangeAggregator.sol\":1128:1132  data */\n      dup5\n        /* \"contracts/ExchangeAggregator.sol\":1128:1140  data.swapper */\n      0x60\n      add\n      0x20\n      dup2\n      add\n      swap1\n      tag_105\n      swap2\n      swap1\n      tag_25\n      jump\t// in\n    tag_105:\n        /* \"contracts/ExchangeAggregator.sol\":1158:1162  data */\n      dup6\n        /* \"contracts/ExchangeAggregator.sol\":1158:1172  data.feeAmount */\n      0x40\n      add\n      calldataload\n        /* \"contracts/ExchangeAggregator.sol\":1141:1145  data */\n      dup7\n        /* \"contracts/ExchangeAggregator.sol\":1141:1157  data.totalAmount */\n      0x20\n      add\n      calldataload\n        /* \"contracts/ExchangeAggregator.sol\":1141:1172  data.totalAmount-data.feeAmount */\n      tag_106\n      swap2\n      swap1\n      tag_107\n      jump\t// in\n    tag_106:\n        /* \"contracts/ExchangeAggregator.sol\":1090:1116  TransferHelper.safeApprove */\n      tag_108\n        /* \"contracts/ExchangeAggregator.sol\":1090:1173  TransferHelper.safeApprove(data.input,data.swapper,data.totalAmount-data.feeAmount) */\n      jump\t// in\n    tag_103:\n        /* \"contracts/ExchangeAggregator.sol\":1183:1228  SafeCaller.safeCall(data.swapper,0,data.data) */\n      tag_109\n        /* \"contracts/ExchangeAggregator.sol\":1203:1207  data */\n      dup4\n        /* \"contracts/ExchangeAggregator.sol\":1203:1215  data.swapper */\n      0x60\n      add\n      0x20\n      dup2\n      add\n      swap1\n      tag_110\n      swap2\n      swap1\n      tag_25\n      jump\t// in\n    tag_110:\n        /* \"contracts/ExchangeAggregator.sol\":1216:1217  0 */\n      0x00\n        /* \"contracts/ExchangeAggregator.sol\":1218:1222  data */\n      dup6\n        /* \"contracts/ExchangeAggregator.sol\":1218:1227  data.data */\n      dup1\n      0x80\n      add\n      swap1\n      tag_111\n      swap2\n      swap1\n      tag_112\n      jump\t// in\n    tag_111:\n        /* \"contracts/ExchangeAggregator.sol\":1183:1228  SafeCaller.safeCall(data.swapper,0,data.data) */\n      dup1\n      dup1\n      0x1f\n      add\n      0x20\n      dup1\n      swap2\n      div\n      mul\n      0x20\n      add\n      mload(0x40)\n      swap1\n      dup2\n      add\n      0x40\n      mstore\n      dup1\n      swap4\n      swap3\n      swap2\n      swap1\n      dup2\n      dup2\n      mstore\n      0x20\n      add\n      dup4\n      dup4\n      dup1\n      dup3\n      dup5\n      calldatacopy\n      0x00\n      dup2\n      dup5\n      add\n      mstore\n      not(0x1f)\n      0x1f\n      dup3\n      add\n      and\n      swap1\n      pop\n      dup1\n      dup4\n      add\n      swap3\n      pop\n      pop\n      pop\n      pop\n      pop\n      pop\n      pop\n        /* \"contracts/ExchangeAggregator.sol\":1183:1202  SafeCaller.safeCall */\n      tag_113\n        /* \"contracts/ExchangeAggregator.sol\":1183:1228  SafeCaller.safeCall(data.swapper,0,data.data) */\n      jump\t// in\n    tag_109:\n        /* \"contracts/ExchangeAggregator.sol\":819:1235  function swap(swapData calldata data,bytes calldata sig) public {... */\n      pop\n      pop\n      pop\n      jump\t// out\n        /* \"contracts/ExchangeAggregator.sol\":482:512  address public priceAggregator */\n    tag_36:\n      0x02\n      0x00\n      swap1\n      sload\n      swap1\n      0x0100\n      exp\n      swap1\n      div\n      0xffffffffffffffffffffffffffffffffffffffff\n      and\n      dup2\n      jump\t// out\n        /* \"contracts/ExchangeAggregator.sol\":2025:2145  function withdrawETH(address to,uint amount) public onlyOwner {... */\n    tag_43:\n        /* \"@openzeppelin/contracts/access/Ownable.sol\":1094:1107  _checkOwner() */\n      tag_115\n        /* \"@openzeppelin/contracts/access/Ownable.sol\":1094:1105  _checkOwner */\n      tag_81\n        /* \"@openzeppelin/contracts/access/Ownable.sol\":1094:1107  _checkOwner() */\n      jump\t// in\n    tag_115:\n        /* \"contracts/ExchangeAggregator.sol\":2097:2138  TransferHelper.safeTransferETH(to,amount) */\n      tag_117\n        /* \"contracts/ExchangeAggregator.sol\":2128:2130  to */\n      dup3\n        /* \"contracts/ExchangeAggregator.sol\":2131:2137  amount */\n      dup3\n        /* \"contracts/ExchangeAggregator.sol\":2097:2127  TransferHelper.safeTransferETH */\n      tag_118\n        /* \"contracts/ExchangeAggregator.sol\":2097:2138  TransferHelper.safeTransferETH(to,amount) */\n      jump\t// in\n    tag_117:\n        /* \"contracts/ExchangeAggregator.sol\":2025:2145  function withdrawETH(address to,uint amount) public onlyOwner {... */\n      pop\n      pop\n      jump\t// out\n        /* \"contracts/ExchangeAggregator.sol\":1241:1618  function swapNativeIn(swapData calldata data,bytes calldata sig) public payable {... */\n    tag_46:\n        /* \"contracts/ExchangeAggregator.sol\":1354:1364  msg.sender */\n      caller\n        /* \"contracts/ExchangeAggregator.sol\":1339:1364  data.sender == msg.sender */\n      0xffffffffffffffffffffffffffffffffffffffff\n      and\n        /* \"contracts/ExchangeAggregator.sol\":1339:1343  data */\n      dup4\n        /* \"contracts/ExchangeAggregator.sol\":1339:1350  data.sender */\n      0xa0\n      add\n      0x20\n      dup2\n      add\n      swap1\n      tag_120\n      swap2\n      swap1\n      tag_25\n      jump\t// in\n    tag_120:\n        /* \"contracts/ExchangeAggregator.sol\":1339:1364  data.sender == msg.sender */\n      0xffffffffffffffffffffffffffffffffffffffff\n      and\n      eq\n        /* \"contracts/ExchangeAggregator.sol\":1331:1382  require(data.sender == msg.sender,\"invaled sender\") */\n      tag_121\n      jumpi\n      mload(0x40)\n      0x08c379a000000000000000000000000000000000000000000000000000000000\n      dup2\n      mstore\n      0x04\n      add\n      tag_122\n      swap1\n      tag_95\n      jump\t// in\n    tag_122:\n      mload(0x40)\n      dup1\n      swap2\n      sub\n      swap1\n      revert\n    tag_121:\n        /* \"contracts/ExchangeAggregator.sol\":1392:1423  checkSig(abi.encode(data), sig) */\n      tag_123\n        /* \"contracts/ExchangeAggregator.sol\":1412:1416  data */\n      dup4\n        /* \"contracts/ExchangeAggregator.sol\":1401:1417  abi.encode(data) */\n      add(0x20, mload(0x40))\n      tag_124\n      swap2\n      swap1\n      tag_98\n      jump\t// in\n    tag_124:\n      mload(0x40)\n      0x20\n      dup2\n      dup4\n      sub\n      sub\n      dup2\n      mstore\n      swap1\n      0x40\n      mstore\n        /* \"contracts/ExchangeAggregator.sol\":1419:1422  sig */\n      dup4\n      dup4\n        /* \"contracts/ExchangeAggregator.sol\":1392:1423  checkSig(abi.encode(data), sig) */\n      dup1\n      dup1\n      0x1f\n      add\n      0x20\n      dup1\n      swap2\n      div\n      mul\n      0x20\n      add\n      mload(0x40)\n      swap1\n      dup2\n      add\n      0x40\n      mstore\n      dup1\n      swap4\n      swap3\n      swap2\n      swap1\n      dup2\n      dup2\n      mstore\n      0x20\n      add\n      dup4\n      dup4\n      dup1\n      dup3\n      dup5\n      calldatacopy\n      0x00\n      dup2\n      dup5\n      add\n      mstore\n      not(0x1f)\n      0x1f\n      dup3\n      add\n      and\n      swap1\n      pop\n      dup1\n      dup4\n      add\n      swap3\n      pop\n      pop\n      pop\n      pop\n      pop\n      pop\n      pop\n        /* \"contracts/ExchangeAggregator.sol\":1392:1400  checkSig */\n      tag_99\n        /* \"contracts/ExchangeAggregator.sol\":1392:1423  checkSig(abi.encode(data), sig) */\n      jump\t// in\n    tag_123:\n        /* \"contracts/ExchangeAggregator.sol\":1454:1458  data */\n      dup3\n        /* \"contracts/ExchangeAggregator.sol\":1454:1470  data.totalAmount */\n      0x20\n      add\n      calldataload\n        /* \"contracts/ExchangeAggregator.sol\":1441:1450  msg.value */\n      callvalue\n        /* \"contracts/ExchangeAggregator.sol\":1441:1470  msg.value >= data.totalAmount */\n      lt\n      iszero\n        /* \"contracts/ExchangeAggregator.sol\":1433:1499  require(msg.value >= data.totalAmount,\"insufficient input amount\") */\n      tag_125\n      jumpi\n      mload(0x40)\n      0x08c379a000000000000000000000000000000000000000000000000000000000\n      dup2\n      mstore\n      0x04\n      add\n      tag_126\n      swap1\n      tag_127\n      jump\t// in\n    tag_126:\n      mload(0x40)\n      dup1\n      swap2\n      sub\n      swap1\n      revert\n    tag_125:\n        /* \"contracts/ExchangeAggregator.sol\":1509:1520  uint amount */\n      0x00\n        /* \"contracts/ExchangeAggregator.sol\":1535:1539  data */\n      dup4\n        /* \"contracts/ExchangeAggregator.sol\":1535:1549  data.feeAmount */\n      0x40\n      add\n      calldataload\n        /* \"contracts/ExchangeAggregator.sol\":1523:1532  msg.value */\n      callvalue\n        /* \"contracts/ExchangeAggregator.sol\":1523:1549  msg.value - data.feeAmount */\n      tag_128\n      swap2\n      swap1\n      tag_107\n      jump\t// in\n    tag_128:\n        /* \"contracts/ExchangeAggregator.sol\":1509:1549  uint amount = msg.value - data.feeAmount */\n      swap1\n      pop\n        /* \"contracts/ExchangeAggregator.sol\":1561:1611  SafeCaller.safeCall(data.swapper,amount,data.data) */\n      tag_129\n        /* \"contracts/ExchangeAggregator.sol\":1581:1585  data */\n      dup5\n        /* \"contracts/ExchangeAggregator.sol\":1581:1593  data.swapper */\n      0x60\n      add\n      0x20\n      dup2\n      add\n      swap1\n      tag_130\n      swap2\n      swap1\n      tag_25\n      jump\t// in\n    tag_130:\n        /* \"contracts/ExchangeAggregator.sol\":1594:1600  amount */\n      dup3\n        /* \"contracts/ExchangeAggregator.sol\":1601:1605  data */\n      dup7\n        /* \"contracts/ExchangeAggregator.sol\":1601:1610  data.data */\n      dup1\n      0x80\n      add\n      swap1\n      tag_131\n      swap2\n      swap1\n      tag_112\n      jump\t// in\n    tag_131:\n        /* \"contracts/ExchangeAggregator.sol\":1561:1611  SafeCaller.safeCall(data.swapper,amount,data.data) */\n      dup1\n      dup1\n      0x1f\n      add\n      0x20\n      dup1\n      swap2\n      div\n      mul\n      0x20\n      add\n      mload(0x40)\n      swap1\n      dup2\n      add\n      0x40\n      mstore\n      dup1\n      swap4\n      swap3\n      swap2\n      swap1\n      dup2\n      dup2\n      mstore\n      0x20\n      add\n      dup4\n      dup4\n      dup1\n      dup3\n      dup5\n      calldatacopy\n      0x00\n      dup2\n      dup5\n      add\n      mstore\n      not(0x1f)\n      0x1f\n      dup3\n      add\n      and\n      swap1\n      pop\n      dup1\n      dup4\n      add\n      swap3\n      pop\n      pop\n      pop\n      pop\n      pop\n      pop\n      pop\n        /* \"contracts/ExchangeAggregator.sol\":1561:1580  SafeCaller.safeCall */\n      tag_113\n        /* \"contracts/ExchangeAggregator.sol\":1561:1611  SafeCaller.safeCall(data.swapper,amount,data.data) */\n      jump\t// in\n    tag_129:\n        /* \"contracts/ExchangeAggregator.sol\":1321:1618  {... */\n      pop\n        /* \"contracts/ExchangeAggregator.sol\":1241:1618  function swapNativeIn(swapData calldata data,bytes calldata sig) public payable {... */\n      pop\n      pop\n      pop\n      jump\t// out\n        /* \"@openzeppelin/contracts/access/Ownable.sol\":1831:1932  function renounceOwnership() public virtual onlyOwner {... */\n    tag_49:\n        /* \"@openzeppelin/contracts/access/Ownable.sol\":1094:1107  _checkOwner() */\n      tag_133\n        /* \"@openzeppelin/contracts/access/Ownable.sol\":1094:1105  _checkOwner */\n      tag_81\n        /* \"@openzeppelin/contracts/access/Ownable.sol\":1094:1107  _checkOwner() */\n      jump\t// in\n    tag_133:\n        /* \"@openzeppelin/contracts/access/Ownable.sol\":1895:1925  _transferOwnership(address(0)) */\n      tag_135\n        /* \"@openzeppelin/contracts/access/Ownable.sol\":1922:1923  0 */\n      0x00\n        /* \"@openzeppelin/contracts/access/Ownable.sol\":1895:1913  _transferOwnership */\n      tag_136\n        /* \"@openzeppelin/contracts/access/Ownable.sol\":1895:1925  _transferOwnership(address(0)) */\n      jump\t// in\n    tag_135:\n        /* \"@openzeppelin/contracts/access/Ownable.sol\":1831:1932  function renounceOwnership() public virtual onlyOwner {... */\n      jump\t// out\n        /* \"@openzeppelin/contracts/access/Ownable.sol\":1201:1286  function owner() public view virtual returns (address) {... */\n    tag_52:\n        /* \"@openzeppelin/contracts/access/Ownable.sol\":1247:1254  address */\n      0x00\n        /* \"@openzeppelin/contracts/access/Ownable.sol\":1273:1279  _owner */\n      dup1\n      0x00\n      swap1\n      sload\n      swap1\n      0x0100\n      exp\n      swap1\n      div\n      0xffffffffffffffffffffffffffffffffffffffff\n      and\n        /* \"@openzeppelin/contracts/access/Ownable.sol\":1266:1279  return _owner */\n      swap1\n      pop\n        /* \"@openzeppelin/contracts/access/Ownable.sol\":1201:1286  function owner() public view virtual returns (address) {... */\n      swap1\n      jump\t// out\n        /* \"contracts/ExchangeAggregator.sol\":457:476  address public WETH */\n    tag_56:\n      0x01\n      0x00\n      swap1\n      sload\n      swap1\n      0x0100\n      exp\n      swap1\n      div\n      0xffffffffffffffffffffffffffffffffffffffff\n      and\n      dup2\n      jump\t// out\n        /* \"contracts/ExchangeAggregator.sol\":2552:2697  function signer(swapData calldata data, bytes memory sig) public pure returns(address){... */\n    tag_62:\n        /* \"contracts/ExchangeAggregator.sol\":2630:2637  address */\n      0x00\n        /* \"contracts/ExchangeAggregator.sol\":2655:2690  hash(abi.encode(data)).recover(sig) */\n      tag_139\n        /* \"contracts/ExchangeAggregator.sol\":2686:2689  sig */\n      dup3\n        /* \"contracts/ExchangeAggregator.sol\":2655:2677  hash(abi.encode(data)) */\n      tag_140\n        /* \"contracts/ExchangeAggregator.sol\":2671:2675  data */\n      dup6\n        /* \"contracts/ExchangeAggregator.sol\":2660:2676  abi.encode(data) */\n      add(0x20, mload(0x40))\n      tag_141\n      swap2\n      swap1\n      tag_98\n      jump\t// in\n    tag_141:\n      mload(0x40)\n      0x20\n      dup2\n      dup4\n      sub\n      sub\n      dup2\n      mstore\n      swap1\n      0x40\n      mstore\n        /* \"contracts/ExchangeAggregator.sol\":2655:2659  hash */\n      tag_142\n        /* \"contracts/ExchangeAggregator.sol\":2655:2677  hash(abi.encode(data)) */\n      jump\t// in\n    tag_140:\n        /* \"contracts/ExchangeAggregator.sol\":2655:2685  hash(abi.encode(data)).recover */\n      tag_143\n      swap1\n        /* \"contracts/ExchangeAggregator.sol\":2655:2690  hash(abi.encode(data)).recover(sig) */\n      swap2\n      swap1\n      0xffffffff\n      and\n      jump\t// in\n    tag_139:\n        /* \"contracts/ExchangeAggregator.sol\":2648:2690  return hash(abi.encode(data)).recover(sig) */\n      swap1\n      pop\n        /* \"contracts/ExchangeAggregator.sol\":2552:2697  function signer(swapData calldata data, bytes memory sig) public pure returns(address){... */\n      swap3\n      swap2\n      pop\n      pop\n      jump\t// out\n        /* \"contracts/ExchangeAggregator.sol\":1927:2019  function balanceETH() public view returns(uint){... */\n    tag_66:\n        /* \"contracts/ExchangeAggregator.sol\":1969:1973  uint */\n      0x00\n        /* \"contracts/ExchangeAggregator.sol\":1991:2012  address(this).balance */\n      selfbalance\n        /* \"contracts/ExchangeAggregator.sol\":1984:2012  return address(this).balance */\n      swap1\n      pop\n        /* \"contracts/ExchangeAggregator.sol\":1927:2019  function balanceETH() public view returns(uint){... */\n      swap1\n      jump\t// out\n        /* \"@openzeppelin/contracts/access/Ownable.sol\":2081:2279  function transferOwnership(address newOwner) public virtual onlyOwner {... */\n    tag_71:\n        /* \"@openzeppelin/contracts/access/Ownable.sol\":1094:1107  _checkOwner() */\n      tag_146\n        /* \"@openzeppelin/contracts/access/Ownable.sol\":1094:1105  _checkOwner */\n      tag_81\n        /* \"@openzeppelin/contracts/access/Ownable.sol\":1094:1107  _checkOwner() */\n      jump\t// in\n    tag_146:\n        /* \"@openzeppelin/contracts/access/Ownable.sol\":2189:2190  0 */\n      0x00\n        /* \"@openzeppelin/contracts/access/Ownable.sol\":2169:2191  newOwner != address(0) */\n      0xffffffffffffffffffffffffffffffffffffffff\n      and\n        /* \"@openzeppelin/contracts/access/Ownable.sol\":2169:2177  newOwner */\n      dup2\n        /* \"@openzeppelin/contracts/access/Ownable.sol\":2169:2191  newOwner != address(0) */\n      0xffffffffffffffffffffffffffffffffffffffff\n      and\n      sub\n        /* \"@openzeppelin/contracts/access/Ownable.sol\":2161:2234  require(newOwner != address(0), \"Ownable: new owner is the zero address\") */\n      tag_148\n      jumpi\n      mload(0x40)\n      0x08c379a000000000000000000000000000000000000000000000000000000000\n      dup2\n      mstore\n      0x04\n      add\n      tag_149\n      swap1\n      tag_150\n      jump\t// in\n    tag_149:\n      mload(0x40)\n      dup1\n      swap2\n      sub\n      swap1\n      revert\n    tag_148:\n        /* \"@openzeppelin/contracts/access/Ownable.sol\":2244:2272  _transferOwnership(newOwner) */\n      tag_151\n        /* \"@openzeppelin/contracts/access/Ownable.sol\":2263:2271  newOwner */\n      dup2\n        /* \"@openzeppelin/contracts/access/Ownable.sol\":2244:2262  _transferOwnership */\n      tag_136\n        /* \"@openzeppelin/contracts/access/Ownable.sol\":2244:2272  _transferOwnership(newOwner) */\n      jump\t// in\n    tag_151:\n        /* \"@openzeppelin/contracts/access/Ownable.sol\":2081:2279  function transferOwnership(address newOwner) public virtual onlyOwner {... */\n      pop\n      jump\t// out\n        /* \"contracts/ExchangeAggregator.sol\":1625:1790  function getPrices(input[] memory inputs) external override view returns (output[] memory){... */\n    tag_76:\n        /* \"contracts/ExchangeAggregator.sol\":1699:1714  output[] memory */\n      0x60\n        /* \"contracts/ExchangeAggregator.sol\":1749:1764  priceAggregator */\n      0x02\n      0x00\n      swap1\n      sload\n      swap1\n      0x0100\n      exp\n      swap1\n      div\n      0xffffffffffffffffffffffffffffffffffffffff\n      and\n        /* \"contracts/ExchangeAggregator.sol\":1732:1775  IPriceAggregator(priceAggregator).getPrices */\n      0xffffffffffffffffffffffffffffffffffffffff\n      and\n      0xff514fa3\n        /* \"contracts/ExchangeAggregator.sol\":1776:1782  inputs */\n      dup4\n        /* \"contracts/ExchangeAggregator.sol\":1732:1783  IPriceAggregator(priceAggregator).getPrices(inputs) */\n      mload(0x40)\n      dup3\n      0xffffffff\n      and\n      0xe0\n      shl\n      dup2\n      mstore\n      0x04\n      add\n      tag_153\n      swap2\n      swap1\n      tag_154\n      jump\t// in\n    tag_153:\n      0x00\n      mload(0x40)\n      dup1\n      dup4\n      sub\n      dup2\n      dup7\n      gas\n      staticcall\n      iszero\n      dup1\n      iszero\n      tag_156\n      jumpi\n      returndatasize\n      0x00\n      dup1\n      returndatacopy\n      revert(0x00, returndatasize)\n    tag_156:\n      pop\n      pop\n      pop\n      pop\n      mload(0x40)\n      returndatasize\n      0x00\n      dup3\n      returndatacopy\n      returndatasize\n      not(0x1f)\n      0x1f\n      dup3\n      add\n      and\n      dup3\n      add\n      dup1\n      0x40\n      mstore\n      pop\n      dup2\n      add\n      swap1\n      tag_157\n      swap2\n      swap1\n      tag_158\n      jump\t// in\n    tag_157:\n        /* \"contracts/ExchangeAggregator.sol\":1725:1783  return IPriceAggregator(priceAggregator).getPrices(inputs) */\n      swap1\n      pop\n        /* \"contracts/ExchangeAggregator.sol\":1625:1790  function getPrices(input[] memory inputs) external override view returns (output[] memory){... */\n      swap2\n      swap1\n      pop\n      jump\t// out\n        /* \"@openzeppelin/contracts/access/Ownable.sol\":1359:1489  function _checkOwner() internal view virtual {... */\n    tag_81:\n        /* \"@openzeppelin/contracts/access/Ownable.sol\":1433:1445  _msgSender() */\n      tag_160\n        /* \"@openzeppelin/contracts/access/Ownable.sol\":1433:1443  _msgSender */\n      tag_161\n        /* \"@openzeppelin/contracts/access/Ownable.sol\":1433:1445  _msgSender() */\n      jump\t// in\n    tag_160:\n        /* \"@openzeppelin/contracts/access/Ownable.sol\":1422:1445  owner() == _msgSender() */\n      0xffffffffffffffffffffffffffffffffffffffff\n      and\n        /* \"@openzeppelin/contracts/access/Ownable.sol\":1422:1429  owner() */\n      tag_162\n        /* \"@openzeppelin/contracts/access/Ownable.sol\":1422:1427  owner */\n      tag_52\n        /* \"@openzeppelin/contracts/access/Ownable.sol\":1422:1429  owner() */\n      jump\t// in\n    tag_162:\n        /* \"@openzeppelin/contracts/access/Ownable.sol\":1422:1445  owner() == _msgSender() */\n      0xffffffffffffffffffffffffffffffffffffffff\n      and\n      eq\n        /* \"@openzeppelin/contracts/access/Ownable.sol\":1414:1482  require(owner() == _msgSender(), \"Ownable: caller is not the owner\") */\n      tag_163\n      jumpi\n      mload(0x40)\n      0x08c379a000000000000000000000000000000000000000000000000000000000\n      dup2\n      mstore\n      0x04\n      add\n      tag_164\n      swap1\n      tag_165\n      jump\t// in\n    tag_164:\n      mload(0x40)\n      dup1\n      swap2\n      sub\n      swap1\n      revert\n    tag_163:\n        /* \"@openzeppelin/contracts/access/Ownable.sol\":1359:1489  function _checkOwner() internal view virtual {... */\n      jump\t// out\n        /* \"contracts/libraries/transferHelper.sol\":655:1095  function safeTransfer(... */\n    tag_84:\n        /* \"contracts/libraries/transferHelper.sol\":835:847  bool success */\n      0x00\n        /* \"contracts/libraries/transferHelper.sol\":849:866  bytes memory data */\n      dup1\n        /* \"contracts/libraries/transferHelper.sol\":870:875  token */\n      dup5\n        /* \"contracts/libraries/transferHelper.sol\":870:880  token.call */\n      0xffffffffffffffffffffffffffffffffffffffff\n      and\n        /* \"contracts/libraries/transferHelper.sol\":904:914  0xa9059cbb */\n      0xa9059cbb\n        /* \"contracts/libraries/transferHelper.sol\":916:918  to */\n      dup6\n        /* \"contracts/libraries/transferHelper.sol\":920:925  value */\n      dup6\n        /* \"contracts/libraries/transferHelper.sol\":881:926  abi.encodeWithSelector(0xa9059cbb, to, value) */\n      add(0x24, mload(0x40))\n      tag_167\n      swap3\n      swap2\n      swap1\n      tag_168\n      jump\t// in\n    tag_167:\n      mload(0x40)\n      0x20\n      dup2\n      dup4\n      sub\n      sub\n      dup2\n      mstore\n      swap1\n      0x40\n      mstore\n      swap1\n      0xe0\n      shl\n      0x20\n      dup3\n      add\n      dup1\n      mload\n      0xffffffffffffffffffffffffffffffffffffffffffffffffffffffff\n      dup4\n      dup2\n      dup4\n      and\n      or\n      dup4\n      mstore\n      pop\n      pop\n      pop\n      pop\n        /* \"contracts/libraries/transferHelper.sol\":870:927  token.call(abi.encodeWithSelector(0xa9059cbb, to, value)) */\n      mload(0x40)\n      tag_169\n      swap2\n      swap1\n      tag_170\n      jump\t// in\n    tag_169:\n      0x00\n      mload(0x40)\n      dup1\n      dup4\n      sub\n      dup2\n      0x00\n      dup7\n      gas\n      call\n      swap2\n      pop\n      pop\n      returndatasize\n      dup1\n      0x00\n      dup2\n      eq\n      tag_173\n      jumpi\n      mload(0x40)\n      swap2\n      pop\n      and(add(returndatasize, 0x3f), not(0x1f))\n      dup3\n      add\n      0x40\n      mstore\n      returndatasize\n      dup3\n      mstore\n      returndatasize\n      0x00\n      0x20\n      dup5\n      add\n      returndatacopy\n      jump(tag_172)\n    tag_173:\n      0x60\n      swap2\n      pop\n    tag_172:\n      pop\n        /* \"contracts/libraries/transferHelper.sol\":834:927  (bool success, bytes memory data) = token.call(abi.encodeWithSelector(0xa9059cbb, to, value)) */\n      swap2\n      pop\n      swap2\n      pop\n        /* \"contracts/libraries/transferHelper.sol\":958:965  success */\n      dup2\n        /* \"contracts/libraries/transferHelper.sol\":958:1015  success && (data.length == 0 || abi.decode(data, (bool))) */\n      dup1\n      iszero\n      tag_174\n      jumpi\n      pop\n        /* \"contracts/libraries/transferHelper.sol\":985:986  0 */\n      0x00\n        /* \"contracts/libraries/transferHelper.sol\":970:974  data */\n      dup2\n        /* \"contracts/libraries/transferHelper.sol\":970:981  data.length */\n      mload\n        /* \"contracts/libraries/transferHelper.sol\":970:986  data.length == 0 */\n      eq\n        /* \"contracts/libraries/transferHelper.sol\":970:1014  data.length == 0 || abi.decode(data, (bool)) */\n      dup1\n      tag_175\n      jumpi\n      pop\n        /* \"contracts/libraries/transferHelper.sol\":1001:1005  data */\n      dup1\n        /* \"contracts/libraries/transferHelper.sol\":990:1014  abi.decode(data, (bool)) */\n      dup1\n      0x20\n      add\n      swap1\n      mload\n      dup2\n      add\n      swap1\n      tag_176\n      swap2\n      swap1\n      tag_177\n      jump\t// in\n    tag_176:\n        /* \"contracts/libraries/transferHelper.sol\":970:1014  data.length == 0 || abi.decode(data, (bool)) */\n    tag_175:\n        /* \"contracts/libraries/transferHelper.sol\":958:1015  success && (data.length == 0 || abi.decode(data, (bool))) */\n    tag_174:\n        /* \"contracts/libraries/transferHelper.sol\":937:1088  require(... */\n      tag_178\n      jumpi\n      mload(0x40)\n      0x08c379a000000000000000000000000000000000000000000000000000000000\n      dup2\n      mstore\n      0x04\n      add\n      tag_179\n      swap1\n      tag_180\n      jump\t// in\n    tag_179:\n      mload(0x40)\n      dup1\n      swap2\n      sub\n      swap1\n      revert\n    tag_178:\n        /* \"contracts/libraries/transferHelper.sol\":758:1095  {... */\n      pop\n      pop\n        /* \"contracts/libraries/transferHelper.sol\":655:1095  function safeTransfer(... */\n      pop\n      pop\n      pop\n      jump\t// out\n        /* \"contracts/ExchangeAggregator.sol\":2297:2546  function checkSig(bytes memory data, bytes memory sig) private view {... */\n    tag_99:\n        /* \"contracts/ExchangeAggregator.sol\":2385:2389  0x1b */\n      0x1b\n        /* \"contracts/ExchangeAggregator.sol\":2375:2389  sig[64] = 0x1b */\n      0xf8\n      shl\n        /* \"contracts/ExchangeAggregator.sol\":2375:2378  sig */\n      dup2\n        /* \"contracts/ExchangeAggregator.sol\":2379:2381  64 */\n      0x40\n        /* \"contracts/ExchangeAggregator.sol\":2375:2382  sig[64] */\n      dup2\n      mload\n      dup2\n      lt\n      tag_182\n      jumpi\n      tag_183\n      tag_184\n      jump\t// in\n    tag_183:\n    tag_182:\n      0x20\n      add\n      add\n        /* \"contracts/ExchangeAggregator.sol\":2375:2389  sig[64] = 0x1b */\n      swap1\n      not(0xffffffffffffffffffffffffffffffffffffffffffffffffffffffffffffff)\n      and\n      swap1\n      dup2\n      0x00\n      byte\n      swap1\n      mstore8\n      pop\n        /* \"contracts/ExchangeAggregator.sol\":2430:2437  owner() */\n      tag_185\n        /* \"contracts/ExchangeAggregator.sol\":2430:2435  owner */\n      tag_52\n        /* \"contracts/ExchangeAggregator.sol\":2430:2437  owner() */\n      jump\t// in\n    tag_185:\n        /* \"contracts/ExchangeAggregator.sol\":2403:2437  hash(data).recover(sig) == owner() */\n      0xffffffffffffffffffffffffffffffffffffffff\n      and\n        /* \"contracts/ExchangeAggregator.sol\":2403:2426  hash(data).recover(sig) */\n      tag_186\n        /* \"contracts/ExchangeAggregator.sol\":2422:2425  sig */\n      dup3\n        /* \"contracts/ExchangeAggregator.sol\":2403:2413  hash(data) */\n      tag_187\n        /* \"contracts/ExchangeAggregator.sol\":2408:2412  data */\n      dup6\n        /* \"contracts/ExchangeAggregator.sol\":2403:2407  hash */\n      tag_142\n        /* \"contracts/ExchangeAggregator.sol\":2403:2413  hash(data) */\n      jump\t// in\n    tag_187:\n        /* \"contracts/ExchangeAggregator.sol\":2403:2421  hash(data).recover */\n      tag_143\n      swap1\n        /* \"contracts/ExchangeAggregator.sol\":2403:2426  hash(data).recover(sig) */\n      swap2\n      swap1\n      0xffffffff\n      and\n      jump\t// in\n    tag_186:\n        /* \"contracts/ExchangeAggregator.sol\":2403:2437  hash(data).recover(sig) == owner() */\n      0xffffffffffffffffffffffffffffffffffffffff\n      and\n      sub\n        /* \"contracts/ExchangeAggregator.sol\":2399:2447  if (hash(data).recover(sig) == owner()) return ; */\n      iszero\n        /* \"contracts/ExchangeAggregator.sol\":2439:2447  return ; */\n      tag_181\n        /* \"contracts/ExchangeAggregator.sol\":2399:2447  if (hash(data).recover(sig) == owner()) return ; */\n      jumpi\n        /* \"contracts/ExchangeAggregator.sol\":2466:2470  0x1c */\n      0x1c\n        /* \"contracts/ExchangeAggregator.sol\":2456:2470  sig[64] = 0x1c */\n      0xf8\n      shl\n        /* \"contracts/ExchangeAggregator.sol\":2456:2459  sig */\n      dup2\n        /* \"contracts/ExchangeAggregator.sol\":2460:2462  64 */\n      0x40\n        /* \"contracts/ExchangeAggregator.sol\":2456:2463  sig[64] */\n      dup2\n      mload\n      dup2\n      lt\n      tag_189\n      jumpi\n      tag_190\n      tag_184\n      jump\t// in\n    tag_190:\n    tag_189:\n      0x20\n      add\n      add\n        /* \"contracts/ExchangeAggregator.sol\":2456:2470  sig[64] = 0x1c */\n      swap1\n      not(0xffffffffffffffffffffffffffffffffffffffffffffffffffffffffffffff)\n      and\n      swap1\n      dup2\n      0x00\n      byte\n      swap1\n      mstore8\n      pop\n        /* \"contracts/ExchangeAggregator.sol\":2515:2522  owner() */\n      tag_191\n        /* \"contracts/ExchangeAggregator.sol\":2515:2520  owner */\n      tag_52\n        /* \"contracts/ExchangeAggregator.sol\":2515:2522  owner() */\n      jump\t// in\n    tag_191:\n        /* \"contracts/ExchangeAggregator.sol\":2488:2522  hash(data).recover(sig) == owner() */\n      0xffffffffffffffffffffffffffffffffffffffff\n      and\n        /* \"contracts/ExchangeAggregator.sol\":2488:2511  hash(data).recover(sig) */\n      tag_192\n        /* \"contracts/ExchangeAggregator.sol\":2507:2510  sig */\n      dup3\n        /* \"contracts/ExchangeAggregator.sol\":2488:2498  hash(data) */\n      tag_193\n        /* \"contracts/ExchangeAggregator.sol\":2493:2497  data */\n      dup6\n        /* \"contracts/ExchangeAggregator.sol\":2488:2492  hash */\n      tag_142\n        /* \"contracts/ExchangeAggregator.sol\":2488:2498  hash(data) */\n      jump\t// in\n    tag_193:\n        /* \"contracts/ExchangeAggregator.sol\":2488:2506  hash(data).recover */\n      tag_143\n      swap1\n        /* \"contracts/ExchangeAggregator.sol\":2488:2511  hash(data).recover(sig) */\n      swap2\n      swap1\n      0xffffffff\n      and\n      jump\t// in\n    tag_192:\n        /* \"contracts/ExchangeAggregator.sol\":2488:2522  hash(data).recover(sig) == owner() */\n      0xffffffffffffffffffffffffffffffffffffffff\n      and\n      eq\n        /* \"contracts/ExchangeAggregator.sol\":2480:2539  require(hash(data).recover(sig) == owner(),\"data tampered\") */\n      tag_194\n      jumpi\n      mload(0x40)\n      0x08c379a000000000000000000000000000000000000000000000000000000000\n      dup2\n      mstore\n      0x04\n      add\n      tag_195\n      swap1\n      tag_196\n      jump\t// in\n    tag_195:\n      mload(0x40)\n      dup1\n      swap2\n      sub\n      swap1\n      revert\n    tag_194:\n        /* \"contracts/ExchangeAggregator.sol\":2297:2546  function checkSig(bytes memory data, bytes memory sig) private view {... */\n    tag_181:\n      pop\n      pop\n      jump\t// out\n        /* \"contracts/libraries/transferHelper.sol\":1101:1589  function safeTransferFrom(... */\n    tag_102:\n        /* \"contracts/libraries/transferHelper.sol\":1319:1331  bool success */\n      0x00\n        /* \"contracts/libraries/transferHelper.sol\":1333:1350  bytes memory data */\n      dup1\n        /* \"contracts/libraries/transferHelper.sol\":1354:1359  token */\n      dup6\n        /* \"contracts/libraries/transferHelper.sol\":1354:1364  token.call */\n      0xffffffffffffffffffffffffffffffffffffffff\n      and\n        /* \"contracts/libraries/transferHelper.sol\":1388:1398  0x23b872dd */\n      0x23b872dd\n        /* \"contracts/libraries/transferHelper.sol\":1400:1404  from */\n      dup7\n        /* \"contracts/libraries/transferHelper.sol\":1406:1408  to */\n      dup7\n        /* \"contracts/libraries/transferHelper.sol\":1410:1415  value */\n      dup7\n        /* \"contracts/libraries/transferHelper.sol\":1365:1416  abi.encodeWithSelector(0x23b872dd, from, to, value) */\n      add(0x24, mload(0x40))\n      tag_198\n      swap4\n      swap3\n      swap2\n      swap1\n      tag_199\n      jump\t// in\n    tag_198:\n      mload(0x40)\n      0x20\n      dup2\n      dup4\n      sub\n      sub\n      dup2\n      mstore\n      swap1\n      0x40\n      mstore\n      swap1\n      0xe0\n      shl\n      0x20\n      dup3\n      add\n      dup1\n      mload\n      0xffffffffffffffffffffffffffffffffffffffffffffffffffffffff\n      dup4\n      dup2\n      dup4\n      and\n      or\n      dup4\n      mstore\n      pop\n      pop\n      pop\n      pop\n        /* \"contracts/libraries/transferHelper.sol\":1354:1417  token.call(abi.encodeWithSelector(0x23b872dd, from, to, value)) */\n      mload(0x40)\n      tag_200\n      swap2\n      swap1\n      tag_170\n      jump\t// in\n    tag_200:\n      0x00\n      mload(0x40)\n      dup1\n      dup4\n      sub\n      dup2\n      0x00\n      dup7\n      gas\n      call\n      swap2\n      pop\n      pop\n      returndatasize\n      dup1\n      0x00\n      dup2\n      eq\n      tag_203\n      jumpi\n      mload(0x40)\n      swap2\n      pop\n      and(add(returndatasize, 0x3f), not(0x1f))\n      dup3\n      add\n      0x40\n      mstore\n      returndatasize\n      dup3\n      mstore\n      returndatasize\n      0x00\n      0x20\n      dup5\n      add\n      returndatacopy\n      jump(tag_202)\n    tag_203:\n      0x60\n      swap2\n      pop\n    tag_202:\n      pop\n        /* \"contracts/libraries/transferHelper.sol\":1318:1417  (bool success, bytes memory data) = token.call(abi.encodeWithSelector(0x23b872dd, from, to, value)) */\n      swap2\n      pop\n      swap2\n      pop\n        /* \"contracts/libraries/transferHelper.sol\":1448:1455  success */\n      dup2\n        /* \"contracts/libraries/transferHelper.sol\":1448:1505  success && (data.length == 0 || abi.decode(data, (bool))) */\n      dup1\n      iszero\n      tag_204\n      jumpi\n      pop\n        /* \"contracts/libraries/transferHelper.sol\":1475:1476  0 */\n      0x00\n        /* \"contracts/libraries/transferHelper.sol\":1460:1464  data */\n      dup2\n        /* \"contracts/libraries/transferHelper.sol\":1460:1471  data.length */\n      mload\n        /* \"contracts/libraries/transferHelper.sol\":1460:1476  data.length == 0 */\n      eq\n        /* \"contracts/libraries/transferHelper.sol\":1460:1504  data.length == 0 || abi.decode(data, (bool)) */\n      dup1\n      tag_205\n      jumpi\n      pop\n        /* \"contracts/libraries/transferHelper.sol\":1491:1495  data */\n      dup1\n        /* \"contracts/libraries/transferHelper.sol\":1480:1504  abi.decode(data, (bool)) */\n      dup1\n      0x20\n      add\n      swap1\n      mload\n      dup2\n      add\n      swap1\n      tag_206\n      swap2\n      swap1\n      tag_177\n      jump\t// in\n    tag_206:\n        /* \"contracts/libraries/transferHelper.sol\":1460:1504  data.length == 0 || abi.decode(data, (bool)) */\n    tag_205:\n        /* \"contracts/libraries/transferHelper.sol\":1448:1505  success && (data.length == 0 || abi.decode(data, (bool))) */\n    tag_204:\n        /* \"contracts/libraries/transferHelper.sol\":1427:1582  require(... */\n      tag_207\n      jumpi\n      mload(0x40)\n      0x08c379a000000000000000000000000000000000000000000000000000000000\n      dup2\n      mstore\n      0x04\n      add\n      tag_208\n      swap1\n      tag_209\n      jump\t// in\n    tag_208:\n      mload(0x40)\n      dup1\n      swap2\n      sub\n      swap1\n      revert\n    tag_207:\n        /* \"contracts/libraries/transferHelper.sol\":1230:1589  {... */\n      pop\n      pop\n        /* \"contracts/libraries/transferHelper.sol\":1101:1589  function safeTransferFrom(... */\n      pop\n      pop\n      pop\n      pop\n      jump\t// out\n        /* \"contracts/libraries/transferHelper.sol\":212:649  function safeApprove(... */\n    tag_108:\n        /* \"contracts/libraries/transferHelper.sol\":390:402  bool success */\n      0x00\n        /* \"contracts/libraries/transferHelper.sol\":404:421  bytes memory data */\n      dup1\n        /* \"contracts/libraries/transferHelper.sol\":425:430  token */\n      dup5\n        /* \"contracts/libraries/transferHelper.sol\":425:435  token.call */\n      0xffffffffffffffffffffffffffffffffffffffff\n      and\n        /* \"contracts/libraries/transferHelper.sol\":459:469  0x095ea7b3 */\n      0x095ea7b3\n        /* \"contracts/libraries/transferHelper.sol\":471:473  to */\n      dup6\n        /* \"contracts/libraries/transferHelper.sol\":475:480  value */\n      dup6\n        /* \"contracts/libraries/transferHelper.sol\":436:481  abi.encodeWithSelector(0x095ea7b3, to, value) */\n      add(0x24, mload(0x40))\n      tag_211\n      swap3\n      swap2\n      swap1\n      tag_168\n      jump\t// in\n    tag_211:\n      mload(0x40)\n      0x20\n      dup2\n      dup4\n      sub\n      sub\n      dup2\n      mstore\n      swap1\n      0x40\n      mstore\n      swap1\n      0xe0\n      shl\n      0x20\n      dup3\n      add\n      dup1\n      mload\n      0xffffffffffffffffffffffffffffffffffffffffffffffffffffffff\n      dup4\n      dup2\n      dup4\n      and\n      or\n      dup4\n      mstore\n      pop\n      pop\n      pop\n      pop\n        /* \"contracts/libraries/transferHelper.sol\":425:482  token.call(abi.encodeWithSelector(0x095ea7b3, to, value)) */\n      mload(0x40)\n      tag_212\n      swap2\n      swap1\n      tag_170\n      jump\t// in\n    tag_212:\n      0x00\n      mload(0x40)\n      dup1\n      dup4\n      sub\n      dup2\n      0x00\n      dup7\n      gas\n      call\n      swap2\n      pop\n      pop\n      returndatasize\n      dup1\n      0x00\n      dup2\n      eq\n      tag_215\n      jumpi\n      mload(0x40)\n      swap2\n      pop\n      and(add(returndatasize, 0x3f), not(0x1f))\n      dup3\n      add\n      0x40\n      mstore\n      returndatasize\n      dup3\n      mstore\n      returndatasize\n      0x00\n      0x20\n      dup5\n      add\n      returndatacopy\n      jump(tag_214)\n    tag_215:\n      0x60\n      swap2\n      pop\n    tag_214:\n      pop\n        /* \"contracts/libraries/transferHelper.sol\":389:482  (bool success, bytes memory data) = token.call(abi.encodeWithSelector(0x095ea7b3, to, value)) */\n      swap2\n      pop\n      swap2\n      pop\n        /* \"contracts/libraries/transferHelper.sol\":513:520  success */\n      dup2\n        /* \"contracts/libraries/transferHelper.sol\":513:570  success && (data.length == 0 || abi.decode(data, (bool))) */\n      dup1\n      iszero\n      tag_216\n      jumpi\n      pop\n        /* \"contracts/libraries/transferHelper.sol\":540:541  0 */\n      0x00\n        /* \"contracts/libraries/transferHelper.sol\":525:529  data */\n      dup2\n        /* \"contracts/libraries/transferHelper.sol\":525:536  data.length */\n      mload\n        /* \"contracts/libraries/transferHelper.sol\":525:541  data.length == 0 */\n      eq\n        /* \"contracts/libraries/transferHelper.sol\":525:569  data.length == 0 || abi.decode(data, (bool)) */\n      dup1\n      tag_217\n      jumpi\n      pop\n        /* \"contracts/libraries/transferHelper.sol\":556:560  data */\n      dup1\n        /* \"contracts/libraries/transferHelper.sol\":545:569  abi.decode(data, (bool)) */\n      dup1\n      0x20\n      add\n      swap1\n      mload\n      dup2\n      add\n      swap1\n      tag_218\n      swap2\n      swap1\n      tag_177\n      jump\t// in\n    tag_218:\n        /* \"contracts/libraries/transferHelper.sol\":525:569  data.length == 0 || abi.decode(data, (bool)) */\n    tag_217:\n        /* \"contracts/libraries/transferHelper.sol\":513:570  success && (data.length == 0 || abi.decode(data, (bool))) */\n    tag_216:\n        /* \"contracts/libraries/transferHelper.sol\":492:642  require(... */\n      tag_219\n      jumpi\n      mload(0x40)\n      0x08c379a000000000000000000000000000000000000000000000000000000000\n      dup2\n      mstore\n      0x04\n      add\n      tag_220\n      swap1\n      tag_221\n      jump\t// in\n    tag_220:\n      mload(0x40)\n      dup1\n      swap2\n      sub\n      swap1\n      revert\n    tag_219:\n        /* \"contracts/libraries/transferHelper.sol\":314:649  {... */\n      pop\n      pop\n        /* \"contracts/libraries/transferHelper.sol\":212:649  function safeApprove(... */\n      pop\n      pop\n      pop\n      jump\t// out\n        /* \"contracts/libraries/safeCaller.sol\":83:554  function safeCall(... */\n    tag_113:\n        /* \"contracts/libraries/safeCaller.sol\":201:213  bool succeed */\n      0x00\n        /* \"contracts/libraries/safeCaller.sol\":214:233  bytes memory result */\n      dup1\n        /* \"contracts/libraries/safeCaller.sol\":237:246  _contract */\n      dup5\n        /* \"contracts/libraries/safeCaller.sol\":237:251  _contract.call */\n      0xffffffffffffffffffffffffffffffffffffffff\n      and\n        /* \"contracts/libraries/safeCaller.sol\":259:264  value */\n      dup5\n        /* \"contracts/libraries/safeCaller.sol\":266:270  data */\n      dup5\n        /* \"contracts/libraries/safeCaller.sol\":237:271  _contract.call{value: value}(data) */\n      mload(0x40)\n      tag_223\n      swap2\n      swap1\n      tag_170\n      jump\t// in\n    tag_223:\n      0x00\n      mload(0x40)\n      dup1\n      dup4\n      sub\n      dup2\n      dup6\n      dup8\n      gas\n      call\n      swap3\n      pop\n      pop\n      pop\n      returndatasize\n      dup1\n      0x00\n      dup2\n      eq\n      tag_226\n      jumpi\n      mload(0x40)\n      swap2\n      pop\n      and(add(returndatasize, 0x3f), not(0x1f))\n      dup3\n      add\n      0x40\n      mstore\n      returndatasize\n      dup3\n      mstore\n      returndatasize\n      0x00\n      0x20\n      dup5\n      add\n      returndatacopy\n      jump(tag_225)\n    tag_226:\n      0x60\n      swap2\n      pop\n    tag_225:\n      pop\n        /* \"contracts/libraries/safeCaller.sol\":200:271  (bool succeed,bytes memory result) = _contract.call{value: value}(data) */\n      swap2\n      pop\n      swap2\n      pop\n        /* \"contracts/libraries/safeCaller.sol\":286:293  succeed */\n      dup2\n        /* \"contracts/libraries/safeCaller.sol\":281:548  if (!succeed) {... */\n      tag_227\n      jumpi\n        /* \"contracts/libraries/safeCaller.sol\":333:335  68 */\n      0x44\n        /* \"contracts/libraries/safeCaller.sol\":317:323  result */\n      dup2\n        /* \"contracts/libraries/safeCaller.sol\":317:330  result.length */\n      mload\n        /* \"contracts/libraries/safeCaller.sol\":317:335  result.length < 68 */\n      lt\n        /* \"contracts/libraries/safeCaller.sol\":313:386  if (result.length < 68) revert(\"ExchangeAggregator::SafeCaller:safeCall\") */\n      iszero\n      tag_228\n      jumpi\n        /* \"contracts/libraries/safeCaller.sol\":337:386  revert(\"ExchangeAggregator::SafeCaller:safeCall\") */\n      mload(0x40)\n      0x08c379a000000000000000000000000000000000000000000000000000000000\n      dup2\n      mstore\n      0x04\n      add\n      tag_229\n      swap1\n      tag_230\n      jump\t// in\n    tag_229:\n      mload(0x40)\n      dup1\n      swap2\n      sub\n      swap1\n      revert\n        /* \"contracts/libraries/safeCaller.sol\":313:386  if (result.length < 68) revert(\"ExchangeAggregator::SafeCaller:safeCall\") */\n    tag_228:\n        /* \"contracts/libraries/safeCaller.sol\":457:461  0x04 */\n      0x04\n        /* \"contracts/libraries/safeCaller.sol\":449:455  result */\n      dup2\n        /* \"contracts/libraries/safeCaller.sol\":445:462  add(result, 0x04) */\n      add\n        /* \"contracts/libraries/safeCaller.sol\":435:462  result := add(result, 0x04) */\n      swap1\n      pop\n        /* \"contracts/libraries/safeCaller.sol\":515:521  result */\n      dup1\n        /* \"contracts/libraries/safeCaller.sol\":504:532  abi.decode(result, (string)) */\n      dup1\n      0x20\n      add\n      swap1\n      mload\n      dup2\n      add\n      swap1\n      tag_231\n      swap2\n      swap1\n      tag_232\n      jump\t// in\n    tag_231:\n        /* \"contracts/libraries/safeCaller.sol\":497:533  revert(abi.decode(result, (string))) */\n      mload(0x40)\n      0x08c379a000000000000000000000000000000000000000000000000000000000\n      dup2\n      mstore\n      0x04\n      add\n      tag_233\n      swap2\n      swap1\n      tag_234\n      jump\t// in\n    tag_233:\n      mload(0x40)\n      dup1\n      swap2\n      sub\n      swap1\n      revert\n        /* \"contracts/libraries/safeCaller.sol\":281:548  if (!succeed) {... */\n    tag_227:\n        /* \"contracts/libraries/safeCaller.sol\":190:554  {... */\n      pop\n      pop\n        /* \"contracts/libraries/safeCaller.sol\":83:554  function safeCall(... */\n      pop\n      pop\n      pop\n      jump\t// out\n        /* \"contracts/libraries/transferHelper.sol\":1595:1807  function safeTransferETH(address to, uint256 value) internal {... */\n    tag_118:\n        /* \"contracts/libraries/transferHelper.sol\":1667:1679  bool success */\n      0x00\n        /* \"contracts/libraries/transferHelper.sol\":1685:1687  to */\n      dup3\n        /* \"contracts/libraries/transferHelper.sol\":1685:1692  to.call */\n      0xffffffffffffffffffffffffffffffffffffffff\n      and\n        /* \"contracts/libraries/transferHelper.sol\":1700:1705  value */\n      dup3\n        /* \"contracts/libraries/transferHelper.sol\":1717:1718  0 */\n      0x00\n        /* \"contracts/libraries/transferHelper.sol\":1707:1719  new bytes(0) */\n      0xffffffffffffffff\n      dup2\n      gt\n      iszero\n      tag_236\n      jumpi\n      tag_237\n      tag_238\n      jump\t// in\n    tag_237:\n    tag_236:\n      mload(0x40)\n      swap1\n      dup1\n      dup3\n      mstore\n      dup1\n      0x1f\n      add\n      not(0x1f)\n      and\n      0x20\n      add\n      dup3\n      add\n      0x40\n      mstore\n      dup1\n      iszero\n      tag_239\n      jumpi\n      dup2\n      0x20\n      add\n      0x01\n      dup3\n      mul\n      dup1\n      calldatasize\n      dup4\n      calldatacopy\n      dup1\n      dup3\n      add\n      swap2\n      pop\n      pop\n      swap1\n      pop\n    tag_239:\n      pop\n        /* \"contracts/libraries/transferHelper.sol\":1685:1720  to.call{value: value}(new bytes(0)) */\n      mload(0x40)\n      tag_240\n      swap2\n      swap1\n      tag_170\n      jump\t// in\n    tag_240:\n      0x00\n      mload(0x40)\n      dup1\n      dup4\n      sub\n      dup2\n      dup6\n      dup8\n      gas\n      call\n      swap3\n      pop\n      pop\n      pop\n      returndatasize\n      dup1\n      0x00\n      dup2\n      eq\n      tag_243\n      jumpi\n      mload(0x40)\n      swap2\n      pop\n      and(add(returndatasize, 0x3f), not(0x1f))\n      dup3\n      add\n      0x40\n      mstore\n      returndatasize\n      dup3\n      mstore\n      returndatasize\n      0x00\n      0x20\n      dup5\n      add\n      returndatacopy\n      jump(tag_242)\n    tag_243:\n      0x60\n      swap2\n      pop\n    tag_242:\n      pop\n        /* \"contracts/libraries/transferHelper.sol\":1666:1720  (bool success, ) = to.call{value: value}(new bytes(0)) */\n      pop\n      swap1\n      pop\n        /* \"contracts/libraries/transferHelper.sol\":1738:1745  success */\n      dup1\n        /* \"contracts/libraries/transferHelper.sol\":1730:1800  require(success, \"ExchangeAggregator::TransferHelper:safeTransferETH\") */\n      tag_244\n      jumpi\n      mload(0x40)\n      0x08c379a000000000000000000000000000000000000000000000000000000000\n      dup2\n      mstore\n      0x04\n      add\n      tag_245\n      swap1\n      tag_246\n      jump\t// in\n    tag_245:\n      mload(0x40)\n      dup1\n      swap2\n      sub\n      swap1\n      revert\n    tag_244:\n        /* \"contracts/libraries/transferHelper.sol\":1656:1807  {... */\n      pop\n        /* \"contracts/libraries/transferHelper.sol\":1595:1807  function safeTransferETH(address to, uint256 value) internal {... */\n      pop\n      pop\n      jump\t// out\n        /* \"@openzeppelin/contracts/access/Ownable.sol\":2433:2620  function _transferOwnership(address newOwner) internal virtual {... */\n    tag_136:\n        /* \"@openzeppelin/contracts/access/Ownable.sol\":2506:2522  address oldOwner */\n      0x00\n        /* \"@openzeppelin/contracts/access/Ownable.sol\":2525:2531  _owner */\n      dup1\n      0x00\n      swap1\n      sload\n      swap1\n      0x0100\n      exp\n      swap1\n      div\n      0xffffffffffffffffffffffffffffffffffffffff\n      and\n        /* \"@openzeppelin/contracts/access/Ownable.sol\":2506:2531  address oldOwner = _owner */\n      swap1\n      pop\n        /* \"@openzeppelin/contracts/access/Ownable.sol\":2550:2558  newOwner */\n      dup2\n        /* \"@openzeppelin/contracts/access/Ownable.sol\":2541:2547  _owner */\n      0x00\n      dup1\n        /* \"@openzeppelin/contracts/access/Ownable.sol\":2541:2558  _owner = newOwner */\n      0x0100\n      exp\n      dup2\n      sload\n      dup2\n      0xffffffffffffffffffffffffffffffffffffffff\n      mul\n      not\n      and\n      swap1\n      dup4\n      0xffffffffffffffffffffffffffffffffffffffff\n      and\n      mul\n      or\n      swap1\n      sstore\n      pop\n        /* \"@openzeppelin/contracts/access/Ownable.sol\":2604:2612  newOwner */\n      dup2\n        /* \"@openzeppelin/contracts/access/Ownable.sol\":2573:2613  OwnershipTransferred(oldOwner, newOwner) */\n      0xffffffffffffffffffffffffffffffffffffffff\n      and\n        /* \"@openzeppelin/contracts/access/Ownable.sol\":2594:2602  oldOwner */\n      dup2\n        /* \"@openzeppelin/contracts/access/Ownable.sol\":2573:2613  OwnershipTransferred(oldOwner, newOwner) */\n      0xffffffffffffffffffffffffffffffffffffffff\n      and\n      0x8be0079c531659141344cd1fd0a4f28419497f9722a3daafe3b4186f6b6457e0\n      mload(0x40)\n      mload(0x40)\n      dup1\n      swap2\n      sub\n      swap1\n      log3\n        /* \"@openzeppelin/contracts/access/Ownable.sol\":2496:2620  {... */\n      pop\n        /* \"@openzeppelin/contracts/access/Ownable.sol\":2433:2620  function _transferOwnership(address newOwner) internal virtual {... */\n      pop\n      jump\t// out\n        /* \"contracts/ExchangeAggregator.sol\":2703:2806  function hash(bytes memory data) private pure returns (bytes32) {... */\n    tag_142:\n        /* \"contracts/ExchangeAggregator.sol\":2758:2765  bytes32 */\n      0x00\n        /* \"contracts/ExchangeAggregator.sol\":2794:2798  data */\n      dup2\n        /* \"contracts/ExchangeAggregator.sol\":2784:2799  keccak256(data) */\n      dup1\n      mload\n      swap1\n      0x20\n      add\n      keccak256\n        /* \"contracts/ExchangeAggregator.sol\":2777:2799  return keccak256(data) */\n      swap1\n      pop\n        /* \"contracts/ExchangeAggregator.sol\":2703:2806  function hash(bytes memory data) private pure returns (bytes32) {... */\n      swap2\n      swap1\n      pop\n      jump\t// out\n        /* \"@openzeppelin/contracts/utils/cryptography/ECDSA.sol\":3661:3888  function recover(bytes32 hash, bytes memory signature) internal pure returns (address) {... */\n    tag_143:\n        /* \"@openzeppelin/contracts/utils/cryptography/ECDSA.sol\":3739:3746  address */\n      0x00\n        /* \"@openzeppelin/contracts/utils/cryptography/ECDSA.sol\":3759:3776  address recovered */\n      dup1\n        /* \"@openzeppelin/contracts/utils/cryptography/ECDSA.sol\":3778:3796  RecoverError error */\n      0x00\n        /* \"@openzeppelin/contracts/utils/cryptography/ECDSA.sol\":3800:3827  tryRecover(hash, signature) */\n      tag_250\n        /* \"@openzeppelin/contracts/utils/cryptography/ECDSA.sol\":3811:3815  hash */\n      dup6\n        /* \"@openzeppelin/contracts/utils/cryptography/ECDSA.sol\":3817:3826  signature */\n      dup6\n        /* \"@openzeppelin/contracts/utils/cryptography/ECDSA.sol\":3800:3810  tryRecover */\n      tag_251\n        /* \"@openzeppelin/contracts/utils/cryptography/ECDSA.sol\":3800:3827  tryRecover(hash, signature) */\n      jump\t// in\n    tag_250:\n        /* \"@openzeppelin/contracts/utils/cryptography/ECDSA.sol\":3758:3827  (address recovered, RecoverError error) = tryRecover(hash, signature) */\n      swap2\n      pop\n      swap2\n      pop\n        /* \"@openzeppelin/contracts/utils/cryptography/ECDSA.sol\":3837:3855  _throwError(error) */\n      tag_252\n        /* \"@openzeppelin/contracts/utils/cryptography/ECDSA.sol\":3849:3854  error */\n      dup2\n        /* \"@openzeppelin/contracts/utils/cryptography/ECDSA.sol\":3837:3848  _throwError */\n      tag_253\n        /* \"@openzeppelin/contracts/utils/cryptography/ECDSA.sol\":3837:3855  _throwError(error) */\n      jump\t// in\n    tag_252:\n        /* \"@openzeppelin/contracts/utils/cryptography/ECDSA.sol\":3872:3881  recovered */\n      dup2\n        /* \"@openzeppelin/contracts/utils/cryptography/ECDSA.sol\":3865:3881  return recovered */\n      swap3\n      pop\n      pop\n      pop\n        /* \"@openzeppelin/contracts/utils/cryptography/ECDSA.sol\":3661:3888  function recover(bytes32 hash, bytes memory signature) internal pure returns (address) {... */\n      swap3\n      swap2\n      pop\n      pop\n      jump\t// out\n        /* \"@openzeppelin/contracts/utils/Context.sol\":640:736  function _msgSender() internal view virtual returns (address) {... */\n    tag_161:\n        /* \"@openzeppelin/contracts/utils/Context.sol\":693:700  address */\n      0x00\n        /* \"@openzeppelin/contracts/utils/Context.sol\":719:729  msg.sender */\n      caller\n        /* \"@openzeppelin/contracts/utils/Context.sol\":712:729  return msg.sender */\n      swap1\n      pop\n        /* \"@openzeppelin/contracts/utils/Context.sol\":640:736  function _msgSender() internal view virtual returns (address) {... */\n      swap1\n      jump\t// out\n        /* \"@openzeppelin/contracts/utils/cryptography/ECDSA.sol\":2145:2875  function tryRecover(bytes32 hash, bytes memory signature) internal pure returns (address, RecoverError) {... */\n    tag_251:\n        /* \"@openzeppelin/contracts/utils/cryptography/ECDSA.sol\":2226:2233  address */\n      0x00\n        /* \"@openzeppelin/contracts/utils/cryptography/ECDSA.sol\":2235:2247  RecoverError */\n      dup1\n        /* \"@openzeppelin/contracts/utils/cryptography/ECDSA.sol\":2283:2285  65 */\n      0x41\n        /* \"@openzeppelin/contracts/utils/cryptography/ECDSA.sol\":2263:2272  signature */\n      dup4\n        /* \"@openzeppelin/contracts/utils/cryptography/ECDSA.sol\":2263:2279  signature.length */\n      mload\n        /* \"@openzeppelin/contracts/utils/cryptography/ECDSA.sol\":2263:2285  signature.length == 65 */\n      sub\n        /* \"@openzeppelin/contracts/utils/cryptography/ECDSA.sol\":2259:2869  if (signature.length == 65) {... */\n      tag_256\n      jumpi\n        /* \"@openzeppelin/contracts/utils/cryptography/ECDSA.sol\":2301:2310  bytes32 r */\n      0x00\n        /* \"@openzeppelin/contracts/utils/cryptography/ECDSA.sol\":2324:2333  bytes32 s */\n      dup1\n        /* \"@openzeppelin/contracts/utils/cryptography/ECDSA.sol\":2347:2354  uint8 v */\n      0x00\n        /* \"@openzeppelin/contracts/utils/cryptography/ECDSA.sol\":2599:2603  0x20 */\n      0x20\n        /* \"@openzeppelin/contracts/utils/cryptography/ECDSA.sol\":2588:2597  signature */\n      dup7\n        /* \"@openzeppelin/contracts/utils/cryptography/ECDSA.sol\":2584:2604  add(signature, 0x20) */\n      add\n        /* \"@openzeppelin/contracts/utils/cryptography/ECDSA.sol\":2578:2605  mload(add(signature, 0x20)) */\n      mload\n        /* \"@openzeppelin/contracts/utils/cryptography/ECDSA.sol\":2573:2605  r := mload(add(signature, 0x20)) */\n      swap3\n      pop\n        /* \"@openzeppelin/contracts/utils/cryptography/ECDSA.sol\":2648:2652  0x40 */\n      0x40\n        /* \"@openzeppelin/contracts/utils/cryptography/ECDSA.sol\":2637:2646  signature */\n      dup7\n        /* \"@openzeppelin/contracts/utils/cryptography/ECDSA.sol\":2633:2653  add(signature, 0x40) */\n      add\n        /* \"@openzeppelin/contracts/utils/cryptography/ECDSA.sol\":2627:2654  mload(add(signature, 0x40)) */\n      mload\n        /* \"@openzeppelin/contracts/utils/cryptography/ECDSA.sol\":2622:2654  s := mload(add(signature, 0x40)) */\n      swap2\n      pop\n        /* \"@openzeppelin/contracts/utils/cryptography/ECDSA.sol\":2705:2709  0x60 */\n      0x60\n        /* \"@openzeppelin/contracts/utils/cryptography/ECDSA.sol\":2694:2703  signature */\n      dup7\n        /* \"@openzeppelin/contracts/utils/cryptography/ECDSA.sol\":2690:2710  add(signature, 0x60) */\n      add\n        /* \"@openzeppelin/contracts/utils/cryptography/ECDSA.sol\":2684:2711  mload(add(signature, 0x60)) */\n      mload\n        /* \"@openzeppelin/contracts/utils/cryptography/ECDSA.sol\":2681:2682  0 */\n      0x00\n        /* \"@openzeppelin/contracts/utils/cryptography/ECDSA.sol\":2676:2712  byte(0, mload(add(signature, 0x60))) */\n      byte\n        /* \"@openzeppelin/contracts/utils/cryptography/ECDSA.sol\":2671:2712  v := byte(0, mload(add(signature, 0x60))) */\n      swap1\n      pop\n        /* \"@openzeppelin/contracts/utils/cryptography/ECDSA.sol\":2746:2771  tryRecover(hash, v, r, s) */\n      tag_257\n        /* \"@openzeppelin/contracts/utils/cryptography/ECDSA.sol\":2757:2761  hash */\n      dup8\n        /* \"@openzeppelin/contracts/utils/cryptography/ECDSA.sol\":2763:2764  v */\n      dup3\n        /* \"@openzeppelin/contracts/utils/cryptography/ECDSA.sol\":2766:2767  r */\n      dup6\n        /* \"@openzeppelin/contracts/utils/cryptography/ECDSA.sol\":2769:2770  s */\n      dup6\n        /* \"@openzeppelin/contracts/utils/cryptography/ECDSA.sol\":2746:2756  tryRecover */\n      tag_258\n        /* \"@openzeppelin/contracts/utils/cryptography/ECDSA.sol\":2746:2771  tryRecover(hash, v, r, s) */\n      jump\t// in\n    tag_257:\n        /* \"@openzeppelin/contracts/utils/cryptography/ECDSA.sol\":2739:2771  return tryRecover(hash, v, r, s) */\n      swap5\n      pop\n      swap5\n      pop\n      pop\n      pop\n      pop\n      jump(tag_255)\n        /* \"@openzeppelin/contracts/utils/cryptography/ECDSA.sol\":2259:2869  if (signature.length == 65) {... */\n    tag_256:\n        /* \"@openzeppelin/contracts/utils/cryptography/ECDSA.sol\":2818:2819  0 */\n      0x00\n        /* \"@openzeppelin/contracts/utils/cryptography/ECDSA.sol\":2822:2857  RecoverError.InvalidSignatureLength */\n      0x02\n        /* \"@openzeppelin/contracts/utils/cryptography/ECDSA.sol\":2802:2858  return (address(0), RecoverError.InvalidSignatureLength) */\n      swap2\n      pop\n      swap2\n      pop\n        /* \"@openzeppelin/contracts/utils/cryptography/ECDSA.sol\":2145:2875  function tryRecover(bytes32 hash, bytes memory signature) internal pure returns (address, RecoverError) {... */\n    tag_255:\n      swap3\n      pop\n      swap3\n      swap1\n      pop\n      jump\t// out\n        /* \"@openzeppelin/contracts/utils/cryptography/ECDSA.sol\":570:1081  function _throwError(RecoverError error) private pure {... */\n    tag_253:\n        /* \"@openzeppelin/contracts/utils/cryptography/ECDSA.sol\":647:667  RecoverError.NoError */\n      0x00\n        /* \"@openzeppelin/contracts/utils/cryptography/ECDSA.sol\":638:667  error == RecoverError.NoError */\n      0x04\n      dup2\n      gt\n      iszero\n      tag_261\n      jumpi\n      tag_262\n      tag_263\n      jump\t// in\n    tag_262:\n    tag_261:\n        /* \"@openzeppelin/contracts/utils/cryptography/ECDSA.sol\":638:643  error */\n      dup2\n        /* \"@openzeppelin/contracts/utils/cryptography/ECDSA.sol\":638:667  error == RecoverError.NoError */\n      0x04\n      dup2\n      gt\n      iszero\n      tag_264\n      jumpi\n      tag_265\n      tag_263\n      jump\t// in\n    tag_265:\n    tag_264:\n      sub\n        /* \"@openzeppelin/contracts/utils/cryptography/ECDSA.sol\":634:1075  if (error == RecoverError.NoError) {... */\n      iszero\n        /* \"@openzeppelin/contracts/utils/cryptography/ECDSA.sol\":683:690  return; */\n      tag_260\n        /* \"@openzeppelin/contracts/utils/cryptography/ECDSA.sol\":634:1075  if (error == RecoverError.NoError) {... */\n      jumpi\n        /* \"@openzeppelin/contracts/utils/cryptography/ECDSA.sol\":743:772  RecoverError.InvalidSignature */\n      0x01\n        /* \"@openzeppelin/contracts/utils/cryptography/ECDSA.sol\":734:772  error == RecoverError.InvalidSignature */\n      0x04\n      dup2\n      gt\n      iszero\n      tag_268\n      jumpi\n      tag_269\n      tag_263\n      jump\t// in\n    tag_269:\n    tag_268:\n        /* \"@openzeppelin/contracts/utils/cryptography/ECDSA.sol\":734:739  error */\n      dup2\n        /* \"@openzeppelin/contracts/utils/cryptography/ECDSA.sol\":734:772  error == RecoverError.InvalidSignature */\n      0x04\n      dup2\n      gt\n      iszero\n      tag_270\n      jumpi\n      tag_271\n      tag_263\n      jump\t// in\n    tag_271:\n    tag_270:\n      sub\n        /* \"@openzeppelin/contracts/utils/cryptography/ECDSA.sol\":730:1075  if (error == RecoverError.InvalidSignature) {... */\n      tag_272\n      jumpi\n        /* \"@openzeppelin/contracts/utils/cryptography/ECDSA.sol\":788:822  revert(\"ECDSA: invalid signature\") */\n      mload(0x40)\n      0x08c379a000000000000000000000000000000000000000000000000000000000\n      dup2\n      mstore\n      0x04\n      add\n      tag_273\n      swap1\n      tag_274\n      jump\t// in\n    tag_273:\n      mload(0x40)\n      dup1\n      swap2\n      sub\n      swap1\n      revert\n        /* \"@openzeppelin/contracts/utils/cryptography/ECDSA.sol\":730:1075  if (error == RecoverError.InvalidSignature) {... */\n    tag_272:\n        /* \"@openzeppelin/contracts/utils/cryptography/ECDSA.sol\":852:887  RecoverError.InvalidSignatureLength */\n      0x02\n        /* \"@openzeppelin/contracts/utils/cryptography/ECDSA.sol\":843:887  error == RecoverError.InvalidSignatureLength */\n      0x04\n      dup2\n      gt\n      iszero\n      tag_276\n      jumpi\n      tag_277\n      tag_263\n      jump\t// in\n    tag_277:\n    tag_276:\n        /* \"@openzeppelin/contracts/utils/cryptography/ECDSA.sol\":843:848  error */\n      dup2\n        /* \"@openzeppelin/contracts/utils/cryptography/ECDSA.sol\":843:887  error == RecoverError.InvalidSignatureLength */\n      0x04\n      dup2\n      gt\n      iszero\n      tag_278\n      jumpi\n      tag_279\n      tag_263\n      jump\t// in\n    tag_279:\n    tag_278:\n      sub\n        /* \"@openzeppelin/contracts/utils/cryptography/ECDSA.sol\":839:1075  if (error == RecoverError.InvalidSignatureLength) {... */\n      tag_280\n      jumpi\n        /* \"@openzeppelin/contracts/utils/cryptography/ECDSA.sol\":903:944  revert(\"ECDSA: invalid signature length\") */\n      mload(0x40)\n      0x08c379a000000000000000000000000000000000000000000000000000000000\n      dup2\n      mstore\n      0x04\n      add\n      tag_281\n      swap1\n      tag_282\n      jump\t// in\n    tag_281:\n      mload(0x40)\n      dup1\n      swap2\n      sub\n      swap1\n      revert\n        /* \"@openzeppelin/contracts/utils/cryptography/ECDSA.sol\":839:1075  if (error == RecoverError.InvalidSignatureLength) {... */\n    tag_280:\n        /* \"@openzeppelin/contracts/utils/cryptography/ECDSA.sol\":974:1004  RecoverError.InvalidSignatureS */\n      0x03\n        /* \"@openzeppelin/contracts/utils/cryptography/ECDSA.sol\":965:1004  error == RecoverError.InvalidSignatureS */\n      0x04\n      dup2\n      gt\n      iszero\n      tag_284\n      jumpi\n      tag_285\n      tag_263\n      jump\t// in\n    tag_285:\n    tag_284:\n        /* \"@openzeppelin/contracts/utils/cryptography/ECDSA.sol\":965:970  error */\n      dup2\n        /* \"@openzeppelin/contracts/utils/cryptography/ECDSA.sol\":965:1004  error == RecoverError.InvalidSignatureS */\n      0x04\n      dup2\n      gt\n      iszero\n      tag_286\n      jumpi\n      tag_287\n      tag_263\n      jump\t// in\n    tag_287:\n    tag_286:\n      sub\n        /* \"@openzeppelin/contracts/utils/cryptography/ECDSA.sol\":961:1075  if (error == RecoverError.InvalidSignatureS) {... */\n      tag_288\n      jumpi\n        /* \"@openzeppelin/contracts/utils/cryptography/ECDSA.sol\":1020:1064  revert(\"ECDSA: invalid signature 's' value\") */\n      mload(0x40)\n      0x08c379a000000000000000000000000000000000000000000000000000000000\n      dup2\n      mstore\n      0x04\n      add\n      tag_289\n      swap1\n      tag_290\n      jump\t// in\n    tag_289:\n      mload(0x40)\n      dup1\n      swap2\n      sub\n      swap1\n      revert\n        /* \"@openzeppelin/contracts/utils/cryptography/ECDSA.sol\":961:1075  if (error == RecoverError.InvalidSignatureS) {... */\n    tag_288:\n        /* \"@openzeppelin/contracts/utils/cryptography/ECDSA.sol\":570:1081  function _throwError(RecoverError error) private pure {... */\n    tag_260:\n      pop\n      jump\t// out\n        /* \"@openzeppelin/contracts/utils/cryptography/ECDSA.sol\":5069:6563  function tryRecover(... */\n    tag_258:\n        /* \"@openzeppelin/contracts/utils/cryptography/ECDSA.sol\":5195:5202  address */\n      0x00\n        /* \"@openzeppelin/contracts/utils/cryptography/ECDSA.sol\":5204:5216  RecoverError */\n      dup1\n        /* \"@openzeppelin/contracts/utils/cryptography/ECDSA.sol\":6119:6185  0x7FFFFFFFFFFFFFFFFFFFFFFFFFFFFFFF5D576E7357A4501DDFE92F46681B20A0 */\n      0x7fffffffffffffffffffffffffffffff5d576e7357a4501ddfe92f46681b20a0\n        /* \"@openzeppelin/contracts/utils/cryptography/ECDSA.sol\":6114:6115  s */\n      dup4\n        /* \"@openzeppelin/contracts/utils/cryptography/ECDSA.sol\":6106:6116  uint256(s) */\n      0x00\n      shr\n        /* \"@openzeppelin/contracts/utils/cryptography/ECDSA.sol\":6106:6185  uint256(s) > 0x7FFFFFFFFFFFFFFFFFFFFFFFFFFFFFFF5D576E7357A4501DDFE92F46681B20A0 */\n      gt\n        /* \"@openzeppelin/contracts/utils/cryptography/ECDSA.sol\":6102:6263  if (uint256(s) > 0x7FFFFFFFFFFFFFFFFFFFFFFFFFFFFFFF5D576E7357A4501DDFE92F46681B20A0) {... */\n      iszero\n      tag_292\n      jumpi\n        /* \"@openzeppelin/contracts/utils/cryptography/ECDSA.sol\":6217:6218  0 */\n      0x00\n        /* \"@openzeppelin/contracts/utils/cryptography/ECDSA.sol\":6221:6251  RecoverError.InvalidSignatureS */\n      0x03\n        /* \"@openzeppelin/contracts/utils/cryptography/ECDSA.sol\":6201:6252  return (address(0), RecoverError.InvalidSignatureS) */\n      swap2\n      pop\n      swap2\n      pop\n      jump(tag_291)\n        /* \"@openzeppelin/contracts/utils/cryptography/ECDSA.sol\":6102:6263  if (uint256(s) > 0x7FFFFFFFFFFFFFFFFFFFFFFFFFFFFFFF5D576E7357A4501DDFE92F46681B20A0) {... */\n    tag_292:\n        /* \"@openzeppelin/contracts/utils/cryptography/ECDSA.sol\":6357:6371  address signer */\n      0x00\n        /* \"@openzeppelin/contracts/utils/cryptography/ECDSA.sol\":6374:6398  ecrecover(hash, v, r, s) */\n      0x01\n        /* \"@openzeppelin/contracts/utils/cryptography/ECDSA.sol\":6384:6388  hash */\n      dup8\n        /* \"@openzeppelin/contracts/utils/cryptography/ECDSA.sol\":6390:6391  v */\n      dup8\n        /* \"@openzeppelin/contracts/utils/cryptography/ECDSA.sol\":6393:6394  r */\n      dup8\n        /* \"@openzeppelin/contracts/utils/cryptography/ECDSA.sol\":6396:6397  s */\n      dup8\n        /* \"@openzeppelin/contracts/utils/cryptography/ECDSA.sol\":6374:6398  ecrecover(hash, v, r, s) */\n      mload(0x40)\n      0x00\n      dup2\n      mstore\n      0x20\n      add\n      0x40\n      mstore\n      mload(0x40)\n      tag_293\n      swap5\n      swap4\n      swap3\n      swap2\n      swap1\n      tag_294\n      jump\t// in\n    tag_293:\n      0x20\n      mload(0x40)\n      0x20\n      dup2\n      sub\n      swap1\n      dup1\n      dup5\n      sub\n      swap1\n      dup6\n      gas\n      staticcall\n      iszero\n      dup1\n      iszero\n      tag_296\n      jumpi\n      returndatasize\n      0x00\n      dup1\n      returndatacopy\n      revert(0x00, returndatasize)\n    tag_296:\n      pop\n      pop\n      pop\n      mload(sub(mload(0x40), 0x20))\n        /* \"@openzeppelin/contracts/utils/cryptography/ECDSA.sol\":6357:6398  address signer = ecrecover(hash, v, r, s) */\n      swap1\n      pop\n        /* \"@openzeppelin/contracts/utils/cryptography/ECDSA.sol\":6430:6431  0 */\n      0x00\n        /* \"@openzeppelin/contracts/utils/cryptography/ECDSA.sol\":6412:6432  signer == address(0) */\n      0xffffffffffffffffffffffffffffffffffffffff\n      and\n        /* \"@openzeppelin/contracts/utils/cryptography/ECDSA.sol\":6412:6418  signer */\n      dup2\n        /* \"@openzeppelin/contracts/utils/cryptography/ECDSA.sol\":6412:6432  signer == address(0) */\n      0xffffffffffffffffffffffffffffffffffffffff\n      and\n      sub\n        /* \"@openzeppelin/contracts/utils/cryptography/ECDSA.sol\":6408:6509  if (signer == address(0)) {... */\n      tag_297\n      jumpi\n        /* \"@openzeppelin/contracts/utils/cryptography/ECDSA.sol\":6464:6465  0 */\n      0x00\n        /* \"@openzeppelin/contracts/utils/cryptography/ECDSA.sol\":6468:6497  RecoverError.InvalidSignature */\n      0x01\n        /* \"@openzeppelin/contracts/utils/cryptography/ECDSA.sol\":6448:6498  return (address(0), RecoverError.InvalidSignature) */\n      swap3\n      pop\n      swap3\n      pop\n      pop\n      jump(tag_291)\n        /* \"@openzeppelin/contracts/utils/cryptography/ECDSA.sol\":6408:6509  if (signer == address(0)) {... */\n    tag_297:\n        /* \"@openzeppelin/contracts/utils/cryptography/ECDSA.sol\":6527:6533  signer */\n      dup1\n        /* \"@openzeppelin/contracts/utils/cryptography/ECDSA.sol\":6535:6555  RecoverError.NoError */\n      0x00\n        /* \"@openzeppelin/contracts/utils/cryptography/ECDSA.sol\":6519:6556  return (signer, RecoverError.NoError) */\n      swap3\n      pop\n      swap3\n      pop\n      pop\n        /* \"@openzeppelin/contracts/utils/cryptography/ECDSA.sol\":5069:6563  function tryRecover(... */\n    tag_291:\n      swap5\n      pop\n      swap5\n      swap3\n      pop\n      pop\n      pop\n      jump\t// out\n        /* \"#utility.yul\":7:82   */\n    tag_298:\n        /* \"#utility.yul\":40:46   */\n      0x00\n        /* \"#utility.yul\":73:75   */\n      0x40\n        /* \"#utility.yul\":67:76   */\n      mload\n        /* \"#utility.yul\":57:76   */\n      swap1\n      pop\n        /* \"#utility.yul\":7:82   */\n      swap1\n      jump\t// out\n        /* \"#utility.yul\":88:205   */\n    tag_299:\n        /* \"#utility.yul\":197:198   */\n      0x00\n        /* \"#utility.yul\":194:195   */\n      dup1\n        /* \"#utility.yul\":187:199   */\n      revert\n        /* \"#utility.yul\":211:328   */\n    tag_300:\n        /* \"#utility.yul\":320:321   */\n      0x00\n        /* \"#utility.yul\":317:318   */\n      dup1\n        /* \"#utility.yul\":310:322   */\n      revert\n        /* \"#utility.yul\":334:460   */\n    tag_301:\n        /* \"#utility.yul\":371:378   */\n      0x00\n        /* \"#utility.yul\":411:453   */\n      0xffffffffffffffffffffffffffffffffffffffff\n        /* \"#utility.yul\":404:409   */\n      dup3\n        /* \"#utility.yul\":400:454   */\n      and\n        /* \"#utility.yul\":389:454   */\n      swap1\n      pop\n        /* \"#utility.yul\":334:460   */\n      swap2\n      swap1\n      pop\n      jump\t// out\n        /* \"#utility.yul\":466:562   */\n    tag_302:\n        /* \"#utility.yul\":503:510   */\n      0x00\n        /* \"#utility.yul\":532:556   */\n      tag_421\n        /* \"#utility.yul\":550:555   */\n      dup3\n        /* \"#utility.yul\":532:556   */\n      tag_301\n      jump\t// in\n    tag_421:\n        /* \"#utility.yul\":521:556   */\n      swap1\n      pop\n        /* \"#utility.yul\":466:562   */\n      swap2\n      swap1\n      pop\n      jump\t// out\n        /* \"#utility.yul\":568:690   */\n    tag_303:\n        /* \"#utility.yul\":641:665   */\n      tag_423\n        /* \"#utility.yul\":659:664   */\n      dup2\n        /* \"#utility.yul\":641:665   */\n      tag_302\n      jump\t// in\n    tag_423:\n        /* \"#utility.yul\":634:639   */\n      dup2\n        /* \"#utility.yul\":631:666   */\n      eq\n        /* \"#utility.yul\":621:684   */\n      tag_424\n      jumpi\n        /* \"#utility.yul\":680:681   */\n      0x00\n        /* \"#utility.yul\":677:678   */\n      dup1\n        /* \"#utility.yul\":670:682   */\n      revert\n        /* \"#utility.yul\":621:684   */\n    tag_424:\n        /* \"#utility.yul\":568:690   */\n      pop\n      jump\t// out\n        /* \"#utility.yul\":696:835   */\n    tag_304:\n        /* \"#utility.yul\":742:747   */\n      0x00\n        /* \"#utility.yul\":780:786   */\n      dup2\n        /* \"#utility.yul\":767:787   */\n      calldataload\n        /* \"#utility.yul\":758:787   */\n      swap1\n      pop\n        /* \"#utility.yul\":796:829   */\n      tag_426\n        /* \"#utility.yul\":823:828   */\n      dup2\n        /* \"#utility.yul\":796:829   */\n      tag_303\n      jump\t// in\n    tag_426:\n        /* \"#utility.yul\":696:835   */\n      swap3\n      swap2\n      pop\n      pop\n      jump\t// out\n        /* \"#utility.yul\":841:918   */\n    tag_305:\n        /* \"#utility.yul\":878:885   */\n      0x00\n        /* \"#utility.yul\":907:912   */\n      dup2\n        /* \"#utility.yul\":896:912   */\n      swap1\n      pop\n        /* \"#utility.yul\":841:918   */\n      swap2\n      swap1\n      pop\n      jump\t// out\n        /* \"#utility.yul\":924:1046   */\n    tag_306:\n        /* \"#utility.yul\":997:1021   */\n      tag_429\n        /* \"#utility.yul\":1015:1020   */\n      dup2\n        /* \"#utility.yul\":997:1021   */\n      tag_305\n      jump\t// in\n    tag_429:\n        /* \"#utility.yul\":990:995   */\n      dup2\n        /* \"#utility.yul\":987:1022   */\n      eq\n        /* \"#utility.yul\":977:1040   */\n      tag_430\n      jumpi\n        /* \"#utility.yul\":1036:1037   */\n      0x00\n        /* \"#utility.yul\":1033:1034   */\n      dup1\n        /* \"#utility.yul\":1026:1038   */\n      revert\n        /* \"#utility.yul\":977:1040   */\n    tag_430:\n        /* \"#utility.yul\":924:1046   */\n      pop\n      jump\t// out\n        /* \"#utility.yul\":1052:1191   */\n    tag_307:\n        /* \"#utility.yul\":1098:1103   */\n      0x00\n        /* \"#utility.yul\":1136:1142   */\n      dup2\n        /* \"#utility.yul\":1123:1143   */\n      calldataload\n        /* \"#utility.yul\":1114:1143   */\n      swap1\n      pop\n        /* \"#utility.yul\":1152:1185   */\n      tag_432\n        /* \"#utility.yul\":1179:1184   */\n      dup2\n        /* \"#utility.yul\":1152:1185   */\n      tag_306\n      jump\t// in\n    tag_432:\n        /* \"#utility.yul\":1052:1191   */\n      swap3\n      swap2\n      pop\n      pop\n      jump\t// out\n        /* \"#utility.yul\":1197:1816   */\n    tag_20:\n        /* \"#utility.yul\":1274:1280   */\n      0x00\n        /* \"#utility.yul\":1282:1288   */\n      dup1\n        /* \"#utility.yul\":1290:1296   */\n      0x00\n        /* \"#utility.yul\":1339:1341   */\n      0x60\n        /* \"#utility.yul\":1327:1336   */\n      dup5\n        /* \"#utility.yul\":1318:1325   */\n      dup7\n        /* \"#utility.yul\":1314:1337   */\n      sub\n        /* \"#utility.yul\":1310:1342   */\n      slt\n        /* \"#utility.yul\":1307:1426   */\n      iszero\n      tag_434\n      jumpi\n        /* \"#utility.yul\":1345:1424   */\n      tag_435\n      tag_299\n      jump\t// in\n    tag_435:\n        /* \"#utility.yul\":1307:1426   */\n    tag_434:\n        /* \"#utility.yul\":1465:1466   */\n      0x00\n        /* \"#utility.yul\":1490:1543   */\n      tag_436\n        /* \"#utility.yul\":1535:1542   */\n      dup7\n        /* \"#utility.yul\":1526:1532   */\n      dup3\n        /* \"#utility.yul\":1515:1524   */\n      dup8\n        /* \"#utility.yul\":1511:1533   */\n      add\n        /* \"#utility.yul\":1490:1543   */\n      tag_304\n      jump\t// in\n    tag_436:\n        /* \"#utility.yul\":1480:1543   */\n      swap4\n      pop\n        /* \"#utility.yul\":1436:1553   */\n      pop\n        /* \"#utility.yul\":1592:1594   */\n      0x20\n        /* \"#utility.yul\":1618:1671   */\n      tag_437\n        /* \"#utility.yul\":1663:1670   */\n      dup7\n        /* \"#utility.yul\":1654:1660   */\n      dup3\n        /* \"#utility.yul\":1643:1652   */\n      dup8\n        /* \"#utility.yul\":1639:1661   */\n      add\n        /* \"#utility.yul\":1618:1671   */\n      tag_304\n      jump\t// in\n    tag_437:\n        /* \"#utility.yul\":1608:1671   */\n      swap3\n      pop\n        /* \"#utility.yul\":1563:1681   */\n      pop\n        /* \"#utility.yul\":1720:1722   */\n      0x40\n        /* \"#utility.yul\":1746:1799   */\n      tag_438\n        /* \"#utility.yul\":1791:1798   */\n      dup7\n        /* \"#utility.yul\":1782:1788   */\n      dup3\n        /* \"#utility.yul\":1771:1780   */\n      dup8\n        /* \"#utility.yul\":1767:1789   */\n      add\n        /* \"#utility.yul\":1746:1799   */\n      tag_307\n      jump\t// in\n    tag_438:\n        /* \"#utility.yul\":1736:1799   */\n      swap2\n      pop\n        /* \"#utility.yul\":1691:1809   */\n      pop\n        /* \"#utility.yul\":1197:1816   */\n      swap3\n      pop\n      swap3\n      pop\n      swap3\n      jump\t// out\n        /* \"#utility.yul\":1822:2151   */\n    tag_25:\n        /* \"#utility.yul\":1881:1887   */\n      0x00\n        /* \"#utility.yul\":1930:1932   */\n      0x20\n        /* \"#utility.yul\":1918:1927   */\n      dup3\n        /* \"#utility.yul\":1909:1916   */\n      dup5\n        /* \"#utility.yul\":1905:1928   */\n      sub\n        /* \"#utility.yul\":1901:1933   */\n      slt\n        /* \"#utility.yul\":1898:2017   */\n      iszero\n      tag_440\n      jumpi\n        /* \"#utility.yul\":1936:2015   */\n      tag_441\n      tag_299\n      jump\t// in\n    tag_441:\n        /* \"#utility.yul\":1898:2017   */\n    tag_440:\n        /* \"#utility.yul\":2056:2057   */\n      0x00\n        /* \"#utility.yul\":2081:2134   */\n      tag_442\n        /* \"#utility.yul\":2126:2133   */\n      dup5\n        /* \"#utility.yul\":2117:2123   */\n      dup3\n        /* \"#utility.yul\":2106:2115   */\n      dup6\n        /* \"#utility.yul\":2102:2124   */\n      add\n        /* \"#utility.yul\":2081:2134   */\n      tag_304\n      jump\t// in\n    tag_442:\n        /* \"#utility.yul\":2071:2134   */\n      swap2\n      pop\n        /* \"#utility.yul\":2027:2144   */\n      pop\n        /* \"#utility.yul\":1822:2151   */\n      swap3\n      swap2\n      pop\n      pop\n      jump\t// out\n        /* \"#utility.yul\":2157:2275   */\n    tag_308:\n        /* \"#utility.yul\":2244:2268   */\n      tag_444\n        /* \"#utility.yul\":2262:2267   */\n      dup2\n        /* \"#utility.yul\":2244:2268   */\n      tag_305\n      jump\t// in\n    tag_444:\n        /* \"#utility.yul\":2239:2242   */\n      dup3\n        /* \"#utility.yul\":2232:2269   */\n      mstore\n        /* \"#utility.yul\":2157:2275   */\n      pop\n      pop\n      jump\t// out\n        /* \"#utility.yul\":2281:2503   */\n    tag_28:\n        /* \"#utility.yul\":2374:2378   */\n      0x00\n        /* \"#utility.yul\":2412:2414   */\n      0x20\n        /* \"#utility.yul\":2401:2410   */\n      dup3\n        /* \"#utility.yul\":2397:2415   */\n      add\n        /* \"#utility.yul\":2389:2415   */\n      swap1\n      pop\n        /* \"#utility.yul\":2425:2496   */\n      tag_446\n        /* \"#utility.yul\":2493:2494   */\n      0x00\n        /* \"#utility.yul\":2482:2491   */\n      dup4\n        /* \"#utility.yul\":2478:2495   */\n      add\n        /* \"#utility.yul\":2469:2475   */\n      dup5\n        /* \"#utility.yul\":2425:2496   */\n      tag_308\n      jump\t// in\n    tag_446:\n        /* \"#utility.yul\":2281:2503   */\n      swap3\n      swap2\n      pop\n      pop\n      jump\t// out\n        /* \"#utility.yul\":2509:2626   */\n    tag_309:\n        /* \"#utility.yul\":2618:2619   */\n      0x00\n        /* \"#utility.yul\":2615:2616   */\n      dup1\n        /* \"#utility.yul\":2608:2620   */\n      revert\n        /* \"#utility.yul\":2674:2907   */\n    tag_310:\n        /* \"#utility.yul\":2748:2753   */\n      0x00\n        /* \"#utility.yul\":2789:2792   */\n      0xc0\n        /* \"#utility.yul\":2780:2786   */\n      dup3\n        /* \"#utility.yul\":2775:2778   */\n      dup5\n        /* \"#utility.yul\":2771:2787   */\n      sub\n        /* \"#utility.yul\":2767:2793   */\n      slt\n        /* \"#utility.yul\":2764:2877   */\n      iszero\n      tag_449\n      jumpi\n        /* \"#utility.yul\":2796:2875   */\n      tag_450\n      tag_309\n      jump\t// in\n    tag_450:\n        /* \"#utility.yul\":2764:2877   */\n    tag_449:\n        /* \"#utility.yul\":2895:2901   */\n      dup2\n        /* \"#utility.yul\":2886:2901   */\n      swap1\n      pop\n        /* \"#utility.yul\":2674:2907   */\n      swap3\n      swap2\n      pop\n      pop\n      jump\t// out\n        /* \"#utility.yul\":2913:3030   */\n    tag_311:\n        /* \"#utility.yul\":3022:3023   */\n      0x00\n        /* \"#utility.yul\":3019:3020   */\n      dup1\n        /* \"#utility.yul\":3012:3024   */\n      revert\n        /* \"#utility.yul\":3036:3153   */\n    tag_312:\n        /* \"#utility.yul\":3145:3146   */\n      0x00\n        /* \"#utility.yul\":3142:3143   */\n      dup1\n        /* \"#utility.yul\":3135:3147   */\n      revert\n        /* \"#utility.yul\":3159:3276   */\n    tag_313:\n        /* \"#utility.yul\":3268:3269   */\n      0x00\n        /* \"#utility.yul\":3265:3266   */\n      dup1\n        /* \"#utility.yul\":3258:3270   */\n      revert\n        /* \"#utility.yul\":3295:3847   */\n    tag_314:\n        /* \"#utility.yul\":3352:3360   */\n      0x00\n        /* \"#utility.yul\":3362:3368   */\n      dup1\n        /* \"#utility.yul\":3412:3415   */\n      dup4\n        /* \"#utility.yul\":3405:3409   */\n      0x1f\n        /* \"#utility.yul\":3397:3403   */\n      dup5\n        /* \"#utility.yul\":3393:3410   */\n      add\n        /* \"#utility.yul\":3389:3416   */\n      slt\n        /* \"#utility.yul\":3379:3501   */\n      tag_455\n      jumpi\n        /* \"#utility.yul\":3420:3499   */\n      tag_456\n      tag_311\n      jump\t// in\n    tag_456:\n        /* \"#utility.yul\":3379:3501   */\n    tag_455:\n        /* \"#utility.yul\":3533:3539   */\n      dup3\n        /* \"#utility.yul\":3520:3540   */\n      calldataload\n        /* \"#utility.yul\":3510:3540   */\n      swap1\n      pop\n        /* \"#utility.yul\":3563:3581   */\n      0xffffffffffffffff\n        /* \"#utility.yul\":3555:3561   */\n      dup2\n        /* \"#utility.yul\":3552:3582   */\n      gt\n        /* \"#utility.yul\":3549:3666   */\n      iszero\n      tag_457\n      jumpi\n        /* \"#utility.yul\":3585:3664   */\n      tag_458\n      tag_312\n      jump\t// in\n    tag_458:\n        /* \"#utility.yul\":3549:3666   */\n    tag_457:\n        /* \"#utility.yul\":3699:3703   */\n      0x20\n        /* \"#utility.yul\":3691:3697   */\n      dup4\n        /* \"#utility.yul\":3687:3704   */\n      add\n        /* \"#utility.yul\":3675:3704   */\n      swap2\n      pop\n        /* \"#utility.yul\":3753:3756   */\n      dup4\n        /* \"#utility.yul\":3745:3749   */\n      0x01\n        /* \"#utility.yul\":3737:3743   */\n      dup3\n        /* \"#utility.yul\":3733:3750   */\n      mul\n        /* \"#utility.yul\":3723:3731   */\n      dup4\n        /* \"#utility.yul\":3719:3751   */\n      add\n        /* \"#utility.yul\":3716:3757   */\n      gt\n        /* \"#utility.yul\":3713:3841   */\n      iszero\n      tag_459\n      jumpi\n        /* \"#utility.yul\":3760:3839   */\n      tag_460\n      tag_313\n      jump\t// in\n    tag_460:\n        /* \"#utility.yul\":3713:3841   */\n    tag_459:\n        /* \"#utility.yul\":3295:3847   */\n      swap3\n      pop\n      swap3\n      swap1\n      pop\n      jump\t// out\n        /* \"#utility.yul\":3853:4741   */\n    tag_32:\n        /* \"#utility.yul\":3960:3966   */\n      0x00\n        /* \"#utility.yul\":3968:3974   */\n      dup1\n        /* \"#utility.yul\":3976:3982   */\n      0x00\n        /* \"#utility.yul\":4025:4027   */\n      0x40\n        /* \"#utility.yul\":4013:4022   */\n      dup5\n        /* \"#utility.yul\":4004:4011   */\n      dup7\n        /* \"#utility.yul\":4000:4023   */\n      sub\n        /* \"#utility.yul\":3996:4028   */\n      slt\n        /* \"#utility.yul\":3993:4112   */\n      iszero\n      tag_462\n      jumpi\n        /* \"#utility.yul\":4031:4110   */\n      tag_463\n      tag_299\n      jump\t// in\n    tag_463:\n        /* \"#utility.yul\":3993:4112   */\n    tag_462:\n        /* \"#utility.yul\":4179:4180   */\n      0x00\n        /* \"#utility.yul\":4168:4177   */\n      dup5\n        /* \"#utility.yul\":4164:4181   */\n      add\n        /* \"#utility.yul\":4151:4182   */\n      calldataload\n        /* \"#utility.yul\":4209:4227   */\n      0xffffffffffffffff\n        /* \"#utility.yul\":4201:4207   */\n      dup2\n        /* \"#utility.yul\":4198:4228   */\n      gt\n        /* \"#utility.yul\":4195:4312   */\n      iszero\n      tag_464\n      jumpi\n        /* \"#utility.yul\":4231:4310   */\n      tag_465\n      tag_300\n      jump\t// in\n    tag_465:\n        /* \"#utility.yul\":4195:4312   */\n    tag_464:\n        /* \"#utility.yul\":4336:4417   */\n      tag_466\n        /* \"#utility.yul\":4409:4416   */\n      dup7\n        /* \"#utility.yul\":4400:4406   */\n      dup3\n        /* \"#utility.yul\":4389:4398   */\n      dup8\n        /* \"#utility.yul\":4385:4407   */\n      add\n        /* \"#utility.yul\":4336:4417   */\n      tag_310\n      jump\t// in\n    tag_466:\n        /* \"#utility.yul\":4326:4417   */\n      swap4\n      pop\n        /* \"#utility.yul\":4122:4427   */\n      pop\n        /* \"#utility.yul\":4494:4496   */\n      0x20\n        /* \"#utility.yul\":4483:4492   */\n      dup5\n        /* \"#utility.yul\":4479:4497   */\n      add\n        /* \"#utility.yul\":4466:4498   */\n      calldataload\n        /* \"#utility.yul\":4525:4543   */\n      0xffffffffffffffff\n        /* \"#utility.yul\":4517:4523   */\n      dup2\n        /* \"#utility.yul\":4514:4544   */\n      gt\n        /* \"#utility.yul\":4511:4628   */\n      iszero\n      tag_467\n      jumpi\n        /* \"#utility.yul\":4547:4626   */\n      tag_468\n      tag_300\n      jump\t// in\n    tag_468:\n        /* \"#utility.yul\":4511:4628   */\n    tag_467:\n        /* \"#utility.yul\":4660:4724   */\n      tag_469\n        /* \"#utility.yul\":4716:4723   */\n      dup7\n        /* \"#utility.yul\":4707:4713   */\n      dup3\n        /* \"#utility.yul\":4696:4705   */\n      dup8\n        /* \"#utility.yul\":4692:4714   */\n      add\n        /* \"#utility.yul\":4660:4724   */\n      tag_314\n      jump\t// in\n    tag_469:\n        /* \"#utility.yul\":4642:4724   */\n      swap3\n      pop\n      swap3\n      pop\n        /* \"#utility.yul\":4437:4734   */\n      pop\n        /* \"#utility.yul\":3853:4741   */\n      swap3\n      pop\n      swap3\n      pop\n      swap3\n      jump\t// out\n        /* \"#utility.yul\":4747:4865   */\n    tag_315:\n        /* \"#utility.yul\":4834:4858   */\n      tag_471\n        /* \"#utility.yul\":4852:4857   */\n      dup2\n        /* \"#utility.yul\":4834:4858   */\n      tag_302\n      jump\t// in\n    tag_471:\n        /* \"#utility.yul\":4829:4832   */\n      dup3\n        /* \"#utility.yul\":4822:4859   */\n      mstore\n        /* \"#utility.yul\":4747:4865   */\n      pop\n      pop\n      jump\t// out\n        /* \"#utility.yul\":4871:5093   */\n    tag_38:\n        /* \"#utility.yul\":4964:4968   */\n      0x00\n        /* \"#utility.yul\":5002:5004   */\n      0x20\n        /* \"#utility.yul\":4991:5000   */\n      dup3\n        /* \"#utility.yul\":4987:5005   */\n      add\n        /* \"#utility.yul\":4979:5005   */\n      swap1\n      pop\n        /* \"#utility.yul\":5015:5086   */\n      tag_473\n        /* \"#utility.yul\":5083:5084   */\n      0x00\n        /* \"#utility.yul\":5072:5081   */\n      dup4\n        /* \"#utility.yul\":5068:5085   */\n      add\n        /* \"#utility.yul\":5059:5065   */\n      dup5\n        /* \"#utility.yul\":5015:5086   */\n      tag_315\n      jump\t// in\n    tag_473:\n        /* \"#utility.yul\":4871:5093   */\n      swap3\n      swap2\n      pop\n      pop\n      jump\t// out\n        /* \"#utility.yul\":5099:5573   */\n    tag_42:\n        /* \"#utility.yul\":5167:5173   */\n      0x00\n        /* \"#utility.yul\":5175:5181   */\n      dup1\n        /* \"#utility.yul\":5224:5226   */\n      0x40\n        /* \"#utility.yul\":5212:5221   */\n      dup4\n        /* \"#utility.yul\":5203:5210   */\n      dup6\n        /* \"#utility.yul\":5199:5222   */\n      sub\n        /* \"#utility.yul\":5195:5227   */\n      slt\n        /* \"#utility.yul\":5192:5311   */\n      iszero\n      tag_475\n      jumpi\n        /* \"#utility.yul\":5230:5309   */\n      tag_476\n      tag_299\n      jump\t// in\n    tag_476:\n        /* \"#utility.yul\":5192:5311   */\n    tag_475:\n        /* \"#utility.yul\":5350:5351   */\n      0x00\n        /* \"#utility.yul\":5375:5428   */\n      tag_477\n        /* \"#utility.yul\":5420:5427   */\n      dup6\n        /* \"#utility.yul\":5411:5417   */\n      dup3\n        /* \"#utility.yul\":5400:5409   */\n      dup7\n        /* \"#utility.yul\":5396:5418   */\n      add\n        /* \"#utility.yul\":5375:5428   */\n      tag_304\n      jump\t// in\n    tag_477:\n        /* \"#utility.yul\":5365:5428   */\n      swap3\n      pop\n        /* \"#utility.yul\":5321:5438   */\n      pop\n        /* \"#utility.yul\":5477:5479   */\n      0x20\n        /* \"#utility.yul\":5503:5556   */\n      tag_478\n        /* \"#utility.yul\":5548:5555   */\n      dup6\n        /* \"#utility.yul\":5539:5545   */\n      dup3\n        /* \"#utility.yul\":5528:5537   */\n      dup7\n        /* \"#utility.yul\":5524:5546   */\n      add\n        /* \"#utility.yul\":5503:5556   */\n      tag_307\n      jump\t// in\n    tag_478:\n        /* \"#utility.yul\":5493:5556   */\n      swap2\n      pop\n        /* \"#utility.yul\":5448:5566   */\n      pop\n        /* \"#utility.yul\":5099:5573   */\n      swap3\n      pop\n      swap3\n      swap1\n      pop\n      jump\t// out\n        /* \"#utility.yul\":5579:5696   */\n    tag_316:\n        /* \"#utility.yul\":5688:5689   */\n      0x00\n        /* \"#utility.yul\":5685:5686   */\n      dup1\n        /* \"#utility.yul\":5678:5690   */\n      revert\n        /* \"#utility.yul\":5702:5804   */\n    tag_317:\n        /* \"#utility.yul\":5743:5749   */\n      0x00\n        /* \"#utility.yul\":5794:5796   */\n      0x1f\n        /* \"#utility.yul\":5790:5797   */\n      not\n        /* \"#utility.yul\":5785:5787   */\n      0x1f\n        /* \"#utility.yul\":5778:5783   */\n      dup4\n        /* \"#utility.yul\":5774:5788   */\n      add\n        /* \"#utility.yul\":5770:5798   */\n      and\n        /* \"#utility.yul\":5760:5798   */\n      swap1\n      pop\n        /* \"#utility.yul\":5702:5804   */\n      swap2\n      swap1\n      pop\n      jump\t// out\n        /* \"#utility.yul\":5810:5990   */\n    tag_238:\n        /* \"#utility.yul\":5858:5935   */\n      0x4e487b7100000000000000000000000000000000000000000000000000000000\n        /* \"#utility.yul\":5855:5856   */\n      0x00\n        /* \"#utility.yul\":5848:5936   */\n      mstore\n        /* \"#utility.yul\":5955:5959   */\n      0x41\n        /* \"#utility.yul\":5952:5953   */\n      0x04\n        /* \"#utility.yul\":5945:5960   */\n      mstore\n        /* \"#utility.yul\":5979:5983   */\n      0x24\n        /* \"#utility.yul\":5976:5977   */\n      0x00\n        /* \"#utility.yul\":5969:5984   */\n      revert\n        /* \"#utility.yul\":5996:6277   */\n    tag_318:\n        /* \"#utility.yul\":6079:6106   */\n      tag_483\n        /* \"#utility.yul\":6101:6105   */\n      dup3\n        /* \"#utility.yul\":6079:6106   */\n      tag_317\n      jump\t// in\n    tag_483:\n        /* \"#utility.yul\":6071:6077   */\n      dup2\n        /* \"#utility.yul\":6067:6107   */\n      add\n        /* \"#utility.yul\":6209:6215   */\n      dup2\n        /* \"#utility.yul\":6197:6207   */\n      dup2\n        /* \"#utility.yul\":6194:6216   */\n      lt\n        /* \"#utility.yul\":6173:6191   */\n      0xffffffffffffffff\n        /* \"#utility.yul\":6161:6171   */\n      dup3\n        /* \"#utility.yul\":6158:6192   */\n      gt\n        /* \"#utility.yul\":6155:6217   */\n      or\n        /* \"#utility.yul\":6152:6240   */\n      iszero\n      tag_484\n      jumpi\n        /* \"#utility.yul\":6220:6238   */\n      tag_485\n      tag_238\n      jump\t// in\n    tag_485:\n        /* \"#utility.yul\":6152:6240   */\n    tag_484:\n        /* \"#utility.yul\":6260:6270   */\n      dup1\n        /* \"#utility.yul\":6256:6258   */\n      0x40\n        /* \"#utility.yul\":6249:6271   */\n      mstore\n        /* \"#utility.yul\":6039:6277   */\n      pop\n        /* \"#utility.yul\":5996:6277   */\n      pop\n      pop\n      jump\t// out\n        /* \"#utility.yul\":6283:6412   */\n    tag_319:\n        /* \"#utility.yul\":6317:6323   */\n      0x00\n        /* \"#utility.yul\":6344:6364   */\n      tag_487\n      tag_298\n      jump\t// in\n    tag_487:\n        /* \"#utility.yul\":6334:6364   */\n      swap1\n      pop\n        /* \"#utility.yul\":6373:6406   */\n      tag_488\n        /* \"#utility.yul\":6401:6405   */\n      dup3\n        /* \"#utility.yul\":6393:6399   */\n      dup3\n        /* \"#utility.yul\":6373:6406   */\n      tag_318\n      jump\t// in\n    tag_488:\n        /* \"#utility.yul\":6283:6412   */\n      swap2\n      swap1\n      pop\n      jump\t// out\n        /* \"#utility.yul\":6418:6725   */\n    tag_320:\n        /* \"#utility.yul\":6479:6483   */\n      0x00\n        /* \"#utility.yul\":6569:6587   */\n      0xffffffffffffffff\n        /* \"#utility.yul\":6561:6567   */\n      dup3\n        /* \"#utility.yul\":6558:6588   */\n      gt\n        /* \"#utility.yul\":6555:6611   */\n      iszero\n      tag_490\n      jumpi\n        /* \"#utility.yul\":6591:6609   */\n      tag_491\n      tag_238\n      jump\t// in\n    tag_491:\n        /* \"#utility.yul\":6555:6611   */\n    tag_490:\n        /* \"#utility.yul\":6629:6658   */\n      tag_492\n        /* \"#utility.yul\":6651:6657   */\n      dup3\n        /* \"#utility.yul\":6629:6658   */\n      tag_317\n      jump\t// in\n    tag_492:\n        /* \"#utility.yul\":6621:6658   */\n      swap1\n      pop\n        /* \"#utility.yul\":6713:6717   */\n      0x20\n        /* \"#utility.yul\":6707:6711   */\n      dup2\n        /* \"#utility.yul\":6703:6718   */\n      add\n        /* \"#utility.yul\":6695:6718   */\n      swap1\n      pop\n        /* \"#utility.yul\":6418:6725   */\n      swap2\n      swap1\n      pop\n      jump\t// out\n        /* \"#utility.yul\":6731:6877   */\n    tag_321:\n        /* \"#utility.yul\":6828:6834   */\n      dup3\n        /* \"#utility.yul\":6823:6826   */\n      dup2\n        /* \"#utility.yul\":6818:6821   */\n      dup4\n        /* \"#utility.yul\":6805:6835   */\n      calldatacopy\n        /* \"#utility.yul\":6869:6870   */\n      0x00\n        /* \"#utility.yul\":6860:6866   */\n      dup4\n        /* \"#utility.yul\":6855:6858   */\n      dup4\n        /* \"#utility.yul\":6851:6867   */\n      add\n        /* \"#utility.yul\":6844:6871   */\n      mstore\n        /* \"#utility.yul\":6731:6877   */\n      pop\n      pop\n      pop\n      jump\t// out\n        /* \"#utility.yul\":6883:7306   */\n    tag_322:\n        /* \"#utility.yul\":6960:6965   */\n      0x00\n        /* \"#utility.yul\":6985:7050   */\n      tag_495\n        /* \"#utility.yul\":7001:7049   */\n      tag_496\n        /* \"#utility.yul\":7042:7048   */\n      dup5\n        /* \"#utility.yul\":7001:7049   */\n      tag_320\n      jump\t// in\n    tag_496:\n        /* \"#utility.yul\":6985:7050   */\n      tag_319\n      jump\t// in\n    tag_495:\n        /* \"#utility.yul\":6976:7050   */\n      swap1\n      pop\n        /* \"#utility.yul\":7073:7079   */\n      dup3\n        /* \"#utility.yul\":7066:7071   */\n      dup2\n        /* \"#utility.yul\":7059:7080   */\n      mstore\n        /* \"#utility.yul\":7111:7115   */\n      0x20\n        /* \"#utility.yul\":7104:7109   */\n      dup2\n        /* \"#utility.yul\":7100:7116   */\n      add\n        /* \"#utility.yul\":7149:7152   */\n      dup5\n        /* \"#utility.yul\":7140:7146   */\n      dup5\n        /* \"#utility.yul\":7135:7138   */\n      dup5\n        /* \"#utility.yul\":7131:7147   */\n      add\n        /* \"#utility.yul\":7128:7153   */\n      gt\n        /* \"#utility.yul\":7125:7237   */\n      iszero\n      tag_497\n      jumpi\n        /* \"#utility.yul\":7156:7235   */\n      tag_498\n      tag_316\n      jump\t// in\n    tag_498:\n        /* \"#utility.yul\":7125:7237   */\n    tag_497:\n        /* \"#utility.yul\":7246:7300   */\n      tag_499\n        /* \"#utility.yul\":7293:7299   */\n      dup5\n        /* \"#utility.yul\":7288:7291   */\n      dup3\n        /* \"#utility.yul\":7283:7286   */\n      dup6\n        /* \"#utility.yul\":7246:7300   */\n      tag_321\n      jump\t// in\n    tag_499:\n        /* \"#utility.yul\":6966:7306   */\n      pop\n        /* \"#utility.yul\":6883:7306   */\n      swap4\n      swap3\n      pop\n      pop\n      pop\n      jump\t// out\n        /* \"#utility.yul\":7325:7663   */\n    tag_323:\n        /* \"#utility.yul\":7380:7385   */\n      0x00\n        /* \"#utility.yul\":7429:7432   */\n      dup3\n        /* \"#utility.yul\":7422:7426   */\n      0x1f\n        /* \"#utility.yul\":7414:7420   */\n      dup4\n        /* \"#utility.yul\":7410:7427   */\n      add\n        /* \"#utility.yul\":7406:7433   */\n      slt\n        /* \"#utility.yul\":7396:7518   */\n      tag_501\n      jumpi\n        /* \"#utility.yul\":7437:7516   */\n      tag_502\n      tag_311\n      jump\t// in\n    tag_502:\n        /* \"#utility.yul\":7396:7518   */\n    tag_501:\n        /* \"#utility.yul\":7554:7560   */\n      dup2\n        /* \"#utility.yul\":7541:7561   */\n      calldataload\n        /* \"#utility.yul\":7579:7657   */\n      tag_503\n        /* \"#utility.yul\":7653:7656   */\n      dup5\n        /* \"#utility.yul\":7645:7651   */\n      dup3\n        /* \"#utility.yul\":7638:7642   */\n      0x20\n        /* \"#utility.yul\":7630:7636   */\n      dup7\n        /* \"#utility.yul\":7626:7643   */\n      add\n        /* \"#utility.yul\":7579:7657   */\n      tag_322\n      jump\t// in\n    tag_503:\n        /* \"#utility.yul\":7570:7657   */\n      swap2\n      pop\n        /* \"#utility.yul\":7386:7663   */\n      pop\n        /* \"#utility.yul\":7325:7663   */\n      swap3\n      swap2\n      pop\n      pop\n      jump\t// out\n        /* \"#utility.yul\":7669:8537   */\n    tag_61:\n        /* \"#utility.yul\":7774:7780   */\n      0x00\n        /* \"#utility.yul\":7782:7788   */\n      dup1\n        /* \"#utility.yul\":7831:7833   */\n      0x40\n        /* \"#utility.yul\":7819:7828   */\n      dup4\n        /* \"#utility.yul\":7810:7817   */\n      dup6\n        /* \"#utility.yul\":7806:7829   */\n      sub\n        /* \"#utility.yul\":7802:7834   */\n      slt\n        /* \"#utility.yul\":7799:7918   */\n      iszero\n      tag_505\n      jumpi\n        /* \"#utility.yul\":7837:7916   */\n      tag_506\n      tag_299\n      jump\t// in\n    tag_506:\n        /* \"#utility.yul\":7799:7918   */\n    tag_505:\n        /* \"#utility.yul\":7985:7986   */\n      0x00\n        /* \"#utility.yul\":7974:7983   */\n      dup4\n        /* \"#utility.yul\":7970:7987   */\n      add\n        /* \"#utility.yul\":7957:7988   */\n      calldataload\n        /* \"#utility.yul\":8015:8033   */\n      0xffffffffffffffff\n        /* \"#utility.yul\":8007:8013   */\n      dup2\n        /* \"#utility.yul\":8004:8034   */\n      gt\n        /* \"#utility.yul\":8001:8118   */\n      iszero\n      tag_507\n      jumpi\n        /* \"#utility.yul\":8037:8116   */\n      tag_508\n      tag_300\n      jump\t// in\n    tag_508:\n        /* \"#utility.yul\":8001:8118   */\n    tag_507:\n        /* \"#utility.yul\":8142:8223   */\n      tag_509\n        /* \"#utility.yul\":8215:8222   */\n      dup6\n        /* \"#utility.yul\":8206:8212   */\n      dup3\n        /* \"#utility.yul\":8195:8204   */\n      dup7\n        /* \"#utility.yul\":8191:8213   */\n      add\n        /* \"#utility.yul\":8142:8223   */\n      tag_310\n      jump\t// in\n    tag_509:\n        /* \"#utility.yul\":8132:8223   */\n      swap3\n      pop\n        /* \"#utility.yul\":7928:8233   */\n      pop\n        /* \"#utility.yul\":8300:8302   */\n      0x20\n        /* \"#utility.yul\":8289:8298   */\n      dup4\n        /* \"#utility.yul\":8285:8303   */\n      add\n        /* \"#utility.yul\":8272:8304   */\n      calldataload\n        /* \"#utility.yul\":8331:8349   */\n      0xffffffffffffffff\n        /* \"#utility.yul\":8323:8329   */\n      dup2\n        /* \"#utility.yul\":8320:8350   */\n      gt\n        /* \"#utility.yul\":8317:8434   */\n      iszero\n      tag_510\n      jumpi\n        /* \"#utility.yul\":8353:8432   */\n      tag_511\n      tag_300\n      jump\t// in\n    tag_511:\n        /* \"#utility.yul\":8317:8434   */\n    tag_510:\n        /* \"#utility.yul\":8458:8520   */\n      tag_512\n        /* \"#utility.yul\":8512:8519   */\n      dup6\n        /* \"#utility.yul\":8503:8509   */\n      dup3\n        /* \"#utility.yul\":8492:8501   */\n      dup7\n        /* \"#utility.yul\":8488:8510   */\n      add\n        /* \"#utility.yul\":8458:8520   */\n      tag_323\n      jump\t// in\n    tag_512:\n        /* \"#utility.yul\":8448:8520   */\n      swap2\n      pop\n        /* \"#utility.yul\":8243:8530   */\n      pop\n        /* \"#utility.yul\":7669:8537   */\n      swap3\n      pop\n      swap3\n      swap1\n      pop\n      jump\t// out\n        /* \"#utility.yul\":8543:8877   */\n    tag_324:\n        /* \"#utility.yul\":8643:8647   */\n      0x00\n        /* \"#utility.yul\":8733:8751   */\n      0xffffffffffffffff\n        /* \"#utility.yul\":8725:8731   */\n      dup3\n        /* \"#utility.yul\":8722:8752   */\n      gt\n        /* \"#utility.yul\":8719:8775   */\n      iszero\n      tag_514\n      jumpi\n        /* \"#utility.yul\":8755:8773   */\n      tag_515\n      tag_238\n      jump\t// in\n    tag_515:\n        /* \"#utility.yul\":8719:8775   */\n    tag_514:\n        /* \"#utility.yul\":8805:8809   */\n      0x20\n        /* \"#utility.yul\":8797:8803   */\n      dup3\n        /* \"#utility.yul\":8793:8810   */\n      mul\n        /* \"#utility.yul\":8785:8810   */\n      swap1\n      pop\n        /* \"#utility.yul\":8865:8869   */\n      0x20\n        /* \"#utility.yul\":8859:8863   */\n      dup2\n        /* \"#utility.yul\":8855:8870   */\n      add\n        /* \"#utility.yul\":8847:8870   */\n      swap1\n      pop\n        /* \"#utility.yul\":8543:8877   */\n      swap2\n      swap1\n      pop\n      jump\t// out\n        /* \"#utility.yul\":8883:9000   */\n    tag_325:\n        /* \"#utility.yul\":8992:8993   */\n      0x00\n        /* \"#utility.yul\":8989:8990   */\n      dup1\n        /* \"#utility.yul\":8982:8994   */\n      revert\n        /* \"#utility.yul\":9129:9215   */\n    tag_327:\n        /* \"#utility.yul\":9164:9171   */\n      0x00\n        /* \"#utility.yul\":9204:9208   */\n      0xff\n        /* \"#utility.yul\":9197:9202   */\n      dup3\n        /* \"#utility.yul\":9193:9209   */\n      and\n        /* \"#utility.yul\":9182:9209   */\n      swap1\n      pop\n        /* \"#utility.yul\":9129:9215   */\n      swap2\n      swap1\n      pop\n      jump\t// out\n        /* \"#utility.yul\":9221:9339   */\n    tag_328:\n        /* \"#utility.yul\":9292:9314   */\n      tag_520\n        /* \"#utility.yul\":9308:9313   */\n      dup2\n        /* \"#utility.yul\":9292:9314   */\n      tag_327\n      jump\t// in\n    tag_520:\n        /* \"#utility.yul\":9285:9290   */\n      dup2\n        /* \"#utility.yul\":9282:9315   */\n      eq\n        /* \"#utility.yul\":9272:9333   */\n      tag_521\n      jumpi\n        /* \"#utility.yul\":9329:9330   */\n      0x00\n        /* \"#utility.yul\":9326:9327   */\n      dup1\n        /* \"#utility.yul\":9319:9331   */\n      revert\n        /* \"#utility.yul\":9272:9333   */\n    tag_521:\n        /* \"#utility.yul\":9221:9339   */\n      pop\n      jump\t// out\n        /* \"#utility.yul\":9345:9480   */\n    tag_329:\n        /* \"#utility.yul\":9389:9394   */\n      0x00\n        /* \"#utility.yul\":9427:9433   */\n      dup2\n        /* \"#utility.yul\":9414:9434   */\n      calldataload\n        /* \"#utility.yul\":9405:9434   */\n      swap1\n      pop\n        /* \"#utility.yul\":9443:9474   */\n      tag_523\n        /* \"#utility.yul\":9468:9473   */\n      dup2\n        /* \"#utility.yul\":9443:9474   */\n      tag_328\n      jump\t// in\n    tag_523:\n        /* \"#utility.yul\":9345:9480   */\n      swap3\n      swap2\n      pop\n      pop\n      jump\t// out\n        /* \"#utility.yul\":9523:10426   */\n    tag_330:\n        /* \"#utility.yul\":9595:9600   */\n      0x00\n        /* \"#utility.yul\":9639:9643   */\n      0x80\n        /* \"#utility.yul\":9627:9636   */\n      dup3\n        /* \"#utility.yul\":9622:9625   */\n      dup5\n        /* \"#utility.yul\":9618:9637   */\n      sub\n        /* \"#utility.yul\":9614:9644   */\n      slt\n        /* \"#utility.yul\":9611:9728   */\n      iszero\n      tag_525\n      jumpi\n        /* \"#utility.yul\":9647:9726   */\n      tag_526\n      tag_325\n      jump\t// in\n    tag_526:\n        /* \"#utility.yul\":9611:9728   */\n    tag_525:\n        /* \"#utility.yul\":9746:9767   */\n      tag_527\n        /* \"#utility.yul\":9762:9766   */\n      0x80\n        /* \"#utility.yul\":9746:9767   */\n      tag_319\n      jump\t// in\n    tag_527:\n        /* \"#utility.yul\":9737:9767   */\n      swap1\n      pop\n        /* \"#utility.yul\":9824:9825   */\n      0x00\n        /* \"#utility.yul\":9864:9913   */\n      tag_528\n        /* \"#utility.yul\":9909:9912   */\n      dup5\n        /* \"#utility.yul\":9900:9906   */\n      dup3\n        /* \"#utility.yul\":9889:9898   */\n      dup6\n        /* \"#utility.yul\":9885:9907   */\n      add\n        /* \"#utility.yul\":9864:9913   */\n      tag_304\n      jump\t// in\n    tag_528:\n        /* \"#utility.yul\":9857:9861   */\n      0x00\n        /* \"#utility.yul\":9850:9855   */\n      dup4\n        /* \"#utility.yul\":9846:9862   */\n      add\n        /* \"#utility.yul\":9839:9914   */\n      mstore\n        /* \"#utility.yul\":9777:9925   */\n      pop\n        /* \"#utility.yul\":9982:9984   */\n      0x20\n        /* \"#utility.yul\":10023:10072   */\n      tag_529\n        /* \"#utility.yul\":10068:10071   */\n      dup5\n        /* \"#utility.yul\":10059:10065   */\n      dup3\n        /* \"#utility.yul\":10048:10057   */\n      dup6\n        /* \"#utility.yul\":10044:10066   */\n      add\n        /* \"#utility.yul\":10023:10072   */\n      tag_304\n      jump\t// in\n    tag_529:\n        /* \"#utility.yul\":10016:10020   */\n      0x20\n        /* \"#utility.yul\":10009:10014   */\n      dup4\n        /* \"#utility.yul\":10005:10021   */\n      add\n        /* \"#utility.yul\":9998:10073   */\n      mstore\n        /* \"#utility.yul\":9935:10084   */\n      pop\n        /* \"#utility.yul\":10147:10149   */\n      0x40\n        /* \"#utility.yul\":10188:10237   */\n      tag_530\n        /* \"#utility.yul\":10233:10236   */\n      dup5\n        /* \"#utility.yul\":10224:10230   */\n      dup3\n        /* \"#utility.yul\":10213:10222   */\n      dup6\n        /* \"#utility.yul\":10209:10231   */\n      add\n        /* \"#utility.yul\":10188:10237   */\n      tag_304\n      jump\t// in\n    tag_530:\n        /* \"#utility.yul\":10181:10185   */\n      0x40\n        /* \"#utility.yul\":10174:10179   */\n      dup4\n        /* \"#utility.yul\":10170:10186   */\n      add\n        /* \"#utility.yul\":10163:10238   */\n      mstore\n        /* \"#utility.yul\":10094:10249   */\n      pop\n        /* \"#utility.yul\":10319:10321   */\n      0x60\n        /* \"#utility.yul\":10360:10407   */\n      tag_531\n        /* \"#utility.yul\":10403:10406   */\n      dup5\n        /* \"#utility.yul\":10394:10400   */\n      dup3\n        /* \"#utility.yul\":10383:10392   */\n      dup6\n        /* \"#utility.yul\":10379:10401   */\n      add\n        /* \"#utility.yul\":10360:10407   */\n      tag_329\n      jump\t// in\n    tag_531:\n        /* \"#utility.yul\":10353:10357   */\n      0x60\n        /* \"#utility.yul\":10346:10351   */\n      dup4\n        /* \"#utility.yul\":10342:10358   */\n      add\n        /* \"#utility.yul\":10335:10408   */\n      mstore\n        /* \"#utility.yul\":10259:10419   */\n      pop\n        /* \"#utility.yul\":9523:10426   */\n      swap3\n      swap2\n      pop\n      pop\n      jump\t// out\n        /* \"#utility.yul\":10471:11250   */\n    tag_331:\n        /* \"#utility.yul\":10590:10595   */\n      0x00\n        /* \"#utility.yul\":10615:10719   */\n      tag_533\n        /* \"#utility.yul\":10631:10718   */\n      tag_534\n        /* \"#utility.yul\":10711:10717   */\n      dup5\n        /* \"#utility.yul\":10631:10718   */\n      tag_324\n      jump\t// in\n    tag_534:\n        /* \"#utility.yul\":10615:10719   */\n      tag_319\n      jump\t// in\n    tag_533:\n        /* \"#utility.yul\":10606:10719   */\n      swap1\n      pop\n        /* \"#utility.yul\":10739:10744   */\n      dup1\n        /* \"#utility.yul\":10768:10774   */\n      dup4\n        /* \"#utility.yul\":10761:10766   */\n      dup3\n        /* \"#utility.yul\":10754:10775   */\n      mstore\n        /* \"#utility.yul\":10802:10806   */\n      0x20\n        /* \"#utility.yul\":10795:10800   */\n      dup3\n        /* \"#utility.yul\":10791:10807   */\n      add\n        /* \"#utility.yul\":10784:10807   */\n      swap1\n      pop\n        /* \"#utility.yul\":10855:10859   */\n      0x80\n        /* \"#utility.yul\":10847:10853   */\n      dup5\n        /* \"#utility.yul\":10843:10860   */\n      mul\n        /* \"#utility.yul\":10835:10841   */\n      dup4\n        /* \"#utility.yul\":10831:10861   */\n      add\n        /* \"#utility.yul\":10884:10887   */\n      dup6\n        /* \"#utility.yul\":10876:10882   */\n      dup2\n        /* \"#utility.yul\":10873:10888   */\n      gt\n        /* \"#utility.yul\":10870:10992   */\n      iszero\n      tag_535\n      jumpi\n        /* \"#utility.yul\":10903:10982   */\n      tag_536\n      tag_313\n      jump\t// in\n    tag_536:\n        /* \"#utility.yul\":10870:10992   */\n    tag_535:\n        /* \"#utility.yul\":11018:11024   */\n      dup4\n        /* \"#utility.yul\":11001:11244   */\n    tag_537:\n        /* \"#utility.yul\":11035:11041   */\n      dup2\n        /* \"#utility.yul\":11030:11033   */\n      dup2\n        /* \"#utility.yul\":11027:11042   */\n      lt\n        /* \"#utility.yul\":11001:11244   */\n      iszero\n      tag_539\n      jumpi\n        /* \"#utility.yul\":11110:11113   */\n      dup1\n        /* \"#utility.yul\":11139:11199   */\n      tag_540\n        /* \"#utility.yul\":11195:11198   */\n      dup9\n        /* \"#utility.yul\":11183:11193   */\n      dup3\n        /* \"#utility.yul\":11139:11199   */\n      tag_330\n      jump\t// in\n    tag_540:\n        /* \"#utility.yul\":11134:11137   */\n      dup5\n        /* \"#utility.yul\":11127:11200   */\n      mstore\n        /* \"#utility.yul\":11229:11233   */\n      0x20\n        /* \"#utility.yul\":11224:11227   */\n      dup5\n        /* \"#utility.yul\":11220:11234   */\n      add\n        /* \"#utility.yul\":11213:11234   */\n      swap4\n      pop\n        /* \"#utility.yul\":11077:11244   */\n      pop\n        /* \"#utility.yul\":11061:11065   */\n      0x80\n        /* \"#utility.yul\":11056:11059   */\n      dup2\n        /* \"#utility.yul\":11052:11066   */\n      add\n        /* \"#utility.yul\":11045:11066   */\n      swap1\n      pop\n        /* \"#utility.yul\":11001:11244   */\n      jump(tag_537)\n    tag_539:\n        /* \"#utility.yul\":11005:11026   */\n      pop\n        /* \"#utility.yul\":10596:11250   */\n      pop\n      pop\n        /* \"#utility.yul\":10471:11250   */\n      swap4\n      swap3\n      pop\n      pop\n      pop\n      jump\t// out\n        /* \"#utility.yul\":11295:11711   */\n    tag_332:\n        /* \"#utility.yul\":11389:11394   */\n      0x00\n        /* \"#utility.yul\":11438:11441   */\n      dup3\n        /* \"#utility.yul\":11431:11435   */\n      0x1f\n        /* \"#utility.yul\":11423:11429   */\n      dup4\n        /* \"#utility.yul\":11419:11436   */\n      add\n        /* \"#utility.yul\":11415:11442   */\n      slt\n        /* \"#utility.yul\":11405:11527   */\n      tag_542\n      jumpi\n        /* \"#utility.yul\":11446:11525   */\n      tag_543\n      tag_311\n      jump\t// in\n    tag_543:\n        /* \"#utility.yul\":11405:11527   */\n    tag_542:\n        /* \"#utility.yul\":11563:11569   */\n      dup2\n        /* \"#utility.yul\":11550:11570   */\n      calldataload\n        /* \"#utility.yul\":11588:11705   */\n      tag_544\n        /* \"#utility.yul\":11701:11704   */\n      dup5\n        /* \"#utility.yul\":11693:11699   */\n      dup3\n        /* \"#utility.yul\":11686:11690   */\n      0x20\n        /* \"#utility.yul\":11678:11684   */\n      dup7\n        /* \"#utility.yul\":11674:11691   */\n      add\n        /* \"#utility.yul\":11588:11705   */\n      tag_331\n      jump\t// in\n    tag_544:\n        /* \"#utility.yul\":11579:11705   */\n      swap2\n      pop\n        /* \"#utility.yul\":11395:11711   */\n      pop\n        /* \"#utility.yul\":11295:11711   */\n      swap3\n      swap2\n      pop\n      pop\n      jump\t// out\n        /* \"#utility.yul\":11717:12302   */\n    tag_75:\n        /* \"#utility.yul\":11824:11830   */\n      0x00\n        /* \"#utility.yul\":11873:11875   */\n      0x20\n        /* \"#utility.yul\":11861:11870   */\n      dup3\n        /* \"#utility.yul\":11852:11859   */\n      dup5\n        /* \"#utility.yul\":11848:11871   */\n      sub\n        /* \"#utility.yul\":11844:11876   */\n      slt\n        /* \"#utility.yul\":11841:11960   */\n      iszero\n      tag_546\n      jumpi\n        /* \"#utility.yul\":11879:11958   */\n      tag_547\n      tag_299\n      jump\t// in\n    tag_547:\n        /* \"#utility.yul\":11841:11960   */\n    tag_546:\n        /* \"#utility.yul\":12027:12028   */\n      0x00\n        /* \"#utility.yul\":12016:12025   */\n      dup3\n        /* \"#utility.yul\":12012:12029   */\n      add\n        /* \"#utility.yul\":11999:12030   */\n      calldataload\n        /* \"#utility.yul\":12057:12075   */\n      0xffffffffffffffff\n        /* \"#utility.yul\":12049:12055   */\n      dup2\n        /* \"#utility.yul\":12046:12076   */\n      gt\n        /* \"#utility.yul\":12043:12160   */\n      iszero\n      tag_548\n      jumpi\n        /* \"#utility.yul\":12079:12158   */\n      tag_549\n      tag_300\n      jump\t// in\n    tag_549:\n        /* \"#utility.yul\":12043:12160   */\n    tag_548:\n        /* \"#utility.yul\":12184:12285   */\n      tag_550\n        /* \"#utility.yul\":12277:12284   */\n      dup5\n        /* \"#utility.yul\":12268:12274   */\n      dup3\n        /* \"#utility.yul\":12257:12266   */\n      dup6\n        /* \"#utility.yul\":12253:12275   */\n      add\n        /* \"#utility.yul\":12184:12285   */\n      tag_332\n      jump\t// in\n    tag_550:\n        /* \"#utility.yul\":12174:12285   */\n      swap2\n      pop\n        /* \"#utility.yul\":11970:12295   */\n      pop\n        /* \"#utility.yul\":11717:12302   */\n      swap3\n      swap2\n      pop\n      pop\n      jump\t// out\n        /* \"#utility.yul\":12308:12446   */\n    tag_333:\n        /* \"#utility.yul\":12399:12405   */\n      0x00\n        /* \"#utility.yul\":12433:12438   */\n      dup2\n        /* \"#utility.yul\":12427:12439   */\n      mload\n        /* \"#utility.yul\":12417:12439   */\n      swap1\n      pop\n        /* \"#utility.yul\":12308:12446   */\n      swap2\n      swap1\n      pop\n      jump\t// out\n        /* \"#utility.yul\":12452:12660   */\n    tag_334:\n        /* \"#utility.yul\":12575:12586   */\n      0x00\n        /* \"#utility.yul\":12609:12615   */\n      dup3\n        /* \"#utility.yul\":12604:12607   */\n      dup3\n        /* \"#utility.yul\":12597:12616   */\n      mstore\n        /* \"#utility.yul\":12649:12653   */\n      0x20\n        /* \"#utility.yul\":12644:12647   */\n      dup3\n        /* \"#utility.yul\":12640:12654   */\n      add\n        /* \"#utility.yul\":12625:12654   */\n      swap1\n      pop\n        /* \"#utility.yul\":12452:12660   */\n      swap3\n      swap2\n      pop\n      pop\n      jump\t// out\n        /* \"#utility.yul\":12666:12822   */\n    tag_335:\n        /* \"#utility.yul\":12757:12761   */\n      0x00\n        /* \"#utility.yul\":12780:12783   */\n      dup2\n        /* \"#utility.yul\":12772:12783   */\n      swap1\n      pop\n        /* \"#utility.yul\":12810:12814   */\n      0x20\n        /* \"#utility.yul\":12805:12808   */\n      dup3\n        /* \"#utility.yul\":12801:12815   */\n      add\n        /* \"#utility.yul\":12793:12815   */\n      swap1\n      pop\n        /* \"#utility.yul\":12666:12822   */\n      swap2\n      swap1\n      pop\n      jump\t// out\n        /* \"#utility.yul\":12828:12936   */\n    tag_336:\n        /* \"#utility.yul\":12905:12929   */\n      tag_555\n        /* \"#utility.yul\":12923:12928   */\n      dup2\n        /* \"#utility.yul\":12905:12929   */\n      tag_302\n      jump\t// in\n    tag_555:\n        /* \"#utility.yul\":12900:12903   */\n      dup3\n        /* \"#utility.yul\":12893:12930   */\n      mstore\n        /* \"#utility.yul\":12828:12936   */\n      pop\n      pop\n      jump\t// out\n        /* \"#utility.yul\":12942:13050   */\n    tag_337:\n        /* \"#utility.yul\":13019:13043   */\n      tag_557\n        /* \"#utility.yul\":13037:13042   */\n      dup2\n        /* \"#utility.yul\":13019:13043   */\n      tag_305\n      jump\t// in\n    tag_557:\n        /* \"#utility.yul\":13014:13017   */\n      dup3\n        /* \"#utility.yul\":13007:13044   */\n      mstore\n        /* \"#utility.yul\":12942:13050   */\n      pop\n      pop\n      jump\t// out\n        /* \"#utility.yul\":13056:13147   */\n    tag_338:\n        /* \"#utility.yul\":13092:13099   */\n      0x00\n        /* \"#utility.yul\":13132:13140   */\n      0xffffff\n        /* \"#utility.yul\":13125:13130   */\n      dup3\n        /* \"#utility.yul\":13121:13141   */\n      and\n        /* \"#utility.yul\":13110:13141   */\n      swap1\n      pop\n        /* \"#utility.yul\":13056:13147   */\n      swap2\n      swap1\n      pop\n      jump\t// out\n        /* \"#utility.yul\":13153:13258   */\n    tag_339:\n        /* \"#utility.yul\":13228:13251   */\n      tag_560\n        /* \"#utility.yul\":13245:13250   */\n      dup2\n        /* \"#utility.yul\":13228:13251   */\n      tag_338\n      jump\t// in\n    tag_560:\n        /* \"#utility.yul\":13223:13226   */\n      dup3\n        /* \"#utility.yul\":13216:13252   */\n      mstore\n        /* \"#utility.yul\":13153:13258   */\n      pop\n      pop\n      jump\t// out\n        /* \"#utility.yul\":13336:14173   */\n    tag_340:\n        /* \"#utility.yul\":13471:13475   */\n      0x80\n        /* \"#utility.yul\":13466:13469   */\n      dup3\n        /* \"#utility.yul\":13462:13476   */\n      add\n        /* \"#utility.yul\":13556:13560   */\n      0x00\n        /* \"#utility.yul\":13549:13554   */\n      dup3\n        /* \"#utility.yul\":13545:13561   */\n      add\n        /* \"#utility.yul\":13539:13562   */\n      mload\n        /* \"#utility.yul\":13575:13638   */\n      tag_562\n        /* \"#utility.yul\":13632:13636   */\n      0x00\n        /* \"#utility.yul\":13627:13630   */\n      dup6\n        /* \"#utility.yul\":13623:13637   */\n      add\n        /* \"#utility.yul\":13609:13621   */\n      dup3\n        /* \"#utility.yul\":13575:13638   */\n      tag_336\n      jump\t// in\n    tag_562:\n        /* \"#utility.yul\":13486:13648   */\n      pop\n        /* \"#utility.yul\":13728:13732   */\n      0x20\n        /* \"#utility.yul\":13721:13726   */\n      dup3\n        /* \"#utility.yul\":13717:13733   */\n      add\n        /* \"#utility.yul\":13711:13734   */\n      mload\n        /* \"#utility.yul\":13747:13810   */\n      tag_563\n        /* \"#utility.yul\":13804:13808   */\n      0x20\n        /* \"#utility.yul\":13799:13802   */\n      dup6\n        /* \"#utility.yul\":13795:13809   */\n      add\n        /* \"#utility.yul\":13781:13793   */\n      dup3\n        /* \"#utility.yul\":13747:13810   */\n      tag_336\n      jump\t// in\n    tag_563:\n        /* \"#utility.yul\":13658:13820   */\n      pop\n        /* \"#utility.yul\":13903:13907   */\n      0x40\n        /* \"#utility.yul\":13896:13901   */\n      dup3\n        /* \"#utility.yul\":13892:13908   */\n      add\n        /* \"#utility.yul\":13886:13909   */\n      mload\n        /* \"#utility.yul\":13922:13985   */\n      tag_564\n        /* \"#utility.yul\":13979:13983   */\n      0x40\n        /* \"#utility.yul\":13974:13977   */\n      dup6\n        /* \"#utility.yul\":13970:13984   */\n      add\n        /* \"#utility.yul\":13956:13968   */\n      dup3\n        /* \"#utility.yul\":13922:13985   */\n      tag_337\n      jump\t// in\n    tag_564:\n        /* \"#utility.yul\":13830:13995   */\n      pop\n        /* \"#utility.yul\":14076:14080   */\n      0x60\n        /* \"#utility.yul\":14069:14074   */\n      dup3\n        /* \"#utility.yul\":14065:14081   */\n      add\n        /* \"#utility.yul\":14059:14082   */\n      mload\n        /* \"#utility.yul\":14095:14156   */\n      tag_565\n        /* \"#utility.yul\":14150:14154   */\n      0x60\n        /* \"#utility.yul\":14145:14148   */\n      dup6\n        /* \"#utility.yul\":14141:14155   */\n      add\n        /* \"#utility.yul\":14127:14139   */\n      dup3\n        /* \"#utility.yul\":14095:14156   */\n      tag_339\n      jump\t// in\n    tag_565:\n        /* \"#utility.yul\":14005:14166   */\n      pop\n        /* \"#utility.yul\":13440:14173   */\n      pop\n        /* \"#utility.yul\":13336:14173   */\n      pop\n      pop\n      jump\t// out\n        /* \"#utility.yul\":14179:14454   */\n    tag_341:\n        /* \"#utility.yul\":14296:14306   */\n      0x00\n        /* \"#utility.yul\":14317:14411   */\n      tag_567\n        /* \"#utility.yul\":14407:14410   */\n      dup4\n        /* \"#utility.yul\":14399:14405   */\n      dup4\n        /* \"#utility.yul\":14317:14411   */\n      tag_340\n      jump\t// in\n    tag_567:\n        /* \"#utility.yul\":14443:14447   */\n      0x80\n        /* \"#utility.yul\":14438:14441   */\n      dup4\n        /* \"#utility.yul\":14434:14448   */\n      add\n        /* \"#utility.yul\":14420:14448   */\n      swap1\n      pop\n        /* \"#utility.yul\":14179:14454   */\n      swap3\n      swap2\n      pop\n      pop\n      jump\t// out\n        /* \"#utility.yul\":14460:14597   */\n    tag_342:\n        /* \"#utility.yul\":14554:14558   */\n      0x00\n        /* \"#utility.yul\":14586:14590   */\n      0x20\n        /* \"#utility.yul\":14581:14584   */\n      dup3\n        /* \"#utility.yul\":14577:14591   */\n      add\n        /* \"#utility.yul\":14569:14591   */\n      swap1\n      pop\n        /* \"#utility.yul\":14460:14597   */\n      swap2\n      swap1\n      pop\n      jump\t// out\n        /* \"#utility.yul\":14679:15603   */\n    tag_343:\n        /* \"#utility.yul\":14846:14849   */\n      0x00\n        /* \"#utility.yul\":14875:14953   */\n      tag_570\n        /* \"#utility.yul\":14947:14952   */\n      dup3\n        /* \"#utility.yul\":14875:14953   */\n      tag_333\n      jump\t// in\n    tag_570:\n        /* \"#utility.yul\":14969:15079   */\n      tag_571\n        /* \"#utility.yul\":15072:15078   */\n      dup2\n        /* \"#utility.yul\":15067:15070   */\n      dup6\n        /* \"#utility.yul\":14969:15079   */\n      tag_334\n      jump\t// in\n    tag_571:\n        /* \"#utility.yul\":14962:15079   */\n      swap4\n      pop\n        /* \"#utility.yul\":15103:15183   */\n      tag_572\n        /* \"#utility.yul\":15177:15182   */\n      dup4\n        /* \"#utility.yul\":15103:15183   */\n      tag_335\n      jump\t// in\n    tag_572:\n        /* \"#utility.yul\":15206:15213   */\n      dup1\n        /* \"#utility.yul\":15237:15238   */\n      0x00\n        /* \"#utility.yul\":15222:15578   */\n    tag_573:\n        /* \"#utility.yul\":15247:15253   */\n      dup4\n        /* \"#utility.yul\":15244:15245   */\n      dup2\n        /* \"#utility.yul\":15241:15254   */\n      lt\n        /* \"#utility.yul\":15222:15578   */\n      iszero\n      tag_575\n      jumpi\n        /* \"#utility.yul\":15323:15329   */\n      dup2\n        /* \"#utility.yul\":15317:15330   */\n      mload\n        /* \"#utility.yul\":15350:15461   */\n      tag_576\n        /* \"#utility.yul\":15457:15460   */\n      dup9\n        /* \"#utility.yul\":15442:15455   */\n      dup3\n        /* \"#utility.yul\":15350:15461   */\n      tag_341\n      jump\t// in\n    tag_576:\n        /* \"#utility.yul\":15343:15461   */\n      swap8\n      pop\n        /* \"#utility.yul\":15484:15568   */\n      tag_577\n        /* \"#utility.yul\":15561:15567   */\n      dup4\n        /* \"#utility.yul\":15484:15568   */\n      tag_342\n      jump\t// in\n    tag_577:\n        /* \"#utility.yul\":15474:15568   */\n      swap3\n      pop\n        /* \"#utility.yul\":15282:15578   */\n      pop\n        /* \"#utility.yul\":15269:15270   */\n      0x01\n        /* \"#utility.yul\":15266:15267   */\n      dup2\n        /* \"#utility.yul\":15262:15271   */\n      add\n        /* \"#utility.yul\":15257:15271   */\n      swap1\n      pop\n        /* \"#utility.yul\":15222:15578   */\n      jump(tag_573)\n    tag_575:\n        /* \"#utility.yul\":15226:15240   */\n      pop\n        /* \"#utility.yul\":15594:15597   */\n      dup6\n        /* \"#utility.yul\":15587:15597   */\n      swap4\n      pop\n        /* \"#utility.yul\":14851:15603   */\n      pop\n      pop\n      pop\n        /* \"#utility.yul\":14679:15603   */\n      swap3\n      swap2\n      pop\n      pop\n      jump\t// out\n        /* \"#utility.yul\":15609:16078   */\n    tag_78:\n        /* \"#utility.yul\":15800:15804   */\n      0x00\n        /* \"#utility.yul\":15838:15840   */\n      0x20\n        /* \"#utility.yul\":15827:15836   */\n      dup3\n        /* \"#utility.yul\":15823:15841   */\n      add\n        /* \"#utility.yul\":15815:15841   */\n      swap1\n      pop\n        /* \"#utility.yul\":15887:15896   */\n      dup2\n        /* \"#utility.yul\":15881:15885   */\n      dup2\n        /* \"#utility.yul\":15877:15897   */\n      sub\n        /* \"#utility.yul\":15873:15874   */\n      0x00\n        /* \"#utility.yul\":15862:15871   */\n      dup4\n        /* \"#utility.yul\":15858:15875   */\n      add\n        /* \"#utility.yul\":15851:15898   */\n      mstore\n        /* \"#utility.yul\":15915:16071   */\n      tag_579\n        /* \"#utility.yul\":16066:16070   */\n      dup2\n        /* \"#utility.yul\":16057:16063   */\n      dup5\n        /* \"#utility.yul\":15915:16071   */\n      tag_343\n      jump\t// in\n    tag_579:\n        /* \"#utility.yul\":15907:16071   */\n      swap1\n      pop\n        /* \"#utility.yul\":15609:16078   */\n      swap3\n      swap2\n      pop\n      pop\n      jump\t// out\n        /* \"#utility.yul\":16084:16227   */\n    tag_344:\n        /* \"#utility.yul\":16141:16146   */\n      0x00\n        /* \"#utility.yul\":16172:16178   */\n      dup2\n        /* \"#utility.yul\":16166:16179   */\n      mload\n        /* \"#utility.yul\":16157:16179   */\n      swap1\n      pop\n        /* \"#utility.yul\":16188:16221   */\n      tag_581\n        /* \"#utility.yul\":16215:16220   */\n      dup2\n        /* \"#utility.yul\":16188:16221   */\n      tag_306\n      jump\t// in\n    tag_581:\n        /* \"#utility.yul\":16084:16227   */\n      swap3\n      swap2\n      pop\n      pop\n      jump\t// out\n        /* \"#utility.yul\":16233:16584   */\n    tag_90:\n        /* \"#utility.yul\":16303:16309   */\n      0x00\n        /* \"#utility.yul\":16352:16354   */\n      0x20\n        /* \"#utility.yul\":16340:16349   */\n      dup3\n        /* \"#utility.yul\":16331:16338   */\n      dup5\n        /* \"#utility.yul\":16327:16350   */\n      sub\n        /* \"#utility.yul\":16323:16355   */\n      slt\n        /* \"#utility.yul\":16320:16439   */\n      iszero\n      tag_583\n      jumpi\n        /* \"#utility.yul\":16358:16437   */\n      tag_584\n      tag_299\n      jump\t// in\n    tag_584:\n        /* \"#utility.yul\":16320:16439   */\n    tag_583:\n        /* \"#utility.yul\":16478:16479   */\n      0x00\n        /* \"#utility.yul\":16503:16567   */\n      tag_585\n        /* \"#utility.yul\":16559:16566   */\n      dup5\n        /* \"#utility.yul\":16550:16556   */\n      dup3\n        /* \"#utility.yul\":16539:16548   */\n      dup6\n        /* \"#utility.yul\":16535:16557   */\n      add\n        /* \"#utility.yul\":16503:16567   */\n      tag_344\n      jump\t// in\n    tag_585:\n        /* \"#utility.yul\":16493:16567   */\n      swap2\n      pop\n        /* \"#utility.yul\":16449:16577   */\n      pop\n        /* \"#utility.yul\":16233:16584   */\n      swap3\n      swap2\n      pop\n      pop\n      jump\t// out\n        /* \"#utility.yul\":16590:16759   */\n    tag_345:\n        /* \"#utility.yul\":16674:16685   */\n      0x00\n        /* \"#utility.yul\":16708:16714   */\n      dup3\n        /* \"#utility.yul\":16703:16706   */\n      dup3\n        /* \"#utility.yul\":16696:16715   */\n      mstore\n        /* \"#utility.yul\":16748:16752   */\n      0x20\n        /* \"#utility.yul\":16743:16746   */\n      dup3\n        /* \"#utility.yul\":16739:16753   */\n      add\n        /* \"#utility.yul\":16724:16753   */\n      swap1\n      pop\n        /* \"#utility.yul\":16590:16759   */\n      swap3\n      swap2\n      pop\n      pop\n      jump\t// out\n        /* \"#utility.yul\":16765:16929   */\n    tag_346:\n        /* \"#utility.yul\":16905:16921   */\n      0x696e76616c65642073656e646572000000000000000000000000000000000000\n        /* \"#utility.yul\":16901:16902   */\n      0x00\n        /* \"#utility.yul\":16893:16899   */\n      dup3\n        /* \"#utility.yul\":16889:16903   */\n      add\n        /* \"#utility.yul\":16882:16922   */\n      mstore\n        /* \"#utility.yul\":16765:16929   */\n      pop\n      jump\t// out\n        /* \"#utility.yul\":16935:17301   */\n    tag_347:\n        /* \"#utility.yul\":17077:17080   */\n      0x00\n        /* \"#utility.yul\":17098:17165   */\n      tag_589\n        /* \"#utility.yul\":17162:17164   */\n      0x0e\n        /* \"#utility.yul\":17157:17160   */\n      dup4\n        /* \"#utility.yul\":17098:17165   */\n      tag_345\n      jump\t// in\n    tag_589:\n        /* \"#utility.yul\":17091:17165   */\n      swap2\n      pop\n        /* \"#utility.yul\":17174:17267   */\n      tag_590\n        /* \"#utility.yul\":17263:17266   */\n      dup3\n        /* \"#utility.yul\":17174:17267   */\n      tag_346\n      jump\t// in\n    tag_590:\n        /* \"#utility.yul\":17292:17294   */\n      0x20\n        /* \"#utility.yul\":17287:17290   */\n      dup3\n        /* \"#utility.yul\":17283:17295   */\n      add\n        /* \"#utility.yul\":17276:17295   */\n      swap1\n      pop\n        /* \"#utility.yul\":16935:17301   */\n      swap2\n      swap1\n      pop\n      jump\t// out\n        /* \"#utility.yul\":17307:17726   */\n    tag_95:\n        /* \"#utility.yul\":17473:17477   */\n      0x00\n        /* \"#utility.yul\":17511:17513   */\n      0x20\n        /* \"#utility.yul\":17500:17509   */\n      dup3\n        /* \"#utility.yul\":17496:17514   */\n      add\n        /* \"#utility.yul\":17488:17514   */\n      swap1\n      pop\n        /* \"#utility.yul\":17560:17569   */\n      dup2\n        /* \"#utility.yul\":17554:17558   */\n      dup2\n        /* \"#utility.yul\":17550:17570   */\n      sub\n        /* \"#utility.yul\":17546:17547   */\n      0x00\n        /* \"#utility.yul\":17535:17544   */\n      dup4\n        /* \"#utility.yul\":17531:17548   */\n      add\n        /* \"#utility.yul\":17524:17571   */\n      mstore\n        /* \"#utility.yul\":17588:17719   */\n      tag_592\n        /* \"#utility.yul\":17714:17718   */\n      dup2\n        /* \"#utility.yul\":17588:17719   */\n      tag_347\n      jump\t// in\n    tag_592:\n        /* \"#utility.yul\":17580:17719   */\n      swap1\n      pop\n        /* \"#utility.yul\":17307:17726   */\n      swap2\n      swap1\n      pop\n      jump\t// out\n        /* \"#utility.yul\":17732:17854   */\n    tag_348:\n        /* \"#utility.yul\":17784:17789   */\n      0x00\n        /* \"#utility.yul\":17809:17848   */\n      tag_594\n        /* \"#utility.yul\":17844:17846   */\n      0x20\n        /* \"#utility.yul\":17839:17842   */\n      dup5\n        /* \"#utility.yul\":17835:17847   */\n      add\n        /* \"#utility.yul\":17830:17833   */\n      dup5\n        /* \"#utility.yul\":17809:17848   */\n      tag_304\n      jump\t// in\n    tag_594:\n        /* \"#utility.yul\":17800:17848   */\n      swap1\n      pop\n        /* \"#utility.yul\":17732:17854   */\n      swap3\n      swap2\n      pop\n      pop\n      jump\t// out\n        /* \"#utility.yul\":17860:17982   */\n    tag_349:\n        /* \"#utility.yul\":17912:17917   */\n      0x00\n        /* \"#utility.yul\":17937:17976   */\n      tag_596\n        /* \"#utility.yul\":17972:17974   */\n      0x20\n        /* \"#utility.yul\":17967:17970   */\n      dup5\n        /* \"#utility.yul\":17963:17975   */\n      add\n        /* \"#utility.yul\":17958:17961   */\n      dup5\n        /* \"#utility.yul\":17937:17976   */\n      tag_307\n      jump\t// in\n    tag_596:\n        /* \"#utility.yul\":17928:17976   */\n      swap1\n      pop\n        /* \"#utility.yul\":17860:17982   */\n      swap3\n      swap2\n      pop\n      pop\n      jump\t// out\n        /* \"#utility.yul\":17988:18105   */\n    tag_350:\n        /* \"#utility.yul\":18097:18098   */\n      0x00\n        /* \"#utility.yul\":18094:18095   */\n      dup1\n        /* \"#utility.yul\":18087:18099   */\n      revert\n        /* \"#utility.yul\":18111:18228   */\n    tag_351:\n        /* \"#utility.yul\":18220:18221   */\n      0x00\n        /* \"#utility.yul\":18217:18218   */\n      dup1\n        /* \"#utility.yul\":18210:18222   */\n      revert\n        /* \"#utility.yul\":18234:18351   */\n    tag_352:\n        /* \"#utility.yul\":18343:18344   */\n      0x00\n        /* \"#utility.yul\":18340:18341   */\n      dup1\n        /* \"#utility.yul\":18333:18345   */\n      revert\n        /* \"#utility.yul\":18357:19068   */\n    tag_353:\n        /* \"#utility.yul\":18421:18426   */\n      0x00\n        /* \"#utility.yul\":18428:18434   */\n      dup1\n        /* \"#utility.yul\":18484:18487   */\n      dup4\n        /* \"#utility.yul\":18471:18488   */\n      calldataload\n        /* \"#utility.yul\":18576:18577   */\n      0x01\n        /* \"#utility.yul\":18570:18574   */\n      0x20\n        /* \"#utility.yul\":18566:18578   */\n      sub\n        /* \"#utility.yul\":18555:18563   */\n      dup5\n        /* \"#utility.yul\":18539:18553   */\n      calldatasize\n        /* \"#utility.yul\":18535:18564   */\n      sub\n        /* \"#utility.yul\":18531:18579   */\n      sub\n        /* \"#utility.yul\":18511:18529   */\n      dup2\n        /* \"#utility.yul\":18507:18580   */\n      slt\n        /* \"#utility.yul\":18497:18665   */\n      tag_601\n      jumpi\n        /* \"#utility.yul\":18584:18663   */\n      tag_602\n      tag_352\n      jump\t// in\n    tag_602:\n        /* \"#utility.yul\":18497:18665   */\n    tag_601:\n        /* \"#utility.yul\":18707:18715   */\n      dup4\n        /* \"#utility.yul\":18687:18705   */\n      dup2\n        /* \"#utility.yul\":18683:18716   */\n      add\n        /* \"#utility.yul\":18674:18716   */\n      swap3\n      pop\n        /* \"#utility.yul\":18749:18754   */\n      dup3\n        /* \"#utility.yul\":18736:18755   */\n      calldataload\n        /* \"#utility.yul\":18726:18755   */\n      swap2\n      pop\n        /* \"#utility.yul\":18784:18788   */\n      0x20\n        /* \"#utility.yul\":18777:18782   */\n      dup4\n        /* \"#utility.yul\":18773:18789   */\n      add\n        /* \"#utility.yul\":18764:18789   */\n      swap3\n      pop\n        /* \"#utility.yul\":18812:18830   */\n      0xffffffffffffffff\n        /* \"#utility.yul\":18804:18810   */\n      dup3\n        /* \"#utility.yul\":18801:18831   */\n      gt\n        /* \"#utility.yul\":18798:18915   */\n      iszero\n      tag_603\n      jumpi\n        /* \"#utility.yul\":18834:18913   */\n      tag_604\n      tag_350\n      jump\t// in\n    tag_604:\n        /* \"#utility.yul\":18798:18915   */\n    tag_603:\n        /* \"#utility.yul\":18970:18974   */\n      0x01\n        /* \"#utility.yul\":18962:18968   */\n      dup3\n        /* \"#utility.yul\":18958:18975   */\n      mul\n        /* \"#utility.yul\":18942:18956   */\n      calldatasize\n        /* \"#utility.yul\":18938:18976   */\n      sub\n        /* \"#utility.yul\":18931:18936   */\n      dup4\n        /* \"#utility.yul\":18927:18977   */\n      sgt\n        /* \"#utility.yul\":18924:19061   */\n      iszero\n      tag_605\n      jumpi\n        /* \"#utility.yul\":18980:19059   */\n      tag_606\n      tag_351\n      jump\t// in\n    tag_606:\n        /* \"#utility.yul\":18924:19061   */\n    tag_605:\n        /* \"#utility.yul\":18435:19068   */\n      pop\n        /* \"#utility.yul\":18357:19068   */\n      swap3\n      pop\n      swap3\n      swap1\n      pop\n      jump\t// out\n        /* \"#utility.yul\":19074:19232   */\n    tag_354:\n        /* \"#utility.yul\":19147:19158   */\n      0x00\n        /* \"#utility.yul\":19181:19187   */\n      dup3\n        /* \"#utility.yul\":19176:19179   */\n      dup3\n        /* \"#utility.yul\":19169:19188   */\n      mstore\n        /* \"#utility.yul\":19221:19225   */\n      0x20\n        /* \"#utility.yul\":19216:19219   */\n      dup3\n        /* \"#utility.yul\":19212:19226   */\n      add\n        /* \"#utility.yul\":19197:19226   */\n      swap1\n      pop\n        /* \"#utility.yul\":19074:19232   */\n      swap3\n      swap2\n      pop\n      pop\n      jump\t// out\n        /* \"#utility.yul\":19260:19554   */\n    tag_355:\n        /* \"#utility.yul\":19346:19349   */\n      0x00\n        /* \"#utility.yul\":19367:19427   */\n      tag_609\n        /* \"#utility.yul\":19420:19426   */\n      dup4\n        /* \"#utility.yul\":19415:19418   */\n      dup6\n        /* \"#utility.yul\":19367:19427   */\n      tag_354\n      jump\t// in\n    tag_609:\n        /* \"#utility.yul\":19360:19427   */\n      swap4\n      pop\n        /* \"#utility.yul\":19437:19493   */\n      tag_610\n        /* \"#utility.yul\":19486:19492   */\n      dup4\n        /* \"#utility.yul\":19481:19484   */\n      dup6\n        /* \"#utility.yul\":19474:19479   */\n      dup5\n        /* \"#utility.yul\":19437:19493   */\n      tag_321\n      jump\t// in\n    tag_610:\n        /* \"#utility.yul\":19518:19547   */\n      tag_611\n        /* \"#utility.yul\":19540:19546   */\n      dup4\n        /* \"#utility.yul\":19518:19547   */\n      tag_317\n      jump\t// in\n    tag_611:\n        /* \"#utility.yul\":19513:19516   */\n      dup5\n        /* \"#utility.yul\":19509:19548   */\n      add\n        /* \"#utility.yul\":19502:19548   */\n      swap1\n      pop\n        /* \"#utility.yul\":19260:19554   */\n      swap4\n      swap3\n      pop\n      pop\n      pop\n      jump\t// out\n        /* \"#utility.yul\":19640:21165   */\n    tag_356:\n        /* \"#utility.yul\":19763:19766   */\n      0x00\n        /* \"#utility.yul\":19799:19803   */\n      0xc0\n        /* \"#utility.yul\":19794:19797   */\n      dup4\n        /* \"#utility.yul\":19790:19804   */\n      add\n        /* \"#utility.yul\":19870:19920   */\n      tag_613\n        /* \"#utility.yul\":19914:19918   */\n      0x00\n        /* \"#utility.yul\":19907:19912   */\n      dup5\n        /* \"#utility.yul\":19903:19919   */\n      add\n        /* \"#utility.yul\":19896:19901   */\n      dup5\n        /* \"#utility.yul\":19870:19920   */\n      tag_348\n      jump\t// in\n    tag_613:\n        /* \"#utility.yul\":19933:19996   */\n      tag_614\n        /* \"#utility.yul\":19990:19994   */\n      0x00\n        /* \"#utility.yul\":19985:19988   */\n      dup7\n        /* \"#utility.yul\":19981:19995   */\n      add\n        /* \"#utility.yul\":19967:19979   */\n      dup3\n        /* \"#utility.yul\":19933:19996   */\n      tag_336\n      jump\t// in\n    tag_614:\n        /* \"#utility.yul\":19814:20006   */\n      pop\n        /* \"#utility.yul\":20078:20128   */\n      tag_615\n        /* \"#utility.yul\":20122:20126   */\n      0x20\n        /* \"#utility.yul\":20115:20120   */\n      dup5\n        /* \"#utility.yul\":20111:20127   */\n      add\n        /* \"#utility.yul\":20104:20109   */\n      dup5\n        /* \"#utility.yul\":20078:20128   */\n      tag_349\n      jump\t// in\n    tag_615:\n        /* \"#utility.yul\":20141:20204   */\n      tag_616\n        /* \"#utility.yul\":20198:20202   */\n      0x20\n        /* \"#utility.yul\":20193:20196   */\n      dup7\n        /* \"#utility.yul\":20189:20203   */\n      add\n        /* \"#utility.yul\":20175:20187   */\n      dup3\n        /* \"#utility.yul\":20141:20204   */\n      tag_337\n      jump\t// in\n    tag_616:\n        /* \"#utility.yul\":20016:20214   */\n      pop\n        /* \"#utility.yul\":20284:20334   */\n      tag_617\n        /* \"#utility.yul\":20328:20332   */\n      0x40\n        /* \"#utility.yul\":20321:20326   */\n      dup5\n        /* \"#utility.yul\":20317:20333   */\n      add\n        /* \"#utility.yul\":20310:20315   */\n      dup5\n        /* \"#utility.yul\":20284:20334   */\n      tag_349\n      jump\t// in\n    tag_617:\n        /* \"#utility.yul\":20347:20410   */\n      tag_618\n        /* \"#utility.yul\":20404:20408   */\n      0x40\n        /* \"#utility.yul\":20399:20402   */\n      dup7\n        /* \"#utility.yul\":20395:20409   */\n      add\n        /* \"#utility.yul\":20381:20393   */\n      dup3\n        /* \"#utility.yul\":20347:20410   */\n      tag_337\n      jump\t// in\n    tag_618:\n        /* \"#utility.yul\":20224:20420   */\n      pop\n        /* \"#utility.yul\":20488:20538   */\n      tag_619\n        /* \"#utility.yul\":20532:20536   */\n      0x60\n        /* \"#utility.yul\":20525:20530   */\n      dup5\n        /* \"#utility.yul\":20521:20537   */\n      add\n        /* \"#utility.yul\":20514:20519   */\n      dup5\n        /* \"#utility.yul\":20488:20538   */\n      tag_348\n      jump\t// in\n    tag_619:\n        /* \"#utility.yul\":20551:20614   */\n      tag_620\n        /* \"#utility.yul\":20608:20612   */\n      0x60\n        /* \"#utility.yul\":20603:20606   */\n      dup7\n        /* \"#utility.yul\":20599:20613   */\n      add\n        /* \"#utility.yul\":20585:20597   */\n      dup3\n        /* \"#utility.yul\":20551:20614   */\n      tag_336\n      jump\t// in\n    tag_620:\n        /* \"#utility.yul\":20430:20624   */\n      pop\n        /* \"#utility.yul\":20703:20764   */\n      tag_621\n        /* \"#utility.yul\":20758:20762   */\n      0x80\n        /* \"#utility.yul\":20751:20756   */\n      dup5\n        /* \"#utility.yul\":20747:20763   */\n      add\n        /* \"#utility.yul\":20740:20745   */\n      dup5\n        /* \"#utility.yul\":20703:20764   */\n      tag_353\n      jump\t// in\n    tag_621:\n        /* \"#utility.yul\":20811:20814   */\n      dup6\n        /* \"#utility.yul\":20805:20809   */\n      dup4\n        /* \"#utility.yul\":20801:20815   */\n      sub\n        /* \"#utility.yul\":20794:20798   */\n      0x80\n        /* \"#utility.yul\":20789:20792   */\n      dup8\n        /* \"#utility.yul\":20785:20799   */\n      add\n        /* \"#utility.yul\":20778:20816   */\n      mstore\n        /* \"#utility.yul\":20837:20924   */\n      tag_622\n        /* \"#utility.yul\":20919:20923   */\n      dup4\n        /* \"#utility.yul\":20905:20917   */\n      dup3\n        /* \"#utility.yul\":20891:20903   */\n      dup5\n        /* \"#utility.yul\":20837:20924   */\n      tag_355\n      jump\t// in\n    tag_622:\n        /* \"#utility.yul\":20829:20924   */\n      swap3\n      pop\n        /* \"#utility.yul\":20634:20935   */\n      pop\n      pop\n        /* \"#utility.yul\":21002:21052   */\n      tag_623\n        /* \"#utility.yul\":21046:21050   */\n      0xa0\n        /* \"#utility.yul\":21039:21044   */\n      dup5\n        /* \"#utility.yul\":21035:21051   */\n      add\n        /* \"#utility.yul\":21028:21033   */\n      dup5\n        /* \"#utility.yul\":21002:21052   */\n      tag_348\n      jump\t// in\n    tag_623:\n        /* \"#utility.yul\":21065:21128   */\n      tag_624\n        /* \"#utility.yul\":21122:21126   */\n      0xa0\n        /* \"#utility.yul\":21117:21120   */\n      dup7\n        /* \"#utility.yul\":21113:21127   */\n      add\n        /* \"#utility.yul\":21099:21111   */\n      dup3\n        /* \"#utility.yul\":21065:21128   */\n      tag_336\n      jump\t// in\n    tag_624:\n        /* \"#utility.yul\":20945:21138   */\n      pop\n        /* \"#utility.yul\":21155:21159   */\n      dup1\n        /* \"#utility.yul\":21148:21159   */\n      swap2\n      pop\n        /* \"#utility.yul\":19768:21165   */\n      pop\n        /* \"#utility.yul\":19640:21165   */\n      swap3\n      swap2\n      pop\n      pop\n      jump\t// out\n        /* \"#utility.yul\":21171:21552   */\n    tag_98:\n        /* \"#utility.yul\":21318:21322   */\n      0x00\n        /* \"#utility.yul\":21356:21358   */\n      0x20\n        /* \"#utility.yul\":21345:21354   */\n      dup3\n        /* \"#utility.yul\":21341:21359   */\n      add\n        /* \"#utility.yul\":21333:21359   */\n      swap1\n      pop\n        /* \"#utility.yul\":21405:21414   */\n      dup2\n        /* \"#utility.yul\":21399:21403   */\n      dup2\n        /* \"#utility.yul\":21395:21415   */\n      sub\n        /* \"#utility.yul\":21391:21392   */\n      0x00\n        /* \"#utility.yul\":21380:21389   */\n      dup4\n        /* \"#utility.yul\":21376:21393   */\n      add\n        /* \"#utility.yul\":21369:21416   */\n      mstore\n        /* \"#utility.yul\":21433:21545   */\n      tag_626\n        /* \"#utility.yul\":21540:21544   */\n      dup2\n        /* \"#utility.yul\":21531:21537   */\n      dup5\n        /* \"#utility.yul\":21433:21545   */\n      tag_356\n      jump\t// in\n    tag_626:\n        /* \"#utility.yul\":21425:21545   */\n      swap1\n      pop\n        /* \"#utility.yul\":21171:21552   */\n      swap3\n      swap2\n      pop\n      pop\n      jump\t// out\n        /* \"#utility.yul\":21558:21738   */\n    tag_357:\n        /* \"#utility.yul\":21606:21683   */\n      0x4e487b7100000000000000000000000000000000000000000000000000000000\n        /* \"#utility.yul\":21603:21604   */\n      0x00\n        /* \"#utility.yul\":21596:21684   */\n      mstore\n        /* \"#utility.yul\":21703:21707   */\n      0x11\n        /* \"#utility.yul\":21700:21701   */\n      0x04\n        /* \"#utility.yul\":21693:21708   */\n      mstore\n        /* \"#utility.yul\":21727:21731   */\n      0x24\n        /* \"#utility.yul\":21724:21725   */\n      0x00\n        /* \"#utility.yul\":21717:21732   */\n      revert\n        /* \"#utility.yul\":21744:21938   */\n    tag_107:\n        /* \"#utility.yul\":21784:21788   */\n      0x00\n        /* \"#utility.yul\":21804:21824   */\n      tag_629\n        /* \"#utility.yul\":21822:21823   */\n      dup3\n        /* \"#utility.yul\":21804:21824   */\n      tag_305\n      jump\t// in\n    tag_629:\n        /* \"#utility.yul\":21799:21824   */\n      swap2\n      pop\n        /* \"#utility.yul\":21838:21858   */\n      tag_630\n        /* \"#utility.yul\":21856:21857   */\n      dup4\n        /* \"#utility.yul\":21838:21858   */\n      tag_305\n      jump\t// in\n    tag_630:\n        /* \"#utility.yul\":21833:21858   */\n      swap3\n      pop\n        /* \"#utility.yul\":21882:21883   */\n      dup3\n        /* \"#utility.yul\":21879:21880   */\n      dup3\n        /* \"#utility.yul\":21875:21884   */\n      sub\n        /* \"#utility.yul\":21867:21884   */\n      swap1\n      pop\n        /* \"#utility.yul\":21906:21907   */\n      dup2\n        /* \"#utility.yul\":21900:21904   */\n      dup2\n        /* \"#utility.yul\":21897:21908   */\n      gt\n        /* \"#utility.yul\":21894:21931   */\n      iszero\n      tag_631\n      jumpi\n        /* \"#utility.yul\":21911:21929   */\n      tag_632\n      tag_357\n      jump\t// in\n    tag_632:\n        /* \"#utility.yul\":21894:21931   */\n    tag_631:\n        /* \"#utility.yul\":21744:21938   */\n      swap3\n      swap2\n      pop\n      pop\n      jump\t// out\n        /* \"#utility.yul\":21944:22061   */\n    tag_358:\n        /* \"#utility.yul\":22053:22054   */\n      0x00\n        /* \"#utility.yul\":22050:22051   */\n      dup1\n        /* \"#utility.yul\":22043:22055   */\n      revert\n        /* \"#utility.yul\":22067:22184   */\n    tag_359:\n        /* \"#utility.yul\":22176:22177   */\n      0x00\n        /* \"#utility.yul\":22173:22174   */\n      dup1\n        /* \"#utility.yul\":22166:22178   */\n      revert\n        /* \"#utility.yul\":22190:22307   */\n    tag_360:\n        /* \"#utility.yul\":22299:22300   */\n      0x00\n        /* \"#utility.yul\":22296:22297   */\n      dup1\n        /* \"#utility.yul\":22289:22301   */\n      revert\n        /* \"#utility.yul\":22313:23037   */\n    tag_112:\n        /* \"#utility.yul\":22390:22394   */\n      0x00\n        /* \"#utility.yul\":22396:22402   */\n      dup1\n        /* \"#utility.yul\":22452:22463   */\n      dup4\n        /* \"#utility.yul\":22439:22464   */\n      calldataload\n        /* \"#utility.yul\":22552:22553   */\n      0x01\n        /* \"#utility.yul\":22546:22550   */\n      0x20\n        /* \"#utility.yul\":22542:22554   */\n      sub\n        /* \"#utility.yul\":22531:22539   */\n      dup5\n        /* \"#utility.yul\":22515:22529   */\n      calldatasize\n        /* \"#utility.yul\":22511:22540   */\n      sub\n        /* \"#utility.yul\":22507:22555   */\n      sub\n        /* \"#utility.yul\":22487:22505   */\n      dup2\n        /* \"#utility.yul\":22483:22556   */\n      slt\n        /* \"#utility.yul\":22473:22641   */\n      tag_637\n      jumpi\n        /* \"#utility.yul\":22560:22639   */\n      tag_638\n      tag_358\n      jump\t// in\n    tag_638:\n        /* \"#utility.yul\":22473:22641   */\n    tag_637:\n        /* \"#utility.yul\":22672:22690   */\n      dup1\n        /* \"#utility.yul\":22662:22670   */\n      dup5\n        /* \"#utility.yul\":22658:22691   */\n      add\n        /* \"#utility.yul\":22650:22691   */\n      swap3\n      pop\n        /* \"#utility.yul\":22724:22728   */\n      dup3\n        /* \"#utility.yul\":22711:22729   */\n      calldataload\n        /* \"#utility.yul\":22701:22729   */\n      swap2\n      pop\n        /* \"#utility.yul\":22752:22770   */\n      0xffffffffffffffff\n        /* \"#utility.yul\":22744:22750   */\n      dup3\n        /* \"#utility.yul\":22741:22771   */\n      gt\n        /* \"#utility.yul\":22738:22855   */\n      iszero\n      tag_639\n      jumpi\n        /* \"#utility.yul\":22774:22853   */\n      tag_640\n      tag_359\n      jump\t// in\n    tag_640:\n        /* \"#utility.yul\":22738:22855   */\n    tag_639:\n        /* \"#utility.yul\":22882:22884   */\n      0x20\n        /* \"#utility.yul\":22876:22880   */\n      dup4\n        /* \"#utility.yul\":22872:22885   */\n      add\n        /* \"#utility.yul\":22864:22885   */\n      swap3\n      pop\n        /* \"#utility.yul\":22939:22943   */\n      0x01\n        /* \"#utility.yul\":22931:22937   */\n      dup3\n        /* \"#utility.yul\":22927:22944   */\n      mul\n        /* \"#utility.yul\":22911:22925   */\n      calldatasize\n        /* \"#utility.yul\":22907:22945   */\n      sub\n        /* \"#utility.yul\":22901:22905   */\n      dup4\n        /* \"#utility.yul\":22897:22946   */\n      sgt\n        /* \"#utility.yul\":22894:23030   */\n      iszero\n      tag_641\n      jumpi\n        /* \"#utility.yul\":22949:23028   */\n      tag_642\n      tag_360\n      jump\t// in\n    tag_642:\n        /* \"#utility.yul\":22894:23030   */\n    tag_641:\n        /* \"#utility.yul\":22403:23037   */\n      pop\n        /* \"#utility.yul\":22313:23037   */\n      swap3\n      pop\n      swap3\n      swap1\n      pop\n      jump\t// out\n        /* \"#utility.yul\":23043:23218   */\n    tag_361:\n        /* \"#utility.yul\":23183:23210   */\n      0x696e73756666696369656e7420696e70757420616d6f756e7400000000000000\n        /* \"#utility.yul\":23179:23180   */\n      0x00\n        /* \"#utility.yul\":23171:23177   */\n      dup3\n        /* \"#utility.yul\":23167:23181   */\n      add\n        /* \"#utility.yul\":23160:23211   */\n      mstore\n        /* \"#utility.yul\":23043:23218   */\n      pop\n      jump\t// out\n        /* \"#utility.yul\":23224:23590   */\n    tag_362:\n        /* \"#utility.yul\":23366:23369   */\n      0x00\n        /* \"#utility.yul\":23387:23454   */\n      tag_645\n        /* \"#utility.yul\":23451:23453   */\n      0x19\n        /* \"#utility.yul\":23446:23449   */\n      dup4\n        /* \"#utility.yul\":23387:23454   */\n      tag_345\n      jump\t// in\n    tag_645:\n        /* \"#utility.yul\":23380:23454   */\n      swap2\n      pop\n        /* \"#utility.yul\":23463:23556   */\n      tag_646\n        /* \"#utility.yul\":23552:23555   */\n      dup3\n        /* \"#utility.yul\":23463:23556   */\n      tag_361\n      jump\t// in\n    tag_646:\n        /* \"#utility.yul\":23581:23583   */\n      0x20\n        /* \"#utility.yul\":23576:23579   */\n      dup3\n        /* \"#utility.yul\":23572:23584   */\n      add\n        /* \"#utility.yul\":23565:23584   */\n      swap1\n      pop\n        /* \"#utility.yul\":23224:23590   */\n      swap2\n      swap1\n      pop\n      jump\t// out\n        /* \"#utility.yul\":23596:24015   */\n    tag_127:\n        /* \"#utility.yul\":23762:23766   */\n      0x00\n        /* \"#utility.yul\":23800:23802   */\n      0x20\n        /* \"#utility.yul\":23789:23798   */\n      dup3\n        /* \"#utility.yul\":23785:23803   */\n      add\n        /* \"#utility.yul\":23777:23803   */\n      swap1\n      pop\n        /* \"#utility.yul\":23849:23858   */\n      dup2\n        /* \"#utility.yul\":23843:23847   */\n      dup2\n        /* \"#utility.yul\":23839:23859   */\n      sub\n        /* \"#utility.yul\":23835:23836   */\n      0x00\n        /* \"#utility.yul\":23824:23833   */\n      dup4\n        /* \"#utility.yul\":23820:23837   */\n      add\n        /* \"#utility.yul\":23813:23860   */\n      mstore\n        /* \"#utility.yul\":23877:24008   */\n      tag_648\n        /* \"#utility.yul\":24003:24007   */\n      dup2\n        /* \"#utility.yul\":23877:24008   */\n      tag_362\n      jump\t// in\n    tag_648:\n        /* \"#utility.yul\":23869:24008   */\n      swap1\n      pop\n        /* \"#utility.yul\":23596:24015   */\n      swap2\n      swap1\n      pop\n      jump\t// out\n        /* \"#utility.yul\":24021:24246   */\n    tag_363:\n        /* \"#utility.yul\":24161:24195   */\n      0x4f776e61626c653a206e6577206f776e657220697320746865207a65726f2061\n        /* \"#utility.yul\":24157:24158   */\n      0x00\n        /* \"#utility.yul\":24149:24155   */\n      dup3\n        /* \"#utility.yul\":24145:24159   */\n      add\n        /* \"#utility.yul\":24138:24196   */\n      mstore\n        /* \"#utility.yul\":24230:24238   */\n      0x6464726573730000000000000000000000000000000000000000000000000000\n        /* \"#utility.yul\":24225:24227   */\n      0x20\n        /* \"#utility.yul\":24217:24223   */\n      dup3\n        /* \"#utility.yul\":24213:24228   */\n      add\n        /* \"#utility.yul\":24206:24239   */\n      mstore\n        /* \"#utility.yul\":24021:24246   */\n      pop\n      jump\t// out\n        /* \"#utility.yul\":24252:24618   */\n    tag_364:\n        /* \"#utility.yul\":24394:24397   */\n      0x00\n        /* \"#utility.yul\":24415:24482   */\n      tag_651\n        /* \"#utility.yul\":24479:24481   */\n      0x26\n        /* \"#utility.yul\":24474:24477   */\n      dup4\n        /* \"#utility.yul\":24415:24482   */\n      tag_345\n      jump\t// in\n    tag_651:\n        /* \"#utility.yul\":24408:24482   */\n      swap2\n      pop\n        /* \"#utility.yul\":24491:24584   */\n      tag_652\n        /* \"#utility.yul\":24580:24583   */\n      dup3\n        /* \"#utility.yul\":24491:24584   */\n      tag_363\n      jump\t// in\n    tag_652:\n        /* \"#utility.yul\":24609:24611   */\n      0x40\n        /* \"#utility.yul\":24604:24607   */\n      dup3\n        /* \"#utility.yul\":24600:24612   */\n      add\n        /* \"#utility.yul\":24593:24612   */\n      swap1\n      pop\n        /* \"#utility.yul\":24252:24618   */\n      swap2\n      swap1\n      pop\n      jump\t// out\n        /* \"#utility.yul\":24624:25043   */\n    tag_150:\n        /* \"#utility.yul\":24790:24794   */\n      0x00\n        /* \"#utility.yul\":24828:24830   */\n      0x20\n        /* \"#utility.yul\":24817:24826   */\n      dup3\n        /* \"#utility.yul\":24813:24831   */\n      add\n        /* \"#utility.yul\":24805:24831   */\n      swap1\n      pop\n        /* \"#utility.yul\":24877:24886   */\n      dup2\n        /* \"#utility.yul\":24871:24875   */\n      dup2\n        /* \"#utility.yul\":24867:24887   */\n      sub\n        /* \"#utility.yul\":24863:24864   */\n      0x00\n        /* \"#utility.yul\":24852:24861   */\n      dup4\n        /* \"#utility.yul\":24848:24865   */\n      add\n        /* \"#utility.yul\":24841:24888   */\n      mstore\n        /* \"#utility.yul\":24905:25036   */\n      tag_654\n        /* \"#utility.yul\":25031:25035   */\n      dup2\n        /* \"#utility.yul\":24905:25036   */\n      tag_364\n      jump\t// in\n    tag_654:\n        /* \"#utility.yul\":24897:25036   */\n      swap1\n      pop\n        /* \"#utility.yul\":24624:25043   */\n      swap2\n      swap1\n      pop\n      jump\t// out\n        /* \"#utility.yul\":25049:25186   */\n    tag_365:\n        /* \"#utility.yul\":25139:25145   */\n      0x00\n        /* \"#utility.yul\":25173:25178   */\n      dup2\n        /* \"#utility.yul\":25167:25179   */\n      mload\n        /* \"#utility.yul\":25157:25179   */\n      swap1\n      pop\n        /* \"#utility.yul\":25049:25186   */\n      swap2\n      swap1\n      pop\n      jump\t// out\n        /* \"#utility.yul\":25192:25399   */\n    tag_366:\n        /* \"#utility.yul\":25314:25325   */\n      0x00\n        /* \"#utility.yul\":25348:25354   */\n      dup3\n        /* \"#utility.yul\":25343:25346   */\n      dup3\n        /* \"#utility.yul\":25336:25355   */\n      mstore\n        /* \"#utility.yul\":25388:25392   */\n      0x20\n        /* \"#utility.yul\":25383:25386   */\n      dup3\n        /* \"#utility.yul\":25379:25393   */\n      add\n        /* \"#utility.yul\":25364:25393   */\n      swap1\n      pop\n        /* \"#utility.yul\":25192:25399   */\n      swap3\n      swap2\n      pop\n      pop\n      jump\t// out\n        /* \"#utility.yul\":25405:25560   */\n    tag_367:\n        /* \"#utility.yul\":25495:25499   */\n      0x00\n        /* \"#utility.yul\":25518:25521   */\n      dup2\n        /* \"#utility.yul\":25510:25521   */\n      swap1\n      pop\n        /* \"#utility.yul\":25548:25552   */\n      0x20\n        /* \"#utility.yul\":25543:25546   */\n      dup3\n        /* \"#utility.yul\":25539:25553   */\n      add\n        /* \"#utility.yul\":25531:25553   */\n      swap1\n      pop\n        /* \"#utility.yul\":25405:25560   */\n      swap2\n      swap1\n      pop\n      jump\t// out\n        /* \"#utility.yul\":25566:25668   */\n    tag_368:\n        /* \"#utility.yul\":25639:25661   */\n      tag_659\n        /* \"#utility.yul\":25655:25660   */\n      dup2\n        /* \"#utility.yul\":25639:25661   */\n      tag_327\n      jump\t// in\n    tag_659:\n        /* \"#utility.yul\":25634:25637   */\n      dup3\n        /* \"#utility.yul\":25627:25662   */\n      mstore\n        /* \"#utility.yul\":25566:25668   */\n      pop\n      pop\n      jump\t// out\n        /* \"#utility.yul\":25744:26592   */\n    tag_369:\n        /* \"#utility.yul\":25877:25881   */\n      0x80\n        /* \"#utility.yul\":25872:25875   */\n      dup3\n        /* \"#utility.yul\":25868:25882   */\n      add\n        /* \"#utility.yul\":25962:25966   */\n      0x00\n        /* \"#utility.yul\":25955:25960   */\n      dup3\n        /* \"#utility.yul\":25951:25967   */\n      add\n        /* \"#utility.yul\":25945:25968   */\n      mload\n        /* \"#utility.yul\":25981:26044   */\n      tag_661\n        /* \"#utility.yul\":26038:26042   */\n      0x00\n        /* \"#utility.yul\":26033:26036   */\n      dup6\n        /* \"#utility.yul\":26029:26043   */\n      add\n        /* \"#utility.yul\":26015:26027   */\n      dup3\n        /* \"#utility.yul\":25981:26044   */\n      tag_336\n      jump\t// in\n    tag_661:\n        /* \"#utility.yul\":25892:26054   */\n      pop\n        /* \"#utility.yul\":26134:26138   */\n      0x20\n        /* \"#utility.yul\":26127:26132   */\n      dup3\n        /* \"#utility.yul\":26123:26139   */\n      add\n        /* \"#utility.yul\":26117:26140   */\n      mload\n        /* \"#utility.yul\":26153:26216   */\n      tag_662\n        /* \"#utility.yul\":26210:26214   */\n      0x20\n        /* \"#utility.yul\":26205:26208   */\n      dup6\n        /* \"#utility.yul\":26201:26215   */\n      add\n        /* \"#utility.yul\":26187:26199   */\n      dup3\n        /* \"#utility.yul\":26153:26216   */\n      tag_336\n      jump\t// in\n    tag_662:\n        /* \"#utility.yul\":26064:26226   */\n      pop\n        /* \"#utility.yul\":26312:26316   */\n      0x40\n        /* \"#utility.yul\":26305:26310   */\n      dup3\n        /* \"#utility.yul\":26301:26317   */\n      add\n        /* \"#utility.yul\":26295:26318   */\n      mload\n        /* \"#utility.yul\":26331:26394   */\n      tag_663\n        /* \"#utility.yul\":26388:26392   */\n      0x40\n        /* \"#utility.yul\":26383:26386   */\n      dup6\n        /* \"#utility.yul\":26379:26393   */\n      add\n        /* \"#utility.yul\":26365:26377   */\n      dup3\n        /* \"#utility.yul\":26331:26394   */\n      tag_336\n      jump\t// in\n    tag_663:\n        /* \"#utility.yul\":26236:26404   */\n      pop\n        /* \"#utility.yul\":26497:26501   */\n      0x60\n        /* \"#utility.yul\":26490:26495   */\n      dup3\n        /* \"#utility.yul\":26486:26502   */\n      add\n        /* \"#utility.yul\":26480:26503   */\n      mload\n        /* \"#utility.yul\":26516:26575   */\n      tag_664\n        /* \"#utility.yul\":26569:26573   */\n      0x60\n        /* \"#utility.yul\":26564:26567   */\n      dup6\n        /* \"#utility.yul\":26560:26574   */\n      add\n        /* \"#utility.yul\":26546:26558   */\n      dup3\n        /* \"#utility.yul\":26516:26575   */\n      tag_368\n      jump\t// in\n    tag_664:\n        /* \"#utility.yul\":26414:26585   */\n      pop\n        /* \"#utility.yul\":25846:26592   */\n      pop\n        /* \"#utility.yul\":25744:26592   */\n      pop\n      pop\n      jump\t// out\n        /* \"#utility.yul\":26598:26869   */\n    tag_370:\n        /* \"#utility.yul\":26713:26723   */\n      0x00\n        /* \"#utility.yul\":26734:26826   */\n      tag_666\n        /* \"#utility.yul\":26822:26825   */\n      dup4\n        /* \"#utility.yul\":26814:26820   */\n      dup4\n        /* \"#utility.yul\":26734:26826   */\n      tag_369\n      jump\t// in\n    tag_666:\n        /* \"#utility.yul\":26858:26862   */\n      0x80\n        /* \"#utility.yul\":26853:26856   */\n      dup4\n        /* \"#utility.yul\":26849:26863   */\n      add\n        /* \"#utility.yul\":26835:26863   */\n      swap1\n      pop\n        /* \"#utility.yul\":26598:26869   */\n      swap3\n      swap2\n      pop\n      pop\n      jump\t// out\n        /* \"#utility.yul\":26875:27011   */\n    tag_371:\n        /* \"#utility.yul\":26968:26972   */\n      0x00\n        /* \"#utility.yul\":27000:27004   */\n      0x20\n        /* \"#utility.yul\":26995:26998   */\n      dup3\n        /* \"#utility.yul\":26991:27005   */\n      add\n        /* \"#utility.yul\":26983:27005   */\n      swap1\n      pop\n        /* \"#utility.yul\":26875:27011   */\n      swap2\n      swap1\n      pop\n      jump\t// out\n        /* \"#utility.yul\":27091:28007   */\n    tag_372:\n        /* \"#utility.yul\":27256:27259   */\n      0x00\n        /* \"#utility.yul\":27285:27362   */\n      tag_669\n        /* \"#utility.yul\":27356:27361   */\n      dup3\n        /* \"#utility.yul\":27285:27362   */\n      tag_365\n      jump\t// in\n    tag_669:\n        /* \"#utility.yul\":27378:27487   */\n      tag_670\n        /* \"#utility.yul\":27480:27486   */\n      dup2\n        /* \"#utility.yul\":27475:27478   */\n      dup6\n        /* \"#utility.yul\":27378:27487   */\n      tag_366\n      jump\t// in\n    tag_670:\n        /* \"#utility.yul\":27371:27487   */\n      swap4\n      pop\n        /* \"#utility.yul\":27511:27590   */\n      tag_671\n        /* \"#utility.yul\":27584:27589   */\n      dup4\n        /* \"#utility.yul\":27511:27590   */\n      tag_367\n      jump\t// in\n    tag_671:\n        /* \"#utility.yul\":27613:27620   */\n      dup1\n        /* \"#utility.yul\":27644:27645   */\n      0x00\n        /* \"#utility.yul\":27629:27982   */\n    tag_672:\n        /* \"#utility.yul\":27654:27660   */\n      dup4\n        /* \"#utility.yul\":27651:27652   */\n      dup2\n        /* \"#utility.yul\":27648:27661   */\n      lt\n        /* \"#utility.yul\":27629:27982   */\n      iszero\n      tag_674\n      jumpi\n        /* \"#utility.yul\":27730:27736   */\n      dup2\n        /* \"#utility.yul\":27724:27737   */\n      mload\n        /* \"#utility.yul\":27757:27866   */\n      tag_675\n        /* \"#utility.yul\":27862:27865   */\n      dup9\n        /* \"#utility.yul\":27847:27860   */\n      dup3\n        /* \"#utility.yul\":27757:27866   */\n      tag_370\n      jump\t// in\n    tag_675:\n        /* \"#utility.yul\":27750:27866   */\n      swap8\n      pop\n        /* \"#utility.yul\":27889:27972   */\n      tag_676\n        /* \"#utility.yul\":27965:27971   */\n      dup4\n        /* \"#utility.yul\":27889:27972   */\n      tag_371\n      jump\t// in\n    tag_676:\n        /* \"#utility.yul\":27879:27972   */\n      swap3\n      pop\n        /* \"#utility.yul\":27689:27982   */\n      pop\n        /* \"#utility.yul\":27676:27677   */\n      0x01\n        /* \"#utility.yul\":27673:27674   */\n      dup2\n        /* \"#utility.yul\":27669:27678   */\n      add\n        /* \"#utility.yul\":27664:27678   */\n      swap1\n      pop\n        /* \"#utility.yul\":27629:27982   */\n      jump(tag_672)\n    tag_674:\n        /* \"#utility.yul\":27633:27647   */\n      pop\n        /* \"#utility.yul\":27998:28001   */\n      dup6\n        /* \"#utility.yul\":27991:28001   */\n      swap4\n      pop\n        /* \"#utility.yul\":27261:28007   */\n      pop\n      pop\n      pop\n        /* \"#utility.yul\":27091:28007   */\n      swap3\n      swap2\n      pop\n      pop\n      jump\t// out\n        /* \"#utility.yul\":28013:28478   */\n    tag_154:\n        /* \"#utility.yul\":28202:28206   */\n      0x00\n        /* \"#utility.yul\":28240:28242   */\n      0x20\n        /* \"#utility.yul\":28229:28238   */\n      dup3\n        /* \"#utility.yul\":28225:28243   */\n      add\n        /* \"#utility.yul\":28217:28243   */\n      swap1\n      pop\n        /* \"#utility.yul\":28289:28298   */\n      dup2\n        /* \"#utility.yul\":28283:28287   */\n      dup2\n        /* \"#utility.yul\":28279:28299   */\n      sub\n        /* \"#utility.yul\":28275:28276   */\n      0x00\n        /* \"#utility.yul\":28264:28273   */\n      dup4\n        /* \"#utility.yul\":28260:28277   */\n      add\n        /* \"#utility.yul\":28253:28300   */\n      mstore\n        /* \"#utility.yul\":28317:28471   */\n      tag_678\n        /* \"#utility.yul\":28466:28470   */\n      dup2\n        /* \"#utility.yul\":28457:28463   */\n      dup5\n        /* \"#utility.yul\":28317:28471   */\n      tag_372\n      jump\t// in\n    tag_678:\n        /* \"#utility.yul\":28309:28471   */\n      swap1\n      pop\n        /* \"#utility.yul\":28013:28478   */\n      swap3\n      swap2\n      pop\n      pop\n      jump\t// out\n        /* \"#utility.yul\":28484:28819   */\n    tag_373:\n        /* \"#utility.yul\":28585:28589   */\n      0x00\n        /* \"#utility.yul\":28675:28693   */\n      0xffffffffffffffff\n        /* \"#utility.yul\":28667:28673   */\n      dup3\n        /* \"#utility.yul\":28664:28694   */\n      gt\n        /* \"#utility.yul\":28661:28717   */\n      iszero\n      tag_680\n      jumpi\n        /* \"#utility.yul\":28697:28715   */\n      tag_681\n      tag_238\n      jump\t// in\n    tag_681:\n        /* \"#utility.yul\":28661:28717   */\n    tag_680:\n        /* \"#utility.yul\":28747:28751   */\n      0x20\n        /* \"#utility.yul\":28739:28745   */\n      dup3\n        /* \"#utility.yul\":28735:28752   */\n      mul\n        /* \"#utility.yul\":28727:28752   */\n      swap1\n      pop\n        /* \"#utility.yul\":28807:28811   */\n      0x20\n        /* \"#utility.yul\":28801:28805   */\n      dup2\n        /* \"#utility.yul\":28797:28812   */\n      add\n        /* \"#utility.yul\":28789:28812   */\n      swap1\n      pop\n        /* \"#utility.yul\":28484:28819   */\n      swap2\n      swap1\n      pop\n      jump\t// out\n        /* \"#utility.yul\":28825:28968   */\n    tag_374:\n        /* \"#utility.yul\":28882:28887   */\n      0x00\n        /* \"#utility.yul\":28913:28919   */\n      dup2\n        /* \"#utility.yul\":28907:28920   */\n      mload\n        /* \"#utility.yul\":28898:28920   */\n      swap1\n      pop\n        /* \"#utility.yul\":28929:28962   */\n      tag_683\n        /* \"#utility.yul\":28956:28961   */\n      dup2\n        /* \"#utility.yul\":28929:28962   */\n      tag_303\n      jump\t// in\n    tag_683:\n        /* \"#utility.yul\":28825:28968   */\n      swap3\n      swap2\n      pop\n      pop\n      jump\t// out\n        /* \"#utility.yul\":28974:29094   */\n    tag_375:\n        /* \"#utility.yul\":29046:29069   */\n      tag_685\n        /* \"#utility.yul\":29063:29068   */\n      dup2\n        /* \"#utility.yul\":29046:29069   */\n      tag_338\n      jump\t// in\n    tag_685:\n        /* \"#utility.yul\":29039:29044   */\n      dup2\n        /* \"#utility.yul\":29036:29070   */\n      eq\n        /* \"#utility.yul\":29026:29088   */\n      tag_686\n      jumpi\n        /* \"#utility.yul\":29084:29085   */\n      0x00\n        /* \"#utility.yul\":29081:29082   */\n      dup1\n        /* \"#utility.yul\":29074:29086   */\n      revert\n        /* \"#utility.yul\":29026:29088   */\n    tag_686:\n        /* \"#utility.yul\":28974:29094   */\n      pop\n      jump\t// out\n        /* \"#utility.yul\":29100:29241   */\n    tag_376:\n        /* \"#utility.yul\":29156:29161   */\n      0x00\n        /* \"#utility.yul\":29187:29193   */\n      dup2\n        /* \"#utility.yul\":29181:29194   */\n      mload\n        /* \"#utility.yul\":29172:29194   */\n      swap1\n      pop\n        /* \"#utility.yul\":29203:29235   */\n      tag_688\n        /* \"#utility.yul\":29229:29234   */\n      dup2\n        /* \"#utility.yul\":29203:29235   */\n      tag_375\n      jump\t// in\n    tag_688:\n        /* \"#utility.yul\":29100:29241   */\n      swap3\n      swap2\n      pop\n      pop\n      jump\t// out\n        /* \"#utility.yul\":29285:30230   */\n    tag_377:\n        /* \"#utility.yul\":29369:29374   */\n      0x00\n        /* \"#utility.yul\":29413:29417   */\n      0x80\n        /* \"#utility.yul\":29401:29410   */\n      dup3\n        /* \"#utility.yul\":29396:29399   */\n      dup5\n        /* \"#utility.yul\":29392:29411   */\n      sub\n        /* \"#utility.yul\":29388:29418   */\n      slt\n        /* \"#utility.yul\":29385:29502   */\n      iszero\n      tag_690\n      jumpi\n        /* \"#utility.yul\":29421:29500   */\n      tag_691\n      tag_325\n      jump\t// in\n    tag_691:\n        /* \"#utility.yul\":29385:29502   */\n    tag_690:\n        /* \"#utility.yul\":29520:29541   */\n      tag_692\n        /* \"#utility.yul\":29536:29540   */\n      0x80\n        /* \"#utility.yul\":29520:29541   */\n      tag_319\n      jump\t// in\n    tag_692:\n        /* \"#utility.yul\":29511:29541   */\n      swap1\n      pop\n        /* \"#utility.yul\":29598:29599   */\n      0x00\n        /* \"#utility.yul\":29638:29698   */\n      tag_693\n        /* \"#utility.yul\":29694:29697   */\n      dup5\n        /* \"#utility.yul\":29685:29691   */\n      dup3\n        /* \"#utility.yul\":29674:29683   */\n      dup6\n        /* \"#utility.yul\":29670:29692   */\n      add\n        /* \"#utility.yul\":29638:29698   */\n      tag_374\n      jump\t// in\n    tag_693:\n        /* \"#utility.yul\":29631:29635   */\n      0x00\n        /* \"#utility.yul\":29624:29629   */\n      dup4\n        /* \"#utility.yul\":29620:29636   */\n      add\n        /* \"#utility.yul\":29613:29699   */\n      mstore\n        /* \"#utility.yul\":29551:29710   */\n      pop\n        /* \"#utility.yul\":29767:29769   */\n      0x20\n        /* \"#utility.yul\":29808:29868   */\n      tag_694\n        /* \"#utility.yul\":29864:29867   */\n      dup5\n        /* \"#utility.yul\":29855:29861   */\n      dup3\n        /* \"#utility.yul\":29844:29853   */\n      dup6\n        /* \"#utility.yul\":29840:29862   */\n      add\n        /* \"#utility.yul\":29808:29868   */\n      tag_374\n      jump\t// in\n    tag_694:\n        /* \"#utility.yul\":29801:29805   */\n      0x20\n        /* \"#utility.yul\":29794:29799   */\n      dup4\n        /* \"#utility.yul\":29790:29806   */\n      add\n        /* \"#utility.yul\":29783:29869   */\n      mstore\n        /* \"#utility.yul\":29720:29880   */\n      pop\n        /* \"#utility.yul\":29940:29942   */\n      0x40\n        /* \"#utility.yul\":29981:30041   */\n      tag_695\n        /* \"#utility.yul\":30037:30040   */\n      dup5\n        /* \"#utility.yul\":30028:30034   */\n      dup3\n        /* \"#utility.yul\":30017:30026   */\n      dup6\n        /* \"#utility.yul\":30013:30035   */\n      add\n        /* \"#utility.yul\":29981:30041   */\n      tag_344\n      jump\t// in\n    tag_695:\n        /* \"#utility.yul\":29974:29978   */\n      0x40\n        /* \"#utility.yul\":29967:29972   */\n      dup4\n        /* \"#utility.yul\":29963:29979   */\n      add\n        /* \"#utility.yul\":29956:30042   */\n      mstore\n        /* \"#utility.yul\":29890:30053   */\n      pop\n        /* \"#utility.yul\":30111:30113   */\n      0x60\n        /* \"#utility.yul\":30152:30211   */\n      tag_696\n        /* \"#utility.yul\":30207:30210   */\n      dup5\n        /* \"#utility.yul\":30198:30204   */\n      dup3\n        /* \"#utility.yul\":30187:30196   */\n      dup6\n        /* \"#utility.yul\":30183:30205   */\n      add\n        /* \"#utility.yul\":30152:30211   */\n      tag_376\n      jump\t// in\n    tag_696:\n        /* \"#utility.yul\":30145:30149   */\n      0x60\n        /* \"#utility.yul\":30138:30143   */\n      dup4\n        /* \"#utility.yul\":30134:30150   */\n      add\n        /* \"#utility.yul\":30127:30212   */\n      mstore\n        /* \"#utility.yul\":30063:30223   */\n      pop\n        /* \"#utility.yul\":29285:30230   */\n      swap3\n      swap2\n      pop\n      pop\n      jump\t// out\n        /* \"#utility.yul\":30276:31080   */\n    tag_378:\n        /* \"#utility.yul\":30407:30412   */\n      0x00\n        /* \"#utility.yul\":30432:30537   */\n      tag_698\n        /* \"#utility.yul\":30448:30536   */\n      tag_699\n        /* \"#utility.yul\":30529:30535   */\n      dup5\n        /* \"#utility.yul\":30448:30536   */\n      tag_373\n      jump\t// in\n    tag_699:\n        /* \"#utility.yul\":30432:30537   */\n      tag_319\n      jump\t// in\n    tag_698:\n        /* \"#utility.yul\":30423:30537   */\n      swap1\n      pop\n        /* \"#utility.yul\":30557:30562   */\n      dup1\n        /* \"#utility.yul\":30586:30592   */\n      dup4\n        /* \"#utility.yul\":30579:30584   */\n      dup3\n        /* \"#utility.yul\":30572:30593   */\n      mstore\n        /* \"#utility.yul\":30620:30624   */\n      0x20\n        /* \"#utility.yul\":30613:30618   */\n      dup3\n        /* \"#utility.yul\":30609:30625   */\n      add\n        /* \"#utility.yul\":30602:30625   */\n      swap1\n      pop\n        /* \"#utility.yul\":30673:30677   */\n      0x80\n        /* \"#utility.yul\":30665:30671   */\n      dup5\n        /* \"#utility.yul\":30661:30678   */\n      mul\n        /* \"#utility.yul\":30653:30659   */\n      dup4\n        /* \"#utility.yul\":30649:30679   */\n      add\n        /* \"#utility.yul\":30702:30705   */\n      dup6\n        /* \"#utility.yul\":30694:30700   */\n      dup2\n        /* \"#utility.yul\":30691:30706   */\n      gt\n        /* \"#utility.yul\":30688:30810   */\n      iszero\n      tag_700\n      jumpi\n        /* \"#utility.yul\":30721:30800   */\n      tag_701\n      tag_313\n      jump\t// in\n    tag_701:\n        /* \"#utility.yul\":30688:30810   */\n    tag_700:\n        /* \"#utility.yul\":30836:30842   */\n      dup4\n        /* \"#utility.yul\":30819:31074   */\n    tag_702:\n        /* \"#utility.yul\":30853:30859   */\n      dup2\n        /* \"#utility.yul\":30848:30851   */\n      dup2\n        /* \"#utility.yul\":30845:30860   */\n      lt\n        /* \"#utility.yul\":30819:31074   */\n      iszero\n      tag_704\n      jumpi\n        /* \"#utility.yul\":30928:30931   */\n      dup1\n        /* \"#utility.yul\":30957:31029   */\n      tag_705\n        /* \"#utility.yul\":31025:31028   */\n      dup9\n        /* \"#utility.yul\":31013:31023   */\n      dup3\n        /* \"#utility.yul\":30957:31029   */\n      tag_377\n      jump\t// in\n    tag_705:\n        /* \"#utility.yul\":30952:30955   */\n      dup5\n        /* \"#utility.yul\":30945:31030   */\n      mstore\n        /* \"#utility.yul\":31059:31063   */\n      0x20\n        /* \"#utility.yul\":31054:31057   */\n      dup5\n        /* \"#utility.yul\":31050:31064   */\n      add\n        /* \"#utility.yul\":31043:31064   */\n      swap4\n      pop\n        /* \"#utility.yul\":30895:31074   */\n      pop\n        /* \"#utility.yul\":30879:30883   */\n      0x80\n        /* \"#utility.yul\":30874:30877   */\n      dup2\n        /* \"#utility.yul\":30870:30884   */\n      add\n        /* \"#utility.yul\":30863:30884   */\n      swap1\n      pop\n        /* \"#utility.yul\":30819:31074   */\n      jump(tag_702)\n    tag_704:\n        /* \"#utility.yul\":30823:30844   */\n      pop\n        /* \"#utility.yul\":30413:31080   */\n      pop\n      pop\n        /* \"#utility.yul\":30276:31080   */\n      swap4\n      swap3\n      pop\n      pop\n      pop\n      jump\t// out\n        /* \"#utility.yul\":31126:31559   */\n    tag_379:\n        /* \"#utility.yul\":31232:31237   */\n      0x00\n        /* \"#utility.yul\":31281:31284   */\n      dup3\n        /* \"#utility.yul\":31274:31278   */\n      0x1f\n        /* \"#utility.yul\":31266:31272   */\n      dup4\n        /* \"#utility.yul\":31262:31279   */\n      add\n        /* \"#utility.yul\":31258:31285   */\n      slt\n        /* \"#utility.yul\":31248:31370   */\n      tag_707\n      jumpi\n        /* \"#utility.yul\":31289:31368   */\n      tag_708\n      tag_311\n      jump\t// in\n    tag_708:\n        /* \"#utility.yul\":31248:31370   */\n    tag_707:\n        /* \"#utility.yul\":31399:31405   */\n      dup2\n        /* \"#utility.yul\":31393:31406   */\n      mload\n        /* \"#utility.yul\":31424:31553   */\n      tag_709\n        /* \"#utility.yul\":31549:31552   */\n      dup5\n        /* \"#utility.yul\":31541:31547   */\n      dup3\n        /* \"#utility.yul\":31534:31538   */\n      0x20\n        /* \"#utility.yul\":31526:31532   */\n      dup7\n        /* \"#utility.yul\":31522:31539   */\n      add\n        /* \"#utility.yul\":31424:31553   */\n      tag_378\n      jump\t// in\n    tag_709:\n        /* \"#utility.yul\":31415:31553   */\n      swap2\n      pop\n        /* \"#utility.yul\":31238:31559   */\n      pop\n        /* \"#utility.yul\":31126:31559   */\n      swap3\n      swap2\n      pop\n      pop\n      jump\t// out\n        /* \"#utility.yul\":31565:32167   */\n    tag_158:\n        /* \"#utility.yul\":31684:31690   */\n      0x00\n        /* \"#utility.yul\":31733:31735   */\n      0x20\n        /* \"#utility.yul\":31721:31730   */\n      dup3\n        /* \"#utility.yul\":31712:31719   */\n      dup5\n        /* \"#utility.yul\":31708:31731   */\n      sub\n        /* \"#utility.yul\":31704:31736   */\n      slt\n        /* \"#utility.yul\":31701:31820   */\n      iszero\n      tag_711\n      jumpi\n        /* \"#utility.yul\":31739:31818   */\n      tag_712\n      tag_299\n      jump\t// in\n    tag_712:\n        /* \"#utility.yul\":31701:31820   */\n    tag_711:\n        /* \"#utility.yul\":31880:31881   */\n      0x00\n        /* \"#utility.yul\":31869:31878   */\n      dup3\n        /* \"#utility.yul\":31865:31882   */\n      add\n        /* \"#utility.yul\":31859:31883   */\n      mload\n        /* \"#utility.yul\":31910:31928   */\n      0xffffffffffffffff\n        /* \"#utility.yul\":31902:31908   */\n      dup2\n        /* \"#utility.yul\":31899:31929   */\n      gt\n        /* \"#utility.yul\":31896:32013   */\n      iszero\n      tag_713\n      jumpi\n        /* \"#utility.yul\":31932:32011   */\n      tag_714\n      tag_300\n      jump\t// in\n    tag_714:\n        /* \"#utility.yul\":31896:32013   */\n    tag_713:\n        /* \"#utility.yul\":32037:32150   */\n      tag_715\n        /* \"#utility.yul\":32142:32149   */\n      dup5\n        /* \"#utility.yul\":32133:32139   */\n      dup3\n        /* \"#utility.yul\":32122:32131   */\n      dup6\n        /* \"#utility.yul\":32118:32140   */\n      add\n        /* \"#utility.yul\":32037:32150   */\n      tag_379\n      jump\t// in\n    tag_715:\n        /* \"#utility.yul\":32027:32150   */\n      swap2\n      pop\n        /* \"#utility.yul\":31830:32160   */\n      pop\n        /* \"#utility.yul\":31565:32167   */\n      swap3\n      swap2\n      pop\n      pop\n      jump\t// out\n        /* \"#utility.yul\":32173:32355   */\n    tag_380:\n        /* \"#utility.yul\":32313:32347   */\n      0x4f776e61626c653a2063616c6c6572206973206e6f7420746865206f776e6572\n        /* \"#utility.yul\":32309:32310   */\n      0x00\n        /* \"#utility.yul\":32301:32307   */\n      dup3\n        /* \"#utility.yul\":32297:32311   */\n      add\n        /* \"#utility.yul\":32290:32348   */\n      mstore\n        /* \"#utility.yul\":32173:32355   */\n      pop\n      jump\t// out\n        /* \"#utility.yul\":32361:32727   */\n    tag_381:\n        /* \"#utility.yul\":32503:32506   */\n      0x00\n        /* \"#utility.yul\":32524:32591   */\n      tag_718\n        /* \"#utility.yul\":32588:32590   */\n      0x20\n        /* \"#utility.yul\":32583:32586   */\n      dup4\n        /* \"#utility.yul\":32524:32591   */\n      tag_345\n      jump\t// in\n    tag_718:\n        /* \"#utility.yul\":32517:32591   */\n      swap2\n      pop\n        /* \"#utility.yul\":32600:32693   */\n      tag_719\n        /* \"#utility.yul\":32689:32692   */\n      dup3\n        /* \"#utility.yul\":32600:32693   */\n      tag_380\n      jump\t// in\n    tag_719:\n        /* \"#utility.yul\":32718:32720   */\n      0x20\n        /* \"#utility.yul\":32713:32716   */\n      dup3\n        /* \"#utility.yul\":32709:32721   */\n      add\n        /* \"#utility.yul\":32702:32721   */\n      swap1\n      pop\n        /* \"#utility.yul\":32361:32727   */\n      swap2\n      swap1\n      pop\n      jump\t// out\n        /* \"#utility.yul\":32733:33152   */\n    tag_165:\n        /* \"#utility.yul\":32899:32903   */\n      0x00\n        /* \"#utility.yul\":32937:32939   */\n      0x20\n        /* \"#utility.yul\":32926:32935   */\n      dup3\n        /* \"#utility.yul\":32922:32940   */\n      add\n        /* \"#utility.yul\":32914:32940   */\n      swap1\n      pop\n        /* \"#utility.yul\":32986:32995   */\n      dup2\n        /* \"#utility.yul\":32980:32984   */\n      dup2\n        /* \"#utility.yul\":32976:32996   */\n      sub\n        /* \"#utility.yul\":32972:32973   */\n      0x00\n        /* \"#utility.yul\":32961:32970   */\n      dup4\n        /* \"#utility.yul\":32957:32974   */\n      add\n        /* \"#utility.yul\":32950:32997   */\n      mstore\n        /* \"#utility.yul\":33014:33145   */\n      tag_721\n        /* \"#utility.yul\":33140:33144   */\n      dup2\n        /* \"#utility.yul\":33014:33145   */\n      tag_381\n      jump\t// in\n    tag_721:\n        /* \"#utility.yul\":33006:33145   */\n      swap1\n      pop\n        /* \"#utility.yul\":32733:33152   */\n      swap2\n      swap1\n      pop\n      jump\t// out\n        /* \"#utility.yul\":33158:33490   */\n    tag_168:\n        /* \"#utility.yul\":33279:33283   */\n      0x00\n        /* \"#utility.yul\":33317:33319   */\n      0x40\n        /* \"#utility.yul\":33306:33315   */\n      dup3\n        /* \"#utility.yul\":33302:33320   */\n      add\n        /* \"#utility.yul\":33294:33320   */\n      swap1\n      pop\n        /* \"#utility.yul\":33330:33401   */\n      tag_723\n        /* \"#utility.yul\":33398:33399   */\n      0x00\n        /* \"#utility.yul\":33387:33396   */\n      dup4\n        /* \"#utility.yul\":33383:33400   */\n      add\n        /* \"#utility.yul\":33374:33380   */\n      dup6\n        /* \"#utility.yul\":33330:33401   */\n      tag_315\n      jump\t// in\n    tag_723:\n        /* \"#utility.yul\":33411:33483   */\n      tag_724\n        /* \"#utility.yul\":33479:33481   */\n      0x20\n        /* \"#utility.yul\":33468:33477   */\n      dup4\n        /* \"#utility.yul\":33464:33482   */\n      add\n        /* \"#utility.yul\":33455:33461   */\n      dup5\n        /* \"#utility.yul\":33411:33483   */\n      tag_308\n      jump\t// in\n    tag_724:\n        /* \"#utility.yul\":33158:33490   */\n      swap4\n      swap3\n      pop\n      pop\n      pop\n      jump\t// out\n        /* \"#utility.yul\":33496:33594   */\n    tag_382:\n        /* \"#utility.yul\":33547:33553   */\n      0x00\n        /* \"#utility.yul\":33581:33586   */\n      dup2\n        /* \"#utility.yul\":33575:33587   */\n      mload\n        /* \"#utility.yul\":33565:33587   */\n      swap1\n      pop\n        /* \"#utility.yul\":33496:33594   */\n      swap2\n      swap1\n      pop\n      jump\t// out\n        /* \"#utility.yul\":33600:33747   */\n    tag_383:\n        /* \"#utility.yul\":33701:33712   */\n      0x00\n        /* \"#utility.yul\":33738:33741   */\n      dup2\n        /* \"#utility.yul\":33723:33741   */\n      swap1\n      pop\n        /* \"#utility.yul\":33600:33747   */\n      swap3\n      swap2\n      pop\n      pop\n      jump\t// out\n        /* \"#utility.yul\":33753:33999   */\n    tag_384:\n        /* \"#utility.yul\":33834:33835   */\n      0x00\n        /* \"#utility.yul\":33844:33957   */\n    tag_728:\n        /* \"#utility.yul\":33858:33864   */\n      dup4\n        /* \"#utility.yul\":33855:33856   */\n      dup2\n        /* \"#utility.yul\":33852:33865   */\n      lt\n        /* \"#utility.yul\":33844:33957   */\n      iszero\n      tag_730\n      jumpi\n        /* \"#utility.yul\":33943:33944   */\n      dup1\n        /* \"#utility.yul\":33938:33941   */\n      dup3\n        /* \"#utility.yul\":33934:33945   */\n      add\n        /* \"#utility.yul\":33928:33946   */\n      mload\n        /* \"#utility.yul\":33924:33925   */\n      dup2\n        /* \"#utility.yul\":33919:33922   */\n      dup5\n        /* \"#utility.yul\":33915:33926   */\n      add\n        /* \"#utility.yul\":33908:33947   */\n      mstore\n        /* \"#utility.yul\":33880:33882   */\n      0x20\n        /* \"#utility.yul\":33877:33878   */\n      dup2\n        /* \"#utility.yul\":33873:33883   */\n      add\n        /* \"#utility.yul\":33868:33883   */\n      swap1\n      pop\n        /* \"#utility.yul\":33844:33957   */\n      jump(tag_728)\n    tag_730:\n        /* \"#utility.yul\":33991:33992   */\n      0x00\n        /* \"#utility.yul\":33982:33988   */\n      dup5\n        /* \"#utility.yul\":33977:33980   */\n      dup5\n        /* \"#utility.yul\":33973:33989   */\n      add\n        /* \"#utility.yul\":33966:33993   */\n      mstore\n        /* \"#utility.yul\":33815:33999   */\n      pop\n        /* \"#utility.yul\":33753:33999   */\n      pop\n      pop\n      pop\n      jump\t// out\n        /* \"#utility.yul\":34005:34391   */\n    tag_385:\n        /* \"#utility.yul\":34109:34112   */\n      0x00\n        /* \"#utility.yul\":34137:34175   */\n      tag_732\n        /* \"#utility.yul\":34169:34174   */\n      dup3\n        /* \"#utility.yul\":34137:34175   */\n      tag_382\n      jump\t// in\n    tag_732:\n        /* \"#utility.yul\":34191:34279   */\n      tag_733\n        /* \"#utility.yul\":34272:34278   */\n      dup2\n        /* \"#utility.yul\":34267:34270   */\n      dup6\n        /* \"#utility.yul\":34191:34279   */\n      tag_383\n      jump\t// in\n    tag_733:\n        /* \"#utility.yul\":34184:34279   */\n      swap4\n      pop\n        /* \"#utility.yul\":34288:34353   */\n      tag_734\n        /* \"#utility.yul\":34346:34352   */\n      dup2\n        /* \"#utility.yul\":34341:34344   */\n      dup6\n        /* \"#utility.yul\":34334:34338   */\n      0x20\n        /* \"#utility.yul\":34327:34332   */\n      dup7\n        /* \"#utility.yul\":34323:34339   */\n      add\n        /* \"#utility.yul\":34288:34353   */\n      tag_384\n      jump\t// in\n    tag_734:\n        /* \"#utility.yul\":34378:34384   */\n      dup1\n        /* \"#utility.yul\":34373:34376   */\n      dup5\n        /* \"#utility.yul\":34369:34385   */\n      add\n        /* \"#utility.yul\":34362:34385   */\n      swap2\n      pop\n        /* \"#utility.yul\":34113:34391   */\n      pop\n        /* \"#utility.yul\":34005:34391   */\n      swap3\n      swap2\n      pop\n      pop\n      jump\t// out\n        /* \"#utility.yul\":34397:34668   */\n    tag_170:\n        /* \"#utility.yul\":34527:34530   */\n      0x00\n        /* \"#utility.yul\":34549:34642   */\n      tag_736\n        /* \"#utility.yul\":34638:34641   */\n      dup3\n        /* \"#utility.yul\":34629:34635   */\n      dup5\n        /* \"#utility.yul\":34549:34642   */\n      tag_385\n      jump\t// in\n    tag_736:\n        /* \"#utility.yul\":34542:34642   */\n      swap2\n      pop\n        /* \"#utility.yul\":34659:34662   */\n      dup2\n        /* \"#utility.yul\":34652:34662   */\n      swap1\n      pop\n        /* \"#utility.yul\":34397:34668   */\n      swap3\n      swap2\n      pop\n      pop\n      jump\t// out\n        /* \"#utility.yul\":34674:34764   */\n    tag_386:\n        /* \"#utility.yul\":34708:34715   */\n      0x00\n        /* \"#utility.yul\":34751:34756   */\n      dup2\n        /* \"#utility.yul\":34744:34757   */\n      iszero\n        /* \"#utility.yul\":34737:34758   */\n      iszero\n        /* \"#utility.yul\":34726:34758   */\n      swap1\n      pop\n        /* \"#utility.yul\":34674:34764   */\n      swap2\n      swap1\n      pop\n      jump\t// out\n        /* \"#utility.yul\":34770:34886   */\n    tag_387:\n        /* \"#utility.yul\":34840:34861   */\n      tag_739\n        /* \"#utility.yul\":34855:34860   */\n      dup2\n        /* \"#utility.yul\":34840:34861   */\n      tag_386\n      jump\t// in\n    tag_739:\n        /* \"#utility.yul\":34833:34838   */\n      dup2\n        /* \"#utility.yul\":34830:34862   */\n      eq\n        /* \"#utility.yul\":34820:34880   */\n      tag_740\n      jumpi\n        /* \"#utility.yul\":34876:34877   */\n      0x00\n        /* \"#utility.yul\":34873:34874   */\n      dup1\n        /* \"#utility.yul\":34866:34878   */\n      revert\n        /* \"#utility.yul\":34820:34880   */\n    tag_740:\n        /* \"#utility.yul\":34770:34886   */\n      pop\n      jump\t// out\n        /* \"#utility.yul\":34892:35029   */\n    tag_388:\n        /* \"#utility.yul\":34946:34951   */\n      0x00\n        /* \"#utility.yul\":34977:34983   */\n      dup2\n        /* \"#utility.yul\":34971:34984   */\n      mload\n        /* \"#utility.yul\":34962:34984   */\n      swap1\n      pop\n        /* \"#utility.yul\":34993:35023   */\n      tag_742\n        /* \"#utility.yul\":35017:35022   */\n      dup2\n        /* \"#utility.yul\":34993:35023   */\n      tag_387\n      jump\t// in\n    tag_742:\n        /* \"#utility.yul\":34892:35029   */\n      swap3\n      swap2\n      pop\n      pop\n      jump\t// out\n        /* \"#utility.yul\":35035:35380   */\n    tag_177:\n        /* \"#utility.yul\":35102:35108   */\n      0x00\n        /* \"#utility.yul\":35151:35153   */\n      0x20\n        /* \"#utility.yul\":35139:35148   */\n      dup3\n        /* \"#utility.yul\":35130:35137   */\n      dup5\n        /* \"#utility.yul\":35126:35149   */\n      sub\n        /* \"#utility.yul\":35122:35154   */\n      slt\n        /* \"#utility.yul\":35119:35238   */\n      iszero\n      tag_744\n      jumpi\n        /* \"#utility.yul\":35157:35236   */\n      tag_745\n      tag_299\n      jump\t// in\n    tag_745:\n        /* \"#utility.yul\":35119:35238   */\n    tag_744:\n        /* \"#utility.yul\":35277:35278   */\n      0x00\n        /* \"#utility.yul\":35302:35363   */\n      tag_746\n        /* \"#utility.yul\":35355:35362   */\n      dup5\n        /* \"#utility.yul\":35346:35352   */\n      dup3\n        /* \"#utility.yul\":35335:35344   */\n      dup6\n        /* \"#utility.yul\":35331:35353   */\n      add\n        /* \"#utility.yul\":35302:35363   */\n      tag_388\n      jump\t// in\n    tag_746:\n        /* \"#utility.yul\":35292:35363   */\n      swap2\n      pop\n        /* \"#utility.yul\":35248:35373   */\n      pop\n        /* \"#utility.yul\":35035:35380   */\n      swap3\n      swap2\n      pop\n      pop\n      jump\t// out\n        /* \"#utility.yul\":35386:35620   */\n    tag_389:\n        /* \"#utility.yul\":35526:35560   */\n      0x45786368616e676541676772656761746f723a3a5472616e7366657248656c70\n        /* \"#utility.yul\":35522:35523   */\n      0x00\n        /* \"#utility.yul\":35514:35520   */\n      dup3\n        /* \"#utility.yul\":35510:35524   */\n      add\n        /* \"#utility.yul\":35503:35561   */\n      mstore\n        /* \"#utility.yul\":35595:35612   */\n      0x65723a736166655472616e736665720000000000000000000000000000000000\n        /* \"#utility.yul\":35590:35592   */\n      0x20\n        /* \"#utility.yul\":35582:35588   */\n      dup3\n        /* \"#utility.yul\":35578:35593   */\n      add\n        /* \"#utility.yul\":35571:35613   */\n      mstore\n        /* \"#utility.yul\":35386:35620   */\n      pop\n      jump\t// out\n        /* \"#utility.yul\":35626:35992   */\n    tag_390:\n        /* \"#utility.yul\":35768:35771   */\n      0x00\n        /* \"#utility.yul\":35789:35856   */\n      tag_749\n        /* \"#utility.yul\":35853:35855   */\n      0x2f\n        /* \"#utility.yul\":35848:35851   */\n      dup4\n        /* \"#utility.yul\":35789:35856   */\n      tag_345\n      jump\t// in\n    tag_749:\n        /* \"#utility.yul\":35782:35856   */\n      swap2\n      pop\n        /* \"#utility.yul\":35865:35958   */\n      tag_750\n        /* \"#utility.yul\":35954:35957   */\n      dup3\n        /* \"#utility.yul\":35865:35958   */\n      tag_389\n      jump\t// in\n    tag_750:\n        /* \"#utility.yul\":35983:35985   */\n      0x40\n        /* \"#utility.yul\":35978:35981   */\n      dup3\n        /* \"#utility.yul\":35974:35986   */\n      add\n        /* \"#utility.yul\":35967:35986   */\n      swap1\n      pop\n        /* \"#utility.yul\":35626:35992   */\n      swap2\n      swap1\n      pop\n      jump\t// out\n        /* \"#utility.yul\":35998:36417   */\n    tag_180:\n        /* \"#utility.yul\":36164:36168   */\n      0x00\n        /* \"#utility.yul\":36202:36204   */\n      0x20\n        /* \"#utility.yul\":36191:36200   */\n      dup3\n        /* \"#utility.yul\":36187:36205   */\n      add\n        /* \"#utility.yul\":36179:36205   */\n      swap1\n      pop\n        /* \"#utility.yul\":36251:36260   */\n      dup2\n        /* \"#utility.yul\":36245:36249   */\n      dup2\n        /* \"#utility.yul\":36241:36261   */\n      sub\n        /* \"#utility.yul\":36237:36238   */\n      0x00\n        /* \"#utility.yul\":36226:36235   */\n      dup4\n        /* \"#utility.yul\":36222:36239   */\n      add\n        /* \"#utility.yul\":36215:36262   */\n      mstore\n        /* \"#utility.yul\":36279:36410   */\n      tag_752\n        /* \"#utility.yul\":36405:36409   */\n      dup2\n        /* \"#utility.yul\":36279:36410   */\n      tag_390\n      jump\t// in\n    tag_752:\n        /* \"#utility.yul\":36271:36410   */\n      swap1\n      pop\n        /* \"#utility.yul\":35998:36417   */\n      swap2\n      swap1\n      pop\n      jump\t// out\n        /* \"#utility.yul\":36423:36603   */\n    tag_184:\n        /* \"#utility.yul\":36471:36548   */\n      0x4e487b7100000000000000000000000000000000000000000000000000000000\n        /* \"#utility.yul\":36468:36469   */\n      0x00\n        /* \"#utility.yul\":36461:36549   */\n      mstore\n        /* \"#utility.yul\":36568:36572   */\n      0x32\n        /* \"#utility.yul\":36565:36566   */\n      0x04\n        /* \"#utility.yul\":36558:36573   */\n      mstore\n        /* \"#utility.yul\":36592:36596   */\n      0x24\n        /* \"#utility.yul\":36589:36590   */\n      0x00\n        /* \"#utility.yul\":36582:36597   */\n      revert\n        /* \"#utility.yul\":36609:36772   */\n    tag_391:\n        /* \"#utility.yul\":36749:36764   */\n      0x646174612074616d706572656400000000000000000000000000000000000000\n        /* \"#utility.yul\":36745:36746   */\n      0x00\n        /* \"#utility.yul\":36737:36743   */\n      dup3\n        /* \"#utility.yul\":36733:36747   */\n      add\n        /* \"#utility.yul\":36726:36765   */\n      mstore\n        /* \"#utility.yul\":36609:36772   */\n      pop\n      jump\t// out\n        /* \"#utility.yul\":36778:37144   */\n    tag_392:\n        /* \"#utility.yul\":36920:36923   */\n      0x00\n        /* \"#utility.yul\":36941:37008   */\n      tag_756\n        /* \"#utility.yul\":37005:37007   */\n      0x0d\n        /* \"#utility.yul\":37000:37003   */\n      dup4\n        /* \"#utility.yul\":36941:37008   */\n      tag_345\n      jump\t// in\n    tag_756:\n        /* \"#utility.yul\":36934:37008   */\n      swap2\n      pop\n        /* \"#utility.yul\":37017:37110   */\n      tag_757\n        /* \"#utility.yul\":37106:37109   */\n      dup3\n        /* \"#utility.yul\":37017:37110   */\n      tag_391\n      jump\t// in\n    tag_757:\n        /* \"#utility.yul\":37135:37137   */\n      0x20\n        /* \"#utility.yul\":37130:37133   */\n      dup3\n        /* \"#utility.yul\":37126:37138   */\n      add\n        /* \"#utility.yul\":37119:37138   */\n      swap1\n      pop\n        /* \"#utility.yul\":36778:37144   */\n      swap2\n      swap1\n      pop\n      jump\t// out\n        /* \"#utility.yul\":37150:37569   */\n    tag_196:\n        /* \"#utility.yul\":37316:37320   */\n      0x00\n        /* \"#utility.yul\":37354:37356   */\n      0x20\n        /* \"#utility.yul\":37343:37352   */\n      dup3\n        /* \"#utility.yul\":37339:37357   */\n      add\n        /* \"#utility.yul\":37331:37357   */\n      swap1\n      pop\n        /* \"#utility.yul\":37403:37412   */\n      dup2\n        /* \"#utility.yul\":37397:37401   */\n      dup2\n        /* \"#utility.yul\":37393:37413   */\n      sub\n        /* \"#utility.yul\":37389:37390   */\n      0x00\n        /* \"#utility.yul\":37378:37387   */\n      dup4\n        /* \"#utility.yul\":37374:37391   */\n      add\n        /* \"#utility.yul\":37367:37414   */\n      mstore\n        /* \"#utility.yul\":37431:37562   */\n      tag_759\n        /* \"#utility.yul\":37557:37561   */\n      dup2\n        /* \"#utility.yul\":37431:37562   */\n      tag_392\n      jump\t// in\n    tag_759:\n        /* \"#utility.yul\":37423:37562   */\n      swap1\n      pop\n        /* \"#utility.yul\":37150:37569   */\n      swap2\n      swap1\n      pop\n      jump\t// out\n        /* \"#utility.yul\":37575:38017   */\n    tag_199:\n        /* \"#utility.yul\":37724:37728   */\n      0x00\n        /* \"#utility.yul\":37762:37764   */\n      0x60\n        /* \"#utility.yul\":37751:37760   */\n      dup3\n        /* \"#utility.yul\":37747:37765   */\n      add\n        /* \"#utility.yul\":37739:37765   */\n      swap1\n      pop\n        /* \"#utility.yul\":37775:37846   */\n      tag_761\n        /* \"#utility.yul\":37843:37844   */\n      0x00\n        /* \"#utility.yul\":37832:37841   */\n      dup4\n        /* \"#utility.yul\":37828:37845   */\n      add\n        /* \"#utility.yul\":37819:37825   */\n      dup7\n        /* \"#utility.yul\":37775:37846   */\n      tag_315\n      jump\t// in\n    tag_761:\n        /* \"#utility.yul\":37856:37928   */\n      tag_762\n        /* \"#utility.yul\":37924:37926   */\n      0x20\n        /* \"#utility.yul\":37913:37922   */\n      dup4\n        /* \"#utility.yul\":37909:37927   */\n      add\n        /* \"#utility.yul\":37900:37906   */\n      dup6\n        /* \"#utility.yul\":37856:37928   */\n      tag_315\n      jump\t// in\n    tag_762:\n        /* \"#utility.yul\":37938:38010   */\n      tag_763\n        /* \"#utility.yul\":38006:38008   */\n      0x40\n        /* \"#utility.yul\":37995:38004   */\n      dup4\n        /* \"#utility.yul\":37991:38009   */\n      add\n        /* \"#utility.yul\":37982:37988   */\n      dup5\n        /* \"#utility.yul\":37938:38010   */\n      tag_308\n      jump\t// in\n    tag_763:\n        /* \"#utility.yul\":37575:38017   */\n      swap5\n      swap4\n      pop\n      pop\n      pop\n      pop\n      jump\t// out\n        /* \"#utility.yul\":38023:38261   */\n    tag_393:\n        /* \"#utility.yul\":38163:38197   */\n      0x45786368616e676541676772656761746f723a3a5472616e7366657248656c70\n        /* \"#utility.yul\":38159:38160   */\n      0x00\n        /* \"#utility.yul\":38151:38157   */\n      dup3\n        /* \"#utility.yul\":38147:38161   */\n      add\n        /* \"#utility.yul\":38140:38198   */\n      mstore\n        /* \"#utility.yul\":38232:38253   */\n      0x65723a736166655472616e7366657246726f6d00000000000000000000000000\n        /* \"#utility.yul\":38227:38229   */\n      0x20\n        /* \"#utility.yul\":38219:38225   */\n      dup3\n        /* \"#utility.yul\":38215:38230   */\n      add\n        /* \"#utility.yul\":38208:38254   */\n      mstore\n        /* \"#utility.yul\":38023:38261   */\n      pop\n      jump\t// out\n        /* \"#utility.yul\":38267:38633   */\n    tag_394:\n        /* \"#utility.yul\":38409:38412   */\n      0x00\n        /* \"#utility.yul\":38430:38497   */\n      tag_766\n        /* \"#utility.yul\":38494:38496   */\n      0x33\n        /* \"#utility.yul\":38489:38492   */\n      dup4\n        /* \"#utility.yul\":38430:38497   */\n      tag_345\n      jump\t// in\n    tag_766:\n        /* \"#utility.yul\":38423:38497   */\n      swap2\n      pop\n        /* \"#utility.yul\":38506:38599   */\n      tag_767\n        /* \"#utility.yul\":38595:38598   */\n      dup3\n        /* \"#utility.yul\":38506:38599   */\n      tag_393\n      jump\t// in\n    tag_767:\n        /* \"#utility.yul\":38624:38626   */\n      0x40\n        /* \"#utility.yul\":38619:38622   */\n      dup3\n        /* \"#utility.yul\":38615:38627   */\n      add\n        /* \"#utility.yul\":38608:38627   */\n      swap1\n      pop\n        /* \"#utility.yul\":38267:38633   */\n      swap2\n      swap1\n      pop\n      jump\t// out\n        /* \"#utility.yul\":38639:39058   */\n    tag_209:\n        /* \"#utility.yul\":38805:38809   */\n      0x00\n        /* \"#utility.yul\":38843:38845   */\n      0x20\n        /* \"#utility.yul\":38832:38841   */\n      dup3\n        /* \"#utility.yul\":38828:38846   */\n      add\n        /* \"#utility.yul\":38820:38846   */\n      swap1\n      pop\n        /* \"#utility.yul\":38892:38901   */\n      dup2\n        /* \"#utility.yul\":38886:38890   */\n      dup2\n        /* \"#utility.yul\":38882:38902   */\n      sub\n        /* \"#utility.yul\":38878:38879   */\n      0x00\n        /* \"#utility.yul\":38867:38876   */\n      dup4\n        /* \"#utility.yul\":38863:38880   */\n      add\n        /* \"#utility.yul\":38856:38903   */\n      mstore\n        /* \"#utility.yul\":38920:39051   */\n      tag_769\n        /* \"#utility.yul\":39046:39050   */\n      dup2\n        /* \"#utility.yul\":38920:39051   */\n      tag_394\n      jump\t// in\n    tag_769:\n        /* \"#utility.yul\":38912:39051   */\n      swap1\n      pop\n        /* \"#utility.yul\":38639:39058   */\n      swap2\n      swap1\n      pop\n      jump\t// out\n        /* \"#utility.yul\":39064:39297   */\n    tag_395:\n        /* \"#utility.yul\":39204:39238   */\n      0x45786368616e676541676772656761746f723a3a5472616e7366657248656c70\n        /* \"#utility.yul\":39200:39201   */\n      0x00\n        /* \"#utility.yul\":39192:39198   */\n      dup3\n        /* \"#utility.yul\":39188:39202   */\n      add\n        /* \"#utility.yul\":39181:39239   */\n      mstore\n        /* \"#utility.yul\":39273:39289   */\n      0x65723a73616665417070726f7665000000000000000000000000000000000000\n        /* \"#utility.yul\":39268:39270   */\n      0x20\n        /* \"#utility.yul\":39260:39266   */\n      dup3\n        /* \"#utility.yul\":39256:39271   */\n      add\n        /* \"#utility.yul\":39249:39290   */\n      mstore\n        /* \"#utility.yul\":39064:39297   */\n      pop\n      jump\t// out\n        /* \"#utility.yul\":39303:39669   */\n    tag_396:\n        /* \"#utility.yul\":39445:39448   */\n      0x00\n        /* \"#utility.yul\":39466:39533   */\n      tag_772\n        /* \"#utility.yul\":39530:39532   */\n      0x2e\n        /* \"#utility.yul\":39525:39528   */\n      dup4\n        /* \"#utility.yul\":39466:39533   */\n      tag_345\n      jump\t// in\n    tag_772:\n        /* \"#utility.yul\":39459:39533   */\n      swap2\n      pop\n        /* \"#utility.yul\":39542:39635   */\n      tag_773\n        /* \"#utility.yul\":39631:39634   */\n      dup3\n        /* \"#utility.yul\":39542:39635   */\n      tag_395\n      jump\t// in\n    tag_773:\n        /* \"#utility.yul\":39660:39662   */\n      0x40\n        /* \"#utility.yul\":39655:39658   */\n      dup3\n        /* \"#utility.yul\":39651:39663   */\n      add\n        /* \"#utility.yul\":39644:39663   */\n      swap1\n      pop\n        /* \"#utility.yul\":39303:39669   */\n      swap2\n      swap1\n      pop\n      jump\t// out\n        /* \"#utility.yul\":39675:40094   */\n    tag_221:\n        /* \"#utility.yul\":39841:39845   */\n      0x00\n        /* \"#utility.yul\":39879:39881   */\n      0x20\n        /* \"#utility.yul\":39868:39877   */\n      dup3\n        /* \"#utility.yul\":39864:39882   */\n      add\n        /* \"#utility.yul\":39856:39882   */\n      swap1\n      pop\n        /* \"#utility.yul\":39928:39937   */\n      dup2\n        /* \"#utility.yul\":39922:39926   */\n      dup2\n        /* \"#utility.yul\":39918:39938   */\n      sub\n        /* \"#utility.yul\":39914:39915   */\n      0x00\n        /* \"#utility.yul\":39903:39912   */\n      dup4\n        /* \"#utility.yul\":39899:39916   */\n      add\n        /* \"#utility.yul\":39892:39939   */\n      mstore\n        /* \"#utility.yul\":39956:40087   */\n      tag_775\n        /* \"#utility.yul\":40082:40086   */\n      dup2\n        /* \"#utility.yul\":39956:40087   */\n      tag_396\n      jump\t// in\n    tag_775:\n        /* \"#utility.yul\":39948:40087   */\n      swap1\n      pop\n        /* \"#utility.yul\":39675:40094   */\n      swap2\n      swap1\n      pop\n      jump\t// out\n        /* \"#utility.yul\":40100:40326   */\n    tag_397:\n        /* \"#utility.yul\":40240:40274   */\n      0x45786368616e676541676772656761746f723a3a5361666543616c6c65723a73\n        /* \"#utility.yul\":40236:40237   */\n      0x00\n        /* \"#utility.yul\":40228:40234   */\n      dup3\n        /* \"#utility.yul\":40224:40238   */\n      add\n        /* \"#utility.yul\":40217:40275   */\n      mstore\n        /* \"#utility.yul\":40309:40318   */\n      0x61666543616c6c00000000000000000000000000000000000000000000000000\n        /* \"#utility.yul\":40304:40306   */\n      0x20\n        /* \"#utility.yul\":40296:40302   */\n      dup3\n        /* \"#utility.yul\":40292:40307   */\n      add\n        /* \"#utility.yul\":40285:40319   */\n      mstore\n        /* \"#utility.yul\":40100:40326   */\n      pop\n      jump\t// out\n        /* \"#utility.yul\":40332:40698   */\n    tag_398:\n        /* \"#utility.yul\":40474:40477   */\n      0x00\n        /* \"#utility.yul\":40495:40562   */\n      tag_778\n        /* \"#utility.yul\":40559:40561   */\n      0x27\n        /* \"#utility.yul\":40554:40557   */\n      dup4\n        /* \"#utility.yul\":40495:40562   */\n      tag_345\n      jump\t// in\n    tag_778:\n        /* \"#utility.yul\":40488:40562   */\n      swap2\n      pop\n        /* \"#utility.yul\":40571:40664   */\n      tag_779\n        /* \"#utility.yul\":40660:40663   */\n      dup3\n        /* \"#utility.yul\":40571:40664   */\n      tag_397\n      jump\t// in\n    tag_779:\n        /* \"#utility.yul\":40689:40691   */\n      0x40\n        /* \"#utility.yul\":40684:40687   */\n      dup3\n        /* \"#utility.yul\":40680:40692   */\n      add\n        /* \"#utility.yul\":40673:40692   */\n      swap1\n      pop\n        /* \"#utility.yul\":40332:40698   */\n      swap2\n      swap1\n      pop\n      jump\t// out\n        /* \"#utility.yul\":40704:41123   */\n    tag_230:\n        /* \"#utility.yul\":40870:40874   */\n      0x00\n        /* \"#utility.yul\":40908:40910   */\n      0x20\n        /* \"#utility.yul\":40897:40906   */\n      dup3\n        /* \"#utility.yul\":40893:40911   */\n      add\n        /* \"#utility.yul\":40885:40911   */\n      swap1\n      pop\n        /* \"#utility.yul\":40957:40966   */\n      dup2\n        /* \"#utility.yul\":40951:40955   */\n      dup2\n        /* \"#utility.yul\":40947:40967   */\n      sub\n        /* \"#utility.yul\":40943:40944   */\n      0x00\n        /* \"#utility.yul\":40932:40941   */\n      dup4\n        /* \"#utility.yul\":40928:40945   */\n      add\n        /* \"#utility.yul\":40921:40968   */\n      mstore\n        /* \"#utility.yul\":40985:41116   */\n      tag_781\n        /* \"#utility.yul\":41111:41115   */\n      dup2\n        /* \"#utility.yul\":40985:41116   */\n      tag_398\n      jump\t// in\n    tag_781:\n        /* \"#utility.yul\":40977:41116   */\n      swap1\n      pop\n        /* \"#utility.yul\":40704:41123   */\n      swap2\n      swap1\n      pop\n      jump\t// out\n        /* \"#utility.yul\":41129:41437   */\n    tag_399:\n        /* \"#utility.yul\":41191:41195   */\n      0x00\n        /* \"#utility.yul\":41281:41299   */\n      0xffffffffffffffff\n        /* \"#utility.yul\":41273:41279   */\n      dup3\n        /* \"#utility.yul\":41270:41300   */\n      gt\n        /* \"#utility.yul\":41267:41323   */\n      iszero\n      tag_783\n      jumpi\n        /* \"#utility.yul\":41303:41321   */\n      tag_784\n      tag_238\n      jump\t// in\n    tag_784:\n        /* \"#utility.yul\":41267:41323   */\n    tag_783:\n        /* \"#utility.yul\":41341:41370   */\n      tag_785\n        /* \"#utility.yul\":41363:41369   */\n      dup3\n        /* \"#utility.yul\":41341:41370   */\n      tag_317\n      jump\t// in\n    tag_785:\n        /* \"#utility.yul\":41333:41370   */\n      swap1\n      pop\n        /* \"#utility.yul\":41425:41429   */\n      0x20\n        /* \"#utility.yul\":41419:41423   */\n      dup2\n        /* \"#utility.yul\":41415:41430   */\n      add\n        /* \"#utility.yul\":41407:41430   */\n      swap1\n      pop\n        /* \"#utility.yul\":41129:41437   */\n      swap2\n      swap1\n      pop\n      jump\t// out\n        /* \"#utility.yul\":41443:41877   */\n    tag_400:\n        /* \"#utility.yul\":41532:41537   */\n      0x00\n        /* \"#utility.yul\":41557:41623   */\n      tag_787\n        /* \"#utility.yul\":41573:41622   */\n      tag_788\n        /* \"#utility.yul\":41615:41621   */\n      dup5\n        /* \"#utility.yul\":41573:41622   */\n      tag_399\n      jump\t// in\n    tag_788:\n        /* \"#utility.yul\":41557:41623   */\n      tag_319\n      jump\t// in\n    tag_787:\n        /* \"#utility.yul\":41548:41623   */\n      swap1\n      pop\n        /* \"#utility.yul\":41646:41652   */\n      dup3\n        /* \"#utility.yul\":41639:41644   */\n      dup2\n        /* \"#utility.yul\":41632:41653   */\n      mstore\n        /* \"#utility.yul\":41684:41688   */\n      0x20\n        /* \"#utility.yul\":41677:41682   */\n      dup2\n        /* \"#utility.yul\":41673:41689   */\n      add\n        /* \"#utility.yul\":41722:41725   */\n      dup5\n        /* \"#utility.yul\":41713:41719   */\n      dup5\n        /* \"#utility.yul\":41708:41711   */\n      dup5\n        /* \"#utility.yul\":41704:41720   */\n      add\n        /* \"#utility.yul\":41701:41726   */\n      gt\n        /* \"#utility.yul\":41698:41810   */\n      iszero\n      tag_789\n      jumpi\n        /* \"#utility.yul\":41729:41808   */\n      tag_790\n      tag_316\n      jump\t// in\n    tag_790:\n        /* \"#utility.yul\":41698:41810   */\n    tag_789:\n        /* \"#utility.yul\":41819:41871   */\n      tag_791\n        /* \"#utility.yul\":41864:41870   */\n      dup5\n        /* \"#utility.yul\":41859:41862   */\n      dup3\n        /* \"#utility.yul\":41854:41857   */\n      dup6\n        /* \"#utility.yul\":41819:41871   */\n      tag_384\n      jump\t// in\n    tag_791:\n        /* \"#utility.yul\":41538:41877   */\n      pop\n        /* \"#utility.yul\":41443:41877   */\n      swap4\n      swap3\n      pop\n      pop\n      pop\n      jump\t// out\n        /* \"#utility.yul\":41897:42252   */\n    tag_401:\n        /* \"#utility.yul\":41964:41969   */\n      0x00\n        /* \"#utility.yul\":42013:42016   */\n      dup3\n        /* \"#utility.yul\":42006:42010   */\n      0x1f\n        /* \"#utility.yul\":41998:42004   */\n      dup4\n        /* \"#utility.yul\":41994:42011   */\n      add\n        /* \"#utility.yul\":41990:42017   */\n      slt\n        /* \"#utility.yul\":41980:42102   */\n      tag_793\n      jumpi\n        /* \"#utility.yul\":42021:42100   */\n      tag_794\n      tag_311\n      jump\t// in\n    tag_794:\n        /* \"#utility.yul\":41980:42102   */\n    tag_793:\n        /* \"#utility.yul\":42131:42137   */\n      dup2\n        /* \"#utility.yul\":42125:42138   */\n      mload\n        /* \"#utility.yul\":42156:42246   */\n      tag_795\n        /* \"#utility.yul\":42242:42245   */\n      dup5\n        /* \"#utility.yul\":42234:42240   */\n      dup3\n        /* \"#utility.yul\":42227:42231   */\n      0x20\n        /* \"#utility.yul\":42219:42225   */\n      dup7\n        /* \"#utility.yul\":42215:42232   */\n      add\n        /* \"#utility.yul\":42156:42246   */\n      tag_400\n      jump\t// in\n    tag_795:\n        /* \"#utility.yul\":42147:42246   */\n      swap2\n      pop\n        /* \"#utility.yul\":41970:42252   */\n      pop\n        /* \"#utility.yul\":41897:42252   */\n      swap3\n      swap2\n      pop\n      pop\n      jump\t// out\n        /* \"#utility.yul\":42258:42782   */\n    tag_232:\n        /* \"#utility.yul\":42338:42344   */\n      0x00\n        /* \"#utility.yul\":42387:42389   */\n      0x20\n        /* \"#utility.yul\":42375:42384   */\n      dup3\n        /* \"#utility.yul\":42366:42373   */\n      dup5\n        /* \"#utility.yul\":42362:42385   */\n      sub\n        /* \"#utility.yul\":42358:42390   */\n      slt\n        /* \"#utility.yul\":42355:42474   */\n      iszero\n      tag_797\n      jumpi\n        /* \"#utility.yul\":42393:42472   */\n      tag_798\n      tag_299\n      jump\t// in\n    tag_798:\n        /* \"#utility.yul\":42355:42474   */\n    tag_797:\n        /* \"#utility.yul\":42534:42535   */\n      0x00\n        /* \"#utility.yul\":42523:42532   */\n      dup3\n        /* \"#utility.yul\":42519:42536   */\n      add\n        /* \"#utility.yul\":42513:42537   */\n      mload\n        /* \"#utility.yul\":42564:42582   */\n      0xffffffffffffffff\n        /* \"#utility.yul\":42556:42562   */\n      dup2\n        /* \"#utility.yul\":42553:42583   */\n      gt\n        /* \"#utility.yul\":42550:42667   */\n      iszero\n      tag_799\n      jumpi\n        /* \"#utility.yul\":42586:42665   */\n      tag_800\n      tag_300\n      jump\t// in\n    tag_800:\n        /* \"#utility.yul\":42550:42667   */\n    tag_799:\n        /* \"#utility.yul\":42691:42765   */\n      tag_801\n        /* \"#utility.yul\":42757:42764   */\n      dup5\n        /* \"#utility.yul\":42748:42754   */\n      dup3\n        /* \"#utility.yul\":42737:42746   */\n      dup6\n        /* \"#utility.yul\":42733:42755   */\n      add\n        /* \"#utility.yul\":42691:42765   */\n      tag_401\n      jump\t// in\n    tag_801:\n        /* \"#utility.yul\":42681:42765   */\n      swap2\n      pop\n        /* \"#utility.yul\":42484:42775   */\n      pop\n        /* \"#utility.yul\":42258:42782   */\n      swap3\n      swap2\n      pop\n      pop\n      jump\t// out\n        /* \"#utility.yul\":42788:42887   */\n    tag_402:\n        /* \"#utility.yul\":42840:42846   */\n      0x00\n        /* \"#utility.yul\":42874:42879   */\n      dup2\n        /* \"#utility.yul\":42868:42880   */\n      mload\n        /* \"#utility.yul\":42858:42880   */\n      swap1\n      pop\n        /* \"#utility.yul\":42788:42887   */\n      swap2\n      swap1\n      pop\n      jump\t// out\n        /* \"#utility.yul\":42893:43270   */\n    tag_403:\n        /* \"#utility.yul\":42981:42984   */\n      0x00\n        /* \"#utility.yul\":43009:43048   */\n      tag_804\n        /* \"#utility.yul\":43042:43047   */\n      dup3\n        /* \"#utility.yul\":43009:43048   */\n      tag_402\n      jump\t// in\n    tag_804:\n        /* \"#utility.yul\":43064:43135   */\n      tag_805\n        /* \"#utility.yul\":43128:43134   */\n      dup2\n        /* \"#utility.yul\":43123:43126   */\n      dup6\n        /* \"#utility.yul\":43064:43135   */\n      tag_345\n      jump\t// in\n    tag_805:\n        /* \"#utility.yul\":43057:43135   */\n      swap4\n      pop\n        /* \"#utility.yul\":43144:43209   */\n      tag_806\n        /* \"#utility.yul\":43202:43208   */\n      dup2\n        /* \"#utility.yul\":43197:43200   */\n      dup6\n        /* \"#utility.yul\":43190:43194   */\n      0x20\n        /* \"#utility.yul\":43183:43188   */\n      dup7\n        /* \"#utility.yul\":43179:43195   */\n      add\n        /* \"#utility.yul\":43144:43209   */\n      tag_384\n      jump\t// in\n    tag_806:\n        /* \"#utility.yul\":43234:43263   */\n      tag_807\n        /* \"#utility.yul\":43256:43262   */\n      dup2\n        /* \"#utility.yul\":43234:43263   */\n      tag_317\n      jump\t// in\n    tag_807:\n        /* \"#utility.yul\":43229:43232   */\n      dup5\n        /* \"#utility.yul\":43225:43264   */\n      add\n        /* \"#utility.yul\":43218:43264   */\n      swap2\n      pop\n        /* \"#utility.yul\":42985:43270   */\n      pop\n        /* \"#utility.yul\":42893:43270   */\n      swap3\n      swap2\n      pop\n      pop\n      jump\t// out\n        /* \"#utility.yul\":43276:43589   */\n    tag_234:\n        /* \"#utility.yul\":43389:43393   */\n      0x00\n        /* \"#utility.yul\":43427:43429   */\n      0x20\n        /* \"#utility.yul\":43416:43425   */\n      dup3\n        /* \"#utility.yul\":43412:43430   */\n      add\n        /* \"#utility.yul\":43404:43430   */\n      swap1\n      pop\n        /* \"#utility.yul\":43476:43485   */\n      dup2\n        /* \"#utility.yul\":43470:43474   */\n      dup2\n        /* \"#utility.yul\":43466:43486   */\n      sub\n        /* \"#utility.yul\":43462:43463   */\n      0x00\n        /* \"#utility.yul\":43451:43460   */\n      dup4\n        /* \"#utility.yul\":43447:43464   */\n      add\n        /* \"#utility.yul\":43440:43487   */\n      mstore\n        /* \"#utility.yul\":43504:43582   */\n      tag_809\n        /* \"#utility.yul\":43577:43581   */\n      dup2\n        /* \"#utility.yul\":43568:43574   */\n      dup5\n        /* \"#utility.yul\":43504:43582   */\n      tag_403\n      jump\t// in\n    tag_809:\n        /* \"#utility.yul\":43496:43582   */\n      swap1\n      pop\n        /* \"#utility.yul\":43276:43589   */\n      swap3\n      swap2\n      pop\n      pop\n      jump\t// out\n        /* \"#utility.yul\":43595:43832   */\n    tag_404:\n        /* \"#utility.yul\":43735:43769   */\n      0x45786368616e676541676772656761746f723a3a5472616e7366657248656c70\n        /* \"#utility.yul\":43731:43732   */\n      0x00\n        /* \"#utility.yul\":43723:43729   */\n      dup3\n        /* \"#utility.yul\":43719:43733   */\n      add\n        /* \"#utility.yul\":43712:43770   */\n      mstore\n        /* \"#utility.yul\":43804:43824   */\n      0x65723a736166655472616e736665724554480000000000000000000000000000\n        /* \"#utility.yul\":43799:43801   */\n      0x20\n        /* \"#utility.yul\":43791:43797   */\n      dup3\n        /* \"#utility.yul\":43787:43802   */\n      add\n        /* \"#utility.yul\":43780:43825   */\n      mstore\n        /* \"#utility.yul\":43595:43832   */\n      pop\n      jump\t// out\n        /* \"#utility.yul\":43838:44204   */\n    tag_405:\n        /* \"#utility.yul\":43980:43983   */\n      0x00\n        /* \"#utility.yul\":44001:44068   */\n      tag_812\n        /* \"#utility.yul\":44065:44067   */\n      0x32\n        /* \"#utility.yul\":44060:44063   */\n      dup4\n        /* \"#utility.yul\":44001:44068   */\n      tag_345\n      jump\t// in\n    tag_812:\n        /* \"#utility.yul\":43994:44068   */\n      swap2\n      pop\n        /* \"#utility.yul\":44077:44170   */\n      tag_813\n        /* \"#utility.yul\":44166:44169   */\n      dup3\n        /* \"#utility.yul\":44077:44170   */\n      tag_404\n      jump\t// in\n    tag_813:\n        /* \"#utility.yul\":44195:44197   */\n      0x40\n        /* \"#utility.yul\":44190:44193   */\n      dup3\n        /* \"#utility.yul\":44186:44198   */\n      add\n        /* \"#utility.yul\":44179:44198   */\n      swap1\n      pop\n        /* \"#utility.yul\":43838:44204   */\n      swap2\n      swap1\n      pop\n      jump\t// out\n        /* \"#utility.yul\":44210:44629   */\n    tag_246:\n        /* \"#utility.yul\":44376:44380   */\n      0x00\n        /* \"#utility.yul\":44414:44416   */\n      0x20\n        /* \"#utility.yul\":44403:44412   */\n      dup3\n        /* \"#utility.yul\":44399:44417   */\n      add\n        /* \"#utility.yul\":44391:44417   */\n      swap1\n      pop\n        /* \"#utility.yul\":44463:44472   */\n      dup2\n        /* \"#utility.yul\":44457:44461   */\n      dup2\n        /* \"#utility.yul\":44453:44473   */\n      sub\n        /* \"#utility.yul\":44449:44450   */\n      0x00\n        /* \"#utility.yul\":44438:44447   */\n      dup4\n        /* \"#utility.yul\":44434:44451   */\n      add\n        /* \"#utility.yul\":44427:44474   */\n      mstore\n        /* \"#utility.yul\":44491:44622   */\n      tag_815\n        /* \"#utility.yul\":44617:44621   */\n      dup2\n        /* \"#utility.yul\":44491:44622   */\n      tag_405\n      jump\t// in\n    tag_815:\n        /* \"#utility.yul\":44483:44622   */\n      swap1\n      pop\n        /* \"#utility.yul\":44210:44629   */\n      swap2\n      swap1\n      pop\n      jump\t// out\n        /* \"#utility.yul\":44635:44815   */\n    tag_263:\n        /* \"#utility.yul\":44683:44760   */\n      0x4e487b7100000000000000000000000000000000000000000000000000000000\n        /* \"#utility.yul\":44680:44681   */\n      0x00\n        /* \"#utility.yul\":44673:44761   */\n      mstore\n        /* \"#utility.yul\":44780:44784   */\n      0x21\n        /* \"#utility.yul\":44777:44778   */\n      0x04\n        /* \"#utility.yul\":44770:44785   */\n      mstore\n        /* \"#utility.yul\":44804:44808   */\n      0x24\n        /* \"#utility.yul\":44801:44802   */\n      0x00\n        /* \"#utility.yul\":44794:44809   */\n      revert\n        /* \"#utility.yul\":44821:44995   */\n    tag_406:\n        /* \"#utility.yul\":44961:44987   */\n      0x45434453413a20696e76616c6964207369676e61747572650000000000000000\n        /* \"#utility.yul\":44957:44958   */\n      0x00\n        /* \"#utility.yul\":44949:44955   */\n      dup3\n        /* \"#utility.yul\":44945:44959   */\n      add\n        /* \"#utility.yul\":44938:44988   */\n      mstore\n        /* \"#utility.yul\":44821:44995   */\n      pop\n      jump\t// out\n        /* \"#utility.yul\":45001:45367   */\n    tag_407:\n        /* \"#utility.yul\":45143:45146   */\n      0x00\n        /* \"#utility.yul\":45164:45231   */\n      tag_819\n        /* \"#utility.yul\":45228:45230   */\n      0x18\n        /* \"#utility.yul\":45223:45226   */\n      dup4\n        /* \"#utility.yul\":45164:45231   */\n      tag_345\n      jump\t// in\n    tag_819:\n        /* \"#utility.yul\":45157:45231   */\n      swap2\n      pop\n        /* \"#utility.yul\":45240:45333   */\n      tag_820\n        /* \"#utility.yul\":45329:45332   */\n      dup3\n        /* \"#utility.yul\":45240:45333   */\n      tag_406\n      jump\t// in\n    tag_820:\n        /* \"#utility.yul\":45358:45360   */\n      0x20\n        /* \"#utility.yul\":45353:45356   */\n      dup3\n        /* \"#utility.yul\":45349:45361   */\n      add\n        /* \"#utility.yul\":45342:45361   */\n      swap1\n      pop\n        /* \"#utility.yul\":45001:45367   */\n      swap2\n      swap1\n      pop\n      jump\t// out\n        /* \"#utility.yul\":45373:45792   */\n    tag_274:\n        /* \"#utility.yul\":45539:45543   */\n      0x00\n        /* \"#utility.yul\":45577:45579   */\n      0x20\n        /* \"#utility.yul\":45566:45575   */\n      dup3\n        /* \"#utility.yul\":45562:45580   */\n      add\n        /* \"#utility.yul\":45554:45580   */\n      swap1\n      pop\n        /* \"#utility.yul\":45626:45635   */\n      dup2\n        /* \"#utility.yul\":45620:45624   */\n      dup2\n        /* \"#utility.yul\":45616:45636   */\n      sub\n        /* \"#utility.yul\":45612:45613   */\n      0x00\n        /* \"#utility.yul\":45601:45610   */\n      dup4\n        /* \"#utility.yul\":45597:45614   */\n      add\n        /* \"#utility.yul\":45590:45637   */\n      mstore\n        /* \"#utility.yul\":45654:45785   */\n      tag_822\n        /* \"#utility.yul\":45780:45784   */\n      dup2\n        /* \"#utility.yul\":45654:45785   */\n      tag_407\n      jump\t// in\n    tag_822:\n        /* \"#utility.yul\":45646:45785   */\n      swap1\n      pop\n        /* \"#utility.yul\":45373:45792   */\n      swap2\n      swap1\n      pop\n      jump\t// out\n        /* \"#utility.yul\":45798:45979   */\n    tag_408:\n        /* \"#utility.yul\":45938:45971   */\n      0x45434453413a20696e76616c6964207369676e6174757265206c656e67746800\n        /* \"#utility.yul\":45934:45935   */\n      0x00\n        /* \"#utility.yul\":45926:45932   */\n      dup3\n        /* \"#utility.yul\":45922:45936   */\n      add\n        /* \"#utility.yul\":45915:45972   */\n      mstore\n        /* \"#utility.yul\":45798:45979   */\n      pop\n      jump\t// out\n        /* \"#utility.yul\":45985:46351   */\n    tag_409:\n        /* \"#utility.yul\":46127:46130   */\n      0x00\n        /* \"#utility.yul\":46148:46215   */\n      tag_825\n        /* \"#utility.yul\":46212:46214   */\n      0x1f\n        /* \"#utility.yul\":46207:46210   */\n      dup4\n        /* \"#utility.yul\":46148:46215   */\n      tag_345\n      jump\t// in\n    tag_825:\n        /* \"#utility.yul\":46141:46215   */\n      swap2\n      pop\n        /* \"#utility.yul\":46224:46317   */\n      tag_826\n        /* \"#utility.yul\":46313:46316   */\n      dup3\n        /* \"#utility.yul\":46224:46317   */\n      tag_408\n      jump\t// in\n    tag_826:\n        /* \"#utility.yul\":46342:46344   */\n      0x20\n        /* \"#utility.yul\":46337:46340   */\n      dup3\n        /* \"#utility.yul\":46333:46345   */\n      add\n        /* \"#utility.yul\":46326:46345   */\n      swap1\n      pop\n        /* \"#utility.yul\":45985:46351   */\n      swap2\n      swap1\n      pop\n      jump\t// out\n        /* \"#utility.yul\":46357:46776   */\n    tag_282:\n        /* \"#utility.yul\":46523:46527   */\n      0x00\n        /* \"#utility.yul\":46561:46563   */\n      0x20\n        /* \"#utility.yul\":46550:46559   */\n      dup3\n        /* \"#utility.yul\":46546:46564   */\n      add\n        /* \"#utility.yul\":46538:46564   */\n      swap1\n      pop\n        /* \"#utility.yul\":46610:46619   */\n      dup2\n        /* \"#utility.yul\":46604:46608   */\n      dup2\n        /* \"#utility.yul\":46600:46620   */\n      sub\n        /* \"#utility.yul\":46596:46597   */\n      0x00\n        /* \"#utility.yul\":46585:46594   */\n      dup4\n        /* \"#utility.yul\":46581:46598   */\n      add\n        /* \"#utility.yul\":46574:46621   */\n      mstore\n        /* \"#utility.yul\":46638:46769   */\n      tag_828\n        /* \"#utility.yul\":46764:46768   */\n      dup2\n        /* \"#utility.yul\":46638:46769   */\n      tag_409\n      jump\t// in\n    tag_828:\n        /* \"#utility.yul\":46630:46769   */\n      swap1\n      pop\n        /* \"#utility.yul\":46357:46776   */\n      swap2\n      swap1\n      pop\n      jump\t// out\n        /* \"#utility.yul\":46782:47003   */\n    tag_410:\n        /* \"#utility.yul\":46922:46956   */\n      0x45434453413a20696e76616c6964207369676e6174757265202773272076616c\n        /* \"#utility.yul\":46918:46919   */\n      0x00\n        /* \"#utility.yul\":46910:46916   */\n      dup3\n        /* \"#utility.yul\":46906:46920   */\n      add\n        /* \"#utility.yul\":46899:46957   */\n      mstore\n        /* \"#utility.yul\":46991:46995   */\n      0x7565000000000000000000000000000000000000000000000000000000000000\n        /* \"#utility.yul\":46986:46988   */\n      0x20\n        /* \"#utility.yul\":46978:46984   */\n      dup3\n        /* \"#utility.yul\":46974:46989   */\n      add\n        /* \"#utility.yul\":46967:46996   */\n      mstore\n        /* \"#utility.yul\":46782:47003   */\n      pop\n      jump\t// out\n        /* \"#utility.yul\":47009:47375   */\n    tag_411:\n        /* \"#utility.yul\":47151:47154   */\n      0x00\n        /* \"#utility.yul\":47172:47239   */\n      tag_831\n        /* \"#utility.yul\":47236:47238   */\n      0x22\n        /* \"#utility.yul\":47231:47234   */\n      dup4\n        /* \"#utility.yul\":47172:47239   */\n      tag_345\n      jump\t// in\n    tag_831:\n        /* \"#utility.yul\":47165:47239   */\n      swap2\n      pop\n        /* \"#utility.yul\":47248:47341   */\n      tag_832\n        /* \"#utility.yul\":47337:47340   */\n      dup3\n        /* \"#utility.yul\":47248:47341   */\n      tag_410\n      jump\t// in\n    tag_832:\n        /* \"#utility.yul\":47366:47368   */\n      0x40\n        /* \"#utility.yul\":47361:47364   */\n      dup3\n        /* \"#utility.yul\":47357:47369   */\n      add\n        /* \"#utility.yul\":47350:47369   */\n      swap1\n      pop\n        /* \"#utility.yul\":47009:47375   */\n      swap2\n      swap1\n      pop\n      jump\t// out\n        /* \"#utility.yul\":47381:47800   */\n    tag_290:\n        /* \"#utility.yul\":47547:47551   */\n      0x00\n        /* \"#utility.yul\":47585:47587   */\n      0x20\n        /* \"#utility.yul\":47574:47583   */\n      dup3\n        /* \"#utility.yul\":47570:47588   */\n      add\n        /* \"#utility.yul\":47562:47588   */\n      swap1\n      pop\n        /* \"#utility.yul\":47634:47643   */\n      dup2\n        /* \"#utility.yul\":47628:47632   */\n      dup2\n        /* \"#utility.yul\":47624:47644   */\n      sub\n        /* \"#utility.yul\":47620:47621   */\n      0x00\n        /* \"#utility.yul\":47609:47618   */\n      dup4\n        /* \"#utility.yul\":47605:47622   */\n      add\n        /* \"#utility.yul\":47598:47645   */\n      mstore\n        /* \"#utility.yul\":47662:47793   */\n      tag_834\n        /* \"#utility.yul\":47788:47792   */\n      dup2\n        /* \"#utility.yul\":47662:47793   */\n      tag_411\n      jump\t// in\n    tag_834:\n        /* \"#utility.yul\":47654:47793   */\n      swap1\n      pop\n        /* \"#utility.yul\":47381:47800   */\n      swap2\n      swap1\n      pop\n      jump\t// out\n        /* \"#utility.yul\":47806:47883   */\n    tag_412:\n        /* \"#utility.yul\":47843:47850   */\n      0x00\n        /* \"#utility.yul\":47872:47877   */\n      dup2\n        /* \"#utility.yul\":47861:47877   */\n      swap1\n      pop\n        /* \"#utility.yul\":47806:47883   */\n      swap2\n      swap1\n      pop\n      jump\t// out\n        /* \"#utility.yul\":47889:48007   */\n    tag_413:\n        /* \"#utility.yul\":47976:48000   */\n      tag_837\n        /* \"#utility.yul\":47994:47999   */\n      dup2\n        /* \"#utility.yul\":47976:48000   */\n      tag_412\n      jump\t// in\n    tag_837:\n        /* \"#utility.yul\":47971:47974   */\n      dup3\n        /* \"#utility.yul\":47964:48001   */\n      mstore\n        /* \"#utility.yul\":47889:48007   */\n      pop\n      pop\n      jump\t// out\n        /* \"#utility.yul\":48013:48125   */\n    tag_414:\n        /* \"#utility.yul\":48096:48118   */\n      tag_839\n        /* \"#utility.yul\":48112:48117   */\n      dup2\n        /* \"#utility.yul\":48096:48118   */\n      tag_327\n      jump\t// in\n    tag_839:\n        /* \"#utility.yul\":48091:48094   */\n      dup3\n        /* \"#utility.yul\":48084:48119   */\n      mstore\n        /* \"#utility.yul\":48013:48125   */\n      pop\n      pop\n      jump\t// out\n        /* \"#utility.yul\":48131:48676   */\n    tag_294:\n        /* \"#utility.yul\":48304:48308   */\n      0x00\n        /* \"#utility.yul\":48342:48345   */\n      0x80\n        /* \"#utility.yul\":48331:48340   */\n      dup3\n        /* \"#utility.yul\":48327:48346   */\n      add\n        /* \"#utility.yul\":48319:48346   */\n      swap1\n      pop\n        /* \"#utility.yul\":48356:48427   */\n      tag_841\n        /* \"#utility.yul\":48424:48425   */\n      0x00\n        /* \"#utility.yul\":48413:48422   */\n      dup4\n        /* \"#utility.yul\":48409:48426   */\n      add\n        /* \"#utility.yul\":48400:48406   */\n      dup8\n        /* \"#utility.yul\":48356:48427   */\n      tag_413\n      jump\t// in\n    tag_841:\n        /* \"#utility.yul\":48437:48505   */\n      tag_842\n        /* \"#utility.yul\":48501:48503   */\n      0x20\n        /* \"#utility.yul\":48490:48499   */\n      dup4\n        /* \"#utility.yul\":48486:48504   */\n      add\n        /* \"#utility.yul\":48477:48483   */\n      dup7\n        /* \"#utility.yul\":48437:48505   */\n      tag_414\n      jump\t// in\n    tag_842:\n        /* \"#utility.yul\":48515:48587   */\n      tag_843\n        /* \"#utility.yul\":48583:48585   */\n      0x40\n        /* \"#utility.yul\":48572:48581   */\n      dup4\n        /* \"#utility.yul\":48568:48586   */\n      add\n        /* \"#utility.yul\":48559:48565   */\n      dup6\n        /* \"#utility.yul\":48515:48587   */\n      tag_413\n      jump\t// in\n    tag_843:\n        /* \"#utility.yul\":48597:48669   */\n      tag_844\n        /* \"#utility.yul\":48665:48667   */\n      0x60\n        /* \"#utility.yul\":48654:48663   */\n      dup4\n        /* \"#utility.yul\":48650:48668   */\n      add\n        /* \"#utility.yul\":48641:48647   */\n      dup5\n        /* \"#utility.yul\":48597:48669   */\n      tag_413\n      jump\t// in\n    tag_844:\n        /* \"#utility.yul\":48131:48676   */\n      swap6\n      swap5\n      pop\n      pop\n      pop\n      pop\n      pop\n      jump\t// out\n\n    auxdata: 0xa2646970667358221220c36d5ef49f02a5a7d4545eea6612a6520fef8387e45d75e0920220e0677912d164736f6c63430008110033\n}\n",
				"bytecode": {
					"linkReferences": {},
					"object": "60806040523480156200001157600080fd5b5060405162002e9438038062002e94833981810160405281019062000037919062000217565b620000576200004b620000e160201b60201c565b620000e960201b60201c565b81600160006101000a81548173ffffffffffffffffffffffffffffffffffffffff021916908373ffffffffffffffffffffffffffffffffffffffff16021790555080600260006101000a81548173ffffffffffffffffffffffffffffffffffffffff021916908373ffffffffffffffffffffffffffffffffffffffff16021790555050506200025e565b600033905090565b60008060009054906101000a900473ffffffffffffffffffffffffffffffffffffffff169050816000806101000a81548173ffffffffffffffffffffffffffffffffffffffff021916908373ffffffffffffffffffffffffffffffffffffffff1602179055508173ffffffffffffffffffffffffffffffffffffffff168173ffffffffffffffffffffffffffffffffffffffff167f8be0079c531659141344cd1fd0a4f28419497f9722a3daafe3b4186f6b6457e060405160405180910390a35050565b600080fd5b600073ffffffffffffffffffffffffffffffffffffffff82169050919050565b6000620001df82620001b2565b9050919050565b620001f181620001d2565b8114620001fd57600080fd5b50565b6000815190506200021181620001e6565b92915050565b60008060408385031215620002315762000230620001ad565b5b6000620002418582860162000200565b9250506020620002548582860162000200565b9150509250929050565b612c26806200026e6000396000f3fe6080604052600436106100c25760003560e01c8063715018a61161007f578063b086788311610059578063b086788314610233578063ecbdbb3214610270578063f2fde38b1461029b578063ff514fa3146102c4576100c2565b8063715018a6146101c65780638da5cb5b146101dd578063ad5c464814610208576100c2565b806301e33667146100c757806304599012146100f05780632906799b1461012d5780633078fff5146101565780634782f779146101815780635d86acf1146101aa575b600080fd5b3480156100d357600080fd5b506100ee60048036038101906100e9919061152f565b610301565b005b3480156100fc57600080fd5b5061011760048036038101906101129190611582565b610319565b60405161012491906115be565b60405180910390f35b34801561013957600080fd5b50610154600480360381019061014f9190611662565b61039c565b005b34801561016257600080fd5b5061016b610562565b60405161017891906116ed565b60405180910390f35b34801561018d57600080fd5b506101a860048036038101906101a39190611708565b610588565b005b6101c460048036038101906101bf9190611662565b61059e565b005b3480156101d257600080fd5b506101db61075b565b005b3480156101e957600080fd5b506101f261076f565b6040516101ff91906116ed565b60405180910390f35b34801561021457600080fd5b5061021d610798565b60405161022a91906116ed565b60405180910390f35b34801561023f57600080fd5b5061025a60048036038101906102559190611889565b6107be565b60405161026791906116ed565b60405180910390f35b34801561027c57600080fd5b50610285610802565b60405161029291906115be565b60405180910390f35b3480156102a757600080fd5b506102c260048036038101906102bd9190611582565b61080a565b005b3480156102d057600080fd5b506102eb60048036038101906102e69190611a7a565b61088d565b6040516102f89190611c03565b60405180910390f35b610309610937565b6103148383836109b5565b505050565b60008173ffffffffffffffffffffffffffffffffffffffff166370a08231306040518263ffffffff1660e01b815260040161035491906116ed565b602060405180830381865afa158015610371573d6000803e3d6000fd5b505050506040513d601f19601f820116820180604052508101906103959190611c3a565b9050919050565b3373ffffffffffffffffffffffffffffffffffffffff168360a00160208101906103c69190611582565b73ffffffffffffffffffffffffffffffffffffffff161461041c576040517f08c379a000000000000000000000000000000000000000000000000000000000815260040161041390611cc4565b60405180910390fd5b610489836040516020016104309190611e7d565b60405160208183030381529060405283838080601f016020809104026020016040519081016040528093929190818152602001838380828437600081840152601f19601f82011690508083019250505050505050610aeb565b6104ab83600001602081019061049f9190611582565b33308660200135610c64565b6104ed8360000160208101906104c19190611582565b8460600160208101906104d49190611582565b856040013586602001356104e89190611ece565b610d9d565b61055d8360600160208101906105039190611582565b60008580608001906105159190611f11565b8080601f016020809104026020016040519081016040528093929190818152602001838380828437600081840152601f19601f82011690508083019250505050505050610ed3565b505050565b600260009054906101000a900473ffffffffffffffffffffffffffffffffffffffff1681565b610590610937565b61059a8282610fea565b5050565b3373ffffffffffffffffffffffffffffffffffffffff168360a00160208101906105c89190611582565b73ffffffffffffffffffffffffffffffffffffffff161461061e576040517f08c379a000000000000000000000000000000000000000000000000000000000815260040161061590611cc4565b60405180910390fd5b61068b836040516020016106329190611e7d565b60405160208183030381529060405283838080601f016020809104026020016040519081016040528093929190818152602001838380828437600081840152601f19601f82011690508083019250505050505050610aeb565b82602001353410156106d2576040517f08c379a00000000000000000000000000000000000000000000000000000000081526004016106c990611fc0565b60405180910390fd5b60008360400135346106e49190611ece565b90506107558460600160208101906106fc9190611582565b8286806080019061070d9190611f11565b8080601f016020809104026020016040519081016040528093929190818152602001838380828437600081840152601f19601f82011690508083019250505050505050610ed3565b50505050565b610763610937565b61076d60006110ea565b565b60008060009054906101000a900473ffffffffffffffffffffffffffffffffffffffff16905090565b600160009054906101000a900473ffffffffffffffffffffffffffffffffffffffff1681565b60006107fa826107ec856040516020016107d89190611e7d565b6040516020818303038152906040526111ae565b6111bf90919063ffffffff16565b905092915050565b600047905090565b610812610937565b600073ffffffffffffffffffffffffffffffffffffffff168173ffffffffffffffffffffffffffffffffffffffff1603610881576040517f08c379a000000000000000000000000000000000000000000000000000000000815260040161087890612052565b60405180910390fd5b61088a816110ea565b50565b6060600260009054906101000a900473ffffffffffffffffffffffffffffffffffffffff1673ffffffffffffffffffffffffffffffffffffffff1663ff514fa3836040518263ffffffff1660e01b81526004016108ea9190612185565b600060405180830381865afa158015610907573d6000803e3d6000fd5b505050506040513d6000823e3d601f19601f820116820180604052508101906109309190612323565b9050919050565b61093f6111e6565b73ffffffffffffffffffffffffffffffffffffffff1661095d61076f565b73ffffffffffffffffffffffffffffffffffffffff16146109b3576040517f08c379a00000000000000000000000000000000000000000000000000000000081526004016109aa906123b8565b60405180910390fd5b565b6000808473ffffffffffffffffffffffffffffffffffffffff1663a9059cbb85856040516024016109e79291906123d8565b6040516020818303038152906040529060e01b6020820180517bffffffffffffffffffffffffffffffffffffffffffffffffffffffff8381831617835250505050604051610a359190612472565b6000604051808303816000865af19150503d8060008114610a72576040519150601f19603f3d011682016040523d82523d6000602084013e610a77565b606091505b5091509150818015610aa55750600081511480610aa4575080806020019051810190610aa391906124c1565b5b5b610ae4576040517f08c379a0000000000000000000000000000000000000000000000000000000008152600401610adb90612560565b60405180910390fd5b5050505050565b601b60f81b81604081518110610b0457610b03612580565b5b60200101907effffffffffffffffffffffffffffffffffffffffffffffffffffffffffffff1916908160001a905350610b3b61076f565b73ffffffffffffffffffffffffffffffffffffffff16610b6c82610b5e856111ae565b6111bf90919063ffffffff16565b73ffffffffffffffffffffffffffffffffffffffff160315610c6057601c60f81b81604081518110610ba157610ba0612580565b5b60200101907effffffffffffffffffffffffffffffffffffffffffffffffffffffffffffff1916908160001a905350610bd861076f565b73ffffffffffffffffffffffffffffffffffffffff16610c0982610bfb856111ae565b6111bf90919063ffffffff16565b73ffffffffffffffffffffffffffffffffffffffff1614610c5f576040517f08c379a0000000000000000000000000000000000000000000000000000000008152600401610c56906125fb565b60405180910390fd5b5b5050565b6000808573ffffffffffffffffffffffffffffffffffffffff166323b872dd868686604051602401610c989392919061261b565b6040516020818303038152906040529060e01b6020820180517bffffffffffffffffffffffffffffffffffffffffffffffffffffffff8381831617835250505050604051610ce69190612472565b6000604051808303816000865af19150503d8060008114610d23576040519150601f19603f3d011682016040523d82523d6000602084013e610d28565b606091505b5091509150818015610d565750600081511480610d55575080806020019051810190610d5491906124c1565b5b5b610d95576040517f08c379a0000000000000000000000000000000000000000000000000000000008152600401610d8c906126c4565b60405180910390fd5b505050505050565b6000808473ffffffffffffffffffffffffffffffffffffffff1663095ea7b38585604051602401610dcf9291906123d8565b6040516020818303038152906040529060e01b6020820180517bffffffffffffffffffffffffffffffffffffffffffffffffffffffff8381831617835250505050604051610e1d9190612472565b6000604051808303816000865af19150503d8060008114610e5a576040519150601f19603f3d011682016040523d82523d6000602084013e610e5f565b606091505b5091509150818015610e8d5750600081511480610e8c575080806020019051810190610e8b91906124c1565b5b5b610ecc576040517f08c379a0000000000000000000000000000000000000000000000000000000008152600401610ec390612756565b60405180910390fd5b5050505050565b6000808473ffffffffffffffffffffffffffffffffffffffff168484604051610efc9190612472565b60006040518083038185875af1925050503d8060008114610f39576040519150601f19603f3d011682016040523d82523d6000602084013e610f3e565b606091505b509150915081610fe357604481511015610f8d576040517f08c379a0000000000000000000000000000000000000000000000000000000008152600401610f84906127e8565b60405180910390fd5b60048101905080806020019051810190610fa791906128a9565b6040517f08c379a0000000000000000000000000000000000000000000000000000000008152600401610fda9190612936565b60405180910390fd5b5050505050565b60008273ffffffffffffffffffffffffffffffffffffffff1682600067ffffffffffffffff81111561101f5761101e61175e565b5b6040519080825280601f01601f1916602001820160405280156110515781602001600182028036833780820191505090505b5060405161105f9190612472565b60006040518083038185875af1925050503d806000811461109c576040519150601f19603f3d011682016040523d82523d6000602084013e6110a1565b606091505b50509050806110e5576040517f08c379a00000000000000000000000000000000000000000000000000000000081526004016110dc906129ca565b60405180910390fd5b505050565b60008060009054906101000a900473ffffffffffffffffffffffffffffffffffffffff169050816000806101000a81548173ffffffffffffffffffffffffffffffffffffffff021916908373ffffffffffffffffffffffffffffffffffffffff1602179055508173ffffffffffffffffffffffffffffffffffffffff168173ffffffffffffffffffffffffffffffffffffffff167f8be0079c531659141344cd1fd0a4f28419497f9722a3daafe3b4186f6b6457e060405160405180910390a35050565b600081805190602001209050919050565b60008060006111ce85856111ee565b915091506111db8161123f565b819250505092915050565b600033905090565b600080604183510361122f5760008060006020860151925060408601519150606086015160001a9050611223878285856113a5565b94509450505050611238565b60006002915091505b9250929050565b60006004811115611253576112526129ea565b5b816004811115611266576112656129ea565b5b03156113a257600160048111156112805761127f6129ea565b5b816004811115611293576112926129ea565b5b036112d3576040517f08c379a00000000000000000000000000000000000000000000000000000000081526004016112ca90612a65565b60405180910390fd5b600260048111156112e7576112e66129ea565b5b8160048111156112fa576112f96129ea565b5b0361133a576040517f08c379a000000000000000000000000000000000000000000000000000000000815260040161133190612ad1565b60405180910390fd5b6003600481111561134e5761134d6129ea565b5b816004811115611361576113606129ea565b5b036113a1576040517f08c379a000000000000000000000000000000000000000000000000000000000815260040161139890612b63565b60405180910390fd5b5b50565b6000807f7fffffffffffffffffffffffffffffff5d576e7357a4501ddfe92f46681b20a08360001c11156113e057600060039150915061147e565b6000600187878787604051600081526020016040526040516114059493929190612bab565b6020604051602081039080840390855afa158015611427573d6000803e3d6000fd5b505050602060405103519050600073ffffffffffffffffffffffffffffffffffffffff168173ffffffffffffffffffffffffffffffffffffffff16036114755760006001925092505061147e565b80600092509250505b94509492505050565b6000604051905090565b600080fd5b600080fd5b600073ffffffffffffffffffffffffffffffffffffffff82169050919050565b60006114c68261149b565b9050919050565b6114d6816114bb565b81146114e157600080fd5b50565b6000813590506114f3816114cd565b92915050565b6000819050919050565b61150c816114f9565b811461151757600080fd5b50565b60008135905061152981611503565b92915050565b60008060006060848603121561154857611547611491565b5b6000611556868287016114e4565b9350506020611567868287016114e4565b92505060406115788682870161151a565b9150509250925092565b60006020828403121561159857611597611491565b5b60006115a6848285016114e4565b91505092915050565b6115b8816114f9565b82525050565b60006020820190506115d360008301846115af565b92915050565b600080fd5b600060c082840312156115f4576115f36115d9565b5b81905092915050565b600080fd5b600080fd5b600080fd5b60008083601f840112611622576116216115fd565b5b8235905067ffffffffffffffff81111561163f5761163e611602565b5b60208301915083600182028301111561165b5761165a611607565b5b9250929050565b60008060006040848603121561167b5761167a611491565b5b600084013567ffffffffffffffff81111561169957611698611496565b5b6116a5868287016115de565b935050602084013567ffffffffffffffff8111156116c6576116c5611496565b5b6116d28682870161160c565b92509250509250925092565b6116e7816114bb565b82525050565b600060208201905061170260008301846116de565b92915050565b6000806040838503121561171f5761171e611491565b5b600061172d858286016114e4565b925050602061173e8582860161151a565b9150509250929050565b600080fd5b6000601f19601f8301169050919050565b7f4e487b7100000000000000000000000000000000000000000000000000000000600052604160045260246000fd5b6117968261174d565b810181811067ffffffffffffffff821117156117b5576117b461175e565b5b80604052505050565b60006117c8611487565b90506117d4828261178d565b919050565b600067ffffffffffffffff8211156117f4576117f361175e565b5b6117fd8261174d565b9050602081019050919050565b82818337600083830152505050565b600061182c611827846117d9565b6117be565b90508281526020810184848401111561184857611847611748565b5b61185384828561180a565b509392505050565b600082601f8301126118705761186f6115fd565b5b8135611880848260208601611819565b91505092915050565b600080604083850312156118a05761189f611491565b5b600083013567ffffffffffffffff8111156118be576118bd611496565b5b6118ca858286016115de565b925050602083013567ffffffffffffffff8111156118eb576118ea611496565b5b6118f78582860161185b565b9150509250929050565b600067ffffffffffffffff82111561191c5761191b61175e565b5b602082029050602081019050919050565b600080fd5b600060ff82169050919050565b61194881611932565b811461195357600080fd5b50565b6000813590506119658161193f565b92915050565b6000608082840312156119815761198061192d565b5b61198b60806117be565b9050600061199b848285016114e4565b60008301525060206119af848285016114e4565b60208301525060406119c3848285016114e4565b60408301525060606119d784828501611956565b60608301525092915050565b60006119f66119f184611901565b6117be565b90508083825260208201905060808402830185811115611a1957611a18611607565b5b835b81811015611a425780611a2e888261196b565b845260208401935050608081019050611a1b565b5050509392505050565b600082601f830112611a6157611a606115fd565b5b8135611a718482602086016119e3565b91505092915050565b600060208284031215611a9057611a8f611491565b5b600082013567ffffffffffffffff811115611aae57611aad611496565b5b611aba84828501611a4c565b91505092915050565b600081519050919050565b600082825260208201905092915050565b6000819050602082019050919050565b611af8816114bb565b82525050565b611b07816114f9565b82525050565b600062ffffff82169050919050565b611b2581611b0d565b82525050565b608082016000820151611b416000850182611aef565b506020820151611b546020850182611aef565b506040820151611b676040850182611afe565b506060820151611b7a6060850182611b1c565b50505050565b6000611b8c8383611b2b565b60808301905092915050565b6000602082019050919050565b6000611bb082611ac3565b611bba8185611ace565b9350611bc583611adf565b8060005b83811015611bf6578151611bdd8882611b80565b9750611be883611b98565b925050600181019050611bc9565b5085935050505092915050565b60006020820190508181036000830152611c1d8184611ba5565b905092915050565b600081519050611c3481611503565b92915050565b600060208284031215611c5057611c4f611491565b5b6000611c5e84828501611c25565b91505092915050565b600082825260208201905092915050565b7f696e76616c65642073656e646572000000000000000000000000000000000000600082015250565b6000611cae600e83611c67565b9150611cb982611c78565b602082019050919050565b60006020820190508181036000830152611cdd81611ca1565b9050919050565b6000611cf360208401846114e4565b905092915050565b6000611d0a602084018461151a565b905092915050565b600080fd5b600080fd5b600080fd5b60008083356001602003843603038112611d3e57611d3d611d1c565b5b83810192508235915060208301925067ffffffffffffffff821115611d6657611d65611d12565b5b600182023603831315611d7c57611d7b611d17565b5b509250929050565b600082825260208201905092915050565b6000611da18385611d84565b9350611dae83858461180a565b611db78361174d565b840190509392505050565b600060c08301611dd56000840184611ce4565b611de26000860182611aef565b50611df06020840184611cfb565b611dfd6020860182611afe565b50611e0b6040840184611cfb565b611e186040860182611afe565b50611e266060840184611ce4565b611e336060860182611aef565b50611e416080840184611d21565b8583036080870152611e54838284611d95565b92505050611e6560a0840184611ce4565b611e7260a0860182611aef565b508091505092915050565b60006020820190508181036000830152611e978184611dc2565b905092915050565b7f4e487b7100000000000000000000000000000000000000000000000000000000600052601160045260246000fd5b6000611ed9826114f9565b9150611ee4836114f9565b9250828203905081811115611efc57611efb611e9f565b5b92915050565b600080fd5b600080fd5b600080fd5b60008083356001602003843603038112611f2e57611f2d611f02565b5b80840192508235915067ffffffffffffffff821115611f5057611f4f611f07565b5b602083019250600182023603831315611f6c57611f6b611f0c565b5b509250929050565b7f696e73756666696369656e7420696e70757420616d6f756e7400000000000000600082015250565b6000611faa601983611c67565b9150611fb582611f74565b602082019050919050565b60006020820190508181036000830152611fd981611f9d565b9050919050565b7f4f776e61626c653a206e6577206f776e657220697320746865207a65726f206160008201527f6464726573730000000000000000000000000000000000000000000000000000602082015250565b600061203c602683611c67565b915061204782611fe0565b604082019050919050565b6000602082019050818103600083015261206b8161202f565b9050919050565b600081519050919050565b600082825260208201905092915050565b6000819050602082019050919050565b6120a781611932565b82525050565b6080820160008201516120c36000850182611aef565b5060208201516120d66020850182611aef565b5060408201516120e96040850182611aef565b5060608201516120fc606085018261209e565b50505050565b600061210e83836120ad565b60808301905092915050565b6000602082019050919050565b600061213282612072565b61213c818561207d565b93506121478361208e565b8060005b8381101561217857815161215f8882612102565b975061216a8361211a565b92505060018101905061214b565b5085935050505092915050565b6000602082019050818103600083015261219f8184612127565b905092915050565b600067ffffffffffffffff8211156121c2576121c161175e565b5b602082029050602081019050919050565b6000815190506121e2816114cd565b92915050565b6121f181611b0d565b81146121fc57600080fd5b50565b60008151905061220e816121e8565b92915050565b60006080828403121561222a5761222961192d565b5b61223460806117be565b90506000612244848285016121d3565b6000830152506020612258848285016121d3565b602083015250604061226c84828501611c25565b6040830152506060612280848285016121ff565b60608301525092915050565b600061229f61229a846121a7565b6117be565b905080838252602082019050608084028301858111156122c2576122c1611607565b5b835b818110156122eb57806122d78882612214565b8452602084019350506080810190506122c4565b5050509392505050565b600082601f83011261230a576123096115fd565b5b815161231a84826020860161228c565b91505092915050565b60006020828403121561233957612338611491565b5b600082015167ffffffffffffffff81111561235757612356611496565b5b612363848285016122f5565b91505092915050565b7f4f776e61626c653a2063616c6c6572206973206e6f7420746865206f776e6572600082015250565b60006123a2602083611c67565b91506123ad8261236c565b602082019050919050565b600060208201905081810360008301526123d181612395565b9050919050565b60006040820190506123ed60008301856116de565b6123fa60208301846115af565b9392505050565b600081519050919050565b600081905092915050565b60005b8381101561243557808201518184015260208101905061241a565b60008484015250505050565b600061244c82612401565b612456818561240c565b9350612466818560208601612417565b80840191505092915050565b600061247e8284612441565b915081905092915050565b60008115159050919050565b61249e81612489565b81146124a957600080fd5b50565b6000815190506124bb81612495565b92915050565b6000602082840312156124d7576124d6611491565b5b60006124e5848285016124ac565b91505092915050565b7f45786368616e676541676772656761746f723a3a5472616e7366657248656c7060008201527f65723a736166655472616e736665720000000000000000000000000000000000602082015250565b600061254a602f83611c67565b9150612555826124ee565b604082019050919050565b600060208201905081810360008301526125798161253d565b9050919050565b7f4e487b7100000000000000000000000000000000000000000000000000000000600052603260045260246000fd5b7f646174612074616d706572656400000000000000000000000000000000000000600082015250565b60006125e5600d83611c67565b91506125f0826125af565b602082019050919050565b60006020820190508181036000830152612614816125d8565b9050919050565b600060608201905061263060008301866116de565b61263d60208301856116de565b61264a60408301846115af565b949350505050565b7f45786368616e676541676772656761746f723a3a5472616e7366657248656c7060008201527f65723a736166655472616e7366657246726f6d00000000000000000000000000602082015250565b60006126ae603383611c67565b91506126b982612652565b604082019050919050565b600060208201905081810360008301526126dd816126a1565b9050919050565b7f45786368616e676541676772656761746f723a3a5472616e7366657248656c7060008201527f65723a73616665417070726f7665000000000000000000000000000000000000602082015250565b6000612740602e83611c67565b915061274b826126e4565b604082019050919050565b6000602082019050818103600083015261276f81612733565b9050919050565b7f45786368616e676541676772656761746f723a3a5361666543616c6c65723a7360008201527f61666543616c6c00000000000000000000000000000000000000000000000000602082015250565b60006127d2602783611c67565b91506127dd82612776565b604082019050919050565b60006020820190508181036000830152612801816127c5565b9050919050565b600067ffffffffffffffff8211156128235761282261175e565b5b61282c8261174d565b9050602081019050919050565b600061284c61284784612808565b6117be565b90508281526020810184848401111561286857612867611748565b5b612873848285612417565b509392505050565b600082601f8301126128905761288f6115fd565b5b81516128a0848260208601612839565b91505092915050565b6000602082840312156128bf576128be611491565b5b600082015167ffffffffffffffff8111156128dd576128dc611496565b5b6128e98482850161287b565b91505092915050565b600081519050919050565b6000612908826128f2565b6129128185611c67565b9350612922818560208601612417565b61292b8161174d565b840191505092915050565b6000602082019050818103600083015261295081846128fd565b905092915050565b7f45786368616e676541676772656761746f723a3a5472616e7366657248656c7060008201527f65723a736166655472616e736665724554480000000000000000000000000000602082015250565b60006129b4603283611c67565b91506129bf82612958565b604082019050919050565b600060208201905081810360008301526129e3816129a7565b9050919050565b7f4e487b7100000000000000000000000000000000000000000000000000000000600052602160045260246000fd5b7f45434453413a20696e76616c6964207369676e61747572650000000000000000600082015250565b6000612a4f601883611c67565b9150612a5a82612a19565b602082019050919050565b60006020820190508181036000830152612a7e81612a42565b9050919050565b7f45434453413a20696e76616c6964207369676e6174757265206c656e67746800600082015250565b6000612abb601f83611c67565b9150612ac682612a85565b602082019050919050565b60006020820190508181036000830152612aea81612aae565b9050919050565b7f45434453413a20696e76616c6964207369676e6174757265202773272076616c60008201527f7565000000000000000000000000000000000000000000000000000000000000602082015250565b6000612b4d602283611c67565b9150612b5882612af1565b604082019050919050565b60006020820190508181036000830152612b7c81612b40565b9050919050565b6000819050919050565b612b9681612b83565b82525050565b612ba581611932565b82525050565b6000608082019050612bc06000830187612b8d565b612bcd6020830186612b9c565b612bda6040830185612b8d565b612be76060830184612b8d565b9594505050505056fea2646970667358221220c36d5ef49f02a5a7d4545eea6612a6520fef8387e45d75e0920220e0677912d164736f6c63430008110033",
					"opcodes": "PUSH1 0x80 PUSH1 0x40 MSTORE CALLVALUE DUP1 ISZERO PUSH3 0x11 JUMPI PUSH1 0x0 DUP1 REVERT JUMPDEST POP PUSH1 0x40 MLOAD PUSH3 0x2E94 CODESIZE SUB DUP1 PUSH3 0x2E94 DUP4 CODECOPY DUP2 DUP2 ADD PUSH1 0x40 MSTORE DUP2 ADD SWAP1 PUSH3 0x37 SWAP2 SWAP1 PUSH3 0x217 JUMP JUMPDEST PUSH3 0x57 PUSH3 0x4B PUSH3 0xE1 PUSH1 0x20 SHL PUSH1 0x20 SHR JUMP JUMPDEST PUSH3 0xE9 PUSH1 0x20 SHL PUSH1 0x20 SHR JUMP JUMPDEST DUP2 PUSH1 0x1 PUSH1 0x0 PUSH2 0x100 EXP DUP2 SLOAD DUP2 PUSH20 0xFFFFFFFFFFFFFFFFFFFFFFFFFFFFFFFFFFFFFFFF MUL NOT AND SWAP1 DUP4 PUSH20 0xFFFFFFFFFFFFFFFFFFFFFFFFFFFFFFFFFFFFFFFF AND MUL OR SWAP1 SSTORE POP DUP1 PUSH1 0x2 PUSH1 0x0 PUSH2 0x100 EXP DUP2 SLOAD DUP2 PUSH20 0xFFFFFFFFFFFFFFFFFFFFFFFFFFFFFFFFFFFFFFFF MUL NOT AND SWAP1 DUP4 PUSH20 0xFFFFFFFFFFFFFFFFFFFFFFFFFFFFFFFFFFFFFFFF AND MUL OR SWAP1 SSTORE POP POP POP PUSH3 0x25E JUMP JUMPDEST PUSH1 0x0 CALLER SWAP1 POP SWAP1 JUMP JUMPDEST PUSH1 0x0 DUP1 PUSH1 0x0 SWAP1 SLOAD SWAP1 PUSH2 0x100 EXP SWAP1 DIV PUSH20 0xFFFFFFFFFFFFFFFFFFFFFFFFFFFFFFFFFFFFFFFF AND SWAP1 POP DUP2 PUSH1 0x0 DUP1 PUSH2 0x100 EXP DUP2 SLOAD DUP2 PUSH20 0xFFFFFFFFFFFFFFFFFFFFFFFFFFFFFFFFFFFFFFFF MUL NOT AND SWAP1 DUP4 PUSH20 0xFFFFFFFFFFFFFFFFFFFFFFFFFFFFFFFFFFFFFFFF AND MUL OR SWAP1 SSTORE POP DUP2 PUSH20 0xFFFFFFFFFFFFFFFFFFFFFFFFFFFFFFFFFFFFFFFF AND DUP2 PUSH20 0xFFFFFFFFFFFFFFFFFFFFFFFFFFFFFFFFFFFFFFFF AND PUSH32 0x8BE0079C531659141344CD1FD0A4F28419497F9722A3DAAFE3B4186F6B6457E0 PUSH1 0x40 MLOAD PUSH1 0x40 MLOAD DUP1 SWAP2 SUB SWAP1 LOG3 POP POP JUMP JUMPDEST PUSH1 0x0 DUP1 REVERT JUMPDEST PUSH1 0x0 PUSH20 0xFFFFFFFFFFFFFFFFFFFFFFFFFFFFFFFFFFFFFFFF DUP3 AND SWAP1 POP SWAP2 SWAP1 POP JUMP JUMPDEST PUSH1 0x0 PUSH3 0x1DF DUP3 PUSH3 0x1B2 JUMP JUMPDEST SWAP1 POP SWAP2 SWAP1 POP JUMP JUMPDEST PUSH3 0x1F1 DUP2 PUSH3 0x1D2 JUMP JUMPDEST DUP2 EQ PUSH3 0x1FD JUMPI PUSH1 0x0 DUP1 REVERT JUMPDEST POP JUMP JUMPDEST PUSH1 0x0 DUP2 MLOAD SWAP1 POP PUSH3 0x211 DUP2 PUSH3 0x1E6 JUMP JUMPDEST SWAP3 SWAP2 POP POP JUMP JUMPDEST PUSH1 0x0 DUP1 PUSH1 0x40 DUP4 DUP6 SUB SLT ISZERO PUSH3 0x231 JUMPI PUSH3 0x230 PUSH3 0x1AD JUMP JUMPDEST JUMPDEST PUSH1 0x0 PUSH3 0x241 DUP6 DUP3 DUP7 ADD PUSH3 0x200 JUMP JUMPDEST SWAP3 POP POP PUSH1 0x20 PUSH3 0x254 DUP6 DUP3 DUP7 ADD PUSH3 0x200 JUMP JUMPDEST SWAP2 POP POP SWAP3 POP SWAP3 SWAP1 POP JUMP JUMPDEST PUSH2 0x2C26 DUP1 PUSH3 0x26E PUSH1 0x0 CODECOPY PUSH1 0x0 RETURN INVALID PUSH1 0x80 PUSH1 0x40 MSTORE PUSH1 0x4 CALLDATASIZE LT PUSH2 0xC2 JUMPI PUSH1 0x0 CALLDATALOAD PUSH1 0xE0 SHR DUP1 PUSH4 0x715018A6 GT PUSH2 0x7F JUMPI DUP1 PUSH4 0xB0867883 GT PUSH2 0x59 JUMPI DUP1 PUSH4 0xB0867883 EQ PUSH2 0x233 JUMPI DUP1 PUSH4 0xECBDBB32 EQ PUSH2 0x270 JUMPI DUP1 PUSH4 0xF2FDE38B EQ PUSH2 0x29B JUMPI DUP1 PUSH4 0xFF514FA3 EQ PUSH2 0x2C4 JUMPI PUSH2 0xC2 JUMP JUMPDEST DUP1 PUSH4 0x715018A6 EQ PUSH2 0x1C6 JUMPI DUP1 PUSH4 0x8DA5CB5B EQ PUSH2 0x1DD JUMPI DUP1 PUSH4 0xAD5C4648 EQ PUSH2 0x208 JUMPI PUSH2 0xC2 JUMP JUMPDEST DUP1 PUSH4 0x1E33667 EQ PUSH2 0xC7 JUMPI DUP1 PUSH4 0x4599012 EQ PUSH2 0xF0 JUMPI DUP1 PUSH4 0x2906799B EQ PUSH2 0x12D JUMPI DUP1 PUSH4 0x3078FFF5 EQ PUSH2 0x156 JUMPI DUP1 PUSH4 0x4782F779 EQ PUSH2 0x181 JUMPI DUP1 PUSH4 0x5D86ACF1 EQ PUSH2 0x1AA JUMPI JUMPDEST PUSH1 0x0 DUP1 REVERT JUMPDEST CALLVALUE DUP1 ISZERO PUSH2 0xD3 JUMPI PUSH1 0x0 DUP1 REVERT JUMPDEST POP PUSH2 0xEE PUSH1 0x4 DUP1 CALLDATASIZE SUB DUP2 ADD SWAP1 PUSH2 0xE9 SWAP2 SWAP1 PUSH2 0x152F JUMP JUMPDEST PUSH2 0x301 JUMP JUMPDEST STOP JUMPDEST CALLVALUE DUP1 ISZERO PUSH2 0xFC JUMPI PUSH1 0x0 DUP1 REVERT JUMPDEST POP PUSH2 0x117 PUSH1 0x4 DUP1 CALLDATASIZE SUB DUP2 ADD SWAP1 PUSH2 0x112 SWAP2 SWAP1 PUSH2 0x1582 JUMP JUMPDEST PUSH2 0x319 JUMP JUMPDEST PUSH1 0x40 MLOAD PUSH2 0x124 SWAP2 SWAP1 PUSH2 0x15BE JUMP JUMPDEST PUSH1 0x40 MLOAD DUP1 SWAP2 SUB SWAP1 RETURN JUMPDEST CALLVALUE DUP1 ISZERO PUSH2 0x139 JUMPI PUSH1 0x0 DUP1 REVERT JUMPDEST POP PUSH2 0x154 PUSH1 0x4 DUP1 CALLDATASIZE SUB DUP2 ADD SWAP1 PUSH2 0x14F SWAP2 SWAP1 PUSH2 0x1662 JUMP JUMPDEST PUSH2 0x39C JUMP JUMPDEST STOP JUMPDEST CALLVALUE DUP1 ISZERO PUSH2 0x162 JUMPI PUSH1 0x0 DUP1 REVERT JUMPDEST POP PUSH2 0x16B PUSH2 0x562 JUMP JUMPDEST PUSH1 0x40 MLOAD PUSH2 0x178 SWAP2 SWAP1 PUSH2 0x16ED JUMP JUMPDEST PUSH1 0x40 MLOAD DUP1 SWAP2 SUB SWAP1 RETURN JUMPDEST CALLVALUE DUP1 ISZERO PUSH2 0x18D JUMPI PUSH1 0x0 DUP1 REVERT JUMPDEST POP PUSH2 0x1A8 PUSH1 0x4 DUP1 CALLDATASIZE SUB DUP2 ADD SWAP1 PUSH2 0x1A3 SWAP2 SWAP1 PUSH2 0x1708 JUMP JUMPDEST PUSH2 0x588 JUMP JUMPDEST STOP JUMPDEST PUSH2 0x1C4 PUSH1 0x4 DUP1 CALLDATASIZE SUB DUP2 ADD SWAP1 PUSH2 0x1BF SWAP2 SWAP1 PUSH2 0x1662 JUMP JUMPDEST PUSH2 0x59E JUMP JUMPDEST STOP JUMPDEST CALLVALUE DUP1 ISZERO PUSH2 0x1D2 JUMPI PUSH1 0x0 DUP1 REVERT JUMPDEST POP PUSH2 0x1DB PUSH2 0x75B JUMP JUMPDEST STOP JUMPDEST CALLVALUE DUP1 ISZERO PUSH2 0x1E9 JUMPI PUSH1 0x0 DUP1 REVERT JUMPDEST POP PUSH2 0x1F2 PUSH2 0x76F JUMP JUMPDEST PUSH1 0x40 MLOAD PUSH2 0x1FF SWAP2 SWAP1 PUSH2 0x16ED JUMP JUMPDEST PUSH1 0x40 MLOAD DUP1 SWAP2 SUB SWAP1 RETURN JUMPDEST CALLVALUE DUP1 ISZERO PUSH2 0x214 JUMPI PUSH1 0x0 DUP1 REVERT JUMPDEST POP PUSH2 0x21D PUSH2 0x798 JUMP JUMPDEST PUSH1 0x40 MLOAD PUSH2 0x22A SWAP2 SWAP1 PUSH2 0x16ED JUMP JUMPDEST PUSH1 0x40 MLOAD DUP1 SWAP2 SUB SWAP1 RETURN JUMPDEST CALLVALUE DUP1 ISZERO PUSH2 0x23F JUMPI PUSH1 0x0 DUP1 REVERT JUMPDEST POP PUSH2 0x25A PUSH1 0x4 DUP1 CALLDATASIZE SUB DUP2 ADD SWAP1 PUSH2 0x255 SWAP2 SWAP1 PUSH2 0x1889 JUMP JUMPDEST PUSH2 0x7BE JUMP JUMPDEST PUSH1 0x40 MLOAD PUSH2 0x267 SWAP2 SWAP1 PUSH2 0x16ED JUMP JUMPDEST PUSH1 0x40 MLOAD DUP1 SWAP2 SUB SWAP1 RETURN JUMPDEST CALLVALUE DUP1 ISZERO PUSH2 0x27C JUMPI PUSH1 0x0 DUP1 REVERT JUMPDEST POP PUSH2 0x285 PUSH2 0x802 JUMP JUMPDEST PUSH1 0x40 MLOAD PUSH2 0x292 SWAP2 SWAP1 PUSH2 0x15BE JUMP JUMPDEST PUSH1 0x40 MLOAD DUP1 SWAP2 SUB SWAP1 RETURN JUMPDEST CALLVALUE DUP1 ISZERO PUSH2 0x2A7 JUMPI PUSH1 0x0 DUP1 REVERT JUMPDEST POP PUSH2 0x2C2 PUSH1 0x4 DUP1 CALLDATASIZE SUB DUP2 ADD SWAP1 PUSH2 0x2BD SWAP2 SWAP1 PUSH2 0x1582 JUMP JUMPDEST PUSH2 0x80A JUMP JUMPDEST STOP JUMPDEST CALLVALUE DUP1 ISZERO PUSH2 0x2D0 JUMPI PUSH1 0x0 DUP1 REVERT JUMPDEST POP PUSH2 0x2EB PUSH1 0x4 DUP1 CALLDATASIZE SUB DUP2 ADD SWAP1 PUSH2 0x2E6 SWAP2 SWAP1 PUSH2 0x1A7A JUMP JUMPDEST PUSH2 0x88D JUMP JUMPDEST PUSH1 0x40 MLOAD PUSH2 0x2F8 SWAP2 SWAP1 PUSH2 0x1C03 JUMP JUMPDEST PUSH1 0x40 MLOAD DUP1 SWAP2 SUB SWAP1 RETURN JUMPDEST PUSH2 0x309 PUSH2 0x937 JUMP JUMPDEST PUSH2 0x314 DUP4 DUP4 DUP4 PUSH2 0x9B5 JUMP JUMPDEST POP POP POP JUMP JUMPDEST PUSH1 0x0 DUP2 PUSH20 0xFFFFFFFFFFFFFFFFFFFFFFFFFFFFFFFFFFFFFFFF AND PUSH4 0x70A08231 ADDRESS PUSH1 0x40 MLOAD DUP3 PUSH4 0xFFFFFFFF AND PUSH1 0xE0 SHL DUP2 MSTORE PUSH1 0x4 ADD PUSH2 0x354 SWAP2 SWAP1 PUSH2 0x16ED JUMP JUMPDEST PUSH1 0x20 PUSH1 0x40 MLOAD DUP1 DUP4 SUB DUP2 DUP7 GAS STATICCALL ISZERO DUP1 ISZERO PUSH2 0x371 JUMPI RETURNDATASIZE PUSH1 0x0 DUP1 RETURNDATACOPY RETURNDATASIZE PUSH1 0x0 REVERT JUMPDEST POP POP POP POP PUSH1 0x40 MLOAD RETURNDATASIZE PUSH1 0x1F NOT PUSH1 0x1F DUP3 ADD AND DUP3 ADD DUP1 PUSH1 0x40 MSTORE POP DUP2 ADD SWAP1 PUSH2 0x395 SWAP2 SWAP1 PUSH2 0x1C3A JUMP JUMPDEST SWAP1 POP SWAP2 SWAP1 POP JUMP JUMPDEST CALLER PUSH20 0xFFFFFFFFFFFFFFFFFFFFFFFFFFFFFFFFFFFFFFFF AND DUP4 PUSH1 0xA0 ADD PUSH1 0x20 DUP2 ADD SWAP1 PUSH2 0x3C6 SWAP2 SWAP1 PUSH2 0x1582 JUMP JUMPDEST PUSH20 0xFFFFFFFFFFFFFFFFFFFFFFFFFFFFFFFFFFFFFFFF AND EQ PUSH2 0x41C JUMPI PUSH1 0x40 MLOAD PUSH32 0x8C379A000000000000000000000000000000000000000000000000000000000 DUP2 MSTORE PUSH1 0x4 ADD PUSH2 0x413 SWAP1 PUSH2 0x1CC4 JUMP JUMPDEST PUSH1 0x40 MLOAD DUP1 SWAP2 SUB SWAP1 REVERT JUMPDEST PUSH2 0x489 DUP4 PUSH1 0x40 MLOAD PUSH1 0x20 ADD PUSH2 0x430 SWAP2 SWAP1 PUSH2 0x1E7D JUMP JUMPDEST PUSH1 0x40 MLOAD PUSH1 0x20 DUP2 DUP4 SUB SUB DUP2 MSTORE SWAP1 PUSH1 0x40 MSTORE DUP4 DUP4 DUP1 DUP1 PUSH1 0x1F ADD PUSH1 0x20 DUP1 SWAP2 DIV MUL PUSH1 0x20 ADD PUSH1 0x40 MLOAD SWAP1 DUP2 ADD PUSH1 0x40 MSTORE DUP1 SWAP4 SWAP3 SWAP2 SWAP1 DUP2 DUP2 MSTORE PUSH1 0x20 ADD DUP4 DUP4 DUP1 DUP3 DUP5 CALLDATACOPY PUSH1 0x0 DUP2 DUP5 ADD MSTORE PUSH1 0x1F NOT PUSH1 0x1F DUP3 ADD AND SWAP1 POP DUP1 DUP4 ADD SWAP3 POP POP POP POP POP POP POP PUSH2 0xAEB JUMP JUMPDEST PUSH2 0x4AB DUP4 PUSH1 0x0 ADD PUSH1 0x20 DUP2 ADD SWAP1 PUSH2 0x49F SWAP2 SWAP1 PUSH2 0x1582 JUMP JUMPDEST CALLER ADDRESS DUP7 PUSH1 0x20 ADD CALLDATALOAD PUSH2 0xC64 JUMP JUMPDEST PUSH2 0x4ED DUP4 PUSH1 0x0 ADD PUSH1 0x20 DUP2 ADD SWAP1 PUSH2 0x4C1 SWAP2 SWAP1 PUSH2 0x1582 JUMP JUMPDEST DUP5 PUSH1 0x60 ADD PUSH1 0x20 DUP2 ADD SWAP1 PUSH2 0x4D4 SWAP2 SWAP1 PUSH2 0x1582 JUMP JUMPDEST DUP6 PUSH1 0x40 ADD CALLDATALOAD DUP7 PUSH1 0x20 ADD CALLDATALOAD PUSH2 0x4E8 SWAP2 SWAP1 PUSH2 0x1ECE JUMP JUMPDEST PUSH2 0xD9D JUMP JUMPDEST PUSH2 0x55D DUP4 PUSH1 0x60 ADD PUSH1 0x20 DUP2 ADD SWAP1 PUSH2 0x503 SWAP2 SWAP1 PUSH2 0x1582 JUMP JUMPDEST PUSH1 0x0 DUP6 DUP1 PUSH1 0x80 ADD SWAP1 PUSH2 0x515 SWAP2 SWAP1 PUSH2 0x1F11 JUMP JUMPDEST DUP1 DUP1 PUSH1 0x1F ADD PUSH1 0x20 DUP1 SWAP2 DIV MUL PUSH1 0x20 ADD PUSH1 0x40 MLOAD SWAP1 DUP2 ADD PUSH1 0x40 MSTORE DUP1 SWAP4 SWAP3 SWAP2 SWAP1 DUP2 DUP2 MSTORE PUSH1 0x20 ADD DUP4 DUP4 DUP1 DUP3 DUP5 CALLDATACOPY PUSH1 0x0 DUP2 DUP5 ADD MSTORE PUSH1 0x1F NOT PUSH1 0x1F DUP3 ADD AND SWAP1 POP DUP1 DUP4 ADD SWAP3 POP POP POP POP POP POP POP PUSH2 0xED3 JUMP JUMPDEST POP POP POP JUMP JUMPDEST PUSH1 0x2 PUSH1 0x0 SWAP1 SLOAD SWAP1 PUSH2 0x100 EXP SWAP1 DIV PUSH20 0xFFFFFFFFFFFFFFFFFFFFFFFFFFFFFFFFFFFFFFFF AND DUP2 JUMP JUMPDEST PUSH2 0x590 PUSH2 0x937 JUMP JUMPDEST PUSH2 0x59A DUP3 DUP3 PUSH2 0xFEA JUMP JUMPDEST POP POP JUMP JUMPDEST CALLER PUSH20 0xFFFFFFFFFFFFFFFFFFFFFFFFFFFFFFFFFFFFFFFF AND DUP4 PUSH1 0xA0 ADD PUSH1 0x20 DUP2 ADD SWAP1 PUSH2 0x5C8 SWAP2 SWAP1 PUSH2 0x1582 JUMP JUMPDEST PUSH20 0xFFFFFFFFFFFFFFFFFFFFFFFFFFFFFFFFFFFFFFFF AND EQ PUSH2 0x61E JUMPI PUSH1 0x40 MLOAD PUSH32 0x8C379A000000000000000000000000000000000000000000000000000000000 DUP2 MSTORE PUSH1 0x4 ADD PUSH2 0x615 SWAP1 PUSH2 0x1CC4 JUMP JUMPDEST PUSH1 0x40 MLOAD DUP1 SWAP2 SUB SWAP1 REVERT JUMPDEST PUSH2 0x68B DUP4 PUSH1 0x40 MLOAD PUSH1 0x20 ADD PUSH2 0x632 SWAP2 SWAP1 PUSH2 0x1E7D JUMP JUMPDEST PUSH1 0x40 MLOAD PUSH1 0x20 DUP2 DUP4 SUB SUB DUP2 MSTORE SWAP1 PUSH1 0x40 MSTORE DUP4 DUP4 DUP1 DUP1 PUSH1 0x1F ADD PUSH1 0x20 DUP1 SWAP2 DIV MUL PUSH1 0x20 ADD PUSH1 0x40 MLOAD SWAP1 DUP2 ADD PUSH1 0x40 MSTORE DUP1 SWAP4 SWAP3 SWAP2 SWAP1 DUP2 DUP2 MSTORE PUSH1 0x20 ADD DUP4 DUP4 DUP1 DUP3 DUP5 CALLDATACOPY PUSH1 0x0 DUP2 DUP5 ADD MSTORE PUSH1 0x1F NOT PUSH1 0x1F DUP3 ADD AND SWAP1 POP DUP1 DUP4 ADD SWAP3 POP POP POP POP POP POP POP PUSH2 0xAEB JUMP JUMPDEST DUP3 PUSH1 0x20 ADD CALLDATALOAD CALLVALUE LT ISZERO PUSH2 0x6D2 JUMPI PUSH1 0x40 MLOAD PUSH32 0x8C379A000000000000000000000000000000000000000000000000000000000 DUP2 MSTORE PUSH1 0x4 ADD PUSH2 0x6C9 SWAP1 PUSH2 0x1FC0 JUMP JUMPDEST PUSH1 0x40 MLOAD DUP1 SWAP2 SUB SWAP1 REVERT JUMPDEST PUSH1 0x0 DUP4 PUSH1 0x40 ADD CALLDATALOAD CALLVALUE PUSH2 0x6E4 SWAP2 SWAP1 PUSH2 0x1ECE JUMP JUMPDEST SWAP1 POP PUSH2 0x755 DUP5 PUSH1 0x60 ADD PUSH1 0x20 DUP2 ADD SWAP1 PUSH2 0x6FC SWAP2 SWAP1 PUSH2 0x1582 JUMP JUMPDEST DUP3 DUP7 DUP1 PUSH1 0x80 ADD SWAP1 PUSH2 0x70D SWAP2 SWAP1 PUSH2 0x1F11 JUMP JUMPDEST DUP1 DUP1 PUSH1 0x1F ADD PUSH1 0x20 DUP1 SWAP2 DIV MUL PUSH1 0x20 ADD PUSH1 0x40 MLOAD SWAP1 DUP2 ADD PUSH1 0x40 MSTORE DUP1 SWAP4 SWAP3 SWAP2 SWAP1 DUP2 DUP2 MSTORE PUSH1 0x20 ADD DUP4 DUP4 DUP1 DUP3 DUP5 CALLDATACOPY PUSH1 0x0 DUP2 DUP5 ADD MSTORE PUSH1 0x1F NOT PUSH1 0x1F DUP3 ADD AND SWAP1 POP DUP1 DUP4 ADD SWAP3 POP POP POP POP POP POP POP PUSH2 0xED3 JUMP JUMPDEST POP POP POP POP JUMP JUMPDEST PUSH2 0x763 PUSH2 0x937 JUMP JUMPDEST PUSH2 0x76D PUSH1 0x0 PUSH2 0x10EA JUMP JUMPDEST JUMP JUMPDEST PUSH1 0x0 DUP1 PUSH1 0x0 SWAP1 SLOAD SWAP1 PUSH2 0x100 EXP SWAP1 DIV PUSH20 0xFFFFFFFFFFFFFFFFFFFFFFFFFFFFFFFFFFFFFFFF AND SWAP1 POP SWAP1 JUMP JUMPDEST PUSH1 0x1 PUSH1 0x0 SWAP1 SLOAD SWAP1 PUSH2 0x100 EXP SWAP1 DIV PUSH20 0xFFFFFFFFFFFFFFFFFFFFFFFFFFFFFFFFFFFFFFFF AND DUP2 JUMP JUMPDEST PUSH1 0x0 PUSH2 0x7FA DUP3 PUSH2 0x7EC DUP6 PUSH1 0x40 MLOAD PUSH1 0x20 ADD PUSH2 0x7D8 SWAP2 SWAP1 PUSH2 0x1E7D JUMP JUMPDEST PUSH1 0x40 MLOAD PUSH1 0x20 DUP2 DUP4 SUB SUB DUP2 MSTORE SWAP1 PUSH1 0x40 MSTORE PUSH2 0x11AE JUMP JUMPDEST PUSH2 0x11BF SWAP1 SWAP2 SWAP1 PUSH4 0xFFFFFFFF AND JUMP JUMPDEST SWAP1 POP SWAP3 SWAP2 POP POP JUMP JUMPDEST PUSH1 0x0 SELFBALANCE SWAP1 POP SWAP1 JUMP JUMPDEST PUSH2 0x812 PUSH2 0x937 JUMP JUMPDEST PUSH1 0x0 PUSH20 0xFFFFFFFFFFFFFFFFFFFFFFFFFFFFFFFFFFFFFFFF AND DUP2 PUSH20 0xFFFFFFFFFFFFFFFFFFFFFFFFFFFFFFFFFFFFFFFF AND SUB PUSH2 0x881 JUMPI PUSH1 0x40 MLOAD PUSH32 0x8C379A000000000000000000000000000000000000000000000000000000000 DUP2 MSTORE PUSH1 0x4 ADD PUSH2 0x878 SWAP1 PUSH2 0x2052 JUMP JUMPDEST PUSH1 0x40 MLOAD DUP1 SWAP2 SUB SWAP1 REVERT JUMPDEST PUSH2 0x88A DUP2 PUSH2 0x10EA JUMP JUMPDEST POP JUMP JUMPDEST PUSH1 0x60 PUSH1 0x2 PUSH1 0x0 SWAP1 SLOAD SWAP1 PUSH2 0x100 EXP SWAP1 DIV PUSH20 0xFFFFFFFFFFFFFFFFFFFFFFFFFFFFFFFFFFFFFFFF AND PUSH20 0xFFFFFFFFFFFFFFFFFFFFFFFFFFFFFFFFFFFFFFFF AND PUSH4 0xFF514FA3 DUP4 PUSH1 0x40 MLOAD DUP3 PUSH4 0xFFFFFFFF AND PUSH1 0xE0 SHL DUP2 MSTORE PUSH1 0x4 ADD PUSH2 0x8EA SWAP2 SWAP1 PUSH2 0x2185 JUMP JUMPDEST PUSH1 0x0 PUSH1 0x40 MLOAD DUP1 DUP4 SUB DUP2 DUP7 GAS STATICCALL ISZERO DUP1 ISZERO PUSH2 0x907 JUMPI RETURNDATASIZE PUSH1 0x0 DUP1 RETURNDATACOPY RETURNDATASIZE PUSH1 0x0 REVERT JUMPDEST POP POP POP POP PUSH1 0x40 MLOAD RETURNDATASIZE PUSH1 0x0 DUP3 RETURNDATACOPY RETURNDATASIZE PUSH1 0x1F NOT PUSH1 0x1F DUP3 ADD AND DUP3 ADD DUP1 PUSH1 0x40 MSTORE POP DUP2 ADD SWAP1 PUSH2 0x930 SWAP2 SWAP1 PUSH2 0x2323 JUMP JUMPDEST SWAP1 POP SWAP2 SWAP1 POP JUMP JUMPDEST PUSH2 0x93F PUSH2 0x11E6 JUMP JUMPDEST PUSH20 0xFFFFFFFFFFFFFFFFFFFFFFFFFFFFFFFFFFFFFFFF AND PUSH2 0x95D PUSH2 0x76F JUMP JUMPDEST PUSH20 0xFFFFFFFFFFFFFFFFFFFFFFFFFFFFFFFFFFFFFFFF AND EQ PUSH2 0x9B3 JUMPI PUSH1 0x40 MLOAD PUSH32 0x8C379A000000000000000000000000000000000000000000000000000000000 DUP2 MSTORE PUSH1 0x4 ADD PUSH2 0x9AA SWAP1 PUSH2 0x23B8 JUMP JUMPDEST PUSH1 0x40 MLOAD DUP1 SWAP2 SUB SWAP1 REVERT JUMPDEST JUMP JUMPDEST PUSH1 0x0 DUP1 DUP5 PUSH20 0xFFFFFFFFFFFFFFFFFFFFFFFFFFFFFFFFFFFFFFFF AND PUSH4 0xA9059CBB DUP6 DUP6 PUSH1 0x40 MLOAD PUSH1 0x24 ADD PUSH2 0x9E7 SWAP3 SWAP2 SWAP1 PUSH2 0x23D8 JUMP JUMPDEST PUSH1 0x40 MLOAD PUSH1 0x20 DUP2 DUP4 SUB SUB DUP2 MSTORE SWAP1 PUSH1 0x40 MSTORE SWAP1 PUSH1 0xE0 SHL PUSH1 0x20 DUP3 ADD DUP1 MLOAD PUSH28 0xFFFFFFFFFFFFFFFFFFFFFFFFFFFFFFFFFFFFFFFFFFFFFFFFFFFFFFFF DUP4 DUP2 DUP4 AND OR DUP4 MSTORE POP POP POP POP PUSH1 0x40 MLOAD PUSH2 0xA35 SWAP2 SWAP1 PUSH2 0x2472 JUMP JUMPDEST PUSH1 0x0 PUSH1 0x40 MLOAD DUP1 DUP4 SUB DUP2 PUSH1 0x0 DUP7 GAS CALL SWAP2 POP POP RETURNDATASIZE DUP1 PUSH1 0x0 DUP2 EQ PUSH2 0xA72 JUMPI PUSH1 0x40 MLOAD SWAP2 POP PUSH1 0x1F NOT PUSH1 0x3F RETURNDATASIZE ADD AND DUP3 ADD PUSH1 0x40 MSTORE RETURNDATASIZE DUP3 MSTORE RETURNDATASIZE PUSH1 0x0 PUSH1 0x20 DUP5 ADD RETURNDATACOPY PUSH2 0xA77 JUMP JUMPDEST PUSH1 0x60 SWAP2 POP JUMPDEST POP SWAP2 POP SWAP2 POP DUP2 DUP1 ISZERO PUSH2 0xAA5 JUMPI POP PUSH1 0x0 DUP2 MLOAD EQ DUP1 PUSH2 0xAA4 JUMPI POP DUP1 DUP1 PUSH1 0x20 ADD SWAP1 MLOAD DUP2 ADD SWAP1 PUSH2 0xAA3 SWAP2 SWAP1 PUSH2 0x24C1 JUMP JUMPDEST JUMPDEST JUMPDEST PUSH2 0xAE4 JUMPI PUSH1 0x40 MLOAD PUSH32 0x8C379A000000000000000000000000000000000000000000000000000000000 DUP2 MSTORE PUSH1 0x4 ADD PUSH2 0xADB SWAP1 PUSH2 0x2560 JUMP JUMPDEST PUSH1 0x40 MLOAD DUP1 SWAP2 SUB SWAP1 REVERT JUMPDEST POP POP POP POP POP JUMP JUMPDEST PUSH1 0x1B PUSH1 0xF8 SHL DUP2 PUSH1 0x40 DUP2 MLOAD DUP2 LT PUSH2 0xB04 JUMPI PUSH2 0xB03 PUSH2 0x2580 JUMP JUMPDEST JUMPDEST PUSH1 0x20 ADD ADD SWAP1 PUSH31 0xFFFFFFFFFFFFFFFFFFFFFFFFFFFFFFFFFFFFFFFFFFFFFFFFFFFFFFFFFFFFFF NOT AND SWAP1 DUP2 PUSH1 0x0 BYTE SWAP1 MSTORE8 POP PUSH2 0xB3B PUSH2 0x76F JUMP JUMPDEST PUSH20 0xFFFFFFFFFFFFFFFFFFFFFFFFFFFFFFFFFFFFFFFF AND PUSH2 0xB6C DUP3 PUSH2 0xB5E DUP6 PUSH2 0x11AE JUMP JUMPDEST PUSH2 0x11BF SWAP1 SWAP2 SWAP1 PUSH4 0xFFFFFFFF AND JUMP JUMPDEST PUSH20 0xFFFFFFFFFFFFFFFFFFFFFFFFFFFFFFFFFFFFFFFF AND SUB ISZERO PUSH2 0xC60 JUMPI PUSH1 0x1C PUSH1 0xF8 SHL DUP2 PUSH1 0x40 DUP2 MLOAD DUP2 LT PUSH2 0xBA1 JUMPI PUSH2 0xBA0 PUSH2 0x2580 JUMP JUMPDEST JUMPDEST PUSH1 0x20 ADD ADD SWAP1 PUSH31 0xFFFFFFFFFFFFFFFFFFFFFFFFFFFFFFFFFFFFFFFFFFFFFFFFFFFFFFFFFFFFFF NOT AND SWAP1 DUP2 PUSH1 0x0 BYTE SWAP1 MSTORE8 POP PUSH2 0xBD8 PUSH2 0x76F JUMP JUMPDEST PUSH20 0xFFFFFFFFFFFFFFFFFFFFFFFFFFFFFFFFFFFFFFFF AND PUSH2 0xC09 DUP3 PUSH2 0xBFB DUP6 PUSH2 0x11AE JUMP JUMPDEST PUSH2 0x11BF SWAP1 SWAP2 SWAP1 PUSH4 0xFFFFFFFF AND JUMP JUMPDEST PUSH20 0xFFFFFFFFFFFFFFFFFFFFFFFFFFFFFFFFFFFFFFFF AND EQ PUSH2 0xC5F JUMPI PUSH1 0x40 MLOAD PUSH32 0x8C379A000000000000000000000000000000000000000000000000000000000 DUP2 MSTORE PUSH1 0x4 ADD PUSH2 0xC56 SWAP1 PUSH2 0x25FB JUMP JUMPDEST PUSH1 0x40 MLOAD DUP1 SWAP2 SUB SWAP1 REVERT JUMPDEST JUMPDEST POP POP JUMP JUMPDEST PUSH1 0x0 DUP1 DUP6 PUSH20 0xFFFFFFFFFFFFFFFFFFFFFFFFFFFFFFFFFFFFFFFF AND PUSH4 0x23B872DD DUP7 DUP7 DUP7 PUSH1 0x40 MLOAD PUSH1 0x24 ADD PUSH2 0xC98 SWAP4 SWAP3 SWAP2 SWAP1 PUSH2 0x261B JUMP JUMPDEST PUSH1 0x40 MLOAD PUSH1 0x20 DUP2 DUP4 SUB SUB DUP2 MSTORE SWAP1 PUSH1 0x40 MSTORE SWAP1 PUSH1 0xE0 SHL PUSH1 0x20 DUP3 ADD DUP1 MLOAD PUSH28 0xFFFFFFFFFFFFFFFFFFFFFFFFFFFFFFFFFFFFFFFFFFFFFFFFFFFFFFFF DUP4 DUP2 DUP4 AND OR DUP4 MSTORE POP POP POP POP PUSH1 0x40 MLOAD PUSH2 0xCE6 SWAP2 SWAP1 PUSH2 0x2472 JUMP JUMPDEST PUSH1 0x0 PUSH1 0x40 MLOAD DUP1 DUP4 SUB DUP2 PUSH1 0x0 DUP7 GAS CALL SWAP2 POP POP RETURNDATASIZE DUP1 PUSH1 0x0 DUP2 EQ PUSH2 0xD23 JUMPI PUSH1 0x40 MLOAD SWAP2 POP PUSH1 0x1F NOT PUSH1 0x3F RETURNDATASIZE ADD AND DUP3 ADD PUSH1 0x40 MSTORE RETURNDATASIZE DUP3 MSTORE RETURNDATASIZE PUSH1 0x0 PUSH1 0x20 DUP5 ADD RETURNDATACOPY PUSH2 0xD28 JUMP JUMPDEST PUSH1 0x60 SWAP2 POP JUMPDEST POP SWAP2 POP SWAP2 POP DUP2 DUP1 ISZERO PUSH2 0xD56 JUMPI POP PUSH1 0x0 DUP2 MLOAD EQ DUP1 PUSH2 0xD55 JUMPI POP DUP1 DUP1 PUSH1 0x20 ADD SWAP1 MLOAD DUP2 ADD SWAP1 PUSH2 0xD54 SWAP2 SWAP1 PUSH2 0x24C1 JUMP JUMPDEST JUMPDEST JUMPDEST PUSH2 0xD95 JUMPI PUSH1 0x40 MLOAD PUSH32 0x8C379A000000000000000000000000000000000000000000000000000000000 DUP2 MSTORE PUSH1 0x4 ADD PUSH2 0xD8C SWAP1 PUSH2 0x26C4 JUMP JUMPDEST PUSH1 0x40 MLOAD DUP1 SWAP2 SUB SWAP1 REVERT JUMPDEST POP POP POP POP POP POP JUMP JUMPDEST PUSH1 0x0 DUP1 DUP5 PUSH20 0xFFFFFFFFFFFFFFFFFFFFFFFFFFFFFFFFFFFFFFFF AND PUSH4 0x95EA7B3 DUP6 DUP6 PUSH1 0x40 MLOAD PUSH1 0x24 ADD PUSH2 0xDCF SWAP3 SWAP2 SWAP1 PUSH2 0x23D8 JUMP JUMPDEST PUSH1 0x40 MLOAD PUSH1 0x20 DUP2 DUP4 SUB SUB DUP2 MSTORE SWAP1 PUSH1 0x40 MSTORE SWAP1 PUSH1 0xE0 SHL PUSH1 0x20 DUP3 ADD DUP1 MLOAD PUSH28 0xFFFFFFFFFFFFFFFFFFFFFFFFFFFFFFFFFFFFFFFFFFFFFFFFFFFFFFFF DUP4 DUP2 DUP4 AND OR DUP4 MSTORE POP POP POP POP PUSH1 0x40 MLOAD PUSH2 0xE1D SWAP2 SWAP1 PUSH2 0x2472 JUMP JUMPDEST PUSH1 0x0 PUSH1 0x40 MLOAD DUP1 DUP4 SUB DUP2 PUSH1 0x0 DUP7 GAS CALL SWAP2 POP POP RETURNDATASIZE DUP1 PUSH1 0x0 DUP2 EQ PUSH2 0xE5A JUMPI PUSH1 0x40 MLOAD SWAP2 POP PUSH1 0x1F NOT PUSH1 0x3F RETURNDATASIZE ADD AND DUP3 ADD PUSH1 0x40 MSTORE RETURNDATASIZE DUP3 MSTORE RETURNDATASIZE PUSH1 0x0 PUSH1 0x20 DUP5 ADD RETURNDATACOPY PUSH2 0xE5F JUMP JUMPDEST PUSH1 0x60 SWAP2 POP JUMPDEST POP SWAP2 POP SWAP2 POP DUP2 DUP1 ISZERO PUSH2 0xE8D JUMPI POP PUSH1 0x0 DUP2 MLOAD EQ DUP1 PUSH2 0xE8C JUMPI POP DUP1 DUP1 PUSH1 0x20 ADD SWAP1 MLOAD DUP2 ADD SWAP1 PUSH2 0xE8B SWAP2 SWAP1 PUSH2 0x24C1 JUMP JUMPDEST JUMPDEST JUMPDEST PUSH2 0xECC JUMPI PUSH1 0x40 MLOAD PUSH32 0x8C379A000000000000000000000000000000000000000000000000000000000 DUP2 MSTORE PUSH1 0x4 ADD PUSH2 0xEC3 SWAP1 PUSH2 0x2756 JUMP JUMPDEST PUSH1 0x40 MLOAD DUP1 SWAP2 SUB SWAP1 REVERT JUMPDEST POP POP POP POP POP JUMP JUMPDEST PUSH1 0x0 DUP1 DUP5 PUSH20 0xFFFFFFFFFFFFFFFFFFFFFFFFFFFFFFFFFFFFFFFF AND DUP5 DUP5 PUSH1 0x40 MLOAD PUSH2 0xEFC SWAP2 SWAP1 PUSH2 0x2472 JUMP JUMPDEST PUSH1 0x0 PUSH1 0x40 MLOAD DUP1 DUP4 SUB DUP2 DUP6 DUP8 GAS CALL SWAP3 POP POP POP RETURNDATASIZE DUP1 PUSH1 0x0 DUP2 EQ PUSH2 0xF39 JUMPI PUSH1 0x40 MLOAD SWAP2 POP PUSH1 0x1F NOT PUSH1 0x3F RETURNDATASIZE ADD AND DUP3 ADD PUSH1 0x40 MSTORE RETURNDATASIZE DUP3 MSTORE RETURNDATASIZE PUSH1 0x0 PUSH1 0x20 DUP5 ADD RETURNDATACOPY PUSH2 0xF3E JUMP JUMPDEST PUSH1 0x60 SWAP2 POP JUMPDEST POP SWAP2 POP SWAP2 POP DUP2 PUSH2 0xFE3 JUMPI PUSH1 0x44 DUP2 MLOAD LT ISZERO PUSH2 0xF8D JUMPI PUSH1 0x40 MLOAD PUSH32 0x8C379A000000000000000000000000000000000000000000000000000000000 DUP2 MSTORE PUSH1 0x4 ADD PUSH2 0xF84 SWAP1 PUSH2 0x27E8 JUMP JUMPDEST PUSH1 0x40 MLOAD DUP1 SWAP2 SUB SWAP1 REVERT JUMPDEST PUSH1 0x4 DUP2 ADD SWAP1 POP DUP1 DUP1 PUSH1 0x20 ADD SWAP1 MLOAD DUP2 ADD SWAP1 PUSH2 0xFA7 SWAP2 SWAP1 PUSH2 0x28A9 JUMP JUMPDEST PUSH1 0x40 MLOAD PUSH32 0x8C379A000000000000000000000000000000000000000000000000000000000 DUP2 MSTORE PUSH1 0x4 ADD PUSH2 0xFDA SWAP2 SWAP1 PUSH2 0x2936 JUMP JUMPDEST PUSH1 0x40 MLOAD DUP1 SWAP2 SUB SWAP1 REVERT JUMPDEST POP POP POP POP POP JUMP JUMPDEST PUSH1 0x0 DUP3 PUSH20 0xFFFFFFFFFFFFFFFFFFFFFFFFFFFFFFFFFFFFFFFF AND DUP3 PUSH1 0x0 PUSH8 0xFFFFFFFFFFFFFFFF DUP2 GT ISZERO PUSH2 0x101F JUMPI PUSH2 0x101E PUSH2 0x175E JUMP JUMPDEST JUMPDEST PUSH1 0x40 MLOAD SWAP1 DUP1 DUP3 MSTORE DUP1 PUSH1 0x1F ADD PUSH1 0x1F NOT AND PUSH1 0x20 ADD DUP3 ADD PUSH1 0x40 MSTORE DUP1 ISZERO PUSH2 0x1051 JUMPI DUP2 PUSH1 0x20 ADD PUSH1 0x1 DUP3 MUL DUP1 CALLDATASIZE DUP4 CALLDATACOPY DUP1 DUP3 ADD SWAP2 POP POP SWAP1 POP JUMPDEST POP PUSH1 0x40 MLOAD PUSH2 0x105F SWAP2 SWAP1 PUSH2 0x2472 JUMP JUMPDEST PUSH1 0x0 PUSH1 0x40 MLOAD DUP1 DUP4 SUB DUP2 DUP6 DUP8 GAS CALL SWAP3 POP POP POP RETURNDATASIZE DUP1 PUSH1 0x0 DUP2 EQ PUSH2 0x109C JUMPI PUSH1 0x40 MLOAD SWAP2 POP PUSH1 0x1F NOT PUSH1 0x3F RETURNDATASIZE ADD AND DUP3 ADD PUSH1 0x40 MSTORE RETURNDATASIZE DUP3 MSTORE RETURNDATASIZE PUSH1 0x0 PUSH1 0x20 DUP5 ADD RETURNDATACOPY PUSH2 0x10A1 JUMP JUMPDEST PUSH1 0x60 SWAP2 POP JUMPDEST POP POP SWAP1 POP DUP1 PUSH2 0x10E5 JUMPI PUSH1 0x40 MLOAD PUSH32 0x8C379A000000000000000000000000000000000000000000000000000000000 DUP2 MSTORE PUSH1 0x4 ADD PUSH2 0x10DC SWAP1 PUSH2 0x29CA JUMP JUMPDEST PUSH1 0x40 MLOAD DUP1 SWAP2 SUB SWAP1 REVERT JUMPDEST POP POP POP JUMP JUMPDEST PUSH1 0x0 DUP1 PUSH1 0x0 SWAP1 SLOAD SWAP1 PUSH2 0x100 EXP SWAP1 DIV PUSH20 0xFFFFFFFFFFFFFFFFFFFFFFFFFFFFFFFFFFFFFFFF AND SWAP1 POP DUP2 PUSH1 0x0 DUP1 PUSH2 0x100 EXP DUP2 SLOAD DUP2 PUSH20 0xFFFFFFFFFFFFFFFFFFFFFFFFFFFFFFFFFFFFFFFF MUL NOT AND SWAP1 DUP4 PUSH20 0xFFFFFFFFFFFFFFFFFFFFFFFFFFFFFFFFFFFFFFFF AND MUL OR SWAP1 SSTORE POP DUP2 PUSH20 0xFFFFFFFFFFFFFFFFFFFFFFFFFFFFFFFFFFFFFFFF AND DUP2 PUSH20 0xFFFFFFFFFFFFFFFFFFFFFFFFFFFFFFFFFFFFFFFF AND PUSH32 0x8BE0079C531659141344CD1FD0A4F28419497F9722A3DAAFE3B4186F6B6457E0 PUSH1 0x40 MLOAD PUSH1 0x40 MLOAD DUP1 SWAP2 SUB SWAP1 LOG3 POP POP JUMP JUMPDEST PUSH1 0x0 DUP2 DUP1 MLOAD SWAP1 PUSH1 0x20 ADD KECCAK256 SWAP1 POP SWAP2 SWAP1 POP JUMP JUMPDEST PUSH1 0x0 DUP1 PUSH1 0x0 PUSH2 0x11CE DUP6 DUP6 PUSH2 0x11EE JUMP JUMPDEST SWAP2 POP SWAP2 POP PUSH2 0x11DB DUP2 PUSH2 0x123F JUMP JUMPDEST DUP2 SWAP3 POP POP POP SWAP3 SWAP2 POP POP JUMP JUMPDEST PUSH1 0x0 CALLER SWAP1 POP SWAP1 JUMP JUMPDEST PUSH1 0x0 DUP1 PUSH1 0x41 DUP4 MLOAD SUB PUSH2 0x122F JUMPI PUSH1 0x0 DUP1 PUSH1 0x0 PUSH1 0x20 DUP7 ADD MLOAD SWAP3 POP PUSH1 0x40 DUP7 ADD MLOAD SWAP2 POP PUSH1 0x60 DUP7 ADD MLOAD PUSH1 0x0 BYTE SWAP1 POP PUSH2 0x1223 DUP8 DUP3 DUP6 DUP6 PUSH2 0x13A5 JUMP JUMPDEST SWAP5 POP SWAP5 POP POP POP POP PUSH2 0x1238 JUMP JUMPDEST PUSH1 0x0 PUSH1 0x2 SWAP2 POP SWAP2 POP JUMPDEST SWAP3 POP SWAP3 SWAP1 POP JUMP JUMPDEST PUSH1 0x0 PUSH1 0x4 DUP2 GT ISZERO PUSH2 0x1253 JUMPI PUSH2 0x1252 PUSH2 0x29EA JUMP JUMPDEST JUMPDEST DUP2 PUSH1 0x4 DUP2 GT ISZERO PUSH2 0x1266 JUMPI PUSH2 0x1265 PUSH2 0x29EA JUMP JUMPDEST JUMPDEST SUB ISZERO PUSH2 0x13A2 JUMPI PUSH1 0x1 PUSH1 0x4 DUP2 GT ISZERO PUSH2 0x1280 JUMPI PUSH2 0x127F PUSH2 0x29EA JUMP JUMPDEST JUMPDEST DUP2 PUSH1 0x4 DUP2 GT ISZERO PUSH2 0x1293 JUMPI PUSH2 0x1292 PUSH2 0x29EA JUMP JUMPDEST JUMPDEST SUB PUSH2 0x12D3 JUMPI PUSH1 0x40 MLOAD PUSH32 0x8C379A000000000000000000000000000000000000000000000000000000000 DUP2 MSTORE PUSH1 0x4 ADD PUSH2 0x12CA SWAP1 PUSH2 0x2A65 JUMP JUMPDEST PUSH1 0x40 MLOAD DUP1 SWAP2 SUB SWAP1 REVERT JUMPDEST PUSH1 0x2 PUSH1 0x4 DUP2 GT ISZERO PUSH2 0x12E7 JUMPI PUSH2 0x12E6 PUSH2 0x29EA JUMP JUMPDEST JUMPDEST DUP2 PUSH1 0x4 DUP2 GT ISZERO PUSH2 0x12FA JUMPI PUSH2 0x12F9 PUSH2 0x29EA JUMP JUMPDEST JUMPDEST SUB PUSH2 0x133A JUMPI PUSH1 0x40 MLOAD PUSH32 0x8C379A000000000000000000000000000000000000000000000000000000000 DUP2 MSTORE PUSH1 0x4 ADD PUSH2 0x1331 SWAP1 PUSH2 0x2AD1 JUMP JUMPDEST PUSH1 0x40 MLOAD DUP1 SWAP2 SUB SWAP1 REVERT JUMPDEST PUSH1 0x3 PUSH1 0x4 DUP2 GT ISZERO PUSH2 0x134E JUMPI PUSH2 0x134D PUSH2 0x29EA JUMP JUMPDEST JUMPDEST DUP2 PUSH1 0x4 DUP2 GT ISZERO PUSH2 0x1361 JUMPI PUSH2 0x1360 PUSH2 0x29EA JUMP JUMPDEST JUMPDEST SUB PUSH2 0x13A1 JUMPI PUSH1 0x40 MLOAD PUSH32 0x8C379A000000000000000000000000000000000000000000000000000000000 DUP2 MSTORE PUSH1 0x4 ADD PUSH2 0x1398 SWAP1 PUSH2 0x2B63 JUMP JUMPDEST PUSH1 0x40 MLOAD DUP1 SWAP2 SUB SWAP1 REVERT JUMPDEST JUMPDEST POP JUMP JUMPDEST PUSH1 0x0 DUP1 PUSH32 0x7FFFFFFFFFFFFFFFFFFFFFFFFFFFFFFF5D576E7357A4501DDFE92F46681B20A0 DUP4 PUSH1 0x0 SHR GT ISZERO PUSH2 0x13E0 JUMPI PUSH1 0x0 PUSH1 0x3 SWAP2 POP SWAP2 POP PUSH2 0x147E JUMP JUMPDEST PUSH1 0x0 PUSH1 0x1 DUP8 DUP8 DUP8 DUP8 PUSH1 0x40 MLOAD PUSH1 0x0 DUP2 MSTORE PUSH1 0x20 ADD PUSH1 0x40 MSTORE PUSH1 0x40 MLOAD PUSH2 0x1405 SWAP5 SWAP4 SWAP3 SWAP2 SWAP1 PUSH2 0x2BAB JUMP JUMPDEST PUSH1 0x20 PUSH1 0x40 MLOAD PUSH1 0x20 DUP2 SUB SWAP1 DUP1 DUP5 SUB SWAP1 DUP6 GAS STATICCALL ISZERO DUP1 ISZERO PUSH2 0x1427 JUMPI RETURNDATASIZE PUSH1 0x0 DUP1 RETURNDATACOPY RETURNDATASIZE PUSH1 0x0 REVERT JUMPDEST POP POP POP PUSH1 0x20 PUSH1 0x40 MLOAD SUB MLOAD SWAP1 POP PUSH1 0x0 PUSH20 0xFFFFFFFFFFFFFFFFFFFFFFFFFFFFFFFFFFFFFFFF AND DUP2 PUSH20 0xFFFFFFFFFFFFFFFFFFFFFFFFFFFFFFFFFFFFFFFF AND SUB PUSH2 0x1475 JUMPI PUSH1 0x0 PUSH1 0x1 SWAP3 POP SWAP3 POP POP PUSH2 0x147E JUMP JUMPDEST DUP1 PUSH1 0x0 SWAP3 POP SWAP3 POP POP JUMPDEST SWAP5 POP SWAP5 SWAP3 POP POP POP JUMP JUMPDEST PUSH1 0x0 PUSH1 0x40 MLOAD SWAP1 POP SWAP1 JUMP JUMPDEST PUSH1 0x0 DUP1 REVERT JUMPDEST PUSH1 0x0 DUP1 REVERT JUMPDEST PUSH1 0x0 PUSH20 0xFFFFFFFFFFFFFFFFFFFFFFFFFFFFFFFFFFFFFFFF DUP3 AND SWAP1 POP SWAP2 SWAP1 POP JUMP JUMPDEST PUSH1 0x0 PUSH2 0x14C6 DUP3 PUSH2 0x149B JUMP JUMPDEST SWAP1 POP SWAP2 SWAP1 POP JUMP JUMPDEST PUSH2 0x14D6 DUP2 PUSH2 0x14BB JUMP JUMPDEST DUP2 EQ PUSH2 0x14E1 JUMPI PUSH1 0x0 DUP1 REVERT JUMPDEST POP JUMP JUMPDEST PUSH1 0x0 DUP2 CALLDATALOAD SWAP1 POP PUSH2 0x14F3 DUP2 PUSH2 0x14CD JUMP JUMPDEST SWAP3 SWAP2 POP POP JUMP JUMPDEST PUSH1 0x0 DUP2 SWAP1 POP SWAP2 SWAP1 POP JUMP JUMPDEST PUSH2 0x150C DUP2 PUSH2 0x14F9 JUMP JUMPDEST DUP2 EQ PUSH2 0x1517 JUMPI PUSH1 0x0 DUP1 REVERT JUMPDEST POP JUMP JUMPDEST PUSH1 0x0 DUP2 CALLDATALOAD SWAP1 POP PUSH2 0x1529 DUP2 PUSH2 0x1503 JUMP JUMPDEST SWAP3 SWAP2 POP POP JUMP JUMPDEST PUSH1 0x0 DUP1 PUSH1 0x0 PUSH1 0x60 DUP5 DUP7 SUB SLT ISZERO PUSH2 0x1548 JUMPI PUSH2 0x1547 PUSH2 0x1491 JUMP JUMPDEST JUMPDEST PUSH1 0x0 PUSH2 0x1556 DUP7 DUP3 DUP8 ADD PUSH2 0x14E4 JUMP JUMPDEST SWAP4 POP POP PUSH1 0x20 PUSH2 0x1567 DUP7 DUP3 DUP8 ADD PUSH2 0x14E4 JUMP JUMPDEST SWAP3 POP POP PUSH1 0x40 PUSH2 0x1578 DUP7 DUP3 DUP8 ADD PUSH2 0x151A JUMP JUMPDEST SWAP2 POP POP SWAP3 POP SWAP3 POP SWAP3 JUMP JUMPDEST PUSH1 0x0 PUSH1 0x20 DUP3 DUP5 SUB SLT ISZERO PUSH2 0x1598 JUMPI PUSH2 0x1597 PUSH2 0x1491 JUMP JUMPDEST JUMPDEST PUSH1 0x0 PUSH2 0x15A6 DUP5 DUP3 DUP6 ADD PUSH2 0x14E4 JUMP JUMPDEST SWAP2 POP POP SWAP3 SWAP2 POP POP JUMP JUMPDEST PUSH2 0x15B8 DUP2 PUSH2 0x14F9 JUMP JUMPDEST DUP3 MSTORE POP POP JUMP JUMPDEST PUSH1 0x0 PUSH1 0x20 DUP3 ADD SWAP1 POP PUSH2 0x15D3 PUSH1 0x0 DUP4 ADD DUP5 PUSH2 0x15AF JUMP JUMPDEST SWAP3 SWAP2 POP POP JUMP JUMPDEST PUSH1 0x0 DUP1 REVERT JUMPDEST PUSH1 0x0 PUSH1 0xC0 DUP3 DUP5 SUB SLT ISZERO PUSH2 0x15F4 JUMPI PUSH2 0x15F3 PUSH2 0x15D9 JUMP JUMPDEST JUMPDEST DUP2 SWAP1 POP SWAP3 SWAP2 POP POP JUMP JUMPDEST PUSH1 0x0 DUP1 REVERT JUMPDEST PUSH1 0x0 DUP1 REVERT JUMPDEST PUSH1 0x0 DUP1 REVERT JUMPDEST PUSH1 0x0 DUP1 DUP4 PUSH1 0x1F DUP5 ADD SLT PUSH2 0x1622 JUMPI PUSH2 0x1621 PUSH2 0x15FD JUMP JUMPDEST JUMPDEST DUP3 CALLDATALOAD SWAP1 POP PUSH8 0xFFFFFFFFFFFFFFFF DUP2 GT ISZERO PUSH2 0x163F JUMPI PUSH2 0x163E PUSH2 0x1602 JUMP JUMPDEST JUMPDEST PUSH1 0x20 DUP4 ADD SWAP2 POP DUP4 PUSH1 0x1 DUP3 MUL DUP4 ADD GT ISZERO PUSH2 0x165B JUMPI PUSH2 0x165A PUSH2 0x1607 JUMP JUMPDEST JUMPDEST SWAP3 POP SWAP3 SWAP1 POP JUMP JUMPDEST PUSH1 0x0 DUP1 PUSH1 0x0 PUSH1 0x40 DUP5 DUP7 SUB SLT ISZERO PUSH2 0x167B JUMPI PUSH2 0x167A PUSH2 0x1491 JUMP JUMPDEST JUMPDEST PUSH1 0x0 DUP5 ADD CALLDATALOAD PUSH8 0xFFFFFFFFFFFFFFFF DUP2 GT ISZERO PUSH2 0x1699 JUMPI PUSH2 0x1698 PUSH2 0x1496 JUMP JUMPDEST JUMPDEST PUSH2 0x16A5 DUP7 DUP3 DUP8 ADD PUSH2 0x15DE JUMP JUMPDEST SWAP4 POP POP PUSH1 0x20 DUP5 ADD CALLDATALOAD PUSH8 0xFFFFFFFFFFFFFFFF DUP2 GT ISZERO PUSH2 0x16C6 JUMPI PUSH2 0x16C5 PUSH2 0x1496 JUMP JUMPDEST JUMPDEST PUSH2 0x16D2 DUP7 DUP3 DUP8 ADD PUSH2 0x160C JUMP JUMPDEST SWAP3 POP SWAP3 POP POP SWAP3 POP SWAP3 POP SWAP3 JUMP JUMPDEST PUSH2 0x16E7 DUP2 PUSH2 0x14BB JUMP JUMPDEST DUP3 MSTORE POP POP JUMP JUMPDEST PUSH1 0x0 PUSH1 0x20 DUP3 ADD SWAP1 POP PUSH2 0x1702 PUSH1 0x0 DUP4 ADD DUP5 PUSH2 0x16DE JUMP JUMPDEST SWAP3 SWAP2 POP POP JUMP JUMPDEST PUSH1 0x0 DUP1 PUSH1 0x40 DUP4 DUP6 SUB SLT ISZERO PUSH2 0x171F JUMPI PUSH2 0x171E PUSH2 0x1491 JUMP JUMPDEST JUMPDEST PUSH1 0x0 PUSH2 0x172D DUP6 DUP3 DUP7 ADD PUSH2 0x14E4 JUMP JUMPDEST SWAP3 POP POP PUSH1 0x20 PUSH2 0x173E DUP6 DUP3 DUP7 ADD PUSH2 0x151A JUMP JUMPDEST SWAP2 POP POP SWAP3 POP SWAP3 SWAP1 POP JUMP JUMPDEST PUSH1 0x0 DUP1 REVERT JUMPDEST PUSH1 0x0 PUSH1 0x1F NOT PUSH1 0x1F DUP4 ADD AND SWAP1 POP SWAP2 SWAP1 POP JUMP JUMPDEST PUSH32 0x4E487B7100000000000000000000000000000000000000000000000000000000 PUSH1 0x0 MSTORE PUSH1 0x41 PUSH1 0x4 MSTORE PUSH1 0x24 PUSH1 0x0 REVERT JUMPDEST PUSH2 0x1796 DUP3 PUSH2 0x174D JUMP JUMPDEST DUP2 ADD DUP2 DUP2 LT PUSH8 0xFFFFFFFFFFFFFFFF DUP3 GT OR ISZERO PUSH2 0x17B5 JUMPI PUSH2 0x17B4 PUSH2 0x175E JUMP JUMPDEST JUMPDEST DUP1 PUSH1 0x40 MSTORE POP POP POP JUMP JUMPDEST PUSH1 0x0 PUSH2 0x17C8 PUSH2 0x1487 JUMP JUMPDEST SWAP1 POP PUSH2 0x17D4 DUP3 DUP3 PUSH2 0x178D JUMP JUMPDEST SWAP2 SWAP1 POP JUMP JUMPDEST PUSH1 0x0 PUSH8 0xFFFFFFFFFFFFFFFF DUP3 GT ISZERO PUSH2 0x17F4 JUMPI PUSH2 0x17F3 PUSH2 0x175E JUMP JUMPDEST JUMPDEST PUSH2 0x17FD DUP3 PUSH2 0x174D JUMP JUMPDEST SWAP1 POP PUSH1 0x20 DUP2 ADD SWAP1 POP SWAP2 SWAP1 POP JUMP JUMPDEST DUP3 DUP2 DUP4 CALLDATACOPY PUSH1 0x0 DUP4 DUP4 ADD MSTORE POP POP POP JUMP JUMPDEST PUSH1 0x0 PUSH2 0x182C PUSH2 0x1827 DUP5 PUSH2 0x17D9 JUMP JUMPDEST PUSH2 0x17BE JUMP JUMPDEST SWAP1 POP DUP3 DUP2 MSTORE PUSH1 0x20 DUP2 ADD DUP5 DUP5 DUP5 ADD GT ISZERO PUSH2 0x1848 JUMPI PUSH2 0x1847 PUSH2 0x1748 JUMP JUMPDEST JUMPDEST PUSH2 0x1853 DUP5 DUP3 DUP6 PUSH2 0x180A JUMP JUMPDEST POP SWAP4 SWAP3 POP POP POP JUMP JUMPDEST PUSH1 0x0 DUP3 PUSH1 0x1F DUP4 ADD SLT PUSH2 0x1870 JUMPI PUSH2 0x186F PUSH2 0x15FD JUMP JUMPDEST JUMPDEST DUP2 CALLDATALOAD PUSH2 0x1880 DUP5 DUP3 PUSH1 0x20 DUP7 ADD PUSH2 0x1819 JUMP JUMPDEST SWAP2 POP POP SWAP3 SWAP2 POP POP JUMP JUMPDEST PUSH1 0x0 DUP1 PUSH1 0x40 DUP4 DUP6 SUB SLT ISZERO PUSH2 0x18A0 JUMPI PUSH2 0x189F PUSH2 0x1491 JUMP JUMPDEST JUMPDEST PUSH1 0x0 DUP4 ADD CALLDATALOAD PUSH8 0xFFFFFFFFFFFFFFFF DUP2 GT ISZERO PUSH2 0x18BE JUMPI PUSH2 0x18BD PUSH2 0x1496 JUMP JUMPDEST JUMPDEST PUSH2 0x18CA DUP6 DUP3 DUP7 ADD PUSH2 0x15DE JUMP JUMPDEST SWAP3 POP POP PUSH1 0x20 DUP4 ADD CALLDATALOAD PUSH8 0xFFFFFFFFFFFFFFFF DUP2 GT ISZERO PUSH2 0x18EB JUMPI PUSH2 0x18EA PUSH2 0x1496 JUMP JUMPDEST JUMPDEST PUSH2 0x18F7 DUP6 DUP3 DUP7 ADD PUSH2 0x185B JUMP JUMPDEST SWAP2 POP POP SWAP3 POP SWAP3 SWAP1 POP JUMP JUMPDEST PUSH1 0x0 PUSH8 0xFFFFFFFFFFFFFFFF DUP3 GT ISZERO PUSH2 0x191C JUMPI PUSH2 0x191B PUSH2 0x175E JUMP JUMPDEST JUMPDEST PUSH1 0x20 DUP3 MUL SWAP1 POP PUSH1 0x20 DUP2 ADD SWAP1 POP SWAP2 SWAP1 POP JUMP JUMPDEST PUSH1 0x0 DUP1 REVERT JUMPDEST PUSH1 0x0 PUSH1 0xFF DUP3 AND SWAP1 POP SWAP2 SWAP1 POP JUMP JUMPDEST PUSH2 0x1948 DUP2 PUSH2 0x1932 JUMP JUMPDEST DUP2 EQ PUSH2 0x1953 JUMPI PUSH1 0x0 DUP1 REVERT JUMPDEST POP JUMP JUMPDEST PUSH1 0x0 DUP2 CALLDATALOAD SWAP1 POP PUSH2 0x1965 DUP2 PUSH2 0x193F JUMP JUMPDEST SWAP3 SWAP2 POP POP JUMP JUMPDEST PUSH1 0x0 PUSH1 0x80 DUP3 DUP5 SUB SLT ISZERO PUSH2 0x1981 JUMPI PUSH2 0x1980 PUSH2 0x192D JUMP JUMPDEST JUMPDEST PUSH2 0x198B PUSH1 0x80 PUSH2 0x17BE JUMP JUMPDEST SWAP1 POP PUSH1 0x0 PUSH2 0x199B DUP5 DUP3 DUP6 ADD PUSH2 0x14E4 JUMP JUMPDEST PUSH1 0x0 DUP4 ADD MSTORE POP PUSH1 0x20 PUSH2 0x19AF DUP5 DUP3 DUP6 ADD PUSH2 0x14E4 JUMP JUMPDEST PUSH1 0x20 DUP4 ADD MSTORE POP PUSH1 0x40 PUSH2 0x19C3 DUP5 DUP3 DUP6 ADD PUSH2 0x14E4 JUMP JUMPDEST PUSH1 0x40 DUP4 ADD MSTORE POP PUSH1 0x60 PUSH2 0x19D7 DUP5 DUP3 DUP6 ADD PUSH2 0x1956 JUMP JUMPDEST PUSH1 0x60 DUP4 ADD MSTORE POP SWAP3 SWAP2 POP POP JUMP JUMPDEST PUSH1 0x0 PUSH2 0x19F6 PUSH2 0x19F1 DUP5 PUSH2 0x1901 JUMP JUMPDEST PUSH2 0x17BE JUMP JUMPDEST SWAP1 POP DUP1 DUP4 DUP3 MSTORE PUSH1 0x20 DUP3 ADD SWAP1 POP PUSH1 0x80 DUP5 MUL DUP4 ADD DUP6 DUP2 GT ISZERO PUSH2 0x1A19 JUMPI PUSH2 0x1A18 PUSH2 0x1607 JUMP JUMPDEST JUMPDEST DUP4 JUMPDEST DUP2 DUP2 LT ISZERO PUSH2 0x1A42 JUMPI DUP1 PUSH2 0x1A2E DUP9 DUP3 PUSH2 0x196B JUMP JUMPDEST DUP5 MSTORE PUSH1 0x20 DUP5 ADD SWAP4 POP POP PUSH1 0x80 DUP2 ADD SWAP1 POP PUSH2 0x1A1B JUMP JUMPDEST POP POP POP SWAP4 SWAP3 POP POP POP JUMP JUMPDEST PUSH1 0x0 DUP3 PUSH1 0x1F DUP4 ADD SLT PUSH2 0x1A61 JUMPI PUSH2 0x1A60 PUSH2 0x15FD JUMP JUMPDEST JUMPDEST DUP2 CALLDATALOAD PUSH2 0x1A71 DUP5 DUP3 PUSH1 0x20 DUP7 ADD PUSH2 0x19E3 JUMP JUMPDEST SWAP2 POP POP SWAP3 SWAP2 POP POP JUMP JUMPDEST PUSH1 0x0 PUSH1 0x20 DUP3 DUP5 SUB SLT ISZERO PUSH2 0x1A90 JUMPI PUSH2 0x1A8F PUSH2 0x1491 JUMP JUMPDEST JUMPDEST PUSH1 0x0 DUP3 ADD CALLDATALOAD PUSH8 0xFFFFFFFFFFFFFFFF DUP2 GT ISZERO PUSH2 0x1AAE JUMPI PUSH2 0x1AAD PUSH2 0x1496 JUMP JUMPDEST JUMPDEST PUSH2 0x1ABA DUP5 DUP3 DUP6 ADD PUSH2 0x1A4C JUMP JUMPDEST SWAP2 POP POP SWAP3 SWAP2 POP POP JUMP JUMPDEST PUSH1 0x0 DUP2 MLOAD SWAP1 POP SWAP2 SWAP1 POP JUMP JUMPDEST PUSH1 0x0 DUP3 DUP3 MSTORE PUSH1 0x20 DUP3 ADD SWAP1 POP SWAP3 SWAP2 POP POP JUMP JUMPDEST PUSH1 0x0 DUP2 SWAP1 POP PUSH1 0x20 DUP3 ADD SWAP1 POP SWAP2 SWAP1 POP JUMP JUMPDEST PUSH2 0x1AF8 DUP2 PUSH2 0x14BB JUMP JUMPDEST DUP3 MSTORE POP POP JUMP JUMPDEST PUSH2 0x1B07 DUP2 PUSH2 0x14F9 JUMP JUMPDEST DUP3 MSTORE POP POP JUMP JUMPDEST PUSH1 0x0 PUSH3 0xFFFFFF DUP3 AND SWAP1 POP SWAP2 SWAP1 POP JUMP JUMPDEST PUSH2 0x1B25 DUP2 PUSH2 0x1B0D JUMP JUMPDEST DUP3 MSTORE POP POP JUMP JUMPDEST PUSH1 0x80 DUP3 ADD PUSH1 0x0 DUP3 ADD MLOAD PUSH2 0x1B41 PUSH1 0x0 DUP6 ADD DUP3 PUSH2 0x1AEF JUMP JUMPDEST POP PUSH1 0x20 DUP3 ADD MLOAD PUSH2 0x1B54 PUSH1 0x20 DUP6 ADD DUP3 PUSH2 0x1AEF JUMP JUMPDEST POP PUSH1 0x40 DUP3 ADD MLOAD PUSH2 0x1B67 PUSH1 0x40 DUP6 ADD DUP3 PUSH2 0x1AFE JUMP JUMPDEST POP PUSH1 0x60 DUP3 ADD MLOAD PUSH2 0x1B7A PUSH1 0x60 DUP6 ADD DUP3 PUSH2 0x1B1C JUMP JUMPDEST POP POP POP POP JUMP JUMPDEST PUSH1 0x0 PUSH2 0x1B8C DUP4 DUP4 PUSH2 0x1B2B JUMP JUMPDEST PUSH1 0x80 DUP4 ADD SWAP1 POP SWAP3 SWAP2 POP POP JUMP JUMPDEST PUSH1 0x0 PUSH1 0x20 DUP3 ADD SWAP1 POP SWAP2 SWAP1 POP JUMP JUMPDEST PUSH1 0x0 PUSH2 0x1BB0 DUP3 PUSH2 0x1AC3 JUMP JUMPDEST PUSH2 0x1BBA DUP2 DUP6 PUSH2 0x1ACE JUMP JUMPDEST SWAP4 POP PUSH2 0x1BC5 DUP4 PUSH2 0x1ADF JUMP JUMPDEST DUP1 PUSH1 0x0 JUMPDEST DUP4 DUP2 LT ISZERO PUSH2 0x1BF6 JUMPI DUP2 MLOAD PUSH2 0x1BDD DUP9 DUP3 PUSH2 0x1B80 JUMP JUMPDEST SWAP8 POP PUSH2 0x1BE8 DUP4 PUSH2 0x1B98 JUMP JUMPDEST SWAP3 POP POP PUSH1 0x1 DUP2 ADD SWAP1 POP PUSH2 0x1BC9 JUMP JUMPDEST POP DUP6 SWAP4 POP POP POP POP SWAP3 SWAP2 POP POP JUMP JUMPDEST PUSH1 0x0 PUSH1 0x20 DUP3 ADD SWAP1 POP DUP2 DUP2 SUB PUSH1 0x0 DUP4 ADD MSTORE PUSH2 0x1C1D DUP2 DUP5 PUSH2 0x1BA5 JUMP JUMPDEST SWAP1 POP SWAP3 SWAP2 POP POP JUMP JUMPDEST PUSH1 0x0 DUP2 MLOAD SWAP1 POP PUSH2 0x1C34 DUP2 PUSH2 0x1503 JUMP JUMPDEST SWAP3 SWAP2 POP POP JUMP JUMPDEST PUSH1 0x0 PUSH1 0x20 DUP3 DUP5 SUB SLT ISZERO PUSH2 0x1C50 JUMPI PUSH2 0x1C4F PUSH2 0x1491 JUMP JUMPDEST JUMPDEST PUSH1 0x0 PUSH2 0x1C5E DUP5 DUP3 DUP6 ADD PUSH2 0x1C25 JUMP JUMPDEST SWAP2 POP POP SWAP3 SWAP2 POP POP JUMP JUMPDEST PUSH1 0x0 DUP3 DUP3 MSTORE PUSH1 0x20 DUP3 ADD SWAP1 POP SWAP3 SWAP2 POP POP JUMP JUMPDEST PUSH32 0x696E76616C65642073656E646572000000000000000000000000000000000000 PUSH1 0x0 DUP3 ADD MSTORE POP JUMP JUMPDEST PUSH1 0x0 PUSH2 0x1CAE PUSH1 0xE DUP4 PUSH2 0x1C67 JUMP JUMPDEST SWAP2 POP PUSH2 0x1CB9 DUP3 PUSH2 0x1C78 JUMP JUMPDEST PUSH1 0x20 DUP3 ADD SWAP1 POP SWAP2 SWAP1 POP JUMP JUMPDEST PUSH1 0x0 PUSH1 0x20 DUP3 ADD SWAP1 POP DUP2 DUP2 SUB PUSH1 0x0 DUP4 ADD MSTORE PUSH2 0x1CDD DUP2 PUSH2 0x1CA1 JUMP JUMPDEST SWAP1 POP SWAP2 SWAP1 POP JUMP JUMPDEST PUSH1 0x0 PUSH2 0x1CF3 PUSH1 0x20 DUP5 ADD DUP5 PUSH2 0x14E4 JUMP JUMPDEST SWAP1 POP SWAP3 SWAP2 POP POP JUMP JUMPDEST PUSH1 0x0 PUSH2 0x1D0A PUSH1 0x20 DUP5 ADD DUP5 PUSH2 0x151A JUMP JUMPDEST SWAP1 POP SWAP3 SWAP2 POP POP JUMP JUMPDEST PUSH1 0x0 DUP1 REVERT JUMPDEST PUSH1 0x0 DUP1 REVERT JUMPDEST PUSH1 0x0 DUP1 REVERT JUMPDEST PUSH1 0x0 DUP1 DUP4 CALLDATALOAD PUSH1 0x1 PUSH1 0x20 SUB DUP5 CALLDATASIZE SUB SUB DUP2 SLT PUSH2 0x1D3E JUMPI PUSH2 0x1D3D PUSH2 0x1D1C JUMP JUMPDEST JUMPDEST DUP4 DUP2 ADD SWAP3 POP DUP3 CALLDATALOAD SWAP2 POP PUSH1 0x20 DUP4 ADD SWAP3 POP PUSH8 0xFFFFFFFFFFFFFFFF DUP3 GT ISZERO PUSH2 0x1D66 JUMPI PUSH2 0x1D65 PUSH2 0x1D12 JUMP JUMPDEST JUMPDEST PUSH1 0x1 DUP3 MUL CALLDATASIZE SUB DUP4 SGT ISZERO PUSH2 0x1D7C JUMPI PUSH2 0x1D7B PUSH2 0x1D17 JUMP JUMPDEST JUMPDEST POP SWAP3 POP SWAP3 SWAP1 POP JUMP JUMPDEST PUSH1 0x0 DUP3 DUP3 MSTORE PUSH1 0x20 DUP3 ADD SWAP1 POP SWAP3 SWAP2 POP POP JUMP JUMPDEST PUSH1 0x0 PUSH2 0x1DA1 DUP4 DUP6 PUSH2 0x1D84 JUMP JUMPDEST SWAP4 POP PUSH2 0x1DAE DUP4 DUP6 DUP5 PUSH2 0x180A JUMP JUMPDEST PUSH2 0x1DB7 DUP4 PUSH2 0x174D JUMP JUMPDEST DUP5 ADD SWAP1 POP SWAP4 SWAP3 POP POP POP JUMP JUMPDEST PUSH1 0x0 PUSH1 0xC0 DUP4 ADD PUSH2 0x1DD5 PUSH1 0x0 DUP5 ADD DUP5 PUSH2 0x1CE4 JUMP JUMPDEST PUSH2 0x1DE2 PUSH1 0x0 DUP7 ADD DUP3 PUSH2 0x1AEF JUMP JUMPDEST POP PUSH2 0x1DF0 PUSH1 0x20 DUP5 ADD DUP5 PUSH2 0x1CFB JUMP JUMPDEST PUSH2 0x1DFD PUSH1 0x20 DUP7 ADD DUP3 PUSH2 0x1AFE JUMP JUMPDEST POP PUSH2 0x1E0B PUSH1 0x40 DUP5 ADD DUP5 PUSH2 0x1CFB JUMP JUMPDEST PUSH2 0x1E18 PUSH1 0x40 DUP7 ADD DUP3 PUSH2 0x1AFE JUMP JUMPDEST POP PUSH2 0x1E26 PUSH1 0x60 DUP5 ADD DUP5 PUSH2 0x1CE4 JUMP JUMPDEST PUSH2 0x1E33 PUSH1 0x60 DUP7 ADD DUP3 PUSH2 0x1AEF JUMP JUMPDEST POP PUSH2 0x1E41 PUSH1 0x80 DUP5 ADD DUP5 PUSH2 0x1D21 JUMP JUMPDEST DUP6 DUP4 SUB PUSH1 0x80 DUP8 ADD MSTORE PUSH2 0x1E54 DUP4 DUP3 DUP5 PUSH2 0x1D95 JUMP JUMPDEST SWAP3 POP POP POP PUSH2 0x1E65 PUSH1 0xA0 DUP5 ADD DUP5 PUSH2 0x1CE4 JUMP JUMPDEST PUSH2 0x1E72 PUSH1 0xA0 DUP7 ADD DUP3 PUSH2 0x1AEF JUMP JUMPDEST POP DUP1 SWAP2 POP POP SWAP3 SWAP2 POP POP JUMP JUMPDEST PUSH1 0x0 PUSH1 0x20 DUP3 ADD SWAP1 POP DUP2 DUP2 SUB PUSH1 0x0 DUP4 ADD MSTORE PUSH2 0x1E97 DUP2 DUP5 PUSH2 0x1DC2 JUMP JUMPDEST SWAP1 POP SWAP3 SWAP2 POP POP JUMP JUMPDEST PUSH32 0x4E487B7100000000000000000000000000000000000000000000000000000000 PUSH1 0x0 MSTORE PUSH1 0x11 PUSH1 0x4 MSTORE PUSH1 0x24 PUSH1 0x0 REVERT JUMPDEST PUSH1 0x0 PUSH2 0x1ED9 DUP3 PUSH2 0x14F9 JUMP JUMPDEST SWAP2 POP PUSH2 0x1EE4 DUP4 PUSH2 0x14F9 JUMP JUMPDEST SWAP3 POP DUP3 DUP3 SUB SWAP1 POP DUP2 DUP2 GT ISZERO PUSH2 0x1EFC JUMPI PUSH2 0x1EFB PUSH2 0x1E9F JUMP JUMPDEST JUMPDEST SWAP3 SWAP2 POP POP JUMP JUMPDEST PUSH1 0x0 DUP1 REVERT JUMPDEST PUSH1 0x0 DUP1 REVERT JUMPDEST PUSH1 0x0 DUP1 REVERT JUMPDEST PUSH1 0x0 DUP1 DUP4 CALLDATALOAD PUSH1 0x1 PUSH1 0x20 SUB DUP5 CALLDATASIZE SUB SUB DUP2 SLT PUSH2 0x1F2E JUMPI PUSH2 0x1F2D PUSH2 0x1F02 JUMP JUMPDEST JUMPDEST DUP1 DUP5 ADD SWAP3 POP DUP3 CALLDATALOAD SWAP2 POP PUSH8 0xFFFFFFFFFFFFFFFF DUP3 GT ISZERO PUSH2 0x1F50 JUMPI PUSH2 0x1F4F PUSH2 0x1F07 JUMP JUMPDEST JUMPDEST PUSH1 0x20 DUP4 ADD SWAP3 POP PUSH1 0x1 DUP3 MUL CALLDATASIZE SUB DUP4 SGT ISZERO PUSH2 0x1F6C JUMPI PUSH2 0x1F6B PUSH2 0x1F0C JUMP JUMPDEST JUMPDEST POP SWAP3 POP SWAP3 SWAP1 POP JUMP JUMPDEST PUSH32 0x696E73756666696369656E7420696E70757420616D6F756E7400000000000000 PUSH1 0x0 DUP3 ADD MSTORE POP JUMP JUMPDEST PUSH1 0x0 PUSH2 0x1FAA PUSH1 0x19 DUP4 PUSH2 0x1C67 JUMP JUMPDEST SWAP2 POP PUSH2 0x1FB5 DUP3 PUSH2 0x1F74 JUMP JUMPDEST PUSH1 0x20 DUP3 ADD SWAP1 POP SWAP2 SWAP1 POP JUMP JUMPDEST PUSH1 0x0 PUSH1 0x20 DUP3 ADD SWAP1 POP DUP2 DUP2 SUB PUSH1 0x0 DUP4 ADD MSTORE PUSH2 0x1FD9 DUP2 PUSH2 0x1F9D JUMP JUMPDEST SWAP1 POP SWAP2 SWAP1 POP JUMP JUMPDEST PUSH32 0x4F776E61626C653A206E6577206F776E657220697320746865207A65726F2061 PUSH1 0x0 DUP3 ADD MSTORE PUSH32 0x6464726573730000000000000000000000000000000000000000000000000000 PUSH1 0x20 DUP3 ADD MSTORE POP JUMP JUMPDEST PUSH1 0x0 PUSH2 0x203C PUSH1 0x26 DUP4 PUSH2 0x1C67 JUMP JUMPDEST SWAP2 POP PUSH2 0x2047 DUP3 PUSH2 0x1FE0 JUMP JUMPDEST PUSH1 0x40 DUP3 ADD SWAP1 POP SWAP2 SWAP1 POP JUMP JUMPDEST PUSH1 0x0 PUSH1 0x20 DUP3 ADD SWAP1 POP DUP2 DUP2 SUB PUSH1 0x0 DUP4 ADD MSTORE PUSH2 0x206B DUP2 PUSH2 0x202F JUMP JUMPDEST SWAP1 POP SWAP2 SWAP1 POP JUMP JUMPDEST PUSH1 0x0 DUP2 MLOAD SWAP1 POP SWAP2 SWAP1 POP JUMP JUMPDEST PUSH1 0x0 DUP3 DUP3 MSTORE PUSH1 0x20 DUP3 ADD SWAP1 POP SWAP3 SWAP2 POP POP JUMP JUMPDEST PUSH1 0x0 DUP2 SWAP1 POP PUSH1 0x20 DUP3 ADD SWAP1 POP SWAP2 SWAP1 POP JUMP JUMPDEST PUSH2 0x20A7 DUP2 PUSH2 0x1932 JUMP JUMPDEST DUP3 MSTORE POP POP JUMP JUMPDEST PUSH1 0x80 DUP3 ADD PUSH1 0x0 DUP3 ADD MLOAD PUSH2 0x20C3 PUSH1 0x0 DUP6 ADD DUP3 PUSH2 0x1AEF JUMP JUMPDEST POP PUSH1 0x20 DUP3 ADD MLOAD PUSH2 0x20D6 PUSH1 0x20 DUP6 ADD DUP3 PUSH2 0x1AEF JUMP JUMPDEST POP PUSH1 0x40 DUP3 ADD MLOAD PUSH2 0x20E9 PUSH1 0x40 DUP6 ADD DUP3 PUSH2 0x1AEF JUMP JUMPDEST POP PUSH1 0x60 DUP3 ADD MLOAD PUSH2 0x20FC PUSH1 0x60 DUP6 ADD DUP3 PUSH2 0x209E JUMP JUMPDEST POP POP POP POP JUMP JUMPDEST PUSH1 0x0 PUSH2 0x210E DUP4 DUP4 PUSH2 0x20AD JUMP JUMPDEST PUSH1 0x80 DUP4 ADD SWAP1 POP SWAP3 SWAP2 POP POP JUMP JUMPDEST PUSH1 0x0 PUSH1 0x20 DUP3 ADD SWAP1 POP SWAP2 SWAP1 POP JUMP JUMPDEST PUSH1 0x0 PUSH2 0x2132 DUP3 PUSH2 0x2072 JUMP JUMPDEST PUSH2 0x213C DUP2 DUP6 PUSH2 0x207D JUMP JUMPDEST SWAP4 POP PUSH2 0x2147 DUP4 PUSH2 0x208E JUMP JUMPDEST DUP1 PUSH1 0x0 JUMPDEST DUP4 DUP2 LT ISZERO PUSH2 0x2178 JUMPI DUP2 MLOAD PUSH2 0x215F DUP9 DUP3 PUSH2 0x2102 JUMP JUMPDEST SWAP8 POP PUSH2 0x216A DUP4 PUSH2 0x211A JUMP JUMPDEST SWAP3 POP POP PUSH1 0x1 DUP2 ADD SWAP1 POP PUSH2 0x214B JUMP JUMPDEST POP DUP6 SWAP4 POP POP POP POP SWAP3 SWAP2 POP POP JUMP JUMPDEST PUSH1 0x0 PUSH1 0x20 DUP3 ADD SWAP1 POP DUP2 DUP2 SUB PUSH1 0x0 DUP4 ADD MSTORE PUSH2 0x219F DUP2 DUP5 PUSH2 0x2127 JUMP JUMPDEST SWAP1 POP SWAP3 SWAP2 POP POP JUMP JUMPDEST PUSH1 0x0 PUSH8 0xFFFFFFFFFFFFFFFF DUP3 GT ISZERO PUSH2 0x21C2 JUMPI PUSH2 0x21C1 PUSH2 0x175E JUMP JUMPDEST JUMPDEST PUSH1 0x20 DUP3 MUL SWAP1 POP PUSH1 0x20 DUP2 ADD SWAP1 POP SWAP2 SWAP1 POP JUMP JUMPDEST PUSH1 0x0 DUP2 MLOAD SWAP1 POP PUSH2 0x21E2 DUP2 PUSH2 0x14CD JUMP JUMPDEST SWAP3 SWAP2 POP POP JUMP JUMPDEST PUSH2 0x21F1 DUP2 PUSH2 0x1B0D JUMP JUMPDEST DUP2 EQ PUSH2 0x21FC JUMPI PUSH1 0x0 DUP1 REVERT JUMPDEST POP JUMP JUMPDEST PUSH1 0x0 DUP2 MLOAD SWAP1 POP PUSH2 0x220E DUP2 PUSH2 0x21E8 JUMP JUMPDEST SWAP3 SWAP2 POP POP JUMP JUMPDEST PUSH1 0x0 PUSH1 0x80 DUP3 DUP5 SUB SLT ISZERO PUSH2 0x222A JUMPI PUSH2 0x2229 PUSH2 0x192D JUMP JUMPDEST JUMPDEST PUSH2 0x2234 PUSH1 0x80 PUSH2 0x17BE JUMP JUMPDEST SWAP1 POP PUSH1 0x0 PUSH2 0x2244 DUP5 DUP3 DUP6 ADD PUSH2 0x21D3 JUMP JUMPDEST PUSH1 0x0 DUP4 ADD MSTORE POP PUSH1 0x20 PUSH2 0x2258 DUP5 DUP3 DUP6 ADD PUSH2 0x21D3 JUMP JUMPDEST PUSH1 0x20 DUP4 ADD MSTORE POP PUSH1 0x40 PUSH2 0x226C DUP5 DUP3 DUP6 ADD PUSH2 0x1C25 JUMP JUMPDEST PUSH1 0x40 DUP4 ADD MSTORE POP PUSH1 0x60 PUSH2 0x2280 DUP5 DUP3 DUP6 ADD PUSH2 0x21FF JUMP JUMPDEST PUSH1 0x60 DUP4 ADD MSTORE POP SWAP3 SWAP2 POP POP JUMP JUMPDEST PUSH1 0x0 PUSH2 0x229F PUSH2 0x229A DUP5 PUSH2 0x21A7 JUMP JUMPDEST PUSH2 0x17BE JUMP JUMPDEST SWAP1 POP DUP1 DUP4 DUP3 MSTORE PUSH1 0x20 DUP3 ADD SWAP1 POP PUSH1 0x80 DUP5 MUL DUP4 ADD DUP6 DUP2 GT ISZERO PUSH2 0x22C2 JUMPI PUSH2 0x22C1 PUSH2 0x1607 JUMP JUMPDEST JUMPDEST DUP4 JUMPDEST DUP2 DUP2 LT ISZERO PUSH2 0x22EB JUMPI DUP1 PUSH2 0x22D7 DUP9 DUP3 PUSH2 0x2214 JUMP JUMPDEST DUP5 MSTORE PUSH1 0x20 DUP5 ADD SWAP4 POP POP PUSH1 0x80 DUP2 ADD SWAP1 POP PUSH2 0x22C4 JUMP JUMPDEST POP POP POP SWAP4 SWAP3 POP POP POP JUMP JUMPDEST PUSH1 0x0 DUP3 PUSH1 0x1F DUP4 ADD SLT PUSH2 0x230A JUMPI PUSH2 0x2309 PUSH2 0x15FD JUMP JUMPDEST JUMPDEST DUP2 MLOAD PUSH2 0x231A DUP5 DUP3 PUSH1 0x20 DUP7 ADD PUSH2 0x228C JUMP JUMPDEST SWAP2 POP POP SWAP3 SWAP2 POP POP JUMP JUMPDEST PUSH1 0x0 PUSH1 0x20 DUP3 DUP5 SUB SLT ISZERO PUSH2 0x2339 JUMPI PUSH2 0x2338 PUSH2 0x1491 JUMP JUMPDEST JUMPDEST PUSH1 0x0 DUP3 ADD MLOAD PUSH8 0xFFFFFFFFFFFFFFFF DUP2 GT ISZERO PUSH2 0x2357 JUMPI PUSH2 0x2356 PUSH2 0x1496 JUMP JUMPDEST JUMPDEST PUSH2 0x2363 DUP5 DUP3 DUP6 ADD PUSH2 0x22F5 JUMP JUMPDEST SWAP2 POP POP SWAP3 SWAP2 POP POP JUMP JUMPDEST PUSH32 0x4F776E61626C653A2063616C6C6572206973206E6F7420746865206F776E6572 PUSH1 0x0 DUP3 ADD MSTORE POP JUMP JUMPDEST PUSH1 0x0 PUSH2 0x23A2 PUSH1 0x20 DUP4 PUSH2 0x1C67 JUMP JUMPDEST SWAP2 POP PUSH2 0x23AD DUP3 PUSH2 0x236C JUMP JUMPDEST PUSH1 0x20 DUP3 ADD SWAP1 POP SWAP2 SWAP1 POP JUMP JUMPDEST PUSH1 0x0 PUSH1 0x20 DUP3 ADD SWAP1 POP DUP2 DUP2 SUB PUSH1 0x0 DUP4 ADD MSTORE PUSH2 0x23D1 DUP2 PUSH2 0x2395 JUMP JUMPDEST SWAP1 POP SWAP2 SWAP1 POP JUMP JUMPDEST PUSH1 0x0 PUSH1 0x40 DUP3 ADD SWAP1 POP PUSH2 0x23ED PUSH1 0x0 DUP4 ADD DUP6 PUSH2 0x16DE JUMP JUMPDEST PUSH2 0x23FA PUSH1 0x20 DUP4 ADD DUP5 PUSH2 0x15AF JUMP JUMPDEST SWAP4 SWAP3 POP POP POP JUMP JUMPDEST PUSH1 0x0 DUP2 MLOAD SWAP1 POP SWAP2 SWAP1 POP JUMP JUMPDEST PUSH1 0x0 DUP2 SWAP1 POP SWAP3 SWAP2 POP POP JUMP JUMPDEST PUSH1 0x0 JUMPDEST DUP4 DUP2 LT ISZERO PUSH2 0x2435 JUMPI DUP1 DUP3 ADD MLOAD DUP2 DUP5 ADD MSTORE PUSH1 0x20 DUP2 ADD SWAP1 POP PUSH2 0x241A JUMP JUMPDEST PUSH1 0x0 DUP5 DUP5 ADD MSTORE POP POP POP POP JUMP JUMPDEST PUSH1 0x0 PUSH2 0x244C DUP3 PUSH2 0x2401 JUMP JUMPDEST PUSH2 0x2456 DUP2 DUP6 PUSH2 0x240C JUMP JUMPDEST SWAP4 POP PUSH2 0x2466 DUP2 DUP6 PUSH1 0x20 DUP7 ADD PUSH2 0x2417 JUMP JUMPDEST DUP1 DUP5 ADD SWAP2 POP POP SWAP3 SWAP2 POP POP JUMP JUMPDEST PUSH1 0x0 PUSH2 0x247E DUP3 DUP5 PUSH2 0x2441 JUMP JUMPDEST SWAP2 POP DUP2 SWAP1 POP SWAP3 SWAP2 POP POP JUMP JUMPDEST PUSH1 0x0 DUP2 ISZERO ISZERO SWAP1 POP SWAP2 SWAP1 POP JUMP JUMPDEST PUSH2 0x249E DUP2 PUSH2 0x2489 JUMP JUMPDEST DUP2 EQ PUSH2 0x24A9 JUMPI PUSH1 0x0 DUP1 REVERT JUMPDEST POP JUMP JUMPDEST PUSH1 0x0 DUP2 MLOAD SWAP1 POP PUSH2 0x24BB DUP2 PUSH2 0x2495 JUMP JUMPDEST SWAP3 SWAP2 POP POP JUMP JUMPDEST PUSH1 0x0 PUSH1 0x20 DUP3 DUP5 SUB SLT ISZERO PUSH2 0x24D7 JUMPI PUSH2 0x24D6 PUSH2 0x1491 JUMP JUMPDEST JUMPDEST PUSH1 0x0 PUSH2 0x24E5 DUP5 DUP3 DUP6 ADD PUSH2 0x24AC JUMP JUMPDEST SWAP2 POP POP SWAP3 SWAP2 POP POP JUMP JUMPDEST PUSH32 0x45786368616E676541676772656761746F723A3A5472616E7366657248656C70 PUSH1 0x0 DUP3 ADD MSTORE PUSH32 0x65723A736166655472616E736665720000000000000000000000000000000000 PUSH1 0x20 DUP3 ADD MSTORE POP JUMP JUMPDEST PUSH1 0x0 PUSH2 0x254A PUSH1 0x2F DUP4 PUSH2 0x1C67 JUMP JUMPDEST SWAP2 POP PUSH2 0x2555 DUP3 PUSH2 0x24EE JUMP JUMPDEST PUSH1 0x40 DUP3 ADD SWAP1 POP SWAP2 SWAP1 POP JUMP JUMPDEST PUSH1 0x0 PUSH1 0x20 DUP3 ADD SWAP1 POP DUP2 DUP2 SUB PUSH1 0x0 DUP4 ADD MSTORE PUSH2 0x2579 DUP2 PUSH2 0x253D JUMP JUMPDEST SWAP1 POP SWAP2 SWAP1 POP JUMP JUMPDEST PUSH32 0x4E487B7100000000000000000000000000000000000000000000000000000000 PUSH1 0x0 MSTORE PUSH1 0x32 PUSH1 0x4 MSTORE PUSH1 0x24 PUSH1 0x0 REVERT JUMPDEST PUSH32 0x646174612074616D706572656400000000000000000000000000000000000000 PUSH1 0x0 DUP3 ADD MSTORE POP JUMP JUMPDEST PUSH1 0x0 PUSH2 0x25E5 PUSH1 0xD DUP4 PUSH2 0x1C67 JUMP JUMPDEST SWAP2 POP PUSH2 0x25F0 DUP3 PUSH2 0x25AF JUMP JUMPDEST PUSH1 0x20 DUP3 ADD SWAP1 POP SWAP2 SWAP1 POP JUMP JUMPDEST PUSH1 0x0 PUSH1 0x20 DUP3 ADD SWAP1 POP DUP2 DUP2 SUB PUSH1 0x0 DUP4 ADD MSTORE PUSH2 0x2614 DUP2 PUSH2 0x25D8 JUMP JUMPDEST SWAP1 POP SWAP2 SWAP1 POP JUMP JUMPDEST PUSH1 0x0 PUSH1 0x60 DUP3 ADD SWAP1 POP PUSH2 0x2630 PUSH1 0x0 DUP4 ADD DUP7 PUSH2 0x16DE JUMP JUMPDEST PUSH2 0x263D PUSH1 0x20 DUP4 ADD DUP6 PUSH2 0x16DE JUMP JUMPDEST PUSH2 0x264A PUSH1 0x40 DUP4 ADD DUP5 PUSH2 0x15AF JUMP JUMPDEST SWAP5 SWAP4 POP POP POP POP JUMP JUMPDEST PUSH32 0x45786368616E676541676772656761746F723A3A5472616E7366657248656C70 PUSH1 0x0 DUP3 ADD MSTORE PUSH32 0x65723A736166655472616E7366657246726F6D00000000000000000000000000 PUSH1 0x20 DUP3 ADD MSTORE POP JUMP JUMPDEST PUSH1 0x0 PUSH2 0x26AE PUSH1 0x33 DUP4 PUSH2 0x1C67 JUMP JUMPDEST SWAP2 POP PUSH2 0x26B9 DUP3 PUSH2 0x2652 JUMP JUMPDEST PUSH1 0x40 DUP3 ADD SWAP1 POP SWAP2 SWAP1 POP JUMP JUMPDEST PUSH1 0x0 PUSH1 0x20 DUP3 ADD SWAP1 POP DUP2 DUP2 SUB PUSH1 0x0 DUP4 ADD MSTORE PUSH2 0x26DD DUP2 PUSH2 0x26A1 JUMP JUMPDEST SWAP1 POP SWAP2 SWAP1 POP JUMP JUMPDEST PUSH32 0x45786368616E676541676772656761746F723A3A5472616E7366657248656C70 PUSH1 0x0 DUP3 ADD MSTORE PUSH32 0x65723A73616665417070726F7665000000000000000000000000000000000000 PUSH1 0x20 DUP3 ADD MSTORE POP JUMP JUMPDEST PUSH1 0x0 PUSH2 0x2740 PUSH1 0x2E DUP4 PUSH2 0x1C67 JUMP JUMPDEST SWAP2 POP PUSH2 0x274B DUP3 PUSH2 0x26E4 JUMP JUMPDEST PUSH1 0x40 DUP3 ADD SWAP1 POP SWAP2 SWAP1 POP JUMP JUMPDEST PUSH1 0x0 PUSH1 0x20 DUP3 ADD SWAP1 POP DUP2 DUP2 SUB PUSH1 0x0 DUP4 ADD MSTORE PUSH2 0x276F DUP2 PUSH2 0x2733 JUMP JUMPDEST SWAP1 POP SWAP2 SWAP1 POP JUMP JUMPDEST PUSH32 0x45786368616E676541676772656761746F723A3A5361666543616C6C65723A73 PUSH1 0x0 DUP3 ADD MSTORE PUSH32 0x61666543616C6C00000000000000000000000000000000000000000000000000 PUSH1 0x20 DUP3 ADD MSTORE POP JUMP JUMPDEST PUSH1 0x0 PUSH2 0x27D2 PUSH1 0x27 DUP4 PUSH2 0x1C67 JUMP JUMPDEST SWAP2 POP PUSH2 0x27DD DUP3 PUSH2 0x2776 JUMP JUMPDEST PUSH1 0x40 DUP3 ADD SWAP1 POP SWAP2 SWAP1 POP JUMP JUMPDEST PUSH1 0x0 PUSH1 0x20 DUP3 ADD SWAP1 POP DUP2 DUP2 SUB PUSH1 0x0 DUP4 ADD MSTORE PUSH2 0x2801 DUP2 PUSH2 0x27C5 JUMP JUMPDEST SWAP1 POP SWAP2 SWAP1 POP JUMP JUMPDEST PUSH1 0x0 PUSH8 0xFFFFFFFFFFFFFFFF DUP3 GT ISZERO PUSH2 0x2823 JUMPI PUSH2 0x2822 PUSH2 0x175E JUMP JUMPDEST JUMPDEST PUSH2 0x282C DUP3 PUSH2 0x174D JUMP JUMPDEST SWAP1 POP PUSH1 0x20 DUP2 ADD SWAP1 POP SWAP2 SWAP1 POP JUMP JUMPDEST PUSH1 0x0 PUSH2 0x284C PUSH2 0x2847 DUP5 PUSH2 0x2808 JUMP JUMPDEST PUSH2 0x17BE JUMP JUMPDEST SWAP1 POP DUP3 DUP2 MSTORE PUSH1 0x20 DUP2 ADD DUP5 DUP5 DUP5 ADD GT ISZERO PUSH2 0x2868 JUMPI PUSH2 0x2867 PUSH2 0x1748 JUMP JUMPDEST JUMPDEST PUSH2 0x2873 DUP5 DUP3 DUP6 PUSH2 0x2417 JUMP JUMPDEST POP SWAP4 SWAP3 POP POP POP JUMP JUMPDEST PUSH1 0x0 DUP3 PUSH1 0x1F DUP4 ADD SLT PUSH2 0x2890 JUMPI PUSH2 0x288F PUSH2 0x15FD JUMP JUMPDEST JUMPDEST DUP2 MLOAD PUSH2 0x28A0 DUP5 DUP3 PUSH1 0x20 DUP7 ADD PUSH2 0x2839 JUMP JUMPDEST SWAP2 POP POP SWAP3 SWAP2 POP POP JUMP JUMPDEST PUSH1 0x0 PUSH1 0x20 DUP3 DUP5 SUB SLT ISZERO PUSH2 0x28BF JUMPI PUSH2 0x28BE PUSH2 0x1491 JUMP JUMPDEST JUMPDEST PUSH1 0x0 DUP3 ADD MLOAD PUSH8 0xFFFFFFFFFFFFFFFF DUP2 GT ISZERO PUSH2 0x28DD JUMPI PUSH2 0x28DC PUSH2 0x1496 JUMP JUMPDEST JUMPDEST PUSH2 0x28E9 DUP5 DUP3 DUP6 ADD PUSH2 0x287B JUMP JUMPDEST SWAP2 POP POP SWAP3 SWAP2 POP POP JUMP JUMPDEST PUSH1 0x0 DUP2 MLOAD SWAP1 POP SWAP2 SWAP1 POP JUMP JUMPDEST PUSH1 0x0 PUSH2 0x2908 DUP3 PUSH2 0x28F2 JUMP JUMPDEST PUSH2 0x2912 DUP2 DUP6 PUSH2 0x1C67 JUMP JUMPDEST SWAP4 POP PUSH2 0x2922 DUP2 DUP6 PUSH1 0x20 DUP7 ADD PUSH2 0x2417 JUMP JUMPDEST PUSH2 0x292B DUP2 PUSH2 0x174D JUMP JUMPDEST DUP5 ADD SWAP2 POP POP SWAP3 SWAP2 POP POP JUMP JUMPDEST PUSH1 0x0 PUSH1 0x20 DUP3 ADD SWAP1 POP DUP2 DUP2 SUB PUSH1 0x0 DUP4 ADD MSTORE PUSH2 0x2950 DUP2 DUP5 PUSH2 0x28FD JUMP JUMPDEST SWAP1 POP SWAP3 SWAP2 POP POP JUMP JUMPDEST PUSH32 0x45786368616E676541676772656761746F723A3A5472616E7366657248656C70 PUSH1 0x0 DUP3 ADD MSTORE PUSH32 0x65723A736166655472616E736665724554480000000000000000000000000000 PUSH1 0x20 DUP3 ADD MSTORE POP JUMP JUMPDEST PUSH1 0x0 PUSH2 0x29B4 PUSH1 0x32 DUP4 PUSH2 0x1C67 JUMP JUMPDEST SWAP2 POP PUSH2 0x29BF DUP3 PUSH2 0x2958 JUMP JUMPDEST PUSH1 0x40 DUP3 ADD SWAP1 POP SWAP2 SWAP1 POP JUMP JUMPDEST PUSH1 0x0 PUSH1 0x20 DUP3 ADD SWAP1 POP DUP2 DUP2 SUB PUSH1 0x0 DUP4 ADD MSTORE PUSH2 0x29E3 DUP2 PUSH2 0x29A7 JUMP JUMPDEST SWAP1 POP SWAP2 SWAP1 POP JUMP JUMPDEST PUSH32 0x4E487B7100000000000000000000000000000000000000000000000000000000 PUSH1 0x0 MSTORE PUSH1 0x21 PUSH1 0x4 MSTORE PUSH1 0x24 PUSH1 0x0 REVERT JUMPDEST PUSH32 0x45434453413A20696E76616C6964207369676E61747572650000000000000000 PUSH1 0x0 DUP3 ADD MSTORE POP JUMP JUMPDEST PUSH1 0x0 PUSH2 0x2A4F PUSH1 0x18 DUP4 PUSH2 0x1C67 JUMP JUMPDEST SWAP2 POP PUSH2 0x2A5A DUP3 PUSH2 0x2A19 JUMP JUMPDEST PUSH1 0x20 DUP3 ADD SWAP1 POP SWAP2 SWAP1 POP JUMP JUMPDEST PUSH1 0x0 PUSH1 0x20 DUP3 ADD SWAP1 POP DUP2 DUP2 SUB PUSH1 0x0 DUP4 ADD MSTORE PUSH2 0x2A7E DUP2 PUSH2 0x2A42 JUMP JUMPDEST SWAP1 POP SWAP2 SWAP1 POP JUMP JUMPDEST PUSH32 0x45434453413A20696E76616C6964207369676E6174757265206C656E67746800 PUSH1 0x0 DUP3 ADD MSTORE POP JUMP JUMPDEST PUSH1 0x0 PUSH2 0x2ABB PUSH1 0x1F DUP4 PUSH2 0x1C67 JUMP JUMPDEST SWAP2 POP PUSH2 0x2AC6 DUP3 PUSH2 0x2A85 JUMP JUMPDEST PUSH1 0x20 DUP3 ADD SWAP1 POP SWAP2 SWAP1 POP JUMP JUMPDEST PUSH1 0x0 PUSH1 0x20 DUP3 ADD SWAP1 POP DUP2 DUP2 SUB PUSH1 0x0 DUP4 ADD MSTORE PUSH2 0x2AEA DUP2 PUSH2 0x2AAE JUMP JUMPDEST SWAP1 POP SWAP2 SWAP1 POP JUMP JUMPDEST PUSH32 0x45434453413A20696E76616C6964207369676E6174757265202773272076616C PUSH1 0x0 DUP3 ADD MSTORE PUSH32 0x7565000000000000000000000000000000000000000000000000000000000000 PUSH1 0x20 DUP3 ADD MSTORE POP JUMP JUMPDEST PUSH1 0x0 PUSH2 0x2B4D PUSH1 0x22 DUP4 PUSH2 0x1C67 JUMP JUMPDEST SWAP2 POP PUSH2 0x2B58 DUP3 PUSH2 0x2AF1 JUMP JUMPDEST PUSH1 0x40 DUP3 ADD SWAP1 POP SWAP2 SWAP1 POP JUMP JUMPDEST PUSH1 0x0 PUSH1 0x20 DUP3 ADD SWAP1 POP DUP2 DUP2 SUB PUSH1 0x0 DUP4 ADD MSTORE PUSH2 0x2B7C DUP2 PUSH2 0x2B40 JUMP JUMPDEST SWAP1 POP SWAP2 SWAP1 POP JUMP JUMPDEST PUSH1 0x0 DUP2 SWAP1 POP SWAP2 SWAP1 POP JUMP JUMPDEST PUSH2 0x2B96 DUP2 PUSH2 0x2B83 JUMP JUMPDEST DUP3 MSTORE POP POP JUMP JUMPDEST PUSH2 0x2BA5 DUP2 PUSH2 0x1932 JUMP JUMPDEST DUP3 MSTORE POP POP JUMP JUMPDEST PUSH1 0x0 PUSH1 0x80 DUP3 ADD SWAP1 POP PUSH2 0x2BC0 PUSH1 0x0 DUP4 ADD DUP8 PUSH2 0x2B8D JUMP JUMPDEST PUSH2 0x2BCD PUSH1 0x20 DUP4 ADD DUP7 PUSH2 0x2B9C JUMP JUMPDEST PUSH2 0x2BDA PUSH1 0x40 DUP4 ADD DUP6 PUSH2 0x2B8D JUMP JUMPDEST PUSH2 0x2BE7 PUSH1 0x60 DUP4 ADD DUP5 PUSH2 0x2B8D JUMP JUMPDEST SWAP6 SWAP5 POP POP POP POP POP JUMP INVALID LOG2 PUSH5 0x6970667358 0x22 SLT KECCAK256 0xC3 PUSH14 0x5EF49F02A5A7D4545EEA6612A652 0xF 0xEF DUP4 DUP8 0xE4 0x5D PUSH22 0xE0920220E0677912D164736F6C634300081100330000 "
				},
				"gasEstimates": {
					"creation": {
						"codeDepositCost": "2260400",
						"executionCost": "infinite",
						"totalCost": "infinite"
					},
					"external": {
						"WETH()": "2581",
						"balanceETH()": "383",
						"balanceToken(address)": "infinite",
						"getPrices((address,address,address,uint8)[])": "infinite",
						"owner()": "2567",
						"priceAggregator()": "2581",
						"renounceOwnership()": "30421",
						"signer((address,uint256,uint256,address,bytes,address),bytes)": "infinite",
						"swap((address,uint256,uint256,address,bytes,address),bytes)": "infinite",
						"swapNativeIn((address,uint256,uint256,address,bytes,address),bytes)": "infinite",
						"transferOwnership(address)": "30810",
						"withdrawETH(address,uint256)": "infinite",
						"withdrawToken(address,address,uint256)": "infinite"
					},
					"internal": {
						"checkSig(bytes memory,bytes memory)": "infinite",
						"hash(bytes memory)": "infinite"
					}
				},
				"methodIdentifiers": {
					"WETH()": "ad5c4648",
					"balanceETH()": "ecbdbb32",
					"balanceToken(address)": "04599012",
					"getPrices((address,address,address,uint8)[])": "ff514fa3",
					"owner()": "8da5cb5b",
					"priceAggregator()": "3078fff5",
					"renounceOwnership()": "715018a6",
					"signer((address,uint256,uint256,address,bytes,address),bytes)": "b0867883",
					"swap((address,uint256,uint256,address,bytes,address),bytes)": "2906799b",
					"swapNativeIn((address,uint256,uint256,address,bytes,address),bytes)": "5d86acf1",
					"transferOwnership(address)": "f2fde38b",
					"withdrawETH(address,uint256)": "4782f779",
					"withdrawToken(address,address,uint256)": "01e33667"
				}
			},
			"storageLayout": {
				"storage": [
					{
						"astId": 7,
						"contract": "contracts/ExchangeAggregator.sol:ExchangeAggregator",
						"label": "_owner",
						"offset": 0,
						"slot": "0",
						"type": "t_address"
					},
					{
						"astId": 1494,
						"contract": "contracts/ExchangeAggregator.sol:ExchangeAggregator",
						"label": "WETH",
						"offset": 0,
						"slot": "1",
						"type": "t_address"
					},
					{
						"astId": 1496,
						"contract": "contracts/ExchangeAggregator.sol:ExchangeAggregator",
						"label": "priceAggregator",
						"offset": 0,
						"slot": "2",
						"type": "t_address"
					}
				],
				"types": {
					"t_address": {
						"encoding": "inplace",
						"label": "address",
						"numberOfBytes": "20"
					}
				}
			},
			"userdoc": {
				"kind": "user",
				"methods": {},
				"version": 1
			}
		}
	}
}