{
	"contracts/ExchangeAggregator.sol": {
		"ExchangeAggregator": {
			"abi": [
				{
					"inputs": [
						{
							"internalType": "address",
							"name": "_WETH",
							"type": "address"
						},
						{
							"internalType": "address",
							"name": "_PriceProvider",
							"type": "address"
						}
					],
					"stateMutability": "nonpayable",
					"type": "constructor"
				},
				{
					"anonymous": false,
					"inputs": [
						{
							"indexed": true,
							"internalType": "address",
							"name": "previousOwner",
							"type": "address"
						},
						{
							"indexed": true,
							"internalType": "address",
							"name": "newOwner",
							"type": "address"
						}
					],
					"name": "OwnershipTransferred",
					"type": "event"
				},
				{
					"inputs": [],
					"name": "PriceProvider",
					"outputs": [
						{
							"internalType": "address",
							"name": "",
							"type": "address"
						}
					],
					"stateMutability": "view",
					"type": "function"
				},
				{
					"inputs": [],
					"name": "WETH",
					"outputs": [
						{
							"internalType": "address",
							"name": "",
							"type": "address"
						}
					],
					"stateMutability": "view",
					"type": "function"
				},
				{
					"inputs": [],
					"name": "balanceETH",
					"outputs": [
						{
							"internalType": "uint256",
							"name": "",
							"type": "uint256"
						}
					],
					"stateMutability": "view",
					"type": "function"
				},
				{
					"inputs": [
						{
							"internalType": "address",
							"name": "token",
							"type": "address"
						}
					],
					"name": "balanceToken",
					"outputs": [
						{
							"internalType": "uint256",
							"name": "",
							"type": "uint256"
						}
					],
					"stateMutability": "view",
					"type": "function"
				},
				{
					"inputs": [
						{
							"internalType": "address",
							"name": "_PriceProvider",
							"type": "address"
						}
					],
					"name": "changePriceProvider",
					"outputs": [],
					"stateMutability": "nonpayable",
					"type": "function"
				},
				{
					"inputs": [
						{
							"internalType": "address",
							"name": "provider",
							"type": "address"
						},
						{
							"internalType": "address",
							"name": "tA",
							"type": "address"
						},
						{
							"internalType": "address",
							"name": "tB",
							"type": "address"
						},
						{
							"internalType": "uint256",
							"name": "amountIn",
							"type": "uint256"
						},
						{
							"internalType": "uint8",
							"name": "version",
							"type": "uint8"
						}
					],
					"name": "estimateAmountOut",
					"outputs": [
						{
							"internalType": "uint256",
							"name": "amountOut",
							"type": "uint256"
						},
						{
							"internalType": "uint24",
							"name": "fee",
							"type": "uint24"
						}
					],
					"stateMutability": "view",
					"type": "function"
				},
				{
					"inputs": [],
					"name": "owner",
					"outputs": [
						{
							"internalType": "address",
							"name": "",
							"type": "address"
						}
					],
					"stateMutability": "view",
					"type": "function"
				},
				{
					"inputs": [],
					"name": "renounceOwnership",
					"outputs": [],
					"stateMutability": "nonpayable",
					"type": "function"
				},
				{
					"inputs": [
						{
							"components": [
								{
									"internalType": "address",
									"name": "input",
									"type": "address"
								},
								{
									"internalType": "uint256",
									"name": "totalAmount",
									"type": "uint256"
								},
								{
									"internalType": "uint256",
									"name": "feeAmount",
									"type": "uint256"
								},
								{
									"internalType": "address",
									"name": "swapper",
									"type": "address"
								},
								{
									"internalType": "bytes",
									"name": "data",
									"type": "bytes"
								},
								{
									"internalType": "address",
									"name": "sender",
									"type": "address"
								}
							],
							"internalType": "struct IExchangeAggregator.swapData",
							"name": "data",
							"type": "tuple"
						},
						{
							"internalType": "bytes",
							"name": "sig",
							"type": "bytes"
						}
					],
					"name": "swap",
					"outputs": [],
					"stateMutability": "nonpayable",
					"type": "function"
				},
				{
					"inputs": [
						{
							"components": [
								{
									"internalType": "address",
									"name": "input",
									"type": "address"
								},
								{
									"internalType": "uint256",
									"name": "totalAmount",
									"type": "uint256"
								},
								{
									"internalType": "uint256",
									"name": "feeAmount",
									"type": "uint256"
								},
								{
									"internalType": "address",
									"name": "swapper",
									"type": "address"
								},
								{
									"internalType": "bytes",
									"name": "data",
									"type": "bytes"
								},
								{
									"internalType": "address",
									"name": "sender",
									"type": "address"
								}
							],
							"internalType": "struct IExchangeAggregator.swapData",
							"name": "data",
							"type": "tuple"
						},
						{
							"internalType": "bytes",
							"name": "sig",
							"type": "bytes"
						}
					],
					"name": "swapNativeIn",
					"outputs": [],
					"stateMutability": "payable",
					"type": "function"
				},
				{
					"inputs": [
						{
							"internalType": "address",
							"name": "newOwner",
							"type": "address"
						}
					],
					"name": "transferOwnership",
					"outputs": [],
					"stateMutability": "nonpayable",
					"type": "function"
				},
				{
					"inputs": [
						{
							"internalType": "address",
							"name": "to",
							"type": "address"
						},
						{
							"internalType": "uint256",
							"name": "amount",
							"type": "uint256"
						}
					],
					"name": "withdrawETH",
					"outputs": [],
					"stateMutability": "nonpayable",
					"type": "function"
				},
				{
					"inputs": [
						{
							"internalType": "address",
							"name": "token",
							"type": "address"
						},
						{
							"internalType": "address",
							"name": "to",
							"type": "address"
						},
						{
							"internalType": "uint256",
							"name": "amount",
							"type": "uint256"
						}
					],
					"name": "withdrawToken",
					"outputs": [],
					"stateMutability": "nonpayable",
					"type": "function"
				}
			],
			"devdoc": {
				"kind": "dev",
				"methods": {
					"owner()": {
						"details": "Returns the address of the current owner."
					},
					"renounceOwnership()": {
						"details": "Leaves the contract without owner. It will not be possible to call `onlyOwner` functions anymore. Can only be called by the current owner. NOTE: Renouncing ownership will leave the contract without an owner, thereby removing any functionality that is only available to the owner."
					},
					"transferOwnership(address)": {
						"details": "Transfers ownership of the contract to a new account (`newOwner`). Can only be called by the current owner."
					}
				},
				"version": 1
			},
			"evm": {
				"assembly": "    /* \"contracts/ExchangeAggregator.sol\":379:2359  contract ExchangeAggregator is IExchangeAggregator,Ownable,IPriceProvider {... */\n  mstore(0x40, 0x80)\n    /* \"contracts/ExchangeAggregator.sol\":523:641  constructor(address _WETH,address _PriceProvider){... */\n  callvalue\n  dup1\n  iszero\n  tag_1\n  jumpi\n  0x00\n  dup1\n  revert\ntag_1:\n  pop\n  mload(0x40)\n  sub(codesize, bytecodeSize)\n  dup1\n  bytecodeSize\n  dup4\n  codecopy\n  dup2\n  dup2\n  add\n  0x40\n  mstore\n  dup2\n  add\n  swap1\n  tag_2\n  swap2\n  swap1\n  tag_3\n  jump\t// in\ntag_2:\n    /* \"@openzeppelin/contracts/access/Ownable.sol\":936:968  _transferOwnership(_msgSender()) */\n  tag_7\n    /* \"@openzeppelin/contracts/access/Ownable.sol\":955:967  _msgSender() */\n  tag_8\n    /* \"@openzeppelin/contracts/access/Ownable.sol\":955:965  _msgSender */\n  shl(0x20, tag_9)\n    /* \"@openzeppelin/contracts/access/Ownable.sol\":955:967  _msgSender() */\n  0x20\n  shr\n  jump\t// in\ntag_8:\n    /* \"@openzeppelin/contracts/access/Ownable.sol\":936:954  _transferOwnership */\n  shl(0x20, tag_10)\n    /* \"@openzeppelin/contracts/access/Ownable.sol\":936:968  _transferOwnership(_msgSender()) */\n  0x20\n  shr\n  jump\t// in\ntag_7:\n    /* \"contracts/ExchangeAggregator.sol\":589:594  _WETH */\n  dup2\n    /* \"contracts/ExchangeAggregator.sol\":582:586  WETH */\n  0x01\n  0x00\n    /* \"contracts/ExchangeAggregator.sol\":582:594  WETH = _WETH */\n  0x0100\n  exp\n  dup2\n  sload\n  dup2\n  0xffffffffffffffffffffffffffffffffffffffff\n  mul\n  not\n  and\n  swap1\n  dup4\n  0xffffffffffffffffffffffffffffffffffffffff\n  and\n  mul\n  or\n  swap1\n  sstore\n  pop\n    /* \"contracts/ExchangeAggregator.sol\":620:634  _PriceProvider */\n  dup1\n    /* \"contracts/ExchangeAggregator.sol\":604:617  PriceProvider */\n  0x02\n  0x00\n    /* \"contracts/ExchangeAggregator.sol\":604:634  PriceProvider = _PriceProvider */\n  0x0100\n  exp\n  dup2\n  sload\n  dup2\n  0xffffffffffffffffffffffffffffffffffffffff\n  mul\n  not\n  and\n  swap1\n  dup4\n  0xffffffffffffffffffffffffffffffffffffffff\n  and\n  mul\n  or\n  swap1\n  sstore\n  pop\n    /* \"contracts/ExchangeAggregator.sol\":523:641  constructor(address _WETH,address _PriceProvider){... */\n  pop\n  pop\n    /* \"contracts/ExchangeAggregator.sol\":379:2359  contract ExchangeAggregator is IExchangeAggregator,Ownable,IPriceProvider {... */\n  jump(tag_12)\n    /* \"@openzeppelin/contracts/utils/Context.sol\":640:736  function _msgSender() internal view virtual returns (address) {... */\ntag_9:\n    /* \"@openzeppelin/contracts/utils/Context.sol\":693:700  address */\n  0x00\n    /* \"@openzeppelin/contracts/utils/Context.sol\":719:729  msg.sender */\n  caller\n    /* \"@openzeppelin/contracts/utils/Context.sol\":712:729  return msg.sender */\n  swap1\n  pop\n    /* \"@openzeppelin/contracts/utils/Context.sol\":640:736  function _msgSender() internal view virtual returns (address) {... */\n  swap1\n  jump\t// out\n    /* \"@openzeppelin/contracts/access/Ownable.sol\":2433:2620  function _transferOwnership(address newOwner) internal virtual {... */\ntag_10:\n    /* \"@openzeppelin/contracts/access/Ownable.sol\":2506:2522  address oldOwner */\n  0x00\n    /* \"@openzeppelin/contracts/access/Ownable.sol\":2525:2531  _owner */\n  dup1\n  0x00\n  swap1\n  sload\n  swap1\n  0x0100\n  exp\n  swap1\n  div\n  0xffffffffffffffffffffffffffffffffffffffff\n  and\n    /* \"@openzeppelin/contracts/access/Ownable.sol\":2506:2531  address oldOwner = _owner */\n  swap1\n  pop\n    /* \"@openzeppelin/contracts/access/Ownable.sol\":2550:2558  newOwner */\n  dup2\n    /* \"@openzeppelin/contracts/access/Ownable.sol\":2541:2547  _owner */\n  0x00\n  dup1\n    /* \"@openzeppelin/contracts/access/Ownable.sol\":2541:2558  _owner = newOwner */\n  0x0100\n  exp\n  dup2\n  sload\n  dup2\n  0xffffffffffffffffffffffffffffffffffffffff\n  mul\n  not\n  and\n  swap1\n  dup4\n  0xffffffffffffffffffffffffffffffffffffffff\n  and\n  mul\n  or\n  swap1\n  sstore\n  pop\n    /* \"@openzeppelin/contracts/access/Ownable.sol\":2604:2612  newOwner */\n  dup2\n    /* \"@openzeppelin/contracts/access/Ownable.sol\":2573:2613  OwnershipTransferred(oldOwner, newOwner) */\n  0xffffffffffffffffffffffffffffffffffffffff\n  and\n    /* \"@openzeppelin/contracts/access/Ownable.sol\":2594:2602  oldOwner */\n  dup2\n    /* \"@openzeppelin/contracts/access/Ownable.sol\":2573:2613  OwnershipTransferred(oldOwner, newOwner) */\n  0xffffffffffffffffffffffffffffffffffffffff\n  and\n  0x8be0079c531659141344cd1fd0a4f28419497f9722a3daafe3b4186f6b6457e0\n  mload(0x40)\n  mload(0x40)\n  dup1\n  swap2\n  sub\n  swap1\n  log3\n    /* \"@openzeppelin/contracts/access/Ownable.sol\":2496:2620  {... */\n  pop\n    /* \"@openzeppelin/contracts/access/Ownable.sol\":2433:2620  function _transferOwnership(address newOwner) internal virtual {... */\n  pop\n  jump\t// out\n    /* \"#utility.yul\":88:205   */\ntag_16:\n    /* \"#utility.yul\":197:198   */\n  0x00\n    /* \"#utility.yul\":194:195   */\n  dup1\n    /* \"#utility.yul\":187:199   */\n  revert\n    /* \"#utility.yul\":334:460   */\ntag_18:\n    /* \"#utility.yul\":371:378   */\n  0x00\n    /* \"#utility.yul\":411:453   */\n  0xffffffffffffffffffffffffffffffffffffffff\n    /* \"#utility.yul\":404:409   */\n  dup3\n    /* \"#utility.yul\":400:454   */\n  and\n    /* \"#utility.yul\":389:454   */\n  swap1\n  pop\n    /* \"#utility.yul\":334:460   */\n  swap2\n  swap1\n  pop\n  jump\t// out\n    /* \"#utility.yul\":466:562   */\ntag_19:\n    /* \"#utility.yul\":503:510   */\n  0x00\n    /* \"#utility.yul\":532:556   */\n  tag_28\n    /* \"#utility.yul\":550:555   */\n  dup3\n    /* \"#utility.yul\":532:556   */\n  tag_18\n  jump\t// in\ntag_28:\n    /* \"#utility.yul\":521:556   */\n  swap1\n  pop\n    /* \"#utility.yul\":466:562   */\n  swap2\n  swap1\n  pop\n  jump\t// out\n    /* \"#utility.yul\":568:690   */\ntag_20:\n    /* \"#utility.yul\":641:665   */\n  tag_30\n    /* \"#utility.yul\":659:664   */\n  dup2\n    /* \"#utility.yul\":641:665   */\n  tag_19\n  jump\t// in\ntag_30:\n    /* \"#utility.yul\":634:639   */\n  dup2\n    /* \"#utility.yul\":631:666   */\n  eq\n    /* \"#utility.yul\":621:684   */\n  tag_31\n  jumpi\n    /* \"#utility.yul\":680:681   */\n  0x00\n    /* \"#utility.yul\":677:678   */\n  dup1\n    /* \"#utility.yul\":670:682   */\n  revert\n    /* \"#utility.yul\":621:684   */\ntag_31:\n    /* \"#utility.yul\":568:690   */\n  pop\n  jump\t// out\n    /* \"#utility.yul\":696:839   */\ntag_21:\n    /* \"#utility.yul\":753:758   */\n  0x00\n    /* \"#utility.yul\":784:790   */\n  dup2\n    /* \"#utility.yul\":778:791   */\n  mload\n    /* \"#utility.yul\":769:791   */\n  swap1\n  pop\n    /* \"#utility.yul\":800:833   */\n  tag_33\n    /* \"#utility.yul\":827:832   */\n  dup2\n    /* \"#utility.yul\":800:833   */\n  tag_20\n  jump\t// in\ntag_33:\n    /* \"#utility.yul\":696:839   */\n  swap3\n  swap2\n  pop\n  pop\n  jump\t// out\n    /* \"#utility.yul\":845:1352   */\ntag_3:\n    /* \"#utility.yul\":924:930   */\n  0x00\n    /* \"#utility.yul\":932:938   */\n  dup1\n    /* \"#utility.yul\":981:983   */\n  0x40\n    /* \"#utility.yul\":969:978   */\n  dup4\n    /* \"#utility.yul\":960:967   */\n  dup6\n    /* \"#utility.yul\":956:979   */\n  sub\n    /* \"#utility.yul\":952:984   */\n  slt\n    /* \"#utility.yul\":949:1068   */\n  iszero\n  tag_35\n  jumpi\n    /* \"#utility.yul\":987:1066   */\n  tag_36\n  tag_16\n  jump\t// in\ntag_36:\n    /* \"#utility.yul\":949:1068   */\ntag_35:\n    /* \"#utility.yul\":1107:1108   */\n  0x00\n    /* \"#utility.yul\":1132:1196   */\n  tag_37\n    /* \"#utility.yul\":1188:1195   */\n  dup6\n    /* \"#utility.yul\":1179:1185   */\n  dup3\n    /* \"#utility.yul\":1168:1177   */\n  dup7\n    /* \"#utility.yul\":1164:1186   */\n  add\n    /* \"#utility.yul\":1132:1196   */\n  tag_21\n  jump\t// in\ntag_37:\n    /* \"#utility.yul\":1122:1196   */\n  swap3\n  pop\n    /* \"#utility.yul\":1078:1206   */\n  pop\n    /* \"#utility.yul\":1245:1247   */\n  0x20\n    /* \"#utility.yul\":1271:1335   */\n  tag_38\n    /* \"#utility.yul\":1327:1334   */\n  dup6\n    /* \"#utility.yul\":1318:1324   */\n  dup3\n    /* \"#utility.yul\":1307:1316   */\n  dup7\n    /* \"#utility.yul\":1303:1325   */\n  add\n    /* \"#utility.yul\":1271:1335   */\n  tag_21\n  jump\t// in\ntag_38:\n    /* \"#utility.yul\":1261:1335   */\n  swap2\n  pop\n    /* \"#utility.yul\":1216:1345   */\n  pop\n    /* \"#utility.yul\":845:1352   */\n  swap3\n  pop\n  swap3\n  swap1\n  pop\n  jump\t// out\n    /* \"contracts/ExchangeAggregator.sol\":379:2359  contract ExchangeAggregator is IExchangeAggregator,Ownable,IPriceProvider {... */\ntag_12:\n  dataSize(sub_0)\n  dup1\n  dataOffset(sub_0)\n  0x00\n  codecopy\n  0x00\n  return\nstop\n\nsub_0: assembly {\n        /* \"contracts/ExchangeAggregator.sol\":379:2359  contract ExchangeAggregator is IExchangeAggregator,Ownable,IPriceProvider {... */\n      mstore(0x40, 0x80)\n      jumpi(tag_1, lt(calldatasize, 0x04))\n      shr(0xe0, calldataload(0x00))\n      dup1\n      0x6110358d\n      gt\n      tag_15\n      jumpi\n      dup1\n      0xad5c4648\n      gt\n      tag_16\n      jumpi\n      dup1\n      0xad5c4648\n      eq\n      tag_11\n      jumpi\n      dup1\n      0xae4f5be8\n      eq\n      tag_12\n      jumpi\n      dup1\n      0xecbdbb32\n      eq\n      tag_13\n      jumpi\n      dup1\n      0xf2fde38b\n      eq\n      tag_14\n      jumpi\n      jump(tag_1)\n    tag_16:\n      dup1\n      0x6110358d\n      eq\n      tag_8\n      jumpi\n      dup1\n      0x715018a6\n      eq\n      tag_9\n      jumpi\n      dup1\n      0x8da5cb5b\n      eq\n      tag_10\n      jumpi\n      jump(tag_1)\n    tag_15:\n      dup1\n      0x01e33667\n      eq\n      tag_2\n      jumpi\n      dup1\n      0x04599012\n      eq\n      tag_3\n      jumpi\n      dup1\n      0x2906799b\n      eq\n      tag_4\n      jumpi\n      dup1\n      0x4782f779\n      eq\n      tag_5\n      jumpi\n      dup1\n      0x4e1a67f5\n      eq\n      tag_6\n      jumpi\n      dup1\n      0x5d86acf1\n      eq\n      tag_7\n      jumpi\n    tag_1:\n      0x00\n      dup1\n      revert\n        /* \"contracts/ExchangeAggregator.sol\":2094:2233  function withdrawToken(address token,address to,uint amount) public onlyOwner {... */\n    tag_2:\n      callvalue\n      dup1\n      iszero\n      tag_17\n      jumpi\n      0x00\n      dup1\n      revert\n    tag_17:\n      pop\n      tag_18\n      0x04\n      dup1\n      calldatasize\n      sub\n      dup2\n      add\n      swap1\n      tag_19\n      swap2\n      swap1\n      tag_20\n      jump\t// in\n    tag_19:\n      tag_21\n      jump\t// in\n    tag_18:\n      stop\n        /* \"contracts/ExchangeAggregator.sol\":1741:1864  function balanceToken(address token) public view returns(uint){... */\n    tag_3:\n      callvalue\n      dup1\n      iszero\n      tag_22\n      jumpi\n      0x00\n      dup1\n      revert\n    tag_22:\n      pop\n      tag_23\n      0x04\n      dup1\n      calldatasize\n      sub\n      dup2\n      add\n      swap1\n      tag_24\n      swap2\n      swap1\n      tag_25\n      jump\t// in\n    tag_24:\n      tag_26\n      jump\t// in\n    tag_23:\n      mload(0x40)\n      tag_27\n      swap2\n      swap1\n      tag_28\n      jump\t// in\n    tag_27:\n      mload(0x40)\n      dup1\n      swap2\n      sub\n      swap1\n      return\n        /* \"contracts/ExchangeAggregator.sol\":908:1338  function swap(swapData calldata data,bytes calldata sig) public {... */\n    tag_4:\n      callvalue\n      dup1\n      iszero\n      tag_29\n      jumpi\n      0x00\n      dup1\n      revert\n    tag_29:\n      pop\n      tag_30\n      0x04\n      dup1\n      calldatasize\n      sub\n      dup2\n      add\n      swap1\n      tag_31\n      swap2\n      swap1\n      tag_32\n      jump\t// in\n    tag_31:\n      tag_33\n      jump\t// in\n    tag_30:\n      stop\n        /* \"contracts/ExchangeAggregator.sol\":1968:2088  function withdrawETH(address to,uint amount) public onlyOwner {... */\n    tag_5:\n      callvalue\n      dup1\n      iszero\n      tag_34\n      jumpi\n      0x00\n      dup1\n      revert\n    tag_34:\n      pop\n      tag_35\n      0x04\n      dup1\n      calldatasize\n      sub\n      dup2\n      add\n      swap1\n      tag_36\n      swap2\n      swap1\n      tag_37\n      jump\t// in\n    tag_36:\n      tag_38\n      jump\t// in\n    tag_35:\n      stop\n        /* \"contracts/ExchangeAggregator.sol\":484:512  address public PriceProvider */\n    tag_6:\n      callvalue\n      dup1\n      iszero\n      tag_39\n      jumpi\n      0x00\n      dup1\n      revert\n    tag_39:\n      pop\n      tag_40\n      tag_41\n      jump\t// in\n    tag_40:\n      mload(0x40)\n      tag_42\n      swap2\n      swap1\n      tag_43\n      jump\t// in\n    tag_42:\n      mload(0x40)\n      dup1\n      swap2\n      sub\n      swap1\n      return\n        /* \"contracts/ExchangeAggregator.sol\":1344:1735  function swapNativeIn(swapData calldata data,bytes calldata sig) public payable {... */\n    tag_7:\n      tag_44\n      0x04\n      dup1\n      calldatasize\n      sub\n      dup2\n      add\n      swap1\n      tag_45\n      swap2\n      swap1\n      tag_32\n      jump\t// in\n    tag_45:\n      tag_46\n      jump\t// in\n    tag_44:\n      stop\n        /* \"contracts/ExchangeAggregator.sol\":648:902  function estimateAmountOut(address provider,address tA,address tB,uint256 amountIn,uint8 version) external view returns (uint256 amountOut,uint24 fee){... */\n    tag_8:\n      callvalue\n      dup1\n      iszero\n      tag_47\n      jumpi\n      0x00\n      dup1\n      revert\n    tag_47:\n      pop\n      tag_48\n      0x04\n      dup1\n      calldatasize\n      sub\n      dup2\n      add\n      swap1\n      tag_49\n      swap2\n      swap1\n      tag_50\n      jump\t// in\n    tag_49:\n      tag_51\n      jump\t// in\n    tag_48:\n      mload(0x40)\n      tag_52\n      swap3\n      swap2\n      swap1\n      tag_53\n      jump\t// in\n    tag_52:\n      mload(0x40)\n      dup1\n      swap2\n      sub\n      swap1\n      return\n        /* \"@openzeppelin/contracts/access/Ownable.sol\":1831:1932  function renounceOwnership() public virtual onlyOwner {... */\n    tag_9:\n      callvalue\n      dup1\n      iszero\n      tag_54\n      jumpi\n      0x00\n      dup1\n      revert\n    tag_54:\n      pop\n      tag_55\n      tag_56\n      jump\t// in\n    tag_55:\n      stop\n        /* \"@openzeppelin/contracts/access/Ownable.sol\":1201:1286  function owner() public view virtual returns (address) {... */\n    tag_10:\n      callvalue\n      dup1\n      iszero\n      tag_57\n      jumpi\n      0x00\n      dup1\n      revert\n    tag_57:\n      pop\n      tag_58\n      tag_59\n      jump\t// in\n    tag_58:\n      mload(0x40)\n      tag_60\n      swap2\n      swap1\n      tag_43\n      jump\t// in\n    tag_60:\n      mload(0x40)\n      dup1\n      swap2\n      sub\n      swap1\n      return\n        /* \"contracts/ExchangeAggregator.sol\":459:478  address public WETH */\n    tag_11:\n      callvalue\n      dup1\n      iszero\n      tag_61\n      jumpi\n      0x00\n      dup1\n      revert\n    tag_61:\n      pop\n      tag_62\n      tag_63\n      jump\t// in\n    tag_62:\n      mload(0x40)\n      tag_64\n      swap2\n      swap1\n      tag_43\n      jump\t// in\n    tag_64:\n      mload(0x40)\n      dup1\n      swap2\n      sub\n      swap1\n      return\n        /* \"contracts/ExchangeAggregator.sol\":2239:2356  function changePriceProvider(address _PriceProvider) public onlyOwner {... */\n    tag_12:\n      callvalue\n      dup1\n      iszero\n      tag_65\n      jumpi\n      0x00\n      dup1\n      revert\n    tag_65:\n      pop\n      tag_66\n      0x04\n      dup1\n      calldatasize\n      sub\n      dup2\n      add\n      swap1\n      tag_67\n      swap2\n      swap1\n      tag_25\n      jump\t// in\n    tag_67:\n      tag_68\n      jump\t// in\n    tag_66:\n      stop\n        /* \"contracts/ExchangeAggregator.sol\":1870:1962  function balanceETH() public view returns(uint){... */\n    tag_13:\n      callvalue\n      dup1\n      iszero\n      tag_69\n      jumpi\n      0x00\n      dup1\n      revert\n    tag_69:\n      pop\n      tag_70\n      tag_71\n      jump\t// in\n    tag_70:\n      mload(0x40)\n      tag_72\n      swap2\n      swap1\n      tag_28\n      jump\t// in\n    tag_72:\n      mload(0x40)\n      dup1\n      swap2\n      sub\n      swap1\n      return\n        /* \"@openzeppelin/contracts/access/Ownable.sol\":2081:2279  function transferOwnership(address newOwner) public virtual onlyOwner {... */\n    tag_14:\n      callvalue\n      dup1\n      iszero\n      tag_73\n      jumpi\n      0x00\n      dup1\n      revert\n    tag_73:\n      pop\n      tag_74\n      0x04\n      dup1\n      calldatasize\n      sub\n      dup2\n      add\n      swap1\n      tag_75\n      swap2\n      swap1\n      tag_25\n      jump\t// in\n    tag_75:\n      tag_76\n      jump\t// in\n    tag_74:\n      stop\n        /* \"contracts/ExchangeAggregator.sol\":2094:2233  function withdrawToken(address token,address to,uint amount) public onlyOwner {... */\n    tag_21:\n        /* \"@openzeppelin/contracts/access/Ownable.sol\":1094:1107  _checkOwner() */\n      tag_78\n        /* \"@openzeppelin/contracts/access/Ownable.sol\":1094:1105  _checkOwner */\n      tag_79\n        /* \"@openzeppelin/contracts/access/Ownable.sol\":1094:1107  _checkOwner() */\n      jump\t// in\n    tag_78:\n        /* \"contracts/ExchangeAggregator.sol\":2182:2226  TransferHelper.safeTransfer(token,to,amount) */\n      tag_81\n        /* \"contracts/ExchangeAggregator.sol\":2210:2215  token */\n      dup4\n        /* \"contracts/ExchangeAggregator.sol\":2216:2218  to */\n      dup4\n        /* \"contracts/ExchangeAggregator.sol\":2219:2225  amount */\n      dup4\n        /* \"contracts/ExchangeAggregator.sol\":2182:2209  TransferHelper.safeTransfer */\n      tag_82\n        /* \"contracts/ExchangeAggregator.sol\":2182:2226  TransferHelper.safeTransfer(token,to,amount) */\n      jump\t// in\n    tag_81:\n        /* \"contracts/ExchangeAggregator.sol\":2094:2233  function withdrawToken(address token,address to,uint amount) public onlyOwner {... */\n      pop\n      pop\n      pop\n      jump\t// out\n        /* \"contracts/ExchangeAggregator.sol\":1741:1864  function balanceToken(address token) public view returns(uint){... */\n    tag_26:\n        /* \"contracts/ExchangeAggregator.sol\":1798:1802  uint */\n      0x00\n        /* \"contracts/ExchangeAggregator.sol\":1826:1831  token */\n      dup2\n        /* \"contracts/ExchangeAggregator.sol\":1819:1842  IERC20(token).balanceOf */\n      0xffffffffffffffffffffffffffffffffffffffff\n      and\n      0x70a08231\n        /* \"contracts/ExchangeAggregator.sol\":1851:1855  this */\n      address\n        /* \"contracts/ExchangeAggregator.sol\":1819:1857  IERC20(token).balanceOf(address(this)) */\n      mload(0x40)\n      dup3\n      0xffffffff\n      and\n      0xe0\n      shl\n      dup2\n      mstore\n      0x04\n      add\n      tag_84\n      swap2\n      swap1\n      tag_43\n      jump\t// in\n    tag_84:\n      0x20\n      mload(0x40)\n      dup1\n      dup4\n      sub\n      dup2\n      dup7\n      gas\n      staticcall\n      iszero\n      dup1\n      iszero\n      tag_86\n      jumpi\n      returndatasize\n      0x00\n      dup1\n      returndatacopy\n      revert(0x00, returndatasize)\n    tag_86:\n      pop\n      pop\n      pop\n      pop\n      mload(0x40)\n      returndatasize\n      not(0x1f)\n      0x1f\n      dup3\n      add\n      and\n      dup3\n      add\n      dup1\n      0x40\n      mstore\n      pop\n      dup2\n      add\n      swap1\n      tag_87\n      swap2\n      swap1\n      tag_88\n      jump\t// in\n    tag_87:\n        /* \"contracts/ExchangeAggregator.sol\":1812:1857  return IERC20(token).balanceOf(address(this)) */\n      swap1\n      pop\n        /* \"contracts/ExchangeAggregator.sol\":1741:1864  function balanceToken(address token) public view returns(uint){... */\n      swap2\n      swap1\n      pop\n      jump\t// out\n        /* \"contracts/ExchangeAggregator.sol\":908:1338  function swap(swapData calldata data,bytes calldata sig) public {... */\n    tag_33:\n        /* \"contracts/ExchangeAggregator.sol\":1005:1015  msg.sender */\n      caller\n        /* \"contracts/ExchangeAggregator.sol\":990:1015  data.sender == msg.sender */\n      0xffffffffffffffffffffffffffffffffffffffff\n      and\n        /* \"contracts/ExchangeAggregator.sol\":990:994  data */\n      dup4\n        /* \"contracts/ExchangeAggregator.sol\":990:1001  data.sender */\n      0xa0\n      add\n      0x20\n      dup2\n      add\n      swap1\n      tag_90\n      swap2\n      swap1\n      tag_25\n      jump\t// in\n    tag_90:\n        /* \"contracts/ExchangeAggregator.sol\":990:1015  data.sender == msg.sender */\n      0xffffffffffffffffffffffffffffffffffffffff\n      and\n      eq\n        /* \"contracts/ExchangeAggregator.sol\":982:1033  require(data.sender == msg.sender,\"invaled sender\") */\n      tag_91\n      jumpi\n      mload(0x40)\n      0x08c379a000000000000000000000000000000000000000000000000000000000\n      dup2\n      mstore\n      0x04\n      add\n      tag_92\n      swap1\n      tag_93\n      jump\t// in\n    tag_92:\n      mload(0x40)\n      dup1\n      swap2\n      sub\n      swap1\n      revert\n    tag_91:\n        /* \"contracts/ExchangeAggregator.sol\":1043:1088  utils.checkSig(owner(),abi.encode(data), sig) */\n      tag_94\n        /* \"contracts/ExchangeAggregator.sol\":1058:1065  owner() */\n      tag_95\n        /* \"contracts/ExchangeAggregator.sol\":1058:1063  owner */\n      tag_59\n        /* \"contracts/ExchangeAggregator.sol\":1058:1065  owner() */\n      jump\t// in\n    tag_95:\n        /* \"contracts/ExchangeAggregator.sol\":1077:1081  data */\n      dup5\n        /* \"contracts/ExchangeAggregator.sol\":1066:1082  abi.encode(data) */\n      add(0x20, mload(0x40))\n      tag_96\n      swap2\n      swap1\n      tag_97\n      jump\t// in\n    tag_96:\n      mload(0x40)\n      0x20\n      dup2\n      dup4\n      sub\n      sub\n      dup2\n      mstore\n      swap1\n      0x40\n      mstore\n        /* \"contracts/ExchangeAggregator.sol\":1084:1087  sig */\n      dup5\n      dup5\n        /* \"contracts/ExchangeAggregator.sol\":1043:1088  utils.checkSig(owner(),abi.encode(data), sig) */\n      dup1\n      dup1\n      0x1f\n      add\n      0x20\n      dup1\n      swap2\n      div\n      mul\n      0x20\n      add\n      mload(0x40)\n      swap1\n      dup2\n      add\n      0x40\n      mstore\n      dup1\n      swap4\n      swap3\n      swap2\n      swap1\n      dup2\n      dup2\n      mstore\n      0x20\n      add\n      dup4\n      dup4\n      dup1\n      dup3\n      dup5\n      calldatacopy\n      0x00\n      dup2\n      dup5\n      add\n      mstore\n      not(0x1f)\n      0x1f\n      dup3\n      add\n      and\n      swap1\n      pop\n      dup1\n      dup4\n      add\n      swap3\n      pop\n      pop\n      pop\n      pop\n      pop\n      pop\n      pop\n        /* \"contracts/ExchangeAggregator.sol\":1043:1057  utils.checkSig */\n      tag_98\n        /* \"contracts/ExchangeAggregator.sol\":1043:1088  utils.checkSig(owner(),abi.encode(data), sig) */\n      jump\t// in\n    tag_94:\n        /* \"contracts/ExchangeAggregator.sol\":1098:1183  TransferHelper.safeTransferFrom(data.input,msg.sender,address(this),data.totalAmount) */\n      tag_99\n        /* \"contracts/ExchangeAggregator.sol\":1130:1134  data */\n      dup4\n        /* \"contracts/ExchangeAggregator.sol\":1130:1140  data.input */\n      0x00\n      add\n      0x20\n      dup2\n      add\n      swap1\n      tag_100\n      swap2\n      swap1\n      tag_25\n      jump\t// in\n    tag_100:\n        /* \"contracts/ExchangeAggregator.sol\":1141:1151  msg.sender */\n      caller\n        /* \"contracts/ExchangeAggregator.sol\":1160:1164  this */\n      address\n        /* \"contracts/ExchangeAggregator.sol\":1166:1170  data */\n      dup7\n        /* \"contracts/ExchangeAggregator.sol\":1166:1182  data.totalAmount */\n      0x20\n      add\n      calldataload\n        /* \"contracts/ExchangeAggregator.sol\":1098:1129  TransferHelper.safeTransferFrom */\n      tag_101\n        /* \"contracts/ExchangeAggregator.sol\":1098:1183  TransferHelper.safeTransferFrom(data.input,msg.sender,address(this),data.totalAmount) */\n      jump\t// in\n    tag_99:\n        /* \"contracts/ExchangeAggregator.sol\":1193:1276  TransferHelper.safeApprove(data.input,data.swapper,data.totalAmount-data.feeAmount) */\n      tag_102\n        /* \"contracts/ExchangeAggregator.sol\":1220:1224  data */\n      dup4\n        /* \"contracts/ExchangeAggregator.sol\":1220:1230  data.input */\n      0x00\n      add\n      0x20\n      dup2\n      add\n      swap1\n      tag_103\n      swap2\n      swap1\n      tag_25\n      jump\t// in\n    tag_103:\n        /* \"contracts/ExchangeAggregator.sol\":1231:1235  data */\n      dup5\n        /* \"contracts/ExchangeAggregator.sol\":1231:1243  data.swapper */\n      0x60\n      add\n      0x20\n      dup2\n      add\n      swap1\n      tag_104\n      swap2\n      swap1\n      tag_25\n      jump\t// in\n    tag_104:\n        /* \"contracts/ExchangeAggregator.sol\":1261:1265  data */\n      dup6\n        /* \"contracts/ExchangeAggregator.sol\":1261:1275  data.feeAmount */\n      0x40\n      add\n      calldataload\n        /* \"contracts/ExchangeAggregator.sol\":1244:1248  data */\n      dup7\n        /* \"contracts/ExchangeAggregator.sol\":1244:1260  data.totalAmount */\n      0x20\n      add\n      calldataload\n        /* \"contracts/ExchangeAggregator.sol\":1244:1275  data.totalAmount-data.feeAmount */\n      tag_105\n      swap2\n      swap1\n      tag_106\n      jump\t// in\n    tag_105:\n        /* \"contracts/ExchangeAggregator.sol\":1193:1219  TransferHelper.safeApprove */\n      tag_107\n        /* \"contracts/ExchangeAggregator.sol\":1193:1276  TransferHelper.safeApprove(data.input,data.swapper,data.totalAmount-data.feeAmount) */\n      jump\t// in\n    tag_102:\n        /* \"contracts/ExchangeAggregator.sol\":1286:1331  SafeCaller.safeCall(data.swapper,0,data.data) */\n      tag_108\n        /* \"contracts/ExchangeAggregator.sol\":1306:1310  data */\n      dup4\n        /* \"contracts/ExchangeAggregator.sol\":1306:1318  data.swapper */\n      0x60\n      add\n      0x20\n      dup2\n      add\n      swap1\n      tag_109\n      swap2\n      swap1\n      tag_25\n      jump\t// in\n    tag_109:\n        /* \"contracts/ExchangeAggregator.sol\":1319:1320  0 */\n      0x00\n        /* \"contracts/ExchangeAggregator.sol\":1321:1325  data */\n      dup6\n        /* \"contracts/ExchangeAggregator.sol\":1321:1330  data.data */\n      dup1\n      0x80\n      add\n      swap1\n      tag_110\n      swap2\n      swap1\n      tag_111\n      jump\t// in\n    tag_110:\n        /* \"contracts/ExchangeAggregator.sol\":1286:1331  SafeCaller.safeCall(data.swapper,0,data.data) */\n      dup1\n      dup1\n      0x1f\n      add\n      0x20\n      dup1\n      swap2\n      div\n      mul\n      0x20\n      add\n      mload(0x40)\n      swap1\n      dup2\n      add\n      0x40\n      mstore\n      dup1\n      swap4\n      swap3\n      swap2\n      swap1\n      dup2\n      dup2\n      mstore\n      0x20\n      add\n      dup4\n      dup4\n      dup1\n      dup3\n      dup5\n      calldatacopy\n      0x00\n      dup2\n      dup5\n      add\n      mstore\n      not(0x1f)\n      0x1f\n      dup3\n      add\n      and\n      swap1\n      pop\n      dup1\n      dup4\n      add\n      swap3\n      pop\n      pop\n      pop\n      pop\n      pop\n      pop\n      pop\n        /* \"contracts/ExchangeAggregator.sol\":1286:1305  SafeCaller.safeCall */\n      tag_112\n        /* \"contracts/ExchangeAggregator.sol\":1286:1331  SafeCaller.safeCall(data.swapper,0,data.data) */\n      jump\t// in\n    tag_108:\n        /* \"contracts/ExchangeAggregator.sol\":908:1338  function swap(swapData calldata data,bytes calldata sig) public {... */\n      pop\n      pop\n      pop\n      jump\t// out\n        /* \"contracts/ExchangeAggregator.sol\":1968:2088  function withdrawETH(address to,uint amount) public onlyOwner {... */\n    tag_38:\n        /* \"@openzeppelin/contracts/access/Ownable.sol\":1094:1107  _checkOwner() */\n      tag_114\n        /* \"@openzeppelin/contracts/access/Ownable.sol\":1094:1105  _checkOwner */\n      tag_79\n        /* \"@openzeppelin/contracts/access/Ownable.sol\":1094:1107  _checkOwner() */\n      jump\t// in\n    tag_114:\n        /* \"contracts/ExchangeAggregator.sol\":2040:2081  TransferHelper.safeTransferETH(to,amount) */\n      tag_116\n        /* \"contracts/ExchangeAggregator.sol\":2071:2073  to */\n      dup3\n        /* \"contracts/ExchangeAggregator.sol\":2074:2080  amount */\n      dup3\n        /* \"contracts/ExchangeAggregator.sol\":2040:2070  TransferHelper.safeTransferETH */\n      tag_117\n        /* \"contracts/ExchangeAggregator.sol\":2040:2081  TransferHelper.safeTransferETH(to,amount) */\n      jump\t// in\n    tag_116:\n        /* \"contracts/ExchangeAggregator.sol\":1968:2088  function withdrawETH(address to,uint amount) public onlyOwner {... */\n      pop\n      pop\n      jump\t// out\n        /* \"contracts/ExchangeAggregator.sol\":484:512  address public PriceProvider */\n    tag_41:\n      0x02\n      0x00\n      swap1\n      sload\n      swap1\n      0x0100\n      exp\n      swap1\n      div\n      0xffffffffffffffffffffffffffffffffffffffff\n      and\n      dup2\n      jump\t// out\n        /* \"contracts/ExchangeAggregator.sol\":1344:1735  function swapNativeIn(swapData calldata data,bytes calldata sig) public payable {... */\n    tag_46:\n        /* \"contracts/ExchangeAggregator.sol\":1457:1467  msg.sender */\n      caller\n        /* \"contracts/ExchangeAggregator.sol\":1442:1467  data.sender == msg.sender */\n      0xffffffffffffffffffffffffffffffffffffffff\n      and\n        /* \"contracts/ExchangeAggregator.sol\":1442:1446  data */\n      dup4\n        /* \"contracts/ExchangeAggregator.sol\":1442:1453  data.sender */\n      0xa0\n      add\n      0x20\n      dup2\n      add\n      swap1\n      tag_119\n      swap2\n      swap1\n      tag_25\n      jump\t// in\n    tag_119:\n        /* \"contracts/ExchangeAggregator.sol\":1442:1467  data.sender == msg.sender */\n      0xffffffffffffffffffffffffffffffffffffffff\n      and\n      eq\n        /* \"contracts/ExchangeAggregator.sol\":1434:1485  require(data.sender == msg.sender,\"invaled sender\") */\n      tag_120\n      jumpi\n      mload(0x40)\n      0x08c379a000000000000000000000000000000000000000000000000000000000\n      dup2\n      mstore\n      0x04\n      add\n      tag_121\n      swap1\n      tag_93\n      jump\t// in\n    tag_121:\n      mload(0x40)\n      dup1\n      swap2\n      sub\n      swap1\n      revert\n    tag_120:\n        /* \"contracts/ExchangeAggregator.sol\":1495:1540  utils.checkSig(owner(),abi.encode(data), sig) */\n      tag_122\n        /* \"contracts/ExchangeAggregator.sol\":1510:1517  owner() */\n      tag_123\n        /* \"contracts/ExchangeAggregator.sol\":1510:1515  owner */\n      tag_59\n        /* \"contracts/ExchangeAggregator.sol\":1510:1517  owner() */\n      jump\t// in\n    tag_123:\n        /* \"contracts/ExchangeAggregator.sol\":1529:1533  data */\n      dup5\n        /* \"contracts/ExchangeAggregator.sol\":1518:1534  abi.encode(data) */\n      add(0x20, mload(0x40))\n      tag_124\n      swap2\n      swap1\n      tag_97\n      jump\t// in\n    tag_124:\n      mload(0x40)\n      0x20\n      dup2\n      dup4\n      sub\n      sub\n      dup2\n      mstore\n      swap1\n      0x40\n      mstore\n        /* \"contracts/ExchangeAggregator.sol\":1536:1539  sig */\n      dup5\n      dup5\n        /* \"contracts/ExchangeAggregator.sol\":1495:1540  utils.checkSig(owner(),abi.encode(data), sig) */\n      dup1\n      dup1\n      0x1f\n      add\n      0x20\n      dup1\n      swap2\n      div\n      mul\n      0x20\n      add\n      mload(0x40)\n      swap1\n      dup2\n      add\n      0x40\n      mstore\n      dup1\n      swap4\n      swap3\n      swap2\n      swap1\n      dup2\n      dup2\n      mstore\n      0x20\n      add\n      dup4\n      dup4\n      dup1\n      dup3\n      dup5\n      calldatacopy\n      0x00\n      dup2\n      dup5\n      add\n      mstore\n      not(0x1f)\n      0x1f\n      dup3\n      add\n      and\n      swap1\n      pop\n      dup1\n      dup4\n      add\n      swap3\n      pop\n      pop\n      pop\n      pop\n      pop\n      pop\n      pop\n        /* \"contracts/ExchangeAggregator.sol\":1495:1509  utils.checkSig */\n      tag_98\n        /* \"contracts/ExchangeAggregator.sol\":1495:1540  utils.checkSig(owner(),abi.encode(data), sig) */\n      jump\t// in\n    tag_122:\n        /* \"contracts/ExchangeAggregator.sol\":1571:1575  data */\n      dup3\n        /* \"contracts/ExchangeAggregator.sol\":1571:1587  data.totalAmount */\n      0x20\n      add\n      calldataload\n        /* \"contracts/ExchangeAggregator.sol\":1558:1567  msg.value */\n      callvalue\n        /* \"contracts/ExchangeAggregator.sol\":1558:1587  msg.value >= data.totalAmount */\n      lt\n      iszero\n        /* \"contracts/ExchangeAggregator.sol\":1550:1616  require(msg.value >= data.totalAmount,\"insufficient input amount\") */\n      tag_125\n      jumpi\n      mload(0x40)\n      0x08c379a000000000000000000000000000000000000000000000000000000000\n      dup2\n      mstore\n      0x04\n      add\n      tag_126\n      swap1\n      tag_127\n      jump\t// in\n    tag_126:\n      mload(0x40)\n      dup1\n      swap2\n      sub\n      swap1\n      revert\n    tag_125:\n        /* \"contracts/ExchangeAggregator.sol\":1626:1637  uint amount */\n      0x00\n        /* \"contracts/ExchangeAggregator.sol\":1652:1656  data */\n      dup4\n        /* \"contracts/ExchangeAggregator.sol\":1652:1666  data.feeAmount */\n      0x40\n      add\n      calldataload\n        /* \"contracts/ExchangeAggregator.sol\":1640:1649  msg.value */\n      callvalue\n        /* \"contracts/ExchangeAggregator.sol\":1640:1666  msg.value - data.feeAmount */\n      tag_128\n      swap2\n      swap1\n      tag_106\n      jump\t// in\n    tag_128:\n        /* \"contracts/ExchangeAggregator.sol\":1626:1666  uint amount = msg.value - data.feeAmount */\n      swap1\n      pop\n        /* \"contracts/ExchangeAggregator.sol\":1678:1728  SafeCaller.safeCall(data.swapper,amount,data.data) */\n      tag_129\n        /* \"contracts/ExchangeAggregator.sol\":1698:1702  data */\n      dup5\n        /* \"contracts/ExchangeAggregator.sol\":1698:1710  data.swapper */\n      0x60\n      add\n      0x20\n      dup2\n      add\n      swap1\n      tag_130\n      swap2\n      swap1\n      tag_25\n      jump\t// in\n    tag_130:\n        /* \"contracts/ExchangeAggregator.sol\":1711:1717  amount */\n      dup3\n        /* \"contracts/ExchangeAggregator.sol\":1718:1722  data */\n      dup7\n        /* \"contracts/ExchangeAggregator.sol\":1718:1727  data.data */\n      dup1\n      0x80\n      add\n      swap1\n      tag_131\n      swap2\n      swap1\n      tag_111\n      jump\t// in\n    tag_131:\n        /* \"contracts/ExchangeAggregator.sol\":1678:1728  SafeCaller.safeCall(data.swapper,amount,data.data) */\n      dup1\n      dup1\n      0x1f\n      add\n      0x20\n      dup1\n      swap2\n      div\n      mul\n      0x20\n      add\n      mload(0x40)\n      swap1\n      dup2\n      add\n      0x40\n      mstore\n      dup1\n      swap4\n      swap3\n      swap2\n      swap1\n      dup2\n      dup2\n      mstore\n      0x20\n      add\n      dup4\n      dup4\n      dup1\n      dup3\n      dup5\n      calldatacopy\n      0x00\n      dup2\n      dup5\n      add\n      mstore\n      not(0x1f)\n      0x1f\n      dup3\n      add\n      and\n      swap1\n      pop\n      dup1\n      dup4\n      add\n      swap3\n      pop\n      pop\n      pop\n      pop\n      pop\n      pop\n      pop\n        /* \"contracts/ExchangeAggregator.sol\":1678:1697  SafeCaller.safeCall */\n      tag_112\n        /* \"contracts/ExchangeAggregator.sol\":1678:1728  SafeCaller.safeCall(data.swapper,amount,data.data) */\n      jump\t// in\n    tag_129:\n        /* \"contracts/ExchangeAggregator.sol\":1424:1735  {... */\n      pop\n        /* \"contracts/ExchangeAggregator.sol\":1344:1735  function swapNativeIn(swapData calldata data,bytes calldata sig) public payable {... */\n      pop\n      pop\n      pop\n      jump\t// out\n        /* \"contracts/ExchangeAggregator.sol\":648:902  function estimateAmountOut(address provider,address tA,address tB,uint256 amountIn,uint8 version) external view returns (uint256 amountOut,uint24 fee){... */\n    tag_51:\n        /* \"contracts/ExchangeAggregator.sol\":769:786  uint256 amountOut */\n      0x00\n        /* \"contracts/ExchangeAggregator.sol\":787:797  uint24 fee */\n      dup1\n        /* \"contracts/ExchangeAggregator.sol\":830:843  PriceProvider */\n      0x02\n      0x00\n      swap1\n      sload\n      swap1\n      0x0100\n      exp\n      swap1\n      div\n      0xffffffffffffffffffffffffffffffffffffffff\n      and\n        /* \"contracts/ExchangeAggregator.sol\":815:862  IPriceProvider(PriceProvider).estimateAmountOut */\n      0xffffffffffffffffffffffffffffffffffffffff\n      and\n      0x6110358d\n        /* \"contracts/ExchangeAggregator.sol\":863:871  provider */\n      dup9\n        /* \"contracts/ExchangeAggregator.sol\":872:874  tA */\n      dup9\n        /* \"contracts/ExchangeAggregator.sol\":875:877  tB */\n      dup9\n        /* \"contracts/ExchangeAggregator.sol\":878:886  amountIn */\n      dup9\n        /* \"contracts/ExchangeAggregator.sol\":887:894  version */\n      dup9\n        /* \"contracts/ExchangeAggregator.sol\":815:895  IPriceProvider(PriceProvider).estimateAmountOut(provider,tA,tB,amountIn,version) */\n      mload(0x40)\n      dup7\n      0xffffffff\n      and\n      0xe0\n      shl\n      dup2\n      mstore\n      0x04\n      add\n      tag_133\n      swap6\n      swap5\n      swap4\n      swap3\n      swap2\n      swap1\n      tag_134\n      jump\t// in\n    tag_133:\n      0x40\n      dup1\n      mload\n      dup1\n      dup4\n      sub\n      dup2\n      dup7\n      gas\n      staticcall\n      iszero\n      dup1\n      iszero\n      tag_136\n      jumpi\n      returndatasize\n      0x00\n      dup1\n      returndatacopy\n      revert(0x00, returndatasize)\n    tag_136:\n      pop\n      pop\n      pop\n      pop\n      mload(0x40)\n      returndatasize\n      not(0x1f)\n      0x1f\n      dup3\n      add\n      and\n      dup3\n      add\n      dup1\n      0x40\n      mstore\n      pop\n      dup2\n      add\n      swap1\n      tag_137\n      swap2\n      swap1\n      tag_138\n      jump\t// in\n    tag_137:\n        /* \"contracts/ExchangeAggregator.sol\":808:895  return IPriceProvider(PriceProvider).estimateAmountOut(provider,tA,tB,amountIn,version) */\n      swap2\n      pop\n      swap2\n      pop\n        /* \"contracts/ExchangeAggregator.sol\":648:902  function estimateAmountOut(address provider,address tA,address tB,uint256 amountIn,uint8 version) external view returns (uint256 amountOut,uint24 fee){... */\n      swap6\n      pop\n      swap6\n      swap4\n      pop\n      pop\n      pop\n      pop\n      jump\t// out\n        /* \"@openzeppelin/contracts/access/Ownable.sol\":1831:1932  function renounceOwnership() public virtual onlyOwner {... */\n    tag_56:\n        /* \"@openzeppelin/contracts/access/Ownable.sol\":1094:1107  _checkOwner() */\n      tag_140\n        /* \"@openzeppelin/contracts/access/Ownable.sol\":1094:1105  _checkOwner */\n      tag_79\n        /* \"@openzeppelin/contracts/access/Ownable.sol\":1094:1107  _checkOwner() */\n      jump\t// in\n    tag_140:\n        /* \"@openzeppelin/contracts/access/Ownable.sol\":1895:1925  _transferOwnership(address(0)) */\n      tag_142\n        /* \"@openzeppelin/contracts/access/Ownable.sol\":1922:1923  0 */\n      0x00\n        /* \"@openzeppelin/contracts/access/Ownable.sol\":1895:1913  _transferOwnership */\n      tag_143\n        /* \"@openzeppelin/contracts/access/Ownable.sol\":1895:1925  _transferOwnership(address(0)) */\n      jump\t// in\n    tag_142:\n        /* \"@openzeppelin/contracts/access/Ownable.sol\":1831:1932  function renounceOwnership() public virtual onlyOwner {... */\n      jump\t// out\n        /* \"@openzeppelin/contracts/access/Ownable.sol\":1201:1286  function owner() public view virtual returns (address) {... */\n    tag_59:\n        /* \"@openzeppelin/contracts/access/Ownable.sol\":1247:1254  address */\n      0x00\n        /* \"@openzeppelin/contracts/access/Ownable.sol\":1273:1279  _owner */\n      dup1\n      0x00\n      swap1\n      sload\n      swap1\n      0x0100\n      exp\n      swap1\n      div\n      0xffffffffffffffffffffffffffffffffffffffff\n      and\n        /* \"@openzeppelin/contracts/access/Ownable.sol\":1266:1279  return _owner */\n      swap1\n      pop\n        /* \"@openzeppelin/contracts/access/Ownable.sol\":1201:1286  function owner() public view virtual returns (address) {... */\n      swap1\n      jump\t// out\n        /* \"contracts/ExchangeAggregator.sol\":459:478  address public WETH */\n    tag_63:\n      0x01\n      0x00\n      swap1\n      sload\n      swap1\n      0x0100\n      exp\n      swap1\n      div\n      0xffffffffffffffffffffffffffffffffffffffff\n      and\n      dup2\n      jump\t// out\n        /* \"contracts/ExchangeAggregator.sol\":2239:2356  function changePriceProvider(address _PriceProvider) public onlyOwner {... */\n    tag_68:\n        /* \"@openzeppelin/contracts/access/Ownable.sol\":1094:1107  _checkOwner() */\n      tag_146\n        /* \"@openzeppelin/contracts/access/Ownable.sol\":1094:1105  _checkOwner */\n      tag_79\n        /* \"@openzeppelin/contracts/access/Ownable.sol\":1094:1107  _checkOwner() */\n      jump\t// in\n    tag_146:\n        /* \"contracts/ExchangeAggregator.sol\":2335:2349  _PriceProvider */\n      dup1\n        /* \"contracts/ExchangeAggregator.sol\":2319:2332  PriceProvider */\n      0x02\n      0x00\n        /* \"contracts/ExchangeAggregator.sol\":2319:2349  PriceProvider = _PriceProvider */\n      0x0100\n      exp\n      dup2\n      sload\n      dup2\n      0xffffffffffffffffffffffffffffffffffffffff\n      mul\n      not\n      and\n      swap1\n      dup4\n      0xffffffffffffffffffffffffffffffffffffffff\n      and\n      mul\n      or\n      swap1\n      sstore\n      pop\n        /* \"contracts/ExchangeAggregator.sol\":2239:2356  function changePriceProvider(address _PriceProvider) public onlyOwner {... */\n      pop\n      jump\t// out\n        /* \"contracts/ExchangeAggregator.sol\":1870:1962  function balanceETH() public view returns(uint){... */\n    tag_71:\n        /* \"contracts/ExchangeAggregator.sol\":1912:1916  uint */\n      0x00\n        /* \"contracts/ExchangeAggregator.sol\":1934:1955  address(this).balance */\n      selfbalance\n        /* \"contracts/ExchangeAggregator.sol\":1927:1955  return address(this).balance */\n      swap1\n      pop\n        /* \"contracts/ExchangeAggregator.sol\":1870:1962  function balanceETH() public view returns(uint){... */\n      swap1\n      jump\t// out\n        /* \"@openzeppelin/contracts/access/Ownable.sol\":2081:2279  function transferOwnership(address newOwner) public virtual onlyOwner {... */\n    tag_76:\n        /* \"@openzeppelin/contracts/access/Ownable.sol\":1094:1107  _checkOwner() */\n      tag_150\n        /* \"@openzeppelin/contracts/access/Ownable.sol\":1094:1105  _checkOwner */\n      tag_79\n        /* \"@openzeppelin/contracts/access/Ownable.sol\":1094:1107  _checkOwner() */\n      jump\t// in\n    tag_150:\n        /* \"@openzeppelin/contracts/access/Ownable.sol\":2189:2190  0 */\n      0x00\n        /* \"@openzeppelin/contracts/access/Ownable.sol\":2169:2191  newOwner != address(0) */\n      0xffffffffffffffffffffffffffffffffffffffff\n      and\n        /* \"@openzeppelin/contracts/access/Ownable.sol\":2169:2177  newOwner */\n      dup2\n        /* \"@openzeppelin/contracts/access/Ownable.sol\":2169:2191  newOwner != address(0) */\n      0xffffffffffffffffffffffffffffffffffffffff\n      and\n      sub\n        /* \"@openzeppelin/contracts/access/Ownable.sol\":2161:2234  require(newOwner != address(0), \"Ownable: new owner is the zero address\") */\n      tag_152\n      jumpi\n      mload(0x40)\n      0x08c379a000000000000000000000000000000000000000000000000000000000\n      dup2\n      mstore\n      0x04\n      add\n      tag_153\n      swap1\n      tag_154\n      jump\t// in\n    tag_153:\n      mload(0x40)\n      dup1\n      swap2\n      sub\n      swap1\n      revert\n    tag_152:\n        /* \"@openzeppelin/contracts/access/Ownable.sol\":2244:2272  _transferOwnership(newOwner) */\n      tag_155\n        /* \"@openzeppelin/contracts/access/Ownable.sol\":2263:2271  newOwner */\n      dup2\n        /* \"@openzeppelin/contracts/access/Ownable.sol\":2244:2262  _transferOwnership */\n      tag_143\n        /* \"@openzeppelin/contracts/access/Ownable.sol\":2244:2272  _transferOwnership(newOwner) */\n      jump\t// in\n    tag_155:\n        /* \"@openzeppelin/contracts/access/Ownable.sol\":2081:2279  function transferOwnership(address newOwner) public virtual onlyOwner {... */\n      pop\n      jump\t// out\n        /* \"@openzeppelin/contracts/access/Ownable.sol\":1359:1489  function _checkOwner() internal view virtual {... */\n    tag_79:\n        /* \"@openzeppelin/contracts/access/Ownable.sol\":1433:1445  _msgSender() */\n      tag_157\n        /* \"@openzeppelin/contracts/access/Ownable.sol\":1433:1443  _msgSender */\n      tag_158\n        /* \"@openzeppelin/contracts/access/Ownable.sol\":1433:1445  _msgSender() */\n      jump\t// in\n    tag_157:\n        /* \"@openzeppelin/contracts/access/Ownable.sol\":1422:1445  owner() == _msgSender() */\n      0xffffffffffffffffffffffffffffffffffffffff\n      and\n        /* \"@openzeppelin/contracts/access/Ownable.sol\":1422:1429  owner() */\n      tag_159\n        /* \"@openzeppelin/contracts/access/Ownable.sol\":1422:1427  owner */\n      tag_59\n        /* \"@openzeppelin/contracts/access/Ownable.sol\":1422:1429  owner() */\n      jump\t// in\n    tag_159:\n        /* \"@openzeppelin/contracts/access/Ownable.sol\":1422:1445  owner() == _msgSender() */\n      0xffffffffffffffffffffffffffffffffffffffff\n      and\n      eq\n        /* \"@openzeppelin/contracts/access/Ownable.sol\":1414:1482  require(owner() == _msgSender(), \"Ownable: caller is not the owner\") */\n      tag_160\n      jumpi\n      mload(0x40)\n      0x08c379a000000000000000000000000000000000000000000000000000000000\n      dup2\n      mstore\n      0x04\n      add\n      tag_161\n      swap1\n      tag_162\n      jump\t// in\n    tag_161:\n      mload(0x40)\n      dup1\n      swap2\n      sub\n      swap1\n      revert\n    tag_160:\n        /* \"@openzeppelin/contracts/access/Ownable.sol\":1359:1489  function _checkOwner() internal view virtual {... */\n      jump\t// out\n        /* \"contracts/libraries/transferHelper.sol\":655:1095  function safeTransfer(... */\n    tag_82:\n        /* \"contracts/libraries/transferHelper.sol\":835:847  bool success */\n      0x00\n        /* \"contracts/libraries/transferHelper.sol\":849:866  bytes memory data */\n      dup1\n        /* \"contracts/libraries/transferHelper.sol\":870:875  token */\n      dup5\n        /* \"contracts/libraries/transferHelper.sol\":870:880  token.call */\n      0xffffffffffffffffffffffffffffffffffffffff\n      and\n        /* \"contracts/libraries/transferHelper.sol\":904:914  0xa9059cbb */\n      0xa9059cbb\n        /* \"contracts/libraries/transferHelper.sol\":916:918  to */\n      dup6\n        /* \"contracts/libraries/transferHelper.sol\":920:925  value */\n      dup6\n        /* \"contracts/libraries/transferHelper.sol\":881:926  abi.encodeWithSelector(0xa9059cbb, to, value) */\n      add(0x24, mload(0x40))\n      tag_164\n      swap3\n      swap2\n      swap1\n      tag_165\n      jump\t// in\n    tag_164:\n      mload(0x40)\n      0x20\n      dup2\n      dup4\n      sub\n      sub\n      dup2\n      mstore\n      swap1\n      0x40\n      mstore\n      swap1\n      0xe0\n      shl\n      0x20\n      dup3\n      add\n      dup1\n      mload\n      0xffffffffffffffffffffffffffffffffffffffffffffffffffffffff\n      dup4\n      dup2\n      dup4\n      and\n      or\n      dup4\n      mstore\n      pop\n      pop\n      pop\n      pop\n        /* \"contracts/libraries/transferHelper.sol\":870:927  token.call(abi.encodeWithSelector(0xa9059cbb, to, value)) */\n      mload(0x40)\n      tag_166\n      swap2\n      swap1\n      tag_167\n      jump\t// in\n    tag_166:\n      0x00\n      mload(0x40)\n      dup1\n      dup4\n      sub\n      dup2\n      0x00\n      dup7\n      gas\n      call\n      swap2\n      pop\n      pop\n      returndatasize\n      dup1\n      0x00\n      dup2\n      eq\n      tag_170\n      jumpi\n      mload(0x40)\n      swap2\n      pop\n      and(add(returndatasize, 0x3f), not(0x1f))\n      dup3\n      add\n      0x40\n      mstore\n      returndatasize\n      dup3\n      mstore\n      returndatasize\n      0x00\n      0x20\n      dup5\n      add\n      returndatacopy\n      jump(tag_169)\n    tag_170:\n      0x60\n      swap2\n      pop\n    tag_169:\n      pop\n        /* \"contracts/libraries/transferHelper.sol\":834:927  (bool success, bytes memory data) = token.call(abi.encodeWithSelector(0xa9059cbb, to, value)) */\n      swap2\n      pop\n      swap2\n      pop\n        /* \"contracts/libraries/transferHelper.sol\":958:965  success */\n      dup2\n        /* \"contracts/libraries/transferHelper.sol\":958:1015  success && (data.length == 0 || abi.decode(data, (bool))) */\n      dup1\n      iszero\n      tag_171\n      jumpi\n      pop\n        /* \"contracts/libraries/transferHelper.sol\":985:986  0 */\n      0x00\n        /* \"contracts/libraries/transferHelper.sol\":970:974  data */\n      dup2\n        /* \"contracts/libraries/transferHelper.sol\":970:981  data.length */\n      mload\n        /* \"contracts/libraries/transferHelper.sol\":970:986  data.length == 0 */\n      eq\n        /* \"contracts/libraries/transferHelper.sol\":970:1014  data.length == 0 || abi.decode(data, (bool)) */\n      dup1\n      tag_172\n      jumpi\n      pop\n        /* \"contracts/libraries/transferHelper.sol\":1001:1005  data */\n      dup1\n        /* \"contracts/libraries/transferHelper.sol\":990:1014  abi.decode(data, (bool)) */\n      dup1\n      0x20\n      add\n      swap1\n      mload\n      dup2\n      add\n      swap1\n      tag_173\n      swap2\n      swap1\n      tag_174\n      jump\t// in\n    tag_173:\n        /* \"contracts/libraries/transferHelper.sol\":970:1014  data.length == 0 || abi.decode(data, (bool)) */\n    tag_172:\n        /* \"contracts/libraries/transferHelper.sol\":958:1015  success && (data.length == 0 || abi.decode(data, (bool))) */\n    tag_171:\n        /* \"contracts/libraries/transferHelper.sol\":937:1088  require(... */\n      tag_175\n      jumpi\n      mload(0x40)\n      0x08c379a000000000000000000000000000000000000000000000000000000000\n      dup2\n      mstore\n      0x04\n      add\n      tag_176\n      swap1\n      tag_177\n      jump\t// in\n    tag_176:\n      mload(0x40)\n      dup1\n      swap2\n      sub\n      swap1\n      revert\n    tag_175:\n        /* \"contracts/libraries/transferHelper.sol\":758:1095  {... */\n      pop\n      pop\n        /* \"contracts/libraries/transferHelper.sol\":655:1095  function safeTransfer(... */\n      pop\n      pop\n      pop\n      jump\t// out\n        /* \"contracts/libraries/utils.sol\":224:484  function checkSig(address owner,bytes memory data, bytes memory sig) internal pure {... */\n    tag_98:\n        /* \"contracts/libraries/utils.sol\":327:331  0x1b */\n      0x1b\n        /* \"contracts/libraries/utils.sol\":317:331  sig[64] = 0x1b */\n      0xf8\n      shl\n        /* \"contracts/libraries/utils.sol\":317:320  sig */\n      dup2\n        /* \"contracts/libraries/utils.sol\":321:323  64 */\n      0x40\n        /* \"contracts/libraries/utils.sol\":317:324  sig[64] */\n      dup2\n      mload\n      dup2\n      lt\n      tag_179\n      jumpi\n      tag_180\n      tag_181\n      jump\t// in\n    tag_180:\n    tag_179:\n      0x20\n      add\n      add\n        /* \"contracts/libraries/utils.sol\":317:331  sig[64] = 0x1b */\n      swap1\n      not(0xffffffffffffffffffffffffffffffffffffffffffffffffffffffffffffff)\n      and\n      swap1\n      dup2\n      0x00\n      byte\n      swap1\n      mstore8\n      pop\n        /* \"contracts/libraries/utils.sol\":372:377  owner */\n      dup3\n        /* \"contracts/libraries/utils.sol\":345:377  hash(data).recover(sig) == owner */\n      0xffffffffffffffffffffffffffffffffffffffff\n      and\n        /* \"contracts/libraries/utils.sol\":345:368  hash(data).recover(sig) */\n      tag_182\n        /* \"contracts/libraries/utils.sol\":364:367  sig */\n      dup3\n        /* \"contracts/libraries/utils.sol\":345:355  hash(data) */\n      tag_183\n        /* \"contracts/libraries/utils.sol\":350:354  data */\n      dup6\n        /* \"contracts/libraries/utils.sol\":345:349  hash */\n      tag_184\n        /* \"contracts/libraries/utils.sol\":345:355  hash(data) */\n      jump\t// in\n    tag_183:\n        /* \"contracts/libraries/utils.sol\":345:363  hash(data).recover */\n      tag_185\n      swap1\n        /* \"contracts/libraries/utils.sol\":345:368  hash(data).recover(sig) */\n      swap2\n      swap1\n      0xffffffff\n      and\n      jump\t// in\n    tag_182:\n        /* \"contracts/libraries/utils.sol\":345:377  hash(data).recover(sig) == owner */\n      0xffffffffffffffffffffffffffffffffffffffff\n      and\n      sub\n        /* \"contracts/libraries/utils.sol\":341:387  if (hash(data).recover(sig) == owner) return ; */\n      iszero\n        /* \"contracts/libraries/utils.sol\":379:387  return ; */\n      tag_178\n        /* \"contracts/libraries/utils.sol\":341:387  if (hash(data).recover(sig) == owner) return ; */\n      jumpi\n        /* \"contracts/libraries/utils.sol\":406:410  0x1c */\n      0x1c\n        /* \"contracts/libraries/utils.sol\":396:410  sig[64] = 0x1c */\n      0xf8\n      shl\n        /* \"contracts/libraries/utils.sol\":396:399  sig */\n      dup2\n        /* \"contracts/libraries/utils.sol\":400:402  64 */\n      0x40\n        /* \"contracts/libraries/utils.sol\":396:403  sig[64] */\n      dup2\n      mload\n      dup2\n      lt\n      tag_187\n      jumpi\n      tag_188\n      tag_181\n      jump\t// in\n    tag_188:\n    tag_187:\n      0x20\n      add\n      add\n        /* \"contracts/libraries/utils.sol\":396:410  sig[64] = 0x1c */\n      swap1\n      not(0xffffffffffffffffffffffffffffffffffffffffffffffffffffffffffffff)\n      and\n      swap1\n      dup2\n      0x00\n      byte\n      swap1\n      mstore8\n      pop\n        /* \"contracts/libraries/utils.sol\":455:460  owner */\n      dup3\n        /* \"contracts/libraries/utils.sol\":428:460  hash(data).recover(sig) == owner */\n      0xffffffffffffffffffffffffffffffffffffffff\n      and\n        /* \"contracts/libraries/utils.sol\":428:451  hash(data).recover(sig) */\n      tag_189\n        /* \"contracts/libraries/utils.sol\":447:450  sig */\n      dup3\n        /* \"contracts/libraries/utils.sol\":428:438  hash(data) */\n      tag_190\n        /* \"contracts/libraries/utils.sol\":433:437  data */\n      dup6\n        /* \"contracts/libraries/utils.sol\":428:432  hash */\n      tag_184\n        /* \"contracts/libraries/utils.sol\":428:438  hash(data) */\n      jump\t// in\n    tag_190:\n        /* \"contracts/libraries/utils.sol\":428:446  hash(data).recover */\n      tag_185\n      swap1\n        /* \"contracts/libraries/utils.sol\":428:451  hash(data).recover(sig) */\n      swap2\n      swap1\n      0xffffffff\n      and\n      jump\t// in\n    tag_189:\n        /* \"contracts/libraries/utils.sol\":428:460  hash(data).recover(sig) == owner */\n      0xffffffffffffffffffffffffffffffffffffffff\n      and\n      eq\n        /* \"contracts/libraries/utils.sol\":420:477  require(hash(data).recover(sig) == owner,\"data tampered\") */\n      tag_191\n      jumpi\n      mload(0x40)\n      0x08c379a000000000000000000000000000000000000000000000000000000000\n      dup2\n      mstore\n      0x04\n      add\n      tag_192\n      swap1\n      tag_193\n      jump\t// in\n    tag_192:\n      mload(0x40)\n      dup1\n      swap2\n      sub\n      swap1\n      revert\n    tag_191:\n        /* \"contracts/libraries/utils.sol\":224:484  function checkSig(address owner,bytes memory data, bytes memory sig) internal pure {... */\n    tag_178:\n      pop\n      pop\n      pop\n      jump\t// out\n        /* \"contracts/libraries/transferHelper.sol\":1101:1589  function safeTransferFrom(... */\n    tag_101:\n        /* \"contracts/libraries/transferHelper.sol\":1319:1331  bool success */\n      0x00\n        /* \"contracts/libraries/transferHelper.sol\":1333:1350  bytes memory data */\n      dup1\n        /* \"contracts/libraries/transferHelper.sol\":1354:1359  token */\n      dup6\n        /* \"contracts/libraries/transferHelper.sol\":1354:1364  token.call */\n      0xffffffffffffffffffffffffffffffffffffffff\n      and\n        /* \"contracts/libraries/transferHelper.sol\":1388:1398  0x23b872dd */\n      0x23b872dd\n        /* \"contracts/libraries/transferHelper.sol\":1400:1404  from */\n      dup7\n        /* \"contracts/libraries/transferHelper.sol\":1406:1408  to */\n      dup7\n        /* \"contracts/libraries/transferHelper.sol\":1410:1415  value */\n      dup7\n        /* \"contracts/libraries/transferHelper.sol\":1365:1416  abi.encodeWithSelector(0x23b872dd, from, to, value) */\n      add(0x24, mload(0x40))\n      tag_195\n      swap4\n      swap3\n      swap2\n      swap1\n      tag_196\n      jump\t// in\n    tag_195:\n      mload(0x40)\n      0x20\n      dup2\n      dup4\n      sub\n      sub\n      dup2\n      mstore\n      swap1\n      0x40\n      mstore\n      swap1\n      0xe0\n      shl\n      0x20\n      dup3\n      add\n      dup1\n      mload\n      0xffffffffffffffffffffffffffffffffffffffffffffffffffffffff\n      dup4\n      dup2\n      dup4\n      and\n      or\n      dup4\n      mstore\n      pop\n      pop\n      pop\n      pop\n        /* \"contracts/libraries/transferHelper.sol\":1354:1417  token.call(abi.encodeWithSelector(0x23b872dd, from, to, value)) */\n      mload(0x40)\n      tag_197\n      swap2\n      swap1\n      tag_167\n      jump\t// in\n    tag_197:\n      0x00\n      mload(0x40)\n      dup1\n      dup4\n      sub\n      dup2\n      0x00\n      dup7\n      gas\n      call\n      swap2\n      pop\n      pop\n      returndatasize\n      dup1\n      0x00\n      dup2\n      eq\n      tag_200\n      jumpi\n      mload(0x40)\n      swap2\n      pop\n      and(add(returndatasize, 0x3f), not(0x1f))\n      dup3\n      add\n      0x40\n      mstore\n      returndatasize\n      dup3\n      mstore\n      returndatasize\n      0x00\n      0x20\n      dup5\n      add\n      returndatacopy\n      jump(tag_199)\n    tag_200:\n      0x60\n      swap2\n      pop\n    tag_199:\n      pop\n        /* \"contracts/libraries/transferHelper.sol\":1318:1417  (bool success, bytes memory data) = token.call(abi.encodeWithSelector(0x23b872dd, from, to, value)) */\n      swap2\n      pop\n      swap2\n      pop\n        /* \"contracts/libraries/transferHelper.sol\":1448:1455  success */\n      dup2\n        /* \"contracts/libraries/transferHelper.sol\":1448:1505  success && (data.length == 0 || abi.decode(data, (bool))) */\n      dup1\n      iszero\n      tag_201\n      jumpi\n      pop\n        /* \"contracts/libraries/transferHelper.sol\":1475:1476  0 */\n      0x00\n        /* \"contracts/libraries/transferHelper.sol\":1460:1464  data */\n      dup2\n        /* \"contracts/libraries/transferHelper.sol\":1460:1471  data.length */\n      mload\n        /* \"contracts/libraries/transferHelper.sol\":1460:1476  data.length == 0 */\n      eq\n        /* \"contracts/libraries/transferHelper.sol\":1460:1504  data.length == 0 || abi.decode(data, (bool)) */\n      dup1\n      tag_202\n      jumpi\n      pop\n        /* \"contracts/libraries/transferHelper.sol\":1491:1495  data */\n      dup1\n        /* \"contracts/libraries/transferHelper.sol\":1480:1504  abi.decode(data, (bool)) */\n      dup1\n      0x20\n      add\n      swap1\n      mload\n      dup2\n      add\n      swap1\n      tag_203\n      swap2\n      swap1\n      tag_174\n      jump\t// in\n    tag_203:\n        /* \"contracts/libraries/transferHelper.sol\":1460:1504  data.length == 0 || abi.decode(data, (bool)) */\n    tag_202:\n        /* \"contracts/libraries/transferHelper.sol\":1448:1505  success && (data.length == 0 || abi.decode(data, (bool))) */\n    tag_201:\n        /* \"contracts/libraries/transferHelper.sol\":1427:1582  require(... */\n      tag_204\n      jumpi\n      mload(0x40)\n      0x08c379a000000000000000000000000000000000000000000000000000000000\n      dup2\n      mstore\n      0x04\n      add\n      tag_205\n      swap1\n      tag_206\n      jump\t// in\n    tag_205:\n      mload(0x40)\n      dup1\n      swap2\n      sub\n      swap1\n      revert\n    tag_204:\n        /* \"contracts/libraries/transferHelper.sol\":1230:1589  {... */\n      pop\n      pop\n        /* \"contracts/libraries/transferHelper.sol\":1101:1589  function safeTransferFrom(... */\n      pop\n      pop\n      pop\n      pop\n      jump\t// out\n        /* \"contracts/libraries/transferHelper.sol\":212:649  function safeApprove(... */\n    tag_107:\n        /* \"contracts/libraries/transferHelper.sol\":390:402  bool success */\n      0x00\n        /* \"contracts/libraries/transferHelper.sol\":404:421  bytes memory data */\n      dup1\n        /* \"contracts/libraries/transferHelper.sol\":425:430  token */\n      dup5\n        /* \"contracts/libraries/transferHelper.sol\":425:435  token.call */\n      0xffffffffffffffffffffffffffffffffffffffff\n      and\n        /* \"contracts/libraries/transferHelper.sol\":459:469  0x095ea7b3 */\n      0x095ea7b3\n        /* \"contracts/libraries/transferHelper.sol\":471:473  to */\n      dup6\n        /* \"contracts/libraries/transferHelper.sol\":475:480  value */\n      dup6\n        /* \"contracts/libraries/transferHelper.sol\":436:481  abi.encodeWithSelector(0x095ea7b3, to, value) */\n      add(0x24, mload(0x40))\n      tag_208\n      swap3\n      swap2\n      swap1\n      tag_165\n      jump\t// in\n    tag_208:\n      mload(0x40)\n      0x20\n      dup2\n      dup4\n      sub\n      sub\n      dup2\n      mstore\n      swap1\n      0x40\n      mstore\n      swap1\n      0xe0\n      shl\n      0x20\n      dup3\n      add\n      dup1\n      mload\n      0xffffffffffffffffffffffffffffffffffffffffffffffffffffffff\n      dup4\n      dup2\n      dup4\n      and\n      or\n      dup4\n      mstore\n      pop\n      pop\n      pop\n      pop\n        /* \"contracts/libraries/transferHelper.sol\":425:482  token.call(abi.encodeWithSelector(0x095ea7b3, to, value)) */\n      mload(0x40)\n      tag_209\n      swap2\n      swap1\n      tag_167\n      jump\t// in\n    tag_209:\n      0x00\n      mload(0x40)\n      dup1\n      dup4\n      sub\n      dup2\n      0x00\n      dup7\n      gas\n      call\n      swap2\n      pop\n      pop\n      returndatasize\n      dup1\n      0x00\n      dup2\n      eq\n      tag_212\n      jumpi\n      mload(0x40)\n      swap2\n      pop\n      and(add(returndatasize, 0x3f), not(0x1f))\n      dup3\n      add\n      0x40\n      mstore\n      returndatasize\n      dup3\n      mstore\n      returndatasize\n      0x00\n      0x20\n      dup5\n      add\n      returndatacopy\n      jump(tag_211)\n    tag_212:\n      0x60\n      swap2\n      pop\n    tag_211:\n      pop\n        /* \"contracts/libraries/transferHelper.sol\":389:482  (bool success, bytes memory data) = token.call(abi.encodeWithSelector(0x095ea7b3, to, value)) */\n      swap2\n      pop\n      swap2\n      pop\n        /* \"contracts/libraries/transferHelper.sol\":513:520  success */\n      dup2\n        /* \"contracts/libraries/transferHelper.sol\":513:570  success && (data.length == 0 || abi.decode(data, (bool))) */\n      dup1\n      iszero\n      tag_213\n      jumpi\n      pop\n        /* \"contracts/libraries/transferHelper.sol\":540:541  0 */\n      0x00\n        /* \"contracts/libraries/transferHelper.sol\":525:529  data */\n      dup2\n        /* \"contracts/libraries/transferHelper.sol\":525:536  data.length */\n      mload\n        /* \"contracts/libraries/transferHelper.sol\":525:541  data.length == 0 */\n      eq\n        /* \"contracts/libraries/transferHelper.sol\":525:569  data.length == 0 || abi.decode(data, (bool)) */\n      dup1\n      tag_214\n      jumpi\n      pop\n        /* \"contracts/libraries/transferHelper.sol\":556:560  data */\n      dup1\n        /* \"contracts/libraries/transferHelper.sol\":545:569  abi.decode(data, (bool)) */\n      dup1\n      0x20\n      add\n      swap1\n      mload\n      dup2\n      add\n      swap1\n      tag_215\n      swap2\n      swap1\n      tag_174\n      jump\t// in\n    tag_215:\n        /* \"contracts/libraries/transferHelper.sol\":525:569  data.length == 0 || abi.decode(data, (bool)) */\n    tag_214:\n        /* \"contracts/libraries/transferHelper.sol\":513:570  success && (data.length == 0 || abi.decode(data, (bool))) */\n    tag_213:\n        /* \"contracts/libraries/transferHelper.sol\":492:642  require(... */\n      tag_216\n      jumpi\n      mload(0x40)\n      0x08c379a000000000000000000000000000000000000000000000000000000000\n      dup2\n      mstore\n      0x04\n      add\n      tag_217\n      swap1\n      tag_218\n      jump\t// in\n    tag_217:\n      mload(0x40)\n      dup1\n      swap2\n      sub\n      swap1\n      revert\n    tag_216:\n        /* \"contracts/libraries/transferHelper.sol\":314:649  {... */\n      pop\n      pop\n        /* \"contracts/libraries/transferHelper.sol\":212:649  function safeApprove(... */\n      pop\n      pop\n      pop\n      jump\t// out\n        /* \"contracts/libraries/safeCaller.sol\":83:554  function safeCall(... */\n    tag_112:\n        /* \"contracts/libraries/safeCaller.sol\":201:213  bool succeed */\n      0x00\n        /* \"contracts/libraries/safeCaller.sol\":214:233  bytes memory result */\n      dup1\n        /* \"contracts/libraries/safeCaller.sol\":237:246  _contract */\n      dup5\n        /* \"contracts/libraries/safeCaller.sol\":237:251  _contract.call */\n      0xffffffffffffffffffffffffffffffffffffffff\n      and\n        /* \"contracts/libraries/safeCaller.sol\":259:264  value */\n      dup5\n        /* \"contracts/libraries/safeCaller.sol\":266:270  data */\n      dup5\n        /* \"contracts/libraries/safeCaller.sol\":237:271  _contract.call{value: value}(data) */\n      mload(0x40)\n      tag_220\n      swap2\n      swap1\n      tag_167\n      jump\t// in\n    tag_220:\n      0x00\n      mload(0x40)\n      dup1\n      dup4\n      sub\n      dup2\n      dup6\n      dup8\n      gas\n      call\n      swap3\n      pop\n      pop\n      pop\n      returndatasize\n      dup1\n      0x00\n      dup2\n      eq\n      tag_223\n      jumpi\n      mload(0x40)\n      swap2\n      pop\n      and(add(returndatasize, 0x3f), not(0x1f))\n      dup3\n      add\n      0x40\n      mstore\n      returndatasize\n      dup3\n      mstore\n      returndatasize\n      0x00\n      0x20\n      dup5\n      add\n      returndatacopy\n      jump(tag_222)\n    tag_223:\n      0x60\n      swap2\n      pop\n    tag_222:\n      pop\n        /* \"contracts/libraries/safeCaller.sol\":200:271  (bool succeed,bytes memory result) = _contract.call{value: value}(data) */\n      swap2\n      pop\n      swap2\n      pop\n        /* \"contracts/libraries/safeCaller.sol\":286:293  succeed */\n      dup2\n        /* \"contracts/libraries/safeCaller.sol\":281:548  if (!succeed) {... */\n      tag_224\n      jumpi\n        /* \"contracts/libraries/safeCaller.sol\":333:335  68 */\n      0x44\n        /* \"contracts/libraries/safeCaller.sol\":317:323  result */\n      dup2\n        /* \"contracts/libraries/safeCaller.sol\":317:330  result.length */\n      mload\n        /* \"contracts/libraries/safeCaller.sol\":317:335  result.length < 68 */\n      lt\n        /* \"contracts/libraries/safeCaller.sol\":313:386  if (result.length < 68) revert(\"ExchangeAggregator::SafeCaller:safeCall\") */\n      iszero\n      tag_225\n      jumpi\n        /* \"contracts/libraries/safeCaller.sol\":337:386  revert(\"ExchangeAggregator::SafeCaller:safeCall\") */\n      mload(0x40)\n      0x08c379a000000000000000000000000000000000000000000000000000000000\n      dup2\n      mstore\n      0x04\n      add\n      tag_226\n      swap1\n      tag_227\n      jump\t// in\n    tag_226:\n      mload(0x40)\n      dup1\n      swap2\n      sub\n      swap1\n      revert\n        /* \"contracts/libraries/safeCaller.sol\":313:386  if (result.length < 68) revert(\"ExchangeAggregator::SafeCaller:safeCall\") */\n    tag_225:\n        /* \"contracts/libraries/safeCaller.sol\":457:461  0x04 */\n      0x04\n        /* \"contracts/libraries/safeCaller.sol\":449:455  result */\n      dup2\n        /* \"contracts/libraries/safeCaller.sol\":445:462  add(result, 0x04) */\n      add\n        /* \"contracts/libraries/safeCaller.sol\":435:462  result := add(result, 0x04) */\n      swap1\n      pop\n        /* \"contracts/libraries/safeCaller.sol\":515:521  result */\n      dup1\n        /* \"contracts/libraries/safeCaller.sol\":504:532  abi.decode(result, (string)) */\n      dup1\n      0x20\n      add\n      swap1\n      mload\n      dup2\n      add\n      swap1\n      tag_228\n      swap2\n      swap1\n      tag_229\n      jump\t// in\n    tag_228:\n        /* \"contracts/libraries/safeCaller.sol\":497:533  revert(abi.decode(result, (string))) */\n      mload(0x40)\n      0x08c379a000000000000000000000000000000000000000000000000000000000\n      dup2\n      mstore\n      0x04\n      add\n      tag_230\n      swap2\n      swap1\n      tag_231\n      jump\t// in\n    tag_230:\n      mload(0x40)\n      dup1\n      swap2\n      sub\n      swap1\n      revert\n        /* \"contracts/libraries/safeCaller.sol\":281:548  if (!succeed) {... */\n    tag_224:\n        /* \"contracts/libraries/safeCaller.sol\":190:554  {... */\n      pop\n      pop\n        /* \"contracts/libraries/safeCaller.sol\":83:554  function safeCall(... */\n      pop\n      pop\n      pop\n      jump\t// out\n        /* \"contracts/libraries/transferHelper.sol\":1595:1807  function safeTransferETH(address to, uint256 value) internal {... */\n    tag_117:\n        /* \"contracts/libraries/transferHelper.sol\":1667:1679  bool success */\n      0x00\n        /* \"contracts/libraries/transferHelper.sol\":1685:1687  to */\n      dup3\n        /* \"contracts/libraries/transferHelper.sol\":1685:1692  to.call */\n      0xffffffffffffffffffffffffffffffffffffffff\n      and\n        /* \"contracts/libraries/transferHelper.sol\":1700:1705  value */\n      dup3\n        /* \"contracts/libraries/transferHelper.sol\":1717:1718  0 */\n      0x00\n        /* \"contracts/libraries/transferHelper.sol\":1707:1719  new bytes(0) */\n      0xffffffffffffffff\n      dup2\n      gt\n      iszero\n      tag_233\n      jumpi\n      tag_234\n      tag_235\n      jump\t// in\n    tag_234:\n    tag_233:\n      mload(0x40)\n      swap1\n      dup1\n      dup3\n      mstore\n      dup1\n      0x1f\n      add\n      not(0x1f)\n      and\n      0x20\n      add\n      dup3\n      add\n      0x40\n      mstore\n      dup1\n      iszero\n      tag_236\n      jumpi\n      dup2\n      0x20\n      add\n      0x01\n      dup3\n      mul\n      dup1\n      calldatasize\n      dup4\n      calldatacopy\n      dup1\n      dup3\n      add\n      swap2\n      pop\n      pop\n      swap1\n      pop\n    tag_236:\n      pop\n        /* \"contracts/libraries/transferHelper.sol\":1685:1720  to.call{value: value}(new bytes(0)) */\n      mload(0x40)\n      tag_237\n      swap2\n      swap1\n      tag_167\n      jump\t// in\n    tag_237:\n      0x00\n      mload(0x40)\n      dup1\n      dup4\n      sub\n      dup2\n      dup6\n      dup8\n      gas\n      call\n      swap3\n      pop\n      pop\n      pop\n      returndatasize\n      dup1\n      0x00\n      dup2\n      eq\n      tag_240\n      jumpi\n      mload(0x40)\n      swap2\n      pop\n      and(add(returndatasize, 0x3f), not(0x1f))\n      dup3\n      add\n      0x40\n      mstore\n      returndatasize\n      dup3\n      mstore\n      returndatasize\n      0x00\n      0x20\n      dup5\n      add\n      returndatacopy\n      jump(tag_239)\n    tag_240:\n      0x60\n      swap2\n      pop\n    tag_239:\n      pop\n        /* \"contracts/libraries/transferHelper.sol\":1666:1720  (bool success, ) = to.call{value: value}(new bytes(0)) */\n      pop\n      swap1\n      pop\n        /* \"contracts/libraries/transferHelper.sol\":1738:1745  success */\n      dup1\n        /* \"contracts/libraries/transferHelper.sol\":1730:1800  require(success, \"ExchangeAggregator::TransferHelper:safeTransferETH\") */\n      tag_241\n      jumpi\n      mload(0x40)\n      0x08c379a000000000000000000000000000000000000000000000000000000000\n      dup2\n      mstore\n      0x04\n      add\n      tag_242\n      swap1\n      tag_243\n      jump\t// in\n    tag_242:\n      mload(0x40)\n      dup1\n      swap2\n      sub\n      swap1\n      revert\n    tag_241:\n        /* \"contracts/libraries/transferHelper.sol\":1656:1807  {... */\n      pop\n        /* \"contracts/libraries/transferHelper.sol\":1595:1807  function safeTransferETH(address to, uint256 value) internal {... */\n      pop\n      pop\n      jump\t// out\n        /* \"@openzeppelin/contracts/access/Ownable.sol\":2433:2620  function _transferOwnership(address newOwner) internal virtual {... */\n    tag_143:\n        /* \"@openzeppelin/contracts/access/Ownable.sol\":2506:2522  address oldOwner */\n      0x00\n        /* \"@openzeppelin/contracts/access/Ownable.sol\":2525:2531  _owner */\n      dup1\n      0x00\n      swap1\n      sload\n      swap1\n      0x0100\n      exp\n      swap1\n      div\n      0xffffffffffffffffffffffffffffffffffffffff\n      and\n        /* \"@openzeppelin/contracts/access/Ownable.sol\":2506:2531  address oldOwner = _owner */\n      swap1\n      pop\n        /* \"@openzeppelin/contracts/access/Ownable.sol\":2550:2558  newOwner */\n      dup2\n        /* \"@openzeppelin/contracts/access/Ownable.sol\":2541:2547  _owner */\n      0x00\n      dup1\n        /* \"@openzeppelin/contracts/access/Ownable.sol\":2541:2558  _owner = newOwner */\n      0x0100\n      exp\n      dup2\n      sload\n      dup2\n      0xffffffffffffffffffffffffffffffffffffffff\n      mul\n      not\n      and\n      swap1\n      dup4\n      0xffffffffffffffffffffffffffffffffffffffff\n      and\n      mul\n      or\n      swap1\n      sstore\n      pop\n        /* \"@openzeppelin/contracts/access/Ownable.sol\":2604:2612  newOwner */\n      dup2\n        /* \"@openzeppelin/contracts/access/Ownable.sol\":2573:2613  OwnershipTransferred(oldOwner, newOwner) */\n      0xffffffffffffffffffffffffffffffffffffffff\n      and\n        /* \"@openzeppelin/contracts/access/Ownable.sol\":2594:2602  oldOwner */\n      dup2\n        /* \"@openzeppelin/contracts/access/Ownable.sol\":2573:2613  OwnershipTransferred(oldOwner, newOwner) */\n      0xffffffffffffffffffffffffffffffffffffffff\n      and\n      0x8be0079c531659141344cd1fd0a4f28419497f9722a3daafe3b4186f6b6457e0\n      mload(0x40)\n      mload(0x40)\n      dup1\n      swap2\n      sub\n      swap1\n      log3\n        /* \"@openzeppelin/contracts/access/Ownable.sol\":2496:2620  {... */\n      pop\n        /* \"@openzeppelin/contracts/access/Ownable.sol\":2433:2620  function _transferOwnership(address newOwner) internal virtual {... */\n      pop\n      jump\t// out\n        /* \"@openzeppelin/contracts/utils/Context.sol\":640:736  function _msgSender() internal view virtual returns (address) {... */\n    tag_158:\n        /* \"@openzeppelin/contracts/utils/Context.sol\":693:700  address */\n      0x00\n        /* \"@openzeppelin/contracts/utils/Context.sol\":719:729  msg.sender */\n      caller\n        /* \"@openzeppelin/contracts/utils/Context.sol\":712:729  return msg.sender */\n      swap1\n      pop\n        /* \"@openzeppelin/contracts/utils/Context.sol\":640:736  function _msgSender() internal view virtual returns (address) {... */\n      swap1\n      jump\t// out\n        /* \"contracts/libraries/utils.sol\":661:764  function hash(bytes memory data) private pure returns (bytes32) {... */\n    tag_184:\n        /* \"contracts/libraries/utils.sol\":716:723  bytes32 */\n      0x00\n        /* \"contracts/libraries/utils.sol\":752:756  data */\n      dup2\n        /* \"contracts/libraries/utils.sol\":742:757  keccak256(data) */\n      dup1\n      mload\n      swap1\n      0x20\n      add\n      keccak256\n        /* \"contracts/libraries/utils.sol\":735:757  return keccak256(data) */\n      swap1\n      pop\n        /* \"contracts/libraries/utils.sol\":661:764  function hash(bytes memory data) private pure returns (bytes32) {... */\n      swap2\n      swap1\n      pop\n      jump\t// out\n        /* \"@openzeppelin/contracts/utils/cryptography/ECDSA.sol\":3661:3888  function recover(bytes32 hash, bytes memory signature) internal pure returns (address) {... */\n    tag_185:\n        /* \"@openzeppelin/contracts/utils/cryptography/ECDSA.sol\":3739:3746  address */\n      0x00\n        /* \"@openzeppelin/contracts/utils/cryptography/ECDSA.sol\":3759:3776  address recovered */\n      dup1\n        /* \"@openzeppelin/contracts/utils/cryptography/ECDSA.sol\":3778:3796  RecoverError error */\n      0x00\n        /* \"@openzeppelin/contracts/utils/cryptography/ECDSA.sol\":3800:3827  tryRecover(hash, signature) */\n      tag_248\n        /* \"@openzeppelin/contracts/utils/cryptography/ECDSA.sol\":3811:3815  hash */\n      dup6\n        /* \"@openzeppelin/contracts/utils/cryptography/ECDSA.sol\":3817:3826  signature */\n      dup6\n        /* \"@openzeppelin/contracts/utils/cryptography/ECDSA.sol\":3800:3810  tryRecover */\n      tag_249\n        /* \"@openzeppelin/contracts/utils/cryptography/ECDSA.sol\":3800:3827  tryRecover(hash, signature) */\n      jump\t// in\n    tag_248:\n        /* \"@openzeppelin/contracts/utils/cryptography/ECDSA.sol\":3758:3827  (address recovered, RecoverError error) = tryRecover(hash, signature) */\n      swap2\n      pop\n      swap2\n      pop\n        /* \"@openzeppelin/contracts/utils/cryptography/ECDSA.sol\":3837:3855  _throwError(error) */\n      tag_250\n        /* \"@openzeppelin/contracts/utils/cryptography/ECDSA.sol\":3849:3854  error */\n      dup2\n        /* \"@openzeppelin/contracts/utils/cryptography/ECDSA.sol\":3837:3848  _throwError */\n      tag_251\n        /* \"@openzeppelin/contracts/utils/cryptography/ECDSA.sol\":3837:3855  _throwError(error) */\n      jump\t// in\n    tag_250:\n        /* \"@openzeppelin/contracts/utils/cryptography/ECDSA.sol\":3872:3881  recovered */\n      dup2\n        /* \"@openzeppelin/contracts/utils/cryptography/ECDSA.sol\":3865:3881  return recovered */\n      swap3\n      pop\n      pop\n      pop\n        /* \"@openzeppelin/contracts/utils/cryptography/ECDSA.sol\":3661:3888  function recover(bytes32 hash, bytes memory signature) internal pure returns (address) {... */\n      swap3\n      swap2\n      pop\n      pop\n      jump\t// out\n        /* \"@openzeppelin/contracts/utils/cryptography/ECDSA.sol\":2145:2875  function tryRecover(bytes32 hash, bytes memory signature) internal pure returns (address, RecoverError) {... */\n    tag_249:\n        /* \"@openzeppelin/contracts/utils/cryptography/ECDSA.sol\":2226:2233  address */\n      0x00\n        /* \"@openzeppelin/contracts/utils/cryptography/ECDSA.sol\":2235:2247  RecoverError */\n      dup1\n        /* \"@openzeppelin/contracts/utils/cryptography/ECDSA.sol\":2283:2285  65 */\n      0x41\n        /* \"@openzeppelin/contracts/utils/cryptography/ECDSA.sol\":2263:2272  signature */\n      dup4\n        /* \"@openzeppelin/contracts/utils/cryptography/ECDSA.sol\":2263:2279  signature.length */\n      mload\n        /* \"@openzeppelin/contracts/utils/cryptography/ECDSA.sol\":2263:2285  signature.length == 65 */\n      sub\n        /* \"@openzeppelin/contracts/utils/cryptography/ECDSA.sol\":2259:2869  if (signature.length == 65) {... */\n      tag_253\n      jumpi\n        /* \"@openzeppelin/contracts/utils/cryptography/ECDSA.sol\":2301:2310  bytes32 r */\n      0x00\n        /* \"@openzeppelin/contracts/utils/cryptography/ECDSA.sol\":2324:2333  bytes32 s */\n      dup1\n        /* \"@openzeppelin/contracts/utils/cryptography/ECDSA.sol\":2347:2354  uint8 v */\n      0x00\n        /* \"@openzeppelin/contracts/utils/cryptography/ECDSA.sol\":2599:2603  0x20 */\n      0x20\n        /* \"@openzeppelin/contracts/utils/cryptography/ECDSA.sol\":2588:2597  signature */\n      dup7\n        /* \"@openzeppelin/contracts/utils/cryptography/ECDSA.sol\":2584:2604  add(signature, 0x20) */\n      add\n        /* \"@openzeppelin/contracts/utils/cryptography/ECDSA.sol\":2578:2605  mload(add(signature, 0x20)) */\n      mload\n        /* \"@openzeppelin/contracts/utils/cryptography/ECDSA.sol\":2573:2605  r := mload(add(signature, 0x20)) */\n      swap3\n      pop\n        /* \"@openzeppelin/contracts/utils/cryptography/ECDSA.sol\":2648:2652  0x40 */\n      0x40\n        /* \"@openzeppelin/contracts/utils/cryptography/ECDSA.sol\":2637:2646  signature */\n      dup7\n        /* \"@openzeppelin/contracts/utils/cryptography/ECDSA.sol\":2633:2653  add(signature, 0x40) */\n      add\n        /* \"@openzeppelin/contracts/utils/cryptography/ECDSA.sol\":2627:2654  mload(add(signature, 0x40)) */\n      mload\n        /* \"@openzeppelin/contracts/utils/cryptography/ECDSA.sol\":2622:2654  s := mload(add(signature, 0x40)) */\n      swap2\n      pop\n        /* \"@openzeppelin/contracts/utils/cryptography/ECDSA.sol\":2705:2709  0x60 */\n      0x60\n        /* \"@openzeppelin/contracts/utils/cryptography/ECDSA.sol\":2694:2703  signature */\n      dup7\n        /* \"@openzeppelin/contracts/utils/cryptography/ECDSA.sol\":2690:2710  add(signature, 0x60) */\n      add\n        /* \"@openzeppelin/contracts/utils/cryptography/ECDSA.sol\":2684:2711  mload(add(signature, 0x60)) */\n      mload\n        /* \"@openzeppelin/contracts/utils/cryptography/ECDSA.sol\":2681:2682  0 */\n      0x00\n        /* \"@openzeppelin/contracts/utils/cryptography/ECDSA.sol\":2676:2712  byte(0, mload(add(signature, 0x60))) */\n      byte\n        /* \"@openzeppelin/contracts/utils/cryptography/ECDSA.sol\":2671:2712  v := byte(0, mload(add(signature, 0x60))) */\n      swap1\n      pop\n        /* \"@openzeppelin/contracts/utils/cryptography/ECDSA.sol\":2746:2771  tryRecover(hash, v, r, s) */\n      tag_254\n        /* \"@openzeppelin/contracts/utils/cryptography/ECDSA.sol\":2757:2761  hash */\n      dup8\n        /* \"@openzeppelin/contracts/utils/cryptography/ECDSA.sol\":2763:2764  v */\n      dup3\n        /* \"@openzeppelin/contracts/utils/cryptography/ECDSA.sol\":2766:2767  r */\n      dup6\n        /* \"@openzeppelin/contracts/utils/cryptography/ECDSA.sol\":2769:2770  s */\n      dup6\n        /* \"@openzeppelin/contracts/utils/cryptography/ECDSA.sol\":2746:2756  tryRecover */\n      tag_255\n        /* \"@openzeppelin/contracts/utils/cryptography/ECDSA.sol\":2746:2771  tryRecover(hash, v, r, s) */\n      jump\t// in\n    tag_254:\n        /* \"@openzeppelin/contracts/utils/cryptography/ECDSA.sol\":2739:2771  return tryRecover(hash, v, r, s) */\n      swap5\n      pop\n      swap5\n      pop\n      pop\n      pop\n      pop\n      jump(tag_252)\n        /* \"@openzeppelin/contracts/utils/cryptography/ECDSA.sol\":2259:2869  if (signature.length == 65) {... */\n    tag_253:\n        /* \"@openzeppelin/contracts/utils/cryptography/ECDSA.sol\":2818:2819  0 */\n      0x00\n        /* \"@openzeppelin/contracts/utils/cryptography/ECDSA.sol\":2822:2857  RecoverError.InvalidSignatureLength */\n      0x02\n        /* \"@openzeppelin/contracts/utils/cryptography/ECDSA.sol\":2802:2858  return (address(0), RecoverError.InvalidSignatureLength) */\n      swap2\n      pop\n      swap2\n      pop\n        /* \"@openzeppelin/contracts/utils/cryptography/ECDSA.sol\":2145:2875  function tryRecover(bytes32 hash, bytes memory signature) internal pure returns (address, RecoverError) {... */\n    tag_252:\n      swap3\n      pop\n      swap3\n      swap1\n      pop\n      jump\t// out\n        /* \"@openzeppelin/contracts/utils/cryptography/ECDSA.sol\":570:1081  function _throwError(RecoverError error) private pure {... */\n    tag_251:\n        /* \"@openzeppelin/contracts/utils/cryptography/ECDSA.sol\":647:667  RecoverError.NoError */\n      0x00\n        /* \"@openzeppelin/contracts/utils/cryptography/ECDSA.sol\":638:667  error == RecoverError.NoError */\n      0x04\n      dup2\n      gt\n      iszero\n      tag_258\n      jumpi\n      tag_259\n      tag_260\n      jump\t// in\n    tag_259:\n    tag_258:\n        /* \"@openzeppelin/contracts/utils/cryptography/ECDSA.sol\":638:643  error */\n      dup2\n        /* \"@openzeppelin/contracts/utils/cryptography/ECDSA.sol\":638:667  error == RecoverError.NoError */\n      0x04\n      dup2\n      gt\n      iszero\n      tag_261\n      jumpi\n      tag_262\n      tag_260\n      jump\t// in\n    tag_262:\n    tag_261:\n      sub\n        /* \"@openzeppelin/contracts/utils/cryptography/ECDSA.sol\":634:1075  if (error == RecoverError.NoError) {... */\n      iszero\n        /* \"@openzeppelin/contracts/utils/cryptography/ECDSA.sol\":683:690  return; */\n      tag_257\n        /* \"@openzeppelin/contracts/utils/cryptography/ECDSA.sol\":634:1075  if (error == RecoverError.NoError) {... */\n      jumpi\n        /* \"@openzeppelin/contracts/utils/cryptography/ECDSA.sol\":743:772  RecoverError.InvalidSignature */\n      0x01\n        /* \"@openzeppelin/contracts/utils/cryptography/ECDSA.sol\":734:772  error == RecoverError.InvalidSignature */\n      0x04\n      dup2\n      gt\n      iszero\n      tag_265\n      jumpi\n      tag_266\n      tag_260\n      jump\t// in\n    tag_266:\n    tag_265:\n        /* \"@openzeppelin/contracts/utils/cryptography/ECDSA.sol\":734:739  error */\n      dup2\n        /* \"@openzeppelin/contracts/utils/cryptography/ECDSA.sol\":734:772  error == RecoverError.InvalidSignature */\n      0x04\n      dup2\n      gt\n      iszero\n      tag_267\n      jumpi\n      tag_268\n      tag_260\n      jump\t// in\n    tag_268:\n    tag_267:\n      sub\n        /* \"@openzeppelin/contracts/utils/cryptography/ECDSA.sol\":730:1075  if (error == RecoverError.InvalidSignature) {... */\n      tag_269\n      jumpi\n        /* \"@openzeppelin/contracts/utils/cryptography/ECDSA.sol\":788:822  revert(\"ECDSA: invalid signature\") */\n      mload(0x40)\n      0x08c379a000000000000000000000000000000000000000000000000000000000\n      dup2\n      mstore\n      0x04\n      add\n      tag_270\n      swap1\n      tag_271\n      jump\t// in\n    tag_270:\n      mload(0x40)\n      dup1\n      swap2\n      sub\n      swap1\n      revert\n        /* \"@openzeppelin/contracts/utils/cryptography/ECDSA.sol\":730:1075  if (error == RecoverError.InvalidSignature) {... */\n    tag_269:\n        /* \"@openzeppelin/contracts/utils/cryptography/ECDSA.sol\":852:887  RecoverError.InvalidSignatureLength */\n      0x02\n        /* \"@openzeppelin/contracts/utils/cryptography/ECDSA.sol\":843:887  error == RecoverError.InvalidSignatureLength */\n      0x04\n      dup2\n      gt\n      iszero\n      tag_273\n      jumpi\n      tag_274\n      tag_260\n      jump\t// in\n    tag_274:\n    tag_273:\n        /* \"@openzeppelin/contracts/utils/cryptography/ECDSA.sol\":843:848  error */\n      dup2\n        /* \"@openzeppelin/contracts/utils/cryptography/ECDSA.sol\":843:887  error == RecoverError.InvalidSignatureLength */\n      0x04\n      dup2\n      gt\n      iszero\n      tag_275\n      jumpi\n      tag_276\n      tag_260\n      jump\t// in\n    tag_276:\n    tag_275:\n      sub\n        /* \"@openzeppelin/contracts/utils/cryptography/ECDSA.sol\":839:1075  if (error == RecoverError.InvalidSignatureLength) {... */\n      tag_277\n      jumpi\n        /* \"@openzeppelin/contracts/utils/cryptography/ECDSA.sol\":903:944  revert(\"ECDSA: invalid signature length\") */\n      mload(0x40)\n      0x08c379a000000000000000000000000000000000000000000000000000000000\n      dup2\n      mstore\n      0x04\n      add\n      tag_278\n      swap1\n      tag_279\n      jump\t// in\n    tag_278:\n      mload(0x40)\n      dup1\n      swap2\n      sub\n      swap1\n      revert\n        /* \"@openzeppelin/contracts/utils/cryptography/ECDSA.sol\":839:1075  if (error == RecoverError.InvalidSignatureLength) {... */\n    tag_277:\n        /* \"@openzeppelin/contracts/utils/cryptography/ECDSA.sol\":974:1004  RecoverError.InvalidSignatureS */\n      0x03\n        /* \"@openzeppelin/contracts/utils/cryptography/ECDSA.sol\":965:1004  error == RecoverError.InvalidSignatureS */\n      0x04\n      dup2\n      gt\n      iszero\n      tag_281\n      jumpi\n      tag_282\n      tag_260\n      jump\t// in\n    tag_282:\n    tag_281:\n        /* \"@openzeppelin/contracts/utils/cryptography/ECDSA.sol\":965:970  error */\n      dup2\n        /* \"@openzeppelin/contracts/utils/cryptography/ECDSA.sol\":965:1004  error == RecoverError.InvalidSignatureS */\n      0x04\n      dup2\n      gt\n      iszero\n      tag_283\n      jumpi\n      tag_284\n      tag_260\n      jump\t// in\n    tag_284:\n    tag_283:\n      sub\n        /* \"@openzeppelin/contracts/utils/cryptography/ECDSA.sol\":961:1075  if (error == RecoverError.InvalidSignatureS) {... */\n      tag_285\n      jumpi\n        /* \"@openzeppelin/contracts/utils/cryptography/ECDSA.sol\":1020:1064  revert(\"ECDSA: invalid signature 's' value\") */\n      mload(0x40)\n      0x08c379a000000000000000000000000000000000000000000000000000000000\n      dup2\n      mstore\n      0x04\n      add\n      tag_286\n      swap1\n      tag_287\n      jump\t// in\n    tag_286:\n      mload(0x40)\n      dup1\n      swap2\n      sub\n      swap1\n      revert\n        /* \"@openzeppelin/contracts/utils/cryptography/ECDSA.sol\":961:1075  if (error == RecoverError.InvalidSignatureS) {... */\n    tag_285:\n        /* \"@openzeppelin/contracts/utils/cryptography/ECDSA.sol\":570:1081  function _throwError(RecoverError error) private pure {... */\n    tag_257:\n      pop\n      jump\t// out\n        /* \"@openzeppelin/contracts/utils/cryptography/ECDSA.sol\":5069:6563  function tryRecover(... */\n    tag_255:\n        /* \"@openzeppelin/contracts/utils/cryptography/ECDSA.sol\":5195:5202  address */\n      0x00\n        /* \"@openzeppelin/contracts/utils/cryptography/ECDSA.sol\":5204:5216  RecoverError */\n      dup1\n        /* \"@openzeppelin/contracts/utils/cryptography/ECDSA.sol\":6119:6185  0x7FFFFFFFFFFFFFFFFFFFFFFFFFFFFFFF5D576E7357A4501DDFE92F46681B20A0 */\n      0x7fffffffffffffffffffffffffffffff5d576e7357a4501ddfe92f46681b20a0\n        /* \"@openzeppelin/contracts/utils/cryptography/ECDSA.sol\":6114:6115  s */\n      dup4\n        /* \"@openzeppelin/contracts/utils/cryptography/ECDSA.sol\":6106:6116  uint256(s) */\n      0x00\n      shr\n        /* \"@openzeppelin/contracts/utils/cryptography/ECDSA.sol\":6106:6185  uint256(s) > 0x7FFFFFFFFFFFFFFFFFFFFFFFFFFFFFFF5D576E7357A4501DDFE92F46681B20A0 */\n      gt\n        /* \"@openzeppelin/contracts/utils/cryptography/ECDSA.sol\":6102:6263  if (uint256(s) > 0x7FFFFFFFFFFFFFFFFFFFFFFFFFFFFFFF5D576E7357A4501DDFE92F46681B20A0) {... */\n      iszero\n      tag_289\n      jumpi\n        /* \"@openzeppelin/contracts/utils/cryptography/ECDSA.sol\":6217:6218  0 */\n      0x00\n        /* \"@openzeppelin/contracts/utils/cryptography/ECDSA.sol\":6221:6251  RecoverError.InvalidSignatureS */\n      0x03\n        /* \"@openzeppelin/contracts/utils/cryptography/ECDSA.sol\":6201:6252  return (address(0), RecoverError.InvalidSignatureS) */\n      swap2\n      pop\n      swap2\n      pop\n      jump(tag_288)\n        /* \"@openzeppelin/contracts/utils/cryptography/ECDSA.sol\":6102:6263  if (uint256(s) > 0x7FFFFFFFFFFFFFFFFFFFFFFFFFFFFFFF5D576E7357A4501DDFE92F46681B20A0) {... */\n    tag_289:\n        /* \"@openzeppelin/contracts/utils/cryptography/ECDSA.sol\":6357:6371  address signer */\n      0x00\n        /* \"@openzeppelin/contracts/utils/cryptography/ECDSA.sol\":6374:6398  ecrecover(hash, v, r, s) */\n      0x01\n        /* \"@openzeppelin/contracts/utils/cryptography/ECDSA.sol\":6384:6388  hash */\n      dup8\n        /* \"@openzeppelin/contracts/utils/cryptography/ECDSA.sol\":6390:6391  v */\n      dup8\n        /* \"@openzeppelin/contracts/utils/cryptography/ECDSA.sol\":6393:6394  r */\n      dup8\n        /* \"@openzeppelin/contracts/utils/cryptography/ECDSA.sol\":6396:6397  s */\n      dup8\n        /* \"@openzeppelin/contracts/utils/cryptography/ECDSA.sol\":6374:6398  ecrecover(hash, v, r, s) */\n      mload(0x40)\n      0x00\n      dup2\n      mstore\n      0x20\n      add\n      0x40\n      mstore\n      mload(0x40)\n      tag_290\n      swap5\n      swap4\n      swap3\n      swap2\n      swap1\n      tag_291\n      jump\t// in\n    tag_290:\n      0x20\n      mload(0x40)\n      0x20\n      dup2\n      sub\n      swap1\n      dup1\n      dup5\n      sub\n      swap1\n      dup6\n      gas\n      staticcall\n      iszero\n      dup1\n      iszero\n      tag_293\n      jumpi\n      returndatasize\n      0x00\n      dup1\n      returndatacopy\n      revert(0x00, returndatasize)\n    tag_293:\n      pop\n      pop\n      pop\n      mload(sub(mload(0x40), 0x20))\n        /* \"@openzeppelin/contracts/utils/cryptography/ECDSA.sol\":6357:6398  address signer = ecrecover(hash, v, r, s) */\n      swap1\n      pop\n        /* \"@openzeppelin/contracts/utils/cryptography/ECDSA.sol\":6430:6431  0 */\n      0x00\n        /* \"@openzeppelin/contracts/utils/cryptography/ECDSA.sol\":6412:6432  signer == address(0) */\n      0xffffffffffffffffffffffffffffffffffffffff\n      and\n        /* \"@openzeppelin/contracts/utils/cryptography/ECDSA.sol\":6412:6418  signer */\n      dup2\n        /* \"@openzeppelin/contracts/utils/cryptography/ECDSA.sol\":6412:6432  signer == address(0) */\n      0xffffffffffffffffffffffffffffffffffffffff\n      and\n      sub\n        /* \"@openzeppelin/contracts/utils/cryptography/ECDSA.sol\":6408:6509  if (signer == address(0)) {... */\n      tag_294\n      jumpi\n        /* \"@openzeppelin/contracts/utils/cryptography/ECDSA.sol\":6464:6465  0 */\n      0x00\n        /* \"@openzeppelin/contracts/utils/cryptography/ECDSA.sol\":6468:6497  RecoverError.InvalidSignature */\n      0x01\n        /* \"@openzeppelin/contracts/utils/cryptography/ECDSA.sol\":6448:6498  return (address(0), RecoverError.InvalidSignature) */\n      swap3\n      pop\n      swap3\n      pop\n      pop\n      jump(tag_288)\n        /* \"@openzeppelin/contracts/utils/cryptography/ECDSA.sol\":6408:6509  if (signer == address(0)) {... */\n    tag_294:\n        /* \"@openzeppelin/contracts/utils/cryptography/ECDSA.sol\":6527:6533  signer */\n      dup1\n        /* \"@openzeppelin/contracts/utils/cryptography/ECDSA.sol\":6535:6555  RecoverError.NoError */\n      0x00\n        /* \"@openzeppelin/contracts/utils/cryptography/ECDSA.sol\":6519:6556  return (signer, RecoverError.NoError) */\n      swap3\n      pop\n      swap3\n      pop\n      pop\n        /* \"@openzeppelin/contracts/utils/cryptography/ECDSA.sol\":5069:6563  function tryRecover(... */\n    tag_288:\n      swap5\n      pop\n      swap5\n      swap3\n      pop\n      pop\n      pop\n      jump\t// out\n        /* \"#utility.yul\":7:82   */\n    tag_295:\n        /* \"#utility.yul\":40:46   */\n      0x00\n        /* \"#utility.yul\":73:75   */\n      0x40\n        /* \"#utility.yul\":67:76   */\n      mload\n        /* \"#utility.yul\":57:76   */\n      swap1\n      pop\n        /* \"#utility.yul\":7:82   */\n      swap1\n      jump\t// out\n        /* \"#utility.yul\":88:205   */\n    tag_296:\n        /* \"#utility.yul\":197:198   */\n      0x00\n        /* \"#utility.yul\":194:195   */\n      dup1\n        /* \"#utility.yul\":187:199   */\n      revert\n        /* \"#utility.yul\":211:328   */\n    tag_297:\n        /* \"#utility.yul\":320:321   */\n      0x00\n        /* \"#utility.yul\":317:318   */\n      dup1\n        /* \"#utility.yul\":310:322   */\n      revert\n        /* \"#utility.yul\":334:460   */\n    tag_298:\n        /* \"#utility.yul\":371:378   */\n      0x00\n        /* \"#utility.yul\":411:453   */\n      0xffffffffffffffffffffffffffffffffffffffff\n        /* \"#utility.yul\":404:409   */\n      dup3\n        /* \"#utility.yul\":400:454   */\n      and\n        /* \"#utility.yul\":389:454   */\n      swap1\n      pop\n        /* \"#utility.yul\":334:460   */\n      swap2\n      swap1\n      pop\n      jump\t// out\n        /* \"#utility.yul\":466:562   */\n    tag_299:\n        /* \"#utility.yul\":503:510   */\n      0x00\n        /* \"#utility.yul\":532:556   */\n      tag_389\n        /* \"#utility.yul\":550:555   */\n      dup3\n        /* \"#utility.yul\":532:556   */\n      tag_298\n      jump\t// in\n    tag_389:\n        /* \"#utility.yul\":521:556   */\n      swap1\n      pop\n        /* \"#utility.yul\":466:562   */\n      swap2\n      swap1\n      pop\n      jump\t// out\n        /* \"#utility.yul\":568:690   */\n    tag_300:\n        /* \"#utility.yul\":641:665   */\n      tag_391\n        /* \"#utility.yul\":659:664   */\n      dup2\n        /* \"#utility.yul\":641:665   */\n      tag_299\n      jump\t// in\n    tag_391:\n        /* \"#utility.yul\":634:639   */\n      dup2\n        /* \"#utility.yul\":631:666   */\n      eq\n        /* \"#utility.yul\":621:684   */\n      tag_392\n      jumpi\n        /* \"#utility.yul\":680:681   */\n      0x00\n        /* \"#utility.yul\":677:678   */\n      dup1\n        /* \"#utility.yul\":670:682   */\n      revert\n        /* \"#utility.yul\":621:684   */\n    tag_392:\n        /* \"#utility.yul\":568:690   */\n      pop\n      jump\t// out\n        /* \"#utility.yul\":696:835   */\n    tag_301:\n        /* \"#utility.yul\":742:747   */\n      0x00\n        /* \"#utility.yul\":780:786   */\n      dup2\n        /* \"#utility.yul\":767:787   */\n      calldataload\n        /* \"#utility.yul\":758:787   */\n      swap1\n      pop\n        /* \"#utility.yul\":796:829   */\n      tag_394\n        /* \"#utility.yul\":823:828   */\n      dup2\n        /* \"#utility.yul\":796:829   */\n      tag_300\n      jump\t// in\n    tag_394:\n        /* \"#utility.yul\":696:835   */\n      swap3\n      swap2\n      pop\n      pop\n      jump\t// out\n        /* \"#utility.yul\":841:918   */\n    tag_302:\n        /* \"#utility.yul\":878:885   */\n      0x00\n        /* \"#utility.yul\":907:912   */\n      dup2\n        /* \"#utility.yul\":896:912   */\n      swap1\n      pop\n        /* \"#utility.yul\":841:918   */\n      swap2\n      swap1\n      pop\n      jump\t// out\n        /* \"#utility.yul\":924:1046   */\n    tag_303:\n        /* \"#utility.yul\":997:1021   */\n      tag_397\n        /* \"#utility.yul\":1015:1020   */\n      dup2\n        /* \"#utility.yul\":997:1021   */\n      tag_302\n      jump\t// in\n    tag_397:\n        /* \"#utility.yul\":990:995   */\n      dup2\n        /* \"#utility.yul\":987:1022   */\n      eq\n        /* \"#utility.yul\":977:1040   */\n      tag_398\n      jumpi\n        /* \"#utility.yul\":1036:1037   */\n      0x00\n        /* \"#utility.yul\":1033:1034   */\n      dup1\n        /* \"#utility.yul\":1026:1038   */\n      revert\n        /* \"#utility.yul\":977:1040   */\n    tag_398:\n        /* \"#utility.yul\":924:1046   */\n      pop\n      jump\t// out\n        /* \"#utility.yul\":1052:1191   */\n    tag_304:\n        /* \"#utility.yul\":1098:1103   */\n      0x00\n        /* \"#utility.yul\":1136:1142   */\n      dup2\n        /* \"#utility.yul\":1123:1143   */\n      calldataload\n        /* \"#utility.yul\":1114:1143   */\n      swap1\n      pop\n        /* \"#utility.yul\":1152:1185   */\n      tag_400\n        /* \"#utility.yul\":1179:1184   */\n      dup2\n        /* \"#utility.yul\":1152:1185   */\n      tag_303\n      jump\t// in\n    tag_400:\n        /* \"#utility.yul\":1052:1191   */\n      swap3\n      swap2\n      pop\n      pop\n      jump\t// out\n        /* \"#utility.yul\":1197:1816   */\n    tag_20:\n        /* \"#utility.yul\":1274:1280   */\n      0x00\n        /* \"#utility.yul\":1282:1288   */\n      dup1\n        /* \"#utility.yul\":1290:1296   */\n      0x00\n        /* \"#utility.yul\":1339:1341   */\n      0x60\n        /* \"#utility.yul\":1327:1336   */\n      dup5\n        /* \"#utility.yul\":1318:1325   */\n      dup7\n        /* \"#utility.yul\":1314:1337   */\n      sub\n        /* \"#utility.yul\":1310:1342   */\n      slt\n        /* \"#utility.yul\":1307:1426   */\n      iszero\n      tag_402\n      jumpi\n        /* \"#utility.yul\":1345:1424   */\n      tag_403\n      tag_296\n      jump\t// in\n    tag_403:\n        /* \"#utility.yul\":1307:1426   */\n    tag_402:\n        /* \"#utility.yul\":1465:1466   */\n      0x00\n        /* \"#utility.yul\":1490:1543   */\n      tag_404\n        /* \"#utility.yul\":1535:1542   */\n      dup7\n        /* \"#utility.yul\":1526:1532   */\n      dup3\n        /* \"#utility.yul\":1515:1524   */\n      dup8\n        /* \"#utility.yul\":1511:1533   */\n      add\n        /* \"#utility.yul\":1490:1543   */\n      tag_301\n      jump\t// in\n    tag_404:\n        /* \"#utility.yul\":1480:1543   */\n      swap4\n      pop\n        /* \"#utility.yul\":1436:1553   */\n      pop\n        /* \"#utility.yul\":1592:1594   */\n      0x20\n        /* \"#utility.yul\":1618:1671   */\n      tag_405\n        /* \"#utility.yul\":1663:1670   */\n      dup7\n        /* \"#utility.yul\":1654:1660   */\n      dup3\n        /* \"#utility.yul\":1643:1652   */\n      dup8\n        /* \"#utility.yul\":1639:1661   */\n      add\n        /* \"#utility.yul\":1618:1671   */\n      tag_301\n      jump\t// in\n    tag_405:\n        /* \"#utility.yul\":1608:1671   */\n      swap3\n      pop\n        /* \"#utility.yul\":1563:1681   */\n      pop\n        /* \"#utility.yul\":1720:1722   */\n      0x40\n        /* \"#utility.yul\":1746:1799   */\n      tag_406\n        /* \"#utility.yul\":1791:1798   */\n      dup7\n        /* \"#utility.yul\":1782:1788   */\n      dup3\n        /* \"#utility.yul\":1771:1780   */\n      dup8\n        /* \"#utility.yul\":1767:1789   */\n      add\n        /* \"#utility.yul\":1746:1799   */\n      tag_304\n      jump\t// in\n    tag_406:\n        /* \"#utility.yul\":1736:1799   */\n      swap2\n      pop\n        /* \"#utility.yul\":1691:1809   */\n      pop\n        /* \"#utility.yul\":1197:1816   */\n      swap3\n      pop\n      swap3\n      pop\n      swap3\n      jump\t// out\n        /* \"#utility.yul\":1822:2151   */\n    tag_25:\n        /* \"#utility.yul\":1881:1887   */\n      0x00\n        /* \"#utility.yul\":1930:1932   */\n      0x20\n        /* \"#utility.yul\":1918:1927   */\n      dup3\n        /* \"#utility.yul\":1909:1916   */\n      dup5\n        /* \"#utility.yul\":1905:1928   */\n      sub\n        /* \"#utility.yul\":1901:1933   */\n      slt\n        /* \"#utility.yul\":1898:2017   */\n      iszero\n      tag_408\n      jumpi\n        /* \"#utility.yul\":1936:2015   */\n      tag_409\n      tag_296\n      jump\t// in\n    tag_409:\n        /* \"#utility.yul\":1898:2017   */\n    tag_408:\n        /* \"#utility.yul\":2056:2057   */\n      0x00\n        /* \"#utility.yul\":2081:2134   */\n      tag_410\n        /* \"#utility.yul\":2126:2133   */\n      dup5\n        /* \"#utility.yul\":2117:2123   */\n      dup3\n        /* \"#utility.yul\":2106:2115   */\n      dup6\n        /* \"#utility.yul\":2102:2124   */\n      add\n        /* \"#utility.yul\":2081:2134   */\n      tag_301\n      jump\t// in\n    tag_410:\n        /* \"#utility.yul\":2071:2134   */\n      swap2\n      pop\n        /* \"#utility.yul\":2027:2144   */\n      pop\n        /* \"#utility.yul\":1822:2151   */\n      swap3\n      swap2\n      pop\n      pop\n      jump\t// out\n        /* \"#utility.yul\":2157:2275   */\n    tag_305:\n        /* \"#utility.yul\":2244:2268   */\n      tag_412\n        /* \"#utility.yul\":2262:2267   */\n      dup2\n        /* \"#utility.yul\":2244:2268   */\n      tag_302\n      jump\t// in\n    tag_412:\n        /* \"#utility.yul\":2239:2242   */\n      dup3\n        /* \"#utility.yul\":2232:2269   */\n      mstore\n        /* \"#utility.yul\":2157:2275   */\n      pop\n      pop\n      jump\t// out\n        /* \"#utility.yul\":2281:2503   */\n    tag_28:\n        /* \"#utility.yul\":2374:2378   */\n      0x00\n        /* \"#utility.yul\":2412:2414   */\n      0x20\n        /* \"#utility.yul\":2401:2410   */\n      dup3\n        /* \"#utility.yul\":2397:2415   */\n      add\n        /* \"#utility.yul\":2389:2415   */\n      swap1\n      pop\n        /* \"#utility.yul\":2425:2496   */\n      tag_414\n        /* \"#utility.yul\":2493:2494   */\n      0x00\n        /* \"#utility.yul\":2482:2491   */\n      dup4\n        /* \"#utility.yul\":2478:2495   */\n      add\n        /* \"#utility.yul\":2469:2475   */\n      dup5\n        /* \"#utility.yul\":2425:2496   */\n      tag_305\n      jump\t// in\n    tag_414:\n        /* \"#utility.yul\":2281:2503   */\n      swap3\n      swap2\n      pop\n      pop\n      jump\t// out\n        /* \"#utility.yul\":2509:2626   */\n    tag_306:\n        /* \"#utility.yul\":2618:2619   */\n      0x00\n        /* \"#utility.yul\":2615:2616   */\n      dup1\n        /* \"#utility.yul\":2608:2620   */\n      revert\n        /* \"#utility.yul\":2675:2908   */\n    tag_307:\n        /* \"#utility.yul\":2749:2754   */\n      0x00\n        /* \"#utility.yul\":2790:2793   */\n      0xc0\n        /* \"#utility.yul\":2781:2787   */\n      dup3\n        /* \"#utility.yul\":2776:2779   */\n      dup5\n        /* \"#utility.yul\":2772:2788   */\n      sub\n        /* \"#utility.yul\":2768:2794   */\n      slt\n        /* \"#utility.yul\":2765:2878   */\n      iszero\n      tag_417\n      jumpi\n        /* \"#utility.yul\":2797:2876   */\n      tag_418\n      tag_306\n      jump\t// in\n    tag_418:\n        /* \"#utility.yul\":2765:2878   */\n    tag_417:\n        /* \"#utility.yul\":2896:2902   */\n      dup2\n        /* \"#utility.yul\":2887:2902   */\n      swap1\n      pop\n        /* \"#utility.yul\":2675:2908   */\n      swap3\n      swap2\n      pop\n      pop\n      jump\t// out\n        /* \"#utility.yul\":2914:3031   */\n    tag_308:\n        /* \"#utility.yul\":3023:3024   */\n      0x00\n        /* \"#utility.yul\":3020:3021   */\n      dup1\n        /* \"#utility.yul\":3013:3025   */\n      revert\n        /* \"#utility.yul\":3037:3154   */\n    tag_309:\n        /* \"#utility.yul\":3146:3147   */\n      0x00\n        /* \"#utility.yul\":3143:3144   */\n      dup1\n        /* \"#utility.yul\":3136:3148   */\n      revert\n        /* \"#utility.yul\":3160:3277   */\n    tag_310:\n        /* \"#utility.yul\":3269:3270   */\n      0x00\n        /* \"#utility.yul\":3266:3267   */\n      dup1\n        /* \"#utility.yul\":3259:3271   */\n      revert\n        /* \"#utility.yul\":3296:3848   */\n    tag_311:\n        /* \"#utility.yul\":3353:3361   */\n      0x00\n        /* \"#utility.yul\":3363:3369   */\n      dup1\n        /* \"#utility.yul\":3413:3416   */\n      dup4\n        /* \"#utility.yul\":3406:3410   */\n      0x1f\n        /* \"#utility.yul\":3398:3404   */\n      dup5\n        /* \"#utility.yul\":3394:3411   */\n      add\n        /* \"#utility.yul\":3390:3417   */\n      slt\n        /* \"#utility.yul\":3380:3502   */\n      tag_423\n      jumpi\n        /* \"#utility.yul\":3421:3500   */\n      tag_424\n      tag_308\n      jump\t// in\n    tag_424:\n        /* \"#utility.yul\":3380:3502   */\n    tag_423:\n        /* \"#utility.yul\":3534:3540   */\n      dup3\n        /* \"#utility.yul\":3521:3541   */\n      calldataload\n        /* \"#utility.yul\":3511:3541   */\n      swap1\n      pop\n        /* \"#utility.yul\":3564:3582   */\n      0xffffffffffffffff\n        /* \"#utility.yul\":3556:3562   */\n      dup2\n        /* \"#utility.yul\":3553:3583   */\n      gt\n        /* \"#utility.yul\":3550:3667   */\n      iszero\n      tag_425\n      jumpi\n        /* \"#utility.yul\":3586:3665   */\n      tag_426\n      tag_309\n      jump\t// in\n    tag_426:\n        /* \"#utility.yul\":3550:3667   */\n    tag_425:\n        /* \"#utility.yul\":3700:3704   */\n      0x20\n        /* \"#utility.yul\":3692:3698   */\n      dup4\n        /* \"#utility.yul\":3688:3705   */\n      add\n        /* \"#utility.yul\":3676:3705   */\n      swap2\n      pop\n        /* \"#utility.yul\":3754:3757   */\n      dup4\n        /* \"#utility.yul\":3746:3750   */\n      0x01\n        /* \"#utility.yul\":3738:3744   */\n      dup3\n        /* \"#utility.yul\":3734:3751   */\n      mul\n        /* \"#utility.yul\":3724:3732   */\n      dup4\n        /* \"#utility.yul\":3720:3752   */\n      add\n        /* \"#utility.yul\":3717:3758   */\n      gt\n        /* \"#utility.yul\":3714:3842   */\n      iszero\n      tag_427\n      jumpi\n        /* \"#utility.yul\":3761:3840   */\n      tag_428\n      tag_310\n      jump\t// in\n    tag_428:\n        /* \"#utility.yul\":3714:3842   */\n    tag_427:\n        /* \"#utility.yul\":3296:3848   */\n      swap3\n      pop\n      swap3\n      swap1\n      pop\n      jump\t// out\n        /* \"#utility.yul\":3854:4742   */\n    tag_32:\n        /* \"#utility.yul\":3961:3967   */\n      0x00\n        /* \"#utility.yul\":3969:3975   */\n      dup1\n        /* \"#utility.yul\":3977:3983   */\n      0x00\n        /* \"#utility.yul\":4026:4028   */\n      0x40\n        /* \"#utility.yul\":4014:4023   */\n      dup5\n        /* \"#utility.yul\":4005:4012   */\n      dup7\n        /* \"#utility.yul\":4001:4024   */\n      sub\n        /* \"#utility.yul\":3997:4029   */\n      slt\n        /* \"#utility.yul\":3994:4113   */\n      iszero\n      tag_430\n      jumpi\n        /* \"#utility.yul\":4032:4111   */\n      tag_431\n      tag_296\n      jump\t// in\n    tag_431:\n        /* \"#utility.yul\":3994:4113   */\n    tag_430:\n        /* \"#utility.yul\":4180:4181   */\n      0x00\n        /* \"#utility.yul\":4169:4178   */\n      dup5\n        /* \"#utility.yul\":4165:4182   */\n      add\n        /* \"#utility.yul\":4152:4183   */\n      calldataload\n        /* \"#utility.yul\":4210:4228   */\n      0xffffffffffffffff\n        /* \"#utility.yul\":4202:4208   */\n      dup2\n        /* \"#utility.yul\":4199:4229   */\n      gt\n        /* \"#utility.yul\":4196:4313   */\n      iszero\n      tag_432\n      jumpi\n        /* \"#utility.yul\":4232:4311   */\n      tag_433\n      tag_297\n      jump\t// in\n    tag_433:\n        /* \"#utility.yul\":4196:4313   */\n    tag_432:\n        /* \"#utility.yul\":4337:4418   */\n      tag_434\n        /* \"#utility.yul\":4410:4417   */\n      dup7\n        /* \"#utility.yul\":4401:4407   */\n      dup3\n        /* \"#utility.yul\":4390:4399   */\n      dup8\n        /* \"#utility.yul\":4386:4408   */\n      add\n        /* \"#utility.yul\":4337:4418   */\n      tag_307\n      jump\t// in\n    tag_434:\n        /* \"#utility.yul\":4327:4418   */\n      swap4\n      pop\n        /* \"#utility.yul\":4123:4428   */\n      pop\n        /* \"#utility.yul\":4495:4497   */\n      0x20\n        /* \"#utility.yul\":4484:4493   */\n      dup5\n        /* \"#utility.yul\":4480:4498   */\n      add\n        /* \"#utility.yul\":4467:4499   */\n      calldataload\n        /* \"#utility.yul\":4526:4544   */\n      0xffffffffffffffff\n        /* \"#utility.yul\":4518:4524   */\n      dup2\n        /* \"#utility.yul\":4515:4545   */\n      gt\n        /* \"#utility.yul\":4512:4629   */\n      iszero\n      tag_435\n      jumpi\n        /* \"#utility.yul\":4548:4627   */\n      tag_436\n      tag_297\n      jump\t// in\n    tag_436:\n        /* \"#utility.yul\":4512:4629   */\n    tag_435:\n        /* \"#utility.yul\":4661:4725   */\n      tag_437\n        /* \"#utility.yul\":4717:4724   */\n      dup7\n        /* \"#utility.yul\":4708:4714   */\n      dup3\n        /* \"#utility.yul\":4697:4706   */\n      dup8\n        /* \"#utility.yul\":4693:4715   */\n      add\n        /* \"#utility.yul\":4661:4725   */\n      tag_311\n      jump\t// in\n    tag_437:\n        /* \"#utility.yul\":4643:4725   */\n      swap3\n      pop\n      swap3\n      pop\n        /* \"#utility.yul\":4438:4735   */\n      pop\n        /* \"#utility.yul\":3854:4742   */\n      swap3\n      pop\n      swap3\n      pop\n      swap3\n      jump\t// out\n        /* \"#utility.yul\":4748:5222   */\n    tag_37:\n        /* \"#utility.yul\":4816:4822   */\n      0x00\n        /* \"#utility.yul\":4824:4830   */\n      dup1\n        /* \"#utility.yul\":4873:4875   */\n      0x40\n        /* \"#utility.yul\":4861:4870   */\n      dup4\n        /* \"#utility.yul\":4852:4859   */\n      dup6\n        /* \"#utility.yul\":4848:4871   */\n      sub\n        /* \"#utility.yul\":4844:4876   */\n      slt\n        /* \"#utility.yul\":4841:4960   */\n      iszero\n      tag_439\n      jumpi\n        /* \"#utility.yul\":4879:4958   */\n      tag_440\n      tag_296\n      jump\t// in\n    tag_440:\n        /* \"#utility.yul\":4841:4960   */\n    tag_439:\n        /* \"#utility.yul\":4999:5000   */\n      0x00\n        /* \"#utility.yul\":5024:5077   */\n      tag_441\n        /* \"#utility.yul\":5069:5076   */\n      dup6\n        /* \"#utility.yul\":5060:5066   */\n      dup3\n        /* \"#utility.yul\":5049:5058   */\n      dup7\n        /* \"#utility.yul\":5045:5067   */\n      add\n        /* \"#utility.yul\":5024:5077   */\n      tag_301\n      jump\t// in\n    tag_441:\n        /* \"#utility.yul\":5014:5077   */\n      swap3\n      pop\n        /* \"#utility.yul\":4970:5087   */\n      pop\n        /* \"#utility.yul\":5126:5128   */\n      0x20\n        /* \"#utility.yul\":5152:5205   */\n      tag_442\n        /* \"#utility.yul\":5197:5204   */\n      dup6\n        /* \"#utility.yul\":5188:5194   */\n      dup3\n        /* \"#utility.yul\":5177:5186   */\n      dup7\n        /* \"#utility.yul\":5173:5195   */\n      add\n        /* \"#utility.yul\":5152:5205   */\n      tag_304\n      jump\t// in\n    tag_442:\n        /* \"#utility.yul\":5142:5205   */\n      swap2\n      pop\n        /* \"#utility.yul\":5097:5215   */\n      pop\n        /* \"#utility.yul\":4748:5222   */\n      swap3\n      pop\n      swap3\n      swap1\n      pop\n      jump\t// out\n        /* \"#utility.yul\":5228:5346   */\n    tag_312:\n        /* \"#utility.yul\":5315:5339   */\n      tag_444\n        /* \"#utility.yul\":5333:5338   */\n      dup2\n        /* \"#utility.yul\":5315:5339   */\n      tag_299\n      jump\t// in\n    tag_444:\n        /* \"#utility.yul\":5310:5313   */\n      dup3\n        /* \"#utility.yul\":5303:5340   */\n      mstore\n        /* \"#utility.yul\":5228:5346   */\n      pop\n      pop\n      jump\t// out\n        /* \"#utility.yul\":5352:5574   */\n    tag_43:\n        /* \"#utility.yul\":5445:5449   */\n      0x00\n        /* \"#utility.yul\":5483:5485   */\n      0x20\n        /* \"#utility.yul\":5472:5481   */\n      dup3\n        /* \"#utility.yul\":5468:5486   */\n      add\n        /* \"#utility.yul\":5460:5486   */\n      swap1\n      pop\n        /* \"#utility.yul\":5496:5567   */\n      tag_446\n        /* \"#utility.yul\":5564:5565   */\n      0x00\n        /* \"#utility.yul\":5553:5562   */\n      dup4\n        /* \"#utility.yul\":5549:5566   */\n      add\n        /* \"#utility.yul\":5540:5546   */\n      dup5\n        /* \"#utility.yul\":5496:5567   */\n      tag_312\n      jump\t// in\n    tag_446:\n        /* \"#utility.yul\":5352:5574   */\n      swap3\n      swap2\n      pop\n      pop\n      jump\t// out\n        /* \"#utility.yul\":5580:5666   */\n    tag_313:\n        /* \"#utility.yul\":5615:5622   */\n      0x00\n        /* \"#utility.yul\":5655:5659   */\n      0xff\n        /* \"#utility.yul\":5648:5653   */\n      dup3\n        /* \"#utility.yul\":5644:5660   */\n      and\n        /* \"#utility.yul\":5633:5660   */\n      swap1\n      pop\n        /* \"#utility.yul\":5580:5666   */\n      swap2\n      swap1\n      pop\n      jump\t// out\n        /* \"#utility.yul\":5672:5790   */\n    tag_314:\n        /* \"#utility.yul\":5743:5765   */\n      tag_449\n        /* \"#utility.yul\":5759:5764   */\n      dup2\n        /* \"#utility.yul\":5743:5765   */\n      tag_313\n      jump\t// in\n    tag_449:\n        /* \"#utility.yul\":5736:5741   */\n      dup2\n        /* \"#utility.yul\":5733:5766   */\n      eq\n        /* \"#utility.yul\":5723:5784   */\n      tag_450\n      jumpi\n        /* \"#utility.yul\":5780:5781   */\n      0x00\n        /* \"#utility.yul\":5777:5778   */\n      dup1\n        /* \"#utility.yul\":5770:5782   */\n      revert\n        /* \"#utility.yul\":5723:5784   */\n    tag_450:\n        /* \"#utility.yul\":5672:5790   */\n      pop\n      jump\t// out\n        /* \"#utility.yul\":5796:5931   */\n    tag_315:\n        /* \"#utility.yul\":5840:5845   */\n      0x00\n        /* \"#utility.yul\":5878:5884   */\n      dup2\n        /* \"#utility.yul\":5865:5885   */\n      calldataload\n        /* \"#utility.yul\":5856:5885   */\n      swap1\n      pop\n        /* \"#utility.yul\":5894:5925   */\n      tag_452\n        /* \"#utility.yul\":5919:5924   */\n      dup2\n        /* \"#utility.yul\":5894:5925   */\n      tag_314\n      jump\t// in\n    tag_452:\n        /* \"#utility.yul\":5796:5931   */\n      swap3\n      swap2\n      pop\n      pop\n      jump\t// out\n        /* \"#utility.yul\":5937:6844   */\n    tag_50:\n        /* \"#utility.yul\":6030:6036   */\n      0x00\n        /* \"#utility.yul\":6038:6044   */\n      dup1\n        /* \"#utility.yul\":6046:6052   */\n      0x00\n        /* \"#utility.yul\":6054:6060   */\n      dup1\n        /* \"#utility.yul\":6062:6068   */\n      0x00\n        /* \"#utility.yul\":6111:6114   */\n      0xa0\n        /* \"#utility.yul\":6099:6108   */\n      dup7\n        /* \"#utility.yul\":6090:6097   */\n      dup9\n        /* \"#utility.yul\":6086:6109   */\n      sub\n        /* \"#utility.yul\":6082:6115   */\n      slt\n        /* \"#utility.yul\":6079:6199   */\n      iszero\n      tag_454\n      jumpi\n        /* \"#utility.yul\":6118:6197   */\n      tag_455\n      tag_296\n      jump\t// in\n    tag_455:\n        /* \"#utility.yul\":6079:6199   */\n    tag_454:\n        /* \"#utility.yul\":6238:6239   */\n      0x00\n        /* \"#utility.yul\":6263:6316   */\n      tag_456\n        /* \"#utility.yul\":6308:6315   */\n      dup9\n        /* \"#utility.yul\":6299:6305   */\n      dup3\n        /* \"#utility.yul\":6288:6297   */\n      dup10\n        /* \"#utility.yul\":6284:6306   */\n      add\n        /* \"#utility.yul\":6263:6316   */\n      tag_301\n      jump\t// in\n    tag_456:\n        /* \"#utility.yul\":6253:6316   */\n      swap6\n      pop\n        /* \"#utility.yul\":6209:6326   */\n      pop\n        /* \"#utility.yul\":6365:6367   */\n      0x20\n        /* \"#utility.yul\":6391:6444   */\n      tag_457\n        /* \"#utility.yul\":6436:6443   */\n      dup9\n        /* \"#utility.yul\":6427:6433   */\n      dup3\n        /* \"#utility.yul\":6416:6425   */\n      dup10\n        /* \"#utility.yul\":6412:6434   */\n      add\n        /* \"#utility.yul\":6391:6444   */\n      tag_301\n      jump\t// in\n    tag_457:\n        /* \"#utility.yul\":6381:6444   */\n      swap5\n      pop\n        /* \"#utility.yul\":6336:6454   */\n      pop\n        /* \"#utility.yul\":6493:6495   */\n      0x40\n        /* \"#utility.yul\":6519:6572   */\n      tag_458\n        /* \"#utility.yul\":6564:6571   */\n      dup9\n        /* \"#utility.yul\":6555:6561   */\n      dup3\n        /* \"#utility.yul\":6544:6553   */\n      dup10\n        /* \"#utility.yul\":6540:6562   */\n      add\n        /* \"#utility.yul\":6519:6572   */\n      tag_301\n      jump\t// in\n    tag_458:\n        /* \"#utility.yul\":6509:6572   */\n      swap4\n      pop\n        /* \"#utility.yul\":6464:6582   */\n      pop\n        /* \"#utility.yul\":6621:6623   */\n      0x60\n        /* \"#utility.yul\":6647:6700   */\n      tag_459\n        /* \"#utility.yul\":6692:6699   */\n      dup9\n        /* \"#utility.yul\":6683:6689   */\n      dup3\n        /* \"#utility.yul\":6672:6681   */\n      dup10\n        /* \"#utility.yul\":6668:6690   */\n      add\n        /* \"#utility.yul\":6647:6700   */\n      tag_304\n      jump\t// in\n    tag_459:\n        /* \"#utility.yul\":6637:6700   */\n      swap3\n      pop\n        /* \"#utility.yul\":6592:6710   */\n      pop\n        /* \"#utility.yul\":6749:6752   */\n      0x80\n        /* \"#utility.yul\":6776:6827   */\n      tag_460\n        /* \"#utility.yul\":6819:6826   */\n      dup9\n        /* \"#utility.yul\":6810:6816   */\n      dup3\n        /* \"#utility.yul\":6799:6808   */\n      dup10\n        /* \"#utility.yul\":6795:6817   */\n      add\n        /* \"#utility.yul\":6776:6827   */\n      tag_315\n      jump\t// in\n    tag_460:\n        /* \"#utility.yul\":6766:6827   */\n      swap2\n      pop\n        /* \"#utility.yul\":6720:6837   */\n      pop\n        /* \"#utility.yul\":5937:6844   */\n      swap3\n      swap6\n      pop\n      swap3\n      swap6\n      swap1\n      swap4\n      pop\n      jump\t// out\n        /* \"#utility.yul\":6850:6941   */\n    tag_316:\n        /* \"#utility.yul\":6886:6893   */\n      0x00\n        /* \"#utility.yul\":6926:6934   */\n      0xffffff\n        /* \"#utility.yul\":6919:6924   */\n      dup3\n        /* \"#utility.yul\":6915:6935   */\n      and\n        /* \"#utility.yul\":6904:6935   */\n      swap1\n      pop\n        /* \"#utility.yul\":6850:6941   */\n      swap2\n      swap1\n      pop\n      jump\t// out\n        /* \"#utility.yul\":6947:7062   */\n    tag_317:\n        /* \"#utility.yul\":7032:7055   */\n      tag_463\n        /* \"#utility.yul\":7049:7054   */\n      dup2\n        /* \"#utility.yul\":7032:7055   */\n      tag_316\n      jump\t// in\n    tag_463:\n        /* \"#utility.yul\":7027:7030   */\n      dup3\n        /* \"#utility.yul\":7020:7056   */\n      mstore\n        /* \"#utility.yul\":6947:7062   */\n      pop\n      pop\n      jump\t// out\n        /* \"#utility.yul\":7068:7396   */\n    tag_53:\n        /* \"#utility.yul\":7187:7191   */\n      0x00\n        /* \"#utility.yul\":7225:7227   */\n      0x40\n        /* \"#utility.yul\":7214:7223   */\n      dup3\n        /* \"#utility.yul\":7210:7228   */\n      add\n        /* \"#utility.yul\":7202:7228   */\n      swap1\n      pop\n        /* \"#utility.yul\":7238:7309   */\n      tag_465\n        /* \"#utility.yul\":7306:7307   */\n      0x00\n        /* \"#utility.yul\":7295:7304   */\n      dup4\n        /* \"#utility.yul\":7291:7308   */\n      add\n        /* \"#utility.yul\":7282:7288   */\n      dup6\n        /* \"#utility.yul\":7238:7309   */\n      tag_305\n      jump\t// in\n    tag_465:\n        /* \"#utility.yul\":7319:7389   */\n      tag_466\n        /* \"#utility.yul\":7385:7387   */\n      0x20\n        /* \"#utility.yul\":7374:7383   */\n      dup4\n        /* \"#utility.yul\":7370:7388   */\n      add\n        /* \"#utility.yul\":7361:7367   */\n      dup5\n        /* \"#utility.yul\":7319:7389   */\n      tag_317\n      jump\t// in\n    tag_466:\n        /* \"#utility.yul\":7068:7396   */\n      swap4\n      swap3\n      pop\n      pop\n      pop\n      jump\t// out\n        /* \"#utility.yul\":7402:7545   */\n    tag_318:\n        /* \"#utility.yul\":7459:7464   */\n      0x00\n        /* \"#utility.yul\":7490:7496   */\n      dup2\n        /* \"#utility.yul\":7484:7497   */\n      mload\n        /* \"#utility.yul\":7475:7497   */\n      swap1\n      pop\n        /* \"#utility.yul\":7506:7539   */\n      tag_468\n        /* \"#utility.yul\":7533:7538   */\n      dup2\n        /* \"#utility.yul\":7506:7539   */\n      tag_303\n      jump\t// in\n    tag_468:\n        /* \"#utility.yul\":7402:7545   */\n      swap3\n      swap2\n      pop\n      pop\n      jump\t// out\n        /* \"#utility.yul\":7551:7902   */\n    tag_88:\n        /* \"#utility.yul\":7621:7627   */\n      0x00\n        /* \"#utility.yul\":7670:7672   */\n      0x20\n        /* \"#utility.yul\":7658:7667   */\n      dup3\n        /* \"#utility.yul\":7649:7656   */\n      dup5\n        /* \"#utility.yul\":7645:7668   */\n      sub\n        /* \"#utility.yul\":7641:7673   */\n      slt\n        /* \"#utility.yul\":7638:7757   */\n      iszero\n      tag_470\n      jumpi\n        /* \"#utility.yul\":7676:7755   */\n      tag_471\n      tag_296\n      jump\t// in\n    tag_471:\n        /* \"#utility.yul\":7638:7757   */\n    tag_470:\n        /* \"#utility.yul\":7796:7797   */\n      0x00\n        /* \"#utility.yul\":7821:7885   */\n      tag_472\n        /* \"#utility.yul\":7877:7884   */\n      dup5\n        /* \"#utility.yul\":7868:7874   */\n      dup3\n        /* \"#utility.yul\":7857:7866   */\n      dup6\n        /* \"#utility.yul\":7853:7875   */\n      add\n        /* \"#utility.yul\":7821:7885   */\n      tag_318\n      jump\t// in\n    tag_472:\n        /* \"#utility.yul\":7811:7885   */\n      swap2\n      pop\n        /* \"#utility.yul\":7767:7895   */\n      pop\n        /* \"#utility.yul\":7551:7902   */\n      swap3\n      swap2\n      pop\n      pop\n      jump\t// out\n        /* \"#utility.yul\":7908:8077   */\n    tag_319:\n        /* \"#utility.yul\":7992:8003   */\n      0x00\n        /* \"#utility.yul\":8026:8032   */\n      dup3\n        /* \"#utility.yul\":8021:8024   */\n      dup3\n        /* \"#utility.yul\":8014:8033   */\n      mstore\n        /* \"#utility.yul\":8066:8070   */\n      0x20\n        /* \"#utility.yul\":8061:8064   */\n      dup3\n        /* \"#utility.yul\":8057:8071   */\n      add\n        /* \"#utility.yul\":8042:8071   */\n      swap1\n      pop\n        /* \"#utility.yul\":7908:8077   */\n      swap3\n      swap2\n      pop\n      pop\n      jump\t// out\n        /* \"#utility.yul\":8083:8247   */\n    tag_320:\n        /* \"#utility.yul\":8223:8239   */\n      0x696e76616c65642073656e646572000000000000000000000000000000000000\n        /* \"#utility.yul\":8219:8220   */\n      0x00\n        /* \"#utility.yul\":8211:8217   */\n      dup3\n        /* \"#utility.yul\":8207:8221   */\n      add\n        /* \"#utility.yul\":8200:8240   */\n      mstore\n        /* \"#utility.yul\":8083:8247   */\n      pop\n      jump\t// out\n        /* \"#utility.yul\":8253:8619   */\n    tag_321:\n        /* \"#utility.yul\":8395:8398   */\n      0x00\n        /* \"#utility.yul\":8416:8483   */\n      tag_476\n        /* \"#utility.yul\":8480:8482   */\n      0x0e\n        /* \"#utility.yul\":8475:8478   */\n      dup4\n        /* \"#utility.yul\":8416:8483   */\n      tag_319\n      jump\t// in\n    tag_476:\n        /* \"#utility.yul\":8409:8483   */\n      swap2\n      pop\n        /* \"#utility.yul\":8492:8585   */\n      tag_477\n        /* \"#utility.yul\":8581:8584   */\n      dup3\n        /* \"#utility.yul\":8492:8585   */\n      tag_320\n      jump\t// in\n    tag_477:\n        /* \"#utility.yul\":8610:8612   */\n      0x20\n        /* \"#utility.yul\":8605:8608   */\n      dup3\n        /* \"#utility.yul\":8601:8613   */\n      add\n        /* \"#utility.yul\":8594:8613   */\n      swap1\n      pop\n        /* \"#utility.yul\":8253:8619   */\n      swap2\n      swap1\n      pop\n      jump\t// out\n        /* \"#utility.yul\":8625:9044   */\n    tag_93:\n        /* \"#utility.yul\":8791:8795   */\n      0x00\n        /* \"#utility.yul\":8829:8831   */\n      0x20\n        /* \"#utility.yul\":8818:8827   */\n      dup3\n        /* \"#utility.yul\":8814:8832   */\n      add\n        /* \"#utility.yul\":8806:8832   */\n      swap1\n      pop\n        /* \"#utility.yul\":8878:8887   */\n      dup2\n        /* \"#utility.yul\":8872:8876   */\n      dup2\n        /* \"#utility.yul\":8868:8888   */\n      sub\n        /* \"#utility.yul\":8864:8865   */\n      0x00\n        /* \"#utility.yul\":8853:8862   */\n      dup4\n        /* \"#utility.yul\":8849:8866   */\n      add\n        /* \"#utility.yul\":8842:8889   */\n      mstore\n        /* \"#utility.yul\":8906:9037   */\n      tag_479\n        /* \"#utility.yul\":9032:9036   */\n      dup2\n        /* \"#utility.yul\":8906:9037   */\n      tag_321\n      jump\t// in\n    tag_479:\n        /* \"#utility.yul\":8898:9037   */\n      swap1\n      pop\n        /* \"#utility.yul\":8625:9044   */\n      swap2\n      swap1\n      pop\n      jump\t// out\n        /* \"#utility.yul\":9050:9172   */\n    tag_322:\n        /* \"#utility.yul\":9102:9107   */\n      0x00\n        /* \"#utility.yul\":9127:9166   */\n      tag_481\n        /* \"#utility.yul\":9162:9164   */\n      0x20\n        /* \"#utility.yul\":9157:9160   */\n      dup5\n        /* \"#utility.yul\":9153:9165   */\n      add\n        /* \"#utility.yul\":9148:9151   */\n      dup5\n        /* \"#utility.yul\":9127:9166   */\n      tag_301\n      jump\t// in\n    tag_481:\n        /* \"#utility.yul\":9118:9166   */\n      swap1\n      pop\n        /* \"#utility.yul\":9050:9172   */\n      swap3\n      swap2\n      pop\n      pop\n      jump\t// out\n        /* \"#utility.yul\":9178:9286   */\n    tag_323:\n        /* \"#utility.yul\":9255:9279   */\n      tag_483\n        /* \"#utility.yul\":9273:9278   */\n      dup2\n        /* \"#utility.yul\":9255:9279   */\n      tag_299\n      jump\t// in\n    tag_483:\n        /* \"#utility.yul\":9250:9253   */\n      dup3\n        /* \"#utility.yul\":9243:9280   */\n      mstore\n        /* \"#utility.yul\":9178:9286   */\n      pop\n      pop\n      jump\t// out\n        /* \"#utility.yul\":9292:9414   */\n    tag_324:\n        /* \"#utility.yul\":9344:9349   */\n      0x00\n        /* \"#utility.yul\":9369:9408   */\n      tag_485\n        /* \"#utility.yul\":9404:9406   */\n      0x20\n        /* \"#utility.yul\":9399:9402   */\n      dup5\n        /* \"#utility.yul\":9395:9407   */\n      add\n        /* \"#utility.yul\":9390:9393   */\n      dup5\n        /* \"#utility.yul\":9369:9408   */\n      tag_304\n      jump\t// in\n    tag_485:\n        /* \"#utility.yul\":9360:9408   */\n      swap1\n      pop\n        /* \"#utility.yul\":9292:9414   */\n      swap3\n      swap2\n      pop\n      pop\n      jump\t// out\n        /* \"#utility.yul\":9420:9528   */\n    tag_325:\n        /* \"#utility.yul\":9497:9521   */\n      tag_487\n        /* \"#utility.yul\":9515:9520   */\n      dup2\n        /* \"#utility.yul\":9497:9521   */\n      tag_302\n      jump\t// in\n    tag_487:\n        /* \"#utility.yul\":9492:9495   */\n      dup3\n        /* \"#utility.yul\":9485:9522   */\n      mstore\n        /* \"#utility.yul\":9420:9528   */\n      pop\n      pop\n      jump\t// out\n        /* \"#utility.yul\":9534:9651   */\n    tag_326:\n        /* \"#utility.yul\":9643:9644   */\n      0x00\n        /* \"#utility.yul\":9640:9641   */\n      dup1\n        /* \"#utility.yul\":9633:9645   */\n      revert\n        /* \"#utility.yul\":9657:9774   */\n    tag_327:\n        /* \"#utility.yul\":9766:9767   */\n      0x00\n        /* \"#utility.yul\":9763:9764   */\n      dup1\n        /* \"#utility.yul\":9756:9768   */\n      revert\n        /* \"#utility.yul\":9780:9897   */\n    tag_328:\n        /* \"#utility.yul\":9889:9890   */\n      0x00\n        /* \"#utility.yul\":9886:9887   */\n      dup1\n        /* \"#utility.yul\":9879:9891   */\n      revert\n        /* \"#utility.yul\":9903:10614   */\n    tag_329:\n        /* \"#utility.yul\":9967:9972   */\n      0x00\n        /* \"#utility.yul\":9974:9980   */\n      dup1\n        /* \"#utility.yul\":10030:10033   */\n      dup4\n        /* \"#utility.yul\":10017:10034   */\n      calldataload\n        /* \"#utility.yul\":10122:10123   */\n      0x01\n        /* \"#utility.yul\":10116:10120   */\n      0x20\n        /* \"#utility.yul\":10112:10124   */\n      sub\n        /* \"#utility.yul\":10101:10109   */\n      dup5\n        /* \"#utility.yul\":10085:10099   */\n      calldatasize\n        /* \"#utility.yul\":10081:10110   */\n      sub\n        /* \"#utility.yul\":10077:10125   */\n      sub\n        /* \"#utility.yul\":10057:10075   */\n      dup2\n        /* \"#utility.yul\":10053:10126   */\n      slt\n        /* \"#utility.yul\":10043:10211   */\n      tag_492\n      jumpi\n        /* \"#utility.yul\":10130:10209   */\n      tag_493\n      tag_328\n      jump\t// in\n    tag_493:\n        /* \"#utility.yul\":10043:10211   */\n    tag_492:\n        /* \"#utility.yul\":10253:10261   */\n      dup4\n        /* \"#utility.yul\":10233:10251   */\n      dup2\n        /* \"#utility.yul\":10229:10262   */\n      add\n        /* \"#utility.yul\":10220:10262   */\n      swap3\n      pop\n        /* \"#utility.yul\":10295:10300   */\n      dup3\n        /* \"#utility.yul\":10282:10301   */\n      calldataload\n        /* \"#utility.yul\":10272:10301   */\n      swap2\n      pop\n        /* \"#utility.yul\":10330:10334   */\n      0x20\n        /* \"#utility.yul\":10323:10328   */\n      dup4\n        /* \"#utility.yul\":10319:10335   */\n      add\n        /* \"#utility.yul\":10310:10335   */\n      swap3\n      pop\n        /* \"#utility.yul\":10358:10376   */\n      0xffffffffffffffff\n        /* \"#utility.yul\":10350:10356   */\n      dup3\n        /* \"#utility.yul\":10347:10377   */\n      gt\n        /* \"#utility.yul\":10344:10461   */\n      iszero\n      tag_494\n      jumpi\n        /* \"#utility.yul\":10380:10459   */\n      tag_495\n      tag_326\n      jump\t// in\n    tag_495:\n        /* \"#utility.yul\":10344:10461   */\n    tag_494:\n        /* \"#utility.yul\":10516:10520   */\n      0x01\n        /* \"#utility.yul\":10508:10514   */\n      dup3\n        /* \"#utility.yul\":10504:10521   */\n      mul\n        /* \"#utility.yul\":10488:10502   */\n      calldatasize\n        /* \"#utility.yul\":10484:10522   */\n      sub\n        /* \"#utility.yul\":10477:10482   */\n      dup4\n        /* \"#utility.yul\":10473:10523   */\n      sgt\n        /* \"#utility.yul\":10470:10607   */\n      iszero\n      tag_496\n      jumpi\n        /* \"#utility.yul\":10526:10605   */\n      tag_497\n      tag_327\n      jump\t// in\n    tag_497:\n        /* \"#utility.yul\":10470:10607   */\n    tag_496:\n        /* \"#utility.yul\":9981:10614   */\n      pop\n        /* \"#utility.yul\":9903:10614   */\n      swap3\n      pop\n      swap3\n      swap1\n      pop\n      jump\t// out\n        /* \"#utility.yul\":10620:10778   */\n    tag_330:\n        /* \"#utility.yul\":10693:10704   */\n      0x00\n        /* \"#utility.yul\":10727:10733   */\n      dup3\n        /* \"#utility.yul\":10722:10725   */\n      dup3\n        /* \"#utility.yul\":10715:10734   */\n      mstore\n        /* \"#utility.yul\":10767:10771   */\n      0x20\n        /* \"#utility.yul\":10762:10765   */\n      dup3\n        /* \"#utility.yul\":10758:10772   */\n      add\n        /* \"#utility.yul\":10743:10772   */\n      swap1\n      pop\n        /* \"#utility.yul\":10620:10778   */\n      swap3\n      swap2\n      pop\n      pop\n      jump\t// out\n        /* \"#utility.yul\":10784:10930   */\n    tag_331:\n        /* \"#utility.yul\":10881:10887   */\n      dup3\n        /* \"#utility.yul\":10876:10879   */\n      dup2\n        /* \"#utility.yul\":10871:10874   */\n      dup4\n        /* \"#utility.yul\":10858:10888   */\n      calldatacopy\n        /* \"#utility.yul\":10922:10923   */\n      0x00\n        /* \"#utility.yul\":10913:10919   */\n      dup4\n        /* \"#utility.yul\":10908:10911   */\n      dup4\n        /* \"#utility.yul\":10904:10920   */\n      add\n        /* \"#utility.yul\":10897:10924   */\n      mstore\n        /* \"#utility.yul\":10784:10930   */\n      pop\n      pop\n      pop\n      jump\t// out\n        /* \"#utility.yul\":10936:11038   */\n    tag_332:\n        /* \"#utility.yul\":10977:10983   */\n      0x00\n        /* \"#utility.yul\":11028:11030   */\n      0x1f\n        /* \"#utility.yul\":11024:11031   */\n      not\n        /* \"#utility.yul\":11019:11021   */\n      0x1f\n        /* \"#utility.yul\":11012:11017   */\n      dup4\n        /* \"#utility.yul\":11008:11022   */\n      add\n        /* \"#utility.yul\":11004:11032   */\n      and\n        /* \"#utility.yul\":10994:11032   */\n      swap1\n      pop\n        /* \"#utility.yul\":10936:11038   */\n      swap2\n      swap1\n      pop\n      jump\t// out\n        /* \"#utility.yul\":11066:11360   */\n    tag_333:\n        /* \"#utility.yul\":11152:11155   */\n      0x00\n        /* \"#utility.yul\":11173:11233   */\n      tag_502\n        /* \"#utility.yul\":11226:11232   */\n      dup4\n        /* \"#utility.yul\":11221:11224   */\n      dup6\n        /* \"#utility.yul\":11173:11233   */\n      tag_330\n      jump\t// in\n    tag_502:\n        /* \"#utility.yul\":11166:11233   */\n      swap4\n      pop\n        /* \"#utility.yul\":11243:11299   */\n      tag_503\n        /* \"#utility.yul\":11292:11298   */\n      dup4\n        /* \"#utility.yul\":11287:11290   */\n      dup6\n        /* \"#utility.yul\":11280:11285   */\n      dup5\n        /* \"#utility.yul\":11243:11299   */\n      tag_331\n      jump\t// in\n    tag_503:\n        /* \"#utility.yul\":11324:11353   */\n      tag_504\n        /* \"#utility.yul\":11346:11352   */\n      dup4\n        /* \"#utility.yul\":11324:11353   */\n      tag_332\n      jump\t// in\n    tag_504:\n        /* \"#utility.yul\":11319:11322   */\n      dup5\n        /* \"#utility.yul\":11315:11354   */\n      add\n        /* \"#utility.yul\":11308:11354   */\n      swap1\n      pop\n        /* \"#utility.yul\":11066:11360   */\n      swap4\n      swap3\n      pop\n      pop\n      pop\n      jump\t// out\n        /* \"#utility.yul\":11448:12973   */\n    tag_334:\n        /* \"#utility.yul\":11571:11574   */\n      0x00\n        /* \"#utility.yul\":11607:11611   */\n      0xc0\n        /* \"#utility.yul\":11602:11605   */\n      dup4\n        /* \"#utility.yul\":11598:11612   */\n      add\n        /* \"#utility.yul\":11678:11728   */\n      tag_506\n        /* \"#utility.yul\":11722:11726   */\n      0x00\n        /* \"#utility.yul\":11715:11720   */\n      dup5\n        /* \"#utility.yul\":11711:11727   */\n      add\n        /* \"#utility.yul\":11704:11709   */\n      dup5\n        /* \"#utility.yul\":11678:11728   */\n      tag_322\n      jump\t// in\n    tag_506:\n        /* \"#utility.yul\":11741:11804   */\n      tag_507\n        /* \"#utility.yul\":11798:11802   */\n      0x00\n        /* \"#utility.yul\":11793:11796   */\n      dup7\n        /* \"#utility.yul\":11789:11803   */\n      add\n        /* \"#utility.yul\":11775:11787   */\n      dup3\n        /* \"#utility.yul\":11741:11804   */\n      tag_323\n      jump\t// in\n    tag_507:\n        /* \"#utility.yul\":11622:11814   */\n      pop\n        /* \"#utility.yul\":11886:11936   */\n      tag_508\n        /* \"#utility.yul\":11930:11934   */\n      0x20\n        /* \"#utility.yul\":11923:11928   */\n      dup5\n        /* \"#utility.yul\":11919:11935   */\n      add\n        /* \"#utility.yul\":11912:11917   */\n      dup5\n        /* \"#utility.yul\":11886:11936   */\n      tag_324\n      jump\t// in\n    tag_508:\n        /* \"#utility.yul\":11949:12012   */\n      tag_509\n        /* \"#utility.yul\":12006:12010   */\n      0x20\n        /* \"#utility.yul\":12001:12004   */\n      dup7\n        /* \"#utility.yul\":11997:12011   */\n      add\n        /* \"#utility.yul\":11983:11995   */\n      dup3\n        /* \"#utility.yul\":11949:12012   */\n      tag_325\n      jump\t// in\n    tag_509:\n        /* \"#utility.yul\":11824:12022   */\n      pop\n        /* \"#utility.yul\":12092:12142   */\n      tag_510\n        /* \"#utility.yul\":12136:12140   */\n      0x40\n        /* \"#utility.yul\":12129:12134   */\n      dup5\n        /* \"#utility.yul\":12125:12141   */\n      add\n        /* \"#utility.yul\":12118:12123   */\n      dup5\n        /* \"#utility.yul\":12092:12142   */\n      tag_324\n      jump\t// in\n    tag_510:\n        /* \"#utility.yul\":12155:12218   */\n      tag_511\n        /* \"#utility.yul\":12212:12216   */\n      0x40\n        /* \"#utility.yul\":12207:12210   */\n      dup7\n        /* \"#utility.yul\":12203:12217   */\n      add\n        /* \"#utility.yul\":12189:12201   */\n      dup3\n        /* \"#utility.yul\":12155:12218   */\n      tag_325\n      jump\t// in\n    tag_511:\n        /* \"#utility.yul\":12032:12228   */\n      pop\n        /* \"#utility.yul\":12296:12346   */\n      tag_512\n        /* \"#utility.yul\":12340:12344   */\n      0x60\n        /* \"#utility.yul\":12333:12338   */\n      dup5\n        /* \"#utility.yul\":12329:12345   */\n      add\n        /* \"#utility.yul\":12322:12327   */\n      dup5\n        /* \"#utility.yul\":12296:12346   */\n      tag_322\n      jump\t// in\n    tag_512:\n        /* \"#utility.yul\":12359:12422   */\n      tag_513\n        /* \"#utility.yul\":12416:12420   */\n      0x60\n        /* \"#utility.yul\":12411:12414   */\n      dup7\n        /* \"#utility.yul\":12407:12421   */\n      add\n        /* \"#utility.yul\":12393:12405   */\n      dup3\n        /* \"#utility.yul\":12359:12422   */\n      tag_323\n      jump\t// in\n    tag_513:\n        /* \"#utility.yul\":12238:12432   */\n      pop\n        /* \"#utility.yul\":12511:12572   */\n      tag_514\n        /* \"#utility.yul\":12566:12570   */\n      0x80\n        /* \"#utility.yul\":12559:12564   */\n      dup5\n        /* \"#utility.yul\":12555:12571   */\n      add\n        /* \"#utility.yul\":12548:12553   */\n      dup5\n        /* \"#utility.yul\":12511:12572   */\n      tag_329\n      jump\t// in\n    tag_514:\n        /* \"#utility.yul\":12619:12622   */\n      dup6\n        /* \"#utility.yul\":12613:12617   */\n      dup4\n        /* \"#utility.yul\":12609:12623   */\n      sub\n        /* \"#utility.yul\":12602:12606   */\n      0x80\n        /* \"#utility.yul\":12597:12600   */\n      dup8\n        /* \"#utility.yul\":12593:12607   */\n      add\n        /* \"#utility.yul\":12586:12624   */\n      mstore\n        /* \"#utility.yul\":12645:12732   */\n      tag_515\n        /* \"#utility.yul\":12727:12731   */\n      dup4\n        /* \"#utility.yul\":12713:12725   */\n      dup3\n        /* \"#utility.yul\":12699:12711   */\n      dup5\n        /* \"#utility.yul\":12645:12732   */\n      tag_333\n      jump\t// in\n    tag_515:\n        /* \"#utility.yul\":12637:12732   */\n      swap3\n      pop\n        /* \"#utility.yul\":12442:12743   */\n      pop\n      pop\n        /* \"#utility.yul\":12810:12860   */\n      tag_516\n        /* \"#utility.yul\":12854:12858   */\n      0xa0\n        /* \"#utility.yul\":12847:12852   */\n      dup5\n        /* \"#utility.yul\":12843:12859   */\n      add\n        /* \"#utility.yul\":12836:12841   */\n      dup5\n        /* \"#utility.yul\":12810:12860   */\n      tag_322\n      jump\t// in\n    tag_516:\n        /* \"#utility.yul\":12873:12936   */\n      tag_517\n        /* \"#utility.yul\":12930:12934   */\n      0xa0\n        /* \"#utility.yul\":12925:12928   */\n      dup7\n        /* \"#utility.yul\":12921:12935   */\n      add\n        /* \"#utility.yul\":12907:12919   */\n      dup3\n        /* \"#utility.yul\":12873:12936   */\n      tag_323\n      jump\t// in\n    tag_517:\n        /* \"#utility.yul\":12753:12946   */\n      pop\n        /* \"#utility.yul\":12963:12967   */\n      dup1\n        /* \"#utility.yul\":12956:12967   */\n      swap2\n      pop\n        /* \"#utility.yul\":11576:12973   */\n      pop\n        /* \"#utility.yul\":11448:12973   */\n      swap3\n      swap2\n      pop\n      pop\n      jump\t// out\n        /* \"#utility.yul\":12979:13360   */\n    tag_97:\n        /* \"#utility.yul\":13126:13130   */\n      0x00\n        /* \"#utility.yul\":13164:13166   */\n      0x20\n        /* \"#utility.yul\":13153:13162   */\n      dup3\n        /* \"#utility.yul\":13149:13167   */\n      add\n        /* \"#utility.yul\":13141:13167   */\n      swap1\n      pop\n        /* \"#utility.yul\":13213:13222   */\n      dup2\n        /* \"#utility.yul\":13207:13211   */\n      dup2\n        /* \"#utility.yul\":13203:13223   */\n      sub\n        /* \"#utility.yul\":13199:13200   */\n      0x00\n        /* \"#utility.yul\":13188:13197   */\n      dup4\n        /* \"#utility.yul\":13184:13201   */\n      add\n        /* \"#utility.yul\":13177:13224   */\n      mstore\n        /* \"#utility.yul\":13241:13353   */\n      tag_519\n        /* \"#utility.yul\":13348:13352   */\n      dup2\n        /* \"#utility.yul\":13339:13345   */\n      dup5\n        /* \"#utility.yul\":13241:13353   */\n      tag_334\n      jump\t// in\n    tag_519:\n        /* \"#utility.yul\":13233:13353   */\n      swap1\n      pop\n        /* \"#utility.yul\":12979:13360   */\n      swap3\n      swap2\n      pop\n      pop\n      jump\t// out\n        /* \"#utility.yul\":13366:13546   */\n    tag_335:\n        /* \"#utility.yul\":13414:13491   */\n      0x4e487b7100000000000000000000000000000000000000000000000000000000\n        /* \"#utility.yul\":13411:13412   */\n      0x00\n        /* \"#utility.yul\":13404:13492   */\n      mstore\n        /* \"#utility.yul\":13511:13515   */\n      0x11\n        /* \"#utility.yul\":13508:13509   */\n      0x04\n        /* \"#utility.yul\":13501:13516   */\n      mstore\n        /* \"#utility.yul\":13535:13539   */\n      0x24\n        /* \"#utility.yul\":13532:13533   */\n      0x00\n        /* \"#utility.yul\":13525:13540   */\n      revert\n        /* \"#utility.yul\":13552:13746   */\n    tag_106:\n        /* \"#utility.yul\":13592:13596   */\n      0x00\n        /* \"#utility.yul\":13612:13632   */\n      tag_522\n        /* \"#utility.yul\":13630:13631   */\n      dup3\n        /* \"#utility.yul\":13612:13632   */\n      tag_302\n      jump\t// in\n    tag_522:\n        /* \"#utility.yul\":13607:13632   */\n      swap2\n      pop\n        /* \"#utility.yul\":13646:13666   */\n      tag_523\n        /* \"#utility.yul\":13664:13665   */\n      dup4\n        /* \"#utility.yul\":13646:13666   */\n      tag_302\n      jump\t// in\n    tag_523:\n        /* \"#utility.yul\":13641:13666   */\n      swap3\n      pop\n        /* \"#utility.yul\":13690:13691   */\n      dup3\n        /* \"#utility.yul\":13687:13688   */\n      dup3\n        /* \"#utility.yul\":13683:13692   */\n      sub\n        /* \"#utility.yul\":13675:13692   */\n      swap1\n      pop\n        /* \"#utility.yul\":13714:13715   */\n      dup2\n        /* \"#utility.yul\":13708:13712   */\n      dup2\n        /* \"#utility.yul\":13705:13716   */\n      gt\n        /* \"#utility.yul\":13702:13739   */\n      iszero\n      tag_524\n      jumpi\n        /* \"#utility.yul\":13719:13737   */\n      tag_525\n      tag_335\n      jump\t// in\n    tag_525:\n        /* \"#utility.yul\":13702:13739   */\n    tag_524:\n        /* \"#utility.yul\":13552:13746   */\n      swap3\n      swap2\n      pop\n      pop\n      jump\t// out\n        /* \"#utility.yul\":13752:13869   */\n    tag_336:\n        /* \"#utility.yul\":13861:13862   */\n      0x00\n        /* \"#utility.yul\":13858:13859   */\n      dup1\n        /* \"#utility.yul\":13851:13863   */\n      revert\n        /* \"#utility.yul\":13875:13992   */\n    tag_337:\n        /* \"#utility.yul\":13984:13985   */\n      0x00\n        /* \"#utility.yul\":13981:13982   */\n      dup1\n        /* \"#utility.yul\":13974:13986   */\n      revert\n        /* \"#utility.yul\":13998:14115   */\n    tag_338:\n        /* \"#utility.yul\":14107:14108   */\n      0x00\n        /* \"#utility.yul\":14104:14105   */\n      dup1\n        /* \"#utility.yul\":14097:14109   */\n      revert\n        /* \"#utility.yul\":14121:14845   */\n    tag_111:\n        /* \"#utility.yul\":14198:14202   */\n      0x00\n        /* \"#utility.yul\":14204:14210   */\n      dup1\n        /* \"#utility.yul\":14260:14271   */\n      dup4\n        /* \"#utility.yul\":14247:14272   */\n      calldataload\n        /* \"#utility.yul\":14360:14361   */\n      0x01\n        /* \"#utility.yul\":14354:14358   */\n      0x20\n        /* \"#utility.yul\":14350:14362   */\n      sub\n        /* \"#utility.yul\":14339:14347   */\n      dup5\n        /* \"#utility.yul\":14323:14337   */\n      calldatasize\n        /* \"#utility.yul\":14319:14348   */\n      sub\n        /* \"#utility.yul\":14315:14363   */\n      sub\n        /* \"#utility.yul\":14295:14313   */\n      dup2\n        /* \"#utility.yul\":14291:14364   */\n      slt\n        /* \"#utility.yul\":14281:14449   */\n      tag_530\n      jumpi\n        /* \"#utility.yul\":14368:14447   */\n      tag_531\n      tag_336\n      jump\t// in\n    tag_531:\n        /* \"#utility.yul\":14281:14449   */\n    tag_530:\n        /* \"#utility.yul\":14480:14498   */\n      dup1\n        /* \"#utility.yul\":14470:14478   */\n      dup5\n        /* \"#utility.yul\":14466:14499   */\n      add\n        /* \"#utility.yul\":14458:14499   */\n      swap3\n      pop\n        /* \"#utility.yul\":14532:14536   */\n      dup3\n        /* \"#utility.yul\":14519:14537   */\n      calldataload\n        /* \"#utility.yul\":14509:14537   */\n      swap2\n      pop\n        /* \"#utility.yul\":14560:14578   */\n      0xffffffffffffffff\n        /* \"#utility.yul\":14552:14558   */\n      dup3\n        /* \"#utility.yul\":14549:14579   */\n      gt\n        /* \"#utility.yul\":14546:14663   */\n      iszero\n      tag_532\n      jumpi\n        /* \"#utility.yul\":14582:14661   */\n      tag_533\n      tag_337\n      jump\t// in\n    tag_533:\n        /* \"#utility.yul\":14546:14663   */\n    tag_532:\n        /* \"#utility.yul\":14690:14692   */\n      0x20\n        /* \"#utility.yul\":14684:14688   */\n      dup4\n        /* \"#utility.yul\":14680:14693   */\n      add\n        /* \"#utility.yul\":14672:14693   */\n      swap3\n      pop\n        /* \"#utility.yul\":14747:14751   */\n      0x01\n        /* \"#utility.yul\":14739:14745   */\n      dup3\n        /* \"#utility.yul\":14735:14752   */\n      mul\n        /* \"#utility.yul\":14719:14733   */\n      calldatasize\n        /* \"#utility.yul\":14715:14753   */\n      sub\n        /* \"#utility.yul\":14709:14713   */\n      dup4\n        /* \"#utility.yul\":14705:14754   */\n      sgt\n        /* \"#utility.yul\":14702:14838   */\n      iszero\n      tag_534\n      jumpi\n        /* \"#utility.yul\":14757:14836   */\n      tag_535\n      tag_338\n      jump\t// in\n    tag_535:\n        /* \"#utility.yul\":14702:14838   */\n    tag_534:\n        /* \"#utility.yul\":14211:14845   */\n      pop\n        /* \"#utility.yul\":14121:14845   */\n      swap3\n      pop\n      swap3\n      swap1\n      pop\n      jump\t// out\n        /* \"#utility.yul\":14851:15026   */\n    tag_339:\n        /* \"#utility.yul\":14991:15018   */\n      0x696e73756666696369656e7420696e70757420616d6f756e7400000000000000\n        /* \"#utility.yul\":14987:14988   */\n      0x00\n        /* \"#utility.yul\":14979:14985   */\n      dup3\n        /* \"#utility.yul\":14975:14989   */\n      add\n        /* \"#utility.yul\":14968:15019   */\n      mstore\n        /* \"#utility.yul\":14851:15026   */\n      pop\n      jump\t// out\n        /* \"#utility.yul\":15032:15398   */\n    tag_340:\n        /* \"#utility.yul\":15174:15177   */\n      0x00\n        /* \"#utility.yul\":15195:15262   */\n      tag_538\n        /* \"#utility.yul\":15259:15261   */\n      0x19\n        /* \"#utility.yul\":15254:15257   */\n      dup4\n        /* \"#utility.yul\":15195:15262   */\n      tag_319\n      jump\t// in\n    tag_538:\n        /* \"#utility.yul\":15188:15262   */\n      swap2\n      pop\n        /* \"#utility.yul\":15271:15364   */\n      tag_539\n        /* \"#utility.yul\":15360:15363   */\n      dup3\n        /* \"#utility.yul\":15271:15364   */\n      tag_339\n      jump\t// in\n    tag_539:\n        /* \"#utility.yul\":15389:15391   */\n      0x20\n        /* \"#utility.yul\":15384:15387   */\n      dup3\n        /* \"#utility.yul\":15380:15392   */\n      add\n        /* \"#utility.yul\":15373:15392   */\n      swap1\n      pop\n        /* \"#utility.yul\":15032:15398   */\n      swap2\n      swap1\n      pop\n      jump\t// out\n        /* \"#utility.yul\":15404:15823   */\n    tag_127:\n        /* \"#utility.yul\":15570:15574   */\n      0x00\n        /* \"#utility.yul\":15608:15610   */\n      0x20\n        /* \"#utility.yul\":15597:15606   */\n      dup3\n        /* \"#utility.yul\":15593:15611   */\n      add\n        /* \"#utility.yul\":15585:15611   */\n      swap1\n      pop\n        /* \"#utility.yul\":15657:15666   */\n      dup2\n        /* \"#utility.yul\":15651:15655   */\n      dup2\n        /* \"#utility.yul\":15647:15667   */\n      sub\n        /* \"#utility.yul\":15643:15644   */\n      0x00\n        /* \"#utility.yul\":15632:15641   */\n      dup4\n        /* \"#utility.yul\":15628:15645   */\n      add\n        /* \"#utility.yul\":15621:15668   */\n      mstore\n        /* \"#utility.yul\":15685:15816   */\n      tag_541\n        /* \"#utility.yul\":15811:15815   */\n      dup2\n        /* \"#utility.yul\":15685:15816   */\n      tag_340\n      jump\t// in\n    tag_541:\n        /* \"#utility.yul\":15677:15816   */\n      swap1\n      pop\n        /* \"#utility.yul\":15404:15823   */\n      swap2\n      swap1\n      pop\n      jump\t// out\n        /* \"#utility.yul\":15829:15941   */\n    tag_341:\n        /* \"#utility.yul\":15912:15934   */\n      tag_543\n        /* \"#utility.yul\":15928:15933   */\n      dup2\n        /* \"#utility.yul\":15912:15934   */\n      tag_313\n      jump\t// in\n    tag_543:\n        /* \"#utility.yul\":15907:15910   */\n      dup3\n        /* \"#utility.yul\":15900:15935   */\n      mstore\n        /* \"#utility.yul\":15829:15941   */\n      pop\n      pop\n      jump\t// out\n        /* \"#utility.yul\":15947:16603   */\n    tag_134:\n        /* \"#utility.yul\":16148:16152   */\n      0x00\n        /* \"#utility.yul\":16186:16189   */\n      0xa0\n        /* \"#utility.yul\":16175:16184   */\n      dup3\n        /* \"#utility.yul\":16171:16190   */\n      add\n        /* \"#utility.yul\":16163:16190   */\n      swap1\n      pop\n        /* \"#utility.yul\":16200:16271   */\n      tag_545\n        /* \"#utility.yul\":16268:16269   */\n      0x00\n        /* \"#utility.yul\":16257:16266   */\n      dup4\n        /* \"#utility.yul\":16253:16270   */\n      add\n        /* \"#utility.yul\":16244:16250   */\n      dup9\n        /* \"#utility.yul\":16200:16271   */\n      tag_312\n      jump\t// in\n    tag_545:\n        /* \"#utility.yul\":16281:16353   */\n      tag_546\n        /* \"#utility.yul\":16349:16351   */\n      0x20\n        /* \"#utility.yul\":16338:16347   */\n      dup4\n        /* \"#utility.yul\":16334:16352   */\n      add\n        /* \"#utility.yul\":16325:16331   */\n      dup8\n        /* \"#utility.yul\":16281:16353   */\n      tag_312\n      jump\t// in\n    tag_546:\n        /* \"#utility.yul\":16363:16435   */\n      tag_547\n        /* \"#utility.yul\":16431:16433   */\n      0x40\n        /* \"#utility.yul\":16420:16429   */\n      dup4\n        /* \"#utility.yul\":16416:16434   */\n      add\n        /* \"#utility.yul\":16407:16413   */\n      dup7\n        /* \"#utility.yul\":16363:16435   */\n      tag_312\n      jump\t// in\n    tag_547:\n        /* \"#utility.yul\":16445:16517   */\n      tag_548\n        /* \"#utility.yul\":16513:16515   */\n      0x60\n        /* \"#utility.yul\":16502:16511   */\n      dup4\n        /* \"#utility.yul\":16498:16516   */\n      add\n        /* \"#utility.yul\":16489:16495   */\n      dup6\n        /* \"#utility.yul\":16445:16517   */\n      tag_305\n      jump\t// in\n    tag_548:\n        /* \"#utility.yul\":16527:16596   */\n      tag_549\n        /* \"#utility.yul\":16591:16594   */\n      0x80\n        /* \"#utility.yul\":16580:16589   */\n      dup4\n        /* \"#utility.yul\":16576:16595   */\n      add\n        /* \"#utility.yul\":16567:16573   */\n      dup5\n        /* \"#utility.yul\":16527:16596   */\n      tag_341\n      jump\t// in\n    tag_549:\n        /* \"#utility.yul\":15947:16603   */\n      swap7\n      swap6\n      pop\n      pop\n      pop\n      pop\n      pop\n      pop\n      jump\t// out\n        /* \"#utility.yul\":16609:16729   */\n    tag_342:\n        /* \"#utility.yul\":16681:16704   */\n      tag_551\n        /* \"#utility.yul\":16698:16703   */\n      dup2\n        /* \"#utility.yul\":16681:16704   */\n      tag_316\n      jump\t// in\n    tag_551:\n        /* \"#utility.yul\":16674:16679   */\n      dup2\n        /* \"#utility.yul\":16671:16705   */\n      eq\n        /* \"#utility.yul\":16661:16723   */\n      tag_552\n      jumpi\n        /* \"#utility.yul\":16719:16720   */\n      0x00\n        /* \"#utility.yul\":16716:16717   */\n      dup1\n        /* \"#utility.yul\":16709:16721   */\n      revert\n        /* \"#utility.yul\":16661:16723   */\n    tag_552:\n        /* \"#utility.yul\":16609:16729   */\n      pop\n      jump\t// out\n        /* \"#utility.yul\":16735:16876   */\n    tag_343:\n        /* \"#utility.yul\":16791:16796   */\n      0x00\n        /* \"#utility.yul\":16822:16828   */\n      dup2\n        /* \"#utility.yul\":16816:16829   */\n      mload\n        /* \"#utility.yul\":16807:16829   */\n      swap1\n      pop\n        /* \"#utility.yul\":16838:16870   */\n      tag_554\n        /* \"#utility.yul\":16864:16869   */\n      dup2\n        /* \"#utility.yul\":16838:16870   */\n      tag_342\n      jump\t// in\n    tag_554:\n        /* \"#utility.yul\":16735:16876   */\n      swap3\n      swap2\n      pop\n      pop\n      jump\t// out\n        /* \"#utility.yul\":16882:17387   */\n    tag_138:\n        /* \"#utility.yul\":16960:16966   */\n      0x00\n        /* \"#utility.yul\":16968:16974   */\n      dup1\n        /* \"#utility.yul\":17017:17019   */\n      0x40\n        /* \"#utility.yul\":17005:17014   */\n      dup4\n        /* \"#utility.yul\":16996:17003   */\n      dup6\n        /* \"#utility.yul\":16992:17015   */\n      sub\n        /* \"#utility.yul\":16988:17020   */\n      slt\n        /* \"#utility.yul\":16985:17104   */\n      iszero\n      tag_556\n      jumpi\n        /* \"#utility.yul\":17023:17102   */\n      tag_557\n      tag_296\n      jump\t// in\n    tag_557:\n        /* \"#utility.yul\":16985:17104   */\n    tag_556:\n        /* \"#utility.yul\":17143:17144   */\n      0x00\n        /* \"#utility.yul\":17168:17232   */\n      tag_558\n        /* \"#utility.yul\":17224:17231   */\n      dup6\n        /* \"#utility.yul\":17215:17221   */\n      dup3\n        /* \"#utility.yul\":17204:17213   */\n      dup7\n        /* \"#utility.yul\":17200:17222   */\n      add\n        /* \"#utility.yul\":17168:17232   */\n      tag_318\n      jump\t// in\n    tag_558:\n        /* \"#utility.yul\":17158:17232   */\n      swap3\n      pop\n        /* \"#utility.yul\":17114:17242   */\n      pop\n        /* \"#utility.yul\":17281:17283   */\n      0x20\n        /* \"#utility.yul\":17307:17370   */\n      tag_559\n        /* \"#utility.yul\":17362:17369   */\n      dup6\n        /* \"#utility.yul\":17353:17359   */\n      dup3\n        /* \"#utility.yul\":17342:17351   */\n      dup7\n        /* \"#utility.yul\":17338:17360   */\n      add\n        /* \"#utility.yul\":17307:17370   */\n      tag_343\n      jump\t// in\n    tag_559:\n        /* \"#utility.yul\":17297:17370   */\n      swap2\n      pop\n        /* \"#utility.yul\":17252:17380   */\n      pop\n        /* \"#utility.yul\":16882:17387   */\n      swap3\n      pop\n      swap3\n      swap1\n      pop\n      jump\t// out\n        /* \"#utility.yul\":17393:17618   */\n    tag_344:\n        /* \"#utility.yul\":17533:17567   */\n      0x4f776e61626c653a206e6577206f776e657220697320746865207a65726f2061\n        /* \"#utility.yul\":17529:17530   */\n      0x00\n        /* \"#utility.yul\":17521:17527   */\n      dup3\n        /* \"#utility.yul\":17517:17531   */\n      add\n        /* \"#utility.yul\":17510:17568   */\n      mstore\n        /* \"#utility.yul\":17602:17610   */\n      0x6464726573730000000000000000000000000000000000000000000000000000\n        /* \"#utility.yul\":17597:17599   */\n      0x20\n        /* \"#utility.yul\":17589:17595   */\n      dup3\n        /* \"#utility.yul\":17585:17600   */\n      add\n        /* \"#utility.yul\":17578:17611   */\n      mstore\n        /* \"#utility.yul\":17393:17618   */\n      pop\n      jump\t// out\n        /* \"#utility.yul\":17624:17990   */\n    tag_345:\n        /* \"#utility.yul\":17766:17769   */\n      0x00\n        /* \"#utility.yul\":17787:17854   */\n      tag_562\n        /* \"#utility.yul\":17851:17853   */\n      0x26\n        /* \"#utility.yul\":17846:17849   */\n      dup4\n        /* \"#utility.yul\":17787:17854   */\n      tag_319\n      jump\t// in\n    tag_562:\n        /* \"#utility.yul\":17780:17854   */\n      swap2\n      pop\n        /* \"#utility.yul\":17863:17956   */\n      tag_563\n        /* \"#utility.yul\":17952:17955   */\n      dup3\n        /* \"#utility.yul\":17863:17956   */\n      tag_344\n      jump\t// in\n    tag_563:\n        /* \"#utility.yul\":17981:17983   */\n      0x40\n        /* \"#utility.yul\":17976:17979   */\n      dup3\n        /* \"#utility.yul\":17972:17984   */\n      add\n        /* \"#utility.yul\":17965:17984   */\n      swap1\n      pop\n        /* \"#utility.yul\":17624:17990   */\n      swap2\n      swap1\n      pop\n      jump\t// out\n        /* \"#utility.yul\":17996:18415   */\n    tag_154:\n        /* \"#utility.yul\":18162:18166   */\n      0x00\n        /* \"#utility.yul\":18200:18202   */\n      0x20\n        /* \"#utility.yul\":18189:18198   */\n      dup3\n        /* \"#utility.yul\":18185:18203   */\n      add\n        /* \"#utility.yul\":18177:18203   */\n      swap1\n      pop\n        /* \"#utility.yul\":18249:18258   */\n      dup2\n        /* \"#utility.yul\":18243:18247   */\n      dup2\n        /* \"#utility.yul\":18239:18259   */\n      sub\n        /* \"#utility.yul\":18235:18236   */\n      0x00\n        /* \"#utility.yul\":18224:18233   */\n      dup4\n        /* \"#utility.yul\":18220:18237   */\n      add\n        /* \"#utility.yul\":18213:18260   */\n      mstore\n        /* \"#utility.yul\":18277:18408   */\n      tag_565\n        /* \"#utility.yul\":18403:18407   */\n      dup2\n        /* \"#utility.yul\":18277:18408   */\n      tag_345\n      jump\t// in\n    tag_565:\n        /* \"#utility.yul\":18269:18408   */\n      swap1\n      pop\n        /* \"#utility.yul\":17996:18415   */\n      swap2\n      swap1\n      pop\n      jump\t// out\n        /* \"#utility.yul\":18421:18603   */\n    tag_346:\n        /* \"#utility.yul\":18561:18595   */\n      0x4f776e61626c653a2063616c6c6572206973206e6f7420746865206f776e6572\n        /* \"#utility.yul\":18557:18558   */\n      0x00\n        /* \"#utility.yul\":18549:18555   */\n      dup3\n        /* \"#utility.yul\":18545:18559   */\n      add\n        /* \"#utility.yul\":18538:18596   */\n      mstore\n        /* \"#utility.yul\":18421:18603   */\n      pop\n      jump\t// out\n        /* \"#utility.yul\":18609:18975   */\n    tag_347:\n        /* \"#utility.yul\":18751:18754   */\n      0x00\n        /* \"#utility.yul\":18772:18839   */\n      tag_568\n        /* \"#utility.yul\":18836:18838   */\n      0x20\n        /* \"#utility.yul\":18831:18834   */\n      dup4\n        /* \"#utility.yul\":18772:18839   */\n      tag_319\n      jump\t// in\n    tag_568:\n        /* \"#utility.yul\":18765:18839   */\n      swap2\n      pop\n        /* \"#utility.yul\":18848:18941   */\n      tag_569\n        /* \"#utility.yul\":18937:18940   */\n      dup3\n        /* \"#utility.yul\":18848:18941   */\n      tag_346\n      jump\t// in\n    tag_569:\n        /* \"#utility.yul\":18966:18968   */\n      0x20\n        /* \"#utility.yul\":18961:18964   */\n      dup3\n        /* \"#utility.yul\":18957:18969   */\n      add\n        /* \"#utility.yul\":18950:18969   */\n      swap1\n      pop\n        /* \"#utility.yul\":18609:18975   */\n      swap2\n      swap1\n      pop\n      jump\t// out\n        /* \"#utility.yul\":18981:19400   */\n    tag_162:\n        /* \"#utility.yul\":19147:19151   */\n      0x00\n        /* \"#utility.yul\":19185:19187   */\n      0x20\n        /* \"#utility.yul\":19174:19183   */\n      dup3\n        /* \"#utility.yul\":19170:19188   */\n      add\n        /* \"#utility.yul\":19162:19188   */\n      swap1\n      pop\n        /* \"#utility.yul\":19234:19243   */\n      dup2\n        /* \"#utility.yul\":19228:19232   */\n      dup2\n        /* \"#utility.yul\":19224:19244   */\n      sub\n        /* \"#utility.yul\":19220:19221   */\n      0x00\n        /* \"#utility.yul\":19209:19218   */\n      dup4\n        /* \"#utility.yul\":19205:19222   */\n      add\n        /* \"#utility.yul\":19198:19245   */\n      mstore\n        /* \"#utility.yul\":19262:19393   */\n      tag_571\n        /* \"#utility.yul\":19388:19392   */\n      dup2\n        /* \"#utility.yul\":19262:19393   */\n      tag_347\n      jump\t// in\n    tag_571:\n        /* \"#utility.yul\":19254:19393   */\n      swap1\n      pop\n        /* \"#utility.yul\":18981:19400   */\n      swap2\n      swap1\n      pop\n      jump\t// out\n        /* \"#utility.yul\":19406:19738   */\n    tag_165:\n        /* \"#utility.yul\":19527:19531   */\n      0x00\n        /* \"#utility.yul\":19565:19567   */\n      0x40\n        /* \"#utility.yul\":19554:19563   */\n      dup3\n        /* \"#utility.yul\":19550:19568   */\n      add\n        /* \"#utility.yul\":19542:19568   */\n      swap1\n      pop\n        /* \"#utility.yul\":19578:19649   */\n      tag_573\n        /* \"#utility.yul\":19646:19647   */\n      0x00\n        /* \"#utility.yul\":19635:19644   */\n      dup4\n        /* \"#utility.yul\":19631:19648   */\n      add\n        /* \"#utility.yul\":19622:19628   */\n      dup6\n        /* \"#utility.yul\":19578:19649   */\n      tag_312\n      jump\t// in\n    tag_573:\n        /* \"#utility.yul\":19659:19731   */\n      tag_574\n        /* \"#utility.yul\":19727:19729   */\n      0x20\n        /* \"#utility.yul\":19716:19725   */\n      dup4\n        /* \"#utility.yul\":19712:19730   */\n      add\n        /* \"#utility.yul\":19703:19709   */\n      dup5\n        /* \"#utility.yul\":19659:19731   */\n      tag_305\n      jump\t// in\n    tag_574:\n        /* \"#utility.yul\":19406:19738   */\n      swap4\n      swap3\n      pop\n      pop\n      pop\n      jump\t// out\n        /* \"#utility.yul\":19744:19842   */\n    tag_348:\n        /* \"#utility.yul\":19795:19801   */\n      0x00\n        /* \"#utility.yul\":19829:19834   */\n      dup2\n        /* \"#utility.yul\":19823:19835   */\n      mload\n        /* \"#utility.yul\":19813:19835   */\n      swap1\n      pop\n        /* \"#utility.yul\":19744:19842   */\n      swap2\n      swap1\n      pop\n      jump\t// out\n        /* \"#utility.yul\":19848:19995   */\n    tag_349:\n        /* \"#utility.yul\":19949:19960   */\n      0x00\n        /* \"#utility.yul\":19986:19989   */\n      dup2\n        /* \"#utility.yul\":19971:19989   */\n      swap1\n      pop\n        /* \"#utility.yul\":19848:19995   */\n      swap3\n      swap2\n      pop\n      pop\n      jump\t// out\n        /* \"#utility.yul\":20001:20247   */\n    tag_350:\n        /* \"#utility.yul\":20082:20083   */\n      0x00\n        /* \"#utility.yul\":20092:20205   */\n    tag_578:\n        /* \"#utility.yul\":20106:20112   */\n      dup4\n        /* \"#utility.yul\":20103:20104   */\n      dup2\n        /* \"#utility.yul\":20100:20113   */\n      lt\n        /* \"#utility.yul\":20092:20205   */\n      iszero\n      tag_580\n      jumpi\n        /* \"#utility.yul\":20191:20192   */\n      dup1\n        /* \"#utility.yul\":20186:20189   */\n      dup3\n        /* \"#utility.yul\":20182:20193   */\n      add\n        /* \"#utility.yul\":20176:20194   */\n      mload\n        /* \"#utility.yul\":20172:20173   */\n      dup2\n        /* \"#utility.yul\":20167:20170   */\n      dup5\n        /* \"#utility.yul\":20163:20174   */\n      add\n        /* \"#utility.yul\":20156:20195   */\n      mstore\n        /* \"#utility.yul\":20128:20130   */\n      0x20\n        /* \"#utility.yul\":20125:20126   */\n      dup2\n        /* \"#utility.yul\":20121:20131   */\n      add\n        /* \"#utility.yul\":20116:20131   */\n      swap1\n      pop\n        /* \"#utility.yul\":20092:20205   */\n      jump(tag_578)\n    tag_580:\n        /* \"#utility.yul\":20239:20240   */\n      0x00\n        /* \"#utility.yul\":20230:20236   */\n      dup5\n        /* \"#utility.yul\":20225:20228   */\n      dup5\n        /* \"#utility.yul\":20221:20237   */\n      add\n        /* \"#utility.yul\":20214:20241   */\n      mstore\n        /* \"#utility.yul\":20063:20247   */\n      pop\n        /* \"#utility.yul\":20001:20247   */\n      pop\n      pop\n      pop\n      jump\t// out\n        /* \"#utility.yul\":20253:20639   */\n    tag_351:\n        /* \"#utility.yul\":20357:20360   */\n      0x00\n        /* \"#utility.yul\":20385:20423   */\n      tag_582\n        /* \"#utility.yul\":20417:20422   */\n      dup3\n        /* \"#utility.yul\":20385:20423   */\n      tag_348\n      jump\t// in\n    tag_582:\n        /* \"#utility.yul\":20439:20527   */\n      tag_583\n        /* \"#utility.yul\":20520:20526   */\n      dup2\n        /* \"#utility.yul\":20515:20518   */\n      dup6\n        /* \"#utility.yul\":20439:20527   */\n      tag_349\n      jump\t// in\n    tag_583:\n        /* \"#utility.yul\":20432:20527   */\n      swap4\n      pop\n        /* \"#utility.yul\":20536:20601   */\n      tag_584\n        /* \"#utility.yul\":20594:20600   */\n      dup2\n        /* \"#utility.yul\":20589:20592   */\n      dup6\n        /* \"#utility.yul\":20582:20586   */\n      0x20\n        /* \"#utility.yul\":20575:20580   */\n      dup7\n        /* \"#utility.yul\":20571:20587   */\n      add\n        /* \"#utility.yul\":20536:20601   */\n      tag_350\n      jump\t// in\n    tag_584:\n        /* \"#utility.yul\":20626:20632   */\n      dup1\n        /* \"#utility.yul\":20621:20624   */\n      dup5\n        /* \"#utility.yul\":20617:20633   */\n      add\n        /* \"#utility.yul\":20610:20633   */\n      swap2\n      pop\n        /* \"#utility.yul\":20361:20639   */\n      pop\n        /* \"#utility.yul\":20253:20639   */\n      swap3\n      swap2\n      pop\n      pop\n      jump\t// out\n        /* \"#utility.yul\":20645:20916   */\n    tag_167:\n        /* \"#utility.yul\":20775:20778   */\n      0x00\n        /* \"#utility.yul\":20797:20890   */\n      tag_586\n        /* \"#utility.yul\":20886:20889   */\n      dup3\n        /* \"#utility.yul\":20877:20883   */\n      dup5\n        /* \"#utility.yul\":20797:20890   */\n      tag_351\n      jump\t// in\n    tag_586:\n        /* \"#utility.yul\":20790:20890   */\n      swap2\n      pop\n        /* \"#utility.yul\":20907:20910   */\n      dup2\n        /* \"#utility.yul\":20900:20910   */\n      swap1\n      pop\n        /* \"#utility.yul\":20645:20916   */\n      swap3\n      swap2\n      pop\n      pop\n      jump\t// out\n        /* \"#utility.yul\":20922:21012   */\n    tag_352:\n        /* \"#utility.yul\":20956:20963   */\n      0x00\n        /* \"#utility.yul\":20999:21004   */\n      dup2\n        /* \"#utility.yul\":20992:21005   */\n      iszero\n        /* \"#utility.yul\":20985:21006   */\n      iszero\n        /* \"#utility.yul\":20974:21006   */\n      swap1\n      pop\n        /* \"#utility.yul\":20922:21012   */\n      swap2\n      swap1\n      pop\n      jump\t// out\n        /* \"#utility.yul\":21018:21134   */\n    tag_353:\n        /* \"#utility.yul\":21088:21109   */\n      tag_589\n        /* \"#utility.yul\":21103:21108   */\n      dup2\n        /* \"#utility.yul\":21088:21109   */\n      tag_352\n      jump\t// in\n    tag_589:\n        /* \"#utility.yul\":21081:21086   */\n      dup2\n        /* \"#utility.yul\":21078:21110   */\n      eq\n        /* \"#utility.yul\":21068:21128   */\n      tag_590\n      jumpi\n        /* \"#utility.yul\":21124:21125   */\n      0x00\n        /* \"#utility.yul\":21121:21122   */\n      dup1\n        /* \"#utility.yul\":21114:21126   */\n      revert\n        /* \"#utility.yul\":21068:21128   */\n    tag_590:\n        /* \"#utility.yul\":21018:21134   */\n      pop\n      jump\t// out\n        /* \"#utility.yul\":21140:21277   */\n    tag_354:\n        /* \"#utility.yul\":21194:21199   */\n      0x00\n        /* \"#utility.yul\":21225:21231   */\n      dup2\n        /* \"#utility.yul\":21219:21232   */\n      mload\n        /* \"#utility.yul\":21210:21232   */\n      swap1\n      pop\n        /* \"#utility.yul\":21241:21271   */\n      tag_592\n        /* \"#utility.yul\":21265:21270   */\n      dup2\n        /* \"#utility.yul\":21241:21271   */\n      tag_353\n      jump\t// in\n    tag_592:\n        /* \"#utility.yul\":21140:21277   */\n      swap3\n      swap2\n      pop\n      pop\n      jump\t// out\n        /* \"#utility.yul\":21283:21628   */\n    tag_174:\n        /* \"#utility.yul\":21350:21356   */\n      0x00\n        /* \"#utility.yul\":21399:21401   */\n      0x20\n        /* \"#utility.yul\":21387:21396   */\n      dup3\n        /* \"#utility.yul\":21378:21385   */\n      dup5\n        /* \"#utility.yul\":21374:21397   */\n      sub\n        /* \"#utility.yul\":21370:21402   */\n      slt\n        /* \"#utility.yul\":21367:21486   */\n      iszero\n      tag_594\n      jumpi\n        /* \"#utility.yul\":21405:21484   */\n      tag_595\n      tag_296\n      jump\t// in\n    tag_595:\n        /* \"#utility.yul\":21367:21486   */\n    tag_594:\n        /* \"#utility.yul\":21525:21526   */\n      0x00\n        /* \"#utility.yul\":21550:21611   */\n      tag_596\n        /* \"#utility.yul\":21603:21610   */\n      dup5\n        /* \"#utility.yul\":21594:21600   */\n      dup3\n        /* \"#utility.yul\":21583:21592   */\n      dup6\n        /* \"#utility.yul\":21579:21601   */\n      add\n        /* \"#utility.yul\":21550:21611   */\n      tag_354\n      jump\t// in\n    tag_596:\n        /* \"#utility.yul\":21540:21611   */\n      swap2\n      pop\n        /* \"#utility.yul\":21496:21621   */\n      pop\n        /* \"#utility.yul\":21283:21628   */\n      swap3\n      swap2\n      pop\n      pop\n      jump\t// out\n        /* \"#utility.yul\":21634:21868   */\n    tag_355:\n        /* \"#utility.yul\":21774:21808   */\n      0x45786368616e676541676772656761746f723a3a5472616e7366657248656c70\n        /* \"#utility.yul\":21770:21771   */\n      0x00\n        /* \"#utility.yul\":21762:21768   */\n      dup3\n        /* \"#utility.yul\":21758:21772   */\n      add\n        /* \"#utility.yul\":21751:21809   */\n      mstore\n        /* \"#utility.yul\":21843:21860   */\n      0x65723a736166655472616e736665720000000000000000000000000000000000\n        /* \"#utility.yul\":21838:21840   */\n      0x20\n        /* \"#utility.yul\":21830:21836   */\n      dup3\n        /* \"#utility.yul\":21826:21841   */\n      add\n        /* \"#utility.yul\":21819:21861   */\n      mstore\n        /* \"#utility.yul\":21634:21868   */\n      pop\n      jump\t// out\n        /* \"#utility.yul\":21874:22240   */\n    tag_356:\n        /* \"#utility.yul\":22016:22019   */\n      0x00\n        /* \"#utility.yul\":22037:22104   */\n      tag_599\n        /* \"#utility.yul\":22101:22103   */\n      0x2f\n        /* \"#utility.yul\":22096:22099   */\n      dup4\n        /* \"#utility.yul\":22037:22104   */\n      tag_319\n      jump\t// in\n    tag_599:\n        /* \"#utility.yul\":22030:22104   */\n      swap2\n      pop\n        /* \"#utility.yul\":22113:22206   */\n      tag_600\n        /* \"#utility.yul\":22202:22205   */\n      dup3\n        /* \"#utility.yul\":22113:22206   */\n      tag_355\n      jump\t// in\n    tag_600:\n        /* \"#utility.yul\":22231:22233   */\n      0x40\n        /* \"#utility.yul\":22226:22229   */\n      dup3\n        /* \"#utility.yul\":22222:22234   */\n      add\n        /* \"#utility.yul\":22215:22234   */\n      swap1\n      pop\n        /* \"#utility.yul\":21874:22240   */\n      swap2\n      swap1\n      pop\n      jump\t// out\n        /* \"#utility.yul\":22246:22665   */\n    tag_177:\n        /* \"#utility.yul\":22412:22416   */\n      0x00\n        /* \"#utility.yul\":22450:22452   */\n      0x20\n        /* \"#utility.yul\":22439:22448   */\n      dup3\n        /* \"#utility.yul\":22435:22453   */\n      add\n        /* \"#utility.yul\":22427:22453   */\n      swap1\n      pop\n        /* \"#utility.yul\":22499:22508   */\n      dup2\n        /* \"#utility.yul\":22493:22497   */\n      dup2\n        /* \"#utility.yul\":22489:22509   */\n      sub\n        /* \"#utility.yul\":22485:22486   */\n      0x00\n        /* \"#utility.yul\":22474:22483   */\n      dup4\n        /* \"#utility.yul\":22470:22487   */\n      add\n        /* \"#utility.yul\":22463:22510   */\n      mstore\n        /* \"#utility.yul\":22527:22658   */\n      tag_602\n        /* \"#utility.yul\":22653:22657   */\n      dup2\n        /* \"#utility.yul\":22527:22658   */\n      tag_356\n      jump\t// in\n    tag_602:\n        /* \"#utility.yul\":22519:22658   */\n      swap1\n      pop\n        /* \"#utility.yul\":22246:22665   */\n      swap2\n      swap1\n      pop\n      jump\t// out\n        /* \"#utility.yul\":22671:22851   */\n    tag_181:\n        /* \"#utility.yul\":22719:22796   */\n      0x4e487b7100000000000000000000000000000000000000000000000000000000\n        /* \"#utility.yul\":22716:22717   */\n      0x00\n        /* \"#utility.yul\":22709:22797   */\n      mstore\n        /* \"#utility.yul\":22816:22820   */\n      0x32\n        /* \"#utility.yul\":22813:22814   */\n      0x04\n        /* \"#utility.yul\":22806:22821   */\n      mstore\n        /* \"#utility.yul\":22840:22844   */\n      0x24\n        /* \"#utility.yul\":22837:22838   */\n      0x00\n        /* \"#utility.yul\":22830:22845   */\n      revert\n        /* \"#utility.yul\":22857:23020   */\n    tag_357:\n        /* \"#utility.yul\":22997:23012   */\n      0x646174612074616d706572656400000000000000000000000000000000000000\n        /* \"#utility.yul\":22993:22994   */\n      0x00\n        /* \"#utility.yul\":22985:22991   */\n      dup3\n        /* \"#utility.yul\":22981:22995   */\n      add\n        /* \"#utility.yul\":22974:23013   */\n      mstore\n        /* \"#utility.yul\":22857:23020   */\n      pop\n      jump\t// out\n        /* \"#utility.yul\":23026:23392   */\n    tag_358:\n        /* \"#utility.yul\":23168:23171   */\n      0x00\n        /* \"#utility.yul\":23189:23256   */\n      tag_606\n        /* \"#utility.yul\":23253:23255   */\n      0x0d\n        /* \"#utility.yul\":23248:23251   */\n      dup4\n        /* \"#utility.yul\":23189:23256   */\n      tag_319\n      jump\t// in\n    tag_606:\n        /* \"#utility.yul\":23182:23256   */\n      swap2\n      pop\n        /* \"#utility.yul\":23265:23358   */\n      tag_607\n        /* \"#utility.yul\":23354:23357   */\n      dup3\n        /* \"#utility.yul\":23265:23358   */\n      tag_357\n      jump\t// in\n    tag_607:\n        /* \"#utility.yul\":23383:23385   */\n      0x20\n        /* \"#utility.yul\":23378:23381   */\n      dup3\n        /* \"#utility.yul\":23374:23386   */\n      add\n        /* \"#utility.yul\":23367:23386   */\n      swap1\n      pop\n        /* \"#utility.yul\":23026:23392   */\n      swap2\n      swap1\n      pop\n      jump\t// out\n        /* \"#utility.yul\":23398:23817   */\n    tag_193:\n        /* \"#utility.yul\":23564:23568   */\n      0x00\n        /* \"#utility.yul\":23602:23604   */\n      0x20\n        /* \"#utility.yul\":23591:23600   */\n      dup3\n        /* \"#utility.yul\":23587:23605   */\n      add\n        /* \"#utility.yul\":23579:23605   */\n      swap1\n      pop\n        /* \"#utility.yul\":23651:23660   */\n      dup2\n        /* \"#utility.yul\":23645:23649   */\n      dup2\n        /* \"#utility.yul\":23641:23661   */\n      sub\n        /* \"#utility.yul\":23637:23638   */\n      0x00\n        /* \"#utility.yul\":23626:23635   */\n      dup4\n        /* \"#utility.yul\":23622:23639   */\n      add\n        /* \"#utility.yul\":23615:23662   */\n      mstore\n        /* \"#utility.yul\":23679:23810   */\n      tag_609\n        /* \"#utility.yul\":23805:23809   */\n      dup2\n        /* \"#utility.yul\":23679:23810   */\n      tag_358\n      jump\t// in\n    tag_609:\n        /* \"#utility.yul\":23671:23810   */\n      swap1\n      pop\n        /* \"#utility.yul\":23398:23817   */\n      swap2\n      swap1\n      pop\n      jump\t// out\n        /* \"#utility.yul\":23823:24265   */\n    tag_196:\n        /* \"#utility.yul\":23972:23976   */\n      0x00\n        /* \"#utility.yul\":24010:24012   */\n      0x60\n        /* \"#utility.yul\":23999:24008   */\n      dup3\n        /* \"#utility.yul\":23995:24013   */\n      add\n        /* \"#utility.yul\":23987:24013   */\n      swap1\n      pop\n        /* \"#utility.yul\":24023:24094   */\n      tag_611\n        /* \"#utility.yul\":24091:24092   */\n      0x00\n        /* \"#utility.yul\":24080:24089   */\n      dup4\n        /* \"#utility.yul\":24076:24093   */\n      add\n        /* \"#utility.yul\":24067:24073   */\n      dup7\n        /* \"#utility.yul\":24023:24094   */\n      tag_312\n      jump\t// in\n    tag_611:\n        /* \"#utility.yul\":24104:24176   */\n      tag_612\n        /* \"#utility.yul\":24172:24174   */\n      0x20\n        /* \"#utility.yul\":24161:24170   */\n      dup4\n        /* \"#utility.yul\":24157:24175   */\n      add\n        /* \"#utility.yul\":24148:24154   */\n      dup6\n        /* \"#utility.yul\":24104:24176   */\n      tag_312\n      jump\t// in\n    tag_612:\n        /* \"#utility.yul\":24186:24258   */\n      tag_613\n        /* \"#utility.yul\":24254:24256   */\n      0x40\n        /* \"#utility.yul\":24243:24252   */\n      dup4\n        /* \"#utility.yul\":24239:24257   */\n      add\n        /* \"#utility.yul\":24230:24236   */\n      dup5\n        /* \"#utility.yul\":24186:24258   */\n      tag_305\n      jump\t// in\n    tag_613:\n        /* \"#utility.yul\":23823:24265   */\n      swap5\n      swap4\n      pop\n      pop\n      pop\n      pop\n      jump\t// out\n        /* \"#utility.yul\":24271:24509   */\n    tag_359:\n        /* \"#utility.yul\":24411:24445   */\n      0x45786368616e676541676772656761746f723a3a5472616e7366657248656c70\n        /* \"#utility.yul\":24407:24408   */\n      0x00\n        /* \"#utility.yul\":24399:24405   */\n      dup3\n        /* \"#utility.yul\":24395:24409   */\n      add\n        /* \"#utility.yul\":24388:24446   */\n      mstore\n        /* \"#utility.yul\":24480:24501   */\n      0x65723a736166655472616e7366657246726f6d00000000000000000000000000\n        /* \"#utility.yul\":24475:24477   */\n      0x20\n        /* \"#utility.yul\":24467:24473   */\n      dup3\n        /* \"#utility.yul\":24463:24478   */\n      add\n        /* \"#utility.yul\":24456:24502   */\n      mstore\n        /* \"#utility.yul\":24271:24509   */\n      pop\n      jump\t// out\n        /* \"#utility.yul\":24515:24881   */\n    tag_360:\n        /* \"#utility.yul\":24657:24660   */\n      0x00\n        /* \"#utility.yul\":24678:24745   */\n      tag_616\n        /* \"#utility.yul\":24742:24744   */\n      0x33\n        /* \"#utility.yul\":24737:24740   */\n      dup4\n        /* \"#utility.yul\":24678:24745   */\n      tag_319\n      jump\t// in\n    tag_616:\n        /* \"#utility.yul\":24671:24745   */\n      swap2\n      pop\n        /* \"#utility.yul\":24754:24847   */\n      tag_617\n        /* \"#utility.yul\":24843:24846   */\n      dup3\n        /* \"#utility.yul\":24754:24847   */\n      tag_359\n      jump\t// in\n    tag_617:\n        /* \"#utility.yul\":24872:24874   */\n      0x40\n        /* \"#utility.yul\":24867:24870   */\n      dup3\n        /* \"#utility.yul\":24863:24875   */\n      add\n        /* \"#utility.yul\":24856:24875   */\n      swap1\n      pop\n        /* \"#utility.yul\":24515:24881   */\n      swap2\n      swap1\n      pop\n      jump\t// out\n        /* \"#utility.yul\":24887:25306   */\n    tag_206:\n        /* \"#utility.yul\":25053:25057   */\n      0x00\n        /* \"#utility.yul\":25091:25093   */\n      0x20\n        /* \"#utility.yul\":25080:25089   */\n      dup3\n        /* \"#utility.yul\":25076:25094   */\n      add\n        /* \"#utility.yul\":25068:25094   */\n      swap1\n      pop\n        /* \"#utility.yul\":25140:25149   */\n      dup2\n        /* \"#utility.yul\":25134:25138   */\n      dup2\n        /* \"#utility.yul\":25130:25150   */\n      sub\n        /* \"#utility.yul\":25126:25127   */\n      0x00\n        /* \"#utility.yul\":25115:25124   */\n      dup4\n        /* \"#utility.yul\":25111:25128   */\n      add\n        /* \"#utility.yul\":25104:25151   */\n      mstore\n        /* \"#utility.yul\":25168:25299   */\n      tag_619\n        /* \"#utility.yul\":25294:25298   */\n      dup2\n        /* \"#utility.yul\":25168:25299   */\n      tag_360\n      jump\t// in\n    tag_619:\n        /* \"#utility.yul\":25160:25299   */\n      swap1\n      pop\n        /* \"#utility.yul\":24887:25306   */\n      swap2\n      swap1\n      pop\n      jump\t// out\n        /* \"#utility.yul\":25312:25545   */\n    tag_361:\n        /* \"#utility.yul\":25452:25486   */\n      0x45786368616e676541676772656761746f723a3a5472616e7366657248656c70\n        /* \"#utility.yul\":25448:25449   */\n      0x00\n        /* \"#utility.yul\":25440:25446   */\n      dup3\n        /* \"#utility.yul\":25436:25450   */\n      add\n        /* \"#utility.yul\":25429:25487   */\n      mstore\n        /* \"#utility.yul\":25521:25537   */\n      0x65723a73616665417070726f7665000000000000000000000000000000000000\n        /* \"#utility.yul\":25516:25518   */\n      0x20\n        /* \"#utility.yul\":25508:25514   */\n      dup3\n        /* \"#utility.yul\":25504:25519   */\n      add\n        /* \"#utility.yul\":25497:25538   */\n      mstore\n        /* \"#utility.yul\":25312:25545   */\n      pop\n      jump\t// out\n        /* \"#utility.yul\":25551:25917   */\n    tag_362:\n        /* \"#utility.yul\":25693:25696   */\n      0x00\n        /* \"#utility.yul\":25714:25781   */\n      tag_622\n        /* \"#utility.yul\":25778:25780   */\n      0x2e\n        /* \"#utility.yul\":25773:25776   */\n      dup4\n        /* \"#utility.yul\":25714:25781   */\n      tag_319\n      jump\t// in\n    tag_622:\n        /* \"#utility.yul\":25707:25781   */\n      swap2\n      pop\n        /* \"#utility.yul\":25790:25883   */\n      tag_623\n        /* \"#utility.yul\":25879:25882   */\n      dup3\n        /* \"#utility.yul\":25790:25883   */\n      tag_361\n      jump\t// in\n    tag_623:\n        /* \"#utility.yul\":25908:25910   */\n      0x40\n        /* \"#utility.yul\":25903:25906   */\n      dup3\n        /* \"#utility.yul\":25899:25911   */\n      add\n        /* \"#utility.yul\":25892:25911   */\n      swap1\n      pop\n        /* \"#utility.yul\":25551:25917   */\n      swap2\n      swap1\n      pop\n      jump\t// out\n        /* \"#utility.yul\":25923:26342   */\n    tag_218:\n        /* \"#utility.yul\":26089:26093   */\n      0x00\n        /* \"#utility.yul\":26127:26129   */\n      0x20\n        /* \"#utility.yul\":26116:26125   */\n      dup3\n        /* \"#utility.yul\":26112:26130   */\n      add\n        /* \"#utility.yul\":26104:26130   */\n      swap1\n      pop\n        /* \"#utility.yul\":26176:26185   */\n      dup2\n        /* \"#utility.yul\":26170:26174   */\n      dup2\n        /* \"#utility.yul\":26166:26186   */\n      sub\n        /* \"#utility.yul\":26162:26163   */\n      0x00\n        /* \"#utility.yul\":26151:26160   */\n      dup4\n        /* \"#utility.yul\":26147:26164   */\n      add\n        /* \"#utility.yul\":26140:26187   */\n      mstore\n        /* \"#utility.yul\":26204:26335   */\n      tag_625\n        /* \"#utility.yul\":26330:26334   */\n      dup2\n        /* \"#utility.yul\":26204:26335   */\n      tag_362\n      jump\t// in\n    tag_625:\n        /* \"#utility.yul\":26196:26335   */\n      swap1\n      pop\n        /* \"#utility.yul\":25923:26342   */\n      swap2\n      swap1\n      pop\n      jump\t// out\n        /* \"#utility.yul\":26348:26574   */\n    tag_363:\n        /* \"#utility.yul\":26488:26522   */\n      0x45786368616e676541676772656761746f723a3a5361666543616c6c65723a73\n        /* \"#utility.yul\":26484:26485   */\n      0x00\n        /* \"#utility.yul\":26476:26482   */\n      dup3\n        /* \"#utility.yul\":26472:26486   */\n      add\n        /* \"#utility.yul\":26465:26523   */\n      mstore\n        /* \"#utility.yul\":26557:26566   */\n      0x61666543616c6c00000000000000000000000000000000000000000000000000\n        /* \"#utility.yul\":26552:26554   */\n      0x20\n        /* \"#utility.yul\":26544:26550   */\n      dup3\n        /* \"#utility.yul\":26540:26555   */\n      add\n        /* \"#utility.yul\":26533:26567   */\n      mstore\n        /* \"#utility.yul\":26348:26574   */\n      pop\n      jump\t// out\n        /* \"#utility.yul\":26580:26946   */\n    tag_364:\n        /* \"#utility.yul\":26722:26725   */\n      0x00\n        /* \"#utility.yul\":26743:26810   */\n      tag_628\n        /* \"#utility.yul\":26807:26809   */\n      0x27\n        /* \"#utility.yul\":26802:26805   */\n      dup4\n        /* \"#utility.yul\":26743:26810   */\n      tag_319\n      jump\t// in\n    tag_628:\n        /* \"#utility.yul\":26736:26810   */\n      swap2\n      pop\n        /* \"#utility.yul\":26819:26912   */\n      tag_629\n        /* \"#utility.yul\":26908:26911   */\n      dup3\n        /* \"#utility.yul\":26819:26912   */\n      tag_363\n      jump\t// in\n    tag_629:\n        /* \"#utility.yul\":26937:26939   */\n      0x40\n        /* \"#utility.yul\":26932:26935   */\n      dup3\n        /* \"#utility.yul\":26928:26940   */\n      add\n        /* \"#utility.yul\":26921:26940   */\n      swap1\n      pop\n        /* \"#utility.yul\":26580:26946   */\n      swap2\n      swap1\n      pop\n      jump\t// out\n        /* \"#utility.yul\":26952:27371   */\n    tag_227:\n        /* \"#utility.yul\":27118:27122   */\n      0x00\n        /* \"#utility.yul\":27156:27158   */\n      0x20\n        /* \"#utility.yul\":27145:27154   */\n      dup3\n        /* \"#utility.yul\":27141:27159   */\n      add\n        /* \"#utility.yul\":27133:27159   */\n      swap1\n      pop\n        /* \"#utility.yul\":27205:27214   */\n      dup2\n        /* \"#utility.yul\":27199:27203   */\n      dup2\n        /* \"#utility.yul\":27195:27215   */\n      sub\n        /* \"#utility.yul\":27191:27192   */\n      0x00\n        /* \"#utility.yul\":27180:27189   */\n      dup4\n        /* \"#utility.yul\":27176:27193   */\n      add\n        /* \"#utility.yul\":27169:27216   */\n      mstore\n        /* \"#utility.yul\":27233:27364   */\n      tag_631\n        /* \"#utility.yul\":27359:27363   */\n      dup2\n        /* \"#utility.yul\":27233:27364   */\n      tag_364\n      jump\t// in\n    tag_631:\n        /* \"#utility.yul\":27225:27364   */\n      swap1\n      pop\n        /* \"#utility.yul\":26952:27371   */\n      swap2\n      swap1\n      pop\n      jump\t// out\n        /* \"#utility.yul\":27377:27494   */\n    tag_365:\n        /* \"#utility.yul\":27486:27487   */\n      0x00\n        /* \"#utility.yul\":27483:27484   */\n      dup1\n        /* \"#utility.yul\":27476:27488   */\n      revert\n        /* \"#utility.yul\":27500:27680   */\n    tag_235:\n        /* \"#utility.yul\":27548:27625   */\n      0x4e487b7100000000000000000000000000000000000000000000000000000000\n        /* \"#utility.yul\":27545:27546   */\n      0x00\n        /* \"#utility.yul\":27538:27626   */\n      mstore\n        /* \"#utility.yul\":27645:27649   */\n      0x41\n        /* \"#utility.yul\":27642:27643   */\n      0x04\n        /* \"#utility.yul\":27635:27650   */\n      mstore\n        /* \"#utility.yul\":27669:27673   */\n      0x24\n        /* \"#utility.yul\":27666:27667   */\n      0x00\n        /* \"#utility.yul\":27659:27674   */\n      revert\n        /* \"#utility.yul\":27686:27967   */\n    tag_366:\n        /* \"#utility.yul\":27769:27796   */\n      tag_635\n        /* \"#utility.yul\":27791:27795   */\n      dup3\n        /* \"#utility.yul\":27769:27796   */\n      tag_332\n      jump\t// in\n    tag_635:\n        /* \"#utility.yul\":27761:27767   */\n      dup2\n        /* \"#utility.yul\":27757:27797   */\n      add\n        /* \"#utility.yul\":27899:27905   */\n      dup2\n        /* \"#utility.yul\":27887:27897   */\n      dup2\n        /* \"#utility.yul\":27884:27906   */\n      lt\n        /* \"#utility.yul\":27863:27881   */\n      0xffffffffffffffff\n        /* \"#utility.yul\":27851:27861   */\n      dup3\n        /* \"#utility.yul\":27848:27882   */\n      gt\n        /* \"#utility.yul\":27845:27907   */\n      or\n        /* \"#utility.yul\":27842:27930   */\n      iszero\n      tag_636\n      jumpi\n        /* \"#utility.yul\":27910:27928   */\n      tag_637\n      tag_235\n      jump\t// in\n    tag_637:\n        /* \"#utility.yul\":27842:27930   */\n    tag_636:\n        /* \"#utility.yul\":27950:27960   */\n      dup1\n        /* \"#utility.yul\":27946:27948   */\n      0x40\n        /* \"#utility.yul\":27939:27961   */\n      mstore\n        /* \"#utility.yul\":27729:27967   */\n      pop\n        /* \"#utility.yul\":27686:27967   */\n      pop\n      pop\n      jump\t// out\n        /* \"#utility.yul\":27973:28102   */\n    tag_367:\n        /* \"#utility.yul\":28007:28013   */\n      0x00\n        /* \"#utility.yul\":28034:28054   */\n      tag_639\n      tag_295\n      jump\t// in\n    tag_639:\n        /* \"#utility.yul\":28024:28054   */\n      swap1\n      pop\n        /* \"#utility.yul\":28063:28096   */\n      tag_640\n        /* \"#utility.yul\":28091:28095   */\n      dup3\n        /* \"#utility.yul\":28083:28089   */\n      dup3\n        /* \"#utility.yul\":28063:28096   */\n      tag_366\n      jump\t// in\n    tag_640:\n        /* \"#utility.yul\":27973:28102   */\n      swap2\n      swap1\n      pop\n      jump\t// out\n        /* \"#utility.yul\":28108:28416   */\n    tag_368:\n        /* \"#utility.yul\":28170:28174   */\n      0x00\n        /* \"#utility.yul\":28260:28278   */\n      0xffffffffffffffff\n        /* \"#utility.yul\":28252:28258   */\n      dup3\n        /* \"#utility.yul\":28249:28279   */\n      gt\n        /* \"#utility.yul\":28246:28302   */\n      iszero\n      tag_642\n      jumpi\n        /* \"#utility.yul\":28282:28300   */\n      tag_643\n      tag_235\n      jump\t// in\n    tag_643:\n        /* \"#utility.yul\":28246:28302   */\n    tag_642:\n        /* \"#utility.yul\":28320:28349   */\n      tag_644\n        /* \"#utility.yul\":28342:28348   */\n      dup3\n        /* \"#utility.yul\":28320:28349   */\n      tag_332\n      jump\t// in\n    tag_644:\n        /* \"#utility.yul\":28312:28349   */\n      swap1\n      pop\n        /* \"#utility.yul\":28404:28408   */\n      0x20\n        /* \"#utility.yul\":28398:28402   */\n      dup2\n        /* \"#utility.yul\":28394:28409   */\n      add\n        /* \"#utility.yul\":28386:28409   */\n      swap1\n      pop\n        /* \"#utility.yul\":28108:28416   */\n      swap2\n      swap1\n      pop\n      jump\t// out\n        /* \"#utility.yul\":28422:28856   */\n    tag_369:\n        /* \"#utility.yul\":28511:28516   */\n      0x00\n        /* \"#utility.yul\":28536:28602   */\n      tag_646\n        /* \"#utility.yul\":28552:28601   */\n      tag_647\n        /* \"#utility.yul\":28594:28600   */\n      dup5\n        /* \"#utility.yul\":28552:28601   */\n      tag_368\n      jump\t// in\n    tag_647:\n        /* \"#utility.yul\":28536:28602   */\n      tag_367\n      jump\t// in\n    tag_646:\n        /* \"#utility.yul\":28527:28602   */\n      swap1\n      pop\n        /* \"#utility.yul\":28625:28631   */\n      dup3\n        /* \"#utility.yul\":28618:28623   */\n      dup2\n        /* \"#utility.yul\":28611:28632   */\n      mstore\n        /* \"#utility.yul\":28663:28667   */\n      0x20\n        /* \"#utility.yul\":28656:28661   */\n      dup2\n        /* \"#utility.yul\":28652:28668   */\n      add\n        /* \"#utility.yul\":28701:28704   */\n      dup5\n        /* \"#utility.yul\":28692:28698   */\n      dup5\n        /* \"#utility.yul\":28687:28690   */\n      dup5\n        /* \"#utility.yul\":28683:28699   */\n      add\n        /* \"#utility.yul\":28680:28705   */\n      gt\n        /* \"#utility.yul\":28677:28789   */\n      iszero\n      tag_648\n      jumpi\n        /* \"#utility.yul\":28708:28787   */\n      tag_649\n      tag_365\n      jump\t// in\n    tag_649:\n        /* \"#utility.yul\":28677:28789   */\n    tag_648:\n        /* \"#utility.yul\":28798:28850   */\n      tag_650\n        /* \"#utility.yul\":28843:28849   */\n      dup5\n        /* \"#utility.yul\":28838:28841   */\n      dup3\n        /* \"#utility.yul\":28833:28836   */\n      dup6\n        /* \"#utility.yul\":28798:28850   */\n      tag_350\n      jump\t// in\n    tag_650:\n        /* \"#utility.yul\":28517:28856   */\n      pop\n        /* \"#utility.yul\":28422:28856   */\n      swap4\n      swap3\n      pop\n      pop\n      pop\n      jump\t// out\n        /* \"#utility.yul\":28876:29231   */\n    tag_370:\n        /* \"#utility.yul\":28943:28948   */\n      0x00\n        /* \"#utility.yul\":28992:28995   */\n      dup3\n        /* \"#utility.yul\":28985:28989   */\n      0x1f\n        /* \"#utility.yul\":28977:28983   */\n      dup4\n        /* \"#utility.yul\":28973:28990   */\n      add\n        /* \"#utility.yul\":28969:28996   */\n      slt\n        /* \"#utility.yul\":28959:29081   */\n      tag_652\n      jumpi\n        /* \"#utility.yul\":29000:29079   */\n      tag_653\n      tag_308\n      jump\t// in\n    tag_653:\n        /* \"#utility.yul\":28959:29081   */\n    tag_652:\n        /* \"#utility.yul\":29110:29116   */\n      dup2\n        /* \"#utility.yul\":29104:29117   */\n      mload\n        /* \"#utility.yul\":29135:29225   */\n      tag_654\n        /* \"#utility.yul\":29221:29224   */\n      dup5\n        /* \"#utility.yul\":29213:29219   */\n      dup3\n        /* \"#utility.yul\":29206:29210   */\n      0x20\n        /* \"#utility.yul\":29198:29204   */\n      dup7\n        /* \"#utility.yul\":29194:29211   */\n      add\n        /* \"#utility.yul\":29135:29225   */\n      tag_369\n      jump\t// in\n    tag_654:\n        /* \"#utility.yul\":29126:29225   */\n      swap2\n      pop\n        /* \"#utility.yul\":28949:29231   */\n      pop\n        /* \"#utility.yul\":28876:29231   */\n      swap3\n      swap2\n      pop\n      pop\n      jump\t// out\n        /* \"#utility.yul\":29237:29761   */\n    tag_229:\n        /* \"#utility.yul\":29317:29323   */\n      0x00\n        /* \"#utility.yul\":29366:29368   */\n      0x20\n        /* \"#utility.yul\":29354:29363   */\n      dup3\n        /* \"#utility.yul\":29345:29352   */\n      dup5\n        /* \"#utility.yul\":29341:29364   */\n      sub\n        /* \"#utility.yul\":29337:29369   */\n      slt\n        /* \"#utility.yul\":29334:29453   */\n      iszero\n      tag_656\n      jumpi\n        /* \"#utility.yul\":29372:29451   */\n      tag_657\n      tag_296\n      jump\t// in\n    tag_657:\n        /* \"#utility.yul\":29334:29453   */\n    tag_656:\n        /* \"#utility.yul\":29513:29514   */\n      0x00\n        /* \"#utility.yul\":29502:29511   */\n      dup3\n        /* \"#utility.yul\":29498:29515   */\n      add\n        /* \"#utility.yul\":29492:29516   */\n      mload\n        /* \"#utility.yul\":29543:29561   */\n      0xffffffffffffffff\n        /* \"#utility.yul\":29535:29541   */\n      dup2\n        /* \"#utility.yul\":29532:29562   */\n      gt\n        /* \"#utility.yul\":29529:29646   */\n      iszero\n      tag_658\n      jumpi\n        /* \"#utility.yul\":29565:29644   */\n      tag_659\n      tag_297\n      jump\t// in\n    tag_659:\n        /* \"#utility.yul\":29529:29646   */\n    tag_658:\n        /* \"#utility.yul\":29670:29744   */\n      tag_660\n        /* \"#utility.yul\":29736:29743   */\n      dup5\n        /* \"#utility.yul\":29727:29733   */\n      dup3\n        /* \"#utility.yul\":29716:29725   */\n      dup6\n        /* \"#utility.yul\":29712:29734   */\n      add\n        /* \"#utility.yul\":29670:29744   */\n      tag_370\n      jump\t// in\n    tag_660:\n        /* \"#utility.yul\":29660:29744   */\n      swap2\n      pop\n        /* \"#utility.yul\":29463:29754   */\n      pop\n        /* \"#utility.yul\":29237:29761   */\n      swap3\n      swap2\n      pop\n      pop\n      jump\t// out\n        /* \"#utility.yul\":29767:29866   */\n    tag_371:\n        /* \"#utility.yul\":29819:29825   */\n      0x00\n        /* \"#utility.yul\":29853:29858   */\n      dup2\n        /* \"#utility.yul\":29847:29859   */\n      mload\n        /* \"#utility.yul\":29837:29859   */\n      swap1\n      pop\n        /* \"#utility.yul\":29767:29866   */\n      swap2\n      swap1\n      pop\n      jump\t// out\n        /* \"#utility.yul\":29872:30249   */\n    tag_372:\n        /* \"#utility.yul\":29960:29963   */\n      0x00\n        /* \"#utility.yul\":29988:30027   */\n      tag_663\n        /* \"#utility.yul\":30021:30026   */\n      dup3\n        /* \"#utility.yul\":29988:30027   */\n      tag_371\n      jump\t// in\n    tag_663:\n        /* \"#utility.yul\":30043:30114   */\n      tag_664\n        /* \"#utility.yul\":30107:30113   */\n      dup2\n        /* \"#utility.yul\":30102:30105   */\n      dup6\n        /* \"#utility.yul\":30043:30114   */\n      tag_319\n      jump\t// in\n    tag_664:\n        /* \"#utility.yul\":30036:30114   */\n      swap4\n      pop\n        /* \"#utility.yul\":30123:30188   */\n      tag_665\n        /* \"#utility.yul\":30181:30187   */\n      dup2\n        /* \"#utility.yul\":30176:30179   */\n      dup6\n        /* \"#utility.yul\":30169:30173   */\n      0x20\n        /* \"#utility.yul\":30162:30167   */\n      dup7\n        /* \"#utility.yul\":30158:30174   */\n      add\n        /* \"#utility.yul\":30123:30188   */\n      tag_350\n      jump\t// in\n    tag_665:\n        /* \"#utility.yul\":30213:30242   */\n      tag_666\n        /* \"#utility.yul\":30235:30241   */\n      dup2\n        /* \"#utility.yul\":30213:30242   */\n      tag_332\n      jump\t// in\n    tag_666:\n        /* \"#utility.yul\":30208:30211   */\n      dup5\n        /* \"#utility.yul\":30204:30243   */\n      add\n        /* \"#utility.yul\":30197:30243   */\n      swap2\n      pop\n        /* \"#utility.yul\":29964:30249   */\n      pop\n        /* \"#utility.yul\":29872:30249   */\n      swap3\n      swap2\n      pop\n      pop\n      jump\t// out\n        /* \"#utility.yul\":30255:30568   */\n    tag_231:\n        /* \"#utility.yul\":30368:30372   */\n      0x00\n        /* \"#utility.yul\":30406:30408   */\n      0x20\n        /* \"#utility.yul\":30395:30404   */\n      dup3\n        /* \"#utility.yul\":30391:30409   */\n      add\n        /* \"#utility.yul\":30383:30409   */\n      swap1\n      pop\n        /* \"#utility.yul\":30455:30464   */\n      dup2\n        /* \"#utility.yul\":30449:30453   */\n      dup2\n        /* \"#utility.yul\":30445:30465   */\n      sub\n        /* \"#utility.yul\":30441:30442   */\n      0x00\n        /* \"#utility.yul\":30430:30439   */\n      dup4\n        /* \"#utility.yul\":30426:30443   */\n      add\n        /* \"#utility.yul\":30419:30466   */\n      mstore\n        /* \"#utility.yul\":30483:30561   */\n      tag_668\n        /* \"#utility.yul\":30556:30560   */\n      dup2\n        /* \"#utility.yul\":30547:30553   */\n      dup5\n        /* \"#utility.yul\":30483:30561   */\n      tag_372\n      jump\t// in\n    tag_668:\n        /* \"#utility.yul\":30475:30561   */\n      swap1\n      pop\n        /* \"#utility.yul\":30255:30568   */\n      swap3\n      swap2\n      pop\n      pop\n      jump\t// out\n        /* \"#utility.yul\":30574:30811   */\n    tag_373:\n        /* \"#utility.yul\":30714:30748   */\n      0x45786368616e676541676772656761746f723a3a5472616e7366657248656c70\n        /* \"#utility.yul\":30710:30711   */\n      0x00\n        /* \"#utility.yul\":30702:30708   */\n      dup3\n        /* \"#utility.yul\":30698:30712   */\n      add\n        /* \"#utility.yul\":30691:30749   */\n      mstore\n        /* \"#utility.yul\":30783:30803   */\n      0x65723a736166655472616e736665724554480000000000000000000000000000\n        /* \"#utility.yul\":30778:30780   */\n      0x20\n        /* \"#utility.yul\":30770:30776   */\n      dup3\n        /* \"#utility.yul\":30766:30781   */\n      add\n        /* \"#utility.yul\":30759:30804   */\n      mstore\n        /* \"#utility.yul\":30574:30811   */\n      pop\n      jump\t// out\n        /* \"#utility.yul\":30817:31183   */\n    tag_374:\n        /* \"#utility.yul\":30959:30962   */\n      0x00\n        /* \"#utility.yul\":30980:31047   */\n      tag_671\n        /* \"#utility.yul\":31044:31046   */\n      0x32\n        /* \"#utility.yul\":31039:31042   */\n      dup4\n        /* \"#utility.yul\":30980:31047   */\n      tag_319\n      jump\t// in\n    tag_671:\n        /* \"#utility.yul\":30973:31047   */\n      swap2\n      pop\n        /* \"#utility.yul\":31056:31149   */\n      tag_672\n        /* \"#utility.yul\":31145:31148   */\n      dup3\n        /* \"#utility.yul\":31056:31149   */\n      tag_373\n      jump\t// in\n    tag_672:\n        /* \"#utility.yul\":31174:31176   */\n      0x40\n        /* \"#utility.yul\":31169:31172   */\n      dup3\n        /* \"#utility.yul\":31165:31177   */\n      add\n        /* \"#utility.yul\":31158:31177   */\n      swap1\n      pop\n        /* \"#utility.yul\":30817:31183   */\n      swap2\n      swap1\n      pop\n      jump\t// out\n        /* \"#utility.yul\":31189:31608   */\n    tag_243:\n        /* \"#utility.yul\":31355:31359   */\n      0x00\n        /* \"#utility.yul\":31393:31395   */\n      0x20\n        /* \"#utility.yul\":31382:31391   */\n      dup3\n        /* \"#utility.yul\":31378:31396   */\n      add\n        /* \"#utility.yul\":31370:31396   */\n      swap1\n      pop\n        /* \"#utility.yul\":31442:31451   */\n      dup2\n        /* \"#utility.yul\":31436:31440   */\n      dup2\n        /* \"#utility.yul\":31432:31452   */\n      sub\n        /* \"#utility.yul\":31428:31429   */\n      0x00\n        /* \"#utility.yul\":31417:31426   */\n      dup4\n        /* \"#utility.yul\":31413:31430   */\n      add\n        /* \"#utility.yul\":31406:31453   */\n      mstore\n        /* \"#utility.yul\":31470:31601   */\n      tag_674\n        /* \"#utility.yul\":31596:31600   */\n      dup2\n        /* \"#utility.yul\":31470:31601   */\n      tag_374\n      jump\t// in\n    tag_674:\n        /* \"#utility.yul\":31462:31601   */\n      swap1\n      pop\n        /* \"#utility.yul\":31189:31608   */\n      swap2\n      swap1\n      pop\n      jump\t// out\n        /* \"#utility.yul\":31614:31794   */\n    tag_260:\n        /* \"#utility.yul\":31662:31739   */\n      0x4e487b7100000000000000000000000000000000000000000000000000000000\n        /* \"#utility.yul\":31659:31660   */\n      0x00\n        /* \"#utility.yul\":31652:31740   */\n      mstore\n        /* \"#utility.yul\":31759:31763   */\n      0x21\n        /* \"#utility.yul\":31756:31757   */\n      0x04\n        /* \"#utility.yul\":31749:31764   */\n      mstore\n        /* \"#utility.yul\":31783:31787   */\n      0x24\n        /* \"#utility.yul\":31780:31781   */\n      0x00\n        /* \"#utility.yul\":31773:31788   */\n      revert\n        /* \"#utility.yul\":31800:31974   */\n    tag_375:\n        /* \"#utility.yul\":31940:31966   */\n      0x45434453413a20696e76616c6964207369676e61747572650000000000000000\n        /* \"#utility.yul\":31936:31937   */\n      0x00\n        /* \"#utility.yul\":31928:31934   */\n      dup3\n        /* \"#utility.yul\":31924:31938   */\n      add\n        /* \"#utility.yul\":31917:31967   */\n      mstore\n        /* \"#utility.yul\":31800:31974   */\n      pop\n      jump\t// out\n        /* \"#utility.yul\":31980:32346   */\n    tag_376:\n        /* \"#utility.yul\":32122:32125   */\n      0x00\n        /* \"#utility.yul\":32143:32210   */\n      tag_678\n        /* \"#utility.yul\":32207:32209   */\n      0x18\n        /* \"#utility.yul\":32202:32205   */\n      dup4\n        /* \"#utility.yul\":32143:32210   */\n      tag_319\n      jump\t// in\n    tag_678:\n        /* \"#utility.yul\":32136:32210   */\n      swap2\n      pop\n        /* \"#utility.yul\":32219:32312   */\n      tag_679\n        /* \"#utility.yul\":32308:32311   */\n      dup3\n        /* \"#utility.yul\":32219:32312   */\n      tag_375\n      jump\t// in\n    tag_679:\n        /* \"#utility.yul\":32337:32339   */\n      0x20\n        /* \"#utility.yul\":32332:32335   */\n      dup3\n        /* \"#utility.yul\":32328:32340   */\n      add\n        /* \"#utility.yul\":32321:32340   */\n      swap1\n      pop\n        /* \"#utility.yul\":31980:32346   */\n      swap2\n      swap1\n      pop\n      jump\t// out\n        /* \"#utility.yul\":32352:32771   */\n    tag_271:\n        /* \"#utility.yul\":32518:32522   */\n      0x00\n        /* \"#utility.yul\":32556:32558   */\n      0x20\n        /* \"#utility.yul\":32545:32554   */\n      dup3\n        /* \"#utility.yul\":32541:32559   */\n      add\n        /* \"#utility.yul\":32533:32559   */\n      swap1\n      pop\n        /* \"#utility.yul\":32605:32614   */\n      dup2\n        /* \"#utility.yul\":32599:32603   */\n      dup2\n        /* \"#utility.yul\":32595:32615   */\n      sub\n        /* \"#utility.yul\":32591:32592   */\n      0x00\n        /* \"#utility.yul\":32580:32589   */\n      dup4\n        /* \"#utility.yul\":32576:32593   */\n      add\n        /* \"#utility.yul\":32569:32616   */\n      mstore\n        /* \"#utility.yul\":32633:32764   */\n      tag_681\n        /* \"#utility.yul\":32759:32763   */\n      dup2\n        /* \"#utility.yul\":32633:32764   */\n      tag_376\n      jump\t// in\n    tag_681:\n        /* \"#utility.yul\":32625:32764   */\n      swap1\n      pop\n        /* \"#utility.yul\":32352:32771   */\n      swap2\n      swap1\n      pop\n      jump\t// out\n        /* \"#utility.yul\":32777:32958   */\n    tag_377:\n        /* \"#utility.yul\":32917:32950   */\n      0x45434453413a20696e76616c6964207369676e6174757265206c656e67746800\n        /* \"#utility.yul\":32913:32914   */\n      0x00\n        /* \"#utility.yul\":32905:32911   */\n      dup3\n        /* \"#utility.yul\":32901:32915   */\n      add\n        /* \"#utility.yul\":32894:32951   */\n      mstore\n        /* \"#utility.yul\":32777:32958   */\n      pop\n      jump\t// out\n        /* \"#utility.yul\":32964:33330   */\n    tag_378:\n        /* \"#utility.yul\":33106:33109   */\n      0x00\n        /* \"#utility.yul\":33127:33194   */\n      tag_684\n        /* \"#utility.yul\":33191:33193   */\n      0x1f\n        /* \"#utility.yul\":33186:33189   */\n      dup4\n        /* \"#utility.yul\":33127:33194   */\n      tag_319\n      jump\t// in\n    tag_684:\n        /* \"#utility.yul\":33120:33194   */\n      swap2\n      pop\n        /* \"#utility.yul\":33203:33296   */\n      tag_685\n        /* \"#utility.yul\":33292:33295   */\n      dup3\n        /* \"#utility.yul\":33203:33296   */\n      tag_377\n      jump\t// in\n    tag_685:\n        /* \"#utility.yul\":33321:33323   */\n      0x20\n        /* \"#utility.yul\":33316:33319   */\n      dup3\n        /* \"#utility.yul\":33312:33324   */\n      add\n        /* \"#utility.yul\":33305:33324   */\n      swap1\n      pop\n        /* \"#utility.yul\":32964:33330   */\n      swap2\n      swap1\n      pop\n      jump\t// out\n        /* \"#utility.yul\":33336:33755   */\n    tag_279:\n        /* \"#utility.yul\":33502:33506   */\n      0x00\n        /* \"#utility.yul\":33540:33542   */\n      0x20\n        /* \"#utility.yul\":33529:33538   */\n      dup3\n        /* \"#utility.yul\":33525:33543   */\n      add\n        /* \"#utility.yul\":33517:33543   */\n      swap1\n      pop\n        /* \"#utility.yul\":33589:33598   */\n      dup2\n        /* \"#utility.yul\":33583:33587   */\n      dup2\n        /* \"#utility.yul\":33579:33599   */\n      sub\n        /* \"#utility.yul\":33575:33576   */\n      0x00\n        /* \"#utility.yul\":33564:33573   */\n      dup4\n        /* \"#utility.yul\":33560:33577   */\n      add\n        /* \"#utility.yul\":33553:33600   */\n      mstore\n        /* \"#utility.yul\":33617:33748   */\n      tag_687\n        /* \"#utility.yul\":33743:33747   */\n      dup2\n        /* \"#utility.yul\":33617:33748   */\n      tag_378\n      jump\t// in\n    tag_687:\n        /* \"#utility.yul\":33609:33748   */\n      swap1\n      pop\n        /* \"#utility.yul\":33336:33755   */\n      swap2\n      swap1\n      pop\n      jump\t// out\n        /* \"#utility.yul\":33761:33982   */\n    tag_379:\n        /* \"#utility.yul\":33901:33935   */\n      0x45434453413a20696e76616c6964207369676e6174757265202773272076616c\n        /* \"#utility.yul\":33897:33898   */\n      0x00\n        /* \"#utility.yul\":33889:33895   */\n      dup3\n        /* \"#utility.yul\":33885:33899   */\n      add\n        /* \"#utility.yul\":33878:33936   */\n      mstore\n        /* \"#utility.yul\":33970:33974   */\n      0x7565000000000000000000000000000000000000000000000000000000000000\n        /* \"#utility.yul\":33965:33967   */\n      0x20\n        /* \"#utility.yul\":33957:33963   */\n      dup3\n        /* \"#utility.yul\":33953:33968   */\n      add\n        /* \"#utility.yul\":33946:33975   */\n      mstore\n        /* \"#utility.yul\":33761:33982   */\n      pop\n      jump\t// out\n        /* \"#utility.yul\":33988:34354   */\n    tag_380:\n        /* \"#utility.yul\":34130:34133   */\n      0x00\n        /* \"#utility.yul\":34151:34218   */\n      tag_690\n        /* \"#utility.yul\":34215:34217   */\n      0x22\n        /* \"#utility.yul\":34210:34213   */\n      dup4\n        /* \"#utility.yul\":34151:34218   */\n      tag_319\n      jump\t// in\n    tag_690:\n        /* \"#utility.yul\":34144:34218   */\n      swap2\n      pop\n        /* \"#utility.yul\":34227:34320   */\n      tag_691\n        /* \"#utility.yul\":34316:34319   */\n      dup3\n        /* \"#utility.yul\":34227:34320   */\n      tag_379\n      jump\t// in\n    tag_691:\n        /* \"#utility.yul\":34345:34347   */\n      0x40\n        /* \"#utility.yul\":34340:34343   */\n      dup3\n        /* \"#utility.yul\":34336:34348   */\n      add\n        /* \"#utility.yul\":34329:34348   */\n      swap1\n      pop\n        /* \"#utility.yul\":33988:34354   */\n      swap2\n      swap1\n      pop\n      jump\t// out\n        /* \"#utility.yul\":34360:34779   */\n    tag_287:\n        /* \"#utility.yul\":34526:34530   */\n      0x00\n        /* \"#utility.yul\":34564:34566   */\n      0x20\n        /* \"#utility.yul\":34553:34562   */\n      dup3\n        /* \"#utility.yul\":34549:34567   */\n      add\n        /* \"#utility.yul\":34541:34567   */\n      swap1\n      pop\n        /* \"#utility.yul\":34613:34622   */\n      dup2\n        /* \"#utility.yul\":34607:34611   */\n      dup2\n        /* \"#utility.yul\":34603:34623   */\n      sub\n        /* \"#utility.yul\":34599:34600   */\n      0x00\n        /* \"#utility.yul\":34588:34597   */\n      dup4\n        /* \"#utility.yul\":34584:34601   */\n      add\n        /* \"#utility.yul\":34577:34624   */\n      mstore\n        /* \"#utility.yul\":34641:34772   */\n      tag_693\n        /* \"#utility.yul\":34767:34771   */\n      dup2\n        /* \"#utility.yul\":34641:34772   */\n      tag_380\n      jump\t// in\n    tag_693:\n        /* \"#utility.yul\":34633:34772   */\n      swap1\n      pop\n        /* \"#utility.yul\":34360:34779   */\n      swap2\n      swap1\n      pop\n      jump\t// out\n        /* \"#utility.yul\":34785:34862   */\n    tag_381:\n        /* \"#utility.yul\":34822:34829   */\n      0x00\n        /* \"#utility.yul\":34851:34856   */\n      dup2\n        /* \"#utility.yul\":34840:34856   */\n      swap1\n      pop\n        /* \"#utility.yul\":34785:34862   */\n      swap2\n      swap1\n      pop\n      jump\t// out\n        /* \"#utility.yul\":34868:34986   */\n    tag_382:\n        /* \"#utility.yul\":34955:34979   */\n      tag_696\n        /* \"#utility.yul\":34973:34978   */\n      dup2\n        /* \"#utility.yul\":34955:34979   */\n      tag_381\n      jump\t// in\n    tag_696:\n        /* \"#utility.yul\":34950:34953   */\n      dup3\n        /* \"#utility.yul\":34943:34980   */\n      mstore\n        /* \"#utility.yul\":34868:34986   */\n      pop\n      pop\n      jump\t// out\n        /* \"#utility.yul\":34992:35537   */\n    tag_291:\n        /* \"#utility.yul\":35165:35169   */\n      0x00\n        /* \"#utility.yul\":35203:35206   */\n      0x80\n        /* \"#utility.yul\":35192:35201   */\n      dup3\n        /* \"#utility.yul\":35188:35207   */\n      add\n        /* \"#utility.yul\":35180:35207   */\n      swap1\n      pop\n        /* \"#utility.yul\":35217:35288   */\n      tag_698\n        /* \"#utility.yul\":35285:35286   */\n      0x00\n        /* \"#utility.yul\":35274:35283   */\n      dup4\n        /* \"#utility.yul\":35270:35287   */\n      add\n        /* \"#utility.yul\":35261:35267   */\n      dup8\n        /* \"#utility.yul\":35217:35288   */\n      tag_382\n      jump\t// in\n    tag_698:\n        /* \"#utility.yul\":35298:35366   */\n      tag_699\n        /* \"#utility.yul\":35362:35364   */\n      0x20\n        /* \"#utility.yul\":35351:35360   */\n      dup4\n        /* \"#utility.yul\":35347:35365   */\n      add\n        /* \"#utility.yul\":35338:35344   */\n      dup7\n        /* \"#utility.yul\":35298:35366   */\n      tag_341\n      jump\t// in\n    tag_699:\n        /* \"#utility.yul\":35376:35448   */\n      tag_700\n        /* \"#utility.yul\":35444:35446   */\n      0x40\n        /* \"#utility.yul\":35433:35442   */\n      dup4\n        /* \"#utility.yul\":35429:35447   */\n      add\n        /* \"#utility.yul\":35420:35426   */\n      dup6\n        /* \"#utility.yul\":35376:35448   */\n      tag_382\n      jump\t// in\n    tag_700:\n        /* \"#utility.yul\":35458:35530   */\n      tag_701\n        /* \"#utility.yul\":35526:35528   */\n      0x60\n        /* \"#utility.yul\":35515:35524   */\n      dup4\n        /* \"#utility.yul\":35511:35529   */\n      add\n        /* \"#utility.yul\":35502:35508   */\n      dup5\n        /* \"#utility.yul\":35458:35530   */\n      tag_382\n      jump\t// in\n    tag_701:\n        /* \"#utility.yul\":34992:35537   */\n      swap6\n      swap5\n      pop\n      pop\n      pop\n      pop\n      pop\n      jump\t// out\n\n    auxdata: 0xa264697066735822122067d9c27a92daf915de3223fd035230105d56efd7cc4bfc234e9b16bbf79b151964736f6c63430008110033\n}\n",
				"bytecode": {
					"linkReferences": {},
					"object": "60806040523480156200001157600080fd5b506040516200293738038062002937833981810160405281019062000037919062000217565b620000576200004b620000e160201b60201c565b620000e960201b60201c565b81600160006101000a81548173ffffffffffffffffffffffffffffffffffffffff021916908373ffffffffffffffffffffffffffffffffffffffff16021790555080600260006101000a81548173ffffffffffffffffffffffffffffffffffffffff021916908373ffffffffffffffffffffffffffffffffffffffff16021790555050506200025e565b600033905090565b60008060009054906101000a900473ffffffffffffffffffffffffffffffffffffffff169050816000806101000a81548173ffffffffffffffffffffffffffffffffffffffff021916908373ffffffffffffffffffffffffffffffffffffffff1602179055508173ffffffffffffffffffffffffffffffffffffffff168173ffffffffffffffffffffffffffffffffffffffff167f8be0079c531659141344cd1fd0a4f28419497f9722a3daafe3b4186f6b6457e060405160405180910390a35050565b600080fd5b600073ffffffffffffffffffffffffffffffffffffffff82169050919050565b6000620001df82620001b2565b9050919050565b620001f181620001d2565b8114620001fd57600080fd5b50565b6000815190506200021181620001e6565b92915050565b60008060408385031215620002315762000230620001ad565b5b6000620002418582860162000200565b9250506020620002548582860162000200565b9150509250929050565b6126c9806200026e6000396000f3fe6080604052600436106100c25760003560e01c80636110358d1161007f578063ad5c464811610059578063ad5c464814610246578063ae4f5be814610271578063ecbdbb321461029a578063f2fde38b146102c5576100c2565b80636110358d146101c6578063715018a6146102045780638da5cb5b1461021b576100c2565b806301e33667146100c757806304599012146100f05780632906799b1461012d5780634782f779146101565780634e1a67f51461017f5780635d86acf1146101aa575b600080fd5b3480156100d357600080fd5b506100ee60048036038101906100e99190611531565b6102ee565b005b3480156100fc57600080fd5b5061011760048036038101906101129190611584565b610306565b60405161012491906115c0565b60405180910390f35b34801561013957600080fd5b50610154600480360381019061014f9190611664565b610389565b005b34801561016257600080fd5b5061017d600480360381019061017891906116e0565b610557565b005b34801561018b57600080fd5b5061019461056d565b6040516101a1919061172f565b60405180910390f35b6101c460048036038101906101bf9190611664565b610593565b005b3480156101d257600080fd5b506101ed60048036038101906101e89190611783565b610758565b6040516101fb92919061181c565b60405180910390f35b34801561021057600080fd5b5061021961080c565b005b34801561022757600080fd5b50610230610820565b60405161023d919061172f565b60405180910390f35b34801561025257600080fd5b5061025b610849565b604051610268919061172f565b60405180910390f35b34801561027d57600080fd5b5061029860048036038101906102939190611584565b61086f565b005b3480156102a657600080fd5b506102af6108bb565b6040516102bc91906115c0565b60405180910390f35b3480156102d157600080fd5b506102ec60048036038101906102e79190611584565b6108c3565b005b6102f6610946565b6103018383836109c4565b505050565b60008173ffffffffffffffffffffffffffffffffffffffff166370a08231306040518263ffffffff1660e01b8152600401610341919061172f565b602060405180830381865afa15801561035e573d6000803e3d6000fd5b505050506040513d601f19601f82011682018060405250810190610382919061185a565b9050919050565b3373ffffffffffffffffffffffffffffffffffffffff168360a00160208101906103b39190611584565b73ffffffffffffffffffffffffffffffffffffffff1614610409576040517f08c379a0000000000000000000000000000000000000000000000000000000008152600401610400906118e4565b60405180910390fd5b61047e610414610820565b846040516020016104259190611adb565b60405160208183030381529060405284848080601f016020809104026020016040519081016040528093929190818152602001838380828437600081840152601f19601f82011690508083019250505050505050610afa565b6104a08360000160208101906104949190611584565b33308660200135610c66565b6104e28360000160208101906104b69190611584565b8460600160208101906104c99190611584565b856040013586602001356104dd9190611b2c565b610d9f565b6105528360600160208101906104f89190611584565b600085806080019061050a9190611b6f565b8080601f016020809104026020016040519081016040528093929190818152602001838380828437600081840152601f19601f82011690508083019250505050505050610ed5565b505050565b61055f610946565b6105698282610fec565b5050565b600260009054906101000a900473ffffffffffffffffffffffffffffffffffffffff1681565b3373ffffffffffffffffffffffffffffffffffffffff168360a00160208101906105bd9190611584565b73ffffffffffffffffffffffffffffffffffffffff1614610613576040517f08c379a000000000000000000000000000000000000000000000000000000000815260040161060a906118e4565b60405180910390fd5b61068861061e610820565b8460405160200161062f9190611adb565b60405160208183030381529060405284848080601f016020809104026020016040519081016040528093929190818152602001838380828437600081840152601f19601f82011690508083019250505050505050610afa565b82602001353410156106cf576040517f08c379a00000000000000000000000000000000000000000000000000000000081526004016106c690611c1e565b60405180910390fd5b60008360400135346106e19190611b2c565b90506107528460600160208101906106f99190611584565b8286806080019061070a9190611b6f565b8080601f016020809104026020016040519081016040528093929190818152602001838380828437600081840152601f19601f82011690508083019250505050505050610ed5565b50505050565b600080600260009054906101000a900473ffffffffffffffffffffffffffffffffffffffff1673ffffffffffffffffffffffffffffffffffffffff16636110358d88888888886040518663ffffffff1660e01b81526004016107be959493929190611c4d565b6040805180830381865afa1580156107da573d6000803e3d6000fd5b505050506040513d601f19601f820116820180604052508101906107fe9190611ccc565b915091509550959350505050565b610814610946565b61081e60006110ec565b565b60008060009054906101000a900473ffffffffffffffffffffffffffffffffffffffff16905090565b600160009054906101000a900473ffffffffffffffffffffffffffffffffffffffff1681565b610877610946565b80600260006101000a81548173ffffffffffffffffffffffffffffffffffffffff021916908373ffffffffffffffffffffffffffffffffffffffff16021790555050565b600047905090565b6108cb610946565b600073ffffffffffffffffffffffffffffffffffffffff168173ffffffffffffffffffffffffffffffffffffffff160361093a576040517f08c379a000000000000000000000000000000000000000000000000000000000815260040161093190611d7e565b60405180910390fd5b610943816110ec565b50565b61094e6111b0565b73ffffffffffffffffffffffffffffffffffffffff1661096c610820565b73ffffffffffffffffffffffffffffffffffffffff16146109c2576040517f08c379a00000000000000000000000000000000000000000000000000000000081526004016109b990611dea565b60405180910390fd5b565b6000808473ffffffffffffffffffffffffffffffffffffffff1663a9059cbb85856040516024016109f6929190611e0a565b6040516020818303038152906040529060e01b6020820180517bffffffffffffffffffffffffffffffffffffffffffffffffffffffff8381831617835250505050604051610a449190611ea4565b6000604051808303816000865af19150503d8060008114610a81576040519150601f19603f3d011682016040523d82523d6000602084013e610a86565b606091505b5091509150818015610ab45750600081511480610ab3575080806020019051810190610ab29190611ef3565b5b5b610af3576040517f08c379a0000000000000000000000000000000000000000000000000000000008152600401610aea90611f92565b60405180910390fd5b5050505050565b601b60f81b81604081518110610b1357610b12611fb2565b5b60200101907effffffffffffffffffffffffffffffffffffffffffffffffffffffffffffff1916908160001a9053508273ffffffffffffffffffffffffffffffffffffffff16610b7482610b66856111b8565b6111c990919063ffffffff16565b73ffffffffffffffffffffffffffffffffffffffff160315610c6157601c60f81b81604081518110610ba957610ba8611fb2565b5b60200101907effffffffffffffffffffffffffffffffffffffffffffffffffffffffffffff1916908160001a9053508273ffffffffffffffffffffffffffffffffffffffff16610c0a82610bfc856111b8565b6111c990919063ffffffff16565b73ffffffffffffffffffffffffffffffffffffffff1614610c60576040517f08c379a0000000000000000000000000000000000000000000000000000000008152600401610c579061202d565b60405180910390fd5b5b505050565b6000808573ffffffffffffffffffffffffffffffffffffffff166323b872dd868686604051602401610c9a9392919061204d565b6040516020818303038152906040529060e01b6020820180517bffffffffffffffffffffffffffffffffffffffffffffffffffffffff8381831617835250505050604051610ce89190611ea4565b6000604051808303816000865af19150503d8060008114610d25576040519150601f19603f3d011682016040523d82523d6000602084013e610d2a565b606091505b5091509150818015610d585750600081511480610d57575080806020019051810190610d569190611ef3565b5b5b610d97576040517f08c379a0000000000000000000000000000000000000000000000000000000008152600401610d8e906120f6565b60405180910390fd5b505050505050565b6000808473ffffffffffffffffffffffffffffffffffffffff1663095ea7b38585604051602401610dd1929190611e0a565b6040516020818303038152906040529060e01b6020820180517bffffffffffffffffffffffffffffffffffffffffffffffffffffffff8381831617835250505050604051610e1f9190611ea4565b6000604051808303816000865af19150503d8060008114610e5c576040519150601f19603f3d011682016040523d82523d6000602084013e610e61565b606091505b5091509150818015610e8f5750600081511480610e8e575080806020019051810190610e8d9190611ef3565b5b5b610ece576040517f08c379a0000000000000000000000000000000000000000000000000000000008152600401610ec590612188565b60405180910390fd5b5050505050565b6000808473ffffffffffffffffffffffffffffffffffffffff168484604051610efe9190611ea4565b60006040518083038185875af1925050503d8060008114610f3b576040519150601f19603f3d011682016040523d82523d6000602084013e610f40565b606091505b509150915081610fe557604481511015610f8f576040517f08c379a0000000000000000000000000000000000000000000000000000000008152600401610f869061221a565b60405180910390fd5b60048101905080806020019051810190610fa9919061235b565b6040517f08c379a0000000000000000000000000000000000000000000000000000000008152600401610fdc91906123e8565b60405180910390fd5b5050505050565b60008273ffffffffffffffffffffffffffffffffffffffff1682600067ffffffffffffffff8111156110215761102061223f565b5b6040519080825280601f01601f1916602001820160405280156110535781602001600182028036833780820191505090505b506040516110619190611ea4565b60006040518083038185875af1925050503d806000811461109e576040519150601f19603f3d011682016040523d82523d6000602084013e6110a3565b606091505b50509050806110e7576040517f08c379a00000000000000000000000000000000000000000000000000000000081526004016110de9061247c565b60405180910390fd5b505050565b60008060009054906101000a900473ffffffffffffffffffffffffffffffffffffffff169050816000806101000a81548173ffffffffffffffffffffffffffffffffffffffff021916908373ffffffffffffffffffffffffffffffffffffffff1602179055508173ffffffffffffffffffffffffffffffffffffffff168173ffffffffffffffffffffffffffffffffffffffff167f8be0079c531659141344cd1fd0a4f28419497f9722a3daafe3b4186f6b6457e060405160405180910390a35050565b600033905090565b600081805190602001209050919050565b60008060006111d885856111f0565b915091506111e581611241565b819250505092915050565b60008060418351036112315760008060006020860151925060408601519150606086015160001a9050611225878285856113a7565b9450945050505061123a565b60006002915091505b9250929050565b600060048111156112555761125461249c565b5b8160048111156112685761126761249c565b5b03156113a457600160048111156112825761128161249c565b5b8160048111156112955761129461249c565b5b036112d5576040517f08c379a00000000000000000000000000000000000000000000000000000000081526004016112cc90612517565b60405180910390fd5b600260048111156112e9576112e861249c565b5b8160048111156112fc576112fb61249c565b5b0361133c576040517f08c379a000000000000000000000000000000000000000000000000000000000815260040161133390612583565b60405180910390fd5b600360048111156113505761134f61249c565b5b8160048111156113635761136261249c565b5b036113a3576040517f08c379a000000000000000000000000000000000000000000000000000000000815260040161139a90612615565b60405180910390fd5b5b50565b6000807f7fffffffffffffffffffffffffffffff5d576e7357a4501ddfe92f46681b20a08360001c11156113e2576000600391509150611480565b600060018787878760405160008152602001604052604051611407949392919061264e565b6020604051602081039080840390855afa158015611429573d6000803e3d6000fd5b505050602060405103519050600073ffffffffffffffffffffffffffffffffffffffff168173ffffffffffffffffffffffffffffffffffffffff160361147757600060019250925050611480565b80600092509250505b94509492505050565b6000604051905090565b600080fd5b600080fd5b600073ffffffffffffffffffffffffffffffffffffffff82169050919050565b60006114c88261149d565b9050919050565b6114d8816114bd565b81146114e357600080fd5b50565b6000813590506114f5816114cf565b92915050565b6000819050919050565b61150e816114fb565b811461151957600080fd5b50565b60008135905061152b81611505565b92915050565b60008060006060848603121561154a57611549611493565b5b6000611558868287016114e6565b9350506020611569868287016114e6565b925050604061157a8682870161151c565b9150509250925092565b60006020828403121561159a57611599611493565b5b60006115a8848285016114e6565b91505092915050565b6115ba816114fb565b82525050565b60006020820190506115d560008301846115b1565b92915050565b600080fd5b600060c082840312156115f6576115f56115db565b5b81905092915050565b600080fd5b600080fd5b600080fd5b60008083601f840112611624576116236115ff565b5b8235905067ffffffffffffffff81111561164157611640611604565b5b60208301915083600182028301111561165d5761165c611609565b5b9250929050565b60008060006040848603121561167d5761167c611493565b5b600084013567ffffffffffffffff81111561169b5761169a611498565b5b6116a7868287016115e0565b935050602084013567ffffffffffffffff8111156116c8576116c7611498565b5b6116d48682870161160e565b92509250509250925092565b600080604083850312156116f7576116f6611493565b5b6000611705858286016114e6565b92505060206117168582860161151c565b9150509250929050565b611729816114bd565b82525050565b60006020820190506117446000830184611720565b92915050565b600060ff82169050919050565b6117608161174a565b811461176b57600080fd5b50565b60008135905061177d81611757565b92915050565b600080600080600060a0868803121561179f5761179e611493565b5b60006117ad888289016114e6565b95505060206117be888289016114e6565b94505060406117cf888289016114e6565b93505060606117e08882890161151c565b92505060806117f18882890161176e565b9150509295509295909350565b600062ffffff82169050919050565b611816816117fe565b82525050565b600060408201905061183160008301856115b1565b61183e602083018461180d565b9392505050565b60008151905061185481611505565b92915050565b6000602082840312156118705761186f611493565b5b600061187e84828501611845565b91505092915050565b600082825260208201905092915050565b7f696e76616c65642073656e646572000000000000000000000000000000000000600082015250565b60006118ce600e83611887565b91506118d982611898565b602082019050919050565b600060208201905081810360008301526118fd816118c1565b9050919050565b600061191360208401846114e6565b905092915050565b611924816114bd565b82525050565b6000611939602084018461151c565b905092915050565b61194a816114fb565b82525050565b600080fd5b600080fd5b600080fd5b6000808335600160200384360303811261197c5761197b61195a565b5b83810192508235915060208301925067ffffffffffffffff8211156119a4576119a3611950565b5b6001820236038313156119ba576119b9611955565b5b509250929050565b600082825260208201905092915050565b82818337600083830152505050565b6000601f19601f8301169050919050565b60006119ff83856119c2565b9350611a0c8385846119d3565b611a15836119e2565b840190509392505050565b600060c08301611a336000840184611904565b611a40600086018261191b565b50611a4e602084018461192a565b611a5b6020860182611941565b50611a69604084018461192a565b611a766040860182611941565b50611a846060840184611904565b611a91606086018261191b565b50611a9f608084018461195f565b8583036080870152611ab28382846119f3565b92505050611ac360a0840184611904565b611ad060a086018261191b565b508091505092915050565b60006020820190508181036000830152611af58184611a20565b905092915050565b7f4e487b7100000000000000000000000000000000000000000000000000000000600052601160045260246000fd5b6000611b37826114fb565b9150611b42836114fb565b9250828203905081811115611b5a57611b59611afd565b5b92915050565b600080fd5b600080fd5b600080fd5b60008083356001602003843603038112611b8c57611b8b611b60565b5b80840192508235915067ffffffffffffffff821115611bae57611bad611b65565b5b602083019250600182023603831315611bca57611bc9611b6a565b5b509250929050565b7f696e73756666696369656e7420696e70757420616d6f756e7400000000000000600082015250565b6000611c08601983611887565b9150611c1382611bd2565b602082019050919050565b60006020820190508181036000830152611c3781611bfb565b9050919050565b611c478161174a565b82525050565b600060a082019050611c626000830188611720565b611c6f6020830187611720565b611c7c6040830186611720565b611c8960608301856115b1565b611c966080830184611c3e565b9695505050505050565b611ca9816117fe565b8114611cb457600080fd5b50565b600081519050611cc681611ca0565b92915050565b60008060408385031215611ce357611ce2611493565b5b6000611cf185828601611845565b9250506020611d0285828601611cb7565b9150509250929050565b7f4f776e61626c653a206e6577206f776e657220697320746865207a65726f206160008201527f6464726573730000000000000000000000000000000000000000000000000000602082015250565b6000611d68602683611887565b9150611d7382611d0c565b604082019050919050565b60006020820190508181036000830152611d9781611d5b565b9050919050565b7f4f776e61626c653a2063616c6c6572206973206e6f7420746865206f776e6572600082015250565b6000611dd4602083611887565b9150611ddf82611d9e565b602082019050919050565b60006020820190508181036000830152611e0381611dc7565b9050919050565b6000604082019050611e1f6000830185611720565b611e2c60208301846115b1565b9392505050565b600081519050919050565b600081905092915050565b60005b83811015611e67578082015181840152602081019050611e4c565b60008484015250505050565b6000611e7e82611e33565b611e888185611e3e565b9350611e98818560208601611e49565b80840191505092915050565b6000611eb08284611e73565b915081905092915050565b60008115159050919050565b611ed081611ebb565b8114611edb57600080fd5b50565b600081519050611eed81611ec7565b92915050565b600060208284031215611f0957611f08611493565b5b6000611f1784828501611ede565b91505092915050565b7f45786368616e676541676772656761746f723a3a5472616e7366657248656c7060008201527f65723a736166655472616e736665720000000000000000000000000000000000602082015250565b6000611f7c602f83611887565b9150611f8782611f20565b604082019050919050565b60006020820190508181036000830152611fab81611f6f565b9050919050565b7f4e487b7100000000000000000000000000000000000000000000000000000000600052603260045260246000fd5b7f646174612074616d706572656400000000000000000000000000000000000000600082015250565b6000612017600d83611887565b915061202282611fe1565b602082019050919050565b600060208201905081810360008301526120468161200a565b9050919050565b60006060820190506120626000830186611720565b61206f6020830185611720565b61207c60408301846115b1565b949350505050565b7f45786368616e676541676772656761746f723a3a5472616e7366657248656c7060008201527f65723a736166655472616e7366657246726f6d00000000000000000000000000602082015250565b60006120e0603383611887565b91506120eb82612084565b604082019050919050565b6000602082019050818103600083015261210f816120d3565b9050919050565b7f45786368616e676541676772656761746f723a3a5472616e7366657248656c7060008201527f65723a73616665417070726f7665000000000000000000000000000000000000602082015250565b6000612172602e83611887565b915061217d82612116565b604082019050919050565b600060208201905081810360008301526121a181612165565b9050919050565b7f45786368616e676541676772656761746f723a3a5361666543616c6c65723a7360008201527f61666543616c6c00000000000000000000000000000000000000000000000000602082015250565b6000612204602783611887565b915061220f826121a8565b604082019050919050565b60006020820190508181036000830152612233816121f7565b9050919050565b600080fd5b7f4e487b7100000000000000000000000000000000000000000000000000000000600052604160045260246000fd5b612277826119e2565b810181811067ffffffffffffffff821117156122965761229561223f565b5b80604052505050565b60006122a9611489565b90506122b5828261226e565b919050565b600067ffffffffffffffff8211156122d5576122d461223f565b5b6122de826119e2565b9050602081019050919050565b60006122fe6122f9846122ba565b61229f565b90508281526020810184848401111561231a5761231961223a565b5b612325848285611e49565b509392505050565b600082601f830112612342576123416115ff565b5b81516123528482602086016122eb565b91505092915050565b60006020828403121561237157612370611493565b5b600082015167ffffffffffffffff81111561238f5761238e611498565b5b61239b8482850161232d565b91505092915050565b600081519050919050565b60006123ba826123a4565b6123c48185611887565b93506123d4818560208601611e49565b6123dd816119e2565b840191505092915050565b6000602082019050818103600083015261240281846123af565b905092915050565b7f45786368616e676541676772656761746f723a3a5472616e7366657248656c7060008201527f65723a736166655472616e736665724554480000000000000000000000000000602082015250565b6000612466603283611887565b91506124718261240a565b604082019050919050565b6000602082019050818103600083015261249581612459565b9050919050565b7f4e487b7100000000000000000000000000000000000000000000000000000000600052602160045260246000fd5b7f45434453413a20696e76616c6964207369676e61747572650000000000000000600082015250565b6000612501601883611887565b915061250c826124cb565b602082019050919050565b60006020820190508181036000830152612530816124f4565b9050919050565b7f45434453413a20696e76616c6964207369676e6174757265206c656e67746800600082015250565b600061256d601f83611887565b915061257882612537565b602082019050919050565b6000602082019050818103600083015261259c81612560565b9050919050565b7f45434453413a20696e76616c6964207369676e6174757265202773272076616c60008201527f7565000000000000000000000000000000000000000000000000000000000000602082015250565b60006125ff602283611887565b915061260a826125a3565b604082019050919050565b6000602082019050818103600083015261262e816125f2565b9050919050565b6000819050919050565b61264881612635565b82525050565b6000608082019050612663600083018761263f565b6126706020830186611c3e565b61267d604083018561263f565b61268a606083018461263f565b9594505050505056fea264697066735822122067d9c27a92daf915de3223fd035230105d56efd7cc4bfc234e9b16bbf79b151964736f6c63430008110033",
					"opcodes": "PUSH1 0x80 PUSH1 0x40 MSTORE CALLVALUE DUP1 ISZERO PUSH3 0x11 JUMPI PUSH1 0x0 DUP1 REVERT JUMPDEST POP PUSH1 0x40 MLOAD PUSH3 0x2937 CODESIZE SUB DUP1 PUSH3 0x2937 DUP4 CODECOPY DUP2 DUP2 ADD PUSH1 0x40 MSTORE DUP2 ADD SWAP1 PUSH3 0x37 SWAP2 SWAP1 PUSH3 0x217 JUMP JUMPDEST PUSH3 0x57 PUSH3 0x4B PUSH3 0xE1 PUSH1 0x20 SHL PUSH1 0x20 SHR JUMP JUMPDEST PUSH3 0xE9 PUSH1 0x20 SHL PUSH1 0x20 SHR JUMP JUMPDEST DUP2 PUSH1 0x1 PUSH1 0x0 PUSH2 0x100 EXP DUP2 SLOAD DUP2 PUSH20 0xFFFFFFFFFFFFFFFFFFFFFFFFFFFFFFFFFFFFFFFF MUL NOT AND SWAP1 DUP4 PUSH20 0xFFFFFFFFFFFFFFFFFFFFFFFFFFFFFFFFFFFFFFFF AND MUL OR SWAP1 SSTORE POP DUP1 PUSH1 0x2 PUSH1 0x0 PUSH2 0x100 EXP DUP2 SLOAD DUP2 PUSH20 0xFFFFFFFFFFFFFFFFFFFFFFFFFFFFFFFFFFFFFFFF MUL NOT AND SWAP1 DUP4 PUSH20 0xFFFFFFFFFFFFFFFFFFFFFFFFFFFFFFFFFFFFFFFF AND MUL OR SWAP1 SSTORE POP POP POP PUSH3 0x25E JUMP JUMPDEST PUSH1 0x0 CALLER SWAP1 POP SWAP1 JUMP JUMPDEST PUSH1 0x0 DUP1 PUSH1 0x0 SWAP1 SLOAD SWAP1 PUSH2 0x100 EXP SWAP1 DIV PUSH20 0xFFFFFFFFFFFFFFFFFFFFFFFFFFFFFFFFFFFFFFFF AND SWAP1 POP DUP2 PUSH1 0x0 DUP1 PUSH2 0x100 EXP DUP2 SLOAD DUP2 PUSH20 0xFFFFFFFFFFFFFFFFFFFFFFFFFFFFFFFFFFFFFFFF MUL NOT AND SWAP1 DUP4 PUSH20 0xFFFFFFFFFFFFFFFFFFFFFFFFFFFFFFFFFFFFFFFF AND MUL OR SWAP1 SSTORE POP DUP2 PUSH20 0xFFFFFFFFFFFFFFFFFFFFFFFFFFFFFFFFFFFFFFFF AND DUP2 PUSH20 0xFFFFFFFFFFFFFFFFFFFFFFFFFFFFFFFFFFFFFFFF AND PUSH32 0x8BE0079C531659141344CD1FD0A4F28419497F9722A3DAAFE3B4186F6B6457E0 PUSH1 0x40 MLOAD PUSH1 0x40 MLOAD DUP1 SWAP2 SUB SWAP1 LOG3 POP POP JUMP JUMPDEST PUSH1 0x0 DUP1 REVERT JUMPDEST PUSH1 0x0 PUSH20 0xFFFFFFFFFFFFFFFFFFFFFFFFFFFFFFFFFFFFFFFF DUP3 AND SWAP1 POP SWAP2 SWAP1 POP JUMP JUMPDEST PUSH1 0x0 PUSH3 0x1DF DUP3 PUSH3 0x1B2 JUMP JUMPDEST SWAP1 POP SWAP2 SWAP1 POP JUMP JUMPDEST PUSH3 0x1F1 DUP2 PUSH3 0x1D2 JUMP JUMPDEST DUP2 EQ PUSH3 0x1FD JUMPI PUSH1 0x0 DUP1 REVERT JUMPDEST POP JUMP JUMPDEST PUSH1 0x0 DUP2 MLOAD SWAP1 POP PUSH3 0x211 DUP2 PUSH3 0x1E6 JUMP JUMPDEST SWAP3 SWAP2 POP POP JUMP JUMPDEST PUSH1 0x0 DUP1 PUSH1 0x40 DUP4 DUP6 SUB SLT ISZERO PUSH3 0x231 JUMPI PUSH3 0x230 PUSH3 0x1AD JUMP JUMPDEST JUMPDEST PUSH1 0x0 PUSH3 0x241 DUP6 DUP3 DUP7 ADD PUSH3 0x200 JUMP JUMPDEST SWAP3 POP POP PUSH1 0x20 PUSH3 0x254 DUP6 DUP3 DUP7 ADD PUSH3 0x200 JUMP JUMPDEST SWAP2 POP POP SWAP3 POP SWAP3 SWAP1 POP JUMP JUMPDEST PUSH2 0x26C9 DUP1 PUSH3 0x26E PUSH1 0x0 CODECOPY PUSH1 0x0 RETURN INVALID PUSH1 0x80 PUSH1 0x40 MSTORE PUSH1 0x4 CALLDATASIZE LT PUSH2 0xC2 JUMPI PUSH1 0x0 CALLDATALOAD PUSH1 0xE0 SHR DUP1 PUSH4 0x6110358D GT PUSH2 0x7F JUMPI DUP1 PUSH4 0xAD5C4648 GT PUSH2 0x59 JUMPI DUP1 PUSH4 0xAD5C4648 EQ PUSH2 0x246 JUMPI DUP1 PUSH4 0xAE4F5BE8 EQ PUSH2 0x271 JUMPI DUP1 PUSH4 0xECBDBB32 EQ PUSH2 0x29A JUMPI DUP1 PUSH4 0xF2FDE38B EQ PUSH2 0x2C5 JUMPI PUSH2 0xC2 JUMP JUMPDEST DUP1 PUSH4 0x6110358D EQ PUSH2 0x1C6 JUMPI DUP1 PUSH4 0x715018A6 EQ PUSH2 0x204 JUMPI DUP1 PUSH4 0x8DA5CB5B EQ PUSH2 0x21B JUMPI PUSH2 0xC2 JUMP JUMPDEST DUP1 PUSH4 0x1E33667 EQ PUSH2 0xC7 JUMPI DUP1 PUSH4 0x4599012 EQ PUSH2 0xF0 JUMPI DUP1 PUSH4 0x2906799B EQ PUSH2 0x12D JUMPI DUP1 PUSH4 0x4782F779 EQ PUSH2 0x156 JUMPI DUP1 PUSH4 0x4E1A67F5 EQ PUSH2 0x17F JUMPI DUP1 PUSH4 0x5D86ACF1 EQ PUSH2 0x1AA JUMPI JUMPDEST PUSH1 0x0 DUP1 REVERT JUMPDEST CALLVALUE DUP1 ISZERO PUSH2 0xD3 JUMPI PUSH1 0x0 DUP1 REVERT JUMPDEST POP PUSH2 0xEE PUSH1 0x4 DUP1 CALLDATASIZE SUB DUP2 ADD SWAP1 PUSH2 0xE9 SWAP2 SWAP1 PUSH2 0x1531 JUMP JUMPDEST PUSH2 0x2EE JUMP JUMPDEST STOP JUMPDEST CALLVALUE DUP1 ISZERO PUSH2 0xFC JUMPI PUSH1 0x0 DUP1 REVERT JUMPDEST POP PUSH2 0x117 PUSH1 0x4 DUP1 CALLDATASIZE SUB DUP2 ADD SWAP1 PUSH2 0x112 SWAP2 SWAP1 PUSH2 0x1584 JUMP JUMPDEST PUSH2 0x306 JUMP JUMPDEST PUSH1 0x40 MLOAD PUSH2 0x124 SWAP2 SWAP1 PUSH2 0x15C0 JUMP JUMPDEST PUSH1 0x40 MLOAD DUP1 SWAP2 SUB SWAP1 RETURN JUMPDEST CALLVALUE DUP1 ISZERO PUSH2 0x139 JUMPI PUSH1 0x0 DUP1 REVERT JUMPDEST POP PUSH2 0x154 PUSH1 0x4 DUP1 CALLDATASIZE SUB DUP2 ADD SWAP1 PUSH2 0x14F SWAP2 SWAP1 PUSH2 0x1664 JUMP JUMPDEST PUSH2 0x389 JUMP JUMPDEST STOP JUMPDEST CALLVALUE DUP1 ISZERO PUSH2 0x162 JUMPI PUSH1 0x0 DUP1 REVERT JUMPDEST POP PUSH2 0x17D PUSH1 0x4 DUP1 CALLDATASIZE SUB DUP2 ADD SWAP1 PUSH2 0x178 SWAP2 SWAP1 PUSH2 0x16E0 JUMP JUMPDEST PUSH2 0x557 JUMP JUMPDEST STOP JUMPDEST CALLVALUE DUP1 ISZERO PUSH2 0x18B JUMPI PUSH1 0x0 DUP1 REVERT JUMPDEST POP PUSH2 0x194 PUSH2 0x56D JUMP JUMPDEST PUSH1 0x40 MLOAD PUSH2 0x1A1 SWAP2 SWAP1 PUSH2 0x172F JUMP JUMPDEST PUSH1 0x40 MLOAD DUP1 SWAP2 SUB SWAP1 RETURN JUMPDEST PUSH2 0x1C4 PUSH1 0x4 DUP1 CALLDATASIZE SUB DUP2 ADD SWAP1 PUSH2 0x1BF SWAP2 SWAP1 PUSH2 0x1664 JUMP JUMPDEST PUSH2 0x593 JUMP JUMPDEST STOP JUMPDEST CALLVALUE DUP1 ISZERO PUSH2 0x1D2 JUMPI PUSH1 0x0 DUP1 REVERT JUMPDEST POP PUSH2 0x1ED PUSH1 0x4 DUP1 CALLDATASIZE SUB DUP2 ADD SWAP1 PUSH2 0x1E8 SWAP2 SWAP1 PUSH2 0x1783 JUMP JUMPDEST PUSH2 0x758 JUMP JUMPDEST PUSH1 0x40 MLOAD PUSH2 0x1FB SWAP3 SWAP2 SWAP1 PUSH2 0x181C JUMP JUMPDEST PUSH1 0x40 MLOAD DUP1 SWAP2 SUB SWAP1 RETURN JUMPDEST CALLVALUE DUP1 ISZERO PUSH2 0x210 JUMPI PUSH1 0x0 DUP1 REVERT JUMPDEST POP PUSH2 0x219 PUSH2 0x80C JUMP JUMPDEST STOP JUMPDEST CALLVALUE DUP1 ISZERO PUSH2 0x227 JUMPI PUSH1 0x0 DUP1 REVERT JUMPDEST POP PUSH2 0x230 PUSH2 0x820 JUMP JUMPDEST PUSH1 0x40 MLOAD PUSH2 0x23D SWAP2 SWAP1 PUSH2 0x172F JUMP JUMPDEST PUSH1 0x40 MLOAD DUP1 SWAP2 SUB SWAP1 RETURN JUMPDEST CALLVALUE DUP1 ISZERO PUSH2 0x252 JUMPI PUSH1 0x0 DUP1 REVERT JUMPDEST POP PUSH2 0x25B PUSH2 0x849 JUMP JUMPDEST PUSH1 0x40 MLOAD PUSH2 0x268 SWAP2 SWAP1 PUSH2 0x172F JUMP JUMPDEST PUSH1 0x40 MLOAD DUP1 SWAP2 SUB SWAP1 RETURN JUMPDEST CALLVALUE DUP1 ISZERO PUSH2 0x27D JUMPI PUSH1 0x0 DUP1 REVERT JUMPDEST POP PUSH2 0x298 PUSH1 0x4 DUP1 CALLDATASIZE SUB DUP2 ADD SWAP1 PUSH2 0x293 SWAP2 SWAP1 PUSH2 0x1584 JUMP JUMPDEST PUSH2 0x86F JUMP JUMPDEST STOP JUMPDEST CALLVALUE DUP1 ISZERO PUSH2 0x2A6 JUMPI PUSH1 0x0 DUP1 REVERT JUMPDEST POP PUSH2 0x2AF PUSH2 0x8BB JUMP JUMPDEST PUSH1 0x40 MLOAD PUSH2 0x2BC SWAP2 SWAP1 PUSH2 0x15C0 JUMP JUMPDEST PUSH1 0x40 MLOAD DUP1 SWAP2 SUB SWAP1 RETURN JUMPDEST CALLVALUE DUP1 ISZERO PUSH2 0x2D1 JUMPI PUSH1 0x0 DUP1 REVERT JUMPDEST POP PUSH2 0x2EC PUSH1 0x4 DUP1 CALLDATASIZE SUB DUP2 ADD SWAP1 PUSH2 0x2E7 SWAP2 SWAP1 PUSH2 0x1584 JUMP JUMPDEST PUSH2 0x8C3 JUMP JUMPDEST STOP JUMPDEST PUSH2 0x2F6 PUSH2 0x946 JUMP JUMPDEST PUSH2 0x301 DUP4 DUP4 DUP4 PUSH2 0x9C4 JUMP JUMPDEST POP POP POP JUMP JUMPDEST PUSH1 0x0 DUP2 PUSH20 0xFFFFFFFFFFFFFFFFFFFFFFFFFFFFFFFFFFFFFFFF AND PUSH4 0x70A08231 ADDRESS PUSH1 0x40 MLOAD DUP3 PUSH4 0xFFFFFFFF AND PUSH1 0xE0 SHL DUP2 MSTORE PUSH1 0x4 ADD PUSH2 0x341 SWAP2 SWAP1 PUSH2 0x172F JUMP JUMPDEST PUSH1 0x20 PUSH1 0x40 MLOAD DUP1 DUP4 SUB DUP2 DUP7 GAS STATICCALL ISZERO DUP1 ISZERO PUSH2 0x35E JUMPI RETURNDATASIZE PUSH1 0x0 DUP1 RETURNDATACOPY RETURNDATASIZE PUSH1 0x0 REVERT JUMPDEST POP POP POP POP PUSH1 0x40 MLOAD RETURNDATASIZE PUSH1 0x1F NOT PUSH1 0x1F DUP3 ADD AND DUP3 ADD DUP1 PUSH1 0x40 MSTORE POP DUP2 ADD SWAP1 PUSH2 0x382 SWAP2 SWAP1 PUSH2 0x185A JUMP JUMPDEST SWAP1 POP SWAP2 SWAP1 POP JUMP JUMPDEST CALLER PUSH20 0xFFFFFFFFFFFFFFFFFFFFFFFFFFFFFFFFFFFFFFFF AND DUP4 PUSH1 0xA0 ADD PUSH1 0x20 DUP2 ADD SWAP1 PUSH2 0x3B3 SWAP2 SWAP1 PUSH2 0x1584 JUMP JUMPDEST PUSH20 0xFFFFFFFFFFFFFFFFFFFFFFFFFFFFFFFFFFFFFFFF AND EQ PUSH2 0x409 JUMPI PUSH1 0x40 MLOAD PUSH32 0x8C379A000000000000000000000000000000000000000000000000000000000 DUP2 MSTORE PUSH1 0x4 ADD PUSH2 0x400 SWAP1 PUSH2 0x18E4 JUMP JUMPDEST PUSH1 0x40 MLOAD DUP1 SWAP2 SUB SWAP1 REVERT JUMPDEST PUSH2 0x47E PUSH2 0x414 PUSH2 0x820 JUMP JUMPDEST DUP5 PUSH1 0x40 MLOAD PUSH1 0x20 ADD PUSH2 0x425 SWAP2 SWAP1 PUSH2 0x1ADB JUMP JUMPDEST PUSH1 0x40 MLOAD PUSH1 0x20 DUP2 DUP4 SUB SUB DUP2 MSTORE SWAP1 PUSH1 0x40 MSTORE DUP5 DUP5 DUP1 DUP1 PUSH1 0x1F ADD PUSH1 0x20 DUP1 SWAP2 DIV MUL PUSH1 0x20 ADD PUSH1 0x40 MLOAD SWAP1 DUP2 ADD PUSH1 0x40 MSTORE DUP1 SWAP4 SWAP3 SWAP2 SWAP1 DUP2 DUP2 MSTORE PUSH1 0x20 ADD DUP4 DUP4 DUP1 DUP3 DUP5 CALLDATACOPY PUSH1 0x0 DUP2 DUP5 ADD MSTORE PUSH1 0x1F NOT PUSH1 0x1F DUP3 ADD AND SWAP1 POP DUP1 DUP4 ADD SWAP3 POP POP POP POP POP POP POP PUSH2 0xAFA JUMP JUMPDEST PUSH2 0x4A0 DUP4 PUSH1 0x0 ADD PUSH1 0x20 DUP2 ADD SWAP1 PUSH2 0x494 SWAP2 SWAP1 PUSH2 0x1584 JUMP JUMPDEST CALLER ADDRESS DUP7 PUSH1 0x20 ADD CALLDATALOAD PUSH2 0xC66 JUMP JUMPDEST PUSH2 0x4E2 DUP4 PUSH1 0x0 ADD PUSH1 0x20 DUP2 ADD SWAP1 PUSH2 0x4B6 SWAP2 SWAP1 PUSH2 0x1584 JUMP JUMPDEST DUP5 PUSH1 0x60 ADD PUSH1 0x20 DUP2 ADD SWAP1 PUSH2 0x4C9 SWAP2 SWAP1 PUSH2 0x1584 JUMP JUMPDEST DUP6 PUSH1 0x40 ADD CALLDATALOAD DUP7 PUSH1 0x20 ADD CALLDATALOAD PUSH2 0x4DD SWAP2 SWAP1 PUSH2 0x1B2C JUMP JUMPDEST PUSH2 0xD9F JUMP JUMPDEST PUSH2 0x552 DUP4 PUSH1 0x60 ADD PUSH1 0x20 DUP2 ADD SWAP1 PUSH2 0x4F8 SWAP2 SWAP1 PUSH2 0x1584 JUMP JUMPDEST PUSH1 0x0 DUP6 DUP1 PUSH1 0x80 ADD SWAP1 PUSH2 0x50A SWAP2 SWAP1 PUSH2 0x1B6F JUMP JUMPDEST DUP1 DUP1 PUSH1 0x1F ADD PUSH1 0x20 DUP1 SWAP2 DIV MUL PUSH1 0x20 ADD PUSH1 0x40 MLOAD SWAP1 DUP2 ADD PUSH1 0x40 MSTORE DUP1 SWAP4 SWAP3 SWAP2 SWAP1 DUP2 DUP2 MSTORE PUSH1 0x20 ADD DUP4 DUP4 DUP1 DUP3 DUP5 CALLDATACOPY PUSH1 0x0 DUP2 DUP5 ADD MSTORE PUSH1 0x1F NOT PUSH1 0x1F DUP3 ADD AND SWAP1 POP DUP1 DUP4 ADD SWAP3 POP POP POP POP POP POP POP PUSH2 0xED5 JUMP JUMPDEST POP POP POP JUMP JUMPDEST PUSH2 0x55F PUSH2 0x946 JUMP JUMPDEST PUSH2 0x569 DUP3 DUP3 PUSH2 0xFEC JUMP JUMPDEST POP POP JUMP JUMPDEST PUSH1 0x2 PUSH1 0x0 SWAP1 SLOAD SWAP1 PUSH2 0x100 EXP SWAP1 DIV PUSH20 0xFFFFFFFFFFFFFFFFFFFFFFFFFFFFFFFFFFFFFFFF AND DUP2 JUMP JUMPDEST CALLER PUSH20 0xFFFFFFFFFFFFFFFFFFFFFFFFFFFFFFFFFFFFFFFF AND DUP4 PUSH1 0xA0 ADD PUSH1 0x20 DUP2 ADD SWAP1 PUSH2 0x5BD SWAP2 SWAP1 PUSH2 0x1584 JUMP JUMPDEST PUSH20 0xFFFFFFFFFFFFFFFFFFFFFFFFFFFFFFFFFFFFFFFF AND EQ PUSH2 0x613 JUMPI PUSH1 0x40 MLOAD PUSH32 0x8C379A000000000000000000000000000000000000000000000000000000000 DUP2 MSTORE PUSH1 0x4 ADD PUSH2 0x60A SWAP1 PUSH2 0x18E4 JUMP JUMPDEST PUSH1 0x40 MLOAD DUP1 SWAP2 SUB SWAP1 REVERT JUMPDEST PUSH2 0x688 PUSH2 0x61E PUSH2 0x820 JUMP JUMPDEST DUP5 PUSH1 0x40 MLOAD PUSH1 0x20 ADD PUSH2 0x62F SWAP2 SWAP1 PUSH2 0x1ADB JUMP JUMPDEST PUSH1 0x40 MLOAD PUSH1 0x20 DUP2 DUP4 SUB SUB DUP2 MSTORE SWAP1 PUSH1 0x40 MSTORE DUP5 DUP5 DUP1 DUP1 PUSH1 0x1F ADD PUSH1 0x20 DUP1 SWAP2 DIV MUL PUSH1 0x20 ADD PUSH1 0x40 MLOAD SWAP1 DUP2 ADD PUSH1 0x40 MSTORE DUP1 SWAP4 SWAP3 SWAP2 SWAP1 DUP2 DUP2 MSTORE PUSH1 0x20 ADD DUP4 DUP4 DUP1 DUP3 DUP5 CALLDATACOPY PUSH1 0x0 DUP2 DUP5 ADD MSTORE PUSH1 0x1F NOT PUSH1 0x1F DUP3 ADD AND SWAP1 POP DUP1 DUP4 ADD SWAP3 POP POP POP POP POP POP POP PUSH2 0xAFA JUMP JUMPDEST DUP3 PUSH1 0x20 ADD CALLDATALOAD CALLVALUE LT ISZERO PUSH2 0x6CF JUMPI PUSH1 0x40 MLOAD PUSH32 0x8C379A000000000000000000000000000000000000000000000000000000000 DUP2 MSTORE PUSH1 0x4 ADD PUSH2 0x6C6 SWAP1 PUSH2 0x1C1E JUMP JUMPDEST PUSH1 0x40 MLOAD DUP1 SWAP2 SUB SWAP1 REVERT JUMPDEST PUSH1 0x0 DUP4 PUSH1 0x40 ADD CALLDATALOAD CALLVALUE PUSH2 0x6E1 SWAP2 SWAP1 PUSH2 0x1B2C JUMP JUMPDEST SWAP1 POP PUSH2 0x752 DUP5 PUSH1 0x60 ADD PUSH1 0x20 DUP2 ADD SWAP1 PUSH2 0x6F9 SWAP2 SWAP1 PUSH2 0x1584 JUMP JUMPDEST DUP3 DUP7 DUP1 PUSH1 0x80 ADD SWAP1 PUSH2 0x70A SWAP2 SWAP1 PUSH2 0x1B6F JUMP JUMPDEST DUP1 DUP1 PUSH1 0x1F ADD PUSH1 0x20 DUP1 SWAP2 DIV MUL PUSH1 0x20 ADD PUSH1 0x40 MLOAD SWAP1 DUP2 ADD PUSH1 0x40 MSTORE DUP1 SWAP4 SWAP3 SWAP2 SWAP1 DUP2 DUP2 MSTORE PUSH1 0x20 ADD DUP4 DUP4 DUP1 DUP3 DUP5 CALLDATACOPY PUSH1 0x0 DUP2 DUP5 ADD MSTORE PUSH1 0x1F NOT PUSH1 0x1F DUP3 ADD AND SWAP1 POP DUP1 DUP4 ADD SWAP3 POP POP POP POP POP POP POP PUSH2 0xED5 JUMP JUMPDEST POP POP POP POP JUMP JUMPDEST PUSH1 0x0 DUP1 PUSH1 0x2 PUSH1 0x0 SWAP1 SLOAD SWAP1 PUSH2 0x100 EXP SWAP1 DIV PUSH20 0xFFFFFFFFFFFFFFFFFFFFFFFFFFFFFFFFFFFFFFFF AND PUSH20 0xFFFFFFFFFFFFFFFFFFFFFFFFFFFFFFFFFFFFFFFF AND PUSH4 0x6110358D DUP9 DUP9 DUP9 DUP9 DUP9 PUSH1 0x40 MLOAD DUP7 PUSH4 0xFFFFFFFF AND PUSH1 0xE0 SHL DUP2 MSTORE PUSH1 0x4 ADD PUSH2 0x7BE SWAP6 SWAP5 SWAP4 SWAP3 SWAP2 SWAP1 PUSH2 0x1C4D JUMP JUMPDEST PUSH1 0x40 DUP1 MLOAD DUP1 DUP4 SUB DUP2 DUP7 GAS STATICCALL ISZERO DUP1 ISZERO PUSH2 0x7DA JUMPI RETURNDATASIZE PUSH1 0x0 DUP1 RETURNDATACOPY RETURNDATASIZE PUSH1 0x0 REVERT JUMPDEST POP POP POP POP PUSH1 0x40 MLOAD RETURNDATASIZE PUSH1 0x1F NOT PUSH1 0x1F DUP3 ADD AND DUP3 ADD DUP1 PUSH1 0x40 MSTORE POP DUP2 ADD SWAP1 PUSH2 0x7FE SWAP2 SWAP1 PUSH2 0x1CCC JUMP JUMPDEST SWAP2 POP SWAP2 POP SWAP6 POP SWAP6 SWAP4 POP POP POP POP JUMP JUMPDEST PUSH2 0x814 PUSH2 0x946 JUMP JUMPDEST PUSH2 0x81E PUSH1 0x0 PUSH2 0x10EC JUMP JUMPDEST JUMP JUMPDEST PUSH1 0x0 DUP1 PUSH1 0x0 SWAP1 SLOAD SWAP1 PUSH2 0x100 EXP SWAP1 DIV PUSH20 0xFFFFFFFFFFFFFFFFFFFFFFFFFFFFFFFFFFFFFFFF AND SWAP1 POP SWAP1 JUMP JUMPDEST PUSH1 0x1 PUSH1 0x0 SWAP1 SLOAD SWAP1 PUSH2 0x100 EXP SWAP1 DIV PUSH20 0xFFFFFFFFFFFFFFFFFFFFFFFFFFFFFFFFFFFFFFFF AND DUP2 JUMP JUMPDEST PUSH2 0x877 PUSH2 0x946 JUMP JUMPDEST DUP1 PUSH1 0x2 PUSH1 0x0 PUSH2 0x100 EXP DUP2 SLOAD DUP2 PUSH20 0xFFFFFFFFFFFFFFFFFFFFFFFFFFFFFFFFFFFFFFFF MUL NOT AND SWAP1 DUP4 PUSH20 0xFFFFFFFFFFFFFFFFFFFFFFFFFFFFFFFFFFFFFFFF AND MUL OR SWAP1 SSTORE POP POP JUMP JUMPDEST PUSH1 0x0 SELFBALANCE SWAP1 POP SWAP1 JUMP JUMPDEST PUSH2 0x8CB PUSH2 0x946 JUMP JUMPDEST PUSH1 0x0 PUSH20 0xFFFFFFFFFFFFFFFFFFFFFFFFFFFFFFFFFFFFFFFF AND DUP2 PUSH20 0xFFFFFFFFFFFFFFFFFFFFFFFFFFFFFFFFFFFFFFFF AND SUB PUSH2 0x93A JUMPI PUSH1 0x40 MLOAD PUSH32 0x8C379A000000000000000000000000000000000000000000000000000000000 DUP2 MSTORE PUSH1 0x4 ADD PUSH2 0x931 SWAP1 PUSH2 0x1D7E JUMP JUMPDEST PUSH1 0x40 MLOAD DUP1 SWAP2 SUB SWAP1 REVERT JUMPDEST PUSH2 0x943 DUP2 PUSH2 0x10EC JUMP JUMPDEST POP JUMP JUMPDEST PUSH2 0x94E PUSH2 0x11B0 JUMP JUMPDEST PUSH20 0xFFFFFFFFFFFFFFFFFFFFFFFFFFFFFFFFFFFFFFFF AND PUSH2 0x96C PUSH2 0x820 JUMP JUMPDEST PUSH20 0xFFFFFFFFFFFFFFFFFFFFFFFFFFFFFFFFFFFFFFFF AND EQ PUSH2 0x9C2 JUMPI PUSH1 0x40 MLOAD PUSH32 0x8C379A000000000000000000000000000000000000000000000000000000000 DUP2 MSTORE PUSH1 0x4 ADD PUSH2 0x9B9 SWAP1 PUSH2 0x1DEA JUMP JUMPDEST PUSH1 0x40 MLOAD DUP1 SWAP2 SUB SWAP1 REVERT JUMPDEST JUMP JUMPDEST PUSH1 0x0 DUP1 DUP5 PUSH20 0xFFFFFFFFFFFFFFFFFFFFFFFFFFFFFFFFFFFFFFFF AND PUSH4 0xA9059CBB DUP6 DUP6 PUSH1 0x40 MLOAD PUSH1 0x24 ADD PUSH2 0x9F6 SWAP3 SWAP2 SWAP1 PUSH2 0x1E0A JUMP JUMPDEST PUSH1 0x40 MLOAD PUSH1 0x20 DUP2 DUP4 SUB SUB DUP2 MSTORE SWAP1 PUSH1 0x40 MSTORE SWAP1 PUSH1 0xE0 SHL PUSH1 0x20 DUP3 ADD DUP1 MLOAD PUSH28 0xFFFFFFFFFFFFFFFFFFFFFFFFFFFFFFFFFFFFFFFFFFFFFFFFFFFFFFFF DUP4 DUP2 DUP4 AND OR DUP4 MSTORE POP POP POP POP PUSH1 0x40 MLOAD PUSH2 0xA44 SWAP2 SWAP1 PUSH2 0x1EA4 JUMP JUMPDEST PUSH1 0x0 PUSH1 0x40 MLOAD DUP1 DUP4 SUB DUP2 PUSH1 0x0 DUP7 GAS CALL SWAP2 POP POP RETURNDATASIZE DUP1 PUSH1 0x0 DUP2 EQ PUSH2 0xA81 JUMPI PUSH1 0x40 MLOAD SWAP2 POP PUSH1 0x1F NOT PUSH1 0x3F RETURNDATASIZE ADD AND DUP3 ADD PUSH1 0x40 MSTORE RETURNDATASIZE DUP3 MSTORE RETURNDATASIZE PUSH1 0x0 PUSH1 0x20 DUP5 ADD RETURNDATACOPY PUSH2 0xA86 JUMP JUMPDEST PUSH1 0x60 SWAP2 POP JUMPDEST POP SWAP2 POP SWAP2 POP DUP2 DUP1 ISZERO PUSH2 0xAB4 JUMPI POP PUSH1 0x0 DUP2 MLOAD EQ DUP1 PUSH2 0xAB3 JUMPI POP DUP1 DUP1 PUSH1 0x20 ADD SWAP1 MLOAD DUP2 ADD SWAP1 PUSH2 0xAB2 SWAP2 SWAP1 PUSH2 0x1EF3 JUMP JUMPDEST JUMPDEST JUMPDEST PUSH2 0xAF3 JUMPI PUSH1 0x40 MLOAD PUSH32 0x8C379A000000000000000000000000000000000000000000000000000000000 DUP2 MSTORE PUSH1 0x4 ADD PUSH2 0xAEA SWAP1 PUSH2 0x1F92 JUMP JUMPDEST PUSH1 0x40 MLOAD DUP1 SWAP2 SUB SWAP1 REVERT JUMPDEST POP POP POP POP POP JUMP JUMPDEST PUSH1 0x1B PUSH1 0xF8 SHL DUP2 PUSH1 0x40 DUP2 MLOAD DUP2 LT PUSH2 0xB13 JUMPI PUSH2 0xB12 PUSH2 0x1FB2 JUMP JUMPDEST JUMPDEST PUSH1 0x20 ADD ADD SWAP1 PUSH31 0xFFFFFFFFFFFFFFFFFFFFFFFFFFFFFFFFFFFFFFFFFFFFFFFFFFFFFFFFFFFFFF NOT AND SWAP1 DUP2 PUSH1 0x0 BYTE SWAP1 MSTORE8 POP DUP3 PUSH20 0xFFFFFFFFFFFFFFFFFFFFFFFFFFFFFFFFFFFFFFFF AND PUSH2 0xB74 DUP3 PUSH2 0xB66 DUP6 PUSH2 0x11B8 JUMP JUMPDEST PUSH2 0x11C9 SWAP1 SWAP2 SWAP1 PUSH4 0xFFFFFFFF AND JUMP JUMPDEST PUSH20 0xFFFFFFFFFFFFFFFFFFFFFFFFFFFFFFFFFFFFFFFF AND SUB ISZERO PUSH2 0xC61 JUMPI PUSH1 0x1C PUSH1 0xF8 SHL DUP2 PUSH1 0x40 DUP2 MLOAD DUP2 LT PUSH2 0xBA9 JUMPI PUSH2 0xBA8 PUSH2 0x1FB2 JUMP JUMPDEST JUMPDEST PUSH1 0x20 ADD ADD SWAP1 PUSH31 0xFFFFFFFFFFFFFFFFFFFFFFFFFFFFFFFFFFFFFFFFFFFFFFFFFFFFFFFFFFFFFF NOT AND SWAP1 DUP2 PUSH1 0x0 BYTE SWAP1 MSTORE8 POP DUP3 PUSH20 0xFFFFFFFFFFFFFFFFFFFFFFFFFFFFFFFFFFFFFFFF AND PUSH2 0xC0A DUP3 PUSH2 0xBFC DUP6 PUSH2 0x11B8 JUMP JUMPDEST PUSH2 0x11C9 SWAP1 SWAP2 SWAP1 PUSH4 0xFFFFFFFF AND JUMP JUMPDEST PUSH20 0xFFFFFFFFFFFFFFFFFFFFFFFFFFFFFFFFFFFFFFFF AND EQ PUSH2 0xC60 JUMPI PUSH1 0x40 MLOAD PUSH32 0x8C379A000000000000000000000000000000000000000000000000000000000 DUP2 MSTORE PUSH1 0x4 ADD PUSH2 0xC57 SWAP1 PUSH2 0x202D JUMP JUMPDEST PUSH1 0x40 MLOAD DUP1 SWAP2 SUB SWAP1 REVERT JUMPDEST JUMPDEST POP POP POP JUMP JUMPDEST PUSH1 0x0 DUP1 DUP6 PUSH20 0xFFFFFFFFFFFFFFFFFFFFFFFFFFFFFFFFFFFFFFFF AND PUSH4 0x23B872DD DUP7 DUP7 DUP7 PUSH1 0x40 MLOAD PUSH1 0x24 ADD PUSH2 0xC9A SWAP4 SWAP3 SWAP2 SWAP1 PUSH2 0x204D JUMP JUMPDEST PUSH1 0x40 MLOAD PUSH1 0x20 DUP2 DUP4 SUB SUB DUP2 MSTORE SWAP1 PUSH1 0x40 MSTORE SWAP1 PUSH1 0xE0 SHL PUSH1 0x20 DUP3 ADD DUP1 MLOAD PUSH28 0xFFFFFFFFFFFFFFFFFFFFFFFFFFFFFFFFFFFFFFFFFFFFFFFFFFFFFFFF DUP4 DUP2 DUP4 AND OR DUP4 MSTORE POP POP POP POP PUSH1 0x40 MLOAD PUSH2 0xCE8 SWAP2 SWAP1 PUSH2 0x1EA4 JUMP JUMPDEST PUSH1 0x0 PUSH1 0x40 MLOAD DUP1 DUP4 SUB DUP2 PUSH1 0x0 DUP7 GAS CALL SWAP2 POP POP RETURNDATASIZE DUP1 PUSH1 0x0 DUP2 EQ PUSH2 0xD25 JUMPI PUSH1 0x40 MLOAD SWAP2 POP PUSH1 0x1F NOT PUSH1 0x3F RETURNDATASIZE ADD AND DUP3 ADD PUSH1 0x40 MSTORE RETURNDATASIZE DUP3 MSTORE RETURNDATASIZE PUSH1 0x0 PUSH1 0x20 DUP5 ADD RETURNDATACOPY PUSH2 0xD2A JUMP JUMPDEST PUSH1 0x60 SWAP2 POP JUMPDEST POP SWAP2 POP SWAP2 POP DUP2 DUP1 ISZERO PUSH2 0xD58 JUMPI POP PUSH1 0x0 DUP2 MLOAD EQ DUP1 PUSH2 0xD57 JUMPI POP DUP1 DUP1 PUSH1 0x20 ADD SWAP1 MLOAD DUP2 ADD SWAP1 PUSH2 0xD56 SWAP2 SWAP1 PUSH2 0x1EF3 JUMP JUMPDEST JUMPDEST JUMPDEST PUSH2 0xD97 JUMPI PUSH1 0x40 MLOAD PUSH32 0x8C379A000000000000000000000000000000000000000000000000000000000 DUP2 MSTORE PUSH1 0x4 ADD PUSH2 0xD8E SWAP1 PUSH2 0x20F6 JUMP JUMPDEST PUSH1 0x40 MLOAD DUP1 SWAP2 SUB SWAP1 REVERT JUMPDEST POP POP POP POP POP POP JUMP JUMPDEST PUSH1 0x0 DUP1 DUP5 PUSH20 0xFFFFFFFFFFFFFFFFFFFFFFFFFFFFFFFFFFFFFFFF AND PUSH4 0x95EA7B3 DUP6 DUP6 PUSH1 0x40 MLOAD PUSH1 0x24 ADD PUSH2 0xDD1 SWAP3 SWAP2 SWAP1 PUSH2 0x1E0A JUMP JUMPDEST PUSH1 0x40 MLOAD PUSH1 0x20 DUP2 DUP4 SUB SUB DUP2 MSTORE SWAP1 PUSH1 0x40 MSTORE SWAP1 PUSH1 0xE0 SHL PUSH1 0x20 DUP3 ADD DUP1 MLOAD PUSH28 0xFFFFFFFFFFFFFFFFFFFFFFFFFFFFFFFFFFFFFFFFFFFFFFFFFFFFFFFF DUP4 DUP2 DUP4 AND OR DUP4 MSTORE POP POP POP POP PUSH1 0x40 MLOAD PUSH2 0xE1F SWAP2 SWAP1 PUSH2 0x1EA4 JUMP JUMPDEST PUSH1 0x0 PUSH1 0x40 MLOAD DUP1 DUP4 SUB DUP2 PUSH1 0x0 DUP7 GAS CALL SWAP2 POP POP RETURNDATASIZE DUP1 PUSH1 0x0 DUP2 EQ PUSH2 0xE5C JUMPI PUSH1 0x40 MLOAD SWAP2 POP PUSH1 0x1F NOT PUSH1 0x3F RETURNDATASIZE ADD AND DUP3 ADD PUSH1 0x40 MSTORE RETURNDATASIZE DUP3 MSTORE RETURNDATASIZE PUSH1 0x0 PUSH1 0x20 DUP5 ADD RETURNDATACOPY PUSH2 0xE61 JUMP JUMPDEST PUSH1 0x60 SWAP2 POP JUMPDEST POP SWAP2 POP SWAP2 POP DUP2 DUP1 ISZERO PUSH2 0xE8F JUMPI POP PUSH1 0x0 DUP2 MLOAD EQ DUP1 PUSH2 0xE8E JUMPI POP DUP1 DUP1 PUSH1 0x20 ADD SWAP1 MLOAD DUP2 ADD SWAP1 PUSH2 0xE8D SWAP2 SWAP1 PUSH2 0x1EF3 JUMP JUMPDEST JUMPDEST JUMPDEST PUSH2 0xECE JUMPI PUSH1 0x40 MLOAD PUSH32 0x8C379A000000000000000000000000000000000000000000000000000000000 DUP2 MSTORE PUSH1 0x4 ADD PUSH2 0xEC5 SWAP1 PUSH2 0x2188 JUMP JUMPDEST PUSH1 0x40 MLOAD DUP1 SWAP2 SUB SWAP1 REVERT JUMPDEST POP POP POP POP POP JUMP JUMPDEST PUSH1 0x0 DUP1 DUP5 PUSH20 0xFFFFFFFFFFFFFFFFFFFFFFFFFFFFFFFFFFFFFFFF AND DUP5 DUP5 PUSH1 0x40 MLOAD PUSH2 0xEFE SWAP2 SWAP1 PUSH2 0x1EA4 JUMP JUMPDEST PUSH1 0x0 PUSH1 0x40 MLOAD DUP1 DUP4 SUB DUP2 DUP6 DUP8 GAS CALL SWAP3 POP POP POP RETURNDATASIZE DUP1 PUSH1 0x0 DUP2 EQ PUSH2 0xF3B JUMPI PUSH1 0x40 MLOAD SWAP2 POP PUSH1 0x1F NOT PUSH1 0x3F RETURNDATASIZE ADD AND DUP3 ADD PUSH1 0x40 MSTORE RETURNDATASIZE DUP3 MSTORE RETURNDATASIZE PUSH1 0x0 PUSH1 0x20 DUP5 ADD RETURNDATACOPY PUSH2 0xF40 JUMP JUMPDEST PUSH1 0x60 SWAP2 POP JUMPDEST POP SWAP2 POP SWAP2 POP DUP2 PUSH2 0xFE5 JUMPI PUSH1 0x44 DUP2 MLOAD LT ISZERO PUSH2 0xF8F JUMPI PUSH1 0x40 MLOAD PUSH32 0x8C379A000000000000000000000000000000000000000000000000000000000 DUP2 MSTORE PUSH1 0x4 ADD PUSH2 0xF86 SWAP1 PUSH2 0x221A JUMP JUMPDEST PUSH1 0x40 MLOAD DUP1 SWAP2 SUB SWAP1 REVERT JUMPDEST PUSH1 0x4 DUP2 ADD SWAP1 POP DUP1 DUP1 PUSH1 0x20 ADD SWAP1 MLOAD DUP2 ADD SWAP1 PUSH2 0xFA9 SWAP2 SWAP1 PUSH2 0x235B JUMP JUMPDEST PUSH1 0x40 MLOAD PUSH32 0x8C379A000000000000000000000000000000000000000000000000000000000 DUP2 MSTORE PUSH1 0x4 ADD PUSH2 0xFDC SWAP2 SWAP1 PUSH2 0x23E8 JUMP JUMPDEST PUSH1 0x40 MLOAD DUP1 SWAP2 SUB SWAP1 REVERT JUMPDEST POP POP POP POP POP JUMP JUMPDEST PUSH1 0x0 DUP3 PUSH20 0xFFFFFFFFFFFFFFFFFFFFFFFFFFFFFFFFFFFFFFFF AND DUP3 PUSH1 0x0 PUSH8 0xFFFFFFFFFFFFFFFF DUP2 GT ISZERO PUSH2 0x1021 JUMPI PUSH2 0x1020 PUSH2 0x223F JUMP JUMPDEST JUMPDEST PUSH1 0x40 MLOAD SWAP1 DUP1 DUP3 MSTORE DUP1 PUSH1 0x1F ADD PUSH1 0x1F NOT AND PUSH1 0x20 ADD DUP3 ADD PUSH1 0x40 MSTORE DUP1 ISZERO PUSH2 0x1053 JUMPI DUP2 PUSH1 0x20 ADD PUSH1 0x1 DUP3 MUL DUP1 CALLDATASIZE DUP4 CALLDATACOPY DUP1 DUP3 ADD SWAP2 POP POP SWAP1 POP JUMPDEST POP PUSH1 0x40 MLOAD PUSH2 0x1061 SWAP2 SWAP1 PUSH2 0x1EA4 JUMP JUMPDEST PUSH1 0x0 PUSH1 0x40 MLOAD DUP1 DUP4 SUB DUP2 DUP6 DUP8 GAS CALL SWAP3 POP POP POP RETURNDATASIZE DUP1 PUSH1 0x0 DUP2 EQ PUSH2 0x109E JUMPI PUSH1 0x40 MLOAD SWAP2 POP PUSH1 0x1F NOT PUSH1 0x3F RETURNDATASIZE ADD AND DUP3 ADD PUSH1 0x40 MSTORE RETURNDATASIZE DUP3 MSTORE RETURNDATASIZE PUSH1 0x0 PUSH1 0x20 DUP5 ADD RETURNDATACOPY PUSH2 0x10A3 JUMP JUMPDEST PUSH1 0x60 SWAP2 POP JUMPDEST POP POP SWAP1 POP DUP1 PUSH2 0x10E7 JUMPI PUSH1 0x40 MLOAD PUSH32 0x8C379A000000000000000000000000000000000000000000000000000000000 DUP2 MSTORE PUSH1 0x4 ADD PUSH2 0x10DE SWAP1 PUSH2 0x247C JUMP JUMPDEST PUSH1 0x40 MLOAD DUP1 SWAP2 SUB SWAP1 REVERT JUMPDEST POP POP POP JUMP JUMPDEST PUSH1 0x0 DUP1 PUSH1 0x0 SWAP1 SLOAD SWAP1 PUSH2 0x100 EXP SWAP1 DIV PUSH20 0xFFFFFFFFFFFFFFFFFFFFFFFFFFFFFFFFFFFFFFFF AND SWAP1 POP DUP2 PUSH1 0x0 DUP1 PUSH2 0x100 EXP DUP2 SLOAD DUP2 PUSH20 0xFFFFFFFFFFFFFFFFFFFFFFFFFFFFFFFFFFFFFFFF MUL NOT AND SWAP1 DUP4 PUSH20 0xFFFFFFFFFFFFFFFFFFFFFFFFFFFFFFFFFFFFFFFF AND MUL OR SWAP1 SSTORE POP DUP2 PUSH20 0xFFFFFFFFFFFFFFFFFFFFFFFFFFFFFFFFFFFFFFFF AND DUP2 PUSH20 0xFFFFFFFFFFFFFFFFFFFFFFFFFFFFFFFFFFFFFFFF AND PUSH32 0x8BE0079C531659141344CD1FD0A4F28419497F9722A3DAAFE3B4186F6B6457E0 PUSH1 0x40 MLOAD PUSH1 0x40 MLOAD DUP1 SWAP2 SUB SWAP1 LOG3 POP POP JUMP JUMPDEST PUSH1 0x0 CALLER SWAP1 POP SWAP1 JUMP JUMPDEST PUSH1 0x0 DUP2 DUP1 MLOAD SWAP1 PUSH1 0x20 ADD KECCAK256 SWAP1 POP SWAP2 SWAP1 POP JUMP JUMPDEST PUSH1 0x0 DUP1 PUSH1 0x0 PUSH2 0x11D8 DUP6 DUP6 PUSH2 0x11F0 JUMP JUMPDEST SWAP2 POP SWAP2 POP PUSH2 0x11E5 DUP2 PUSH2 0x1241 JUMP JUMPDEST DUP2 SWAP3 POP POP POP SWAP3 SWAP2 POP POP JUMP JUMPDEST PUSH1 0x0 DUP1 PUSH1 0x41 DUP4 MLOAD SUB PUSH2 0x1231 JUMPI PUSH1 0x0 DUP1 PUSH1 0x0 PUSH1 0x20 DUP7 ADD MLOAD SWAP3 POP PUSH1 0x40 DUP7 ADD MLOAD SWAP2 POP PUSH1 0x60 DUP7 ADD MLOAD PUSH1 0x0 BYTE SWAP1 POP PUSH2 0x1225 DUP8 DUP3 DUP6 DUP6 PUSH2 0x13A7 JUMP JUMPDEST SWAP5 POP SWAP5 POP POP POP POP PUSH2 0x123A JUMP JUMPDEST PUSH1 0x0 PUSH1 0x2 SWAP2 POP SWAP2 POP JUMPDEST SWAP3 POP SWAP3 SWAP1 POP JUMP JUMPDEST PUSH1 0x0 PUSH1 0x4 DUP2 GT ISZERO PUSH2 0x1255 JUMPI PUSH2 0x1254 PUSH2 0x249C JUMP JUMPDEST JUMPDEST DUP2 PUSH1 0x4 DUP2 GT ISZERO PUSH2 0x1268 JUMPI PUSH2 0x1267 PUSH2 0x249C JUMP JUMPDEST JUMPDEST SUB ISZERO PUSH2 0x13A4 JUMPI PUSH1 0x1 PUSH1 0x4 DUP2 GT ISZERO PUSH2 0x1282 JUMPI PUSH2 0x1281 PUSH2 0x249C JUMP JUMPDEST JUMPDEST DUP2 PUSH1 0x4 DUP2 GT ISZERO PUSH2 0x1295 JUMPI PUSH2 0x1294 PUSH2 0x249C JUMP JUMPDEST JUMPDEST SUB PUSH2 0x12D5 JUMPI PUSH1 0x40 MLOAD PUSH32 0x8C379A000000000000000000000000000000000000000000000000000000000 DUP2 MSTORE PUSH1 0x4 ADD PUSH2 0x12CC SWAP1 PUSH2 0x2517 JUMP JUMPDEST PUSH1 0x40 MLOAD DUP1 SWAP2 SUB SWAP1 REVERT JUMPDEST PUSH1 0x2 PUSH1 0x4 DUP2 GT ISZERO PUSH2 0x12E9 JUMPI PUSH2 0x12E8 PUSH2 0x249C JUMP JUMPDEST JUMPDEST DUP2 PUSH1 0x4 DUP2 GT ISZERO PUSH2 0x12FC JUMPI PUSH2 0x12FB PUSH2 0x249C JUMP JUMPDEST JUMPDEST SUB PUSH2 0x133C JUMPI PUSH1 0x40 MLOAD PUSH32 0x8C379A000000000000000000000000000000000000000000000000000000000 DUP2 MSTORE PUSH1 0x4 ADD PUSH2 0x1333 SWAP1 PUSH2 0x2583 JUMP JUMPDEST PUSH1 0x40 MLOAD DUP1 SWAP2 SUB SWAP1 REVERT JUMPDEST PUSH1 0x3 PUSH1 0x4 DUP2 GT ISZERO PUSH2 0x1350 JUMPI PUSH2 0x134F PUSH2 0x249C JUMP JUMPDEST JUMPDEST DUP2 PUSH1 0x4 DUP2 GT ISZERO PUSH2 0x1363 JUMPI PUSH2 0x1362 PUSH2 0x249C JUMP JUMPDEST JUMPDEST SUB PUSH2 0x13A3 JUMPI PUSH1 0x40 MLOAD PUSH32 0x8C379A000000000000000000000000000000000000000000000000000000000 DUP2 MSTORE PUSH1 0x4 ADD PUSH2 0x139A SWAP1 PUSH2 0x2615 JUMP JUMPDEST PUSH1 0x40 MLOAD DUP1 SWAP2 SUB SWAP1 REVERT JUMPDEST JUMPDEST POP JUMP JUMPDEST PUSH1 0x0 DUP1 PUSH32 0x7FFFFFFFFFFFFFFFFFFFFFFFFFFFFFFF5D576E7357A4501DDFE92F46681B20A0 DUP4 PUSH1 0x0 SHR GT ISZERO PUSH2 0x13E2 JUMPI PUSH1 0x0 PUSH1 0x3 SWAP2 POP SWAP2 POP PUSH2 0x1480 JUMP JUMPDEST PUSH1 0x0 PUSH1 0x1 DUP8 DUP8 DUP8 DUP8 PUSH1 0x40 MLOAD PUSH1 0x0 DUP2 MSTORE PUSH1 0x20 ADD PUSH1 0x40 MSTORE PUSH1 0x40 MLOAD PUSH2 0x1407 SWAP5 SWAP4 SWAP3 SWAP2 SWAP1 PUSH2 0x264E JUMP JUMPDEST PUSH1 0x20 PUSH1 0x40 MLOAD PUSH1 0x20 DUP2 SUB SWAP1 DUP1 DUP5 SUB SWAP1 DUP6 GAS STATICCALL ISZERO DUP1 ISZERO PUSH2 0x1429 JUMPI RETURNDATASIZE PUSH1 0x0 DUP1 RETURNDATACOPY RETURNDATASIZE PUSH1 0x0 REVERT JUMPDEST POP POP POP PUSH1 0x20 PUSH1 0x40 MLOAD SUB MLOAD SWAP1 POP PUSH1 0x0 PUSH20 0xFFFFFFFFFFFFFFFFFFFFFFFFFFFFFFFFFFFFFFFF AND DUP2 PUSH20 0xFFFFFFFFFFFFFFFFFFFFFFFFFFFFFFFFFFFFFFFF AND SUB PUSH2 0x1477 JUMPI PUSH1 0x0 PUSH1 0x1 SWAP3 POP SWAP3 POP POP PUSH2 0x1480 JUMP JUMPDEST DUP1 PUSH1 0x0 SWAP3 POP SWAP3 POP POP JUMPDEST SWAP5 POP SWAP5 SWAP3 POP POP POP JUMP JUMPDEST PUSH1 0x0 PUSH1 0x40 MLOAD SWAP1 POP SWAP1 JUMP JUMPDEST PUSH1 0x0 DUP1 REVERT JUMPDEST PUSH1 0x0 DUP1 REVERT JUMPDEST PUSH1 0x0 PUSH20 0xFFFFFFFFFFFFFFFFFFFFFFFFFFFFFFFFFFFFFFFF DUP3 AND SWAP1 POP SWAP2 SWAP1 POP JUMP JUMPDEST PUSH1 0x0 PUSH2 0x14C8 DUP3 PUSH2 0x149D JUMP JUMPDEST SWAP1 POP SWAP2 SWAP1 POP JUMP JUMPDEST PUSH2 0x14D8 DUP2 PUSH2 0x14BD JUMP JUMPDEST DUP2 EQ PUSH2 0x14E3 JUMPI PUSH1 0x0 DUP1 REVERT JUMPDEST POP JUMP JUMPDEST PUSH1 0x0 DUP2 CALLDATALOAD SWAP1 POP PUSH2 0x14F5 DUP2 PUSH2 0x14CF JUMP JUMPDEST SWAP3 SWAP2 POP POP JUMP JUMPDEST PUSH1 0x0 DUP2 SWAP1 POP SWAP2 SWAP1 POP JUMP JUMPDEST PUSH2 0x150E DUP2 PUSH2 0x14FB JUMP JUMPDEST DUP2 EQ PUSH2 0x1519 JUMPI PUSH1 0x0 DUP1 REVERT JUMPDEST POP JUMP JUMPDEST PUSH1 0x0 DUP2 CALLDATALOAD SWAP1 POP PUSH2 0x152B DUP2 PUSH2 0x1505 JUMP JUMPDEST SWAP3 SWAP2 POP POP JUMP JUMPDEST PUSH1 0x0 DUP1 PUSH1 0x0 PUSH1 0x60 DUP5 DUP7 SUB SLT ISZERO PUSH2 0x154A JUMPI PUSH2 0x1549 PUSH2 0x1493 JUMP JUMPDEST JUMPDEST PUSH1 0x0 PUSH2 0x1558 DUP7 DUP3 DUP8 ADD PUSH2 0x14E6 JUMP JUMPDEST SWAP4 POP POP PUSH1 0x20 PUSH2 0x1569 DUP7 DUP3 DUP8 ADD PUSH2 0x14E6 JUMP JUMPDEST SWAP3 POP POP PUSH1 0x40 PUSH2 0x157A DUP7 DUP3 DUP8 ADD PUSH2 0x151C JUMP JUMPDEST SWAP2 POP POP SWAP3 POP SWAP3 POP SWAP3 JUMP JUMPDEST PUSH1 0x0 PUSH1 0x20 DUP3 DUP5 SUB SLT ISZERO PUSH2 0x159A JUMPI PUSH2 0x1599 PUSH2 0x1493 JUMP JUMPDEST JUMPDEST PUSH1 0x0 PUSH2 0x15A8 DUP5 DUP3 DUP6 ADD PUSH2 0x14E6 JUMP JUMPDEST SWAP2 POP POP SWAP3 SWAP2 POP POP JUMP JUMPDEST PUSH2 0x15BA DUP2 PUSH2 0x14FB JUMP JUMPDEST DUP3 MSTORE POP POP JUMP JUMPDEST PUSH1 0x0 PUSH1 0x20 DUP3 ADD SWAP1 POP PUSH2 0x15D5 PUSH1 0x0 DUP4 ADD DUP5 PUSH2 0x15B1 JUMP JUMPDEST SWAP3 SWAP2 POP POP JUMP JUMPDEST PUSH1 0x0 DUP1 REVERT JUMPDEST PUSH1 0x0 PUSH1 0xC0 DUP3 DUP5 SUB SLT ISZERO PUSH2 0x15F6 JUMPI PUSH2 0x15F5 PUSH2 0x15DB JUMP JUMPDEST JUMPDEST DUP2 SWAP1 POP SWAP3 SWAP2 POP POP JUMP JUMPDEST PUSH1 0x0 DUP1 REVERT JUMPDEST PUSH1 0x0 DUP1 REVERT JUMPDEST PUSH1 0x0 DUP1 REVERT JUMPDEST PUSH1 0x0 DUP1 DUP4 PUSH1 0x1F DUP5 ADD SLT PUSH2 0x1624 JUMPI PUSH2 0x1623 PUSH2 0x15FF JUMP JUMPDEST JUMPDEST DUP3 CALLDATALOAD SWAP1 POP PUSH8 0xFFFFFFFFFFFFFFFF DUP2 GT ISZERO PUSH2 0x1641 JUMPI PUSH2 0x1640 PUSH2 0x1604 JUMP JUMPDEST JUMPDEST PUSH1 0x20 DUP4 ADD SWAP2 POP DUP4 PUSH1 0x1 DUP3 MUL DUP4 ADD GT ISZERO PUSH2 0x165D JUMPI PUSH2 0x165C PUSH2 0x1609 JUMP JUMPDEST JUMPDEST SWAP3 POP SWAP3 SWAP1 POP JUMP JUMPDEST PUSH1 0x0 DUP1 PUSH1 0x0 PUSH1 0x40 DUP5 DUP7 SUB SLT ISZERO PUSH2 0x167D JUMPI PUSH2 0x167C PUSH2 0x1493 JUMP JUMPDEST JUMPDEST PUSH1 0x0 DUP5 ADD CALLDATALOAD PUSH8 0xFFFFFFFFFFFFFFFF DUP2 GT ISZERO PUSH2 0x169B JUMPI PUSH2 0x169A PUSH2 0x1498 JUMP JUMPDEST JUMPDEST PUSH2 0x16A7 DUP7 DUP3 DUP8 ADD PUSH2 0x15E0 JUMP JUMPDEST SWAP4 POP POP PUSH1 0x20 DUP5 ADD CALLDATALOAD PUSH8 0xFFFFFFFFFFFFFFFF DUP2 GT ISZERO PUSH2 0x16C8 JUMPI PUSH2 0x16C7 PUSH2 0x1498 JUMP JUMPDEST JUMPDEST PUSH2 0x16D4 DUP7 DUP3 DUP8 ADD PUSH2 0x160E JUMP JUMPDEST SWAP3 POP SWAP3 POP POP SWAP3 POP SWAP3 POP SWAP3 JUMP JUMPDEST PUSH1 0x0 DUP1 PUSH1 0x40 DUP4 DUP6 SUB SLT ISZERO PUSH2 0x16F7 JUMPI PUSH2 0x16F6 PUSH2 0x1493 JUMP JUMPDEST JUMPDEST PUSH1 0x0 PUSH2 0x1705 DUP6 DUP3 DUP7 ADD PUSH2 0x14E6 JUMP JUMPDEST SWAP3 POP POP PUSH1 0x20 PUSH2 0x1716 DUP6 DUP3 DUP7 ADD PUSH2 0x151C JUMP JUMPDEST SWAP2 POP POP SWAP3 POP SWAP3 SWAP1 POP JUMP JUMPDEST PUSH2 0x1729 DUP2 PUSH2 0x14BD JUMP JUMPDEST DUP3 MSTORE POP POP JUMP JUMPDEST PUSH1 0x0 PUSH1 0x20 DUP3 ADD SWAP1 POP PUSH2 0x1744 PUSH1 0x0 DUP4 ADD DUP5 PUSH2 0x1720 JUMP JUMPDEST SWAP3 SWAP2 POP POP JUMP JUMPDEST PUSH1 0x0 PUSH1 0xFF DUP3 AND SWAP1 POP SWAP2 SWAP1 POP JUMP JUMPDEST PUSH2 0x1760 DUP2 PUSH2 0x174A JUMP JUMPDEST DUP2 EQ PUSH2 0x176B JUMPI PUSH1 0x0 DUP1 REVERT JUMPDEST POP JUMP JUMPDEST PUSH1 0x0 DUP2 CALLDATALOAD SWAP1 POP PUSH2 0x177D DUP2 PUSH2 0x1757 JUMP JUMPDEST SWAP3 SWAP2 POP POP JUMP JUMPDEST PUSH1 0x0 DUP1 PUSH1 0x0 DUP1 PUSH1 0x0 PUSH1 0xA0 DUP7 DUP9 SUB SLT ISZERO PUSH2 0x179F JUMPI PUSH2 0x179E PUSH2 0x1493 JUMP JUMPDEST JUMPDEST PUSH1 0x0 PUSH2 0x17AD DUP9 DUP3 DUP10 ADD PUSH2 0x14E6 JUMP JUMPDEST SWAP6 POP POP PUSH1 0x20 PUSH2 0x17BE DUP9 DUP3 DUP10 ADD PUSH2 0x14E6 JUMP JUMPDEST SWAP5 POP POP PUSH1 0x40 PUSH2 0x17CF DUP9 DUP3 DUP10 ADD PUSH2 0x14E6 JUMP JUMPDEST SWAP4 POP POP PUSH1 0x60 PUSH2 0x17E0 DUP9 DUP3 DUP10 ADD PUSH2 0x151C JUMP JUMPDEST SWAP3 POP POP PUSH1 0x80 PUSH2 0x17F1 DUP9 DUP3 DUP10 ADD PUSH2 0x176E JUMP JUMPDEST SWAP2 POP POP SWAP3 SWAP6 POP SWAP3 SWAP6 SWAP1 SWAP4 POP JUMP JUMPDEST PUSH1 0x0 PUSH3 0xFFFFFF DUP3 AND SWAP1 POP SWAP2 SWAP1 POP JUMP JUMPDEST PUSH2 0x1816 DUP2 PUSH2 0x17FE JUMP JUMPDEST DUP3 MSTORE POP POP JUMP JUMPDEST PUSH1 0x0 PUSH1 0x40 DUP3 ADD SWAP1 POP PUSH2 0x1831 PUSH1 0x0 DUP4 ADD DUP6 PUSH2 0x15B1 JUMP JUMPDEST PUSH2 0x183E PUSH1 0x20 DUP4 ADD DUP5 PUSH2 0x180D JUMP JUMPDEST SWAP4 SWAP3 POP POP POP JUMP JUMPDEST PUSH1 0x0 DUP2 MLOAD SWAP1 POP PUSH2 0x1854 DUP2 PUSH2 0x1505 JUMP JUMPDEST SWAP3 SWAP2 POP POP JUMP JUMPDEST PUSH1 0x0 PUSH1 0x20 DUP3 DUP5 SUB SLT ISZERO PUSH2 0x1870 JUMPI PUSH2 0x186F PUSH2 0x1493 JUMP JUMPDEST JUMPDEST PUSH1 0x0 PUSH2 0x187E DUP5 DUP3 DUP6 ADD PUSH2 0x1845 JUMP JUMPDEST SWAP2 POP POP SWAP3 SWAP2 POP POP JUMP JUMPDEST PUSH1 0x0 DUP3 DUP3 MSTORE PUSH1 0x20 DUP3 ADD SWAP1 POP SWAP3 SWAP2 POP POP JUMP JUMPDEST PUSH32 0x696E76616C65642073656E646572000000000000000000000000000000000000 PUSH1 0x0 DUP3 ADD MSTORE POP JUMP JUMPDEST PUSH1 0x0 PUSH2 0x18CE PUSH1 0xE DUP4 PUSH2 0x1887 JUMP JUMPDEST SWAP2 POP PUSH2 0x18D9 DUP3 PUSH2 0x1898 JUMP JUMPDEST PUSH1 0x20 DUP3 ADD SWAP1 POP SWAP2 SWAP1 POP JUMP JUMPDEST PUSH1 0x0 PUSH1 0x20 DUP3 ADD SWAP1 POP DUP2 DUP2 SUB PUSH1 0x0 DUP4 ADD MSTORE PUSH2 0x18FD DUP2 PUSH2 0x18C1 JUMP JUMPDEST SWAP1 POP SWAP2 SWAP1 POP JUMP JUMPDEST PUSH1 0x0 PUSH2 0x1913 PUSH1 0x20 DUP5 ADD DUP5 PUSH2 0x14E6 JUMP JUMPDEST SWAP1 POP SWAP3 SWAP2 POP POP JUMP JUMPDEST PUSH2 0x1924 DUP2 PUSH2 0x14BD JUMP JUMPDEST DUP3 MSTORE POP POP JUMP JUMPDEST PUSH1 0x0 PUSH2 0x1939 PUSH1 0x20 DUP5 ADD DUP5 PUSH2 0x151C JUMP JUMPDEST SWAP1 POP SWAP3 SWAP2 POP POP JUMP JUMPDEST PUSH2 0x194A DUP2 PUSH2 0x14FB JUMP JUMPDEST DUP3 MSTORE POP POP JUMP JUMPDEST PUSH1 0x0 DUP1 REVERT JUMPDEST PUSH1 0x0 DUP1 REVERT JUMPDEST PUSH1 0x0 DUP1 REVERT JUMPDEST PUSH1 0x0 DUP1 DUP4 CALLDATALOAD PUSH1 0x1 PUSH1 0x20 SUB DUP5 CALLDATASIZE SUB SUB DUP2 SLT PUSH2 0x197C JUMPI PUSH2 0x197B PUSH2 0x195A JUMP JUMPDEST JUMPDEST DUP4 DUP2 ADD SWAP3 POP DUP3 CALLDATALOAD SWAP2 POP PUSH1 0x20 DUP4 ADD SWAP3 POP PUSH8 0xFFFFFFFFFFFFFFFF DUP3 GT ISZERO PUSH2 0x19A4 JUMPI PUSH2 0x19A3 PUSH2 0x1950 JUMP JUMPDEST JUMPDEST PUSH1 0x1 DUP3 MUL CALLDATASIZE SUB DUP4 SGT ISZERO PUSH2 0x19BA JUMPI PUSH2 0x19B9 PUSH2 0x1955 JUMP JUMPDEST JUMPDEST POP SWAP3 POP SWAP3 SWAP1 POP JUMP JUMPDEST PUSH1 0x0 DUP3 DUP3 MSTORE PUSH1 0x20 DUP3 ADD SWAP1 POP SWAP3 SWAP2 POP POP JUMP JUMPDEST DUP3 DUP2 DUP4 CALLDATACOPY PUSH1 0x0 DUP4 DUP4 ADD MSTORE POP POP POP JUMP JUMPDEST PUSH1 0x0 PUSH1 0x1F NOT PUSH1 0x1F DUP4 ADD AND SWAP1 POP SWAP2 SWAP1 POP JUMP JUMPDEST PUSH1 0x0 PUSH2 0x19FF DUP4 DUP6 PUSH2 0x19C2 JUMP JUMPDEST SWAP4 POP PUSH2 0x1A0C DUP4 DUP6 DUP5 PUSH2 0x19D3 JUMP JUMPDEST PUSH2 0x1A15 DUP4 PUSH2 0x19E2 JUMP JUMPDEST DUP5 ADD SWAP1 POP SWAP4 SWAP3 POP POP POP JUMP JUMPDEST PUSH1 0x0 PUSH1 0xC0 DUP4 ADD PUSH2 0x1A33 PUSH1 0x0 DUP5 ADD DUP5 PUSH2 0x1904 JUMP JUMPDEST PUSH2 0x1A40 PUSH1 0x0 DUP7 ADD DUP3 PUSH2 0x191B JUMP JUMPDEST POP PUSH2 0x1A4E PUSH1 0x20 DUP5 ADD DUP5 PUSH2 0x192A JUMP JUMPDEST PUSH2 0x1A5B PUSH1 0x20 DUP7 ADD DUP3 PUSH2 0x1941 JUMP JUMPDEST POP PUSH2 0x1A69 PUSH1 0x40 DUP5 ADD DUP5 PUSH2 0x192A JUMP JUMPDEST PUSH2 0x1A76 PUSH1 0x40 DUP7 ADD DUP3 PUSH2 0x1941 JUMP JUMPDEST POP PUSH2 0x1A84 PUSH1 0x60 DUP5 ADD DUP5 PUSH2 0x1904 JUMP JUMPDEST PUSH2 0x1A91 PUSH1 0x60 DUP7 ADD DUP3 PUSH2 0x191B JUMP JUMPDEST POP PUSH2 0x1A9F PUSH1 0x80 DUP5 ADD DUP5 PUSH2 0x195F JUMP JUMPDEST DUP6 DUP4 SUB PUSH1 0x80 DUP8 ADD MSTORE PUSH2 0x1AB2 DUP4 DUP3 DUP5 PUSH2 0x19F3 JUMP JUMPDEST SWAP3 POP POP POP PUSH2 0x1AC3 PUSH1 0xA0 DUP5 ADD DUP5 PUSH2 0x1904 JUMP JUMPDEST PUSH2 0x1AD0 PUSH1 0xA0 DUP7 ADD DUP3 PUSH2 0x191B JUMP JUMPDEST POP DUP1 SWAP2 POP POP SWAP3 SWAP2 POP POP JUMP JUMPDEST PUSH1 0x0 PUSH1 0x20 DUP3 ADD SWAP1 POP DUP2 DUP2 SUB PUSH1 0x0 DUP4 ADD MSTORE PUSH2 0x1AF5 DUP2 DUP5 PUSH2 0x1A20 JUMP JUMPDEST SWAP1 POP SWAP3 SWAP2 POP POP JUMP JUMPDEST PUSH32 0x4E487B7100000000000000000000000000000000000000000000000000000000 PUSH1 0x0 MSTORE PUSH1 0x11 PUSH1 0x4 MSTORE PUSH1 0x24 PUSH1 0x0 REVERT JUMPDEST PUSH1 0x0 PUSH2 0x1B37 DUP3 PUSH2 0x14FB JUMP JUMPDEST SWAP2 POP PUSH2 0x1B42 DUP4 PUSH2 0x14FB JUMP JUMPDEST SWAP3 POP DUP3 DUP3 SUB SWAP1 POP DUP2 DUP2 GT ISZERO PUSH2 0x1B5A JUMPI PUSH2 0x1B59 PUSH2 0x1AFD JUMP JUMPDEST JUMPDEST SWAP3 SWAP2 POP POP JUMP JUMPDEST PUSH1 0x0 DUP1 REVERT JUMPDEST PUSH1 0x0 DUP1 REVERT JUMPDEST PUSH1 0x0 DUP1 REVERT JUMPDEST PUSH1 0x0 DUP1 DUP4 CALLDATALOAD PUSH1 0x1 PUSH1 0x20 SUB DUP5 CALLDATASIZE SUB SUB DUP2 SLT PUSH2 0x1B8C JUMPI PUSH2 0x1B8B PUSH2 0x1B60 JUMP JUMPDEST JUMPDEST DUP1 DUP5 ADD SWAP3 POP DUP3 CALLDATALOAD SWAP2 POP PUSH8 0xFFFFFFFFFFFFFFFF DUP3 GT ISZERO PUSH2 0x1BAE JUMPI PUSH2 0x1BAD PUSH2 0x1B65 JUMP JUMPDEST JUMPDEST PUSH1 0x20 DUP4 ADD SWAP3 POP PUSH1 0x1 DUP3 MUL CALLDATASIZE SUB DUP4 SGT ISZERO PUSH2 0x1BCA JUMPI PUSH2 0x1BC9 PUSH2 0x1B6A JUMP JUMPDEST JUMPDEST POP SWAP3 POP SWAP3 SWAP1 POP JUMP JUMPDEST PUSH32 0x696E73756666696369656E7420696E70757420616D6F756E7400000000000000 PUSH1 0x0 DUP3 ADD MSTORE POP JUMP JUMPDEST PUSH1 0x0 PUSH2 0x1C08 PUSH1 0x19 DUP4 PUSH2 0x1887 JUMP JUMPDEST SWAP2 POP PUSH2 0x1C13 DUP3 PUSH2 0x1BD2 JUMP JUMPDEST PUSH1 0x20 DUP3 ADD SWAP1 POP SWAP2 SWAP1 POP JUMP JUMPDEST PUSH1 0x0 PUSH1 0x20 DUP3 ADD SWAP1 POP DUP2 DUP2 SUB PUSH1 0x0 DUP4 ADD MSTORE PUSH2 0x1C37 DUP2 PUSH2 0x1BFB JUMP JUMPDEST SWAP1 POP SWAP2 SWAP1 POP JUMP JUMPDEST PUSH2 0x1C47 DUP2 PUSH2 0x174A JUMP JUMPDEST DUP3 MSTORE POP POP JUMP JUMPDEST PUSH1 0x0 PUSH1 0xA0 DUP3 ADD SWAP1 POP PUSH2 0x1C62 PUSH1 0x0 DUP4 ADD DUP9 PUSH2 0x1720 JUMP JUMPDEST PUSH2 0x1C6F PUSH1 0x20 DUP4 ADD DUP8 PUSH2 0x1720 JUMP JUMPDEST PUSH2 0x1C7C PUSH1 0x40 DUP4 ADD DUP7 PUSH2 0x1720 JUMP JUMPDEST PUSH2 0x1C89 PUSH1 0x60 DUP4 ADD DUP6 PUSH2 0x15B1 JUMP JUMPDEST PUSH2 0x1C96 PUSH1 0x80 DUP4 ADD DUP5 PUSH2 0x1C3E JUMP JUMPDEST SWAP7 SWAP6 POP POP POP POP POP POP JUMP JUMPDEST PUSH2 0x1CA9 DUP2 PUSH2 0x17FE JUMP JUMPDEST DUP2 EQ PUSH2 0x1CB4 JUMPI PUSH1 0x0 DUP1 REVERT JUMPDEST POP JUMP JUMPDEST PUSH1 0x0 DUP2 MLOAD SWAP1 POP PUSH2 0x1CC6 DUP2 PUSH2 0x1CA0 JUMP JUMPDEST SWAP3 SWAP2 POP POP JUMP JUMPDEST PUSH1 0x0 DUP1 PUSH1 0x40 DUP4 DUP6 SUB SLT ISZERO PUSH2 0x1CE3 JUMPI PUSH2 0x1CE2 PUSH2 0x1493 JUMP JUMPDEST JUMPDEST PUSH1 0x0 PUSH2 0x1CF1 DUP6 DUP3 DUP7 ADD PUSH2 0x1845 JUMP JUMPDEST SWAP3 POP POP PUSH1 0x20 PUSH2 0x1D02 DUP6 DUP3 DUP7 ADD PUSH2 0x1CB7 JUMP JUMPDEST SWAP2 POP POP SWAP3 POP SWAP3 SWAP1 POP JUMP JUMPDEST PUSH32 0x4F776E61626C653A206E6577206F776E657220697320746865207A65726F2061 PUSH1 0x0 DUP3 ADD MSTORE PUSH32 0x6464726573730000000000000000000000000000000000000000000000000000 PUSH1 0x20 DUP3 ADD MSTORE POP JUMP JUMPDEST PUSH1 0x0 PUSH2 0x1D68 PUSH1 0x26 DUP4 PUSH2 0x1887 JUMP JUMPDEST SWAP2 POP PUSH2 0x1D73 DUP3 PUSH2 0x1D0C JUMP JUMPDEST PUSH1 0x40 DUP3 ADD SWAP1 POP SWAP2 SWAP1 POP JUMP JUMPDEST PUSH1 0x0 PUSH1 0x20 DUP3 ADD SWAP1 POP DUP2 DUP2 SUB PUSH1 0x0 DUP4 ADD MSTORE PUSH2 0x1D97 DUP2 PUSH2 0x1D5B JUMP JUMPDEST SWAP1 POP SWAP2 SWAP1 POP JUMP JUMPDEST PUSH32 0x4F776E61626C653A2063616C6C6572206973206E6F7420746865206F776E6572 PUSH1 0x0 DUP3 ADD MSTORE POP JUMP JUMPDEST PUSH1 0x0 PUSH2 0x1DD4 PUSH1 0x20 DUP4 PUSH2 0x1887 JUMP JUMPDEST SWAP2 POP PUSH2 0x1DDF DUP3 PUSH2 0x1D9E JUMP JUMPDEST PUSH1 0x20 DUP3 ADD SWAP1 POP SWAP2 SWAP1 POP JUMP JUMPDEST PUSH1 0x0 PUSH1 0x20 DUP3 ADD SWAP1 POP DUP2 DUP2 SUB PUSH1 0x0 DUP4 ADD MSTORE PUSH2 0x1E03 DUP2 PUSH2 0x1DC7 JUMP JUMPDEST SWAP1 POP SWAP2 SWAP1 POP JUMP JUMPDEST PUSH1 0x0 PUSH1 0x40 DUP3 ADD SWAP1 POP PUSH2 0x1E1F PUSH1 0x0 DUP4 ADD DUP6 PUSH2 0x1720 JUMP JUMPDEST PUSH2 0x1E2C PUSH1 0x20 DUP4 ADD DUP5 PUSH2 0x15B1 JUMP JUMPDEST SWAP4 SWAP3 POP POP POP JUMP JUMPDEST PUSH1 0x0 DUP2 MLOAD SWAP1 POP SWAP2 SWAP1 POP JUMP JUMPDEST PUSH1 0x0 DUP2 SWAP1 POP SWAP3 SWAP2 POP POP JUMP JUMPDEST PUSH1 0x0 JUMPDEST DUP4 DUP2 LT ISZERO PUSH2 0x1E67 JUMPI DUP1 DUP3 ADD MLOAD DUP2 DUP5 ADD MSTORE PUSH1 0x20 DUP2 ADD SWAP1 POP PUSH2 0x1E4C JUMP JUMPDEST PUSH1 0x0 DUP5 DUP5 ADD MSTORE POP POP POP POP JUMP JUMPDEST PUSH1 0x0 PUSH2 0x1E7E DUP3 PUSH2 0x1E33 JUMP JUMPDEST PUSH2 0x1E88 DUP2 DUP6 PUSH2 0x1E3E JUMP JUMPDEST SWAP4 POP PUSH2 0x1E98 DUP2 DUP6 PUSH1 0x20 DUP7 ADD PUSH2 0x1E49 JUMP JUMPDEST DUP1 DUP5 ADD SWAP2 POP POP SWAP3 SWAP2 POP POP JUMP JUMPDEST PUSH1 0x0 PUSH2 0x1EB0 DUP3 DUP5 PUSH2 0x1E73 JUMP JUMPDEST SWAP2 POP DUP2 SWAP1 POP SWAP3 SWAP2 POP POP JUMP JUMPDEST PUSH1 0x0 DUP2 ISZERO ISZERO SWAP1 POP SWAP2 SWAP1 POP JUMP JUMPDEST PUSH2 0x1ED0 DUP2 PUSH2 0x1EBB JUMP JUMPDEST DUP2 EQ PUSH2 0x1EDB JUMPI PUSH1 0x0 DUP1 REVERT JUMPDEST POP JUMP JUMPDEST PUSH1 0x0 DUP2 MLOAD SWAP1 POP PUSH2 0x1EED DUP2 PUSH2 0x1EC7 JUMP JUMPDEST SWAP3 SWAP2 POP POP JUMP JUMPDEST PUSH1 0x0 PUSH1 0x20 DUP3 DUP5 SUB SLT ISZERO PUSH2 0x1F09 JUMPI PUSH2 0x1F08 PUSH2 0x1493 JUMP JUMPDEST JUMPDEST PUSH1 0x0 PUSH2 0x1F17 DUP5 DUP3 DUP6 ADD PUSH2 0x1EDE JUMP JUMPDEST SWAP2 POP POP SWAP3 SWAP2 POP POP JUMP JUMPDEST PUSH32 0x45786368616E676541676772656761746F723A3A5472616E7366657248656C70 PUSH1 0x0 DUP3 ADD MSTORE PUSH32 0x65723A736166655472616E736665720000000000000000000000000000000000 PUSH1 0x20 DUP3 ADD MSTORE POP JUMP JUMPDEST PUSH1 0x0 PUSH2 0x1F7C PUSH1 0x2F DUP4 PUSH2 0x1887 JUMP JUMPDEST SWAP2 POP PUSH2 0x1F87 DUP3 PUSH2 0x1F20 JUMP JUMPDEST PUSH1 0x40 DUP3 ADD SWAP1 POP SWAP2 SWAP1 POP JUMP JUMPDEST PUSH1 0x0 PUSH1 0x20 DUP3 ADD SWAP1 POP DUP2 DUP2 SUB PUSH1 0x0 DUP4 ADD MSTORE PUSH2 0x1FAB DUP2 PUSH2 0x1F6F JUMP JUMPDEST SWAP1 POP SWAP2 SWAP1 POP JUMP JUMPDEST PUSH32 0x4E487B7100000000000000000000000000000000000000000000000000000000 PUSH1 0x0 MSTORE PUSH1 0x32 PUSH1 0x4 MSTORE PUSH1 0x24 PUSH1 0x0 REVERT JUMPDEST PUSH32 0x646174612074616D706572656400000000000000000000000000000000000000 PUSH1 0x0 DUP3 ADD MSTORE POP JUMP JUMPDEST PUSH1 0x0 PUSH2 0x2017 PUSH1 0xD DUP4 PUSH2 0x1887 JUMP JUMPDEST SWAP2 POP PUSH2 0x2022 DUP3 PUSH2 0x1FE1 JUMP JUMPDEST PUSH1 0x20 DUP3 ADD SWAP1 POP SWAP2 SWAP1 POP JUMP JUMPDEST PUSH1 0x0 PUSH1 0x20 DUP3 ADD SWAP1 POP DUP2 DUP2 SUB PUSH1 0x0 DUP4 ADD MSTORE PUSH2 0x2046 DUP2 PUSH2 0x200A JUMP JUMPDEST SWAP1 POP SWAP2 SWAP1 POP JUMP JUMPDEST PUSH1 0x0 PUSH1 0x60 DUP3 ADD SWAP1 POP PUSH2 0x2062 PUSH1 0x0 DUP4 ADD DUP7 PUSH2 0x1720 JUMP JUMPDEST PUSH2 0x206F PUSH1 0x20 DUP4 ADD DUP6 PUSH2 0x1720 JUMP JUMPDEST PUSH2 0x207C PUSH1 0x40 DUP4 ADD DUP5 PUSH2 0x15B1 JUMP JUMPDEST SWAP5 SWAP4 POP POP POP POP JUMP JUMPDEST PUSH32 0x45786368616E676541676772656761746F723A3A5472616E7366657248656C70 PUSH1 0x0 DUP3 ADD MSTORE PUSH32 0x65723A736166655472616E7366657246726F6D00000000000000000000000000 PUSH1 0x20 DUP3 ADD MSTORE POP JUMP JUMPDEST PUSH1 0x0 PUSH2 0x20E0 PUSH1 0x33 DUP4 PUSH2 0x1887 JUMP JUMPDEST SWAP2 POP PUSH2 0x20EB DUP3 PUSH2 0x2084 JUMP JUMPDEST PUSH1 0x40 DUP3 ADD SWAP1 POP SWAP2 SWAP1 POP JUMP JUMPDEST PUSH1 0x0 PUSH1 0x20 DUP3 ADD SWAP1 POP DUP2 DUP2 SUB PUSH1 0x0 DUP4 ADD MSTORE PUSH2 0x210F DUP2 PUSH2 0x20D3 JUMP JUMPDEST SWAP1 POP SWAP2 SWAP1 POP JUMP JUMPDEST PUSH32 0x45786368616E676541676772656761746F723A3A5472616E7366657248656C70 PUSH1 0x0 DUP3 ADD MSTORE PUSH32 0x65723A73616665417070726F7665000000000000000000000000000000000000 PUSH1 0x20 DUP3 ADD MSTORE POP JUMP JUMPDEST PUSH1 0x0 PUSH2 0x2172 PUSH1 0x2E DUP4 PUSH2 0x1887 JUMP JUMPDEST SWAP2 POP PUSH2 0x217D DUP3 PUSH2 0x2116 JUMP JUMPDEST PUSH1 0x40 DUP3 ADD SWAP1 POP SWAP2 SWAP1 POP JUMP JUMPDEST PUSH1 0x0 PUSH1 0x20 DUP3 ADD SWAP1 POP DUP2 DUP2 SUB PUSH1 0x0 DUP4 ADD MSTORE PUSH2 0x21A1 DUP2 PUSH2 0x2165 JUMP JUMPDEST SWAP1 POP SWAP2 SWAP1 POP JUMP JUMPDEST PUSH32 0x45786368616E676541676772656761746F723A3A5361666543616C6C65723A73 PUSH1 0x0 DUP3 ADD MSTORE PUSH32 0x61666543616C6C00000000000000000000000000000000000000000000000000 PUSH1 0x20 DUP3 ADD MSTORE POP JUMP JUMPDEST PUSH1 0x0 PUSH2 0x2204 PUSH1 0x27 DUP4 PUSH2 0x1887 JUMP JUMPDEST SWAP2 POP PUSH2 0x220F DUP3 PUSH2 0x21A8 JUMP JUMPDEST PUSH1 0x40 DUP3 ADD SWAP1 POP SWAP2 SWAP1 POP JUMP JUMPDEST PUSH1 0x0 PUSH1 0x20 DUP3 ADD SWAP1 POP DUP2 DUP2 SUB PUSH1 0x0 DUP4 ADD MSTORE PUSH2 0x2233 DUP2 PUSH2 0x21F7 JUMP JUMPDEST SWAP1 POP SWAP2 SWAP1 POP JUMP JUMPDEST PUSH1 0x0 DUP1 REVERT JUMPDEST PUSH32 0x4E487B7100000000000000000000000000000000000000000000000000000000 PUSH1 0x0 MSTORE PUSH1 0x41 PUSH1 0x4 MSTORE PUSH1 0x24 PUSH1 0x0 REVERT JUMPDEST PUSH2 0x2277 DUP3 PUSH2 0x19E2 JUMP JUMPDEST DUP2 ADD DUP2 DUP2 LT PUSH8 0xFFFFFFFFFFFFFFFF DUP3 GT OR ISZERO PUSH2 0x2296 JUMPI PUSH2 0x2295 PUSH2 0x223F JUMP JUMPDEST JUMPDEST DUP1 PUSH1 0x40 MSTORE POP POP POP JUMP JUMPDEST PUSH1 0x0 PUSH2 0x22A9 PUSH2 0x1489 JUMP JUMPDEST SWAP1 POP PUSH2 0x22B5 DUP3 DUP3 PUSH2 0x226E JUMP JUMPDEST SWAP2 SWAP1 POP JUMP JUMPDEST PUSH1 0x0 PUSH8 0xFFFFFFFFFFFFFFFF DUP3 GT ISZERO PUSH2 0x22D5 JUMPI PUSH2 0x22D4 PUSH2 0x223F JUMP JUMPDEST JUMPDEST PUSH2 0x22DE DUP3 PUSH2 0x19E2 JUMP JUMPDEST SWAP1 POP PUSH1 0x20 DUP2 ADD SWAP1 POP SWAP2 SWAP1 POP JUMP JUMPDEST PUSH1 0x0 PUSH2 0x22FE PUSH2 0x22F9 DUP5 PUSH2 0x22BA JUMP JUMPDEST PUSH2 0x229F JUMP JUMPDEST SWAP1 POP DUP3 DUP2 MSTORE PUSH1 0x20 DUP2 ADD DUP5 DUP5 DUP5 ADD GT ISZERO PUSH2 0x231A JUMPI PUSH2 0x2319 PUSH2 0x223A JUMP JUMPDEST JUMPDEST PUSH2 0x2325 DUP5 DUP3 DUP6 PUSH2 0x1E49 JUMP JUMPDEST POP SWAP4 SWAP3 POP POP POP JUMP JUMPDEST PUSH1 0x0 DUP3 PUSH1 0x1F DUP4 ADD SLT PUSH2 0x2342 JUMPI PUSH2 0x2341 PUSH2 0x15FF JUMP JUMPDEST JUMPDEST DUP2 MLOAD PUSH2 0x2352 DUP5 DUP3 PUSH1 0x20 DUP7 ADD PUSH2 0x22EB JUMP JUMPDEST SWAP2 POP POP SWAP3 SWAP2 POP POP JUMP JUMPDEST PUSH1 0x0 PUSH1 0x20 DUP3 DUP5 SUB SLT ISZERO PUSH2 0x2371 JUMPI PUSH2 0x2370 PUSH2 0x1493 JUMP JUMPDEST JUMPDEST PUSH1 0x0 DUP3 ADD MLOAD PUSH8 0xFFFFFFFFFFFFFFFF DUP2 GT ISZERO PUSH2 0x238F JUMPI PUSH2 0x238E PUSH2 0x1498 JUMP JUMPDEST JUMPDEST PUSH2 0x239B DUP5 DUP3 DUP6 ADD PUSH2 0x232D JUMP JUMPDEST SWAP2 POP POP SWAP3 SWAP2 POP POP JUMP JUMPDEST PUSH1 0x0 DUP2 MLOAD SWAP1 POP SWAP2 SWAP1 POP JUMP JUMPDEST PUSH1 0x0 PUSH2 0x23BA DUP3 PUSH2 0x23A4 JUMP JUMPDEST PUSH2 0x23C4 DUP2 DUP6 PUSH2 0x1887 JUMP JUMPDEST SWAP4 POP PUSH2 0x23D4 DUP2 DUP6 PUSH1 0x20 DUP7 ADD PUSH2 0x1E49 JUMP JUMPDEST PUSH2 0x23DD DUP2 PUSH2 0x19E2 JUMP JUMPDEST DUP5 ADD SWAP2 POP POP SWAP3 SWAP2 POP POP JUMP JUMPDEST PUSH1 0x0 PUSH1 0x20 DUP3 ADD SWAP1 POP DUP2 DUP2 SUB PUSH1 0x0 DUP4 ADD MSTORE PUSH2 0x2402 DUP2 DUP5 PUSH2 0x23AF JUMP JUMPDEST SWAP1 POP SWAP3 SWAP2 POP POP JUMP JUMPDEST PUSH32 0x45786368616E676541676772656761746F723A3A5472616E7366657248656C70 PUSH1 0x0 DUP3 ADD MSTORE PUSH32 0x65723A736166655472616E736665724554480000000000000000000000000000 PUSH1 0x20 DUP3 ADD MSTORE POP JUMP JUMPDEST PUSH1 0x0 PUSH2 0x2466 PUSH1 0x32 DUP4 PUSH2 0x1887 JUMP JUMPDEST SWAP2 POP PUSH2 0x2471 DUP3 PUSH2 0x240A JUMP JUMPDEST PUSH1 0x40 DUP3 ADD SWAP1 POP SWAP2 SWAP1 POP JUMP JUMPDEST PUSH1 0x0 PUSH1 0x20 DUP3 ADD SWAP1 POP DUP2 DUP2 SUB PUSH1 0x0 DUP4 ADD MSTORE PUSH2 0x2495 DUP2 PUSH2 0x2459 JUMP JUMPDEST SWAP1 POP SWAP2 SWAP1 POP JUMP JUMPDEST PUSH32 0x4E487B7100000000000000000000000000000000000000000000000000000000 PUSH1 0x0 MSTORE PUSH1 0x21 PUSH1 0x4 MSTORE PUSH1 0x24 PUSH1 0x0 REVERT JUMPDEST PUSH32 0x45434453413A20696E76616C6964207369676E61747572650000000000000000 PUSH1 0x0 DUP3 ADD MSTORE POP JUMP JUMPDEST PUSH1 0x0 PUSH2 0x2501 PUSH1 0x18 DUP4 PUSH2 0x1887 JUMP JUMPDEST SWAP2 POP PUSH2 0x250C DUP3 PUSH2 0x24CB JUMP JUMPDEST PUSH1 0x20 DUP3 ADD SWAP1 POP SWAP2 SWAP1 POP JUMP JUMPDEST PUSH1 0x0 PUSH1 0x20 DUP3 ADD SWAP1 POP DUP2 DUP2 SUB PUSH1 0x0 DUP4 ADD MSTORE PUSH2 0x2530 DUP2 PUSH2 0x24F4 JUMP JUMPDEST SWAP1 POP SWAP2 SWAP1 POP JUMP JUMPDEST PUSH32 0x45434453413A20696E76616C6964207369676E6174757265206C656E67746800 PUSH1 0x0 DUP3 ADD MSTORE POP JUMP JUMPDEST PUSH1 0x0 PUSH2 0x256D PUSH1 0x1F DUP4 PUSH2 0x1887 JUMP JUMPDEST SWAP2 POP PUSH2 0x2578 DUP3 PUSH2 0x2537 JUMP JUMPDEST PUSH1 0x20 DUP3 ADD SWAP1 POP SWAP2 SWAP1 POP JUMP JUMPDEST PUSH1 0x0 PUSH1 0x20 DUP3 ADD SWAP1 POP DUP2 DUP2 SUB PUSH1 0x0 DUP4 ADD MSTORE PUSH2 0x259C DUP2 PUSH2 0x2560 JUMP JUMPDEST SWAP1 POP SWAP2 SWAP1 POP JUMP JUMPDEST PUSH32 0x45434453413A20696E76616C6964207369676E6174757265202773272076616C PUSH1 0x0 DUP3 ADD MSTORE PUSH32 0x7565000000000000000000000000000000000000000000000000000000000000 PUSH1 0x20 DUP3 ADD MSTORE POP JUMP JUMPDEST PUSH1 0x0 PUSH2 0x25FF PUSH1 0x22 DUP4 PUSH2 0x1887 JUMP JUMPDEST SWAP2 POP PUSH2 0x260A DUP3 PUSH2 0x25A3 JUMP JUMPDEST PUSH1 0x40 DUP3 ADD SWAP1 POP SWAP2 SWAP1 POP JUMP JUMPDEST PUSH1 0x0 PUSH1 0x20 DUP3 ADD SWAP1 POP DUP2 DUP2 SUB PUSH1 0x0 DUP4 ADD MSTORE PUSH2 0x262E DUP2 PUSH2 0x25F2 JUMP JUMPDEST SWAP1 POP SWAP2 SWAP1 POP JUMP JUMPDEST PUSH1 0x0 DUP2 SWAP1 POP SWAP2 SWAP1 POP JUMP JUMPDEST PUSH2 0x2648 DUP2 PUSH2 0x2635 JUMP JUMPDEST DUP3 MSTORE POP POP JUMP JUMPDEST PUSH1 0x0 PUSH1 0x80 DUP3 ADD SWAP1 POP PUSH2 0x2663 PUSH1 0x0 DUP4 ADD DUP8 PUSH2 0x263F JUMP JUMPDEST PUSH2 0x2670 PUSH1 0x20 DUP4 ADD DUP7 PUSH2 0x1C3E JUMP JUMPDEST PUSH2 0x267D PUSH1 0x40 DUP4 ADD DUP6 PUSH2 0x263F JUMP JUMPDEST PUSH2 0x268A PUSH1 0x60 DUP4 ADD DUP5 PUSH2 0x263F JUMP JUMPDEST SWAP6 SWAP5 POP POP POP POP POP JUMP INVALID LOG2 PUSH5 0x6970667358 0x22 SLT KECCAK256 PUSH8 0xD9C27A92DAF915DE ORIGIN 0x23 REVERT SUB MSTORE ADDRESS LT 0x5D JUMP 0xEF 0xD7 0xCC 0x4B 0xFC 0x23 0x4E SWAP12 AND 0xBB 0xF7 SWAP12 ISZERO NOT PUSH5 0x736F6C6343 STOP ADDMOD GT STOP CALLER "
				},
				"gasEstimates": {
					"creation": {
						"codeDepositCost": "1985800",
						"executionCost": "infinite",
						"totalCost": "infinite"
					},
					"external": {
						"PriceProvider()": "2603",
						"WETH()": "2536",
						"balanceETH()": "405",
						"balanceToken(address)": "infinite",
						"changePriceProvider(address)": "27030",
						"estimateAmountOut(address,address,address,uint256,uint8)": "infinite",
						"owner()": "2589",
						"renounceOwnership()": "30443",
						"swap((address,uint256,uint256,address,bytes,address),bytes)": "infinite",
						"swapNativeIn((address,uint256,uint256,address,bytes,address),bytes)": "infinite",
						"transferOwnership(address)": "30832",
						"withdrawETH(address,uint256)": "infinite",
						"withdrawToken(address,address,uint256)": "infinite"
					}
				},
				"methodIdentifiers": {
					"PriceProvider()": "4e1a67f5",
					"WETH()": "ad5c4648",
					"balanceETH()": "ecbdbb32",
					"balanceToken(address)": "04599012",
					"changePriceProvider(address)": "ae4f5be8",
					"estimateAmountOut(address,address,address,uint256,uint8)": "6110358d",
					"owner()": "8da5cb5b",
					"renounceOwnership()": "715018a6",
					"swap((address,uint256,uint256,address,bytes,address),bytes)": "2906799b",
					"swapNativeIn((address,uint256,uint256,address,bytes,address),bytes)": "5d86acf1",
					"transferOwnership(address)": "f2fde38b",
					"withdrawETH(address,uint256)": "4782f779",
					"withdrawToken(address,address,uint256)": "01e33667"
				}
			},
			"storageLayout": {
				"storage": [
					{
						"astId": 7,
						"contract": "contracts/ExchangeAggregator.sol:ExchangeAggregator",
						"label": "_owner",
						"offset": 0,
						"slot": "0",
						"type": "t_address"
					},
					{
						"astId": 1494,
						"contract": "contracts/ExchangeAggregator.sol:ExchangeAggregator",
						"label": "WETH",
						"offset": 0,
						"slot": "1",
						"type": "t_address"
					},
					{
						"astId": 1496,
						"contract": "contracts/ExchangeAggregator.sol:ExchangeAggregator",
						"label": "PriceProvider",
						"offset": 0,
						"slot": "2",
						"type": "t_address"
					}
				],
				"types": {
					"t_address": {
						"encoding": "inplace",
						"label": "address",
						"numberOfBytes": "20"
					}
				}
			},
			"userdoc": {
				"kind": "user",
				"methods": {},
				"version": 1
			}
		}
	}
}