{
	"contracts/libraries/UniswapV2.sol": {
		"UniswapV2": {
			"abi": [
				{
					"inputs": [
						{
							"internalType": "address",
							"name": "provider",
							"type": "address"
						},
						{
							"internalType": "address",
							"name": "tIn",
							"type": "address"
						},
						{
							"internalType": "address",
							"name": "tOut",
							"type": "address"
						}
					],
					"name": "Price",
					"outputs": [
						{
							"internalType": "uint256",
							"name": "",
							"type": "uint256"
						}
					],
					"stateMutability": "view",
					"type": "function"
				}
			],
			"devdoc": {
				"kind": "dev",
				"methods": {},
				"version": 1
			},
			"evm": {
				"assembly": "    /* \"contracts/libraries/UniswapV2.sol\":170:526  library UniswapV2 {... */\n  dataSize(sub_0)\n  dataOffset(sub_0)\n  0x0b\n  dup3\n  dup3\n  dup3\n  codecopy\n  dup1\n  mload\n  0x00\n  byte\n  0x73\n  eq\n  tag_1\n  jumpi\n  mstore(0x00, 0x4e487b7100000000000000000000000000000000000000000000000000000000)\n  mstore(0x04, 0x00)\n  revert(0x00, 0x24)\ntag_1:\n  mstore(0x00, address)\n  0x73\n  dup2\n  mstore8\n  dup3\n  dup2\n  return\nstop\n\nsub_0: assembly {\n        /* \"contracts/libraries/UniswapV2.sol\":170:526  library UniswapV2 {... */\n      eq(address, deployTimeAddress())\n      mstore(0x40, 0x80)\n      jumpi(tag_1, lt(calldatasize, 0x04))\n      shr(0xe0, calldataload(0x00))\n      dup1\n      0xc361e0b1\n      eq\n      tag_2\n      jumpi\n    tag_1:\n      0x00\n      dup1\n      revert\n        /* \"contracts/libraries/UniswapV2.sol\":194:523  function Price(address provider, address tIn,address tOut) external view returns (uint256){... */\n    tag_2:\n      tag_3\n      0x04\n      dup1\n      calldatasize\n      sub\n      dup2\n      add\n      swap1\n      tag_4\n      swap2\n      swap1\n      tag_5\n      jump\t// in\n    tag_4:\n      tag_6\n      jump\t// in\n    tag_3:\n      mload(0x40)\n      tag_7\n      swap2\n      swap1\n      tag_8\n      jump\t// in\n    tag_7:\n      mload(0x40)\n      dup1\n      swap2\n      sub\n      swap1\n      return\n    tag_6:\n        /* \"contracts/libraries/UniswapV2.sol\":276:283  uint256 */\n      0x00\n        /* \"contracts/libraries/UniswapV2.sol\":294:315  address[] memory path */\n      dup1\n        /* \"contracts/libraries/UniswapV2.sol\":332:333  2 */\n      0x02\n        /* \"contracts/libraries/UniswapV2.sol\":318:334  new address[](2) */\n      0xffffffffffffffff\n      dup2\n      gt\n      iszero\n      tag_10\n      jumpi\n      tag_11\n      tag_12\n      jump\t// in\n    tag_11:\n    tag_10:\n      mload(0x40)\n      swap1\n      dup1\n      dup3\n      mstore\n      dup1\n      0x20\n      mul\n      0x20\n      add\n      dup3\n      add\n      0x40\n      mstore\n      dup1\n      iszero\n      tag_13\n      jumpi\n      dup2\n      0x20\n      add\n      0x20\n      dup3\n      mul\n      dup1\n      calldatasize\n      dup4\n      calldatacopy\n      dup1\n      dup3\n      add\n      swap2\n      pop\n      pop\n      swap1\n      pop\n    tag_13:\n      pop\n        /* \"contracts/libraries/UniswapV2.sol\":294:334  address[] memory path = new address[](2) */\n      swap1\n      pop\n        /* \"contracts/libraries/UniswapV2.sol\":354:357  tIn */\n      dup4\n        /* \"contracts/libraries/UniswapV2.sol\":344:348  path */\n      dup2\n        /* \"contracts/libraries/UniswapV2.sol\":349:350  0 */\n      0x00\n        /* \"contracts/libraries/UniswapV2.sol\":344:351  path[0] */\n      dup2\n      mload\n      dup2\n      lt\n      tag_14\n      jumpi\n      tag_15\n      tag_16\n      jump\t// in\n    tag_15:\n    tag_14:\n      0x20\n      mul\n      0x20\n      add\n      add\n        /* \"contracts/libraries/UniswapV2.sol\":344:357  path[0] = tIn */\n      swap1\n      0xffffffffffffffffffffffffffffffffffffffff\n      and\n      swap1\n      dup2\n      0xffffffffffffffffffffffffffffffffffffffff\n      and\n      dup2\n      mstore\n      pop\n      pop\n        /* \"contracts/libraries/UniswapV2.sol\":377:381  tOut */\n      dup3\n        /* \"contracts/libraries/UniswapV2.sol\":367:371  path */\n      dup2\n        /* \"contracts/libraries/UniswapV2.sol\":372:373  1 */\n      0x01\n        /* \"contracts/libraries/UniswapV2.sol\":367:374  path[1] */\n      dup2\n      mload\n      dup2\n      lt\n      tag_17\n      jumpi\n      tag_18\n      tag_16\n      jump\t// in\n    tag_18:\n    tag_17:\n      0x20\n      mul\n      0x20\n      add\n      add\n        /* \"contracts/libraries/UniswapV2.sol\":367:381  path[1] = tOut */\n      swap1\n      0xffffffffffffffffffffffffffffffffffffffff\n      and\n      swap1\n      dup2\n      0xffffffffffffffffffffffffffffffffffffffff\n      and\n      dup2\n      mstore\n      pop\n      pop\n        /* \"contracts/libraries/UniswapV2.sol\":391:412  uint[] memory amounts */\n      0x00\n        /* \"contracts/libraries/UniswapV2.sol\":434:442  provider */\n      dup6\n        /* \"contracts/libraries/UniswapV2.sol\":415:457  IUniswapV2Router01(provider).getAmountsOut */\n      0xffffffffffffffffffffffffffffffffffffffff\n      and\n      0xd06ca61f\n        /* \"contracts/libraries/UniswapV2.sol\":469:472  tIn */\n      dup7\n        /* \"contracts/libraries/UniswapV2.sol\":462:482  IERC20(tIn).decimals */\n      0xffffffffffffffffffffffffffffffffffffffff\n      and\n      0x313ce567\n        /* \"contracts/libraries/UniswapV2.sol\":462:484  IERC20(tIn).decimals() */\n      mload(0x40)\n      dup2\n      0xffffffff\n      and\n      0xe0\n      shl\n      dup2\n      mstore\n      0x04\n      add\n      0x20\n      mload(0x40)\n      dup1\n      dup4\n      sub\n      dup2\n      dup7\n      gas\n      staticcall\n      iszero\n      dup1\n      iszero\n      tag_20\n      jumpi\n      returndatasize\n      0x00\n      dup1\n      returndatacopy\n      revert(0x00, returndatasize)\n    tag_20:\n      pop\n      pop\n      pop\n      pop\n      mload(0x40)\n      returndatasize\n      not(0x1f)\n      0x1f\n      dup3\n      add\n      and\n      dup3\n      add\n      dup1\n      0x40\n      mstore\n      pop\n      dup2\n      add\n      swap1\n      tag_21\n      swap2\n      swap1\n      tag_22\n      jump\t// in\n    tag_21:\n        /* \"contracts/libraries/UniswapV2.sol\":458:460  10 */\n      0x0a\n        /* \"contracts/libraries/UniswapV2.sol\":458:484  10**IERC20(tIn).decimals() */\n      tag_23\n      swap2\n      swap1\n      tag_24\n      jump\t// in\n    tag_23:\n        /* \"contracts/libraries/UniswapV2.sol\":485:489  path */\n      dup5\n        /* \"contracts/libraries/UniswapV2.sol\":415:490  IUniswapV2Router01(provider).getAmountsOut(10**IERC20(tIn).decimals(),path) */\n      mload(0x40)\n      dup4\n      0xffffffff\n      and\n      0xe0\n      shl\n      dup2\n      mstore\n      0x04\n      add\n      tag_25\n      swap3\n      swap2\n      swap1\n      tag_26\n      jump\t// in\n    tag_25:\n      0x00\n      mload(0x40)\n      dup1\n      dup4\n      sub\n      dup2\n      dup7\n      gas\n      staticcall\n      iszero\n      dup1\n      iszero\n      tag_28\n      jumpi\n      returndatasize\n      0x00\n      dup1\n      returndatacopy\n      revert(0x00, returndatasize)\n    tag_28:\n      pop\n      pop\n      pop\n      pop\n      mload(0x40)\n      returndatasize\n      0x00\n      dup3\n      returndatacopy\n      returndatasize\n      not(0x1f)\n      0x1f\n      dup3\n      add\n      and\n      dup3\n      add\n      dup1\n      0x40\n      mstore\n      pop\n      dup2\n      add\n      swap1\n      tag_29\n      swap2\n      swap1\n      tag_30\n      jump\t// in\n    tag_29:\n        /* \"contracts/libraries/UniswapV2.sol\":391:490  uint[] memory amounts = IUniswapV2Router01(provider).getAmountsOut(10**IERC20(tIn).decimals(),path) */\n      swap1\n      pop\n        /* \"contracts/libraries/UniswapV2.sol\":506:513  amounts */\n      dup1\n        /* \"contracts/libraries/UniswapV2.sol\":514:515  1 */\n      0x01\n        /* \"contracts/libraries/UniswapV2.sol\":506:516  amounts[1] */\n      dup2\n      mload\n      dup2\n      lt\n      tag_31\n      jumpi\n      tag_32\n      tag_16\n      jump\t// in\n    tag_32:\n    tag_31:\n      0x20\n      mul\n      0x20\n      add\n      add\n      mload\n        /* \"contracts/libraries/UniswapV2.sol\":499:516  return amounts[1] */\n      swap3\n      pop\n      pop\n      pop\n        /* \"contracts/libraries/UniswapV2.sol\":194:523  function Price(address provider, address tIn,address tOut) external view returns (uint256){... */\n      swap4\n      swap3\n      pop\n      pop\n      pop\n      jump\t// out\n        /* \"#utility.yul\":7:82   */\n    tag_33:\n        /* \"#utility.yul\":40:46   */\n      0x00\n        /* \"#utility.yul\":73:75   */\n      0x40\n        /* \"#utility.yul\":67:76   */\n      mload\n        /* \"#utility.yul\":57:76   */\n      swap1\n      pop\n        /* \"#utility.yul\":7:82   */\n      swap1\n      jump\t// out\n        /* \"#utility.yul\":88:205   */\n    tag_34:\n        /* \"#utility.yul\":197:198   */\n      0x00\n        /* \"#utility.yul\":194:195   */\n      dup1\n        /* \"#utility.yul\":187:199   */\n      revert\n        /* \"#utility.yul\":211:328   */\n    tag_35:\n        /* \"#utility.yul\":320:321   */\n      0x00\n        /* \"#utility.yul\":317:318   */\n      dup1\n        /* \"#utility.yul\":310:322   */\n      revert\n        /* \"#utility.yul\":334:460   */\n    tag_36:\n        /* \"#utility.yul\":371:378   */\n      0x00\n        /* \"#utility.yul\":411:453   */\n      0xffffffffffffffffffffffffffffffffffffffff\n        /* \"#utility.yul\":404:409   */\n      dup3\n        /* \"#utility.yul\":400:454   */\n      and\n        /* \"#utility.yul\":389:454   */\n      swap1\n      pop\n        /* \"#utility.yul\":334:460   */\n      swap2\n      swap1\n      pop\n      jump\t// out\n        /* \"#utility.yul\":466:562   */\n    tag_37:\n        /* \"#utility.yul\":503:510   */\n      0x00\n        /* \"#utility.yul\":532:556   */\n      tag_73\n        /* \"#utility.yul\":550:555   */\n      dup3\n        /* \"#utility.yul\":532:556   */\n      tag_36\n      jump\t// in\n    tag_73:\n        /* \"#utility.yul\":521:556   */\n      swap1\n      pop\n        /* \"#utility.yul\":466:562   */\n      swap2\n      swap1\n      pop\n      jump\t// out\n        /* \"#utility.yul\":568:690   */\n    tag_38:\n        /* \"#utility.yul\":641:665   */\n      tag_75\n        /* \"#utility.yul\":659:664   */\n      dup2\n        /* \"#utility.yul\":641:665   */\n      tag_37\n      jump\t// in\n    tag_75:\n        /* \"#utility.yul\":634:639   */\n      dup2\n        /* \"#utility.yul\":631:666   */\n      eq\n        /* \"#utility.yul\":621:684   */\n      tag_76\n      jumpi\n        /* \"#utility.yul\":680:681   */\n      0x00\n        /* \"#utility.yul\":677:678   */\n      dup1\n        /* \"#utility.yul\":670:682   */\n      revert\n        /* \"#utility.yul\":621:684   */\n    tag_76:\n        /* \"#utility.yul\":568:690   */\n      pop\n      jump\t// out\n        /* \"#utility.yul\":696:835   */\n    tag_39:\n        /* \"#utility.yul\":742:747   */\n      0x00\n        /* \"#utility.yul\":780:786   */\n      dup2\n        /* \"#utility.yul\":767:787   */\n      calldataload\n        /* \"#utility.yul\":758:787   */\n      swap1\n      pop\n        /* \"#utility.yul\":796:829   */\n      tag_78\n        /* \"#utility.yul\":823:828   */\n      dup2\n        /* \"#utility.yul\":796:829   */\n      tag_38\n      jump\t// in\n    tag_78:\n        /* \"#utility.yul\":696:835   */\n      swap3\n      swap2\n      pop\n      pop\n      jump\t// out\n        /* \"#utility.yul\":841:1460   */\n    tag_5:\n        /* \"#utility.yul\":918:924   */\n      0x00\n        /* \"#utility.yul\":926:932   */\n      dup1\n        /* \"#utility.yul\":934:940   */\n      0x00\n        /* \"#utility.yul\":983:985   */\n      0x60\n        /* \"#utility.yul\":971:980   */\n      dup5\n        /* \"#utility.yul\":962:969   */\n      dup7\n        /* \"#utility.yul\":958:981   */\n      sub\n        /* \"#utility.yul\":954:986   */\n      slt\n        /* \"#utility.yul\":951:1070   */\n      iszero\n      tag_80\n      jumpi\n        /* \"#utility.yul\":989:1068   */\n      tag_81\n      tag_34\n      jump\t// in\n    tag_81:\n        /* \"#utility.yul\":951:1070   */\n    tag_80:\n        /* \"#utility.yul\":1109:1110   */\n      0x00\n        /* \"#utility.yul\":1134:1187   */\n      tag_82\n        /* \"#utility.yul\":1179:1186   */\n      dup7\n        /* \"#utility.yul\":1170:1176   */\n      dup3\n        /* \"#utility.yul\":1159:1168   */\n      dup8\n        /* \"#utility.yul\":1155:1177   */\n      add\n        /* \"#utility.yul\":1134:1187   */\n      tag_39\n      jump\t// in\n    tag_82:\n        /* \"#utility.yul\":1124:1187   */\n      swap4\n      pop\n        /* \"#utility.yul\":1080:1197   */\n      pop\n        /* \"#utility.yul\":1236:1238   */\n      0x20\n        /* \"#utility.yul\":1262:1315   */\n      tag_83\n        /* \"#utility.yul\":1307:1314   */\n      dup7\n        /* \"#utility.yul\":1298:1304   */\n      dup3\n        /* \"#utility.yul\":1287:1296   */\n      dup8\n        /* \"#utility.yul\":1283:1305   */\n      add\n        /* \"#utility.yul\":1262:1315   */\n      tag_39\n      jump\t// in\n    tag_83:\n        /* \"#utility.yul\":1252:1315   */\n      swap3\n      pop\n        /* \"#utility.yul\":1207:1325   */\n      pop\n        /* \"#utility.yul\":1364:1366   */\n      0x40\n        /* \"#utility.yul\":1390:1443   */\n      tag_84\n        /* \"#utility.yul\":1435:1442   */\n      dup7\n        /* \"#utility.yul\":1426:1432   */\n      dup3\n        /* \"#utility.yul\":1415:1424   */\n      dup8\n        /* \"#utility.yul\":1411:1433   */\n      add\n        /* \"#utility.yul\":1390:1443   */\n      tag_39\n      jump\t// in\n    tag_84:\n        /* \"#utility.yul\":1380:1443   */\n      swap2\n      pop\n        /* \"#utility.yul\":1335:1453   */\n      pop\n        /* \"#utility.yul\":841:1460   */\n      swap3\n      pop\n      swap3\n      pop\n      swap3\n      jump\t// out\n        /* \"#utility.yul\":1466:1543   */\n    tag_40:\n        /* \"#utility.yul\":1503:1510   */\n      0x00\n        /* \"#utility.yul\":1532:1537   */\n      dup2\n        /* \"#utility.yul\":1521:1537   */\n      swap1\n      pop\n        /* \"#utility.yul\":1466:1543   */\n      swap2\n      swap1\n      pop\n      jump\t// out\n        /* \"#utility.yul\":1549:1675   */\n    tag_41:\n        /* \"#utility.yul\":1644:1668   */\n      tag_87\n        /* \"#utility.yul\":1662:1667   */\n      dup2\n        /* \"#utility.yul\":1644:1668   */\n      tag_40\n      jump\t// in\n    tag_87:\n        /* \"#utility.yul\":1639:1642   */\n      dup3\n        /* \"#utility.yul\":1632:1669   */\n      mstore\n        /* \"#utility.yul\":1549:1675   */\n      pop\n      pop\n      jump\t// out\n        /* \"#utility.yul\":1681:1919   */\n    tag_8:\n        /* \"#utility.yul\":1782:1786   */\n      0x00\n        /* \"#utility.yul\":1820:1822   */\n      0x20\n        /* \"#utility.yul\":1809:1818   */\n      dup3\n        /* \"#utility.yul\":1805:1823   */\n      add\n        /* \"#utility.yul\":1797:1823   */\n      swap1\n      pop\n        /* \"#utility.yul\":1833:1912   */\n      tag_89\n        /* \"#utility.yul\":1909:1910   */\n      0x00\n        /* \"#utility.yul\":1898:1907   */\n      dup4\n        /* \"#utility.yul\":1894:1911   */\n      add\n        /* \"#utility.yul\":1885:1891   */\n      dup5\n        /* \"#utility.yul\":1833:1912   */\n      tag_41\n      jump\t// in\n    tag_89:\n        /* \"#utility.yul\":1681:1919   */\n      swap3\n      swap2\n      pop\n      pop\n      jump\t// out\n        /* \"#utility.yul\":1925:2105   */\n    tag_12:\n        /* \"#utility.yul\":1973:2050   */\n      0x4e487b7100000000000000000000000000000000000000000000000000000000\n        /* \"#utility.yul\":1970:1971   */\n      0x00\n        /* \"#utility.yul\":1963:2051   */\n      mstore\n        /* \"#utility.yul\":2070:2074   */\n      0x41\n        /* \"#utility.yul\":2067:2068   */\n      0x04\n        /* \"#utility.yul\":2060:2075   */\n      mstore\n        /* \"#utility.yul\":2094:2098   */\n      0x24\n        /* \"#utility.yul\":2091:2092   */\n      0x00\n        /* \"#utility.yul\":2084:2099   */\n      revert\n        /* \"#utility.yul\":2111:2291   */\n    tag_16:\n        /* \"#utility.yul\":2159:2236   */\n      0x4e487b7100000000000000000000000000000000000000000000000000000000\n        /* \"#utility.yul\":2156:2157   */\n      0x00\n        /* \"#utility.yul\":2149:2237   */\n      mstore\n        /* \"#utility.yul\":2256:2260   */\n      0x32\n        /* \"#utility.yul\":2253:2254   */\n      0x04\n        /* \"#utility.yul\":2246:2261   */\n      mstore\n        /* \"#utility.yul\":2280:2284   */\n      0x24\n        /* \"#utility.yul\":2277:2278   */\n      0x00\n        /* \"#utility.yul\":2270:2285   */\n      revert\n        /* \"#utility.yul\":2297:2383   */\n    tag_42:\n        /* \"#utility.yul\":2332:2339   */\n      0x00\n        /* \"#utility.yul\":2372:2376   */\n      0xff\n        /* \"#utility.yul\":2365:2370   */\n      dup3\n        /* \"#utility.yul\":2361:2377   */\n      and\n        /* \"#utility.yul\":2350:2377   */\n      swap1\n      pop\n        /* \"#utility.yul\":2297:2383   */\n      swap2\n      swap1\n      pop\n      jump\t// out\n        /* \"#utility.yul\":2389:2507   */\n    tag_43:\n        /* \"#utility.yul\":2460:2482   */\n      tag_94\n        /* \"#utility.yul\":2476:2481   */\n      dup2\n        /* \"#utility.yul\":2460:2482   */\n      tag_42\n      jump\t// in\n    tag_94:\n        /* \"#utility.yul\":2453:2458   */\n      dup2\n        /* \"#utility.yul\":2450:2483   */\n      eq\n        /* \"#utility.yul\":2440:2501   */\n      tag_95\n      jumpi\n        /* \"#utility.yul\":2497:2498   */\n      0x00\n        /* \"#utility.yul\":2494:2495   */\n      dup1\n        /* \"#utility.yul\":2487:2499   */\n      revert\n        /* \"#utility.yul\":2440:2501   */\n    tag_95:\n        /* \"#utility.yul\":2389:2507   */\n      pop\n      jump\t// out\n        /* \"#utility.yul\":2513:2652   */\n    tag_44:\n        /* \"#utility.yul\":2568:2573   */\n      0x00\n        /* \"#utility.yul\":2599:2605   */\n      dup2\n        /* \"#utility.yul\":2593:2606   */\n      mload\n        /* \"#utility.yul\":2584:2606   */\n      swap1\n      pop\n        /* \"#utility.yul\":2615:2646   */\n      tag_97\n        /* \"#utility.yul\":2640:2645   */\n      dup2\n        /* \"#utility.yul\":2615:2646   */\n      tag_43\n      jump\t// in\n    tag_97:\n        /* \"#utility.yul\":2513:2652   */\n      swap3\n      swap2\n      pop\n      pop\n      jump\t// out\n        /* \"#utility.yul\":2658:3005   */\n    tag_22:\n        /* \"#utility.yul\":2726:2732   */\n      0x00\n        /* \"#utility.yul\":2775:2777   */\n      0x20\n        /* \"#utility.yul\":2763:2772   */\n      dup3\n        /* \"#utility.yul\":2754:2761   */\n      dup5\n        /* \"#utility.yul\":2750:2773   */\n      sub\n        /* \"#utility.yul\":2746:2778   */\n      slt\n        /* \"#utility.yul\":2743:2862   */\n      iszero\n      tag_99\n      jumpi\n        /* \"#utility.yul\":2781:2860   */\n      tag_100\n      tag_34\n      jump\t// in\n    tag_100:\n        /* \"#utility.yul\":2743:2862   */\n    tag_99:\n        /* \"#utility.yul\":2901:2902   */\n      0x00\n        /* \"#utility.yul\":2926:2988   */\n      tag_101\n        /* \"#utility.yul\":2980:2987   */\n      dup5\n        /* \"#utility.yul\":2971:2977   */\n      dup3\n        /* \"#utility.yul\":2960:2969   */\n      dup6\n        /* \"#utility.yul\":2956:2978   */\n      add\n        /* \"#utility.yul\":2926:2988   */\n      tag_44\n      jump\t// in\n    tag_101:\n        /* \"#utility.yul\":2916:2988   */\n      swap2\n      pop\n        /* \"#utility.yul\":2872:2998   */\n      pop\n        /* \"#utility.yul\":2658:3005   */\n      swap3\n      swap2\n      pop\n      pop\n      jump\t// out\n        /* \"#utility.yul\":3011:3191   */\n    tag_45:\n        /* \"#utility.yul\":3059:3136   */\n      0x4e487b7100000000000000000000000000000000000000000000000000000000\n        /* \"#utility.yul\":3056:3057   */\n      0x00\n        /* \"#utility.yul\":3049:3137   */\n      mstore\n        /* \"#utility.yul\":3156:3160   */\n      0x11\n        /* \"#utility.yul\":3153:3154   */\n      0x04\n        /* \"#utility.yul\":3146:3161   */\n      mstore\n        /* \"#utility.yul\":3180:3184   */\n      0x24\n        /* \"#utility.yul\":3177:3178   */\n      0x00\n        /* \"#utility.yul\":3170:3185   */\n      revert\n        /* \"#utility.yul\":3197:3299   */\n    tag_46:\n        /* \"#utility.yul\":3239:3247   */\n      0x00\n        /* \"#utility.yul\":3286:3291   */\n      dup2\n        /* \"#utility.yul\":3283:3284   */\n      0x01\n        /* \"#utility.yul\":3279:3292   */\n      shr\n        /* \"#utility.yul\":3258:3292   */\n      swap1\n      pop\n        /* \"#utility.yul\":3197:3299   */\n      swap2\n      swap1\n      pop\n      jump\t// out\n        /* \"#utility.yul\":3305:4153   */\n    tag_47:\n        /* \"#utility.yul\":3366:3371   */\n      0x00\n        /* \"#utility.yul\":3373:3377   */\n      dup1\n        /* \"#utility.yul\":3397:3403   */\n      dup3\n        /* \"#utility.yul\":3388:3403   */\n      swap2\n      pop\n        /* \"#utility.yul\":3421:3426   */\n      dup4\n        /* \"#utility.yul\":3412:3426   */\n      swap1\n      pop\n        /* \"#utility.yul\":3435:4147   */\n    tag_105:\n        /* \"#utility.yul\":3456:3457   */\n      0x01\n        /* \"#utility.yul\":3446:3454   */\n      dup6\n        /* \"#utility.yul\":3443:3458   */\n      gt\n        /* \"#utility.yul\":3435:4147   */\n      iszero\n      tag_107\n      jumpi\n        /* \"#utility.yul\":3551:3555   */\n      dup1\n        /* \"#utility.yul\":3546:3549   */\n      dup7\n        /* \"#utility.yul\":3542:3556   */\n      div\n        /* \"#utility.yul\":3536:3540   */\n      dup2\n        /* \"#utility.yul\":3533:3557   */\n      gt\n        /* \"#utility.yul\":3530:3580   */\n      iszero\n      tag_108\n      jumpi\n        /* \"#utility.yul\":3560:3578   */\n      tag_109\n      tag_45\n      jump\t// in\n    tag_109:\n        /* \"#utility.yul\":3530:3580   */\n    tag_108:\n        /* \"#utility.yul\":3610:3611   */\n      0x01\n        /* \"#utility.yul\":3600:3608   */\n      dup6\n        /* \"#utility.yul\":3596:3612   */\n      and\n        /* \"#utility.yul\":3593:4044   */\n      iszero\n      tag_110\n      jumpi\n        /* \"#utility.yul\":4025:4029   */\n      dup1\n        /* \"#utility.yul\":4018:4023   */\n      dup3\n        /* \"#utility.yul\":4014:4030   */\n      mul\n        /* \"#utility.yul\":4005:4030   */\n      swap2\n      pop\n        /* \"#utility.yul\":3593:4044   */\n    tag_110:\n        /* \"#utility.yul\":4075:4079   */\n      dup1\n        /* \"#utility.yul\":4069:4073   */\n      dup2\n        /* \"#utility.yul\":4065:4080   */\n      mul\n        /* \"#utility.yul\":4057:4080   */\n      swap1\n      pop\n        /* \"#utility.yul\":4105:4137   */\n      tag_111\n        /* \"#utility.yul\":4128:4136   */\n      dup6\n        /* \"#utility.yul\":4105:4137   */\n      tag_46\n      jump\t// in\n    tag_111:\n        /* \"#utility.yul\":4093:4137   */\n      swap5\n      pop\n        /* \"#utility.yul\":3435:4147   */\n      jump(tag_105)\n    tag_107:\n        /* \"#utility.yul\":3305:4153   */\n      swap5\n      pop\n      swap5\n      swap3\n      pop\n      pop\n      pop\n      jump\t// out\n        /* \"#utility.yul\":4159:5232   */\n    tag_48:\n        /* \"#utility.yul\":4213:4218   */\n      0x00\n        /* \"#utility.yul\":4404:4412   */\n      dup3\n        /* \"#utility.yul\":4394:4434   */\n      tag_113\n      jumpi\n        /* \"#utility.yul\":4425:4426   */\n      0x01\n        /* \"#utility.yul\":4416:4426   */\n      swap1\n      pop\n        /* \"#utility.yul\":4427:4432   */\n      jump(tag_112)\n        /* \"#utility.yul\":4394:4434   */\n    tag_113:\n        /* \"#utility.yul\":4453:4457   */\n      dup2\n        /* \"#utility.yul\":4443:4479   */\n      tag_114\n      jumpi\n        /* \"#utility.yul\":4470:4471   */\n      0x00\n        /* \"#utility.yul\":4461:4471   */\n      swap1\n      pop\n        /* \"#utility.yul\":4472:4477   */\n      jump(tag_112)\n        /* \"#utility.yul\":4443:4479   */\n    tag_114:\n        /* \"#utility.yul\":4539:4543   */\n      dup2\n        /* \"#utility.yul\":4587:4588   */\n      0x01\n        /* \"#utility.yul\":4582:4609   */\n      dup2\n      eq\n      tag_116\n      jumpi\n        /* \"#utility.yul\":4623:4624   */\n      0x02\n        /* \"#utility.yul\":4618:4809   */\n      dup2\n      eq\n      tag_117\n      jumpi\n        /* \"#utility.yul\":4532:4809   */\n      jump(tag_115)\n        /* \"#utility.yul\":4582:4609   */\n    tag_116:\n        /* \"#utility.yul\":4600:4601   */\n      0x01\n        /* \"#utility.yul\":4591:4601   */\n      swap2\n      pop\n        /* \"#utility.yul\":4602:4607   */\n      pop\n      jump(tag_112)\n        /* \"#utility.yul\":4618:4809   */\n    tag_117:\n        /* \"#utility.yul\":4663:4666   */\n      0xff\n        /* \"#utility.yul\":4653:4661   */\n      dup5\n        /* \"#utility.yul\":4650:4667   */\n      gt\n        /* \"#utility.yul\":4647:4690   */\n      iszero\n      tag_118\n      jumpi\n        /* \"#utility.yul\":4670:4688   */\n      tag_119\n      tag_45\n      jump\t// in\n    tag_119:\n        /* \"#utility.yul\":4647:4690   */\n    tag_118:\n        /* \"#utility.yul\":4719:4727   */\n      dup4\n        /* \"#utility.yul\":4716:4717   */\n      0x02\n        /* \"#utility.yul\":4712:4728   */\n      exp\n        /* \"#utility.yul\":4703:4728   */\n      swap2\n      pop\n        /* \"#utility.yul\":4754:4757   */\n      dup5\n        /* \"#utility.yul\":4747:4752   */\n      dup3\n        /* \"#utility.yul\":4744:4758   */\n      gt\n        /* \"#utility.yul\":4741:4781   */\n      iszero\n      tag_120\n      jumpi\n        /* \"#utility.yul\":4761:4779   */\n      tag_121\n      tag_45\n      jump\t// in\n    tag_121:\n        /* \"#utility.yul\":4741:4781   */\n    tag_120:\n        /* \"#utility.yul\":4794:4799   */\n      pop\n      jump(tag_112)\n        /* \"#utility.yul\":4532:4809   */\n    tag_115:\n      pop\n        /* \"#utility.yul\":4918:4920   */\n      0x20\n        /* \"#utility.yul\":4908:4916   */\n      dup4\n        /* \"#utility.yul\":4905:4921   */\n      lt\n        /* \"#utility.yul\":4899:4902   */\n      0x0133\n        /* \"#utility.yul\":4893:4897   */\n      dup4\n        /* \"#utility.yul\":4890:4903   */\n      lt\n        /* \"#utility.yul\":4886:4922   */\n      and\n        /* \"#utility.yul\":4868:4870   */\n      0x4e\n        /* \"#utility.yul\":4858:4866   */\n      dup5\n        /* \"#utility.yul\":4855:4871   */\n      lt\n        /* \"#utility.yul\":4850:4852   */\n      0x0b\n        /* \"#utility.yul\":4844:4848   */\n      dup5\n        /* \"#utility.yul\":4841:4853   */\n      lt\n        /* \"#utility.yul\":4837:4872   */\n      and\n        /* \"#utility.yul\":4821:4932   */\n      or\n        /* \"#utility.yul\":4818:5064   */\n      iszero\n      tag_122\n      jumpi\n        /* \"#utility.yul\":4974:4982   */\n      dup3\n        /* \"#utility.yul\":4968:4972   */\n      dup3\n        /* \"#utility.yul\":4964:4983   */\n      exp\n        /* \"#utility.yul\":4955:4983   */\n      swap1\n      pop\n        /* \"#utility.yul\":5009:5012   */\n      dup4\n        /* \"#utility.yul\":5002:5007   */\n      dup2\n        /* \"#utility.yul\":4999:5013   */\n      gt\n        /* \"#utility.yul\":4996:5036   */\n      iszero\n      tag_123\n      jumpi\n        /* \"#utility.yul\":5016:5034   */\n      tag_124\n      tag_45\n      jump\t// in\n    tag_124:\n        /* \"#utility.yul\":4996:5036   */\n    tag_123:\n        /* \"#utility.yul\":5049:5054   */\n      jump(tag_112)\n        /* \"#utility.yul\":4818:5064   */\n    tag_122:\n        /* \"#utility.yul\":5089:5131   */\n      tag_125\n        /* \"#utility.yul\":5127:5130   */\n      dup5\n        /* \"#utility.yul\":5117:5125   */\n      dup5\n        /* \"#utility.yul\":5111:5115   */\n      dup5\n        /* \"#utility.yul\":5108:5109   */\n      0x01\n        /* \"#utility.yul\":5089:5131   */\n      tag_47\n      jump\t// in\n    tag_125:\n        /* \"#utility.yul\":5074:5131   */\n      swap3\n      pop\n      swap1\n      pop\n        /* \"#utility.yul\":5163:5167   */\n      dup2\n        /* \"#utility.yul\":5158:5161   */\n      dup5\n        /* \"#utility.yul\":5154:5168   */\n      div\n        /* \"#utility.yul\":5147:5152   */\n      dup2\n        /* \"#utility.yul\":5144:5169   */\n      gt\n        /* \"#utility.yul\":5141:5192   */\n      iszero\n      tag_126\n      jumpi\n        /* \"#utility.yul\":5172:5190   */\n      tag_127\n      tag_45\n      jump\t// in\n    tag_127:\n        /* \"#utility.yul\":5141:5192   */\n    tag_126:\n        /* \"#utility.yul\":5221:5225   */\n      dup2\n        /* \"#utility.yul\":5214:5219   */\n      dup2\n        /* \"#utility.yul\":5210:5226   */\n      mul\n        /* \"#utility.yul\":5201:5226   */\n      swap1\n      pop\n        /* \"#utility.yul\":4159:5232   */\n    tag_112:\n      swap4\n      swap3\n      pop\n      pop\n      pop\n      jump\t// out\n        /* \"#utility.yul\":5238:5519   */\n    tag_24:\n        /* \"#utility.yul\":5296:5301   */\n      0x00\n        /* \"#utility.yul\":5320:5343   */\n      tag_129\n        /* \"#utility.yul\":5338:5342   */\n      dup3\n        /* \"#utility.yul\":5320:5343   */\n      tag_40\n      jump\t// in\n    tag_129:\n        /* \"#utility.yul\":5312:5343   */\n      swap2\n      pop\n        /* \"#utility.yul\":5364:5389   */\n      tag_130\n        /* \"#utility.yul\":5380:5388   */\n      dup4\n        /* \"#utility.yul\":5364:5389   */\n      tag_42\n      jump\t// in\n    tag_130:\n        /* \"#utility.yul\":5352:5389   */\n      swap3\n      pop\n        /* \"#utility.yul\":5408:5512   */\n      tag_131\n        /* \"#utility.yul\":5445:5511   */\n      0xffffffffffffffffffffffffffffffffffffffffffffffffffffffffffffffff\n        /* \"#utility.yul\":5435:5443   */\n      dup5\n        /* \"#utility.yul\":5429:5433   */\n      dup5\n        /* \"#utility.yul\":5408:5512   */\n      tag_48\n      jump\t// in\n    tag_131:\n        /* \"#utility.yul\":5399:5512   */\n      swap1\n      pop\n        /* \"#utility.yul\":5238:5519   */\n      swap3\n      swap2\n      pop\n      pop\n      jump\t// out\n        /* \"#utility.yul\":5525:5643   */\n    tag_49:\n        /* \"#utility.yul\":5612:5636   */\n      tag_133\n        /* \"#utility.yul\":5630:5635   */\n      dup2\n        /* \"#utility.yul\":5612:5636   */\n      tag_40\n      jump\t// in\n    tag_133:\n        /* \"#utility.yul\":5607:5610   */\n      dup3\n        /* \"#utility.yul\":5600:5637   */\n      mstore\n        /* \"#utility.yul\":5525:5643   */\n      pop\n      pop\n      jump\t// out\n        /* \"#utility.yul\":5649:5763   */\n    tag_50:\n        /* \"#utility.yul\":5716:5722   */\n      0x00\n        /* \"#utility.yul\":5750:5755   */\n      dup2\n        /* \"#utility.yul\":5744:5756   */\n      mload\n        /* \"#utility.yul\":5734:5756   */\n      swap1\n      pop\n        /* \"#utility.yul\":5649:5763   */\n      swap2\n      swap1\n      pop\n      jump\t// out\n        /* \"#utility.yul\":5769:5953   */\n    tag_51:\n        /* \"#utility.yul\":5868:5879   */\n      0x00\n        /* \"#utility.yul\":5902:5908   */\n      dup3\n        /* \"#utility.yul\":5897:5900   */\n      dup3\n        /* \"#utility.yul\":5890:5909   */\n      mstore\n        /* \"#utility.yul\":5942:5946   */\n      0x20\n        /* \"#utility.yul\":5937:5940   */\n      dup3\n        /* \"#utility.yul\":5933:5947   */\n      add\n        /* \"#utility.yul\":5918:5947   */\n      swap1\n      pop\n        /* \"#utility.yul\":5769:5953   */\n      swap3\n      swap2\n      pop\n      pop\n      jump\t// out\n        /* \"#utility.yul\":5959:6091   */\n    tag_52:\n        /* \"#utility.yul\":6026:6030   */\n      0x00\n        /* \"#utility.yul\":6049:6052   */\n      dup2\n        /* \"#utility.yul\":6041:6052   */\n      swap1\n      pop\n        /* \"#utility.yul\":6079:6083   */\n      0x20\n        /* \"#utility.yul\":6074:6077   */\n      dup3\n        /* \"#utility.yul\":6070:6084   */\n      add\n        /* \"#utility.yul\":6062:6084   */\n      swap1\n      pop\n        /* \"#utility.yul\":5959:6091   */\n      swap2\n      swap1\n      pop\n      jump\t// out\n        /* \"#utility.yul\":6097:6205   */\n    tag_53:\n        /* \"#utility.yul\":6174:6198   */\n      tag_138\n        /* \"#utility.yul\":6192:6197   */\n      dup2\n        /* \"#utility.yul\":6174:6198   */\n      tag_37\n      jump\t// in\n    tag_138:\n        /* \"#utility.yul\":6169:6172   */\n      dup3\n        /* \"#utility.yul\":6162:6199   */\n      mstore\n        /* \"#utility.yul\":6097:6205   */\n      pop\n      pop\n      jump\t// out\n        /* \"#utility.yul\":6211:6390   */\n    tag_54:\n        /* \"#utility.yul\":6280:6290   */\n      0x00\n        /* \"#utility.yul\":6301:6347   */\n      tag_140\n        /* \"#utility.yul\":6343:6346   */\n      dup4\n        /* \"#utility.yul\":6335:6341   */\n      dup4\n        /* \"#utility.yul\":6301:6347   */\n      tag_53\n      jump\t// in\n    tag_140:\n        /* \"#utility.yul\":6379:6383   */\n      0x20\n        /* \"#utility.yul\":6374:6377   */\n      dup4\n        /* \"#utility.yul\":6370:6384   */\n      add\n        /* \"#utility.yul\":6356:6384   */\n      swap1\n      pop\n        /* \"#utility.yul\":6211:6390   */\n      swap3\n      swap2\n      pop\n      pop\n      jump\t// out\n        /* \"#utility.yul\":6396:6509   */\n    tag_55:\n        /* \"#utility.yul\":6466:6470   */\n      0x00\n        /* \"#utility.yul\":6498:6502   */\n      0x20\n        /* \"#utility.yul\":6493:6496   */\n      dup3\n        /* \"#utility.yul\":6489:6503   */\n      add\n        /* \"#utility.yul\":6481:6503   */\n      swap1\n      pop\n        /* \"#utility.yul\":6396:6509   */\n      swap2\n      swap1\n      pop\n      jump\t// out\n        /* \"#utility.yul\":6545:7277   */\n    tag_56:\n        /* \"#utility.yul\":6664:6667   */\n      0x00\n        /* \"#utility.yul\":6693:6747   */\n      tag_143\n        /* \"#utility.yul\":6741:6746   */\n      dup3\n        /* \"#utility.yul\":6693:6747   */\n      tag_50\n      jump\t// in\n    tag_143:\n        /* \"#utility.yul\":6763:6849   */\n      tag_144\n        /* \"#utility.yul\":6842:6848   */\n      dup2\n        /* \"#utility.yul\":6837:6840   */\n      dup6\n        /* \"#utility.yul\":6763:6849   */\n      tag_51\n      jump\t// in\n    tag_144:\n        /* \"#utility.yul\":6756:6849   */\n      swap4\n      pop\n        /* \"#utility.yul\":6873:6929   */\n      tag_145\n        /* \"#utility.yul\":6923:6928   */\n      dup4\n        /* \"#utility.yul\":6873:6929   */\n      tag_52\n      jump\t// in\n    tag_145:\n        /* \"#utility.yul\":6952:6959   */\n      dup1\n        /* \"#utility.yul\":6983:6984   */\n      0x00\n        /* \"#utility.yul\":6968:7252   */\n    tag_146:\n        /* \"#utility.yul\":6993:6999   */\n      dup4\n        /* \"#utility.yul\":6990:6991   */\n      dup2\n        /* \"#utility.yul\":6987:7000   */\n      lt\n        /* \"#utility.yul\":6968:7252   */\n      iszero\n      tag_148\n      jumpi\n        /* \"#utility.yul\":7069:7075   */\n      dup2\n        /* \"#utility.yul\":7063:7076   */\n      mload\n        /* \"#utility.yul\":7096:7159   */\n      tag_149\n        /* \"#utility.yul\":7155:7158   */\n      dup9\n        /* \"#utility.yul\":7140:7153   */\n      dup3\n        /* \"#utility.yul\":7096:7159   */\n      tag_54\n      jump\t// in\n    tag_149:\n        /* \"#utility.yul\":7089:7159   */\n      swap8\n      pop\n        /* \"#utility.yul\":7182:7242   */\n      tag_150\n        /* \"#utility.yul\":7235:7241   */\n      dup4\n        /* \"#utility.yul\":7182:7242   */\n      tag_55\n      jump\t// in\n    tag_150:\n        /* \"#utility.yul\":7172:7242   */\n      swap3\n      pop\n        /* \"#utility.yul\":7028:7252   */\n      pop\n        /* \"#utility.yul\":7015:7016   */\n      0x01\n        /* \"#utility.yul\":7012:7013   */\n      dup2\n        /* \"#utility.yul\":7008:7017   */\n      add\n        /* \"#utility.yul\":7003:7017   */\n      swap1\n      pop\n        /* \"#utility.yul\":6968:7252   */\n      jump(tag_146)\n    tag_148:\n        /* \"#utility.yul\":6972:6986   */\n      pop\n        /* \"#utility.yul\":7268:7271   */\n      dup6\n        /* \"#utility.yul\":7261:7271   */\n      swap4\n      pop\n        /* \"#utility.yul\":6669:7277   */\n      pop\n      pop\n      pop\n        /* \"#utility.yul\":6545:7277   */\n      swap3\n      swap2\n      pop\n      pop\n      jump\t// out\n        /* \"#utility.yul\":7283:7766   */\n    tag_26:\n        /* \"#utility.yul\":7454:7458   */\n      0x00\n        /* \"#utility.yul\":7492:7494   */\n      0x40\n        /* \"#utility.yul\":7481:7490   */\n      dup3\n        /* \"#utility.yul\":7477:7495   */\n      add\n        /* \"#utility.yul\":7469:7495   */\n      swap1\n      pop\n        /* \"#utility.yul\":7505:7576   */\n      tag_152\n        /* \"#utility.yul\":7573:7574   */\n      0x00\n        /* \"#utility.yul\":7562:7571   */\n      dup4\n        /* \"#utility.yul\":7558:7575   */\n      add\n        /* \"#utility.yul\":7549:7555   */\n      dup6\n        /* \"#utility.yul\":7505:7576   */\n      tag_49\n      jump\t// in\n    tag_152:\n        /* \"#utility.yul\":7623:7632   */\n      dup2\n        /* \"#utility.yul\":7617:7621   */\n      dup2\n        /* \"#utility.yul\":7613:7633   */\n      sub\n        /* \"#utility.yul\":7608:7610   */\n      0x20\n        /* \"#utility.yul\":7597:7606   */\n      dup4\n        /* \"#utility.yul\":7593:7611   */\n      add\n        /* \"#utility.yul\":7586:7634   */\n      mstore\n        /* \"#utility.yul\":7651:7759   */\n      tag_153\n        /* \"#utility.yul\":7754:7758   */\n      dup2\n        /* \"#utility.yul\":7745:7751   */\n      dup5\n        /* \"#utility.yul\":7651:7759   */\n      tag_56\n      jump\t// in\n    tag_153:\n        /* \"#utility.yul\":7643:7759   */\n      swap1\n      pop\n        /* \"#utility.yul\":7283:7766   */\n      swap4\n      swap3\n      pop\n      pop\n      pop\n      jump\t// out\n        /* \"#utility.yul\":7772:7889   */\n    tag_57:\n        /* \"#utility.yul\":7881:7882   */\n      0x00\n        /* \"#utility.yul\":7878:7879   */\n      dup1\n        /* \"#utility.yul\":7871:7883   */\n      revert\n        /* \"#utility.yul\":7895:7997   */\n    tag_58:\n        /* \"#utility.yul\":7936:7942   */\n      0x00\n        /* \"#utility.yul\":7987:7989   */\n      0x1f\n        /* \"#utility.yul\":7983:7990   */\n      not\n        /* \"#utility.yul\":7978:7980   */\n      0x1f\n        /* \"#utility.yul\":7971:7976   */\n      dup4\n        /* \"#utility.yul\":7967:7981   */\n      add\n        /* \"#utility.yul\":7963:7991   */\n      and\n        /* \"#utility.yul\":7953:7991   */\n      swap1\n      pop\n        /* \"#utility.yul\":7895:7997   */\n      swap2\n      swap1\n      pop\n      jump\t// out\n        /* \"#utility.yul\":8003:8284   */\n    tag_59:\n        /* \"#utility.yul\":8086:8113   */\n      tag_157\n        /* \"#utility.yul\":8108:8112   */\n      dup3\n        /* \"#utility.yul\":8086:8113   */\n      tag_58\n      jump\t// in\n    tag_157:\n        /* \"#utility.yul\":8078:8084   */\n      dup2\n        /* \"#utility.yul\":8074:8114   */\n      add\n        /* \"#utility.yul\":8216:8222   */\n      dup2\n        /* \"#utility.yul\":8204:8214   */\n      dup2\n        /* \"#utility.yul\":8201:8223   */\n      lt\n        /* \"#utility.yul\":8180:8198   */\n      0xffffffffffffffff\n        /* \"#utility.yul\":8168:8178   */\n      dup3\n        /* \"#utility.yul\":8165:8199   */\n      gt\n        /* \"#utility.yul\":8162:8224   */\n      or\n        /* \"#utility.yul\":8159:8247   */\n      iszero\n      tag_158\n      jumpi\n        /* \"#utility.yul\":8227:8245   */\n      tag_159\n      tag_12\n      jump\t// in\n    tag_159:\n        /* \"#utility.yul\":8159:8247   */\n    tag_158:\n        /* \"#utility.yul\":8267:8277   */\n      dup1\n        /* \"#utility.yul\":8263:8265   */\n      0x40\n        /* \"#utility.yul\":8256:8278   */\n      mstore\n        /* \"#utility.yul\":8046:8284   */\n      pop\n        /* \"#utility.yul\":8003:8284   */\n      pop\n      pop\n      jump\t// out\n        /* \"#utility.yul\":8290:8419   */\n    tag_60:\n        /* \"#utility.yul\":8324:8330   */\n      0x00\n        /* \"#utility.yul\":8351:8371   */\n      tag_161\n      tag_33\n      jump\t// in\n    tag_161:\n        /* \"#utility.yul\":8341:8371   */\n      swap1\n      pop\n        /* \"#utility.yul\":8380:8413   */\n      tag_162\n        /* \"#utility.yul\":8408:8412   */\n      dup3\n        /* \"#utility.yul\":8400:8406   */\n      dup3\n        /* \"#utility.yul\":8380:8413   */\n      tag_59\n      jump\t// in\n    tag_162:\n        /* \"#utility.yul\":8290:8419   */\n      swap2\n      swap1\n      pop\n      jump\t// out\n        /* \"#utility.yul\":8425:8736   */\n    tag_61:\n        /* \"#utility.yul\":8502:8506   */\n      0x00\n        /* \"#utility.yul\":8592:8610   */\n      0xffffffffffffffff\n        /* \"#utility.yul\":8584:8590   */\n      dup3\n        /* \"#utility.yul\":8581:8611   */\n      gt\n        /* \"#utility.yul\":8578:8634   */\n      iszero\n      tag_164\n      jumpi\n        /* \"#utility.yul\":8614:8632   */\n      tag_165\n      tag_12\n      jump\t// in\n    tag_165:\n        /* \"#utility.yul\":8578:8634   */\n    tag_164:\n        /* \"#utility.yul\":8664:8668   */\n      0x20\n        /* \"#utility.yul\":8656:8662   */\n      dup3\n        /* \"#utility.yul\":8652:8669   */\n      mul\n        /* \"#utility.yul\":8644:8669   */\n      swap1\n      pop\n        /* \"#utility.yul\":8724:8728   */\n      0x20\n        /* \"#utility.yul\":8718:8722   */\n      dup2\n        /* \"#utility.yul\":8714:8729   */\n      add\n        /* \"#utility.yul\":8706:8729   */\n      swap1\n      pop\n        /* \"#utility.yul\":8425:8736   */\n      swap2\n      swap1\n      pop\n      jump\t// out\n        /* \"#utility.yul\":8742:8859   */\n    tag_62:\n        /* \"#utility.yul\":8851:8852   */\n      0x00\n        /* \"#utility.yul\":8848:8849   */\n      dup1\n        /* \"#utility.yul\":8841:8853   */\n      revert\n        /* \"#utility.yul\":8865:8987   */\n    tag_63:\n        /* \"#utility.yul\":8938:8962   */\n      tag_168\n        /* \"#utility.yul\":8956:8961   */\n      dup2\n        /* \"#utility.yul\":8938:8962   */\n      tag_40\n      jump\t// in\n    tag_168:\n        /* \"#utility.yul\":8931:8936   */\n      dup2\n        /* \"#utility.yul\":8928:8963   */\n      eq\n        /* \"#utility.yul\":8918:8981   */\n      tag_169\n      jumpi\n        /* \"#utility.yul\":8977:8978   */\n      0x00\n        /* \"#utility.yul\":8974:8975   */\n      dup1\n        /* \"#utility.yul\":8967:8979   */\n      revert\n        /* \"#utility.yul\":8918:8981   */\n    tag_169:\n        /* \"#utility.yul\":8865:8987   */\n      pop\n      jump\t// out\n        /* \"#utility.yul\":8993:9136   */\n    tag_64:\n        /* \"#utility.yul\":9050:9055   */\n      0x00\n        /* \"#utility.yul\":9081:9087   */\n      dup2\n        /* \"#utility.yul\":9075:9088   */\n      mload\n        /* \"#utility.yul\":9066:9088   */\n      swap1\n      pop\n        /* \"#utility.yul\":9097:9130   */\n      tag_171\n        /* \"#utility.yul\":9124:9129   */\n      dup2\n        /* \"#utility.yul\":9097:9130   */\n      tag_63\n      jump\t// in\n    tag_171:\n        /* \"#utility.yul\":8993:9136   */\n      swap3\n      swap2\n      pop\n      pop\n      jump\t// out\n        /* \"#utility.yul\":9159:9891   */\n    tag_65:\n        /* \"#utility.yul\":9266:9271   */\n      0x00\n        /* \"#utility.yul\":9291:9372   */\n      tag_173\n        /* \"#utility.yul\":9307:9371   */\n      tag_174\n        /* \"#utility.yul\":9364:9370   */\n      dup5\n        /* \"#utility.yul\":9307:9371   */\n      tag_61\n      jump\t// in\n    tag_174:\n        /* \"#utility.yul\":9291:9372   */\n      tag_60\n      jump\t// in\n    tag_173:\n        /* \"#utility.yul\":9282:9372   */\n      swap1\n      pop\n        /* \"#utility.yul\":9392:9397   */\n      dup1\n        /* \"#utility.yul\":9421:9427   */\n      dup4\n        /* \"#utility.yul\":9414:9419   */\n      dup3\n        /* \"#utility.yul\":9407:9428   */\n      mstore\n        /* \"#utility.yul\":9455:9459   */\n      0x20\n        /* \"#utility.yul\":9448:9453   */\n      dup3\n        /* \"#utility.yul\":9444:9460   */\n      add\n        /* \"#utility.yul\":9437:9460   */\n      swap1\n      pop\n        /* \"#utility.yul\":9508:9512   */\n      0x20\n        /* \"#utility.yul\":9500:9506   */\n      dup5\n        /* \"#utility.yul\":9496:9513   */\n      mul\n        /* \"#utility.yul\":9488:9494   */\n      dup4\n        /* \"#utility.yul\":9484:9514   */\n      add\n        /* \"#utility.yul\":9537:9540   */\n      dup6\n        /* \"#utility.yul\":9529:9535   */\n      dup2\n        /* \"#utility.yul\":9526:9541   */\n      gt\n        /* \"#utility.yul\":9523:9645   */\n      iszero\n      tag_175\n      jumpi\n        /* \"#utility.yul\":9556:9635   */\n      tag_176\n      tag_62\n      jump\t// in\n    tag_176:\n        /* \"#utility.yul\":9523:9645   */\n    tag_175:\n        /* \"#utility.yul\":9671:9677   */\n      dup4\n        /* \"#utility.yul\":9654:9885   */\n    tag_177:\n        /* \"#utility.yul\":9688:9694   */\n      dup2\n        /* \"#utility.yul\":9683:9686   */\n      dup2\n        /* \"#utility.yul\":9680:9695   */\n      lt\n        /* \"#utility.yul\":9654:9885   */\n      iszero\n      tag_179\n      jumpi\n        /* \"#utility.yul\":9763:9766   */\n      dup1\n        /* \"#utility.yul\":9792:9840   */\n      tag_180\n        /* \"#utility.yul\":9836:9839   */\n      dup9\n        /* \"#utility.yul\":9824:9834   */\n      dup3\n        /* \"#utility.yul\":9792:9840   */\n      tag_64\n      jump\t// in\n    tag_180:\n        /* \"#utility.yul\":9787:9790   */\n      dup5\n        /* \"#utility.yul\":9780:9841   */\n      mstore\n        /* \"#utility.yul\":9870:9874   */\n      0x20\n        /* \"#utility.yul\":9865:9868   */\n      dup5\n        /* \"#utility.yul\":9861:9875   */\n      add\n        /* \"#utility.yul\":9854:9875   */\n      swap4\n      pop\n        /* \"#utility.yul\":9730:9885   */\n      pop\n        /* \"#utility.yul\":9714:9718   */\n      0x20\n        /* \"#utility.yul\":9709:9712   */\n      dup2\n        /* \"#utility.yul\":9705:9719   */\n      add\n        /* \"#utility.yul\":9698:9719   */\n      swap1\n      pop\n        /* \"#utility.yul\":9654:9885   */\n      jump(tag_177)\n    tag_179:\n        /* \"#utility.yul\":9658:9679   */\n      pop\n        /* \"#utility.yul\":9272:9891   */\n      pop\n      pop\n        /* \"#utility.yul\":9159:9891   */\n      swap4\n      swap3\n      pop\n      pop\n      pop\n      jump\t// out\n        /* \"#utility.yul\":9914:10299   */\n    tag_66:\n        /* \"#utility.yul\":9996:10001   */\n      0x00\n        /* \"#utility.yul\":10045:10048   */\n      dup3\n        /* \"#utility.yul\":10038:10042   */\n      0x1f\n        /* \"#utility.yul\":10030:10036   */\n      dup4\n        /* \"#utility.yul\":10026:10043   */\n      add\n        /* \"#utility.yul\":10022:10049   */\n      slt\n        /* \"#utility.yul\":10012:10134   */\n      tag_182\n      jumpi\n        /* \"#utility.yul\":10053:10132   */\n      tag_183\n      tag_57\n      jump\t// in\n    tag_183:\n        /* \"#utility.yul\":10012:10134   */\n    tag_182:\n        /* \"#utility.yul\":10163:10169   */\n      dup2\n        /* \"#utility.yul\":10157:10170   */\n      mload\n        /* \"#utility.yul\":10188:10293   */\n      tag_184\n        /* \"#utility.yul\":10289:10292   */\n      dup5\n        /* \"#utility.yul\":10281:10287   */\n      dup3\n        /* \"#utility.yul\":10274:10278   */\n      0x20\n        /* \"#utility.yul\":10266:10272   */\n      dup7\n        /* \"#utility.yul\":10262:10279   */\n      add\n        /* \"#utility.yul\":10188:10293   */\n      tag_65\n      jump\t// in\n    tag_184:\n        /* \"#utility.yul\":10179:10293   */\n      swap2\n      pop\n        /* \"#utility.yul\":10002:10299   */\n      pop\n        /* \"#utility.yul\":9914:10299   */\n      swap3\n      swap2\n      pop\n      pop\n      jump\t// out\n        /* \"#utility.yul\":10305:10859   */\n    tag_30:\n        /* \"#utility.yul\":10400:10406   */\n      0x00\n        /* \"#utility.yul\":10449:10451   */\n      0x20\n        /* \"#utility.yul\":10437:10446   */\n      dup3\n        /* \"#utility.yul\":10428:10435   */\n      dup5\n        /* \"#utility.yul\":10424:10447   */\n      sub\n        /* \"#utility.yul\":10420:10452   */\n      slt\n        /* \"#utility.yul\":10417:10536   */\n      iszero\n      tag_186\n      jumpi\n        /* \"#utility.yul\":10455:10534   */\n      tag_187\n      tag_34\n      jump\t// in\n    tag_187:\n        /* \"#utility.yul\":10417:10536   */\n    tag_186:\n        /* \"#utility.yul\":10596:10597   */\n      0x00\n        /* \"#utility.yul\":10585:10594   */\n      dup3\n        /* \"#utility.yul\":10581:10598   */\n      add\n        /* \"#utility.yul\":10575:10599   */\n      mload\n        /* \"#utility.yul\":10626:10644   */\n      0xffffffffffffffff\n        /* \"#utility.yul\":10618:10624   */\n      dup2\n        /* \"#utility.yul\":10615:10645   */\n      gt\n        /* \"#utility.yul\":10612:10729   */\n      iszero\n      tag_188\n      jumpi\n        /* \"#utility.yul\":10648:10727   */\n      tag_189\n      tag_35\n      jump\t// in\n    tag_189:\n        /* \"#utility.yul\":10612:10729   */\n    tag_188:\n        /* \"#utility.yul\":10753:10842   */\n      tag_190\n        /* \"#utility.yul\":10834:10841   */\n      dup5\n        /* \"#utility.yul\":10825:10831   */\n      dup3\n        /* \"#utility.yul\":10814:10823   */\n      dup6\n        /* \"#utility.yul\":10810:10832   */\n      add\n        /* \"#utility.yul\":10753:10842   */\n      tag_66\n      jump\t// in\n    tag_190:\n        /* \"#utility.yul\":10743:10842   */\n      swap2\n      pop\n        /* \"#utility.yul\":10546:10852   */\n      pop\n        /* \"#utility.yul\":10305:10859   */\n      swap3\n      swap2\n      pop\n      pop\n      jump\t// out\n\n    auxdata: 0xa264697066735822122003a70eb0b7e39a0b3950daba934a03f1aeb6788c64cbed7bd04851de3c00f81064736f6c63430008110033\n}\n",
				"bytecode": {
					"linkReferences": {},
					"object": "6108b9610053600b82828239805160001a607314610046577f4e487b7100000000000000000000000000000000000000000000000000000000600052600060045260246000fd5b30600052607381538281f3fe73000000000000000000000000000000000000000030146080604052600436106100355760003560e01c8063c361e0b11461003a575b600080fd5b610054600480360381019061004f91906102ef565b61006a565b604051610061919061035b565b60405180910390f35b600080600267ffffffffffffffff81111561008857610087610376565b5b6040519080825280602002602001820160405280156100b65781602001602082028036833780820191505090505b50905083816000815181106100ce576100cd6103a5565b5b602002602001019073ffffffffffffffffffffffffffffffffffffffff16908173ffffffffffffffffffffffffffffffffffffffff1681525050828160018151811061011d5761011c6103a5565b5b602002602001019073ffffffffffffffffffffffffffffffffffffffff16908173ffffffffffffffffffffffffffffffffffffffff168152505060008573ffffffffffffffffffffffffffffffffffffffff1663d06ca61f8673ffffffffffffffffffffffffffffffffffffffff1663313ce5676040518163ffffffff1660e01b8152600401602060405180830381865afa1580156101c0573d6000803e3d6000fd5b505050506040513d601f19601f820116820180604052508101906101e4919061040d565b600a6101f0919061059c565b846040518363ffffffff1660e01b815260040161020e9291906106b4565b600060405180830381865afa15801561022b573d6000803e3d6000fd5b505050506040513d6000823e3d601f19601f82011682018060405250810190610254919061083a565b90508060018151811061026a576102696103a5565b5b6020026020010151925050509392505050565b6000604051905090565b600080fd5b600080fd5b600073ffffffffffffffffffffffffffffffffffffffff82169050919050565b60006102bc82610291565b9050919050565b6102cc816102b1565b81146102d757600080fd5b50565b6000813590506102e9816102c3565b92915050565b60008060006060848603121561030857610307610287565b5b6000610316868287016102da565b9350506020610327868287016102da565b9250506040610338868287016102da565b9150509250925092565b6000819050919050565b61035581610342565b82525050565b6000602082019050610370600083018461034c565b92915050565b7f4e487b7100000000000000000000000000000000000000000000000000000000600052604160045260246000fd5b7f4e487b7100000000000000000000000000000000000000000000000000000000600052603260045260246000fd5b600060ff82169050919050565b6103ea816103d4565b81146103f557600080fd5b50565b600081519050610407816103e1565b92915050565b60006020828403121561042357610422610287565b5b6000610431848285016103f8565b91505092915050565b7f4e487b7100000000000000000000000000000000000000000000000000000000600052601160045260246000fd5b60008160011c9050919050565b6000808291508390505b60018511156104c05780860481111561049c5761049b61043a565b5b60018516156104ab5780820291505b80810290506104b985610469565b9450610480565b94509492505050565b6000826104d95760019050610595565b816104e75760009050610595565b81600181146104fd576002811461050757610536565b6001915050610595565b60ff8411156105195761051861043a565b5b8360020a9150848211156105305761052f61043a565b5b50610595565b5060208310610133831016604e8410600b841016171561056b5782820a9050838111156105665761056561043a565b5b610595565b6105788484846001610476565b9250905081840481111561058f5761058e61043a565b5b81810290505b9392505050565b60006105a782610342565b91506105b2836103d4565b92506105df7fffffffffffffffffffffffffffffffffffffffffffffffffffffffffffffffff84846104c9565b905092915050565b6105f081610342565b82525050565b600081519050919050565b600082825260208201905092915050565b6000819050602082019050919050565b61062b816102b1565b82525050565b600061063d8383610622565b60208301905092915050565b6000602082019050919050565b6000610661826105f6565b61066b8185610601565b935061067683610612565b8060005b838110156106a757815161068e8882610631565b975061069983610649565b92505060018101905061067a565b5085935050505092915050565b60006040820190506106c960008301856105e7565b81810360208301526106db8184610656565b90509392505050565b600080fd5b6000601f19601f8301169050919050565b610703826106e9565b810181811067ffffffffffffffff8211171561072257610721610376565b5b80604052505050565b600061073561027d565b905061074182826106fa565b919050565b600067ffffffffffffffff82111561076157610760610376565b5b602082029050602081019050919050565b600080fd5b61078081610342565b811461078b57600080fd5b50565b60008151905061079d81610777565b92915050565b60006107b66107b184610746565b61072b565b905080838252602082019050602084028301858111156107d9576107d8610772565b5b835b8181101561080257806107ee888261078e565b8452602084019350506020810190506107db565b5050509392505050565b600082601f830112610821576108206106e4565b5b81516108318482602086016107a3565b91505092915050565b6000602082840312156108505761084f610287565b5b600082015167ffffffffffffffff81111561086e5761086d61028c565b5b61087a8482850161080c565b9150509291505056fea264697066735822122003a70eb0b7e39a0b3950daba934a03f1aeb6788c64cbed7bd04851de3c00f81064736f6c63430008110033",
					"opcodes": "PUSH2 0x8B9 PUSH2 0x53 PUSH1 0xB DUP3 DUP3 DUP3 CODECOPY DUP1 MLOAD PUSH1 0x0 BYTE PUSH1 0x73 EQ PUSH2 0x46 JUMPI PUSH32 0x4E487B7100000000000000000000000000000000000000000000000000000000 PUSH1 0x0 MSTORE PUSH1 0x0 PUSH1 0x4 MSTORE PUSH1 0x24 PUSH1 0x0 REVERT JUMPDEST ADDRESS PUSH1 0x0 MSTORE PUSH1 0x73 DUP2 MSTORE8 DUP3 DUP2 RETURN INVALID PUSH20 0x0 ADDRESS EQ PUSH1 0x80 PUSH1 0x40 MSTORE PUSH1 0x4 CALLDATASIZE LT PUSH2 0x35 JUMPI PUSH1 0x0 CALLDATALOAD PUSH1 0xE0 SHR DUP1 PUSH4 0xC361E0B1 EQ PUSH2 0x3A JUMPI JUMPDEST PUSH1 0x0 DUP1 REVERT JUMPDEST PUSH2 0x54 PUSH1 0x4 DUP1 CALLDATASIZE SUB DUP2 ADD SWAP1 PUSH2 0x4F SWAP2 SWAP1 PUSH2 0x2EF JUMP JUMPDEST PUSH2 0x6A JUMP JUMPDEST PUSH1 0x40 MLOAD PUSH2 0x61 SWAP2 SWAP1 PUSH2 0x35B JUMP JUMPDEST PUSH1 0x40 MLOAD DUP1 SWAP2 SUB SWAP1 RETURN JUMPDEST PUSH1 0x0 DUP1 PUSH1 0x2 PUSH8 0xFFFFFFFFFFFFFFFF DUP2 GT ISZERO PUSH2 0x88 JUMPI PUSH2 0x87 PUSH2 0x376 JUMP JUMPDEST JUMPDEST PUSH1 0x40 MLOAD SWAP1 DUP1 DUP3 MSTORE DUP1 PUSH1 0x20 MUL PUSH1 0x20 ADD DUP3 ADD PUSH1 0x40 MSTORE DUP1 ISZERO PUSH2 0xB6 JUMPI DUP2 PUSH1 0x20 ADD PUSH1 0x20 DUP3 MUL DUP1 CALLDATASIZE DUP4 CALLDATACOPY DUP1 DUP3 ADD SWAP2 POP POP SWAP1 POP JUMPDEST POP SWAP1 POP DUP4 DUP2 PUSH1 0x0 DUP2 MLOAD DUP2 LT PUSH2 0xCE JUMPI PUSH2 0xCD PUSH2 0x3A5 JUMP JUMPDEST JUMPDEST PUSH1 0x20 MUL PUSH1 0x20 ADD ADD SWAP1 PUSH20 0xFFFFFFFFFFFFFFFFFFFFFFFFFFFFFFFFFFFFFFFF AND SWAP1 DUP2 PUSH20 0xFFFFFFFFFFFFFFFFFFFFFFFFFFFFFFFFFFFFFFFF AND DUP2 MSTORE POP POP DUP3 DUP2 PUSH1 0x1 DUP2 MLOAD DUP2 LT PUSH2 0x11D JUMPI PUSH2 0x11C PUSH2 0x3A5 JUMP JUMPDEST JUMPDEST PUSH1 0x20 MUL PUSH1 0x20 ADD ADD SWAP1 PUSH20 0xFFFFFFFFFFFFFFFFFFFFFFFFFFFFFFFFFFFFFFFF AND SWAP1 DUP2 PUSH20 0xFFFFFFFFFFFFFFFFFFFFFFFFFFFFFFFFFFFFFFFF AND DUP2 MSTORE POP POP PUSH1 0x0 DUP6 PUSH20 0xFFFFFFFFFFFFFFFFFFFFFFFFFFFFFFFFFFFFFFFF AND PUSH4 0xD06CA61F DUP7 PUSH20 0xFFFFFFFFFFFFFFFFFFFFFFFFFFFFFFFFFFFFFFFF AND PUSH4 0x313CE567 PUSH1 0x40 MLOAD DUP2 PUSH4 0xFFFFFFFF AND PUSH1 0xE0 SHL DUP2 MSTORE PUSH1 0x4 ADD PUSH1 0x20 PUSH1 0x40 MLOAD DUP1 DUP4 SUB DUP2 DUP7 GAS STATICCALL ISZERO DUP1 ISZERO PUSH2 0x1C0 JUMPI RETURNDATASIZE PUSH1 0x0 DUP1 RETURNDATACOPY RETURNDATASIZE PUSH1 0x0 REVERT JUMPDEST POP POP POP POP PUSH1 0x40 MLOAD RETURNDATASIZE PUSH1 0x1F NOT PUSH1 0x1F DUP3 ADD AND DUP3 ADD DUP1 PUSH1 0x40 MSTORE POP DUP2 ADD SWAP1 PUSH2 0x1E4 SWAP2 SWAP1 PUSH2 0x40D JUMP JUMPDEST PUSH1 0xA PUSH2 0x1F0 SWAP2 SWAP1 PUSH2 0x59C JUMP JUMPDEST DUP5 PUSH1 0x40 MLOAD DUP4 PUSH4 0xFFFFFFFF AND PUSH1 0xE0 SHL DUP2 MSTORE PUSH1 0x4 ADD PUSH2 0x20E SWAP3 SWAP2 SWAP1 PUSH2 0x6B4 JUMP JUMPDEST PUSH1 0x0 PUSH1 0x40 MLOAD DUP1 DUP4 SUB DUP2 DUP7 GAS STATICCALL ISZERO DUP1 ISZERO PUSH2 0x22B JUMPI RETURNDATASIZE PUSH1 0x0 DUP1 RETURNDATACOPY RETURNDATASIZE PUSH1 0x0 REVERT JUMPDEST POP POP POP POP PUSH1 0x40 MLOAD RETURNDATASIZE PUSH1 0x0 DUP3 RETURNDATACOPY RETURNDATASIZE PUSH1 0x1F NOT PUSH1 0x1F DUP3 ADD AND DUP3 ADD DUP1 PUSH1 0x40 MSTORE POP DUP2 ADD SWAP1 PUSH2 0x254 SWAP2 SWAP1 PUSH2 0x83A JUMP JUMPDEST SWAP1 POP DUP1 PUSH1 0x1 DUP2 MLOAD DUP2 LT PUSH2 0x26A JUMPI PUSH2 0x269 PUSH2 0x3A5 JUMP JUMPDEST JUMPDEST PUSH1 0x20 MUL PUSH1 0x20 ADD ADD MLOAD SWAP3 POP POP POP SWAP4 SWAP3 POP POP POP JUMP JUMPDEST PUSH1 0x0 PUSH1 0x40 MLOAD SWAP1 POP SWAP1 JUMP JUMPDEST PUSH1 0x0 DUP1 REVERT JUMPDEST PUSH1 0x0 DUP1 REVERT JUMPDEST PUSH1 0x0 PUSH20 0xFFFFFFFFFFFFFFFFFFFFFFFFFFFFFFFFFFFFFFFF DUP3 AND SWAP1 POP SWAP2 SWAP1 POP JUMP JUMPDEST PUSH1 0x0 PUSH2 0x2BC DUP3 PUSH2 0x291 JUMP JUMPDEST SWAP1 POP SWAP2 SWAP1 POP JUMP JUMPDEST PUSH2 0x2CC DUP2 PUSH2 0x2B1 JUMP JUMPDEST DUP2 EQ PUSH2 0x2D7 JUMPI PUSH1 0x0 DUP1 REVERT JUMPDEST POP JUMP JUMPDEST PUSH1 0x0 DUP2 CALLDATALOAD SWAP1 POP PUSH2 0x2E9 DUP2 PUSH2 0x2C3 JUMP JUMPDEST SWAP3 SWAP2 POP POP JUMP JUMPDEST PUSH1 0x0 DUP1 PUSH1 0x0 PUSH1 0x60 DUP5 DUP7 SUB SLT ISZERO PUSH2 0x308 JUMPI PUSH2 0x307 PUSH2 0x287 JUMP JUMPDEST JUMPDEST PUSH1 0x0 PUSH2 0x316 DUP7 DUP3 DUP8 ADD PUSH2 0x2DA JUMP JUMPDEST SWAP4 POP POP PUSH1 0x20 PUSH2 0x327 DUP7 DUP3 DUP8 ADD PUSH2 0x2DA JUMP JUMPDEST SWAP3 POP POP PUSH1 0x40 PUSH2 0x338 DUP7 DUP3 DUP8 ADD PUSH2 0x2DA JUMP JUMPDEST SWAP2 POP POP SWAP3 POP SWAP3 POP SWAP3 JUMP JUMPDEST PUSH1 0x0 DUP2 SWAP1 POP SWAP2 SWAP1 POP JUMP JUMPDEST PUSH2 0x355 DUP2 PUSH2 0x342 JUMP JUMPDEST DUP3 MSTORE POP POP JUMP JUMPDEST PUSH1 0x0 PUSH1 0x20 DUP3 ADD SWAP1 POP PUSH2 0x370 PUSH1 0x0 DUP4 ADD DUP5 PUSH2 0x34C JUMP JUMPDEST SWAP3 SWAP2 POP POP JUMP JUMPDEST PUSH32 0x4E487B7100000000000000000000000000000000000000000000000000000000 PUSH1 0x0 MSTORE PUSH1 0x41 PUSH1 0x4 MSTORE PUSH1 0x24 PUSH1 0x0 REVERT JUMPDEST PUSH32 0x4E487B7100000000000000000000000000000000000000000000000000000000 PUSH1 0x0 MSTORE PUSH1 0x32 PUSH1 0x4 MSTORE PUSH1 0x24 PUSH1 0x0 REVERT JUMPDEST PUSH1 0x0 PUSH1 0xFF DUP3 AND SWAP1 POP SWAP2 SWAP1 POP JUMP JUMPDEST PUSH2 0x3EA DUP2 PUSH2 0x3D4 JUMP JUMPDEST DUP2 EQ PUSH2 0x3F5 JUMPI PUSH1 0x0 DUP1 REVERT JUMPDEST POP JUMP JUMPDEST PUSH1 0x0 DUP2 MLOAD SWAP1 POP PUSH2 0x407 DUP2 PUSH2 0x3E1 JUMP JUMPDEST SWAP3 SWAP2 POP POP JUMP JUMPDEST PUSH1 0x0 PUSH1 0x20 DUP3 DUP5 SUB SLT ISZERO PUSH2 0x423 JUMPI PUSH2 0x422 PUSH2 0x287 JUMP JUMPDEST JUMPDEST PUSH1 0x0 PUSH2 0x431 DUP5 DUP3 DUP6 ADD PUSH2 0x3F8 JUMP JUMPDEST SWAP2 POP POP SWAP3 SWAP2 POP POP JUMP JUMPDEST PUSH32 0x4E487B7100000000000000000000000000000000000000000000000000000000 PUSH1 0x0 MSTORE PUSH1 0x11 PUSH1 0x4 MSTORE PUSH1 0x24 PUSH1 0x0 REVERT JUMPDEST PUSH1 0x0 DUP2 PUSH1 0x1 SHR SWAP1 POP SWAP2 SWAP1 POP JUMP JUMPDEST PUSH1 0x0 DUP1 DUP3 SWAP2 POP DUP4 SWAP1 POP JUMPDEST PUSH1 0x1 DUP6 GT ISZERO PUSH2 0x4C0 JUMPI DUP1 DUP7 DIV DUP2 GT ISZERO PUSH2 0x49C JUMPI PUSH2 0x49B PUSH2 0x43A JUMP JUMPDEST JUMPDEST PUSH1 0x1 DUP6 AND ISZERO PUSH2 0x4AB JUMPI DUP1 DUP3 MUL SWAP2 POP JUMPDEST DUP1 DUP2 MUL SWAP1 POP PUSH2 0x4B9 DUP6 PUSH2 0x469 JUMP JUMPDEST SWAP5 POP PUSH2 0x480 JUMP JUMPDEST SWAP5 POP SWAP5 SWAP3 POP POP POP JUMP JUMPDEST PUSH1 0x0 DUP3 PUSH2 0x4D9 JUMPI PUSH1 0x1 SWAP1 POP PUSH2 0x595 JUMP JUMPDEST DUP2 PUSH2 0x4E7 JUMPI PUSH1 0x0 SWAP1 POP PUSH2 0x595 JUMP JUMPDEST DUP2 PUSH1 0x1 DUP2 EQ PUSH2 0x4FD JUMPI PUSH1 0x2 DUP2 EQ PUSH2 0x507 JUMPI PUSH2 0x536 JUMP JUMPDEST PUSH1 0x1 SWAP2 POP POP PUSH2 0x595 JUMP JUMPDEST PUSH1 0xFF DUP5 GT ISZERO PUSH2 0x519 JUMPI PUSH2 0x518 PUSH2 0x43A JUMP JUMPDEST JUMPDEST DUP4 PUSH1 0x2 EXP SWAP2 POP DUP5 DUP3 GT ISZERO PUSH2 0x530 JUMPI PUSH2 0x52F PUSH2 0x43A JUMP JUMPDEST JUMPDEST POP PUSH2 0x595 JUMP JUMPDEST POP PUSH1 0x20 DUP4 LT PUSH2 0x133 DUP4 LT AND PUSH1 0x4E DUP5 LT PUSH1 0xB DUP5 LT AND OR ISZERO PUSH2 0x56B JUMPI DUP3 DUP3 EXP SWAP1 POP DUP4 DUP2 GT ISZERO PUSH2 0x566 JUMPI PUSH2 0x565 PUSH2 0x43A JUMP JUMPDEST JUMPDEST PUSH2 0x595 JUMP JUMPDEST PUSH2 0x578 DUP5 DUP5 DUP5 PUSH1 0x1 PUSH2 0x476 JUMP JUMPDEST SWAP3 POP SWAP1 POP DUP2 DUP5 DIV DUP2 GT ISZERO PUSH2 0x58F JUMPI PUSH2 0x58E PUSH2 0x43A JUMP JUMPDEST JUMPDEST DUP2 DUP2 MUL SWAP1 POP JUMPDEST SWAP4 SWAP3 POP POP POP JUMP JUMPDEST PUSH1 0x0 PUSH2 0x5A7 DUP3 PUSH2 0x342 JUMP JUMPDEST SWAP2 POP PUSH2 0x5B2 DUP4 PUSH2 0x3D4 JUMP JUMPDEST SWAP3 POP PUSH2 0x5DF PUSH32 0xFFFFFFFFFFFFFFFFFFFFFFFFFFFFFFFFFFFFFFFFFFFFFFFFFFFFFFFFFFFFFFFF DUP5 DUP5 PUSH2 0x4C9 JUMP JUMPDEST SWAP1 POP SWAP3 SWAP2 POP POP JUMP JUMPDEST PUSH2 0x5F0 DUP2 PUSH2 0x342 JUMP JUMPDEST DUP3 MSTORE POP POP JUMP JUMPDEST PUSH1 0x0 DUP2 MLOAD SWAP1 POP SWAP2 SWAP1 POP JUMP JUMPDEST PUSH1 0x0 DUP3 DUP3 MSTORE PUSH1 0x20 DUP3 ADD SWAP1 POP SWAP3 SWAP2 POP POP JUMP JUMPDEST PUSH1 0x0 DUP2 SWAP1 POP PUSH1 0x20 DUP3 ADD SWAP1 POP SWAP2 SWAP1 POP JUMP JUMPDEST PUSH2 0x62B DUP2 PUSH2 0x2B1 JUMP JUMPDEST DUP3 MSTORE POP POP JUMP JUMPDEST PUSH1 0x0 PUSH2 0x63D DUP4 DUP4 PUSH2 0x622 JUMP JUMPDEST PUSH1 0x20 DUP4 ADD SWAP1 POP SWAP3 SWAP2 POP POP JUMP JUMPDEST PUSH1 0x0 PUSH1 0x20 DUP3 ADD SWAP1 POP SWAP2 SWAP1 POP JUMP JUMPDEST PUSH1 0x0 PUSH2 0x661 DUP3 PUSH2 0x5F6 JUMP JUMPDEST PUSH2 0x66B DUP2 DUP6 PUSH2 0x601 JUMP JUMPDEST SWAP4 POP PUSH2 0x676 DUP4 PUSH2 0x612 JUMP JUMPDEST DUP1 PUSH1 0x0 JUMPDEST DUP4 DUP2 LT ISZERO PUSH2 0x6A7 JUMPI DUP2 MLOAD PUSH2 0x68E DUP9 DUP3 PUSH2 0x631 JUMP JUMPDEST SWAP8 POP PUSH2 0x699 DUP4 PUSH2 0x649 JUMP JUMPDEST SWAP3 POP POP PUSH1 0x1 DUP2 ADD SWAP1 POP PUSH2 0x67A JUMP JUMPDEST POP DUP6 SWAP4 POP POP POP POP SWAP3 SWAP2 POP POP JUMP JUMPDEST PUSH1 0x0 PUSH1 0x40 DUP3 ADD SWAP1 POP PUSH2 0x6C9 PUSH1 0x0 DUP4 ADD DUP6 PUSH2 0x5E7 JUMP JUMPDEST DUP2 DUP2 SUB PUSH1 0x20 DUP4 ADD MSTORE PUSH2 0x6DB DUP2 DUP5 PUSH2 0x656 JUMP JUMPDEST SWAP1 POP SWAP4 SWAP3 POP POP POP JUMP JUMPDEST PUSH1 0x0 DUP1 REVERT JUMPDEST PUSH1 0x0 PUSH1 0x1F NOT PUSH1 0x1F DUP4 ADD AND SWAP1 POP SWAP2 SWAP1 POP JUMP JUMPDEST PUSH2 0x703 DUP3 PUSH2 0x6E9 JUMP JUMPDEST DUP2 ADD DUP2 DUP2 LT PUSH8 0xFFFFFFFFFFFFFFFF DUP3 GT OR ISZERO PUSH2 0x722 JUMPI PUSH2 0x721 PUSH2 0x376 JUMP JUMPDEST JUMPDEST DUP1 PUSH1 0x40 MSTORE POP POP POP JUMP JUMPDEST PUSH1 0x0 PUSH2 0x735 PUSH2 0x27D JUMP JUMPDEST SWAP1 POP PUSH2 0x741 DUP3 DUP3 PUSH2 0x6FA JUMP JUMPDEST SWAP2 SWAP1 POP JUMP JUMPDEST PUSH1 0x0 PUSH8 0xFFFFFFFFFFFFFFFF DUP3 GT ISZERO PUSH2 0x761 JUMPI PUSH2 0x760 PUSH2 0x376 JUMP JUMPDEST JUMPDEST PUSH1 0x20 DUP3 MUL SWAP1 POP PUSH1 0x20 DUP2 ADD SWAP1 POP SWAP2 SWAP1 POP JUMP JUMPDEST PUSH1 0x0 DUP1 REVERT JUMPDEST PUSH2 0x780 DUP2 PUSH2 0x342 JUMP JUMPDEST DUP2 EQ PUSH2 0x78B JUMPI PUSH1 0x0 DUP1 REVERT JUMPDEST POP JUMP JUMPDEST PUSH1 0x0 DUP2 MLOAD SWAP1 POP PUSH2 0x79D DUP2 PUSH2 0x777 JUMP JUMPDEST SWAP3 SWAP2 POP POP JUMP JUMPDEST PUSH1 0x0 PUSH2 0x7B6 PUSH2 0x7B1 DUP5 PUSH2 0x746 JUMP JUMPDEST PUSH2 0x72B JUMP JUMPDEST SWAP1 POP DUP1 DUP4 DUP3 MSTORE PUSH1 0x20 DUP3 ADD SWAP1 POP PUSH1 0x20 DUP5 MUL DUP4 ADD DUP6 DUP2 GT ISZERO PUSH2 0x7D9 JUMPI PUSH2 0x7D8 PUSH2 0x772 JUMP JUMPDEST JUMPDEST DUP4 JUMPDEST DUP2 DUP2 LT ISZERO PUSH2 0x802 JUMPI DUP1 PUSH2 0x7EE DUP9 DUP3 PUSH2 0x78E JUMP JUMPDEST DUP5 MSTORE PUSH1 0x20 DUP5 ADD SWAP4 POP POP PUSH1 0x20 DUP2 ADD SWAP1 POP PUSH2 0x7DB JUMP JUMPDEST POP POP POP SWAP4 SWAP3 POP POP POP JUMP JUMPDEST PUSH1 0x0 DUP3 PUSH1 0x1F DUP4 ADD SLT PUSH2 0x821 JUMPI PUSH2 0x820 PUSH2 0x6E4 JUMP JUMPDEST JUMPDEST DUP2 MLOAD PUSH2 0x831 DUP5 DUP3 PUSH1 0x20 DUP7 ADD PUSH2 0x7A3 JUMP JUMPDEST SWAP2 POP POP SWAP3 SWAP2 POP POP JUMP JUMPDEST PUSH1 0x0 PUSH1 0x20 DUP3 DUP5 SUB SLT ISZERO PUSH2 0x850 JUMPI PUSH2 0x84F PUSH2 0x287 JUMP JUMPDEST JUMPDEST PUSH1 0x0 DUP3 ADD MLOAD PUSH8 0xFFFFFFFFFFFFFFFF DUP2 GT ISZERO PUSH2 0x86E JUMPI PUSH2 0x86D PUSH2 0x28C JUMP JUMPDEST JUMPDEST PUSH2 0x87A DUP5 DUP3 DUP6 ADD PUSH2 0x80C JUMP JUMPDEST SWAP2 POP POP SWAP3 SWAP2 POP POP JUMP INVALID LOG2 PUSH5 0x6970667358 0x22 SLT KECCAK256 SUB 0xA7 0xE 0xB0 0xB7 0xE3 SWAP11 SIGNEXTEND CODECOPY POP 0xDA 0xBA SWAP4 0x4A SUB CALL 0xAE 0xB6 PUSH25 0x8C64CBED7BD04851DE3C00F81064736F6C6343000811003300 "
				},
				"gasEstimates": {
					"creation": {
						"codeDepositCost": "446600",
						"executionCost": "508",
						"totalCost": "447108"
					},
					"external": {
						"Price(address,address,address)": "infinite"
					}
				},
				"methodIdentifiers": {
					"Price(address,address,address)": "c361e0b1"
				}
			},
			"storageLayout": {
				"storage": [],
				"types": null
			},
			"userdoc": {
				"kind": "user",
				"methods": {},
				"version": 1
			}
		}
	}
}