{
	"contracts/PriceAggregator.sol": {
		"PriceAggregator": {
			"abi": [
				{
					"inputs": [
						{
							"components": [
								{
									"internalType": "address",
									"name": "t1",
									"type": "address"
								},
								{
									"internalType": "address",
									"name": "t2",
									"type": "address"
								},
								{
									"internalType": "address",
									"name": "provider",
									"type": "address"
								},
								{
									"internalType": "uint8",
									"name": "providerVersion",
									"type": "uint8"
								}
							],
							"internalType": "struct PriceAggregator.input[]",
							"name": "inputs",
							"type": "tuple[]"
						}
					],
					"name": "getPrices",
					"outputs": [
						{
							"components": [
								{
									"internalType": "address",
									"name": "t1",
									"type": "address"
								},
								{
									"internalType": "address",
									"name": "t2",
									"type": "address"
								},
								{
									"internalType": "uint256",
									"name": "price",
									"type": "uint256"
								}
							],
							"internalType": "struct PriceAggregator.output[]",
							"name": "",
							"type": "tuple[]"
						}
					],
					"stateMutability": "view",
					"type": "function"
				}
			],
			"devdoc": {
				"kind": "dev",
				"methods": {},
				"version": 1
			},
			"evm": {
				"assembly": "    /* \"contracts/PriceAggregator.sol\":378:1299  contract PriceAggregator {... */\n  mstore(0x40, 0x80)\n  callvalue\n  dup1\n  iszero\n  tag_1\n  jumpi\n  0x00\n  dup1\n  revert\ntag_1:\n  pop\n  dataSize(sub_0)\n  dup1\n  dataOffset(sub_0)\n  0x00\n  codecopy\n  0x00\n  return\nstop\n\nsub_0: assembly {\n        /* \"contracts/PriceAggregator.sol\":378:1299  contract PriceAggregator {... */\n      mstore(0x40, 0x80)\n      callvalue\n      dup1\n      iszero\n      tag_1\n      jumpi\n      0x00\n      dup1\n      revert\n    tag_1:\n      pop\n      jumpi(tag_2, lt(calldatasize, 0x04))\n      shr(0xe0, calldataload(0x00))\n      dup1\n      0xff514fa3\n      eq\n      tag_3\n      jumpi\n    tag_2:\n      0x00\n      dup1\n      revert\n        /* \"contracts/PriceAggregator.sol\":627:1295  function getPrices(input[] memory inputs) public view returns (output[] memory) {... */\n    tag_3:\n      tag_4\n      0x04\n      dup1\n      calldatasize\n      sub\n      dup2\n      add\n      swap1\n      tag_5\n      swap2\n      swap1\n      tag_6\n      jump\t// in\n    tag_5:\n      tag_7\n      jump\t// in\n    tag_4:\n      mload(0x40)\n      tag_8\n      swap2\n      swap1\n      tag_9\n      jump\t// in\n    tag_8:\n      mload(0x40)\n      dup1\n      swap2\n      sub\n      swap1\n      return\n    tag_7:\n        /* \"contracts/PriceAggregator.sol\":690:705  output[] memory */\n      0x60\n        /* \"contracts/PriceAggregator.sol\":717:740  output[] memory outputs */\n      0x00\n        /* \"contracts/PriceAggregator.sol\":756:762  inputs */\n      dup3\n        /* \"contracts/PriceAggregator.sol\":756:769  inputs.length */\n      mload\n        /* \"contracts/PriceAggregator.sol\":743:770  new output[](inputs.length) */\n      0xffffffffffffffff\n      dup2\n      gt\n      iszero\n      tag_11\n      jumpi\n      tag_12\n      tag_13\n      jump\t// in\n    tag_12:\n    tag_11:\n      mload(0x40)\n      swap1\n      dup1\n      dup3\n      mstore\n      dup1\n      0x20\n      mul\n      0x20\n      add\n      dup3\n      add\n      0x40\n      mstore\n      dup1\n      iszero\n      tag_14\n      jumpi\n      dup2\n      0x20\n      add\n    tag_15:\n      tag_16\n      tag_17\n      jump\t// in\n    tag_16:\n      dup2\n      mstore\n      0x20\n      add\n      swap1\n      0x01\n      swap1\n      sub\n      swap1\n      dup2\n      tag_15\n      jumpi\n      swap1\n      pop\n    tag_14:\n      pop\n        /* \"contracts/PriceAggregator.sol\":717:770  output[] memory outputs = new output[](inputs.length) */\n      swap1\n      pop\n        /* \"contracts/PriceAggregator.sol\":784:790  uint i */\n      0x00\n        /* \"contracts/PriceAggregator.sol\":779:1261  for (uint i=0;i<inputs.length;i++){... */\n    tag_18:\n        /* \"contracts/PriceAggregator.sol\":795:801  inputs */\n      dup4\n        /* \"contracts/PriceAggregator.sol\":795:808  inputs.length */\n      mload\n        /* \"contracts/PriceAggregator.sol\":793:794  i */\n      dup2\n        /* \"contracts/PriceAggregator.sol\":793:808  i<inputs.length */\n      lt\n        /* \"contracts/PriceAggregator.sol\":779:1261  for (uint i=0;i<inputs.length;i++){... */\n      iszero\n      tag_19\n      jumpi\n        /* \"contracts/PriceAggregator.sol\":856:857  2 */\n      0x02\n        /* \"contracts/PriceAggregator.sol\":827:833  inputs */\n      dup5\n        /* \"contracts/PriceAggregator.sol\":834:835  i */\n      dup3\n        /* \"contracts/PriceAggregator.sol\":827:836  inputs[i] */\n      dup2\n      mload\n      dup2\n      lt\n      tag_21\n      jumpi\n      tag_22\n      tag_23\n      jump\t// in\n    tag_22:\n    tag_21:\n      0x20\n      mul\n      0x20\n      add\n      add\n      mload\n        /* \"contracts/PriceAggregator.sol\":827:852  inputs[i].providerVersion */\n      0x60\n      add\n      mload\n        /* \"contracts/PriceAggregator.sol\":827:857  inputs[i].providerVersion == 2 */\n      0xff\n      and\n      sub\n        /* \"contracts/PriceAggregator.sol\":823:1252  if (inputs[i].providerVersion == 2) {... */\n      tag_24\n      jumpi\n        /* \"contracts/PriceAggregator.sol\":873:886  uint256 price */\n      0x00\n        /* \"contracts/PriceAggregator.sol\":889:898  UniswapV2 */\n      linkerSymbol(\"66db80e837caed232b747c0dfa8ba195e80afd37d58afd4790f0bc06a2afa716\")\n        /* \"contracts/PriceAggregator.sol\":889:904  UniswapV2.Price */\n      0xc361e0b1\n        /* \"contracts/PriceAggregator.sol\":905:911  inputs */\n      dup7\n        /* \"contracts/PriceAggregator.sol\":912:913  i */\n      dup5\n        /* \"contracts/PriceAggregator.sol\":905:914  inputs[i] */\n      dup2\n      mload\n      dup2\n      lt\n      tag_25\n      jumpi\n      tag_26\n      tag_23\n      jump\t// in\n    tag_26:\n    tag_25:\n      0x20\n      mul\n      0x20\n      add\n      add\n      mload\n        /* \"contracts/PriceAggregator.sol\":905:923  inputs[i].provider */\n      0x40\n      add\n      mload\n        /* \"contracts/PriceAggregator.sol\":924:930  inputs */\n      dup8\n        /* \"contracts/PriceAggregator.sol\":931:932  i */\n      dup6\n        /* \"contracts/PriceAggregator.sol\":924:933  inputs[i] */\n      dup2\n      mload\n      dup2\n      lt\n      tag_27\n      jumpi\n      tag_28\n      tag_23\n      jump\t// in\n    tag_28:\n    tag_27:\n      0x20\n      mul\n      0x20\n      add\n      add\n      mload\n        /* \"contracts/PriceAggregator.sol\":924:936  inputs[i].t1 */\n      0x00\n      add\n      mload\n        /* \"contracts/PriceAggregator.sol\":937:943  inputs */\n      dup9\n        /* \"contracts/PriceAggregator.sol\":944:945  i */\n      dup7\n        /* \"contracts/PriceAggregator.sol\":937:946  inputs[i] */\n      dup2\n      mload\n      dup2\n      lt\n      tag_29\n      jumpi\n      tag_30\n      tag_23\n      jump\t// in\n    tag_30:\n    tag_29:\n      0x20\n      mul\n      0x20\n      add\n      add\n      mload\n        /* \"contracts/PriceAggregator.sol\":937:949  inputs[i].t2 */\n      0x20\n      add\n      mload\n        /* \"contracts/PriceAggregator.sol\":889:950  UniswapV2.Price(inputs[i].provider,inputs[i].t1,inputs[i].t2) */\n      mload(0x40)\n      dup5\n      0xffffffff\n      and\n      0xe0\n      shl\n      dup2\n      mstore\n      0x04\n      add\n      tag_31\n      swap4\n      swap3\n      swap2\n      swap1\n      tag_32\n      jump\t// in\n    tag_31:\n      0x20\n      mload(0x40)\n      dup1\n      dup4\n      sub\n      dup2\n      dup7\n      gas\n      delegatecall\n      iszero\n      dup1\n      iszero\n      tag_34\n      jumpi\n      returndatasize\n      0x00\n      dup1\n      returndatacopy\n      revert(0x00, returndatasize)\n    tag_34:\n      pop\n      pop\n      pop\n      pop\n      mload(0x40)\n      returndatasize\n      not(0x1f)\n      0x1f\n      dup3\n      add\n      and\n      dup3\n      add\n      dup1\n      0x40\n      mstore\n      pop\n      dup2\n      add\n      swap1\n      tag_35\n      swap2\n      swap1\n      tag_36\n      jump\t// in\n    tag_35:\n        /* \"contracts/PriceAggregator.sol\":873:950  uint256 price = UniswapV2.Price(inputs[i].provider,inputs[i].t1,inputs[i].t2) */\n      swap1\n      pop\n        /* \"contracts/PriceAggregator.sol\":977:1016  output(inputs[i].t1,inputs[i].t2,price) */\n      mload(0x40)\n      dup1\n      0x60\n      add\n      0x40\n      mstore\n      dup1\n        /* \"contracts/PriceAggregator.sol\":984:990  inputs */\n      dup7\n        /* \"contracts/PriceAggregator.sol\":991:992  i */\n      dup5\n        /* \"contracts/PriceAggregator.sol\":984:993  inputs[i] */\n      dup2\n      mload\n      dup2\n      lt\n      tag_37\n      jumpi\n      tag_38\n      tag_23\n      jump\t// in\n    tag_38:\n    tag_37:\n      0x20\n      mul\n      0x20\n      add\n      add\n      mload\n        /* \"contracts/PriceAggregator.sol\":984:996  inputs[i].t1 */\n      0x00\n      add\n      mload\n        /* \"contracts/PriceAggregator.sol\":977:1016  output(inputs[i].t1,inputs[i].t2,price) */\n      0xffffffffffffffffffffffffffffffffffffffff\n      and\n      dup2\n      mstore\n      0x20\n      add\n        /* \"contracts/PriceAggregator.sol\":997:1003  inputs */\n      dup7\n        /* \"contracts/PriceAggregator.sol\":1004:1005  i */\n      dup5\n        /* \"contracts/PriceAggregator.sol\":997:1006  inputs[i] */\n      dup2\n      mload\n      dup2\n      lt\n      tag_39\n      jumpi\n      tag_40\n      tag_23\n      jump\t// in\n    tag_40:\n    tag_39:\n      0x20\n      mul\n      0x20\n      add\n      add\n      mload\n        /* \"contracts/PriceAggregator.sol\":997:1009  inputs[i].t2 */\n      0x20\n      add\n      mload\n        /* \"contracts/PriceAggregator.sol\":977:1016  output(inputs[i].t1,inputs[i].t2,price) */\n      0xffffffffffffffffffffffffffffffffffffffff\n      and\n      dup2\n      mstore\n      0x20\n      add\n        /* \"contracts/PriceAggregator.sol\":1010:1015  price */\n      dup3\n        /* \"contracts/PriceAggregator.sol\":977:1016  output(inputs[i].t1,inputs[i].t2,price) */\n      dup2\n      mstore\n      pop\n        /* \"contracts/PriceAggregator.sol\":964:971  outputs */\n      dup4\n        /* \"contracts/PriceAggregator.sol\":972:973  i */\n      dup4\n        /* \"contracts/PriceAggregator.sol\":964:974  outputs[i] */\n      dup2\n      mload\n      dup2\n      lt\n      tag_41\n      jumpi\n      tag_42\n      tag_23\n      jump\t// in\n    tag_42:\n    tag_41:\n      0x20\n      mul\n      0x20\n      add\n      add\n        /* \"contracts/PriceAggregator.sol\":964:1016  outputs[i] = output(inputs[i].t1,inputs[i].t2,price) */\n      dup2\n      swap1\n      mstore\n      pop\n        /* \"contracts/PriceAggregator.sol\":859:1037  {... */\n      pop\n        /* \"contracts/PriceAggregator.sol\":823:1252  if (inputs[i].providerVersion == 2) {... */\n      jump(tag_43)\n    tag_24:\n        /* \"contracts/PriceAggregator.sol\":1076:1077  3 */\n      0x03\n        /* \"contracts/PriceAggregator.sol\":1047:1053  inputs */\n      dup5\n        /* \"contracts/PriceAggregator.sol\":1054:1055  i */\n      dup3\n        /* \"contracts/PriceAggregator.sol\":1047:1056  inputs[i] */\n      dup2\n      mload\n      dup2\n      lt\n      tag_44\n      jumpi\n      tag_45\n      tag_23\n      jump\t// in\n    tag_45:\n    tag_44:\n      0x20\n      mul\n      0x20\n      add\n      add\n      mload\n        /* \"contracts/PriceAggregator.sol\":1047:1072  inputs[i].providerVersion */\n      0x60\n      add\n      mload\n        /* \"contracts/PriceAggregator.sol\":1047:1077  inputs[i].providerVersion == 3 */\n      0xff\n      and\n      sub\n        /* \"contracts/PriceAggregator.sol\":1043:1252  if (inputs[i].providerVersion == 3) {... */\n      tag_46\n      jumpi\n        /* \"contracts/PriceAggregator.sol\":1093:1106  uint256 price */\n      0x00\n        /* \"contracts/PriceAggregator.sol\":1109:1118  UniswapV3 */\n      linkerSymbol(\"295ab41254e875e078eae9a73e9e2c34b169d6e6e61c89bb6c8551dc204f08c5\")\n        /* \"contracts/PriceAggregator.sol\":1109:1128  UniswapV3.sqrtPrice */\n      0xedf15a9a\n        /* \"contracts/PriceAggregator.sol\":1129:1135  inputs */\n      dup7\n        /* \"contracts/PriceAggregator.sol\":1136:1137  i */\n      dup5\n        /* \"contracts/PriceAggregator.sol\":1129:1138  inputs[i] */\n      dup2\n      mload\n      dup2\n      lt\n      tag_47\n      jumpi\n      tag_48\n      tag_23\n      jump\t// in\n    tag_48:\n    tag_47:\n      0x20\n      mul\n      0x20\n      add\n      add\n      mload\n        /* \"contracts/PriceAggregator.sol\":1129:1147  inputs[i].provider */\n      0x40\n      add\n      mload\n        /* \"contracts/PriceAggregator.sol\":1148:1154  inputs */\n      dup8\n        /* \"contracts/PriceAggregator.sol\":1155:1156  i */\n      dup6\n        /* \"contracts/PriceAggregator.sol\":1148:1157  inputs[i] */\n      dup2\n      mload\n      dup2\n      lt\n      tag_49\n      jumpi\n      tag_50\n      tag_23\n      jump\t// in\n    tag_50:\n    tag_49:\n      0x20\n      mul\n      0x20\n      add\n      add\n      mload\n        /* \"contracts/PriceAggregator.sol\":1148:1160  inputs[i].t1 */\n      0x00\n      add\n      mload\n        /* \"contracts/PriceAggregator.sol\":1161:1167  inputs */\n      dup9\n        /* \"contracts/PriceAggregator.sol\":1168:1169  i */\n      dup7\n        /* \"contracts/PriceAggregator.sol\":1161:1170  inputs[i] */\n      dup2\n      mload\n      dup2\n      lt\n      tag_51\n      jumpi\n      tag_52\n      tag_23\n      jump\t// in\n    tag_52:\n    tag_51:\n      0x20\n      mul\n      0x20\n      add\n      add\n      mload\n        /* \"contracts/PriceAggregator.sol\":1161:1173  inputs[i].t2 */\n      0x20\n      add\n      mload\n        /* \"contracts/PriceAggregator.sol\":1109:1174  UniswapV3.sqrtPrice(inputs[i].provider,inputs[i].t1,inputs[i].t2) */\n      mload(0x40)\n      dup5\n      0xffffffff\n      and\n      0xe0\n      shl\n      dup2\n      mstore\n      0x04\n      add\n      tag_53\n      swap4\n      swap3\n      swap2\n      swap1\n      tag_32\n      jump\t// in\n    tag_53:\n      0x20\n      mload(0x40)\n      dup1\n      dup4\n      sub\n      dup2\n      dup7\n      gas\n      delegatecall\n      iszero\n      dup1\n      iszero\n      tag_55\n      jumpi\n      returndatasize\n      0x00\n      dup1\n      returndatacopy\n      revert(0x00, returndatasize)\n    tag_55:\n      pop\n      pop\n      pop\n      pop\n      mload(0x40)\n      returndatasize\n      not(0x1f)\n      0x1f\n      dup3\n      add\n      and\n      dup3\n      add\n      dup1\n      0x40\n      mstore\n      pop\n      dup2\n      add\n      swap1\n      tag_56\n      swap2\n      swap1\n      tag_36\n      jump\t// in\n    tag_56:\n        /* \"contracts/PriceAggregator.sol\":1093:1174  uint256 price = UniswapV3.sqrtPrice(inputs[i].provider,inputs[i].t1,inputs[i].t2) */\n      swap1\n      pop\n        /* \"contracts/PriceAggregator.sol\":1201:1240  output(inputs[i].t1,inputs[i].t2,price) */\n      mload(0x40)\n      dup1\n      0x60\n      add\n      0x40\n      mstore\n      dup1\n        /* \"contracts/PriceAggregator.sol\":1208:1214  inputs */\n      dup7\n        /* \"contracts/PriceAggregator.sol\":1215:1216  i */\n      dup5\n        /* \"contracts/PriceAggregator.sol\":1208:1217  inputs[i] */\n      dup2\n      mload\n      dup2\n      lt\n      tag_57\n      jumpi\n      tag_58\n      tag_23\n      jump\t// in\n    tag_58:\n    tag_57:\n      0x20\n      mul\n      0x20\n      add\n      add\n      mload\n        /* \"contracts/PriceAggregator.sol\":1208:1220  inputs[i].t1 */\n      0x00\n      add\n      mload\n        /* \"contracts/PriceAggregator.sol\":1201:1240  output(inputs[i].t1,inputs[i].t2,price) */\n      0xffffffffffffffffffffffffffffffffffffffff\n      and\n      dup2\n      mstore\n      0x20\n      add\n        /* \"contracts/PriceAggregator.sol\":1221:1227  inputs */\n      dup7\n        /* \"contracts/PriceAggregator.sol\":1228:1229  i */\n      dup5\n        /* \"contracts/PriceAggregator.sol\":1221:1230  inputs[i] */\n      dup2\n      mload\n      dup2\n      lt\n      tag_59\n      jumpi\n      tag_60\n      tag_23\n      jump\t// in\n    tag_60:\n    tag_59:\n      0x20\n      mul\n      0x20\n      add\n      add\n      mload\n        /* \"contracts/PriceAggregator.sol\":1221:1233  inputs[i].t2 */\n      0x20\n      add\n      mload\n        /* \"contracts/PriceAggregator.sol\":1201:1240  output(inputs[i].t1,inputs[i].t2,price) */\n      0xffffffffffffffffffffffffffffffffffffffff\n      and\n      dup2\n      mstore\n      0x20\n      add\n        /* \"contracts/PriceAggregator.sol\":1234:1239  price */\n      dup3\n        /* \"contracts/PriceAggregator.sol\":1201:1240  output(inputs[i].t1,inputs[i].t2,price) */\n      dup2\n      mstore\n      pop\n        /* \"contracts/PriceAggregator.sol\":1188:1195  outputs */\n      dup4\n        /* \"contracts/PriceAggregator.sol\":1196:1197  i */\n      dup4\n        /* \"contracts/PriceAggregator.sol\":1188:1198  outputs[i] */\n      dup2\n      mload\n      dup2\n      lt\n      tag_61\n      jumpi\n      tag_62\n      tag_23\n      jump\t// in\n    tag_62:\n    tag_61:\n      0x20\n      mul\n      0x20\n      add\n      add\n        /* \"contracts/PriceAggregator.sol\":1188:1240  outputs[i] = output(inputs[i].t1,inputs[i].t2,price) */\n      dup2\n      swap1\n      mstore\n      pop\n        /* \"contracts/PriceAggregator.sol\":1079:1252  {... */\n      pop\n        /* \"contracts/PriceAggregator.sol\":1043:1252  if (inputs[i].providerVersion == 3) {... */\n    tag_46:\n        /* \"contracts/PriceAggregator.sol\":823:1252  if (inputs[i].providerVersion == 2) {... */\n    tag_43:\n        /* \"contracts/PriceAggregator.sol\":809:812  i++ */\n      dup1\n      dup1\n      tag_63\n      swap1\n      tag_64\n      jump\t// in\n    tag_63:\n      swap2\n      pop\n      pop\n        /* \"contracts/PriceAggregator.sol\":779:1261  for (uint i=0;i<inputs.length;i++){... */\n      jump(tag_18)\n    tag_19:\n      pop\n        /* \"contracts/PriceAggregator.sol\":1281:1288  outputs */\n      dup1\n        /* \"contracts/PriceAggregator.sol\":1274:1288  return outputs */\n      swap2\n      pop\n      pop\n        /* \"contracts/PriceAggregator.sol\":627:1295  function getPrices(input[] memory inputs) public view returns (output[] memory) {... */\n      swap2\n      swap1\n      pop\n      jump\t// out\n    tag_17:\n      mload(0x40)\n      dup1\n      0x60\n      add\n      0x40\n      mstore\n      dup1\n      and(0xffffffffffffffffffffffffffffffffffffffff, 0x00)\n      dup2\n      mstore\n      0x20\n      add\n      and(0xffffffffffffffffffffffffffffffffffffffff, 0x00)\n      dup2\n      mstore\n      0x20\n      add\n      0x00\n      dup2\n      mstore\n      pop\n      swap1\n      jump\t// out\n        /* \"#utility.yul\":7:82   */\n    tag_65:\n        /* \"#utility.yul\":40:46   */\n      0x00\n        /* \"#utility.yul\":73:75   */\n      0x40\n        /* \"#utility.yul\":67:76   */\n      mload\n        /* \"#utility.yul\":57:76   */\n      swap1\n      pop\n        /* \"#utility.yul\":7:82   */\n      swap1\n      jump\t// out\n        /* \"#utility.yul\":88:205   */\n    tag_66:\n        /* \"#utility.yul\":197:198   */\n      0x00\n        /* \"#utility.yul\":194:195   */\n      dup1\n        /* \"#utility.yul\":187:199   */\n      revert\n        /* \"#utility.yul\":211:328   */\n    tag_67:\n        /* \"#utility.yul\":320:321   */\n      0x00\n        /* \"#utility.yul\":317:318   */\n      dup1\n        /* \"#utility.yul\":310:322   */\n      revert\n        /* \"#utility.yul\":334:451   */\n    tag_68:\n        /* \"#utility.yul\":443:444   */\n      0x00\n        /* \"#utility.yul\":440:441   */\n      dup1\n        /* \"#utility.yul\":433:445   */\n      revert\n        /* \"#utility.yul\":457:559   */\n    tag_69:\n        /* \"#utility.yul\":498:504   */\n      0x00\n        /* \"#utility.yul\":549:551   */\n      0x1f\n        /* \"#utility.yul\":545:552   */\n      not\n        /* \"#utility.yul\":540:542   */\n      0x1f\n        /* \"#utility.yul\":533:538   */\n      dup4\n        /* \"#utility.yul\":529:543   */\n      add\n        /* \"#utility.yul\":525:553   */\n      and\n        /* \"#utility.yul\":515:553   */\n      swap1\n      pop\n        /* \"#utility.yul\":457:559   */\n      swap2\n      swap1\n      pop\n      jump\t// out\n        /* \"#utility.yul\":565:745   */\n    tag_13:\n        /* \"#utility.yul\":613:690   */\n      0x4e487b7100000000000000000000000000000000000000000000000000000000\n        /* \"#utility.yul\":610:611   */\n      0x00\n        /* \"#utility.yul\":603:691   */\n      mstore\n        /* \"#utility.yul\":710:714   */\n      0x41\n        /* \"#utility.yul\":707:708   */\n      0x04\n        /* \"#utility.yul\":700:715   */\n      mstore\n        /* \"#utility.yul\":734:738   */\n      0x24\n        /* \"#utility.yul\":731:732   */\n      0x00\n        /* \"#utility.yul\":724:739   */\n      revert\n        /* \"#utility.yul\":751:1032   */\n    tag_70:\n        /* \"#utility.yul\":834:861   */\n      tag_108\n        /* \"#utility.yul\":856:860   */\n      dup3\n        /* \"#utility.yul\":834:861   */\n      tag_69\n      jump\t// in\n    tag_108:\n        /* \"#utility.yul\":826:832   */\n      dup2\n        /* \"#utility.yul\":822:862   */\n      add\n        /* \"#utility.yul\":964:970   */\n      dup2\n        /* \"#utility.yul\":952:962   */\n      dup2\n        /* \"#utility.yul\":949:971   */\n      lt\n        /* \"#utility.yul\":928:946   */\n      0xffffffffffffffff\n        /* \"#utility.yul\":916:926   */\n      dup3\n        /* \"#utility.yul\":913:947   */\n      gt\n        /* \"#utility.yul\":910:972   */\n      or\n        /* \"#utility.yul\":907:995   */\n      iszero\n      tag_109\n      jumpi\n        /* \"#utility.yul\":975:993   */\n      tag_110\n      tag_13\n      jump\t// in\n    tag_110:\n        /* \"#utility.yul\":907:995   */\n    tag_109:\n        /* \"#utility.yul\":1015:1025   */\n      dup1\n        /* \"#utility.yul\":1011:1013   */\n      0x40\n        /* \"#utility.yul\":1004:1026   */\n      mstore\n        /* \"#utility.yul\":794:1032   */\n      pop\n        /* \"#utility.yul\":751:1032   */\n      pop\n      pop\n      jump\t// out\n        /* \"#utility.yul\":1038:1167   */\n    tag_71:\n        /* \"#utility.yul\":1072:1078   */\n      0x00\n        /* \"#utility.yul\":1099:1119   */\n      tag_112\n      tag_65\n      jump\t// in\n    tag_112:\n        /* \"#utility.yul\":1089:1119   */\n      swap1\n      pop\n        /* \"#utility.yul\":1128:1161   */\n      tag_113\n        /* \"#utility.yul\":1156:1160   */\n      dup3\n        /* \"#utility.yul\":1148:1154   */\n      dup3\n        /* \"#utility.yul\":1128:1161   */\n      tag_70\n      jump\t// in\n    tag_113:\n        /* \"#utility.yul\":1038:1167   */\n      swap2\n      swap1\n      pop\n      jump\t// out\n        /* \"#utility.yul\":1173:1506   */\n    tag_72:\n        /* \"#utility.yul\":1272:1276   */\n      0x00\n        /* \"#utility.yul\":1362:1380   */\n      0xffffffffffffffff\n        /* \"#utility.yul\":1354:1360   */\n      dup3\n        /* \"#utility.yul\":1351:1381   */\n      gt\n        /* \"#utility.yul\":1348:1404   */\n      iszero\n      tag_115\n      jumpi\n        /* \"#utility.yul\":1384:1402   */\n      tag_116\n      tag_13\n      jump\t// in\n    tag_116:\n        /* \"#utility.yul\":1348:1404   */\n    tag_115:\n        /* \"#utility.yul\":1434:1438   */\n      0x20\n        /* \"#utility.yul\":1426:1432   */\n      dup3\n        /* \"#utility.yul\":1422:1439   */\n      mul\n        /* \"#utility.yul\":1414:1439   */\n      swap1\n      pop\n        /* \"#utility.yul\":1494:1498   */\n      0x20\n        /* \"#utility.yul\":1488:1492   */\n      dup2\n        /* \"#utility.yul\":1484:1499   */\n      add\n        /* \"#utility.yul\":1476:1499   */\n      swap1\n      pop\n        /* \"#utility.yul\":1173:1506   */\n      swap2\n      swap1\n      pop\n      jump\t// out\n        /* \"#utility.yul\":1512:1629   */\n    tag_73:\n        /* \"#utility.yul\":1621:1622   */\n      0x00\n        /* \"#utility.yul\":1618:1619   */\n      dup1\n        /* \"#utility.yul\":1611:1623   */\n      revert\n        /* \"#utility.yul\":1635:1752   */\n    tag_74:\n        /* \"#utility.yul\":1744:1745   */\n      0x00\n        /* \"#utility.yul\":1741:1742   */\n      dup1\n        /* \"#utility.yul\":1734:1746   */\n      revert\n        /* \"#utility.yul\":1881:2007   */\n    tag_76:\n        /* \"#utility.yul\":1918:1925   */\n      0x00\n        /* \"#utility.yul\":1958:2000   */\n      0xffffffffffffffffffffffffffffffffffffffff\n        /* \"#utility.yul\":1951:1956   */\n      dup3\n        /* \"#utility.yul\":1947:2001   */\n      and\n        /* \"#utility.yul\":1936:2001   */\n      swap1\n      pop\n        /* \"#utility.yul\":1881:2007   */\n      swap2\n      swap1\n      pop\n      jump\t// out\n        /* \"#utility.yul\":2013:2109   */\n    tag_77:\n        /* \"#utility.yul\":2050:2057   */\n      0x00\n        /* \"#utility.yul\":2079:2103   */\n      tag_122\n        /* \"#utility.yul\":2097:2102   */\n      dup3\n        /* \"#utility.yul\":2079:2103   */\n      tag_76\n      jump\t// in\n    tag_122:\n        /* \"#utility.yul\":2068:2103   */\n      swap1\n      pop\n        /* \"#utility.yul\":2013:2109   */\n      swap2\n      swap1\n      pop\n      jump\t// out\n        /* \"#utility.yul\":2115:2237   */\n    tag_78:\n        /* \"#utility.yul\":2188:2212   */\n      tag_124\n        /* \"#utility.yul\":2206:2211   */\n      dup2\n        /* \"#utility.yul\":2188:2212   */\n      tag_77\n      jump\t// in\n    tag_124:\n        /* \"#utility.yul\":2181:2186   */\n      dup2\n        /* \"#utility.yul\":2178:2213   */\n      eq\n        /* \"#utility.yul\":2168:2231   */\n      tag_125\n      jumpi\n        /* \"#utility.yul\":2227:2228   */\n      0x00\n        /* \"#utility.yul\":2224:2225   */\n      dup1\n        /* \"#utility.yul\":2217:2229   */\n      revert\n        /* \"#utility.yul\":2168:2231   */\n    tag_125:\n        /* \"#utility.yul\":2115:2237   */\n      pop\n      jump\t// out\n        /* \"#utility.yul\":2243:2382   */\n    tag_79:\n        /* \"#utility.yul\":2289:2294   */\n      0x00\n        /* \"#utility.yul\":2327:2333   */\n      dup2\n        /* \"#utility.yul\":2314:2334   */\n      calldataload\n        /* \"#utility.yul\":2305:2334   */\n      swap1\n      pop\n        /* \"#utility.yul\":2343:2376   */\n      tag_127\n        /* \"#utility.yul\":2370:2375   */\n      dup2\n        /* \"#utility.yul\":2343:2376   */\n      tag_78\n      jump\t// in\n    tag_127:\n        /* \"#utility.yul\":2243:2382   */\n      swap3\n      swap2\n      pop\n      pop\n      jump\t// out\n        /* \"#utility.yul\":2388:2474   */\n    tag_80:\n        /* \"#utility.yul\":2423:2430   */\n      0x00\n        /* \"#utility.yul\":2463:2467   */\n      0xff\n        /* \"#utility.yul\":2456:2461   */\n      dup3\n        /* \"#utility.yul\":2452:2468   */\n      and\n        /* \"#utility.yul\":2441:2468   */\n      swap1\n      pop\n        /* \"#utility.yul\":2388:2474   */\n      swap2\n      swap1\n      pop\n      jump\t// out\n        /* \"#utility.yul\":2480:2598   */\n    tag_81:\n        /* \"#utility.yul\":2551:2573   */\n      tag_130\n        /* \"#utility.yul\":2567:2572   */\n      dup2\n        /* \"#utility.yul\":2551:2573   */\n      tag_80\n      jump\t// in\n    tag_130:\n        /* \"#utility.yul\":2544:2549   */\n      dup2\n        /* \"#utility.yul\":2541:2574   */\n      eq\n        /* \"#utility.yul\":2531:2592   */\n      tag_131\n      jumpi\n        /* \"#utility.yul\":2588:2589   */\n      0x00\n        /* \"#utility.yul\":2585:2586   */\n      dup1\n        /* \"#utility.yul\":2578:2590   */\n      revert\n        /* \"#utility.yul\":2531:2592   */\n    tag_131:\n        /* \"#utility.yul\":2480:2598   */\n      pop\n      jump\t// out\n        /* \"#utility.yul\":2604:2739   */\n    tag_82:\n        /* \"#utility.yul\":2648:2653   */\n      0x00\n        /* \"#utility.yul\":2686:2692   */\n      dup2\n        /* \"#utility.yul\":2673:2693   */\n      calldataload\n        /* \"#utility.yul\":2664:2693   */\n      swap1\n      pop\n        /* \"#utility.yul\":2702:2733   */\n      tag_133\n        /* \"#utility.yul\":2727:2732   */\n      dup2\n        /* \"#utility.yul\":2702:2733   */\n      tag_81\n      jump\t// in\n    tag_133:\n        /* \"#utility.yul\":2604:2739   */\n      swap3\n      swap2\n      pop\n      pop\n      jump\t// out\n        /* \"#utility.yul\":2781:3683   */\n    tag_83:\n        /* \"#utility.yul\":2852:2857   */\n      0x00\n        /* \"#utility.yul\":2896:2900   */\n      0x80\n        /* \"#utility.yul\":2884:2893   */\n      dup3\n        /* \"#utility.yul\":2879:2882   */\n      dup5\n        /* \"#utility.yul\":2875:2894   */\n      sub\n        /* \"#utility.yul\":2871:2901   */\n      slt\n        /* \"#utility.yul\":2868:2985   */\n      iszero\n      tag_135\n      jumpi\n        /* \"#utility.yul\":2904:2983   */\n      tag_136\n      tag_74\n      jump\t// in\n    tag_136:\n        /* \"#utility.yul\":2868:2985   */\n    tag_135:\n        /* \"#utility.yul\":3003:3024   */\n      tag_137\n        /* \"#utility.yul\":3019:3023   */\n      0x80\n        /* \"#utility.yul\":3003:3024   */\n      tag_71\n      jump\t// in\n    tag_137:\n        /* \"#utility.yul\":2994:3024   */\n      swap1\n      pop\n        /* \"#utility.yul\":3081:3082   */\n      0x00\n        /* \"#utility.yul\":3121:3170   */\n      tag_138\n        /* \"#utility.yul\":3166:3169   */\n      dup5\n        /* \"#utility.yul\":3157:3163   */\n      dup3\n        /* \"#utility.yul\":3146:3155   */\n      dup6\n        /* \"#utility.yul\":3142:3164   */\n      add\n        /* \"#utility.yul\":3121:3170   */\n      tag_79\n      jump\t// in\n    tag_138:\n        /* \"#utility.yul\":3114:3118   */\n      0x00\n        /* \"#utility.yul\":3107:3112   */\n      dup4\n        /* \"#utility.yul\":3103:3119   */\n      add\n        /* \"#utility.yul\":3096:3171   */\n      mstore\n        /* \"#utility.yul\":3034:3182   */\n      pop\n        /* \"#utility.yul\":3239:3241   */\n      0x20\n        /* \"#utility.yul\":3280:3329   */\n      tag_139\n        /* \"#utility.yul\":3325:3328   */\n      dup5\n        /* \"#utility.yul\":3316:3322   */\n      dup3\n        /* \"#utility.yul\":3305:3314   */\n      dup6\n        /* \"#utility.yul\":3301:3323   */\n      add\n        /* \"#utility.yul\":3280:3329   */\n      tag_79\n      jump\t// in\n    tag_139:\n        /* \"#utility.yul\":3273:3277   */\n      0x20\n        /* \"#utility.yul\":3266:3271   */\n      dup4\n        /* \"#utility.yul\":3262:3278   */\n      add\n        /* \"#utility.yul\":3255:3330   */\n      mstore\n        /* \"#utility.yul\":3192:3341   */\n      pop\n        /* \"#utility.yul\":3404:3406   */\n      0x40\n        /* \"#utility.yul\":3445:3494   */\n      tag_140\n        /* \"#utility.yul\":3490:3493   */\n      dup5\n        /* \"#utility.yul\":3481:3487   */\n      dup3\n        /* \"#utility.yul\":3470:3479   */\n      dup6\n        /* \"#utility.yul\":3466:3488   */\n      add\n        /* \"#utility.yul\":3445:3494   */\n      tag_79\n      jump\t// in\n    tag_140:\n        /* \"#utility.yul\":3438:3442   */\n      0x40\n        /* \"#utility.yul\":3431:3436   */\n      dup4\n        /* \"#utility.yul\":3427:3443   */\n      add\n        /* \"#utility.yul\":3420:3495   */\n      mstore\n        /* \"#utility.yul\":3351:3506   */\n      pop\n        /* \"#utility.yul\":3576:3578   */\n      0x60\n        /* \"#utility.yul\":3617:3664   */\n      tag_141\n        /* \"#utility.yul\":3660:3663   */\n      dup5\n        /* \"#utility.yul\":3651:3657   */\n      dup3\n        /* \"#utility.yul\":3640:3649   */\n      dup6\n        /* \"#utility.yul\":3636:3658   */\n      add\n        /* \"#utility.yul\":3617:3664   */\n      tag_82\n      jump\t// in\n    tag_141:\n        /* \"#utility.yul\":3610:3614   */\n      0x60\n        /* \"#utility.yul\":3603:3608   */\n      dup4\n        /* \"#utility.yul\":3599:3615   */\n      add\n        /* \"#utility.yul\":3592:3665   */\n      mstore\n        /* \"#utility.yul\":3516:3676   */\n      pop\n        /* \"#utility.yul\":2781:3683   */\n      swap3\n      swap2\n      pop\n      pop\n      jump\t// out\n        /* \"#utility.yul\":3727:4503   */\n    tag_84:\n        /* \"#utility.yul\":3845:3850   */\n      0x00\n        /* \"#utility.yul\":3870:3973   */\n      tag_143\n        /* \"#utility.yul\":3886:3972   */\n      tag_144\n        /* \"#utility.yul\":3965:3971   */\n      dup5\n        /* \"#utility.yul\":3886:3972   */\n      tag_72\n      jump\t// in\n    tag_144:\n        /* \"#utility.yul\":3870:3973   */\n      tag_71\n      jump\t// in\n    tag_143:\n        /* \"#utility.yul\":3861:3973   */\n      swap1\n      pop\n        /* \"#utility.yul\":3993:3998   */\n      dup1\n        /* \"#utility.yul\":4022:4028   */\n      dup4\n        /* \"#utility.yul\":4015:4020   */\n      dup3\n        /* \"#utility.yul\":4008:4029   */\n      mstore\n        /* \"#utility.yul\":4056:4060   */\n      0x20\n        /* \"#utility.yul\":4049:4054   */\n      dup3\n        /* \"#utility.yul\":4045:4061   */\n      add\n        /* \"#utility.yul\":4038:4061   */\n      swap1\n      pop\n        /* \"#utility.yul\":4109:4113   */\n      0x80\n        /* \"#utility.yul\":4101:4107   */\n      dup5\n        /* \"#utility.yul\":4097:4114   */\n      mul\n        /* \"#utility.yul\":4089:4095   */\n      dup4\n        /* \"#utility.yul\":4085:4115   */\n      add\n        /* \"#utility.yul\":4138:4141   */\n      dup6\n        /* \"#utility.yul\":4130:4136   */\n      dup2\n        /* \"#utility.yul\":4127:4142   */\n      gt\n        /* \"#utility.yul\":4124:4246   */\n      iszero\n      tag_145\n      jumpi\n        /* \"#utility.yul\":4157:4236   */\n      tag_146\n      tag_73\n      jump\t// in\n    tag_146:\n        /* \"#utility.yul\":4124:4246   */\n    tag_145:\n        /* \"#utility.yul\":4272:4278   */\n      dup4\n        /* \"#utility.yul\":4255:4497   */\n    tag_147:\n        /* \"#utility.yul\":4289:4295   */\n      dup2\n        /* \"#utility.yul\":4284:4287   */\n      dup2\n        /* \"#utility.yul\":4281:4296   */\n      lt\n        /* \"#utility.yul\":4255:4497   */\n      iszero\n      tag_149\n      jumpi\n        /* \"#utility.yul\":4364:4367   */\n      dup1\n        /* \"#utility.yul\":4393:4452   */\n      tag_150\n        /* \"#utility.yul\":4448:4451   */\n      dup9\n        /* \"#utility.yul\":4436:4446   */\n      dup3\n        /* \"#utility.yul\":4393:4452   */\n      tag_83\n      jump\t// in\n    tag_150:\n        /* \"#utility.yul\":4388:4391   */\n      dup5\n        /* \"#utility.yul\":4381:4453   */\n      mstore\n        /* \"#utility.yul\":4482:4486   */\n      0x20\n        /* \"#utility.yul\":4477:4480   */\n      dup5\n        /* \"#utility.yul\":4473:4487   */\n      add\n        /* \"#utility.yul\":4466:4487   */\n      swap4\n      pop\n        /* \"#utility.yul\":4331:4497   */\n      pop\n        /* \"#utility.yul\":4315:4319   */\n      0x80\n        /* \"#utility.yul\":4310:4313   */\n      dup2\n        /* \"#utility.yul\":4306:4320   */\n      add\n        /* \"#utility.yul\":4299:4320   */\n      swap1\n      pop\n        /* \"#utility.yul\":4255:4497   */\n      jump(tag_147)\n    tag_149:\n        /* \"#utility.yul\":4259:4280   */\n      pop\n        /* \"#utility.yul\":3851:4503   */\n      pop\n      pop\n        /* \"#utility.yul\":3727:4503   */\n      swap4\n      swap3\n      pop\n      pop\n      pop\n      jump\t// out\n        /* \"#utility.yul\":4547:4961   */\n    tag_85:\n        /* \"#utility.yul\":4640:4645   */\n      0x00\n        /* \"#utility.yul\":4689:4692   */\n      dup3\n        /* \"#utility.yul\":4682:4686   */\n      0x1f\n        /* \"#utility.yul\":4674:4680   */\n      dup4\n        /* \"#utility.yul\":4670:4687   */\n      add\n        /* \"#utility.yul\":4666:4693   */\n      slt\n        /* \"#utility.yul\":4656:4778   */\n      tag_152\n      jumpi\n        /* \"#utility.yul\":4697:4776   */\n      tag_153\n      tag_68\n      jump\t// in\n    tag_153:\n        /* \"#utility.yul\":4656:4778   */\n    tag_152:\n        /* \"#utility.yul\":4814:4820   */\n      dup2\n        /* \"#utility.yul\":4801:4821   */\n      calldataload\n        /* \"#utility.yul\":4839:4955   */\n      tag_154\n        /* \"#utility.yul\":4951:4954   */\n      dup5\n        /* \"#utility.yul\":4943:4949   */\n      dup3\n        /* \"#utility.yul\":4936:4940   */\n      0x20\n        /* \"#utility.yul\":4928:4934   */\n      dup7\n        /* \"#utility.yul\":4924:4941   */\n      add\n        /* \"#utility.yul\":4839:4955   */\n      tag_84\n      jump\t// in\n    tag_154:\n        /* \"#utility.yul\":4830:4955   */\n      swap2\n      pop\n        /* \"#utility.yul\":4646:4961   */\n      pop\n        /* \"#utility.yul\":4547:4961   */\n      swap3\n      swap2\n      pop\n      pop\n      jump\t// out\n        /* \"#utility.yul\":4967:5550   */\n    tag_6:\n        /* \"#utility.yul\":5073:5079   */\n      0x00\n        /* \"#utility.yul\":5122:5124   */\n      0x20\n        /* \"#utility.yul\":5110:5119   */\n      dup3\n        /* \"#utility.yul\":5101:5108   */\n      dup5\n        /* \"#utility.yul\":5097:5120   */\n      sub\n        /* \"#utility.yul\":5093:5125   */\n      slt\n        /* \"#utility.yul\":5090:5209   */\n      iszero\n      tag_156\n      jumpi\n        /* \"#utility.yul\":5128:5207   */\n      tag_157\n      tag_66\n      jump\t// in\n    tag_157:\n        /* \"#utility.yul\":5090:5209   */\n    tag_156:\n        /* \"#utility.yul\":5276:5277   */\n      0x00\n        /* \"#utility.yul\":5265:5274   */\n      dup3\n        /* \"#utility.yul\":5261:5278   */\n      add\n        /* \"#utility.yul\":5248:5279   */\n      calldataload\n        /* \"#utility.yul\":5306:5324   */\n      0xffffffffffffffff\n        /* \"#utility.yul\":5298:5304   */\n      dup2\n        /* \"#utility.yul\":5295:5325   */\n      gt\n        /* \"#utility.yul\":5292:5409   */\n      iszero\n      tag_158\n      jumpi\n        /* \"#utility.yul\":5328:5407   */\n      tag_159\n      tag_67\n      jump\t// in\n    tag_159:\n        /* \"#utility.yul\":5292:5409   */\n    tag_158:\n        /* \"#utility.yul\":5433:5533   */\n      tag_160\n        /* \"#utility.yul\":5525:5532   */\n      dup5\n        /* \"#utility.yul\":5516:5522   */\n      dup3\n        /* \"#utility.yul\":5505:5514   */\n      dup6\n        /* \"#utility.yul\":5501:5523   */\n      add\n        /* \"#utility.yul\":5433:5533   */\n      tag_85\n      jump\t// in\n    tag_160:\n        /* \"#utility.yul\":5423:5533   */\n      swap2\n      pop\n        /* \"#utility.yul\":5219:5543   */\n      pop\n        /* \"#utility.yul\":4967:5550   */\n      swap3\n      swap2\n      pop\n      pop\n      jump\t// out\n        /* \"#utility.yul\":5556:5693   */\n    tag_86:\n        /* \"#utility.yul\":5646:5652   */\n      0x00\n        /* \"#utility.yul\":5680:5685   */\n      dup2\n        /* \"#utility.yul\":5674:5686   */\n      mload\n        /* \"#utility.yul\":5664:5686   */\n      swap1\n      pop\n        /* \"#utility.yul\":5556:5693   */\n      swap2\n      swap1\n      pop\n      jump\t// out\n        /* \"#utility.yul\":5699:5906   */\n    tag_87:\n        /* \"#utility.yul\":5821:5832   */\n      0x00\n        /* \"#utility.yul\":5855:5861   */\n      dup3\n        /* \"#utility.yul\":5850:5853   */\n      dup3\n        /* \"#utility.yul\":5843:5862   */\n      mstore\n        /* \"#utility.yul\":5895:5899   */\n      0x20\n        /* \"#utility.yul\":5890:5893   */\n      dup3\n        /* \"#utility.yul\":5886:5900   */\n      add\n        /* \"#utility.yul\":5871:5900   */\n      swap1\n      pop\n        /* \"#utility.yul\":5699:5906   */\n      swap3\n      swap2\n      pop\n      pop\n      jump\t// out\n        /* \"#utility.yul\":5912:6067   */\n    tag_88:\n        /* \"#utility.yul\":6002:6006   */\n      0x00\n        /* \"#utility.yul\":6025:6028   */\n      dup2\n        /* \"#utility.yul\":6017:6028   */\n      swap1\n      pop\n        /* \"#utility.yul\":6055:6059   */\n      0x20\n        /* \"#utility.yul\":6050:6053   */\n      dup3\n        /* \"#utility.yul\":6046:6060   */\n      add\n        /* \"#utility.yul\":6038:6060   */\n      swap1\n      pop\n        /* \"#utility.yul\":5912:6067   */\n      swap2\n      swap1\n      pop\n      jump\t// out\n        /* \"#utility.yul\":6073:6181   */\n    tag_89:\n        /* \"#utility.yul\":6150:6174   */\n      tag_165\n        /* \"#utility.yul\":6168:6173   */\n      dup2\n        /* \"#utility.yul\":6150:6174   */\n      tag_77\n      jump\t// in\n    tag_165:\n        /* \"#utility.yul\":6145:6148   */\n      dup3\n        /* \"#utility.yul\":6138:6175   */\n      mstore\n        /* \"#utility.yul\":6073:6181   */\n      pop\n      pop\n      jump\t// out\n        /* \"#utility.yul\":6187:6264   */\n    tag_90:\n        /* \"#utility.yul\":6224:6231   */\n      0x00\n        /* \"#utility.yul\":6253:6258   */\n      dup2\n        /* \"#utility.yul\":6242:6258   */\n      swap1\n      pop\n        /* \"#utility.yul\":6187:6264   */\n      swap2\n      swap1\n      pop\n      jump\t// out\n        /* \"#utility.yul\":6270:6378   */\n    tag_91:\n        /* \"#utility.yul\":6347:6371   */\n      tag_168\n        /* \"#utility.yul\":6365:6370   */\n      dup2\n        /* \"#utility.yul\":6347:6371   */\n      tag_90\n      jump\t// in\n    tag_168:\n        /* \"#utility.yul\":6342:6345   */\n      dup3\n        /* \"#utility.yul\":6335:6372   */\n      mstore\n        /* \"#utility.yul\":6270:6378   */\n      pop\n      pop\n      jump\t// out\n        /* \"#utility.yul\":6454:7118   */\n    tag_92:\n        /* \"#utility.yul\":6587:6591   */\n      0x60\n        /* \"#utility.yul\":6582:6585   */\n      dup3\n        /* \"#utility.yul\":6578:6592   */\n      add\n        /* \"#utility.yul\":6672:6676   */\n      0x00\n        /* \"#utility.yul\":6665:6670   */\n      dup3\n        /* \"#utility.yul\":6661:6677   */\n      add\n        /* \"#utility.yul\":6655:6678   */\n      mload\n        /* \"#utility.yul\":6691:6754   */\n      tag_170\n        /* \"#utility.yul\":6748:6752   */\n      0x00\n        /* \"#utility.yul\":6743:6746   */\n      dup6\n        /* \"#utility.yul\":6739:6753   */\n      add\n        /* \"#utility.yul\":6725:6737   */\n      dup3\n        /* \"#utility.yul\":6691:6754   */\n      tag_89\n      jump\t// in\n    tag_170:\n        /* \"#utility.yul\":6602:6764   */\n      pop\n        /* \"#utility.yul\":6844:6848   */\n      0x20\n        /* \"#utility.yul\":6837:6842   */\n      dup3\n        /* \"#utility.yul\":6833:6849   */\n      add\n        /* \"#utility.yul\":6827:6850   */\n      mload\n        /* \"#utility.yul\":6863:6926   */\n      tag_171\n        /* \"#utility.yul\":6920:6924   */\n      0x20\n        /* \"#utility.yul\":6915:6918   */\n      dup6\n        /* \"#utility.yul\":6911:6925   */\n      add\n        /* \"#utility.yul\":6897:6909   */\n      dup3\n        /* \"#utility.yul\":6863:6926   */\n      tag_89\n      jump\t// in\n    tag_171:\n        /* \"#utility.yul\":6774:6936   */\n      pop\n        /* \"#utility.yul\":7019:7023   */\n      0x40\n        /* \"#utility.yul\":7012:7017   */\n      dup3\n        /* \"#utility.yul\":7008:7024   */\n      add\n        /* \"#utility.yul\":7002:7025   */\n      mload\n        /* \"#utility.yul\":7038:7101   */\n      tag_172\n        /* \"#utility.yul\":7095:7099   */\n      0x40\n        /* \"#utility.yul\":7090:7093   */\n      dup6\n        /* \"#utility.yul\":7086:7100   */\n      add\n        /* \"#utility.yul\":7072:7084   */\n      dup3\n        /* \"#utility.yul\":7038:7101   */\n      tag_91\n      jump\t// in\n    tag_172:\n        /* \"#utility.yul\":6946:7111   */\n      pop\n        /* \"#utility.yul\":6556:7118   */\n      pop\n        /* \"#utility.yul\":6454:7118   */\n      pop\n      pop\n      jump\t// out\n        /* \"#utility.yul\":7124:7395   */\n    tag_93:\n        /* \"#utility.yul\":7239:7249   */\n      0x00\n        /* \"#utility.yul\":7260:7352   */\n      tag_174\n        /* \"#utility.yul\":7348:7351   */\n      dup4\n        /* \"#utility.yul\":7340:7346   */\n      dup4\n        /* \"#utility.yul\":7260:7352   */\n      tag_92\n      jump\t// in\n    tag_174:\n        /* \"#utility.yul\":7384:7388   */\n      0x60\n        /* \"#utility.yul\":7379:7382   */\n      dup4\n        /* \"#utility.yul\":7375:7389   */\n      add\n        /* \"#utility.yul\":7361:7389   */\n      swap1\n      pop\n        /* \"#utility.yul\":7124:7395   */\n      swap3\n      swap2\n      pop\n      pop\n      jump\t// out\n        /* \"#utility.yul\":7401:7537   */\n    tag_94:\n        /* \"#utility.yul\":7494:7498   */\n      0x00\n        /* \"#utility.yul\":7526:7530   */\n      0x20\n        /* \"#utility.yul\":7521:7524   */\n      dup3\n        /* \"#utility.yul\":7517:7531   */\n      add\n        /* \"#utility.yul\":7509:7531   */\n      swap1\n      pop\n        /* \"#utility.yul\":7401:7537   */\n      swap2\n      swap1\n      pop\n      jump\t// out\n        /* \"#utility.yul\":7617:8533   */\n    tag_95:\n        /* \"#utility.yul\":7782:7785   */\n      0x00\n        /* \"#utility.yul\":7811:7888   */\n      tag_177\n        /* \"#utility.yul\":7882:7887   */\n      dup3\n        /* \"#utility.yul\":7811:7888   */\n      tag_86\n      jump\t// in\n    tag_177:\n        /* \"#utility.yul\":7904:8013   */\n      tag_178\n        /* \"#utility.yul\":8006:8012   */\n      dup2\n        /* \"#utility.yul\":8001:8004   */\n      dup6\n        /* \"#utility.yul\":7904:8013   */\n      tag_87\n      jump\t// in\n    tag_178:\n        /* \"#utility.yul\":7897:8013   */\n      swap4\n      pop\n        /* \"#utility.yul\":8037:8116   */\n      tag_179\n        /* \"#utility.yul\":8110:8115   */\n      dup4\n        /* \"#utility.yul\":8037:8116   */\n      tag_88\n      jump\t// in\n    tag_179:\n        /* \"#utility.yul\":8139:8146   */\n      dup1\n        /* \"#utility.yul\":8170:8171   */\n      0x00\n        /* \"#utility.yul\":8155:8508   */\n    tag_180:\n        /* \"#utility.yul\":8180:8186   */\n      dup4\n        /* \"#utility.yul\":8177:8178   */\n      dup2\n        /* \"#utility.yul\":8174:8187   */\n      lt\n        /* \"#utility.yul\":8155:8508   */\n      iszero\n      tag_182\n      jumpi\n        /* \"#utility.yul\":8256:8262   */\n      dup2\n        /* \"#utility.yul\":8250:8263   */\n      mload\n        /* \"#utility.yul\":8283:8392   */\n      tag_183\n        /* \"#utility.yul\":8388:8391   */\n      dup9\n        /* \"#utility.yul\":8373:8386   */\n      dup3\n        /* \"#utility.yul\":8283:8392   */\n      tag_93\n      jump\t// in\n    tag_183:\n        /* \"#utility.yul\":8276:8392   */\n      swap8\n      pop\n        /* \"#utility.yul\":8415:8498   */\n      tag_184\n        /* \"#utility.yul\":8491:8497   */\n      dup4\n        /* \"#utility.yul\":8415:8498   */\n      tag_94\n      jump\t// in\n    tag_184:\n        /* \"#utility.yul\":8405:8498   */\n      swap3\n      pop\n        /* \"#utility.yul\":8215:8508   */\n      pop\n        /* \"#utility.yul\":8202:8203   */\n      0x01\n        /* \"#utility.yul\":8199:8200   */\n      dup2\n        /* \"#utility.yul\":8195:8204   */\n      add\n        /* \"#utility.yul\":8190:8204   */\n      swap1\n      pop\n        /* \"#utility.yul\":8155:8508   */\n      jump(tag_180)\n    tag_182:\n        /* \"#utility.yul\":8159:8173   */\n      pop\n        /* \"#utility.yul\":8524:8527   */\n      dup6\n        /* \"#utility.yul\":8517:8527   */\n      swap4\n      pop\n        /* \"#utility.yul\":7787:8533   */\n      pop\n      pop\n      pop\n        /* \"#utility.yul\":7617:8533   */\n      swap3\n      swap2\n      pop\n      pop\n      jump\t// out\n        /* \"#utility.yul\":8539:9004   */\n    tag_9:\n        /* \"#utility.yul\":8728:8732   */\n      0x00\n        /* \"#utility.yul\":8766:8768   */\n      0x20\n        /* \"#utility.yul\":8755:8764   */\n      dup3\n        /* \"#utility.yul\":8751:8769   */\n      add\n        /* \"#utility.yul\":8743:8769   */\n      swap1\n      pop\n        /* \"#utility.yul\":8815:8824   */\n      dup2\n        /* \"#utility.yul\":8809:8813   */\n      dup2\n        /* \"#utility.yul\":8805:8825   */\n      sub\n        /* \"#utility.yul\":8801:8802   */\n      0x00\n        /* \"#utility.yul\":8790:8799   */\n      dup4\n        /* \"#utility.yul\":8786:8803   */\n      add\n        /* \"#utility.yul\":8779:8826   */\n      mstore\n        /* \"#utility.yul\":8843:8997   */\n      tag_186\n        /* \"#utility.yul\":8992:8996   */\n      dup2\n        /* \"#utility.yul\":8983:8989   */\n      dup5\n        /* \"#utility.yul\":8843:8997   */\n      tag_95\n      jump\t// in\n    tag_186:\n        /* \"#utility.yul\":8835:8997   */\n      swap1\n      pop\n        /* \"#utility.yul\":8539:9004   */\n      swap3\n      swap2\n      pop\n      pop\n      jump\t// out\n        /* \"#utility.yul\":9010:9190   */\n    tag_23:\n        /* \"#utility.yul\":9058:9135   */\n      0x4e487b7100000000000000000000000000000000000000000000000000000000\n        /* \"#utility.yul\":9055:9056   */\n      0x00\n        /* \"#utility.yul\":9048:9136   */\n      mstore\n        /* \"#utility.yul\":9155:9159   */\n      0x32\n        /* \"#utility.yul\":9152:9153   */\n      0x04\n        /* \"#utility.yul\":9145:9160   */\n      mstore\n        /* \"#utility.yul\":9179:9183   */\n      0x24\n        /* \"#utility.yul\":9176:9177   */\n      0x00\n        /* \"#utility.yul\":9169:9184   */\n      revert\n        /* \"#utility.yul\":9196:9322   */\n    tag_96:\n        /* \"#utility.yul\":9291:9315   */\n      tag_189\n        /* \"#utility.yul\":9309:9314   */\n      dup2\n        /* \"#utility.yul\":9291:9315   */\n      tag_77\n      jump\t// in\n    tag_189:\n        /* \"#utility.yul\":9286:9289   */\n      dup3\n        /* \"#utility.yul\":9279:9316   */\n      mstore\n        /* \"#utility.yul\":9196:9322   */\n      pop\n      pop\n      jump\t// out\n        /* \"#utility.yul\":9328:9802   */\n    tag_32:\n        /* \"#utility.yul\":9485:9489   */\n      0x00\n        /* \"#utility.yul\":9523:9525   */\n      0x60\n        /* \"#utility.yul\":9512:9521   */\n      dup3\n        /* \"#utility.yul\":9508:9526   */\n      add\n        /* \"#utility.yul\":9500:9526   */\n      swap1\n      pop\n        /* \"#utility.yul\":9536:9615   */\n      tag_191\n        /* \"#utility.yul\":9612:9613   */\n      0x00\n        /* \"#utility.yul\":9601:9610   */\n      dup4\n        /* \"#utility.yul\":9597:9614   */\n      add\n        /* \"#utility.yul\":9588:9594   */\n      dup7\n        /* \"#utility.yul\":9536:9615   */\n      tag_96\n      jump\t// in\n    tag_191:\n        /* \"#utility.yul\":9625:9705   */\n      tag_192\n        /* \"#utility.yul\":9701:9703   */\n      0x20\n        /* \"#utility.yul\":9690:9699   */\n      dup4\n        /* \"#utility.yul\":9686:9704   */\n      add\n        /* \"#utility.yul\":9677:9683   */\n      dup6\n        /* \"#utility.yul\":9625:9705   */\n      tag_96\n      jump\t// in\n    tag_192:\n        /* \"#utility.yul\":9715:9795   */\n      tag_193\n        /* \"#utility.yul\":9791:9793   */\n      0x40\n        /* \"#utility.yul\":9780:9789   */\n      dup4\n        /* \"#utility.yul\":9776:9794   */\n      add\n        /* \"#utility.yul\":9767:9773   */\n      dup5\n        /* \"#utility.yul\":9715:9795   */\n      tag_96\n      jump\t// in\n    tag_193:\n        /* \"#utility.yul\":9328:9802   */\n      swap5\n      swap4\n      pop\n      pop\n      pop\n      pop\n      jump\t// out\n        /* \"#utility.yul\":9808:9930   */\n    tag_97:\n        /* \"#utility.yul\":9881:9905   */\n      tag_195\n        /* \"#utility.yul\":9899:9904   */\n      dup2\n        /* \"#utility.yul\":9881:9905   */\n      tag_90\n      jump\t// in\n    tag_195:\n        /* \"#utility.yul\":9874:9879   */\n      dup2\n        /* \"#utility.yul\":9871:9906   */\n      eq\n        /* \"#utility.yul\":9861:9924   */\n      tag_196\n      jumpi\n        /* \"#utility.yul\":9920:9921   */\n      0x00\n        /* \"#utility.yul\":9917:9918   */\n      dup1\n        /* \"#utility.yul\":9910:9922   */\n      revert\n        /* \"#utility.yul\":9861:9924   */\n    tag_196:\n        /* \"#utility.yul\":9808:9930   */\n      pop\n      jump\t// out\n        /* \"#utility.yul\":9936:10079   */\n    tag_98:\n        /* \"#utility.yul\":9993:9998   */\n      0x00\n        /* \"#utility.yul\":10024:10030   */\n      dup2\n        /* \"#utility.yul\":10018:10031   */\n      mload\n        /* \"#utility.yul\":10009:10031   */\n      swap1\n      pop\n        /* \"#utility.yul\":10040:10073   */\n      tag_198\n        /* \"#utility.yul\":10067:10072   */\n      dup2\n        /* \"#utility.yul\":10040:10073   */\n      tag_97\n      jump\t// in\n    tag_198:\n        /* \"#utility.yul\":9936:10079   */\n      swap3\n      swap2\n      pop\n      pop\n      jump\t// out\n        /* \"#utility.yul\":10085:10436   */\n    tag_36:\n        /* \"#utility.yul\":10155:10161   */\n      0x00\n        /* \"#utility.yul\":10204:10206   */\n      0x20\n        /* \"#utility.yul\":10192:10201   */\n      dup3\n        /* \"#utility.yul\":10183:10190   */\n      dup5\n        /* \"#utility.yul\":10179:10202   */\n      sub\n        /* \"#utility.yul\":10175:10207   */\n      slt\n        /* \"#utility.yul\":10172:10291   */\n      iszero\n      tag_200\n      jumpi\n        /* \"#utility.yul\":10210:10289   */\n      tag_201\n      tag_66\n      jump\t// in\n    tag_201:\n        /* \"#utility.yul\":10172:10291   */\n    tag_200:\n        /* \"#utility.yul\":10330:10331   */\n      0x00\n        /* \"#utility.yul\":10355:10419   */\n      tag_202\n        /* \"#utility.yul\":10411:10418   */\n      dup5\n        /* \"#utility.yul\":10402:10408   */\n      dup3\n        /* \"#utility.yul\":10391:10400   */\n      dup6\n        /* \"#utility.yul\":10387:10409   */\n      add\n        /* \"#utility.yul\":10355:10419   */\n      tag_98\n      jump\t// in\n    tag_202:\n        /* \"#utility.yul\":10345:10419   */\n      swap2\n      pop\n        /* \"#utility.yul\":10301:10429   */\n      pop\n        /* \"#utility.yul\":10085:10436   */\n      swap3\n      swap2\n      pop\n      pop\n      jump\t// out\n        /* \"#utility.yul\":10442:10622   */\n    tag_99:\n        /* \"#utility.yul\":10490:10567   */\n      0x4e487b7100000000000000000000000000000000000000000000000000000000\n        /* \"#utility.yul\":10487:10488   */\n      0x00\n        /* \"#utility.yul\":10480:10568   */\n      mstore\n        /* \"#utility.yul\":10587:10591   */\n      0x11\n        /* \"#utility.yul\":10584:10585   */\n      0x04\n        /* \"#utility.yul\":10577:10592   */\n      mstore\n        /* \"#utility.yul\":10611:10615   */\n      0x24\n        /* \"#utility.yul\":10608:10609   */\n      0x00\n        /* \"#utility.yul\":10601:10616   */\n      revert\n        /* \"#utility.yul\":10628:10861   */\n    tag_64:\n        /* \"#utility.yul\":10667:10670   */\n      0x00\n        /* \"#utility.yul\":10690:10714   */\n      tag_205\n        /* \"#utility.yul\":10708:10713   */\n      dup3\n        /* \"#utility.yul\":10690:10714   */\n      tag_90\n      jump\t// in\n    tag_205:\n        /* \"#utility.yul\":10681:10714   */\n      swap2\n      pop\n        /* \"#utility.yul\":10736:10802   */\n      0xffffffffffffffffffffffffffffffffffffffffffffffffffffffffffffffff\n        /* \"#utility.yul\":10729:10734   */\n      dup3\n        /* \"#utility.yul\":10726:10803   */\n      sub\n        /* \"#utility.yul\":10723:10826   */\n      tag_206\n      jumpi\n        /* \"#utility.yul\":10806:10824   */\n      tag_207\n      tag_99\n      jump\t// in\n    tag_207:\n        /* \"#utility.yul\":10723:10826   */\n    tag_206:\n        /* \"#utility.yul\":10853:10854   */\n      0x01\n        /* \"#utility.yul\":10846:10851   */\n      dup3\n        /* \"#utility.yul\":10842:10855   */\n      add\n        /* \"#utility.yul\":10835:10855   */\n      swap1\n      pop\n        /* \"#utility.yul\":10628:10861   */\n      swap2\n      swap1\n      pop\n      jump\t// out\n\n    auxdata: 0xa26469706673582212200ff7d3504e3e3891de77f6842ffbc014f65489ef8bff620974b562faa43409cd64736f6c63430008110033\n}\n",
				"bytecode": {
					"linkReferences": {
						"contracts/libraries/UniswapV2.sol": {
							"UniswapV2": [
								{
									"length": 20,
									"start": 276
								}
							]
						},
						"contracts/libraries/UniswapV3.sol": {
							"UniswapV3": [
								{
									"length": 20,
									"start": 702
								}
							]
						}
					},
					"object": "608060405234801561001057600080fd5b50610a02806100206000396000f3fe608060405234801561001057600080fd5b506004361061002b5760003560e01c8063ff514fa314610030575b600080fd5b61004a60048036038101906100459190610703565b610060565b6040516100579190610865565b60405180910390f35b60606000825167ffffffffffffffff81111561007f5761007e6104ac565b5b6040519080825280602002602001820160405280156100b857816020015b6100a5610435565b81526020019060019003908161009d5790505b50905060005b835181101561042b5760028482815181106100dc576100db610887565b5b60200260200101516060015160ff160361027157600073__$66db80e837caed232b747c0dfa8ba195e8$__63c361e0b186848151811061011f5761011e610887565b5b60200260200101516040015187858151811061013e5761013d610887565b5b60200260200101516000015188868151811061015d5761015c610887565b5b6020026020010151602001516040518463ffffffff1660e01b8152600401610187939291906108c5565b602060405180830381865af41580156101a4573d6000803e3d6000fd5b505050506040513d601f19601f820116820180604052508101906101c89190610928565b905060405180606001604052808684815181106101e8576101e7610887565b5b60200260200101516000015173ffffffffffffffffffffffffffffffffffffffff16815260200186848151811061022257610221610887565b5b60200260200101516020015173ffffffffffffffffffffffffffffffffffffffff168152602001828152508383815181106102605761025f610887565b5b602002602001018190525050610418565b600384828151811061028657610285610887565b5b60200260200101516060015160ff160361041757600073__$295ab41254e875e078eae9a73e9e2c34b1$__63edf15a9a8684815181106102c9576102c8610887565b5b6020026020010151604001518785815181106102e8576102e7610887565b5b60200260200101516000015188868151811061030757610306610887565b5b6020026020010151602001516040518463ffffffff1660e01b8152600401610331939291906108c5565b602060405180830381865af415801561034e573d6000803e3d6000fd5b505050506040513d601f19601f820116820180604052508101906103729190610928565b9050604051806060016040528086848151811061039257610391610887565b5b60200260200101516000015173ffffffffffffffffffffffffffffffffffffffff1681526020018684815181106103cc576103cb610887565b5b60200260200101516020015173ffffffffffffffffffffffffffffffffffffffff1681526020018281525083838151811061040a57610409610887565b5b6020026020010181905250505b5b808061042390610984565b9150506100be565b5080915050919050565b6040518060600160405280600073ffffffffffffffffffffffffffffffffffffffff168152602001600073ffffffffffffffffffffffffffffffffffffffff168152602001600081525090565b6000604051905090565b600080fd5b600080fd5b600080fd5b6000601f19601f8301169050919050565b7f4e487b7100000000000000000000000000000000000000000000000000000000600052604160045260246000fd5b6104e48261049b565b810181811067ffffffffffffffff82111715610503576105026104ac565b5b80604052505050565b6000610516610482565b905061052282826104db565b919050565b600067ffffffffffffffff821115610542576105416104ac565b5b602082029050602081019050919050565b600080fd5b600080fd5b600073ffffffffffffffffffffffffffffffffffffffff82169050919050565b60006105888261055d565b9050919050565b6105988161057d565b81146105a357600080fd5b50565b6000813590506105b58161058f565b92915050565b600060ff82169050919050565b6105d1816105bb565b81146105dc57600080fd5b50565b6000813590506105ee816105c8565b92915050565b60006080828403121561060a57610609610558565b5b610614608061050c565b90506000610624848285016105a6565b6000830152506020610638848285016105a6565b602083015250604061064c848285016105a6565b6040830152506060610660848285016105df565b60608301525092915050565b600061067f61067a84610527565b61050c565b905080838252602082019050608084028301858111156106a2576106a1610553565b5b835b818110156106cb57806106b788826105f4565b8452602084019350506080810190506106a4565b5050509392505050565b600082601f8301126106ea576106e9610496565b5b81356106fa84826020860161066c565b91505092915050565b6000602082840312156107195761071861048c565b5b600082013567ffffffffffffffff81111561073757610736610491565b5b610743848285016106d5565b91505092915050565b600081519050919050565b600082825260208201905092915050565b6000819050602082019050919050565b6107818161057d565b82525050565b6000819050919050565b61079a81610787565b82525050565b6060820160008201516107b66000850182610778565b5060208201516107c96020850182610778565b5060408201516107dc6040850182610791565b50505050565b60006107ee83836107a0565b60608301905092915050565b6000602082019050919050565b60006108128261074c565b61081c8185610757565b935061082783610768565b8060005b8381101561085857815161083f88826107e2565b975061084a836107fa565b92505060018101905061082b565b5085935050505092915050565b6000602082019050818103600083015261087f8184610807565b905092915050565b7f4e487b7100000000000000000000000000000000000000000000000000000000600052603260045260246000fd5b6108bf8161057d565b82525050565b60006060820190506108da60008301866108b6565b6108e760208301856108b6565b6108f460408301846108b6565b949350505050565b61090581610787565b811461091057600080fd5b50565b600081519050610922816108fc565b92915050565b60006020828403121561093e5761093d61048c565b5b600061094c84828501610913565b91505092915050565b7f4e487b7100000000000000000000000000000000000000000000000000000000600052601160045260246000fd5b600061098f82610787565b91507fffffffffffffffffffffffffffffffffffffffffffffffffffffffffffffffff82036109c1576109c0610955565b5b60018201905091905056fea26469706673582212200ff7d3504e3e3891de77f6842ffbc014f65489ef8bff620974b562faa43409cd64736f6c63430008110033",
					"opcodes": "PUSH1 0x80 PUSH1 0x40 MSTORE CALLVALUE DUP1 ISZERO PUSH2 0x10 JUMPI PUSH1 0x0 DUP1 REVERT JUMPDEST POP PUSH2 0xA02 DUP1 PUSH2 0x20 PUSH1 0x0 CODECOPY PUSH1 0x0 RETURN INVALID PUSH1 0x80 PUSH1 0x40 MSTORE CALLVALUE DUP1 ISZERO PUSH2 0x10 JUMPI PUSH1 0x0 DUP1 REVERT JUMPDEST POP PUSH1 0x4 CALLDATASIZE LT PUSH2 0x2B JUMPI PUSH1 0x0 CALLDATALOAD PUSH1 0xE0 SHR DUP1 PUSH4 0xFF514FA3 EQ PUSH2 0x30 JUMPI JUMPDEST PUSH1 0x0 DUP1 REVERT JUMPDEST PUSH2 0x4A PUSH1 0x4 DUP1 CALLDATASIZE SUB DUP2 ADD SWAP1 PUSH2 0x45 SWAP2 SWAP1 PUSH2 0x703 JUMP JUMPDEST PUSH2 0x60 JUMP JUMPDEST PUSH1 0x40 MLOAD PUSH2 0x57 SWAP2 SWAP1 PUSH2 0x865 JUMP JUMPDEST PUSH1 0x40 MLOAD DUP1 SWAP2 SUB SWAP1 RETURN JUMPDEST PUSH1 0x60 PUSH1 0x0 DUP3 MLOAD PUSH8 0xFFFFFFFFFFFFFFFF DUP2 GT ISZERO PUSH2 0x7F JUMPI PUSH2 0x7E PUSH2 0x4AC JUMP JUMPDEST JUMPDEST PUSH1 0x40 MLOAD SWAP1 DUP1 DUP3 MSTORE DUP1 PUSH1 0x20 MUL PUSH1 0x20 ADD DUP3 ADD PUSH1 0x40 MSTORE DUP1 ISZERO PUSH2 0xB8 JUMPI DUP2 PUSH1 0x20 ADD JUMPDEST PUSH2 0xA5 PUSH2 0x435 JUMP JUMPDEST DUP2 MSTORE PUSH1 0x20 ADD SWAP1 PUSH1 0x1 SWAP1 SUB SWAP1 DUP2 PUSH2 0x9D JUMPI SWAP1 POP JUMPDEST POP SWAP1 POP PUSH1 0x0 JUMPDEST DUP4 MLOAD DUP2 LT ISZERO PUSH2 0x42B JUMPI PUSH1 0x2 DUP5 DUP3 DUP2 MLOAD DUP2 LT PUSH2 0xDC JUMPI PUSH2 0xDB PUSH2 0x887 JUMP JUMPDEST JUMPDEST PUSH1 0x20 MUL PUSH1 0x20 ADD ADD MLOAD PUSH1 0x60 ADD MLOAD PUSH1 0xFF AND SUB PUSH2 0x271 JUMPI PUSH1 0x0 PUSH20 0x0 PUSH4 0xC361E0B1 DUP7 DUP5 DUP2 MLOAD DUP2 LT PUSH2 0x11F JUMPI PUSH2 0x11E PUSH2 0x887 JUMP JUMPDEST JUMPDEST PUSH1 0x20 MUL PUSH1 0x20 ADD ADD MLOAD PUSH1 0x40 ADD MLOAD DUP8 DUP6 DUP2 MLOAD DUP2 LT PUSH2 0x13E JUMPI PUSH2 0x13D PUSH2 0x887 JUMP JUMPDEST JUMPDEST PUSH1 0x20 MUL PUSH1 0x20 ADD ADD MLOAD PUSH1 0x0 ADD MLOAD DUP9 DUP7 DUP2 MLOAD DUP2 LT PUSH2 0x15D JUMPI PUSH2 0x15C PUSH2 0x887 JUMP JUMPDEST JUMPDEST PUSH1 0x20 MUL PUSH1 0x20 ADD ADD MLOAD PUSH1 0x20 ADD MLOAD PUSH1 0x40 MLOAD DUP5 PUSH4 0xFFFFFFFF AND PUSH1 0xE0 SHL DUP2 MSTORE PUSH1 0x4 ADD PUSH2 0x187 SWAP4 SWAP3 SWAP2 SWAP1 PUSH2 0x8C5 JUMP JUMPDEST PUSH1 0x20 PUSH1 0x40 MLOAD DUP1 DUP4 SUB DUP2 DUP7 GAS DELEGATECALL ISZERO DUP1 ISZERO PUSH2 0x1A4 JUMPI RETURNDATASIZE PUSH1 0x0 DUP1 RETURNDATACOPY RETURNDATASIZE PUSH1 0x0 REVERT JUMPDEST POP POP POP POP PUSH1 0x40 MLOAD RETURNDATASIZE PUSH1 0x1F NOT PUSH1 0x1F DUP3 ADD AND DUP3 ADD DUP1 PUSH1 0x40 MSTORE POP DUP2 ADD SWAP1 PUSH2 0x1C8 SWAP2 SWAP1 PUSH2 0x928 JUMP JUMPDEST SWAP1 POP PUSH1 0x40 MLOAD DUP1 PUSH1 0x60 ADD PUSH1 0x40 MSTORE DUP1 DUP7 DUP5 DUP2 MLOAD DUP2 LT PUSH2 0x1E8 JUMPI PUSH2 0x1E7 PUSH2 0x887 JUMP JUMPDEST JUMPDEST PUSH1 0x20 MUL PUSH1 0x20 ADD ADD MLOAD PUSH1 0x0 ADD MLOAD PUSH20 0xFFFFFFFFFFFFFFFFFFFFFFFFFFFFFFFFFFFFFFFF AND DUP2 MSTORE PUSH1 0x20 ADD DUP7 DUP5 DUP2 MLOAD DUP2 LT PUSH2 0x222 JUMPI PUSH2 0x221 PUSH2 0x887 JUMP JUMPDEST JUMPDEST PUSH1 0x20 MUL PUSH1 0x20 ADD ADD MLOAD PUSH1 0x20 ADD MLOAD PUSH20 0xFFFFFFFFFFFFFFFFFFFFFFFFFFFFFFFFFFFFFFFF AND DUP2 MSTORE PUSH1 0x20 ADD DUP3 DUP2 MSTORE POP DUP4 DUP4 DUP2 MLOAD DUP2 LT PUSH2 0x260 JUMPI PUSH2 0x25F PUSH2 0x887 JUMP JUMPDEST JUMPDEST PUSH1 0x20 MUL PUSH1 0x20 ADD ADD DUP2 SWAP1 MSTORE POP POP PUSH2 0x418 JUMP JUMPDEST PUSH1 0x3 DUP5 DUP3 DUP2 MLOAD DUP2 LT PUSH2 0x286 JUMPI PUSH2 0x285 PUSH2 0x887 JUMP JUMPDEST JUMPDEST PUSH1 0x20 MUL PUSH1 0x20 ADD ADD MLOAD PUSH1 0x60 ADD MLOAD PUSH1 0xFF AND SUB PUSH2 0x417 JUMPI PUSH1 0x0 PUSH20 0x0 PUSH4 0xEDF15A9A DUP7 DUP5 DUP2 MLOAD DUP2 LT PUSH2 0x2C9 JUMPI PUSH2 0x2C8 PUSH2 0x887 JUMP JUMPDEST JUMPDEST PUSH1 0x20 MUL PUSH1 0x20 ADD ADD MLOAD PUSH1 0x40 ADD MLOAD DUP8 DUP6 DUP2 MLOAD DUP2 LT PUSH2 0x2E8 JUMPI PUSH2 0x2E7 PUSH2 0x887 JUMP JUMPDEST JUMPDEST PUSH1 0x20 MUL PUSH1 0x20 ADD ADD MLOAD PUSH1 0x0 ADD MLOAD DUP9 DUP7 DUP2 MLOAD DUP2 LT PUSH2 0x307 JUMPI PUSH2 0x306 PUSH2 0x887 JUMP JUMPDEST JUMPDEST PUSH1 0x20 MUL PUSH1 0x20 ADD ADD MLOAD PUSH1 0x20 ADD MLOAD PUSH1 0x40 MLOAD DUP5 PUSH4 0xFFFFFFFF AND PUSH1 0xE0 SHL DUP2 MSTORE PUSH1 0x4 ADD PUSH2 0x331 SWAP4 SWAP3 SWAP2 SWAP1 PUSH2 0x8C5 JUMP JUMPDEST PUSH1 0x20 PUSH1 0x40 MLOAD DUP1 DUP4 SUB DUP2 DUP7 GAS DELEGATECALL ISZERO DUP1 ISZERO PUSH2 0x34E JUMPI RETURNDATASIZE PUSH1 0x0 DUP1 RETURNDATACOPY RETURNDATASIZE PUSH1 0x0 REVERT JUMPDEST POP POP POP POP PUSH1 0x40 MLOAD RETURNDATASIZE PUSH1 0x1F NOT PUSH1 0x1F DUP3 ADD AND DUP3 ADD DUP1 PUSH1 0x40 MSTORE POP DUP2 ADD SWAP1 PUSH2 0x372 SWAP2 SWAP1 PUSH2 0x928 JUMP JUMPDEST SWAP1 POP PUSH1 0x40 MLOAD DUP1 PUSH1 0x60 ADD PUSH1 0x40 MSTORE DUP1 DUP7 DUP5 DUP2 MLOAD DUP2 LT PUSH2 0x392 JUMPI PUSH2 0x391 PUSH2 0x887 JUMP JUMPDEST JUMPDEST PUSH1 0x20 MUL PUSH1 0x20 ADD ADD MLOAD PUSH1 0x0 ADD MLOAD PUSH20 0xFFFFFFFFFFFFFFFFFFFFFFFFFFFFFFFFFFFFFFFF AND DUP2 MSTORE PUSH1 0x20 ADD DUP7 DUP5 DUP2 MLOAD DUP2 LT PUSH2 0x3CC JUMPI PUSH2 0x3CB PUSH2 0x887 JUMP JUMPDEST JUMPDEST PUSH1 0x20 MUL PUSH1 0x20 ADD ADD MLOAD PUSH1 0x20 ADD MLOAD PUSH20 0xFFFFFFFFFFFFFFFFFFFFFFFFFFFFFFFFFFFFFFFF AND DUP2 MSTORE PUSH1 0x20 ADD DUP3 DUP2 MSTORE POP DUP4 DUP4 DUP2 MLOAD DUP2 LT PUSH2 0x40A JUMPI PUSH2 0x409 PUSH2 0x887 JUMP JUMPDEST JUMPDEST PUSH1 0x20 MUL PUSH1 0x20 ADD ADD DUP2 SWAP1 MSTORE POP POP JUMPDEST JUMPDEST DUP1 DUP1 PUSH2 0x423 SWAP1 PUSH2 0x984 JUMP JUMPDEST SWAP2 POP POP PUSH2 0xBE JUMP JUMPDEST POP DUP1 SWAP2 POP POP SWAP2 SWAP1 POP JUMP JUMPDEST PUSH1 0x40 MLOAD DUP1 PUSH1 0x60 ADD PUSH1 0x40 MSTORE DUP1 PUSH1 0x0 PUSH20 0xFFFFFFFFFFFFFFFFFFFFFFFFFFFFFFFFFFFFFFFF AND DUP2 MSTORE PUSH1 0x20 ADD PUSH1 0x0 PUSH20 0xFFFFFFFFFFFFFFFFFFFFFFFFFFFFFFFFFFFFFFFF AND DUP2 MSTORE PUSH1 0x20 ADD PUSH1 0x0 DUP2 MSTORE POP SWAP1 JUMP JUMPDEST PUSH1 0x0 PUSH1 0x40 MLOAD SWAP1 POP SWAP1 JUMP JUMPDEST PUSH1 0x0 DUP1 REVERT JUMPDEST PUSH1 0x0 DUP1 REVERT JUMPDEST PUSH1 0x0 DUP1 REVERT JUMPDEST PUSH1 0x0 PUSH1 0x1F NOT PUSH1 0x1F DUP4 ADD AND SWAP1 POP SWAP2 SWAP1 POP JUMP JUMPDEST PUSH32 0x4E487B7100000000000000000000000000000000000000000000000000000000 PUSH1 0x0 MSTORE PUSH1 0x41 PUSH1 0x4 MSTORE PUSH1 0x24 PUSH1 0x0 REVERT JUMPDEST PUSH2 0x4E4 DUP3 PUSH2 0x49B JUMP JUMPDEST DUP2 ADD DUP2 DUP2 LT PUSH8 0xFFFFFFFFFFFFFFFF DUP3 GT OR ISZERO PUSH2 0x503 JUMPI PUSH2 0x502 PUSH2 0x4AC JUMP JUMPDEST JUMPDEST DUP1 PUSH1 0x40 MSTORE POP POP POP JUMP JUMPDEST PUSH1 0x0 PUSH2 0x516 PUSH2 0x482 JUMP JUMPDEST SWAP1 POP PUSH2 0x522 DUP3 DUP3 PUSH2 0x4DB JUMP JUMPDEST SWAP2 SWAP1 POP JUMP JUMPDEST PUSH1 0x0 PUSH8 0xFFFFFFFFFFFFFFFF DUP3 GT ISZERO PUSH2 0x542 JUMPI PUSH2 0x541 PUSH2 0x4AC JUMP JUMPDEST JUMPDEST PUSH1 0x20 DUP3 MUL SWAP1 POP PUSH1 0x20 DUP2 ADD SWAP1 POP SWAP2 SWAP1 POP JUMP JUMPDEST PUSH1 0x0 DUP1 REVERT JUMPDEST PUSH1 0x0 DUP1 REVERT JUMPDEST PUSH1 0x0 PUSH20 0xFFFFFFFFFFFFFFFFFFFFFFFFFFFFFFFFFFFFFFFF DUP3 AND SWAP1 POP SWAP2 SWAP1 POP JUMP JUMPDEST PUSH1 0x0 PUSH2 0x588 DUP3 PUSH2 0x55D JUMP JUMPDEST SWAP1 POP SWAP2 SWAP1 POP JUMP JUMPDEST PUSH2 0x598 DUP2 PUSH2 0x57D JUMP JUMPDEST DUP2 EQ PUSH2 0x5A3 JUMPI PUSH1 0x0 DUP1 REVERT JUMPDEST POP JUMP JUMPDEST PUSH1 0x0 DUP2 CALLDATALOAD SWAP1 POP PUSH2 0x5B5 DUP2 PUSH2 0x58F JUMP JUMPDEST SWAP3 SWAP2 POP POP JUMP JUMPDEST PUSH1 0x0 PUSH1 0xFF DUP3 AND SWAP1 POP SWAP2 SWAP1 POP JUMP JUMPDEST PUSH2 0x5D1 DUP2 PUSH2 0x5BB JUMP JUMPDEST DUP2 EQ PUSH2 0x5DC JUMPI PUSH1 0x0 DUP1 REVERT JUMPDEST POP JUMP JUMPDEST PUSH1 0x0 DUP2 CALLDATALOAD SWAP1 POP PUSH2 0x5EE DUP2 PUSH2 0x5C8 JUMP JUMPDEST SWAP3 SWAP2 POP POP JUMP JUMPDEST PUSH1 0x0 PUSH1 0x80 DUP3 DUP5 SUB SLT ISZERO PUSH2 0x60A JUMPI PUSH2 0x609 PUSH2 0x558 JUMP JUMPDEST JUMPDEST PUSH2 0x614 PUSH1 0x80 PUSH2 0x50C JUMP JUMPDEST SWAP1 POP PUSH1 0x0 PUSH2 0x624 DUP5 DUP3 DUP6 ADD PUSH2 0x5A6 JUMP JUMPDEST PUSH1 0x0 DUP4 ADD MSTORE POP PUSH1 0x20 PUSH2 0x638 DUP5 DUP3 DUP6 ADD PUSH2 0x5A6 JUMP JUMPDEST PUSH1 0x20 DUP4 ADD MSTORE POP PUSH1 0x40 PUSH2 0x64C DUP5 DUP3 DUP6 ADD PUSH2 0x5A6 JUMP JUMPDEST PUSH1 0x40 DUP4 ADD MSTORE POP PUSH1 0x60 PUSH2 0x660 DUP5 DUP3 DUP6 ADD PUSH2 0x5DF JUMP JUMPDEST PUSH1 0x60 DUP4 ADD MSTORE POP SWAP3 SWAP2 POP POP JUMP JUMPDEST PUSH1 0x0 PUSH2 0x67F PUSH2 0x67A DUP5 PUSH2 0x527 JUMP JUMPDEST PUSH2 0x50C JUMP JUMPDEST SWAP1 POP DUP1 DUP4 DUP3 MSTORE PUSH1 0x20 DUP3 ADD SWAP1 POP PUSH1 0x80 DUP5 MUL DUP4 ADD DUP6 DUP2 GT ISZERO PUSH2 0x6A2 JUMPI PUSH2 0x6A1 PUSH2 0x553 JUMP JUMPDEST JUMPDEST DUP4 JUMPDEST DUP2 DUP2 LT ISZERO PUSH2 0x6CB JUMPI DUP1 PUSH2 0x6B7 DUP9 DUP3 PUSH2 0x5F4 JUMP JUMPDEST DUP5 MSTORE PUSH1 0x20 DUP5 ADD SWAP4 POP POP PUSH1 0x80 DUP2 ADD SWAP1 POP PUSH2 0x6A4 JUMP JUMPDEST POP POP POP SWAP4 SWAP3 POP POP POP JUMP JUMPDEST PUSH1 0x0 DUP3 PUSH1 0x1F DUP4 ADD SLT PUSH2 0x6EA JUMPI PUSH2 0x6E9 PUSH2 0x496 JUMP JUMPDEST JUMPDEST DUP2 CALLDATALOAD PUSH2 0x6FA DUP5 DUP3 PUSH1 0x20 DUP7 ADD PUSH2 0x66C JUMP JUMPDEST SWAP2 POP POP SWAP3 SWAP2 POP POP JUMP JUMPDEST PUSH1 0x0 PUSH1 0x20 DUP3 DUP5 SUB SLT ISZERO PUSH2 0x719 JUMPI PUSH2 0x718 PUSH2 0x48C JUMP JUMPDEST JUMPDEST PUSH1 0x0 DUP3 ADD CALLDATALOAD PUSH8 0xFFFFFFFFFFFFFFFF DUP2 GT ISZERO PUSH2 0x737 JUMPI PUSH2 0x736 PUSH2 0x491 JUMP JUMPDEST JUMPDEST PUSH2 0x743 DUP5 DUP3 DUP6 ADD PUSH2 0x6D5 JUMP JUMPDEST SWAP2 POP POP SWAP3 SWAP2 POP POP JUMP JUMPDEST PUSH1 0x0 DUP2 MLOAD SWAP1 POP SWAP2 SWAP1 POP JUMP JUMPDEST PUSH1 0x0 DUP3 DUP3 MSTORE PUSH1 0x20 DUP3 ADD SWAP1 POP SWAP3 SWAP2 POP POP JUMP JUMPDEST PUSH1 0x0 DUP2 SWAP1 POP PUSH1 0x20 DUP3 ADD SWAP1 POP SWAP2 SWAP1 POP JUMP JUMPDEST PUSH2 0x781 DUP2 PUSH2 0x57D JUMP JUMPDEST DUP3 MSTORE POP POP JUMP JUMPDEST PUSH1 0x0 DUP2 SWAP1 POP SWAP2 SWAP1 POP JUMP JUMPDEST PUSH2 0x79A DUP2 PUSH2 0x787 JUMP JUMPDEST DUP3 MSTORE POP POP JUMP JUMPDEST PUSH1 0x60 DUP3 ADD PUSH1 0x0 DUP3 ADD MLOAD PUSH2 0x7B6 PUSH1 0x0 DUP6 ADD DUP3 PUSH2 0x778 JUMP JUMPDEST POP PUSH1 0x20 DUP3 ADD MLOAD PUSH2 0x7C9 PUSH1 0x20 DUP6 ADD DUP3 PUSH2 0x778 JUMP JUMPDEST POP PUSH1 0x40 DUP3 ADD MLOAD PUSH2 0x7DC PUSH1 0x40 DUP6 ADD DUP3 PUSH2 0x791 JUMP JUMPDEST POP POP POP POP JUMP JUMPDEST PUSH1 0x0 PUSH2 0x7EE DUP4 DUP4 PUSH2 0x7A0 JUMP JUMPDEST PUSH1 0x60 DUP4 ADD SWAP1 POP SWAP3 SWAP2 POP POP JUMP JUMPDEST PUSH1 0x0 PUSH1 0x20 DUP3 ADD SWAP1 POP SWAP2 SWAP1 POP JUMP JUMPDEST PUSH1 0x0 PUSH2 0x812 DUP3 PUSH2 0x74C JUMP JUMPDEST PUSH2 0x81C DUP2 DUP6 PUSH2 0x757 JUMP JUMPDEST SWAP4 POP PUSH2 0x827 DUP4 PUSH2 0x768 JUMP JUMPDEST DUP1 PUSH1 0x0 JUMPDEST DUP4 DUP2 LT ISZERO PUSH2 0x858 JUMPI DUP2 MLOAD PUSH2 0x83F DUP9 DUP3 PUSH2 0x7E2 JUMP JUMPDEST SWAP8 POP PUSH2 0x84A DUP4 PUSH2 0x7FA JUMP JUMPDEST SWAP3 POP POP PUSH1 0x1 DUP2 ADD SWAP1 POP PUSH2 0x82B JUMP JUMPDEST POP DUP6 SWAP4 POP POP POP POP SWAP3 SWAP2 POP POP JUMP JUMPDEST PUSH1 0x0 PUSH1 0x20 DUP3 ADD SWAP1 POP DUP2 DUP2 SUB PUSH1 0x0 DUP4 ADD MSTORE PUSH2 0x87F DUP2 DUP5 PUSH2 0x807 JUMP JUMPDEST SWAP1 POP SWAP3 SWAP2 POP POP JUMP JUMPDEST PUSH32 0x4E487B7100000000000000000000000000000000000000000000000000000000 PUSH1 0x0 MSTORE PUSH1 0x32 PUSH1 0x4 MSTORE PUSH1 0x24 PUSH1 0x0 REVERT JUMPDEST PUSH2 0x8BF DUP2 PUSH2 0x57D JUMP JUMPDEST DUP3 MSTORE POP POP JUMP JUMPDEST PUSH1 0x0 PUSH1 0x60 DUP3 ADD SWAP1 POP PUSH2 0x8DA PUSH1 0x0 DUP4 ADD DUP7 PUSH2 0x8B6 JUMP JUMPDEST PUSH2 0x8E7 PUSH1 0x20 DUP4 ADD DUP6 PUSH2 0x8B6 JUMP JUMPDEST PUSH2 0x8F4 PUSH1 0x40 DUP4 ADD DUP5 PUSH2 0x8B6 JUMP JUMPDEST SWAP5 SWAP4 POP POP POP POP JUMP JUMPDEST PUSH2 0x905 DUP2 PUSH2 0x787 JUMP JUMPDEST DUP2 EQ PUSH2 0x910 JUMPI PUSH1 0x0 DUP1 REVERT JUMPDEST POP JUMP JUMPDEST PUSH1 0x0 DUP2 MLOAD SWAP1 POP PUSH2 0x922 DUP2 PUSH2 0x8FC JUMP JUMPDEST SWAP3 SWAP2 POP POP JUMP JUMPDEST PUSH1 0x0 PUSH1 0x20 DUP3 DUP5 SUB SLT ISZERO PUSH2 0x93E JUMPI PUSH2 0x93D PUSH2 0x48C JUMP JUMPDEST JUMPDEST PUSH1 0x0 PUSH2 0x94C DUP5 DUP3 DUP6 ADD PUSH2 0x913 JUMP JUMPDEST SWAP2 POP POP SWAP3 SWAP2 POP POP JUMP JUMPDEST PUSH32 0x4E487B7100000000000000000000000000000000000000000000000000000000 PUSH1 0x0 MSTORE PUSH1 0x11 PUSH1 0x4 MSTORE PUSH1 0x24 PUSH1 0x0 REVERT JUMPDEST PUSH1 0x0 PUSH2 0x98F DUP3 PUSH2 0x787 JUMP JUMPDEST SWAP2 POP PUSH32 0xFFFFFFFFFFFFFFFFFFFFFFFFFFFFFFFFFFFFFFFFFFFFFFFFFFFFFFFFFFFFFFFF DUP3 SUB PUSH2 0x9C1 JUMPI PUSH2 0x9C0 PUSH2 0x955 JUMP JUMPDEST JUMPDEST PUSH1 0x1 DUP3 ADD SWAP1 POP SWAP2 SWAP1 POP JUMP INVALID LOG2 PUSH5 0x6970667358 0x22 SLT KECCAK256 0xF 0xF7 0xD3 POP 0x4E RETURNDATACOPY CODESIZE SWAP2 0xDE PUSH24 0xF6842FFBC014F65489EF8BFF620974B562FAA43409CD6473 PUSH16 0x6C634300081100330000000000000000 "
				},
				"gasEstimates": {
					"creation": {
						"codeDepositCost": "512400",
						"executionCost": "549",
						"totalCost": "512949"
					},
					"external": {
						"getPrices((address,address,address,uint8)[])": "infinite"
					}
				},
				"methodIdentifiers": {
					"getPrices((address,address,address,uint8)[])": "ff514fa3"
				}
			},
			"storageLayout": {
				"storage": [],
				"types": null
			},
			"userdoc": {
				"kind": "user",
				"methods": {},
				"version": 1
			}
		}
	}
}