{
	"contracts/ExchangeAggregator.sol": {
		"ExchangeAggregator": {
			"abi": [
				{
					"inputs": [
						{
							"internalType": "address",
							"name": "_WETH",
							"type": "address"
						}
					],
					"stateMutability": "nonpayable",
					"type": "constructor"
				},
				{
					"anonymous": false,
					"inputs": [
						{
							"indexed": true,
							"internalType": "address",
							"name": "previousOwner",
							"type": "address"
						},
						{
							"indexed": true,
							"internalType": "address",
							"name": "newOwner",
							"type": "address"
						}
					],
					"name": "OwnershipTransferred",
					"type": "event"
				},
				{
					"inputs": [],
					"name": "WETH",
					"outputs": [
						{
							"internalType": "address",
							"name": "",
							"type": "address"
						}
					],
					"stateMutability": "view",
					"type": "function"
				},
				{
					"inputs": [],
					"name": "balanceETH",
					"outputs": [
						{
							"internalType": "uint256",
							"name": "",
							"type": "uint256"
						}
					],
					"stateMutability": "view",
					"type": "function"
				},
				{
					"inputs": [
						{
							"internalType": "address",
							"name": "token",
							"type": "address"
						}
					],
					"name": "balanceToken",
					"outputs": [
						{
							"internalType": "uint256",
							"name": "",
							"type": "uint256"
						}
					],
					"stateMutability": "view",
					"type": "function"
				},
				{
					"inputs": [],
					"name": "owner",
					"outputs": [
						{
							"internalType": "address",
							"name": "",
							"type": "address"
						}
					],
					"stateMutability": "view",
					"type": "function"
				},
				{
					"inputs": [],
					"name": "renounceOwnership",
					"outputs": [],
					"stateMutability": "nonpayable",
					"type": "function"
				},
				{
					"inputs": [
						{
							"components": [
								{
									"internalType": "address",
									"name": "input",
									"type": "address"
								},
								{
									"internalType": "uint256",
									"name": "totalAmount",
									"type": "uint256"
								},
								{
									"internalType": "uint256",
									"name": "feeAmount",
									"type": "uint256"
								},
								{
									"internalType": "address",
									"name": "swapper",
									"type": "address"
								},
								{
									"internalType": "bytes",
									"name": "data",
									"type": "bytes"
								},
								{
									"internalType": "address",
									"name": "sender",
									"type": "address"
								}
							],
							"internalType": "struct ExchangeAggregator.swapData",
							"name": "data",
							"type": "tuple"
						},
						{
							"internalType": "bytes",
							"name": "sig",
							"type": "bytes"
						}
					],
					"name": "signer",
					"outputs": [
						{
							"internalType": "address",
							"name": "",
							"type": "address"
						}
					],
					"stateMutability": "pure",
					"type": "function"
				},
				{
					"inputs": [
						{
							"components": [
								{
									"internalType": "address",
									"name": "input",
									"type": "address"
								},
								{
									"internalType": "uint256",
									"name": "totalAmount",
									"type": "uint256"
								},
								{
									"internalType": "uint256",
									"name": "feeAmount",
									"type": "uint256"
								},
								{
									"internalType": "address",
									"name": "swapper",
									"type": "address"
								},
								{
									"internalType": "bytes",
									"name": "data",
									"type": "bytes"
								},
								{
									"internalType": "address",
									"name": "sender",
									"type": "address"
								}
							],
							"internalType": "struct ExchangeAggregator.swapData",
							"name": "data",
							"type": "tuple"
						},
						{
							"internalType": "bytes",
							"name": "sig",
							"type": "bytes"
						}
					],
					"name": "swap",
					"outputs": [],
					"stateMutability": "nonpayable",
					"type": "function"
				},
				{
					"inputs": [
						{
							"components": [
								{
									"internalType": "address",
									"name": "input",
									"type": "address"
								},
								{
									"internalType": "uint256",
									"name": "totalAmount",
									"type": "uint256"
								},
								{
									"internalType": "uint256",
									"name": "feeAmount",
									"type": "uint256"
								},
								{
									"internalType": "address",
									"name": "swapper",
									"type": "address"
								},
								{
									"internalType": "bytes",
									"name": "data",
									"type": "bytes"
								},
								{
									"internalType": "address",
									"name": "sender",
									"type": "address"
								}
							],
							"internalType": "struct ExchangeAggregator.swapData",
							"name": "data",
							"type": "tuple"
						},
						{
							"internalType": "bytes",
							"name": "sig",
							"type": "bytes"
						}
					],
					"name": "swapNativeIn",
					"outputs": [],
					"stateMutability": "payable",
					"type": "function"
				},
				{
					"inputs": [
						{
							"internalType": "address",
							"name": "newOwner",
							"type": "address"
						}
					],
					"name": "transferOwnership",
					"outputs": [],
					"stateMutability": "nonpayable",
					"type": "function"
				},
				{
					"inputs": [
						{
							"internalType": "address",
							"name": "to",
							"type": "address"
						},
						{
							"internalType": "uint256",
							"name": "amount",
							"type": "uint256"
						}
					],
					"name": "withdrawETH",
					"outputs": [],
					"stateMutability": "nonpayable",
					"type": "function"
				},
				{
					"inputs": [
						{
							"internalType": "address",
							"name": "token",
							"type": "address"
						},
						{
							"internalType": "address",
							"name": "to",
							"type": "address"
						},
						{
							"internalType": "uint256",
							"name": "amount",
							"type": "uint256"
						}
					],
					"name": "withdrawToken",
					"outputs": [],
					"stateMutability": "nonpayable",
					"type": "function"
				}
			],
			"devdoc": {
				"kind": "dev",
				"methods": {
					"owner()": {
						"details": "Returns the address of the current owner."
					},
					"renounceOwnership()": {
						"details": "Leaves the contract without owner. It will not be possible to call `onlyOwner` functions anymore. Can only be called by the current owner. NOTE: Renouncing ownership will leave the contract without an owner, thereby removing any functionality that is only available to the owner."
					},
					"transferOwnership(address)": {
						"details": "Transfers ownership of the contract to a new account (`newOwner`). Can only be called by the current owner."
					}
				},
				"version": 1
			},
			"evm": {
				"assembly": "    /* \"contracts/ExchangeAggregator.sol\":344:2496  contract ExchangeAggregator is Ownable {... */\n  mstore(0x40, 0x80)\n    /* \"contracts/ExchangeAggregator.sol\":448:503  constructor(address _WETH){... */\n  callvalue\n  dup1\n  iszero\n  tag_1\n  jumpi\n  0x00\n  dup1\n  revert\ntag_1:\n  pop\n  mload(0x40)\n  sub(codesize, bytecodeSize)\n  dup1\n  bytecodeSize\n  dup4\n  codecopy\n  dup2\n  dup2\n  add\n  0x40\n  mstore\n  dup2\n  add\n  swap1\n  tag_2\n  swap2\n  swap1\n  tag_3\n  jump\t// in\ntag_2:\n    /* \"@openzeppelin/contracts/access/Ownable.sol\":936:968  _transferOwnership(_msgSender()) */\n  tag_7\n    /* \"@openzeppelin/contracts/access/Ownable.sol\":955:967  _msgSender() */\n  tag_8\n    /* \"@openzeppelin/contracts/access/Ownable.sol\":955:965  _msgSender */\n  shl(0x20, tag_9)\n    /* \"@openzeppelin/contracts/access/Ownable.sol\":955:967  _msgSender() */\n  0x20\n  shr\n  jump\t// in\ntag_8:\n    /* \"@openzeppelin/contracts/access/Ownable.sol\":936:954  _transferOwnership */\n  shl(0x20, tag_10)\n    /* \"@openzeppelin/contracts/access/Ownable.sol\":936:968  _transferOwnership(_msgSender()) */\n  0x20\n  shr\n  jump\t// in\ntag_7:\n    /* \"contracts/ExchangeAggregator.sol\":491:496  _WETH */\n  dup1\n    /* \"contracts/ExchangeAggregator.sol\":484:488  WETH */\n  0x01\n  0x00\n    /* \"contracts/ExchangeAggregator.sol\":484:496  WETH = _WETH */\n  0x0100\n  exp\n  dup2\n  sload\n  dup2\n  0xffffffffffffffffffffffffffffffffffffffff\n  mul\n  not\n  and\n  swap1\n  dup4\n  0xffffffffffffffffffffffffffffffffffffffff\n  and\n  mul\n  or\n  swap1\n  sstore\n  pop\n    /* \"contracts/ExchangeAggregator.sol\":448:503  constructor(address _WETH){... */\n  pop\n    /* \"contracts/ExchangeAggregator.sol\":344:2496  contract ExchangeAggregator is Ownable {... */\n  jump(tag_12)\n    /* \"@openzeppelin/contracts/utils/Context.sol\":640:736  function _msgSender() internal view virtual returns (address) {... */\ntag_9:\n    /* \"@openzeppelin/contracts/utils/Context.sol\":693:700  address */\n  0x00\n    /* \"@openzeppelin/contracts/utils/Context.sol\":719:729  msg.sender */\n  caller\n    /* \"@openzeppelin/contracts/utils/Context.sol\":712:729  return msg.sender */\n  swap1\n  pop\n    /* \"@openzeppelin/contracts/utils/Context.sol\":640:736  function _msgSender() internal view virtual returns (address) {... */\n  swap1\n  jump\t// out\n    /* \"@openzeppelin/contracts/access/Ownable.sol\":2433:2620  function _transferOwnership(address newOwner) internal virtual {... */\ntag_10:\n    /* \"@openzeppelin/contracts/access/Ownable.sol\":2506:2522  address oldOwner */\n  0x00\n    /* \"@openzeppelin/contracts/access/Ownable.sol\":2525:2531  _owner */\n  dup1\n  0x00\n  swap1\n  sload\n  swap1\n  0x0100\n  exp\n  swap1\n  div\n  0xffffffffffffffffffffffffffffffffffffffff\n  and\n    /* \"@openzeppelin/contracts/access/Ownable.sol\":2506:2531  address oldOwner = _owner */\n  swap1\n  pop\n    /* \"@openzeppelin/contracts/access/Ownable.sol\":2550:2558  newOwner */\n  dup2\n    /* \"@openzeppelin/contracts/access/Ownable.sol\":2541:2547  _owner */\n  0x00\n  dup1\n    /* \"@openzeppelin/contracts/access/Ownable.sol\":2541:2558  _owner = newOwner */\n  0x0100\n  exp\n  dup2\n  sload\n  dup2\n  0xffffffffffffffffffffffffffffffffffffffff\n  mul\n  not\n  and\n  swap1\n  dup4\n  0xffffffffffffffffffffffffffffffffffffffff\n  and\n  mul\n  or\n  swap1\n  sstore\n  pop\n    /* \"@openzeppelin/contracts/access/Ownable.sol\":2604:2612  newOwner */\n  dup2\n    /* \"@openzeppelin/contracts/access/Ownable.sol\":2573:2613  OwnershipTransferred(oldOwner, newOwner) */\n  0xffffffffffffffffffffffffffffffffffffffff\n  and\n    /* \"@openzeppelin/contracts/access/Ownable.sol\":2594:2602  oldOwner */\n  dup2\n    /* \"@openzeppelin/contracts/access/Ownable.sol\":2573:2613  OwnershipTransferred(oldOwner, newOwner) */\n  0xffffffffffffffffffffffffffffffffffffffff\n  and\n  0x8be0079c531659141344cd1fd0a4f28419497f9722a3daafe3b4186f6b6457e0\n  mload(0x40)\n  mload(0x40)\n  dup1\n  swap2\n  sub\n  swap1\n  log3\n    /* \"@openzeppelin/contracts/access/Ownable.sol\":2496:2620  {... */\n  pop\n    /* \"@openzeppelin/contracts/access/Ownable.sol\":2433:2620  function _transferOwnership(address newOwner) internal virtual {... */\n  pop\n  jump\t// out\n    /* \"#utility.yul\":88:205   */\ntag_16:\n    /* \"#utility.yul\":197:198   */\n  0x00\n    /* \"#utility.yul\":194:195   */\n  dup1\n    /* \"#utility.yul\":187:199   */\n  revert\n    /* \"#utility.yul\":334:460   */\ntag_18:\n    /* \"#utility.yul\":371:378   */\n  0x00\n    /* \"#utility.yul\":411:453   */\n  0xffffffffffffffffffffffffffffffffffffffff\n    /* \"#utility.yul\":404:409   */\n  dup3\n    /* \"#utility.yul\":400:454   */\n  and\n    /* \"#utility.yul\":389:454   */\n  swap1\n  pop\n    /* \"#utility.yul\":334:460   */\n  swap2\n  swap1\n  pop\n  jump\t// out\n    /* \"#utility.yul\":466:562   */\ntag_19:\n    /* \"#utility.yul\":503:510   */\n  0x00\n    /* \"#utility.yul\":532:556   */\n  tag_28\n    /* \"#utility.yul\":550:555   */\n  dup3\n    /* \"#utility.yul\":532:556   */\n  tag_18\n  jump\t// in\ntag_28:\n    /* \"#utility.yul\":521:556   */\n  swap1\n  pop\n    /* \"#utility.yul\":466:562   */\n  swap2\n  swap1\n  pop\n  jump\t// out\n    /* \"#utility.yul\":568:690   */\ntag_20:\n    /* \"#utility.yul\":641:665   */\n  tag_30\n    /* \"#utility.yul\":659:664   */\n  dup2\n    /* \"#utility.yul\":641:665   */\n  tag_19\n  jump\t// in\ntag_30:\n    /* \"#utility.yul\":634:639   */\n  dup2\n    /* \"#utility.yul\":631:666   */\n  eq\n    /* \"#utility.yul\":621:684   */\n  tag_31\n  jumpi\n    /* \"#utility.yul\":680:681   */\n  0x00\n    /* \"#utility.yul\":677:678   */\n  dup1\n    /* \"#utility.yul\":670:682   */\n  revert\n    /* \"#utility.yul\":621:684   */\ntag_31:\n    /* \"#utility.yul\":568:690   */\n  pop\n  jump\t// out\n    /* \"#utility.yul\":696:839   */\ntag_21:\n    /* \"#utility.yul\":753:758   */\n  0x00\n    /* \"#utility.yul\":784:790   */\n  dup2\n    /* \"#utility.yul\":778:791   */\n  mload\n    /* \"#utility.yul\":769:791   */\n  swap1\n  pop\n    /* \"#utility.yul\":800:833   */\n  tag_33\n    /* \"#utility.yul\":827:832   */\n  dup2\n    /* \"#utility.yul\":800:833   */\n  tag_20\n  jump\t// in\ntag_33:\n    /* \"#utility.yul\":696:839   */\n  swap3\n  swap2\n  pop\n  pop\n  jump\t// out\n    /* \"#utility.yul\":845:1196   */\ntag_3:\n    /* \"#utility.yul\":915:921   */\n  0x00\n    /* \"#utility.yul\":964:966   */\n  0x20\n    /* \"#utility.yul\":952:961   */\n  dup3\n    /* \"#utility.yul\":943:950   */\n  dup5\n    /* \"#utility.yul\":939:962   */\n  sub\n    /* \"#utility.yul\":935:967   */\n  slt\n    /* \"#utility.yul\":932:1051   */\n  iszero\n  tag_35\n  jumpi\n    /* \"#utility.yul\":970:1049   */\n  tag_36\n  tag_16\n  jump\t// in\ntag_36:\n    /* \"#utility.yul\":932:1051   */\ntag_35:\n    /* \"#utility.yul\":1090:1091   */\n  0x00\n    /* \"#utility.yul\":1115:1179   */\n  tag_37\n    /* \"#utility.yul\":1171:1178   */\n  dup5\n    /* \"#utility.yul\":1162:1168   */\n  dup3\n    /* \"#utility.yul\":1151:1160   */\n  dup6\n    /* \"#utility.yul\":1147:1169   */\n  add\n    /* \"#utility.yul\":1115:1179   */\n  tag_21\n  jump\t// in\ntag_37:\n    /* \"#utility.yul\":1105:1179   */\n  swap2\n  pop\n    /* \"#utility.yul\":1061:1189   */\n  pop\n    /* \"#utility.yul\":845:1196   */\n  swap3\n  swap2\n  pop\n  pop\n  jump\t// out\n    /* \"contracts/ExchangeAggregator.sol\":344:2496  contract ExchangeAggregator is Ownable {... */\ntag_12:\n  dataSize(sub_0)\n  dup1\n  dataOffset(sub_0)\n  0x00\n  codecopy\n  0x00\n  return\nstop\n\nsub_0: assembly {\n        /* \"contracts/ExchangeAggregator.sol\":344:2496  contract ExchangeAggregator is Ownable {... */\n      mstore(0x40, 0x80)\n      jumpi(tag_1, lt(calldatasize, 0x04))\n      shr(0xe0, calldataload(0x00))\n      dup1\n      0x715018a6\n      gt\n      tag_13\n      jumpi\n      dup1\n      0x715018a6\n      eq\n      tag_7\n      jumpi\n      dup1\n      0x8da5cb5b\n      eq\n      tag_8\n      jumpi\n      dup1\n      0xad5c4648\n      eq\n      tag_9\n      jumpi\n      dup1\n      0xb0867883\n      eq\n      tag_10\n      jumpi\n      dup1\n      0xecbdbb32\n      eq\n      tag_11\n      jumpi\n      dup1\n      0xf2fde38b\n      eq\n      tag_12\n      jumpi\n      jump(tag_1)\n    tag_13:\n      dup1\n      0x01e33667\n      eq\n      tag_2\n      jumpi\n      dup1\n      0x04599012\n      eq\n      tag_3\n      jumpi\n      dup1\n      0x2906799b\n      eq\n      tag_4\n      jumpi\n      dup1\n      0x4782f779\n      eq\n      tag_5\n      jumpi\n      dup1\n      0x5d86acf1\n      eq\n      tag_6\n      jumpi\n    tag_1:\n      0x00\n      dup1\n      revert\n        /* \"contracts/ExchangeAggregator.sol\":1838:1977  function withdrawToken(address token,address to,uint amount) public onlyOwner {... */\n    tag_2:\n      callvalue\n      dup1\n      iszero\n      tag_14\n      jumpi\n      0x00\n      dup1\n      revert\n    tag_14:\n      pop\n      tag_15\n      0x04\n      dup1\n      calldatasize\n      sub\n      dup2\n      add\n      swap1\n      tag_16\n      swap2\n      swap1\n      tag_17\n      jump\t// in\n    tag_16:\n      tag_18\n      jump\t// in\n    tag_15:\n      stop\n        /* \"contracts/ExchangeAggregator.sol\":1485:1608  function balanceToken(address token) public view returns(uint){... */\n    tag_3:\n      callvalue\n      dup1\n      iszero\n      tag_19\n      jumpi\n      0x00\n      dup1\n      revert\n    tag_19:\n      pop\n      tag_20\n      0x04\n      dup1\n      calldatasize\n      sub\n      dup2\n      add\n      swap1\n      tag_21\n      swap2\n      swap1\n      tag_22\n      jump\t// in\n    tag_21:\n      tag_23\n      jump\t// in\n    tag_20:\n      mload(0x40)\n      tag_24\n      swap2\n      swap1\n      tag_25\n      jump\t// in\n    tag_24:\n      mload(0x40)\n      dup1\n      swap2\n      sub\n      swap1\n      return\n        /* \"contracts/ExchangeAggregator.sol\":680:1096  function swap(swapData calldata data,bytes calldata sig) public {... */\n    tag_4:\n      callvalue\n      dup1\n      iszero\n      tag_26\n      jumpi\n      0x00\n      dup1\n      revert\n    tag_26:\n      pop\n      tag_27\n      0x04\n      dup1\n      calldatasize\n      sub\n      dup2\n      add\n      swap1\n      tag_28\n      swap2\n      swap1\n      tag_29\n      jump\t// in\n    tag_28:\n      tag_30\n      jump\t// in\n    tag_27:\n      stop\n        /* \"contracts/ExchangeAggregator.sol\":1712:1832  function withdrawETH(address to,uint amount) public onlyOwner {... */\n    tag_5:\n      callvalue\n      dup1\n      iszero\n      tag_31\n      jumpi\n      0x00\n      dup1\n      revert\n    tag_31:\n      pop\n      tag_32\n      0x04\n      dup1\n      calldatasize\n      sub\n      dup2\n      add\n      swap1\n      tag_33\n      swap2\n      swap1\n      tag_34\n      jump\t// in\n    tag_33:\n      tag_35\n      jump\t// in\n    tag_32:\n      stop\n        /* \"contracts/ExchangeAggregator.sol\":1102:1479  function swapNativeIn(swapData calldata data,bytes calldata sig) public payable {... */\n    tag_6:\n      tag_36\n      0x04\n      dup1\n      calldatasize\n      sub\n      dup2\n      add\n      swap1\n      tag_37\n      swap2\n      swap1\n      tag_29\n      jump\t// in\n    tag_37:\n      tag_38\n      jump\t// in\n    tag_36:\n      stop\n        /* \"@openzeppelin/contracts/access/Ownable.sol\":1831:1932  function renounceOwnership() public virtual onlyOwner {... */\n    tag_7:\n      callvalue\n      dup1\n      iszero\n      tag_39\n      jumpi\n      0x00\n      dup1\n      revert\n    tag_39:\n      pop\n      tag_40\n      tag_41\n      jump\t// in\n    tag_40:\n      stop\n        /* \"@openzeppelin/contracts/access/Ownable.sol\":1201:1286  function owner() public view virtual returns (address) {... */\n    tag_8:\n      callvalue\n      dup1\n      iszero\n      tag_42\n      jumpi\n      0x00\n      dup1\n      revert\n    tag_42:\n      pop\n      tag_43\n      tag_44\n      jump\t// in\n    tag_43:\n      mload(0x40)\n      tag_45\n      swap2\n      swap1\n      tag_46\n      jump\t// in\n    tag_45:\n      mload(0x40)\n      dup1\n      swap2\n      sub\n      swap1\n      return\n        /* \"contracts/ExchangeAggregator.sol\":418:437  address public WETH */\n    tag_9:\n      callvalue\n      dup1\n      iszero\n      tag_47\n      jumpi\n      0x00\n      dup1\n      revert\n    tag_47:\n      pop\n      tag_48\n      tag_49\n      jump\t// in\n    tag_48:\n      mload(0x40)\n      tag_50\n      swap2\n      swap1\n      tag_46\n      jump\t// in\n    tag_50:\n      mload(0x40)\n      dup1\n      swap2\n      sub\n      swap1\n      return\n        /* \"contracts/ExchangeAggregator.sol\":2239:2384  function signer(swapData calldata data, bytes memory sig) public pure returns(address){... */\n    tag_10:\n      callvalue\n      dup1\n      iszero\n      tag_51\n      jumpi\n      0x00\n      dup1\n      revert\n    tag_51:\n      pop\n      tag_52\n      0x04\n      dup1\n      calldatasize\n      sub\n      dup2\n      add\n      swap1\n      tag_53\n      swap2\n      swap1\n      tag_54\n      jump\t// in\n    tag_53:\n      tag_55\n      jump\t// in\n    tag_52:\n      mload(0x40)\n      tag_56\n      swap2\n      swap1\n      tag_46\n      jump\t// in\n    tag_56:\n      mload(0x40)\n      dup1\n      swap2\n      sub\n      swap1\n      return\n        /* \"contracts/ExchangeAggregator.sol\":1614:1706  function balanceETH() public view returns(uint){... */\n    tag_11:\n      callvalue\n      dup1\n      iszero\n      tag_57\n      jumpi\n      0x00\n      dup1\n      revert\n    tag_57:\n      pop\n      tag_58\n      tag_59\n      jump\t// in\n    tag_58:\n      mload(0x40)\n      tag_60\n      swap2\n      swap1\n      tag_25\n      jump\t// in\n    tag_60:\n      mload(0x40)\n      dup1\n      swap2\n      sub\n      swap1\n      return\n        /* \"@openzeppelin/contracts/access/Ownable.sol\":2081:2279  function transferOwnership(address newOwner) public virtual onlyOwner {... */\n    tag_12:\n      callvalue\n      dup1\n      iszero\n      tag_61\n      jumpi\n      0x00\n      dup1\n      revert\n    tag_61:\n      pop\n      tag_62\n      0x04\n      dup1\n      calldatasize\n      sub\n      dup2\n      add\n      swap1\n      tag_63\n      swap2\n      swap1\n      tag_22\n      jump\t// in\n    tag_63:\n      tag_64\n      jump\t// in\n    tag_62:\n      stop\n        /* \"contracts/ExchangeAggregator.sol\":1838:1977  function withdrawToken(address token,address to,uint amount) public onlyOwner {... */\n    tag_18:\n        /* \"@openzeppelin/contracts/access/Ownable.sol\":1094:1107  _checkOwner() */\n      tag_66\n        /* \"@openzeppelin/contracts/access/Ownable.sol\":1094:1105  _checkOwner */\n      tag_67\n        /* \"@openzeppelin/contracts/access/Ownable.sol\":1094:1107  _checkOwner() */\n      jump\t// in\n    tag_66:\n        /* \"contracts/ExchangeAggregator.sol\":1926:1970  TransferHelper.safeTransfer(token,to,amount) */\n      tag_69\n        /* \"contracts/ExchangeAggregator.sol\":1954:1959  token */\n      dup4\n        /* \"contracts/ExchangeAggregator.sol\":1960:1962  to */\n      dup4\n        /* \"contracts/ExchangeAggregator.sol\":1963:1969  amount */\n      dup4\n        /* \"contracts/ExchangeAggregator.sol\":1926:1953  TransferHelper.safeTransfer */\n      tag_70\n        /* \"contracts/ExchangeAggregator.sol\":1926:1970  TransferHelper.safeTransfer(token,to,amount) */\n      jump\t// in\n    tag_69:\n        /* \"contracts/ExchangeAggregator.sol\":1838:1977  function withdrawToken(address token,address to,uint amount) public onlyOwner {... */\n      pop\n      pop\n      pop\n      jump\t// out\n        /* \"contracts/ExchangeAggregator.sol\":1485:1608  function balanceToken(address token) public view returns(uint){... */\n    tag_23:\n        /* \"contracts/ExchangeAggregator.sol\":1542:1546  uint */\n      0x00\n        /* \"contracts/ExchangeAggregator.sol\":1570:1575  token */\n      dup2\n        /* \"contracts/ExchangeAggregator.sol\":1563:1586  IERC20(token).balanceOf */\n      0xffffffffffffffffffffffffffffffffffffffff\n      and\n      0x70a08231\n        /* \"contracts/ExchangeAggregator.sol\":1595:1599  this */\n      address\n        /* \"contracts/ExchangeAggregator.sol\":1563:1601  IERC20(token).balanceOf(address(this)) */\n      mload(0x40)\n      dup3\n      0xffffffff\n      and\n      0xe0\n      shl\n      dup2\n      mstore\n      0x04\n      add\n      tag_72\n      swap2\n      swap1\n      tag_46\n      jump\t// in\n    tag_72:\n      0x20\n      mload(0x40)\n      dup1\n      dup4\n      sub\n      dup2\n      dup7\n      gas\n      staticcall\n      iszero\n      dup1\n      iszero\n      tag_74\n      jumpi\n      returndatasize\n      0x00\n      dup1\n      returndatacopy\n      revert(0x00, returndatasize)\n    tag_74:\n      pop\n      pop\n      pop\n      pop\n      mload(0x40)\n      returndatasize\n      not(0x1f)\n      0x1f\n      dup3\n      add\n      and\n      dup3\n      add\n      dup1\n      0x40\n      mstore\n      pop\n      dup2\n      add\n      swap1\n      tag_75\n      swap2\n      swap1\n      tag_76\n      jump\t// in\n    tag_75:\n        /* \"contracts/ExchangeAggregator.sol\":1556:1601  return IERC20(token).balanceOf(address(this)) */\n      swap1\n      pop\n        /* \"contracts/ExchangeAggregator.sol\":1485:1608  function balanceToken(address token) public view returns(uint){... */\n      swap2\n      swap1\n      pop\n      jump\t// out\n        /* \"contracts/ExchangeAggregator.sol\":680:1096  function swap(swapData calldata data,bytes calldata sig) public {... */\n    tag_30:\n        /* \"contracts/ExchangeAggregator.sol\":777:787  msg.sender */\n      caller\n        /* \"contracts/ExchangeAggregator.sol\":762:787  data.sender == msg.sender */\n      0xffffffffffffffffffffffffffffffffffffffff\n      and\n        /* \"contracts/ExchangeAggregator.sol\":762:766  data */\n      dup4\n        /* \"contracts/ExchangeAggregator.sol\":762:773  data.sender */\n      0xa0\n      add\n      0x20\n      dup2\n      add\n      swap1\n      tag_78\n      swap2\n      swap1\n      tag_22\n      jump\t// in\n    tag_78:\n        /* \"contracts/ExchangeAggregator.sol\":762:787  data.sender == msg.sender */\n      0xffffffffffffffffffffffffffffffffffffffff\n      and\n      eq\n        /* \"contracts/ExchangeAggregator.sol\":754:805  require(data.sender == msg.sender,\"invaled sender\") */\n      tag_79\n      jumpi\n      mload(0x40)\n      0x08c379a000000000000000000000000000000000000000000000000000000000\n      dup2\n      mstore\n      0x04\n      add\n      tag_80\n      swap1\n      tag_81\n      jump\t// in\n    tag_80:\n      mload(0x40)\n      dup1\n      swap2\n      sub\n      swap1\n      revert\n    tag_79:\n        /* \"contracts/ExchangeAggregator.sol\":815:846  checkSig(abi.encode(data), sig) */\n      tag_82\n        /* \"contracts/ExchangeAggregator.sol\":835:839  data */\n      dup4\n        /* \"contracts/ExchangeAggregator.sol\":824:840  abi.encode(data) */\n      add(0x20, mload(0x40))\n      tag_83\n      swap2\n      swap1\n      tag_84\n      jump\t// in\n    tag_83:\n      mload(0x40)\n      0x20\n      dup2\n      dup4\n      sub\n      sub\n      dup2\n      mstore\n      swap1\n      0x40\n      mstore\n        /* \"contracts/ExchangeAggregator.sol\":842:845  sig */\n      dup4\n      dup4\n        /* \"contracts/ExchangeAggregator.sol\":815:846  checkSig(abi.encode(data), sig) */\n      dup1\n      dup1\n      0x1f\n      add\n      0x20\n      dup1\n      swap2\n      div\n      mul\n      0x20\n      add\n      mload(0x40)\n      swap1\n      dup2\n      add\n      0x40\n      mstore\n      dup1\n      swap4\n      swap3\n      swap2\n      swap1\n      dup2\n      dup2\n      mstore\n      0x20\n      add\n      dup4\n      dup4\n      dup1\n      dup3\n      dup5\n      calldatacopy\n      0x00\n      dup2\n      dup5\n      add\n      mstore\n      not(0x1f)\n      0x1f\n      dup3\n      add\n      and\n      swap1\n      pop\n      dup1\n      dup4\n      add\n      swap3\n      pop\n      pop\n      pop\n      pop\n      pop\n      pop\n      pop\n        /* \"contracts/ExchangeAggregator.sol\":815:823  checkSig */\n      tag_85\n        /* \"contracts/ExchangeAggregator.sol\":815:846  checkSig(abi.encode(data), sig) */\n      jump\t// in\n    tag_82:\n        /* \"contracts/ExchangeAggregator.sol\":856:941  TransferHelper.safeTransferFrom(data.input,msg.sender,address(this),data.totalAmount) */\n      tag_86\n        /* \"contracts/ExchangeAggregator.sol\":888:892  data */\n      dup4\n        /* \"contracts/ExchangeAggregator.sol\":888:898  data.input */\n      0x00\n      add\n      0x20\n      dup2\n      add\n      swap1\n      tag_87\n      swap2\n      swap1\n      tag_22\n      jump\t// in\n    tag_87:\n        /* \"contracts/ExchangeAggregator.sol\":899:909  msg.sender */\n      caller\n        /* \"contracts/ExchangeAggregator.sol\":918:922  this */\n      address\n        /* \"contracts/ExchangeAggregator.sol\":924:928  data */\n      dup7\n        /* \"contracts/ExchangeAggregator.sol\":924:940  data.totalAmount */\n      0x20\n      add\n      calldataload\n        /* \"contracts/ExchangeAggregator.sol\":856:887  TransferHelper.safeTransferFrom */\n      tag_88\n        /* \"contracts/ExchangeAggregator.sol\":856:941  TransferHelper.safeTransferFrom(data.input,msg.sender,address(this),data.totalAmount) */\n      jump\t// in\n    tag_86:\n        /* \"contracts/ExchangeAggregator.sol\":951:1034  TransferHelper.safeApprove(data.input,data.swapper,data.totalAmount-data.feeAmount) */\n      tag_89\n        /* \"contracts/ExchangeAggregator.sol\":978:982  data */\n      dup4\n        /* \"contracts/ExchangeAggregator.sol\":978:988  data.input */\n      0x00\n      add\n      0x20\n      dup2\n      add\n      swap1\n      tag_90\n      swap2\n      swap1\n      tag_22\n      jump\t// in\n    tag_90:\n        /* \"contracts/ExchangeAggregator.sol\":989:993  data */\n      dup5\n        /* \"contracts/ExchangeAggregator.sol\":989:1001  data.swapper */\n      0x60\n      add\n      0x20\n      dup2\n      add\n      swap1\n      tag_91\n      swap2\n      swap1\n      tag_22\n      jump\t// in\n    tag_91:\n        /* \"contracts/ExchangeAggregator.sol\":1019:1023  data */\n      dup6\n        /* \"contracts/ExchangeAggregator.sol\":1019:1033  data.feeAmount */\n      0x40\n      add\n      calldataload\n        /* \"contracts/ExchangeAggregator.sol\":1002:1006  data */\n      dup7\n        /* \"contracts/ExchangeAggregator.sol\":1002:1018  data.totalAmount */\n      0x20\n      add\n      calldataload\n        /* \"contracts/ExchangeAggregator.sol\":1002:1033  data.totalAmount-data.feeAmount */\n      tag_92\n      swap2\n      swap1\n      tag_93\n      jump\t// in\n    tag_92:\n        /* \"contracts/ExchangeAggregator.sol\":951:977  TransferHelper.safeApprove */\n      tag_94\n        /* \"contracts/ExchangeAggregator.sol\":951:1034  TransferHelper.safeApprove(data.input,data.swapper,data.totalAmount-data.feeAmount) */\n      jump\t// in\n    tag_89:\n        /* \"contracts/ExchangeAggregator.sol\":1044:1089  SafeCaller.safeCall(data.swapper,0,data.data) */\n      tag_95\n        /* \"contracts/ExchangeAggregator.sol\":1064:1068  data */\n      dup4\n        /* \"contracts/ExchangeAggregator.sol\":1064:1076  data.swapper */\n      0x60\n      add\n      0x20\n      dup2\n      add\n      swap1\n      tag_96\n      swap2\n      swap1\n      tag_22\n      jump\t// in\n    tag_96:\n        /* \"contracts/ExchangeAggregator.sol\":1077:1078  0 */\n      0x00\n        /* \"contracts/ExchangeAggregator.sol\":1079:1083  data */\n      dup6\n        /* \"contracts/ExchangeAggregator.sol\":1079:1088  data.data */\n      dup1\n      0x80\n      add\n      swap1\n      tag_97\n      swap2\n      swap1\n      tag_98\n      jump\t// in\n    tag_97:\n        /* \"contracts/ExchangeAggregator.sol\":1044:1089  SafeCaller.safeCall(data.swapper,0,data.data) */\n      dup1\n      dup1\n      0x1f\n      add\n      0x20\n      dup1\n      swap2\n      div\n      mul\n      0x20\n      add\n      mload(0x40)\n      swap1\n      dup2\n      add\n      0x40\n      mstore\n      dup1\n      swap4\n      swap3\n      swap2\n      swap1\n      dup2\n      dup2\n      mstore\n      0x20\n      add\n      dup4\n      dup4\n      dup1\n      dup3\n      dup5\n      calldatacopy\n      0x00\n      dup2\n      dup5\n      add\n      mstore\n      not(0x1f)\n      0x1f\n      dup3\n      add\n      and\n      swap1\n      pop\n      dup1\n      dup4\n      add\n      swap3\n      pop\n      pop\n      pop\n      pop\n      pop\n      pop\n      pop\n        /* \"contracts/ExchangeAggregator.sol\":1044:1063  SafeCaller.safeCall */\n      tag_99\n        /* \"contracts/ExchangeAggregator.sol\":1044:1089  SafeCaller.safeCall(data.swapper,0,data.data) */\n      jump\t// in\n    tag_95:\n        /* \"contracts/ExchangeAggregator.sol\":680:1096  function swap(swapData calldata data,bytes calldata sig) public {... */\n      pop\n      pop\n      pop\n      jump\t// out\n        /* \"contracts/ExchangeAggregator.sol\":1712:1832  function withdrawETH(address to,uint amount) public onlyOwner {... */\n    tag_35:\n        /* \"@openzeppelin/contracts/access/Ownable.sol\":1094:1107  _checkOwner() */\n      tag_101\n        /* \"@openzeppelin/contracts/access/Ownable.sol\":1094:1105  _checkOwner */\n      tag_67\n        /* \"@openzeppelin/contracts/access/Ownable.sol\":1094:1107  _checkOwner() */\n      jump\t// in\n    tag_101:\n        /* \"contracts/ExchangeAggregator.sol\":1784:1825  TransferHelper.safeTransferETH(to,amount) */\n      tag_103\n        /* \"contracts/ExchangeAggregator.sol\":1815:1817  to */\n      dup3\n        /* \"contracts/ExchangeAggregator.sol\":1818:1824  amount */\n      dup3\n        /* \"contracts/ExchangeAggregator.sol\":1784:1814  TransferHelper.safeTransferETH */\n      tag_104\n        /* \"contracts/ExchangeAggregator.sol\":1784:1825  TransferHelper.safeTransferETH(to,amount) */\n      jump\t// in\n    tag_103:\n        /* \"contracts/ExchangeAggregator.sol\":1712:1832  function withdrawETH(address to,uint amount) public onlyOwner {... */\n      pop\n      pop\n      jump\t// out\n        /* \"contracts/ExchangeAggregator.sol\":1102:1479  function swapNativeIn(swapData calldata data,bytes calldata sig) public payable {... */\n    tag_38:\n        /* \"contracts/ExchangeAggregator.sol\":1215:1225  msg.sender */\n      caller\n        /* \"contracts/ExchangeAggregator.sol\":1200:1225  data.sender == msg.sender */\n      0xffffffffffffffffffffffffffffffffffffffff\n      and\n        /* \"contracts/ExchangeAggregator.sol\":1200:1204  data */\n      dup4\n        /* \"contracts/ExchangeAggregator.sol\":1200:1211  data.sender */\n      0xa0\n      add\n      0x20\n      dup2\n      add\n      swap1\n      tag_106\n      swap2\n      swap1\n      tag_22\n      jump\t// in\n    tag_106:\n        /* \"contracts/ExchangeAggregator.sol\":1200:1225  data.sender == msg.sender */\n      0xffffffffffffffffffffffffffffffffffffffff\n      and\n      eq\n        /* \"contracts/ExchangeAggregator.sol\":1192:1243  require(data.sender == msg.sender,\"invaled sender\") */\n      tag_107\n      jumpi\n      mload(0x40)\n      0x08c379a000000000000000000000000000000000000000000000000000000000\n      dup2\n      mstore\n      0x04\n      add\n      tag_108\n      swap1\n      tag_81\n      jump\t// in\n    tag_108:\n      mload(0x40)\n      dup1\n      swap2\n      sub\n      swap1\n      revert\n    tag_107:\n        /* \"contracts/ExchangeAggregator.sol\":1253:1284  checkSig(abi.encode(data), sig) */\n      tag_109\n        /* \"contracts/ExchangeAggregator.sol\":1273:1277  data */\n      dup4\n        /* \"contracts/ExchangeAggregator.sol\":1262:1278  abi.encode(data) */\n      add(0x20, mload(0x40))\n      tag_110\n      swap2\n      swap1\n      tag_84\n      jump\t// in\n    tag_110:\n      mload(0x40)\n      0x20\n      dup2\n      dup4\n      sub\n      sub\n      dup2\n      mstore\n      swap1\n      0x40\n      mstore\n        /* \"contracts/ExchangeAggregator.sol\":1280:1283  sig */\n      dup4\n      dup4\n        /* \"contracts/ExchangeAggregator.sol\":1253:1284  checkSig(abi.encode(data), sig) */\n      dup1\n      dup1\n      0x1f\n      add\n      0x20\n      dup1\n      swap2\n      div\n      mul\n      0x20\n      add\n      mload(0x40)\n      swap1\n      dup2\n      add\n      0x40\n      mstore\n      dup1\n      swap4\n      swap3\n      swap2\n      swap1\n      dup2\n      dup2\n      mstore\n      0x20\n      add\n      dup4\n      dup4\n      dup1\n      dup3\n      dup5\n      calldatacopy\n      0x00\n      dup2\n      dup5\n      add\n      mstore\n      not(0x1f)\n      0x1f\n      dup3\n      add\n      and\n      swap1\n      pop\n      dup1\n      dup4\n      add\n      swap3\n      pop\n      pop\n      pop\n      pop\n      pop\n      pop\n      pop\n        /* \"contracts/ExchangeAggregator.sol\":1253:1261  checkSig */\n      tag_85\n        /* \"contracts/ExchangeAggregator.sol\":1253:1284  checkSig(abi.encode(data), sig) */\n      jump\t// in\n    tag_109:\n        /* \"contracts/ExchangeAggregator.sol\":1315:1319  data */\n      dup3\n        /* \"contracts/ExchangeAggregator.sol\":1315:1331  data.totalAmount */\n      0x20\n      add\n      calldataload\n        /* \"contracts/ExchangeAggregator.sol\":1302:1311  msg.value */\n      callvalue\n        /* \"contracts/ExchangeAggregator.sol\":1302:1331  msg.value >= data.totalAmount */\n      lt\n      iszero\n        /* \"contracts/ExchangeAggregator.sol\":1294:1360  require(msg.value >= data.totalAmount,\"insufficient input amount\") */\n      tag_111\n      jumpi\n      mload(0x40)\n      0x08c379a000000000000000000000000000000000000000000000000000000000\n      dup2\n      mstore\n      0x04\n      add\n      tag_112\n      swap1\n      tag_113\n      jump\t// in\n    tag_112:\n      mload(0x40)\n      dup1\n      swap2\n      sub\n      swap1\n      revert\n    tag_111:\n        /* \"contracts/ExchangeAggregator.sol\":1370:1381  uint amount */\n      0x00\n        /* \"contracts/ExchangeAggregator.sol\":1396:1400  data */\n      dup4\n        /* \"contracts/ExchangeAggregator.sol\":1396:1410  data.feeAmount */\n      0x40\n      add\n      calldataload\n        /* \"contracts/ExchangeAggregator.sol\":1384:1393  msg.value */\n      callvalue\n        /* \"contracts/ExchangeAggregator.sol\":1384:1410  msg.value - data.feeAmount */\n      tag_114\n      swap2\n      swap1\n      tag_93\n      jump\t// in\n    tag_114:\n        /* \"contracts/ExchangeAggregator.sol\":1370:1410  uint amount = msg.value - data.feeAmount */\n      swap1\n      pop\n        /* \"contracts/ExchangeAggregator.sol\":1422:1472  SafeCaller.safeCall(data.swapper,amount,data.data) */\n      tag_115\n        /* \"contracts/ExchangeAggregator.sol\":1442:1446  data */\n      dup5\n        /* \"contracts/ExchangeAggregator.sol\":1442:1454  data.swapper */\n      0x60\n      add\n      0x20\n      dup2\n      add\n      swap1\n      tag_116\n      swap2\n      swap1\n      tag_22\n      jump\t// in\n    tag_116:\n        /* \"contracts/ExchangeAggregator.sol\":1455:1461  amount */\n      dup3\n        /* \"contracts/ExchangeAggregator.sol\":1462:1466  data */\n      dup7\n        /* \"contracts/ExchangeAggregator.sol\":1462:1471  data.data */\n      dup1\n      0x80\n      add\n      swap1\n      tag_117\n      swap2\n      swap1\n      tag_98\n      jump\t// in\n    tag_117:\n        /* \"contracts/ExchangeAggregator.sol\":1422:1472  SafeCaller.safeCall(data.swapper,amount,data.data) */\n      dup1\n      dup1\n      0x1f\n      add\n      0x20\n      dup1\n      swap2\n      div\n      mul\n      0x20\n      add\n      mload(0x40)\n      swap1\n      dup2\n      add\n      0x40\n      mstore\n      dup1\n      swap4\n      swap3\n      swap2\n      swap1\n      dup2\n      dup2\n      mstore\n      0x20\n      add\n      dup4\n      dup4\n      dup1\n      dup3\n      dup5\n      calldatacopy\n      0x00\n      dup2\n      dup5\n      add\n      mstore\n      not(0x1f)\n      0x1f\n      dup3\n      add\n      and\n      swap1\n      pop\n      dup1\n      dup4\n      add\n      swap3\n      pop\n      pop\n      pop\n      pop\n      pop\n      pop\n      pop\n        /* \"contracts/ExchangeAggregator.sol\":1422:1441  SafeCaller.safeCall */\n      tag_99\n        /* \"contracts/ExchangeAggregator.sol\":1422:1472  SafeCaller.safeCall(data.swapper,amount,data.data) */\n      jump\t// in\n    tag_115:\n        /* \"contracts/ExchangeAggregator.sol\":1182:1479  {... */\n      pop\n        /* \"contracts/ExchangeAggregator.sol\":1102:1479  function swapNativeIn(swapData calldata data,bytes calldata sig) public payable {... */\n      pop\n      pop\n      pop\n      jump\t// out\n        /* \"@openzeppelin/contracts/access/Ownable.sol\":1831:1932  function renounceOwnership() public virtual onlyOwner {... */\n    tag_41:\n        /* \"@openzeppelin/contracts/access/Ownable.sol\":1094:1107  _checkOwner() */\n      tag_119\n        /* \"@openzeppelin/contracts/access/Ownable.sol\":1094:1105  _checkOwner */\n      tag_67\n        /* \"@openzeppelin/contracts/access/Ownable.sol\":1094:1107  _checkOwner() */\n      jump\t// in\n    tag_119:\n        /* \"@openzeppelin/contracts/access/Ownable.sol\":1895:1925  _transferOwnership(address(0)) */\n      tag_121\n        /* \"@openzeppelin/contracts/access/Ownable.sol\":1922:1923  0 */\n      0x00\n        /* \"@openzeppelin/contracts/access/Ownable.sol\":1895:1913  _transferOwnership */\n      tag_122\n        /* \"@openzeppelin/contracts/access/Ownable.sol\":1895:1925  _transferOwnership(address(0)) */\n      jump\t// in\n    tag_121:\n        /* \"@openzeppelin/contracts/access/Ownable.sol\":1831:1932  function renounceOwnership() public virtual onlyOwner {... */\n      jump\t// out\n        /* \"@openzeppelin/contracts/access/Ownable.sol\":1201:1286  function owner() public view virtual returns (address) {... */\n    tag_44:\n        /* \"@openzeppelin/contracts/access/Ownable.sol\":1247:1254  address */\n      0x00\n        /* \"@openzeppelin/contracts/access/Ownable.sol\":1273:1279  _owner */\n      dup1\n      0x00\n      swap1\n      sload\n      swap1\n      0x0100\n      exp\n      swap1\n      div\n      0xffffffffffffffffffffffffffffffffffffffff\n      and\n        /* \"@openzeppelin/contracts/access/Ownable.sol\":1266:1279  return _owner */\n      swap1\n      pop\n        /* \"@openzeppelin/contracts/access/Ownable.sol\":1201:1286  function owner() public view virtual returns (address) {... */\n      swap1\n      jump\t// out\n        /* \"contracts/ExchangeAggregator.sol\":418:437  address public WETH */\n    tag_49:\n      0x01\n      0x00\n      swap1\n      sload\n      swap1\n      0x0100\n      exp\n      swap1\n      div\n      0xffffffffffffffffffffffffffffffffffffffff\n      and\n      dup2\n      jump\t// out\n        /* \"contracts/ExchangeAggregator.sol\":2239:2384  function signer(swapData calldata data, bytes memory sig) public pure returns(address){... */\n    tag_55:\n        /* \"contracts/ExchangeAggregator.sol\":2317:2324  address */\n      0x00\n        /* \"contracts/ExchangeAggregator.sol\":2342:2377  hash(abi.encode(data)).recover(sig) */\n      tag_125\n        /* \"contracts/ExchangeAggregator.sol\":2373:2376  sig */\n      dup3\n        /* \"contracts/ExchangeAggregator.sol\":2342:2364  hash(abi.encode(data)) */\n      tag_126\n        /* \"contracts/ExchangeAggregator.sol\":2358:2362  data */\n      dup6\n        /* \"contracts/ExchangeAggregator.sol\":2347:2363  abi.encode(data) */\n      add(0x20, mload(0x40))\n      tag_127\n      swap2\n      swap1\n      tag_84\n      jump\t// in\n    tag_127:\n      mload(0x40)\n      0x20\n      dup2\n      dup4\n      sub\n      sub\n      dup2\n      mstore\n      swap1\n      0x40\n      mstore\n        /* \"contracts/ExchangeAggregator.sol\":2342:2346  hash */\n      tag_128\n        /* \"contracts/ExchangeAggregator.sol\":2342:2364  hash(abi.encode(data)) */\n      jump\t// in\n    tag_126:\n        /* \"contracts/ExchangeAggregator.sol\":2342:2372  hash(abi.encode(data)).recover */\n      tag_129\n      swap1\n        /* \"contracts/ExchangeAggregator.sol\":2342:2377  hash(abi.encode(data)).recover(sig) */\n      swap2\n      swap1\n      0xffffffff\n      and\n      jump\t// in\n    tag_125:\n        /* \"contracts/ExchangeAggregator.sol\":2335:2377  return hash(abi.encode(data)).recover(sig) */\n      swap1\n      pop\n        /* \"contracts/ExchangeAggregator.sol\":2239:2384  function signer(swapData calldata data, bytes memory sig) public pure returns(address){... */\n      swap3\n      swap2\n      pop\n      pop\n      jump\t// out\n        /* \"contracts/ExchangeAggregator.sol\":1614:1706  function balanceETH() public view returns(uint){... */\n    tag_59:\n        /* \"contracts/ExchangeAggregator.sol\":1656:1660  uint */\n      0x00\n        /* \"contracts/ExchangeAggregator.sol\":1678:1699  address(this).balance */\n      selfbalance\n        /* \"contracts/ExchangeAggregator.sol\":1671:1699  return address(this).balance */\n      swap1\n      pop\n        /* \"contracts/ExchangeAggregator.sol\":1614:1706  function balanceETH() public view returns(uint){... */\n      swap1\n      jump\t// out\n        /* \"@openzeppelin/contracts/access/Ownable.sol\":2081:2279  function transferOwnership(address newOwner) public virtual onlyOwner {... */\n    tag_64:\n        /* \"@openzeppelin/contracts/access/Ownable.sol\":1094:1107  _checkOwner() */\n      tag_132\n        /* \"@openzeppelin/contracts/access/Ownable.sol\":1094:1105  _checkOwner */\n      tag_67\n        /* \"@openzeppelin/contracts/access/Ownable.sol\":1094:1107  _checkOwner() */\n      jump\t// in\n    tag_132:\n        /* \"@openzeppelin/contracts/access/Ownable.sol\":2189:2190  0 */\n      0x00\n        /* \"@openzeppelin/contracts/access/Ownable.sol\":2169:2191  newOwner != address(0) */\n      0xffffffffffffffffffffffffffffffffffffffff\n      and\n        /* \"@openzeppelin/contracts/access/Ownable.sol\":2169:2177  newOwner */\n      dup2\n        /* \"@openzeppelin/contracts/access/Ownable.sol\":2169:2191  newOwner != address(0) */\n      0xffffffffffffffffffffffffffffffffffffffff\n      and\n      sub\n        /* \"@openzeppelin/contracts/access/Ownable.sol\":2161:2234  require(newOwner != address(0), \"Ownable: new owner is the zero address\") */\n      tag_134\n      jumpi\n      mload(0x40)\n      0x08c379a000000000000000000000000000000000000000000000000000000000\n      dup2\n      mstore\n      0x04\n      add\n      tag_135\n      swap1\n      tag_136\n      jump\t// in\n    tag_135:\n      mload(0x40)\n      dup1\n      swap2\n      sub\n      swap1\n      revert\n    tag_134:\n        /* \"@openzeppelin/contracts/access/Ownable.sol\":2244:2272  _transferOwnership(newOwner) */\n      tag_137\n        /* \"@openzeppelin/contracts/access/Ownable.sol\":2263:2271  newOwner */\n      dup2\n        /* \"@openzeppelin/contracts/access/Ownable.sol\":2244:2262  _transferOwnership */\n      tag_122\n        /* \"@openzeppelin/contracts/access/Ownable.sol\":2244:2272  _transferOwnership(newOwner) */\n      jump\t// in\n    tag_137:\n        /* \"@openzeppelin/contracts/access/Ownable.sol\":2081:2279  function transferOwnership(address newOwner) public virtual onlyOwner {... */\n      pop\n      jump\t// out\n        /* \"@openzeppelin/contracts/access/Ownable.sol\":1359:1489  function _checkOwner() internal view virtual {... */\n    tag_67:\n        /* \"@openzeppelin/contracts/access/Ownable.sol\":1433:1445  _msgSender() */\n      tag_139\n        /* \"@openzeppelin/contracts/access/Ownable.sol\":1433:1443  _msgSender */\n      tag_140\n        /* \"@openzeppelin/contracts/access/Ownable.sol\":1433:1445  _msgSender() */\n      jump\t// in\n    tag_139:\n        /* \"@openzeppelin/contracts/access/Ownable.sol\":1422:1445  owner() == _msgSender() */\n      0xffffffffffffffffffffffffffffffffffffffff\n      and\n        /* \"@openzeppelin/contracts/access/Ownable.sol\":1422:1429  owner() */\n      tag_141\n        /* \"@openzeppelin/contracts/access/Ownable.sol\":1422:1427  owner */\n      tag_44\n        /* \"@openzeppelin/contracts/access/Ownable.sol\":1422:1429  owner() */\n      jump\t// in\n    tag_141:\n        /* \"@openzeppelin/contracts/access/Ownable.sol\":1422:1445  owner() == _msgSender() */\n      0xffffffffffffffffffffffffffffffffffffffff\n      and\n      eq\n        /* \"@openzeppelin/contracts/access/Ownable.sol\":1414:1482  require(owner() == _msgSender(), \"Ownable: caller is not the owner\") */\n      tag_142\n      jumpi\n      mload(0x40)\n      0x08c379a000000000000000000000000000000000000000000000000000000000\n      dup2\n      mstore\n      0x04\n      add\n      tag_143\n      swap1\n      tag_144\n      jump\t// in\n    tag_143:\n      mload(0x40)\n      dup1\n      swap2\n      sub\n      swap1\n      revert\n    tag_142:\n        /* \"@openzeppelin/contracts/access/Ownable.sol\":1359:1489  function _checkOwner() internal view virtual {... */\n      jump\t// out\n        /* \"contracts/libraries/transferHelper.sol\":655:1095  function safeTransfer(... */\n    tag_70:\n        /* \"contracts/libraries/transferHelper.sol\":835:847  bool success */\n      0x00\n        /* \"contracts/libraries/transferHelper.sol\":849:866  bytes memory data */\n      dup1\n        /* \"contracts/libraries/transferHelper.sol\":870:875  token */\n      dup5\n        /* \"contracts/libraries/transferHelper.sol\":870:880  token.call */\n      0xffffffffffffffffffffffffffffffffffffffff\n      and\n        /* \"contracts/libraries/transferHelper.sol\":904:914  0xa9059cbb */\n      0xa9059cbb\n        /* \"contracts/libraries/transferHelper.sol\":916:918  to */\n      dup6\n        /* \"contracts/libraries/transferHelper.sol\":920:925  value */\n      dup6\n        /* \"contracts/libraries/transferHelper.sol\":881:926  abi.encodeWithSelector(0xa9059cbb, to, value) */\n      add(0x24, mload(0x40))\n      tag_146\n      swap3\n      swap2\n      swap1\n      tag_147\n      jump\t// in\n    tag_146:\n      mload(0x40)\n      0x20\n      dup2\n      dup4\n      sub\n      sub\n      dup2\n      mstore\n      swap1\n      0x40\n      mstore\n      swap1\n      0xe0\n      shl\n      0x20\n      dup3\n      add\n      dup1\n      mload\n      0xffffffffffffffffffffffffffffffffffffffffffffffffffffffff\n      dup4\n      dup2\n      dup4\n      and\n      or\n      dup4\n      mstore\n      pop\n      pop\n      pop\n      pop\n        /* \"contracts/libraries/transferHelper.sol\":870:927  token.call(abi.encodeWithSelector(0xa9059cbb, to, value)) */\n      mload(0x40)\n      tag_148\n      swap2\n      swap1\n      tag_149\n      jump\t// in\n    tag_148:\n      0x00\n      mload(0x40)\n      dup1\n      dup4\n      sub\n      dup2\n      0x00\n      dup7\n      gas\n      call\n      swap2\n      pop\n      pop\n      returndatasize\n      dup1\n      0x00\n      dup2\n      eq\n      tag_152\n      jumpi\n      mload(0x40)\n      swap2\n      pop\n      and(add(returndatasize, 0x3f), not(0x1f))\n      dup3\n      add\n      0x40\n      mstore\n      returndatasize\n      dup3\n      mstore\n      returndatasize\n      0x00\n      0x20\n      dup5\n      add\n      returndatacopy\n      jump(tag_151)\n    tag_152:\n      0x60\n      swap2\n      pop\n    tag_151:\n      pop\n        /* \"contracts/libraries/transferHelper.sol\":834:927  (bool success, bytes memory data) = token.call(abi.encodeWithSelector(0xa9059cbb, to, value)) */\n      swap2\n      pop\n      swap2\n      pop\n        /* \"contracts/libraries/transferHelper.sol\":958:965  success */\n      dup2\n        /* \"contracts/libraries/transferHelper.sol\":958:1015  success && (data.length == 0 || abi.decode(data, (bool))) */\n      dup1\n      iszero\n      tag_153\n      jumpi\n      pop\n        /* \"contracts/libraries/transferHelper.sol\":985:986  0 */\n      0x00\n        /* \"contracts/libraries/transferHelper.sol\":970:974  data */\n      dup2\n        /* \"contracts/libraries/transferHelper.sol\":970:981  data.length */\n      mload\n        /* \"contracts/libraries/transferHelper.sol\":970:986  data.length == 0 */\n      eq\n        /* \"contracts/libraries/transferHelper.sol\":970:1014  data.length == 0 || abi.decode(data, (bool)) */\n      dup1\n      tag_154\n      jumpi\n      pop\n        /* \"contracts/libraries/transferHelper.sol\":1001:1005  data */\n      dup1\n        /* \"contracts/libraries/transferHelper.sol\":990:1014  abi.decode(data, (bool)) */\n      dup1\n      0x20\n      add\n      swap1\n      mload\n      dup2\n      add\n      swap1\n      tag_155\n      swap2\n      swap1\n      tag_156\n      jump\t// in\n    tag_155:\n        /* \"contracts/libraries/transferHelper.sol\":970:1014  data.length == 0 || abi.decode(data, (bool)) */\n    tag_154:\n        /* \"contracts/libraries/transferHelper.sol\":958:1015  success && (data.length == 0 || abi.decode(data, (bool))) */\n    tag_153:\n        /* \"contracts/libraries/transferHelper.sol\":937:1088  require(... */\n      tag_157\n      jumpi\n      mload(0x40)\n      0x08c379a000000000000000000000000000000000000000000000000000000000\n      dup2\n      mstore\n      0x04\n      add\n      tag_158\n      swap1\n      tag_159\n      jump\t// in\n    tag_158:\n      mload(0x40)\n      dup1\n      swap2\n      sub\n      swap1\n      revert\n    tag_157:\n        /* \"contracts/libraries/transferHelper.sol\":758:1095  {... */\n      pop\n      pop\n        /* \"contracts/libraries/transferHelper.sol\":655:1095  function safeTransfer(... */\n      pop\n      pop\n      pop\n      jump\t// out\n        /* \"contracts/ExchangeAggregator.sol\":1984:2233  function checkSig(bytes memory data, bytes memory sig) private view {... */\n    tag_85:\n        /* \"contracts/ExchangeAggregator.sol\":2072:2076  0x1b */\n      0x1b\n        /* \"contracts/ExchangeAggregator.sol\":2062:2076  sig[64] = 0x1b */\n      0xf8\n      shl\n        /* \"contracts/ExchangeAggregator.sol\":2062:2065  sig */\n      dup2\n        /* \"contracts/ExchangeAggregator.sol\":2066:2068  64 */\n      0x40\n        /* \"contracts/ExchangeAggregator.sol\":2062:2069  sig[64] */\n      dup2\n      mload\n      dup2\n      lt\n      tag_161\n      jumpi\n      tag_162\n      tag_163\n      jump\t// in\n    tag_162:\n    tag_161:\n      0x20\n      add\n      add\n        /* \"contracts/ExchangeAggregator.sol\":2062:2076  sig[64] = 0x1b */\n      swap1\n      not(0xffffffffffffffffffffffffffffffffffffffffffffffffffffffffffffff)\n      and\n      swap1\n      dup2\n      0x00\n      byte\n      swap1\n      mstore8\n      pop\n        /* \"contracts/ExchangeAggregator.sol\":2117:2124  owner() */\n      tag_164\n        /* \"contracts/ExchangeAggregator.sol\":2117:2122  owner */\n      tag_44\n        /* \"contracts/ExchangeAggregator.sol\":2117:2124  owner() */\n      jump\t// in\n    tag_164:\n        /* \"contracts/ExchangeAggregator.sol\":2090:2124  hash(data).recover(sig) == owner() */\n      0xffffffffffffffffffffffffffffffffffffffff\n      and\n        /* \"contracts/ExchangeAggregator.sol\":2090:2113  hash(data).recover(sig) */\n      tag_165\n        /* \"contracts/ExchangeAggregator.sol\":2109:2112  sig */\n      dup3\n        /* \"contracts/ExchangeAggregator.sol\":2090:2100  hash(data) */\n      tag_166\n        /* \"contracts/ExchangeAggregator.sol\":2095:2099  data */\n      dup6\n        /* \"contracts/ExchangeAggregator.sol\":2090:2094  hash */\n      tag_128\n        /* \"contracts/ExchangeAggregator.sol\":2090:2100  hash(data) */\n      jump\t// in\n    tag_166:\n        /* \"contracts/ExchangeAggregator.sol\":2090:2108  hash(data).recover */\n      tag_129\n      swap1\n        /* \"contracts/ExchangeAggregator.sol\":2090:2113  hash(data).recover(sig) */\n      swap2\n      swap1\n      0xffffffff\n      and\n      jump\t// in\n    tag_165:\n        /* \"contracts/ExchangeAggregator.sol\":2090:2124  hash(data).recover(sig) == owner() */\n      0xffffffffffffffffffffffffffffffffffffffff\n      and\n      sub\n        /* \"contracts/ExchangeAggregator.sol\":2086:2134  if (hash(data).recover(sig) == owner()) return ; */\n      iszero\n        /* \"contracts/ExchangeAggregator.sol\":2126:2134  return ; */\n      tag_160\n        /* \"contracts/ExchangeAggregator.sol\":2086:2134  if (hash(data).recover(sig) == owner()) return ; */\n      jumpi\n        /* \"contracts/ExchangeAggregator.sol\":2153:2157  0x1c */\n      0x1c\n        /* \"contracts/ExchangeAggregator.sol\":2143:2157  sig[64] = 0x1c */\n      0xf8\n      shl\n        /* \"contracts/ExchangeAggregator.sol\":2143:2146  sig */\n      dup2\n        /* \"contracts/ExchangeAggregator.sol\":2147:2149  64 */\n      0x40\n        /* \"contracts/ExchangeAggregator.sol\":2143:2150  sig[64] */\n      dup2\n      mload\n      dup2\n      lt\n      tag_168\n      jumpi\n      tag_169\n      tag_163\n      jump\t// in\n    tag_169:\n    tag_168:\n      0x20\n      add\n      add\n        /* \"contracts/ExchangeAggregator.sol\":2143:2157  sig[64] = 0x1c */\n      swap1\n      not(0xffffffffffffffffffffffffffffffffffffffffffffffffffffffffffffff)\n      and\n      swap1\n      dup2\n      0x00\n      byte\n      swap1\n      mstore8\n      pop\n        /* \"contracts/ExchangeAggregator.sol\":2202:2209  owner() */\n      tag_170\n        /* \"contracts/ExchangeAggregator.sol\":2202:2207  owner */\n      tag_44\n        /* \"contracts/ExchangeAggregator.sol\":2202:2209  owner() */\n      jump\t// in\n    tag_170:\n        /* \"contracts/ExchangeAggregator.sol\":2175:2209  hash(data).recover(sig) == owner() */\n      0xffffffffffffffffffffffffffffffffffffffff\n      and\n        /* \"contracts/ExchangeAggregator.sol\":2175:2198  hash(data).recover(sig) */\n      tag_171\n        /* \"contracts/ExchangeAggregator.sol\":2194:2197  sig */\n      dup3\n        /* \"contracts/ExchangeAggregator.sol\":2175:2185  hash(data) */\n      tag_172\n        /* \"contracts/ExchangeAggregator.sol\":2180:2184  data */\n      dup6\n        /* \"contracts/ExchangeAggregator.sol\":2175:2179  hash */\n      tag_128\n        /* \"contracts/ExchangeAggregator.sol\":2175:2185  hash(data) */\n      jump\t// in\n    tag_172:\n        /* \"contracts/ExchangeAggregator.sol\":2175:2193  hash(data).recover */\n      tag_129\n      swap1\n        /* \"contracts/ExchangeAggregator.sol\":2175:2198  hash(data).recover(sig) */\n      swap2\n      swap1\n      0xffffffff\n      and\n      jump\t// in\n    tag_171:\n        /* \"contracts/ExchangeAggregator.sol\":2175:2209  hash(data).recover(sig) == owner() */\n      0xffffffffffffffffffffffffffffffffffffffff\n      and\n      eq\n        /* \"contracts/ExchangeAggregator.sol\":2167:2226  require(hash(data).recover(sig) == owner(),\"data tampered\") */\n      tag_173\n      jumpi\n      mload(0x40)\n      0x08c379a000000000000000000000000000000000000000000000000000000000\n      dup2\n      mstore\n      0x04\n      add\n      tag_174\n      swap1\n      tag_175\n      jump\t// in\n    tag_174:\n      mload(0x40)\n      dup1\n      swap2\n      sub\n      swap1\n      revert\n    tag_173:\n        /* \"contracts/ExchangeAggregator.sol\":1984:2233  function checkSig(bytes memory data, bytes memory sig) private view {... */\n    tag_160:\n      pop\n      pop\n      jump\t// out\n        /* \"contracts/libraries/transferHelper.sol\":1101:1589  function safeTransferFrom(... */\n    tag_88:\n        /* \"contracts/libraries/transferHelper.sol\":1319:1331  bool success */\n      0x00\n        /* \"contracts/libraries/transferHelper.sol\":1333:1350  bytes memory data */\n      dup1\n        /* \"contracts/libraries/transferHelper.sol\":1354:1359  token */\n      dup6\n        /* \"contracts/libraries/transferHelper.sol\":1354:1364  token.call */\n      0xffffffffffffffffffffffffffffffffffffffff\n      and\n        /* \"contracts/libraries/transferHelper.sol\":1388:1398  0x23b872dd */\n      0x23b872dd\n        /* \"contracts/libraries/transferHelper.sol\":1400:1404  from */\n      dup7\n        /* \"contracts/libraries/transferHelper.sol\":1406:1408  to */\n      dup7\n        /* \"contracts/libraries/transferHelper.sol\":1410:1415  value */\n      dup7\n        /* \"contracts/libraries/transferHelper.sol\":1365:1416  abi.encodeWithSelector(0x23b872dd, from, to, value) */\n      add(0x24, mload(0x40))\n      tag_177\n      swap4\n      swap3\n      swap2\n      swap1\n      tag_178\n      jump\t// in\n    tag_177:\n      mload(0x40)\n      0x20\n      dup2\n      dup4\n      sub\n      sub\n      dup2\n      mstore\n      swap1\n      0x40\n      mstore\n      swap1\n      0xe0\n      shl\n      0x20\n      dup3\n      add\n      dup1\n      mload\n      0xffffffffffffffffffffffffffffffffffffffffffffffffffffffff\n      dup4\n      dup2\n      dup4\n      and\n      or\n      dup4\n      mstore\n      pop\n      pop\n      pop\n      pop\n        /* \"contracts/libraries/transferHelper.sol\":1354:1417  token.call(abi.encodeWithSelector(0x23b872dd, from, to, value)) */\n      mload(0x40)\n      tag_179\n      swap2\n      swap1\n      tag_149\n      jump\t// in\n    tag_179:\n      0x00\n      mload(0x40)\n      dup1\n      dup4\n      sub\n      dup2\n      0x00\n      dup7\n      gas\n      call\n      swap2\n      pop\n      pop\n      returndatasize\n      dup1\n      0x00\n      dup2\n      eq\n      tag_182\n      jumpi\n      mload(0x40)\n      swap2\n      pop\n      and(add(returndatasize, 0x3f), not(0x1f))\n      dup3\n      add\n      0x40\n      mstore\n      returndatasize\n      dup3\n      mstore\n      returndatasize\n      0x00\n      0x20\n      dup5\n      add\n      returndatacopy\n      jump(tag_181)\n    tag_182:\n      0x60\n      swap2\n      pop\n    tag_181:\n      pop\n        /* \"contracts/libraries/transferHelper.sol\":1318:1417  (bool success, bytes memory data) = token.call(abi.encodeWithSelector(0x23b872dd, from, to, value)) */\n      swap2\n      pop\n      swap2\n      pop\n        /* \"contracts/libraries/transferHelper.sol\":1448:1455  success */\n      dup2\n        /* \"contracts/libraries/transferHelper.sol\":1448:1505  success && (data.length == 0 || abi.decode(data, (bool))) */\n      dup1\n      iszero\n      tag_183\n      jumpi\n      pop\n        /* \"contracts/libraries/transferHelper.sol\":1475:1476  0 */\n      0x00\n        /* \"contracts/libraries/transferHelper.sol\":1460:1464  data */\n      dup2\n        /* \"contracts/libraries/transferHelper.sol\":1460:1471  data.length */\n      mload\n        /* \"contracts/libraries/transferHelper.sol\":1460:1476  data.length == 0 */\n      eq\n        /* \"contracts/libraries/transferHelper.sol\":1460:1504  data.length == 0 || abi.decode(data, (bool)) */\n      dup1\n      tag_184\n      jumpi\n      pop\n        /* \"contracts/libraries/transferHelper.sol\":1491:1495  data */\n      dup1\n        /* \"contracts/libraries/transferHelper.sol\":1480:1504  abi.decode(data, (bool)) */\n      dup1\n      0x20\n      add\n      swap1\n      mload\n      dup2\n      add\n      swap1\n      tag_185\n      swap2\n      swap1\n      tag_156\n      jump\t// in\n    tag_185:\n        /* \"contracts/libraries/transferHelper.sol\":1460:1504  data.length == 0 || abi.decode(data, (bool)) */\n    tag_184:\n        /* \"contracts/libraries/transferHelper.sol\":1448:1505  success && (data.length == 0 || abi.decode(data, (bool))) */\n    tag_183:\n        /* \"contracts/libraries/transferHelper.sol\":1427:1582  require(... */\n      tag_186\n      jumpi\n      mload(0x40)\n      0x08c379a000000000000000000000000000000000000000000000000000000000\n      dup2\n      mstore\n      0x04\n      add\n      tag_187\n      swap1\n      tag_188\n      jump\t// in\n    tag_187:\n      mload(0x40)\n      dup1\n      swap2\n      sub\n      swap1\n      revert\n    tag_186:\n        /* \"contracts/libraries/transferHelper.sol\":1230:1589  {... */\n      pop\n      pop\n        /* \"contracts/libraries/transferHelper.sol\":1101:1589  function safeTransferFrom(... */\n      pop\n      pop\n      pop\n      pop\n      jump\t// out\n        /* \"contracts/libraries/transferHelper.sol\":212:649  function safeApprove(... */\n    tag_94:\n        /* \"contracts/libraries/transferHelper.sol\":390:402  bool success */\n      0x00\n        /* \"contracts/libraries/transferHelper.sol\":404:421  bytes memory data */\n      dup1\n        /* \"contracts/libraries/transferHelper.sol\":425:430  token */\n      dup5\n        /* \"contracts/libraries/transferHelper.sol\":425:435  token.call */\n      0xffffffffffffffffffffffffffffffffffffffff\n      and\n        /* \"contracts/libraries/transferHelper.sol\":459:469  0x095ea7b3 */\n      0x095ea7b3\n        /* \"contracts/libraries/transferHelper.sol\":471:473  to */\n      dup6\n        /* \"contracts/libraries/transferHelper.sol\":475:480  value */\n      dup6\n        /* \"contracts/libraries/transferHelper.sol\":436:481  abi.encodeWithSelector(0x095ea7b3, to, value) */\n      add(0x24, mload(0x40))\n      tag_190\n      swap3\n      swap2\n      swap1\n      tag_147\n      jump\t// in\n    tag_190:\n      mload(0x40)\n      0x20\n      dup2\n      dup4\n      sub\n      sub\n      dup2\n      mstore\n      swap1\n      0x40\n      mstore\n      swap1\n      0xe0\n      shl\n      0x20\n      dup3\n      add\n      dup1\n      mload\n      0xffffffffffffffffffffffffffffffffffffffffffffffffffffffff\n      dup4\n      dup2\n      dup4\n      and\n      or\n      dup4\n      mstore\n      pop\n      pop\n      pop\n      pop\n        /* \"contracts/libraries/transferHelper.sol\":425:482  token.call(abi.encodeWithSelector(0x095ea7b3, to, value)) */\n      mload(0x40)\n      tag_191\n      swap2\n      swap1\n      tag_149\n      jump\t// in\n    tag_191:\n      0x00\n      mload(0x40)\n      dup1\n      dup4\n      sub\n      dup2\n      0x00\n      dup7\n      gas\n      call\n      swap2\n      pop\n      pop\n      returndatasize\n      dup1\n      0x00\n      dup2\n      eq\n      tag_194\n      jumpi\n      mload(0x40)\n      swap2\n      pop\n      and(add(returndatasize, 0x3f), not(0x1f))\n      dup3\n      add\n      0x40\n      mstore\n      returndatasize\n      dup3\n      mstore\n      returndatasize\n      0x00\n      0x20\n      dup5\n      add\n      returndatacopy\n      jump(tag_193)\n    tag_194:\n      0x60\n      swap2\n      pop\n    tag_193:\n      pop\n        /* \"contracts/libraries/transferHelper.sol\":389:482  (bool success, bytes memory data) = token.call(abi.encodeWithSelector(0x095ea7b3, to, value)) */\n      swap2\n      pop\n      swap2\n      pop\n        /* \"contracts/libraries/transferHelper.sol\":513:520  success */\n      dup2\n        /* \"contracts/libraries/transferHelper.sol\":513:570  success && (data.length == 0 || abi.decode(data, (bool))) */\n      dup1\n      iszero\n      tag_195\n      jumpi\n      pop\n        /* \"contracts/libraries/transferHelper.sol\":540:541  0 */\n      0x00\n        /* \"contracts/libraries/transferHelper.sol\":525:529  data */\n      dup2\n        /* \"contracts/libraries/transferHelper.sol\":525:536  data.length */\n      mload\n        /* \"contracts/libraries/transferHelper.sol\":525:541  data.length == 0 */\n      eq\n        /* \"contracts/libraries/transferHelper.sol\":525:569  data.length == 0 || abi.decode(data, (bool)) */\n      dup1\n      tag_196\n      jumpi\n      pop\n        /* \"contracts/libraries/transferHelper.sol\":556:560  data */\n      dup1\n        /* \"contracts/libraries/transferHelper.sol\":545:569  abi.decode(data, (bool)) */\n      dup1\n      0x20\n      add\n      swap1\n      mload\n      dup2\n      add\n      swap1\n      tag_197\n      swap2\n      swap1\n      tag_156\n      jump\t// in\n    tag_197:\n        /* \"contracts/libraries/transferHelper.sol\":525:569  data.length == 0 || abi.decode(data, (bool)) */\n    tag_196:\n        /* \"contracts/libraries/transferHelper.sol\":513:570  success && (data.length == 0 || abi.decode(data, (bool))) */\n    tag_195:\n        /* \"contracts/libraries/transferHelper.sol\":492:642  require(... */\n      tag_198\n      jumpi\n      mload(0x40)\n      0x08c379a000000000000000000000000000000000000000000000000000000000\n      dup2\n      mstore\n      0x04\n      add\n      tag_199\n      swap1\n      tag_200\n      jump\t// in\n    tag_199:\n      mload(0x40)\n      dup1\n      swap2\n      sub\n      swap1\n      revert\n    tag_198:\n        /* \"contracts/libraries/transferHelper.sol\":314:649  {... */\n      pop\n      pop\n        /* \"contracts/libraries/transferHelper.sol\":212:649  function safeApprove(... */\n      pop\n      pop\n      pop\n      jump\t// out\n        /* \"contracts/libraries/safeCaller.sol\":83:554  function safeCall(... */\n    tag_99:\n        /* \"contracts/libraries/safeCaller.sol\":201:213  bool succeed */\n      0x00\n        /* \"contracts/libraries/safeCaller.sol\":214:233  bytes memory result */\n      dup1\n        /* \"contracts/libraries/safeCaller.sol\":237:246  _contract */\n      dup5\n        /* \"contracts/libraries/safeCaller.sol\":237:251  _contract.call */\n      0xffffffffffffffffffffffffffffffffffffffff\n      and\n        /* \"contracts/libraries/safeCaller.sol\":259:264  value */\n      dup5\n        /* \"contracts/libraries/safeCaller.sol\":266:270  data */\n      dup5\n        /* \"contracts/libraries/safeCaller.sol\":237:271  _contract.call{value: value}(data) */\n      mload(0x40)\n      tag_202\n      swap2\n      swap1\n      tag_149\n      jump\t// in\n    tag_202:\n      0x00\n      mload(0x40)\n      dup1\n      dup4\n      sub\n      dup2\n      dup6\n      dup8\n      gas\n      call\n      swap3\n      pop\n      pop\n      pop\n      returndatasize\n      dup1\n      0x00\n      dup2\n      eq\n      tag_205\n      jumpi\n      mload(0x40)\n      swap2\n      pop\n      and(add(returndatasize, 0x3f), not(0x1f))\n      dup3\n      add\n      0x40\n      mstore\n      returndatasize\n      dup3\n      mstore\n      returndatasize\n      0x00\n      0x20\n      dup5\n      add\n      returndatacopy\n      jump(tag_204)\n    tag_205:\n      0x60\n      swap2\n      pop\n    tag_204:\n      pop\n        /* \"contracts/libraries/safeCaller.sol\":200:271  (bool succeed,bytes memory result) = _contract.call{value: value}(data) */\n      swap2\n      pop\n      swap2\n      pop\n        /* \"contracts/libraries/safeCaller.sol\":286:293  succeed */\n      dup2\n        /* \"contracts/libraries/safeCaller.sol\":281:548  if (!succeed) {... */\n      tag_206\n      jumpi\n        /* \"contracts/libraries/safeCaller.sol\":333:335  68 */\n      0x44\n        /* \"contracts/libraries/safeCaller.sol\":317:323  result */\n      dup2\n        /* \"contracts/libraries/safeCaller.sol\":317:330  result.length */\n      mload\n        /* \"contracts/libraries/safeCaller.sol\":317:335  result.length < 68 */\n      lt\n        /* \"contracts/libraries/safeCaller.sol\":313:386  if (result.length < 68) revert(\"ExchangeAggregator::SafeCaller:safeCall\") */\n      iszero\n      tag_207\n      jumpi\n        /* \"contracts/libraries/safeCaller.sol\":337:386  revert(\"ExchangeAggregator::SafeCaller:safeCall\") */\n      mload(0x40)\n      0x08c379a000000000000000000000000000000000000000000000000000000000\n      dup2\n      mstore\n      0x04\n      add\n      tag_208\n      swap1\n      tag_209\n      jump\t// in\n    tag_208:\n      mload(0x40)\n      dup1\n      swap2\n      sub\n      swap1\n      revert\n        /* \"contracts/libraries/safeCaller.sol\":313:386  if (result.length < 68) revert(\"ExchangeAggregator::SafeCaller:safeCall\") */\n    tag_207:\n        /* \"contracts/libraries/safeCaller.sol\":457:461  0x04 */\n      0x04\n        /* \"contracts/libraries/safeCaller.sol\":449:455  result */\n      dup2\n        /* \"contracts/libraries/safeCaller.sol\":445:462  add(result, 0x04) */\n      add\n        /* \"contracts/libraries/safeCaller.sol\":435:462  result := add(result, 0x04) */\n      swap1\n      pop\n        /* \"contracts/libraries/safeCaller.sol\":515:521  result */\n      dup1\n        /* \"contracts/libraries/safeCaller.sol\":504:532  abi.decode(result, (string)) */\n      dup1\n      0x20\n      add\n      swap1\n      mload\n      dup2\n      add\n      swap1\n      tag_210\n      swap2\n      swap1\n      tag_211\n      jump\t// in\n    tag_210:\n        /* \"contracts/libraries/safeCaller.sol\":497:533  revert(abi.decode(result, (string))) */\n      mload(0x40)\n      0x08c379a000000000000000000000000000000000000000000000000000000000\n      dup2\n      mstore\n      0x04\n      add\n      tag_212\n      swap2\n      swap1\n      tag_213\n      jump\t// in\n    tag_212:\n      mload(0x40)\n      dup1\n      swap2\n      sub\n      swap1\n      revert\n        /* \"contracts/libraries/safeCaller.sol\":281:548  if (!succeed) {... */\n    tag_206:\n        /* \"contracts/libraries/safeCaller.sol\":190:554  {... */\n      pop\n      pop\n        /* \"contracts/libraries/safeCaller.sol\":83:554  function safeCall(... */\n      pop\n      pop\n      pop\n      jump\t// out\n        /* \"contracts/libraries/transferHelper.sol\":1595:1807  function safeTransferETH(address to, uint256 value) internal {... */\n    tag_104:\n        /* \"contracts/libraries/transferHelper.sol\":1667:1679  bool success */\n      0x00\n        /* \"contracts/libraries/transferHelper.sol\":1685:1687  to */\n      dup3\n        /* \"contracts/libraries/transferHelper.sol\":1685:1692  to.call */\n      0xffffffffffffffffffffffffffffffffffffffff\n      and\n        /* \"contracts/libraries/transferHelper.sol\":1700:1705  value */\n      dup3\n        /* \"contracts/libraries/transferHelper.sol\":1717:1718  0 */\n      0x00\n        /* \"contracts/libraries/transferHelper.sol\":1707:1719  new bytes(0) */\n      0xffffffffffffffff\n      dup2\n      gt\n      iszero\n      tag_215\n      jumpi\n      tag_216\n      tag_217\n      jump\t// in\n    tag_216:\n    tag_215:\n      mload(0x40)\n      swap1\n      dup1\n      dup3\n      mstore\n      dup1\n      0x1f\n      add\n      not(0x1f)\n      and\n      0x20\n      add\n      dup3\n      add\n      0x40\n      mstore\n      dup1\n      iszero\n      tag_218\n      jumpi\n      dup2\n      0x20\n      add\n      0x01\n      dup3\n      mul\n      dup1\n      calldatasize\n      dup4\n      calldatacopy\n      dup1\n      dup3\n      add\n      swap2\n      pop\n      pop\n      swap1\n      pop\n    tag_218:\n      pop\n        /* \"contracts/libraries/transferHelper.sol\":1685:1720  to.call{value: value}(new bytes(0)) */\n      mload(0x40)\n      tag_219\n      swap2\n      swap1\n      tag_149\n      jump\t// in\n    tag_219:\n      0x00\n      mload(0x40)\n      dup1\n      dup4\n      sub\n      dup2\n      dup6\n      dup8\n      gas\n      call\n      swap3\n      pop\n      pop\n      pop\n      returndatasize\n      dup1\n      0x00\n      dup2\n      eq\n      tag_222\n      jumpi\n      mload(0x40)\n      swap2\n      pop\n      and(add(returndatasize, 0x3f), not(0x1f))\n      dup3\n      add\n      0x40\n      mstore\n      returndatasize\n      dup3\n      mstore\n      returndatasize\n      0x00\n      0x20\n      dup5\n      add\n      returndatacopy\n      jump(tag_221)\n    tag_222:\n      0x60\n      swap2\n      pop\n    tag_221:\n      pop\n        /* \"contracts/libraries/transferHelper.sol\":1666:1720  (bool success, ) = to.call{value: value}(new bytes(0)) */\n      pop\n      swap1\n      pop\n        /* \"contracts/libraries/transferHelper.sol\":1738:1745  success */\n      dup1\n        /* \"contracts/libraries/transferHelper.sol\":1730:1800  require(success, \"ExchangeAggregator::TransferHelper:safeTransferETH\") */\n      tag_223\n      jumpi\n      mload(0x40)\n      0x08c379a000000000000000000000000000000000000000000000000000000000\n      dup2\n      mstore\n      0x04\n      add\n      tag_224\n      swap1\n      tag_225\n      jump\t// in\n    tag_224:\n      mload(0x40)\n      dup1\n      swap2\n      sub\n      swap1\n      revert\n    tag_223:\n        /* \"contracts/libraries/transferHelper.sol\":1656:1807  {... */\n      pop\n        /* \"contracts/libraries/transferHelper.sol\":1595:1807  function safeTransferETH(address to, uint256 value) internal {... */\n      pop\n      pop\n      jump\t// out\n        /* \"@openzeppelin/contracts/access/Ownable.sol\":2433:2620  function _transferOwnership(address newOwner) internal virtual {... */\n    tag_122:\n        /* \"@openzeppelin/contracts/access/Ownable.sol\":2506:2522  address oldOwner */\n      0x00\n        /* \"@openzeppelin/contracts/access/Ownable.sol\":2525:2531  _owner */\n      dup1\n      0x00\n      swap1\n      sload\n      swap1\n      0x0100\n      exp\n      swap1\n      div\n      0xffffffffffffffffffffffffffffffffffffffff\n      and\n        /* \"@openzeppelin/contracts/access/Ownable.sol\":2506:2531  address oldOwner = _owner */\n      swap1\n      pop\n        /* \"@openzeppelin/contracts/access/Ownable.sol\":2550:2558  newOwner */\n      dup2\n        /* \"@openzeppelin/contracts/access/Ownable.sol\":2541:2547  _owner */\n      0x00\n      dup1\n        /* \"@openzeppelin/contracts/access/Ownable.sol\":2541:2558  _owner = newOwner */\n      0x0100\n      exp\n      dup2\n      sload\n      dup2\n      0xffffffffffffffffffffffffffffffffffffffff\n      mul\n      not\n      and\n      swap1\n      dup4\n      0xffffffffffffffffffffffffffffffffffffffff\n      and\n      mul\n      or\n      swap1\n      sstore\n      pop\n        /* \"@openzeppelin/contracts/access/Ownable.sol\":2604:2612  newOwner */\n      dup2\n        /* \"@openzeppelin/contracts/access/Ownable.sol\":2573:2613  OwnershipTransferred(oldOwner, newOwner) */\n      0xffffffffffffffffffffffffffffffffffffffff\n      and\n        /* \"@openzeppelin/contracts/access/Ownable.sol\":2594:2602  oldOwner */\n      dup2\n        /* \"@openzeppelin/contracts/access/Ownable.sol\":2573:2613  OwnershipTransferred(oldOwner, newOwner) */\n      0xffffffffffffffffffffffffffffffffffffffff\n      and\n      0x8be0079c531659141344cd1fd0a4f28419497f9722a3daafe3b4186f6b6457e0\n      mload(0x40)\n      mload(0x40)\n      dup1\n      swap2\n      sub\n      swap1\n      log3\n        /* \"@openzeppelin/contracts/access/Ownable.sol\":2496:2620  {... */\n      pop\n        /* \"@openzeppelin/contracts/access/Ownable.sol\":2433:2620  function _transferOwnership(address newOwner) internal virtual {... */\n      pop\n      jump\t// out\n        /* \"contracts/ExchangeAggregator.sol\":2390:2493  function hash(bytes memory data) private pure returns (bytes32) {... */\n    tag_128:\n        /* \"contracts/ExchangeAggregator.sol\":2445:2452  bytes32 */\n      0x00\n        /* \"contracts/ExchangeAggregator.sol\":2481:2485  data */\n      dup2\n        /* \"contracts/ExchangeAggregator.sol\":2471:2486  keccak256(data) */\n      dup1\n      mload\n      swap1\n      0x20\n      add\n      keccak256\n        /* \"contracts/ExchangeAggregator.sol\":2464:2486  return keccak256(data) */\n      swap1\n      pop\n        /* \"contracts/ExchangeAggregator.sol\":2390:2493  function hash(bytes memory data) private pure returns (bytes32) {... */\n      swap2\n      swap1\n      pop\n      jump\t// out\n        /* \"@openzeppelin/contracts/utils/cryptography/ECDSA.sol\":3661:3888  function recover(bytes32 hash, bytes memory signature) internal pure returns (address) {... */\n    tag_129:\n        /* \"@openzeppelin/contracts/utils/cryptography/ECDSA.sol\":3739:3746  address */\n      0x00\n        /* \"@openzeppelin/contracts/utils/cryptography/ECDSA.sol\":3759:3776  address recovered */\n      dup1\n        /* \"@openzeppelin/contracts/utils/cryptography/ECDSA.sol\":3778:3796  RecoverError error */\n      0x00\n        /* \"@openzeppelin/contracts/utils/cryptography/ECDSA.sol\":3800:3827  tryRecover(hash, signature) */\n      tag_229\n        /* \"@openzeppelin/contracts/utils/cryptography/ECDSA.sol\":3811:3815  hash */\n      dup6\n        /* \"@openzeppelin/contracts/utils/cryptography/ECDSA.sol\":3817:3826  signature */\n      dup6\n        /* \"@openzeppelin/contracts/utils/cryptography/ECDSA.sol\":3800:3810  tryRecover */\n      tag_230\n        /* \"@openzeppelin/contracts/utils/cryptography/ECDSA.sol\":3800:3827  tryRecover(hash, signature) */\n      jump\t// in\n    tag_229:\n        /* \"@openzeppelin/contracts/utils/cryptography/ECDSA.sol\":3758:3827  (address recovered, RecoverError error) = tryRecover(hash, signature) */\n      swap2\n      pop\n      swap2\n      pop\n        /* \"@openzeppelin/contracts/utils/cryptography/ECDSA.sol\":3837:3855  _throwError(error) */\n      tag_231\n        /* \"@openzeppelin/contracts/utils/cryptography/ECDSA.sol\":3849:3854  error */\n      dup2\n        /* \"@openzeppelin/contracts/utils/cryptography/ECDSA.sol\":3837:3848  _throwError */\n      tag_232\n        /* \"@openzeppelin/contracts/utils/cryptography/ECDSA.sol\":3837:3855  _throwError(error) */\n      jump\t// in\n    tag_231:\n        /* \"@openzeppelin/contracts/utils/cryptography/ECDSA.sol\":3872:3881  recovered */\n      dup2\n        /* \"@openzeppelin/contracts/utils/cryptography/ECDSA.sol\":3865:3881  return recovered */\n      swap3\n      pop\n      pop\n      pop\n        /* \"@openzeppelin/contracts/utils/cryptography/ECDSA.sol\":3661:3888  function recover(bytes32 hash, bytes memory signature) internal pure returns (address) {... */\n      swap3\n      swap2\n      pop\n      pop\n      jump\t// out\n        /* \"@openzeppelin/contracts/utils/Context.sol\":640:736  function _msgSender() internal view virtual returns (address) {... */\n    tag_140:\n        /* \"@openzeppelin/contracts/utils/Context.sol\":693:700  address */\n      0x00\n        /* \"@openzeppelin/contracts/utils/Context.sol\":719:729  msg.sender */\n      caller\n        /* \"@openzeppelin/contracts/utils/Context.sol\":712:729  return msg.sender */\n      swap1\n      pop\n        /* \"@openzeppelin/contracts/utils/Context.sol\":640:736  function _msgSender() internal view virtual returns (address) {... */\n      swap1\n      jump\t// out\n        /* \"@openzeppelin/contracts/utils/cryptography/ECDSA.sol\":2145:2875  function tryRecover(bytes32 hash, bytes memory signature) internal pure returns (address, RecoverError) {... */\n    tag_230:\n        /* \"@openzeppelin/contracts/utils/cryptography/ECDSA.sol\":2226:2233  address */\n      0x00\n        /* \"@openzeppelin/contracts/utils/cryptography/ECDSA.sol\":2235:2247  RecoverError */\n      dup1\n        /* \"@openzeppelin/contracts/utils/cryptography/ECDSA.sol\":2283:2285  65 */\n      0x41\n        /* \"@openzeppelin/contracts/utils/cryptography/ECDSA.sol\":2263:2272  signature */\n      dup4\n        /* \"@openzeppelin/contracts/utils/cryptography/ECDSA.sol\":2263:2279  signature.length */\n      mload\n        /* \"@openzeppelin/contracts/utils/cryptography/ECDSA.sol\":2263:2285  signature.length == 65 */\n      sub\n        /* \"@openzeppelin/contracts/utils/cryptography/ECDSA.sol\":2259:2869  if (signature.length == 65) {... */\n      tag_235\n      jumpi\n        /* \"@openzeppelin/contracts/utils/cryptography/ECDSA.sol\":2301:2310  bytes32 r */\n      0x00\n        /* \"@openzeppelin/contracts/utils/cryptography/ECDSA.sol\":2324:2333  bytes32 s */\n      dup1\n        /* \"@openzeppelin/contracts/utils/cryptography/ECDSA.sol\":2347:2354  uint8 v */\n      0x00\n        /* \"@openzeppelin/contracts/utils/cryptography/ECDSA.sol\":2599:2603  0x20 */\n      0x20\n        /* \"@openzeppelin/contracts/utils/cryptography/ECDSA.sol\":2588:2597  signature */\n      dup7\n        /* \"@openzeppelin/contracts/utils/cryptography/ECDSA.sol\":2584:2604  add(signature, 0x20) */\n      add\n        /* \"@openzeppelin/contracts/utils/cryptography/ECDSA.sol\":2578:2605  mload(add(signature, 0x20)) */\n      mload\n        /* \"@openzeppelin/contracts/utils/cryptography/ECDSA.sol\":2573:2605  r := mload(add(signature, 0x20)) */\n      swap3\n      pop\n        /* \"@openzeppelin/contracts/utils/cryptography/ECDSA.sol\":2648:2652  0x40 */\n      0x40\n        /* \"@openzeppelin/contracts/utils/cryptography/ECDSA.sol\":2637:2646  signature */\n      dup7\n        /* \"@openzeppelin/contracts/utils/cryptography/ECDSA.sol\":2633:2653  add(signature, 0x40) */\n      add\n        /* \"@openzeppelin/contracts/utils/cryptography/ECDSA.sol\":2627:2654  mload(add(signature, 0x40)) */\n      mload\n        /* \"@openzeppelin/contracts/utils/cryptography/ECDSA.sol\":2622:2654  s := mload(add(signature, 0x40)) */\n      swap2\n      pop\n        /* \"@openzeppelin/contracts/utils/cryptography/ECDSA.sol\":2705:2709  0x60 */\n      0x60\n        /* \"@openzeppelin/contracts/utils/cryptography/ECDSA.sol\":2694:2703  signature */\n      dup7\n        /* \"@openzeppelin/contracts/utils/cryptography/ECDSA.sol\":2690:2710  add(signature, 0x60) */\n      add\n        /* \"@openzeppelin/contracts/utils/cryptography/ECDSA.sol\":2684:2711  mload(add(signature, 0x60)) */\n      mload\n        /* \"@openzeppelin/contracts/utils/cryptography/ECDSA.sol\":2681:2682  0 */\n      0x00\n        /* \"@openzeppelin/contracts/utils/cryptography/ECDSA.sol\":2676:2712  byte(0, mload(add(signature, 0x60))) */\n      byte\n        /* \"@openzeppelin/contracts/utils/cryptography/ECDSA.sol\":2671:2712  v := byte(0, mload(add(signature, 0x60))) */\n      swap1\n      pop\n        /* \"@openzeppelin/contracts/utils/cryptography/ECDSA.sol\":2746:2771  tryRecover(hash, v, r, s) */\n      tag_236\n        /* \"@openzeppelin/contracts/utils/cryptography/ECDSA.sol\":2757:2761  hash */\n      dup8\n        /* \"@openzeppelin/contracts/utils/cryptography/ECDSA.sol\":2763:2764  v */\n      dup3\n        /* \"@openzeppelin/contracts/utils/cryptography/ECDSA.sol\":2766:2767  r */\n      dup6\n        /* \"@openzeppelin/contracts/utils/cryptography/ECDSA.sol\":2769:2770  s */\n      dup6\n        /* \"@openzeppelin/contracts/utils/cryptography/ECDSA.sol\":2746:2756  tryRecover */\n      tag_237\n        /* \"@openzeppelin/contracts/utils/cryptography/ECDSA.sol\":2746:2771  tryRecover(hash, v, r, s) */\n      jump\t// in\n    tag_236:\n        /* \"@openzeppelin/contracts/utils/cryptography/ECDSA.sol\":2739:2771  return tryRecover(hash, v, r, s) */\n      swap5\n      pop\n      swap5\n      pop\n      pop\n      pop\n      pop\n      jump(tag_234)\n        /* \"@openzeppelin/contracts/utils/cryptography/ECDSA.sol\":2259:2869  if (signature.length == 65) {... */\n    tag_235:\n        /* \"@openzeppelin/contracts/utils/cryptography/ECDSA.sol\":2818:2819  0 */\n      0x00\n        /* \"@openzeppelin/contracts/utils/cryptography/ECDSA.sol\":2822:2857  RecoverError.InvalidSignatureLength */\n      0x02\n        /* \"@openzeppelin/contracts/utils/cryptography/ECDSA.sol\":2802:2858  return (address(0), RecoverError.InvalidSignatureLength) */\n      swap2\n      pop\n      swap2\n      pop\n        /* \"@openzeppelin/contracts/utils/cryptography/ECDSA.sol\":2145:2875  function tryRecover(bytes32 hash, bytes memory signature) internal pure returns (address, RecoverError) {... */\n    tag_234:\n      swap3\n      pop\n      swap3\n      swap1\n      pop\n      jump\t// out\n        /* \"@openzeppelin/contracts/utils/cryptography/ECDSA.sol\":570:1081  function _throwError(RecoverError error) private pure {... */\n    tag_232:\n        /* \"@openzeppelin/contracts/utils/cryptography/ECDSA.sol\":647:667  RecoverError.NoError */\n      0x00\n        /* \"@openzeppelin/contracts/utils/cryptography/ECDSA.sol\":638:667  error == RecoverError.NoError */\n      0x04\n      dup2\n      gt\n      iszero\n      tag_240\n      jumpi\n      tag_241\n      tag_242\n      jump\t// in\n    tag_241:\n    tag_240:\n        /* \"@openzeppelin/contracts/utils/cryptography/ECDSA.sol\":638:643  error */\n      dup2\n        /* \"@openzeppelin/contracts/utils/cryptography/ECDSA.sol\":638:667  error == RecoverError.NoError */\n      0x04\n      dup2\n      gt\n      iszero\n      tag_243\n      jumpi\n      tag_244\n      tag_242\n      jump\t// in\n    tag_244:\n    tag_243:\n      sub\n        /* \"@openzeppelin/contracts/utils/cryptography/ECDSA.sol\":634:1075  if (error == RecoverError.NoError) {... */\n      iszero\n        /* \"@openzeppelin/contracts/utils/cryptography/ECDSA.sol\":683:690  return; */\n      tag_239\n        /* \"@openzeppelin/contracts/utils/cryptography/ECDSA.sol\":634:1075  if (error == RecoverError.NoError) {... */\n      jumpi\n        /* \"@openzeppelin/contracts/utils/cryptography/ECDSA.sol\":743:772  RecoverError.InvalidSignature */\n      0x01\n        /* \"@openzeppelin/contracts/utils/cryptography/ECDSA.sol\":734:772  error == RecoverError.InvalidSignature */\n      0x04\n      dup2\n      gt\n      iszero\n      tag_247\n      jumpi\n      tag_248\n      tag_242\n      jump\t// in\n    tag_248:\n    tag_247:\n        /* \"@openzeppelin/contracts/utils/cryptography/ECDSA.sol\":734:739  error */\n      dup2\n        /* \"@openzeppelin/contracts/utils/cryptography/ECDSA.sol\":734:772  error == RecoverError.InvalidSignature */\n      0x04\n      dup2\n      gt\n      iszero\n      tag_249\n      jumpi\n      tag_250\n      tag_242\n      jump\t// in\n    tag_250:\n    tag_249:\n      sub\n        /* \"@openzeppelin/contracts/utils/cryptography/ECDSA.sol\":730:1075  if (error == RecoverError.InvalidSignature) {... */\n      tag_251\n      jumpi\n        /* \"@openzeppelin/contracts/utils/cryptography/ECDSA.sol\":788:822  revert(\"ECDSA: invalid signature\") */\n      mload(0x40)\n      0x08c379a000000000000000000000000000000000000000000000000000000000\n      dup2\n      mstore\n      0x04\n      add\n      tag_252\n      swap1\n      tag_253\n      jump\t// in\n    tag_252:\n      mload(0x40)\n      dup1\n      swap2\n      sub\n      swap1\n      revert\n        /* \"@openzeppelin/contracts/utils/cryptography/ECDSA.sol\":730:1075  if (error == RecoverError.InvalidSignature) {... */\n    tag_251:\n        /* \"@openzeppelin/contracts/utils/cryptography/ECDSA.sol\":852:887  RecoverError.InvalidSignatureLength */\n      0x02\n        /* \"@openzeppelin/contracts/utils/cryptography/ECDSA.sol\":843:887  error == RecoverError.InvalidSignatureLength */\n      0x04\n      dup2\n      gt\n      iszero\n      tag_255\n      jumpi\n      tag_256\n      tag_242\n      jump\t// in\n    tag_256:\n    tag_255:\n        /* \"@openzeppelin/contracts/utils/cryptography/ECDSA.sol\":843:848  error */\n      dup2\n        /* \"@openzeppelin/contracts/utils/cryptography/ECDSA.sol\":843:887  error == RecoverError.InvalidSignatureLength */\n      0x04\n      dup2\n      gt\n      iszero\n      tag_257\n      jumpi\n      tag_258\n      tag_242\n      jump\t// in\n    tag_258:\n    tag_257:\n      sub\n        /* \"@openzeppelin/contracts/utils/cryptography/ECDSA.sol\":839:1075  if (error == RecoverError.InvalidSignatureLength) {... */\n      tag_259\n      jumpi\n        /* \"@openzeppelin/contracts/utils/cryptography/ECDSA.sol\":903:944  revert(\"ECDSA: invalid signature length\") */\n      mload(0x40)\n      0x08c379a000000000000000000000000000000000000000000000000000000000\n      dup2\n      mstore\n      0x04\n      add\n      tag_260\n      swap1\n      tag_261\n      jump\t// in\n    tag_260:\n      mload(0x40)\n      dup1\n      swap2\n      sub\n      swap1\n      revert\n        /* \"@openzeppelin/contracts/utils/cryptography/ECDSA.sol\":839:1075  if (error == RecoverError.InvalidSignatureLength) {... */\n    tag_259:\n        /* \"@openzeppelin/contracts/utils/cryptography/ECDSA.sol\":974:1004  RecoverError.InvalidSignatureS */\n      0x03\n        /* \"@openzeppelin/contracts/utils/cryptography/ECDSA.sol\":965:1004  error == RecoverError.InvalidSignatureS */\n      0x04\n      dup2\n      gt\n      iszero\n      tag_263\n      jumpi\n      tag_264\n      tag_242\n      jump\t// in\n    tag_264:\n    tag_263:\n        /* \"@openzeppelin/contracts/utils/cryptography/ECDSA.sol\":965:970  error */\n      dup2\n        /* \"@openzeppelin/contracts/utils/cryptography/ECDSA.sol\":965:1004  error == RecoverError.InvalidSignatureS */\n      0x04\n      dup2\n      gt\n      iszero\n      tag_265\n      jumpi\n      tag_266\n      tag_242\n      jump\t// in\n    tag_266:\n    tag_265:\n      sub\n        /* \"@openzeppelin/contracts/utils/cryptography/ECDSA.sol\":961:1075  if (error == RecoverError.InvalidSignatureS) {... */\n      tag_267\n      jumpi\n        /* \"@openzeppelin/contracts/utils/cryptography/ECDSA.sol\":1020:1064  revert(\"ECDSA: invalid signature 's' value\") */\n      mload(0x40)\n      0x08c379a000000000000000000000000000000000000000000000000000000000\n      dup2\n      mstore\n      0x04\n      add\n      tag_268\n      swap1\n      tag_269\n      jump\t// in\n    tag_268:\n      mload(0x40)\n      dup1\n      swap2\n      sub\n      swap1\n      revert\n        /* \"@openzeppelin/contracts/utils/cryptography/ECDSA.sol\":961:1075  if (error == RecoverError.InvalidSignatureS) {... */\n    tag_267:\n        /* \"@openzeppelin/contracts/utils/cryptography/ECDSA.sol\":570:1081  function _throwError(RecoverError error) private pure {... */\n    tag_239:\n      pop\n      jump\t// out\n        /* \"@openzeppelin/contracts/utils/cryptography/ECDSA.sol\":5069:6563  function tryRecover(... */\n    tag_237:\n        /* \"@openzeppelin/contracts/utils/cryptography/ECDSA.sol\":5195:5202  address */\n      0x00\n        /* \"@openzeppelin/contracts/utils/cryptography/ECDSA.sol\":5204:5216  RecoverError */\n      dup1\n        /* \"@openzeppelin/contracts/utils/cryptography/ECDSA.sol\":6119:6185  0x7FFFFFFFFFFFFFFFFFFFFFFFFFFFFFFF5D576E7357A4501DDFE92F46681B20A0 */\n      0x7fffffffffffffffffffffffffffffff5d576e7357a4501ddfe92f46681b20a0\n        /* \"@openzeppelin/contracts/utils/cryptography/ECDSA.sol\":6114:6115  s */\n      dup4\n        /* \"@openzeppelin/contracts/utils/cryptography/ECDSA.sol\":6106:6116  uint256(s) */\n      0x00\n      shr\n        /* \"@openzeppelin/contracts/utils/cryptography/ECDSA.sol\":6106:6185  uint256(s) > 0x7FFFFFFFFFFFFFFFFFFFFFFFFFFFFFFF5D576E7357A4501DDFE92F46681B20A0 */\n      gt\n        /* \"@openzeppelin/contracts/utils/cryptography/ECDSA.sol\":6102:6263  if (uint256(s) > 0x7FFFFFFFFFFFFFFFFFFFFFFFFFFFFFFF5D576E7357A4501DDFE92F46681B20A0) {... */\n      iszero\n      tag_271\n      jumpi\n        /* \"@openzeppelin/contracts/utils/cryptography/ECDSA.sol\":6217:6218  0 */\n      0x00\n        /* \"@openzeppelin/contracts/utils/cryptography/ECDSA.sol\":6221:6251  RecoverError.InvalidSignatureS */\n      0x03\n        /* \"@openzeppelin/contracts/utils/cryptography/ECDSA.sol\":6201:6252  return (address(0), RecoverError.InvalidSignatureS) */\n      swap2\n      pop\n      swap2\n      pop\n      jump(tag_270)\n        /* \"@openzeppelin/contracts/utils/cryptography/ECDSA.sol\":6102:6263  if (uint256(s) > 0x7FFFFFFFFFFFFFFFFFFFFFFFFFFFFFFF5D576E7357A4501DDFE92F46681B20A0) {... */\n    tag_271:\n        /* \"@openzeppelin/contracts/utils/cryptography/ECDSA.sol\":6357:6371  address signer */\n      0x00\n        /* \"@openzeppelin/contracts/utils/cryptography/ECDSA.sol\":6374:6398  ecrecover(hash, v, r, s) */\n      0x01\n        /* \"@openzeppelin/contracts/utils/cryptography/ECDSA.sol\":6384:6388  hash */\n      dup8\n        /* \"@openzeppelin/contracts/utils/cryptography/ECDSA.sol\":6390:6391  v */\n      dup8\n        /* \"@openzeppelin/contracts/utils/cryptography/ECDSA.sol\":6393:6394  r */\n      dup8\n        /* \"@openzeppelin/contracts/utils/cryptography/ECDSA.sol\":6396:6397  s */\n      dup8\n        /* \"@openzeppelin/contracts/utils/cryptography/ECDSA.sol\":6374:6398  ecrecover(hash, v, r, s) */\n      mload(0x40)\n      0x00\n      dup2\n      mstore\n      0x20\n      add\n      0x40\n      mstore\n      mload(0x40)\n      tag_272\n      swap5\n      swap4\n      swap3\n      swap2\n      swap1\n      tag_273\n      jump\t// in\n    tag_272:\n      0x20\n      mload(0x40)\n      0x20\n      dup2\n      sub\n      swap1\n      dup1\n      dup5\n      sub\n      swap1\n      dup6\n      gas\n      staticcall\n      iszero\n      dup1\n      iszero\n      tag_275\n      jumpi\n      returndatasize\n      0x00\n      dup1\n      returndatacopy\n      revert(0x00, returndatasize)\n    tag_275:\n      pop\n      pop\n      pop\n      mload(sub(mload(0x40), 0x20))\n        /* \"@openzeppelin/contracts/utils/cryptography/ECDSA.sol\":6357:6398  address signer = ecrecover(hash, v, r, s) */\n      swap1\n      pop\n        /* \"@openzeppelin/contracts/utils/cryptography/ECDSA.sol\":6430:6431  0 */\n      0x00\n        /* \"@openzeppelin/contracts/utils/cryptography/ECDSA.sol\":6412:6432  signer == address(0) */\n      0xffffffffffffffffffffffffffffffffffffffff\n      and\n        /* \"@openzeppelin/contracts/utils/cryptography/ECDSA.sol\":6412:6418  signer */\n      dup2\n        /* \"@openzeppelin/contracts/utils/cryptography/ECDSA.sol\":6412:6432  signer == address(0) */\n      0xffffffffffffffffffffffffffffffffffffffff\n      and\n      sub\n        /* \"@openzeppelin/contracts/utils/cryptography/ECDSA.sol\":6408:6509  if (signer == address(0)) {... */\n      tag_276\n      jumpi\n        /* \"@openzeppelin/contracts/utils/cryptography/ECDSA.sol\":6464:6465  0 */\n      0x00\n        /* \"@openzeppelin/contracts/utils/cryptography/ECDSA.sol\":6468:6497  RecoverError.InvalidSignature */\n      0x01\n        /* \"@openzeppelin/contracts/utils/cryptography/ECDSA.sol\":6448:6498  return (address(0), RecoverError.InvalidSignature) */\n      swap3\n      pop\n      swap3\n      pop\n      pop\n      jump(tag_270)\n        /* \"@openzeppelin/contracts/utils/cryptography/ECDSA.sol\":6408:6509  if (signer == address(0)) {... */\n    tag_276:\n        /* \"@openzeppelin/contracts/utils/cryptography/ECDSA.sol\":6527:6533  signer */\n      dup1\n        /* \"@openzeppelin/contracts/utils/cryptography/ECDSA.sol\":6535:6555  RecoverError.NoError */\n      0x00\n        /* \"@openzeppelin/contracts/utils/cryptography/ECDSA.sol\":6519:6556  return (signer, RecoverError.NoError) */\n      swap3\n      pop\n      swap3\n      pop\n      pop\n        /* \"@openzeppelin/contracts/utils/cryptography/ECDSA.sol\":5069:6563  function tryRecover(... */\n    tag_270:\n      swap5\n      pop\n      swap5\n      swap3\n      pop\n      pop\n      pop\n      jump\t// out\n        /* \"#utility.yul\":7:82   */\n    tag_277:\n        /* \"#utility.yul\":40:46   */\n      0x00\n        /* \"#utility.yul\":73:75   */\n      0x40\n        /* \"#utility.yul\":67:76   */\n      mload\n        /* \"#utility.yul\":57:76   */\n      swap1\n      pop\n        /* \"#utility.yul\":7:82   */\n      swap1\n      jump\t// out\n        /* \"#utility.yul\":88:205   */\n    tag_278:\n        /* \"#utility.yul\":197:198   */\n      0x00\n        /* \"#utility.yul\":194:195   */\n      dup1\n        /* \"#utility.yul\":187:199   */\n      revert\n        /* \"#utility.yul\":211:328   */\n    tag_279:\n        /* \"#utility.yul\":320:321   */\n      0x00\n        /* \"#utility.yul\":317:318   */\n      dup1\n        /* \"#utility.yul\":310:322   */\n      revert\n        /* \"#utility.yul\":334:460   */\n    tag_280:\n        /* \"#utility.yul\":371:378   */\n      0x00\n        /* \"#utility.yul\":411:453   */\n      0xffffffffffffffffffffffffffffffffffffffff\n        /* \"#utility.yul\":404:409   */\n      dup3\n        /* \"#utility.yul\":400:454   */\n      and\n        /* \"#utility.yul\":389:454   */\n      swap1\n      pop\n        /* \"#utility.yul\":334:460   */\n      swap2\n      swap1\n      pop\n      jump\t// out\n        /* \"#utility.yul\":466:562   */\n    tag_281:\n        /* \"#utility.yul\":503:510   */\n      0x00\n        /* \"#utility.yul\":532:556   */\n      tag_368\n        /* \"#utility.yul\":550:555   */\n      dup3\n        /* \"#utility.yul\":532:556   */\n      tag_280\n      jump\t// in\n    tag_368:\n        /* \"#utility.yul\":521:556   */\n      swap1\n      pop\n        /* \"#utility.yul\":466:562   */\n      swap2\n      swap1\n      pop\n      jump\t// out\n        /* \"#utility.yul\":568:690   */\n    tag_282:\n        /* \"#utility.yul\":641:665   */\n      tag_370\n        /* \"#utility.yul\":659:664   */\n      dup2\n        /* \"#utility.yul\":641:665   */\n      tag_281\n      jump\t// in\n    tag_370:\n        /* \"#utility.yul\":634:639   */\n      dup2\n        /* \"#utility.yul\":631:666   */\n      eq\n        /* \"#utility.yul\":621:684   */\n      tag_371\n      jumpi\n        /* \"#utility.yul\":680:681   */\n      0x00\n        /* \"#utility.yul\":677:678   */\n      dup1\n        /* \"#utility.yul\":670:682   */\n      revert\n        /* \"#utility.yul\":621:684   */\n    tag_371:\n        /* \"#utility.yul\":568:690   */\n      pop\n      jump\t// out\n        /* \"#utility.yul\":696:835   */\n    tag_283:\n        /* \"#utility.yul\":742:747   */\n      0x00\n        /* \"#utility.yul\":780:786   */\n      dup2\n        /* \"#utility.yul\":767:787   */\n      calldataload\n        /* \"#utility.yul\":758:787   */\n      swap1\n      pop\n        /* \"#utility.yul\":796:829   */\n      tag_373\n        /* \"#utility.yul\":823:828   */\n      dup2\n        /* \"#utility.yul\":796:829   */\n      tag_282\n      jump\t// in\n    tag_373:\n        /* \"#utility.yul\":696:835   */\n      swap3\n      swap2\n      pop\n      pop\n      jump\t// out\n        /* \"#utility.yul\":841:918   */\n    tag_284:\n        /* \"#utility.yul\":878:885   */\n      0x00\n        /* \"#utility.yul\":907:912   */\n      dup2\n        /* \"#utility.yul\":896:912   */\n      swap1\n      pop\n        /* \"#utility.yul\":841:918   */\n      swap2\n      swap1\n      pop\n      jump\t// out\n        /* \"#utility.yul\":924:1046   */\n    tag_285:\n        /* \"#utility.yul\":997:1021   */\n      tag_376\n        /* \"#utility.yul\":1015:1020   */\n      dup2\n        /* \"#utility.yul\":997:1021   */\n      tag_284\n      jump\t// in\n    tag_376:\n        /* \"#utility.yul\":990:995   */\n      dup2\n        /* \"#utility.yul\":987:1022   */\n      eq\n        /* \"#utility.yul\":977:1040   */\n      tag_377\n      jumpi\n        /* \"#utility.yul\":1036:1037   */\n      0x00\n        /* \"#utility.yul\":1033:1034   */\n      dup1\n        /* \"#utility.yul\":1026:1038   */\n      revert\n        /* \"#utility.yul\":977:1040   */\n    tag_377:\n        /* \"#utility.yul\":924:1046   */\n      pop\n      jump\t// out\n        /* \"#utility.yul\":1052:1191   */\n    tag_286:\n        /* \"#utility.yul\":1098:1103   */\n      0x00\n        /* \"#utility.yul\":1136:1142   */\n      dup2\n        /* \"#utility.yul\":1123:1143   */\n      calldataload\n        /* \"#utility.yul\":1114:1143   */\n      swap1\n      pop\n        /* \"#utility.yul\":1152:1185   */\n      tag_379\n        /* \"#utility.yul\":1179:1184   */\n      dup2\n        /* \"#utility.yul\":1152:1185   */\n      tag_285\n      jump\t// in\n    tag_379:\n        /* \"#utility.yul\":1052:1191   */\n      swap3\n      swap2\n      pop\n      pop\n      jump\t// out\n        /* \"#utility.yul\":1197:1816   */\n    tag_17:\n        /* \"#utility.yul\":1274:1280   */\n      0x00\n        /* \"#utility.yul\":1282:1288   */\n      dup1\n        /* \"#utility.yul\":1290:1296   */\n      0x00\n        /* \"#utility.yul\":1339:1341   */\n      0x60\n        /* \"#utility.yul\":1327:1336   */\n      dup5\n        /* \"#utility.yul\":1318:1325   */\n      dup7\n        /* \"#utility.yul\":1314:1337   */\n      sub\n        /* \"#utility.yul\":1310:1342   */\n      slt\n        /* \"#utility.yul\":1307:1426   */\n      iszero\n      tag_381\n      jumpi\n        /* \"#utility.yul\":1345:1424   */\n      tag_382\n      tag_278\n      jump\t// in\n    tag_382:\n        /* \"#utility.yul\":1307:1426   */\n    tag_381:\n        /* \"#utility.yul\":1465:1466   */\n      0x00\n        /* \"#utility.yul\":1490:1543   */\n      tag_383\n        /* \"#utility.yul\":1535:1542   */\n      dup7\n        /* \"#utility.yul\":1526:1532   */\n      dup3\n        /* \"#utility.yul\":1515:1524   */\n      dup8\n        /* \"#utility.yul\":1511:1533   */\n      add\n        /* \"#utility.yul\":1490:1543   */\n      tag_283\n      jump\t// in\n    tag_383:\n        /* \"#utility.yul\":1480:1543   */\n      swap4\n      pop\n        /* \"#utility.yul\":1436:1553   */\n      pop\n        /* \"#utility.yul\":1592:1594   */\n      0x20\n        /* \"#utility.yul\":1618:1671   */\n      tag_384\n        /* \"#utility.yul\":1663:1670   */\n      dup7\n        /* \"#utility.yul\":1654:1660   */\n      dup3\n        /* \"#utility.yul\":1643:1652   */\n      dup8\n        /* \"#utility.yul\":1639:1661   */\n      add\n        /* \"#utility.yul\":1618:1671   */\n      tag_283\n      jump\t// in\n    tag_384:\n        /* \"#utility.yul\":1608:1671   */\n      swap3\n      pop\n        /* \"#utility.yul\":1563:1681   */\n      pop\n        /* \"#utility.yul\":1720:1722   */\n      0x40\n        /* \"#utility.yul\":1746:1799   */\n      tag_385\n        /* \"#utility.yul\":1791:1798   */\n      dup7\n        /* \"#utility.yul\":1782:1788   */\n      dup3\n        /* \"#utility.yul\":1771:1780   */\n      dup8\n        /* \"#utility.yul\":1767:1789   */\n      add\n        /* \"#utility.yul\":1746:1799   */\n      tag_286\n      jump\t// in\n    tag_385:\n        /* \"#utility.yul\":1736:1799   */\n      swap2\n      pop\n        /* \"#utility.yul\":1691:1809   */\n      pop\n        /* \"#utility.yul\":1197:1816   */\n      swap3\n      pop\n      swap3\n      pop\n      swap3\n      jump\t// out\n        /* \"#utility.yul\":1822:2151   */\n    tag_22:\n        /* \"#utility.yul\":1881:1887   */\n      0x00\n        /* \"#utility.yul\":1930:1932   */\n      0x20\n        /* \"#utility.yul\":1918:1927   */\n      dup3\n        /* \"#utility.yul\":1909:1916   */\n      dup5\n        /* \"#utility.yul\":1905:1928   */\n      sub\n        /* \"#utility.yul\":1901:1933   */\n      slt\n        /* \"#utility.yul\":1898:2017   */\n      iszero\n      tag_387\n      jumpi\n        /* \"#utility.yul\":1936:2015   */\n      tag_388\n      tag_278\n      jump\t// in\n    tag_388:\n        /* \"#utility.yul\":1898:2017   */\n    tag_387:\n        /* \"#utility.yul\":2056:2057   */\n      0x00\n        /* \"#utility.yul\":2081:2134   */\n      tag_389\n        /* \"#utility.yul\":2126:2133   */\n      dup5\n        /* \"#utility.yul\":2117:2123   */\n      dup3\n        /* \"#utility.yul\":2106:2115   */\n      dup6\n        /* \"#utility.yul\":2102:2124   */\n      add\n        /* \"#utility.yul\":2081:2134   */\n      tag_283\n      jump\t// in\n    tag_389:\n        /* \"#utility.yul\":2071:2134   */\n      swap2\n      pop\n        /* \"#utility.yul\":2027:2144   */\n      pop\n        /* \"#utility.yul\":1822:2151   */\n      swap3\n      swap2\n      pop\n      pop\n      jump\t// out\n        /* \"#utility.yul\":2157:2275   */\n    tag_287:\n        /* \"#utility.yul\":2244:2268   */\n      tag_391\n        /* \"#utility.yul\":2262:2267   */\n      dup2\n        /* \"#utility.yul\":2244:2268   */\n      tag_284\n      jump\t// in\n    tag_391:\n        /* \"#utility.yul\":2239:2242   */\n      dup3\n        /* \"#utility.yul\":2232:2269   */\n      mstore\n        /* \"#utility.yul\":2157:2275   */\n      pop\n      pop\n      jump\t// out\n        /* \"#utility.yul\":2281:2503   */\n    tag_25:\n        /* \"#utility.yul\":2374:2378   */\n      0x00\n        /* \"#utility.yul\":2412:2414   */\n      0x20\n        /* \"#utility.yul\":2401:2410   */\n      dup3\n        /* \"#utility.yul\":2397:2415   */\n      add\n        /* \"#utility.yul\":2389:2415   */\n      swap1\n      pop\n        /* \"#utility.yul\":2425:2496   */\n      tag_393\n        /* \"#utility.yul\":2493:2494   */\n      0x00\n        /* \"#utility.yul\":2482:2491   */\n      dup4\n        /* \"#utility.yul\":2478:2495   */\n      add\n        /* \"#utility.yul\":2469:2475   */\n      dup5\n        /* \"#utility.yul\":2425:2496   */\n      tag_287\n      jump\t// in\n    tag_393:\n        /* \"#utility.yul\":2281:2503   */\n      swap3\n      swap2\n      pop\n      pop\n      jump\t// out\n        /* \"#utility.yul\":2509:2626   */\n    tag_288:\n        /* \"#utility.yul\":2618:2619   */\n      0x00\n        /* \"#utility.yul\":2615:2616   */\n      dup1\n        /* \"#utility.yul\":2608:2620   */\n      revert\n        /* \"#utility.yul\":2674:2907   */\n    tag_289:\n        /* \"#utility.yul\":2748:2753   */\n      0x00\n        /* \"#utility.yul\":2789:2792   */\n      0xc0\n        /* \"#utility.yul\":2780:2786   */\n      dup3\n        /* \"#utility.yul\":2775:2778   */\n      dup5\n        /* \"#utility.yul\":2771:2787   */\n      sub\n        /* \"#utility.yul\":2767:2793   */\n      slt\n        /* \"#utility.yul\":2764:2877   */\n      iszero\n      tag_396\n      jumpi\n        /* \"#utility.yul\":2796:2875   */\n      tag_397\n      tag_288\n      jump\t// in\n    tag_397:\n        /* \"#utility.yul\":2764:2877   */\n    tag_396:\n        /* \"#utility.yul\":2895:2901   */\n      dup2\n        /* \"#utility.yul\":2886:2901   */\n      swap1\n      pop\n        /* \"#utility.yul\":2674:2907   */\n      swap3\n      swap2\n      pop\n      pop\n      jump\t// out\n        /* \"#utility.yul\":2913:3030   */\n    tag_290:\n        /* \"#utility.yul\":3022:3023   */\n      0x00\n        /* \"#utility.yul\":3019:3020   */\n      dup1\n        /* \"#utility.yul\":3012:3024   */\n      revert\n        /* \"#utility.yul\":3036:3153   */\n    tag_291:\n        /* \"#utility.yul\":3145:3146   */\n      0x00\n        /* \"#utility.yul\":3142:3143   */\n      dup1\n        /* \"#utility.yul\":3135:3147   */\n      revert\n        /* \"#utility.yul\":3159:3276   */\n    tag_292:\n        /* \"#utility.yul\":3268:3269   */\n      0x00\n        /* \"#utility.yul\":3265:3266   */\n      dup1\n        /* \"#utility.yul\":3258:3270   */\n      revert\n        /* \"#utility.yul\":3295:3847   */\n    tag_293:\n        /* \"#utility.yul\":3352:3360   */\n      0x00\n        /* \"#utility.yul\":3362:3368   */\n      dup1\n        /* \"#utility.yul\":3412:3415   */\n      dup4\n        /* \"#utility.yul\":3405:3409   */\n      0x1f\n        /* \"#utility.yul\":3397:3403   */\n      dup5\n        /* \"#utility.yul\":3393:3410   */\n      add\n        /* \"#utility.yul\":3389:3416   */\n      slt\n        /* \"#utility.yul\":3379:3501   */\n      tag_402\n      jumpi\n        /* \"#utility.yul\":3420:3499   */\n      tag_403\n      tag_290\n      jump\t// in\n    tag_403:\n        /* \"#utility.yul\":3379:3501   */\n    tag_402:\n        /* \"#utility.yul\":3533:3539   */\n      dup3\n        /* \"#utility.yul\":3520:3540   */\n      calldataload\n        /* \"#utility.yul\":3510:3540   */\n      swap1\n      pop\n        /* \"#utility.yul\":3563:3581   */\n      0xffffffffffffffff\n        /* \"#utility.yul\":3555:3561   */\n      dup2\n        /* \"#utility.yul\":3552:3582   */\n      gt\n        /* \"#utility.yul\":3549:3666   */\n      iszero\n      tag_404\n      jumpi\n        /* \"#utility.yul\":3585:3664   */\n      tag_405\n      tag_291\n      jump\t// in\n    tag_405:\n        /* \"#utility.yul\":3549:3666   */\n    tag_404:\n        /* \"#utility.yul\":3699:3703   */\n      0x20\n        /* \"#utility.yul\":3691:3697   */\n      dup4\n        /* \"#utility.yul\":3687:3704   */\n      add\n        /* \"#utility.yul\":3675:3704   */\n      swap2\n      pop\n        /* \"#utility.yul\":3753:3756   */\n      dup4\n        /* \"#utility.yul\":3745:3749   */\n      0x01\n        /* \"#utility.yul\":3737:3743   */\n      dup3\n        /* \"#utility.yul\":3733:3750   */\n      mul\n        /* \"#utility.yul\":3723:3731   */\n      dup4\n        /* \"#utility.yul\":3719:3751   */\n      add\n        /* \"#utility.yul\":3716:3757   */\n      gt\n        /* \"#utility.yul\":3713:3841   */\n      iszero\n      tag_406\n      jumpi\n        /* \"#utility.yul\":3760:3839   */\n      tag_407\n      tag_292\n      jump\t// in\n    tag_407:\n        /* \"#utility.yul\":3713:3841   */\n    tag_406:\n        /* \"#utility.yul\":3295:3847   */\n      swap3\n      pop\n      swap3\n      swap1\n      pop\n      jump\t// out\n        /* \"#utility.yul\":3853:4741   */\n    tag_29:\n        /* \"#utility.yul\":3960:3966   */\n      0x00\n        /* \"#utility.yul\":3968:3974   */\n      dup1\n        /* \"#utility.yul\":3976:3982   */\n      0x00\n        /* \"#utility.yul\":4025:4027   */\n      0x40\n        /* \"#utility.yul\":4013:4022   */\n      dup5\n        /* \"#utility.yul\":4004:4011   */\n      dup7\n        /* \"#utility.yul\":4000:4023   */\n      sub\n        /* \"#utility.yul\":3996:4028   */\n      slt\n        /* \"#utility.yul\":3993:4112   */\n      iszero\n      tag_409\n      jumpi\n        /* \"#utility.yul\":4031:4110   */\n      tag_410\n      tag_278\n      jump\t// in\n    tag_410:\n        /* \"#utility.yul\":3993:4112   */\n    tag_409:\n        /* \"#utility.yul\":4179:4180   */\n      0x00\n        /* \"#utility.yul\":4168:4177   */\n      dup5\n        /* \"#utility.yul\":4164:4181   */\n      add\n        /* \"#utility.yul\":4151:4182   */\n      calldataload\n        /* \"#utility.yul\":4209:4227   */\n      0xffffffffffffffff\n        /* \"#utility.yul\":4201:4207   */\n      dup2\n        /* \"#utility.yul\":4198:4228   */\n      gt\n        /* \"#utility.yul\":4195:4312   */\n      iszero\n      tag_411\n      jumpi\n        /* \"#utility.yul\":4231:4310   */\n      tag_412\n      tag_279\n      jump\t// in\n    tag_412:\n        /* \"#utility.yul\":4195:4312   */\n    tag_411:\n        /* \"#utility.yul\":4336:4417   */\n      tag_413\n        /* \"#utility.yul\":4409:4416   */\n      dup7\n        /* \"#utility.yul\":4400:4406   */\n      dup3\n        /* \"#utility.yul\":4389:4398   */\n      dup8\n        /* \"#utility.yul\":4385:4407   */\n      add\n        /* \"#utility.yul\":4336:4417   */\n      tag_289\n      jump\t// in\n    tag_413:\n        /* \"#utility.yul\":4326:4417   */\n      swap4\n      pop\n        /* \"#utility.yul\":4122:4427   */\n      pop\n        /* \"#utility.yul\":4494:4496   */\n      0x20\n        /* \"#utility.yul\":4483:4492   */\n      dup5\n        /* \"#utility.yul\":4479:4497   */\n      add\n        /* \"#utility.yul\":4466:4498   */\n      calldataload\n        /* \"#utility.yul\":4525:4543   */\n      0xffffffffffffffff\n        /* \"#utility.yul\":4517:4523   */\n      dup2\n        /* \"#utility.yul\":4514:4544   */\n      gt\n        /* \"#utility.yul\":4511:4628   */\n      iszero\n      tag_414\n      jumpi\n        /* \"#utility.yul\":4547:4626   */\n      tag_415\n      tag_279\n      jump\t// in\n    tag_415:\n        /* \"#utility.yul\":4511:4628   */\n    tag_414:\n        /* \"#utility.yul\":4660:4724   */\n      tag_416\n        /* \"#utility.yul\":4716:4723   */\n      dup7\n        /* \"#utility.yul\":4707:4713   */\n      dup3\n        /* \"#utility.yul\":4696:4705   */\n      dup8\n        /* \"#utility.yul\":4692:4714   */\n      add\n        /* \"#utility.yul\":4660:4724   */\n      tag_293\n      jump\t// in\n    tag_416:\n        /* \"#utility.yul\":4642:4724   */\n      swap3\n      pop\n      swap3\n      pop\n        /* \"#utility.yul\":4437:4734   */\n      pop\n        /* \"#utility.yul\":3853:4741   */\n      swap3\n      pop\n      swap3\n      pop\n      swap3\n      jump\t// out\n        /* \"#utility.yul\":4747:5221   */\n    tag_34:\n        /* \"#utility.yul\":4815:4821   */\n      0x00\n        /* \"#utility.yul\":4823:4829   */\n      dup1\n        /* \"#utility.yul\":4872:4874   */\n      0x40\n        /* \"#utility.yul\":4860:4869   */\n      dup4\n        /* \"#utility.yul\":4851:4858   */\n      dup6\n        /* \"#utility.yul\":4847:4870   */\n      sub\n        /* \"#utility.yul\":4843:4875   */\n      slt\n        /* \"#utility.yul\":4840:4959   */\n      iszero\n      tag_418\n      jumpi\n        /* \"#utility.yul\":4878:4957   */\n      tag_419\n      tag_278\n      jump\t// in\n    tag_419:\n        /* \"#utility.yul\":4840:4959   */\n    tag_418:\n        /* \"#utility.yul\":4998:4999   */\n      0x00\n        /* \"#utility.yul\":5023:5076   */\n      tag_420\n        /* \"#utility.yul\":5068:5075   */\n      dup6\n        /* \"#utility.yul\":5059:5065   */\n      dup3\n        /* \"#utility.yul\":5048:5057   */\n      dup7\n        /* \"#utility.yul\":5044:5066   */\n      add\n        /* \"#utility.yul\":5023:5076   */\n      tag_283\n      jump\t// in\n    tag_420:\n        /* \"#utility.yul\":5013:5076   */\n      swap3\n      pop\n        /* \"#utility.yul\":4969:5086   */\n      pop\n        /* \"#utility.yul\":5125:5127   */\n      0x20\n        /* \"#utility.yul\":5151:5204   */\n      tag_421\n        /* \"#utility.yul\":5196:5203   */\n      dup6\n        /* \"#utility.yul\":5187:5193   */\n      dup3\n        /* \"#utility.yul\":5176:5185   */\n      dup7\n        /* \"#utility.yul\":5172:5194   */\n      add\n        /* \"#utility.yul\":5151:5204   */\n      tag_286\n      jump\t// in\n    tag_421:\n        /* \"#utility.yul\":5141:5204   */\n      swap2\n      pop\n        /* \"#utility.yul\":5096:5214   */\n      pop\n        /* \"#utility.yul\":4747:5221   */\n      swap3\n      pop\n      swap3\n      swap1\n      pop\n      jump\t// out\n        /* \"#utility.yul\":5227:5345   */\n    tag_294:\n        /* \"#utility.yul\":5314:5338   */\n      tag_423\n        /* \"#utility.yul\":5332:5337   */\n      dup2\n        /* \"#utility.yul\":5314:5338   */\n      tag_281\n      jump\t// in\n    tag_423:\n        /* \"#utility.yul\":5309:5312   */\n      dup3\n        /* \"#utility.yul\":5302:5339   */\n      mstore\n        /* \"#utility.yul\":5227:5345   */\n      pop\n      pop\n      jump\t// out\n        /* \"#utility.yul\":5351:5573   */\n    tag_46:\n        /* \"#utility.yul\":5444:5448   */\n      0x00\n        /* \"#utility.yul\":5482:5484   */\n      0x20\n        /* \"#utility.yul\":5471:5480   */\n      dup3\n        /* \"#utility.yul\":5467:5485   */\n      add\n        /* \"#utility.yul\":5459:5485   */\n      swap1\n      pop\n        /* \"#utility.yul\":5495:5566   */\n      tag_425\n        /* \"#utility.yul\":5563:5564   */\n      0x00\n        /* \"#utility.yul\":5552:5561   */\n      dup4\n        /* \"#utility.yul\":5548:5565   */\n      add\n        /* \"#utility.yul\":5539:5545   */\n      dup5\n        /* \"#utility.yul\":5495:5566   */\n      tag_294\n      jump\t// in\n    tag_425:\n        /* \"#utility.yul\":5351:5573   */\n      swap3\n      swap2\n      pop\n      pop\n      jump\t// out\n        /* \"#utility.yul\":5579:5696   */\n    tag_295:\n        /* \"#utility.yul\":5688:5689   */\n      0x00\n        /* \"#utility.yul\":5685:5686   */\n      dup1\n        /* \"#utility.yul\":5678:5690   */\n      revert\n        /* \"#utility.yul\":5702:5804   */\n    tag_296:\n        /* \"#utility.yul\":5743:5749   */\n      0x00\n        /* \"#utility.yul\":5794:5796   */\n      0x1f\n        /* \"#utility.yul\":5790:5797   */\n      not\n        /* \"#utility.yul\":5785:5787   */\n      0x1f\n        /* \"#utility.yul\":5778:5783   */\n      dup4\n        /* \"#utility.yul\":5774:5788   */\n      add\n        /* \"#utility.yul\":5770:5798   */\n      and\n        /* \"#utility.yul\":5760:5798   */\n      swap1\n      pop\n        /* \"#utility.yul\":5702:5804   */\n      swap2\n      swap1\n      pop\n      jump\t// out\n        /* \"#utility.yul\":5810:5990   */\n    tag_217:\n        /* \"#utility.yul\":5858:5935   */\n      0x4e487b7100000000000000000000000000000000000000000000000000000000\n        /* \"#utility.yul\":5855:5856   */\n      0x00\n        /* \"#utility.yul\":5848:5936   */\n      mstore\n        /* \"#utility.yul\":5955:5959   */\n      0x41\n        /* \"#utility.yul\":5952:5953   */\n      0x04\n        /* \"#utility.yul\":5945:5960   */\n      mstore\n        /* \"#utility.yul\":5979:5983   */\n      0x24\n        /* \"#utility.yul\":5976:5977   */\n      0x00\n        /* \"#utility.yul\":5969:5984   */\n      revert\n        /* \"#utility.yul\":5996:6277   */\n    tag_297:\n        /* \"#utility.yul\":6079:6106   */\n      tag_430\n        /* \"#utility.yul\":6101:6105   */\n      dup3\n        /* \"#utility.yul\":6079:6106   */\n      tag_296\n      jump\t// in\n    tag_430:\n        /* \"#utility.yul\":6071:6077   */\n      dup2\n        /* \"#utility.yul\":6067:6107   */\n      add\n        /* \"#utility.yul\":6209:6215   */\n      dup2\n        /* \"#utility.yul\":6197:6207   */\n      dup2\n        /* \"#utility.yul\":6194:6216   */\n      lt\n        /* \"#utility.yul\":6173:6191   */\n      0xffffffffffffffff\n        /* \"#utility.yul\":6161:6171   */\n      dup3\n        /* \"#utility.yul\":6158:6192   */\n      gt\n        /* \"#utility.yul\":6155:6217   */\n      or\n        /* \"#utility.yul\":6152:6240   */\n      iszero\n      tag_431\n      jumpi\n        /* \"#utility.yul\":6220:6238   */\n      tag_432\n      tag_217\n      jump\t// in\n    tag_432:\n        /* \"#utility.yul\":6152:6240   */\n    tag_431:\n        /* \"#utility.yul\":6260:6270   */\n      dup1\n        /* \"#utility.yul\":6256:6258   */\n      0x40\n        /* \"#utility.yul\":6249:6271   */\n      mstore\n        /* \"#utility.yul\":6039:6277   */\n      pop\n        /* \"#utility.yul\":5996:6277   */\n      pop\n      pop\n      jump\t// out\n        /* \"#utility.yul\":6283:6412   */\n    tag_298:\n        /* \"#utility.yul\":6317:6323   */\n      0x00\n        /* \"#utility.yul\":6344:6364   */\n      tag_434\n      tag_277\n      jump\t// in\n    tag_434:\n        /* \"#utility.yul\":6334:6364   */\n      swap1\n      pop\n        /* \"#utility.yul\":6373:6406   */\n      tag_435\n        /* \"#utility.yul\":6401:6405   */\n      dup3\n        /* \"#utility.yul\":6393:6399   */\n      dup3\n        /* \"#utility.yul\":6373:6406   */\n      tag_297\n      jump\t// in\n    tag_435:\n        /* \"#utility.yul\":6283:6412   */\n      swap2\n      swap1\n      pop\n      jump\t// out\n        /* \"#utility.yul\":6418:6725   */\n    tag_299:\n        /* \"#utility.yul\":6479:6483   */\n      0x00\n        /* \"#utility.yul\":6569:6587   */\n      0xffffffffffffffff\n        /* \"#utility.yul\":6561:6567   */\n      dup3\n        /* \"#utility.yul\":6558:6588   */\n      gt\n        /* \"#utility.yul\":6555:6611   */\n      iszero\n      tag_437\n      jumpi\n        /* \"#utility.yul\":6591:6609   */\n      tag_438\n      tag_217\n      jump\t// in\n    tag_438:\n        /* \"#utility.yul\":6555:6611   */\n    tag_437:\n        /* \"#utility.yul\":6629:6658   */\n      tag_439\n        /* \"#utility.yul\":6651:6657   */\n      dup3\n        /* \"#utility.yul\":6629:6658   */\n      tag_296\n      jump\t// in\n    tag_439:\n        /* \"#utility.yul\":6621:6658   */\n      swap1\n      pop\n        /* \"#utility.yul\":6713:6717   */\n      0x20\n        /* \"#utility.yul\":6707:6711   */\n      dup2\n        /* \"#utility.yul\":6703:6718   */\n      add\n        /* \"#utility.yul\":6695:6718   */\n      swap1\n      pop\n        /* \"#utility.yul\":6418:6725   */\n      swap2\n      swap1\n      pop\n      jump\t// out\n        /* \"#utility.yul\":6731:6877   */\n    tag_300:\n        /* \"#utility.yul\":6828:6834   */\n      dup3\n        /* \"#utility.yul\":6823:6826   */\n      dup2\n        /* \"#utility.yul\":6818:6821   */\n      dup4\n        /* \"#utility.yul\":6805:6835   */\n      calldatacopy\n        /* \"#utility.yul\":6869:6870   */\n      0x00\n        /* \"#utility.yul\":6860:6866   */\n      dup4\n        /* \"#utility.yul\":6855:6858   */\n      dup4\n        /* \"#utility.yul\":6851:6867   */\n      add\n        /* \"#utility.yul\":6844:6871   */\n      mstore\n        /* \"#utility.yul\":6731:6877   */\n      pop\n      pop\n      pop\n      jump\t// out\n        /* \"#utility.yul\":6883:7306   */\n    tag_301:\n        /* \"#utility.yul\":6960:6965   */\n      0x00\n        /* \"#utility.yul\":6985:7050   */\n      tag_442\n        /* \"#utility.yul\":7001:7049   */\n      tag_443\n        /* \"#utility.yul\":7042:7048   */\n      dup5\n        /* \"#utility.yul\":7001:7049   */\n      tag_299\n      jump\t// in\n    tag_443:\n        /* \"#utility.yul\":6985:7050   */\n      tag_298\n      jump\t// in\n    tag_442:\n        /* \"#utility.yul\":6976:7050   */\n      swap1\n      pop\n        /* \"#utility.yul\":7073:7079   */\n      dup3\n        /* \"#utility.yul\":7066:7071   */\n      dup2\n        /* \"#utility.yul\":7059:7080   */\n      mstore\n        /* \"#utility.yul\":7111:7115   */\n      0x20\n        /* \"#utility.yul\":7104:7109   */\n      dup2\n        /* \"#utility.yul\":7100:7116   */\n      add\n        /* \"#utility.yul\":7149:7152   */\n      dup5\n        /* \"#utility.yul\":7140:7146   */\n      dup5\n        /* \"#utility.yul\":7135:7138   */\n      dup5\n        /* \"#utility.yul\":7131:7147   */\n      add\n        /* \"#utility.yul\":7128:7153   */\n      gt\n        /* \"#utility.yul\":7125:7237   */\n      iszero\n      tag_444\n      jumpi\n        /* \"#utility.yul\":7156:7235   */\n      tag_445\n      tag_295\n      jump\t// in\n    tag_445:\n        /* \"#utility.yul\":7125:7237   */\n    tag_444:\n        /* \"#utility.yul\":7246:7300   */\n      tag_446\n        /* \"#utility.yul\":7293:7299   */\n      dup5\n        /* \"#utility.yul\":7288:7291   */\n      dup3\n        /* \"#utility.yul\":7283:7286   */\n      dup6\n        /* \"#utility.yul\":7246:7300   */\n      tag_300\n      jump\t// in\n    tag_446:\n        /* \"#utility.yul\":6966:7306   */\n      pop\n        /* \"#utility.yul\":6883:7306   */\n      swap4\n      swap3\n      pop\n      pop\n      pop\n      jump\t// out\n        /* \"#utility.yul\":7325:7663   */\n    tag_302:\n        /* \"#utility.yul\":7380:7385   */\n      0x00\n        /* \"#utility.yul\":7429:7432   */\n      dup3\n        /* \"#utility.yul\":7422:7426   */\n      0x1f\n        /* \"#utility.yul\":7414:7420   */\n      dup4\n        /* \"#utility.yul\":7410:7427   */\n      add\n        /* \"#utility.yul\":7406:7433   */\n      slt\n        /* \"#utility.yul\":7396:7518   */\n      tag_448\n      jumpi\n        /* \"#utility.yul\":7437:7516   */\n      tag_449\n      tag_290\n      jump\t// in\n    tag_449:\n        /* \"#utility.yul\":7396:7518   */\n    tag_448:\n        /* \"#utility.yul\":7554:7560   */\n      dup2\n        /* \"#utility.yul\":7541:7561   */\n      calldataload\n        /* \"#utility.yul\":7579:7657   */\n      tag_450\n        /* \"#utility.yul\":7653:7656   */\n      dup5\n        /* \"#utility.yul\":7645:7651   */\n      dup3\n        /* \"#utility.yul\":7638:7642   */\n      0x20\n        /* \"#utility.yul\":7630:7636   */\n      dup7\n        /* \"#utility.yul\":7626:7643   */\n      add\n        /* \"#utility.yul\":7579:7657   */\n      tag_301\n      jump\t// in\n    tag_450:\n        /* \"#utility.yul\":7570:7657   */\n      swap2\n      pop\n        /* \"#utility.yul\":7386:7663   */\n      pop\n        /* \"#utility.yul\":7325:7663   */\n      swap3\n      swap2\n      pop\n      pop\n      jump\t// out\n        /* \"#utility.yul\":7669:8537   */\n    tag_54:\n        /* \"#utility.yul\":7774:7780   */\n      0x00\n        /* \"#utility.yul\":7782:7788   */\n      dup1\n        /* \"#utility.yul\":7831:7833   */\n      0x40\n        /* \"#utility.yul\":7819:7828   */\n      dup4\n        /* \"#utility.yul\":7810:7817   */\n      dup6\n        /* \"#utility.yul\":7806:7829   */\n      sub\n        /* \"#utility.yul\":7802:7834   */\n      slt\n        /* \"#utility.yul\":7799:7918   */\n      iszero\n      tag_452\n      jumpi\n        /* \"#utility.yul\":7837:7916   */\n      tag_453\n      tag_278\n      jump\t// in\n    tag_453:\n        /* \"#utility.yul\":7799:7918   */\n    tag_452:\n        /* \"#utility.yul\":7985:7986   */\n      0x00\n        /* \"#utility.yul\":7974:7983   */\n      dup4\n        /* \"#utility.yul\":7970:7987   */\n      add\n        /* \"#utility.yul\":7957:7988   */\n      calldataload\n        /* \"#utility.yul\":8015:8033   */\n      0xffffffffffffffff\n        /* \"#utility.yul\":8007:8013   */\n      dup2\n        /* \"#utility.yul\":8004:8034   */\n      gt\n        /* \"#utility.yul\":8001:8118   */\n      iszero\n      tag_454\n      jumpi\n        /* \"#utility.yul\":8037:8116   */\n      tag_455\n      tag_279\n      jump\t// in\n    tag_455:\n        /* \"#utility.yul\":8001:8118   */\n    tag_454:\n        /* \"#utility.yul\":8142:8223   */\n      tag_456\n        /* \"#utility.yul\":8215:8222   */\n      dup6\n        /* \"#utility.yul\":8206:8212   */\n      dup3\n        /* \"#utility.yul\":8195:8204   */\n      dup7\n        /* \"#utility.yul\":8191:8213   */\n      add\n        /* \"#utility.yul\":8142:8223   */\n      tag_289\n      jump\t// in\n    tag_456:\n        /* \"#utility.yul\":8132:8223   */\n      swap3\n      pop\n        /* \"#utility.yul\":7928:8233   */\n      pop\n        /* \"#utility.yul\":8300:8302   */\n      0x20\n        /* \"#utility.yul\":8289:8298   */\n      dup4\n        /* \"#utility.yul\":8285:8303   */\n      add\n        /* \"#utility.yul\":8272:8304   */\n      calldataload\n        /* \"#utility.yul\":8331:8349   */\n      0xffffffffffffffff\n        /* \"#utility.yul\":8323:8329   */\n      dup2\n        /* \"#utility.yul\":8320:8350   */\n      gt\n        /* \"#utility.yul\":8317:8434   */\n      iszero\n      tag_457\n      jumpi\n        /* \"#utility.yul\":8353:8432   */\n      tag_458\n      tag_279\n      jump\t// in\n    tag_458:\n        /* \"#utility.yul\":8317:8434   */\n    tag_457:\n        /* \"#utility.yul\":8458:8520   */\n      tag_459\n        /* \"#utility.yul\":8512:8519   */\n      dup6\n        /* \"#utility.yul\":8503:8509   */\n      dup3\n        /* \"#utility.yul\":8492:8501   */\n      dup7\n        /* \"#utility.yul\":8488:8510   */\n      add\n        /* \"#utility.yul\":8458:8520   */\n      tag_302\n      jump\t// in\n    tag_459:\n        /* \"#utility.yul\":8448:8520   */\n      swap2\n      pop\n        /* \"#utility.yul\":8243:8530   */\n      pop\n        /* \"#utility.yul\":7669:8537   */\n      swap3\n      pop\n      swap3\n      swap1\n      pop\n      jump\t// out\n        /* \"#utility.yul\":8543:8686   */\n    tag_303:\n        /* \"#utility.yul\":8600:8605   */\n      0x00\n        /* \"#utility.yul\":8631:8637   */\n      dup2\n        /* \"#utility.yul\":8625:8638   */\n      mload\n        /* \"#utility.yul\":8616:8638   */\n      swap1\n      pop\n        /* \"#utility.yul\":8647:8680   */\n      tag_461\n        /* \"#utility.yul\":8674:8679   */\n      dup2\n        /* \"#utility.yul\":8647:8680   */\n      tag_285\n      jump\t// in\n    tag_461:\n        /* \"#utility.yul\":8543:8686   */\n      swap3\n      swap2\n      pop\n      pop\n      jump\t// out\n        /* \"#utility.yul\":8692:9043   */\n    tag_76:\n        /* \"#utility.yul\":8762:8768   */\n      0x00\n        /* \"#utility.yul\":8811:8813   */\n      0x20\n        /* \"#utility.yul\":8799:8808   */\n      dup3\n        /* \"#utility.yul\":8790:8797   */\n      dup5\n        /* \"#utility.yul\":8786:8809   */\n      sub\n        /* \"#utility.yul\":8782:8814   */\n      slt\n        /* \"#utility.yul\":8779:8898   */\n      iszero\n      tag_463\n      jumpi\n        /* \"#utility.yul\":8817:8896   */\n      tag_464\n      tag_278\n      jump\t// in\n    tag_464:\n        /* \"#utility.yul\":8779:8898   */\n    tag_463:\n        /* \"#utility.yul\":8937:8938   */\n      0x00\n        /* \"#utility.yul\":8962:9026   */\n      tag_465\n        /* \"#utility.yul\":9018:9025   */\n      dup5\n        /* \"#utility.yul\":9009:9015   */\n      dup3\n        /* \"#utility.yul\":8998:9007   */\n      dup6\n        /* \"#utility.yul\":8994:9016   */\n      add\n        /* \"#utility.yul\":8962:9026   */\n      tag_303\n      jump\t// in\n    tag_465:\n        /* \"#utility.yul\":8952:9026   */\n      swap2\n      pop\n        /* \"#utility.yul\":8908:9036   */\n      pop\n        /* \"#utility.yul\":8692:9043   */\n      swap3\n      swap2\n      pop\n      pop\n      jump\t// out\n        /* \"#utility.yul\":9049:9218   */\n    tag_304:\n        /* \"#utility.yul\":9133:9144   */\n      0x00\n        /* \"#utility.yul\":9167:9173   */\n      dup3\n        /* \"#utility.yul\":9162:9165   */\n      dup3\n        /* \"#utility.yul\":9155:9174   */\n      mstore\n        /* \"#utility.yul\":9207:9211   */\n      0x20\n        /* \"#utility.yul\":9202:9205   */\n      dup3\n        /* \"#utility.yul\":9198:9212   */\n      add\n        /* \"#utility.yul\":9183:9212   */\n      swap1\n      pop\n        /* \"#utility.yul\":9049:9218   */\n      swap3\n      swap2\n      pop\n      pop\n      jump\t// out\n        /* \"#utility.yul\":9224:9388   */\n    tag_305:\n        /* \"#utility.yul\":9364:9380   */\n      0x696e76616c65642073656e646572000000000000000000000000000000000000\n        /* \"#utility.yul\":9360:9361   */\n      0x00\n        /* \"#utility.yul\":9352:9358   */\n      dup3\n        /* \"#utility.yul\":9348:9362   */\n      add\n        /* \"#utility.yul\":9341:9381   */\n      mstore\n        /* \"#utility.yul\":9224:9388   */\n      pop\n      jump\t// out\n        /* \"#utility.yul\":9394:9760   */\n    tag_306:\n        /* \"#utility.yul\":9536:9539   */\n      0x00\n        /* \"#utility.yul\":9557:9624   */\n      tag_469\n        /* \"#utility.yul\":9621:9623   */\n      0x0e\n        /* \"#utility.yul\":9616:9619   */\n      dup4\n        /* \"#utility.yul\":9557:9624   */\n      tag_304\n      jump\t// in\n    tag_469:\n        /* \"#utility.yul\":9550:9624   */\n      swap2\n      pop\n        /* \"#utility.yul\":9633:9726   */\n      tag_470\n        /* \"#utility.yul\":9722:9725   */\n      dup3\n        /* \"#utility.yul\":9633:9726   */\n      tag_305\n      jump\t// in\n    tag_470:\n        /* \"#utility.yul\":9751:9753   */\n      0x20\n        /* \"#utility.yul\":9746:9749   */\n      dup3\n        /* \"#utility.yul\":9742:9754   */\n      add\n        /* \"#utility.yul\":9735:9754   */\n      swap1\n      pop\n        /* \"#utility.yul\":9394:9760   */\n      swap2\n      swap1\n      pop\n      jump\t// out\n        /* \"#utility.yul\":9766:10185   */\n    tag_81:\n        /* \"#utility.yul\":9932:9936   */\n      0x00\n        /* \"#utility.yul\":9970:9972   */\n      0x20\n        /* \"#utility.yul\":9959:9968   */\n      dup3\n        /* \"#utility.yul\":9955:9973   */\n      add\n        /* \"#utility.yul\":9947:9973   */\n      swap1\n      pop\n        /* \"#utility.yul\":10019:10028   */\n      dup2\n        /* \"#utility.yul\":10013:10017   */\n      dup2\n        /* \"#utility.yul\":10009:10029   */\n      sub\n        /* \"#utility.yul\":10005:10006   */\n      0x00\n        /* \"#utility.yul\":9994:10003   */\n      dup4\n        /* \"#utility.yul\":9990:10007   */\n      add\n        /* \"#utility.yul\":9983:10030   */\n      mstore\n        /* \"#utility.yul\":10047:10178   */\n      tag_472\n        /* \"#utility.yul\":10173:10177   */\n      dup2\n        /* \"#utility.yul\":10047:10178   */\n      tag_306\n      jump\t// in\n    tag_472:\n        /* \"#utility.yul\":10039:10178   */\n      swap1\n      pop\n        /* \"#utility.yul\":9766:10185   */\n      swap2\n      swap1\n      pop\n      jump\t// out\n        /* \"#utility.yul\":10191:10313   */\n    tag_307:\n        /* \"#utility.yul\":10243:10248   */\n      0x00\n        /* \"#utility.yul\":10268:10307   */\n      tag_474\n        /* \"#utility.yul\":10303:10305   */\n      0x20\n        /* \"#utility.yul\":10298:10301   */\n      dup5\n        /* \"#utility.yul\":10294:10306   */\n      add\n        /* \"#utility.yul\":10289:10292   */\n      dup5\n        /* \"#utility.yul\":10268:10307   */\n      tag_283\n      jump\t// in\n    tag_474:\n        /* \"#utility.yul\":10259:10307   */\n      swap1\n      pop\n        /* \"#utility.yul\":10191:10313   */\n      swap3\n      swap2\n      pop\n      pop\n      jump\t// out\n        /* \"#utility.yul\":10319:10427   */\n    tag_308:\n        /* \"#utility.yul\":10396:10420   */\n      tag_476\n        /* \"#utility.yul\":10414:10419   */\n      dup2\n        /* \"#utility.yul\":10396:10420   */\n      tag_281\n      jump\t// in\n    tag_476:\n        /* \"#utility.yul\":10391:10394   */\n      dup3\n        /* \"#utility.yul\":10384:10421   */\n      mstore\n        /* \"#utility.yul\":10319:10427   */\n      pop\n      pop\n      jump\t// out\n        /* \"#utility.yul\":10433:10555   */\n    tag_309:\n        /* \"#utility.yul\":10485:10490   */\n      0x00\n        /* \"#utility.yul\":10510:10549   */\n      tag_478\n        /* \"#utility.yul\":10545:10547   */\n      0x20\n        /* \"#utility.yul\":10540:10543   */\n      dup5\n        /* \"#utility.yul\":10536:10548   */\n      add\n        /* \"#utility.yul\":10531:10534   */\n      dup5\n        /* \"#utility.yul\":10510:10549   */\n      tag_286\n      jump\t// in\n    tag_478:\n        /* \"#utility.yul\":10501:10549   */\n      swap1\n      pop\n        /* \"#utility.yul\":10433:10555   */\n      swap3\n      swap2\n      pop\n      pop\n      jump\t// out\n        /* \"#utility.yul\":10561:10669   */\n    tag_310:\n        /* \"#utility.yul\":10638:10662   */\n      tag_480\n        /* \"#utility.yul\":10656:10661   */\n      dup2\n        /* \"#utility.yul\":10638:10662   */\n      tag_284\n      jump\t// in\n    tag_480:\n        /* \"#utility.yul\":10633:10636   */\n      dup3\n        /* \"#utility.yul\":10626:10663   */\n      mstore\n        /* \"#utility.yul\":10561:10669   */\n      pop\n      pop\n      jump\t// out\n        /* \"#utility.yul\":10675:10792   */\n    tag_311:\n        /* \"#utility.yul\":10784:10785   */\n      0x00\n        /* \"#utility.yul\":10781:10782   */\n      dup1\n        /* \"#utility.yul\":10774:10786   */\n      revert\n        /* \"#utility.yul\":10798:10915   */\n    tag_312:\n        /* \"#utility.yul\":10907:10908   */\n      0x00\n        /* \"#utility.yul\":10904:10905   */\n      dup1\n        /* \"#utility.yul\":10897:10909   */\n      revert\n        /* \"#utility.yul\":10921:11038   */\n    tag_313:\n        /* \"#utility.yul\":11030:11031   */\n      0x00\n        /* \"#utility.yul\":11027:11028   */\n      dup1\n        /* \"#utility.yul\":11020:11032   */\n      revert\n        /* \"#utility.yul\":11044:11755   */\n    tag_314:\n        /* \"#utility.yul\":11108:11113   */\n      0x00\n        /* \"#utility.yul\":11115:11121   */\n      dup1\n        /* \"#utility.yul\":11171:11174   */\n      dup4\n        /* \"#utility.yul\":11158:11175   */\n      calldataload\n        /* \"#utility.yul\":11263:11264   */\n      0x01\n        /* \"#utility.yul\":11257:11261   */\n      0x20\n        /* \"#utility.yul\":11253:11265   */\n      sub\n        /* \"#utility.yul\":11242:11250   */\n      dup5\n        /* \"#utility.yul\":11226:11240   */\n      calldatasize\n        /* \"#utility.yul\":11222:11251   */\n      sub\n        /* \"#utility.yul\":11218:11266   */\n      sub\n        /* \"#utility.yul\":11198:11216   */\n      dup2\n        /* \"#utility.yul\":11194:11267   */\n      slt\n        /* \"#utility.yul\":11184:11352   */\n      tag_485\n      jumpi\n        /* \"#utility.yul\":11271:11350   */\n      tag_486\n      tag_313\n      jump\t// in\n    tag_486:\n        /* \"#utility.yul\":11184:11352   */\n    tag_485:\n        /* \"#utility.yul\":11394:11402   */\n      dup4\n        /* \"#utility.yul\":11374:11392   */\n      dup2\n        /* \"#utility.yul\":11370:11403   */\n      add\n        /* \"#utility.yul\":11361:11403   */\n      swap3\n      pop\n        /* \"#utility.yul\":11436:11441   */\n      dup3\n        /* \"#utility.yul\":11423:11442   */\n      calldataload\n        /* \"#utility.yul\":11413:11442   */\n      swap2\n      pop\n        /* \"#utility.yul\":11471:11475   */\n      0x20\n        /* \"#utility.yul\":11464:11469   */\n      dup4\n        /* \"#utility.yul\":11460:11476   */\n      add\n        /* \"#utility.yul\":11451:11476   */\n      swap3\n      pop\n        /* \"#utility.yul\":11499:11517   */\n      0xffffffffffffffff\n        /* \"#utility.yul\":11491:11497   */\n      dup3\n        /* \"#utility.yul\":11488:11518   */\n      gt\n        /* \"#utility.yul\":11485:11602   */\n      iszero\n      tag_487\n      jumpi\n        /* \"#utility.yul\":11521:11600   */\n      tag_488\n      tag_311\n      jump\t// in\n    tag_488:\n        /* \"#utility.yul\":11485:11602   */\n    tag_487:\n        /* \"#utility.yul\":11657:11661   */\n      0x01\n        /* \"#utility.yul\":11649:11655   */\n      dup3\n        /* \"#utility.yul\":11645:11662   */\n      mul\n        /* \"#utility.yul\":11629:11643   */\n      calldatasize\n        /* \"#utility.yul\":11625:11663   */\n      sub\n        /* \"#utility.yul\":11618:11623   */\n      dup4\n        /* \"#utility.yul\":11614:11664   */\n      sgt\n        /* \"#utility.yul\":11611:11748   */\n      iszero\n      tag_489\n      jumpi\n        /* \"#utility.yul\":11667:11746   */\n      tag_490\n      tag_312\n      jump\t// in\n    tag_490:\n        /* \"#utility.yul\":11611:11748   */\n    tag_489:\n        /* \"#utility.yul\":11122:11755   */\n      pop\n        /* \"#utility.yul\":11044:11755   */\n      swap3\n      pop\n      swap3\n      swap1\n      pop\n      jump\t// out\n        /* \"#utility.yul\":11761:11919   */\n    tag_315:\n        /* \"#utility.yul\":11834:11845   */\n      0x00\n        /* \"#utility.yul\":11868:11874   */\n      dup3\n        /* \"#utility.yul\":11863:11866   */\n      dup3\n        /* \"#utility.yul\":11856:11875   */\n      mstore\n        /* \"#utility.yul\":11908:11912   */\n      0x20\n        /* \"#utility.yul\":11903:11906   */\n      dup3\n        /* \"#utility.yul\":11899:11913   */\n      add\n        /* \"#utility.yul\":11884:11913   */\n      swap1\n      pop\n        /* \"#utility.yul\":11761:11919   */\n      swap3\n      swap2\n      pop\n      pop\n      jump\t// out\n        /* \"#utility.yul\":11947:12241   */\n    tag_316:\n        /* \"#utility.yul\":12033:12036   */\n      0x00\n        /* \"#utility.yul\":12054:12114   */\n      tag_493\n        /* \"#utility.yul\":12107:12113   */\n      dup4\n        /* \"#utility.yul\":12102:12105   */\n      dup6\n        /* \"#utility.yul\":12054:12114   */\n      tag_315\n      jump\t// in\n    tag_493:\n        /* \"#utility.yul\":12047:12114   */\n      swap4\n      pop\n        /* \"#utility.yul\":12124:12180   */\n      tag_494\n        /* \"#utility.yul\":12173:12179   */\n      dup4\n        /* \"#utility.yul\":12168:12171   */\n      dup6\n        /* \"#utility.yul\":12161:12166   */\n      dup5\n        /* \"#utility.yul\":12124:12180   */\n      tag_300\n      jump\t// in\n    tag_494:\n        /* \"#utility.yul\":12205:12234   */\n      tag_495\n        /* \"#utility.yul\":12227:12233   */\n      dup4\n        /* \"#utility.yul\":12205:12234   */\n      tag_296\n      jump\t// in\n    tag_495:\n        /* \"#utility.yul\":12200:12203   */\n      dup5\n        /* \"#utility.yul\":12196:12235   */\n      add\n        /* \"#utility.yul\":12189:12235   */\n      swap1\n      pop\n        /* \"#utility.yul\":11947:12241   */\n      swap4\n      swap3\n      pop\n      pop\n      pop\n      jump\t// out\n        /* \"#utility.yul\":12327:13852   */\n    tag_317:\n        /* \"#utility.yul\":12450:12453   */\n      0x00\n        /* \"#utility.yul\":12486:12490   */\n      0xc0\n        /* \"#utility.yul\":12481:12484   */\n      dup4\n        /* \"#utility.yul\":12477:12491   */\n      add\n        /* \"#utility.yul\":12557:12607   */\n      tag_497\n        /* \"#utility.yul\":12601:12605   */\n      0x00\n        /* \"#utility.yul\":12594:12599   */\n      dup5\n        /* \"#utility.yul\":12590:12606   */\n      add\n        /* \"#utility.yul\":12583:12588   */\n      dup5\n        /* \"#utility.yul\":12557:12607   */\n      tag_307\n      jump\t// in\n    tag_497:\n        /* \"#utility.yul\":12620:12683   */\n      tag_498\n        /* \"#utility.yul\":12677:12681   */\n      0x00\n        /* \"#utility.yul\":12672:12675   */\n      dup7\n        /* \"#utility.yul\":12668:12682   */\n      add\n        /* \"#utility.yul\":12654:12666   */\n      dup3\n        /* \"#utility.yul\":12620:12683   */\n      tag_308\n      jump\t// in\n    tag_498:\n        /* \"#utility.yul\":12501:12693   */\n      pop\n        /* \"#utility.yul\":12765:12815   */\n      tag_499\n        /* \"#utility.yul\":12809:12813   */\n      0x20\n        /* \"#utility.yul\":12802:12807   */\n      dup5\n        /* \"#utility.yul\":12798:12814   */\n      add\n        /* \"#utility.yul\":12791:12796   */\n      dup5\n        /* \"#utility.yul\":12765:12815   */\n      tag_309\n      jump\t// in\n    tag_499:\n        /* \"#utility.yul\":12828:12891   */\n      tag_500\n        /* \"#utility.yul\":12885:12889   */\n      0x20\n        /* \"#utility.yul\":12880:12883   */\n      dup7\n        /* \"#utility.yul\":12876:12890   */\n      add\n        /* \"#utility.yul\":12862:12874   */\n      dup3\n        /* \"#utility.yul\":12828:12891   */\n      tag_310\n      jump\t// in\n    tag_500:\n        /* \"#utility.yul\":12703:12901   */\n      pop\n        /* \"#utility.yul\":12971:13021   */\n      tag_501\n        /* \"#utility.yul\":13015:13019   */\n      0x40\n        /* \"#utility.yul\":13008:13013   */\n      dup5\n        /* \"#utility.yul\":13004:13020   */\n      add\n        /* \"#utility.yul\":12997:13002   */\n      dup5\n        /* \"#utility.yul\":12971:13021   */\n      tag_309\n      jump\t// in\n    tag_501:\n        /* \"#utility.yul\":13034:13097   */\n      tag_502\n        /* \"#utility.yul\":13091:13095   */\n      0x40\n        /* \"#utility.yul\":13086:13089   */\n      dup7\n        /* \"#utility.yul\":13082:13096   */\n      add\n        /* \"#utility.yul\":13068:13080   */\n      dup3\n        /* \"#utility.yul\":13034:13097   */\n      tag_310\n      jump\t// in\n    tag_502:\n        /* \"#utility.yul\":12911:13107   */\n      pop\n        /* \"#utility.yul\":13175:13225   */\n      tag_503\n        /* \"#utility.yul\":13219:13223   */\n      0x60\n        /* \"#utility.yul\":13212:13217   */\n      dup5\n        /* \"#utility.yul\":13208:13224   */\n      add\n        /* \"#utility.yul\":13201:13206   */\n      dup5\n        /* \"#utility.yul\":13175:13225   */\n      tag_307\n      jump\t// in\n    tag_503:\n        /* \"#utility.yul\":13238:13301   */\n      tag_504\n        /* \"#utility.yul\":13295:13299   */\n      0x60\n        /* \"#utility.yul\":13290:13293   */\n      dup7\n        /* \"#utility.yul\":13286:13300   */\n      add\n        /* \"#utility.yul\":13272:13284   */\n      dup3\n        /* \"#utility.yul\":13238:13301   */\n      tag_308\n      jump\t// in\n    tag_504:\n        /* \"#utility.yul\":13117:13311   */\n      pop\n        /* \"#utility.yul\":13390:13451   */\n      tag_505\n        /* \"#utility.yul\":13445:13449   */\n      0x80\n        /* \"#utility.yul\":13438:13443   */\n      dup5\n        /* \"#utility.yul\":13434:13450   */\n      add\n        /* \"#utility.yul\":13427:13432   */\n      dup5\n        /* \"#utility.yul\":13390:13451   */\n      tag_314\n      jump\t// in\n    tag_505:\n        /* \"#utility.yul\":13498:13501   */\n      dup6\n        /* \"#utility.yul\":13492:13496   */\n      dup4\n        /* \"#utility.yul\":13488:13502   */\n      sub\n        /* \"#utility.yul\":13481:13485   */\n      0x80\n        /* \"#utility.yul\":13476:13479   */\n      dup8\n        /* \"#utility.yul\":13472:13486   */\n      add\n        /* \"#utility.yul\":13465:13503   */\n      mstore\n        /* \"#utility.yul\":13524:13611   */\n      tag_506\n        /* \"#utility.yul\":13606:13610   */\n      dup4\n        /* \"#utility.yul\":13592:13604   */\n      dup3\n        /* \"#utility.yul\":13578:13590   */\n      dup5\n        /* \"#utility.yul\":13524:13611   */\n      tag_316\n      jump\t// in\n    tag_506:\n        /* \"#utility.yul\":13516:13611   */\n      swap3\n      pop\n        /* \"#utility.yul\":13321:13622   */\n      pop\n      pop\n        /* \"#utility.yul\":13689:13739   */\n      tag_507\n        /* \"#utility.yul\":13733:13737   */\n      0xa0\n        /* \"#utility.yul\":13726:13731   */\n      dup5\n        /* \"#utility.yul\":13722:13738   */\n      add\n        /* \"#utility.yul\":13715:13720   */\n      dup5\n        /* \"#utility.yul\":13689:13739   */\n      tag_307\n      jump\t// in\n    tag_507:\n        /* \"#utility.yul\":13752:13815   */\n      tag_508\n        /* \"#utility.yul\":13809:13813   */\n      0xa0\n        /* \"#utility.yul\":13804:13807   */\n      dup7\n        /* \"#utility.yul\":13800:13814   */\n      add\n        /* \"#utility.yul\":13786:13798   */\n      dup3\n        /* \"#utility.yul\":13752:13815   */\n      tag_308\n      jump\t// in\n    tag_508:\n        /* \"#utility.yul\":13632:13825   */\n      pop\n        /* \"#utility.yul\":13842:13846   */\n      dup1\n        /* \"#utility.yul\":13835:13846   */\n      swap2\n      pop\n        /* \"#utility.yul\":12455:13852   */\n      pop\n        /* \"#utility.yul\":12327:13852   */\n      swap3\n      swap2\n      pop\n      pop\n      jump\t// out\n        /* \"#utility.yul\":13858:14239   */\n    tag_84:\n        /* \"#utility.yul\":14005:14009   */\n      0x00\n        /* \"#utility.yul\":14043:14045   */\n      0x20\n        /* \"#utility.yul\":14032:14041   */\n      dup3\n        /* \"#utility.yul\":14028:14046   */\n      add\n        /* \"#utility.yul\":14020:14046   */\n      swap1\n      pop\n        /* \"#utility.yul\":14092:14101   */\n      dup2\n        /* \"#utility.yul\":14086:14090   */\n      dup2\n        /* \"#utility.yul\":14082:14102   */\n      sub\n        /* \"#utility.yul\":14078:14079   */\n      0x00\n        /* \"#utility.yul\":14067:14076   */\n      dup4\n        /* \"#utility.yul\":14063:14080   */\n      add\n        /* \"#utility.yul\":14056:14103   */\n      mstore\n        /* \"#utility.yul\":14120:14232   */\n      tag_510\n        /* \"#utility.yul\":14227:14231   */\n      dup2\n        /* \"#utility.yul\":14218:14224   */\n      dup5\n        /* \"#utility.yul\":14120:14232   */\n      tag_317\n      jump\t// in\n    tag_510:\n        /* \"#utility.yul\":14112:14232   */\n      swap1\n      pop\n        /* \"#utility.yul\":13858:14239   */\n      swap3\n      swap2\n      pop\n      pop\n      jump\t// out\n        /* \"#utility.yul\":14245:14425   */\n    tag_318:\n        /* \"#utility.yul\":14293:14370   */\n      0x4e487b7100000000000000000000000000000000000000000000000000000000\n        /* \"#utility.yul\":14290:14291   */\n      0x00\n        /* \"#utility.yul\":14283:14371   */\n      mstore\n        /* \"#utility.yul\":14390:14394   */\n      0x11\n        /* \"#utility.yul\":14387:14388   */\n      0x04\n        /* \"#utility.yul\":14380:14395   */\n      mstore\n        /* \"#utility.yul\":14414:14418   */\n      0x24\n        /* \"#utility.yul\":14411:14412   */\n      0x00\n        /* \"#utility.yul\":14404:14419   */\n      revert\n        /* \"#utility.yul\":14431:14625   */\n    tag_93:\n        /* \"#utility.yul\":14471:14475   */\n      0x00\n        /* \"#utility.yul\":14491:14511   */\n      tag_513\n        /* \"#utility.yul\":14509:14510   */\n      dup3\n        /* \"#utility.yul\":14491:14511   */\n      tag_284\n      jump\t// in\n    tag_513:\n        /* \"#utility.yul\":14486:14511   */\n      swap2\n      pop\n        /* \"#utility.yul\":14525:14545   */\n      tag_514\n        /* \"#utility.yul\":14543:14544   */\n      dup4\n        /* \"#utility.yul\":14525:14545   */\n      tag_284\n      jump\t// in\n    tag_514:\n        /* \"#utility.yul\":14520:14545   */\n      swap3\n      pop\n        /* \"#utility.yul\":14569:14570   */\n      dup3\n        /* \"#utility.yul\":14566:14567   */\n      dup3\n        /* \"#utility.yul\":14562:14571   */\n      sub\n        /* \"#utility.yul\":14554:14571   */\n      swap1\n      pop\n        /* \"#utility.yul\":14593:14594   */\n      dup2\n        /* \"#utility.yul\":14587:14591   */\n      dup2\n        /* \"#utility.yul\":14584:14595   */\n      gt\n        /* \"#utility.yul\":14581:14618   */\n      iszero\n      tag_515\n      jumpi\n        /* \"#utility.yul\":14598:14616   */\n      tag_516\n      tag_318\n      jump\t// in\n    tag_516:\n        /* \"#utility.yul\":14581:14618   */\n    tag_515:\n        /* \"#utility.yul\":14431:14625   */\n      swap3\n      swap2\n      pop\n      pop\n      jump\t// out\n        /* \"#utility.yul\":14631:14748   */\n    tag_319:\n        /* \"#utility.yul\":14740:14741   */\n      0x00\n        /* \"#utility.yul\":14737:14738   */\n      dup1\n        /* \"#utility.yul\":14730:14742   */\n      revert\n        /* \"#utility.yul\":14754:14871   */\n    tag_320:\n        /* \"#utility.yul\":14863:14864   */\n      0x00\n        /* \"#utility.yul\":14860:14861   */\n      dup1\n        /* \"#utility.yul\":14853:14865   */\n      revert\n        /* \"#utility.yul\":14877:14994   */\n    tag_321:\n        /* \"#utility.yul\":14986:14987   */\n      0x00\n        /* \"#utility.yul\":14983:14984   */\n      dup1\n        /* \"#utility.yul\":14976:14988   */\n      revert\n        /* \"#utility.yul\":15000:15724   */\n    tag_98:\n        /* \"#utility.yul\":15077:15081   */\n      0x00\n        /* \"#utility.yul\":15083:15089   */\n      dup1\n        /* \"#utility.yul\":15139:15150   */\n      dup4\n        /* \"#utility.yul\":15126:15151   */\n      calldataload\n        /* \"#utility.yul\":15239:15240   */\n      0x01\n        /* \"#utility.yul\":15233:15237   */\n      0x20\n        /* \"#utility.yul\":15229:15241   */\n      sub\n        /* \"#utility.yul\":15218:15226   */\n      dup5\n        /* \"#utility.yul\":15202:15216   */\n      calldatasize\n        /* \"#utility.yul\":15198:15227   */\n      sub\n        /* \"#utility.yul\":15194:15242   */\n      sub\n        /* \"#utility.yul\":15174:15192   */\n      dup2\n        /* \"#utility.yul\":15170:15243   */\n      slt\n        /* \"#utility.yul\":15160:15328   */\n      tag_521\n      jumpi\n        /* \"#utility.yul\":15247:15326   */\n      tag_522\n      tag_319\n      jump\t// in\n    tag_522:\n        /* \"#utility.yul\":15160:15328   */\n    tag_521:\n        /* \"#utility.yul\":15359:15377   */\n      dup1\n        /* \"#utility.yul\":15349:15357   */\n      dup5\n        /* \"#utility.yul\":15345:15378   */\n      add\n        /* \"#utility.yul\":15337:15378   */\n      swap3\n      pop\n        /* \"#utility.yul\":15411:15415   */\n      dup3\n        /* \"#utility.yul\":15398:15416   */\n      calldataload\n        /* \"#utility.yul\":15388:15416   */\n      swap2\n      pop\n        /* \"#utility.yul\":15439:15457   */\n      0xffffffffffffffff\n        /* \"#utility.yul\":15431:15437   */\n      dup3\n        /* \"#utility.yul\":15428:15458   */\n      gt\n        /* \"#utility.yul\":15425:15542   */\n      iszero\n      tag_523\n      jumpi\n        /* \"#utility.yul\":15461:15540   */\n      tag_524\n      tag_320\n      jump\t// in\n    tag_524:\n        /* \"#utility.yul\":15425:15542   */\n    tag_523:\n        /* \"#utility.yul\":15569:15571   */\n      0x20\n        /* \"#utility.yul\":15563:15567   */\n      dup4\n        /* \"#utility.yul\":15559:15572   */\n      add\n        /* \"#utility.yul\":15551:15572   */\n      swap3\n      pop\n        /* \"#utility.yul\":15626:15630   */\n      0x01\n        /* \"#utility.yul\":15618:15624   */\n      dup3\n        /* \"#utility.yul\":15614:15631   */\n      mul\n        /* \"#utility.yul\":15598:15612   */\n      calldatasize\n        /* \"#utility.yul\":15594:15632   */\n      sub\n        /* \"#utility.yul\":15588:15592   */\n      dup4\n        /* \"#utility.yul\":15584:15633   */\n      sgt\n        /* \"#utility.yul\":15581:15717   */\n      iszero\n      tag_525\n      jumpi\n        /* \"#utility.yul\":15636:15715   */\n      tag_526\n      tag_321\n      jump\t// in\n    tag_526:\n        /* \"#utility.yul\":15581:15717   */\n    tag_525:\n        /* \"#utility.yul\":15090:15724   */\n      pop\n        /* \"#utility.yul\":15000:15724   */\n      swap3\n      pop\n      swap3\n      swap1\n      pop\n      jump\t// out\n        /* \"#utility.yul\":15730:15905   */\n    tag_322:\n        /* \"#utility.yul\":15870:15897   */\n      0x696e73756666696369656e7420696e70757420616d6f756e7400000000000000\n        /* \"#utility.yul\":15866:15867   */\n      0x00\n        /* \"#utility.yul\":15858:15864   */\n      dup3\n        /* \"#utility.yul\":15854:15868   */\n      add\n        /* \"#utility.yul\":15847:15898   */\n      mstore\n        /* \"#utility.yul\":15730:15905   */\n      pop\n      jump\t// out\n        /* \"#utility.yul\":15911:16277   */\n    tag_323:\n        /* \"#utility.yul\":16053:16056   */\n      0x00\n        /* \"#utility.yul\":16074:16141   */\n      tag_529\n        /* \"#utility.yul\":16138:16140   */\n      0x19\n        /* \"#utility.yul\":16133:16136   */\n      dup4\n        /* \"#utility.yul\":16074:16141   */\n      tag_304\n      jump\t// in\n    tag_529:\n        /* \"#utility.yul\":16067:16141   */\n      swap2\n      pop\n        /* \"#utility.yul\":16150:16243   */\n      tag_530\n        /* \"#utility.yul\":16239:16242   */\n      dup3\n        /* \"#utility.yul\":16150:16243   */\n      tag_322\n      jump\t// in\n    tag_530:\n        /* \"#utility.yul\":16268:16270   */\n      0x20\n        /* \"#utility.yul\":16263:16266   */\n      dup3\n        /* \"#utility.yul\":16259:16271   */\n      add\n        /* \"#utility.yul\":16252:16271   */\n      swap1\n      pop\n        /* \"#utility.yul\":15911:16277   */\n      swap2\n      swap1\n      pop\n      jump\t// out\n        /* \"#utility.yul\":16283:16702   */\n    tag_113:\n        /* \"#utility.yul\":16449:16453   */\n      0x00\n        /* \"#utility.yul\":16487:16489   */\n      0x20\n        /* \"#utility.yul\":16476:16485   */\n      dup3\n        /* \"#utility.yul\":16472:16490   */\n      add\n        /* \"#utility.yul\":16464:16490   */\n      swap1\n      pop\n        /* \"#utility.yul\":16536:16545   */\n      dup2\n        /* \"#utility.yul\":16530:16534   */\n      dup2\n        /* \"#utility.yul\":16526:16546   */\n      sub\n        /* \"#utility.yul\":16522:16523   */\n      0x00\n        /* \"#utility.yul\":16511:16520   */\n      dup4\n        /* \"#utility.yul\":16507:16524   */\n      add\n        /* \"#utility.yul\":16500:16547   */\n      mstore\n        /* \"#utility.yul\":16564:16695   */\n      tag_532\n        /* \"#utility.yul\":16690:16694   */\n      dup2\n        /* \"#utility.yul\":16564:16695   */\n      tag_323\n      jump\t// in\n    tag_532:\n        /* \"#utility.yul\":16556:16695   */\n      swap1\n      pop\n        /* \"#utility.yul\":16283:16702   */\n      swap2\n      swap1\n      pop\n      jump\t// out\n        /* \"#utility.yul\":16708:16933   */\n    tag_324:\n        /* \"#utility.yul\":16848:16882   */\n      0x4f776e61626c653a206e6577206f776e657220697320746865207a65726f2061\n        /* \"#utility.yul\":16844:16845   */\n      0x00\n        /* \"#utility.yul\":16836:16842   */\n      dup3\n        /* \"#utility.yul\":16832:16846   */\n      add\n        /* \"#utility.yul\":16825:16883   */\n      mstore\n        /* \"#utility.yul\":16917:16925   */\n      0x6464726573730000000000000000000000000000000000000000000000000000\n        /* \"#utility.yul\":16912:16914   */\n      0x20\n        /* \"#utility.yul\":16904:16910   */\n      dup3\n        /* \"#utility.yul\":16900:16915   */\n      add\n        /* \"#utility.yul\":16893:16926   */\n      mstore\n        /* \"#utility.yul\":16708:16933   */\n      pop\n      jump\t// out\n        /* \"#utility.yul\":16939:17305   */\n    tag_325:\n        /* \"#utility.yul\":17081:17084   */\n      0x00\n        /* \"#utility.yul\":17102:17169   */\n      tag_535\n        /* \"#utility.yul\":17166:17168   */\n      0x26\n        /* \"#utility.yul\":17161:17164   */\n      dup4\n        /* \"#utility.yul\":17102:17169   */\n      tag_304\n      jump\t// in\n    tag_535:\n        /* \"#utility.yul\":17095:17169   */\n      swap2\n      pop\n        /* \"#utility.yul\":17178:17271   */\n      tag_536\n        /* \"#utility.yul\":17267:17270   */\n      dup3\n        /* \"#utility.yul\":17178:17271   */\n      tag_324\n      jump\t// in\n    tag_536:\n        /* \"#utility.yul\":17296:17298   */\n      0x40\n        /* \"#utility.yul\":17291:17294   */\n      dup3\n        /* \"#utility.yul\":17287:17299   */\n      add\n        /* \"#utility.yul\":17280:17299   */\n      swap1\n      pop\n        /* \"#utility.yul\":16939:17305   */\n      swap2\n      swap1\n      pop\n      jump\t// out\n        /* \"#utility.yul\":17311:17730   */\n    tag_136:\n        /* \"#utility.yul\":17477:17481   */\n      0x00\n        /* \"#utility.yul\":17515:17517   */\n      0x20\n        /* \"#utility.yul\":17504:17513   */\n      dup3\n        /* \"#utility.yul\":17500:17518   */\n      add\n        /* \"#utility.yul\":17492:17518   */\n      swap1\n      pop\n        /* \"#utility.yul\":17564:17573   */\n      dup2\n        /* \"#utility.yul\":17558:17562   */\n      dup2\n        /* \"#utility.yul\":17554:17574   */\n      sub\n        /* \"#utility.yul\":17550:17551   */\n      0x00\n        /* \"#utility.yul\":17539:17548   */\n      dup4\n        /* \"#utility.yul\":17535:17552   */\n      add\n        /* \"#utility.yul\":17528:17575   */\n      mstore\n        /* \"#utility.yul\":17592:17723   */\n      tag_538\n        /* \"#utility.yul\":17718:17722   */\n      dup2\n        /* \"#utility.yul\":17592:17723   */\n      tag_325\n      jump\t// in\n    tag_538:\n        /* \"#utility.yul\":17584:17723   */\n      swap1\n      pop\n        /* \"#utility.yul\":17311:17730   */\n      swap2\n      swap1\n      pop\n      jump\t// out\n        /* \"#utility.yul\":17736:17918   */\n    tag_326:\n        /* \"#utility.yul\":17876:17910   */\n      0x4f776e61626c653a2063616c6c6572206973206e6f7420746865206f776e6572\n        /* \"#utility.yul\":17872:17873   */\n      0x00\n        /* \"#utility.yul\":17864:17870   */\n      dup3\n        /* \"#utility.yul\":17860:17874   */\n      add\n        /* \"#utility.yul\":17853:17911   */\n      mstore\n        /* \"#utility.yul\":17736:17918   */\n      pop\n      jump\t// out\n        /* \"#utility.yul\":17924:18290   */\n    tag_327:\n        /* \"#utility.yul\":18066:18069   */\n      0x00\n        /* \"#utility.yul\":18087:18154   */\n      tag_541\n        /* \"#utility.yul\":18151:18153   */\n      0x20\n        /* \"#utility.yul\":18146:18149   */\n      dup4\n        /* \"#utility.yul\":18087:18154   */\n      tag_304\n      jump\t// in\n    tag_541:\n        /* \"#utility.yul\":18080:18154   */\n      swap2\n      pop\n        /* \"#utility.yul\":18163:18256   */\n      tag_542\n        /* \"#utility.yul\":18252:18255   */\n      dup3\n        /* \"#utility.yul\":18163:18256   */\n      tag_326\n      jump\t// in\n    tag_542:\n        /* \"#utility.yul\":18281:18283   */\n      0x20\n        /* \"#utility.yul\":18276:18279   */\n      dup3\n        /* \"#utility.yul\":18272:18284   */\n      add\n        /* \"#utility.yul\":18265:18284   */\n      swap1\n      pop\n        /* \"#utility.yul\":17924:18290   */\n      swap2\n      swap1\n      pop\n      jump\t// out\n        /* \"#utility.yul\":18296:18715   */\n    tag_144:\n        /* \"#utility.yul\":18462:18466   */\n      0x00\n        /* \"#utility.yul\":18500:18502   */\n      0x20\n        /* \"#utility.yul\":18489:18498   */\n      dup3\n        /* \"#utility.yul\":18485:18503   */\n      add\n        /* \"#utility.yul\":18477:18503   */\n      swap1\n      pop\n        /* \"#utility.yul\":18549:18558   */\n      dup2\n        /* \"#utility.yul\":18543:18547   */\n      dup2\n        /* \"#utility.yul\":18539:18559   */\n      sub\n        /* \"#utility.yul\":18535:18536   */\n      0x00\n        /* \"#utility.yul\":18524:18533   */\n      dup4\n        /* \"#utility.yul\":18520:18537   */\n      add\n        /* \"#utility.yul\":18513:18560   */\n      mstore\n        /* \"#utility.yul\":18577:18708   */\n      tag_544\n        /* \"#utility.yul\":18703:18707   */\n      dup2\n        /* \"#utility.yul\":18577:18708   */\n      tag_327\n      jump\t// in\n    tag_544:\n        /* \"#utility.yul\":18569:18708   */\n      swap1\n      pop\n        /* \"#utility.yul\":18296:18715   */\n      swap2\n      swap1\n      pop\n      jump\t// out\n        /* \"#utility.yul\":18721:19053   */\n    tag_147:\n        /* \"#utility.yul\":18842:18846   */\n      0x00\n        /* \"#utility.yul\":18880:18882   */\n      0x40\n        /* \"#utility.yul\":18869:18878   */\n      dup3\n        /* \"#utility.yul\":18865:18883   */\n      add\n        /* \"#utility.yul\":18857:18883   */\n      swap1\n      pop\n        /* \"#utility.yul\":18893:18964   */\n      tag_546\n        /* \"#utility.yul\":18961:18962   */\n      0x00\n        /* \"#utility.yul\":18950:18959   */\n      dup4\n        /* \"#utility.yul\":18946:18963   */\n      add\n        /* \"#utility.yul\":18937:18943   */\n      dup6\n        /* \"#utility.yul\":18893:18964   */\n      tag_294\n      jump\t// in\n    tag_546:\n        /* \"#utility.yul\":18974:19046   */\n      tag_547\n        /* \"#utility.yul\":19042:19044   */\n      0x20\n        /* \"#utility.yul\":19031:19040   */\n      dup4\n        /* \"#utility.yul\":19027:19045   */\n      add\n        /* \"#utility.yul\":19018:19024   */\n      dup5\n        /* \"#utility.yul\":18974:19046   */\n      tag_287\n      jump\t// in\n    tag_547:\n        /* \"#utility.yul\":18721:19053   */\n      swap4\n      swap3\n      pop\n      pop\n      pop\n      jump\t// out\n        /* \"#utility.yul\":19059:19157   */\n    tag_328:\n        /* \"#utility.yul\":19110:19116   */\n      0x00\n        /* \"#utility.yul\":19144:19149   */\n      dup2\n        /* \"#utility.yul\":19138:19150   */\n      mload\n        /* \"#utility.yul\":19128:19150   */\n      swap1\n      pop\n        /* \"#utility.yul\":19059:19157   */\n      swap2\n      swap1\n      pop\n      jump\t// out\n        /* \"#utility.yul\":19163:19310   */\n    tag_329:\n        /* \"#utility.yul\":19264:19275   */\n      0x00\n        /* \"#utility.yul\":19301:19304   */\n      dup2\n        /* \"#utility.yul\":19286:19304   */\n      swap1\n      pop\n        /* \"#utility.yul\":19163:19310   */\n      swap3\n      swap2\n      pop\n      pop\n      jump\t// out\n        /* \"#utility.yul\":19316:19562   */\n    tag_330:\n        /* \"#utility.yul\":19397:19398   */\n      0x00\n        /* \"#utility.yul\":19407:19520   */\n    tag_551:\n        /* \"#utility.yul\":19421:19427   */\n      dup4\n        /* \"#utility.yul\":19418:19419   */\n      dup2\n        /* \"#utility.yul\":19415:19428   */\n      lt\n        /* \"#utility.yul\":19407:19520   */\n      iszero\n      tag_553\n      jumpi\n        /* \"#utility.yul\":19506:19507   */\n      dup1\n        /* \"#utility.yul\":19501:19504   */\n      dup3\n        /* \"#utility.yul\":19497:19508   */\n      add\n        /* \"#utility.yul\":19491:19509   */\n      mload\n        /* \"#utility.yul\":19487:19488   */\n      dup2\n        /* \"#utility.yul\":19482:19485   */\n      dup5\n        /* \"#utility.yul\":19478:19489   */\n      add\n        /* \"#utility.yul\":19471:19510   */\n      mstore\n        /* \"#utility.yul\":19443:19445   */\n      0x20\n        /* \"#utility.yul\":19440:19441   */\n      dup2\n        /* \"#utility.yul\":19436:19446   */\n      add\n        /* \"#utility.yul\":19431:19446   */\n      swap1\n      pop\n        /* \"#utility.yul\":19407:19520   */\n      jump(tag_551)\n    tag_553:\n        /* \"#utility.yul\":19554:19555   */\n      0x00\n        /* \"#utility.yul\":19545:19551   */\n      dup5\n        /* \"#utility.yul\":19540:19543   */\n      dup5\n        /* \"#utility.yul\":19536:19552   */\n      add\n        /* \"#utility.yul\":19529:19556   */\n      mstore\n        /* \"#utility.yul\":19378:19562   */\n      pop\n        /* \"#utility.yul\":19316:19562   */\n      pop\n      pop\n      pop\n      jump\t// out\n        /* \"#utility.yul\":19568:19954   */\n    tag_331:\n        /* \"#utility.yul\":19672:19675   */\n      0x00\n        /* \"#utility.yul\":19700:19738   */\n      tag_555\n        /* \"#utility.yul\":19732:19737   */\n      dup3\n        /* \"#utility.yul\":19700:19738   */\n      tag_328\n      jump\t// in\n    tag_555:\n        /* \"#utility.yul\":19754:19842   */\n      tag_556\n        /* \"#utility.yul\":19835:19841   */\n      dup2\n        /* \"#utility.yul\":19830:19833   */\n      dup6\n        /* \"#utility.yul\":19754:19842   */\n      tag_329\n      jump\t// in\n    tag_556:\n        /* \"#utility.yul\":19747:19842   */\n      swap4\n      pop\n        /* \"#utility.yul\":19851:19916   */\n      tag_557\n        /* \"#utility.yul\":19909:19915   */\n      dup2\n        /* \"#utility.yul\":19904:19907   */\n      dup6\n        /* \"#utility.yul\":19897:19901   */\n      0x20\n        /* \"#utility.yul\":19890:19895   */\n      dup7\n        /* \"#utility.yul\":19886:19902   */\n      add\n        /* \"#utility.yul\":19851:19916   */\n      tag_330\n      jump\t// in\n    tag_557:\n        /* \"#utility.yul\":19941:19947   */\n      dup1\n        /* \"#utility.yul\":19936:19939   */\n      dup5\n        /* \"#utility.yul\":19932:19948   */\n      add\n        /* \"#utility.yul\":19925:19948   */\n      swap2\n      pop\n        /* \"#utility.yul\":19676:19954   */\n      pop\n        /* \"#utility.yul\":19568:19954   */\n      swap3\n      swap2\n      pop\n      pop\n      jump\t// out\n        /* \"#utility.yul\":19960:20231   */\n    tag_149:\n        /* \"#utility.yul\":20090:20093   */\n      0x00\n        /* \"#utility.yul\":20112:20205   */\n      tag_559\n        /* \"#utility.yul\":20201:20204   */\n      dup3\n        /* \"#utility.yul\":20192:20198   */\n      dup5\n        /* \"#utility.yul\":20112:20205   */\n      tag_331\n      jump\t// in\n    tag_559:\n        /* \"#utility.yul\":20105:20205   */\n      swap2\n      pop\n        /* \"#utility.yul\":20222:20225   */\n      dup2\n        /* \"#utility.yul\":20215:20225   */\n      swap1\n      pop\n        /* \"#utility.yul\":19960:20231   */\n      swap3\n      swap2\n      pop\n      pop\n      jump\t// out\n        /* \"#utility.yul\":20237:20327   */\n    tag_332:\n        /* \"#utility.yul\":20271:20278   */\n      0x00\n        /* \"#utility.yul\":20314:20319   */\n      dup2\n        /* \"#utility.yul\":20307:20320   */\n      iszero\n        /* \"#utility.yul\":20300:20321   */\n      iszero\n        /* \"#utility.yul\":20289:20321   */\n      swap1\n      pop\n        /* \"#utility.yul\":20237:20327   */\n      swap2\n      swap1\n      pop\n      jump\t// out\n        /* \"#utility.yul\":20333:20449   */\n    tag_333:\n        /* \"#utility.yul\":20403:20424   */\n      tag_562\n        /* \"#utility.yul\":20418:20423   */\n      dup2\n        /* \"#utility.yul\":20403:20424   */\n      tag_332\n      jump\t// in\n    tag_562:\n        /* \"#utility.yul\":20396:20401   */\n      dup2\n        /* \"#utility.yul\":20393:20425   */\n      eq\n        /* \"#utility.yul\":20383:20443   */\n      tag_563\n      jumpi\n        /* \"#utility.yul\":20439:20440   */\n      0x00\n        /* \"#utility.yul\":20436:20437   */\n      dup1\n        /* \"#utility.yul\":20429:20441   */\n      revert\n        /* \"#utility.yul\":20383:20443   */\n    tag_563:\n        /* \"#utility.yul\":20333:20449   */\n      pop\n      jump\t// out\n        /* \"#utility.yul\":20455:20592   */\n    tag_334:\n        /* \"#utility.yul\":20509:20514   */\n      0x00\n        /* \"#utility.yul\":20540:20546   */\n      dup2\n        /* \"#utility.yul\":20534:20547   */\n      mload\n        /* \"#utility.yul\":20525:20547   */\n      swap1\n      pop\n        /* \"#utility.yul\":20556:20586   */\n      tag_565\n        /* \"#utility.yul\":20580:20585   */\n      dup2\n        /* \"#utility.yul\":20556:20586   */\n      tag_333\n      jump\t// in\n    tag_565:\n        /* \"#utility.yul\":20455:20592   */\n      swap3\n      swap2\n      pop\n      pop\n      jump\t// out\n        /* \"#utility.yul\":20598:20943   */\n    tag_156:\n        /* \"#utility.yul\":20665:20671   */\n      0x00\n        /* \"#utility.yul\":20714:20716   */\n      0x20\n        /* \"#utility.yul\":20702:20711   */\n      dup3\n        /* \"#utility.yul\":20693:20700   */\n      dup5\n        /* \"#utility.yul\":20689:20712   */\n      sub\n        /* \"#utility.yul\":20685:20717   */\n      slt\n        /* \"#utility.yul\":20682:20801   */\n      iszero\n      tag_567\n      jumpi\n        /* \"#utility.yul\":20720:20799   */\n      tag_568\n      tag_278\n      jump\t// in\n    tag_568:\n        /* \"#utility.yul\":20682:20801   */\n    tag_567:\n        /* \"#utility.yul\":20840:20841   */\n      0x00\n        /* \"#utility.yul\":20865:20926   */\n      tag_569\n        /* \"#utility.yul\":20918:20925   */\n      dup5\n        /* \"#utility.yul\":20909:20915   */\n      dup3\n        /* \"#utility.yul\":20898:20907   */\n      dup6\n        /* \"#utility.yul\":20894:20916   */\n      add\n        /* \"#utility.yul\":20865:20926   */\n      tag_334\n      jump\t// in\n    tag_569:\n        /* \"#utility.yul\":20855:20926   */\n      swap2\n      pop\n        /* \"#utility.yul\":20811:20936   */\n      pop\n        /* \"#utility.yul\":20598:20943   */\n      swap3\n      swap2\n      pop\n      pop\n      jump\t// out\n        /* \"#utility.yul\":20949:21183   */\n    tag_335:\n        /* \"#utility.yul\":21089:21123   */\n      0x45786368616e676541676772656761746f723a3a5472616e7366657248656c70\n        /* \"#utility.yul\":21085:21086   */\n      0x00\n        /* \"#utility.yul\":21077:21083   */\n      dup3\n        /* \"#utility.yul\":21073:21087   */\n      add\n        /* \"#utility.yul\":21066:21124   */\n      mstore\n        /* \"#utility.yul\":21158:21175   */\n      0x65723a736166655472616e736665720000000000000000000000000000000000\n        /* \"#utility.yul\":21153:21155   */\n      0x20\n        /* \"#utility.yul\":21145:21151   */\n      dup3\n        /* \"#utility.yul\":21141:21156   */\n      add\n        /* \"#utility.yul\":21134:21176   */\n      mstore\n        /* \"#utility.yul\":20949:21183   */\n      pop\n      jump\t// out\n        /* \"#utility.yul\":21189:21555   */\n    tag_336:\n        /* \"#utility.yul\":21331:21334   */\n      0x00\n        /* \"#utility.yul\":21352:21419   */\n      tag_572\n        /* \"#utility.yul\":21416:21418   */\n      0x2f\n        /* \"#utility.yul\":21411:21414   */\n      dup4\n        /* \"#utility.yul\":21352:21419   */\n      tag_304\n      jump\t// in\n    tag_572:\n        /* \"#utility.yul\":21345:21419   */\n      swap2\n      pop\n        /* \"#utility.yul\":21428:21521   */\n      tag_573\n        /* \"#utility.yul\":21517:21520   */\n      dup3\n        /* \"#utility.yul\":21428:21521   */\n      tag_335\n      jump\t// in\n    tag_573:\n        /* \"#utility.yul\":21546:21548   */\n      0x40\n        /* \"#utility.yul\":21541:21544   */\n      dup3\n        /* \"#utility.yul\":21537:21549   */\n      add\n        /* \"#utility.yul\":21530:21549   */\n      swap1\n      pop\n        /* \"#utility.yul\":21189:21555   */\n      swap2\n      swap1\n      pop\n      jump\t// out\n        /* \"#utility.yul\":21561:21980   */\n    tag_159:\n        /* \"#utility.yul\":21727:21731   */\n      0x00\n        /* \"#utility.yul\":21765:21767   */\n      0x20\n        /* \"#utility.yul\":21754:21763   */\n      dup3\n        /* \"#utility.yul\":21750:21768   */\n      add\n        /* \"#utility.yul\":21742:21768   */\n      swap1\n      pop\n        /* \"#utility.yul\":21814:21823   */\n      dup2\n        /* \"#utility.yul\":21808:21812   */\n      dup2\n        /* \"#utility.yul\":21804:21824   */\n      sub\n        /* \"#utility.yul\":21800:21801   */\n      0x00\n        /* \"#utility.yul\":21789:21798   */\n      dup4\n        /* \"#utility.yul\":21785:21802   */\n      add\n        /* \"#utility.yul\":21778:21825   */\n      mstore\n        /* \"#utility.yul\":21842:21973   */\n      tag_575\n        /* \"#utility.yul\":21968:21972   */\n      dup2\n        /* \"#utility.yul\":21842:21973   */\n      tag_336\n      jump\t// in\n    tag_575:\n        /* \"#utility.yul\":21834:21973   */\n      swap1\n      pop\n        /* \"#utility.yul\":21561:21980   */\n      swap2\n      swap1\n      pop\n      jump\t// out\n        /* \"#utility.yul\":21986:22166   */\n    tag_163:\n        /* \"#utility.yul\":22034:22111   */\n      0x4e487b7100000000000000000000000000000000000000000000000000000000\n        /* \"#utility.yul\":22031:22032   */\n      0x00\n        /* \"#utility.yul\":22024:22112   */\n      mstore\n        /* \"#utility.yul\":22131:22135   */\n      0x32\n        /* \"#utility.yul\":22128:22129   */\n      0x04\n        /* \"#utility.yul\":22121:22136   */\n      mstore\n        /* \"#utility.yul\":22155:22159   */\n      0x24\n        /* \"#utility.yul\":22152:22153   */\n      0x00\n        /* \"#utility.yul\":22145:22160   */\n      revert\n        /* \"#utility.yul\":22172:22335   */\n    tag_337:\n        /* \"#utility.yul\":22312:22327   */\n      0x646174612074616d706572656400000000000000000000000000000000000000\n        /* \"#utility.yul\":22308:22309   */\n      0x00\n        /* \"#utility.yul\":22300:22306   */\n      dup3\n        /* \"#utility.yul\":22296:22310   */\n      add\n        /* \"#utility.yul\":22289:22328   */\n      mstore\n        /* \"#utility.yul\":22172:22335   */\n      pop\n      jump\t// out\n        /* \"#utility.yul\":22341:22707   */\n    tag_338:\n        /* \"#utility.yul\":22483:22486   */\n      0x00\n        /* \"#utility.yul\":22504:22571   */\n      tag_579\n        /* \"#utility.yul\":22568:22570   */\n      0x0d\n        /* \"#utility.yul\":22563:22566   */\n      dup4\n        /* \"#utility.yul\":22504:22571   */\n      tag_304\n      jump\t// in\n    tag_579:\n        /* \"#utility.yul\":22497:22571   */\n      swap2\n      pop\n        /* \"#utility.yul\":22580:22673   */\n      tag_580\n        /* \"#utility.yul\":22669:22672   */\n      dup3\n        /* \"#utility.yul\":22580:22673   */\n      tag_337\n      jump\t// in\n    tag_580:\n        /* \"#utility.yul\":22698:22700   */\n      0x20\n        /* \"#utility.yul\":22693:22696   */\n      dup3\n        /* \"#utility.yul\":22689:22701   */\n      add\n        /* \"#utility.yul\":22682:22701   */\n      swap1\n      pop\n        /* \"#utility.yul\":22341:22707   */\n      swap2\n      swap1\n      pop\n      jump\t// out\n        /* \"#utility.yul\":22713:23132   */\n    tag_175:\n        /* \"#utility.yul\":22879:22883   */\n      0x00\n        /* \"#utility.yul\":22917:22919   */\n      0x20\n        /* \"#utility.yul\":22906:22915   */\n      dup3\n        /* \"#utility.yul\":22902:22920   */\n      add\n        /* \"#utility.yul\":22894:22920   */\n      swap1\n      pop\n        /* \"#utility.yul\":22966:22975   */\n      dup2\n        /* \"#utility.yul\":22960:22964   */\n      dup2\n        /* \"#utility.yul\":22956:22976   */\n      sub\n        /* \"#utility.yul\":22952:22953   */\n      0x00\n        /* \"#utility.yul\":22941:22950   */\n      dup4\n        /* \"#utility.yul\":22937:22954   */\n      add\n        /* \"#utility.yul\":22930:22977   */\n      mstore\n        /* \"#utility.yul\":22994:23125   */\n      tag_582\n        /* \"#utility.yul\":23120:23124   */\n      dup2\n        /* \"#utility.yul\":22994:23125   */\n      tag_338\n      jump\t// in\n    tag_582:\n        /* \"#utility.yul\":22986:23125   */\n      swap1\n      pop\n        /* \"#utility.yul\":22713:23132   */\n      swap2\n      swap1\n      pop\n      jump\t// out\n        /* \"#utility.yul\":23138:23580   */\n    tag_178:\n        /* \"#utility.yul\":23287:23291   */\n      0x00\n        /* \"#utility.yul\":23325:23327   */\n      0x60\n        /* \"#utility.yul\":23314:23323   */\n      dup3\n        /* \"#utility.yul\":23310:23328   */\n      add\n        /* \"#utility.yul\":23302:23328   */\n      swap1\n      pop\n        /* \"#utility.yul\":23338:23409   */\n      tag_584\n        /* \"#utility.yul\":23406:23407   */\n      0x00\n        /* \"#utility.yul\":23395:23404   */\n      dup4\n        /* \"#utility.yul\":23391:23408   */\n      add\n        /* \"#utility.yul\":23382:23388   */\n      dup7\n        /* \"#utility.yul\":23338:23409   */\n      tag_294\n      jump\t// in\n    tag_584:\n        /* \"#utility.yul\":23419:23491   */\n      tag_585\n        /* \"#utility.yul\":23487:23489   */\n      0x20\n        /* \"#utility.yul\":23476:23485   */\n      dup4\n        /* \"#utility.yul\":23472:23490   */\n      add\n        /* \"#utility.yul\":23463:23469   */\n      dup6\n        /* \"#utility.yul\":23419:23491   */\n      tag_294\n      jump\t// in\n    tag_585:\n        /* \"#utility.yul\":23501:23573   */\n      tag_586\n        /* \"#utility.yul\":23569:23571   */\n      0x40\n        /* \"#utility.yul\":23558:23567   */\n      dup4\n        /* \"#utility.yul\":23554:23572   */\n      add\n        /* \"#utility.yul\":23545:23551   */\n      dup5\n        /* \"#utility.yul\":23501:23573   */\n      tag_287\n      jump\t// in\n    tag_586:\n        /* \"#utility.yul\":23138:23580   */\n      swap5\n      swap4\n      pop\n      pop\n      pop\n      pop\n      jump\t// out\n        /* \"#utility.yul\":23586:23824   */\n    tag_339:\n        /* \"#utility.yul\":23726:23760   */\n      0x45786368616e676541676772656761746f723a3a5472616e7366657248656c70\n        /* \"#utility.yul\":23722:23723   */\n      0x00\n        /* \"#utility.yul\":23714:23720   */\n      dup3\n        /* \"#utility.yul\":23710:23724   */\n      add\n        /* \"#utility.yul\":23703:23761   */\n      mstore\n        /* \"#utility.yul\":23795:23816   */\n      0x65723a736166655472616e7366657246726f6d00000000000000000000000000\n        /* \"#utility.yul\":23790:23792   */\n      0x20\n        /* \"#utility.yul\":23782:23788   */\n      dup3\n        /* \"#utility.yul\":23778:23793   */\n      add\n        /* \"#utility.yul\":23771:23817   */\n      mstore\n        /* \"#utility.yul\":23586:23824   */\n      pop\n      jump\t// out\n        /* \"#utility.yul\":23830:24196   */\n    tag_340:\n        /* \"#utility.yul\":23972:23975   */\n      0x00\n        /* \"#utility.yul\":23993:24060   */\n      tag_589\n        /* \"#utility.yul\":24057:24059   */\n      0x33\n        /* \"#utility.yul\":24052:24055   */\n      dup4\n        /* \"#utility.yul\":23993:24060   */\n      tag_304\n      jump\t// in\n    tag_589:\n        /* \"#utility.yul\":23986:24060   */\n      swap2\n      pop\n        /* \"#utility.yul\":24069:24162   */\n      tag_590\n        /* \"#utility.yul\":24158:24161   */\n      dup3\n        /* \"#utility.yul\":24069:24162   */\n      tag_339\n      jump\t// in\n    tag_590:\n        /* \"#utility.yul\":24187:24189   */\n      0x40\n        /* \"#utility.yul\":24182:24185   */\n      dup3\n        /* \"#utility.yul\":24178:24190   */\n      add\n        /* \"#utility.yul\":24171:24190   */\n      swap1\n      pop\n        /* \"#utility.yul\":23830:24196   */\n      swap2\n      swap1\n      pop\n      jump\t// out\n        /* \"#utility.yul\":24202:24621   */\n    tag_188:\n        /* \"#utility.yul\":24368:24372   */\n      0x00\n        /* \"#utility.yul\":24406:24408   */\n      0x20\n        /* \"#utility.yul\":24395:24404   */\n      dup3\n        /* \"#utility.yul\":24391:24409   */\n      add\n        /* \"#utility.yul\":24383:24409   */\n      swap1\n      pop\n        /* \"#utility.yul\":24455:24464   */\n      dup2\n        /* \"#utility.yul\":24449:24453   */\n      dup2\n        /* \"#utility.yul\":24445:24465   */\n      sub\n        /* \"#utility.yul\":24441:24442   */\n      0x00\n        /* \"#utility.yul\":24430:24439   */\n      dup4\n        /* \"#utility.yul\":24426:24443   */\n      add\n        /* \"#utility.yul\":24419:24466   */\n      mstore\n        /* \"#utility.yul\":24483:24614   */\n      tag_592\n        /* \"#utility.yul\":24609:24613   */\n      dup2\n        /* \"#utility.yul\":24483:24614   */\n      tag_340\n      jump\t// in\n    tag_592:\n        /* \"#utility.yul\":24475:24614   */\n      swap1\n      pop\n        /* \"#utility.yul\":24202:24621   */\n      swap2\n      swap1\n      pop\n      jump\t// out\n        /* \"#utility.yul\":24627:24860   */\n    tag_341:\n        /* \"#utility.yul\":24767:24801   */\n      0x45786368616e676541676772656761746f723a3a5472616e7366657248656c70\n        /* \"#utility.yul\":24763:24764   */\n      0x00\n        /* \"#utility.yul\":24755:24761   */\n      dup3\n        /* \"#utility.yul\":24751:24765   */\n      add\n        /* \"#utility.yul\":24744:24802   */\n      mstore\n        /* \"#utility.yul\":24836:24852   */\n      0x65723a73616665417070726f7665000000000000000000000000000000000000\n        /* \"#utility.yul\":24831:24833   */\n      0x20\n        /* \"#utility.yul\":24823:24829   */\n      dup3\n        /* \"#utility.yul\":24819:24834   */\n      add\n        /* \"#utility.yul\":24812:24853   */\n      mstore\n        /* \"#utility.yul\":24627:24860   */\n      pop\n      jump\t// out\n        /* \"#utility.yul\":24866:25232   */\n    tag_342:\n        /* \"#utility.yul\":25008:25011   */\n      0x00\n        /* \"#utility.yul\":25029:25096   */\n      tag_595\n        /* \"#utility.yul\":25093:25095   */\n      0x2e\n        /* \"#utility.yul\":25088:25091   */\n      dup4\n        /* \"#utility.yul\":25029:25096   */\n      tag_304\n      jump\t// in\n    tag_595:\n        /* \"#utility.yul\":25022:25096   */\n      swap2\n      pop\n        /* \"#utility.yul\":25105:25198   */\n      tag_596\n        /* \"#utility.yul\":25194:25197   */\n      dup3\n        /* \"#utility.yul\":25105:25198   */\n      tag_341\n      jump\t// in\n    tag_596:\n        /* \"#utility.yul\":25223:25225   */\n      0x40\n        /* \"#utility.yul\":25218:25221   */\n      dup3\n        /* \"#utility.yul\":25214:25226   */\n      add\n        /* \"#utility.yul\":25207:25226   */\n      swap1\n      pop\n        /* \"#utility.yul\":24866:25232   */\n      swap2\n      swap1\n      pop\n      jump\t// out\n        /* \"#utility.yul\":25238:25657   */\n    tag_200:\n        /* \"#utility.yul\":25404:25408   */\n      0x00\n        /* \"#utility.yul\":25442:25444   */\n      0x20\n        /* \"#utility.yul\":25431:25440   */\n      dup3\n        /* \"#utility.yul\":25427:25445   */\n      add\n        /* \"#utility.yul\":25419:25445   */\n      swap1\n      pop\n        /* \"#utility.yul\":25491:25500   */\n      dup2\n        /* \"#utility.yul\":25485:25489   */\n      dup2\n        /* \"#utility.yul\":25481:25501   */\n      sub\n        /* \"#utility.yul\":25477:25478   */\n      0x00\n        /* \"#utility.yul\":25466:25475   */\n      dup4\n        /* \"#utility.yul\":25462:25479   */\n      add\n        /* \"#utility.yul\":25455:25502   */\n      mstore\n        /* \"#utility.yul\":25519:25650   */\n      tag_598\n        /* \"#utility.yul\":25645:25649   */\n      dup2\n        /* \"#utility.yul\":25519:25650   */\n      tag_342\n      jump\t// in\n    tag_598:\n        /* \"#utility.yul\":25511:25650   */\n      swap1\n      pop\n        /* \"#utility.yul\":25238:25657   */\n      swap2\n      swap1\n      pop\n      jump\t// out\n        /* \"#utility.yul\":25663:25889   */\n    tag_343:\n        /* \"#utility.yul\":25803:25837   */\n      0x45786368616e676541676772656761746f723a3a5361666543616c6c65723a73\n        /* \"#utility.yul\":25799:25800   */\n      0x00\n        /* \"#utility.yul\":25791:25797   */\n      dup3\n        /* \"#utility.yul\":25787:25801   */\n      add\n        /* \"#utility.yul\":25780:25838   */\n      mstore\n        /* \"#utility.yul\":25872:25881   */\n      0x61666543616c6c00000000000000000000000000000000000000000000000000\n        /* \"#utility.yul\":25867:25869   */\n      0x20\n        /* \"#utility.yul\":25859:25865   */\n      dup3\n        /* \"#utility.yul\":25855:25870   */\n      add\n        /* \"#utility.yul\":25848:25882   */\n      mstore\n        /* \"#utility.yul\":25663:25889   */\n      pop\n      jump\t// out\n        /* \"#utility.yul\":25895:26261   */\n    tag_344:\n        /* \"#utility.yul\":26037:26040   */\n      0x00\n        /* \"#utility.yul\":26058:26125   */\n      tag_601\n        /* \"#utility.yul\":26122:26124   */\n      0x27\n        /* \"#utility.yul\":26117:26120   */\n      dup4\n        /* \"#utility.yul\":26058:26125   */\n      tag_304\n      jump\t// in\n    tag_601:\n        /* \"#utility.yul\":26051:26125   */\n      swap2\n      pop\n        /* \"#utility.yul\":26134:26227   */\n      tag_602\n        /* \"#utility.yul\":26223:26226   */\n      dup3\n        /* \"#utility.yul\":26134:26227   */\n      tag_343\n      jump\t// in\n    tag_602:\n        /* \"#utility.yul\":26252:26254   */\n      0x40\n        /* \"#utility.yul\":26247:26250   */\n      dup3\n        /* \"#utility.yul\":26243:26255   */\n      add\n        /* \"#utility.yul\":26236:26255   */\n      swap1\n      pop\n        /* \"#utility.yul\":25895:26261   */\n      swap2\n      swap1\n      pop\n      jump\t// out\n        /* \"#utility.yul\":26267:26686   */\n    tag_209:\n        /* \"#utility.yul\":26433:26437   */\n      0x00\n        /* \"#utility.yul\":26471:26473   */\n      0x20\n        /* \"#utility.yul\":26460:26469   */\n      dup3\n        /* \"#utility.yul\":26456:26474   */\n      add\n        /* \"#utility.yul\":26448:26474   */\n      swap1\n      pop\n        /* \"#utility.yul\":26520:26529   */\n      dup2\n        /* \"#utility.yul\":26514:26518   */\n      dup2\n        /* \"#utility.yul\":26510:26530   */\n      sub\n        /* \"#utility.yul\":26506:26507   */\n      0x00\n        /* \"#utility.yul\":26495:26504   */\n      dup4\n        /* \"#utility.yul\":26491:26508   */\n      add\n        /* \"#utility.yul\":26484:26531   */\n      mstore\n        /* \"#utility.yul\":26548:26679   */\n      tag_604\n        /* \"#utility.yul\":26674:26678   */\n      dup2\n        /* \"#utility.yul\":26548:26679   */\n      tag_344\n      jump\t// in\n    tag_604:\n        /* \"#utility.yul\":26540:26679   */\n      swap1\n      pop\n        /* \"#utility.yul\":26267:26686   */\n      swap2\n      swap1\n      pop\n      jump\t// out\n        /* \"#utility.yul\":26692:27000   */\n    tag_345:\n        /* \"#utility.yul\":26754:26758   */\n      0x00\n        /* \"#utility.yul\":26844:26862   */\n      0xffffffffffffffff\n        /* \"#utility.yul\":26836:26842   */\n      dup3\n        /* \"#utility.yul\":26833:26863   */\n      gt\n        /* \"#utility.yul\":26830:26886   */\n      iszero\n      tag_606\n      jumpi\n        /* \"#utility.yul\":26866:26884   */\n      tag_607\n      tag_217\n      jump\t// in\n    tag_607:\n        /* \"#utility.yul\":26830:26886   */\n    tag_606:\n        /* \"#utility.yul\":26904:26933   */\n      tag_608\n        /* \"#utility.yul\":26926:26932   */\n      dup3\n        /* \"#utility.yul\":26904:26933   */\n      tag_296\n      jump\t// in\n    tag_608:\n        /* \"#utility.yul\":26896:26933   */\n      swap1\n      pop\n        /* \"#utility.yul\":26988:26992   */\n      0x20\n        /* \"#utility.yul\":26982:26986   */\n      dup2\n        /* \"#utility.yul\":26978:26993   */\n      add\n        /* \"#utility.yul\":26970:26993   */\n      swap1\n      pop\n        /* \"#utility.yul\":26692:27000   */\n      swap2\n      swap1\n      pop\n      jump\t// out\n        /* \"#utility.yul\":27006:27440   */\n    tag_346:\n        /* \"#utility.yul\":27095:27100   */\n      0x00\n        /* \"#utility.yul\":27120:27186   */\n      tag_610\n        /* \"#utility.yul\":27136:27185   */\n      tag_611\n        /* \"#utility.yul\":27178:27184   */\n      dup5\n        /* \"#utility.yul\":27136:27185   */\n      tag_345\n      jump\t// in\n    tag_611:\n        /* \"#utility.yul\":27120:27186   */\n      tag_298\n      jump\t// in\n    tag_610:\n        /* \"#utility.yul\":27111:27186   */\n      swap1\n      pop\n        /* \"#utility.yul\":27209:27215   */\n      dup3\n        /* \"#utility.yul\":27202:27207   */\n      dup2\n        /* \"#utility.yul\":27195:27216   */\n      mstore\n        /* \"#utility.yul\":27247:27251   */\n      0x20\n        /* \"#utility.yul\":27240:27245   */\n      dup2\n        /* \"#utility.yul\":27236:27252   */\n      add\n        /* \"#utility.yul\":27285:27288   */\n      dup5\n        /* \"#utility.yul\":27276:27282   */\n      dup5\n        /* \"#utility.yul\":27271:27274   */\n      dup5\n        /* \"#utility.yul\":27267:27283   */\n      add\n        /* \"#utility.yul\":27264:27289   */\n      gt\n        /* \"#utility.yul\":27261:27373   */\n      iszero\n      tag_612\n      jumpi\n        /* \"#utility.yul\":27292:27371   */\n      tag_613\n      tag_295\n      jump\t// in\n    tag_613:\n        /* \"#utility.yul\":27261:27373   */\n    tag_612:\n        /* \"#utility.yul\":27382:27434   */\n      tag_614\n        /* \"#utility.yul\":27427:27433   */\n      dup5\n        /* \"#utility.yul\":27422:27425   */\n      dup3\n        /* \"#utility.yul\":27417:27420   */\n      dup6\n        /* \"#utility.yul\":27382:27434   */\n      tag_330\n      jump\t// in\n    tag_614:\n        /* \"#utility.yul\":27101:27440   */\n      pop\n        /* \"#utility.yul\":27006:27440   */\n      swap4\n      swap3\n      pop\n      pop\n      pop\n      jump\t// out\n        /* \"#utility.yul\":27460:27815   */\n    tag_347:\n        /* \"#utility.yul\":27527:27532   */\n      0x00\n        /* \"#utility.yul\":27576:27579   */\n      dup3\n        /* \"#utility.yul\":27569:27573   */\n      0x1f\n        /* \"#utility.yul\":27561:27567   */\n      dup4\n        /* \"#utility.yul\":27557:27574   */\n      add\n        /* \"#utility.yul\":27553:27580   */\n      slt\n        /* \"#utility.yul\":27543:27665   */\n      tag_616\n      jumpi\n        /* \"#utility.yul\":27584:27663   */\n      tag_617\n      tag_290\n      jump\t// in\n    tag_617:\n        /* \"#utility.yul\":27543:27665   */\n    tag_616:\n        /* \"#utility.yul\":27694:27700   */\n      dup2\n        /* \"#utility.yul\":27688:27701   */\n      mload\n        /* \"#utility.yul\":27719:27809   */\n      tag_618\n        /* \"#utility.yul\":27805:27808   */\n      dup5\n        /* \"#utility.yul\":27797:27803   */\n      dup3\n        /* \"#utility.yul\":27790:27794   */\n      0x20\n        /* \"#utility.yul\":27782:27788   */\n      dup7\n        /* \"#utility.yul\":27778:27795   */\n      add\n        /* \"#utility.yul\":27719:27809   */\n      tag_346\n      jump\t// in\n    tag_618:\n        /* \"#utility.yul\":27710:27809   */\n      swap2\n      pop\n        /* \"#utility.yul\":27533:27815   */\n      pop\n        /* \"#utility.yul\":27460:27815   */\n      swap3\n      swap2\n      pop\n      pop\n      jump\t// out\n        /* \"#utility.yul\":27821:28345   */\n    tag_211:\n        /* \"#utility.yul\":27901:27907   */\n      0x00\n        /* \"#utility.yul\":27950:27952   */\n      0x20\n        /* \"#utility.yul\":27938:27947   */\n      dup3\n        /* \"#utility.yul\":27929:27936   */\n      dup5\n        /* \"#utility.yul\":27925:27948   */\n      sub\n        /* \"#utility.yul\":27921:27953   */\n      slt\n        /* \"#utility.yul\":27918:28037   */\n      iszero\n      tag_620\n      jumpi\n        /* \"#utility.yul\":27956:28035   */\n      tag_621\n      tag_278\n      jump\t// in\n    tag_621:\n        /* \"#utility.yul\":27918:28037   */\n    tag_620:\n        /* \"#utility.yul\":28097:28098   */\n      0x00\n        /* \"#utility.yul\":28086:28095   */\n      dup3\n        /* \"#utility.yul\":28082:28099   */\n      add\n        /* \"#utility.yul\":28076:28100   */\n      mload\n        /* \"#utility.yul\":28127:28145   */\n      0xffffffffffffffff\n        /* \"#utility.yul\":28119:28125   */\n      dup2\n        /* \"#utility.yul\":28116:28146   */\n      gt\n        /* \"#utility.yul\":28113:28230   */\n      iszero\n      tag_622\n      jumpi\n        /* \"#utility.yul\":28149:28228   */\n      tag_623\n      tag_279\n      jump\t// in\n    tag_623:\n        /* \"#utility.yul\":28113:28230   */\n    tag_622:\n        /* \"#utility.yul\":28254:28328   */\n      tag_624\n        /* \"#utility.yul\":28320:28327   */\n      dup5\n        /* \"#utility.yul\":28311:28317   */\n      dup3\n        /* \"#utility.yul\":28300:28309   */\n      dup6\n        /* \"#utility.yul\":28296:28318   */\n      add\n        /* \"#utility.yul\":28254:28328   */\n      tag_347\n      jump\t// in\n    tag_624:\n        /* \"#utility.yul\":28244:28328   */\n      swap2\n      pop\n        /* \"#utility.yul\":28047:28338   */\n      pop\n        /* \"#utility.yul\":27821:28345   */\n      swap3\n      swap2\n      pop\n      pop\n      jump\t// out\n        /* \"#utility.yul\":28351:28450   */\n    tag_348:\n        /* \"#utility.yul\":28403:28409   */\n      0x00\n        /* \"#utility.yul\":28437:28442   */\n      dup2\n        /* \"#utility.yul\":28431:28443   */\n      mload\n        /* \"#utility.yul\":28421:28443   */\n      swap1\n      pop\n        /* \"#utility.yul\":28351:28450   */\n      swap2\n      swap1\n      pop\n      jump\t// out\n        /* \"#utility.yul\":28456:28833   */\n    tag_349:\n        /* \"#utility.yul\":28544:28547   */\n      0x00\n        /* \"#utility.yul\":28572:28611   */\n      tag_627\n        /* \"#utility.yul\":28605:28610   */\n      dup3\n        /* \"#utility.yul\":28572:28611   */\n      tag_348\n      jump\t// in\n    tag_627:\n        /* \"#utility.yul\":28627:28698   */\n      tag_628\n        /* \"#utility.yul\":28691:28697   */\n      dup2\n        /* \"#utility.yul\":28686:28689   */\n      dup6\n        /* \"#utility.yul\":28627:28698   */\n      tag_304\n      jump\t// in\n    tag_628:\n        /* \"#utility.yul\":28620:28698   */\n      swap4\n      pop\n        /* \"#utility.yul\":28707:28772   */\n      tag_629\n        /* \"#utility.yul\":28765:28771   */\n      dup2\n        /* \"#utility.yul\":28760:28763   */\n      dup6\n        /* \"#utility.yul\":28753:28757   */\n      0x20\n        /* \"#utility.yul\":28746:28751   */\n      dup7\n        /* \"#utility.yul\":28742:28758   */\n      add\n        /* \"#utility.yul\":28707:28772   */\n      tag_330\n      jump\t// in\n    tag_629:\n        /* \"#utility.yul\":28797:28826   */\n      tag_630\n        /* \"#utility.yul\":28819:28825   */\n      dup2\n        /* \"#utility.yul\":28797:28826   */\n      tag_296\n      jump\t// in\n    tag_630:\n        /* \"#utility.yul\":28792:28795   */\n      dup5\n        /* \"#utility.yul\":28788:28827   */\n      add\n        /* \"#utility.yul\":28781:28827   */\n      swap2\n      pop\n        /* \"#utility.yul\":28548:28833   */\n      pop\n        /* \"#utility.yul\":28456:28833   */\n      swap3\n      swap2\n      pop\n      pop\n      jump\t// out\n        /* \"#utility.yul\":28839:29152   */\n    tag_213:\n        /* \"#utility.yul\":28952:28956   */\n      0x00\n        /* \"#utility.yul\":28990:28992   */\n      0x20\n        /* \"#utility.yul\":28979:28988   */\n      dup3\n        /* \"#utility.yul\":28975:28993   */\n      add\n        /* \"#utility.yul\":28967:28993   */\n      swap1\n      pop\n        /* \"#utility.yul\":29039:29048   */\n      dup2\n        /* \"#utility.yul\":29033:29037   */\n      dup2\n        /* \"#utility.yul\":29029:29049   */\n      sub\n        /* \"#utility.yul\":29025:29026   */\n      0x00\n        /* \"#utility.yul\":29014:29023   */\n      dup4\n        /* \"#utility.yul\":29010:29027   */\n      add\n        /* \"#utility.yul\":29003:29050   */\n      mstore\n        /* \"#utility.yul\":29067:29145   */\n      tag_632\n        /* \"#utility.yul\":29140:29144   */\n      dup2\n        /* \"#utility.yul\":29131:29137   */\n      dup5\n        /* \"#utility.yul\":29067:29145   */\n      tag_349\n      jump\t// in\n    tag_632:\n        /* \"#utility.yul\":29059:29145   */\n      swap1\n      pop\n        /* \"#utility.yul\":28839:29152   */\n      swap3\n      swap2\n      pop\n      pop\n      jump\t// out\n        /* \"#utility.yul\":29158:29395   */\n    tag_350:\n        /* \"#utility.yul\":29298:29332   */\n      0x45786368616e676541676772656761746f723a3a5472616e7366657248656c70\n        /* \"#utility.yul\":29294:29295   */\n      0x00\n        /* \"#utility.yul\":29286:29292   */\n      dup3\n        /* \"#utility.yul\":29282:29296   */\n      add\n        /* \"#utility.yul\":29275:29333   */\n      mstore\n        /* \"#utility.yul\":29367:29387   */\n      0x65723a736166655472616e736665724554480000000000000000000000000000\n        /* \"#utility.yul\":29362:29364   */\n      0x20\n        /* \"#utility.yul\":29354:29360   */\n      dup3\n        /* \"#utility.yul\":29350:29365   */\n      add\n        /* \"#utility.yul\":29343:29388   */\n      mstore\n        /* \"#utility.yul\":29158:29395   */\n      pop\n      jump\t// out\n        /* \"#utility.yul\":29401:29767   */\n    tag_351:\n        /* \"#utility.yul\":29543:29546   */\n      0x00\n        /* \"#utility.yul\":29564:29631   */\n      tag_635\n        /* \"#utility.yul\":29628:29630   */\n      0x32\n        /* \"#utility.yul\":29623:29626   */\n      dup4\n        /* \"#utility.yul\":29564:29631   */\n      tag_304\n      jump\t// in\n    tag_635:\n        /* \"#utility.yul\":29557:29631   */\n      swap2\n      pop\n        /* \"#utility.yul\":29640:29733   */\n      tag_636\n        /* \"#utility.yul\":29729:29732   */\n      dup3\n        /* \"#utility.yul\":29640:29733   */\n      tag_350\n      jump\t// in\n    tag_636:\n        /* \"#utility.yul\":29758:29760   */\n      0x40\n        /* \"#utility.yul\":29753:29756   */\n      dup3\n        /* \"#utility.yul\":29749:29761   */\n      add\n        /* \"#utility.yul\":29742:29761   */\n      swap1\n      pop\n        /* \"#utility.yul\":29401:29767   */\n      swap2\n      swap1\n      pop\n      jump\t// out\n        /* \"#utility.yul\":29773:30192   */\n    tag_225:\n        /* \"#utility.yul\":29939:29943   */\n      0x00\n        /* \"#utility.yul\":29977:29979   */\n      0x20\n        /* \"#utility.yul\":29966:29975   */\n      dup3\n        /* \"#utility.yul\":29962:29980   */\n      add\n        /* \"#utility.yul\":29954:29980   */\n      swap1\n      pop\n        /* \"#utility.yul\":30026:30035   */\n      dup2\n        /* \"#utility.yul\":30020:30024   */\n      dup2\n        /* \"#utility.yul\":30016:30036   */\n      sub\n        /* \"#utility.yul\":30012:30013   */\n      0x00\n        /* \"#utility.yul\":30001:30010   */\n      dup4\n        /* \"#utility.yul\":29997:30014   */\n      add\n        /* \"#utility.yul\":29990:30037   */\n      mstore\n        /* \"#utility.yul\":30054:30185   */\n      tag_638\n        /* \"#utility.yul\":30180:30184   */\n      dup2\n        /* \"#utility.yul\":30054:30185   */\n      tag_351\n      jump\t// in\n    tag_638:\n        /* \"#utility.yul\":30046:30185   */\n      swap1\n      pop\n        /* \"#utility.yul\":29773:30192   */\n      swap2\n      swap1\n      pop\n      jump\t// out\n        /* \"#utility.yul\":30198:30378   */\n    tag_242:\n        /* \"#utility.yul\":30246:30323   */\n      0x4e487b7100000000000000000000000000000000000000000000000000000000\n        /* \"#utility.yul\":30243:30244   */\n      0x00\n        /* \"#utility.yul\":30236:30324   */\n      mstore\n        /* \"#utility.yul\":30343:30347   */\n      0x21\n        /* \"#utility.yul\":30340:30341   */\n      0x04\n        /* \"#utility.yul\":30333:30348   */\n      mstore\n        /* \"#utility.yul\":30367:30371   */\n      0x24\n        /* \"#utility.yul\":30364:30365   */\n      0x00\n        /* \"#utility.yul\":30357:30372   */\n      revert\n        /* \"#utility.yul\":30384:30558   */\n    tag_352:\n        /* \"#utility.yul\":30524:30550   */\n      0x45434453413a20696e76616c6964207369676e61747572650000000000000000\n        /* \"#utility.yul\":30520:30521   */\n      0x00\n        /* \"#utility.yul\":30512:30518   */\n      dup3\n        /* \"#utility.yul\":30508:30522   */\n      add\n        /* \"#utility.yul\":30501:30551   */\n      mstore\n        /* \"#utility.yul\":30384:30558   */\n      pop\n      jump\t// out\n        /* \"#utility.yul\":30564:30930   */\n    tag_353:\n        /* \"#utility.yul\":30706:30709   */\n      0x00\n        /* \"#utility.yul\":30727:30794   */\n      tag_642\n        /* \"#utility.yul\":30791:30793   */\n      0x18\n        /* \"#utility.yul\":30786:30789   */\n      dup4\n        /* \"#utility.yul\":30727:30794   */\n      tag_304\n      jump\t// in\n    tag_642:\n        /* \"#utility.yul\":30720:30794   */\n      swap2\n      pop\n        /* \"#utility.yul\":30803:30896   */\n      tag_643\n        /* \"#utility.yul\":30892:30895   */\n      dup3\n        /* \"#utility.yul\":30803:30896   */\n      tag_352\n      jump\t// in\n    tag_643:\n        /* \"#utility.yul\":30921:30923   */\n      0x20\n        /* \"#utility.yul\":30916:30919   */\n      dup3\n        /* \"#utility.yul\":30912:30924   */\n      add\n        /* \"#utility.yul\":30905:30924   */\n      swap1\n      pop\n        /* \"#utility.yul\":30564:30930   */\n      swap2\n      swap1\n      pop\n      jump\t// out\n        /* \"#utility.yul\":30936:31355   */\n    tag_253:\n        /* \"#utility.yul\":31102:31106   */\n      0x00\n        /* \"#utility.yul\":31140:31142   */\n      0x20\n        /* \"#utility.yul\":31129:31138   */\n      dup3\n        /* \"#utility.yul\":31125:31143   */\n      add\n        /* \"#utility.yul\":31117:31143   */\n      swap1\n      pop\n        /* \"#utility.yul\":31189:31198   */\n      dup2\n        /* \"#utility.yul\":31183:31187   */\n      dup2\n        /* \"#utility.yul\":31179:31199   */\n      sub\n        /* \"#utility.yul\":31175:31176   */\n      0x00\n        /* \"#utility.yul\":31164:31173   */\n      dup4\n        /* \"#utility.yul\":31160:31177   */\n      add\n        /* \"#utility.yul\":31153:31200   */\n      mstore\n        /* \"#utility.yul\":31217:31348   */\n      tag_645\n        /* \"#utility.yul\":31343:31347   */\n      dup2\n        /* \"#utility.yul\":31217:31348   */\n      tag_353\n      jump\t// in\n    tag_645:\n        /* \"#utility.yul\":31209:31348   */\n      swap1\n      pop\n        /* \"#utility.yul\":30936:31355   */\n      swap2\n      swap1\n      pop\n      jump\t// out\n        /* \"#utility.yul\":31361:31542   */\n    tag_354:\n        /* \"#utility.yul\":31501:31534   */\n      0x45434453413a20696e76616c6964207369676e6174757265206c656e67746800\n        /* \"#utility.yul\":31497:31498   */\n      0x00\n        /* \"#utility.yul\":31489:31495   */\n      dup3\n        /* \"#utility.yul\":31485:31499   */\n      add\n        /* \"#utility.yul\":31478:31535   */\n      mstore\n        /* \"#utility.yul\":31361:31542   */\n      pop\n      jump\t// out\n        /* \"#utility.yul\":31548:31914   */\n    tag_355:\n        /* \"#utility.yul\":31690:31693   */\n      0x00\n        /* \"#utility.yul\":31711:31778   */\n      tag_648\n        /* \"#utility.yul\":31775:31777   */\n      0x1f\n        /* \"#utility.yul\":31770:31773   */\n      dup4\n        /* \"#utility.yul\":31711:31778   */\n      tag_304\n      jump\t// in\n    tag_648:\n        /* \"#utility.yul\":31704:31778   */\n      swap2\n      pop\n        /* \"#utility.yul\":31787:31880   */\n      tag_649\n        /* \"#utility.yul\":31876:31879   */\n      dup3\n        /* \"#utility.yul\":31787:31880   */\n      tag_354\n      jump\t// in\n    tag_649:\n        /* \"#utility.yul\":31905:31907   */\n      0x20\n        /* \"#utility.yul\":31900:31903   */\n      dup3\n        /* \"#utility.yul\":31896:31908   */\n      add\n        /* \"#utility.yul\":31889:31908   */\n      swap1\n      pop\n        /* \"#utility.yul\":31548:31914   */\n      swap2\n      swap1\n      pop\n      jump\t// out\n        /* \"#utility.yul\":31920:32339   */\n    tag_261:\n        /* \"#utility.yul\":32086:32090   */\n      0x00\n        /* \"#utility.yul\":32124:32126   */\n      0x20\n        /* \"#utility.yul\":32113:32122   */\n      dup3\n        /* \"#utility.yul\":32109:32127   */\n      add\n        /* \"#utility.yul\":32101:32127   */\n      swap1\n      pop\n        /* \"#utility.yul\":32173:32182   */\n      dup2\n        /* \"#utility.yul\":32167:32171   */\n      dup2\n        /* \"#utility.yul\":32163:32183   */\n      sub\n        /* \"#utility.yul\":32159:32160   */\n      0x00\n        /* \"#utility.yul\":32148:32157   */\n      dup4\n        /* \"#utility.yul\":32144:32161   */\n      add\n        /* \"#utility.yul\":32137:32184   */\n      mstore\n        /* \"#utility.yul\":32201:32332   */\n      tag_651\n        /* \"#utility.yul\":32327:32331   */\n      dup2\n        /* \"#utility.yul\":32201:32332   */\n      tag_355\n      jump\t// in\n    tag_651:\n        /* \"#utility.yul\":32193:32332   */\n      swap1\n      pop\n        /* \"#utility.yul\":31920:32339   */\n      swap2\n      swap1\n      pop\n      jump\t// out\n        /* \"#utility.yul\":32345:32566   */\n    tag_356:\n        /* \"#utility.yul\":32485:32519   */\n      0x45434453413a20696e76616c6964207369676e6174757265202773272076616c\n        /* \"#utility.yul\":32481:32482   */\n      0x00\n        /* \"#utility.yul\":32473:32479   */\n      dup3\n        /* \"#utility.yul\":32469:32483   */\n      add\n        /* \"#utility.yul\":32462:32520   */\n      mstore\n        /* \"#utility.yul\":32554:32558   */\n      0x7565000000000000000000000000000000000000000000000000000000000000\n        /* \"#utility.yul\":32549:32551   */\n      0x20\n        /* \"#utility.yul\":32541:32547   */\n      dup3\n        /* \"#utility.yul\":32537:32552   */\n      add\n        /* \"#utility.yul\":32530:32559   */\n      mstore\n        /* \"#utility.yul\":32345:32566   */\n      pop\n      jump\t// out\n        /* \"#utility.yul\":32572:32938   */\n    tag_357:\n        /* \"#utility.yul\":32714:32717   */\n      0x00\n        /* \"#utility.yul\":32735:32802   */\n      tag_654\n        /* \"#utility.yul\":32799:32801   */\n      0x22\n        /* \"#utility.yul\":32794:32797   */\n      dup4\n        /* \"#utility.yul\":32735:32802   */\n      tag_304\n      jump\t// in\n    tag_654:\n        /* \"#utility.yul\":32728:32802   */\n      swap2\n      pop\n        /* \"#utility.yul\":32811:32904   */\n      tag_655\n        /* \"#utility.yul\":32900:32903   */\n      dup3\n        /* \"#utility.yul\":32811:32904   */\n      tag_356\n      jump\t// in\n    tag_655:\n        /* \"#utility.yul\":32929:32931   */\n      0x40\n        /* \"#utility.yul\":32924:32927   */\n      dup3\n        /* \"#utility.yul\":32920:32932   */\n      add\n        /* \"#utility.yul\":32913:32932   */\n      swap1\n      pop\n        /* \"#utility.yul\":32572:32938   */\n      swap2\n      swap1\n      pop\n      jump\t// out\n        /* \"#utility.yul\":32944:33363   */\n    tag_269:\n        /* \"#utility.yul\":33110:33114   */\n      0x00\n        /* \"#utility.yul\":33148:33150   */\n      0x20\n        /* \"#utility.yul\":33137:33146   */\n      dup3\n        /* \"#utility.yul\":33133:33151   */\n      add\n        /* \"#utility.yul\":33125:33151   */\n      swap1\n      pop\n        /* \"#utility.yul\":33197:33206   */\n      dup2\n        /* \"#utility.yul\":33191:33195   */\n      dup2\n        /* \"#utility.yul\":33187:33207   */\n      sub\n        /* \"#utility.yul\":33183:33184   */\n      0x00\n        /* \"#utility.yul\":33172:33181   */\n      dup4\n        /* \"#utility.yul\":33168:33185   */\n      add\n        /* \"#utility.yul\":33161:33208   */\n      mstore\n        /* \"#utility.yul\":33225:33356   */\n      tag_657\n        /* \"#utility.yul\":33351:33355   */\n      dup2\n        /* \"#utility.yul\":33225:33356   */\n      tag_357\n      jump\t// in\n    tag_657:\n        /* \"#utility.yul\":33217:33356   */\n      swap1\n      pop\n        /* \"#utility.yul\":32944:33363   */\n      swap2\n      swap1\n      pop\n      jump\t// out\n        /* \"#utility.yul\":33369:33446   */\n    tag_358:\n        /* \"#utility.yul\":33406:33413   */\n      0x00\n        /* \"#utility.yul\":33435:33440   */\n      dup2\n        /* \"#utility.yul\":33424:33440   */\n      swap1\n      pop\n        /* \"#utility.yul\":33369:33446   */\n      swap2\n      swap1\n      pop\n      jump\t// out\n        /* \"#utility.yul\":33452:33570   */\n    tag_359:\n        /* \"#utility.yul\":33539:33563   */\n      tag_660\n        /* \"#utility.yul\":33557:33562   */\n      dup2\n        /* \"#utility.yul\":33539:33563   */\n      tag_358\n      jump\t// in\n    tag_660:\n        /* \"#utility.yul\":33534:33537   */\n      dup3\n        /* \"#utility.yul\":33527:33564   */\n      mstore\n        /* \"#utility.yul\":33452:33570   */\n      pop\n      pop\n      jump\t// out\n        /* \"#utility.yul\":33576:33662   */\n    tag_360:\n        /* \"#utility.yul\":33611:33618   */\n      0x00\n        /* \"#utility.yul\":33651:33655   */\n      0xff\n        /* \"#utility.yul\":33644:33649   */\n      dup3\n        /* \"#utility.yul\":33640:33656   */\n      and\n        /* \"#utility.yul\":33629:33656   */\n      swap1\n      pop\n        /* \"#utility.yul\":33576:33662   */\n      swap2\n      swap1\n      pop\n      jump\t// out\n        /* \"#utility.yul\":33668:33780   */\n    tag_361:\n        /* \"#utility.yul\":33751:33773   */\n      tag_663\n        /* \"#utility.yul\":33767:33772   */\n      dup2\n        /* \"#utility.yul\":33751:33773   */\n      tag_360\n      jump\t// in\n    tag_663:\n        /* \"#utility.yul\":33746:33749   */\n      dup3\n        /* \"#utility.yul\":33739:33774   */\n      mstore\n        /* \"#utility.yul\":33668:33780   */\n      pop\n      pop\n      jump\t// out\n        /* \"#utility.yul\":33786:34331   */\n    tag_273:\n        /* \"#utility.yul\":33959:33963   */\n      0x00\n        /* \"#utility.yul\":33997:34000   */\n      0x80\n        /* \"#utility.yul\":33986:33995   */\n      dup3\n        /* \"#utility.yul\":33982:34001   */\n      add\n        /* \"#utility.yul\":33974:34001   */\n      swap1\n      pop\n        /* \"#utility.yul\":34011:34082   */\n      tag_665\n        /* \"#utility.yul\":34079:34080   */\n      0x00\n        /* \"#utility.yul\":34068:34077   */\n      dup4\n        /* \"#utility.yul\":34064:34081   */\n      add\n        /* \"#utility.yul\":34055:34061   */\n      dup8\n        /* \"#utility.yul\":34011:34082   */\n      tag_359\n      jump\t// in\n    tag_665:\n        /* \"#utility.yul\":34092:34160   */\n      tag_666\n        /* \"#utility.yul\":34156:34158   */\n      0x20\n        /* \"#utility.yul\":34145:34154   */\n      dup4\n        /* \"#utility.yul\":34141:34159   */\n      add\n        /* \"#utility.yul\":34132:34138   */\n      dup7\n        /* \"#utility.yul\":34092:34160   */\n      tag_361\n      jump\t// in\n    tag_666:\n        /* \"#utility.yul\":34170:34242   */\n      tag_667\n        /* \"#utility.yul\":34238:34240   */\n      0x40\n        /* \"#utility.yul\":34227:34236   */\n      dup4\n        /* \"#utility.yul\":34223:34241   */\n      add\n        /* \"#utility.yul\":34214:34220   */\n      dup6\n        /* \"#utility.yul\":34170:34242   */\n      tag_359\n      jump\t// in\n    tag_667:\n        /* \"#utility.yul\":34252:34324   */\n      tag_668\n        /* \"#utility.yul\":34320:34322   */\n      0x60\n        /* \"#utility.yul\":34309:34318   */\n      dup4\n        /* \"#utility.yul\":34305:34323   */\n      add\n        /* \"#utility.yul\":34296:34302   */\n      dup5\n        /* \"#utility.yul\":34252:34324   */\n      tag_359\n      jump\t// in\n    tag_668:\n        /* \"#utility.yul\":33786:34331   */\n      swap6\n      swap5\n      pop\n      pop\n      pop\n      pop\n      pop\n      jump\t// out\n\n    auxdata: 0xa2646970667358221220db87ddd79bf3fc6c41d81e1c222e92c46d58d2e5b2efe8b9eb3853ab2ec8ac2e64736f6c63430008110033\n}\n",
				"bytecode": {
					"linkReferences": {},
					"object": "60806040523480156200001157600080fd5b50604051620026ec380380620026ec8339818101604052810190620000379190620001d5565b620000576200004b6200009f60201b60201c565b620000a760201b60201c565b80600160006101000a81548173ffffffffffffffffffffffffffffffffffffffff021916908373ffffffffffffffffffffffffffffffffffffffff1602179055505062000207565b600033905090565b60008060009054906101000a900473ffffffffffffffffffffffffffffffffffffffff169050816000806101000a81548173ffffffffffffffffffffffffffffffffffffffff021916908373ffffffffffffffffffffffffffffffffffffffff1602179055508173ffffffffffffffffffffffffffffffffffffffff168173ffffffffffffffffffffffffffffffffffffffff167f8be0079c531659141344cd1fd0a4f28419497f9722a3daafe3b4186f6b6457e060405160405180910390a35050565b600080fd5b600073ffffffffffffffffffffffffffffffffffffffff82169050919050565b60006200019d8262000170565b9050919050565b620001af8162000190565b8114620001bb57600080fd5b50565b600081519050620001cf81620001a4565b92915050565b600060208284031215620001ee57620001ed6200016b565b5b6000620001fe84828501620001be565b91505092915050565b6124d580620002176000396000f3fe60806040526004361061009c5760003560e01c8063715018a611610064578063715018a6146101755780638da5cb5b1461018c578063ad5c4648146101b7578063b0867883146101e2578063ecbdbb321461021f578063f2fde38b1461024a5761009c565b806301e33667146100a157806304599012146100ca5780632906799b146101075780634782f779146101305780635d86acf114610159575b600080fd5b3480156100ad57600080fd5b506100c860048036038101906100c391906113d1565b610273565b005b3480156100d657600080fd5b506100f160048036038101906100ec9190611424565b61028b565b6040516100fe9190611460565b60405180910390f35b34801561011357600080fd5b5061012e60048036038101906101299190611504565b61030e565b005b34801561013c57600080fd5b5061015760048036038101906101529190611580565b6104d4565b005b610173600480360381019061016e9190611504565b6104ea565b005b34801561018157600080fd5b5061018a6106a7565b005b34801561019857600080fd5b506101a16106bb565b6040516101ae91906115cf565b60405180910390f35b3480156101c357600080fd5b506101cc6106e4565b6040516101d991906115cf565b60405180910390f35b3480156101ee57600080fd5b506102096004803603810190610204919061172b565b61070a565b60405161021691906115cf565b60405180910390f35b34801561022b57600080fd5b5061023461074e565b6040516102419190611460565b60405180910390f35b34801561025657600080fd5b50610271600480360381019061026c9190611424565b610756565b005b61027b6107d9565b610286838383610857565b505050565b60008173ffffffffffffffffffffffffffffffffffffffff166370a08231306040518263ffffffff1660e01b81526004016102c691906115cf565b602060405180830381865afa1580156102e3573d6000803e3d6000fd5b505050506040513d601f19601f8201168201806040525081019061030791906117b8565b9050919050565b3373ffffffffffffffffffffffffffffffffffffffff168360a00160208101906103389190611424565b73ffffffffffffffffffffffffffffffffffffffff161461038e576040517f08c379a000000000000000000000000000000000000000000000000000000000815260040161038590611842565b60405180910390fd5b6103fb836040516020016103a29190611a19565b60405160208183030381529060405283838080601f016020809104026020016040519081016040528093929190818152602001838380828437600081840152601f19601f8201169050808301925050505050505061098d565b61041d8360000160208101906104119190611424565b33308660200135610b06565b61045f8360000160208101906104339190611424565b8460600160208101906104469190611424565b8560400135866020013561045a9190611a6a565b610c3f565b6104cf8360600160208101906104759190611424565b60008580608001906104879190611aad565b8080601f016020809104026020016040519081016040528093929190818152602001838380828437600081840152601f19601f82011690508083019250505050505050610d75565b505050565b6104dc6107d9565b6104e68282610e8c565b5050565b3373ffffffffffffffffffffffffffffffffffffffff168360a00160208101906105149190611424565b73ffffffffffffffffffffffffffffffffffffffff161461056a576040517f08c379a000000000000000000000000000000000000000000000000000000000815260040161056190611842565b60405180910390fd5b6105d78360405160200161057e9190611a19565b60405160208183030381529060405283838080601f016020809104026020016040519081016040528093929190818152602001838380828437600081840152601f19601f8201169050808301925050505050505061098d565b826020013534101561061e576040517f08c379a000000000000000000000000000000000000000000000000000000000815260040161061590611b5c565b60405180910390fd5b60008360400135346106309190611a6a565b90506106a18460600160208101906106489190611424565b828680608001906106599190611aad565b8080601f016020809104026020016040519081016040528093929190818152602001838380828437600081840152601f19601f82011690508083019250505050505050610d75565b50505050565b6106af6107d9565b6106b96000610f8c565b565b60008060009054906101000a900473ffffffffffffffffffffffffffffffffffffffff16905090565b600160009054906101000a900473ffffffffffffffffffffffffffffffffffffffff1681565b600061074682610738856040516020016107249190611a19565b604051602081830303815290604052611050565b61106190919063ffffffff16565b905092915050565b600047905090565b61075e6107d9565b600073ffffffffffffffffffffffffffffffffffffffff168173ffffffffffffffffffffffffffffffffffffffff16036107cd576040517f08c379a00000000000000000000000000000000000000000000000000000000081526004016107c490611bee565b60405180910390fd5b6107d681610f8c565b50565b6107e1611088565b73ffffffffffffffffffffffffffffffffffffffff166107ff6106bb565b73ffffffffffffffffffffffffffffffffffffffff1614610855576040517f08c379a000000000000000000000000000000000000000000000000000000000815260040161084c90611c5a565b60405180910390fd5b565b6000808473ffffffffffffffffffffffffffffffffffffffff1663a9059cbb8585604051602401610889929190611c7a565b6040516020818303038152906040529060e01b6020820180517bffffffffffffffffffffffffffffffffffffffffffffffffffffffff83818316178352505050506040516108d79190611d14565b6000604051808303816000865af19150503d8060008114610914576040519150601f19603f3d011682016040523d82523d6000602084013e610919565b606091505b509150915081801561094757506000815114806109465750808060200190518101906109459190611d63565b5b5b610986576040517f08c379a000000000000000000000000000000000000000000000000000000000815260040161097d90611e02565b60405180910390fd5b5050505050565b601b60f81b816040815181106109a6576109a5611e22565b5b60200101907effffffffffffffffffffffffffffffffffffffffffffffffffffffffffffff1916908160001a9053506109dd6106bb565b73ffffffffffffffffffffffffffffffffffffffff16610a0e82610a0085611050565b61106190919063ffffffff16565b73ffffffffffffffffffffffffffffffffffffffff160315610b0257601c60f81b81604081518110610a4357610a42611e22565b5b60200101907effffffffffffffffffffffffffffffffffffffffffffffffffffffffffffff1916908160001a905350610a7a6106bb565b73ffffffffffffffffffffffffffffffffffffffff16610aab82610a9d85611050565b61106190919063ffffffff16565b73ffffffffffffffffffffffffffffffffffffffff1614610b01576040517f08c379a0000000000000000000000000000000000000000000000000000000008152600401610af890611e9d565b60405180910390fd5b5b5050565b6000808573ffffffffffffffffffffffffffffffffffffffff166323b872dd868686604051602401610b3a93929190611ebd565b6040516020818303038152906040529060e01b6020820180517bffffffffffffffffffffffffffffffffffffffffffffffffffffffff8381831617835250505050604051610b889190611d14565b6000604051808303816000865af19150503d8060008114610bc5576040519150601f19603f3d011682016040523d82523d6000602084013e610bca565b606091505b5091509150818015610bf85750600081511480610bf7575080806020019051810190610bf69190611d63565b5b5b610c37576040517f08c379a0000000000000000000000000000000000000000000000000000000008152600401610c2e90611f66565b60405180910390fd5b505050505050565b6000808473ffffffffffffffffffffffffffffffffffffffff1663095ea7b38585604051602401610c71929190611c7a565b6040516020818303038152906040529060e01b6020820180517bffffffffffffffffffffffffffffffffffffffffffffffffffffffff8381831617835250505050604051610cbf9190611d14565b6000604051808303816000865af19150503d8060008114610cfc576040519150601f19603f3d011682016040523d82523d6000602084013e610d01565b606091505b5091509150818015610d2f5750600081511480610d2e575080806020019051810190610d2d9190611d63565b5b5b610d6e576040517f08c379a0000000000000000000000000000000000000000000000000000000008152600401610d6590611ff8565b60405180910390fd5b5050505050565b6000808473ffffffffffffffffffffffffffffffffffffffff168484604051610d9e9190611d14565b60006040518083038185875af1925050503d8060008114610ddb576040519150601f19603f3d011682016040523d82523d6000602084013e610de0565b606091505b509150915081610e8557604481511015610e2f576040517f08c379a0000000000000000000000000000000000000000000000000000000008152600401610e269061208a565b60405180910390fd5b60048101905080806020019051810190610e49919061214b565b6040517f08c379a0000000000000000000000000000000000000000000000000000000008152600401610e7c91906121d8565b60405180910390fd5b5050505050565b60008273ffffffffffffffffffffffffffffffffffffffff1682600067ffffffffffffffff811115610ec157610ec0611600565b5b6040519080825280601f01601f191660200182016040528015610ef35781602001600182028036833780820191505090505b50604051610f019190611d14565b60006040518083038185875af1925050503d8060008114610f3e576040519150601f19603f3d011682016040523d82523d6000602084013e610f43565b606091505b5050905080610f87576040517f08c379a0000000000000000000000000000000000000000000000000000000008152600401610f7e9061226c565b60405180910390fd5b505050565b60008060009054906101000a900473ffffffffffffffffffffffffffffffffffffffff169050816000806101000a81548173ffffffffffffffffffffffffffffffffffffffff021916908373ffffffffffffffffffffffffffffffffffffffff1602179055508173ffffffffffffffffffffffffffffffffffffffff168173ffffffffffffffffffffffffffffffffffffffff167f8be0079c531659141344cd1fd0a4f28419497f9722a3daafe3b4186f6b6457e060405160405180910390a35050565b600081805190602001209050919050565b60008060006110708585611090565b9150915061107d816110e1565b819250505092915050565b600033905090565b60008060418351036110d15760008060006020860151925060408601519150606086015160001a90506110c587828585611247565b945094505050506110da565b60006002915091505b9250929050565b600060048111156110f5576110f461228c565b5b8160048111156111085761110761228c565b5b031561124457600160048111156111225761112161228c565b5b8160048111156111355761113461228c565b5b03611175576040517f08c379a000000000000000000000000000000000000000000000000000000000815260040161116c90612307565b60405180910390fd5b600260048111156111895761118861228c565b5b81600481111561119c5761119b61228c565b5b036111dc576040517f08c379a00000000000000000000000000000000000000000000000000000000081526004016111d390612373565b60405180910390fd5b600360048111156111f0576111ef61228c565b5b8160048111156112035761120261228c565b5b03611243576040517f08c379a000000000000000000000000000000000000000000000000000000000815260040161123a90612405565b60405180910390fd5b5b50565b6000807f7fffffffffffffffffffffffffffffff5d576e7357a4501ddfe92f46681b20a08360001c1115611282576000600391509150611320565b6000600187878787604051600081526020016040526040516112a7949392919061245a565b6020604051602081039080840390855afa1580156112c9573d6000803e3d6000fd5b505050602060405103519050600073ffffffffffffffffffffffffffffffffffffffff168173ffffffffffffffffffffffffffffffffffffffff160361131757600060019250925050611320565b80600092509250505b94509492505050565b6000604051905090565b600080fd5b600080fd5b600073ffffffffffffffffffffffffffffffffffffffff82169050919050565b60006113688261133d565b9050919050565b6113788161135d565b811461138357600080fd5b50565b6000813590506113958161136f565b92915050565b6000819050919050565b6113ae8161139b565b81146113b957600080fd5b50565b6000813590506113cb816113a5565b92915050565b6000806000606084860312156113ea576113e9611333565b5b60006113f886828701611386565b935050602061140986828701611386565b925050604061141a868287016113bc565b9150509250925092565b60006020828403121561143a57611439611333565b5b600061144884828501611386565b91505092915050565b61145a8161139b565b82525050565b60006020820190506114756000830184611451565b92915050565b600080fd5b600060c082840312156114965761149561147b565b5b81905092915050565b600080fd5b600080fd5b600080fd5b60008083601f8401126114c4576114c361149f565b5b8235905067ffffffffffffffff8111156114e1576114e06114a4565b5b6020830191508360018202830111156114fd576114fc6114a9565b5b9250929050565b60008060006040848603121561151d5761151c611333565b5b600084013567ffffffffffffffff81111561153b5761153a611338565b5b61154786828701611480565b935050602084013567ffffffffffffffff81111561156857611567611338565b5b611574868287016114ae565b92509250509250925092565b6000806040838503121561159757611596611333565b5b60006115a585828601611386565b92505060206115b6858286016113bc565b9150509250929050565b6115c98161135d565b82525050565b60006020820190506115e460008301846115c0565b92915050565b600080fd5b6000601f19601f8301169050919050565b7f4e487b7100000000000000000000000000000000000000000000000000000000600052604160045260246000fd5b611638826115ef565b810181811067ffffffffffffffff8211171561165757611656611600565b5b80604052505050565b600061166a611329565b9050611676828261162f565b919050565b600067ffffffffffffffff82111561169657611695611600565b5b61169f826115ef565b9050602081019050919050565b82818337600083830152505050565b60006116ce6116c98461167b565b611660565b9050828152602081018484840111156116ea576116e96115ea565b5b6116f58482856116ac565b509392505050565b600082601f8301126117125761171161149f565b5b81356117228482602086016116bb565b91505092915050565b6000806040838503121561174257611741611333565b5b600083013567ffffffffffffffff8111156117605761175f611338565b5b61176c85828601611480565b925050602083013567ffffffffffffffff81111561178d5761178c611338565b5b611799858286016116fd565b9150509250929050565b6000815190506117b2816113a5565b92915050565b6000602082840312156117ce576117cd611333565b5b60006117dc848285016117a3565b91505092915050565b600082825260208201905092915050565b7f696e76616c65642073656e646572000000000000000000000000000000000000600082015250565b600061182c600e836117e5565b9150611837826117f6565b602082019050919050565b6000602082019050818103600083015261185b8161181f565b9050919050565b60006118716020840184611386565b905092915050565b6118828161135d565b82525050565b600061189760208401846113bc565b905092915050565b6118a88161139b565b82525050565b600080fd5b600080fd5b600080fd5b600080833560016020038436030381126118da576118d96118b8565b5b83810192508235915060208301925067ffffffffffffffff821115611902576119016118ae565b5b600182023603831315611918576119176118b3565b5b509250929050565b600082825260208201905092915050565b600061193d8385611920565b935061194a8385846116ac565b611953836115ef565b840190509392505050565b600060c083016119716000840184611862565b61197e6000860182611879565b5061198c6020840184611888565b611999602086018261189f565b506119a76040840184611888565b6119b4604086018261189f565b506119c26060840184611862565b6119cf6060860182611879565b506119dd60808401846118bd565b85830360808701526119f0838284611931565b92505050611a0160a0840184611862565b611a0e60a0860182611879565b508091505092915050565b60006020820190508181036000830152611a33818461195e565b905092915050565b7f4e487b7100000000000000000000000000000000000000000000000000000000600052601160045260246000fd5b6000611a758261139b565b9150611a808361139b565b9250828203905081811115611a9857611a97611a3b565b5b92915050565b600080fd5b600080fd5b600080fd5b60008083356001602003843603038112611aca57611ac9611a9e565b5b80840192508235915067ffffffffffffffff821115611aec57611aeb611aa3565b5b602083019250600182023603831315611b0857611b07611aa8565b5b509250929050565b7f696e73756666696369656e7420696e70757420616d6f756e7400000000000000600082015250565b6000611b466019836117e5565b9150611b5182611b10565b602082019050919050565b60006020820190508181036000830152611b7581611b39565b9050919050565b7f4f776e61626c653a206e6577206f776e657220697320746865207a65726f206160008201527f6464726573730000000000000000000000000000000000000000000000000000602082015250565b6000611bd86026836117e5565b9150611be382611b7c565b604082019050919050565b60006020820190508181036000830152611c0781611bcb565b9050919050565b7f4f776e61626c653a2063616c6c6572206973206e6f7420746865206f776e6572600082015250565b6000611c446020836117e5565b9150611c4f82611c0e565b602082019050919050565b60006020820190508181036000830152611c7381611c37565b9050919050565b6000604082019050611c8f60008301856115c0565b611c9c6020830184611451565b9392505050565b600081519050919050565b600081905092915050565b60005b83811015611cd7578082015181840152602081019050611cbc565b60008484015250505050565b6000611cee82611ca3565b611cf88185611cae565b9350611d08818560208601611cb9565b80840191505092915050565b6000611d208284611ce3565b915081905092915050565b60008115159050919050565b611d4081611d2b565b8114611d4b57600080fd5b50565b600081519050611d5d81611d37565b92915050565b600060208284031215611d7957611d78611333565b5b6000611d8784828501611d4e565b91505092915050565b7f45786368616e676541676772656761746f723a3a5472616e7366657248656c7060008201527f65723a736166655472616e736665720000000000000000000000000000000000602082015250565b6000611dec602f836117e5565b9150611df782611d90565b604082019050919050565b60006020820190508181036000830152611e1b81611ddf565b9050919050565b7f4e487b7100000000000000000000000000000000000000000000000000000000600052603260045260246000fd5b7f646174612074616d706572656400000000000000000000000000000000000000600082015250565b6000611e87600d836117e5565b9150611e9282611e51565b602082019050919050565b60006020820190508181036000830152611eb681611e7a565b9050919050565b6000606082019050611ed260008301866115c0565b611edf60208301856115c0565b611eec6040830184611451565b949350505050565b7f45786368616e676541676772656761746f723a3a5472616e7366657248656c7060008201527f65723a736166655472616e7366657246726f6d00000000000000000000000000602082015250565b6000611f506033836117e5565b9150611f5b82611ef4565b604082019050919050565b60006020820190508181036000830152611f7f81611f43565b9050919050565b7f45786368616e676541676772656761746f723a3a5472616e7366657248656c7060008201527f65723a73616665417070726f7665000000000000000000000000000000000000602082015250565b6000611fe2602e836117e5565b9150611fed82611f86565b604082019050919050565b6000602082019050818103600083015261201181611fd5565b9050919050565b7f45786368616e676541676772656761746f723a3a5361666543616c6c65723a7360008201527f61666543616c6c00000000000000000000000000000000000000000000000000602082015250565b60006120746027836117e5565b915061207f82612018565b604082019050919050565b600060208201905081810360008301526120a381612067565b9050919050565b600067ffffffffffffffff8211156120c5576120c4611600565b5b6120ce826115ef565b9050602081019050919050565b60006120ee6120e9846120aa565b611660565b90508281526020810184848401111561210a576121096115ea565b5b612115848285611cb9565b509392505050565b600082601f8301126121325761213161149f565b5b81516121428482602086016120db565b91505092915050565b60006020828403121561216157612160611333565b5b600082015167ffffffffffffffff81111561217f5761217e611338565b5b61218b8482850161211d565b91505092915050565b600081519050919050565b60006121aa82612194565b6121b481856117e5565b93506121c4818560208601611cb9565b6121cd816115ef565b840191505092915050565b600060208201905081810360008301526121f2818461219f565b905092915050565b7f45786368616e676541676772656761746f723a3a5472616e7366657248656c7060008201527f65723a736166655472616e736665724554480000000000000000000000000000602082015250565b60006122566032836117e5565b9150612261826121fa565b604082019050919050565b6000602082019050818103600083015261228581612249565b9050919050565b7f4e487b7100000000000000000000000000000000000000000000000000000000600052602160045260246000fd5b7f45434453413a20696e76616c6964207369676e61747572650000000000000000600082015250565b60006122f16018836117e5565b91506122fc826122bb565b602082019050919050565b60006020820190508181036000830152612320816122e4565b9050919050565b7f45434453413a20696e76616c6964207369676e6174757265206c656e67746800600082015250565b600061235d601f836117e5565b915061236882612327565b602082019050919050565b6000602082019050818103600083015261238c81612350565b9050919050565b7f45434453413a20696e76616c6964207369676e6174757265202773272076616c60008201527f7565000000000000000000000000000000000000000000000000000000000000602082015250565b60006123ef6022836117e5565b91506123fa82612393565b604082019050919050565b6000602082019050818103600083015261241e816123e2565b9050919050565b6000819050919050565b61243881612425565b82525050565b600060ff82169050919050565b6124548161243e565b82525050565b600060808201905061246f600083018761242f565b61247c602083018661244b565b612489604083018561242f565b612496606083018461242f565b9594505050505056fea2646970667358221220db87ddd79bf3fc6c41d81e1c222e92c46d58d2e5b2efe8b9eb3853ab2ec8ac2e64736f6c63430008110033",
					"opcodes": "PUSH1 0x80 PUSH1 0x40 MSTORE CALLVALUE DUP1 ISZERO PUSH3 0x11 JUMPI PUSH1 0x0 DUP1 REVERT JUMPDEST POP PUSH1 0x40 MLOAD PUSH3 0x26EC CODESIZE SUB DUP1 PUSH3 0x26EC DUP4 CODECOPY DUP2 DUP2 ADD PUSH1 0x40 MSTORE DUP2 ADD SWAP1 PUSH3 0x37 SWAP2 SWAP1 PUSH3 0x1D5 JUMP JUMPDEST PUSH3 0x57 PUSH3 0x4B PUSH3 0x9F PUSH1 0x20 SHL PUSH1 0x20 SHR JUMP JUMPDEST PUSH3 0xA7 PUSH1 0x20 SHL PUSH1 0x20 SHR JUMP JUMPDEST DUP1 PUSH1 0x1 PUSH1 0x0 PUSH2 0x100 EXP DUP2 SLOAD DUP2 PUSH20 0xFFFFFFFFFFFFFFFFFFFFFFFFFFFFFFFFFFFFFFFF MUL NOT AND SWAP1 DUP4 PUSH20 0xFFFFFFFFFFFFFFFFFFFFFFFFFFFFFFFFFFFFFFFF AND MUL OR SWAP1 SSTORE POP POP PUSH3 0x207 JUMP JUMPDEST PUSH1 0x0 CALLER SWAP1 POP SWAP1 JUMP JUMPDEST PUSH1 0x0 DUP1 PUSH1 0x0 SWAP1 SLOAD SWAP1 PUSH2 0x100 EXP SWAP1 DIV PUSH20 0xFFFFFFFFFFFFFFFFFFFFFFFFFFFFFFFFFFFFFFFF AND SWAP1 POP DUP2 PUSH1 0x0 DUP1 PUSH2 0x100 EXP DUP2 SLOAD DUP2 PUSH20 0xFFFFFFFFFFFFFFFFFFFFFFFFFFFFFFFFFFFFFFFF MUL NOT AND SWAP1 DUP4 PUSH20 0xFFFFFFFFFFFFFFFFFFFFFFFFFFFFFFFFFFFFFFFF AND MUL OR SWAP1 SSTORE POP DUP2 PUSH20 0xFFFFFFFFFFFFFFFFFFFFFFFFFFFFFFFFFFFFFFFF AND DUP2 PUSH20 0xFFFFFFFFFFFFFFFFFFFFFFFFFFFFFFFFFFFFFFFF AND PUSH32 0x8BE0079C531659141344CD1FD0A4F28419497F9722A3DAAFE3B4186F6B6457E0 PUSH1 0x40 MLOAD PUSH1 0x40 MLOAD DUP1 SWAP2 SUB SWAP1 LOG3 POP POP JUMP JUMPDEST PUSH1 0x0 DUP1 REVERT JUMPDEST PUSH1 0x0 PUSH20 0xFFFFFFFFFFFFFFFFFFFFFFFFFFFFFFFFFFFFFFFF DUP3 AND SWAP1 POP SWAP2 SWAP1 POP JUMP JUMPDEST PUSH1 0x0 PUSH3 0x19D DUP3 PUSH3 0x170 JUMP JUMPDEST SWAP1 POP SWAP2 SWAP1 POP JUMP JUMPDEST PUSH3 0x1AF DUP2 PUSH3 0x190 JUMP JUMPDEST DUP2 EQ PUSH3 0x1BB JUMPI PUSH1 0x0 DUP1 REVERT JUMPDEST POP JUMP JUMPDEST PUSH1 0x0 DUP2 MLOAD SWAP1 POP PUSH3 0x1CF DUP2 PUSH3 0x1A4 JUMP JUMPDEST SWAP3 SWAP2 POP POP JUMP JUMPDEST PUSH1 0x0 PUSH1 0x20 DUP3 DUP5 SUB SLT ISZERO PUSH3 0x1EE JUMPI PUSH3 0x1ED PUSH3 0x16B JUMP JUMPDEST JUMPDEST PUSH1 0x0 PUSH3 0x1FE DUP5 DUP3 DUP6 ADD PUSH3 0x1BE JUMP JUMPDEST SWAP2 POP POP SWAP3 SWAP2 POP POP JUMP JUMPDEST PUSH2 0x24D5 DUP1 PUSH3 0x217 PUSH1 0x0 CODECOPY PUSH1 0x0 RETURN INVALID PUSH1 0x80 PUSH1 0x40 MSTORE PUSH1 0x4 CALLDATASIZE LT PUSH2 0x9C JUMPI PUSH1 0x0 CALLDATALOAD PUSH1 0xE0 SHR DUP1 PUSH4 0x715018A6 GT PUSH2 0x64 JUMPI DUP1 PUSH4 0x715018A6 EQ PUSH2 0x175 JUMPI DUP1 PUSH4 0x8DA5CB5B EQ PUSH2 0x18C JUMPI DUP1 PUSH4 0xAD5C4648 EQ PUSH2 0x1B7 JUMPI DUP1 PUSH4 0xB0867883 EQ PUSH2 0x1E2 JUMPI DUP1 PUSH4 0xECBDBB32 EQ PUSH2 0x21F JUMPI DUP1 PUSH4 0xF2FDE38B EQ PUSH2 0x24A JUMPI PUSH2 0x9C JUMP JUMPDEST DUP1 PUSH4 0x1E33667 EQ PUSH2 0xA1 JUMPI DUP1 PUSH4 0x4599012 EQ PUSH2 0xCA JUMPI DUP1 PUSH4 0x2906799B EQ PUSH2 0x107 JUMPI DUP1 PUSH4 0x4782F779 EQ PUSH2 0x130 JUMPI DUP1 PUSH4 0x5D86ACF1 EQ PUSH2 0x159 JUMPI JUMPDEST PUSH1 0x0 DUP1 REVERT JUMPDEST CALLVALUE DUP1 ISZERO PUSH2 0xAD JUMPI PUSH1 0x0 DUP1 REVERT JUMPDEST POP PUSH2 0xC8 PUSH1 0x4 DUP1 CALLDATASIZE SUB DUP2 ADD SWAP1 PUSH2 0xC3 SWAP2 SWAP1 PUSH2 0x13D1 JUMP JUMPDEST PUSH2 0x273 JUMP JUMPDEST STOP JUMPDEST CALLVALUE DUP1 ISZERO PUSH2 0xD6 JUMPI PUSH1 0x0 DUP1 REVERT JUMPDEST POP PUSH2 0xF1 PUSH1 0x4 DUP1 CALLDATASIZE SUB DUP2 ADD SWAP1 PUSH2 0xEC SWAP2 SWAP1 PUSH2 0x1424 JUMP JUMPDEST PUSH2 0x28B JUMP JUMPDEST PUSH1 0x40 MLOAD PUSH2 0xFE SWAP2 SWAP1 PUSH2 0x1460 JUMP JUMPDEST PUSH1 0x40 MLOAD DUP1 SWAP2 SUB SWAP1 RETURN JUMPDEST CALLVALUE DUP1 ISZERO PUSH2 0x113 JUMPI PUSH1 0x0 DUP1 REVERT JUMPDEST POP PUSH2 0x12E PUSH1 0x4 DUP1 CALLDATASIZE SUB DUP2 ADD SWAP1 PUSH2 0x129 SWAP2 SWAP1 PUSH2 0x1504 JUMP JUMPDEST PUSH2 0x30E JUMP JUMPDEST STOP JUMPDEST CALLVALUE DUP1 ISZERO PUSH2 0x13C JUMPI PUSH1 0x0 DUP1 REVERT JUMPDEST POP PUSH2 0x157 PUSH1 0x4 DUP1 CALLDATASIZE SUB DUP2 ADD SWAP1 PUSH2 0x152 SWAP2 SWAP1 PUSH2 0x1580 JUMP JUMPDEST PUSH2 0x4D4 JUMP JUMPDEST STOP JUMPDEST PUSH2 0x173 PUSH1 0x4 DUP1 CALLDATASIZE SUB DUP2 ADD SWAP1 PUSH2 0x16E SWAP2 SWAP1 PUSH2 0x1504 JUMP JUMPDEST PUSH2 0x4EA JUMP JUMPDEST STOP JUMPDEST CALLVALUE DUP1 ISZERO PUSH2 0x181 JUMPI PUSH1 0x0 DUP1 REVERT JUMPDEST POP PUSH2 0x18A PUSH2 0x6A7 JUMP JUMPDEST STOP JUMPDEST CALLVALUE DUP1 ISZERO PUSH2 0x198 JUMPI PUSH1 0x0 DUP1 REVERT JUMPDEST POP PUSH2 0x1A1 PUSH2 0x6BB JUMP JUMPDEST PUSH1 0x40 MLOAD PUSH2 0x1AE SWAP2 SWAP1 PUSH2 0x15CF JUMP JUMPDEST PUSH1 0x40 MLOAD DUP1 SWAP2 SUB SWAP1 RETURN JUMPDEST CALLVALUE DUP1 ISZERO PUSH2 0x1C3 JUMPI PUSH1 0x0 DUP1 REVERT JUMPDEST POP PUSH2 0x1CC PUSH2 0x6E4 JUMP JUMPDEST PUSH1 0x40 MLOAD PUSH2 0x1D9 SWAP2 SWAP1 PUSH2 0x15CF JUMP JUMPDEST PUSH1 0x40 MLOAD DUP1 SWAP2 SUB SWAP1 RETURN JUMPDEST CALLVALUE DUP1 ISZERO PUSH2 0x1EE JUMPI PUSH1 0x0 DUP1 REVERT JUMPDEST POP PUSH2 0x209 PUSH1 0x4 DUP1 CALLDATASIZE SUB DUP2 ADD SWAP1 PUSH2 0x204 SWAP2 SWAP1 PUSH2 0x172B JUMP JUMPDEST PUSH2 0x70A JUMP JUMPDEST PUSH1 0x40 MLOAD PUSH2 0x216 SWAP2 SWAP1 PUSH2 0x15CF JUMP JUMPDEST PUSH1 0x40 MLOAD DUP1 SWAP2 SUB SWAP1 RETURN JUMPDEST CALLVALUE DUP1 ISZERO PUSH2 0x22B JUMPI PUSH1 0x0 DUP1 REVERT JUMPDEST POP PUSH2 0x234 PUSH2 0x74E JUMP JUMPDEST PUSH1 0x40 MLOAD PUSH2 0x241 SWAP2 SWAP1 PUSH2 0x1460 JUMP JUMPDEST PUSH1 0x40 MLOAD DUP1 SWAP2 SUB SWAP1 RETURN JUMPDEST CALLVALUE DUP1 ISZERO PUSH2 0x256 JUMPI PUSH1 0x0 DUP1 REVERT JUMPDEST POP PUSH2 0x271 PUSH1 0x4 DUP1 CALLDATASIZE SUB DUP2 ADD SWAP1 PUSH2 0x26C SWAP2 SWAP1 PUSH2 0x1424 JUMP JUMPDEST PUSH2 0x756 JUMP JUMPDEST STOP JUMPDEST PUSH2 0x27B PUSH2 0x7D9 JUMP JUMPDEST PUSH2 0x286 DUP4 DUP4 DUP4 PUSH2 0x857 JUMP JUMPDEST POP POP POP JUMP JUMPDEST PUSH1 0x0 DUP2 PUSH20 0xFFFFFFFFFFFFFFFFFFFFFFFFFFFFFFFFFFFFFFFF AND PUSH4 0x70A08231 ADDRESS PUSH1 0x40 MLOAD DUP3 PUSH4 0xFFFFFFFF AND PUSH1 0xE0 SHL DUP2 MSTORE PUSH1 0x4 ADD PUSH2 0x2C6 SWAP2 SWAP1 PUSH2 0x15CF JUMP JUMPDEST PUSH1 0x20 PUSH1 0x40 MLOAD DUP1 DUP4 SUB DUP2 DUP7 GAS STATICCALL ISZERO DUP1 ISZERO PUSH2 0x2E3 JUMPI RETURNDATASIZE PUSH1 0x0 DUP1 RETURNDATACOPY RETURNDATASIZE PUSH1 0x0 REVERT JUMPDEST POP POP POP POP PUSH1 0x40 MLOAD RETURNDATASIZE PUSH1 0x1F NOT PUSH1 0x1F DUP3 ADD AND DUP3 ADD DUP1 PUSH1 0x40 MSTORE POP DUP2 ADD SWAP1 PUSH2 0x307 SWAP2 SWAP1 PUSH2 0x17B8 JUMP JUMPDEST SWAP1 POP SWAP2 SWAP1 POP JUMP JUMPDEST CALLER PUSH20 0xFFFFFFFFFFFFFFFFFFFFFFFFFFFFFFFFFFFFFFFF AND DUP4 PUSH1 0xA0 ADD PUSH1 0x20 DUP2 ADD SWAP1 PUSH2 0x338 SWAP2 SWAP1 PUSH2 0x1424 JUMP JUMPDEST PUSH20 0xFFFFFFFFFFFFFFFFFFFFFFFFFFFFFFFFFFFFFFFF AND EQ PUSH2 0x38E JUMPI PUSH1 0x40 MLOAD PUSH32 0x8C379A000000000000000000000000000000000000000000000000000000000 DUP2 MSTORE PUSH1 0x4 ADD PUSH2 0x385 SWAP1 PUSH2 0x1842 JUMP JUMPDEST PUSH1 0x40 MLOAD DUP1 SWAP2 SUB SWAP1 REVERT JUMPDEST PUSH2 0x3FB DUP4 PUSH1 0x40 MLOAD PUSH1 0x20 ADD PUSH2 0x3A2 SWAP2 SWAP1 PUSH2 0x1A19 JUMP JUMPDEST PUSH1 0x40 MLOAD PUSH1 0x20 DUP2 DUP4 SUB SUB DUP2 MSTORE SWAP1 PUSH1 0x40 MSTORE DUP4 DUP4 DUP1 DUP1 PUSH1 0x1F ADD PUSH1 0x20 DUP1 SWAP2 DIV MUL PUSH1 0x20 ADD PUSH1 0x40 MLOAD SWAP1 DUP2 ADD PUSH1 0x40 MSTORE DUP1 SWAP4 SWAP3 SWAP2 SWAP1 DUP2 DUP2 MSTORE PUSH1 0x20 ADD DUP4 DUP4 DUP1 DUP3 DUP5 CALLDATACOPY PUSH1 0x0 DUP2 DUP5 ADD MSTORE PUSH1 0x1F NOT PUSH1 0x1F DUP3 ADD AND SWAP1 POP DUP1 DUP4 ADD SWAP3 POP POP POP POP POP POP POP PUSH2 0x98D JUMP JUMPDEST PUSH2 0x41D DUP4 PUSH1 0x0 ADD PUSH1 0x20 DUP2 ADD SWAP1 PUSH2 0x411 SWAP2 SWAP1 PUSH2 0x1424 JUMP JUMPDEST CALLER ADDRESS DUP7 PUSH1 0x20 ADD CALLDATALOAD PUSH2 0xB06 JUMP JUMPDEST PUSH2 0x45F DUP4 PUSH1 0x0 ADD PUSH1 0x20 DUP2 ADD SWAP1 PUSH2 0x433 SWAP2 SWAP1 PUSH2 0x1424 JUMP JUMPDEST DUP5 PUSH1 0x60 ADD PUSH1 0x20 DUP2 ADD SWAP1 PUSH2 0x446 SWAP2 SWAP1 PUSH2 0x1424 JUMP JUMPDEST DUP6 PUSH1 0x40 ADD CALLDATALOAD DUP7 PUSH1 0x20 ADD CALLDATALOAD PUSH2 0x45A SWAP2 SWAP1 PUSH2 0x1A6A JUMP JUMPDEST PUSH2 0xC3F JUMP JUMPDEST PUSH2 0x4CF DUP4 PUSH1 0x60 ADD PUSH1 0x20 DUP2 ADD SWAP1 PUSH2 0x475 SWAP2 SWAP1 PUSH2 0x1424 JUMP JUMPDEST PUSH1 0x0 DUP6 DUP1 PUSH1 0x80 ADD SWAP1 PUSH2 0x487 SWAP2 SWAP1 PUSH2 0x1AAD JUMP JUMPDEST DUP1 DUP1 PUSH1 0x1F ADD PUSH1 0x20 DUP1 SWAP2 DIV MUL PUSH1 0x20 ADD PUSH1 0x40 MLOAD SWAP1 DUP2 ADD PUSH1 0x40 MSTORE DUP1 SWAP4 SWAP3 SWAP2 SWAP1 DUP2 DUP2 MSTORE PUSH1 0x20 ADD DUP4 DUP4 DUP1 DUP3 DUP5 CALLDATACOPY PUSH1 0x0 DUP2 DUP5 ADD MSTORE PUSH1 0x1F NOT PUSH1 0x1F DUP3 ADD AND SWAP1 POP DUP1 DUP4 ADD SWAP3 POP POP POP POP POP POP POP PUSH2 0xD75 JUMP JUMPDEST POP POP POP JUMP JUMPDEST PUSH2 0x4DC PUSH2 0x7D9 JUMP JUMPDEST PUSH2 0x4E6 DUP3 DUP3 PUSH2 0xE8C JUMP JUMPDEST POP POP JUMP JUMPDEST CALLER PUSH20 0xFFFFFFFFFFFFFFFFFFFFFFFFFFFFFFFFFFFFFFFF AND DUP4 PUSH1 0xA0 ADD PUSH1 0x20 DUP2 ADD SWAP1 PUSH2 0x514 SWAP2 SWAP1 PUSH2 0x1424 JUMP JUMPDEST PUSH20 0xFFFFFFFFFFFFFFFFFFFFFFFFFFFFFFFFFFFFFFFF AND EQ PUSH2 0x56A JUMPI PUSH1 0x40 MLOAD PUSH32 0x8C379A000000000000000000000000000000000000000000000000000000000 DUP2 MSTORE PUSH1 0x4 ADD PUSH2 0x561 SWAP1 PUSH2 0x1842 JUMP JUMPDEST PUSH1 0x40 MLOAD DUP1 SWAP2 SUB SWAP1 REVERT JUMPDEST PUSH2 0x5D7 DUP4 PUSH1 0x40 MLOAD PUSH1 0x20 ADD PUSH2 0x57E SWAP2 SWAP1 PUSH2 0x1A19 JUMP JUMPDEST PUSH1 0x40 MLOAD PUSH1 0x20 DUP2 DUP4 SUB SUB DUP2 MSTORE SWAP1 PUSH1 0x40 MSTORE DUP4 DUP4 DUP1 DUP1 PUSH1 0x1F ADD PUSH1 0x20 DUP1 SWAP2 DIV MUL PUSH1 0x20 ADD PUSH1 0x40 MLOAD SWAP1 DUP2 ADD PUSH1 0x40 MSTORE DUP1 SWAP4 SWAP3 SWAP2 SWAP1 DUP2 DUP2 MSTORE PUSH1 0x20 ADD DUP4 DUP4 DUP1 DUP3 DUP5 CALLDATACOPY PUSH1 0x0 DUP2 DUP5 ADD MSTORE PUSH1 0x1F NOT PUSH1 0x1F DUP3 ADD AND SWAP1 POP DUP1 DUP4 ADD SWAP3 POP POP POP POP POP POP POP PUSH2 0x98D JUMP JUMPDEST DUP3 PUSH1 0x20 ADD CALLDATALOAD CALLVALUE LT ISZERO PUSH2 0x61E JUMPI PUSH1 0x40 MLOAD PUSH32 0x8C379A000000000000000000000000000000000000000000000000000000000 DUP2 MSTORE PUSH1 0x4 ADD PUSH2 0x615 SWAP1 PUSH2 0x1B5C JUMP JUMPDEST PUSH1 0x40 MLOAD DUP1 SWAP2 SUB SWAP1 REVERT JUMPDEST PUSH1 0x0 DUP4 PUSH1 0x40 ADD CALLDATALOAD CALLVALUE PUSH2 0x630 SWAP2 SWAP1 PUSH2 0x1A6A JUMP JUMPDEST SWAP1 POP PUSH2 0x6A1 DUP5 PUSH1 0x60 ADD PUSH1 0x20 DUP2 ADD SWAP1 PUSH2 0x648 SWAP2 SWAP1 PUSH2 0x1424 JUMP JUMPDEST DUP3 DUP7 DUP1 PUSH1 0x80 ADD SWAP1 PUSH2 0x659 SWAP2 SWAP1 PUSH2 0x1AAD JUMP JUMPDEST DUP1 DUP1 PUSH1 0x1F ADD PUSH1 0x20 DUP1 SWAP2 DIV MUL PUSH1 0x20 ADD PUSH1 0x40 MLOAD SWAP1 DUP2 ADD PUSH1 0x40 MSTORE DUP1 SWAP4 SWAP3 SWAP2 SWAP1 DUP2 DUP2 MSTORE PUSH1 0x20 ADD DUP4 DUP4 DUP1 DUP3 DUP5 CALLDATACOPY PUSH1 0x0 DUP2 DUP5 ADD MSTORE PUSH1 0x1F NOT PUSH1 0x1F DUP3 ADD AND SWAP1 POP DUP1 DUP4 ADD SWAP3 POP POP POP POP POP POP POP PUSH2 0xD75 JUMP JUMPDEST POP POP POP POP JUMP JUMPDEST PUSH2 0x6AF PUSH2 0x7D9 JUMP JUMPDEST PUSH2 0x6B9 PUSH1 0x0 PUSH2 0xF8C JUMP JUMPDEST JUMP JUMPDEST PUSH1 0x0 DUP1 PUSH1 0x0 SWAP1 SLOAD SWAP1 PUSH2 0x100 EXP SWAP1 DIV PUSH20 0xFFFFFFFFFFFFFFFFFFFFFFFFFFFFFFFFFFFFFFFF AND SWAP1 POP SWAP1 JUMP JUMPDEST PUSH1 0x1 PUSH1 0x0 SWAP1 SLOAD SWAP1 PUSH2 0x100 EXP SWAP1 DIV PUSH20 0xFFFFFFFFFFFFFFFFFFFFFFFFFFFFFFFFFFFFFFFF AND DUP2 JUMP JUMPDEST PUSH1 0x0 PUSH2 0x746 DUP3 PUSH2 0x738 DUP6 PUSH1 0x40 MLOAD PUSH1 0x20 ADD PUSH2 0x724 SWAP2 SWAP1 PUSH2 0x1A19 JUMP JUMPDEST PUSH1 0x40 MLOAD PUSH1 0x20 DUP2 DUP4 SUB SUB DUP2 MSTORE SWAP1 PUSH1 0x40 MSTORE PUSH2 0x1050 JUMP JUMPDEST PUSH2 0x1061 SWAP1 SWAP2 SWAP1 PUSH4 0xFFFFFFFF AND JUMP JUMPDEST SWAP1 POP SWAP3 SWAP2 POP POP JUMP JUMPDEST PUSH1 0x0 SELFBALANCE SWAP1 POP SWAP1 JUMP JUMPDEST PUSH2 0x75E PUSH2 0x7D9 JUMP JUMPDEST PUSH1 0x0 PUSH20 0xFFFFFFFFFFFFFFFFFFFFFFFFFFFFFFFFFFFFFFFF AND DUP2 PUSH20 0xFFFFFFFFFFFFFFFFFFFFFFFFFFFFFFFFFFFFFFFF AND SUB PUSH2 0x7CD JUMPI PUSH1 0x40 MLOAD PUSH32 0x8C379A000000000000000000000000000000000000000000000000000000000 DUP2 MSTORE PUSH1 0x4 ADD PUSH2 0x7C4 SWAP1 PUSH2 0x1BEE JUMP JUMPDEST PUSH1 0x40 MLOAD DUP1 SWAP2 SUB SWAP1 REVERT JUMPDEST PUSH2 0x7D6 DUP2 PUSH2 0xF8C JUMP JUMPDEST POP JUMP JUMPDEST PUSH2 0x7E1 PUSH2 0x1088 JUMP JUMPDEST PUSH20 0xFFFFFFFFFFFFFFFFFFFFFFFFFFFFFFFFFFFFFFFF AND PUSH2 0x7FF PUSH2 0x6BB JUMP JUMPDEST PUSH20 0xFFFFFFFFFFFFFFFFFFFFFFFFFFFFFFFFFFFFFFFF AND EQ PUSH2 0x855 JUMPI PUSH1 0x40 MLOAD PUSH32 0x8C379A000000000000000000000000000000000000000000000000000000000 DUP2 MSTORE PUSH1 0x4 ADD PUSH2 0x84C SWAP1 PUSH2 0x1C5A JUMP JUMPDEST PUSH1 0x40 MLOAD DUP1 SWAP2 SUB SWAP1 REVERT JUMPDEST JUMP JUMPDEST PUSH1 0x0 DUP1 DUP5 PUSH20 0xFFFFFFFFFFFFFFFFFFFFFFFFFFFFFFFFFFFFFFFF AND PUSH4 0xA9059CBB DUP6 DUP6 PUSH1 0x40 MLOAD PUSH1 0x24 ADD PUSH2 0x889 SWAP3 SWAP2 SWAP1 PUSH2 0x1C7A JUMP JUMPDEST PUSH1 0x40 MLOAD PUSH1 0x20 DUP2 DUP4 SUB SUB DUP2 MSTORE SWAP1 PUSH1 0x40 MSTORE SWAP1 PUSH1 0xE0 SHL PUSH1 0x20 DUP3 ADD DUP1 MLOAD PUSH28 0xFFFFFFFFFFFFFFFFFFFFFFFFFFFFFFFFFFFFFFFFFFFFFFFFFFFFFFFF DUP4 DUP2 DUP4 AND OR DUP4 MSTORE POP POP POP POP PUSH1 0x40 MLOAD PUSH2 0x8D7 SWAP2 SWAP1 PUSH2 0x1D14 JUMP JUMPDEST PUSH1 0x0 PUSH1 0x40 MLOAD DUP1 DUP4 SUB DUP2 PUSH1 0x0 DUP7 GAS CALL SWAP2 POP POP RETURNDATASIZE DUP1 PUSH1 0x0 DUP2 EQ PUSH2 0x914 JUMPI PUSH1 0x40 MLOAD SWAP2 POP PUSH1 0x1F NOT PUSH1 0x3F RETURNDATASIZE ADD AND DUP3 ADD PUSH1 0x40 MSTORE RETURNDATASIZE DUP3 MSTORE RETURNDATASIZE PUSH1 0x0 PUSH1 0x20 DUP5 ADD RETURNDATACOPY PUSH2 0x919 JUMP JUMPDEST PUSH1 0x60 SWAP2 POP JUMPDEST POP SWAP2 POP SWAP2 POP DUP2 DUP1 ISZERO PUSH2 0x947 JUMPI POP PUSH1 0x0 DUP2 MLOAD EQ DUP1 PUSH2 0x946 JUMPI POP DUP1 DUP1 PUSH1 0x20 ADD SWAP1 MLOAD DUP2 ADD SWAP1 PUSH2 0x945 SWAP2 SWAP1 PUSH2 0x1D63 JUMP JUMPDEST JUMPDEST JUMPDEST PUSH2 0x986 JUMPI PUSH1 0x40 MLOAD PUSH32 0x8C379A000000000000000000000000000000000000000000000000000000000 DUP2 MSTORE PUSH1 0x4 ADD PUSH2 0x97D SWAP1 PUSH2 0x1E02 JUMP JUMPDEST PUSH1 0x40 MLOAD DUP1 SWAP2 SUB SWAP1 REVERT JUMPDEST POP POP POP POP POP JUMP JUMPDEST PUSH1 0x1B PUSH1 0xF8 SHL DUP2 PUSH1 0x40 DUP2 MLOAD DUP2 LT PUSH2 0x9A6 JUMPI PUSH2 0x9A5 PUSH2 0x1E22 JUMP JUMPDEST JUMPDEST PUSH1 0x20 ADD ADD SWAP1 PUSH31 0xFFFFFFFFFFFFFFFFFFFFFFFFFFFFFFFFFFFFFFFFFFFFFFFFFFFFFFFFFFFFFF NOT AND SWAP1 DUP2 PUSH1 0x0 BYTE SWAP1 MSTORE8 POP PUSH2 0x9DD PUSH2 0x6BB JUMP JUMPDEST PUSH20 0xFFFFFFFFFFFFFFFFFFFFFFFFFFFFFFFFFFFFFFFF AND PUSH2 0xA0E DUP3 PUSH2 0xA00 DUP6 PUSH2 0x1050 JUMP JUMPDEST PUSH2 0x1061 SWAP1 SWAP2 SWAP1 PUSH4 0xFFFFFFFF AND JUMP JUMPDEST PUSH20 0xFFFFFFFFFFFFFFFFFFFFFFFFFFFFFFFFFFFFFFFF AND SUB ISZERO PUSH2 0xB02 JUMPI PUSH1 0x1C PUSH1 0xF8 SHL DUP2 PUSH1 0x40 DUP2 MLOAD DUP2 LT PUSH2 0xA43 JUMPI PUSH2 0xA42 PUSH2 0x1E22 JUMP JUMPDEST JUMPDEST PUSH1 0x20 ADD ADD SWAP1 PUSH31 0xFFFFFFFFFFFFFFFFFFFFFFFFFFFFFFFFFFFFFFFFFFFFFFFFFFFFFFFFFFFFFF NOT AND SWAP1 DUP2 PUSH1 0x0 BYTE SWAP1 MSTORE8 POP PUSH2 0xA7A PUSH2 0x6BB JUMP JUMPDEST PUSH20 0xFFFFFFFFFFFFFFFFFFFFFFFFFFFFFFFFFFFFFFFF AND PUSH2 0xAAB DUP3 PUSH2 0xA9D DUP6 PUSH2 0x1050 JUMP JUMPDEST PUSH2 0x1061 SWAP1 SWAP2 SWAP1 PUSH4 0xFFFFFFFF AND JUMP JUMPDEST PUSH20 0xFFFFFFFFFFFFFFFFFFFFFFFFFFFFFFFFFFFFFFFF AND EQ PUSH2 0xB01 JUMPI PUSH1 0x40 MLOAD PUSH32 0x8C379A000000000000000000000000000000000000000000000000000000000 DUP2 MSTORE PUSH1 0x4 ADD PUSH2 0xAF8 SWAP1 PUSH2 0x1E9D JUMP JUMPDEST PUSH1 0x40 MLOAD DUP1 SWAP2 SUB SWAP1 REVERT JUMPDEST JUMPDEST POP POP JUMP JUMPDEST PUSH1 0x0 DUP1 DUP6 PUSH20 0xFFFFFFFFFFFFFFFFFFFFFFFFFFFFFFFFFFFFFFFF AND PUSH4 0x23B872DD DUP7 DUP7 DUP7 PUSH1 0x40 MLOAD PUSH1 0x24 ADD PUSH2 0xB3A SWAP4 SWAP3 SWAP2 SWAP1 PUSH2 0x1EBD JUMP JUMPDEST PUSH1 0x40 MLOAD PUSH1 0x20 DUP2 DUP4 SUB SUB DUP2 MSTORE SWAP1 PUSH1 0x40 MSTORE SWAP1 PUSH1 0xE0 SHL PUSH1 0x20 DUP3 ADD DUP1 MLOAD PUSH28 0xFFFFFFFFFFFFFFFFFFFFFFFFFFFFFFFFFFFFFFFFFFFFFFFFFFFFFFFF DUP4 DUP2 DUP4 AND OR DUP4 MSTORE POP POP POP POP PUSH1 0x40 MLOAD PUSH2 0xB88 SWAP2 SWAP1 PUSH2 0x1D14 JUMP JUMPDEST PUSH1 0x0 PUSH1 0x40 MLOAD DUP1 DUP4 SUB DUP2 PUSH1 0x0 DUP7 GAS CALL SWAP2 POP POP RETURNDATASIZE DUP1 PUSH1 0x0 DUP2 EQ PUSH2 0xBC5 JUMPI PUSH1 0x40 MLOAD SWAP2 POP PUSH1 0x1F NOT PUSH1 0x3F RETURNDATASIZE ADD AND DUP3 ADD PUSH1 0x40 MSTORE RETURNDATASIZE DUP3 MSTORE RETURNDATASIZE PUSH1 0x0 PUSH1 0x20 DUP5 ADD RETURNDATACOPY PUSH2 0xBCA JUMP JUMPDEST PUSH1 0x60 SWAP2 POP JUMPDEST POP SWAP2 POP SWAP2 POP DUP2 DUP1 ISZERO PUSH2 0xBF8 JUMPI POP PUSH1 0x0 DUP2 MLOAD EQ DUP1 PUSH2 0xBF7 JUMPI POP DUP1 DUP1 PUSH1 0x20 ADD SWAP1 MLOAD DUP2 ADD SWAP1 PUSH2 0xBF6 SWAP2 SWAP1 PUSH2 0x1D63 JUMP JUMPDEST JUMPDEST JUMPDEST PUSH2 0xC37 JUMPI PUSH1 0x40 MLOAD PUSH32 0x8C379A000000000000000000000000000000000000000000000000000000000 DUP2 MSTORE PUSH1 0x4 ADD PUSH2 0xC2E SWAP1 PUSH2 0x1F66 JUMP JUMPDEST PUSH1 0x40 MLOAD DUP1 SWAP2 SUB SWAP1 REVERT JUMPDEST POP POP POP POP POP POP JUMP JUMPDEST PUSH1 0x0 DUP1 DUP5 PUSH20 0xFFFFFFFFFFFFFFFFFFFFFFFFFFFFFFFFFFFFFFFF AND PUSH4 0x95EA7B3 DUP6 DUP6 PUSH1 0x40 MLOAD PUSH1 0x24 ADD PUSH2 0xC71 SWAP3 SWAP2 SWAP1 PUSH2 0x1C7A JUMP JUMPDEST PUSH1 0x40 MLOAD PUSH1 0x20 DUP2 DUP4 SUB SUB DUP2 MSTORE SWAP1 PUSH1 0x40 MSTORE SWAP1 PUSH1 0xE0 SHL PUSH1 0x20 DUP3 ADD DUP1 MLOAD PUSH28 0xFFFFFFFFFFFFFFFFFFFFFFFFFFFFFFFFFFFFFFFFFFFFFFFFFFFFFFFF DUP4 DUP2 DUP4 AND OR DUP4 MSTORE POP POP POP POP PUSH1 0x40 MLOAD PUSH2 0xCBF SWAP2 SWAP1 PUSH2 0x1D14 JUMP JUMPDEST PUSH1 0x0 PUSH1 0x40 MLOAD DUP1 DUP4 SUB DUP2 PUSH1 0x0 DUP7 GAS CALL SWAP2 POP POP RETURNDATASIZE DUP1 PUSH1 0x0 DUP2 EQ PUSH2 0xCFC JUMPI PUSH1 0x40 MLOAD SWAP2 POP PUSH1 0x1F NOT PUSH1 0x3F RETURNDATASIZE ADD AND DUP3 ADD PUSH1 0x40 MSTORE RETURNDATASIZE DUP3 MSTORE RETURNDATASIZE PUSH1 0x0 PUSH1 0x20 DUP5 ADD RETURNDATACOPY PUSH2 0xD01 JUMP JUMPDEST PUSH1 0x60 SWAP2 POP JUMPDEST POP SWAP2 POP SWAP2 POP DUP2 DUP1 ISZERO PUSH2 0xD2F JUMPI POP PUSH1 0x0 DUP2 MLOAD EQ DUP1 PUSH2 0xD2E JUMPI POP DUP1 DUP1 PUSH1 0x20 ADD SWAP1 MLOAD DUP2 ADD SWAP1 PUSH2 0xD2D SWAP2 SWAP1 PUSH2 0x1D63 JUMP JUMPDEST JUMPDEST JUMPDEST PUSH2 0xD6E JUMPI PUSH1 0x40 MLOAD PUSH32 0x8C379A000000000000000000000000000000000000000000000000000000000 DUP2 MSTORE PUSH1 0x4 ADD PUSH2 0xD65 SWAP1 PUSH2 0x1FF8 JUMP JUMPDEST PUSH1 0x40 MLOAD DUP1 SWAP2 SUB SWAP1 REVERT JUMPDEST POP POP POP POP POP JUMP JUMPDEST PUSH1 0x0 DUP1 DUP5 PUSH20 0xFFFFFFFFFFFFFFFFFFFFFFFFFFFFFFFFFFFFFFFF AND DUP5 DUP5 PUSH1 0x40 MLOAD PUSH2 0xD9E SWAP2 SWAP1 PUSH2 0x1D14 JUMP JUMPDEST PUSH1 0x0 PUSH1 0x40 MLOAD DUP1 DUP4 SUB DUP2 DUP6 DUP8 GAS CALL SWAP3 POP POP POP RETURNDATASIZE DUP1 PUSH1 0x0 DUP2 EQ PUSH2 0xDDB JUMPI PUSH1 0x40 MLOAD SWAP2 POP PUSH1 0x1F NOT PUSH1 0x3F RETURNDATASIZE ADD AND DUP3 ADD PUSH1 0x40 MSTORE RETURNDATASIZE DUP3 MSTORE RETURNDATASIZE PUSH1 0x0 PUSH1 0x20 DUP5 ADD RETURNDATACOPY PUSH2 0xDE0 JUMP JUMPDEST PUSH1 0x60 SWAP2 POP JUMPDEST POP SWAP2 POP SWAP2 POP DUP2 PUSH2 0xE85 JUMPI PUSH1 0x44 DUP2 MLOAD LT ISZERO PUSH2 0xE2F JUMPI PUSH1 0x40 MLOAD PUSH32 0x8C379A000000000000000000000000000000000000000000000000000000000 DUP2 MSTORE PUSH1 0x4 ADD PUSH2 0xE26 SWAP1 PUSH2 0x208A JUMP JUMPDEST PUSH1 0x40 MLOAD DUP1 SWAP2 SUB SWAP1 REVERT JUMPDEST PUSH1 0x4 DUP2 ADD SWAP1 POP DUP1 DUP1 PUSH1 0x20 ADD SWAP1 MLOAD DUP2 ADD SWAP1 PUSH2 0xE49 SWAP2 SWAP1 PUSH2 0x214B JUMP JUMPDEST PUSH1 0x40 MLOAD PUSH32 0x8C379A000000000000000000000000000000000000000000000000000000000 DUP2 MSTORE PUSH1 0x4 ADD PUSH2 0xE7C SWAP2 SWAP1 PUSH2 0x21D8 JUMP JUMPDEST PUSH1 0x40 MLOAD DUP1 SWAP2 SUB SWAP1 REVERT JUMPDEST POP POP POP POP POP JUMP JUMPDEST PUSH1 0x0 DUP3 PUSH20 0xFFFFFFFFFFFFFFFFFFFFFFFFFFFFFFFFFFFFFFFF AND DUP3 PUSH1 0x0 PUSH8 0xFFFFFFFFFFFFFFFF DUP2 GT ISZERO PUSH2 0xEC1 JUMPI PUSH2 0xEC0 PUSH2 0x1600 JUMP JUMPDEST JUMPDEST PUSH1 0x40 MLOAD SWAP1 DUP1 DUP3 MSTORE DUP1 PUSH1 0x1F ADD PUSH1 0x1F NOT AND PUSH1 0x20 ADD DUP3 ADD PUSH1 0x40 MSTORE DUP1 ISZERO PUSH2 0xEF3 JUMPI DUP2 PUSH1 0x20 ADD PUSH1 0x1 DUP3 MUL DUP1 CALLDATASIZE DUP4 CALLDATACOPY DUP1 DUP3 ADD SWAP2 POP POP SWAP1 POP JUMPDEST POP PUSH1 0x40 MLOAD PUSH2 0xF01 SWAP2 SWAP1 PUSH2 0x1D14 JUMP JUMPDEST PUSH1 0x0 PUSH1 0x40 MLOAD DUP1 DUP4 SUB DUP2 DUP6 DUP8 GAS CALL SWAP3 POP POP POP RETURNDATASIZE DUP1 PUSH1 0x0 DUP2 EQ PUSH2 0xF3E JUMPI PUSH1 0x40 MLOAD SWAP2 POP PUSH1 0x1F NOT PUSH1 0x3F RETURNDATASIZE ADD AND DUP3 ADD PUSH1 0x40 MSTORE RETURNDATASIZE DUP3 MSTORE RETURNDATASIZE PUSH1 0x0 PUSH1 0x20 DUP5 ADD RETURNDATACOPY PUSH2 0xF43 JUMP JUMPDEST PUSH1 0x60 SWAP2 POP JUMPDEST POP POP SWAP1 POP DUP1 PUSH2 0xF87 JUMPI PUSH1 0x40 MLOAD PUSH32 0x8C379A000000000000000000000000000000000000000000000000000000000 DUP2 MSTORE PUSH1 0x4 ADD PUSH2 0xF7E SWAP1 PUSH2 0x226C JUMP JUMPDEST PUSH1 0x40 MLOAD DUP1 SWAP2 SUB SWAP1 REVERT JUMPDEST POP POP POP JUMP JUMPDEST PUSH1 0x0 DUP1 PUSH1 0x0 SWAP1 SLOAD SWAP1 PUSH2 0x100 EXP SWAP1 DIV PUSH20 0xFFFFFFFFFFFFFFFFFFFFFFFFFFFFFFFFFFFFFFFF AND SWAP1 POP DUP2 PUSH1 0x0 DUP1 PUSH2 0x100 EXP DUP2 SLOAD DUP2 PUSH20 0xFFFFFFFFFFFFFFFFFFFFFFFFFFFFFFFFFFFFFFFF MUL NOT AND SWAP1 DUP4 PUSH20 0xFFFFFFFFFFFFFFFFFFFFFFFFFFFFFFFFFFFFFFFF AND MUL OR SWAP1 SSTORE POP DUP2 PUSH20 0xFFFFFFFFFFFFFFFFFFFFFFFFFFFFFFFFFFFFFFFF AND DUP2 PUSH20 0xFFFFFFFFFFFFFFFFFFFFFFFFFFFFFFFFFFFFFFFF AND PUSH32 0x8BE0079C531659141344CD1FD0A4F28419497F9722A3DAAFE3B4186F6B6457E0 PUSH1 0x40 MLOAD PUSH1 0x40 MLOAD DUP1 SWAP2 SUB SWAP1 LOG3 POP POP JUMP JUMPDEST PUSH1 0x0 DUP2 DUP1 MLOAD SWAP1 PUSH1 0x20 ADD KECCAK256 SWAP1 POP SWAP2 SWAP1 POP JUMP JUMPDEST PUSH1 0x0 DUP1 PUSH1 0x0 PUSH2 0x1070 DUP6 DUP6 PUSH2 0x1090 JUMP JUMPDEST SWAP2 POP SWAP2 POP PUSH2 0x107D DUP2 PUSH2 0x10E1 JUMP JUMPDEST DUP2 SWAP3 POP POP POP SWAP3 SWAP2 POP POP JUMP JUMPDEST PUSH1 0x0 CALLER SWAP1 POP SWAP1 JUMP JUMPDEST PUSH1 0x0 DUP1 PUSH1 0x41 DUP4 MLOAD SUB PUSH2 0x10D1 JUMPI PUSH1 0x0 DUP1 PUSH1 0x0 PUSH1 0x20 DUP7 ADD MLOAD SWAP3 POP PUSH1 0x40 DUP7 ADD MLOAD SWAP2 POP PUSH1 0x60 DUP7 ADD MLOAD PUSH1 0x0 BYTE SWAP1 POP PUSH2 0x10C5 DUP8 DUP3 DUP6 DUP6 PUSH2 0x1247 JUMP JUMPDEST SWAP5 POP SWAP5 POP POP POP POP PUSH2 0x10DA JUMP JUMPDEST PUSH1 0x0 PUSH1 0x2 SWAP2 POP SWAP2 POP JUMPDEST SWAP3 POP SWAP3 SWAP1 POP JUMP JUMPDEST PUSH1 0x0 PUSH1 0x4 DUP2 GT ISZERO PUSH2 0x10F5 JUMPI PUSH2 0x10F4 PUSH2 0x228C JUMP JUMPDEST JUMPDEST DUP2 PUSH1 0x4 DUP2 GT ISZERO PUSH2 0x1108 JUMPI PUSH2 0x1107 PUSH2 0x228C JUMP JUMPDEST JUMPDEST SUB ISZERO PUSH2 0x1244 JUMPI PUSH1 0x1 PUSH1 0x4 DUP2 GT ISZERO PUSH2 0x1122 JUMPI PUSH2 0x1121 PUSH2 0x228C JUMP JUMPDEST JUMPDEST DUP2 PUSH1 0x4 DUP2 GT ISZERO PUSH2 0x1135 JUMPI PUSH2 0x1134 PUSH2 0x228C JUMP JUMPDEST JUMPDEST SUB PUSH2 0x1175 JUMPI PUSH1 0x40 MLOAD PUSH32 0x8C379A000000000000000000000000000000000000000000000000000000000 DUP2 MSTORE PUSH1 0x4 ADD PUSH2 0x116C SWAP1 PUSH2 0x2307 JUMP JUMPDEST PUSH1 0x40 MLOAD DUP1 SWAP2 SUB SWAP1 REVERT JUMPDEST PUSH1 0x2 PUSH1 0x4 DUP2 GT ISZERO PUSH2 0x1189 JUMPI PUSH2 0x1188 PUSH2 0x228C JUMP JUMPDEST JUMPDEST DUP2 PUSH1 0x4 DUP2 GT ISZERO PUSH2 0x119C JUMPI PUSH2 0x119B PUSH2 0x228C JUMP JUMPDEST JUMPDEST SUB PUSH2 0x11DC JUMPI PUSH1 0x40 MLOAD PUSH32 0x8C379A000000000000000000000000000000000000000000000000000000000 DUP2 MSTORE PUSH1 0x4 ADD PUSH2 0x11D3 SWAP1 PUSH2 0x2373 JUMP JUMPDEST PUSH1 0x40 MLOAD DUP1 SWAP2 SUB SWAP1 REVERT JUMPDEST PUSH1 0x3 PUSH1 0x4 DUP2 GT ISZERO PUSH2 0x11F0 JUMPI PUSH2 0x11EF PUSH2 0x228C JUMP JUMPDEST JUMPDEST DUP2 PUSH1 0x4 DUP2 GT ISZERO PUSH2 0x1203 JUMPI PUSH2 0x1202 PUSH2 0x228C JUMP JUMPDEST JUMPDEST SUB PUSH2 0x1243 JUMPI PUSH1 0x40 MLOAD PUSH32 0x8C379A000000000000000000000000000000000000000000000000000000000 DUP2 MSTORE PUSH1 0x4 ADD PUSH2 0x123A SWAP1 PUSH2 0x2405 JUMP JUMPDEST PUSH1 0x40 MLOAD DUP1 SWAP2 SUB SWAP1 REVERT JUMPDEST JUMPDEST POP JUMP JUMPDEST PUSH1 0x0 DUP1 PUSH32 0x7FFFFFFFFFFFFFFFFFFFFFFFFFFFFFFF5D576E7357A4501DDFE92F46681B20A0 DUP4 PUSH1 0x0 SHR GT ISZERO PUSH2 0x1282 JUMPI PUSH1 0x0 PUSH1 0x3 SWAP2 POP SWAP2 POP PUSH2 0x1320 JUMP JUMPDEST PUSH1 0x0 PUSH1 0x1 DUP8 DUP8 DUP8 DUP8 PUSH1 0x40 MLOAD PUSH1 0x0 DUP2 MSTORE PUSH1 0x20 ADD PUSH1 0x40 MSTORE PUSH1 0x40 MLOAD PUSH2 0x12A7 SWAP5 SWAP4 SWAP3 SWAP2 SWAP1 PUSH2 0x245A JUMP JUMPDEST PUSH1 0x20 PUSH1 0x40 MLOAD PUSH1 0x20 DUP2 SUB SWAP1 DUP1 DUP5 SUB SWAP1 DUP6 GAS STATICCALL ISZERO DUP1 ISZERO PUSH2 0x12C9 JUMPI RETURNDATASIZE PUSH1 0x0 DUP1 RETURNDATACOPY RETURNDATASIZE PUSH1 0x0 REVERT JUMPDEST POP POP POP PUSH1 0x20 PUSH1 0x40 MLOAD SUB MLOAD SWAP1 POP PUSH1 0x0 PUSH20 0xFFFFFFFFFFFFFFFFFFFFFFFFFFFFFFFFFFFFFFFF AND DUP2 PUSH20 0xFFFFFFFFFFFFFFFFFFFFFFFFFFFFFFFFFFFFFFFF AND SUB PUSH2 0x1317 JUMPI PUSH1 0x0 PUSH1 0x1 SWAP3 POP SWAP3 POP POP PUSH2 0x1320 JUMP JUMPDEST DUP1 PUSH1 0x0 SWAP3 POP SWAP3 POP POP JUMPDEST SWAP5 POP SWAP5 SWAP3 POP POP POP JUMP JUMPDEST PUSH1 0x0 PUSH1 0x40 MLOAD SWAP1 POP SWAP1 JUMP JUMPDEST PUSH1 0x0 DUP1 REVERT JUMPDEST PUSH1 0x0 DUP1 REVERT JUMPDEST PUSH1 0x0 PUSH20 0xFFFFFFFFFFFFFFFFFFFFFFFFFFFFFFFFFFFFFFFF DUP3 AND SWAP1 POP SWAP2 SWAP1 POP JUMP JUMPDEST PUSH1 0x0 PUSH2 0x1368 DUP3 PUSH2 0x133D JUMP JUMPDEST SWAP1 POP SWAP2 SWAP1 POP JUMP JUMPDEST PUSH2 0x1378 DUP2 PUSH2 0x135D JUMP JUMPDEST DUP2 EQ PUSH2 0x1383 JUMPI PUSH1 0x0 DUP1 REVERT JUMPDEST POP JUMP JUMPDEST PUSH1 0x0 DUP2 CALLDATALOAD SWAP1 POP PUSH2 0x1395 DUP2 PUSH2 0x136F JUMP JUMPDEST SWAP3 SWAP2 POP POP JUMP JUMPDEST PUSH1 0x0 DUP2 SWAP1 POP SWAP2 SWAP1 POP JUMP JUMPDEST PUSH2 0x13AE DUP2 PUSH2 0x139B JUMP JUMPDEST DUP2 EQ PUSH2 0x13B9 JUMPI PUSH1 0x0 DUP1 REVERT JUMPDEST POP JUMP JUMPDEST PUSH1 0x0 DUP2 CALLDATALOAD SWAP1 POP PUSH2 0x13CB DUP2 PUSH2 0x13A5 JUMP JUMPDEST SWAP3 SWAP2 POP POP JUMP JUMPDEST PUSH1 0x0 DUP1 PUSH1 0x0 PUSH1 0x60 DUP5 DUP7 SUB SLT ISZERO PUSH2 0x13EA JUMPI PUSH2 0x13E9 PUSH2 0x1333 JUMP JUMPDEST JUMPDEST PUSH1 0x0 PUSH2 0x13F8 DUP7 DUP3 DUP8 ADD PUSH2 0x1386 JUMP JUMPDEST SWAP4 POP POP PUSH1 0x20 PUSH2 0x1409 DUP7 DUP3 DUP8 ADD PUSH2 0x1386 JUMP JUMPDEST SWAP3 POP POP PUSH1 0x40 PUSH2 0x141A DUP7 DUP3 DUP8 ADD PUSH2 0x13BC JUMP JUMPDEST SWAP2 POP POP SWAP3 POP SWAP3 POP SWAP3 JUMP JUMPDEST PUSH1 0x0 PUSH1 0x20 DUP3 DUP5 SUB SLT ISZERO PUSH2 0x143A JUMPI PUSH2 0x1439 PUSH2 0x1333 JUMP JUMPDEST JUMPDEST PUSH1 0x0 PUSH2 0x1448 DUP5 DUP3 DUP6 ADD PUSH2 0x1386 JUMP JUMPDEST SWAP2 POP POP SWAP3 SWAP2 POP POP JUMP JUMPDEST PUSH2 0x145A DUP2 PUSH2 0x139B JUMP JUMPDEST DUP3 MSTORE POP POP JUMP JUMPDEST PUSH1 0x0 PUSH1 0x20 DUP3 ADD SWAP1 POP PUSH2 0x1475 PUSH1 0x0 DUP4 ADD DUP5 PUSH2 0x1451 JUMP JUMPDEST SWAP3 SWAP2 POP POP JUMP JUMPDEST PUSH1 0x0 DUP1 REVERT JUMPDEST PUSH1 0x0 PUSH1 0xC0 DUP3 DUP5 SUB SLT ISZERO PUSH2 0x1496 JUMPI PUSH2 0x1495 PUSH2 0x147B JUMP JUMPDEST JUMPDEST DUP2 SWAP1 POP SWAP3 SWAP2 POP POP JUMP JUMPDEST PUSH1 0x0 DUP1 REVERT JUMPDEST PUSH1 0x0 DUP1 REVERT JUMPDEST PUSH1 0x0 DUP1 REVERT JUMPDEST PUSH1 0x0 DUP1 DUP4 PUSH1 0x1F DUP5 ADD SLT PUSH2 0x14C4 JUMPI PUSH2 0x14C3 PUSH2 0x149F JUMP JUMPDEST JUMPDEST DUP3 CALLDATALOAD SWAP1 POP PUSH8 0xFFFFFFFFFFFFFFFF DUP2 GT ISZERO PUSH2 0x14E1 JUMPI PUSH2 0x14E0 PUSH2 0x14A4 JUMP JUMPDEST JUMPDEST PUSH1 0x20 DUP4 ADD SWAP2 POP DUP4 PUSH1 0x1 DUP3 MUL DUP4 ADD GT ISZERO PUSH2 0x14FD JUMPI PUSH2 0x14FC PUSH2 0x14A9 JUMP JUMPDEST JUMPDEST SWAP3 POP SWAP3 SWAP1 POP JUMP JUMPDEST PUSH1 0x0 DUP1 PUSH1 0x0 PUSH1 0x40 DUP5 DUP7 SUB SLT ISZERO PUSH2 0x151D JUMPI PUSH2 0x151C PUSH2 0x1333 JUMP JUMPDEST JUMPDEST PUSH1 0x0 DUP5 ADD CALLDATALOAD PUSH8 0xFFFFFFFFFFFFFFFF DUP2 GT ISZERO PUSH2 0x153B JUMPI PUSH2 0x153A PUSH2 0x1338 JUMP JUMPDEST JUMPDEST PUSH2 0x1547 DUP7 DUP3 DUP8 ADD PUSH2 0x1480 JUMP JUMPDEST SWAP4 POP POP PUSH1 0x20 DUP5 ADD CALLDATALOAD PUSH8 0xFFFFFFFFFFFFFFFF DUP2 GT ISZERO PUSH2 0x1568 JUMPI PUSH2 0x1567 PUSH2 0x1338 JUMP JUMPDEST JUMPDEST PUSH2 0x1574 DUP7 DUP3 DUP8 ADD PUSH2 0x14AE JUMP JUMPDEST SWAP3 POP SWAP3 POP POP SWAP3 POP SWAP3 POP SWAP3 JUMP JUMPDEST PUSH1 0x0 DUP1 PUSH1 0x40 DUP4 DUP6 SUB SLT ISZERO PUSH2 0x1597 JUMPI PUSH2 0x1596 PUSH2 0x1333 JUMP JUMPDEST JUMPDEST PUSH1 0x0 PUSH2 0x15A5 DUP6 DUP3 DUP7 ADD PUSH2 0x1386 JUMP JUMPDEST SWAP3 POP POP PUSH1 0x20 PUSH2 0x15B6 DUP6 DUP3 DUP7 ADD PUSH2 0x13BC JUMP JUMPDEST SWAP2 POP POP SWAP3 POP SWAP3 SWAP1 POP JUMP JUMPDEST PUSH2 0x15C9 DUP2 PUSH2 0x135D JUMP JUMPDEST DUP3 MSTORE POP POP JUMP JUMPDEST PUSH1 0x0 PUSH1 0x20 DUP3 ADD SWAP1 POP PUSH2 0x15E4 PUSH1 0x0 DUP4 ADD DUP5 PUSH2 0x15C0 JUMP JUMPDEST SWAP3 SWAP2 POP POP JUMP JUMPDEST PUSH1 0x0 DUP1 REVERT JUMPDEST PUSH1 0x0 PUSH1 0x1F NOT PUSH1 0x1F DUP4 ADD AND SWAP1 POP SWAP2 SWAP1 POP JUMP JUMPDEST PUSH32 0x4E487B7100000000000000000000000000000000000000000000000000000000 PUSH1 0x0 MSTORE PUSH1 0x41 PUSH1 0x4 MSTORE PUSH1 0x24 PUSH1 0x0 REVERT JUMPDEST PUSH2 0x1638 DUP3 PUSH2 0x15EF JUMP JUMPDEST DUP2 ADD DUP2 DUP2 LT PUSH8 0xFFFFFFFFFFFFFFFF DUP3 GT OR ISZERO PUSH2 0x1657 JUMPI PUSH2 0x1656 PUSH2 0x1600 JUMP JUMPDEST JUMPDEST DUP1 PUSH1 0x40 MSTORE POP POP POP JUMP JUMPDEST PUSH1 0x0 PUSH2 0x166A PUSH2 0x1329 JUMP JUMPDEST SWAP1 POP PUSH2 0x1676 DUP3 DUP3 PUSH2 0x162F JUMP JUMPDEST SWAP2 SWAP1 POP JUMP JUMPDEST PUSH1 0x0 PUSH8 0xFFFFFFFFFFFFFFFF DUP3 GT ISZERO PUSH2 0x1696 JUMPI PUSH2 0x1695 PUSH2 0x1600 JUMP JUMPDEST JUMPDEST PUSH2 0x169F DUP3 PUSH2 0x15EF JUMP JUMPDEST SWAP1 POP PUSH1 0x20 DUP2 ADD SWAP1 POP SWAP2 SWAP1 POP JUMP JUMPDEST DUP3 DUP2 DUP4 CALLDATACOPY PUSH1 0x0 DUP4 DUP4 ADD MSTORE POP POP POP JUMP JUMPDEST PUSH1 0x0 PUSH2 0x16CE PUSH2 0x16C9 DUP5 PUSH2 0x167B JUMP JUMPDEST PUSH2 0x1660 JUMP JUMPDEST SWAP1 POP DUP3 DUP2 MSTORE PUSH1 0x20 DUP2 ADD DUP5 DUP5 DUP5 ADD GT ISZERO PUSH2 0x16EA JUMPI PUSH2 0x16E9 PUSH2 0x15EA JUMP JUMPDEST JUMPDEST PUSH2 0x16F5 DUP5 DUP3 DUP6 PUSH2 0x16AC JUMP JUMPDEST POP SWAP4 SWAP3 POP POP POP JUMP JUMPDEST PUSH1 0x0 DUP3 PUSH1 0x1F DUP4 ADD SLT PUSH2 0x1712 JUMPI PUSH2 0x1711 PUSH2 0x149F JUMP JUMPDEST JUMPDEST DUP2 CALLDATALOAD PUSH2 0x1722 DUP5 DUP3 PUSH1 0x20 DUP7 ADD PUSH2 0x16BB JUMP JUMPDEST SWAP2 POP POP SWAP3 SWAP2 POP POP JUMP JUMPDEST PUSH1 0x0 DUP1 PUSH1 0x40 DUP4 DUP6 SUB SLT ISZERO PUSH2 0x1742 JUMPI PUSH2 0x1741 PUSH2 0x1333 JUMP JUMPDEST JUMPDEST PUSH1 0x0 DUP4 ADD CALLDATALOAD PUSH8 0xFFFFFFFFFFFFFFFF DUP2 GT ISZERO PUSH2 0x1760 JUMPI PUSH2 0x175F PUSH2 0x1338 JUMP JUMPDEST JUMPDEST PUSH2 0x176C DUP6 DUP3 DUP7 ADD PUSH2 0x1480 JUMP JUMPDEST SWAP3 POP POP PUSH1 0x20 DUP4 ADD CALLDATALOAD PUSH8 0xFFFFFFFFFFFFFFFF DUP2 GT ISZERO PUSH2 0x178D JUMPI PUSH2 0x178C PUSH2 0x1338 JUMP JUMPDEST JUMPDEST PUSH2 0x1799 DUP6 DUP3 DUP7 ADD PUSH2 0x16FD JUMP JUMPDEST SWAP2 POP POP SWAP3 POP SWAP3 SWAP1 POP JUMP JUMPDEST PUSH1 0x0 DUP2 MLOAD SWAP1 POP PUSH2 0x17B2 DUP2 PUSH2 0x13A5 JUMP JUMPDEST SWAP3 SWAP2 POP POP JUMP JUMPDEST PUSH1 0x0 PUSH1 0x20 DUP3 DUP5 SUB SLT ISZERO PUSH2 0x17CE JUMPI PUSH2 0x17CD PUSH2 0x1333 JUMP JUMPDEST JUMPDEST PUSH1 0x0 PUSH2 0x17DC DUP5 DUP3 DUP6 ADD PUSH2 0x17A3 JUMP JUMPDEST SWAP2 POP POP SWAP3 SWAP2 POP POP JUMP JUMPDEST PUSH1 0x0 DUP3 DUP3 MSTORE PUSH1 0x20 DUP3 ADD SWAP1 POP SWAP3 SWAP2 POP POP JUMP JUMPDEST PUSH32 0x696E76616C65642073656E646572000000000000000000000000000000000000 PUSH1 0x0 DUP3 ADD MSTORE POP JUMP JUMPDEST PUSH1 0x0 PUSH2 0x182C PUSH1 0xE DUP4 PUSH2 0x17E5 JUMP JUMPDEST SWAP2 POP PUSH2 0x1837 DUP3 PUSH2 0x17F6 JUMP JUMPDEST PUSH1 0x20 DUP3 ADD SWAP1 POP SWAP2 SWAP1 POP JUMP JUMPDEST PUSH1 0x0 PUSH1 0x20 DUP3 ADD SWAP1 POP DUP2 DUP2 SUB PUSH1 0x0 DUP4 ADD MSTORE PUSH2 0x185B DUP2 PUSH2 0x181F JUMP JUMPDEST SWAP1 POP SWAP2 SWAP1 POP JUMP JUMPDEST PUSH1 0x0 PUSH2 0x1871 PUSH1 0x20 DUP5 ADD DUP5 PUSH2 0x1386 JUMP JUMPDEST SWAP1 POP SWAP3 SWAP2 POP POP JUMP JUMPDEST PUSH2 0x1882 DUP2 PUSH2 0x135D JUMP JUMPDEST DUP3 MSTORE POP POP JUMP JUMPDEST PUSH1 0x0 PUSH2 0x1897 PUSH1 0x20 DUP5 ADD DUP5 PUSH2 0x13BC JUMP JUMPDEST SWAP1 POP SWAP3 SWAP2 POP POP JUMP JUMPDEST PUSH2 0x18A8 DUP2 PUSH2 0x139B JUMP JUMPDEST DUP3 MSTORE POP POP JUMP JUMPDEST PUSH1 0x0 DUP1 REVERT JUMPDEST PUSH1 0x0 DUP1 REVERT JUMPDEST PUSH1 0x0 DUP1 REVERT JUMPDEST PUSH1 0x0 DUP1 DUP4 CALLDATALOAD PUSH1 0x1 PUSH1 0x20 SUB DUP5 CALLDATASIZE SUB SUB DUP2 SLT PUSH2 0x18DA JUMPI PUSH2 0x18D9 PUSH2 0x18B8 JUMP JUMPDEST JUMPDEST DUP4 DUP2 ADD SWAP3 POP DUP3 CALLDATALOAD SWAP2 POP PUSH1 0x20 DUP4 ADD SWAP3 POP PUSH8 0xFFFFFFFFFFFFFFFF DUP3 GT ISZERO PUSH2 0x1902 JUMPI PUSH2 0x1901 PUSH2 0x18AE JUMP JUMPDEST JUMPDEST PUSH1 0x1 DUP3 MUL CALLDATASIZE SUB DUP4 SGT ISZERO PUSH2 0x1918 JUMPI PUSH2 0x1917 PUSH2 0x18B3 JUMP JUMPDEST JUMPDEST POP SWAP3 POP SWAP3 SWAP1 POP JUMP JUMPDEST PUSH1 0x0 DUP3 DUP3 MSTORE PUSH1 0x20 DUP3 ADD SWAP1 POP SWAP3 SWAP2 POP POP JUMP JUMPDEST PUSH1 0x0 PUSH2 0x193D DUP4 DUP6 PUSH2 0x1920 JUMP JUMPDEST SWAP4 POP PUSH2 0x194A DUP4 DUP6 DUP5 PUSH2 0x16AC JUMP JUMPDEST PUSH2 0x1953 DUP4 PUSH2 0x15EF JUMP JUMPDEST DUP5 ADD SWAP1 POP SWAP4 SWAP3 POP POP POP JUMP JUMPDEST PUSH1 0x0 PUSH1 0xC0 DUP4 ADD PUSH2 0x1971 PUSH1 0x0 DUP5 ADD DUP5 PUSH2 0x1862 JUMP JUMPDEST PUSH2 0x197E PUSH1 0x0 DUP7 ADD DUP3 PUSH2 0x1879 JUMP JUMPDEST POP PUSH2 0x198C PUSH1 0x20 DUP5 ADD DUP5 PUSH2 0x1888 JUMP JUMPDEST PUSH2 0x1999 PUSH1 0x20 DUP7 ADD DUP3 PUSH2 0x189F JUMP JUMPDEST POP PUSH2 0x19A7 PUSH1 0x40 DUP5 ADD DUP5 PUSH2 0x1888 JUMP JUMPDEST PUSH2 0x19B4 PUSH1 0x40 DUP7 ADD DUP3 PUSH2 0x189F JUMP JUMPDEST POP PUSH2 0x19C2 PUSH1 0x60 DUP5 ADD DUP5 PUSH2 0x1862 JUMP JUMPDEST PUSH2 0x19CF PUSH1 0x60 DUP7 ADD DUP3 PUSH2 0x1879 JUMP JUMPDEST POP PUSH2 0x19DD PUSH1 0x80 DUP5 ADD DUP5 PUSH2 0x18BD JUMP JUMPDEST DUP6 DUP4 SUB PUSH1 0x80 DUP8 ADD MSTORE PUSH2 0x19F0 DUP4 DUP3 DUP5 PUSH2 0x1931 JUMP JUMPDEST SWAP3 POP POP POP PUSH2 0x1A01 PUSH1 0xA0 DUP5 ADD DUP5 PUSH2 0x1862 JUMP JUMPDEST PUSH2 0x1A0E PUSH1 0xA0 DUP7 ADD DUP3 PUSH2 0x1879 JUMP JUMPDEST POP DUP1 SWAP2 POP POP SWAP3 SWAP2 POP POP JUMP JUMPDEST PUSH1 0x0 PUSH1 0x20 DUP3 ADD SWAP1 POP DUP2 DUP2 SUB PUSH1 0x0 DUP4 ADD MSTORE PUSH2 0x1A33 DUP2 DUP5 PUSH2 0x195E JUMP JUMPDEST SWAP1 POP SWAP3 SWAP2 POP POP JUMP JUMPDEST PUSH32 0x4E487B7100000000000000000000000000000000000000000000000000000000 PUSH1 0x0 MSTORE PUSH1 0x11 PUSH1 0x4 MSTORE PUSH1 0x24 PUSH1 0x0 REVERT JUMPDEST PUSH1 0x0 PUSH2 0x1A75 DUP3 PUSH2 0x139B JUMP JUMPDEST SWAP2 POP PUSH2 0x1A80 DUP4 PUSH2 0x139B JUMP JUMPDEST SWAP3 POP DUP3 DUP3 SUB SWAP1 POP DUP2 DUP2 GT ISZERO PUSH2 0x1A98 JUMPI PUSH2 0x1A97 PUSH2 0x1A3B JUMP JUMPDEST JUMPDEST SWAP3 SWAP2 POP POP JUMP JUMPDEST PUSH1 0x0 DUP1 REVERT JUMPDEST PUSH1 0x0 DUP1 REVERT JUMPDEST PUSH1 0x0 DUP1 REVERT JUMPDEST PUSH1 0x0 DUP1 DUP4 CALLDATALOAD PUSH1 0x1 PUSH1 0x20 SUB DUP5 CALLDATASIZE SUB SUB DUP2 SLT PUSH2 0x1ACA JUMPI PUSH2 0x1AC9 PUSH2 0x1A9E JUMP JUMPDEST JUMPDEST DUP1 DUP5 ADD SWAP3 POP DUP3 CALLDATALOAD SWAP2 POP PUSH8 0xFFFFFFFFFFFFFFFF DUP3 GT ISZERO PUSH2 0x1AEC JUMPI PUSH2 0x1AEB PUSH2 0x1AA3 JUMP JUMPDEST JUMPDEST PUSH1 0x20 DUP4 ADD SWAP3 POP PUSH1 0x1 DUP3 MUL CALLDATASIZE SUB DUP4 SGT ISZERO PUSH2 0x1B08 JUMPI PUSH2 0x1B07 PUSH2 0x1AA8 JUMP JUMPDEST JUMPDEST POP SWAP3 POP SWAP3 SWAP1 POP JUMP JUMPDEST PUSH32 0x696E73756666696369656E7420696E70757420616D6F756E7400000000000000 PUSH1 0x0 DUP3 ADD MSTORE POP JUMP JUMPDEST PUSH1 0x0 PUSH2 0x1B46 PUSH1 0x19 DUP4 PUSH2 0x17E5 JUMP JUMPDEST SWAP2 POP PUSH2 0x1B51 DUP3 PUSH2 0x1B10 JUMP JUMPDEST PUSH1 0x20 DUP3 ADD SWAP1 POP SWAP2 SWAP1 POP JUMP JUMPDEST PUSH1 0x0 PUSH1 0x20 DUP3 ADD SWAP1 POP DUP2 DUP2 SUB PUSH1 0x0 DUP4 ADD MSTORE PUSH2 0x1B75 DUP2 PUSH2 0x1B39 JUMP JUMPDEST SWAP1 POP SWAP2 SWAP1 POP JUMP JUMPDEST PUSH32 0x4F776E61626C653A206E6577206F776E657220697320746865207A65726F2061 PUSH1 0x0 DUP3 ADD MSTORE PUSH32 0x6464726573730000000000000000000000000000000000000000000000000000 PUSH1 0x20 DUP3 ADD MSTORE POP JUMP JUMPDEST PUSH1 0x0 PUSH2 0x1BD8 PUSH1 0x26 DUP4 PUSH2 0x17E5 JUMP JUMPDEST SWAP2 POP PUSH2 0x1BE3 DUP3 PUSH2 0x1B7C JUMP JUMPDEST PUSH1 0x40 DUP3 ADD SWAP1 POP SWAP2 SWAP1 POP JUMP JUMPDEST PUSH1 0x0 PUSH1 0x20 DUP3 ADD SWAP1 POP DUP2 DUP2 SUB PUSH1 0x0 DUP4 ADD MSTORE PUSH2 0x1C07 DUP2 PUSH2 0x1BCB JUMP JUMPDEST SWAP1 POP SWAP2 SWAP1 POP JUMP JUMPDEST PUSH32 0x4F776E61626C653A2063616C6C6572206973206E6F7420746865206F776E6572 PUSH1 0x0 DUP3 ADD MSTORE POP JUMP JUMPDEST PUSH1 0x0 PUSH2 0x1C44 PUSH1 0x20 DUP4 PUSH2 0x17E5 JUMP JUMPDEST SWAP2 POP PUSH2 0x1C4F DUP3 PUSH2 0x1C0E JUMP JUMPDEST PUSH1 0x20 DUP3 ADD SWAP1 POP SWAP2 SWAP1 POP JUMP JUMPDEST PUSH1 0x0 PUSH1 0x20 DUP3 ADD SWAP1 POP DUP2 DUP2 SUB PUSH1 0x0 DUP4 ADD MSTORE PUSH2 0x1C73 DUP2 PUSH2 0x1C37 JUMP JUMPDEST SWAP1 POP SWAP2 SWAP1 POP JUMP JUMPDEST PUSH1 0x0 PUSH1 0x40 DUP3 ADD SWAP1 POP PUSH2 0x1C8F PUSH1 0x0 DUP4 ADD DUP6 PUSH2 0x15C0 JUMP JUMPDEST PUSH2 0x1C9C PUSH1 0x20 DUP4 ADD DUP5 PUSH2 0x1451 JUMP JUMPDEST SWAP4 SWAP3 POP POP POP JUMP JUMPDEST PUSH1 0x0 DUP2 MLOAD SWAP1 POP SWAP2 SWAP1 POP JUMP JUMPDEST PUSH1 0x0 DUP2 SWAP1 POP SWAP3 SWAP2 POP POP JUMP JUMPDEST PUSH1 0x0 JUMPDEST DUP4 DUP2 LT ISZERO PUSH2 0x1CD7 JUMPI DUP1 DUP3 ADD MLOAD DUP2 DUP5 ADD MSTORE PUSH1 0x20 DUP2 ADD SWAP1 POP PUSH2 0x1CBC JUMP JUMPDEST PUSH1 0x0 DUP5 DUP5 ADD MSTORE POP POP POP POP JUMP JUMPDEST PUSH1 0x0 PUSH2 0x1CEE DUP3 PUSH2 0x1CA3 JUMP JUMPDEST PUSH2 0x1CF8 DUP2 DUP6 PUSH2 0x1CAE JUMP JUMPDEST SWAP4 POP PUSH2 0x1D08 DUP2 DUP6 PUSH1 0x20 DUP7 ADD PUSH2 0x1CB9 JUMP JUMPDEST DUP1 DUP5 ADD SWAP2 POP POP SWAP3 SWAP2 POP POP JUMP JUMPDEST PUSH1 0x0 PUSH2 0x1D20 DUP3 DUP5 PUSH2 0x1CE3 JUMP JUMPDEST SWAP2 POP DUP2 SWAP1 POP SWAP3 SWAP2 POP POP JUMP JUMPDEST PUSH1 0x0 DUP2 ISZERO ISZERO SWAP1 POP SWAP2 SWAP1 POP JUMP JUMPDEST PUSH2 0x1D40 DUP2 PUSH2 0x1D2B JUMP JUMPDEST DUP2 EQ PUSH2 0x1D4B JUMPI PUSH1 0x0 DUP1 REVERT JUMPDEST POP JUMP JUMPDEST PUSH1 0x0 DUP2 MLOAD SWAP1 POP PUSH2 0x1D5D DUP2 PUSH2 0x1D37 JUMP JUMPDEST SWAP3 SWAP2 POP POP JUMP JUMPDEST PUSH1 0x0 PUSH1 0x20 DUP3 DUP5 SUB SLT ISZERO PUSH2 0x1D79 JUMPI PUSH2 0x1D78 PUSH2 0x1333 JUMP JUMPDEST JUMPDEST PUSH1 0x0 PUSH2 0x1D87 DUP5 DUP3 DUP6 ADD PUSH2 0x1D4E JUMP JUMPDEST SWAP2 POP POP SWAP3 SWAP2 POP POP JUMP JUMPDEST PUSH32 0x45786368616E676541676772656761746F723A3A5472616E7366657248656C70 PUSH1 0x0 DUP3 ADD MSTORE PUSH32 0x65723A736166655472616E736665720000000000000000000000000000000000 PUSH1 0x20 DUP3 ADD MSTORE POP JUMP JUMPDEST PUSH1 0x0 PUSH2 0x1DEC PUSH1 0x2F DUP4 PUSH2 0x17E5 JUMP JUMPDEST SWAP2 POP PUSH2 0x1DF7 DUP3 PUSH2 0x1D90 JUMP JUMPDEST PUSH1 0x40 DUP3 ADD SWAP1 POP SWAP2 SWAP1 POP JUMP JUMPDEST PUSH1 0x0 PUSH1 0x20 DUP3 ADD SWAP1 POP DUP2 DUP2 SUB PUSH1 0x0 DUP4 ADD MSTORE PUSH2 0x1E1B DUP2 PUSH2 0x1DDF JUMP JUMPDEST SWAP1 POP SWAP2 SWAP1 POP JUMP JUMPDEST PUSH32 0x4E487B7100000000000000000000000000000000000000000000000000000000 PUSH1 0x0 MSTORE PUSH1 0x32 PUSH1 0x4 MSTORE PUSH1 0x24 PUSH1 0x0 REVERT JUMPDEST PUSH32 0x646174612074616D706572656400000000000000000000000000000000000000 PUSH1 0x0 DUP3 ADD MSTORE POP JUMP JUMPDEST PUSH1 0x0 PUSH2 0x1E87 PUSH1 0xD DUP4 PUSH2 0x17E5 JUMP JUMPDEST SWAP2 POP PUSH2 0x1E92 DUP3 PUSH2 0x1E51 JUMP JUMPDEST PUSH1 0x20 DUP3 ADD SWAP1 POP SWAP2 SWAP1 POP JUMP JUMPDEST PUSH1 0x0 PUSH1 0x20 DUP3 ADD SWAP1 POP DUP2 DUP2 SUB PUSH1 0x0 DUP4 ADD MSTORE PUSH2 0x1EB6 DUP2 PUSH2 0x1E7A JUMP JUMPDEST SWAP1 POP SWAP2 SWAP1 POP JUMP JUMPDEST PUSH1 0x0 PUSH1 0x60 DUP3 ADD SWAP1 POP PUSH2 0x1ED2 PUSH1 0x0 DUP4 ADD DUP7 PUSH2 0x15C0 JUMP JUMPDEST PUSH2 0x1EDF PUSH1 0x20 DUP4 ADD DUP6 PUSH2 0x15C0 JUMP JUMPDEST PUSH2 0x1EEC PUSH1 0x40 DUP4 ADD DUP5 PUSH2 0x1451 JUMP JUMPDEST SWAP5 SWAP4 POP POP POP POP JUMP JUMPDEST PUSH32 0x45786368616E676541676772656761746F723A3A5472616E7366657248656C70 PUSH1 0x0 DUP3 ADD MSTORE PUSH32 0x65723A736166655472616E7366657246726F6D00000000000000000000000000 PUSH1 0x20 DUP3 ADD MSTORE POP JUMP JUMPDEST PUSH1 0x0 PUSH2 0x1F50 PUSH1 0x33 DUP4 PUSH2 0x17E5 JUMP JUMPDEST SWAP2 POP PUSH2 0x1F5B DUP3 PUSH2 0x1EF4 JUMP JUMPDEST PUSH1 0x40 DUP3 ADD SWAP1 POP SWAP2 SWAP1 POP JUMP JUMPDEST PUSH1 0x0 PUSH1 0x20 DUP3 ADD SWAP1 POP DUP2 DUP2 SUB PUSH1 0x0 DUP4 ADD MSTORE PUSH2 0x1F7F DUP2 PUSH2 0x1F43 JUMP JUMPDEST SWAP1 POP SWAP2 SWAP1 POP JUMP JUMPDEST PUSH32 0x45786368616E676541676772656761746F723A3A5472616E7366657248656C70 PUSH1 0x0 DUP3 ADD MSTORE PUSH32 0x65723A73616665417070726F7665000000000000000000000000000000000000 PUSH1 0x20 DUP3 ADD MSTORE POP JUMP JUMPDEST PUSH1 0x0 PUSH2 0x1FE2 PUSH1 0x2E DUP4 PUSH2 0x17E5 JUMP JUMPDEST SWAP2 POP PUSH2 0x1FED DUP3 PUSH2 0x1F86 JUMP JUMPDEST PUSH1 0x40 DUP3 ADD SWAP1 POP SWAP2 SWAP1 POP JUMP JUMPDEST PUSH1 0x0 PUSH1 0x20 DUP3 ADD SWAP1 POP DUP2 DUP2 SUB PUSH1 0x0 DUP4 ADD MSTORE PUSH2 0x2011 DUP2 PUSH2 0x1FD5 JUMP JUMPDEST SWAP1 POP SWAP2 SWAP1 POP JUMP JUMPDEST PUSH32 0x45786368616E676541676772656761746F723A3A5361666543616C6C65723A73 PUSH1 0x0 DUP3 ADD MSTORE PUSH32 0x61666543616C6C00000000000000000000000000000000000000000000000000 PUSH1 0x20 DUP3 ADD MSTORE POP JUMP JUMPDEST PUSH1 0x0 PUSH2 0x2074 PUSH1 0x27 DUP4 PUSH2 0x17E5 JUMP JUMPDEST SWAP2 POP PUSH2 0x207F DUP3 PUSH2 0x2018 JUMP JUMPDEST PUSH1 0x40 DUP3 ADD SWAP1 POP SWAP2 SWAP1 POP JUMP JUMPDEST PUSH1 0x0 PUSH1 0x20 DUP3 ADD SWAP1 POP DUP2 DUP2 SUB PUSH1 0x0 DUP4 ADD MSTORE PUSH2 0x20A3 DUP2 PUSH2 0x2067 JUMP JUMPDEST SWAP1 POP SWAP2 SWAP1 POP JUMP JUMPDEST PUSH1 0x0 PUSH8 0xFFFFFFFFFFFFFFFF DUP3 GT ISZERO PUSH2 0x20C5 JUMPI PUSH2 0x20C4 PUSH2 0x1600 JUMP JUMPDEST JUMPDEST PUSH2 0x20CE DUP3 PUSH2 0x15EF JUMP JUMPDEST SWAP1 POP PUSH1 0x20 DUP2 ADD SWAP1 POP SWAP2 SWAP1 POP JUMP JUMPDEST PUSH1 0x0 PUSH2 0x20EE PUSH2 0x20E9 DUP5 PUSH2 0x20AA JUMP JUMPDEST PUSH2 0x1660 JUMP JUMPDEST SWAP1 POP DUP3 DUP2 MSTORE PUSH1 0x20 DUP2 ADD DUP5 DUP5 DUP5 ADD GT ISZERO PUSH2 0x210A JUMPI PUSH2 0x2109 PUSH2 0x15EA JUMP JUMPDEST JUMPDEST PUSH2 0x2115 DUP5 DUP3 DUP6 PUSH2 0x1CB9 JUMP JUMPDEST POP SWAP4 SWAP3 POP POP POP JUMP JUMPDEST PUSH1 0x0 DUP3 PUSH1 0x1F DUP4 ADD SLT PUSH2 0x2132 JUMPI PUSH2 0x2131 PUSH2 0x149F JUMP JUMPDEST JUMPDEST DUP2 MLOAD PUSH2 0x2142 DUP5 DUP3 PUSH1 0x20 DUP7 ADD PUSH2 0x20DB JUMP JUMPDEST SWAP2 POP POP SWAP3 SWAP2 POP POP JUMP JUMPDEST PUSH1 0x0 PUSH1 0x20 DUP3 DUP5 SUB SLT ISZERO PUSH2 0x2161 JUMPI PUSH2 0x2160 PUSH2 0x1333 JUMP JUMPDEST JUMPDEST PUSH1 0x0 DUP3 ADD MLOAD PUSH8 0xFFFFFFFFFFFFFFFF DUP2 GT ISZERO PUSH2 0x217F JUMPI PUSH2 0x217E PUSH2 0x1338 JUMP JUMPDEST JUMPDEST PUSH2 0x218B DUP5 DUP3 DUP6 ADD PUSH2 0x211D JUMP JUMPDEST SWAP2 POP POP SWAP3 SWAP2 POP POP JUMP JUMPDEST PUSH1 0x0 DUP2 MLOAD SWAP1 POP SWAP2 SWAP1 POP JUMP JUMPDEST PUSH1 0x0 PUSH2 0x21AA DUP3 PUSH2 0x2194 JUMP JUMPDEST PUSH2 0x21B4 DUP2 DUP6 PUSH2 0x17E5 JUMP JUMPDEST SWAP4 POP PUSH2 0x21C4 DUP2 DUP6 PUSH1 0x20 DUP7 ADD PUSH2 0x1CB9 JUMP JUMPDEST PUSH2 0x21CD DUP2 PUSH2 0x15EF JUMP JUMPDEST DUP5 ADD SWAP2 POP POP SWAP3 SWAP2 POP POP JUMP JUMPDEST PUSH1 0x0 PUSH1 0x20 DUP3 ADD SWAP1 POP DUP2 DUP2 SUB PUSH1 0x0 DUP4 ADD MSTORE PUSH2 0x21F2 DUP2 DUP5 PUSH2 0x219F JUMP JUMPDEST SWAP1 POP SWAP3 SWAP2 POP POP JUMP JUMPDEST PUSH32 0x45786368616E676541676772656761746F723A3A5472616E7366657248656C70 PUSH1 0x0 DUP3 ADD MSTORE PUSH32 0x65723A736166655472616E736665724554480000000000000000000000000000 PUSH1 0x20 DUP3 ADD MSTORE POP JUMP JUMPDEST PUSH1 0x0 PUSH2 0x2256 PUSH1 0x32 DUP4 PUSH2 0x17E5 JUMP JUMPDEST SWAP2 POP PUSH2 0x2261 DUP3 PUSH2 0x21FA JUMP JUMPDEST PUSH1 0x40 DUP3 ADD SWAP1 POP SWAP2 SWAP1 POP JUMP JUMPDEST PUSH1 0x0 PUSH1 0x20 DUP3 ADD SWAP1 POP DUP2 DUP2 SUB PUSH1 0x0 DUP4 ADD MSTORE PUSH2 0x2285 DUP2 PUSH2 0x2249 JUMP JUMPDEST SWAP1 POP SWAP2 SWAP1 POP JUMP JUMPDEST PUSH32 0x4E487B7100000000000000000000000000000000000000000000000000000000 PUSH1 0x0 MSTORE PUSH1 0x21 PUSH1 0x4 MSTORE PUSH1 0x24 PUSH1 0x0 REVERT JUMPDEST PUSH32 0x45434453413A20696E76616C6964207369676E61747572650000000000000000 PUSH1 0x0 DUP3 ADD MSTORE POP JUMP JUMPDEST PUSH1 0x0 PUSH2 0x22F1 PUSH1 0x18 DUP4 PUSH2 0x17E5 JUMP JUMPDEST SWAP2 POP PUSH2 0x22FC DUP3 PUSH2 0x22BB JUMP JUMPDEST PUSH1 0x20 DUP3 ADD SWAP1 POP SWAP2 SWAP1 POP JUMP JUMPDEST PUSH1 0x0 PUSH1 0x20 DUP3 ADD SWAP1 POP DUP2 DUP2 SUB PUSH1 0x0 DUP4 ADD MSTORE PUSH2 0x2320 DUP2 PUSH2 0x22E4 JUMP JUMPDEST SWAP1 POP SWAP2 SWAP1 POP JUMP JUMPDEST PUSH32 0x45434453413A20696E76616C6964207369676E6174757265206C656E67746800 PUSH1 0x0 DUP3 ADD MSTORE POP JUMP JUMPDEST PUSH1 0x0 PUSH2 0x235D PUSH1 0x1F DUP4 PUSH2 0x17E5 JUMP JUMPDEST SWAP2 POP PUSH2 0x2368 DUP3 PUSH2 0x2327 JUMP JUMPDEST PUSH1 0x20 DUP3 ADD SWAP1 POP SWAP2 SWAP1 POP JUMP JUMPDEST PUSH1 0x0 PUSH1 0x20 DUP3 ADD SWAP1 POP DUP2 DUP2 SUB PUSH1 0x0 DUP4 ADD MSTORE PUSH2 0x238C DUP2 PUSH2 0x2350 JUMP JUMPDEST SWAP1 POP SWAP2 SWAP1 POP JUMP JUMPDEST PUSH32 0x45434453413A20696E76616C6964207369676E6174757265202773272076616C PUSH1 0x0 DUP3 ADD MSTORE PUSH32 0x7565000000000000000000000000000000000000000000000000000000000000 PUSH1 0x20 DUP3 ADD MSTORE POP JUMP JUMPDEST PUSH1 0x0 PUSH2 0x23EF PUSH1 0x22 DUP4 PUSH2 0x17E5 JUMP JUMPDEST SWAP2 POP PUSH2 0x23FA DUP3 PUSH2 0x2393 JUMP JUMPDEST PUSH1 0x40 DUP3 ADD SWAP1 POP SWAP2 SWAP1 POP JUMP JUMPDEST PUSH1 0x0 PUSH1 0x20 DUP3 ADD SWAP1 POP DUP2 DUP2 SUB PUSH1 0x0 DUP4 ADD MSTORE PUSH2 0x241E DUP2 PUSH2 0x23E2 JUMP JUMPDEST SWAP1 POP SWAP2 SWAP1 POP JUMP JUMPDEST PUSH1 0x0 DUP2 SWAP1 POP SWAP2 SWAP1 POP JUMP JUMPDEST PUSH2 0x2438 DUP2 PUSH2 0x2425 JUMP JUMPDEST DUP3 MSTORE POP POP JUMP JUMPDEST PUSH1 0x0 PUSH1 0xFF DUP3 AND SWAP1 POP SWAP2 SWAP1 POP JUMP JUMPDEST PUSH2 0x2454 DUP2 PUSH2 0x243E JUMP JUMPDEST DUP3 MSTORE POP POP JUMP JUMPDEST PUSH1 0x0 PUSH1 0x80 DUP3 ADD SWAP1 POP PUSH2 0x246F PUSH1 0x0 DUP4 ADD DUP8 PUSH2 0x242F JUMP JUMPDEST PUSH2 0x247C PUSH1 0x20 DUP4 ADD DUP7 PUSH2 0x244B JUMP JUMPDEST PUSH2 0x2489 PUSH1 0x40 DUP4 ADD DUP6 PUSH2 0x242F JUMP JUMPDEST PUSH2 0x2496 PUSH1 0x60 DUP4 ADD DUP5 PUSH2 0x242F JUMP JUMPDEST SWAP6 SWAP5 POP POP POP POP POP JUMP INVALID LOG2 PUSH5 0x6970667358 0x22 SLT KECCAK256 0xDB DUP8 0xDD 0xD7 SWAP12 RETURN 0xFC PUSH13 0x41D81E1C222E92C46D58D2E5B2 0xEF 0xE8 0xB9 0xEB CODESIZE MSTORE8 0xAB 0x2E 0xC8 0xAC 0x2E PUSH5 0x736F6C6343 STOP ADDMOD GT STOP CALLER "
				},
				"gasEstimates": {
					"creation": {
						"codeDepositCost": "1885800",
						"executionCost": "infinite",
						"totalCost": "infinite"
					},
					"external": {
						"WETH()": "2558",
						"balanceETH()": "427",
						"balanceToken(address)": "infinite",
						"owner()": "2544",
						"renounceOwnership()": "30398",
						"signer((address,uint256,uint256,address,bytes,address),bytes)": "infinite",
						"swap((address,uint256,uint256,address,bytes,address),bytes)": "infinite",
						"swapNativeIn((address,uint256,uint256,address,bytes,address),bytes)": "infinite",
						"transferOwnership(address)": "30854",
						"withdrawETH(address,uint256)": "infinite",
						"withdrawToken(address,address,uint256)": "infinite"
					},
					"internal": {
						"checkSig(bytes memory,bytes memory)": "infinite",
						"hash(bytes memory)": "infinite"
					}
				},
				"methodIdentifiers": {
					"WETH()": "ad5c4648",
					"balanceETH()": "ecbdbb32",
					"balanceToken(address)": "04599012",
					"owner()": "8da5cb5b",
					"renounceOwnership()": "715018a6",
					"signer((address,uint256,uint256,address,bytes,address),bytes)": "b0867883",
					"swap((address,uint256,uint256,address,bytes,address),bytes)": "2906799b",
					"swapNativeIn((address,uint256,uint256,address,bytes,address),bytes)": "5d86acf1",
					"transferOwnership(address)": "f2fde38b",
					"withdrawETH(address,uint256)": "4782f779",
					"withdrawToken(address,address,uint256)": "01e33667"
				}
			},
			"storageLayout": {
				"storage": [
					{
						"astId": 7,
						"contract": "contracts/ExchangeAggregator.sol:ExchangeAggregator",
						"label": "_owner",
						"offset": 0,
						"slot": "0",
						"type": "t_address"
					},
					{
						"astId": 1569,
						"contract": "contracts/ExchangeAggregator.sol:ExchangeAggregator",
						"label": "WETH",
						"offset": 0,
						"slot": "1",
						"type": "t_address"
					}
				],
				"types": {
					"t_address": {
						"encoding": "inplace",
						"label": "address",
						"numberOfBytes": "20"
					}
				}
			},
			"userdoc": {
				"kind": "user",
				"methods": {},
				"version": 1
			}
		}
	}
}