{
	"contracts/PriceAggregator.sol": {
		"PriceAggregator": {
			"abi": [
				{
					"inputs": [
						{
							"internalType": "address",
							"name": "provider",
							"type": "address"
						},
						{
							"internalType": "address",
							"name": "tA",
							"type": "address"
						},
						{
							"internalType": "address",
							"name": "tB",
							"type": "address"
						},
						{
							"internalType": "uint256",
							"name": "amountIn",
							"type": "uint256"
						},
						{
							"internalType": "uint8",
							"name": "version",
							"type": "uint8"
						}
					],
					"name": "estimateAmountOut",
					"outputs": [
						{
							"internalType": "uint256",
							"name": "amountOut",
							"type": "uint256"
						},
						{
							"internalType": "uint24",
							"name": "fee",
							"type": "uint24"
						}
					],
					"stateMutability": "view",
					"type": "function"
				},
				{
					"inputs": [
						{
							"components": [
								{
									"internalType": "uint256",
									"name": "index",
									"type": "uint256"
								},
								{
									"internalType": "address",
									"name": "t0",
									"type": "address"
								},
								{
									"internalType": "address",
									"name": "t1",
									"type": "address"
								},
								{
									"internalType": "address",
									"name": "provider",
									"type": "address"
								},
								{
									"internalType": "uint8",
									"name": "providerVersion",
									"type": "uint8"
								}
							],
							"internalType": "struct IPriceAggregator.priceIn[]",
							"name": "inputs",
							"type": "tuple[]"
						}
					],
					"name": "getPrices",
					"outputs": [
						{
							"components": [
								{
									"internalType": "uint256",
									"name": "index",
									"type": "uint256"
								},
								{
									"internalType": "uint256",
									"name": "price",
									"type": "uint256"
								},
								{
									"internalType": "uint24",
									"name": "fee",
									"type": "uint24"
								}
							],
							"internalType": "struct IPriceAggregator.priceOut[]",
							"name": "",
							"type": "tuple[]"
						}
					],
					"stateMutability": "view",
					"type": "function"
				},
				{
					"inputs": [
						{
							"components": [
								{
									"internalType": "uint256",
									"name": "index",
									"type": "uint256"
								},
								{
									"internalType": "address",
									"name": "t0",
									"type": "address"
								},
								{
									"internalType": "address",
									"name": "t1",
									"type": "address"
								},
								{
									"internalType": "address",
									"name": "provider",
									"type": "address"
								},
								{
									"internalType": "uint8",
									"name": "providerVersion",
									"type": "uint8"
								},
								{
									"internalType": "uint256",
									"name": "min0",
									"type": "uint256"
								},
								{
									"internalType": "uint256",
									"name": "min1",
									"type": "uint256"
								}
							],
							"internalType": "struct IPriceAggregator.existsIn[]",
							"name": "inputs",
							"type": "tuple[]"
						}
					],
					"name": "poolsExists",
					"outputs": [
						{
							"components": [
								{
									"internalType": "uint256",
									"name": "index",
									"type": "uint256"
								},
								{
									"internalType": "bool",
									"name": "exists",
									"type": "bool"
								}
							],
							"internalType": "struct IPriceAggregator.existsOut[]",
							"name": "",
							"type": "tuple[]"
						}
					],
					"stateMutability": "view",
					"type": "function"
				}
			],
			"devdoc": {
				"kind": "dev",
				"methods": {},
				"version": 1
			},
			"evm": {
				"assembly": "    /* \"contracts/PriceAggregator.sol\":270:2164  contract PriceAggregator is IPriceAggregator {... */\n  mstore(0x40, 0x80)\n  callvalue\n  dup1\n  iszero\n  tag_1\n  jumpi\n  0x00\n  dup1\n  revert\ntag_1:\n  pop\n  dataSize(sub_0)\n  dup1\n  dataOffset(sub_0)\n  0x00\n  codecopy\n  0x00\n  return\nstop\n\nsub_0: assembly {\n        /* \"contracts/PriceAggregator.sol\":270:2164  contract PriceAggregator is IPriceAggregator {... */\n      mstore(0x40, 0x80)\n      callvalue\n      dup1\n      iszero\n      tag_1\n      jumpi\n      0x00\n      dup1\n      revert\n    tag_1:\n      pop\n      jumpi(tag_2, lt(calldatasize, 0x04))\n      shr(0xe0, calldataload(0x00))\n      dup1\n      0x3d157a46\n      eq\n      tag_3\n      jumpi\n      dup1\n      0x6110358d\n      eq\n      tag_4\n      jumpi\n      dup1\n      0xea8650c5\n      eq\n      tag_5\n      jumpi\n    tag_2:\n      0x00\n      dup1\n      revert\n        /* \"contracts/PriceAggregator.sol\":1024:1759  function poolsExists(existsIn[] memory inputs) external override view returns (existsOut[] memory){... */\n    tag_3:\n      tag_6\n      0x04\n      dup1\n      calldatasize\n      sub\n      dup2\n      add\n      swap1\n      tag_7\n      swap2\n      swap1\n      tag_8\n      jump\t// in\n    tag_7:\n      tag_9\n      jump\t// in\n    tag_6:\n      mload(0x40)\n      tag_10\n      swap2\n      swap1\n      tag_11\n      jump\t// in\n    tag_10:\n      mload(0x40)\n      dup1\n      swap2\n      sub\n      swap1\n      return\n        /* \"contracts/PriceAggregator.sol\":1766:2161  function estimateAmountOut(address provider,address tA,address tB,uint256 amountIn,uint8 version) external override  view returns (uint256 amountOut,uint24 fee){... */\n    tag_4:\n      tag_12\n      0x04\n      dup1\n      calldatasize\n      sub\n      dup2\n      add\n      swap1\n      tag_13\n      swap2\n      swap1\n      tag_14\n      jump\t// in\n    tag_13:\n      tag_15\n      jump\t// in\n    tag_12:\n      mload(0x40)\n      tag_16\n      swap3\n      swap2\n      swap1\n      tag_17\n      jump\t// in\n    tag_16:\n      mload(0x40)\n      dup1\n      swap2\n      sub\n      swap1\n      return\n        /* \"contracts/PriceAggregator.sol\":323:1018  function getPrices(priceIn[] memory inputs) public override view returns (priceOut[] memory) {... */\n    tag_5:\n      tag_18\n      0x04\n      dup1\n      calldatasize\n      sub\n      dup2\n      add\n      swap1\n      tag_19\n      swap2\n      swap1\n      tag_20\n      jump\t// in\n    tag_19:\n      tag_21\n      jump\t// in\n    tag_18:\n      mload(0x40)\n      tag_22\n      swap2\n      swap1\n      tag_23\n      jump\t// in\n    tag_22:\n      mload(0x40)\n      dup1\n      swap2\n      sub\n      swap1\n      return\n        /* \"contracts/PriceAggregator.sol\":1024:1759  function poolsExists(existsIn[] memory inputs) external override view returns (existsOut[] memory){... */\n    tag_9:\n        /* \"contracts/PriceAggregator.sol\":1103:1121  existsOut[] memory */\n      0x60\n        /* \"contracts/PriceAggregator.sol\":1132:1158  existsOut[] memory outputs */\n      0x00\n        /* \"contracts/PriceAggregator.sol\":1177:1183  inputs */\n      dup3\n        /* \"contracts/PriceAggregator.sol\":1177:1190  inputs.length */\n      mload\n        /* \"contracts/PriceAggregator.sol\":1161:1191  new existsOut[](inputs.length) */\n      0xffffffffffffffff\n      dup2\n      gt\n      dup1\n      iszero\n      tag_25\n      jumpi\n      0x00\n      dup1\n      revert\n    tag_25:\n      pop\n      mload(0x40)\n      swap1\n      dup1\n      dup3\n      mstore\n      dup1\n      0x20\n      mul\n      0x20\n      add\n      dup3\n      add\n      0x40\n      mstore\n      dup1\n      iszero\n      tag_26\n      jumpi\n      dup2\n      0x20\n      add\n    tag_27:\n      tag_28\n      tag_29\n      jump\t// in\n    tag_28:\n      dup2\n      mstore\n      0x20\n      add\n      swap1\n      0x01\n      swap1\n      sub\n      swap1\n      dup2\n      tag_27\n      jumpi\n      swap1\n      pop\n    tag_26:\n      pop\n        /* \"contracts/PriceAggregator.sol\":1132:1191  existsOut[] memory outputs = new existsOut[](inputs.length) */\n      swap1\n      pop\n        /* \"contracts/PriceAggregator.sol\":1202:1208  uint i */\n      0x00\n        /* \"contracts/PriceAggregator.sol\":1197:1733  for (uint i=0;i<inputs.length;i++){... */\n    tag_30:\n        /* \"contracts/PriceAggregator.sol\":1213:1219  inputs */\n      dup4\n        /* \"contracts/PriceAggregator.sol\":1213:1226  inputs.length */\n      mload\n        /* \"contracts/PriceAggregator.sol\":1211:1212  i */\n      dup2\n        /* \"contracts/PriceAggregator.sol\":1211:1226  i<inputs.length */\n      lt\n        /* \"contracts/PriceAggregator.sol\":1197:1733  for (uint i=0;i<inputs.length;i++){... */\n      iszero\n      tag_31\n      jumpi\n        /* \"contracts/PriceAggregator.sol\":1274:1275  2 */\n      0x02\n        /* \"contracts/PriceAggregator.sol\":1245:1251  inputs */\n      dup5\n        /* \"contracts/PriceAggregator.sol\":1252:1253  i */\n      dup3\n        /* \"contracts/PriceAggregator.sol\":1245:1254  inputs[i] */\n      dup2\n      mload\n      dup2\n      lt\n      tag_33\n      jumpi\n      invalid\n    tag_33:\n      0x20\n      mul\n      0x20\n      add\n      add\n      mload\n        /* \"contracts/PriceAggregator.sol\":1245:1270  inputs[i].providerVersion */\n      0x80\n      add\n      mload\n        /* \"contracts/PriceAggregator.sol\":1245:1275  inputs[i].providerVersion == 2 */\n      0xff\n      and\n      eq\n        /* \"contracts/PriceAggregator.sol\":1241:1472  if (inputs[i].providerVersion == 2) {... */\n      iszero\n      tag_34\n      jumpi\n        /* \"contracts/PriceAggregator.sol\":1291:1302  bool exists */\n      0x00\n        /* \"contracts/PriceAggregator.sol\":1305:1314  UniswapV2 */\n      linkerSymbol(\"66db80e837caed232b747c0dfa8ba195e80afd37d58afd4790f0bc06a2afa716\")\n        /* \"contracts/PriceAggregator.sol\":1305:1325  UniswapV2.PoolExists */\n      0xbcbcaa29\n        /* \"contracts/PriceAggregator.sol\":1326:1332  inputs */\n      dup7\n        /* \"contracts/PriceAggregator.sol\":1333:1334  i */\n      dup5\n        /* \"contracts/PriceAggregator.sol\":1326:1335  inputs[i] */\n      dup2\n      mload\n      dup2\n      lt\n      tag_35\n      jumpi\n      invalid\n    tag_35:\n      0x20\n      mul\n      0x20\n      add\n      add\n      mload\n        /* \"contracts/PriceAggregator.sol\":1326:1344  inputs[i].provider */\n      0x60\n      add\n      mload\n        /* \"contracts/PriceAggregator.sol\":1345:1351  inputs */\n      dup8\n        /* \"contracts/PriceAggregator.sol\":1352:1353  i */\n      dup6\n        /* \"contracts/PriceAggregator.sol\":1345:1354  inputs[i] */\n      dup2\n      mload\n      dup2\n      lt\n      tag_36\n      jumpi\n      invalid\n    tag_36:\n      0x20\n      mul\n      0x20\n      add\n      add\n      mload\n        /* \"contracts/PriceAggregator.sol\":1345:1357  inputs[i].t0 */\n      0x20\n      add\n      mload\n        /* \"contracts/PriceAggregator.sol\":1358:1364  inputs */\n      dup9\n        /* \"contracts/PriceAggregator.sol\":1365:1366  i */\n      dup7\n        /* \"contracts/PriceAggregator.sol\":1358:1367  inputs[i] */\n      dup2\n      mload\n      dup2\n      lt\n      tag_37\n      jumpi\n      invalid\n    tag_37:\n      0x20\n      mul\n      0x20\n      add\n      add\n      mload\n        /* \"contracts/PriceAggregator.sol\":1358:1370  inputs[i].t1 */\n      0x40\n      add\n      mload\n        /* \"contracts/PriceAggregator.sol\":1371:1377  inputs */\n      dup10\n        /* \"contracts/PriceAggregator.sol\":1378:1379  i */\n      dup8\n        /* \"contracts/PriceAggregator.sol\":1371:1380  inputs[i] */\n      dup2\n      mload\n      dup2\n      lt\n      tag_38\n      jumpi\n      invalid\n    tag_38:\n      0x20\n      mul\n      0x20\n      add\n      add\n      mload\n        /* \"contracts/PriceAggregator.sol\":1371:1385  inputs[i].min0 */\n      0xa0\n      add\n      mload\n        /* \"contracts/PriceAggregator.sol\":1386:1392  inputs */\n      dup11\n        /* \"contracts/PriceAggregator.sol\":1393:1394  i */\n      dup9\n        /* \"contracts/PriceAggregator.sol\":1386:1395  inputs[i] */\n      dup2\n      mload\n      dup2\n      lt\n      tag_39\n      jumpi\n      invalid\n    tag_39:\n      0x20\n      mul\n      0x20\n      add\n      add\n      mload\n        /* \"contracts/PriceAggregator.sol\":1386:1400  inputs[i].min1 */\n      0xc0\n      add\n      mload\n        /* \"contracts/PriceAggregator.sol\":1305:1401  UniswapV2.PoolExists(inputs[i].provider,inputs[i].t0,inputs[i].t1,inputs[i].min0,inputs[i].min1) */\n      mload(0x40)\n      dup7\n      0xffffffff\n      and\n      0xe0\n      shl\n      dup2\n      mstore\n      0x04\n      add\n      tag_40\n      swap6\n      swap5\n      swap4\n      swap3\n      swap2\n      swap1\n      tag_41\n      jump\t// in\n    tag_40:\n      0x20\n      mload(0x40)\n      dup1\n      dup4\n      sub\n      dup2\n      dup7\n      dup1\n      extcodesize\n      iszero\n      dup1\n      iszero\n      tag_42\n      jumpi\n      0x00\n      dup1\n      revert\n    tag_42:\n      pop\n      gas\n      delegatecall\n      iszero\n      dup1\n      iszero\n      tag_44\n      jumpi\n      returndatasize\n      0x00\n      dup1\n      returndatacopy\n      revert(0x00, returndatasize)\n    tag_44:\n      pop\n      pop\n      pop\n      pop\n      mload(0x40)\n      returndatasize\n      not(0x1f)\n      0x1f\n      dup3\n      add\n      and\n      dup3\n      add\n      dup1\n      0x40\n      mstore\n      pop\n      dup2\n      add\n      swap1\n      tag_45\n      swap2\n      swap1\n      tag_46\n      jump\t// in\n    tag_45:\n        /* \"contracts/PriceAggregator.sol\":1291:1401  bool exists = UniswapV2.PoolExists(inputs[i].provider,inputs[i].t0,inputs[i].t1,inputs[i].min0,inputs[i].min1) */\n      swap1\n      pop\n        /* \"contracts/PriceAggregator.sol\":1428:1461  existsOut(inputs[i].index,exists) */\n      mload(0x40)\n      dup1\n      0x40\n      add\n      0x40\n      mstore\n      dup1\n        /* \"contracts/PriceAggregator.sol\":1438:1444  inputs */\n      dup7\n        /* \"contracts/PriceAggregator.sol\":1445:1446  i */\n      dup5\n        /* \"contracts/PriceAggregator.sol\":1438:1447  inputs[i] */\n      dup2\n      mload\n      dup2\n      lt\n      tag_47\n      jumpi\n      invalid\n    tag_47:\n      0x20\n      mul\n      0x20\n      add\n      add\n      mload\n        /* \"contracts/PriceAggregator.sol\":1438:1453  inputs[i].index */\n      0x00\n      add\n      mload\n        /* \"contracts/PriceAggregator.sol\":1428:1461  existsOut(inputs[i].index,exists) */\n      dup2\n      mstore\n      0x20\n      add\n        /* \"contracts/PriceAggregator.sol\":1454:1460  exists */\n      dup3\n        /* \"contracts/PriceAggregator.sol\":1428:1461  existsOut(inputs[i].index,exists) */\n      iszero\n      iszero\n      dup2\n      mstore\n      pop\n        /* \"contracts/PriceAggregator.sol\":1415:1422  outputs */\n      dup4\n        /* \"contracts/PriceAggregator.sol\":1423:1424  i */\n      dup4\n        /* \"contracts/PriceAggregator.sol\":1415:1425  outputs[i] */\n      dup2\n      mload\n      dup2\n      lt\n      tag_48\n      jumpi\n      invalid\n    tag_48:\n      0x20\n      mul\n      0x20\n      add\n      add\n        /* \"contracts/PriceAggregator.sol\":1415:1461  outputs[i] = existsOut(inputs[i].index,exists) */\n      dup2\n      swap1\n      mstore\n      pop\n        /* \"contracts/PriceAggregator.sol\":1241:1472  if (inputs[i].providerVersion == 2) {... */\n      pop\n    tag_34:\n        /* \"contracts/PriceAggregator.sol\":1506:1507  3 */\n      0x03\n        /* \"contracts/PriceAggregator.sol\":1477:1483  inputs */\n      dup5\n        /* \"contracts/PriceAggregator.sol\":1484:1485  i */\n      dup3\n        /* \"contracts/PriceAggregator.sol\":1477:1486  inputs[i] */\n      dup2\n      mload\n      dup2\n      lt\n      tag_49\n      jumpi\n      invalid\n    tag_49:\n      0x20\n      mul\n      0x20\n      add\n      add\n      mload\n        /* \"contracts/PriceAggregator.sol\":1477:1502  inputs[i].providerVersion */\n      0x80\n      add\n      mload\n        /* \"contracts/PriceAggregator.sol\":1477:1507  inputs[i].providerVersion == 3 */\n      0xff\n      and\n      eq\n        /* \"contracts/PriceAggregator.sol\":1473:1704  if (inputs[i].providerVersion == 3) {... */\n      iszero\n      tag_50\n      jumpi\n        /* \"contracts/PriceAggregator.sol\":1523:1534  bool exists */\n      0x00\n        /* \"contracts/PriceAggregator.sol\":1537:1546  UniswapV3 */\n      linkerSymbol(\"295ab41254e875e078eae9a73e9e2c34b169d6e6e61c89bb6c8551dc204f08c5\")\n        /* \"contracts/PriceAggregator.sol\":1537:1557  UniswapV3.PoolExists */\n      0xbcbcaa29\n        /* \"contracts/PriceAggregator.sol\":1558:1564  inputs */\n      dup7\n        /* \"contracts/PriceAggregator.sol\":1565:1566  i */\n      dup5\n        /* \"contracts/PriceAggregator.sol\":1558:1567  inputs[i] */\n      dup2\n      mload\n      dup2\n      lt\n      tag_51\n      jumpi\n      invalid\n    tag_51:\n      0x20\n      mul\n      0x20\n      add\n      add\n      mload\n        /* \"contracts/PriceAggregator.sol\":1558:1576  inputs[i].provider */\n      0x60\n      add\n      mload\n        /* \"contracts/PriceAggregator.sol\":1577:1583  inputs */\n      dup8\n        /* \"contracts/PriceAggregator.sol\":1584:1585  i */\n      dup6\n        /* \"contracts/PriceAggregator.sol\":1577:1586  inputs[i] */\n      dup2\n      mload\n      dup2\n      lt\n      tag_52\n      jumpi\n      invalid\n    tag_52:\n      0x20\n      mul\n      0x20\n      add\n      add\n      mload\n        /* \"contracts/PriceAggregator.sol\":1577:1589  inputs[i].t0 */\n      0x20\n      add\n      mload\n        /* \"contracts/PriceAggregator.sol\":1590:1596  inputs */\n      dup9\n        /* \"contracts/PriceAggregator.sol\":1597:1598  i */\n      dup7\n        /* \"contracts/PriceAggregator.sol\":1590:1599  inputs[i] */\n      dup2\n      mload\n      dup2\n      lt\n      tag_53\n      jumpi\n      invalid\n    tag_53:\n      0x20\n      mul\n      0x20\n      add\n      add\n      mload\n        /* \"contracts/PriceAggregator.sol\":1590:1602  inputs[i].t1 */\n      0x40\n      add\n      mload\n        /* \"contracts/PriceAggregator.sol\":1603:1609  inputs */\n      dup10\n        /* \"contracts/PriceAggregator.sol\":1610:1611  i */\n      dup8\n        /* \"contracts/PriceAggregator.sol\":1603:1612  inputs[i] */\n      dup2\n      mload\n      dup2\n      lt\n      tag_54\n      jumpi\n      invalid\n    tag_54:\n      0x20\n      mul\n      0x20\n      add\n      add\n      mload\n        /* \"contracts/PriceAggregator.sol\":1603:1617  inputs[i].min0 */\n      0xa0\n      add\n      mload\n        /* \"contracts/PriceAggregator.sol\":1618:1624  inputs */\n      dup11\n        /* \"contracts/PriceAggregator.sol\":1625:1626  i */\n      dup9\n        /* \"contracts/PriceAggregator.sol\":1618:1627  inputs[i] */\n      dup2\n      mload\n      dup2\n      lt\n      tag_55\n      jumpi\n      invalid\n    tag_55:\n      0x20\n      mul\n      0x20\n      add\n      add\n      mload\n        /* \"contracts/PriceAggregator.sol\":1618:1632  inputs[i].min1 */\n      0xc0\n      add\n      mload\n        /* \"contracts/PriceAggregator.sol\":1537:1633  UniswapV3.PoolExists(inputs[i].provider,inputs[i].t0,inputs[i].t1,inputs[i].min0,inputs[i].min1) */\n      mload(0x40)\n      dup7\n      0xffffffff\n      and\n      0xe0\n      shl\n      dup2\n      mstore\n      0x04\n      add\n      tag_56\n      swap6\n      swap5\n      swap4\n      swap3\n      swap2\n      swap1\n      tag_41\n      jump\t// in\n    tag_56:\n      0x20\n      mload(0x40)\n      dup1\n      dup4\n      sub\n      dup2\n      dup7\n      dup1\n      extcodesize\n      iszero\n      dup1\n      iszero\n      tag_57\n      jumpi\n      0x00\n      dup1\n      revert\n    tag_57:\n      pop\n      gas\n      delegatecall\n      iszero\n      dup1\n      iszero\n      tag_59\n      jumpi\n      returndatasize\n      0x00\n      dup1\n      returndatacopy\n      revert(0x00, returndatasize)\n    tag_59:\n      pop\n      pop\n      pop\n      pop\n      mload(0x40)\n      returndatasize\n      not(0x1f)\n      0x1f\n      dup3\n      add\n      and\n      dup3\n      add\n      dup1\n      0x40\n      mstore\n      pop\n      dup2\n      add\n      swap1\n      tag_60\n      swap2\n      swap1\n      tag_46\n      jump\t// in\n    tag_60:\n        /* \"contracts/PriceAggregator.sol\":1523:1633  bool exists = UniswapV3.PoolExists(inputs[i].provider,inputs[i].t0,inputs[i].t1,inputs[i].min0,inputs[i].min1) */\n      swap1\n      pop\n        /* \"contracts/PriceAggregator.sol\":1660:1693  existsOut(inputs[i].index,exists) */\n      mload(0x40)\n      dup1\n      0x40\n      add\n      0x40\n      mstore\n      dup1\n        /* \"contracts/PriceAggregator.sol\":1670:1676  inputs */\n      dup7\n        /* \"contracts/PriceAggregator.sol\":1677:1678  i */\n      dup5\n        /* \"contracts/PriceAggregator.sol\":1670:1679  inputs[i] */\n      dup2\n      mload\n      dup2\n      lt\n      tag_61\n      jumpi\n      invalid\n    tag_61:\n      0x20\n      mul\n      0x20\n      add\n      add\n      mload\n        /* \"contracts/PriceAggregator.sol\":1670:1685  inputs[i].index */\n      0x00\n      add\n      mload\n        /* \"contracts/PriceAggregator.sol\":1660:1693  existsOut(inputs[i].index,exists) */\n      dup2\n      mstore\n      0x20\n      add\n        /* \"contracts/PriceAggregator.sol\":1686:1692  exists */\n      dup3\n        /* \"contracts/PriceAggregator.sol\":1660:1693  existsOut(inputs[i].index,exists) */\n      iszero\n      iszero\n      dup2\n      mstore\n      pop\n        /* \"contracts/PriceAggregator.sol\":1647:1654  outputs */\n      dup4\n        /* \"contracts/PriceAggregator.sol\":1655:1656  i */\n      dup4\n        /* \"contracts/PriceAggregator.sol\":1647:1657  outputs[i] */\n      dup2\n      mload\n      dup2\n      lt\n      tag_62\n      jumpi\n      invalid\n    tag_62:\n      0x20\n      mul\n      0x20\n      add\n      add\n        /* \"contracts/PriceAggregator.sol\":1647:1693  outputs[i] = existsOut(inputs[i].index,exists) */\n      dup2\n      swap1\n      mstore\n      pop\n        /* \"contracts/PriceAggregator.sol\":1473:1704  if (inputs[i].providerVersion == 3) {... */\n      pop\n    tag_50:\n        /* \"contracts/PriceAggregator.sol\":1227:1230  i++ */\n      dup1\n      dup1\n      0x01\n      add\n      swap2\n      pop\n      pop\n        /* \"contracts/PriceAggregator.sol\":1197:1733  for (uint i=0;i<inputs.length;i++){... */\n      jump(tag_30)\n    tag_31:\n      pop\n        /* \"contracts/PriceAggregator.sol\":1745:1752  outputs */\n      dup1\n        /* \"contracts/PriceAggregator.sol\":1738:1752  return outputs */\n      swap2\n      pop\n      pop\n        /* \"contracts/PriceAggregator.sol\":1024:1759  function poolsExists(existsIn[] memory inputs) external override view returns (existsOut[] memory){... */\n      swap2\n      swap1\n      pop\n      jump\t// out\n        /* \"contracts/PriceAggregator.sol\":1766:2161  function estimateAmountOut(address provider,address tA,address tB,uint256 amountIn,uint8 version) external override  view returns (uint256 amountOut,uint24 fee){... */\n    tag_15:\n        /* \"contracts/PriceAggregator.sol\":1897:1914  uint256 amountOut */\n      0x00\n        /* \"contracts/PriceAggregator.sol\":1915:1925  uint24 fee */\n      dup1\n        /* \"contracts/PriceAggregator.sol\":1951:1952  2 */\n      0x02\n        /* \"contracts/PriceAggregator.sol\":1940:1947  version */\n      dup4\n        /* \"contracts/PriceAggregator.sol\":1940:1952  version == 2 */\n      0xff\n      and\n      eq\n        /* \"contracts/PriceAggregator.sol\":1936:2154  if (version == 2) {... */\n      iszero\n      tag_64\n      jumpi\n        /* \"contracts/PriceAggregator.sol\":1976:1985  UniswapV2 */\n      linkerSymbol(\"66db80e837caed232b747c0dfa8ba195e80afd37d58afd4790f0bc06a2afa716\")\n        /* \"contracts/PriceAggregator.sol\":1976:2003  UniswapV2.EstimateAmountOut */\n      0x8c39560e\n        /* \"contracts/PriceAggregator.sol\":2004:2012  provider */\n      dup9\n        /* \"contracts/PriceAggregator.sol\":2014:2016  tA */\n      dup9\n        /* \"contracts/PriceAggregator.sol\":2018:2020  tB */\n      dup9\n        /* \"contracts/PriceAggregator.sol\":2021:2029  amountIn */\n      dup9\n        /* \"contracts/PriceAggregator.sol\":1976:2030  UniswapV2.EstimateAmountOut(provider, tA, tB,amountIn) */\n      mload(0x40)\n      dup6\n      0xffffffff\n      and\n      0xe0\n      shl\n      dup2\n      mstore\n      0x04\n      add\n      tag_65\n      swap5\n      swap4\n      swap3\n      swap2\n      swap1\n      tag_66\n      jump\t// in\n    tag_65:\n      0x20\n      mload(0x40)\n      dup1\n      dup4\n      sub\n      dup2\n      dup7\n      dup1\n      extcodesize\n      iszero\n      dup1\n      iszero\n      tag_67\n      jumpi\n      0x00\n      dup1\n      revert\n    tag_67:\n      pop\n      gas\n      delegatecall\n      iszero\n      dup1\n      iszero\n      tag_69\n      jumpi\n      returndatasize\n      0x00\n      dup1\n      returndatacopy\n      revert(0x00, returndatasize)\n    tag_69:\n      pop\n      pop\n      pop\n      pop\n      mload(0x40)\n      returndatasize\n      not(0x1f)\n      0x1f\n      dup3\n      add\n      and\n      dup3\n      add\n      dup1\n      0x40\n      mstore\n      pop\n      dup2\n      add\n      swap1\n      tag_70\n      swap2\n      swap1\n      tag_71\n      jump\t// in\n    tag_70:\n        /* \"contracts/PriceAggregator.sol\":2031:2032  0 */\n      0x00\n        /* \"contracts/PriceAggregator.sol\":1968:2033  return (UniswapV2.EstimateAmountOut(provider, tA, tB,amountIn),0) */\n      swap2\n      pop\n      swap2\n      pop\n      jump(tag_63)\n        /* \"contracts/PriceAggregator.sol\":1936:2154  if (version == 2) {... */\n    tag_64:\n        /* \"contracts/PriceAggregator.sol\":2064:2065  3 */\n      0x03\n        /* \"contracts/PriceAggregator.sol\":2053:2060  version */\n      dup4\n        /* \"contracts/PriceAggregator.sol\":2053:2065  version == 3 */\n      0xff\n      and\n      eq\n        /* \"contracts/PriceAggregator.sol\":2049:2154  if (version == 3) {... */\n      iszero\n      tag_73\n      jumpi\n        /* \"contracts/PriceAggregator.sol\":2088:2097  UniswapV3 */\n      linkerSymbol(\"295ab41254e875e078eae9a73e9e2c34b169d6e6e61c89bb6c8551dc204f08c5\")\n        /* \"contracts/PriceAggregator.sol\":2088:2115  UniswapV3.EstimateAmountOut */\n      0x8c39560e\n        /* \"contracts/PriceAggregator.sol\":2116:2124  provider */\n      dup9\n        /* \"contracts/PriceAggregator.sol\":2126:2128  tA */\n      dup9\n        /* \"contracts/PriceAggregator.sol\":2130:2132  tB */\n      dup9\n        /* \"contracts/PriceAggregator.sol\":2134:2142  amountIn */\n      dup9\n        /* \"contracts/PriceAggregator.sol\":2088:2143  UniswapV3.EstimateAmountOut(provider, tA, tB, amountIn) */\n      mload(0x40)\n      dup6\n      0xffffffff\n      and\n      0xe0\n      shl\n      dup2\n      mstore\n      0x04\n      add\n      tag_74\n      swap5\n      swap4\n      swap3\n      swap2\n      swap1\n      tag_66\n      jump\t// in\n    tag_74:\n      0x40\n      dup1\n      mload\n      dup1\n      dup4\n      sub\n      dup2\n      dup7\n      dup1\n      extcodesize\n      iszero\n      dup1\n      iszero\n      tag_75\n      jumpi\n      0x00\n      dup1\n      revert\n    tag_75:\n      pop\n      gas\n      delegatecall\n      iszero\n      dup1\n      iszero\n      tag_77\n      jumpi\n      returndatasize\n      0x00\n      dup1\n      returndatacopy\n      revert(0x00, returndatasize)\n    tag_77:\n      pop\n      pop\n      pop\n      pop\n      mload(0x40)\n      returndatasize\n      not(0x1f)\n      0x1f\n      dup3\n      add\n      and\n      dup3\n      add\n      dup1\n      0x40\n      mstore\n      pop\n      dup2\n      add\n      swap1\n      tag_78\n      swap2\n      swap1\n      tag_79\n      jump\t// in\n    tag_78:\n        /* \"contracts/PriceAggregator.sol\":2081:2143  return UniswapV3.EstimateAmountOut(provider, tA, tB, amountIn) */\n      swap2\n      pop\n      swap2\n      pop\n      jump(tag_63)\n        /* \"contracts/PriceAggregator.sol\":2049:2154  if (version == 3) {... */\n    tag_73:\n        /* \"contracts/PriceAggregator.sol\":1766:2161  function estimateAmountOut(address provider,address tA,address tB,uint256 amountIn,uint8 version) external override  view returns (uint256 amountOut,uint24 fee){... */\n    tag_63:\n      swap6\n      pop\n      swap6\n      swap4\n      pop\n      pop\n      pop\n      pop\n      jump\t// out\n        /* \"contracts/PriceAggregator.sol\":323:1018  function getPrices(priceIn[] memory inputs) public override view returns (priceOut[] memory) {... */\n    tag_21:\n        /* \"contracts/PriceAggregator.sol\":397:414  priceOut[] memory */\n      0x60\n        /* \"contracts/PriceAggregator.sol\":426:451  priceOut[] memory outputs */\n      0x00\n        /* \"contracts/PriceAggregator.sol\":469:475  inputs */\n      dup3\n        /* \"contracts/PriceAggregator.sol\":469:482  inputs.length */\n      mload\n        /* \"contracts/PriceAggregator.sol\":454:483  new priceOut[](inputs.length) */\n      0xffffffffffffffff\n      dup2\n      gt\n      dup1\n      iszero\n      tag_81\n      jumpi\n      0x00\n      dup1\n      revert\n    tag_81:\n      pop\n      mload(0x40)\n      swap1\n      dup1\n      dup3\n      mstore\n      dup1\n      0x20\n      mul\n      0x20\n      add\n      dup3\n      add\n      0x40\n      mstore\n      dup1\n      iszero\n      tag_82\n      jumpi\n      dup2\n      0x20\n      add\n    tag_83:\n      tag_84\n      tag_85\n      jump\t// in\n    tag_84:\n      dup2\n      mstore\n      0x20\n      add\n      swap1\n      0x01\n      swap1\n      sub\n      swap1\n      dup2\n      tag_83\n      jumpi\n      swap1\n      pop\n    tag_82:\n      pop\n        /* \"contracts/PriceAggregator.sol\":426:483  priceOut[] memory outputs = new priceOut[](inputs.length) */\n      swap1\n      pop\n        /* \"contracts/PriceAggregator.sol\":497:503  uint i */\n      0x00\n        /* \"contracts/PriceAggregator.sol\":492:984  for (uint i=0;i<inputs.length;i++){... */\n    tag_86:\n        /* \"contracts/PriceAggregator.sol\":508:514  inputs */\n      dup4\n        /* \"contracts/PriceAggregator.sol\":508:521  inputs.length */\n      mload\n        /* \"contracts/PriceAggregator.sol\":506:507  i */\n      dup2\n        /* \"contracts/PriceAggregator.sol\":506:521  i<inputs.length */\n      lt\n        /* \"contracts/PriceAggregator.sol\":492:984  for (uint i=0;i<inputs.length;i++){... */\n      iszero\n      tag_87\n      jumpi\n        /* \"contracts/PriceAggregator.sol\":569:570  2 */\n      0x02\n        /* \"contracts/PriceAggregator.sol\":540:546  inputs */\n      dup5\n        /* \"contracts/PriceAggregator.sol\":547:548  i */\n      dup3\n        /* \"contracts/PriceAggregator.sol\":540:549  inputs[i] */\n      dup2\n      mload\n      dup2\n      lt\n      tag_89\n      jumpi\n      invalid\n    tag_89:\n      0x20\n      mul\n      0x20\n      add\n      add\n      mload\n        /* \"contracts/PriceAggregator.sol\":540:565  inputs[i].providerVersion */\n      0x80\n      add\n      mload\n        /* \"contracts/PriceAggregator.sol\":540:570  inputs[i].providerVersion == 2 */\n      0xff\n      and\n      eq\n        /* \"contracts/PriceAggregator.sol\":536:975  if (inputs[i].providerVersion == 2) {... */\n      iszero\n      tag_90\n      jumpi\n        /* \"contracts/PriceAggregator.sol\":586:599  uint256 price */\n      0x00\n        /* \"contracts/PriceAggregator.sol\":602:611  UniswapV2 */\n      linkerSymbol(\"66db80e837caed232b747c0dfa8ba195e80afd37d58afd4790f0bc06a2afa716\")\n        /* \"contracts/PriceAggregator.sol\":602:617  UniswapV2.Price */\n      0xc361e0b1\n        /* \"contracts/PriceAggregator.sol\":618:624  inputs */\n      dup7\n        /* \"contracts/PriceAggregator.sol\":625:626  i */\n      dup5\n        /* \"contracts/PriceAggregator.sol\":618:627  inputs[i] */\n      dup2\n      mload\n      dup2\n      lt\n      tag_91\n      jumpi\n      invalid\n    tag_91:\n      0x20\n      mul\n      0x20\n      add\n      add\n      mload\n        /* \"contracts/PriceAggregator.sol\":618:636  inputs[i].provider */\n      0x60\n      add\n      mload\n        /* \"contracts/PriceAggregator.sol\":637:643  inputs */\n      dup8\n        /* \"contracts/PriceAggregator.sol\":644:645  i */\n      dup6\n        /* \"contracts/PriceAggregator.sol\":637:646  inputs[i] */\n      dup2\n      mload\n      dup2\n      lt\n      tag_92\n      jumpi\n      invalid\n    tag_92:\n      0x20\n      mul\n      0x20\n      add\n      add\n      mload\n        /* \"contracts/PriceAggregator.sol\":637:649  inputs[i].t0 */\n      0x20\n      add\n      mload\n        /* \"contracts/PriceAggregator.sol\":650:656  inputs */\n      dup9\n        /* \"contracts/PriceAggregator.sol\":657:658  i */\n      dup7\n        /* \"contracts/PriceAggregator.sol\":650:659  inputs[i] */\n      dup2\n      mload\n      dup2\n      lt\n      tag_93\n      jumpi\n      invalid\n    tag_93:\n      0x20\n      mul\n      0x20\n      add\n      add\n      mload\n        /* \"contracts/PriceAggregator.sol\":650:662  inputs[i].t1 */\n      0x40\n      add\n      mload\n        /* \"contracts/PriceAggregator.sol\":602:663  UniswapV2.Price(inputs[i].provider,inputs[i].t0,inputs[i].t1) */\n      mload(0x40)\n      dup5\n      0xffffffff\n      and\n      0xe0\n      shl\n      dup2\n      mstore\n      0x04\n      add\n      tag_94\n      swap4\n      swap3\n      swap2\n      swap1\n      tag_95\n      jump\t// in\n    tag_94:\n      0x20\n      mload(0x40)\n      dup1\n      dup4\n      sub\n      dup2\n      dup7\n      dup1\n      extcodesize\n      iszero\n      dup1\n      iszero\n      tag_96\n      jumpi\n      0x00\n      dup1\n      revert\n    tag_96:\n      pop\n      gas\n      delegatecall\n      iszero\n      dup1\n      iszero\n      tag_98\n      jumpi\n      returndatasize\n      0x00\n      dup1\n      returndatacopy\n      revert(0x00, returndatasize)\n    tag_98:\n      pop\n      pop\n      pop\n      pop\n      mload(0x40)\n      returndatasize\n      not(0x1f)\n      0x1f\n      dup3\n      add\n      and\n      dup3\n      add\n      dup1\n      0x40\n      mstore\n      pop\n      dup2\n      add\n      swap1\n      tag_99\n      swap2\n      swap1\n      tag_71\n      jump\t// in\n    tag_99:\n        /* \"contracts/PriceAggregator.sol\":586:663  uint256 price = UniswapV2.Price(inputs[i].provider,inputs[i].t0,inputs[i].t1) */\n      swap1\n      pop\n        /* \"contracts/PriceAggregator.sol\":690:723  priceOut(inputs[i].index,price,0) */\n      mload(0x40)\n      dup1\n      0x60\n      add\n      0x40\n      mstore\n      dup1\n        /* \"contracts/PriceAggregator.sol\":699:705  inputs */\n      dup7\n        /* \"contracts/PriceAggregator.sol\":706:707  i */\n      dup5\n        /* \"contracts/PriceAggregator.sol\":699:708  inputs[i] */\n      dup2\n      mload\n      dup2\n      lt\n      tag_100\n      jumpi\n      invalid\n    tag_100:\n      0x20\n      mul\n      0x20\n      add\n      add\n      mload\n        /* \"contracts/PriceAggregator.sol\":699:714  inputs[i].index */\n      0x00\n      add\n      mload\n        /* \"contracts/PriceAggregator.sol\":690:723  priceOut(inputs[i].index,price,0) */\n      dup2\n      mstore\n      0x20\n      add\n        /* \"contracts/PriceAggregator.sol\":715:720  price */\n      dup3\n        /* \"contracts/PriceAggregator.sol\":690:723  priceOut(inputs[i].index,price,0) */\n      dup2\n      mstore\n      0x20\n      add\n        /* \"contracts/PriceAggregator.sol\":721:722  0 */\n      0x00\n        /* \"contracts/PriceAggregator.sol\":690:723  priceOut(inputs[i].index,price,0) */\n      0xffffff\n      and\n      dup2\n      mstore\n      pop\n        /* \"contracts/PriceAggregator.sol\":677:684  outputs */\n      dup4\n        /* \"contracts/PriceAggregator.sol\":685:686  i */\n      dup4\n        /* \"contracts/PriceAggregator.sol\":677:687  outputs[i] */\n      dup2\n      mload\n      dup2\n      lt\n      tag_101\n      jumpi\n      invalid\n    tag_101:\n      0x20\n      mul\n      0x20\n      add\n      add\n        /* \"contracts/PriceAggregator.sol\":677:723  outputs[i] = priceOut(inputs[i].index,price,0) */\n      dup2\n      swap1\n      mstore\n      pop\n        /* \"contracts/PriceAggregator.sol\":536:975  if (inputs[i].providerVersion == 2) {... */\n      pop\n      jump(tag_102)\n    tag_90:\n        /* \"contracts/PriceAggregator.sol\":783:784  3 */\n      0x03\n        /* \"contracts/PriceAggregator.sol\":754:760  inputs */\n      dup5\n        /* \"contracts/PriceAggregator.sol\":761:762  i */\n      dup3\n        /* \"contracts/PriceAggregator.sol\":754:763  inputs[i] */\n      dup2\n      mload\n      dup2\n      lt\n      tag_103\n      jumpi\n      invalid\n    tag_103:\n      0x20\n      mul\n      0x20\n      add\n      add\n      mload\n        /* \"contracts/PriceAggregator.sol\":754:779  inputs[i].providerVersion */\n      0x80\n      add\n      mload\n        /* \"contracts/PriceAggregator.sol\":754:784  inputs[i].providerVersion == 3 */\n      0xff\n      and\n      eq\n        /* \"contracts/PriceAggregator.sol\":750:975  if (inputs[i].providerVersion == 3) {... */\n      iszero\n      tag_104\n      jumpi\n        /* \"contracts/PriceAggregator.sol\":801:814  uint256 price */\n      0x00\n        /* \"contracts/PriceAggregator.sol\":815:825  uint24 fee */\n      dup1\n        /* \"contracts/PriceAggregator.sol\":829:838  UniswapV3 */\n      linkerSymbol(\"295ab41254e875e078eae9a73e9e2c34b169d6e6e61c89bb6c8551dc204f08c5\")\n        /* \"contracts/PriceAggregator.sol\":829:844  UniswapV3.Price */\n      0xc361e0b1\n        /* \"contracts/PriceAggregator.sol\":845:851  inputs */\n      dup8\n        /* \"contracts/PriceAggregator.sol\":852:853  i */\n      dup6\n        /* \"contracts/PriceAggregator.sol\":845:854  inputs[i] */\n      dup2\n      mload\n      dup2\n      lt\n      tag_105\n      jumpi\n      invalid\n    tag_105:\n      0x20\n      mul\n      0x20\n      add\n      add\n      mload\n        /* \"contracts/PriceAggregator.sol\":845:863  inputs[i].provider */\n      0x60\n      add\n      mload\n        /* \"contracts/PriceAggregator.sol\":864:870  inputs */\n      dup9\n        /* \"contracts/PriceAggregator.sol\":871:872  i */\n      dup7\n        /* \"contracts/PriceAggregator.sol\":864:873  inputs[i] */\n      dup2\n      mload\n      dup2\n      lt\n      tag_106\n      jumpi\n      invalid\n    tag_106:\n      0x20\n      mul\n      0x20\n      add\n      add\n      mload\n        /* \"contracts/PriceAggregator.sol\":864:876  inputs[i].t0 */\n      0x20\n      add\n      mload\n        /* \"contracts/PriceAggregator.sol\":877:883  inputs */\n      dup10\n        /* \"contracts/PriceAggregator.sol\":884:885  i */\n      dup8\n        /* \"contracts/PriceAggregator.sol\":877:886  inputs[i] */\n      dup2\n      mload\n      dup2\n      lt\n      tag_107\n      jumpi\n      invalid\n    tag_107:\n      0x20\n      mul\n      0x20\n      add\n      add\n      mload\n        /* \"contracts/PriceAggregator.sol\":877:889  inputs[i].t1 */\n      0x40\n      add\n      mload\n        /* \"contracts/PriceAggregator.sol\":829:890  UniswapV3.Price(inputs[i].provider,inputs[i].t0,inputs[i].t1) */\n      mload(0x40)\n      dup5\n      0xffffffff\n      and\n      0xe0\n      shl\n      dup2\n      mstore\n      0x04\n      add\n      tag_108\n      swap4\n      swap3\n      swap2\n      swap1\n      tag_95\n      jump\t// in\n    tag_108:\n      0x40\n      dup1\n      mload\n      dup1\n      dup4\n      sub\n      dup2\n      dup7\n      dup1\n      extcodesize\n      iszero\n      dup1\n      iszero\n      tag_109\n      jumpi\n      0x00\n      dup1\n      revert\n    tag_109:\n      pop\n      gas\n      delegatecall\n      iszero\n      dup1\n      iszero\n      tag_111\n      jumpi\n      returndatasize\n      0x00\n      dup1\n      returndatacopy\n      revert(0x00, returndatasize)\n    tag_111:\n      pop\n      pop\n      pop\n      pop\n      mload(0x40)\n      returndatasize\n      not(0x1f)\n      0x1f\n      dup3\n      add\n      and\n      dup3\n      add\n      dup1\n      0x40\n      mstore\n      pop\n      dup2\n      add\n      swap1\n      tag_112\n      swap2\n      swap1\n      tag_79\n      jump\t// in\n    tag_112:\n        /* \"contracts/PriceAggregator.sol\":800:890  (uint256 price,uint24 fee) = UniswapV3.Price(inputs[i].provider,inputs[i].t0,inputs[i].t1) */\n      swap2\n      pop\n      swap2\n      pop\n        /* \"contracts/PriceAggregator.sol\":917:952  priceOut(inputs[i].index,price,fee) */\n      mload(0x40)\n      dup1\n      0x60\n      add\n      0x40\n      mstore\n      dup1\n        /* \"contracts/PriceAggregator.sol\":926:932  inputs */\n      dup8\n        /* \"contracts/PriceAggregator.sol\":933:934  i */\n      dup6\n        /* \"contracts/PriceAggregator.sol\":926:935  inputs[i] */\n      dup2\n      mload\n      dup2\n      lt\n      tag_113\n      jumpi\n      invalid\n    tag_113:\n      0x20\n      mul\n      0x20\n      add\n      add\n      mload\n        /* \"contracts/PriceAggregator.sol\":926:941  inputs[i].index */\n      0x00\n      add\n      mload\n        /* \"contracts/PriceAggregator.sol\":917:952  priceOut(inputs[i].index,price,fee) */\n      dup2\n      mstore\n      0x20\n      add\n        /* \"contracts/PriceAggregator.sol\":942:947  price */\n      dup4\n        /* \"contracts/PriceAggregator.sol\":917:952  priceOut(inputs[i].index,price,fee) */\n      dup2\n      mstore\n      0x20\n      add\n        /* \"contracts/PriceAggregator.sol\":948:951  fee */\n      dup3\n        /* \"contracts/PriceAggregator.sol\":917:952  priceOut(inputs[i].index,price,fee) */\n      0xffffff\n      and\n      dup2\n      mstore\n      pop\n        /* \"contracts/PriceAggregator.sol\":904:911  outputs */\n      dup5\n        /* \"contracts/PriceAggregator.sol\":912:913  i */\n      dup5\n        /* \"contracts/PriceAggregator.sol\":904:914  outputs[i] */\n      dup2\n      mload\n      dup2\n      lt\n      tag_114\n      jumpi\n      invalid\n    tag_114:\n      0x20\n      mul\n      0x20\n      add\n      add\n        /* \"contracts/PriceAggregator.sol\":904:952  outputs[i] = priceOut(inputs[i].index,price,fee) */\n      dup2\n      swap1\n      mstore\n      pop\n        /* \"contracts/PriceAggregator.sol\":750:975  if (inputs[i].providerVersion == 3) {... */\n      pop\n      pop\n    tag_104:\n        /* \"contracts/PriceAggregator.sol\":536:975  if (inputs[i].providerVersion == 2) {... */\n    tag_102:\n        /* \"contracts/PriceAggregator.sol\":522:525  i++ */\n      dup1\n      dup1\n      0x01\n      add\n      swap2\n      pop\n      pop\n        /* \"contracts/PriceAggregator.sol\":492:984  for (uint i=0;i<inputs.length;i++){... */\n      jump(tag_86)\n    tag_87:\n      pop\n        /* \"contracts/PriceAggregator.sol\":1004:1011  outputs */\n      dup1\n        /* \"contracts/PriceAggregator.sol\":997:1011  return outputs */\n      swap2\n      pop\n      pop\n        /* \"contracts/PriceAggregator.sol\":323:1018  function getPrices(priceIn[] memory inputs) public override view returns (priceOut[] memory) {... */\n      swap2\n      swap1\n      pop\n      jump\t// out\n    tag_29:\n      mload(0x40)\n      dup1\n      0x40\n      add\n      0x40\n      mstore\n      dup1\n      0x00\n      dup2\n      mstore\n      0x20\n      add\n      iszero(iszero(0x00))\n      dup2\n      mstore\n      pop\n      swap1\n      jump\t// out\n    tag_85:\n      mload(0x40)\n      dup1\n      0x60\n      add\n      0x40\n      mstore\n      dup1\n      0x00\n      dup2\n      mstore\n      0x20\n      add\n      0x00\n      dup2\n      mstore\n      0x20\n      add\n      and(0xffffff, 0x00)\n      dup2\n      mstore\n      pop\n      swap1\n      jump\t// out\n        /* \"#utility.yul\":49:749   */\n    tag_116:\n      0x00\n        /* \"#utility.yul\":196:302   */\n      tag_118\n        /* \"#utility.yul\":211:301   */\n      tag_119\n        /* \"#utility.yul\":294:300   */\n      dup5\n        /* \"#utility.yul\":211:301   */\n      tag_120\n      jump\t// in\n    tag_119:\n        /* \"#utility.yul\":196:302   */\n      tag_121\n      jump\t// in\n    tag_118:\n        /* \"#utility.yul\":187:302   */\n      swap1\n      pop\n        /* \"#utility.yul\":322:327   */\n      dup1\n        /* \"#utility.yul\":350:356   */\n      dup4\n        /* \"#utility.yul\":343:348   */\n      dup3\n        /* \"#utility.yul\":336:357   */\n      mstore\n        /* \"#utility.yul\":376:380   */\n      0x20\n        /* \"#utility.yul\":369:374   */\n      dup3\n        /* \"#utility.yul\":365:381   */\n      add\n        /* \"#utility.yul\":358:381   */\n      swap1\n      pop\n        /* \"#utility.yul\":401:407   */\n      dup3\n        /* \"#utility.yul\":451:454   */\n      dup6\n        /* \"#utility.yul\":443:447   */\n      0xe0\n        /* \"#utility.yul\":435:441   */\n      dup7\n        /* \"#utility.yul\":431:448   */\n      mul\n        /* \"#utility.yul\":426:429   */\n      dup3\n        /* \"#utility.yul\":422:449   */\n      add\n        /* \"#utility.yul\":419:455   */\n      gt\n        /* \"#utility.yul\":416:418   */\n      iszero\n      tag_122\n      jumpi\n        /* \"#utility.yul\":468:469   */\n      0x00\n        /* \"#utility.yul\":465:466   */\n      dup1\n        /* \"#utility.yul\":458:470   */\n      revert\n        /* \"#utility.yul\":416:418   */\n    tag_122:\n        /* \"#utility.yul\":496:497   */\n      0x00\n        /* \"#utility.yul\":481:743   */\n    tag_123:\n        /* \"#utility.yul\":506:512   */\n      dup6\n        /* \"#utility.yul\":503:504   */\n      dup2\n        /* \"#utility.yul\":500:513   */\n      lt\n        /* \"#utility.yul\":481:743   */\n      iszero\n      tag_125\n      jumpi\n        /* \"#utility.yul\":573:576   */\n      dup2\n        /* \"#utility.yul\":601:664   */\n      tag_126\n        /* \"#utility.yul\":660:663   */\n      dup9\n        /* \"#utility.yul\":648:658   */\n      dup3\n        /* \"#utility.yul\":601:664   */\n      tag_127\n      jump\t// in\n    tag_126:\n        /* \"#utility.yul\":596:599   */\n      dup5\n        /* \"#utility.yul\":589:665   */\n      mstore\n        /* \"#utility.yul\":694:698   */\n      0x20\n        /* \"#utility.yul\":689:692   */\n      dup5\n        /* \"#utility.yul\":685:699   */\n      add\n        /* \"#utility.yul\":678:699   */\n      swap4\n      pop\n        /* \"#utility.yul\":728:732   */\n      0xe0\n        /* \"#utility.yul\":723:726   */\n      dup4\n        /* \"#utility.yul\":719:733   */\n      add\n        /* \"#utility.yul\":712:733   */\n      swap3\n      pop\n        /* \"#utility.yul\":541:743   */\n      pop\n        /* \"#utility.yul\":528:529   */\n      0x01\n        /* \"#utility.yul\":525:526   */\n      dup2\n        /* \"#utility.yul\":521:530   */\n      add\n        /* \"#utility.yul\":516:530   */\n      swap1\n      pop\n        /* \"#utility.yul\":481:743   */\n      jump(tag_123)\n    tag_125:\n        /* \"#utility.yul\":485:499   */\n      pop\n        /* \"#utility.yul\":177:749   */\n      pop\n      pop\n      swap4\n      swap3\n      pop\n      pop\n      pop\n      jump\t// out\n        /* \"#utility.yul\":796:1493   */\n    tag_128:\n      0x00\n        /* \"#utility.yul\":942:1047   */\n      tag_130\n        /* \"#utility.yul\":957:1046   */\n      tag_131\n        /* \"#utility.yul\":1039:1045   */\n      dup5\n        /* \"#utility.yul\":957:1046   */\n      tag_132\n      jump\t// in\n    tag_131:\n        /* \"#utility.yul\":942:1047   */\n      tag_121\n      jump\t// in\n    tag_130:\n        /* \"#utility.yul\":933:1047   */\n      swap1\n      pop\n        /* \"#utility.yul\":1067:1072   */\n      dup1\n        /* \"#utility.yul\":1095:1101   */\n      dup4\n        /* \"#utility.yul\":1088:1093   */\n      dup3\n        /* \"#utility.yul\":1081:1102   */\n      mstore\n        /* \"#utility.yul\":1121:1125   */\n      0x20\n        /* \"#utility.yul\":1114:1119   */\n      dup3\n        /* \"#utility.yul\":1110:1126   */\n      add\n        /* \"#utility.yul\":1103:1126   */\n      swap1\n      pop\n        /* \"#utility.yul\":1146:1152   */\n      dup3\n        /* \"#utility.yul\":1196:1199   */\n      dup6\n        /* \"#utility.yul\":1188:1192   */\n      0xa0\n        /* \"#utility.yul\":1180:1186   */\n      dup7\n        /* \"#utility.yul\":1176:1193   */\n      mul\n        /* \"#utility.yul\":1171:1174   */\n      dup3\n        /* \"#utility.yul\":1167:1194   */\n      add\n        /* \"#utility.yul\":1164:1200   */\n      gt\n        /* \"#utility.yul\":1161:1163   */\n      iszero\n      tag_133\n      jumpi\n        /* \"#utility.yul\":1213:1214   */\n      0x00\n        /* \"#utility.yul\":1210:1211   */\n      dup1\n        /* \"#utility.yul\":1203:1215   */\n      revert\n        /* \"#utility.yul\":1161:1163   */\n    tag_133:\n        /* \"#utility.yul\":1241:1242   */\n      0x00\n        /* \"#utility.yul\":1226:1487   */\n    tag_134:\n        /* \"#utility.yul\":1251:1257   */\n      dup6\n        /* \"#utility.yul\":1248:1249   */\n      dup2\n        /* \"#utility.yul\":1245:1258   */\n      lt\n        /* \"#utility.yul\":1226:1487   */\n      iszero\n      tag_136\n      jumpi\n        /* \"#utility.yul\":1318:1321   */\n      dup2\n        /* \"#utility.yul\":1346:1408   */\n      tag_137\n        /* \"#utility.yul\":1404:1407   */\n      dup9\n        /* \"#utility.yul\":1392:1402   */\n      dup3\n        /* \"#utility.yul\":1346:1408   */\n      tag_138\n      jump\t// in\n    tag_137:\n        /* \"#utility.yul\":1341:1344   */\n      dup5\n        /* \"#utility.yul\":1334:1409   */\n      mstore\n        /* \"#utility.yul\":1438:1442   */\n      0x20\n        /* \"#utility.yul\":1433:1436   */\n      dup5\n        /* \"#utility.yul\":1429:1443   */\n      add\n        /* \"#utility.yul\":1422:1443   */\n      swap4\n      pop\n        /* \"#utility.yul\":1472:1476   */\n      0xa0\n        /* \"#utility.yul\":1467:1470   */\n      dup4\n        /* \"#utility.yul\":1463:1477   */\n      add\n        /* \"#utility.yul\":1456:1477   */\n      swap3\n      pop\n        /* \"#utility.yul\":1286:1487   */\n      pop\n        /* \"#utility.yul\":1273:1274   */\n      0x01\n        /* \"#utility.yul\":1270:1271   */\n      dup2\n        /* \"#utility.yul\":1266:1275   */\n      add\n        /* \"#utility.yul\":1261:1275   */\n      swap1\n      pop\n        /* \"#utility.yul\":1226:1487   */\n      jump(tag_134)\n    tag_136:\n        /* \"#utility.yul\":1230:1244   */\n      pop\n        /* \"#utility.yul\":923:1493   */\n      pop\n      pop\n      swap4\n      swap3\n      pop\n      pop\n      pop\n      jump\t// out\n        /* \"#utility.yul\":1499:1638   */\n    tag_139:\n      0x00\n        /* \"#utility.yul\":1583:1589   */\n      dup2\n        /* \"#utility.yul\":1570:1590   */\n      calldataload\n        /* \"#utility.yul\":1561:1590   */\n      swap1\n      pop\n        /* \"#utility.yul\":1599:1632   */\n      tag_141\n        /* \"#utility.yul\":1626:1631   */\n      dup2\n        /* \"#utility.yul\":1599:1632   */\n      tag_142\n      jump\t// in\n    tag_141:\n        /* \"#utility.yul\":1551:1638   */\n      swap3\n      swap2\n      pop\n      pop\n      jump\t// out\n        /* \"#utility.yul\":1686:2041   */\n    tag_143:\n      0x00\n        /* \"#utility.yul\":1832:1835   */\n      dup3\n        /* \"#utility.yul\":1825:1829   */\n      0x1f\n        /* \"#utility.yul\":1817:1823   */\n      dup4\n        /* \"#utility.yul\":1813:1830   */\n      add\n        /* \"#utility.yul\":1809:1836   */\n      slt\n        /* \"#utility.yul\":1799:1801   */\n      tag_145\n      jumpi\n        /* \"#utility.yul\":1850:1851   */\n      0x00\n        /* \"#utility.yul\":1847:1848   */\n      dup1\n        /* \"#utility.yul\":1840:1852   */\n      revert\n        /* \"#utility.yul\":1799:1801   */\n    tag_145:\n        /* \"#utility.yul\":1890:1896   */\n      dup2\n        /* \"#utility.yul\":1877:1897   */\n      calldataload\n        /* \"#utility.yul\":1915:2035   */\n      tag_146\n        /* \"#utility.yul\":2031:2034   */\n      dup5\n        /* \"#utility.yul\":2023:2029   */\n      dup3\n        /* \"#utility.yul\":2016:2020   */\n      0x20\n        /* \"#utility.yul\":2008:2014   */\n      dup7\n        /* \"#utility.yul\":2004:2021   */\n      add\n        /* \"#utility.yul\":1915:2035   */\n      tag_116\n      jump\t// in\n    tag_146:\n        /* \"#utility.yul\":1906:2035   */\n      swap2\n      pop\n        /* \"#utility.yul\":1789:2041   */\n      pop\n      swap3\n      swap2\n      pop\n      pop\n      jump\t// out\n        /* \"#utility.yul\":2088:2441   */\n    tag_147:\n      0x00\n        /* \"#utility.yul\":2233:2236   */\n      dup3\n        /* \"#utility.yul\":2226:2230   */\n      0x1f\n        /* \"#utility.yul\":2218:2224   */\n      dup4\n        /* \"#utility.yul\":2214:2231   */\n      add\n        /* \"#utility.yul\":2210:2237   */\n      slt\n        /* \"#utility.yul\":2200:2202   */\n      tag_149\n      jumpi\n        /* \"#utility.yul\":2251:2252   */\n      0x00\n        /* \"#utility.yul\":2248:2249   */\n      dup1\n        /* \"#utility.yul\":2241:2253   */\n      revert\n        /* \"#utility.yul\":2200:2202   */\n    tag_149:\n        /* \"#utility.yul\":2291:2297   */\n      dup2\n        /* \"#utility.yul\":2278:2298   */\n      calldataload\n        /* \"#utility.yul\":2316:2435   */\n      tag_150\n        /* \"#utility.yul\":2431:2434   */\n      dup5\n        /* \"#utility.yul\":2423:2429   */\n      dup3\n        /* \"#utility.yul\":2416:2420   */\n      0x20\n        /* \"#utility.yul\":2408:2414   */\n      dup7\n        /* \"#utility.yul\":2404:2421   */\n      add\n        /* \"#utility.yul\":2316:2435   */\n      tag_128\n      jump\t// in\n    tag_150:\n        /* \"#utility.yul\":2307:2435   */\n      swap2\n      pop\n        /* \"#utility.yul\":2190:2441   */\n      pop\n      swap3\n      swap2\n      pop\n      pop\n      jump\t// out\n        /* \"#utility.yul\":2447:2584   */\n    tag_151:\n      0x00\n        /* \"#utility.yul\":2532:2538   */\n      dup2\n        /* \"#utility.yul\":2526:2539   */\n      mload\n        /* \"#utility.yul\":2517:2539   */\n      swap1\n      pop\n        /* \"#utility.yul\":2548:2578   */\n      tag_153\n        /* \"#utility.yul\":2572:2577   */\n      dup2\n        /* \"#utility.yul\":2548:2578   */\n      tag_154\n      jump\t// in\n    tag_153:\n        /* \"#utility.yul\":2507:2584   */\n      swap3\n      swap2\n      pop\n      pop\n      jump\t// out\n        /* \"#utility.yul\":2630:3955   */\n    tag_127:\n      0x00\n        /* \"#utility.yul\":2749:2753   */\n      0xe0\n        /* \"#utility.yul\":2737:2746   */\n      dup3\n        /* \"#utility.yul\":2732:2735   */\n      dup5\n        /* \"#utility.yul\":2728:2747   */\n      sub\n        /* \"#utility.yul\":2724:2754   */\n      slt\n        /* \"#utility.yul\":2721:2723   */\n      iszero\n      tag_156\n      jumpi\n        /* \"#utility.yul\":2767:2768   */\n      0x00\n        /* \"#utility.yul\":2764:2765   */\n      dup1\n        /* \"#utility.yul\":2757:2769   */\n      revert\n        /* \"#utility.yul\":2721:2723   */\n    tag_156:\n        /* \"#utility.yul\":2789:2809   */\n      tag_157\n        /* \"#utility.yul\":2804:2808   */\n      0xe0\n        /* \"#utility.yul\":2789:2809   */\n      tag_121\n      jump\t// in\n    tag_157:\n        /* \"#utility.yul\":2780:2809   */\n      swap1\n      pop\n        /* \"#utility.yul\":2869:2870   */\n      0x00\n        /* \"#utility.yul\":2909:2958   */\n      tag_158\n        /* \"#utility.yul\":2954:2957   */\n      dup5\n        /* \"#utility.yul\":2945:2951   */\n      dup3\n        /* \"#utility.yul\":2934:2943   */\n      dup6\n        /* \"#utility.yul\":2930:2952   */\n      add\n        /* \"#utility.yul\":2909:2958   */\n      tag_159\n      jump\t// in\n    tag_158:\n        /* \"#utility.yul\":2902:2906   */\n      0x00\n        /* \"#utility.yul\":2895:2900   */\n      dup4\n        /* \"#utility.yul\":2891:2907   */\n      add\n        /* \"#utility.yul\":2884:2959   */\n      mstore\n        /* \"#utility.yul\":2819:2970   */\n      pop\n        /* \"#utility.yul\":3027:3029   */\n      0x20\n        /* \"#utility.yul\":3068:3117   */\n      tag_160\n        /* \"#utility.yul\":3113:3116   */\n      dup5\n        /* \"#utility.yul\":3104:3110   */\n      dup3\n        /* \"#utility.yul\":3093:3102   */\n      dup6\n        /* \"#utility.yul\":3089:3111   */\n      add\n        /* \"#utility.yul\":3068:3117   */\n      tag_139\n      jump\t// in\n    tag_160:\n        /* \"#utility.yul\":3061:3065   */\n      0x20\n        /* \"#utility.yul\":3054:3059   */\n      dup4\n        /* \"#utility.yul\":3050:3066   */\n      add\n        /* \"#utility.yul\":3043:3118   */\n      mstore\n        /* \"#utility.yul\":2980:3129   */\n      pop\n        /* \"#utility.yul\":3186:3188   */\n      0x40\n        /* \"#utility.yul\":3227:3276   */\n      tag_161\n        /* \"#utility.yul\":3272:3275   */\n      dup5\n        /* \"#utility.yul\":3263:3269   */\n      dup3\n        /* \"#utility.yul\":3252:3261   */\n      dup6\n        /* \"#utility.yul\":3248:3270   */\n      add\n        /* \"#utility.yul\":3227:3276   */\n      tag_139\n      jump\t// in\n    tag_161:\n        /* \"#utility.yul\":3220:3224   */\n      0x40\n        /* \"#utility.yul\":3213:3218   */\n      dup4\n        /* \"#utility.yul\":3209:3225   */\n      add\n        /* \"#utility.yul\":3202:3277   */\n      mstore\n        /* \"#utility.yul\":3139:3288   */\n      pop\n        /* \"#utility.yul\":3351:3353   */\n      0x60\n        /* \"#utility.yul\":3392:3441   */\n      tag_162\n        /* \"#utility.yul\":3437:3440   */\n      dup5\n        /* \"#utility.yul\":3428:3434   */\n      dup3\n        /* \"#utility.yul\":3417:3426   */\n      dup6\n        /* \"#utility.yul\":3413:3435   */\n      add\n        /* \"#utility.yul\":3392:3441   */\n      tag_139\n      jump\t// in\n    tag_162:\n        /* \"#utility.yul\":3385:3389   */\n      0x60\n        /* \"#utility.yul\":3378:3383   */\n      dup4\n        /* \"#utility.yul\":3374:3390   */\n      add\n        /* \"#utility.yul\":3367:3442   */\n      mstore\n        /* \"#utility.yul\":3298:3453   */\n      pop\n        /* \"#utility.yul\":3523:3526   */\n      0x80\n        /* \"#utility.yul\":3565:3612   */\n      tag_163\n        /* \"#utility.yul\":3608:3611   */\n      dup5\n        /* \"#utility.yul\":3599:3605   */\n      dup3\n        /* \"#utility.yul\":3588:3597   */\n      dup6\n        /* \"#utility.yul\":3584:3606   */\n      add\n        /* \"#utility.yul\":3565:3612   */\n      tag_164\n      jump\t// in\n    tag_163:\n        /* \"#utility.yul\":3558:3562   */\n      0x80\n        /* \"#utility.yul\":3551:3556   */\n      dup4\n        /* \"#utility.yul\":3547:3563   */\n      add\n        /* \"#utility.yul\":3540:3613   */\n      mstore\n        /* \"#utility.yul\":3463:3624   */\n      pop\n        /* \"#utility.yul\":3683:3686   */\n      0xa0\n        /* \"#utility.yul\":3725:3774   */\n      tag_165\n        /* \"#utility.yul\":3770:3773   */\n      dup5\n        /* \"#utility.yul\":3761:3767   */\n      dup3\n        /* \"#utility.yul\":3750:3759   */\n      dup6\n        /* \"#utility.yul\":3746:3768   */\n      add\n        /* \"#utility.yul\":3725:3774   */\n      tag_159\n      jump\t// in\n    tag_165:\n        /* \"#utility.yul\":3718:3722   */\n      0xa0\n        /* \"#utility.yul\":3711:3716   */\n      dup4\n        /* \"#utility.yul\":3707:3723   */\n      add\n        /* \"#utility.yul\":3700:3775   */\n      mstore\n        /* \"#utility.yul\":3634:3786   */\n      pop\n        /* \"#utility.yul\":3845:3848   */\n      0xc0\n        /* \"#utility.yul\":3887:3936   */\n      tag_166\n        /* \"#utility.yul\":3932:3935   */\n      dup5\n        /* \"#utility.yul\":3923:3929   */\n      dup3\n        /* \"#utility.yul\":3912:3921   */\n      dup6\n        /* \"#utility.yul\":3908:3930   */\n      add\n        /* \"#utility.yul\":3887:3936   */\n      tag_159\n      jump\t// in\n    tag_166:\n        /* \"#utility.yul\":3880:3884   */\n      0xc0\n        /* \"#utility.yul\":3873:3878   */\n      dup4\n        /* \"#utility.yul\":3869:3885   */\n      add\n        /* \"#utility.yul\":3862:3937   */\n      mstore\n        /* \"#utility.yul\":3796:3948   */\n      pop\n        /* \"#utility.yul\":2711:3955   */\n      swap3\n      swap2\n      pop\n      pop\n      jump\t// out\n        /* \"#utility.yul\":4000:5000   */\n    tag_138:\n      0x00\n        /* \"#utility.yul\":4118:4122   */\n      0xa0\n        /* \"#utility.yul\":4106:4115   */\n      dup3\n        /* \"#utility.yul\":4101:4104   */\n      dup5\n        /* \"#utility.yul\":4097:4116   */\n      sub\n        /* \"#utility.yul\":4093:4123   */\n      slt\n        /* \"#utility.yul\":4090:4092   */\n      iszero\n      tag_168\n      jumpi\n        /* \"#utility.yul\":4136:4137   */\n      0x00\n        /* \"#utility.yul\":4133:4134   */\n      dup1\n        /* \"#utility.yul\":4126:4138   */\n      revert\n        /* \"#utility.yul\":4090:4092   */\n    tag_168:\n        /* \"#utility.yul\":4158:4178   */\n      tag_169\n        /* \"#utility.yul\":4173:4177   */\n      0xa0\n        /* \"#utility.yul\":4158:4178   */\n      tag_121\n      jump\t// in\n    tag_169:\n        /* \"#utility.yul\":4149:4178   */\n      swap1\n      pop\n        /* \"#utility.yul\":4238:4239   */\n      0x00\n        /* \"#utility.yul\":4278:4327   */\n      tag_170\n        /* \"#utility.yul\":4323:4326   */\n      dup5\n        /* \"#utility.yul\":4314:4320   */\n      dup3\n        /* \"#utility.yul\":4303:4312   */\n      dup6\n        /* \"#utility.yul\":4299:4321   */\n      add\n        /* \"#utility.yul\":4278:4327   */\n      tag_159\n      jump\t// in\n    tag_170:\n        /* \"#utility.yul\":4271:4275   */\n      0x00\n        /* \"#utility.yul\":4264:4269   */\n      dup4\n        /* \"#utility.yul\":4260:4276   */\n      add\n        /* \"#utility.yul\":4253:4328   */\n      mstore\n        /* \"#utility.yul\":4188:4339   */\n      pop\n        /* \"#utility.yul\":4396:4398   */\n      0x20\n        /* \"#utility.yul\":4437:4486   */\n      tag_171\n        /* \"#utility.yul\":4482:4485   */\n      dup5\n        /* \"#utility.yul\":4473:4479   */\n      dup3\n        /* \"#utility.yul\":4462:4471   */\n      dup6\n        /* \"#utility.yul\":4458:4480   */\n      add\n        /* \"#utility.yul\":4437:4486   */\n      tag_139\n      jump\t// in\n    tag_171:\n        /* \"#utility.yul\":4430:4434   */\n      0x20\n        /* \"#utility.yul\":4423:4428   */\n      dup4\n        /* \"#utility.yul\":4419:4435   */\n      add\n        /* \"#utility.yul\":4412:4487   */\n      mstore\n        /* \"#utility.yul\":4349:4498   */\n      pop\n        /* \"#utility.yul\":4555:4557   */\n      0x40\n        /* \"#utility.yul\":4596:4645   */\n      tag_172\n        /* \"#utility.yul\":4641:4644   */\n      dup5\n        /* \"#utility.yul\":4632:4638   */\n      dup3\n        /* \"#utility.yul\":4621:4630   */\n      dup6\n        /* \"#utility.yul\":4617:4639   */\n      add\n        /* \"#utility.yul\":4596:4645   */\n      tag_139\n      jump\t// in\n    tag_172:\n        /* \"#utility.yul\":4589:4593   */\n      0x40\n        /* \"#utility.yul\":4582:4587   */\n      dup4\n        /* \"#utility.yul\":4578:4594   */\n      add\n        /* \"#utility.yul\":4571:4646   */\n      mstore\n        /* \"#utility.yul\":4508:4657   */\n      pop\n        /* \"#utility.yul\":4720:4722   */\n      0x60\n        /* \"#utility.yul\":4761:4810   */\n      tag_173\n        /* \"#utility.yul\":4806:4809   */\n      dup5\n        /* \"#utility.yul\":4797:4803   */\n      dup3\n        /* \"#utility.yul\":4786:4795   */\n      dup6\n        /* \"#utility.yul\":4782:4804   */\n      add\n        /* \"#utility.yul\":4761:4810   */\n      tag_139\n      jump\t// in\n    tag_173:\n        /* \"#utility.yul\":4754:4758   */\n      0x60\n        /* \"#utility.yul\":4747:4752   */\n      dup4\n        /* \"#utility.yul\":4743:4759   */\n      add\n        /* \"#utility.yul\":4736:4811   */\n      mstore\n        /* \"#utility.yul\":4667:4822   */\n      pop\n        /* \"#utility.yul\":4892:4895   */\n      0x80\n        /* \"#utility.yul\":4934:4981   */\n      tag_174\n        /* \"#utility.yul\":4977:4980   */\n      dup5\n        /* \"#utility.yul\":4968:4974   */\n      dup3\n        /* \"#utility.yul\":4957:4966   */\n      dup6\n        /* \"#utility.yul\":4953:4975   */\n      add\n        /* \"#utility.yul\":4934:4981   */\n      tag_164\n      jump\t// in\n    tag_174:\n        /* \"#utility.yul\":4927:4931   */\n      0x80\n        /* \"#utility.yul\":4920:4925   */\n      dup4\n        /* \"#utility.yul\":4916:4932   */\n      add\n        /* \"#utility.yul\":4909:4982   */\n      mstore\n        /* \"#utility.yul\":4832:4993   */\n      pop\n        /* \"#utility.yul\":4080:5000   */\n      swap3\n      swap2\n      pop\n      pop\n      jump\t// out\n        /* \"#utility.yul\":5006:5147   */\n    tag_175:\n      0x00\n        /* \"#utility.yul\":5093:5099   */\n      dup2\n        /* \"#utility.yul\":5087:5100   */\n      mload\n        /* \"#utility.yul\":5078:5100   */\n      swap1\n      pop\n        /* \"#utility.yul\":5109:5141   */\n      tag_177\n        /* \"#utility.yul\":5135:5140   */\n      dup2\n        /* \"#utility.yul\":5109:5141   */\n      tag_178\n      jump\t// in\n    tag_177:\n        /* \"#utility.yul\":5068:5147   */\n      swap3\n      swap2\n      pop\n      pop\n      jump\t// out\n        /* \"#utility.yul\":5153:5292   */\n    tag_159:\n      0x00\n        /* \"#utility.yul\":5237:5243   */\n      dup2\n        /* \"#utility.yul\":5224:5244   */\n      calldataload\n        /* \"#utility.yul\":5215:5244   */\n      swap1\n      pop\n        /* \"#utility.yul\":5253:5286   */\n      tag_180\n        /* \"#utility.yul\":5280:5285   */\n      dup2\n        /* \"#utility.yul\":5253:5286   */\n      tag_181\n      jump\t// in\n    tag_180:\n        /* \"#utility.yul\":5205:5292   */\n      swap3\n      swap2\n      pop\n      pop\n      jump\t// out\n        /* \"#utility.yul\":5298:5441   */\n    tag_182:\n      0x00\n        /* \"#utility.yul\":5386:5392   */\n      dup2\n        /* \"#utility.yul\":5380:5393   */\n      mload\n        /* \"#utility.yul\":5371:5393   */\n      swap1\n      pop\n        /* \"#utility.yul\":5402:5435   */\n      tag_184\n        /* \"#utility.yul\":5429:5434   */\n      dup2\n        /* \"#utility.yul\":5402:5435   */\n      tag_181\n      jump\t// in\n    tag_184:\n        /* \"#utility.yul\":5361:5441   */\n      swap3\n      swap2\n      pop\n      pop\n      jump\t// out\n        /* \"#utility.yul\":5447:5582   */\n    tag_164:\n      0x00\n        /* \"#utility.yul\":5529:5535   */\n      dup2\n        /* \"#utility.yul\":5516:5536   */\n      calldataload\n        /* \"#utility.yul\":5507:5536   */\n      swap1\n      pop\n        /* \"#utility.yul\":5545:5576   */\n      tag_186\n        /* \"#utility.yul\":5570:5575   */\n      dup2\n        /* \"#utility.yul\":5545:5576   */\n      tag_187\n      jump\t// in\n    tag_186:\n        /* \"#utility.yul\":5497:5582   */\n      swap3\n      swap2\n      pop\n      pop\n      jump\t// out\n        /* \"#utility.yul\":5588:6428   */\n    tag_14:\n      0x00\n      dup1\n      0x00\n      dup1\n      0x00\n        /* \"#utility.yul\":5762:5765   */\n      0xa0\n        /* \"#utility.yul\":5750:5759   */\n      dup7\n        /* \"#utility.yul\":5741:5748   */\n      dup9\n        /* \"#utility.yul\":5737:5760   */\n      sub\n        /* \"#utility.yul\":5733:5766   */\n      slt\n        /* \"#utility.yul\":5730:5732   */\n      iszero\n      tag_189\n      jumpi\n        /* \"#utility.yul\":5779:5780   */\n      0x00\n        /* \"#utility.yul\":5776:5777   */\n      dup1\n        /* \"#utility.yul\":5769:5781   */\n      revert\n        /* \"#utility.yul\":5730:5732   */\n    tag_189:\n        /* \"#utility.yul\":5822:5823   */\n      0x00\n        /* \"#utility.yul\":5847:5900   */\n      tag_190\n        /* \"#utility.yul\":5892:5899   */\n      dup9\n        /* \"#utility.yul\":5883:5889   */\n      dup3\n        /* \"#utility.yul\":5872:5881   */\n      dup10\n        /* \"#utility.yul\":5868:5890   */\n      add\n        /* \"#utility.yul\":5847:5900   */\n      tag_139\n      jump\t// in\n    tag_190:\n        /* \"#utility.yul\":5837:5900   */\n      swap6\n      pop\n        /* \"#utility.yul\":5793:5910   */\n      pop\n        /* \"#utility.yul\":5949:5951   */\n      0x20\n        /* \"#utility.yul\":5975:6028   */\n      tag_191\n        /* \"#utility.yul\":6020:6027   */\n      dup9\n        /* \"#utility.yul\":6011:6017   */\n      dup3\n        /* \"#utility.yul\":6000:6009   */\n      dup10\n        /* \"#utility.yul\":5996:6018   */\n      add\n        /* \"#utility.yul\":5975:6028   */\n      tag_139\n      jump\t// in\n    tag_191:\n        /* \"#utility.yul\":5965:6028   */\n      swap5\n      pop\n        /* \"#utility.yul\":5920:6038   */\n      pop\n        /* \"#utility.yul\":6077:6079   */\n      0x40\n        /* \"#utility.yul\":6103:6156   */\n      tag_192\n        /* \"#utility.yul\":6148:6155   */\n      dup9\n        /* \"#utility.yul\":6139:6145   */\n      dup3\n        /* \"#utility.yul\":6128:6137   */\n      dup10\n        /* \"#utility.yul\":6124:6146   */\n      add\n        /* \"#utility.yul\":6103:6156   */\n      tag_139\n      jump\t// in\n    tag_192:\n        /* \"#utility.yul\":6093:6156   */\n      swap4\n      pop\n        /* \"#utility.yul\":6048:6166   */\n      pop\n        /* \"#utility.yul\":6205:6207   */\n      0x60\n        /* \"#utility.yul\":6231:6284   */\n      tag_193\n        /* \"#utility.yul\":6276:6283   */\n      dup9\n        /* \"#utility.yul\":6267:6273   */\n      dup3\n        /* \"#utility.yul\":6256:6265   */\n      dup10\n        /* \"#utility.yul\":6252:6274   */\n      add\n        /* \"#utility.yul\":6231:6284   */\n      tag_159\n      jump\t// in\n    tag_193:\n        /* \"#utility.yul\":6221:6284   */\n      swap3\n      pop\n        /* \"#utility.yul\":6176:6294   */\n      pop\n        /* \"#utility.yul\":6333:6336   */\n      0x80\n        /* \"#utility.yul\":6360:6411   */\n      tag_194\n        /* \"#utility.yul\":6403:6410   */\n      dup9\n        /* \"#utility.yul\":6394:6400   */\n      dup3\n        /* \"#utility.yul\":6383:6392   */\n      dup10\n        /* \"#utility.yul\":6379:6401   */\n      add\n        /* \"#utility.yul\":6360:6411   */\n      tag_164\n      jump\t// in\n    tag_194:\n        /* \"#utility.yul\":6350:6411   */\n      swap2\n      pop\n        /* \"#utility.yul\":6304:6421   */\n      pop\n        /* \"#utility.yul\":5720:6428   */\n      swap3\n      swap6\n      pop\n      swap3\n      swap6\n      swap1\n      swap4\n      pop\n      jump\t// out\n        /* \"#utility.yul\":6434:6891   */\n    tag_8:\n      0x00\n        /* \"#utility.yul\":6593:6595   */\n      0x20\n        /* \"#utility.yul\":6581:6590   */\n      dup3\n        /* \"#utility.yul\":6572:6579   */\n      dup5\n        /* \"#utility.yul\":6568:6591   */\n      sub\n        /* \"#utility.yul\":6564:6596   */\n      slt\n        /* \"#utility.yul\":6561:6563   */\n      iszero\n      tag_196\n      jumpi\n        /* \"#utility.yul\":6609:6610   */\n      0x00\n        /* \"#utility.yul\":6606:6607   */\n      dup1\n        /* \"#utility.yul\":6599:6611   */\n      revert\n        /* \"#utility.yul\":6561:6563   */\n    tag_196:\n        /* \"#utility.yul\":6680:6681   */\n      0x00\n        /* \"#utility.yul\":6669:6678   */\n      dup3\n        /* \"#utility.yul\":6665:6682   */\n      add\n        /* \"#utility.yul\":6652:6683   */\n      calldataload\n        /* \"#utility.yul\":6710:6728   */\n      0xffffffffffffffff\n        /* \"#utility.yul\":6702:6708   */\n      dup2\n        /* \"#utility.yul\":6699:6729   */\n      gt\n        /* \"#utility.yul\":6696:6698   */\n      iszero\n      tag_197\n      jumpi\n        /* \"#utility.yul\":6742:6743   */\n      0x00\n        /* \"#utility.yul\":6739:6740   */\n      dup1\n        /* \"#utility.yul\":6732:6744   */\n      revert\n        /* \"#utility.yul\":6696:6698   */\n    tag_197:\n        /* \"#utility.yul\":6770:6874   */\n      tag_198\n        /* \"#utility.yul\":6866:6873   */\n      dup5\n        /* \"#utility.yul\":6857:6863   */\n      dup3\n        /* \"#utility.yul\":6846:6855   */\n      dup6\n        /* \"#utility.yul\":6842:6864   */\n      add\n        /* \"#utility.yul\":6770:6874   */\n      tag_143\n      jump\t// in\n    tag_198:\n        /* \"#utility.yul\":6760:6874   */\n      swap2\n      pop\n        /* \"#utility.yul\":6623:6884   */\n      pop\n        /* \"#utility.yul\":6551:6891   */\n      swap3\n      swap2\n      pop\n      pop\n      jump\t// out\n        /* \"#utility.yul\":6897:7352   */\n    tag_20:\n      0x00\n        /* \"#utility.yul\":7055:7057   */\n      0x20\n        /* \"#utility.yul\":7043:7052   */\n      dup3\n        /* \"#utility.yul\":7034:7041   */\n      dup5\n        /* \"#utility.yul\":7030:7053   */\n      sub\n        /* \"#utility.yul\":7026:7058   */\n      slt\n        /* \"#utility.yul\":7023:7025   */\n      iszero\n      tag_200\n      jumpi\n        /* \"#utility.yul\":7071:7072   */\n      0x00\n        /* \"#utility.yul\":7068:7069   */\n      dup1\n        /* \"#utility.yul\":7061:7073   */\n      revert\n        /* \"#utility.yul\":7023:7025   */\n    tag_200:\n        /* \"#utility.yul\":7142:7143   */\n      0x00\n        /* \"#utility.yul\":7131:7140   */\n      dup3\n        /* \"#utility.yul\":7127:7144   */\n      add\n        /* \"#utility.yul\":7114:7145   */\n      calldataload\n        /* \"#utility.yul\":7172:7190   */\n      0xffffffffffffffff\n        /* \"#utility.yul\":7164:7170   */\n      dup2\n        /* \"#utility.yul\":7161:7191   */\n      gt\n        /* \"#utility.yul\":7158:7160   */\n      iszero\n      tag_201\n      jumpi\n        /* \"#utility.yul\":7204:7205   */\n      0x00\n        /* \"#utility.yul\":7201:7202   */\n      dup1\n        /* \"#utility.yul\":7194:7206   */\n      revert\n        /* \"#utility.yul\":7158:7160   */\n    tag_201:\n        /* \"#utility.yul\":7232:7335   */\n      tag_202\n        /* \"#utility.yul\":7327:7334   */\n      dup5\n        /* \"#utility.yul\":7318:7324   */\n      dup3\n        /* \"#utility.yul\":7307:7316   */\n      dup6\n        /* \"#utility.yul\":7303:7325   */\n      add\n        /* \"#utility.yul\":7232:7335   */\n      tag_147\n      jump\t// in\n    tag_202:\n        /* \"#utility.yul\":7222:7335   */\n      swap2\n      pop\n        /* \"#utility.yul\":7085:7345   */\n      pop\n        /* \"#utility.yul\":7013:7352   */\n      swap3\n      swap2\n      pop\n      pop\n      jump\t// out\n        /* \"#utility.yul\":7358:7636   */\n    tag_46:\n      0x00\n        /* \"#utility.yul\":7474:7476   */\n      0x20\n        /* \"#utility.yul\":7462:7471   */\n      dup3\n        /* \"#utility.yul\":7453:7460   */\n      dup5\n        /* \"#utility.yul\":7449:7472   */\n      sub\n        /* \"#utility.yul\":7445:7477   */\n      slt\n        /* \"#utility.yul\":7442:7444   */\n      iszero\n      tag_204\n      jumpi\n        /* \"#utility.yul\":7490:7491   */\n      0x00\n        /* \"#utility.yul\":7487:7488   */\n      dup1\n        /* \"#utility.yul\":7480:7492   */\n      revert\n        /* \"#utility.yul\":7442:7444   */\n    tag_204:\n        /* \"#utility.yul\":7533:7534   */\n      0x00\n        /* \"#utility.yul\":7558:7619   */\n      tag_205\n        /* \"#utility.yul\":7611:7618   */\n      dup5\n        /* \"#utility.yul\":7602:7608   */\n      dup3\n        /* \"#utility.yul\":7591:7600   */\n      dup6\n        /* \"#utility.yul\":7587:7609   */\n      add\n        /* \"#utility.yul\":7558:7619   */\n      tag_151\n      jump\t// in\n    tag_205:\n        /* \"#utility.yul\":7548:7619   */\n      swap2\n      pop\n        /* \"#utility.yul\":7504:7629   */\n      pop\n        /* \"#utility.yul\":7432:7636   */\n      swap3\n      swap2\n      pop\n      pop\n      jump\t// out\n        /* \"#utility.yul\":7642:7926   */\n    tag_71:\n      0x00\n        /* \"#utility.yul\":7761:7763   */\n      0x20\n        /* \"#utility.yul\":7749:7758   */\n      dup3\n        /* \"#utility.yul\":7740:7747   */\n      dup5\n        /* \"#utility.yul\":7736:7759   */\n      sub\n        /* \"#utility.yul\":7732:7764   */\n      slt\n        /* \"#utility.yul\":7729:7731   */\n      iszero\n      tag_207\n      jumpi\n        /* \"#utility.yul\":7777:7778   */\n      0x00\n        /* \"#utility.yul\":7774:7775   */\n      dup1\n        /* \"#utility.yul\":7767:7779   */\n      revert\n        /* \"#utility.yul\":7729:7731   */\n    tag_207:\n        /* \"#utility.yul\":7820:7821   */\n      0x00\n        /* \"#utility.yul\":7845:7909   */\n      tag_208\n        /* \"#utility.yul\":7901:7908   */\n      dup5\n        /* \"#utility.yul\":7892:7898   */\n      dup3\n        /* \"#utility.yul\":7881:7890   */\n      dup6\n        /* \"#utility.yul\":7877:7899   */\n      add\n        /* \"#utility.yul\":7845:7909   */\n      tag_182\n      jump\t// in\n    tag_208:\n        /* \"#utility.yul\":7835:7909   */\n      swap2\n      pop\n        /* \"#utility.yul\":7791:7919   */\n      pop\n        /* \"#utility.yul\":7719:7926   */\n      swap3\n      swap2\n      pop\n      pop\n      jump\t// out\n        /* \"#utility.yul\":7932:8370   */\n    tag_79:\n      0x00\n      dup1\n        /* \"#utility.yul\":8067:8069   */\n      0x40\n        /* \"#utility.yul\":8055:8064   */\n      dup4\n        /* \"#utility.yul\":8046:8053   */\n      dup6\n        /* \"#utility.yul\":8042:8065   */\n      sub\n        /* \"#utility.yul\":8038:8070   */\n      slt\n        /* \"#utility.yul\":8035:8037   */\n      iszero\n      tag_210\n      jumpi\n        /* \"#utility.yul\":8083:8084   */\n      0x00\n        /* \"#utility.yul\":8080:8081   */\n      dup1\n        /* \"#utility.yul\":8073:8085   */\n      revert\n        /* \"#utility.yul\":8035:8037   */\n    tag_210:\n        /* \"#utility.yul\":8126:8127   */\n      0x00\n        /* \"#utility.yul\":8151:8215   */\n      tag_211\n        /* \"#utility.yul\":8207:8214   */\n      dup6\n        /* \"#utility.yul\":8198:8204   */\n      dup3\n        /* \"#utility.yul\":8187:8196   */\n      dup7\n        /* \"#utility.yul\":8183:8205   */\n      add\n        /* \"#utility.yul\":8151:8215   */\n      tag_182\n      jump\t// in\n    tag_211:\n        /* \"#utility.yul\":8141:8215   */\n      swap3\n      pop\n        /* \"#utility.yul\":8097:8225   */\n      pop\n        /* \"#utility.yul\":8264:8266   */\n      0x20\n        /* \"#utility.yul\":8290:8353   */\n      tag_212\n        /* \"#utility.yul\":8345:8352   */\n      dup6\n        /* \"#utility.yul\":8336:8342   */\n      dup3\n        /* \"#utility.yul\":8325:8334   */\n      dup7\n        /* \"#utility.yul\":8321:8343   */\n      add\n        /* \"#utility.yul\":8290:8353   */\n      tag_175\n      jump\t// in\n    tag_212:\n        /* \"#utility.yul\":8280:8353   */\n      swap2\n      pop\n        /* \"#utility.yul\":8235:8363   */\n      pop\n        /* \"#utility.yul\":8025:8370   */\n      swap3\n      pop\n      swap3\n      swap1\n      pop\n      jump\t// out\n        /* \"#utility.yul\":8376:8663   */\n    tag_213:\n      0x00\n        /* \"#utility.yul\":8520:8620   */\n      tag_215\n        /* \"#utility.yul\":8616:8619   */\n      dup4\n        /* \"#utility.yul\":8608:8614   */\n      dup4\n        /* \"#utility.yul\":8520:8620   */\n      tag_216\n      jump\t// in\n    tag_215:\n        /* \"#utility.yul\":8652:8656   */\n      0x40\n        /* \"#utility.yul\":8647:8650   */\n      dup4\n        /* \"#utility.yul\":8643:8657   */\n      add\n        /* \"#utility.yul\":8629:8657   */\n      swap1\n      pop\n        /* \"#utility.yul\":8510:8663   */\n      swap3\n      swap2\n      pop\n      pop\n      jump\t// out\n        /* \"#utility.yul\":8669:8952   */\n    tag_217:\n      0x00\n        /* \"#utility.yul\":8811:8909   */\n      tag_219\n        /* \"#utility.yul\":8905:8908   */\n      dup4\n        /* \"#utility.yul\":8897:8903   */\n      dup4\n        /* \"#utility.yul\":8811:8909   */\n      tag_220\n      jump\t// in\n    tag_219:\n        /* \"#utility.yul\":8941:8945   */\n      0x60\n        /* \"#utility.yul\":8936:8939   */\n      dup4\n        /* \"#utility.yul\":8932:8946   */\n      add\n        /* \"#utility.yul\":8918:8946   */\n      swap1\n      pop\n        /* \"#utility.yul\":8801:8952   */\n      swap3\n      swap2\n      pop\n      pop\n      jump\t// out\n        /* \"#utility.yul\":8958:9084   */\n    tag_221:\n        /* \"#utility.yul\":9053:9077   */\n      tag_223\n        /* \"#utility.yul\":9071:9076   */\n      dup2\n        /* \"#utility.yul\":9053:9077   */\n      tag_224\n      jump\t// in\n    tag_223:\n        /* \"#utility.yul\":9048:9051   */\n      dup3\n        /* \"#utility.yul\":9041:9078   */\n      mstore\n        /* \"#utility.yul\":9031:9084   */\n      pop\n      pop\n      jump\t// out\n        /* \"#utility.yul\":9172:10120   */\n    tag_225:\n      0x00\n        /* \"#utility.yul\":9374:9455   */\n      tag_227\n        /* \"#utility.yul\":9449:9454   */\n      dup3\n        /* \"#utility.yul\":9374:9455   */\n      tag_228\n      jump\t// in\n    tag_227:\n        /* \"#utility.yul\":9471:9584   */\n      tag_229\n        /* \"#utility.yul\":9577:9583   */\n      dup2\n        /* \"#utility.yul\":9572:9575   */\n      dup6\n        /* \"#utility.yul\":9471:9584   */\n      tag_230\n      jump\t// in\n    tag_229:\n        /* \"#utility.yul\":9464:9584   */\n      swap4\n      pop\n        /* \"#utility.yul\":9608:9691   */\n      tag_231\n        /* \"#utility.yul\":9685:9690   */\n      dup4\n        /* \"#utility.yul\":9608:9691   */\n      tag_232\n      jump\t// in\n    tag_231:\n        /* \"#utility.yul\":9714:9721   */\n      dup1\n        /* \"#utility.yul\":9745:9746   */\n      0x00\n        /* \"#utility.yul\":9730:10095   */\n    tag_233:\n        /* \"#utility.yul\":9755:9761   */\n      dup4\n        /* \"#utility.yul\":9752:9753   */\n      dup2\n        /* \"#utility.yul\":9749:9762   */\n      lt\n        /* \"#utility.yul\":9730:10095   */\n      iszero\n      tag_235\n      jumpi\n        /* \"#utility.yul\":9831:9837   */\n      dup2\n        /* \"#utility.yul\":9825:9838   */\n      mload\n        /* \"#utility.yul\":9858:9975   */\n      tag_236\n        /* \"#utility.yul\":9971:9974   */\n      dup9\n        /* \"#utility.yul\":9956:9969   */\n      dup3\n        /* \"#utility.yul\":9858:9975   */\n      tag_213\n      jump\t// in\n    tag_236:\n        /* \"#utility.yul\":9851:9975   */\n      swap8\n      pop\n        /* \"#utility.yul\":9998:10085   */\n      tag_237\n        /* \"#utility.yul\":10078:10084   */\n      dup4\n        /* \"#utility.yul\":9998:10085   */\n      tag_238\n      jump\t// in\n    tag_237:\n        /* \"#utility.yul\":9988:10085   */\n      swap3\n      pop\n        /* \"#utility.yul\":9790:10095   */\n      pop\n        /* \"#utility.yul\":9777:9778   */\n      0x01\n        /* \"#utility.yul\":9774:9775   */\n      dup2\n        /* \"#utility.yul\":9770:9779   */\n      add\n        /* \"#utility.yul\":9765:9779   */\n      swap1\n      pop\n        /* \"#utility.yul\":9730:10095   */\n      jump(tag_233)\n    tag_235:\n        /* \"#utility.yul\":9734:9748   */\n      pop\n        /* \"#utility.yul\":10111:10114   */\n      dup6\n        /* \"#utility.yul\":10104:10114   */\n      swap4\n      pop\n        /* \"#utility.yul\":9350:10120   */\n      pop\n      pop\n      pop\n      swap3\n      swap2\n      pop\n      pop\n      jump\t// out\n        /* \"#utility.yul\":10206:11146   */\n    tag_239:\n      0x00\n        /* \"#utility.yul\":10406:10486   */\n      tag_241\n        /* \"#utility.yul\":10480:10485   */\n      dup3\n        /* \"#utility.yul\":10406:10486   */\n      tag_242\n      jump\t// in\n    tag_241:\n        /* \"#utility.yul\":10502:10614   */\n      tag_243\n        /* \"#utility.yul\":10607:10613   */\n      dup2\n        /* \"#utility.yul\":10602:10605   */\n      dup6\n        /* \"#utility.yul\":10502:10614   */\n      tag_244\n      jump\t// in\n    tag_243:\n        /* \"#utility.yul\":10495:10614   */\n      swap4\n      pop\n        /* \"#utility.yul\":10638:10720   */\n      tag_245\n        /* \"#utility.yul\":10714:10719   */\n      dup4\n        /* \"#utility.yul\":10638:10720   */\n      tag_246\n      jump\t// in\n    tag_245:\n        /* \"#utility.yul\":10743:10750   */\n      dup1\n        /* \"#utility.yul\":10774:10775   */\n      0x00\n        /* \"#utility.yul\":10759:11121   */\n    tag_247:\n        /* \"#utility.yul\":10784:10790   */\n      dup4\n        /* \"#utility.yul\":10781:10782   */\n      dup2\n        /* \"#utility.yul\":10778:10791   */\n      lt\n        /* \"#utility.yul\":10759:11121   */\n      iszero\n      tag_249\n      jumpi\n        /* \"#utility.yul\":10860:10866   */\n      dup2\n        /* \"#utility.yul\":10854:10867   */\n      mload\n        /* \"#utility.yul\":10887:11002   */\n      tag_250\n        /* \"#utility.yul\":10998:11001   */\n      dup9\n        /* \"#utility.yul\":10983:10996   */\n      dup3\n        /* \"#utility.yul\":10887:11002   */\n      tag_217\n      jump\t// in\n    tag_250:\n        /* \"#utility.yul\":10880:11002   */\n      swap8\n      pop\n        /* \"#utility.yul\":11025:11111   */\n      tag_251\n        /* \"#utility.yul\":11104:11110   */\n      dup4\n        /* \"#utility.yul\":11025:11111   */\n      tag_252\n      jump\t// in\n    tag_251:\n        /* \"#utility.yul\":11015:11111   */\n      swap3\n      pop\n        /* \"#utility.yul\":10819:11121   */\n      pop\n        /* \"#utility.yul\":10806:10807   */\n      0x01\n        /* \"#utility.yul\":10803:10804   */\n      dup2\n        /* \"#utility.yul\":10799:10808   */\n      add\n        /* \"#utility.yul\":10794:10808   */\n      swap1\n      pop\n        /* \"#utility.yul\":10759:11121   */\n      jump(tag_247)\n    tag_249:\n        /* \"#utility.yul\":10763:10777   */\n      pop\n        /* \"#utility.yul\":11137:11140   */\n      dup6\n        /* \"#utility.yul\":11130:11140   */\n      swap4\n      pop\n        /* \"#utility.yul\":10382:11146   */\n      pop\n      pop\n      pop\n      swap3\n      swap2\n      pop\n      pop\n      jump\t// out\n        /* \"#utility.yul\":11152:11251   */\n    tag_253:\n        /* \"#utility.yul\":11223:11244   */\n      tag_255\n        /* \"#utility.yul\":11238:11243   */\n      dup2\n        /* \"#utility.yul\":11223:11244   */\n      tag_256\n      jump\t// in\n    tag_255:\n        /* \"#utility.yul\":11218:11221   */\n      dup3\n        /* \"#utility.yul\":11211:11245   */\n      mstore\n        /* \"#utility.yul\":11201:11251   */\n      pop\n      pop\n      jump\t// out\n        /* \"#utility.yul\":11335:11833   */\n    tag_216:\n        /* \"#utility.yul\":11476:11480   */\n      0x40\n        /* \"#utility.yul\":11471:11474   */\n      dup3\n        /* \"#utility.yul\":11467:11481   */\n      add\n        /* \"#utility.yul\":11564:11568   */\n      0x00\n        /* \"#utility.yul\":11557:11562   */\n      dup3\n        /* \"#utility.yul\":11553:11569   */\n      add\n        /* \"#utility.yul\":11547:11570   */\n      mload\n        /* \"#utility.yul\":11583:11646   */\n      tag_258\n        /* \"#utility.yul\":11640:11644   */\n      0x00\n        /* \"#utility.yul\":11635:11638   */\n      dup6\n        /* \"#utility.yul\":11631:11645   */\n      add\n        /* \"#utility.yul\":11617:11629   */\n      dup3\n        /* \"#utility.yul\":11583:11646   */\n      tag_259\n      jump\t// in\n    tag_258:\n        /* \"#utility.yul\":11491:11656   */\n      pop\n        /* \"#utility.yul\":11740:11744   */\n      0x20\n        /* \"#utility.yul\":11733:11738   */\n      dup3\n        /* \"#utility.yul\":11729:11745   */\n      add\n        /* \"#utility.yul\":11723:11746   */\n      mload\n        /* \"#utility.yul\":11759:11816   */\n      tag_260\n        /* \"#utility.yul\":11810:11814   */\n      0x20\n        /* \"#utility.yul\":11805:11808   */\n      dup6\n        /* \"#utility.yul\":11801:11815   */\n      add\n        /* \"#utility.yul\":11787:11799   */\n      dup3\n        /* \"#utility.yul\":11759:11816   */\n      tag_253\n      jump\t// in\n    tag_260:\n        /* \"#utility.yul\":11666:11826   */\n      pop\n        /* \"#utility.yul\":11445:11833   */\n      pop\n      pop\n      pop\n      jump\t// out\n        /* \"#utility.yul\":11915:12587   */\n    tag_220:\n        /* \"#utility.yul\":12054:12058   */\n      0x60\n        /* \"#utility.yul\":12049:12052   */\n      dup3\n        /* \"#utility.yul\":12045:12059   */\n      add\n        /* \"#utility.yul\":12142:12146   */\n      0x00\n        /* \"#utility.yul\":12135:12140   */\n      dup3\n        /* \"#utility.yul\":12131:12147   */\n      add\n        /* \"#utility.yul\":12125:12148   */\n      mload\n        /* \"#utility.yul\":12161:12224   */\n      tag_262\n        /* \"#utility.yul\":12218:12222   */\n      0x00\n        /* \"#utility.yul\":12213:12216   */\n      dup6\n        /* \"#utility.yul\":12209:12223   */\n      add\n        /* \"#utility.yul\":12195:12207   */\n      dup3\n        /* \"#utility.yul\":12161:12224   */\n      tag_259\n      jump\t// in\n    tag_262:\n        /* \"#utility.yul\":12069:12234   */\n      pop\n        /* \"#utility.yul\":12317:12321   */\n      0x20\n        /* \"#utility.yul\":12310:12315   */\n      dup3\n        /* \"#utility.yul\":12306:12322   */\n      add\n        /* \"#utility.yul\":12300:12323   */\n      mload\n        /* \"#utility.yul\":12336:12399   */\n      tag_263\n        /* \"#utility.yul\":12393:12397   */\n      0x20\n        /* \"#utility.yul\":12388:12391   */\n      dup6\n        /* \"#utility.yul\":12384:12398   */\n      add\n        /* \"#utility.yul\":12370:12382   */\n      dup3\n        /* \"#utility.yul\":12336:12399   */\n      tag_259\n      jump\t// in\n    tag_263:\n        /* \"#utility.yul\":12244:12409   */\n      pop\n        /* \"#utility.yul\":12490:12494   */\n      0x40\n        /* \"#utility.yul\":12483:12488   */\n      dup3\n        /* \"#utility.yul\":12479:12495   */\n      add\n        /* \"#utility.yul\":12473:12496   */\n      mload\n        /* \"#utility.yul\":12509:12570   */\n      tag_264\n        /* \"#utility.yul\":12564:12568   */\n      0x40\n        /* \"#utility.yul\":12559:12562   */\n      dup6\n        /* \"#utility.yul\":12555:12569   */\n      add\n        /* \"#utility.yul\":12541:12553   */\n      dup3\n        /* \"#utility.yul\":12509:12570   */\n      tag_265\n      jump\t// in\n    tag_264:\n        /* \"#utility.yul\":12419:12580   */\n      pop\n        /* \"#utility.yul\":12023:12587   */\n      pop\n      pop\n      pop\n      jump\t// out\n        /* \"#utility.yul\":12593:12698   */\n    tag_265:\n        /* \"#utility.yul\":12668:12691   */\n      tag_267\n        /* \"#utility.yul\":12685:12690   */\n      dup2\n        /* \"#utility.yul\":12668:12691   */\n      tag_268\n      jump\t// in\n    tag_267:\n        /* \"#utility.yul\":12663:12666   */\n      dup3\n        /* \"#utility.yul\":12656:12692   */\n      mstore\n        /* \"#utility.yul\":12646:12698   */\n      pop\n      pop\n      jump\t// out\n        /* \"#utility.yul\":12704:12819   */\n    tag_269:\n        /* \"#utility.yul\":12789:12812   */\n      tag_271\n        /* \"#utility.yul\":12806:12811   */\n      dup2\n        /* \"#utility.yul\":12789:12812   */\n      tag_268\n      jump\t// in\n    tag_271:\n        /* \"#utility.yul\":12784:12787   */\n      dup3\n        /* \"#utility.yul\":12777:12813   */\n      mstore\n        /* \"#utility.yul\":12767:12819   */\n      pop\n      pop\n      jump\t// out\n        /* \"#utility.yul\":12825:12933   */\n    tag_259:\n        /* \"#utility.yul\":12902:12926   */\n      tag_273\n        /* \"#utility.yul\":12920:12925   */\n      dup2\n        /* \"#utility.yul\":12902:12926   */\n      tag_274\n      jump\t// in\n    tag_273:\n        /* \"#utility.yul\":12897:12900   */\n      dup3\n        /* \"#utility.yul\":12890:12927   */\n      mstore\n        /* \"#utility.yul\":12880:12933   */\n      pop\n      pop\n      jump\t// out\n        /* \"#utility.yul\":12939:13057   */\n    tag_275:\n        /* \"#utility.yul\":13026:13050   */\n      tag_277\n        /* \"#utility.yul\":13044:13049   */\n      dup2\n        /* \"#utility.yul\":13026:13050   */\n      tag_274\n      jump\t// in\n    tag_277:\n        /* \"#utility.yul\":13021:13024   */\n      dup3\n        /* \"#utility.yul\":13014:13051   */\n      mstore\n        /* \"#utility.yul\":13004:13057   */\n      pop\n      pop\n      jump\t// out\n        /* \"#utility.yul\":13063:13189   */\n    tag_278:\n        /* \"#utility.yul\":13158:13182   */\n      tag_280\n        /* \"#utility.yul\":13176:13181   */\n      dup2\n        /* \"#utility.yul\":13158:13182   */\n      tag_274\n      jump\t// in\n    tag_280:\n        /* \"#utility.yul\":13153:13156   */\n      dup3\n        /* \"#utility.yul\":13146:13183   */\n      mstore\n        /* \"#utility.yul\":13136:13189   */\n      pop\n      pop\n      jump\t// out\n        /* \"#utility.yul\":13195:13669   */\n    tag_95:\n      0x00\n        /* \"#utility.yul\":13390:13392   */\n      0x60\n        /* \"#utility.yul\":13379:13388   */\n      dup3\n        /* \"#utility.yul\":13375:13393   */\n      add\n        /* \"#utility.yul\":13367:13393   */\n      swap1\n      pop\n        /* \"#utility.yul\":13403:13482   */\n      tag_282\n        /* \"#utility.yul\":13479:13480   */\n      0x00\n        /* \"#utility.yul\":13468:13477   */\n      dup4\n        /* \"#utility.yul\":13464:13481   */\n      add\n        /* \"#utility.yul\":13455:13461   */\n      dup7\n        /* \"#utility.yul\":13403:13482   */\n      tag_221\n      jump\t// in\n    tag_282:\n        /* \"#utility.yul\":13492:13572   */\n      tag_283\n        /* \"#utility.yul\":13568:13570   */\n      0x20\n        /* \"#utility.yul\":13557:13566   */\n      dup4\n        /* \"#utility.yul\":13553:13571   */\n      add\n        /* \"#utility.yul\":13544:13550   */\n      dup6\n        /* \"#utility.yul\":13492:13572   */\n      tag_221\n      jump\t// in\n    tag_283:\n        /* \"#utility.yul\":13582:13662   */\n      tag_284\n        /* \"#utility.yul\":13658:13660   */\n      0x40\n        /* \"#utility.yul\":13647:13656   */\n      dup4\n        /* \"#utility.yul\":13643:13661   */\n      add\n        /* \"#utility.yul\":13634:13640   */\n      dup5\n        /* \"#utility.yul\":13582:13662   */\n      tag_221\n      jump\t// in\n    tag_284:\n        /* \"#utility.yul\":13357:13669   */\n      swap5\n      swap4\n      pop\n      pop\n      pop\n      pop\n      jump\t// out\n        /* \"#utility.yul\":13675:14268   */\n    tag_66:\n      0x00\n        /* \"#utility.yul\":13898:13901   */\n      0x80\n        /* \"#utility.yul\":13887:13896   */\n      dup3\n        /* \"#utility.yul\":13883:13902   */\n      add\n        /* \"#utility.yul\":13875:13902   */\n      swap1\n      pop\n        /* \"#utility.yul\":13912:13991   */\n      tag_286\n        /* \"#utility.yul\":13988:13989   */\n      0x00\n        /* \"#utility.yul\":13977:13986   */\n      dup4\n        /* \"#utility.yul\":13973:13990   */\n      add\n        /* \"#utility.yul\":13964:13970   */\n      dup8\n        /* \"#utility.yul\":13912:13991   */\n      tag_221\n      jump\t// in\n    tag_286:\n        /* \"#utility.yul\":14001:14081   */\n      tag_287\n        /* \"#utility.yul\":14077:14079   */\n      0x20\n        /* \"#utility.yul\":14066:14075   */\n      dup4\n        /* \"#utility.yul\":14062:14080   */\n      add\n        /* \"#utility.yul\":14053:14059   */\n      dup7\n        /* \"#utility.yul\":14001:14081   */\n      tag_221\n      jump\t// in\n    tag_287:\n        /* \"#utility.yul\":14091:14171   */\n      tag_288\n        /* \"#utility.yul\":14167:14169   */\n      0x40\n        /* \"#utility.yul\":14156:14165   */\n      dup4\n        /* \"#utility.yul\":14152:14170   */\n      add\n        /* \"#utility.yul\":14143:14149   */\n      dup6\n        /* \"#utility.yul\":14091:14171   */\n      tag_221\n      jump\t// in\n    tag_288:\n        /* \"#utility.yul\":14181:14261   */\n      tag_289\n        /* \"#utility.yul\":14257:14259   */\n      0x60\n        /* \"#utility.yul\":14246:14255   */\n      dup4\n        /* \"#utility.yul\":14242:14260   */\n      add\n        /* \"#utility.yul\":14233:14239   */\n      dup5\n        /* \"#utility.yul\":14181:14261   */\n      tag_278\n      jump\t// in\n    tag_289:\n        /* \"#utility.yul\":13865:14268   */\n      swap6\n      swap5\n      pop\n      pop\n      pop\n      pop\n      pop\n      jump\t// out\n        /* \"#utility.yul\":14274:14986   */\n    tag_41:\n      0x00\n        /* \"#utility.yul\":14525:14528   */\n      0xa0\n        /* \"#utility.yul\":14514:14523   */\n      dup3\n        /* \"#utility.yul\":14510:14529   */\n      add\n        /* \"#utility.yul\":14502:14529   */\n      swap1\n      pop\n        /* \"#utility.yul\":14539:14618   */\n      tag_291\n        /* \"#utility.yul\":14615:14616   */\n      0x00\n        /* \"#utility.yul\":14604:14613   */\n      dup4\n        /* \"#utility.yul\":14600:14617   */\n      add\n        /* \"#utility.yul\":14591:14597   */\n      dup9\n        /* \"#utility.yul\":14539:14618   */\n      tag_221\n      jump\t// in\n    tag_291:\n        /* \"#utility.yul\":14628:14708   */\n      tag_292\n        /* \"#utility.yul\":14704:14706   */\n      0x20\n        /* \"#utility.yul\":14693:14702   */\n      dup4\n        /* \"#utility.yul\":14689:14707   */\n      add\n        /* \"#utility.yul\":14680:14686   */\n      dup8\n        /* \"#utility.yul\":14628:14708   */\n      tag_221\n      jump\t// in\n    tag_292:\n        /* \"#utility.yul\":14718:14798   */\n      tag_293\n        /* \"#utility.yul\":14794:14796   */\n      0x40\n        /* \"#utility.yul\":14783:14792   */\n      dup4\n        /* \"#utility.yul\":14779:14797   */\n      add\n        /* \"#utility.yul\":14770:14776   */\n      dup7\n        /* \"#utility.yul\":14718:14798   */\n      tag_221\n      jump\t// in\n    tag_293:\n        /* \"#utility.yul\":14808:14888   */\n      tag_294\n        /* \"#utility.yul\":14884:14886   */\n      0x60\n        /* \"#utility.yul\":14873:14882   */\n      dup4\n        /* \"#utility.yul\":14869:14887   */\n      add\n        /* \"#utility.yul\":14860:14866   */\n      dup6\n        /* \"#utility.yul\":14808:14888   */\n      tag_278\n      jump\t// in\n    tag_294:\n        /* \"#utility.yul\":14898:14979   */\n      tag_295\n        /* \"#utility.yul\":14974:14977   */\n      0x80\n        /* \"#utility.yul\":14963:14972   */\n      dup4\n        /* \"#utility.yul\":14959:14978   */\n      add\n        /* \"#utility.yul\":14950:14956   */\n      dup5\n        /* \"#utility.yul\":14898:14979   */\n      tag_278\n      jump\t// in\n    tag_295:\n        /* \"#utility.yul\":14492:14986   */\n      swap7\n      swap6\n      pop\n      pop\n      pop\n      pop\n      pop\n      pop\n      jump\t// out\n        /* \"#utility.yul\":14992:15473   */\n    tag_11:\n      0x00\n        /* \"#utility.yul\":15227:15229   */\n      0x20\n        /* \"#utility.yul\":15216:15225   */\n      dup3\n        /* \"#utility.yul\":15212:15230   */\n      add\n        /* \"#utility.yul\":15204:15230   */\n      swap1\n      pop\n        /* \"#utility.yul\":15276:15285   */\n      dup2\n        /* \"#utility.yul\":15270:15274   */\n      dup2\n        /* \"#utility.yul\":15266:15286   */\n      sub\n        /* \"#utility.yul\":15262:15263   */\n      0x00\n        /* \"#utility.yul\":15251:15260   */\n      dup4\n        /* \"#utility.yul\":15247:15264   */\n      add\n        /* \"#utility.yul\":15240:15287   */\n      mstore\n        /* \"#utility.yul\":15304:15466   */\n      tag_297\n        /* \"#utility.yul\":15461:15465   */\n      dup2\n        /* \"#utility.yul\":15452:15458   */\n      dup5\n        /* \"#utility.yul\":15304:15466   */\n      tag_225\n      jump\t// in\n    tag_297:\n        /* \"#utility.yul\":15296:15466   */\n      swap1\n      pop\n        /* \"#utility.yul\":15194:15473   */\n      swap3\n      swap2\n      pop\n      pop\n      jump\t// out\n        /* \"#utility.yul\":15479:15956   */\n    tag_23:\n      0x00\n        /* \"#utility.yul\":15712:15714   */\n      0x20\n        /* \"#utility.yul\":15701:15710   */\n      dup3\n        /* \"#utility.yul\":15697:15715   */\n      add\n        /* \"#utility.yul\":15689:15715   */\n      swap1\n      pop\n        /* \"#utility.yul\":15761:15770   */\n      dup2\n        /* \"#utility.yul\":15755:15759   */\n      dup2\n        /* \"#utility.yul\":15751:15771   */\n      sub\n        /* \"#utility.yul\":15747:15748   */\n      0x00\n        /* \"#utility.yul\":15736:15745   */\n      dup4\n        /* \"#utility.yul\":15732:15749   */\n      add\n        /* \"#utility.yul\":15725:15772   */\n      mstore\n        /* \"#utility.yul\":15789:15949   */\n      tag_299\n        /* \"#utility.yul\":15944:15948   */\n      dup2\n        /* \"#utility.yul\":15935:15941   */\n      dup5\n        /* \"#utility.yul\":15789:15949   */\n      tag_239\n      jump\t// in\n    tag_299:\n        /* \"#utility.yul\":15781:15949   */\n      swap1\n      pop\n        /* \"#utility.yul\":15679:15956   */\n      swap3\n      swap2\n      pop\n      pop\n      jump\t// out\n        /* \"#utility.yul\":15962:16290   */\n    tag_17:\n      0x00\n        /* \"#utility.yul\":16119:16121   */\n      0x40\n        /* \"#utility.yul\":16108:16117   */\n      dup3\n        /* \"#utility.yul\":16104:16122   */\n      add\n        /* \"#utility.yul\":16096:16122   */\n      swap1\n      pop\n        /* \"#utility.yul\":16132:16203   */\n      tag_301\n        /* \"#utility.yul\":16200:16201   */\n      0x00\n        /* \"#utility.yul\":16189:16198   */\n      dup4\n        /* \"#utility.yul\":16185:16202   */\n      add\n        /* \"#utility.yul\":16176:16182   */\n      dup6\n        /* \"#utility.yul\":16132:16203   */\n      tag_275\n      jump\t// in\n    tag_301:\n        /* \"#utility.yul\":16213:16283   */\n      tag_302\n        /* \"#utility.yul\":16279:16281   */\n      0x20\n        /* \"#utility.yul\":16268:16277   */\n      dup4\n        /* \"#utility.yul\":16264:16282   */\n      add\n        /* \"#utility.yul\":16255:16261   */\n      dup5\n        /* \"#utility.yul\":16213:16283   */\n      tag_269\n      jump\t// in\n    tag_302:\n        /* \"#utility.yul\":16086:16290   */\n      swap4\n      swap3\n      pop\n      pop\n      pop\n      jump\t// out\n        /* \"#utility.yul\":16296:16574   */\n    tag_121:\n      0x00\n        /* \"#utility.yul\":16362:16364   */\n      0x40\n        /* \"#utility.yul\":16356:16365   */\n      mload\n        /* \"#utility.yul\":16346:16365   */\n      swap1\n      pop\n        /* \"#utility.yul\":16404:16408   */\n      dup2\n        /* \"#utility.yul\":16396:16402   */\n      dup2\n        /* \"#utility.yul\":16392:16409   */\n      add\n        /* \"#utility.yul\":16511:16517   */\n      dup2\n        /* \"#utility.yul\":16499:16509   */\n      dup2\n        /* \"#utility.yul\":16496:16518   */\n      lt\n        /* \"#utility.yul\":16475:16493   */\n      0xffffffffffffffff\n        /* \"#utility.yul\":16463:16473   */\n      dup3\n        /* \"#utility.yul\":16460:16494   */\n      gt\n        /* \"#utility.yul\":16457:16519   */\n      or\n        /* \"#utility.yul\":16454:16456   */\n      iszero\n      tag_304\n      jumpi\n        /* \"#utility.yul\":16522:16535   */\n      tag_305\n      tag_306\n      jump\t// in\n    tag_305:\n        /* \"#utility.yul\":16454:16456   */\n    tag_304:\n        /* \"#utility.yul\":16557:16567   */\n      dup1\n        /* \"#utility.yul\":16553:16555   */\n      0x40\n        /* \"#utility.yul\":16546:16568   */\n      mstore\n        /* \"#utility.yul\":16336:16574   */\n      pop\n      swap2\n      swap1\n      pop\n      jump\t// out\n        /* \"#utility.yul\":16580:16912   */\n    tag_120:\n      0x00\n        /* \"#utility.yul\":16773:16791   */\n      0xffffffffffffffff\n        /* \"#utility.yul\":16765:16771   */\n      dup3\n        /* \"#utility.yul\":16762:16792   */\n      gt\n        /* \"#utility.yul\":16759:16761   */\n      iszero\n      tag_308\n      jumpi\n        /* \"#utility.yul\":16795:16808   */\n      tag_309\n      tag_306\n      jump\t// in\n    tag_309:\n        /* \"#utility.yul\":16759:16761   */\n    tag_308:\n        /* \"#utility.yul\":16840:16844   */\n      0x20\n        /* \"#utility.yul\":16832:16838   */\n      dup3\n        /* \"#utility.yul\":16828:16845   */\n      mul\n        /* \"#utility.yul\":16820:16845   */\n      swap1\n      pop\n        /* \"#utility.yul\":16900:16904   */\n      0x20\n        /* \"#utility.yul\":16894:16898   */\n      dup2\n        /* \"#utility.yul\":16890:16905   */\n      add\n        /* \"#utility.yul\":16882:16905   */\n      swap1\n      pop\n        /* \"#utility.yul\":16688:16912   */\n      swap2\n      swap1\n      pop\n      jump\t// out\n        /* \"#utility.yul\":16918:17249   */\n    tag_132:\n      0x00\n        /* \"#utility.yul\":17110:17128   */\n      0xffffffffffffffff\n        /* \"#utility.yul\":17102:17108   */\n      dup3\n        /* \"#utility.yul\":17099:17129   */\n      gt\n        /* \"#utility.yul\":17096:17098   */\n      iszero\n      tag_311\n      jumpi\n        /* \"#utility.yul\":17132:17145   */\n      tag_312\n      tag_306\n      jump\t// in\n    tag_312:\n        /* \"#utility.yul\":17096:17098   */\n    tag_311:\n        /* \"#utility.yul\":17177:17181   */\n      0x20\n        /* \"#utility.yul\":17169:17175   */\n      dup3\n        /* \"#utility.yul\":17165:17182   */\n      mul\n        /* \"#utility.yul\":17157:17182   */\n      swap1\n      pop\n        /* \"#utility.yul\":17237:17241   */\n      0x20\n        /* \"#utility.yul\":17231:17235   */\n      dup2\n        /* \"#utility.yul\":17227:17242   */\n      add\n        /* \"#utility.yul\":17219:17242   */\n      swap1\n      pop\n        /* \"#utility.yul\":17025:17249   */\n      swap2\n      swap1\n      pop\n      jump\t// out\n        /* \"#utility.yul\":17255:17414   */\n    tag_232:\n      0x00\n        /* \"#utility.yul\":17372:17375   */\n      dup2\n        /* \"#utility.yul\":17364:17375   */\n      swap1\n      pop\n        /* \"#utility.yul\":17402:17406   */\n      0x20\n        /* \"#utility.yul\":17397:17400   */\n      dup3\n        /* \"#utility.yul\":17393:17407   */\n      add\n        /* \"#utility.yul\":17385:17407   */\n      swap1\n      pop\n        /* \"#utility.yul\":17354:17414   */\n      swap2\n      swap1\n      pop\n      jump\t// out\n        /* \"#utility.yul\":17420:17578   */\n    tag_246:\n      0x00\n        /* \"#utility.yul\":17536:17539   */\n      dup2\n        /* \"#utility.yul\":17528:17539   */\n      swap1\n      pop\n        /* \"#utility.yul\":17566:17570   */\n      0x20\n        /* \"#utility.yul\":17561:17564   */\n      dup3\n        /* \"#utility.yul\":17557:17571   */\n      add\n        /* \"#utility.yul\":17549:17571   */\n      swap1\n      pop\n        /* \"#utility.yul\":17518:17578   */\n      swap2\n      swap1\n      pop\n      jump\t// out\n        /* \"#utility.yul\":17584:17725   */\n    tag_228:\n      0x00\n        /* \"#utility.yul\":17712:17717   */\n      dup2\n        /* \"#utility.yul\":17706:17718   */\n      mload\n        /* \"#utility.yul\":17696:17718   */\n      swap1\n      pop\n        /* \"#utility.yul\":17685:17725   */\n      swap2\n      swap1\n      pop\n      jump\t// out\n        /* \"#utility.yul\":17731:17871   */\n    tag_242:\n      0x00\n        /* \"#utility.yul\":17858:17863   */\n      dup2\n        /* \"#utility.yul\":17852:17864   */\n      mload\n        /* \"#utility.yul\":17842:17864   */\n      swap1\n      pop\n        /* \"#utility.yul\":17831:17871   */\n      swap2\n      swap1\n      pop\n      jump\t// out\n        /* \"#utility.yul\":17877:18017   */\n    tag_238:\n      0x00\n        /* \"#utility.yul\":18006:18010   */\n      0x20\n        /* \"#utility.yul\":18001:18004   */\n      dup3\n        /* \"#utility.yul\":17997:18011   */\n      add\n        /* \"#utility.yul\":17989:18011   */\n      swap1\n      pop\n        /* \"#utility.yul\":17979:18017   */\n      swap2\n      swap1\n      pop\n      jump\t// out\n        /* \"#utility.yul\":18023:18162   */\n    tag_252:\n      0x00\n        /* \"#utility.yul\":18151:18155   */\n      0x20\n        /* \"#utility.yul\":18146:18149   */\n      dup3\n        /* \"#utility.yul\":18142:18156   */\n      add\n        /* \"#utility.yul\":18134:18156   */\n      swap1\n      pop\n        /* \"#utility.yul\":18124:18162   */\n      swap2\n      swap1\n      pop\n      jump\t// out\n        /* \"#utility.yul\":18168:18379   */\n    tag_230:\n      0x00\n        /* \"#utility.yul\":18328:18334   */\n      dup3\n        /* \"#utility.yul\":18323:18326   */\n      dup3\n        /* \"#utility.yul\":18316:18335   */\n      mstore\n        /* \"#utility.yul\":18368:18372   */\n      0x20\n        /* \"#utility.yul\":18363:18366   */\n      dup3\n        /* \"#utility.yul\":18359:18373   */\n      add\n        /* \"#utility.yul\":18344:18373   */\n      swap1\n      pop\n        /* \"#utility.yul\":18306:18379   */\n      swap3\n      swap2\n      pop\n      pop\n      jump\t// out\n        /* \"#utility.yul\":18385:18595   */\n    tag_244:\n      0x00\n        /* \"#utility.yul\":18544:18550   */\n      dup3\n        /* \"#utility.yul\":18539:18542   */\n      dup3\n        /* \"#utility.yul\":18532:18551   */\n      mstore\n        /* \"#utility.yul\":18584:18588   */\n      0x20\n        /* \"#utility.yul\":18579:18582   */\n      dup3\n        /* \"#utility.yul\":18575:18589   */\n      add\n        /* \"#utility.yul\":18560:18589   */\n      swap1\n      pop\n        /* \"#utility.yul\":18522:18595   */\n      swap3\n      swap2\n      pop\n      pop\n      jump\t// out\n        /* \"#utility.yul\":18601:18697   */\n    tag_224:\n      0x00\n        /* \"#utility.yul\":18667:18691   */\n      tag_322\n        /* \"#utility.yul\":18685:18690   */\n      dup3\n        /* \"#utility.yul\":18667:18691   */\n      tag_323\n      jump\t// in\n    tag_322:\n        /* \"#utility.yul\":18656:18691   */\n      swap1\n      pop\n        /* \"#utility.yul\":18646:18697   */\n      swap2\n      swap1\n      pop\n      jump\t// out\n        /* \"#utility.yul\":18703:18793   */\n    tag_256:\n      0x00\n        /* \"#utility.yul\":18780:18785   */\n      dup2\n        /* \"#utility.yul\":18773:18786   */\n      iszero\n        /* \"#utility.yul\":18766:18787   */\n      iszero\n        /* \"#utility.yul\":18755:18787   */\n      swap1\n      pop\n        /* \"#utility.yul\":18745:18793   */\n      swap2\n      swap1\n      pop\n      jump\t// out\n        /* \"#utility.yul\":18799:18925   */\n    tag_323:\n      0x00\n        /* \"#utility.yul\":18876:18918   */\n      0xffffffffffffffffffffffffffffffffffffffff\n        /* \"#utility.yul\":18869:18874   */\n      dup3\n        /* \"#utility.yul\":18865:18919   */\n      and\n        /* \"#utility.yul\":18854:18919   */\n      swap1\n      pop\n        /* \"#utility.yul\":18844:18925   */\n      swap2\n      swap1\n      pop\n      jump\t// out\n        /* \"#utility.yul\":18931:19022   */\n    tag_268:\n      0x00\n        /* \"#utility.yul\":19007:19015   */\n      0xffffff\n        /* \"#utility.yul\":19000:19005   */\n      dup3\n        /* \"#utility.yul\":18996:19016   */\n      and\n        /* \"#utility.yul\":18985:19016   */\n      swap1\n      pop\n        /* \"#utility.yul\":18975:19022   */\n      swap2\n      swap1\n      pop\n      jump\t// out\n        /* \"#utility.yul\":19028:19105   */\n    tag_274:\n      0x00\n        /* \"#utility.yul\":19094:19099   */\n      dup2\n        /* \"#utility.yul\":19083:19099   */\n      swap1\n      pop\n        /* \"#utility.yul\":19073:19105   */\n      swap2\n      swap1\n      pop\n      jump\t// out\n        /* \"#utility.yul\":19111:19197   */\n    tag_328:\n      0x00\n        /* \"#utility.yul\":19186:19190   */\n      0xff\n        /* \"#utility.yul\":19179:19184   */\n      dup3\n        /* \"#utility.yul\":19175:19191   */\n      and\n        /* \"#utility.yul\":19164:19191   */\n      swap1\n      pop\n        /* \"#utility.yul\":19154:19197   */\n      swap2\n      swap1\n      pop\n      jump\t// out\n        /* \"#utility.yul\":19203:19251   */\n    tag_306:\n        /* \"#utility.yul\":19236:19245   */\n      invalid\n        /* \"#utility.yul\":19257:19379   */\n    tag_142:\n        /* \"#utility.yul\":19330:19354   */\n      tag_332\n        /* \"#utility.yul\":19348:19353   */\n      dup2\n        /* \"#utility.yul\":19330:19354   */\n      tag_224\n      jump\t// in\n    tag_332:\n        /* \"#utility.yul\":19323:19328   */\n      dup2\n        /* \"#utility.yul\":19320:19355   */\n      eq\n        /* \"#utility.yul\":19310:19312   */\n      tag_333\n      jumpi\n        /* \"#utility.yul\":19369:19370   */\n      0x00\n        /* \"#utility.yul\":19366:19367   */\n      dup1\n        /* \"#utility.yul\":19359:19371   */\n      revert\n        /* \"#utility.yul\":19310:19312   */\n    tag_333:\n        /* \"#utility.yul\":19300:19379   */\n      pop\n      jump\t// out\n        /* \"#utility.yul\":19385:19501   */\n    tag_154:\n        /* \"#utility.yul\":19455:19476   */\n      tag_335\n        /* \"#utility.yul\":19470:19475   */\n      dup2\n        /* \"#utility.yul\":19455:19476   */\n      tag_256\n      jump\t// in\n    tag_335:\n        /* \"#utility.yul\":19448:19453   */\n      dup2\n        /* \"#utility.yul\":19445:19477   */\n      eq\n        /* \"#utility.yul\":19435:19437   */\n      tag_336\n      jumpi\n        /* \"#utility.yul\":19491:19492   */\n      0x00\n        /* \"#utility.yul\":19488:19489   */\n      dup1\n        /* \"#utility.yul\":19481:19493   */\n      revert\n        /* \"#utility.yul\":19435:19437   */\n    tag_336:\n        /* \"#utility.yul\":19425:19501   */\n      pop\n      jump\t// out\n        /* \"#utility.yul\":19507:19627   */\n    tag_178:\n        /* \"#utility.yul\":19579:19602   */\n      tag_338\n        /* \"#utility.yul\":19596:19601   */\n      dup2\n        /* \"#utility.yul\":19579:19602   */\n      tag_268\n      jump\t// in\n    tag_338:\n        /* \"#utility.yul\":19572:19577   */\n      dup2\n        /* \"#utility.yul\":19569:19603   */\n      eq\n        /* \"#utility.yul\":19559:19561   */\n      tag_339\n      jumpi\n        /* \"#utility.yul\":19617:19618   */\n      0x00\n        /* \"#utility.yul\":19614:19615   */\n      dup1\n        /* \"#utility.yul\":19607:19619   */\n      revert\n        /* \"#utility.yul\":19559:19561   */\n    tag_339:\n        /* \"#utility.yul\":19549:19627   */\n      pop\n      jump\t// out\n        /* \"#utility.yul\":19633:19755   */\n    tag_181:\n        /* \"#utility.yul\":19706:19730   */\n      tag_341\n        /* \"#utility.yul\":19724:19729   */\n      dup2\n        /* \"#utility.yul\":19706:19730   */\n      tag_274\n      jump\t// in\n    tag_341:\n        /* \"#utility.yul\":19699:19704   */\n      dup2\n        /* \"#utility.yul\":19696:19731   */\n      eq\n        /* \"#utility.yul\":19686:19688   */\n      tag_342\n      jumpi\n        /* \"#utility.yul\":19745:19746   */\n      0x00\n        /* \"#utility.yul\":19742:19743   */\n      dup1\n        /* \"#utility.yul\":19735:19747   */\n      revert\n        /* \"#utility.yul\":19686:19688   */\n    tag_342:\n        /* \"#utility.yul\":19676:19755   */\n      pop\n      jump\t// out\n        /* \"#utility.yul\":19761:19879   */\n    tag_187:\n        /* \"#utility.yul\":19832:19854   */\n      tag_344\n        /* \"#utility.yul\":19848:19853   */\n      dup2\n        /* \"#utility.yul\":19832:19854   */\n      tag_328\n      jump\t// in\n    tag_344:\n        /* \"#utility.yul\":19825:19830   */\n      dup2\n        /* \"#utility.yul\":19822:19855   */\n      eq\n        /* \"#utility.yul\":19812:19814   */\n      tag_345\n      jumpi\n        /* \"#utility.yul\":19869:19870   */\n      0x00\n        /* \"#utility.yul\":19866:19867   */\n      dup1\n        /* \"#utility.yul\":19859:19871   */\n      revert\n        /* \"#utility.yul\":19812:19814   */\n    tag_345:\n        /* \"#utility.yul\":19802:19879   */\n      pop\n      jump\t// out\n\n    auxdata: 0xa2646970667358221220b697b82bf4f48b81c4a1c2c7b49ef1593742707bdef23c9a4b7197b284d5ae4464736f6c63430007060033\n}\n",
				"bytecode": {
					"linkReferences": {
						"contracts/libraries/UniswapV2.sol": {
							"UniswapV2": [
								{
									"length": 20,
									"start": 387
								},
								{
									"length": 20,
									"start": 1124
								},
								{
									"length": 20,
									"start": 1586
								}
							]
						},
						"contracts/libraries/UniswapV3.sol": {
							"UniswapV3": [
								{
									"length": 20,
									"start": 755
								},
								{
									"length": 20,
									"start": 1288
								},
								{
									"length": 20,
									"start": 1919
								}
							]
						}
					},
					"object": "608060405234801561001057600080fd5b50611250806100206000396000f3fe608060405234801561001057600080fd5b50600436106100415760003560e01c80633d157a46146100465780636110358d14610076578063ea8650c5146100a7575b600080fd5b610060600480360381019061005b9190610c34565b6100d7565b60405161006d9190610fd9565b60405180910390f35b610090600480360381019061008b9190610bbd565b610433565b60405161009e92919061101d565b60405180910390f35b6100c160048036038101906100bc9190610c75565b610586565b6040516100ce9190610ffb565b60405180910390f35b60606000825167ffffffffffffffff811180156100f357600080fd5b5060405190808252806020026020018201604052801561012d57816020015b61011a610899565b8152602001906001900390816101125790505b50905060005b835181101561042957600284828151811061014a57fe5b60200260200101516080015160ff1614156102ac57600073__$66db80e837caed232b747c0dfa8ba195e8$__63bcbcaa2986848151811061018757fe5b60200260200101516060015187858151811061019f57fe5b6020026020010151602001518886815181106101b757fe5b6020026020010151604001518987815181106101cf57fe5b602002602001015160a001518a88815181106101e757fe5b602002602001015160c001516040518663ffffffff1660e01b8152600401610213959493929190610f86565b60206040518083038186803b15801561022b57600080fd5b505af415801561023f573d6000803e3d6000fd5b505050506040513d601f19601f820116820180604052508101906102639190610cb6565b9050604051806040016040528086848151811061027c57fe5b602002602001015160000151815260200182151581525083838151811061029f57fe5b6020026020010181905250505b60038482815181106102ba57fe5b60200260200101516080015160ff16141561041c57600073__$295ab41254e875e078eae9a73e9e2c34b1$__63bcbcaa298684815181106102f757fe5b60200260200101516060015187858151811061030f57fe5b60200260200101516020015188868151811061032757fe5b60200260200101516040015189878151811061033f57fe5b602002602001015160a001518a888151811061035757fe5b602002602001015160c001516040518663ffffffff1660e01b8152600401610383959493929190610f86565b60206040518083038186803b15801561039b57600080fd5b505af41580156103af573d6000803e3d6000fd5b505050506040513d601f19601f820116820180604052508101906103d39190610cb6565b905060405180604001604052808684815181106103ec57fe5b602002602001015160000151815260200182151581525083838151811061040f57fe5b6020026020010181905250505b8080600101915050610133565b5080915050919050565b60008060028360ff1614156104da5773__$66db80e837caed232b747c0dfa8ba195e8$__638c39560e888888886040518563ffffffff1660e01b815260040161047f9493929190610f41565b60206040518083038186803b15801561049757600080fd5b505af41580156104ab573d6000803e3d6000fd5b505050506040513d601f19601f820116820180604052508101906104cf9190610cdf565b60009150915061057c565b60038360ff16141561057b5773__$295ab41254e875e078eae9a73e9e2c34b1$__638c39560e888888886040518563ffffffff1660e01b81526004016105239493929190610f41565b604080518083038186803b15801561053a57600080fd5b505af415801561054e573d6000803e3d6000fd5b505050506040513d601f19601f820116820180604052508101906105729190610d08565b9150915061057c565b5b9550959350505050565b60606000825167ffffffffffffffff811180156105a257600080fd5b506040519080825280602002602001820160405280156105dc57816020015b6105c96108b5565b8152602001906001900390816105c15790505b50905060005b835181101561088f5760028482815181106105f957fe5b60200260200101516080015160ff16141561073757600073__$66db80e837caed232b747c0dfa8ba195e8$__63c361e0b186848151811061063657fe5b60200260200101516060015187858151811061064e57fe5b60200260200101516020015188868151811061066657fe5b6020026020010151604001516040518463ffffffff1660e01b815260040161069093929190610f0a565b60206040518083038186803b1580156106a857600080fd5b505af41580156106bc573d6000803e3d6000fd5b505050506040513d601f19601f820116820180604052508101906106e09190610cdf565b905060405180606001604052808684815181106106f957fe5b6020026020010151600001518152602001828152602001600062ffffff1681525083838151811061072657fe5b602002602001018190525050610882565b600384828151811061074557fe5b60200260200101516080015160ff1614156108815760008073__$295ab41254e875e078eae9a73e9e2c34b1$__63c361e0b187858151811061078357fe5b60200260200101516060015188868151811061079b57fe5b6020026020010151602001518987815181106107b357fe5b6020026020010151604001516040518463ffffffff1660e01b81526004016107dd93929190610f0a565b604080518083038186803b1580156107f457600080fd5b505af4158015610808573d6000803e3d6000fd5b505050506040513d601f19601f8201168201806040525081019061082c9190610d08565b91509150604051806060016040528087858151811061084757fe5b60200260200101516000015181526020018381526020018262ffffff1681525084848151811061087357fe5b602002602001018190525050505b5b80806001019150506105e2565b5080915050919050565b6040518060400160405280600081526020016000151581525090565b60405180606001604052806000815260200160008152602001600062ffffff1681525090565b60006108ee6108e984611077565b611046565b905080838252602082019050828560e086028201111561090d57600080fd5b60005b8581101561093d57816109238882610a31565b845260208401935060e08301925050600181019050610910565b5050509392505050565b600061095a610955846110a3565b611046565b905080838252602082019050828560a086028201111561097957600080fd5b60005b858110156109a9578161098f8882610ae1565b845260208401935060a0830192505060018101905061097c565b5050509392505050565b6000813590506109c2816111a7565b92915050565b600082601f8301126109d957600080fd5b81356109e98482602086016108db565b91505092915050565b600082601f830112610a0357600080fd5b8135610a13848260208601610947565b91505092915050565b600081519050610a2b816111be565b92915050565b600060e08284031215610a4357600080fd5b610a4d60e0611046565b90506000610a5d84828501610b7e565b6000830152506020610a71848285016109b3565b6020830152506040610a85848285016109b3565b6040830152506060610a99848285016109b3565b6060830152506080610aad84828501610ba8565b60808301525060a0610ac184828501610b7e565b60a08301525060c0610ad584828501610b7e565b60c08301525092915050565b600060a08284031215610af357600080fd5b610afd60a0611046565b90506000610b0d84828501610b7e565b6000830152506020610b21848285016109b3565b6020830152506040610b35848285016109b3565b6040830152506060610b49848285016109b3565b6060830152506080610b5d84828501610ba8565b60808301525092915050565b600081519050610b78816111d5565b92915050565b600081359050610b8d816111ec565b92915050565b600081519050610ba2816111ec565b92915050565b600081359050610bb781611203565b92915050565b600080600080600060a08688031215610bd557600080fd5b6000610be3888289016109b3565b9550506020610bf4888289016109b3565b9450506040610c05888289016109b3565b9350506060610c1688828901610b7e565b9250506080610c2788828901610ba8565b9150509295509295909350565b600060208284031215610c4657600080fd5b600082013567ffffffffffffffff811115610c6057600080fd5b610c6c848285016109c8565b91505092915050565b600060208284031215610c8757600080fd5b600082013567ffffffffffffffff811115610ca157600080fd5b610cad848285016109f2565b91505092915050565b600060208284031215610cc857600080fd5b6000610cd684828501610a1c565b91505092915050565b600060208284031215610cf157600080fd5b6000610cff84828501610b93565b91505092915050565b60008060408385031215610d1b57600080fd5b6000610d2985828601610b93565b9250506020610d3a85828601610b69565b9150509250929050565b6000610d508383610e4e565b60408301905092915050565b6000610d688383610e7d565b60608301905092915050565b610d7d81611141565b82525050565b6000610d8e826110ef565b610d98818561111f565b9350610da3836110cf565b8060005b83811015610dd4578151610dbb8882610d44565b9750610dc683611105565b925050600181019050610da7565b5085935050505092915050565b6000610dec826110fa565b610df68185611130565b9350610e01836110df565b8060005b83811015610e32578151610e198882610d5c565b9750610e2483611112565b925050600181019050610e05565b5085935050505092915050565b610e4881611153565b82525050565b604082016000820151610e646000850182610edd565b506020820151610e776020850182610e3f565b50505050565b606082016000820151610e936000850182610edd565b506020820151610ea66020850182610edd565b506040820151610eb96040850182610ebf565b50505050565b610ec88161117f565b82525050565b610ed78161117f565b82525050565b610ee68161118e565b82525050565b610ef58161118e565b82525050565b610f048161118e565b82525050565b6000606082019050610f1f6000830186610d74565b610f2c6020830185610d74565b610f396040830184610d74565b949350505050565b6000608082019050610f566000830187610d74565b610f636020830186610d74565b610f706040830185610d74565b610f7d6060830184610efb565b95945050505050565b600060a082019050610f9b6000830188610d74565b610fa86020830187610d74565b610fb56040830186610d74565b610fc26060830185610efb565b610fcf6080830184610efb565b9695505050505050565b60006020820190508181036000830152610ff38184610d83565b905092915050565b600060208201905081810360008301526110158184610de1565b905092915050565b60006040820190506110326000830185610eec565b61103f6020830184610ece565b9392505050565b6000604051905081810181811067ffffffffffffffff8211171561106d5761106c6111a5565b5b8060405250919050565b600067ffffffffffffffff821115611092576110916111a5565b5b602082029050602081019050919050565b600067ffffffffffffffff8211156110be576110bd6111a5565b5b602082029050602081019050919050565b6000819050602082019050919050565b6000819050602082019050919050565b600081519050919050565b600081519050919050565b6000602082019050919050565b6000602082019050919050565b600082825260208201905092915050565b600082825260208201905092915050565b600061114c8261115f565b9050919050565b60008115159050919050565b600073ffffffffffffffffffffffffffffffffffffffff82169050919050565b600062ffffff82169050919050565b6000819050919050565b600060ff82169050919050565bfe5b6111b081611141565b81146111bb57600080fd5b50565b6111c781611153565b81146111d257600080fd5b50565b6111de8161117f565b81146111e957600080fd5b50565b6111f58161118e565b811461120057600080fd5b50565b61120c81611198565b811461121757600080fd5b5056fea2646970667358221220b697b82bf4f48b81c4a1c2c7b49ef1593742707bdef23c9a4b7197b284d5ae4464736f6c63430007060033",
					"opcodes": "PUSH1 0x80 PUSH1 0x40 MSTORE CALLVALUE DUP1 ISZERO PUSH2 0x10 JUMPI PUSH1 0x0 DUP1 REVERT JUMPDEST POP PUSH2 0x1250 DUP1 PUSH2 0x20 PUSH1 0x0 CODECOPY PUSH1 0x0 RETURN INVALID PUSH1 0x80 PUSH1 0x40 MSTORE CALLVALUE DUP1 ISZERO PUSH2 0x10 JUMPI PUSH1 0x0 DUP1 REVERT JUMPDEST POP PUSH1 0x4 CALLDATASIZE LT PUSH2 0x41 JUMPI PUSH1 0x0 CALLDATALOAD PUSH1 0xE0 SHR DUP1 PUSH4 0x3D157A46 EQ PUSH2 0x46 JUMPI DUP1 PUSH4 0x6110358D EQ PUSH2 0x76 JUMPI DUP1 PUSH4 0xEA8650C5 EQ PUSH2 0xA7 JUMPI JUMPDEST PUSH1 0x0 DUP1 REVERT JUMPDEST PUSH2 0x60 PUSH1 0x4 DUP1 CALLDATASIZE SUB DUP2 ADD SWAP1 PUSH2 0x5B SWAP2 SWAP1 PUSH2 0xC34 JUMP JUMPDEST PUSH2 0xD7 JUMP JUMPDEST PUSH1 0x40 MLOAD PUSH2 0x6D SWAP2 SWAP1 PUSH2 0xFD9 JUMP JUMPDEST PUSH1 0x40 MLOAD DUP1 SWAP2 SUB SWAP1 RETURN JUMPDEST PUSH2 0x90 PUSH1 0x4 DUP1 CALLDATASIZE SUB DUP2 ADD SWAP1 PUSH2 0x8B SWAP2 SWAP1 PUSH2 0xBBD JUMP JUMPDEST PUSH2 0x433 JUMP JUMPDEST PUSH1 0x40 MLOAD PUSH2 0x9E SWAP3 SWAP2 SWAP1 PUSH2 0x101D JUMP JUMPDEST PUSH1 0x40 MLOAD DUP1 SWAP2 SUB SWAP1 RETURN JUMPDEST PUSH2 0xC1 PUSH1 0x4 DUP1 CALLDATASIZE SUB DUP2 ADD SWAP1 PUSH2 0xBC SWAP2 SWAP1 PUSH2 0xC75 JUMP JUMPDEST PUSH2 0x586 JUMP JUMPDEST PUSH1 0x40 MLOAD PUSH2 0xCE SWAP2 SWAP1 PUSH2 0xFFB JUMP JUMPDEST PUSH1 0x40 MLOAD DUP1 SWAP2 SUB SWAP1 RETURN JUMPDEST PUSH1 0x60 PUSH1 0x0 DUP3 MLOAD PUSH8 0xFFFFFFFFFFFFFFFF DUP2 GT DUP1 ISZERO PUSH2 0xF3 JUMPI PUSH1 0x0 DUP1 REVERT JUMPDEST POP PUSH1 0x40 MLOAD SWAP1 DUP1 DUP3 MSTORE DUP1 PUSH1 0x20 MUL PUSH1 0x20 ADD DUP3 ADD PUSH1 0x40 MSTORE DUP1 ISZERO PUSH2 0x12D JUMPI DUP2 PUSH1 0x20 ADD JUMPDEST PUSH2 0x11A PUSH2 0x899 JUMP JUMPDEST DUP2 MSTORE PUSH1 0x20 ADD SWAP1 PUSH1 0x1 SWAP1 SUB SWAP1 DUP2 PUSH2 0x112 JUMPI SWAP1 POP JUMPDEST POP SWAP1 POP PUSH1 0x0 JUMPDEST DUP4 MLOAD DUP2 LT ISZERO PUSH2 0x429 JUMPI PUSH1 0x2 DUP5 DUP3 DUP2 MLOAD DUP2 LT PUSH2 0x14A JUMPI INVALID JUMPDEST PUSH1 0x20 MUL PUSH1 0x20 ADD ADD MLOAD PUSH1 0x80 ADD MLOAD PUSH1 0xFF AND EQ ISZERO PUSH2 0x2AC JUMPI PUSH1 0x0 PUSH20 0x0 PUSH4 0xBCBCAA29 DUP7 DUP5 DUP2 MLOAD DUP2 LT PUSH2 0x187 JUMPI INVALID JUMPDEST PUSH1 0x20 MUL PUSH1 0x20 ADD ADD MLOAD PUSH1 0x60 ADD MLOAD DUP8 DUP6 DUP2 MLOAD DUP2 LT PUSH2 0x19F JUMPI INVALID JUMPDEST PUSH1 0x20 MUL PUSH1 0x20 ADD ADD MLOAD PUSH1 0x20 ADD MLOAD DUP9 DUP7 DUP2 MLOAD DUP2 LT PUSH2 0x1B7 JUMPI INVALID JUMPDEST PUSH1 0x20 MUL PUSH1 0x20 ADD ADD MLOAD PUSH1 0x40 ADD MLOAD DUP10 DUP8 DUP2 MLOAD DUP2 LT PUSH2 0x1CF JUMPI INVALID JUMPDEST PUSH1 0x20 MUL PUSH1 0x20 ADD ADD MLOAD PUSH1 0xA0 ADD MLOAD DUP11 DUP9 DUP2 MLOAD DUP2 LT PUSH2 0x1E7 JUMPI INVALID JUMPDEST PUSH1 0x20 MUL PUSH1 0x20 ADD ADD MLOAD PUSH1 0xC0 ADD MLOAD PUSH1 0x40 MLOAD DUP7 PUSH4 0xFFFFFFFF AND PUSH1 0xE0 SHL DUP2 MSTORE PUSH1 0x4 ADD PUSH2 0x213 SWAP6 SWAP5 SWAP4 SWAP3 SWAP2 SWAP1 PUSH2 0xF86 JUMP JUMPDEST PUSH1 0x20 PUSH1 0x40 MLOAD DUP1 DUP4 SUB DUP2 DUP7 DUP1 EXTCODESIZE ISZERO DUP1 ISZERO PUSH2 0x22B JUMPI PUSH1 0x0 DUP1 REVERT JUMPDEST POP GAS DELEGATECALL ISZERO DUP1 ISZERO PUSH2 0x23F JUMPI RETURNDATASIZE PUSH1 0x0 DUP1 RETURNDATACOPY RETURNDATASIZE PUSH1 0x0 REVERT JUMPDEST POP POP POP POP PUSH1 0x40 MLOAD RETURNDATASIZE PUSH1 0x1F NOT PUSH1 0x1F DUP3 ADD AND DUP3 ADD DUP1 PUSH1 0x40 MSTORE POP DUP2 ADD SWAP1 PUSH2 0x263 SWAP2 SWAP1 PUSH2 0xCB6 JUMP JUMPDEST SWAP1 POP PUSH1 0x40 MLOAD DUP1 PUSH1 0x40 ADD PUSH1 0x40 MSTORE DUP1 DUP7 DUP5 DUP2 MLOAD DUP2 LT PUSH2 0x27C JUMPI INVALID JUMPDEST PUSH1 0x20 MUL PUSH1 0x20 ADD ADD MLOAD PUSH1 0x0 ADD MLOAD DUP2 MSTORE PUSH1 0x20 ADD DUP3 ISZERO ISZERO DUP2 MSTORE POP DUP4 DUP4 DUP2 MLOAD DUP2 LT PUSH2 0x29F JUMPI INVALID JUMPDEST PUSH1 0x20 MUL PUSH1 0x20 ADD ADD DUP2 SWAP1 MSTORE POP POP JUMPDEST PUSH1 0x3 DUP5 DUP3 DUP2 MLOAD DUP2 LT PUSH2 0x2BA JUMPI INVALID JUMPDEST PUSH1 0x20 MUL PUSH1 0x20 ADD ADD MLOAD PUSH1 0x80 ADD MLOAD PUSH1 0xFF AND EQ ISZERO PUSH2 0x41C JUMPI PUSH1 0x0 PUSH20 0x0 PUSH4 0xBCBCAA29 DUP7 DUP5 DUP2 MLOAD DUP2 LT PUSH2 0x2F7 JUMPI INVALID JUMPDEST PUSH1 0x20 MUL PUSH1 0x20 ADD ADD MLOAD PUSH1 0x60 ADD MLOAD DUP8 DUP6 DUP2 MLOAD DUP2 LT PUSH2 0x30F JUMPI INVALID JUMPDEST PUSH1 0x20 MUL PUSH1 0x20 ADD ADD MLOAD PUSH1 0x20 ADD MLOAD DUP9 DUP7 DUP2 MLOAD DUP2 LT PUSH2 0x327 JUMPI INVALID JUMPDEST PUSH1 0x20 MUL PUSH1 0x20 ADD ADD MLOAD PUSH1 0x40 ADD MLOAD DUP10 DUP8 DUP2 MLOAD DUP2 LT PUSH2 0x33F JUMPI INVALID JUMPDEST PUSH1 0x20 MUL PUSH1 0x20 ADD ADD MLOAD PUSH1 0xA0 ADD MLOAD DUP11 DUP9 DUP2 MLOAD DUP2 LT PUSH2 0x357 JUMPI INVALID JUMPDEST PUSH1 0x20 MUL PUSH1 0x20 ADD ADD MLOAD PUSH1 0xC0 ADD MLOAD PUSH1 0x40 MLOAD DUP7 PUSH4 0xFFFFFFFF AND PUSH1 0xE0 SHL DUP2 MSTORE PUSH1 0x4 ADD PUSH2 0x383 SWAP6 SWAP5 SWAP4 SWAP3 SWAP2 SWAP1 PUSH2 0xF86 JUMP JUMPDEST PUSH1 0x20 PUSH1 0x40 MLOAD DUP1 DUP4 SUB DUP2 DUP7 DUP1 EXTCODESIZE ISZERO DUP1 ISZERO PUSH2 0x39B JUMPI PUSH1 0x0 DUP1 REVERT JUMPDEST POP GAS DELEGATECALL ISZERO DUP1 ISZERO PUSH2 0x3AF JUMPI RETURNDATASIZE PUSH1 0x0 DUP1 RETURNDATACOPY RETURNDATASIZE PUSH1 0x0 REVERT JUMPDEST POP POP POP POP PUSH1 0x40 MLOAD RETURNDATASIZE PUSH1 0x1F NOT PUSH1 0x1F DUP3 ADD AND DUP3 ADD DUP1 PUSH1 0x40 MSTORE POP DUP2 ADD SWAP1 PUSH2 0x3D3 SWAP2 SWAP1 PUSH2 0xCB6 JUMP JUMPDEST SWAP1 POP PUSH1 0x40 MLOAD DUP1 PUSH1 0x40 ADD PUSH1 0x40 MSTORE DUP1 DUP7 DUP5 DUP2 MLOAD DUP2 LT PUSH2 0x3EC JUMPI INVALID JUMPDEST PUSH1 0x20 MUL PUSH1 0x20 ADD ADD MLOAD PUSH1 0x0 ADD MLOAD DUP2 MSTORE PUSH1 0x20 ADD DUP3 ISZERO ISZERO DUP2 MSTORE POP DUP4 DUP4 DUP2 MLOAD DUP2 LT PUSH2 0x40F JUMPI INVALID JUMPDEST PUSH1 0x20 MUL PUSH1 0x20 ADD ADD DUP2 SWAP1 MSTORE POP POP JUMPDEST DUP1 DUP1 PUSH1 0x1 ADD SWAP2 POP POP PUSH2 0x133 JUMP JUMPDEST POP DUP1 SWAP2 POP POP SWAP2 SWAP1 POP JUMP JUMPDEST PUSH1 0x0 DUP1 PUSH1 0x2 DUP4 PUSH1 0xFF AND EQ ISZERO PUSH2 0x4DA JUMPI PUSH20 0x0 PUSH4 0x8C39560E DUP9 DUP9 DUP9 DUP9 PUSH1 0x40 MLOAD DUP6 PUSH4 0xFFFFFFFF AND PUSH1 0xE0 SHL DUP2 MSTORE PUSH1 0x4 ADD PUSH2 0x47F SWAP5 SWAP4 SWAP3 SWAP2 SWAP1 PUSH2 0xF41 JUMP JUMPDEST PUSH1 0x20 PUSH1 0x40 MLOAD DUP1 DUP4 SUB DUP2 DUP7 DUP1 EXTCODESIZE ISZERO DUP1 ISZERO PUSH2 0x497 JUMPI PUSH1 0x0 DUP1 REVERT JUMPDEST POP GAS DELEGATECALL ISZERO DUP1 ISZERO PUSH2 0x4AB JUMPI RETURNDATASIZE PUSH1 0x0 DUP1 RETURNDATACOPY RETURNDATASIZE PUSH1 0x0 REVERT JUMPDEST POP POP POP POP PUSH1 0x40 MLOAD RETURNDATASIZE PUSH1 0x1F NOT PUSH1 0x1F DUP3 ADD AND DUP3 ADD DUP1 PUSH1 0x40 MSTORE POP DUP2 ADD SWAP1 PUSH2 0x4CF SWAP2 SWAP1 PUSH2 0xCDF JUMP JUMPDEST PUSH1 0x0 SWAP2 POP SWAP2 POP PUSH2 0x57C JUMP JUMPDEST PUSH1 0x3 DUP4 PUSH1 0xFF AND EQ ISZERO PUSH2 0x57B JUMPI PUSH20 0x0 PUSH4 0x8C39560E DUP9 DUP9 DUP9 DUP9 PUSH1 0x40 MLOAD DUP6 PUSH4 0xFFFFFFFF AND PUSH1 0xE0 SHL DUP2 MSTORE PUSH1 0x4 ADD PUSH2 0x523 SWAP5 SWAP4 SWAP3 SWAP2 SWAP1 PUSH2 0xF41 JUMP JUMPDEST PUSH1 0x40 DUP1 MLOAD DUP1 DUP4 SUB DUP2 DUP7 DUP1 EXTCODESIZE ISZERO DUP1 ISZERO PUSH2 0x53A JUMPI PUSH1 0x0 DUP1 REVERT JUMPDEST POP GAS DELEGATECALL ISZERO DUP1 ISZERO PUSH2 0x54E JUMPI RETURNDATASIZE PUSH1 0x0 DUP1 RETURNDATACOPY RETURNDATASIZE PUSH1 0x0 REVERT JUMPDEST POP POP POP POP PUSH1 0x40 MLOAD RETURNDATASIZE PUSH1 0x1F NOT PUSH1 0x1F DUP3 ADD AND DUP3 ADD DUP1 PUSH1 0x40 MSTORE POP DUP2 ADD SWAP1 PUSH2 0x572 SWAP2 SWAP1 PUSH2 0xD08 JUMP JUMPDEST SWAP2 POP SWAP2 POP PUSH2 0x57C JUMP JUMPDEST JUMPDEST SWAP6 POP SWAP6 SWAP4 POP POP POP POP JUMP JUMPDEST PUSH1 0x60 PUSH1 0x0 DUP3 MLOAD PUSH8 0xFFFFFFFFFFFFFFFF DUP2 GT DUP1 ISZERO PUSH2 0x5A2 JUMPI PUSH1 0x0 DUP1 REVERT JUMPDEST POP PUSH1 0x40 MLOAD SWAP1 DUP1 DUP3 MSTORE DUP1 PUSH1 0x20 MUL PUSH1 0x20 ADD DUP3 ADD PUSH1 0x40 MSTORE DUP1 ISZERO PUSH2 0x5DC JUMPI DUP2 PUSH1 0x20 ADD JUMPDEST PUSH2 0x5C9 PUSH2 0x8B5 JUMP JUMPDEST DUP2 MSTORE PUSH1 0x20 ADD SWAP1 PUSH1 0x1 SWAP1 SUB SWAP1 DUP2 PUSH2 0x5C1 JUMPI SWAP1 POP JUMPDEST POP SWAP1 POP PUSH1 0x0 JUMPDEST DUP4 MLOAD DUP2 LT ISZERO PUSH2 0x88F JUMPI PUSH1 0x2 DUP5 DUP3 DUP2 MLOAD DUP2 LT PUSH2 0x5F9 JUMPI INVALID JUMPDEST PUSH1 0x20 MUL PUSH1 0x20 ADD ADD MLOAD PUSH1 0x80 ADD MLOAD PUSH1 0xFF AND EQ ISZERO PUSH2 0x737 JUMPI PUSH1 0x0 PUSH20 0x0 PUSH4 0xC361E0B1 DUP7 DUP5 DUP2 MLOAD DUP2 LT PUSH2 0x636 JUMPI INVALID JUMPDEST PUSH1 0x20 MUL PUSH1 0x20 ADD ADD MLOAD PUSH1 0x60 ADD MLOAD DUP8 DUP6 DUP2 MLOAD DUP2 LT PUSH2 0x64E JUMPI INVALID JUMPDEST PUSH1 0x20 MUL PUSH1 0x20 ADD ADD MLOAD PUSH1 0x20 ADD MLOAD DUP9 DUP7 DUP2 MLOAD DUP2 LT PUSH2 0x666 JUMPI INVALID JUMPDEST PUSH1 0x20 MUL PUSH1 0x20 ADD ADD MLOAD PUSH1 0x40 ADD MLOAD PUSH1 0x40 MLOAD DUP5 PUSH4 0xFFFFFFFF AND PUSH1 0xE0 SHL DUP2 MSTORE PUSH1 0x4 ADD PUSH2 0x690 SWAP4 SWAP3 SWAP2 SWAP1 PUSH2 0xF0A JUMP JUMPDEST PUSH1 0x20 PUSH1 0x40 MLOAD DUP1 DUP4 SUB DUP2 DUP7 DUP1 EXTCODESIZE ISZERO DUP1 ISZERO PUSH2 0x6A8 JUMPI PUSH1 0x0 DUP1 REVERT JUMPDEST POP GAS DELEGATECALL ISZERO DUP1 ISZERO PUSH2 0x6BC JUMPI RETURNDATASIZE PUSH1 0x0 DUP1 RETURNDATACOPY RETURNDATASIZE PUSH1 0x0 REVERT JUMPDEST POP POP POP POP PUSH1 0x40 MLOAD RETURNDATASIZE PUSH1 0x1F NOT PUSH1 0x1F DUP3 ADD AND DUP3 ADD DUP1 PUSH1 0x40 MSTORE POP DUP2 ADD SWAP1 PUSH2 0x6E0 SWAP2 SWAP1 PUSH2 0xCDF JUMP JUMPDEST SWAP1 POP PUSH1 0x40 MLOAD DUP1 PUSH1 0x60 ADD PUSH1 0x40 MSTORE DUP1 DUP7 DUP5 DUP2 MLOAD DUP2 LT PUSH2 0x6F9 JUMPI INVALID JUMPDEST PUSH1 0x20 MUL PUSH1 0x20 ADD ADD MLOAD PUSH1 0x0 ADD MLOAD DUP2 MSTORE PUSH1 0x20 ADD DUP3 DUP2 MSTORE PUSH1 0x20 ADD PUSH1 0x0 PUSH3 0xFFFFFF AND DUP2 MSTORE POP DUP4 DUP4 DUP2 MLOAD DUP2 LT PUSH2 0x726 JUMPI INVALID JUMPDEST PUSH1 0x20 MUL PUSH1 0x20 ADD ADD DUP2 SWAP1 MSTORE POP POP PUSH2 0x882 JUMP JUMPDEST PUSH1 0x3 DUP5 DUP3 DUP2 MLOAD DUP2 LT PUSH2 0x745 JUMPI INVALID JUMPDEST PUSH1 0x20 MUL PUSH1 0x20 ADD ADD MLOAD PUSH1 0x80 ADD MLOAD PUSH1 0xFF AND EQ ISZERO PUSH2 0x881 JUMPI PUSH1 0x0 DUP1 PUSH20 0x0 PUSH4 0xC361E0B1 DUP8 DUP6 DUP2 MLOAD DUP2 LT PUSH2 0x783 JUMPI INVALID JUMPDEST PUSH1 0x20 MUL PUSH1 0x20 ADD ADD MLOAD PUSH1 0x60 ADD MLOAD DUP9 DUP7 DUP2 MLOAD DUP2 LT PUSH2 0x79B JUMPI INVALID JUMPDEST PUSH1 0x20 MUL PUSH1 0x20 ADD ADD MLOAD PUSH1 0x20 ADD MLOAD DUP10 DUP8 DUP2 MLOAD DUP2 LT PUSH2 0x7B3 JUMPI INVALID JUMPDEST PUSH1 0x20 MUL PUSH1 0x20 ADD ADD MLOAD PUSH1 0x40 ADD MLOAD PUSH1 0x40 MLOAD DUP5 PUSH4 0xFFFFFFFF AND PUSH1 0xE0 SHL DUP2 MSTORE PUSH1 0x4 ADD PUSH2 0x7DD SWAP4 SWAP3 SWAP2 SWAP1 PUSH2 0xF0A JUMP JUMPDEST PUSH1 0x40 DUP1 MLOAD DUP1 DUP4 SUB DUP2 DUP7 DUP1 EXTCODESIZE ISZERO DUP1 ISZERO PUSH2 0x7F4 JUMPI PUSH1 0x0 DUP1 REVERT JUMPDEST POP GAS DELEGATECALL ISZERO DUP1 ISZERO PUSH2 0x808 JUMPI RETURNDATASIZE PUSH1 0x0 DUP1 RETURNDATACOPY RETURNDATASIZE PUSH1 0x0 REVERT JUMPDEST POP POP POP POP PUSH1 0x40 MLOAD RETURNDATASIZE PUSH1 0x1F NOT PUSH1 0x1F DUP3 ADD AND DUP3 ADD DUP1 PUSH1 0x40 MSTORE POP DUP2 ADD SWAP1 PUSH2 0x82C SWAP2 SWAP1 PUSH2 0xD08 JUMP JUMPDEST SWAP2 POP SWAP2 POP PUSH1 0x40 MLOAD DUP1 PUSH1 0x60 ADD PUSH1 0x40 MSTORE DUP1 DUP8 DUP6 DUP2 MLOAD DUP2 LT PUSH2 0x847 JUMPI INVALID JUMPDEST PUSH1 0x20 MUL PUSH1 0x20 ADD ADD MLOAD PUSH1 0x0 ADD MLOAD DUP2 MSTORE PUSH1 0x20 ADD DUP4 DUP2 MSTORE PUSH1 0x20 ADD DUP3 PUSH3 0xFFFFFF AND DUP2 MSTORE POP DUP5 DUP5 DUP2 MLOAD DUP2 LT PUSH2 0x873 JUMPI INVALID JUMPDEST PUSH1 0x20 MUL PUSH1 0x20 ADD ADD DUP2 SWAP1 MSTORE POP POP POP JUMPDEST JUMPDEST DUP1 DUP1 PUSH1 0x1 ADD SWAP2 POP POP PUSH2 0x5E2 JUMP JUMPDEST POP DUP1 SWAP2 POP POP SWAP2 SWAP1 POP JUMP JUMPDEST PUSH1 0x40 MLOAD DUP1 PUSH1 0x40 ADD PUSH1 0x40 MSTORE DUP1 PUSH1 0x0 DUP2 MSTORE PUSH1 0x20 ADD PUSH1 0x0 ISZERO ISZERO DUP2 MSTORE POP SWAP1 JUMP JUMPDEST PUSH1 0x40 MLOAD DUP1 PUSH1 0x60 ADD PUSH1 0x40 MSTORE DUP1 PUSH1 0x0 DUP2 MSTORE PUSH1 0x20 ADD PUSH1 0x0 DUP2 MSTORE PUSH1 0x20 ADD PUSH1 0x0 PUSH3 0xFFFFFF AND DUP2 MSTORE POP SWAP1 JUMP JUMPDEST PUSH1 0x0 PUSH2 0x8EE PUSH2 0x8E9 DUP5 PUSH2 0x1077 JUMP JUMPDEST PUSH2 0x1046 JUMP JUMPDEST SWAP1 POP DUP1 DUP4 DUP3 MSTORE PUSH1 0x20 DUP3 ADD SWAP1 POP DUP3 DUP6 PUSH1 0xE0 DUP7 MUL DUP3 ADD GT ISZERO PUSH2 0x90D JUMPI PUSH1 0x0 DUP1 REVERT JUMPDEST PUSH1 0x0 JUMPDEST DUP6 DUP2 LT ISZERO PUSH2 0x93D JUMPI DUP2 PUSH2 0x923 DUP9 DUP3 PUSH2 0xA31 JUMP JUMPDEST DUP5 MSTORE PUSH1 0x20 DUP5 ADD SWAP4 POP PUSH1 0xE0 DUP4 ADD SWAP3 POP POP PUSH1 0x1 DUP2 ADD SWAP1 POP PUSH2 0x910 JUMP JUMPDEST POP POP POP SWAP4 SWAP3 POP POP POP JUMP JUMPDEST PUSH1 0x0 PUSH2 0x95A PUSH2 0x955 DUP5 PUSH2 0x10A3 JUMP JUMPDEST PUSH2 0x1046 JUMP JUMPDEST SWAP1 POP DUP1 DUP4 DUP3 MSTORE PUSH1 0x20 DUP3 ADD SWAP1 POP DUP3 DUP6 PUSH1 0xA0 DUP7 MUL DUP3 ADD GT ISZERO PUSH2 0x979 JUMPI PUSH1 0x0 DUP1 REVERT JUMPDEST PUSH1 0x0 JUMPDEST DUP6 DUP2 LT ISZERO PUSH2 0x9A9 JUMPI DUP2 PUSH2 0x98F DUP9 DUP3 PUSH2 0xAE1 JUMP JUMPDEST DUP5 MSTORE PUSH1 0x20 DUP5 ADD SWAP4 POP PUSH1 0xA0 DUP4 ADD SWAP3 POP POP PUSH1 0x1 DUP2 ADD SWAP1 POP PUSH2 0x97C JUMP JUMPDEST POP POP POP SWAP4 SWAP3 POP POP POP JUMP JUMPDEST PUSH1 0x0 DUP2 CALLDATALOAD SWAP1 POP PUSH2 0x9C2 DUP2 PUSH2 0x11A7 JUMP JUMPDEST SWAP3 SWAP2 POP POP JUMP JUMPDEST PUSH1 0x0 DUP3 PUSH1 0x1F DUP4 ADD SLT PUSH2 0x9D9 JUMPI PUSH1 0x0 DUP1 REVERT JUMPDEST DUP2 CALLDATALOAD PUSH2 0x9E9 DUP5 DUP3 PUSH1 0x20 DUP7 ADD PUSH2 0x8DB JUMP JUMPDEST SWAP2 POP POP SWAP3 SWAP2 POP POP JUMP JUMPDEST PUSH1 0x0 DUP3 PUSH1 0x1F DUP4 ADD SLT PUSH2 0xA03 JUMPI PUSH1 0x0 DUP1 REVERT JUMPDEST DUP2 CALLDATALOAD PUSH2 0xA13 DUP5 DUP3 PUSH1 0x20 DUP7 ADD PUSH2 0x947 JUMP JUMPDEST SWAP2 POP POP SWAP3 SWAP2 POP POP JUMP JUMPDEST PUSH1 0x0 DUP2 MLOAD SWAP1 POP PUSH2 0xA2B DUP2 PUSH2 0x11BE JUMP JUMPDEST SWAP3 SWAP2 POP POP JUMP JUMPDEST PUSH1 0x0 PUSH1 0xE0 DUP3 DUP5 SUB SLT ISZERO PUSH2 0xA43 JUMPI PUSH1 0x0 DUP1 REVERT JUMPDEST PUSH2 0xA4D PUSH1 0xE0 PUSH2 0x1046 JUMP JUMPDEST SWAP1 POP PUSH1 0x0 PUSH2 0xA5D DUP5 DUP3 DUP6 ADD PUSH2 0xB7E JUMP JUMPDEST PUSH1 0x0 DUP4 ADD MSTORE POP PUSH1 0x20 PUSH2 0xA71 DUP5 DUP3 DUP6 ADD PUSH2 0x9B3 JUMP JUMPDEST PUSH1 0x20 DUP4 ADD MSTORE POP PUSH1 0x40 PUSH2 0xA85 DUP5 DUP3 DUP6 ADD PUSH2 0x9B3 JUMP JUMPDEST PUSH1 0x40 DUP4 ADD MSTORE POP PUSH1 0x60 PUSH2 0xA99 DUP5 DUP3 DUP6 ADD PUSH2 0x9B3 JUMP JUMPDEST PUSH1 0x60 DUP4 ADD MSTORE POP PUSH1 0x80 PUSH2 0xAAD DUP5 DUP3 DUP6 ADD PUSH2 0xBA8 JUMP JUMPDEST PUSH1 0x80 DUP4 ADD MSTORE POP PUSH1 0xA0 PUSH2 0xAC1 DUP5 DUP3 DUP6 ADD PUSH2 0xB7E JUMP JUMPDEST PUSH1 0xA0 DUP4 ADD MSTORE POP PUSH1 0xC0 PUSH2 0xAD5 DUP5 DUP3 DUP6 ADD PUSH2 0xB7E JUMP JUMPDEST PUSH1 0xC0 DUP4 ADD MSTORE POP SWAP3 SWAP2 POP POP JUMP JUMPDEST PUSH1 0x0 PUSH1 0xA0 DUP3 DUP5 SUB SLT ISZERO PUSH2 0xAF3 JUMPI PUSH1 0x0 DUP1 REVERT JUMPDEST PUSH2 0xAFD PUSH1 0xA0 PUSH2 0x1046 JUMP JUMPDEST SWAP1 POP PUSH1 0x0 PUSH2 0xB0D DUP5 DUP3 DUP6 ADD PUSH2 0xB7E JUMP JUMPDEST PUSH1 0x0 DUP4 ADD MSTORE POP PUSH1 0x20 PUSH2 0xB21 DUP5 DUP3 DUP6 ADD PUSH2 0x9B3 JUMP JUMPDEST PUSH1 0x20 DUP4 ADD MSTORE POP PUSH1 0x40 PUSH2 0xB35 DUP5 DUP3 DUP6 ADD PUSH2 0x9B3 JUMP JUMPDEST PUSH1 0x40 DUP4 ADD MSTORE POP PUSH1 0x60 PUSH2 0xB49 DUP5 DUP3 DUP6 ADD PUSH2 0x9B3 JUMP JUMPDEST PUSH1 0x60 DUP4 ADD MSTORE POP PUSH1 0x80 PUSH2 0xB5D DUP5 DUP3 DUP6 ADD PUSH2 0xBA8 JUMP JUMPDEST PUSH1 0x80 DUP4 ADD MSTORE POP SWAP3 SWAP2 POP POP JUMP JUMPDEST PUSH1 0x0 DUP2 MLOAD SWAP1 POP PUSH2 0xB78 DUP2 PUSH2 0x11D5 JUMP JUMPDEST SWAP3 SWAP2 POP POP JUMP JUMPDEST PUSH1 0x0 DUP2 CALLDATALOAD SWAP1 POP PUSH2 0xB8D DUP2 PUSH2 0x11EC JUMP JUMPDEST SWAP3 SWAP2 POP POP JUMP JUMPDEST PUSH1 0x0 DUP2 MLOAD SWAP1 POP PUSH2 0xBA2 DUP2 PUSH2 0x11EC JUMP JUMPDEST SWAP3 SWAP2 POP POP JUMP JUMPDEST PUSH1 0x0 DUP2 CALLDATALOAD SWAP1 POP PUSH2 0xBB7 DUP2 PUSH2 0x1203 JUMP JUMPDEST SWAP3 SWAP2 POP POP JUMP JUMPDEST PUSH1 0x0 DUP1 PUSH1 0x0 DUP1 PUSH1 0x0 PUSH1 0xA0 DUP7 DUP9 SUB SLT ISZERO PUSH2 0xBD5 JUMPI PUSH1 0x0 DUP1 REVERT JUMPDEST PUSH1 0x0 PUSH2 0xBE3 DUP9 DUP3 DUP10 ADD PUSH2 0x9B3 JUMP JUMPDEST SWAP6 POP POP PUSH1 0x20 PUSH2 0xBF4 DUP9 DUP3 DUP10 ADD PUSH2 0x9B3 JUMP JUMPDEST SWAP5 POP POP PUSH1 0x40 PUSH2 0xC05 DUP9 DUP3 DUP10 ADD PUSH2 0x9B3 JUMP JUMPDEST SWAP4 POP POP PUSH1 0x60 PUSH2 0xC16 DUP9 DUP3 DUP10 ADD PUSH2 0xB7E JUMP JUMPDEST SWAP3 POP POP PUSH1 0x80 PUSH2 0xC27 DUP9 DUP3 DUP10 ADD PUSH2 0xBA8 JUMP JUMPDEST SWAP2 POP POP SWAP3 SWAP6 POP SWAP3 SWAP6 SWAP1 SWAP4 POP JUMP JUMPDEST PUSH1 0x0 PUSH1 0x20 DUP3 DUP5 SUB SLT ISZERO PUSH2 0xC46 JUMPI PUSH1 0x0 DUP1 REVERT JUMPDEST PUSH1 0x0 DUP3 ADD CALLDATALOAD PUSH8 0xFFFFFFFFFFFFFFFF DUP2 GT ISZERO PUSH2 0xC60 JUMPI PUSH1 0x0 DUP1 REVERT JUMPDEST PUSH2 0xC6C DUP5 DUP3 DUP6 ADD PUSH2 0x9C8 JUMP JUMPDEST SWAP2 POP POP SWAP3 SWAP2 POP POP JUMP JUMPDEST PUSH1 0x0 PUSH1 0x20 DUP3 DUP5 SUB SLT ISZERO PUSH2 0xC87 JUMPI PUSH1 0x0 DUP1 REVERT JUMPDEST PUSH1 0x0 DUP3 ADD CALLDATALOAD PUSH8 0xFFFFFFFFFFFFFFFF DUP2 GT ISZERO PUSH2 0xCA1 JUMPI PUSH1 0x0 DUP1 REVERT JUMPDEST PUSH2 0xCAD DUP5 DUP3 DUP6 ADD PUSH2 0x9F2 JUMP JUMPDEST SWAP2 POP POP SWAP3 SWAP2 POP POP JUMP JUMPDEST PUSH1 0x0 PUSH1 0x20 DUP3 DUP5 SUB SLT ISZERO PUSH2 0xCC8 JUMPI PUSH1 0x0 DUP1 REVERT JUMPDEST PUSH1 0x0 PUSH2 0xCD6 DUP5 DUP3 DUP6 ADD PUSH2 0xA1C JUMP JUMPDEST SWAP2 POP POP SWAP3 SWAP2 POP POP JUMP JUMPDEST PUSH1 0x0 PUSH1 0x20 DUP3 DUP5 SUB SLT ISZERO PUSH2 0xCF1 JUMPI PUSH1 0x0 DUP1 REVERT JUMPDEST PUSH1 0x0 PUSH2 0xCFF DUP5 DUP3 DUP6 ADD PUSH2 0xB93 JUMP JUMPDEST SWAP2 POP POP SWAP3 SWAP2 POP POP JUMP JUMPDEST PUSH1 0x0 DUP1 PUSH1 0x40 DUP4 DUP6 SUB SLT ISZERO PUSH2 0xD1B JUMPI PUSH1 0x0 DUP1 REVERT JUMPDEST PUSH1 0x0 PUSH2 0xD29 DUP6 DUP3 DUP7 ADD PUSH2 0xB93 JUMP JUMPDEST SWAP3 POP POP PUSH1 0x20 PUSH2 0xD3A DUP6 DUP3 DUP7 ADD PUSH2 0xB69 JUMP JUMPDEST SWAP2 POP POP SWAP3 POP SWAP3 SWAP1 POP JUMP JUMPDEST PUSH1 0x0 PUSH2 0xD50 DUP4 DUP4 PUSH2 0xE4E JUMP JUMPDEST PUSH1 0x40 DUP4 ADD SWAP1 POP SWAP3 SWAP2 POP POP JUMP JUMPDEST PUSH1 0x0 PUSH2 0xD68 DUP4 DUP4 PUSH2 0xE7D JUMP JUMPDEST PUSH1 0x60 DUP4 ADD SWAP1 POP SWAP3 SWAP2 POP POP JUMP JUMPDEST PUSH2 0xD7D DUP2 PUSH2 0x1141 JUMP JUMPDEST DUP3 MSTORE POP POP JUMP JUMPDEST PUSH1 0x0 PUSH2 0xD8E DUP3 PUSH2 0x10EF JUMP JUMPDEST PUSH2 0xD98 DUP2 DUP6 PUSH2 0x111F JUMP JUMPDEST SWAP4 POP PUSH2 0xDA3 DUP4 PUSH2 0x10CF JUMP JUMPDEST DUP1 PUSH1 0x0 JUMPDEST DUP4 DUP2 LT ISZERO PUSH2 0xDD4 JUMPI DUP2 MLOAD PUSH2 0xDBB DUP9 DUP3 PUSH2 0xD44 JUMP JUMPDEST SWAP8 POP PUSH2 0xDC6 DUP4 PUSH2 0x1105 JUMP JUMPDEST SWAP3 POP POP PUSH1 0x1 DUP2 ADD SWAP1 POP PUSH2 0xDA7 JUMP JUMPDEST POP DUP6 SWAP4 POP POP POP POP SWAP3 SWAP2 POP POP JUMP JUMPDEST PUSH1 0x0 PUSH2 0xDEC DUP3 PUSH2 0x10FA JUMP JUMPDEST PUSH2 0xDF6 DUP2 DUP6 PUSH2 0x1130 JUMP JUMPDEST SWAP4 POP PUSH2 0xE01 DUP4 PUSH2 0x10DF JUMP JUMPDEST DUP1 PUSH1 0x0 JUMPDEST DUP4 DUP2 LT ISZERO PUSH2 0xE32 JUMPI DUP2 MLOAD PUSH2 0xE19 DUP9 DUP3 PUSH2 0xD5C JUMP JUMPDEST SWAP8 POP PUSH2 0xE24 DUP4 PUSH2 0x1112 JUMP JUMPDEST SWAP3 POP POP PUSH1 0x1 DUP2 ADD SWAP1 POP PUSH2 0xE05 JUMP JUMPDEST POP DUP6 SWAP4 POP POP POP POP SWAP3 SWAP2 POP POP JUMP JUMPDEST PUSH2 0xE48 DUP2 PUSH2 0x1153 JUMP JUMPDEST DUP3 MSTORE POP POP JUMP JUMPDEST PUSH1 0x40 DUP3 ADD PUSH1 0x0 DUP3 ADD MLOAD PUSH2 0xE64 PUSH1 0x0 DUP6 ADD DUP3 PUSH2 0xEDD JUMP JUMPDEST POP PUSH1 0x20 DUP3 ADD MLOAD PUSH2 0xE77 PUSH1 0x20 DUP6 ADD DUP3 PUSH2 0xE3F JUMP JUMPDEST POP POP POP POP JUMP JUMPDEST PUSH1 0x60 DUP3 ADD PUSH1 0x0 DUP3 ADD MLOAD PUSH2 0xE93 PUSH1 0x0 DUP6 ADD DUP3 PUSH2 0xEDD JUMP JUMPDEST POP PUSH1 0x20 DUP3 ADD MLOAD PUSH2 0xEA6 PUSH1 0x20 DUP6 ADD DUP3 PUSH2 0xEDD JUMP JUMPDEST POP PUSH1 0x40 DUP3 ADD MLOAD PUSH2 0xEB9 PUSH1 0x40 DUP6 ADD DUP3 PUSH2 0xEBF JUMP JUMPDEST POP POP POP POP JUMP JUMPDEST PUSH2 0xEC8 DUP2 PUSH2 0x117F JUMP JUMPDEST DUP3 MSTORE POP POP JUMP JUMPDEST PUSH2 0xED7 DUP2 PUSH2 0x117F JUMP JUMPDEST DUP3 MSTORE POP POP JUMP JUMPDEST PUSH2 0xEE6 DUP2 PUSH2 0x118E JUMP JUMPDEST DUP3 MSTORE POP POP JUMP JUMPDEST PUSH2 0xEF5 DUP2 PUSH2 0x118E JUMP JUMPDEST DUP3 MSTORE POP POP JUMP JUMPDEST PUSH2 0xF04 DUP2 PUSH2 0x118E JUMP JUMPDEST DUP3 MSTORE POP POP JUMP JUMPDEST PUSH1 0x0 PUSH1 0x60 DUP3 ADD SWAP1 POP PUSH2 0xF1F PUSH1 0x0 DUP4 ADD DUP7 PUSH2 0xD74 JUMP JUMPDEST PUSH2 0xF2C PUSH1 0x20 DUP4 ADD DUP6 PUSH2 0xD74 JUMP JUMPDEST PUSH2 0xF39 PUSH1 0x40 DUP4 ADD DUP5 PUSH2 0xD74 JUMP JUMPDEST SWAP5 SWAP4 POP POP POP POP JUMP JUMPDEST PUSH1 0x0 PUSH1 0x80 DUP3 ADD SWAP1 POP PUSH2 0xF56 PUSH1 0x0 DUP4 ADD DUP8 PUSH2 0xD74 JUMP JUMPDEST PUSH2 0xF63 PUSH1 0x20 DUP4 ADD DUP7 PUSH2 0xD74 JUMP JUMPDEST PUSH2 0xF70 PUSH1 0x40 DUP4 ADD DUP6 PUSH2 0xD74 JUMP JUMPDEST PUSH2 0xF7D PUSH1 0x60 DUP4 ADD DUP5 PUSH2 0xEFB JUMP JUMPDEST SWAP6 SWAP5 POP POP POP POP POP JUMP JUMPDEST PUSH1 0x0 PUSH1 0xA0 DUP3 ADD SWAP1 POP PUSH2 0xF9B PUSH1 0x0 DUP4 ADD DUP9 PUSH2 0xD74 JUMP JUMPDEST PUSH2 0xFA8 PUSH1 0x20 DUP4 ADD DUP8 PUSH2 0xD74 JUMP JUMPDEST PUSH2 0xFB5 PUSH1 0x40 DUP4 ADD DUP7 PUSH2 0xD74 JUMP JUMPDEST PUSH2 0xFC2 PUSH1 0x60 DUP4 ADD DUP6 PUSH2 0xEFB JUMP JUMPDEST PUSH2 0xFCF PUSH1 0x80 DUP4 ADD DUP5 PUSH2 0xEFB JUMP JUMPDEST SWAP7 SWAP6 POP POP POP POP POP POP JUMP JUMPDEST PUSH1 0x0 PUSH1 0x20 DUP3 ADD SWAP1 POP DUP2 DUP2 SUB PUSH1 0x0 DUP4 ADD MSTORE PUSH2 0xFF3 DUP2 DUP5 PUSH2 0xD83 JUMP JUMPDEST SWAP1 POP SWAP3 SWAP2 POP POP JUMP JUMPDEST PUSH1 0x0 PUSH1 0x20 DUP3 ADD SWAP1 POP DUP2 DUP2 SUB PUSH1 0x0 DUP4 ADD MSTORE PUSH2 0x1015 DUP2 DUP5 PUSH2 0xDE1 JUMP JUMPDEST SWAP1 POP SWAP3 SWAP2 POP POP JUMP JUMPDEST PUSH1 0x0 PUSH1 0x40 DUP3 ADD SWAP1 POP PUSH2 0x1032 PUSH1 0x0 DUP4 ADD DUP6 PUSH2 0xEEC JUMP JUMPDEST PUSH2 0x103F PUSH1 0x20 DUP4 ADD DUP5 PUSH2 0xECE JUMP JUMPDEST SWAP4 SWAP3 POP POP POP JUMP JUMPDEST PUSH1 0x0 PUSH1 0x40 MLOAD SWAP1 POP DUP2 DUP2 ADD DUP2 DUP2 LT PUSH8 0xFFFFFFFFFFFFFFFF DUP3 GT OR ISZERO PUSH2 0x106D JUMPI PUSH2 0x106C PUSH2 0x11A5 JUMP JUMPDEST JUMPDEST DUP1 PUSH1 0x40 MSTORE POP SWAP2 SWAP1 POP JUMP JUMPDEST PUSH1 0x0 PUSH8 0xFFFFFFFFFFFFFFFF DUP3 GT ISZERO PUSH2 0x1092 JUMPI PUSH2 0x1091 PUSH2 0x11A5 JUMP JUMPDEST JUMPDEST PUSH1 0x20 DUP3 MUL SWAP1 POP PUSH1 0x20 DUP2 ADD SWAP1 POP SWAP2 SWAP1 POP JUMP JUMPDEST PUSH1 0x0 PUSH8 0xFFFFFFFFFFFFFFFF DUP3 GT ISZERO PUSH2 0x10BE JUMPI PUSH2 0x10BD PUSH2 0x11A5 JUMP JUMPDEST JUMPDEST PUSH1 0x20 DUP3 MUL SWAP1 POP PUSH1 0x20 DUP2 ADD SWAP1 POP SWAP2 SWAP1 POP JUMP JUMPDEST PUSH1 0x0 DUP2 SWAP1 POP PUSH1 0x20 DUP3 ADD SWAP1 POP SWAP2 SWAP1 POP JUMP JUMPDEST PUSH1 0x0 DUP2 SWAP1 POP PUSH1 0x20 DUP3 ADD SWAP1 POP SWAP2 SWAP1 POP JUMP JUMPDEST PUSH1 0x0 DUP2 MLOAD SWAP1 POP SWAP2 SWAP1 POP JUMP JUMPDEST PUSH1 0x0 DUP2 MLOAD SWAP1 POP SWAP2 SWAP1 POP JUMP JUMPDEST PUSH1 0x0 PUSH1 0x20 DUP3 ADD SWAP1 POP SWAP2 SWAP1 POP JUMP JUMPDEST PUSH1 0x0 PUSH1 0x20 DUP3 ADD SWAP1 POP SWAP2 SWAP1 POP JUMP JUMPDEST PUSH1 0x0 DUP3 DUP3 MSTORE PUSH1 0x20 DUP3 ADD SWAP1 POP SWAP3 SWAP2 POP POP JUMP JUMPDEST PUSH1 0x0 DUP3 DUP3 MSTORE PUSH1 0x20 DUP3 ADD SWAP1 POP SWAP3 SWAP2 POP POP JUMP JUMPDEST PUSH1 0x0 PUSH2 0x114C DUP3 PUSH2 0x115F JUMP JUMPDEST SWAP1 POP SWAP2 SWAP1 POP JUMP JUMPDEST PUSH1 0x0 DUP2 ISZERO ISZERO SWAP1 POP SWAP2 SWAP1 POP JUMP JUMPDEST PUSH1 0x0 PUSH20 0xFFFFFFFFFFFFFFFFFFFFFFFFFFFFFFFFFFFFFFFF DUP3 AND SWAP1 POP SWAP2 SWAP1 POP JUMP JUMPDEST PUSH1 0x0 PUSH3 0xFFFFFF DUP3 AND SWAP1 POP SWAP2 SWAP1 POP JUMP JUMPDEST PUSH1 0x0 DUP2 SWAP1 POP SWAP2 SWAP1 POP JUMP JUMPDEST PUSH1 0x0 PUSH1 0xFF DUP3 AND SWAP1 POP SWAP2 SWAP1 POP JUMP JUMPDEST INVALID JUMPDEST PUSH2 0x11B0 DUP2 PUSH2 0x1141 JUMP JUMPDEST DUP2 EQ PUSH2 0x11BB JUMPI PUSH1 0x0 DUP1 REVERT JUMPDEST POP JUMP JUMPDEST PUSH2 0x11C7 DUP2 PUSH2 0x1153 JUMP JUMPDEST DUP2 EQ PUSH2 0x11D2 JUMPI PUSH1 0x0 DUP1 REVERT JUMPDEST POP JUMP JUMPDEST PUSH2 0x11DE DUP2 PUSH2 0x117F JUMP JUMPDEST DUP2 EQ PUSH2 0x11E9 JUMPI PUSH1 0x0 DUP1 REVERT JUMPDEST POP JUMP JUMPDEST PUSH2 0x11F5 DUP2 PUSH2 0x118E JUMP JUMPDEST DUP2 EQ PUSH2 0x1200 JUMPI PUSH1 0x0 DUP1 REVERT JUMPDEST POP JUMP JUMPDEST PUSH2 0x120C DUP2 PUSH2 0x1198 JUMP JUMPDEST DUP2 EQ PUSH2 0x1217 JUMPI PUSH1 0x0 DUP1 REVERT JUMPDEST POP JUMP INVALID LOG2 PUSH5 0x6970667358 0x22 SLT KECCAK256 0xB6 SWAP8 0xB8 0x2B DELEGATECALL DELEGATECALL DUP12 DUP2 0xC4 LOG1 0xC2 0xC7 0xB4 SWAP15 CALL MSIZE CALLDATACOPY TIMESTAMP PUSH17 0x7BDEF23C9A4B7197B284D5AE4464736F6C PUSH4 0x43000706 STOP CALLER "
				},
				"gasEstimates": {
					"creation": {
						"codeDepositCost": "937600",
						"executionCost": "975",
						"totalCost": "938575"
					},
					"external": {
						"estimateAmountOut(address,address,address,uint256,uint8)": "infinite",
						"getPrices((uint256,address,address,address,uint8)[])": "infinite",
						"poolsExists((uint256,address,address,address,uint8,uint256,uint256)[])": "infinite"
					}
				},
				"methodIdentifiers": {
					"estimateAmountOut(address,address,address,uint256,uint8)": "6110358d",
					"getPrices((uint256,address,address,address,uint8)[])": "ea8650c5",
					"poolsExists((uint256,address,address,address,uint8,uint256,uint256)[])": "3d157a46"
				}
			},
			"storageLayout": {
				"storage": [],
				"types": null
			},
			"userdoc": {
				"kind": "user",
				"methods": {},
				"version": 1
			}
		}
	}
}