{
	"contracts/libraries/UniswapV3.sol": {
		"UniswapV3": {
			"abi": [
				{
					"inputs": [
						{
							"internalType": "address",
							"name": "factory",
							"type": "address"
						},
						{
							"internalType": "address",
							"name": "tA",
							"type": "address"
						},
						{
							"internalType": "address",
							"name": "tB",
							"type": "address"
						},
						{
							"internalType": "uint256",
							"name": "amountIn",
							"type": "uint256"
						}
					],
					"name": "EstimateAmountOut",
					"outputs": [
						{
							"internalType": "uint256",
							"name": "amountOut",
							"type": "uint256"
						},
						{
							"internalType": "uint24",
							"name": "fee",
							"type": "uint24"
						}
					],
					"stateMutability": "view",
					"type": "function"
				},
				{
					"inputs": [
						{
							"internalType": "address",
							"name": "factory",
							"type": "address"
						},
						{
							"internalType": "address",
							"name": "t0",
							"type": "address"
						},
						{
							"internalType": "address",
							"name": "t1",
							"type": "address"
						},
						{
							"internalType": "uint256",
							"name": "min0",
							"type": "uint256"
						},
						{
							"internalType": "uint256",
							"name": "min1",
							"type": "uint256"
						}
					],
					"name": "PoolExists",
					"outputs": [
						{
							"internalType": "bool",
							"name": "",
							"type": "bool"
						}
					],
					"stateMutability": "view",
					"type": "function"
				},
				{
					"inputs": [
						{
							"internalType": "address",
							"name": "factory",
							"type": "address"
						},
						{
							"internalType": "address",
							"name": "t0",
							"type": "address"
						},
						{
							"internalType": "address",
							"name": "t1",
							"type": "address"
						}
					],
					"name": "Price",
					"outputs": [
						{
							"internalType": "uint256",
							"name": "price",
							"type": "uint256"
						},
						{
							"internalType": "uint24",
							"name": "fee",
							"type": "uint24"
						}
					],
					"stateMutability": "view",
					"type": "function"
				}
			],
			"devdoc": {
				"kind": "dev",
				"methods": {},
				"version": 1
			},
			"evm": {
				"assembly": "    /* \"contracts/libraries/UniswapV3.sol\":260:2506  library UniswapV3 {... */\n  dataSize(sub_0)\n  dataOffset(sub_0)\n  0x0b\n  dup3\n  dup3\n  dup3\n  codecopy\n  dup1\n  mload\n  0x00\n  byte\n  0x73\n  eq\n  tag_1\n  jumpi\n  invalid\ntag_1:\n  mstore(0x00, address)\n  0x73\n  dup2\n  mstore8\n  dup3\n  dup2\n  return\nstop\n\nsub_0: assembly {\n        /* \"contracts/libraries/UniswapV3.sol\":260:2506  library UniswapV3 {... */\n      eq(address, deployTimeAddress())\n      mstore(0x40, 0x80)\n      jumpi(tag_1, lt(calldatasize, 0x04))\n      shr(0xe0, calldataload(0x00))\n      dup1\n      0x8c39560e\n      eq\n      tag_2\n      jumpi\n      dup1\n      0xbcbcaa29\n      eq\n      tag_3\n      jumpi\n      dup1\n      0xc361e0b1\n      eq\n      tag_4\n      jumpi\n    tag_1:\n      0x00\n      dup1\n      revert\n        /* \"contracts/libraries/UniswapV3.sol\":290:1024  function EstimateAmountOut(address factory,address tA,address tB,uint256 amountIn) external  view returns (uint256 amountOut,uint24 fee){... */\n    tag_2:\n      tag_5\n      0x04\n      dup1\n      calldatasize\n      sub\n      0x80\n      dup2\n      lt\n      iszero\n      tag_6\n      jumpi\n      0x00\n      dup1\n      revert\n    tag_6:\n      dup2\n      add\n      swap1\n      dup1\n      dup1\n      calldataload\n      0xffffffffffffffffffffffffffffffffffffffff\n      and\n      swap1\n      0x20\n      add\n      swap1\n      swap3\n      swap2\n      swap1\n      dup1\n      calldataload\n      0xffffffffffffffffffffffffffffffffffffffff\n      and\n      swap1\n      0x20\n      add\n      swap1\n      swap3\n      swap2\n      swap1\n      dup1\n      calldataload\n      0xffffffffffffffffffffffffffffffffffffffff\n      and\n      swap1\n      0x20\n      add\n      swap1\n      swap3\n      swap2\n      swap1\n      dup1\n      calldataload\n      swap1\n      0x20\n      add\n      swap1\n      swap3\n      swap2\n      swap1\n      pop\n      pop\n      pop\n      tag_7\n      jump\t// in\n    tag_5:\n      mload(0x40)\n      dup1\n      dup4\n      dup2\n      mstore\n      0x20\n      add\n      dup3\n      0xffffff\n      and\n      dup2\n      mstore\n      0x20\n      add\n      swap3\n      pop\n      pop\n      pop\n      mload(0x40)\n      dup1\n      swap2\n      sub\n      swap1\n      return\n        /* \"contracts/libraries/UniswapV3.sol\":1972:2503  function PoolExists(address factory,address t0,address t1,uint min0,uint min1) external view returns (bool){... */\n    tag_3:\n      tag_8\n      0x04\n      dup1\n      calldatasize\n      sub\n      0xa0\n      dup2\n      lt\n      iszero\n      tag_9\n      jumpi\n      0x00\n      dup1\n      revert\n    tag_9:\n      dup2\n      add\n      swap1\n      dup1\n      dup1\n      calldataload\n      0xffffffffffffffffffffffffffffffffffffffff\n      and\n      swap1\n      0x20\n      add\n      swap1\n      swap3\n      swap2\n      swap1\n      dup1\n      calldataload\n      0xffffffffffffffffffffffffffffffffffffffff\n      and\n      swap1\n      0x20\n      add\n      swap1\n      swap3\n      swap2\n      swap1\n      dup1\n      calldataload\n      0xffffffffffffffffffffffffffffffffffffffff\n      and\n      swap1\n      0x20\n      add\n      swap1\n      swap3\n      swap2\n      swap1\n      dup1\n      calldataload\n      swap1\n      0x20\n      add\n      swap1\n      swap3\n      swap2\n      swap1\n      dup1\n      calldataload\n      swap1\n      0x20\n      add\n      swap1\n      swap3\n      swap2\n      swap1\n      pop\n      pop\n      pop\n      tag_10\n      jump\t// in\n    tag_8:\n      mload(0x40)\n      dup1\n      dup3\n      iszero\n      iszero\n      dup2\n      mstore\n      0x20\n      add\n      swap2\n      pop\n      pop\n      mload(0x40)\n      dup1\n      swap2\n      sub\n      swap1\n      return\n        /* \"contracts/libraries/UniswapV3.sol\":1034:1965  function Price(address factory,address t0,address t1) external view returns (uint256 price,uint24 fee){... */\n    tag_4:\n      tag_11\n      0x04\n      dup1\n      calldatasize\n      sub\n      0x60\n      dup2\n      lt\n      iszero\n      tag_12\n      jumpi\n      0x00\n      dup1\n      revert\n    tag_12:\n      dup2\n      add\n      swap1\n      dup1\n      dup1\n      calldataload\n      0xffffffffffffffffffffffffffffffffffffffff\n      and\n      swap1\n      0x20\n      add\n      swap1\n      swap3\n      swap2\n      swap1\n      dup1\n      calldataload\n      0xffffffffffffffffffffffffffffffffffffffff\n      and\n      swap1\n      0x20\n      add\n      swap1\n      swap3\n      swap2\n      swap1\n      dup1\n      calldataload\n      0xffffffffffffffffffffffffffffffffffffffff\n      and\n      swap1\n      0x20\n      add\n      swap1\n      swap3\n      swap2\n      swap1\n      pop\n      pop\n      pop\n      tag_13\n      jump\t// in\n    tag_11:\n      mload(0x40)\n      dup1\n      dup4\n      dup2\n      mstore\n      0x20\n      add\n      dup3\n      0xffffff\n      and\n      dup2\n      mstore\n      0x20\n      add\n      swap3\n      pop\n      pop\n      pop\n      mload(0x40)\n      dup1\n      swap2\n      sub\n      swap1\n      return\n        /* \"contracts/libraries/UniswapV3.sol\":290:1024  function EstimateAmountOut(address factory,address tA,address tB,uint256 amountIn) external  view returns (uint256 amountOut,uint24 fee){... */\n    tag_7:\n        /* \"contracts/libraries/UniswapV3.sol\":397:414  uint256 amountOut */\n      0x00\n        /* \"contracts/libraries/UniswapV3.sol\":415:425  uint24 fee */\n      dup1\n        /* \"contracts/libraries/UniswapV3.sol\":440:461  uint16[4] memory fees */\n      0x00\n        /* \"contracts/libraries/UniswapV3.sol\":440:484  uint16[4] memory fees = [100,500,3000,10000] */\n      mload(0x40)\n      dup1\n      0x80\n      add\n      0x40\n      mstore\n      dup1\n        /* \"contracts/libraries/UniswapV3.sol\":465:468  100 */\n      0x64\n        /* \"contracts/libraries/UniswapV3.sol\":440:484  uint16[4] memory fees = [100,500,3000,10000] */\n      0xffff\n      and\n      dup2\n      mstore\n      0x20\n      add\n        /* \"contracts/libraries/UniswapV3.sol\":469:472  500 */\n      0x01f4\n        /* \"contracts/libraries/UniswapV3.sol\":440:484  uint16[4] memory fees = [100,500,3000,10000] */\n      0xffff\n      and\n      dup2\n      mstore\n      0x20\n      add\n        /* \"contracts/libraries/UniswapV3.sol\":473:477  3000 */\n      0x0bb8\n        /* \"contracts/libraries/UniswapV3.sol\":440:484  uint16[4] memory fees = [100,500,3000,10000] */\n      0xffff\n      and\n      dup2\n      mstore\n      0x20\n      add\n        /* \"contracts/libraries/UniswapV3.sol\":478:483  10000 */\n      0x2710\n        /* \"contracts/libraries/UniswapV3.sol\":440:484  uint16[4] memory fees = [100,500,3000,10000] */\n      0xffff\n      and\n      dup2\n      mstore\n      pop\n      swap1\n      pop\n        /* \"contracts/libraries/UniswapV3.sol\":502:509  uint8 i */\n      0x00\n        /* \"contracts/libraries/UniswapV3.sol\":498:1014  for(uint8 i=0;i<4;i++){... */\n    tag_15:\n        /* \"contracts/libraries/UniswapV3.sol\":514:515  4 */\n      0x04\n        /* \"contracts/libraries/UniswapV3.sol\":512:513  i */\n      dup2\n        /* \"contracts/libraries/UniswapV3.sol\":512:515  i<4 */\n      0xff\n      and\n      lt\n        /* \"contracts/libraries/UniswapV3.sol\":498:1014  for(uint8 i=0;i<4;i++){... */\n      iszero\n      tag_16\n      jumpi\n        /* \"contracts/libraries/UniswapV3.sol\":538:550  address pool */\n      0x00\n        /* \"contracts/libraries/UniswapV3.sol\":571:578  factory */\n      dup9\n        /* \"contracts/libraries/UniswapV3.sol\":553:587  IUniswapV3Factory(factory).getPool */\n      0xffffffffffffffffffffffffffffffffffffffff\n      and\n      0x1698ee82\n        /* \"contracts/libraries/UniswapV3.sol\":588:590  tA */\n      dup10\n        /* \"contracts/libraries/UniswapV3.sol\":591:593  tB */\n      dup10\n        /* \"contracts/libraries/UniswapV3.sol\":594:598  fees */\n      dup7\n        /* \"contracts/libraries/UniswapV3.sol\":599:600  i */\n      dup7\n        /* \"contracts/libraries/UniswapV3.sol\":594:601  fees[i] */\n      0xff\n      and\n      0x04\n      dup2\n      lt\n      tag_18\n      jumpi\n      invalid\n    tag_18:\n      0x20\n      mul\n      add\n      mload\n        /* \"contracts/libraries/UniswapV3.sol\":553:602  IUniswapV3Factory(factory).getPool(tA,tB,fees[i]) */\n      mload(0x40)\n      dup5\n      0xffffffff\n      and\n      0xe0\n      shl\n      dup2\n      mstore\n      0x04\n      add\n      dup1\n      dup5\n      0xffffffffffffffffffffffffffffffffffffffff\n      and\n      dup2\n      mstore\n      0x20\n      add\n      dup4\n      0xffffffffffffffffffffffffffffffffffffffff\n      and\n      dup2\n      mstore\n      0x20\n      add\n      dup3\n      0xffff\n      and\n      dup2\n      mstore\n      0x20\n      add\n      swap4\n      pop\n      pop\n      pop\n      pop\n      0x20\n      mload(0x40)\n      dup1\n      dup4\n      sub\n      dup2\n      dup7\n      dup1\n      extcodesize\n      iszero\n      dup1\n      iszero\n      tag_19\n      jumpi\n      0x00\n      dup1\n      revert\n    tag_19:\n      pop\n      gas\n      staticcall\n      iszero\n      dup1\n      iszero\n      tag_21\n      jumpi\n      returndatasize\n      0x00\n      dup1\n      returndatacopy\n      revert(0x00, returndatasize)\n    tag_21:\n      pop\n      pop\n      pop\n      pop\n      mload(0x40)\n      returndatasize\n      0x20\n      dup2\n      lt\n      iszero\n      tag_22\n      jumpi\n      0x00\n      dup1\n      revert\n    tag_22:\n      dup2\n      add\n      swap1\n      dup1\n      dup1\n      mload\n      swap1\n      0x20\n      add\n      swap1\n      swap3\n      swap2\n      swap1\n      pop\n      pop\n      pop\n        /* \"contracts/libraries/UniswapV3.sol\":538:602  address pool = IUniswapV3Factory(factory).getPool(tA,tB,fees[i]) */\n      swap1\n      pop\n        /* \"contracts/libraries/UniswapV3.sol\":640:641  0 */\n      0x00\n        /* \"contracts/libraries/UniswapV3.sol\":624:642  pool == address(0) */\n      0xffffffffffffffffffffffffffffffffffffffff\n      and\n        /* \"contracts/libraries/UniswapV3.sol\":624:628  pool */\n      dup2\n        /* \"contracts/libraries/UniswapV3.sol\":624:642  pool == address(0) */\n      0xffffffffffffffffffffffffffffffffffffffff\n      and\n      eq\n        /* \"contracts/libraries/UniswapV3.sol\":620:652  if (pool == address(0)) continue */\n      iszero\n      tag_23\n      jumpi\n        /* \"contracts/libraries/UniswapV3.sol\":644:652  continue */\n      pop\n      jump(tag_17)\n        /* \"contracts/libraries/UniswapV3.sol\":620:652  if (pool == address(0)) continue */\n    tag_23:\n        /* \"contracts/libraries/UniswapV3.sol\":704:712  amountIn */\n      dup6\n        /* \"contracts/libraries/UniswapV3.sol\":682:684  tA */\n      dup9\n        /* \"contracts/libraries/UniswapV3.sol\":675:695  IERC20(tA).balanceOf */\n      0xffffffffffffffffffffffffffffffffffffffff\n      and\n      0x70a08231\n        /* \"contracts/libraries/UniswapV3.sol\":696:700  pool */\n      dup4\n        /* \"contracts/libraries/UniswapV3.sol\":675:701  IERC20(tA).balanceOf(pool) */\n      mload(0x40)\n      dup3\n      0xffffffff\n      and\n      0xe0\n      shl\n      dup2\n      mstore\n      0x04\n      add\n      dup1\n      dup3\n      0xffffffffffffffffffffffffffffffffffffffff\n      and\n      dup2\n      mstore\n      0x20\n      add\n      swap2\n      pop\n      pop\n      0x20\n      mload(0x40)\n      dup1\n      dup4\n      sub\n      dup2\n      dup7\n      dup1\n      extcodesize\n      iszero\n      dup1\n      iszero\n      tag_24\n      jumpi\n      0x00\n      dup1\n      revert\n    tag_24:\n      pop\n      gas\n      staticcall\n      iszero\n      dup1\n      iszero\n      tag_26\n      jumpi\n      returndatasize\n      0x00\n      dup1\n      returndatacopy\n      revert(0x00, returndatasize)\n    tag_26:\n      pop\n      pop\n      pop\n      pop\n      mload(0x40)\n      returndatasize\n      0x20\n      dup2\n      lt\n      iszero\n      tag_27\n      jumpi\n      0x00\n      dup1\n      revert\n    tag_27:\n      dup2\n      add\n      swap1\n      dup1\n      dup1\n      mload\n      swap1\n      0x20\n      add\n      swap1\n      swap3\n      swap2\n      swap1\n      pop\n      pop\n      pop\n        /* \"contracts/libraries/UniswapV3.sol\":675:712  IERC20(tA).balanceOf(pool) < amountIn */\n      lt\n        /* \"contracts/libraries/UniswapV3.sol\":671:722  if (IERC20(tA).balanceOf(pool) < amountIn) continue */\n      iszero\n      tag_28\n      jumpi\n        /* \"contracts/libraries/UniswapV3.sol\":714:722  continue */\n      pop\n      jump(tag_17)\n        /* \"contracts/libraries/UniswapV3.sol\":671:722  if (IERC20(tA).balanceOf(pool) < amountIn) continue */\n    tag_28:\n        /* \"contracts/libraries/UniswapV3.sol\":740:750  int24 tick */\n      0x00\n        /* \"contracts/libraries/UniswapV3.sol\":753:782  OracleLibrary.consult(pool,1) */\n      tag_29\n        /* \"contracts/libraries/UniswapV3.sol\":775:779  pool */\n      dup3\n        /* \"contracts/libraries/UniswapV3.sol\":780:781  1 */\n      0x01\n        /* \"contracts/libraries/UniswapV3.sol\":753:774  OracleLibrary.consult */\n      tag_30\n        /* \"contracts/libraries/UniswapV3.sol\":753:782  OracleLibrary.consult(pool,1) */\n      jump\t// in\n    tag_29:\n        /* \"contracts/libraries/UniswapV3.sol\":740:782  int24 tick = OracleLibrary.consult(pool,1) */\n      swap1\n      pop\n        /* \"contracts/libraries/UniswapV3.sol\":800:811  uint256 out */\n      0x00\n        /* \"contracts/libraries/UniswapV3.sol\":814:872  OracleLibrary.getQuoteAtTick(tick,uint128(amountIn),tA,tB) */\n      tag_31\n        /* \"contracts/libraries/UniswapV3.sol\":843:847  tick */\n      dup3\n        /* \"contracts/libraries/UniswapV3.sol\":856:864  amountIn */\n      dup10\n        /* \"contracts/libraries/UniswapV3.sol\":866:868  tA */\n      dup13\n        /* \"contracts/libraries/UniswapV3.sol\":869:871  tB */\n      dup13\n        /* \"contracts/libraries/UniswapV3.sol\":814:842  OracleLibrary.getQuoteAtTick */\n      tag_32\n        /* \"contracts/libraries/UniswapV3.sol\":814:872  OracleLibrary.getQuoteAtTick(tick,uint128(amountIn),tA,tB) */\n      jump\t// in\n    tag_31:\n        /* \"contracts/libraries/UniswapV3.sol\":800:872  uint256 out = OracleLibrary.getQuoteAtTick(tick,uint128(amountIn),tA,tB) */\n      swap1\n      pop\n        /* \"contracts/libraries/UniswapV3.sol\":900:909  amountOut */\n      dup7\n        /* \"contracts/libraries/UniswapV3.sol\":894:897  out */\n      dup2\n        /* \"contracts/libraries/UniswapV3.sol\":894:909  out > amountOut */\n      gt\n        /* \"contracts/libraries/UniswapV3.sol\":889:990  if ( out > amountOut) {... */\n      iszero\n      tag_33\n      jumpi\n        /* \"contracts/libraries/UniswapV3.sol\":941:944  out */\n      dup1\n        /* \"contracts/libraries/UniswapV3.sol\":929:944  amountOut = out */\n      swap7\n      pop\n        /* \"contracts/libraries/UniswapV3.sol\":968:972  fees */\n      dup5\n        /* \"contracts/libraries/UniswapV3.sol\":973:974  i */\n      dup5\n        /* \"contracts/libraries/UniswapV3.sol\":968:975  fees[i] */\n      0xff\n      and\n      0x04\n      dup2\n      lt\n      tag_34\n      jumpi\n      invalid\n    tag_34:\n      0x20\n      mul\n      add\n      mload\n        /* \"contracts/libraries/UniswapV3.sol\":962:975  fee = fees[i] */\n      0xffff\n      and\n      swap6\n      pop\n        /* \"contracts/libraries/UniswapV3.sol\":889:990  if ( out > amountOut) {... */\n    tag_33:\n        /* \"contracts/libraries/UniswapV3.sol\":498:1014  for(uint8 i=0;i<4;i++){... */\n      pop\n      pop\n      pop\n    tag_17:\n        /* \"contracts/libraries/UniswapV3.sol\":516:519  i++ */\n      dup1\n      dup1\n      0x01\n      add\n      swap2\n      pop\n      pop\n        /* \"contracts/libraries/UniswapV3.sol\":498:1014  for(uint8 i=0;i<4;i++){... */\n      jump(tag_15)\n    tag_16:\n      pop\n        /* \"contracts/libraries/UniswapV3.sol\":290:1024  function EstimateAmountOut(address factory,address tA,address tB,uint256 amountIn) external  view returns (uint256 amountOut,uint24 fee){... */\n      pop\n      swap5\n      pop\n      swap5\n      swap3\n      pop\n      pop\n      pop\n      jump\t// out\n        /* \"contracts/libraries/UniswapV3.sol\":1972:2503  function PoolExists(address factory,address t0,address t1,uint min0,uint min1) external view returns (bool){... */\n    tag_10:\n        /* \"contracts/libraries/UniswapV3.sol\":2074:2078  bool */\n      0x00\n        /* \"contracts/libraries/UniswapV3.sol\":2089:2110  uint16[4] memory fees */\n      dup1\n        /* \"contracts/libraries/UniswapV3.sol\":2089:2133  uint16[4] memory fees = [100,500,3000,10000] */\n      mload(0x40)\n      dup1\n      0x80\n      add\n      0x40\n      mstore\n      dup1\n        /* \"contracts/libraries/UniswapV3.sol\":2114:2117  100 */\n      0x64\n        /* \"contracts/libraries/UniswapV3.sol\":2089:2133  uint16[4] memory fees = [100,500,3000,10000] */\n      0xffff\n      and\n      dup2\n      mstore\n      0x20\n      add\n        /* \"contracts/libraries/UniswapV3.sol\":2118:2121  500 */\n      0x01f4\n        /* \"contracts/libraries/UniswapV3.sol\":2089:2133  uint16[4] memory fees = [100,500,3000,10000] */\n      0xffff\n      and\n      dup2\n      mstore\n      0x20\n      add\n        /* \"contracts/libraries/UniswapV3.sol\":2122:2126  3000 */\n      0x0bb8\n        /* \"contracts/libraries/UniswapV3.sol\":2089:2133  uint16[4] memory fees = [100,500,3000,10000] */\n      0xffff\n      and\n      dup2\n      mstore\n      0x20\n      add\n        /* \"contracts/libraries/UniswapV3.sol\":2127:2132  10000 */\n      0x2710\n        /* \"contracts/libraries/UniswapV3.sol\":2089:2133  uint16[4] memory fees = [100,500,3000,10000] */\n      0xffff\n      and\n      dup2\n      mstore\n      pop\n      swap1\n      pop\n        /* \"contracts/libraries/UniswapV3.sol\":2143:2162  uint16[4] memory fs */\n      tag_36\n      tag_37\n      jump\t// in\n    tag_36:\n        /* \"contracts/libraries/UniswapV3.sol\":2176:2183  uint8 i */\n      0x00\n        /* \"contracts/libraries/UniswapV3.sol\":2172:2475  for(uint8 i=0;i<4;i++){... */\n    tag_38:\n        /* \"contracts/libraries/UniswapV3.sol\":2188:2189  4 */\n      0x04\n        /* \"contracts/libraries/UniswapV3.sol\":2186:2187  i */\n      dup2\n        /* \"contracts/libraries/UniswapV3.sol\":2186:2189  i<4 */\n      0xff\n      and\n      lt\n        /* \"contracts/libraries/UniswapV3.sol\":2172:2475  for(uint8 i=0;i<4;i++){... */\n      iszero\n      tag_39\n      jumpi\n        /* \"contracts/libraries/UniswapV3.sol\":2207:2219  address pool */\n      0x00\n        /* \"contracts/libraries/UniswapV3.sol\":2240:2247  factory */\n      dup10\n        /* \"contracts/libraries/UniswapV3.sol\":2222:2256  IUniswapV3Factory(factory).getPool */\n      0xffffffffffffffffffffffffffffffffffffffff\n      and\n      0x1698ee82\n        /* \"contracts/libraries/UniswapV3.sol\":2257:2259  t0 */\n      dup11\n        /* \"contracts/libraries/UniswapV3.sol\":2260:2262  t1 */\n      dup11\n        /* \"contracts/libraries/UniswapV3.sol\":2263:2267  fees */\n      dup8\n        /* \"contracts/libraries/UniswapV3.sol\":2268:2269  i */\n      dup7\n        /* \"contracts/libraries/UniswapV3.sol\":2263:2270  fees[i] */\n      0xff\n      and\n      0x04\n      dup2\n      lt\n      tag_41\n      jumpi\n      invalid\n    tag_41:\n      0x20\n      mul\n      add\n      mload\n        /* \"contracts/libraries/UniswapV3.sol\":2222:2271  IUniswapV3Factory(factory).getPool(t0,t1,fees[i]) */\n      mload(0x40)\n      dup5\n      0xffffffff\n      and\n      0xe0\n      shl\n      dup2\n      mstore\n      0x04\n      add\n      dup1\n      dup5\n      0xffffffffffffffffffffffffffffffffffffffff\n      and\n      dup2\n      mstore\n      0x20\n      add\n      dup4\n      0xffffffffffffffffffffffffffffffffffffffff\n      and\n      dup2\n      mstore\n      0x20\n      add\n      dup3\n      0xffff\n      and\n      dup2\n      mstore\n      0x20\n      add\n      swap4\n      pop\n      pop\n      pop\n      pop\n      0x20\n      mload(0x40)\n      dup1\n      dup4\n      sub\n      dup2\n      dup7\n      dup1\n      extcodesize\n      iszero\n      dup1\n      iszero\n      tag_42\n      jumpi\n      0x00\n      dup1\n      revert\n    tag_42:\n      pop\n      gas\n      staticcall\n      iszero\n      dup1\n      iszero\n      tag_44\n      jumpi\n      returndatasize\n      0x00\n      dup1\n      returndatacopy\n      revert(0x00, returndatasize)\n    tag_44:\n      pop\n      pop\n      pop\n      pop\n      mload(0x40)\n      returndatasize\n      0x20\n      dup2\n      lt\n      iszero\n      tag_45\n      jumpi\n      0x00\n      dup1\n      revert\n    tag_45:\n      dup2\n      add\n      swap1\n      dup1\n      dup1\n      mload\n      swap1\n      0x20\n      add\n      swap1\n      swap3\n      swap2\n      swap1\n      pop\n      pop\n      pop\n        /* \"contracts/libraries/UniswapV3.sol\":2207:2271  address pool = IUniswapV3Factory(factory).getPool(t0,t1,fees[i]) */\n      swap1\n      pop\n        /* \"contracts/libraries/UniswapV3.sol\":2304:2305  0 */\n      0x00\n        /* \"contracts/libraries/UniswapV3.sol\":2288:2306  pool == address(0) */\n      0xffffffffffffffffffffffffffffffffffffffff\n      and\n        /* \"contracts/libraries/UniswapV3.sol\":2288:2292  pool */\n      dup2\n        /* \"contracts/libraries/UniswapV3.sol\":2288:2306  pool == address(0) */\n      0xffffffffffffffffffffffffffffffffffffffff\n      and\n      eq\n        /* \"contracts/libraries/UniswapV3.sol\":2284:2316  if (pool == address(0)) continue */\n      iszero\n      tag_46\n      jumpi\n        /* \"contracts/libraries/UniswapV3.sol\":2308:2316  continue */\n      pop\n      jump(tag_40)\n        /* \"contracts/libraries/UniswapV3.sol\":2284:2316  if (pool == address(0)) continue */\n    tag_46:\n        /* \"contracts/libraries/UniswapV3.sol\":2363:2367  min0 */\n      dup7\n        /* \"contracts/libraries/UniswapV3.sol\":2341:2343  t0 */\n      dup10\n        /* \"contracts/libraries/UniswapV3.sol\":2334:2354  IERC20(t0).balanceOf */\n      0xffffffffffffffffffffffffffffffffffffffff\n      and\n      0x70a08231\n        /* \"contracts/libraries/UniswapV3.sol\":2355:2359  pool */\n      dup4\n        /* \"contracts/libraries/UniswapV3.sol\":2334:2360  IERC20(t0).balanceOf(pool) */\n      mload(0x40)\n      dup3\n      0xffffffff\n      and\n      0xe0\n      shl\n      dup2\n      mstore\n      0x04\n      add\n      dup1\n      dup3\n      0xffffffffffffffffffffffffffffffffffffffff\n      and\n      dup2\n      mstore\n      0x20\n      add\n      swap2\n      pop\n      pop\n      0x20\n      mload(0x40)\n      dup1\n      dup4\n      sub\n      dup2\n      dup7\n      dup1\n      extcodesize\n      iszero\n      dup1\n      iszero\n      tag_47\n      jumpi\n      0x00\n      dup1\n      revert\n    tag_47:\n      pop\n      gas\n      staticcall\n      iszero\n      dup1\n      iszero\n      tag_49\n      jumpi\n      returndatasize\n      0x00\n      dup1\n      returndatacopy\n      revert(0x00, returndatasize)\n    tag_49:\n      pop\n      pop\n      pop\n      pop\n      mload(0x40)\n      returndatasize\n      0x20\n      dup2\n      lt\n      iszero\n      tag_50\n      jumpi\n      0x00\n      dup1\n      revert\n    tag_50:\n      dup2\n      add\n      swap1\n      dup1\n      dup1\n      mload\n      swap1\n      0x20\n      add\n      swap1\n      swap3\n      swap2\n      swap1\n      pop\n      pop\n      pop\n        /* \"contracts/libraries/UniswapV3.sol\":2334:2367  IERC20(t0).balanceOf(pool) < min0 */\n      lt\n        /* \"contracts/libraries/UniswapV3.sol\":2330:2377  if (IERC20(t0).balanceOf(pool) < min0) continue */\n      iszero\n      tag_51\n      jumpi\n        /* \"contracts/libraries/UniswapV3.sol\":2369:2377  continue */\n      pop\n      jump(tag_40)\n        /* \"contracts/libraries/UniswapV3.sol\":2330:2377  if (IERC20(t0).balanceOf(pool) < min0) continue */\n    tag_51:\n        /* \"contracts/libraries/UniswapV3.sol\":2424:2428  min1 */\n      dup6\n        /* \"contracts/libraries/UniswapV3.sol\":2402:2404  t1 */\n      dup9\n        /* \"contracts/libraries/UniswapV3.sol\":2395:2415  IERC20(t1).balanceOf */\n      0xffffffffffffffffffffffffffffffffffffffff\n      and\n      0x70a08231\n        /* \"contracts/libraries/UniswapV3.sol\":2416:2420  pool */\n      dup4\n        /* \"contracts/libraries/UniswapV3.sol\":2395:2421  IERC20(t1).balanceOf(pool) */\n      mload(0x40)\n      dup3\n      0xffffffff\n      and\n      0xe0\n      shl\n      dup2\n      mstore\n      0x04\n      add\n      dup1\n      dup3\n      0xffffffffffffffffffffffffffffffffffffffff\n      and\n      dup2\n      mstore\n      0x20\n      add\n      swap2\n      pop\n      pop\n      0x20\n      mload(0x40)\n      dup1\n      dup4\n      sub\n      dup2\n      dup7\n      dup1\n      extcodesize\n      iszero\n      dup1\n      iszero\n      tag_52\n      jumpi\n      0x00\n      dup1\n      revert\n    tag_52:\n      pop\n      gas\n      staticcall\n      iszero\n      dup1\n      iszero\n      tag_54\n      jumpi\n      returndatasize\n      0x00\n      dup1\n      returndatacopy\n      revert(0x00, returndatasize)\n    tag_54:\n      pop\n      pop\n      pop\n      pop\n      mload(0x40)\n      returndatasize\n      0x20\n      dup2\n      lt\n      iszero\n      tag_55\n      jumpi\n      0x00\n      dup1\n      revert\n    tag_55:\n      dup2\n      add\n      swap1\n      dup1\n      dup1\n      mload\n      swap1\n      0x20\n      add\n      swap1\n      swap3\n      swap2\n      swap1\n      pop\n      pop\n      pop\n        /* \"contracts/libraries/UniswapV3.sol\":2395:2428  IERC20(t1).balanceOf(pool) < min1 */\n      lt\n        /* \"contracts/libraries/UniswapV3.sol\":2391:2438  if (IERC20(t1).balanceOf(pool) < min1) continue */\n      iszero\n      tag_56\n      jumpi\n        /* \"contracts/libraries/UniswapV3.sol\":2430:2438  continue */\n      pop\n      jump(tag_40)\n        /* \"contracts/libraries/UniswapV3.sol\":2391:2438  if (IERC20(t1).balanceOf(pool) < min1) continue */\n    tag_56:\n        /* \"contracts/libraries/UniswapV3.sol\":2460:2464  true */\n      0x01\n        /* \"contracts/libraries/UniswapV3.sol\":2453:2464  return true */\n      swap5\n      pop\n      pop\n      pop\n      pop\n      pop\n      jump(tag_35)\n        /* \"contracts/libraries/UniswapV3.sol\":2172:2475  for(uint8 i=0;i<4;i++){... */\n    tag_40:\n        /* \"contracts/libraries/UniswapV3.sol\":2190:2193  i++ */\n      dup1\n      dup1\n      0x01\n      add\n      swap2\n      pop\n      pop\n        /* \"contracts/libraries/UniswapV3.sol\":2172:2475  for(uint8 i=0;i<4;i++){... */\n      jump(tag_38)\n    tag_39:\n      pop\n        /* \"contracts/libraries/UniswapV3.sol\":2491:2496  false */\n      0x00\n        /* \"contracts/libraries/UniswapV3.sol\":2484:2496  return false */\n      swap3\n      pop\n      pop\n      pop\n        /* \"contracts/libraries/UniswapV3.sol\":1972:2503  function PoolExists(address factory,address t0,address t1,uint min0,uint min1) external view returns (bool){... */\n    tag_35:\n      swap6\n      swap5\n      pop\n      pop\n      pop\n      pop\n      pop\n      jump\t// out\n        /* \"contracts/libraries/UniswapV3.sol\":1034:1965  function Price(address factory,address t0,address t1) external view returns (uint256 price,uint24 fee){... */\n    tag_13:\n        /* \"contracts/libraries/UniswapV3.sol\":1111:1124  uint256 price */\n      0x00\n        /* \"contracts/libraries/UniswapV3.sol\":1125:1135  uint24 fee */\n      dup1\n        /* \"contracts/libraries/UniswapV3.sol\":1146:1167  uint16[4] memory fees */\n      0x00\n        /* \"contracts/libraries/UniswapV3.sol\":1146:1190  uint16[4] memory fees = [100,500,3000,10000] */\n      mload(0x40)\n      dup1\n      0x80\n      add\n      0x40\n      mstore\n      dup1\n        /* \"contracts/libraries/UniswapV3.sol\":1171:1174  100 */\n      0x64\n        /* \"contracts/libraries/UniswapV3.sol\":1146:1190  uint16[4] memory fees = [100,500,3000,10000] */\n      0xffff\n      and\n      dup2\n      mstore\n      0x20\n      add\n        /* \"contracts/libraries/UniswapV3.sol\":1175:1178  500 */\n      0x01f4\n        /* \"contracts/libraries/UniswapV3.sol\":1146:1190  uint16[4] memory fees = [100,500,3000,10000] */\n      0xffff\n      and\n      dup2\n      mstore\n      0x20\n      add\n        /* \"contracts/libraries/UniswapV3.sol\":1179:1183  3000 */\n      0x0bb8\n        /* \"contracts/libraries/UniswapV3.sol\":1146:1190  uint16[4] memory fees = [100,500,3000,10000] */\n      0xffff\n      and\n      dup2\n      mstore\n      0x20\n      add\n        /* \"contracts/libraries/UniswapV3.sol\":1184:1189  10000 */\n      0x2710\n        /* \"contracts/libraries/UniswapV3.sol\":1146:1190  uint16[4] memory fees = [100,500,3000,10000] */\n      0xffff\n      and\n      dup2\n      mstore\n      pop\n      swap1\n      pop\n        /* \"contracts/libraries/UniswapV3.sol\":1204:1211  uint8 i */\n      0x00\n        /* \"contracts/libraries/UniswapV3.sol\":1200:1931  for(uint8 i=0;i<4;i++){... */\n    tag_58:\n        /* \"contracts/libraries/UniswapV3.sol\":1216:1217  4 */\n      0x04\n        /* \"contracts/libraries/UniswapV3.sol\":1214:1215  i */\n      dup2\n        /* \"contracts/libraries/UniswapV3.sol\":1214:1217  i<4 */\n      0xff\n      and\n      lt\n        /* \"contracts/libraries/UniswapV3.sol\":1200:1931  for(uint8 i=0;i<4;i++){... */\n      iszero\n      tag_59\n      jumpi\n        /* \"contracts/libraries/UniswapV3.sol\":1232:1244  address pool */\n      0x00\n        /* \"contracts/libraries/UniswapV3.sol\":1265:1272  factory */\n      dup8\n        /* \"contracts/libraries/UniswapV3.sol\":1247:1281  IUniswapV3Factory(factory).getPool */\n      0xffffffffffffffffffffffffffffffffffffffff\n      and\n      0x1698ee82\n        /* \"contracts/libraries/UniswapV3.sol\":1282:1284  t0 */\n      dup9\n        /* \"contracts/libraries/UniswapV3.sol\":1285:1287  t1 */\n      dup9\n        /* \"contracts/libraries/UniswapV3.sol\":1288:1292  fees */\n      dup7\n        /* \"contracts/libraries/UniswapV3.sol\":1293:1294  i */\n      dup7\n        /* \"contracts/libraries/UniswapV3.sol\":1288:1295  fees[i] */\n      0xff\n      and\n      0x04\n      dup2\n      lt\n      tag_61\n      jumpi\n      invalid\n    tag_61:\n      0x20\n      mul\n      add\n      mload\n        /* \"contracts/libraries/UniswapV3.sol\":1247:1296  IUniswapV3Factory(factory).getPool(t0,t1,fees[i]) */\n      mload(0x40)\n      dup5\n      0xffffffff\n      and\n      0xe0\n      shl\n      dup2\n      mstore\n      0x04\n      add\n      dup1\n      dup5\n      0xffffffffffffffffffffffffffffffffffffffff\n      and\n      dup2\n      mstore\n      0x20\n      add\n      dup4\n      0xffffffffffffffffffffffffffffffffffffffff\n      and\n      dup2\n      mstore\n      0x20\n      add\n      dup3\n      0xffff\n      and\n      dup2\n      mstore\n      0x20\n      add\n      swap4\n      pop\n      pop\n      pop\n      pop\n      0x20\n      mload(0x40)\n      dup1\n      dup4\n      sub\n      dup2\n      dup7\n      dup1\n      extcodesize\n      iszero\n      dup1\n      iszero\n      tag_62\n      jumpi\n      0x00\n      dup1\n      revert\n    tag_62:\n      pop\n      gas\n      staticcall\n      iszero\n      dup1\n      iszero\n      tag_64\n      jumpi\n      returndatasize\n      0x00\n      dup1\n      returndatacopy\n      revert(0x00, returndatasize)\n    tag_64:\n      pop\n      pop\n      pop\n      pop\n      mload(0x40)\n      returndatasize\n      0x20\n      dup2\n      lt\n      iszero\n      tag_65\n      jumpi\n      0x00\n      dup1\n      revert\n    tag_65:\n      dup2\n      add\n      swap1\n      dup1\n      dup1\n      mload\n      swap1\n      0x20\n      add\n      swap1\n      swap3\n      swap2\n      swap1\n      pop\n      pop\n      pop\n        /* \"contracts/libraries/UniswapV3.sol\":1232:1296  address pool = IUniswapV3Factory(factory).getPool(t0,t1,fees[i]) */\n      swap1\n      pop\n        /* \"contracts/libraries/UniswapV3.sol\":1326:1327  0 */\n      0x00\n        /* \"contracts/libraries/UniswapV3.sol\":1310:1328  pool == address(0) */\n      0xffffffffffffffffffffffffffffffffffffffff\n      and\n        /* \"contracts/libraries/UniswapV3.sol\":1310:1314  pool */\n      dup2\n        /* \"contracts/libraries/UniswapV3.sol\":1310:1328  pool == address(0) */\n      0xffffffffffffffffffffffffffffffffffffffff\n      and\n      eq\n        /* \"contracts/libraries/UniswapV3.sol\":1306:1338  if (pool == address(0)) continue */\n      iszero\n      tag_66\n      jumpi\n        /* \"contracts/libraries/UniswapV3.sol\":1330:1338  continue */\n      pop\n      jump(tag_60)\n        /* \"contracts/libraries/UniswapV3.sol\":1306:1338  if (pool == address(0)) continue */\n    tag_66:\n        /* \"contracts/libraries/UniswapV3.sol\":1358:1366  uint8 d0 */\n      0x00\n        /* \"contracts/libraries/UniswapV3.sol\":1376:1378  t0 */\n      dup8\n        /* \"contracts/libraries/UniswapV3.sol\":1369:1388  IERC20(t0).decimals */\n      0xffffffffffffffffffffffffffffffffffffffff\n      and\n      0x313ce567\n        /* \"contracts/libraries/UniswapV3.sol\":1369:1390  IERC20(t0).decimals() */\n      mload(0x40)\n      dup2\n      0xffffffff\n      and\n      0xe0\n      shl\n      dup2\n      mstore\n      0x04\n      add\n      0x20\n      mload(0x40)\n      dup1\n      dup4\n      sub\n      dup2\n      dup7\n      dup1\n      extcodesize\n      iszero\n      dup1\n      iszero\n      tag_67\n      jumpi\n      0x00\n      dup1\n      revert\n    tag_67:\n      pop\n      gas\n      staticcall\n      iszero\n      dup1\n      iszero\n      tag_69\n      jumpi\n      returndatasize\n      0x00\n      dup1\n      returndatacopy\n      revert(0x00, returndatasize)\n    tag_69:\n      pop\n      pop\n      pop\n      pop\n      mload(0x40)\n      returndatasize\n      0x20\n      dup2\n      lt\n      iszero\n      tag_70\n      jumpi\n      0x00\n      dup1\n      revert\n    tag_70:\n      dup2\n      add\n      swap1\n      dup1\n      dup1\n      mload\n      swap1\n      0x20\n      add\n      swap1\n      swap3\n      swap2\n      swap1\n      pop\n      pop\n      pop\n        /* \"contracts/libraries/UniswapV3.sol\":1358:1390  uint8 d0 = IERC20(t0).decimals() */\n      swap1\n      pop\n        /* \"contracts/libraries/UniswapV3.sol\":1400:1408  uint8 d1 */\n      0x00\n        /* \"contracts/libraries/UniswapV3.sol\":1418:1420  t1 */\n      dup8\n        /* \"contracts/libraries/UniswapV3.sol\":1411:1430  IERC20(t1).decimals */\n      0xffffffffffffffffffffffffffffffffffffffff\n      and\n      0x313ce567\n        /* \"contracts/libraries/UniswapV3.sol\":1411:1432  IERC20(t1).decimals() */\n      mload(0x40)\n      dup2\n      0xffffffff\n      and\n      0xe0\n      shl\n      dup2\n      mstore\n      0x04\n      add\n      0x20\n      mload(0x40)\n      dup1\n      dup4\n      sub\n      dup2\n      dup7\n      dup1\n      extcodesize\n      iszero\n      dup1\n      iszero\n      tag_71\n      jumpi\n      0x00\n      dup1\n      revert\n    tag_71:\n      pop\n      gas\n      staticcall\n      iszero\n      dup1\n      iszero\n      tag_73\n      jumpi\n      returndatasize\n      0x00\n      dup1\n      returndatacopy\n      revert(0x00, returndatasize)\n    tag_73:\n      pop\n      pop\n      pop\n      pop\n      mload(0x40)\n      returndatasize\n      0x20\n      dup2\n      lt\n      iszero\n      tag_74\n      jumpi\n      0x00\n      dup1\n      revert\n    tag_74:\n      dup2\n      add\n      swap1\n      dup1\n      dup1\n      mload\n      swap1\n      0x20\n      add\n      swap1\n      swap3\n      swap2\n      swap1\n      pop\n      pop\n      pop\n        /* \"contracts/libraries/UniswapV3.sol\":1400:1432  uint8 d1 = IERC20(t1).decimals() */\n      swap1\n      pop\n        /* \"contracts/libraries/UniswapV3.sol\":1488:1490  d0 */\n      dup2\n        /* \"contracts/libraries/UniswapV3.sol\":1484:1490  10**d0 */\n      0xff\n      and\n        /* \"contracts/libraries/UniswapV3.sol\":1484:1486  10 */\n      0x0a\n        /* \"contracts/libraries/UniswapV3.sol\":1484:1490  10**d0 */\n      exp\n        /* \"contracts/libraries/UniswapV3.sol\":1462:1464  t0 */\n      dup10\n        /* \"contracts/libraries/UniswapV3.sol\":1455:1475  IERC20(t0).balanceOf */\n      0xffffffffffffffffffffffffffffffffffffffff\n      and\n      0x70a08231\n        /* \"contracts/libraries/UniswapV3.sol\":1476:1480  pool */\n      dup6\n        /* \"contracts/libraries/UniswapV3.sol\":1455:1481  IERC20(t0).balanceOf(pool) */\n      mload(0x40)\n      dup3\n      0xffffffff\n      and\n      0xe0\n      shl\n      dup2\n      mstore\n      0x04\n      add\n      dup1\n      dup3\n      0xffffffffffffffffffffffffffffffffffffffff\n      and\n      dup2\n      mstore\n      0x20\n      add\n      swap2\n      pop\n      pop\n      0x20\n      mload(0x40)\n      dup1\n      dup4\n      sub\n      dup2\n      dup7\n      dup1\n      extcodesize\n      iszero\n      dup1\n      iszero\n      tag_75\n      jumpi\n      0x00\n      dup1\n      revert\n    tag_75:\n      pop\n      gas\n      staticcall\n      iszero\n      dup1\n      iszero\n      tag_77\n      jumpi\n      returndatasize\n      0x00\n      dup1\n      returndatacopy\n      revert(0x00, returndatasize)\n    tag_77:\n      pop\n      pop\n      pop\n      pop\n      mload(0x40)\n      returndatasize\n      0x20\n      dup2\n      lt\n      iszero\n      tag_78\n      jumpi\n      0x00\n      dup1\n      revert\n    tag_78:\n      dup2\n      add\n      swap1\n      dup1\n      dup1\n      mload\n      swap1\n      0x20\n      add\n      swap1\n      swap3\n      swap2\n      swap1\n      pop\n      pop\n      pop\n        /* \"contracts/libraries/UniswapV3.sol\":1455:1490  IERC20(t0).balanceOf(pool) < 10**d0 */\n      lt\n        /* \"contracts/libraries/UniswapV3.sol\":1451:1500  if (IERC20(t0).balanceOf(pool) < 10**d0) continue */\n      iszero\n      tag_79\n      jumpi\n        /* \"contracts/libraries/UniswapV3.sol\":1492:1500  continue */\n      pop\n      pop\n      pop\n      jump(tag_60)\n        /* \"contracts/libraries/UniswapV3.sol\":1451:1500  if (IERC20(t0).balanceOf(pool) < 10**d0) continue */\n    tag_79:\n        /* \"contracts/libraries/UniswapV3.sol\":1548:1550  d1 */\n      dup1\n        /* \"contracts/libraries/UniswapV3.sol\":1544:1550  10**d1 */\n      0xff\n      and\n        /* \"contracts/libraries/UniswapV3.sol\":1544:1546  10 */\n      0x0a\n        /* \"contracts/libraries/UniswapV3.sol\":1544:1550  10**d1 */\n      exp\n        /* \"contracts/libraries/UniswapV3.sol\":1522:1524  t1 */\n      dup9\n        /* \"contracts/libraries/UniswapV3.sol\":1515:1535  IERC20(t1).balanceOf */\n      0xffffffffffffffffffffffffffffffffffffffff\n      and\n      0x70a08231\n        /* \"contracts/libraries/UniswapV3.sol\":1536:1540  pool */\n      dup6\n        /* \"contracts/libraries/UniswapV3.sol\":1515:1541  IERC20(t1).balanceOf(pool) */\n      mload(0x40)\n      dup3\n      0xffffffff\n      and\n      0xe0\n      shl\n      dup2\n      mstore\n      0x04\n      add\n      dup1\n      dup3\n      0xffffffffffffffffffffffffffffffffffffffff\n      and\n      dup2\n      mstore\n      0x20\n      add\n      swap2\n      pop\n      pop\n      0x20\n      mload(0x40)\n      dup1\n      dup4\n      sub\n      dup2\n      dup7\n      dup1\n      extcodesize\n      iszero\n      dup1\n      iszero\n      tag_80\n      jumpi\n      0x00\n      dup1\n      revert\n    tag_80:\n      pop\n      gas\n      staticcall\n      iszero\n      dup1\n      iszero\n      tag_82\n      jumpi\n      returndatasize\n      0x00\n      dup1\n      returndatacopy\n      revert(0x00, returndatasize)\n    tag_82:\n      pop\n      pop\n      pop\n      pop\n      mload(0x40)\n      returndatasize\n      0x20\n      dup2\n      lt\n      iszero\n      tag_83\n      jumpi\n      0x00\n      dup1\n      revert\n    tag_83:\n      dup2\n      add\n      swap1\n      dup1\n      dup1\n      mload\n      swap1\n      0x20\n      add\n      swap1\n      swap3\n      swap2\n      swap1\n      pop\n      pop\n      pop\n        /* \"contracts/libraries/UniswapV3.sol\":1515:1550  IERC20(t1).balanceOf(pool) < 10**d1 */\n      lt\n        /* \"contracts/libraries/UniswapV3.sol\":1511:1560  if (IERC20(t1).balanceOf(pool) < 10**d1) continue */\n      iszero\n      tag_84\n      jumpi\n        /* \"contracts/libraries/UniswapV3.sol\":1552:1560  continue */\n      pop\n      pop\n      pop\n      jump(tag_60)\n        /* \"contracts/libraries/UniswapV3.sol\":1511:1560  if (IERC20(t1).balanceOf(pool) < 10**d1) continue */\n    tag_84:\n        /* \"contracts/libraries/UniswapV3.sol\":1573:1583  int24 tick */\n      0x00\n        /* \"contracts/libraries/UniswapV3.sol\":1586:1615  OracleLibrary.consult(pool,1) */\n      tag_85\n        /* \"contracts/libraries/UniswapV3.sol\":1608:1612  pool */\n      dup5\n        /* \"contracts/libraries/UniswapV3.sol\":1613:1614  1 */\n      0x01\n        /* \"contracts/libraries/UniswapV3.sol\":1586:1607  OracleLibrary.consult */\n      tag_30\n        /* \"contracts/libraries/UniswapV3.sol\":1586:1615  OracleLibrary.consult(pool,1) */\n      jump\t// in\n    tag_85:\n        /* \"contracts/libraries/UniswapV3.sol\":1573:1615  int24 tick = OracleLibrary.consult(pool,1) */\n      swap1\n      pop\n        /* \"contracts/libraries/UniswapV3.sol\":1625:1642  uint256 amountOut */\n      0x00\n        /* \"contracts/libraries/UniswapV3.sol\":1645:1701  OracleLibrary.getQuoteAtTick(tick,uint128(10**d0),t0,t1) */\n      tag_86\n        /* \"contracts/libraries/UniswapV3.sol\":1674:1678  tick */\n      dup3\n        /* \"contracts/libraries/UniswapV3.sol\":1691:1693  d0 */\n      dup6\n        /* \"contracts/libraries/UniswapV3.sol\":1687:1693  10**d0 */\n      0xff\n      and\n        /* \"contracts/libraries/UniswapV3.sol\":1687:1689  10 */\n      0x0a\n        /* \"contracts/libraries/UniswapV3.sol\":1687:1693  10**d0 */\n      exp\n        /* \"contracts/libraries/UniswapV3.sol\":1695:1697  t0 */\n      dup14\n        /* \"contracts/libraries/UniswapV3.sol\":1698:1700  t1 */\n      dup14\n        /* \"contracts/libraries/UniswapV3.sol\":1645:1673  OracleLibrary.getQuoteAtTick */\n      tag_32\n        /* \"contracts/libraries/UniswapV3.sol\":1645:1701  OracleLibrary.getQuoteAtTick(tick,uint128(10**d0),t0,t1) */\n      jump\t// in\n    tag_86:\n        /* \"contracts/libraries/UniswapV3.sol\":1625:1701  uint256 amountOut = OracleLibrary.getQuoteAtTick(tick,uint128(10**d0),t0,t1) */\n      swap1\n      pop\n        /* \"contracts/libraries/UniswapV3.sol\":1720:1721  0 */\n      0x00\n        /* \"contracts/libraries/UniswapV3.sol\":1715:1716  i */\n      dup7\n        /* \"contracts/libraries/UniswapV3.sol\":1715:1721  i == 0 */\n      0xff\n      and\n      eq\n        /* \"contracts/libraries/UniswapV3.sol\":1711:1791  if (i == 0){... */\n      iszero\n      tag_87\n      jumpi\n        /* \"contracts/libraries/UniswapV3.sol\":1744:1753  amountOut */\n      dup1\n        /* \"contracts/libraries/UniswapV3.sol\":1736:1753  price = amountOut */\n      swap9\n      pop\n        /* \"contracts/libraries/UniswapV3.sol\":1773:1777  fees */\n      dup7\n        /* \"contracts/libraries/UniswapV3.sol\":1778:1779  i */\n      dup7\n        /* \"contracts/libraries/UniswapV3.sol\":1773:1780  fees[i] */\n      0xff\n      and\n      0x04\n      dup2\n      lt\n      tag_88\n      jumpi\n      invalid\n    tag_88:\n      0x20\n      mul\n      add\n      mload\n        /* \"contracts/libraries/UniswapV3.sol\":1767:1780  fee = fees[i] */\n      0xffff\n      and\n      swap8\n      pop\n        /* \"contracts/libraries/UniswapV3.sol\":1711:1791  if (i == 0){... */\n    tag_87:\n        /* \"contracts/libraries/UniswapV3.sol\":1808:1809  0 */\n      0x00\n        /* \"contracts/libraries/UniswapV3.sol\":1804:1805  i */\n      dup7\n        /* \"contracts/libraries/UniswapV3.sol\":1804:1809  i > 0 */\n      0xff\n      and\n      gt\n        /* \"contracts/libraries/UniswapV3.sol\":1804:1846  i > 0 && (price == 0 || amountOut < price) */\n      dup1\n      iszero\n      tag_89\n      jumpi\n      pop\n        /* \"contracts/libraries/UniswapV3.sol\":1823:1824  0 */\n      0x00\n        /* \"contracts/libraries/UniswapV3.sol\":1814:1819  price */\n      dup10\n        /* \"contracts/libraries/UniswapV3.sol\":1814:1824  price == 0 */\n      eq\n        /* \"contracts/libraries/UniswapV3.sol\":1814:1845  price == 0 || amountOut < price */\n      dup1\n      tag_90\n      jumpi\n      pop\n        /* \"contracts/libraries/UniswapV3.sol\":1840:1845  price */\n      dup9\n        /* \"contracts/libraries/UniswapV3.sol\":1828:1837  amountOut */\n      dup2\n        /* \"contracts/libraries/UniswapV3.sol\":1828:1845  amountOut < price */\n      lt\n        /* \"contracts/libraries/UniswapV3.sol\":1814:1845  price == 0 || amountOut < price */\n    tag_90:\n        /* \"contracts/libraries/UniswapV3.sol\":1804:1846  i > 0 && (price == 0 || amountOut < price) */\n    tag_89:\n        /* \"contracts/libraries/UniswapV3.sol\":1800:1921  if (i > 0 && (price == 0 || amountOut < price)) {... */\n      iszero\n      tag_91\n      jumpi\n        /* \"contracts/libraries/UniswapV3.sol\":1870:1879  amountOut */\n      dup1\n        /* \"contracts/libraries/UniswapV3.sol\":1862:1879  price = amountOut */\n      swap9\n      pop\n        /* \"contracts/libraries/UniswapV3.sol\":1899:1903  fees */\n      dup7\n        /* \"contracts/libraries/UniswapV3.sol\":1904:1905  i */\n      dup7\n        /* \"contracts/libraries/UniswapV3.sol\":1899:1906  fees[i] */\n      0xff\n      and\n      0x04\n      dup2\n      lt\n      tag_92\n      jumpi\n      invalid\n    tag_92:\n      0x20\n      mul\n      add\n      mload\n        /* \"contracts/libraries/UniswapV3.sol\":1893:1906  fee = fees[i] */\n      0xffff\n      and\n      swap8\n      pop\n        /* \"contracts/libraries/UniswapV3.sol\":1800:1921  if (i > 0 && (price == 0 || amountOut < price)) {... */\n    tag_91:\n        /* \"contracts/libraries/UniswapV3.sol\":1200:1931  for(uint8 i=0;i<4;i++){... */\n      pop\n      pop\n      pop\n      pop\n      pop\n    tag_60:\n        /* \"contracts/libraries/UniswapV3.sol\":1218:1221  i++ */\n      dup1\n      dup1\n      0x01\n      add\n      swap2\n      pop\n      pop\n        /* \"contracts/libraries/UniswapV3.sol\":1200:1931  for(uint8 i=0;i<4;i++){... */\n      jump(tag_58)\n    tag_59:\n      pop\n        /* \"contracts/libraries/UniswapV3.sol\":1940:1958  return (price,fee) */\n      pop\n        /* \"contracts/libraries/UniswapV3.sol\":1034:1965  function Price(address factory,address t0,address t1) external view returns (uint256 price,uint24 fee){... */\n      swap4\n      pop\n      swap4\n      swap2\n      pop\n      pop\n      jump\t// out\n        /* \"contracts/libraries/OracleLibrary.sol\":270:927  function consult(address pool, uint32 secondsAgo)... */\n    tag_30:\n        /* \"contracts/libraries/OracleLibrary.sol\":367:377  int24 tick */\n      0x00\n        /* \"contracts/libraries/OracleLibrary.sol\":415:416  0 */\n      dup1\n        /* \"contracts/libraries/OracleLibrary.sol\":401:411  secondsAgo */\n      dup3\n        /* \"contracts/libraries/OracleLibrary.sol\":401:416  secondsAgo != 0 */\n      0xffffffff\n      and\n      eq\n      iszero\n        /* \"contracts/libraries/OracleLibrary.sol\":393:423  require(secondsAgo != 0, 'BP') */\n      tag_94\n      jumpi\n      mload(0x40)\n      0x08c379a000000000000000000000000000000000000000000000000000000000\n      dup2\n      mstore\n      0x04\n      add\n      dup1\n      dup1\n      0x20\n      add\n      dup3\n      dup2\n      sub\n      dup3\n      mstore\n      0x02\n      dup2\n      mstore\n      0x20\n      add\n      dup1\n      0x4250000000000000000000000000000000000000000000000000000000000000\n      dup2\n      mstore\n      pop\n      0x20\n      add\n      swap2\n      pop\n      pop\n      mload(0x40)\n      dup1\n      swap2\n      sub\n      swap1\n      revert\n    tag_94:\n        /* \"contracts/libraries/OracleLibrary.sol\":434:461  uint32[] memory secondsAgos */\n      0x00\n        /* \"contracts/libraries/OracleLibrary.sol\":477:478  2 */\n      0x02\n        /* \"contracts/libraries/OracleLibrary.sol\":464:479  new uint32[](2) */\n      0xffffffffffffffff\n      dup2\n      gt\n      dup1\n      iszero\n      tag_95\n      jumpi\n      0x00\n      dup1\n      revert\n    tag_95:\n      pop\n      mload(0x40)\n      swap1\n      dup1\n      dup3\n      mstore\n      dup1\n      0x20\n      mul\n      0x20\n      add\n      dup3\n      add\n      0x40\n      mstore\n      dup1\n      iszero\n      tag_96\n      jumpi\n      dup2\n      0x20\n      add\n      0x20\n      dup3\n      mul\n      dup1\n      calldatasize\n      dup4\n      calldatacopy\n      dup1\n      dup3\n      add\n      swap2\n      pop\n      pop\n      swap1\n      pop\n    tag_96:\n      pop\n        /* \"contracts/libraries/OracleLibrary.sol\":434:479  uint32[] memory secondsAgos = new uint32[](2) */\n      swap1\n      pop\n        /* \"contracts/libraries/OracleLibrary.sol\":506:516  secondsAgo */\n      dup3\n        /* \"contracts/libraries/OracleLibrary.sol\":489:500  secondsAgos */\n      dup2\n        /* \"contracts/libraries/OracleLibrary.sol\":501:502  0 */\n      0x00\n        /* \"contracts/libraries/OracleLibrary.sol\":489:503  secondsAgos[0] */\n      dup2\n      mload\n      dup2\n      lt\n      tag_97\n      jumpi\n      invalid\n    tag_97:\n      0x20\n      mul\n      0x20\n      add\n      add\n        /* \"contracts/libraries/OracleLibrary.sol\":489:516  secondsAgos[0] = secondsAgo */\n      swap1\n      0xffffffff\n      and\n      swap1\n      dup2\n      0xffffffff\n      and\n      dup2\n      mstore\n      pop\n      pop\n        /* \"contracts/libraries/OracleLibrary.sol\":543:544  0 */\n      0x00\n        /* \"contracts/libraries/OracleLibrary.sol\":526:537  secondsAgos */\n      dup2\n        /* \"contracts/libraries/OracleLibrary.sol\":538:539  1 */\n      0x01\n        /* \"contracts/libraries/OracleLibrary.sol\":526:540  secondsAgos[1] */\n      dup2\n      mload\n      dup2\n      lt\n      tag_98\n      jumpi\n      invalid\n    tag_98:\n      0x20\n      mul\n      0x20\n      add\n      add\n        /* \"contracts/libraries/OracleLibrary.sol\":526:544  secondsAgos[1] = 0 */\n      swap1\n      0xffffffff\n      and\n      swap1\n      dup2\n      0xffffffff\n      and\n      dup2\n      mstore\n      pop\n      pop\n        /* \"contracts/libraries/OracleLibrary.sol\":556:586  int56[] memory tickCumulatives */\n      0x00\n        /* \"contracts/libraries/OracleLibrary.sol\":619:623  pool */\n      dup5\n        /* \"contracts/libraries/OracleLibrary.sol\":604:632  IUniswapV3Pool(pool).observe */\n      0xffffffffffffffffffffffffffffffffffffffff\n      and\n      0x883bdbfd\n        /* \"contracts/libraries/OracleLibrary.sol\":633:644  secondsAgos */\n      dup4\n        /* \"contracts/libraries/OracleLibrary.sol\":604:645  IUniswapV3Pool(pool).observe(secondsAgos) */\n      mload(0x40)\n      dup3\n      0xffffffff\n      and\n      0xe0\n      shl\n      dup2\n      mstore\n      0x04\n      add\n      dup1\n      dup1\n      0x20\n      add\n      dup3\n      dup2\n      sub\n      dup3\n      mstore\n      dup4\n      dup2\n      dup2\n      mload\n      dup2\n      mstore\n      0x20\n      add\n      swap2\n      pop\n      dup1\n      mload\n      swap1\n      0x20\n      add\n      swap1\n      0x20\n      mul\n      dup1\n      dup4\n      dup4\n      0x00\n    tag_99:\n      dup4\n      dup2\n      lt\n      iszero\n      tag_101\n      jumpi\n      dup1\n      dup3\n      add\n      mload\n      dup2\n      dup5\n      add\n      mstore\n      0x20\n      dup2\n      add\n      swap1\n      pop\n      jump(tag_99)\n    tag_101:\n      pop\n      pop\n      pop\n      pop\n      swap1\n      pop\n      add\n      swap3\n      pop\n      pop\n      pop\n      0x00\n      mload(0x40)\n      dup1\n      dup4\n      sub\n      dup2\n      dup7\n      dup1\n      extcodesize\n      iszero\n      dup1\n      iszero\n      tag_102\n      jumpi\n      0x00\n      dup1\n      revert\n    tag_102:\n      pop\n      gas\n      staticcall\n      iszero\n      dup1\n      iszero\n      tag_104\n      jumpi\n      returndatasize\n      0x00\n      dup1\n      returndatacopy\n      revert(0x00, returndatasize)\n    tag_104:\n      pop\n      pop\n      pop\n      pop\n      mload(0x40)\n      returndatasize\n      0x00\n      dup3\n      returndatacopy\n      returndatasize\n      not(0x1f)\n      0x1f\n      dup3\n      add\n      and\n      dup3\n      add\n      dup1\n      0x40\n      mstore\n      pop\n      0x40\n      dup2\n      lt\n      iszero\n      tag_105\n      jumpi\n      0x00\n      dup1\n      revert\n    tag_105:\n      dup2\n      add\n      swap1\n      dup1\n      dup1\n      mload\n      mload(0x40)\n      swap4\n      swap3\n      swap2\n      swap1\n      dup5\n      0x0100000000\n      dup3\n      gt\n      iszero\n      tag_106\n      jumpi\n      0x00\n      dup1\n      revert\n    tag_106:\n      dup4\n      dup3\n      add\n      swap2\n      pop\n      0x20\n      dup3\n      add\n      dup6\n      dup2\n      gt\n      iszero\n      tag_107\n      jumpi\n      0x00\n      dup1\n      revert\n    tag_107:\n      dup3\n      mload\n      dup7\n      0x20\n      dup3\n      mul\n      dup4\n      add\n      gt\n      0x0100000000\n      dup3\n      gt\n      or\n      iszero\n      tag_108\n      jumpi\n      0x00\n      dup1\n      revert\n    tag_108:\n      dup1\n      dup4\n      mstore\n      0x20\n      dup4\n      add\n      swap3\n      pop\n      pop\n      pop\n      swap1\n      dup1\n      mload\n      swap1\n      0x20\n      add\n      swap1\n      0x20\n      mul\n      dup1\n      dup4\n      dup4\n      0x00\n    tag_109:\n      dup4\n      dup2\n      lt\n      iszero\n      tag_111\n      jumpi\n      dup1\n      dup3\n      add\n      mload\n      dup2\n      dup5\n      add\n      mstore\n      0x20\n      dup2\n      add\n      swap1\n      pop\n      jump(tag_109)\n    tag_111:\n      pop\n      pop\n      pop\n      pop\n      swap1\n      pop\n      add\n      0x40\n      mstore\n      0x20\n      add\n      dup1\n      mload\n      mload(0x40)\n      swap4\n      swap3\n      swap2\n      swap1\n      dup5\n      0x0100000000\n      dup3\n      gt\n      iszero\n      tag_112\n      jumpi\n      0x00\n      dup1\n      revert\n    tag_112:\n      dup4\n      dup3\n      add\n      swap2\n      pop\n      0x20\n      dup3\n      add\n      dup6\n      dup2\n      gt\n      iszero\n      tag_113\n      jumpi\n      0x00\n      dup1\n      revert\n    tag_113:\n      dup3\n      mload\n      dup7\n      0x20\n      dup3\n      mul\n      dup4\n      add\n      gt\n      0x0100000000\n      dup3\n      gt\n      or\n      iszero\n      tag_114\n      jumpi\n      0x00\n      dup1\n      revert\n    tag_114:\n      dup1\n      dup4\n      mstore\n      0x20\n      dup4\n      add\n      swap3\n      pop\n      pop\n      pop\n      swap1\n      dup1\n      mload\n      swap1\n      0x20\n      add\n      swap1\n      0x20\n      mul\n      dup1\n      dup4\n      dup4\n      0x00\n    tag_115:\n      dup4\n      dup2\n      lt\n      iszero\n      tag_117\n      jumpi\n      dup1\n      dup3\n      add\n      mload\n      dup2\n      dup5\n      add\n      mstore\n      0x20\n      dup2\n      add\n      swap1\n      pop\n      jump(tag_115)\n    tag_117:\n      pop\n      pop\n      pop\n      pop\n      swap1\n      pop\n      add\n      0x40\n      mstore\n      pop\n      pop\n      pop\n        /* \"contracts/libraries/OracleLibrary.sol\":555:645  (int56[] memory tickCumulatives, ) =... */\n      pop\n      swap1\n      pop\n        /* \"contracts/libraries/OracleLibrary.sol\":656:682  int56 tickCumulativesDelta */\n      0x00\n        /* \"contracts/libraries/OracleLibrary.sol\":706:721  tickCumulatives */\n      dup2\n        /* \"contracts/libraries/OracleLibrary.sol\":722:723  0 */\n      0x00\n        /* \"contracts/libraries/OracleLibrary.sol\":706:724  tickCumulatives[0] */\n      dup2\n      mload\n      dup2\n      lt\n      tag_118\n      jumpi\n      invalid\n    tag_118:\n      0x20\n      mul\n      0x20\n      add\n      add\n      mload\n        /* \"contracts/libraries/OracleLibrary.sol\":685:700  tickCumulatives */\n      dup3\n        /* \"contracts/libraries/OracleLibrary.sol\":701:702  1 */\n      0x01\n        /* \"contracts/libraries/OracleLibrary.sol\":685:703  tickCumulatives[1] */\n      dup2\n      mload\n      dup2\n      lt\n      tag_119\n      jumpi\n      invalid\n    tag_119:\n      0x20\n      mul\n      0x20\n      add\n      add\n      mload\n        /* \"contracts/libraries/OracleLibrary.sol\":685:724  tickCumulatives[1] - tickCumulatives[0] */\n      sub\n        /* \"contracts/libraries/OracleLibrary.sol\":656:724  int56 tickCumulativesDelta = tickCumulatives[1] - tickCumulatives[0] */\n      swap1\n      pop\n        /* \"contracts/libraries/OracleLibrary.sol\":773:783  secondsAgo */\n      dup5\n        /* \"contracts/libraries/OracleLibrary.sol\":750:783  tickCumulativesDelta / secondsAgo */\n      0xffffffff\n      and\n        /* \"contracts/libraries/OracleLibrary.sol\":750:770  tickCumulativesDelta */\n      dup2\n        /* \"contracts/libraries/OracleLibrary.sol\":750:783  tickCumulativesDelta / secondsAgo */\n      0x06\n      signextend\n      dup2\n      tag_120\n      jumpi\n      invalid\n    tag_120:\n      sdiv\n        /* \"contracts/libraries/OracleLibrary.sol\":737:784  tick = int24(tickCumulativesDelta / secondsAgo) */\n      swap4\n      pop\n        /* \"contracts/libraries/OracleLibrary.sol\":866:867  0 */\n      0x00\n        /* \"contracts/libraries/OracleLibrary.sol\":843:863  tickCumulativesDelta */\n      dup2\n        /* \"contracts/libraries/OracleLibrary.sol\":843:867  tickCumulativesDelta < 0 */\n      0x06\n      signextend\n      slt\n        /* \"contracts/libraries/OracleLibrary.sol\":843:911  tickCumulativesDelta < 0 && (tickCumulativesDelta % secondsAgo != 0) */\n      dup1\n      iszero\n      tag_121\n      jumpi\n      pop\n        /* \"contracts/libraries/OracleLibrary.sol\":909:910  0 */\n      0x00\n        /* \"contracts/libraries/OracleLibrary.sol\":895:905  secondsAgo */\n      dup6\n        /* \"contracts/libraries/OracleLibrary.sol\":872:905  tickCumulativesDelta % secondsAgo */\n      0xffffffff\n      and\n        /* \"contracts/libraries/OracleLibrary.sol\":872:892  tickCumulativesDelta */\n      dup3\n        /* \"contracts/libraries/OracleLibrary.sol\":872:905  tickCumulativesDelta % secondsAgo */\n      0x06\n      signextend\n      dup2\n      tag_122\n      jumpi\n      invalid\n    tag_122:\n      smod\n        /* \"contracts/libraries/OracleLibrary.sol\":872:910  tickCumulativesDelta % secondsAgo != 0 */\n      0x06\n      signextend\n      eq\n      iszero\n        /* \"contracts/libraries/OracleLibrary.sol\":843:911  tickCumulativesDelta < 0 && (tickCumulativesDelta % secondsAgo != 0) */\n    tag_121:\n        /* \"contracts/libraries/OracleLibrary.sol\":839:919  if (tickCumulativesDelta < 0 && (tickCumulativesDelta % secondsAgo != 0)) tick-- */\n      iszero\n      tag_123\n      jumpi\n        /* \"contracts/libraries/OracleLibrary.sol\":913:919  tick-- */\n      dup4\n      dup1\n      0x01\n      swap1\n      sub\n      swap5\n      pop\n      pop\n        /* \"contracts/libraries/OracleLibrary.sol\":839:919  if (tickCumulativesDelta < 0 && (tickCumulativesDelta % secondsAgo != 0)) tick-- */\n    tag_123:\n        /* \"contracts/libraries/OracleLibrary.sol\":270:927  function consult(address pool, uint32 secondsAgo)... */\n      pop\n      pop\n      pop\n      swap3\n      swap2\n      pop\n      pop\n      jump\t// out\n        /* \"contracts/libraries/OracleLibrary.sol\":934:1889  function getQuoteAtTick(... */\n    tag_32:\n        /* \"contracts/libraries/OracleLibrary.sol\":1090:1109  uint256 quoteAmount */\n      0x00\n        /* \"contracts/libraries/OracleLibrary.sol\":1121:1141  uint160 sqrtRatioX96 */\n      dup1\n        /* \"contracts/libraries/OracleLibrary.sol\":1144:1177  TickMath.getSqrtRatioAtTick(tick) */\n      tag_125\n        /* \"contracts/libraries/OracleLibrary.sol\":1172:1176  tick */\n      dup7\n        /* \"contracts/libraries/OracleLibrary.sol\":1144:1171  TickMath.getSqrtRatioAtTick */\n      tag_126\n        /* \"contracts/libraries/OracleLibrary.sol\":1144:1177  TickMath.getSqrtRatioAtTick(tick) */\n      jump\t// in\n    tag_125:\n        /* \"contracts/libraries/OracleLibrary.sol\":1121:1177  uint160 sqrtRatioX96 = TickMath.getSqrtRatioAtTick(tick) */\n      swap1\n      pop\n        /* \"contracts/libraries/OracleLibrary.sol\":1312:1329  type(uint128).max */\n      0xffffffffffffffffffffffffffffffff\n        /* \"contracts/libraries/OracleLibrary.sol\":1296:1329  sqrtRatioX96 <= type(uint128).max */\n      dup1\n      and\n        /* \"contracts/libraries/OracleLibrary.sol\":1296:1308  sqrtRatioX96 */\n      dup2\n        /* \"contracts/libraries/OracleLibrary.sol\":1296:1329  sqrtRatioX96 <= type(uint128).max */\n      0xffffffffffffffffffffffffffffffffffffffff\n      and\n      gt\n        /* \"contracts/libraries/OracleLibrary.sol\":1292:1883  if (sqrtRatioX96 <= type(uint128).max) {... */\n      tag_127\n      jumpi\n        /* \"contracts/libraries/OracleLibrary.sol\":1345:1362  uint256 ratioX192 */\n      0x00\n        /* \"contracts/libraries/OracleLibrary.sol\":1389:1401  sqrtRatioX96 */\n      dup2\n        /* \"contracts/libraries/OracleLibrary.sol\":1365:1401  uint256(sqrtRatioX96) * sqrtRatioX96 */\n      0xffffffffffffffffffffffffffffffffffffffff\n      and\n        /* \"contracts/libraries/OracleLibrary.sol\":1373:1385  sqrtRatioX96 */\n      dup3\n        /* \"contracts/libraries/OracleLibrary.sol\":1365:1386  uint256(sqrtRatioX96) */\n      0xffffffffffffffffffffffffffffffffffffffff\n      and\n        /* \"contracts/libraries/OracleLibrary.sol\":1365:1401  uint256(sqrtRatioX96) * sqrtRatioX96 */\n      mul\n        /* \"contracts/libraries/OracleLibrary.sol\":1345:1401  uint256 ratioX192 = uint256(sqrtRatioX96) * sqrtRatioX96 */\n      swap1\n      pop\n        /* \"contracts/libraries/OracleLibrary.sol\":1441:1451  quoteToken */\n      dup4\n        /* \"contracts/libraries/OracleLibrary.sol\":1429:1451  baseToken < quoteToken */\n      0xffffffffffffffffffffffffffffffffffffffff\n      and\n        /* \"contracts/libraries/OracleLibrary.sol\":1429:1438  baseToken */\n      dup6\n        /* \"contracts/libraries/OracleLibrary.sol\":1429:1451  baseToken < quoteToken */\n      0xffffffffffffffffffffffffffffffffffffffff\n      and\n      lt\n        /* \"contracts/libraries/OracleLibrary.sol\":1429:1585  baseToken < quoteToken... */\n      tag_128\n      jumpi\n        /* \"contracts/libraries/OracleLibrary.sol\":1537:1585  FullMath.mulDiv(1 << 192, baseAmount, ratioX192) */\n      tag_129\n        /* \"contracts/libraries/OracleLibrary.sol\":1553:1561  1 << 192 */\n      0x01000000000000000000000000000000000000000000000000\n        /* \"contracts/libraries/OracleLibrary.sol\":1563:1573  baseAmount */\n      dup8\n        /* \"contracts/libraries/OracleLibrary.sol\":1537:1585  FullMath.mulDiv(1 << 192, baseAmount, ratioX192) */\n      0xffffffffffffffffffffffffffffffff\n      and\n        /* \"contracts/libraries/OracleLibrary.sol\":1575:1584  ratioX192 */\n      dup4\n        /* \"contracts/libraries/OracleLibrary.sol\":1537:1552  FullMath.mulDiv */\n      tag_130\n        /* \"contracts/libraries/OracleLibrary.sol\":1537:1585  FullMath.mulDiv(1 << 192, baseAmount, ratioX192) */\n      jump\t// in\n    tag_129:\n        /* \"contracts/libraries/OracleLibrary.sol\":1429:1585  baseToken < quoteToken... */\n      jump(tag_131)\n    tag_128:\n        /* \"contracts/libraries/OracleLibrary.sol\":1470:1518  FullMath.mulDiv(ratioX192, baseAmount, 1 << 192) */\n      tag_132\n        /* \"contracts/libraries/OracleLibrary.sol\":1486:1495  ratioX192 */\n      dup2\n        /* \"contracts/libraries/OracleLibrary.sol\":1497:1507  baseAmount */\n      dup8\n        /* \"contracts/libraries/OracleLibrary.sol\":1470:1518  FullMath.mulDiv(ratioX192, baseAmount, 1 << 192) */\n      0xffffffffffffffffffffffffffffffff\n      and\n        /* \"contracts/libraries/OracleLibrary.sol\":1509:1517  1 << 192 */\n      0x01000000000000000000000000000000000000000000000000\n        /* \"contracts/libraries/OracleLibrary.sol\":1470:1485  FullMath.mulDiv */\n      tag_130\n        /* \"contracts/libraries/OracleLibrary.sol\":1470:1518  FullMath.mulDiv(ratioX192, baseAmount, 1 << 192) */\n      jump\t// in\n    tag_132:\n        /* \"contracts/libraries/OracleLibrary.sol\":1429:1585  baseToken < quoteToken... */\n    tag_131:\n        /* \"contracts/libraries/OracleLibrary.sol\":1415:1585  quoteAmount = baseToken < quoteToken... */\n      swap3\n      pop\n        /* \"contracts/libraries/OracleLibrary.sol\":1292:1883  if (sqrtRatioX96 <= type(uint128).max) {... */\n      pop\n      jump(tag_133)\n    tag_127:\n        /* \"contracts/libraries/OracleLibrary.sol\":1616:1633  uint256 ratioX128 */\n      0x00\n        /* \"contracts/libraries/OracleLibrary.sol\":1636:1688  FullMath.mulDiv(sqrtRatioX96, sqrtRatioX96, 1 << 64) */\n      tag_134\n        /* \"contracts/libraries/OracleLibrary.sol\":1652:1664  sqrtRatioX96 */\n      dup3\n        /* \"contracts/libraries/OracleLibrary.sol\":1636:1688  FullMath.mulDiv(sqrtRatioX96, sqrtRatioX96, 1 << 64) */\n      0xffffffffffffffffffffffffffffffffffffffff\n      and\n        /* \"contracts/libraries/OracleLibrary.sol\":1666:1678  sqrtRatioX96 */\n      dup4\n        /* \"contracts/libraries/OracleLibrary.sol\":1636:1688  FullMath.mulDiv(sqrtRatioX96, sqrtRatioX96, 1 << 64) */\n      0xffffffffffffffffffffffffffffffffffffffff\n      and\n        /* \"contracts/libraries/OracleLibrary.sol\":1680:1687  1 << 64 */\n      0x010000000000000000\n        /* \"contracts/libraries/OracleLibrary.sol\":1636:1651  FullMath.mulDiv */\n      tag_130\n        /* \"contracts/libraries/OracleLibrary.sol\":1636:1688  FullMath.mulDiv(sqrtRatioX96, sqrtRatioX96, 1 << 64) */\n      jump\t// in\n    tag_134:\n        /* \"contracts/libraries/OracleLibrary.sol\":1616:1688  uint256 ratioX128 = FullMath.mulDiv(sqrtRatioX96, sqrtRatioX96, 1 << 64) */\n      swap1\n      pop\n        /* \"contracts/libraries/OracleLibrary.sol\":1728:1738  quoteToken */\n      dup4\n        /* \"contracts/libraries/OracleLibrary.sol\":1716:1738  baseToken < quoteToken */\n      0xffffffffffffffffffffffffffffffffffffffff\n      and\n        /* \"contracts/libraries/OracleLibrary.sol\":1716:1725  baseToken */\n      dup6\n        /* \"contracts/libraries/OracleLibrary.sol\":1716:1738  baseToken < quoteToken */\n      0xffffffffffffffffffffffffffffffffffffffff\n      and\n      lt\n        /* \"contracts/libraries/OracleLibrary.sol\":1716:1872  baseToken < quoteToken... */\n      tag_135\n      jumpi\n        /* \"contracts/libraries/OracleLibrary.sol\":1824:1872  FullMath.mulDiv(1 << 128, baseAmount, ratioX128) */\n      tag_136\n        /* \"contracts/libraries/OracleLibrary.sol\":1840:1848  1 << 128 */\n      0x0100000000000000000000000000000000\n        /* \"contracts/libraries/OracleLibrary.sol\":1850:1860  baseAmount */\n      dup8\n        /* \"contracts/libraries/OracleLibrary.sol\":1824:1872  FullMath.mulDiv(1 << 128, baseAmount, ratioX128) */\n      0xffffffffffffffffffffffffffffffff\n      and\n        /* \"contracts/libraries/OracleLibrary.sol\":1862:1871  ratioX128 */\n      dup4\n        /* \"contracts/libraries/OracleLibrary.sol\":1824:1839  FullMath.mulDiv */\n      tag_130\n        /* \"contracts/libraries/OracleLibrary.sol\":1824:1872  FullMath.mulDiv(1 << 128, baseAmount, ratioX128) */\n      jump\t// in\n    tag_136:\n        /* \"contracts/libraries/OracleLibrary.sol\":1716:1872  baseToken < quoteToken... */\n      jump(tag_137)\n    tag_135:\n        /* \"contracts/libraries/OracleLibrary.sol\":1757:1805  FullMath.mulDiv(ratioX128, baseAmount, 1 << 128) */\n      tag_138\n        /* \"contracts/libraries/OracleLibrary.sol\":1773:1782  ratioX128 */\n      dup2\n        /* \"contracts/libraries/OracleLibrary.sol\":1784:1794  baseAmount */\n      dup8\n        /* \"contracts/libraries/OracleLibrary.sol\":1757:1805  FullMath.mulDiv(ratioX128, baseAmount, 1 << 128) */\n      0xffffffffffffffffffffffffffffffff\n      and\n        /* \"contracts/libraries/OracleLibrary.sol\":1796:1804  1 << 128 */\n      0x0100000000000000000000000000000000\n        /* \"contracts/libraries/OracleLibrary.sol\":1757:1772  FullMath.mulDiv */\n      tag_130\n        /* \"contracts/libraries/OracleLibrary.sol\":1757:1805  FullMath.mulDiv(ratioX128, baseAmount, 1 << 128) */\n      jump\t// in\n    tag_138:\n        /* \"contracts/libraries/OracleLibrary.sol\":1716:1872  baseToken < quoteToken... */\n    tag_137:\n        /* \"contracts/libraries/OracleLibrary.sol\":1702:1872  quoteAmount = baseToken < quoteToken... */\n      swap3\n      pop\n        /* \"contracts/libraries/OracleLibrary.sol\":1292:1883  if (sqrtRatioX96 <= type(uint128).max) {... */\n      pop\n    tag_133:\n        /* \"contracts/libraries/OracleLibrary.sol\":934:1889  function getQuoteAtTick(... */\n      pop\n      swap5\n      swap4\n      pop\n      pop\n      pop\n      pop\n      jump\t// out\n        /* \"@uniswap/v3-core/contracts/libraries/TickMath.sol\":1362:3942  function getSqrtRatioAtTick(int24 tick) internal pure returns (uint160 sqrtPriceX96) {... */\n    tag_126:\n        /* \"@uniswap/v3-core/contracts/libraries/TickMath.sol\":1425:1445  uint160 sqrtPriceX96 */\n      0x00\n        /* \"@uniswap/v3-core/contracts/libraries/TickMath.sol\":1457:1472  uint256 absTick */\n      dup1\n        /* \"@uniswap/v3-core/contracts/libraries/TickMath.sol\":1482:1483  0 */\n      0x00\n        /* \"@uniswap/v3-core/contracts/libraries/TickMath.sol\":1475:1479  tick */\n      dup4\n        /* \"@uniswap/v3-core/contracts/libraries/TickMath.sol\":1475:1483  tick < 0 */\n      0x02\n      signextend\n      slt\n        /* \"@uniswap/v3-core/contracts/libraries/TickMath.sol\":1475:1532  tick < 0 ? uint256(-int256(tick)) : uint256(int256(tick)) */\n      tag_140\n      jumpi\n        /* \"@uniswap/v3-core/contracts/libraries/TickMath.sol\":1526:1530  tick */\n      dup3\n        /* \"@uniswap/v3-core/contracts/libraries/TickMath.sol\":1519:1531  int256(tick) */\n      0x02\n      signextend\n        /* \"@uniswap/v3-core/contracts/libraries/TickMath.sol\":1475:1532  tick < 0 ? uint256(-int256(tick)) : uint256(int256(tick)) */\n      jump(tag_141)\n    tag_140:\n        /* \"@uniswap/v3-core/contracts/libraries/TickMath.sol\":1502:1506  tick */\n      dup3\n        /* \"@uniswap/v3-core/contracts/libraries/TickMath.sol\":1495:1507  int256(tick) */\n      0x02\n      signextend\n        /* \"@uniswap/v3-core/contracts/libraries/TickMath.sol\":1494:1507  -int256(tick) */\n      0x00\n      sub\n        /* \"@uniswap/v3-core/contracts/libraries/TickMath.sol\":1475:1532  tick < 0 ? uint256(-int256(tick)) : uint256(int256(tick)) */\n    tag_141:\n        /* \"@uniswap/v3-core/contracts/libraries/TickMath.sol\":1457:1532  uint256 absTick = tick < 0 ? uint256(-int256(tick)) : uint256(int256(tick)) */\n      swap1\n      pop\n        /* \"@uniswap/v3-core/contracts/libraries/TickMath.sol\":484:491  -887272 */\n      0xfffffffffffffffffffffffffffffffffffffffffffffffffffffffffff27618\n        /* \"@uniswap/v3-core/contracts/libraries/TickMath.sol\":644:653  -MIN_TICK */\n      0x00\n      sub\n        /* \"@uniswap/v3-core/contracts/libraries/TickMath.sol\":1561:1578  uint256(MAX_TICK) */\n      0x02\n      signextend\n        /* \"@uniswap/v3-core/contracts/libraries/TickMath.sol\":1550:1557  absTick */\n      dup2\n        /* \"@uniswap/v3-core/contracts/libraries/TickMath.sol\":1550:1578  absTick <= uint256(MAX_TICK) */\n      gt\n      iszero\n        /* \"@uniswap/v3-core/contracts/libraries/TickMath.sol\":1542:1584  require(absTick <= uint256(MAX_TICK), 'T') */\n      tag_142\n      jumpi\n      mload(0x40)\n      0x08c379a000000000000000000000000000000000000000000000000000000000\n      dup2\n      mstore\n      0x04\n      add\n      dup1\n      dup1\n      0x20\n      add\n      dup3\n      dup2\n      sub\n      dup3\n      mstore\n      0x01\n      dup2\n      mstore\n      0x20\n      add\n      dup1\n      0x5400000000000000000000000000000000000000000000000000000000000000\n      dup2\n      mstore\n      pop\n      0x20\n      add\n      swap2\n      pop\n      pop\n      mload(0x40)\n      dup1\n      swap2\n      sub\n      swap1\n      revert\n    tag_142:\n        /* \"@uniswap/v3-core/contracts/libraries/TickMath.sol\":1595:1608  uint256 ratio */\n      0x00\n        /* \"@uniswap/v3-core/contracts/libraries/TickMath.sol\":1628:1629  0 */\n      dup1\n        /* \"@uniswap/v3-core/contracts/libraries/TickMath.sol\":1621:1624  0x1 */\n      0x01\n        /* \"@uniswap/v3-core/contracts/libraries/TickMath.sol\":1611:1618  absTick */\n      dup4\n        /* \"@uniswap/v3-core/contracts/libraries/TickMath.sol\":1611:1624  absTick & 0x1 */\n      and\n        /* \"@uniswap/v3-core/contracts/libraries/TickMath.sol\":1611:1629  absTick & 0x1 != 0 */\n      eq\n      iszero\n        /* \"@uniswap/v3-core/contracts/libraries/TickMath.sol\":1611:1704  absTick & 0x1 != 0 ? 0xfffcb933bd6fad37aa2d162d1a594001 : 0x100000000000000000000000000000000 */\n      tag_143\n      jumpi\n        /* \"@uniswap/v3-core/contracts/libraries/TickMath.sol\":1669:1704  0x100000000000000000000000000000000 */\n      0x0100000000000000000000000000000000\n        /* \"@uniswap/v3-core/contracts/libraries/TickMath.sol\":1611:1704  absTick & 0x1 != 0 ? 0xfffcb933bd6fad37aa2d162d1a594001 : 0x100000000000000000000000000000000 */\n      jump(tag_144)\n    tag_143:\n        /* \"@uniswap/v3-core/contracts/libraries/TickMath.sol\":1632:1666  0xfffcb933bd6fad37aa2d162d1a594001 */\n      0xfffcb933bd6fad37aa2d162d1a594001\n        /* \"@uniswap/v3-core/contracts/libraries/TickMath.sol\":1611:1704  absTick & 0x1 != 0 ? 0xfffcb933bd6fad37aa2d162d1a594001 : 0x100000000000000000000000000000000 */\n    tag_144:\n        /* \"@uniswap/v3-core/contracts/libraries/TickMath.sol\":1595:1704  uint256 ratio = absTick & 0x1 != 0 ? 0xfffcb933bd6fad37aa2d162d1a594001 : 0x100000000000000000000000000000000 */\n      0xffffffffffffffffffffffffffffffffff\n      and\n      swap1\n      pop\n        /* \"@uniswap/v3-core/contracts/libraries/TickMath.sol\":1735:1736  0 */\n      0x00\n        /* \"@uniswap/v3-core/contracts/libraries/TickMath.sol\":1728:1731  0x2 */\n      0x02\n        /* \"@uniswap/v3-core/contracts/libraries/TickMath.sol\":1718:1725  absTick */\n      dup4\n        /* \"@uniswap/v3-core/contracts/libraries/TickMath.sol\":1718:1731  absTick & 0x2 */\n      and\n        /* \"@uniswap/v3-core/contracts/libraries/TickMath.sol\":1718:1736  absTick & 0x2 != 0 */\n      eq\n        /* \"@uniswap/v3-core/contracts/libraries/TickMath.sol\":1714:1797  if (absTick & 0x2 != 0) ratio = (ratio * 0xfff97272373d413259a46990580e213a) >> 128 */\n      tag_145\n      jumpi\n        /* \"@uniswap/v3-core/contracts/libraries/TickMath.sol\":1794:1797  128 */\n      0x80\n        /* \"@uniswap/v3-core/contracts/libraries/TickMath.sol\":1755:1789  0xfff97272373d413259a46990580e213a */\n      0xfff97272373d413259a46990580e213a\n        /* \"@uniswap/v3-core/contracts/libraries/TickMath.sol\":1747:1752  ratio */\n      dup3\n        /* \"@uniswap/v3-core/contracts/libraries/TickMath.sol\":1747:1789  ratio * 0xfff97272373d413259a46990580e213a */\n      mul\n        /* \"@uniswap/v3-core/contracts/libraries/TickMath.sol\":1746:1797  (ratio * 0xfff97272373d413259a46990580e213a) >> 128 */\n      swap1\n      shr\n        /* \"@uniswap/v3-core/contracts/libraries/TickMath.sol\":1738:1797  ratio = (ratio * 0xfff97272373d413259a46990580e213a) >> 128 */\n      swap1\n      pop\n        /* \"@uniswap/v3-core/contracts/libraries/TickMath.sol\":1714:1797  if (absTick & 0x2 != 0) ratio = (ratio * 0xfff97272373d413259a46990580e213a) >> 128 */\n    tag_145:\n        /* \"@uniswap/v3-core/contracts/libraries/TickMath.sol\":1828:1829  0 */\n      0x00\n        /* \"@uniswap/v3-core/contracts/libraries/TickMath.sol\":1821:1824  0x4 */\n      0x04\n        /* \"@uniswap/v3-core/contracts/libraries/TickMath.sol\":1811:1818  absTick */\n      dup4\n        /* \"@uniswap/v3-core/contracts/libraries/TickMath.sol\":1811:1824  absTick & 0x4 */\n      and\n        /* \"@uniswap/v3-core/contracts/libraries/TickMath.sol\":1811:1829  absTick & 0x4 != 0 */\n      eq\n        /* \"@uniswap/v3-core/contracts/libraries/TickMath.sol\":1807:1890  if (absTick & 0x4 != 0) ratio = (ratio * 0xfff2e50f5f656932ef12357cf3c7fdcc) >> 128 */\n      tag_146\n      jumpi\n        /* \"@uniswap/v3-core/contracts/libraries/TickMath.sol\":1887:1890  128 */\n      0x80\n        /* \"@uniswap/v3-core/contracts/libraries/TickMath.sol\":1848:1882  0xfff2e50f5f656932ef12357cf3c7fdcc */\n      0xfff2e50f5f656932ef12357cf3c7fdcc\n        /* \"@uniswap/v3-core/contracts/libraries/TickMath.sol\":1840:1845  ratio */\n      dup3\n        /* \"@uniswap/v3-core/contracts/libraries/TickMath.sol\":1840:1882  ratio * 0xfff2e50f5f656932ef12357cf3c7fdcc */\n      mul\n        /* \"@uniswap/v3-core/contracts/libraries/TickMath.sol\":1839:1890  (ratio * 0xfff2e50f5f656932ef12357cf3c7fdcc) >> 128 */\n      swap1\n      shr\n        /* \"@uniswap/v3-core/contracts/libraries/TickMath.sol\":1831:1890  ratio = (ratio * 0xfff2e50f5f656932ef12357cf3c7fdcc) >> 128 */\n      swap1\n      pop\n        /* \"@uniswap/v3-core/contracts/libraries/TickMath.sol\":1807:1890  if (absTick & 0x4 != 0) ratio = (ratio * 0xfff2e50f5f656932ef12357cf3c7fdcc) >> 128 */\n    tag_146:\n        /* \"@uniswap/v3-core/contracts/libraries/TickMath.sol\":1921:1922  0 */\n      0x00\n        /* \"@uniswap/v3-core/contracts/libraries/TickMath.sol\":1914:1917  0x8 */\n      0x08\n        /* \"@uniswap/v3-core/contracts/libraries/TickMath.sol\":1904:1911  absTick */\n      dup4\n        /* \"@uniswap/v3-core/contracts/libraries/TickMath.sol\":1904:1917  absTick & 0x8 */\n      and\n        /* \"@uniswap/v3-core/contracts/libraries/TickMath.sol\":1904:1922  absTick & 0x8 != 0 */\n      eq\n        /* \"@uniswap/v3-core/contracts/libraries/TickMath.sol\":1900:1983  if (absTick & 0x8 != 0) ratio = (ratio * 0xffe5caca7e10e4e61c3624eaa0941cd0) >> 128 */\n      tag_147\n      jumpi\n        /* \"@uniswap/v3-core/contracts/libraries/TickMath.sol\":1980:1983  128 */\n      0x80\n        /* \"@uniswap/v3-core/contracts/libraries/TickMath.sol\":1941:1975  0xffe5caca7e10e4e61c3624eaa0941cd0 */\n      0xffe5caca7e10e4e61c3624eaa0941cd0\n        /* \"@uniswap/v3-core/contracts/libraries/TickMath.sol\":1933:1938  ratio */\n      dup3\n        /* \"@uniswap/v3-core/contracts/libraries/TickMath.sol\":1933:1975  ratio * 0xffe5caca7e10e4e61c3624eaa0941cd0 */\n      mul\n        /* \"@uniswap/v3-core/contracts/libraries/TickMath.sol\":1932:1983  (ratio * 0xffe5caca7e10e4e61c3624eaa0941cd0) >> 128 */\n      swap1\n      shr\n        /* \"@uniswap/v3-core/contracts/libraries/TickMath.sol\":1924:1983  ratio = (ratio * 0xffe5caca7e10e4e61c3624eaa0941cd0) >> 128 */\n      swap1\n      pop\n        /* \"@uniswap/v3-core/contracts/libraries/TickMath.sol\":1900:1983  if (absTick & 0x8 != 0) ratio = (ratio * 0xffe5caca7e10e4e61c3624eaa0941cd0) >> 128 */\n    tag_147:\n        /* \"@uniswap/v3-core/contracts/libraries/TickMath.sol\":2015:2016  0 */\n      0x00\n        /* \"@uniswap/v3-core/contracts/libraries/TickMath.sol\":2007:2011  0x10 */\n      0x10\n        /* \"@uniswap/v3-core/contracts/libraries/TickMath.sol\":1997:2004  absTick */\n      dup4\n        /* \"@uniswap/v3-core/contracts/libraries/TickMath.sol\":1997:2011  absTick & 0x10 */\n      and\n        /* \"@uniswap/v3-core/contracts/libraries/TickMath.sol\":1997:2016  absTick & 0x10 != 0 */\n      eq\n        /* \"@uniswap/v3-core/contracts/libraries/TickMath.sol\":1993:2077  if (absTick & 0x10 != 0) ratio = (ratio * 0xffcb9843d60f6159c9db58835c926644) >> 128 */\n      tag_148\n      jumpi\n        /* \"@uniswap/v3-core/contracts/libraries/TickMath.sol\":2074:2077  128 */\n      0x80\n        /* \"@uniswap/v3-core/contracts/libraries/TickMath.sol\":2035:2069  0xffcb9843d60f6159c9db58835c926644 */\n      0xffcb9843d60f6159c9db58835c926644\n        /* \"@uniswap/v3-core/contracts/libraries/TickMath.sol\":2027:2032  ratio */\n      dup3\n        /* \"@uniswap/v3-core/contracts/libraries/TickMath.sol\":2027:2069  ratio * 0xffcb9843d60f6159c9db58835c926644 */\n      mul\n        /* \"@uniswap/v3-core/contracts/libraries/TickMath.sol\":2026:2077  (ratio * 0xffcb9843d60f6159c9db58835c926644) >> 128 */\n      swap1\n      shr\n        /* \"@uniswap/v3-core/contracts/libraries/TickMath.sol\":2018:2077  ratio = (ratio * 0xffcb9843d60f6159c9db58835c926644) >> 128 */\n      swap1\n      pop\n        /* \"@uniswap/v3-core/contracts/libraries/TickMath.sol\":1993:2077  if (absTick & 0x10 != 0) ratio = (ratio * 0xffcb9843d60f6159c9db58835c926644) >> 128 */\n    tag_148:\n        /* \"@uniswap/v3-core/contracts/libraries/TickMath.sol\":2109:2110  0 */\n      0x00\n        /* \"@uniswap/v3-core/contracts/libraries/TickMath.sol\":2101:2105  0x20 */\n      0x20\n        /* \"@uniswap/v3-core/contracts/libraries/TickMath.sol\":2091:2098  absTick */\n      dup4\n        /* \"@uniswap/v3-core/contracts/libraries/TickMath.sol\":2091:2105  absTick & 0x20 */\n      and\n        /* \"@uniswap/v3-core/contracts/libraries/TickMath.sol\":2091:2110  absTick & 0x20 != 0 */\n      eq\n        /* \"@uniswap/v3-core/contracts/libraries/TickMath.sol\":2087:2171  if (absTick & 0x20 != 0) ratio = (ratio * 0xff973b41fa98c081472e6896dfb254c0) >> 128 */\n      tag_149\n      jumpi\n        /* \"@uniswap/v3-core/contracts/libraries/TickMath.sol\":2168:2171  128 */\n      0x80\n        /* \"@uniswap/v3-core/contracts/libraries/TickMath.sol\":2129:2163  0xff973b41fa98c081472e6896dfb254c0 */\n      0xff973b41fa98c081472e6896dfb254c0\n        /* \"@uniswap/v3-core/contracts/libraries/TickMath.sol\":2121:2126  ratio */\n      dup3\n        /* \"@uniswap/v3-core/contracts/libraries/TickMath.sol\":2121:2163  ratio * 0xff973b41fa98c081472e6896dfb254c0 */\n      mul\n        /* \"@uniswap/v3-core/contracts/libraries/TickMath.sol\":2120:2171  (ratio * 0xff973b41fa98c081472e6896dfb254c0) >> 128 */\n      swap1\n      shr\n        /* \"@uniswap/v3-core/contracts/libraries/TickMath.sol\":2112:2171  ratio = (ratio * 0xff973b41fa98c081472e6896dfb254c0) >> 128 */\n      swap1\n      pop\n        /* \"@uniswap/v3-core/contracts/libraries/TickMath.sol\":2087:2171  if (absTick & 0x20 != 0) ratio = (ratio * 0xff973b41fa98c081472e6896dfb254c0) >> 128 */\n    tag_149:\n        /* \"@uniswap/v3-core/contracts/libraries/TickMath.sol\":2203:2204  0 */\n      0x00\n        /* \"@uniswap/v3-core/contracts/libraries/TickMath.sol\":2195:2199  0x40 */\n      0x40\n        /* \"@uniswap/v3-core/contracts/libraries/TickMath.sol\":2185:2192  absTick */\n      dup4\n        /* \"@uniswap/v3-core/contracts/libraries/TickMath.sol\":2185:2199  absTick & 0x40 */\n      and\n        /* \"@uniswap/v3-core/contracts/libraries/TickMath.sol\":2185:2204  absTick & 0x40 != 0 */\n      eq\n        /* \"@uniswap/v3-core/contracts/libraries/TickMath.sol\":2181:2265  if (absTick & 0x40 != 0) ratio = (ratio * 0xff2ea16466c96a3843ec78b326b52861) >> 128 */\n      tag_150\n      jumpi\n        /* \"@uniswap/v3-core/contracts/libraries/TickMath.sol\":2262:2265  128 */\n      0x80\n        /* \"@uniswap/v3-core/contracts/libraries/TickMath.sol\":2223:2257  0xff2ea16466c96a3843ec78b326b52861 */\n      0xff2ea16466c96a3843ec78b326b52861\n        /* \"@uniswap/v3-core/contracts/libraries/TickMath.sol\":2215:2220  ratio */\n      dup3\n        /* \"@uniswap/v3-core/contracts/libraries/TickMath.sol\":2215:2257  ratio * 0xff2ea16466c96a3843ec78b326b52861 */\n      mul\n        /* \"@uniswap/v3-core/contracts/libraries/TickMath.sol\":2214:2265  (ratio * 0xff2ea16466c96a3843ec78b326b52861) >> 128 */\n      swap1\n      shr\n        /* \"@uniswap/v3-core/contracts/libraries/TickMath.sol\":2206:2265  ratio = (ratio * 0xff2ea16466c96a3843ec78b326b52861) >> 128 */\n      swap1\n      pop\n        /* \"@uniswap/v3-core/contracts/libraries/TickMath.sol\":2181:2265  if (absTick & 0x40 != 0) ratio = (ratio * 0xff2ea16466c96a3843ec78b326b52861) >> 128 */\n    tag_150:\n        /* \"@uniswap/v3-core/contracts/libraries/TickMath.sol\":2297:2298  0 */\n      0x00\n        /* \"@uniswap/v3-core/contracts/libraries/TickMath.sol\":2289:2293  0x80 */\n      0x80\n        /* \"@uniswap/v3-core/contracts/libraries/TickMath.sol\":2279:2286  absTick */\n      dup4\n        /* \"@uniswap/v3-core/contracts/libraries/TickMath.sol\":2279:2293  absTick & 0x80 */\n      and\n        /* \"@uniswap/v3-core/contracts/libraries/TickMath.sol\":2279:2298  absTick & 0x80 != 0 */\n      eq\n        /* \"@uniswap/v3-core/contracts/libraries/TickMath.sol\":2275:2359  if (absTick & 0x80 != 0) ratio = (ratio * 0xfe5dee046a99a2a811c461f1969c3053) >> 128 */\n      tag_151\n      jumpi\n        /* \"@uniswap/v3-core/contracts/libraries/TickMath.sol\":2356:2359  128 */\n      0x80\n        /* \"@uniswap/v3-core/contracts/libraries/TickMath.sol\":2317:2351  0xfe5dee046a99a2a811c461f1969c3053 */\n      0xfe5dee046a99a2a811c461f1969c3053\n        /* \"@uniswap/v3-core/contracts/libraries/TickMath.sol\":2309:2314  ratio */\n      dup3\n        /* \"@uniswap/v3-core/contracts/libraries/TickMath.sol\":2309:2351  ratio * 0xfe5dee046a99a2a811c461f1969c3053 */\n      mul\n        /* \"@uniswap/v3-core/contracts/libraries/TickMath.sol\":2308:2359  (ratio * 0xfe5dee046a99a2a811c461f1969c3053) >> 128 */\n      swap1\n      shr\n        /* \"@uniswap/v3-core/contracts/libraries/TickMath.sol\":2300:2359  ratio = (ratio * 0xfe5dee046a99a2a811c461f1969c3053) >> 128 */\n      swap1\n      pop\n        /* \"@uniswap/v3-core/contracts/libraries/TickMath.sol\":2275:2359  if (absTick & 0x80 != 0) ratio = (ratio * 0xfe5dee046a99a2a811c461f1969c3053) >> 128 */\n    tag_151:\n        /* \"@uniswap/v3-core/contracts/libraries/TickMath.sol\":2392:2393  0 */\n      0x00\n        /* \"@uniswap/v3-core/contracts/libraries/TickMath.sol\":2383:2388  0x100 */\n      0x0100\n        /* \"@uniswap/v3-core/contracts/libraries/TickMath.sol\":2373:2380  absTick */\n      dup4\n        /* \"@uniswap/v3-core/contracts/libraries/TickMath.sol\":2373:2388  absTick & 0x100 */\n      and\n        /* \"@uniswap/v3-core/contracts/libraries/TickMath.sol\":2373:2393  absTick & 0x100 != 0 */\n      eq\n        /* \"@uniswap/v3-core/contracts/libraries/TickMath.sol\":2369:2454  if (absTick & 0x100 != 0) ratio = (ratio * 0xfcbe86c7900a88aedcffc83b479aa3a4) >> 128 */\n      tag_152\n      jumpi\n        /* \"@uniswap/v3-core/contracts/libraries/TickMath.sol\":2451:2454  128 */\n      0x80\n        /* \"@uniswap/v3-core/contracts/libraries/TickMath.sol\":2412:2446  0xfcbe86c7900a88aedcffc83b479aa3a4 */\n      0xfcbe86c7900a88aedcffc83b479aa3a4\n        /* \"@uniswap/v3-core/contracts/libraries/TickMath.sol\":2404:2409  ratio */\n      dup3\n        /* \"@uniswap/v3-core/contracts/libraries/TickMath.sol\":2404:2446  ratio * 0xfcbe86c7900a88aedcffc83b479aa3a4 */\n      mul\n        /* \"@uniswap/v3-core/contracts/libraries/TickMath.sol\":2403:2454  (ratio * 0xfcbe86c7900a88aedcffc83b479aa3a4) >> 128 */\n      swap1\n      shr\n        /* \"@uniswap/v3-core/contracts/libraries/TickMath.sol\":2395:2454  ratio = (ratio * 0xfcbe86c7900a88aedcffc83b479aa3a4) >> 128 */\n      swap1\n      pop\n        /* \"@uniswap/v3-core/contracts/libraries/TickMath.sol\":2369:2454  if (absTick & 0x100 != 0) ratio = (ratio * 0xfcbe86c7900a88aedcffc83b479aa3a4) >> 128 */\n    tag_152:\n        /* \"@uniswap/v3-core/contracts/libraries/TickMath.sol\":2487:2488  0 */\n      0x00\n        /* \"@uniswap/v3-core/contracts/libraries/TickMath.sol\":2478:2483  0x200 */\n      0x0200\n        /* \"@uniswap/v3-core/contracts/libraries/TickMath.sol\":2468:2475  absTick */\n      dup4\n        /* \"@uniswap/v3-core/contracts/libraries/TickMath.sol\":2468:2483  absTick & 0x200 */\n      and\n        /* \"@uniswap/v3-core/contracts/libraries/TickMath.sol\":2468:2488  absTick & 0x200 != 0 */\n      eq\n        /* \"@uniswap/v3-core/contracts/libraries/TickMath.sol\":2464:2549  if (absTick & 0x200 != 0) ratio = (ratio * 0xf987a7253ac413176f2b074cf7815e54) >> 128 */\n      tag_153\n      jumpi\n        /* \"@uniswap/v3-core/contracts/libraries/TickMath.sol\":2546:2549  128 */\n      0x80\n        /* \"@uniswap/v3-core/contracts/libraries/TickMath.sol\":2507:2541  0xf987a7253ac413176f2b074cf7815e54 */\n      0xf987a7253ac413176f2b074cf7815e54\n        /* \"@uniswap/v3-core/contracts/libraries/TickMath.sol\":2499:2504  ratio */\n      dup3\n        /* \"@uniswap/v3-core/contracts/libraries/TickMath.sol\":2499:2541  ratio * 0xf987a7253ac413176f2b074cf7815e54 */\n      mul\n        /* \"@uniswap/v3-core/contracts/libraries/TickMath.sol\":2498:2549  (ratio * 0xf987a7253ac413176f2b074cf7815e54) >> 128 */\n      swap1\n      shr\n        /* \"@uniswap/v3-core/contracts/libraries/TickMath.sol\":2490:2549  ratio = (ratio * 0xf987a7253ac413176f2b074cf7815e54) >> 128 */\n      swap1\n      pop\n        /* \"@uniswap/v3-core/contracts/libraries/TickMath.sol\":2464:2549  if (absTick & 0x200 != 0) ratio = (ratio * 0xf987a7253ac413176f2b074cf7815e54) >> 128 */\n    tag_153:\n        /* \"@uniswap/v3-core/contracts/libraries/TickMath.sol\":2582:2583  0 */\n      0x00\n        /* \"@uniswap/v3-core/contracts/libraries/TickMath.sol\":2573:2578  0x400 */\n      0x0400\n        /* \"@uniswap/v3-core/contracts/libraries/TickMath.sol\":2563:2570  absTick */\n      dup4\n        /* \"@uniswap/v3-core/contracts/libraries/TickMath.sol\":2563:2578  absTick & 0x400 */\n      and\n        /* \"@uniswap/v3-core/contracts/libraries/TickMath.sol\":2563:2583  absTick & 0x400 != 0 */\n      eq\n        /* \"@uniswap/v3-core/contracts/libraries/TickMath.sol\":2559:2644  if (absTick & 0x400 != 0) ratio = (ratio * 0xf3392b0822b70005940c7a398e4b70f3) >> 128 */\n      tag_154\n      jumpi\n        /* \"@uniswap/v3-core/contracts/libraries/TickMath.sol\":2641:2644  128 */\n      0x80\n        /* \"@uniswap/v3-core/contracts/libraries/TickMath.sol\":2602:2636  0xf3392b0822b70005940c7a398e4b70f3 */\n      0xf3392b0822b70005940c7a398e4b70f3\n        /* \"@uniswap/v3-core/contracts/libraries/TickMath.sol\":2594:2599  ratio */\n      dup3\n        /* \"@uniswap/v3-core/contracts/libraries/TickMath.sol\":2594:2636  ratio * 0xf3392b0822b70005940c7a398e4b70f3 */\n      mul\n        /* \"@uniswap/v3-core/contracts/libraries/TickMath.sol\":2593:2644  (ratio * 0xf3392b0822b70005940c7a398e4b70f3) >> 128 */\n      swap1\n      shr\n        /* \"@uniswap/v3-core/contracts/libraries/TickMath.sol\":2585:2644  ratio = (ratio * 0xf3392b0822b70005940c7a398e4b70f3) >> 128 */\n      swap1\n      pop\n        /* \"@uniswap/v3-core/contracts/libraries/TickMath.sol\":2559:2644  if (absTick & 0x400 != 0) ratio = (ratio * 0xf3392b0822b70005940c7a398e4b70f3) >> 128 */\n    tag_154:\n        /* \"@uniswap/v3-core/contracts/libraries/TickMath.sol\":2677:2678  0 */\n      0x00\n        /* \"@uniswap/v3-core/contracts/libraries/TickMath.sol\":2668:2673  0x800 */\n      0x0800\n        /* \"@uniswap/v3-core/contracts/libraries/TickMath.sol\":2658:2665  absTick */\n      dup4\n        /* \"@uniswap/v3-core/contracts/libraries/TickMath.sol\":2658:2673  absTick & 0x800 */\n      and\n        /* \"@uniswap/v3-core/contracts/libraries/TickMath.sol\":2658:2678  absTick & 0x800 != 0 */\n      eq\n        /* \"@uniswap/v3-core/contracts/libraries/TickMath.sol\":2654:2739  if (absTick & 0x800 != 0) ratio = (ratio * 0xe7159475a2c29b7443b29c7fa6e889d9) >> 128 */\n      tag_155\n      jumpi\n        /* \"@uniswap/v3-core/contracts/libraries/TickMath.sol\":2736:2739  128 */\n      0x80\n        /* \"@uniswap/v3-core/contracts/libraries/TickMath.sol\":2697:2731  0xe7159475a2c29b7443b29c7fa6e889d9 */\n      0xe7159475a2c29b7443b29c7fa6e889d9\n        /* \"@uniswap/v3-core/contracts/libraries/TickMath.sol\":2689:2694  ratio */\n      dup3\n        /* \"@uniswap/v3-core/contracts/libraries/TickMath.sol\":2689:2731  ratio * 0xe7159475a2c29b7443b29c7fa6e889d9 */\n      mul\n        /* \"@uniswap/v3-core/contracts/libraries/TickMath.sol\":2688:2739  (ratio * 0xe7159475a2c29b7443b29c7fa6e889d9) >> 128 */\n      swap1\n      shr\n        /* \"@uniswap/v3-core/contracts/libraries/TickMath.sol\":2680:2739  ratio = (ratio * 0xe7159475a2c29b7443b29c7fa6e889d9) >> 128 */\n      swap1\n      pop\n        /* \"@uniswap/v3-core/contracts/libraries/TickMath.sol\":2654:2739  if (absTick & 0x800 != 0) ratio = (ratio * 0xe7159475a2c29b7443b29c7fa6e889d9) >> 128 */\n    tag_155:\n        /* \"@uniswap/v3-core/contracts/libraries/TickMath.sol\":2773:2774  0 */\n      0x00\n        /* \"@uniswap/v3-core/contracts/libraries/TickMath.sol\":2763:2769  0x1000 */\n      0x1000\n        /* \"@uniswap/v3-core/contracts/libraries/TickMath.sol\":2753:2760  absTick */\n      dup4\n        /* \"@uniswap/v3-core/contracts/libraries/TickMath.sol\":2753:2769  absTick & 0x1000 */\n      and\n        /* \"@uniswap/v3-core/contracts/libraries/TickMath.sol\":2753:2774  absTick & 0x1000 != 0 */\n      eq\n        /* \"@uniswap/v3-core/contracts/libraries/TickMath.sol\":2749:2835  if (absTick & 0x1000 != 0) ratio = (ratio * 0xd097f3bdfd2022b8845ad8f792aa5825) >> 128 */\n      tag_156\n      jumpi\n        /* \"@uniswap/v3-core/contracts/libraries/TickMath.sol\":2832:2835  128 */\n      0x80\n        /* \"@uniswap/v3-core/contracts/libraries/TickMath.sol\":2793:2827  0xd097f3bdfd2022b8845ad8f792aa5825 */\n      0xd097f3bdfd2022b8845ad8f792aa5825\n        /* \"@uniswap/v3-core/contracts/libraries/TickMath.sol\":2785:2790  ratio */\n      dup3\n        /* \"@uniswap/v3-core/contracts/libraries/TickMath.sol\":2785:2827  ratio * 0xd097f3bdfd2022b8845ad8f792aa5825 */\n      mul\n        /* \"@uniswap/v3-core/contracts/libraries/TickMath.sol\":2784:2835  (ratio * 0xd097f3bdfd2022b8845ad8f792aa5825) >> 128 */\n      swap1\n      shr\n        /* \"@uniswap/v3-core/contracts/libraries/TickMath.sol\":2776:2835  ratio = (ratio * 0xd097f3bdfd2022b8845ad8f792aa5825) >> 128 */\n      swap1\n      pop\n        /* \"@uniswap/v3-core/contracts/libraries/TickMath.sol\":2749:2835  if (absTick & 0x1000 != 0) ratio = (ratio * 0xd097f3bdfd2022b8845ad8f792aa5825) >> 128 */\n    tag_156:\n        /* \"@uniswap/v3-core/contracts/libraries/TickMath.sol\":2869:2870  0 */\n      0x00\n        /* \"@uniswap/v3-core/contracts/libraries/TickMath.sol\":2859:2865  0x2000 */\n      0x2000\n        /* \"@uniswap/v3-core/contracts/libraries/TickMath.sol\":2849:2856  absTick */\n      dup4\n        /* \"@uniswap/v3-core/contracts/libraries/TickMath.sol\":2849:2865  absTick & 0x2000 */\n      and\n        /* \"@uniswap/v3-core/contracts/libraries/TickMath.sol\":2849:2870  absTick & 0x2000 != 0 */\n      eq\n        /* \"@uniswap/v3-core/contracts/libraries/TickMath.sol\":2845:2931  if (absTick & 0x2000 != 0) ratio = (ratio * 0xa9f746462d870fdf8a65dc1f90e061e5) >> 128 */\n      tag_157\n      jumpi\n        /* \"@uniswap/v3-core/contracts/libraries/TickMath.sol\":2928:2931  128 */\n      0x80\n        /* \"@uniswap/v3-core/contracts/libraries/TickMath.sol\":2889:2923  0xa9f746462d870fdf8a65dc1f90e061e5 */\n      0xa9f746462d870fdf8a65dc1f90e061e5\n        /* \"@uniswap/v3-core/contracts/libraries/TickMath.sol\":2881:2886  ratio */\n      dup3\n        /* \"@uniswap/v3-core/contracts/libraries/TickMath.sol\":2881:2923  ratio * 0xa9f746462d870fdf8a65dc1f90e061e5 */\n      mul\n        /* \"@uniswap/v3-core/contracts/libraries/TickMath.sol\":2880:2931  (ratio * 0xa9f746462d870fdf8a65dc1f90e061e5) >> 128 */\n      swap1\n      shr\n        /* \"@uniswap/v3-core/contracts/libraries/TickMath.sol\":2872:2931  ratio = (ratio * 0xa9f746462d870fdf8a65dc1f90e061e5) >> 128 */\n      swap1\n      pop\n        /* \"@uniswap/v3-core/contracts/libraries/TickMath.sol\":2845:2931  if (absTick & 0x2000 != 0) ratio = (ratio * 0xa9f746462d870fdf8a65dc1f90e061e5) >> 128 */\n    tag_157:\n        /* \"@uniswap/v3-core/contracts/libraries/TickMath.sol\":2965:2966  0 */\n      0x00\n        /* \"@uniswap/v3-core/contracts/libraries/TickMath.sol\":2955:2961  0x4000 */\n      0x4000\n        /* \"@uniswap/v3-core/contracts/libraries/TickMath.sol\":2945:2952  absTick */\n      dup4\n        /* \"@uniswap/v3-core/contracts/libraries/TickMath.sol\":2945:2961  absTick & 0x4000 */\n      and\n        /* \"@uniswap/v3-core/contracts/libraries/TickMath.sol\":2945:2966  absTick & 0x4000 != 0 */\n      eq\n        /* \"@uniswap/v3-core/contracts/libraries/TickMath.sol\":2941:3027  if (absTick & 0x4000 != 0) ratio = (ratio * 0x70d869a156d2a1b890bb3df62baf32f7) >> 128 */\n      tag_158\n      jumpi\n        /* \"@uniswap/v3-core/contracts/libraries/TickMath.sol\":3024:3027  128 */\n      0x80\n        /* \"@uniswap/v3-core/contracts/libraries/TickMath.sol\":2985:3019  0x70d869a156d2a1b890bb3df62baf32f7 */\n      0x70d869a156d2a1b890bb3df62baf32f7\n        /* \"@uniswap/v3-core/contracts/libraries/TickMath.sol\":2977:2982  ratio */\n      dup3\n        /* \"@uniswap/v3-core/contracts/libraries/TickMath.sol\":2977:3019  ratio * 0x70d869a156d2a1b890bb3df62baf32f7 */\n      mul\n        /* \"@uniswap/v3-core/contracts/libraries/TickMath.sol\":2976:3027  (ratio * 0x70d869a156d2a1b890bb3df62baf32f7) >> 128 */\n      swap1\n      shr\n        /* \"@uniswap/v3-core/contracts/libraries/TickMath.sol\":2968:3027  ratio = (ratio * 0x70d869a156d2a1b890bb3df62baf32f7) >> 128 */\n      swap1\n      pop\n        /* \"@uniswap/v3-core/contracts/libraries/TickMath.sol\":2941:3027  if (absTick & 0x4000 != 0) ratio = (ratio * 0x70d869a156d2a1b890bb3df62baf32f7) >> 128 */\n    tag_158:\n        /* \"@uniswap/v3-core/contracts/libraries/TickMath.sol\":3061:3062  0 */\n      0x00\n        /* \"@uniswap/v3-core/contracts/libraries/TickMath.sol\":3051:3057  0x8000 */\n      0x8000\n        /* \"@uniswap/v3-core/contracts/libraries/TickMath.sol\":3041:3048  absTick */\n      dup4\n        /* \"@uniswap/v3-core/contracts/libraries/TickMath.sol\":3041:3057  absTick & 0x8000 */\n      and\n        /* \"@uniswap/v3-core/contracts/libraries/TickMath.sol\":3041:3062  absTick & 0x8000 != 0 */\n      eq\n        /* \"@uniswap/v3-core/contracts/libraries/TickMath.sol\":3037:3123  if (absTick & 0x8000 != 0) ratio = (ratio * 0x31be135f97d08fd981231505542fcfa6) >> 128 */\n      tag_159\n      jumpi\n        /* \"@uniswap/v3-core/contracts/libraries/TickMath.sol\":3120:3123  128 */\n      0x80\n        /* \"@uniswap/v3-core/contracts/libraries/TickMath.sol\":3081:3115  0x31be135f97d08fd981231505542fcfa6 */\n      0x31be135f97d08fd981231505542fcfa6\n        /* \"@uniswap/v3-core/contracts/libraries/TickMath.sol\":3073:3078  ratio */\n      dup3\n        /* \"@uniswap/v3-core/contracts/libraries/TickMath.sol\":3073:3115  ratio * 0x31be135f97d08fd981231505542fcfa6 */\n      mul\n        /* \"@uniswap/v3-core/contracts/libraries/TickMath.sol\":3072:3123  (ratio * 0x31be135f97d08fd981231505542fcfa6) >> 128 */\n      swap1\n      shr\n        /* \"@uniswap/v3-core/contracts/libraries/TickMath.sol\":3064:3123  ratio = (ratio * 0x31be135f97d08fd981231505542fcfa6) >> 128 */\n      swap1\n      pop\n        /* \"@uniswap/v3-core/contracts/libraries/TickMath.sol\":3037:3123  if (absTick & 0x8000 != 0) ratio = (ratio * 0x31be135f97d08fd981231505542fcfa6) >> 128 */\n    tag_159:\n        /* \"@uniswap/v3-core/contracts/libraries/TickMath.sol\":3158:3159  0 */\n      0x00\n        /* \"@uniswap/v3-core/contracts/libraries/TickMath.sol\":3147:3154  0x10000 */\n      0x010000\n        /* \"@uniswap/v3-core/contracts/libraries/TickMath.sol\":3137:3144  absTick */\n      dup4\n        /* \"@uniswap/v3-core/contracts/libraries/TickMath.sol\":3137:3154  absTick & 0x10000 */\n      and\n        /* \"@uniswap/v3-core/contracts/libraries/TickMath.sol\":3137:3159  absTick & 0x10000 != 0 */\n      eq\n        /* \"@uniswap/v3-core/contracts/libraries/TickMath.sol\":3133:3219  if (absTick & 0x10000 != 0) ratio = (ratio * 0x9aa508b5b7a84e1c677de54f3e99bc9) >> 128 */\n      tag_160\n      jumpi\n        /* \"@uniswap/v3-core/contracts/libraries/TickMath.sol\":3216:3219  128 */\n      0x80\n        /* \"@uniswap/v3-core/contracts/libraries/TickMath.sol\":3178:3211  0x9aa508b5b7a84e1c677de54f3e99bc9 */\n      0x09aa508b5b7a84e1c677de54f3e99bc9\n        /* \"@uniswap/v3-core/contracts/libraries/TickMath.sol\":3170:3175  ratio */\n      dup3\n        /* \"@uniswap/v3-core/contracts/libraries/TickMath.sol\":3170:3211  ratio * 0x9aa508b5b7a84e1c677de54f3e99bc9 */\n      mul\n        /* \"@uniswap/v3-core/contracts/libraries/TickMath.sol\":3169:3219  (ratio * 0x9aa508b5b7a84e1c677de54f3e99bc9) >> 128 */\n      swap1\n      shr\n        /* \"@uniswap/v3-core/contracts/libraries/TickMath.sol\":3161:3219  ratio = (ratio * 0x9aa508b5b7a84e1c677de54f3e99bc9) >> 128 */\n      swap1\n      pop\n        /* \"@uniswap/v3-core/contracts/libraries/TickMath.sol\":3133:3219  if (absTick & 0x10000 != 0) ratio = (ratio * 0x9aa508b5b7a84e1c677de54f3e99bc9) >> 128 */\n    tag_160:\n        /* \"@uniswap/v3-core/contracts/libraries/TickMath.sol\":3254:3255  0 */\n      0x00\n        /* \"@uniswap/v3-core/contracts/libraries/TickMath.sol\":3243:3250  0x20000 */\n      0x020000\n        /* \"@uniswap/v3-core/contracts/libraries/TickMath.sol\":3233:3240  absTick */\n      dup4\n        /* \"@uniswap/v3-core/contracts/libraries/TickMath.sol\":3233:3250  absTick & 0x20000 */\n      and\n        /* \"@uniswap/v3-core/contracts/libraries/TickMath.sol\":3233:3255  absTick & 0x20000 != 0 */\n      eq\n        /* \"@uniswap/v3-core/contracts/libraries/TickMath.sol\":3229:3314  if (absTick & 0x20000 != 0) ratio = (ratio * 0x5d6af8dedb81196699c329225ee604) >> 128 */\n      tag_161\n      jumpi\n        /* \"@uniswap/v3-core/contracts/libraries/TickMath.sol\":3311:3314  128 */\n      0x80\n        /* \"@uniswap/v3-core/contracts/libraries/TickMath.sol\":3274:3306  0x5d6af8dedb81196699c329225ee604 */\n      0x5d6af8dedb81196699c329225ee604\n        /* \"@uniswap/v3-core/contracts/libraries/TickMath.sol\":3266:3271  ratio */\n      dup3\n        /* \"@uniswap/v3-core/contracts/libraries/TickMath.sol\":3266:3306  ratio * 0x5d6af8dedb81196699c329225ee604 */\n      mul\n        /* \"@uniswap/v3-core/contracts/libraries/TickMath.sol\":3265:3314  (ratio * 0x5d6af8dedb81196699c329225ee604) >> 128 */\n      swap1\n      shr\n        /* \"@uniswap/v3-core/contracts/libraries/TickMath.sol\":3257:3314  ratio = (ratio * 0x5d6af8dedb81196699c329225ee604) >> 128 */\n      swap1\n      pop\n        /* \"@uniswap/v3-core/contracts/libraries/TickMath.sol\":3229:3314  if (absTick & 0x20000 != 0) ratio = (ratio * 0x5d6af8dedb81196699c329225ee604) >> 128 */\n    tag_161:\n        /* \"@uniswap/v3-core/contracts/libraries/TickMath.sol\":3349:3350  0 */\n      0x00\n        /* \"@uniswap/v3-core/contracts/libraries/TickMath.sol\":3338:3345  0x40000 */\n      0x040000\n        /* \"@uniswap/v3-core/contracts/libraries/TickMath.sol\":3328:3335  absTick */\n      dup4\n        /* \"@uniswap/v3-core/contracts/libraries/TickMath.sol\":3328:3345  absTick & 0x40000 */\n      and\n        /* \"@uniswap/v3-core/contracts/libraries/TickMath.sol\":3328:3350  absTick & 0x40000 != 0 */\n      eq\n        /* \"@uniswap/v3-core/contracts/libraries/TickMath.sol\":3324:3407  if (absTick & 0x40000 != 0) ratio = (ratio * 0x2216e584f5fa1ea926041bedfe98) >> 128 */\n      tag_162\n      jumpi\n        /* \"@uniswap/v3-core/contracts/libraries/TickMath.sol\":3404:3407  128 */\n      0x80\n        /* \"@uniswap/v3-core/contracts/libraries/TickMath.sol\":3369:3399  0x2216e584f5fa1ea926041bedfe98 */\n      0x2216e584f5fa1ea926041bedfe98\n        /* \"@uniswap/v3-core/contracts/libraries/TickMath.sol\":3361:3366  ratio */\n      dup3\n        /* \"@uniswap/v3-core/contracts/libraries/TickMath.sol\":3361:3399  ratio * 0x2216e584f5fa1ea926041bedfe98 */\n      mul\n        /* \"@uniswap/v3-core/contracts/libraries/TickMath.sol\":3360:3407  (ratio * 0x2216e584f5fa1ea926041bedfe98) >> 128 */\n      swap1\n      shr\n        /* \"@uniswap/v3-core/contracts/libraries/TickMath.sol\":3352:3407  ratio = (ratio * 0x2216e584f5fa1ea926041bedfe98) >> 128 */\n      swap1\n      pop\n        /* \"@uniswap/v3-core/contracts/libraries/TickMath.sol\":3324:3407  if (absTick & 0x40000 != 0) ratio = (ratio * 0x2216e584f5fa1ea926041bedfe98) >> 128 */\n    tag_162:\n        /* \"@uniswap/v3-core/contracts/libraries/TickMath.sol\":3442:3443  0 */\n      0x00\n        /* \"@uniswap/v3-core/contracts/libraries/TickMath.sol\":3431:3438  0x80000 */\n      0x080000\n        /* \"@uniswap/v3-core/contracts/libraries/TickMath.sol\":3421:3428  absTick */\n      dup4\n        /* \"@uniswap/v3-core/contracts/libraries/TickMath.sol\":3421:3438  absTick & 0x80000 */\n      and\n        /* \"@uniswap/v3-core/contracts/libraries/TickMath.sol\":3421:3443  absTick & 0x80000 != 0 */\n      eq\n        /* \"@uniswap/v3-core/contracts/libraries/TickMath.sol\":3417:3495  if (absTick & 0x80000 != 0) ratio = (ratio * 0x48a170391f7dc42444e8fa2) >> 128 */\n      tag_163\n      jumpi\n        /* \"@uniswap/v3-core/contracts/libraries/TickMath.sol\":3492:3495  128 */\n      0x80\n        /* \"@uniswap/v3-core/contracts/libraries/TickMath.sol\":3462:3487  0x48a170391f7dc42444e8fa2 */\n      0x048a170391f7dc42444e8fa2\n        /* \"@uniswap/v3-core/contracts/libraries/TickMath.sol\":3454:3459  ratio */\n      dup3\n        /* \"@uniswap/v3-core/contracts/libraries/TickMath.sol\":3454:3487  ratio * 0x48a170391f7dc42444e8fa2 */\n      mul\n        /* \"@uniswap/v3-core/contracts/libraries/TickMath.sol\":3453:3495  (ratio * 0x48a170391f7dc42444e8fa2) >> 128 */\n      swap1\n      shr\n        /* \"@uniswap/v3-core/contracts/libraries/TickMath.sol\":3445:3495  ratio = (ratio * 0x48a170391f7dc42444e8fa2) >> 128 */\n      swap1\n      pop\n        /* \"@uniswap/v3-core/contracts/libraries/TickMath.sol\":3417:3495  if (absTick & 0x80000 != 0) ratio = (ratio * 0x48a170391f7dc42444e8fa2) >> 128 */\n    tag_163:\n        /* \"@uniswap/v3-core/contracts/libraries/TickMath.sol\":3517:3518  0 */\n      0x00\n        /* \"@uniswap/v3-core/contracts/libraries/TickMath.sol\":3510:3514  tick */\n      dup5\n        /* \"@uniswap/v3-core/contracts/libraries/TickMath.sol\":3510:3518  tick > 0 */\n      0x02\n      signextend\n      sgt\n        /* \"@uniswap/v3-core/contracts/libraries/TickMath.sol\":3506:3553  if (tick > 0) ratio = type(uint256).max / ratio */\n      iszero\n      tag_164\n      jumpi\n        /* \"@uniswap/v3-core/contracts/libraries/TickMath.sol\":3548:3553  ratio */\n      dup1\n        /* \"@uniswap/v3-core/contracts/libraries/TickMath.sol\":3528:3545  type(uint256).max */\n      0xffffffffffffffffffffffffffffffffffffffffffffffffffffffffffffffff\n        /* \"@uniswap/v3-core/contracts/libraries/TickMath.sol\":3528:3553  type(uint256).max / ratio */\n      dup2\n      tag_165\n      jumpi\n      invalid\n    tag_165:\n      div\n        /* \"@uniswap/v3-core/contracts/libraries/TickMath.sol\":3520:3553  ratio = type(uint256).max / ratio */\n      swap1\n      pop\n        /* \"@uniswap/v3-core/contracts/libraries/TickMath.sol\":3506:3553  if (tick > 0) ratio = type(uint256).max / ratio */\n    tag_164:\n        /* \"@uniswap/v3-core/contracts/libraries/TickMath.sol\":3924:3925  0 */\n      0x00\n        /* \"@uniswap/v3-core/contracts/libraries/TickMath.sol\":3912:3919  1 << 32 */\n      0x0100000000\n        /* \"@uniswap/v3-core/contracts/libraries/TickMath.sol\":3903:3908  ratio */\n      dup3\n        /* \"@uniswap/v3-core/contracts/libraries/TickMath.sol\":3903:3920  ratio % (1 << 32) */\n      dup2\n      tag_166\n      jumpi\n      invalid\n    tag_166:\n      mod\n        /* \"@uniswap/v3-core/contracts/libraries/TickMath.sol\":3903:3925  ratio % (1 << 32) == 0 */\n      eq\n        /* \"@uniswap/v3-core/contracts/libraries/TickMath.sol\":3903:3933  ratio % (1 << 32) == 0 ? 0 : 1 */\n      tag_167\n      jumpi\n        /* \"@uniswap/v3-core/contracts/libraries/TickMath.sol\":3932:3933  1 */\n      0x01\n        /* \"@uniswap/v3-core/contracts/libraries/TickMath.sol\":3903:3933  ratio % (1 << 32) == 0 ? 0 : 1 */\n      jump(tag_168)\n    tag_167:\n        /* \"@uniswap/v3-core/contracts/libraries/TickMath.sol\":3928:3929  0 */\n      0x00\n        /* \"@uniswap/v3-core/contracts/libraries/TickMath.sol\":3903:3933  ratio % (1 << 32) == 0 ? 0 : 1 */\n    tag_168:\n        /* \"@uniswap/v3-core/contracts/libraries/TickMath.sol\":3886:3934  (ratio >> 32) + (ratio % (1 << 32) == 0 ? 0 : 1) */\n      0xff\n      and\n        /* \"@uniswap/v3-core/contracts/libraries/TickMath.sol\":3896:3898  32 */\n      0x20\n        /* \"@uniswap/v3-core/contracts/libraries/TickMath.sol\":3887:3892  ratio */\n      dup3\n        /* \"@uniswap/v3-core/contracts/libraries/TickMath.sol\":3887:3898  ratio >> 32 */\n      swap1\n      shr\n        /* \"@uniswap/v3-core/contracts/libraries/TickMath.sol\":3886:3934  (ratio >> 32) + (ratio % (1 << 32) == 0 ? 0 : 1) */\n      add\n        /* \"@uniswap/v3-core/contracts/libraries/TickMath.sol\":3863:3935  sqrtPriceX96 = uint160((ratio >> 32) + (ratio % (1 << 32) == 0 ? 0 : 1)) */\n      swap3\n      pop\n        /* \"@uniswap/v3-core/contracts/libraries/TickMath.sol\":1362:3942  function getSqrtRatioAtTick(int24 tick) internal pure returns (uint160 sqrtPriceX96) {... */\n      pop\n      pop\n      swap2\n      swap1\n      pop\n      jump\t// out\n        /* \"@uniswap/v3-core/contracts/libraries/FullMath.sol\":749:4525  function mulDiv(... */\n    tag_130:\n        /* \"@uniswap/v3-core/contracts/libraries/FullMath.sol\":861:875  uint256 result */\n      0x00\n        /* \"@uniswap/v3-core/contracts/libraries/FullMath.sol\":1190:1203  uint256 prod0 */\n      dup1\n        /* \"@uniswap/v3-core/contracts/libraries/FullMath.sol\":1258:1271  uint256 prod1 */\n      0x00\n        /* \"@uniswap/v3-core/contracts/libraries/FullMath.sol\":1375:1376  0 */\n      dup1\n        /* \"@uniswap/v3-core/contracts/libraries/FullMath.sol\":1371:1377  not(0) */\n      not\n        /* \"@uniswap/v3-core/contracts/libraries/FullMath.sol\":1368:1369  b */\n      dup6\n        /* \"@uniswap/v3-core/contracts/libraries/FullMath.sol\":1365:1366  a */\n      dup8\n        /* \"@uniswap/v3-core/contracts/libraries/FullMath.sol\":1358:1378  mulmod(a, b, not(0)) */\n      mulmod\n        /* \"@uniswap/v3-core/contracts/libraries/FullMath.sol\":1407:1408  b */\n      dup6\n        /* \"@uniswap/v3-core/contracts/libraries/FullMath.sol\":1404:1405  a */\n      dup8\n        /* \"@uniswap/v3-core/contracts/libraries/FullMath.sol\":1400:1409  mul(a, b) */\n      mul\n        /* \"@uniswap/v3-core/contracts/libraries/FullMath.sol\":1391:1409  prod0 := mul(a, b) */\n      swap3\n      pop\n        /* \"@uniswap/v3-core/contracts/libraries/FullMath.sol\":1458:1463  prod0 */\n      dup3\n        /* \"@uniswap/v3-core/contracts/libraries/FullMath.sol\":1454:1456  mm */\n      dup2\n        /* \"@uniswap/v3-core/contracts/libraries/FullMath.sol\":1451:1464  lt(mm, prod0) */\n      lt\n        /* \"@uniswap/v3-core/contracts/libraries/FullMath.sol\":1443:1448  prod0 */\n      dup4\n        /* \"@uniswap/v3-core/contracts/libraries/FullMath.sol\":1439:1441  mm */\n      dup3\n        /* \"@uniswap/v3-core/contracts/libraries/FullMath.sol\":1435:1449  sub(mm, prod0) */\n      sub\n        /* \"@uniswap/v3-core/contracts/libraries/FullMath.sol\":1431:1465  sub(sub(mm, prod0), lt(mm, prod0)) */\n      sub\n        /* \"@uniswap/v3-core/contracts/libraries/FullMath.sol\":1422:1465  prod1 := sub(sub(mm, prod0), lt(mm, prod0)) */\n      swap2\n      pop\n        /* \"@uniswap/v3-core/contracts/libraries/FullMath.sol\":1334:1475  {... */\n      pop\n        /* \"@uniswap/v3-core/contracts/libraries/FullMath.sol\":1556:1557  0 */\n      0x00\n        /* \"@uniswap/v3-core/contracts/libraries/FullMath.sol\":1547:1552  prod1 */\n      dup2\n        /* \"@uniswap/v3-core/contracts/libraries/FullMath.sol\":1547:1557  prod1 == 0 */\n      eq\n        /* \"@uniswap/v3-core/contracts/libraries/FullMath.sol\":1543:1722  if (prod1 == 0) {... */\n      iszero\n      tag_170\n      jumpi\n        /* \"@uniswap/v3-core/contracts/libraries/FullMath.sol\":1595:1596  0 */\n      0x00\n        /* \"@uniswap/v3-core/contracts/libraries/FullMath.sol\":1581:1592  denominator */\n      dup5\n        /* \"@uniswap/v3-core/contracts/libraries/FullMath.sol\":1581:1596  denominator > 0 */\n      gt\n        /* \"@uniswap/v3-core/contracts/libraries/FullMath.sol\":1573:1597  require(denominator > 0) */\n      tag_171\n      jumpi\n      0x00\n      dup1\n      revert\n    tag_171:\n        /* \"@uniswap/v3-core/contracts/libraries/FullMath.sol\":1659:1670  denominator */\n      dup4\n        /* \"@uniswap/v3-core/contracts/libraries/FullMath.sol\":1652:1657  prod0 */\n      dup3\n        /* \"@uniswap/v3-core/contracts/libraries/FullMath.sol\":1648:1671  div(prod0, denominator) */\n      div\n        /* \"@uniswap/v3-core/contracts/libraries/FullMath.sol\":1638:1671  result := div(prod0, denominator) */\n      swap3\n      pop\n        /* \"@uniswap/v3-core/contracts/libraries/FullMath.sol\":1698:1711  return result */\n      pop\n      pop\n      jump(tag_169)\n        /* \"@uniswap/v3-core/contracts/libraries/FullMath.sol\":1543:1722  if (prod1 == 0) {... */\n    tag_170:\n        /* \"@uniswap/v3-core/contracts/libraries/FullMath.sol\":1849:1854  prod1 */\n      dup1\n        /* \"@uniswap/v3-core/contracts/libraries/FullMath.sol\":1835:1846  denominator */\n      dup5\n        /* \"@uniswap/v3-core/contracts/libraries/FullMath.sol\":1835:1854  denominator > prod1 */\n      gt\n        /* \"@uniswap/v3-core/contracts/libraries/FullMath.sol\":1827:1855  require(denominator > prod1) */\n      tag_172\n      jumpi\n      0x00\n      dup1\n      revert\n    tag_172:\n        /* \"@uniswap/v3-core/contracts/libraries/FullMath.sol\":2132:2149  uint256 remainder */\n      0x00\n        /* \"@uniswap/v3-core/contracts/libraries/FullMath.sol\":2208:2219  denominator */\n      dup5\n        /* \"@uniswap/v3-core/contracts/libraries/FullMath.sol\":2205:2206  b */\n      dup7\n        /* \"@uniswap/v3-core/contracts/libraries/FullMath.sol\":2202:2203  a */\n      dup9\n        /* \"@uniswap/v3-core/contracts/libraries/FullMath.sol\":2195:2220  mulmod(a, b, denominator) */\n      mulmod\n        /* \"@uniswap/v3-core/contracts/libraries/FullMath.sol\":2182:2220  remainder := mulmod(a, b, denominator) */\n      swap1\n      pop\n        /* \"@uniswap/v3-core/contracts/libraries/FullMath.sol\":2351:2356  prod0 */\n      dup3\n        /* \"@uniswap/v3-core/contracts/libraries/FullMath.sol\":2340:2349  remainder */\n      dup2\n        /* \"@uniswap/v3-core/contracts/libraries/FullMath.sol\":2337:2357  gt(remainder, prod0) */\n      gt\n        /* \"@uniswap/v3-core/contracts/libraries/FullMath.sol\":2330:2335  prod1 */\n      dup3\n        /* \"@uniswap/v3-core/contracts/libraries/FullMath.sol\":2326:2358  sub(prod1, gt(remainder, prod0)) */\n      sub\n        /* \"@uniswap/v3-core/contracts/libraries/FullMath.sol\":2317:2358  prod1 := sub(prod1, gt(remainder, prod0)) */\n      swap2\n      pop\n        /* \"@uniswap/v3-core/contracts/libraries/FullMath.sol\":2391:2400  remainder */\n      dup1\n        /* \"@uniswap/v3-core/contracts/libraries/FullMath.sol\":2384:2389  prod0 */\n      dup4\n        /* \"@uniswap/v3-core/contracts/libraries/FullMath.sol\":2380:2401  sub(prod0, remainder) */\n      sub\n        /* \"@uniswap/v3-core/contracts/libraries/FullMath.sol\":2371:2401  prod0 := sub(prod0, remainder) */\n      swap3\n      pop\n        /* \"@uniswap/v3-core/contracts/libraries/FullMath.sol\":2560:2572  uint256 twos */\n      0x00\n        /* \"@uniswap/v3-core/contracts/libraries/FullMath.sol\":2590:2601  denominator */\n      dup6\n        /* \"@uniswap/v3-core/contracts/libraries/FullMath.sol\":2576:2587  denominator */\n      dup7\n        /* \"@uniswap/v3-core/contracts/libraries/FullMath.sol\":2575:2587  -denominator */\n      0x00\n      sub\n        /* \"@uniswap/v3-core/contracts/libraries/FullMath.sol\":2575:2601  -denominator & denominator */\n      and\n        /* \"@uniswap/v3-core/contracts/libraries/FullMath.sol\":2560:2601  uint256 twos = -denominator & denominator */\n      swap1\n      pop\n        /* \"@uniswap/v3-core/contracts/libraries/FullMath.sol\":2712:2716  twos */\n      dup1\n        /* \"@uniswap/v3-core/contracts/libraries/FullMath.sol\":2699:2710  denominator */\n      dup7\n        /* \"@uniswap/v3-core/contracts/libraries/FullMath.sol\":2695:2717  div(denominator, twos) */\n      div\n        /* \"@uniswap/v3-core/contracts/libraries/FullMath.sol\":2680:2717  denominator := div(denominator, twos) */\n      swap6\n      pop\n        /* \"@uniswap/v3-core/contracts/libraries/FullMath.sol\":2834:2838  twos */\n      dup1\n        /* \"@uniswap/v3-core/contracts/libraries/FullMath.sol\":2827:2832  prod0 */\n      dup5\n        /* \"@uniswap/v3-core/contracts/libraries/FullMath.sol\":2823:2839  div(prod0, twos) */\n      div\n        /* \"@uniswap/v3-core/contracts/libraries/FullMath.sol\":2814:2839  prod0 := div(prod0, twos) */\n      swap4\n      pop\n        /* \"@uniswap/v3-core/contracts/libraries/FullMath.sol\":3088:3089  1 */\n      0x01\n        /* \"@uniswap/v3-core/contracts/libraries/FullMath.sol\":3081:3085  twos */\n      dup2\n        /* \"@uniswap/v3-core/contracts/libraries/FullMath.sol\":3074:3078  twos */\n      dup3\n        /* \"@uniswap/v3-core/contracts/libraries/FullMath.sol\":3071:3072  0 */\n      0x00\n        /* \"@uniswap/v3-core/contracts/libraries/FullMath.sol\":3067:3079  sub(0, twos) */\n      sub\n        /* \"@uniswap/v3-core/contracts/libraries/FullMath.sol\":3063:3086  div(sub(0, twos), twos) */\n      div\n        /* \"@uniswap/v3-core/contracts/libraries/FullMath.sol\":3059:3090  add(div(sub(0, twos), twos), 1) */\n      add\n        /* \"@uniswap/v3-core/contracts/libraries/FullMath.sol\":3051:3090  twos := add(div(sub(0, twos), twos), 1) */\n      swap1\n      pop\n        /* \"@uniswap/v3-core/contracts/libraries/FullMath.sol\":3126:3130  twos */\n      dup1\n        /* \"@uniswap/v3-core/contracts/libraries/FullMath.sol\":3118:3123  prod1 */\n      dup4\n        /* \"@uniswap/v3-core/contracts/libraries/FullMath.sol\":3118:3130  prod1 * twos */\n      mul\n        /* \"@uniswap/v3-core/contracts/libraries/FullMath.sol\":3109:3130  prod0 |= prod1 * twos */\n      dup5\n      or\n      swap4\n      pop\n        /* \"@uniswap/v3-core/contracts/libraries/FullMath.sol\":3464:3475  uint256 inv */\n      0x00\n        /* \"@uniswap/v3-core/contracts/libraries/FullMath.sol\":3498:3499  2 */\n      0x02\n        /* \"@uniswap/v3-core/contracts/libraries/FullMath.sol\":3483:3494  denominator */\n      dup8\n        /* \"@uniswap/v3-core/contracts/libraries/FullMath.sol\":3479:3480  3 */\n      0x03\n        /* \"@uniswap/v3-core/contracts/libraries/FullMath.sol\":3479:3494  3 * denominator */\n      mul\n        /* \"@uniswap/v3-core/contracts/libraries/FullMath.sol\":3478:3499  (3 * denominator) ^ 2 */\n      xor\n        /* \"@uniswap/v3-core/contracts/libraries/FullMath.sol\":3464:3499  uint256 inv = (3 * denominator) ^ 2 */\n      swap1\n      pop\n        /* \"@uniswap/v3-core/contracts/libraries/FullMath.sol\":3739:3742  inv */\n      dup1\n        /* \"@uniswap/v3-core/contracts/libraries/FullMath.sol\":3725:3736  denominator */\n      dup8\n        /* \"@uniswap/v3-core/contracts/libraries/FullMath.sol\":3725:3742  denominator * inv */\n      mul\n        /* \"@uniswap/v3-core/contracts/libraries/FullMath.sol\":3721:3722  2 */\n      0x02\n        /* \"@uniswap/v3-core/contracts/libraries/FullMath.sol\":3721:3742  2 - denominator * inv */\n      sub\n        /* \"@uniswap/v3-core/contracts/libraries/FullMath.sol\":3714:3742  inv *= 2 - denominator * inv */\n      dup2\n      mul\n      swap1\n      pop\n        /* \"@uniswap/v3-core/contracts/libraries/FullMath.sol\":3797:3800  inv */\n      dup1\n        /* \"@uniswap/v3-core/contracts/libraries/FullMath.sol\":3783:3794  denominator */\n      dup8\n        /* \"@uniswap/v3-core/contracts/libraries/FullMath.sol\":3783:3800  denominator * inv */\n      mul\n        /* \"@uniswap/v3-core/contracts/libraries/FullMath.sol\":3779:3780  2 */\n      0x02\n        /* \"@uniswap/v3-core/contracts/libraries/FullMath.sol\":3779:3800  2 - denominator * inv */\n      sub\n        /* \"@uniswap/v3-core/contracts/libraries/FullMath.sol\":3772:3800  inv *= 2 - denominator * inv */\n      dup2\n      mul\n      swap1\n      pop\n        /* \"@uniswap/v3-core/contracts/libraries/FullMath.sol\":3856:3859  inv */\n      dup1\n        /* \"@uniswap/v3-core/contracts/libraries/FullMath.sol\":3842:3853  denominator */\n      dup8\n        /* \"@uniswap/v3-core/contracts/libraries/FullMath.sol\":3842:3859  denominator * inv */\n      mul\n        /* \"@uniswap/v3-core/contracts/libraries/FullMath.sol\":3838:3839  2 */\n      0x02\n        /* \"@uniswap/v3-core/contracts/libraries/FullMath.sol\":3838:3859  2 - denominator * inv */\n      sub\n        /* \"@uniswap/v3-core/contracts/libraries/FullMath.sol\":3831:3859  inv *= 2 - denominator * inv */\n      dup2\n      mul\n      swap1\n      pop\n        /* \"@uniswap/v3-core/contracts/libraries/FullMath.sol\":3915:3918  inv */\n      dup1\n        /* \"@uniswap/v3-core/contracts/libraries/FullMath.sol\":3901:3912  denominator */\n      dup8\n        /* \"@uniswap/v3-core/contracts/libraries/FullMath.sol\":3901:3918  denominator * inv */\n      mul\n        /* \"@uniswap/v3-core/contracts/libraries/FullMath.sol\":3897:3898  2 */\n      0x02\n        /* \"@uniswap/v3-core/contracts/libraries/FullMath.sol\":3897:3918  2 - denominator * inv */\n      sub\n        /* \"@uniswap/v3-core/contracts/libraries/FullMath.sol\":3890:3918  inv *= 2 - denominator * inv */\n      dup2\n      mul\n      swap1\n      pop\n        /* \"@uniswap/v3-core/contracts/libraries/FullMath.sol\":3974:3977  inv */\n      dup1\n        /* \"@uniswap/v3-core/contracts/libraries/FullMath.sol\":3960:3971  denominator */\n      dup8\n        /* \"@uniswap/v3-core/contracts/libraries/FullMath.sol\":3960:3977  denominator * inv */\n      mul\n        /* \"@uniswap/v3-core/contracts/libraries/FullMath.sol\":3956:3957  2 */\n      0x02\n        /* \"@uniswap/v3-core/contracts/libraries/FullMath.sol\":3956:3977  2 - denominator * inv */\n      sub\n        /* \"@uniswap/v3-core/contracts/libraries/FullMath.sol\":3949:3977  inv *= 2 - denominator * inv */\n      dup2\n      mul\n      swap1\n      pop\n        /* \"@uniswap/v3-core/contracts/libraries/FullMath.sol\":4034:4037  inv */\n      dup1\n        /* \"@uniswap/v3-core/contracts/libraries/FullMath.sol\":4020:4031  denominator */\n      dup8\n        /* \"@uniswap/v3-core/contracts/libraries/FullMath.sol\":4020:4037  denominator * inv */\n      mul\n        /* \"@uniswap/v3-core/contracts/libraries/FullMath.sol\":4016:4017  2 */\n      0x02\n        /* \"@uniswap/v3-core/contracts/libraries/FullMath.sol\":4016:4037  2 - denominator * inv */\n      sub\n        /* \"@uniswap/v3-core/contracts/libraries/FullMath.sol\":4009:4037  inv *= 2 - denominator * inv */\n      dup2\n      mul\n      swap1\n      pop\n        /* \"@uniswap/v3-core/contracts/libraries/FullMath.sol\":4492:4495  inv */\n      dup1\n        /* \"@uniswap/v3-core/contracts/libraries/FullMath.sol\":4484:4489  prod0 */\n      dup6\n        /* \"@uniswap/v3-core/contracts/libraries/FullMath.sol\":4484:4495  prod0 * inv */\n      mul\n        /* \"@uniswap/v3-core/contracts/libraries/FullMath.sol\":4475:4495  result = prod0 * inv */\n      swap6\n      pop\n        /* \"@uniswap/v3-core/contracts/libraries/FullMath.sol\":4505:4518  return result */\n      pop\n      pop\n      pop\n      pop\n      pop\n        /* \"@uniswap/v3-core/contracts/libraries/FullMath.sol\":749:4525  function mulDiv(... */\n    tag_169:\n      swap4\n      swap3\n      pop\n      pop\n      pop\n      jump\t// out\n    tag_37:\n      mload(0x40)\n      dup1\n      0x80\n      add\n      0x40\n      mstore\n      dup1\n      0x04\n      swap1\n      0x20\n      dup3\n      mul\n      dup1\n      calldatasize\n      dup4\n      calldatacopy\n      dup1\n      dup3\n      add\n      swap2\n      pop\n      pop\n      swap1\n      pop\n      pop\n      swap1\n      jump\t// out\n\n    auxdata: 0xa2646970667358221220f3f6ae6982dfb80d107d6c14ce1262f819d472fbeb6e015df3c349ee2a73330164736f6c63430007060033\n}\n",
				"bytecode": {
					"linkReferences": {},
					"object": "611766610026600b82828239805160001a60731461001957fe5b30600052607381538281f3fe730000000000000000000000000000000000000000301460806040526004361061004b5760003560e01c80638c39560e14610050578063bcbcaa29146100fe578063c361e0b1146101ac575b600080fd5b6100dc6004803603608081101561006657600080fd5b81019080803573ffffffffffffffffffffffffffffffffffffffff169060200190929190803573ffffffffffffffffffffffffffffffffffffffff169060200190929190803573ffffffffffffffffffffffffffffffffffffffff16906020019092919080359060200190929190505050610250565b604051808381526020018262ffffff1681526020019250505060405180910390f35b610194600480360360a081101561011457600080fd5b81019080803573ffffffffffffffffffffffffffffffffffffffff169060200190929190803573ffffffffffffffffffffffffffffffffffffffff169060200190929190803573ffffffffffffffffffffffffffffffffffffffff16906020019092919080359060200190929190803590602001909291905050506104cc565b60405180821515815260200191505060405180910390f35b61022e600480360360608110156101c257600080fd5b81019080803573ffffffffffffffffffffffffffffffffffffffff169060200190929190803573ffffffffffffffffffffffffffffffffffffffff169060200190929190803573ffffffffffffffffffffffffffffffffffffffff1690602001909291905050506107c7565b604051808381526020018262ffffff1681526020019250505060405180910390f35b60008060006040518060800160405280606461ffff1681526020016101f461ffff168152602001610bb861ffff16815260200161271061ffff16815250905060005b60048160ff1610156104c15760008873ffffffffffffffffffffffffffffffffffffffff16631698ee828989868660ff16600481106102cd57fe5b60200201516040518463ffffffff1660e01b8152600401808473ffffffffffffffffffffffffffffffffffffffff1681526020018373ffffffffffffffffffffffffffffffffffffffff1681526020018261ffff168152602001935050505060206040518083038186803b15801561034457600080fd5b505afa158015610358573d6000803e3d6000fd5b505050506040513d602081101561036e57600080fd5b81019080805190602001909291905050509050600073ffffffffffffffffffffffffffffffffffffffff168173ffffffffffffffffffffffffffffffffffffffff1614156103bc57506104b4565b858873ffffffffffffffffffffffffffffffffffffffff166370a08231836040518263ffffffff1660e01b8152600401808273ffffffffffffffffffffffffffffffffffffffff16815260200191505060206040518083038186803b15801561042457600080fd5b505afa158015610438573d6000803e3d6000fd5b505050506040513d602081101561044e57600080fd5b8101908080519060200190929190505050101561046b57506104b4565b6000610478826001610c57565b9050600061048882898c8c610ff6565b9050868111156104b057809650848460ff16600481106104a457fe5b602002015161ffff1695505b5050505b8080600101915050610292565b505094509492505050565b6000806040518060800160405280606461ffff1681526020016101f461ffff168152602001610bb861ffff16815260200161271061ffff16815250905061051161170e565b60005b60048160ff1610156107b65760008973ffffffffffffffffffffffffffffffffffffffff16631698ee828a8a878660ff166004811061054f57fe5b60200201516040518463ffffffff1660e01b8152600401808473ffffffffffffffffffffffffffffffffffffffff1681526020018373ffffffffffffffffffffffffffffffffffffffff1681526020018261ffff168152602001935050505060206040518083038186803b1580156105c657600080fd5b505afa1580156105da573d6000803e3d6000fd5b505050506040513d60208110156105f057600080fd5b81019080805190602001909291905050509050600073ffffffffffffffffffffffffffffffffffffffff168173ffffffffffffffffffffffffffffffffffffffff16141561063e57506107a9565b868973ffffffffffffffffffffffffffffffffffffffff166370a08231836040518263ffffffff1660e01b8152600401808273ffffffffffffffffffffffffffffffffffffffff16815260200191505060206040518083038186803b1580156106a657600080fd5b505afa1580156106ba573d6000803e3d6000fd5b505050506040513d60208110156106d057600080fd5b810190808051906020019092919050505010156106ed57506107a9565b858873ffffffffffffffffffffffffffffffffffffffff166370a08231836040518263ffffffff1660e01b8152600401808273ffffffffffffffffffffffffffffffffffffffff16815260200191505060206040518083038186803b15801561075557600080fd5b505afa158015610769573d6000803e3d6000fd5b505050506040513d602081101561077f57600080fd5b8101908080519060200190929190505050101561079c57506107a9565b60019450505050506107be565b8080600101915050610514565b506000925050505b95945050505050565b60008060006040518060800160405280606461ffff1681526020016101f461ffff168152602001610bb861ffff16815260200161271061ffff16815250905060005b60048160ff161015610c4d5760008773ffffffffffffffffffffffffffffffffffffffff16631698ee828888868660ff166004811061084457fe5b60200201516040518463ffffffff1660e01b8152600401808473ffffffffffffffffffffffffffffffffffffffff1681526020018373ffffffffffffffffffffffffffffffffffffffff1681526020018261ffff168152602001935050505060206040518083038186803b1580156108bb57600080fd5b505afa1580156108cf573d6000803e3d6000fd5b505050506040513d60208110156108e557600080fd5b81019080805190602001909291905050509050600073ffffffffffffffffffffffffffffffffffffffff168173ffffffffffffffffffffffffffffffffffffffff1614156109335750610c40565b60008773ffffffffffffffffffffffffffffffffffffffff1663313ce5676040518163ffffffff1660e01b815260040160206040518083038186803b15801561097b57600080fd5b505afa15801561098f573d6000803e3d6000fd5b505050506040513d60208110156109a557600080fd5b8101908080519060200190929190505050905060008773ffffffffffffffffffffffffffffffffffffffff1663313ce5676040518163ffffffff1660e01b815260040160206040518083038186803b158015610a0057600080fd5b505afa158015610a14573d6000803e3d6000fd5b505050506040513d6020811015610a2a57600080fd5b810190808051906020019092919050505090508160ff16600a0a8973ffffffffffffffffffffffffffffffffffffffff166370a08231856040518263ffffffff1660e01b8152600401808273ffffffffffffffffffffffffffffffffffffffff16815260200191505060206040518083038186803b158015610aab57600080fd5b505afa158015610abf573d6000803e3d6000fd5b505050506040513d6020811015610ad557600080fd5b81019080805190602001909291905050501015610af457505050610c40565b8060ff16600a0a8873ffffffffffffffffffffffffffffffffffffffff166370a08231856040518263ffffffff1660e01b8152600401808273ffffffffffffffffffffffffffffffffffffffff16815260200191505060206040518083038186803b158015610b6257600080fd5b505afa158015610b76573d6000803e3d6000fd5b505050506040513d6020811015610b8c57600080fd5b81019080805190602001909291905050501015610bab57505050610c40565b6000610bb8846001610c57565b90506000610bce828560ff16600a0a8d8d610ff6565b905060008660ff161415610bfa57809850868660ff1660048110610bee57fe5b602002015161ffff1697505b60008660ff16118015610c1757506000891480610c1657508881105b5b15610c3a57809850868660ff1660048110610c2e57fe5b602002015161ffff1697505b50505050505b8080600101915050610809565b5050935093915050565b6000808263ffffffff161415610cd5576040517f08c379a00000000000000000000000000000000000000000000000000000000081526004018080602001828103825260028152602001807f425000000000000000000000000000000000000000000000000000000000000081525060200191505060405180910390fd5b6000600267ffffffffffffffff81118015610cef57600080fd5b50604051908082528060200260200182016040528015610d1e5781602001602082028036833780820191505090505b5090508281600081518110610d2f57fe5b602002602001019063ffffffff16908163ffffffff1681525050600081600181518110610d5857fe5b602002602001019063ffffffff16908163ffffffff168152505060008473ffffffffffffffffffffffffffffffffffffffff1663883bdbfd836040518263ffffffff1660e01b81526004018080602001828103825283818151815260200191508051906020019060200280838360005b83811015610de3578082015181840152602081019050610dc8565b505050509050019250505060006040518083038186803b158015610e0657600080fd5b505afa158015610e1a573d6000803e3d6000fd5b505050506040513d6000823e3d601f19601f820116820180604052506040811015610e4457600080fd5b8101908080516040519392919084640100000000821115610e6457600080fd5b83820191506020820185811115610e7a57600080fd5b8251866020820283011164010000000082111715610e9757600080fd5b8083526020830192505050908051906020019060200280838360005b83811015610ece578082015181840152602081019050610eb3565b5050505090500160405260200180516040519392919084640100000000821115610ef757600080fd5b83820191506020820185811115610f0d57600080fd5b8251866020820283011164010000000082111715610f2a57600080fd5b8083526020830192505050908051906020019060200280838360005b83811015610f61578082015181840152602081019050610f46565b50505050905001604052505050509050600081600081518110610f8057fe5b602002602001015182600181518110610f9557fe5b60200260200101510390508463ffffffff168160060b81610fb257fe5b05935060008160060b128015610fde575060008563ffffffff168260060b81610fd757fe5b0760060b14155b15610fed578380600190039450505b50505092915050565b600080611002866111f9565b90506fffffffffffffffffffffffffffffffff80168173ffffffffffffffffffffffffffffffffffffffff16116111135760008173ffffffffffffffffffffffffffffffffffffffff168273ffffffffffffffffffffffffffffffffffffffff160290508373ffffffffffffffffffffffffffffffffffffffff168573ffffffffffffffffffffffffffffffffffffffff16106110d4576110cf7801000000000000000000000000000000000000000000000000876fffffffffffffffffffffffffffffffff1683611634565b61110b565b61110a81876fffffffffffffffffffffffffffffffff167801000000000000000000000000000000000000000000000000611634565b5b9250506111f0565b60006111558273ffffffffffffffffffffffffffffffffffffffff168373ffffffffffffffffffffffffffffffffffffffff1668010000000000000000611634565b90508373ffffffffffffffffffffffffffffffffffffffff168573ffffffffffffffffffffffffffffffffffffffff16106111bd576111b8700100000000000000000000000000000000876fffffffffffffffffffffffffffffffff1683611634565b6111ec565b6111eb81876fffffffffffffffffffffffffffffffff16700100000000000000000000000000000000611634565b5b9250505b50949350505050565b60008060008360020b12611210578260020b611218565b8260020b6000035b90507ffffffffffffffffffffffffffffffffffffffffffffffffffffffffffff2761860000360020b8111156112b6576040517f08c379a00000000000000000000000000000000000000000000000000000000081526004018080602001828103825260018152602001807f540000000000000000000000000000000000000000000000000000000000000081525060200191505060405180910390fd5b6000806001831614156112da577001000000000000000000000000000000006112ec565b6ffffcb933bd6fad37aa2d162d1a5940015b70ffffffffffffffffffffffffffffffffff169050600060028316146113265760806ffff97272373d413259a46990580e213a8202901c90505b6000600483161461134b5760806ffff2e50f5f656932ef12357cf3c7fdcc8202901c90505b600060088316146113705760806fffe5caca7e10e4e61c3624eaa0941cd08202901c90505b600060108316146113955760806fffcb9843d60f6159c9db58835c9266448202901c90505b600060208316146113ba5760806fff973b41fa98c081472e6896dfb254c08202901c90505b600060408316146113df5760806fff2ea16466c96a3843ec78b326b528618202901c90505b600060808316146114045760806ffe5dee046a99a2a811c461f1969c30538202901c90505b600061010083161461142a5760806ffcbe86c7900a88aedcffc83b479aa3a48202901c90505b60006102008316146114505760806ff987a7253ac413176f2b074cf7815e548202901c90505b60006104008316146114765760806ff3392b0822b70005940c7a398e4b70f38202901c90505b600061080083161461149c5760806fe7159475a2c29b7443b29c7fa6e889d98202901c90505b60006110008316146114c25760806fd097f3bdfd2022b8845ad8f792aa58258202901c90505b60006120008316146114e85760806fa9f746462d870fdf8a65dc1f90e061e58202901c90505b600061400083161461150e5760806f70d869a156d2a1b890bb3df62baf32f78202901c90505b60006180008316146115345760806f31be135f97d08fd981231505542fcfa68202901c90505b60006201000083161461155b5760806f09aa508b5b7a84e1c677de54f3e99bc98202901c90505b6000620200008316146115815760806e5d6af8dedb81196699c329225ee6048202901c90505b6000620400008316146115a65760806d2216e584f5fa1ea926041bedfe988202901c90505b6000620800008316146115c95760806b048a170391f7dc42444e8fa28202901c90505b60008460020b131561160257807fffffffffffffffffffffffffffffffffffffffffffffffffffffffffffffffff816115fe57fe5b0490505b6000640100000000828161161257fe5b061461161f576001611622565b60005b60ff16602082901c0192505050919050565b60008060008019858709858702925082811083820303915050600081141561166f576000841161166357600080fd5b83820492505050611707565b80841161167b57600080fd5b600084868809905082811182039150808303925060008586600003169050808604955080840493506001818260000304019050808302841793506000600287600302189050808702600203810290508087026002038102905080870260020381029050808702600203810290508087026002038102905080870260020381029050808502955050505050505b9392505050565b604051806080016040528060049060208202803683378082019150509050509056fea2646970667358221220f3f6ae6982dfb80d107d6c14ce1262f819d472fbeb6e015df3c349ee2a73330164736f6c63430007060033",
					"opcodes": "PUSH2 0x1766 PUSH2 0x26 PUSH1 0xB DUP3 DUP3 DUP3 CODECOPY DUP1 MLOAD PUSH1 0x0 BYTE PUSH1 0x73 EQ PUSH2 0x19 JUMPI INVALID JUMPDEST ADDRESS PUSH1 0x0 MSTORE PUSH1 0x73 DUP2 MSTORE8 DUP3 DUP2 RETURN INVALID PUSH20 0x0 ADDRESS EQ PUSH1 0x80 PUSH1 0x40 MSTORE PUSH1 0x4 CALLDATASIZE LT PUSH2 0x4B JUMPI PUSH1 0x0 CALLDATALOAD PUSH1 0xE0 SHR DUP1 PUSH4 0x8C39560E EQ PUSH2 0x50 JUMPI DUP1 PUSH4 0xBCBCAA29 EQ PUSH2 0xFE JUMPI DUP1 PUSH4 0xC361E0B1 EQ PUSH2 0x1AC JUMPI JUMPDEST PUSH1 0x0 DUP1 REVERT JUMPDEST PUSH2 0xDC PUSH1 0x4 DUP1 CALLDATASIZE SUB PUSH1 0x80 DUP2 LT ISZERO PUSH2 0x66 JUMPI PUSH1 0x0 DUP1 REVERT JUMPDEST DUP2 ADD SWAP1 DUP1 DUP1 CALLDATALOAD PUSH20 0xFFFFFFFFFFFFFFFFFFFFFFFFFFFFFFFFFFFFFFFF AND SWAP1 PUSH1 0x20 ADD SWAP1 SWAP3 SWAP2 SWAP1 DUP1 CALLDATALOAD PUSH20 0xFFFFFFFFFFFFFFFFFFFFFFFFFFFFFFFFFFFFFFFF AND SWAP1 PUSH1 0x20 ADD SWAP1 SWAP3 SWAP2 SWAP1 DUP1 CALLDATALOAD PUSH20 0xFFFFFFFFFFFFFFFFFFFFFFFFFFFFFFFFFFFFFFFF AND SWAP1 PUSH1 0x20 ADD SWAP1 SWAP3 SWAP2 SWAP1 DUP1 CALLDATALOAD SWAP1 PUSH1 0x20 ADD SWAP1 SWAP3 SWAP2 SWAP1 POP POP POP PUSH2 0x250 JUMP JUMPDEST PUSH1 0x40 MLOAD DUP1 DUP4 DUP2 MSTORE PUSH1 0x20 ADD DUP3 PUSH3 0xFFFFFF AND DUP2 MSTORE PUSH1 0x20 ADD SWAP3 POP POP POP PUSH1 0x40 MLOAD DUP1 SWAP2 SUB SWAP1 RETURN JUMPDEST PUSH2 0x194 PUSH1 0x4 DUP1 CALLDATASIZE SUB PUSH1 0xA0 DUP2 LT ISZERO PUSH2 0x114 JUMPI PUSH1 0x0 DUP1 REVERT JUMPDEST DUP2 ADD SWAP1 DUP1 DUP1 CALLDATALOAD PUSH20 0xFFFFFFFFFFFFFFFFFFFFFFFFFFFFFFFFFFFFFFFF AND SWAP1 PUSH1 0x20 ADD SWAP1 SWAP3 SWAP2 SWAP1 DUP1 CALLDATALOAD PUSH20 0xFFFFFFFFFFFFFFFFFFFFFFFFFFFFFFFFFFFFFFFF AND SWAP1 PUSH1 0x20 ADD SWAP1 SWAP3 SWAP2 SWAP1 DUP1 CALLDATALOAD PUSH20 0xFFFFFFFFFFFFFFFFFFFFFFFFFFFFFFFFFFFFFFFF AND SWAP1 PUSH1 0x20 ADD SWAP1 SWAP3 SWAP2 SWAP1 DUP1 CALLDATALOAD SWAP1 PUSH1 0x20 ADD SWAP1 SWAP3 SWAP2 SWAP1 DUP1 CALLDATALOAD SWAP1 PUSH1 0x20 ADD SWAP1 SWAP3 SWAP2 SWAP1 POP POP POP PUSH2 0x4CC JUMP JUMPDEST PUSH1 0x40 MLOAD DUP1 DUP3 ISZERO ISZERO DUP2 MSTORE PUSH1 0x20 ADD SWAP2 POP POP PUSH1 0x40 MLOAD DUP1 SWAP2 SUB SWAP1 RETURN JUMPDEST PUSH2 0x22E PUSH1 0x4 DUP1 CALLDATASIZE SUB PUSH1 0x60 DUP2 LT ISZERO PUSH2 0x1C2 JUMPI PUSH1 0x0 DUP1 REVERT JUMPDEST DUP2 ADD SWAP1 DUP1 DUP1 CALLDATALOAD PUSH20 0xFFFFFFFFFFFFFFFFFFFFFFFFFFFFFFFFFFFFFFFF AND SWAP1 PUSH1 0x20 ADD SWAP1 SWAP3 SWAP2 SWAP1 DUP1 CALLDATALOAD PUSH20 0xFFFFFFFFFFFFFFFFFFFFFFFFFFFFFFFFFFFFFFFF AND SWAP1 PUSH1 0x20 ADD SWAP1 SWAP3 SWAP2 SWAP1 DUP1 CALLDATALOAD PUSH20 0xFFFFFFFFFFFFFFFFFFFFFFFFFFFFFFFFFFFFFFFF AND SWAP1 PUSH1 0x20 ADD SWAP1 SWAP3 SWAP2 SWAP1 POP POP POP PUSH2 0x7C7 JUMP JUMPDEST PUSH1 0x40 MLOAD DUP1 DUP4 DUP2 MSTORE PUSH1 0x20 ADD DUP3 PUSH3 0xFFFFFF AND DUP2 MSTORE PUSH1 0x20 ADD SWAP3 POP POP POP PUSH1 0x40 MLOAD DUP1 SWAP2 SUB SWAP1 RETURN JUMPDEST PUSH1 0x0 DUP1 PUSH1 0x0 PUSH1 0x40 MLOAD DUP1 PUSH1 0x80 ADD PUSH1 0x40 MSTORE DUP1 PUSH1 0x64 PUSH2 0xFFFF AND DUP2 MSTORE PUSH1 0x20 ADD PUSH2 0x1F4 PUSH2 0xFFFF AND DUP2 MSTORE PUSH1 0x20 ADD PUSH2 0xBB8 PUSH2 0xFFFF AND DUP2 MSTORE PUSH1 0x20 ADD PUSH2 0x2710 PUSH2 0xFFFF AND DUP2 MSTORE POP SWAP1 POP PUSH1 0x0 JUMPDEST PUSH1 0x4 DUP2 PUSH1 0xFF AND LT ISZERO PUSH2 0x4C1 JUMPI PUSH1 0x0 DUP9 PUSH20 0xFFFFFFFFFFFFFFFFFFFFFFFFFFFFFFFFFFFFFFFF AND PUSH4 0x1698EE82 DUP10 DUP10 DUP7 DUP7 PUSH1 0xFF AND PUSH1 0x4 DUP2 LT PUSH2 0x2CD JUMPI INVALID JUMPDEST PUSH1 0x20 MUL ADD MLOAD PUSH1 0x40 MLOAD DUP5 PUSH4 0xFFFFFFFF AND PUSH1 0xE0 SHL DUP2 MSTORE PUSH1 0x4 ADD DUP1 DUP5 PUSH20 0xFFFFFFFFFFFFFFFFFFFFFFFFFFFFFFFFFFFFFFFF AND DUP2 MSTORE PUSH1 0x20 ADD DUP4 PUSH20 0xFFFFFFFFFFFFFFFFFFFFFFFFFFFFFFFFFFFFFFFF AND DUP2 MSTORE PUSH1 0x20 ADD DUP3 PUSH2 0xFFFF AND DUP2 MSTORE PUSH1 0x20 ADD SWAP4 POP POP POP POP PUSH1 0x20 PUSH1 0x40 MLOAD DUP1 DUP4 SUB DUP2 DUP7 DUP1 EXTCODESIZE ISZERO DUP1 ISZERO PUSH2 0x344 JUMPI PUSH1 0x0 DUP1 REVERT JUMPDEST POP GAS STATICCALL ISZERO DUP1 ISZERO PUSH2 0x358 JUMPI RETURNDATASIZE PUSH1 0x0 DUP1 RETURNDATACOPY RETURNDATASIZE PUSH1 0x0 REVERT JUMPDEST POP POP POP POP PUSH1 0x40 MLOAD RETURNDATASIZE PUSH1 0x20 DUP2 LT ISZERO PUSH2 0x36E JUMPI PUSH1 0x0 DUP1 REVERT JUMPDEST DUP2 ADD SWAP1 DUP1 DUP1 MLOAD SWAP1 PUSH1 0x20 ADD SWAP1 SWAP3 SWAP2 SWAP1 POP POP POP SWAP1 POP PUSH1 0x0 PUSH20 0xFFFFFFFFFFFFFFFFFFFFFFFFFFFFFFFFFFFFFFFF AND DUP2 PUSH20 0xFFFFFFFFFFFFFFFFFFFFFFFFFFFFFFFFFFFFFFFF AND EQ ISZERO PUSH2 0x3BC JUMPI POP PUSH2 0x4B4 JUMP JUMPDEST DUP6 DUP9 PUSH20 0xFFFFFFFFFFFFFFFFFFFFFFFFFFFFFFFFFFFFFFFF AND PUSH4 0x70A08231 DUP4 PUSH1 0x40 MLOAD DUP3 PUSH4 0xFFFFFFFF AND PUSH1 0xE0 SHL DUP2 MSTORE PUSH1 0x4 ADD DUP1 DUP3 PUSH20 0xFFFFFFFFFFFFFFFFFFFFFFFFFFFFFFFFFFFFFFFF AND DUP2 MSTORE PUSH1 0x20 ADD SWAP2 POP POP PUSH1 0x20 PUSH1 0x40 MLOAD DUP1 DUP4 SUB DUP2 DUP7 DUP1 EXTCODESIZE ISZERO DUP1 ISZERO PUSH2 0x424 JUMPI PUSH1 0x0 DUP1 REVERT JUMPDEST POP GAS STATICCALL ISZERO DUP1 ISZERO PUSH2 0x438 JUMPI RETURNDATASIZE PUSH1 0x0 DUP1 RETURNDATACOPY RETURNDATASIZE PUSH1 0x0 REVERT JUMPDEST POP POP POP POP PUSH1 0x40 MLOAD RETURNDATASIZE PUSH1 0x20 DUP2 LT ISZERO PUSH2 0x44E JUMPI PUSH1 0x0 DUP1 REVERT JUMPDEST DUP2 ADD SWAP1 DUP1 DUP1 MLOAD SWAP1 PUSH1 0x20 ADD SWAP1 SWAP3 SWAP2 SWAP1 POP POP POP LT ISZERO PUSH2 0x46B JUMPI POP PUSH2 0x4B4 JUMP JUMPDEST PUSH1 0x0 PUSH2 0x478 DUP3 PUSH1 0x1 PUSH2 0xC57 JUMP JUMPDEST SWAP1 POP PUSH1 0x0 PUSH2 0x488 DUP3 DUP10 DUP13 DUP13 PUSH2 0xFF6 JUMP JUMPDEST SWAP1 POP DUP7 DUP2 GT ISZERO PUSH2 0x4B0 JUMPI DUP1 SWAP7 POP DUP5 DUP5 PUSH1 0xFF AND PUSH1 0x4 DUP2 LT PUSH2 0x4A4 JUMPI INVALID JUMPDEST PUSH1 0x20 MUL ADD MLOAD PUSH2 0xFFFF AND SWAP6 POP JUMPDEST POP POP POP JUMPDEST DUP1 DUP1 PUSH1 0x1 ADD SWAP2 POP POP PUSH2 0x292 JUMP JUMPDEST POP POP SWAP5 POP SWAP5 SWAP3 POP POP POP JUMP JUMPDEST PUSH1 0x0 DUP1 PUSH1 0x40 MLOAD DUP1 PUSH1 0x80 ADD PUSH1 0x40 MSTORE DUP1 PUSH1 0x64 PUSH2 0xFFFF AND DUP2 MSTORE PUSH1 0x20 ADD PUSH2 0x1F4 PUSH2 0xFFFF AND DUP2 MSTORE PUSH1 0x20 ADD PUSH2 0xBB8 PUSH2 0xFFFF AND DUP2 MSTORE PUSH1 0x20 ADD PUSH2 0x2710 PUSH2 0xFFFF AND DUP2 MSTORE POP SWAP1 POP PUSH2 0x511 PUSH2 0x170E JUMP JUMPDEST PUSH1 0x0 JUMPDEST PUSH1 0x4 DUP2 PUSH1 0xFF AND LT ISZERO PUSH2 0x7B6 JUMPI PUSH1 0x0 DUP10 PUSH20 0xFFFFFFFFFFFFFFFFFFFFFFFFFFFFFFFFFFFFFFFF AND PUSH4 0x1698EE82 DUP11 DUP11 DUP8 DUP7 PUSH1 0xFF AND PUSH1 0x4 DUP2 LT PUSH2 0x54F JUMPI INVALID JUMPDEST PUSH1 0x20 MUL ADD MLOAD PUSH1 0x40 MLOAD DUP5 PUSH4 0xFFFFFFFF AND PUSH1 0xE0 SHL DUP2 MSTORE PUSH1 0x4 ADD DUP1 DUP5 PUSH20 0xFFFFFFFFFFFFFFFFFFFFFFFFFFFFFFFFFFFFFFFF AND DUP2 MSTORE PUSH1 0x20 ADD DUP4 PUSH20 0xFFFFFFFFFFFFFFFFFFFFFFFFFFFFFFFFFFFFFFFF AND DUP2 MSTORE PUSH1 0x20 ADD DUP3 PUSH2 0xFFFF AND DUP2 MSTORE PUSH1 0x20 ADD SWAP4 POP POP POP POP PUSH1 0x20 PUSH1 0x40 MLOAD DUP1 DUP4 SUB DUP2 DUP7 DUP1 EXTCODESIZE ISZERO DUP1 ISZERO PUSH2 0x5C6 JUMPI PUSH1 0x0 DUP1 REVERT JUMPDEST POP GAS STATICCALL ISZERO DUP1 ISZERO PUSH2 0x5DA JUMPI RETURNDATASIZE PUSH1 0x0 DUP1 RETURNDATACOPY RETURNDATASIZE PUSH1 0x0 REVERT JUMPDEST POP POP POP POP PUSH1 0x40 MLOAD RETURNDATASIZE PUSH1 0x20 DUP2 LT ISZERO PUSH2 0x5F0 JUMPI PUSH1 0x0 DUP1 REVERT JUMPDEST DUP2 ADD SWAP1 DUP1 DUP1 MLOAD SWAP1 PUSH1 0x20 ADD SWAP1 SWAP3 SWAP2 SWAP1 POP POP POP SWAP1 POP PUSH1 0x0 PUSH20 0xFFFFFFFFFFFFFFFFFFFFFFFFFFFFFFFFFFFFFFFF AND DUP2 PUSH20 0xFFFFFFFFFFFFFFFFFFFFFFFFFFFFFFFFFFFFFFFF AND EQ ISZERO PUSH2 0x63E JUMPI POP PUSH2 0x7A9 JUMP JUMPDEST DUP7 DUP10 PUSH20 0xFFFFFFFFFFFFFFFFFFFFFFFFFFFFFFFFFFFFFFFF AND PUSH4 0x70A08231 DUP4 PUSH1 0x40 MLOAD DUP3 PUSH4 0xFFFFFFFF AND PUSH1 0xE0 SHL DUP2 MSTORE PUSH1 0x4 ADD DUP1 DUP3 PUSH20 0xFFFFFFFFFFFFFFFFFFFFFFFFFFFFFFFFFFFFFFFF AND DUP2 MSTORE PUSH1 0x20 ADD SWAP2 POP POP PUSH1 0x20 PUSH1 0x40 MLOAD DUP1 DUP4 SUB DUP2 DUP7 DUP1 EXTCODESIZE ISZERO DUP1 ISZERO PUSH2 0x6A6 JUMPI PUSH1 0x0 DUP1 REVERT JUMPDEST POP GAS STATICCALL ISZERO DUP1 ISZERO PUSH2 0x6BA JUMPI RETURNDATASIZE PUSH1 0x0 DUP1 RETURNDATACOPY RETURNDATASIZE PUSH1 0x0 REVERT JUMPDEST POP POP POP POP PUSH1 0x40 MLOAD RETURNDATASIZE PUSH1 0x20 DUP2 LT ISZERO PUSH2 0x6D0 JUMPI PUSH1 0x0 DUP1 REVERT JUMPDEST DUP2 ADD SWAP1 DUP1 DUP1 MLOAD SWAP1 PUSH1 0x20 ADD SWAP1 SWAP3 SWAP2 SWAP1 POP POP POP LT ISZERO PUSH2 0x6ED JUMPI POP PUSH2 0x7A9 JUMP JUMPDEST DUP6 DUP9 PUSH20 0xFFFFFFFFFFFFFFFFFFFFFFFFFFFFFFFFFFFFFFFF AND PUSH4 0x70A08231 DUP4 PUSH1 0x40 MLOAD DUP3 PUSH4 0xFFFFFFFF AND PUSH1 0xE0 SHL DUP2 MSTORE PUSH1 0x4 ADD DUP1 DUP3 PUSH20 0xFFFFFFFFFFFFFFFFFFFFFFFFFFFFFFFFFFFFFFFF AND DUP2 MSTORE PUSH1 0x20 ADD SWAP2 POP POP PUSH1 0x20 PUSH1 0x40 MLOAD DUP1 DUP4 SUB DUP2 DUP7 DUP1 EXTCODESIZE ISZERO DUP1 ISZERO PUSH2 0x755 JUMPI PUSH1 0x0 DUP1 REVERT JUMPDEST POP GAS STATICCALL ISZERO DUP1 ISZERO PUSH2 0x769 JUMPI RETURNDATASIZE PUSH1 0x0 DUP1 RETURNDATACOPY RETURNDATASIZE PUSH1 0x0 REVERT JUMPDEST POP POP POP POP PUSH1 0x40 MLOAD RETURNDATASIZE PUSH1 0x20 DUP2 LT ISZERO PUSH2 0x77F JUMPI PUSH1 0x0 DUP1 REVERT JUMPDEST DUP2 ADD SWAP1 DUP1 DUP1 MLOAD SWAP1 PUSH1 0x20 ADD SWAP1 SWAP3 SWAP2 SWAP1 POP POP POP LT ISZERO PUSH2 0x79C JUMPI POP PUSH2 0x7A9 JUMP JUMPDEST PUSH1 0x1 SWAP5 POP POP POP POP POP PUSH2 0x7BE JUMP JUMPDEST DUP1 DUP1 PUSH1 0x1 ADD SWAP2 POP POP PUSH2 0x514 JUMP JUMPDEST POP PUSH1 0x0 SWAP3 POP POP POP JUMPDEST SWAP6 SWAP5 POP POP POP POP POP JUMP JUMPDEST PUSH1 0x0 DUP1 PUSH1 0x0 PUSH1 0x40 MLOAD DUP1 PUSH1 0x80 ADD PUSH1 0x40 MSTORE DUP1 PUSH1 0x64 PUSH2 0xFFFF AND DUP2 MSTORE PUSH1 0x20 ADD PUSH2 0x1F4 PUSH2 0xFFFF AND DUP2 MSTORE PUSH1 0x20 ADD PUSH2 0xBB8 PUSH2 0xFFFF AND DUP2 MSTORE PUSH1 0x20 ADD PUSH2 0x2710 PUSH2 0xFFFF AND DUP2 MSTORE POP SWAP1 POP PUSH1 0x0 JUMPDEST PUSH1 0x4 DUP2 PUSH1 0xFF AND LT ISZERO PUSH2 0xC4D JUMPI PUSH1 0x0 DUP8 PUSH20 0xFFFFFFFFFFFFFFFFFFFFFFFFFFFFFFFFFFFFFFFF AND PUSH4 0x1698EE82 DUP9 DUP9 DUP7 DUP7 PUSH1 0xFF AND PUSH1 0x4 DUP2 LT PUSH2 0x844 JUMPI INVALID JUMPDEST PUSH1 0x20 MUL ADD MLOAD PUSH1 0x40 MLOAD DUP5 PUSH4 0xFFFFFFFF AND PUSH1 0xE0 SHL DUP2 MSTORE PUSH1 0x4 ADD DUP1 DUP5 PUSH20 0xFFFFFFFFFFFFFFFFFFFFFFFFFFFFFFFFFFFFFFFF AND DUP2 MSTORE PUSH1 0x20 ADD DUP4 PUSH20 0xFFFFFFFFFFFFFFFFFFFFFFFFFFFFFFFFFFFFFFFF AND DUP2 MSTORE PUSH1 0x20 ADD DUP3 PUSH2 0xFFFF AND DUP2 MSTORE PUSH1 0x20 ADD SWAP4 POP POP POP POP PUSH1 0x20 PUSH1 0x40 MLOAD DUP1 DUP4 SUB DUP2 DUP7 DUP1 EXTCODESIZE ISZERO DUP1 ISZERO PUSH2 0x8BB JUMPI PUSH1 0x0 DUP1 REVERT JUMPDEST POP GAS STATICCALL ISZERO DUP1 ISZERO PUSH2 0x8CF JUMPI RETURNDATASIZE PUSH1 0x0 DUP1 RETURNDATACOPY RETURNDATASIZE PUSH1 0x0 REVERT JUMPDEST POP POP POP POP PUSH1 0x40 MLOAD RETURNDATASIZE PUSH1 0x20 DUP2 LT ISZERO PUSH2 0x8E5 JUMPI PUSH1 0x0 DUP1 REVERT JUMPDEST DUP2 ADD SWAP1 DUP1 DUP1 MLOAD SWAP1 PUSH1 0x20 ADD SWAP1 SWAP3 SWAP2 SWAP1 POP POP POP SWAP1 POP PUSH1 0x0 PUSH20 0xFFFFFFFFFFFFFFFFFFFFFFFFFFFFFFFFFFFFFFFF AND DUP2 PUSH20 0xFFFFFFFFFFFFFFFFFFFFFFFFFFFFFFFFFFFFFFFF AND EQ ISZERO PUSH2 0x933 JUMPI POP PUSH2 0xC40 JUMP JUMPDEST PUSH1 0x0 DUP8 PUSH20 0xFFFFFFFFFFFFFFFFFFFFFFFFFFFFFFFFFFFFFFFF AND PUSH4 0x313CE567 PUSH1 0x40 MLOAD DUP2 PUSH4 0xFFFFFFFF AND PUSH1 0xE0 SHL DUP2 MSTORE PUSH1 0x4 ADD PUSH1 0x20 PUSH1 0x40 MLOAD DUP1 DUP4 SUB DUP2 DUP7 DUP1 EXTCODESIZE ISZERO DUP1 ISZERO PUSH2 0x97B JUMPI PUSH1 0x0 DUP1 REVERT JUMPDEST POP GAS STATICCALL ISZERO DUP1 ISZERO PUSH2 0x98F JUMPI RETURNDATASIZE PUSH1 0x0 DUP1 RETURNDATACOPY RETURNDATASIZE PUSH1 0x0 REVERT JUMPDEST POP POP POP POP PUSH1 0x40 MLOAD RETURNDATASIZE PUSH1 0x20 DUP2 LT ISZERO PUSH2 0x9A5 JUMPI PUSH1 0x0 DUP1 REVERT JUMPDEST DUP2 ADD SWAP1 DUP1 DUP1 MLOAD SWAP1 PUSH1 0x20 ADD SWAP1 SWAP3 SWAP2 SWAP1 POP POP POP SWAP1 POP PUSH1 0x0 DUP8 PUSH20 0xFFFFFFFFFFFFFFFFFFFFFFFFFFFFFFFFFFFFFFFF AND PUSH4 0x313CE567 PUSH1 0x40 MLOAD DUP2 PUSH4 0xFFFFFFFF AND PUSH1 0xE0 SHL DUP2 MSTORE PUSH1 0x4 ADD PUSH1 0x20 PUSH1 0x40 MLOAD DUP1 DUP4 SUB DUP2 DUP7 DUP1 EXTCODESIZE ISZERO DUP1 ISZERO PUSH2 0xA00 JUMPI PUSH1 0x0 DUP1 REVERT JUMPDEST POP GAS STATICCALL ISZERO DUP1 ISZERO PUSH2 0xA14 JUMPI RETURNDATASIZE PUSH1 0x0 DUP1 RETURNDATACOPY RETURNDATASIZE PUSH1 0x0 REVERT JUMPDEST POP POP POP POP PUSH1 0x40 MLOAD RETURNDATASIZE PUSH1 0x20 DUP2 LT ISZERO PUSH2 0xA2A JUMPI PUSH1 0x0 DUP1 REVERT JUMPDEST DUP2 ADD SWAP1 DUP1 DUP1 MLOAD SWAP1 PUSH1 0x20 ADD SWAP1 SWAP3 SWAP2 SWAP1 POP POP POP SWAP1 POP DUP2 PUSH1 0xFF AND PUSH1 0xA EXP DUP10 PUSH20 0xFFFFFFFFFFFFFFFFFFFFFFFFFFFFFFFFFFFFFFFF AND PUSH4 0x70A08231 DUP6 PUSH1 0x40 MLOAD DUP3 PUSH4 0xFFFFFFFF AND PUSH1 0xE0 SHL DUP2 MSTORE PUSH1 0x4 ADD DUP1 DUP3 PUSH20 0xFFFFFFFFFFFFFFFFFFFFFFFFFFFFFFFFFFFFFFFF AND DUP2 MSTORE PUSH1 0x20 ADD SWAP2 POP POP PUSH1 0x20 PUSH1 0x40 MLOAD DUP1 DUP4 SUB DUP2 DUP7 DUP1 EXTCODESIZE ISZERO DUP1 ISZERO PUSH2 0xAAB JUMPI PUSH1 0x0 DUP1 REVERT JUMPDEST POP GAS STATICCALL ISZERO DUP1 ISZERO PUSH2 0xABF JUMPI RETURNDATASIZE PUSH1 0x0 DUP1 RETURNDATACOPY RETURNDATASIZE PUSH1 0x0 REVERT JUMPDEST POP POP POP POP PUSH1 0x40 MLOAD RETURNDATASIZE PUSH1 0x20 DUP2 LT ISZERO PUSH2 0xAD5 JUMPI PUSH1 0x0 DUP1 REVERT JUMPDEST DUP2 ADD SWAP1 DUP1 DUP1 MLOAD SWAP1 PUSH1 0x20 ADD SWAP1 SWAP3 SWAP2 SWAP1 POP POP POP LT ISZERO PUSH2 0xAF4 JUMPI POP POP POP PUSH2 0xC40 JUMP JUMPDEST DUP1 PUSH1 0xFF AND PUSH1 0xA EXP DUP9 PUSH20 0xFFFFFFFFFFFFFFFFFFFFFFFFFFFFFFFFFFFFFFFF AND PUSH4 0x70A08231 DUP6 PUSH1 0x40 MLOAD DUP3 PUSH4 0xFFFFFFFF AND PUSH1 0xE0 SHL DUP2 MSTORE PUSH1 0x4 ADD DUP1 DUP3 PUSH20 0xFFFFFFFFFFFFFFFFFFFFFFFFFFFFFFFFFFFFFFFF AND DUP2 MSTORE PUSH1 0x20 ADD SWAP2 POP POP PUSH1 0x20 PUSH1 0x40 MLOAD DUP1 DUP4 SUB DUP2 DUP7 DUP1 EXTCODESIZE ISZERO DUP1 ISZERO PUSH2 0xB62 JUMPI PUSH1 0x0 DUP1 REVERT JUMPDEST POP GAS STATICCALL ISZERO DUP1 ISZERO PUSH2 0xB76 JUMPI RETURNDATASIZE PUSH1 0x0 DUP1 RETURNDATACOPY RETURNDATASIZE PUSH1 0x0 REVERT JUMPDEST POP POP POP POP PUSH1 0x40 MLOAD RETURNDATASIZE PUSH1 0x20 DUP2 LT ISZERO PUSH2 0xB8C JUMPI PUSH1 0x0 DUP1 REVERT JUMPDEST DUP2 ADD SWAP1 DUP1 DUP1 MLOAD SWAP1 PUSH1 0x20 ADD SWAP1 SWAP3 SWAP2 SWAP1 POP POP POP LT ISZERO PUSH2 0xBAB JUMPI POP POP POP PUSH2 0xC40 JUMP JUMPDEST PUSH1 0x0 PUSH2 0xBB8 DUP5 PUSH1 0x1 PUSH2 0xC57 JUMP JUMPDEST SWAP1 POP PUSH1 0x0 PUSH2 0xBCE DUP3 DUP6 PUSH1 0xFF AND PUSH1 0xA EXP DUP14 DUP14 PUSH2 0xFF6 JUMP JUMPDEST SWAP1 POP PUSH1 0x0 DUP7 PUSH1 0xFF AND EQ ISZERO PUSH2 0xBFA JUMPI DUP1 SWAP9 POP DUP7 DUP7 PUSH1 0xFF AND PUSH1 0x4 DUP2 LT PUSH2 0xBEE JUMPI INVALID JUMPDEST PUSH1 0x20 MUL ADD MLOAD PUSH2 0xFFFF AND SWAP8 POP JUMPDEST PUSH1 0x0 DUP7 PUSH1 0xFF AND GT DUP1 ISZERO PUSH2 0xC17 JUMPI POP PUSH1 0x0 DUP10 EQ DUP1 PUSH2 0xC16 JUMPI POP DUP9 DUP2 LT JUMPDEST JUMPDEST ISZERO PUSH2 0xC3A JUMPI DUP1 SWAP9 POP DUP7 DUP7 PUSH1 0xFF AND PUSH1 0x4 DUP2 LT PUSH2 0xC2E JUMPI INVALID JUMPDEST PUSH1 0x20 MUL ADD MLOAD PUSH2 0xFFFF AND SWAP8 POP JUMPDEST POP POP POP POP POP JUMPDEST DUP1 DUP1 PUSH1 0x1 ADD SWAP2 POP POP PUSH2 0x809 JUMP JUMPDEST POP POP SWAP4 POP SWAP4 SWAP2 POP POP JUMP JUMPDEST PUSH1 0x0 DUP1 DUP3 PUSH4 0xFFFFFFFF AND EQ ISZERO PUSH2 0xCD5 JUMPI PUSH1 0x40 MLOAD PUSH32 0x8C379A000000000000000000000000000000000000000000000000000000000 DUP2 MSTORE PUSH1 0x4 ADD DUP1 DUP1 PUSH1 0x20 ADD DUP3 DUP2 SUB DUP3 MSTORE PUSH1 0x2 DUP2 MSTORE PUSH1 0x20 ADD DUP1 PUSH32 0x4250000000000000000000000000000000000000000000000000000000000000 DUP2 MSTORE POP PUSH1 0x20 ADD SWAP2 POP POP PUSH1 0x40 MLOAD DUP1 SWAP2 SUB SWAP1 REVERT JUMPDEST PUSH1 0x0 PUSH1 0x2 PUSH8 0xFFFFFFFFFFFFFFFF DUP2 GT DUP1 ISZERO PUSH2 0xCEF JUMPI PUSH1 0x0 DUP1 REVERT JUMPDEST POP PUSH1 0x40 MLOAD SWAP1 DUP1 DUP3 MSTORE DUP1 PUSH1 0x20 MUL PUSH1 0x20 ADD DUP3 ADD PUSH1 0x40 MSTORE DUP1 ISZERO PUSH2 0xD1E JUMPI DUP2 PUSH1 0x20 ADD PUSH1 0x20 DUP3 MUL DUP1 CALLDATASIZE DUP4 CALLDATACOPY DUP1 DUP3 ADD SWAP2 POP POP SWAP1 POP JUMPDEST POP SWAP1 POP DUP3 DUP2 PUSH1 0x0 DUP2 MLOAD DUP2 LT PUSH2 0xD2F JUMPI INVALID JUMPDEST PUSH1 0x20 MUL PUSH1 0x20 ADD ADD SWAP1 PUSH4 0xFFFFFFFF AND SWAP1 DUP2 PUSH4 0xFFFFFFFF AND DUP2 MSTORE POP POP PUSH1 0x0 DUP2 PUSH1 0x1 DUP2 MLOAD DUP2 LT PUSH2 0xD58 JUMPI INVALID JUMPDEST PUSH1 0x20 MUL PUSH1 0x20 ADD ADD SWAP1 PUSH4 0xFFFFFFFF AND SWAP1 DUP2 PUSH4 0xFFFFFFFF AND DUP2 MSTORE POP POP PUSH1 0x0 DUP5 PUSH20 0xFFFFFFFFFFFFFFFFFFFFFFFFFFFFFFFFFFFFFFFF AND PUSH4 0x883BDBFD DUP4 PUSH1 0x40 MLOAD DUP3 PUSH4 0xFFFFFFFF AND PUSH1 0xE0 SHL DUP2 MSTORE PUSH1 0x4 ADD DUP1 DUP1 PUSH1 0x20 ADD DUP3 DUP2 SUB DUP3 MSTORE DUP4 DUP2 DUP2 MLOAD DUP2 MSTORE PUSH1 0x20 ADD SWAP2 POP DUP1 MLOAD SWAP1 PUSH1 0x20 ADD SWAP1 PUSH1 0x20 MUL DUP1 DUP4 DUP4 PUSH1 0x0 JUMPDEST DUP4 DUP2 LT ISZERO PUSH2 0xDE3 JUMPI DUP1 DUP3 ADD MLOAD DUP2 DUP5 ADD MSTORE PUSH1 0x20 DUP2 ADD SWAP1 POP PUSH2 0xDC8 JUMP JUMPDEST POP POP POP POP SWAP1 POP ADD SWAP3 POP POP POP PUSH1 0x0 PUSH1 0x40 MLOAD DUP1 DUP4 SUB DUP2 DUP7 DUP1 EXTCODESIZE ISZERO DUP1 ISZERO PUSH2 0xE06 JUMPI PUSH1 0x0 DUP1 REVERT JUMPDEST POP GAS STATICCALL ISZERO DUP1 ISZERO PUSH2 0xE1A JUMPI RETURNDATASIZE PUSH1 0x0 DUP1 RETURNDATACOPY RETURNDATASIZE PUSH1 0x0 REVERT JUMPDEST POP POP POP POP PUSH1 0x40 MLOAD RETURNDATASIZE PUSH1 0x0 DUP3 RETURNDATACOPY RETURNDATASIZE PUSH1 0x1F NOT PUSH1 0x1F DUP3 ADD AND DUP3 ADD DUP1 PUSH1 0x40 MSTORE POP PUSH1 0x40 DUP2 LT ISZERO PUSH2 0xE44 JUMPI PUSH1 0x0 DUP1 REVERT JUMPDEST DUP2 ADD SWAP1 DUP1 DUP1 MLOAD PUSH1 0x40 MLOAD SWAP4 SWAP3 SWAP2 SWAP1 DUP5 PUSH5 0x100000000 DUP3 GT ISZERO PUSH2 0xE64 JUMPI PUSH1 0x0 DUP1 REVERT JUMPDEST DUP4 DUP3 ADD SWAP2 POP PUSH1 0x20 DUP3 ADD DUP6 DUP2 GT ISZERO PUSH2 0xE7A JUMPI PUSH1 0x0 DUP1 REVERT JUMPDEST DUP3 MLOAD DUP7 PUSH1 0x20 DUP3 MUL DUP4 ADD GT PUSH5 0x100000000 DUP3 GT OR ISZERO PUSH2 0xE97 JUMPI PUSH1 0x0 DUP1 REVERT JUMPDEST DUP1 DUP4 MSTORE PUSH1 0x20 DUP4 ADD SWAP3 POP POP POP SWAP1 DUP1 MLOAD SWAP1 PUSH1 0x20 ADD SWAP1 PUSH1 0x20 MUL DUP1 DUP4 DUP4 PUSH1 0x0 JUMPDEST DUP4 DUP2 LT ISZERO PUSH2 0xECE JUMPI DUP1 DUP3 ADD MLOAD DUP2 DUP5 ADD MSTORE PUSH1 0x20 DUP2 ADD SWAP1 POP PUSH2 0xEB3 JUMP JUMPDEST POP POP POP POP SWAP1 POP ADD PUSH1 0x40 MSTORE PUSH1 0x20 ADD DUP1 MLOAD PUSH1 0x40 MLOAD SWAP4 SWAP3 SWAP2 SWAP1 DUP5 PUSH5 0x100000000 DUP3 GT ISZERO PUSH2 0xEF7 JUMPI PUSH1 0x0 DUP1 REVERT JUMPDEST DUP4 DUP3 ADD SWAP2 POP PUSH1 0x20 DUP3 ADD DUP6 DUP2 GT ISZERO PUSH2 0xF0D JUMPI PUSH1 0x0 DUP1 REVERT JUMPDEST DUP3 MLOAD DUP7 PUSH1 0x20 DUP3 MUL DUP4 ADD GT PUSH5 0x100000000 DUP3 GT OR ISZERO PUSH2 0xF2A JUMPI PUSH1 0x0 DUP1 REVERT JUMPDEST DUP1 DUP4 MSTORE PUSH1 0x20 DUP4 ADD SWAP3 POP POP POP SWAP1 DUP1 MLOAD SWAP1 PUSH1 0x20 ADD SWAP1 PUSH1 0x20 MUL DUP1 DUP4 DUP4 PUSH1 0x0 JUMPDEST DUP4 DUP2 LT ISZERO PUSH2 0xF61 JUMPI DUP1 DUP3 ADD MLOAD DUP2 DUP5 ADD MSTORE PUSH1 0x20 DUP2 ADD SWAP1 POP PUSH2 0xF46 JUMP JUMPDEST POP POP POP POP SWAP1 POP ADD PUSH1 0x40 MSTORE POP POP POP POP SWAP1 POP PUSH1 0x0 DUP2 PUSH1 0x0 DUP2 MLOAD DUP2 LT PUSH2 0xF80 JUMPI INVALID JUMPDEST PUSH1 0x20 MUL PUSH1 0x20 ADD ADD MLOAD DUP3 PUSH1 0x1 DUP2 MLOAD DUP2 LT PUSH2 0xF95 JUMPI INVALID JUMPDEST PUSH1 0x20 MUL PUSH1 0x20 ADD ADD MLOAD SUB SWAP1 POP DUP5 PUSH4 0xFFFFFFFF AND DUP2 PUSH1 0x6 SIGNEXTEND DUP2 PUSH2 0xFB2 JUMPI INVALID JUMPDEST SDIV SWAP4 POP PUSH1 0x0 DUP2 PUSH1 0x6 SIGNEXTEND SLT DUP1 ISZERO PUSH2 0xFDE JUMPI POP PUSH1 0x0 DUP6 PUSH4 0xFFFFFFFF AND DUP3 PUSH1 0x6 SIGNEXTEND DUP2 PUSH2 0xFD7 JUMPI INVALID JUMPDEST SMOD PUSH1 0x6 SIGNEXTEND EQ ISZERO JUMPDEST ISZERO PUSH2 0xFED JUMPI DUP4 DUP1 PUSH1 0x1 SWAP1 SUB SWAP5 POP POP JUMPDEST POP POP POP SWAP3 SWAP2 POP POP JUMP JUMPDEST PUSH1 0x0 DUP1 PUSH2 0x1002 DUP7 PUSH2 0x11F9 JUMP JUMPDEST SWAP1 POP PUSH16 0xFFFFFFFFFFFFFFFFFFFFFFFFFFFFFFFF DUP1 AND DUP2 PUSH20 0xFFFFFFFFFFFFFFFFFFFFFFFFFFFFFFFFFFFFFFFF AND GT PUSH2 0x1113 JUMPI PUSH1 0x0 DUP2 PUSH20 0xFFFFFFFFFFFFFFFFFFFFFFFFFFFFFFFFFFFFFFFF AND DUP3 PUSH20 0xFFFFFFFFFFFFFFFFFFFFFFFFFFFFFFFFFFFFFFFF AND MUL SWAP1 POP DUP4 PUSH20 0xFFFFFFFFFFFFFFFFFFFFFFFFFFFFFFFFFFFFFFFF AND DUP6 PUSH20 0xFFFFFFFFFFFFFFFFFFFFFFFFFFFFFFFFFFFFFFFF AND LT PUSH2 0x10D4 JUMPI PUSH2 0x10CF PUSH25 0x1000000000000000000000000000000000000000000000000 DUP8 PUSH16 0xFFFFFFFFFFFFFFFFFFFFFFFFFFFFFFFF AND DUP4 PUSH2 0x1634 JUMP JUMPDEST PUSH2 0x110B JUMP JUMPDEST PUSH2 0x110A DUP2 DUP8 PUSH16 0xFFFFFFFFFFFFFFFFFFFFFFFFFFFFFFFF AND PUSH25 0x1000000000000000000000000000000000000000000000000 PUSH2 0x1634 JUMP JUMPDEST JUMPDEST SWAP3 POP POP PUSH2 0x11F0 JUMP JUMPDEST PUSH1 0x0 PUSH2 0x1155 DUP3 PUSH20 0xFFFFFFFFFFFFFFFFFFFFFFFFFFFFFFFFFFFFFFFF AND DUP4 PUSH20 0xFFFFFFFFFFFFFFFFFFFFFFFFFFFFFFFFFFFFFFFF AND PUSH9 0x10000000000000000 PUSH2 0x1634 JUMP JUMPDEST SWAP1 POP DUP4 PUSH20 0xFFFFFFFFFFFFFFFFFFFFFFFFFFFFFFFFFFFFFFFF AND DUP6 PUSH20 0xFFFFFFFFFFFFFFFFFFFFFFFFFFFFFFFFFFFFFFFF AND LT PUSH2 0x11BD JUMPI PUSH2 0x11B8 PUSH17 0x100000000000000000000000000000000 DUP8 PUSH16 0xFFFFFFFFFFFFFFFFFFFFFFFFFFFFFFFF AND DUP4 PUSH2 0x1634 JUMP JUMPDEST PUSH2 0x11EC JUMP JUMPDEST PUSH2 0x11EB DUP2 DUP8 PUSH16 0xFFFFFFFFFFFFFFFFFFFFFFFFFFFFFFFF AND PUSH17 0x100000000000000000000000000000000 PUSH2 0x1634 JUMP JUMPDEST JUMPDEST SWAP3 POP POP JUMPDEST POP SWAP5 SWAP4 POP POP POP POP JUMP JUMPDEST PUSH1 0x0 DUP1 PUSH1 0x0 DUP4 PUSH1 0x2 SIGNEXTEND SLT PUSH2 0x1210 JUMPI DUP3 PUSH1 0x2 SIGNEXTEND PUSH2 0x1218 JUMP JUMPDEST DUP3 PUSH1 0x2 SIGNEXTEND PUSH1 0x0 SUB JUMPDEST SWAP1 POP PUSH32 0xFFFFFFFFFFFFFFFFFFFFFFFFFFFFFFFFFFFFFFFFFFFFFFFFFFFFFFFFFFF27618 PUSH1 0x0 SUB PUSH1 0x2 SIGNEXTEND DUP2 GT ISZERO PUSH2 0x12B6 JUMPI PUSH1 0x40 MLOAD PUSH32 0x8C379A000000000000000000000000000000000000000000000000000000000 DUP2 MSTORE PUSH1 0x4 ADD DUP1 DUP1 PUSH1 0x20 ADD DUP3 DUP2 SUB DUP3 MSTORE PUSH1 0x1 DUP2 MSTORE PUSH1 0x20 ADD DUP1 PUSH32 0x5400000000000000000000000000000000000000000000000000000000000000 DUP2 MSTORE POP PUSH1 0x20 ADD SWAP2 POP POP PUSH1 0x40 MLOAD DUP1 SWAP2 SUB SWAP1 REVERT JUMPDEST PUSH1 0x0 DUP1 PUSH1 0x1 DUP4 AND EQ ISZERO PUSH2 0x12DA JUMPI PUSH17 0x100000000000000000000000000000000 PUSH2 0x12EC JUMP JUMPDEST PUSH16 0xFFFCB933BD6FAD37AA2D162D1A594001 JUMPDEST PUSH17 0xFFFFFFFFFFFFFFFFFFFFFFFFFFFFFFFFFF AND SWAP1 POP PUSH1 0x0 PUSH1 0x2 DUP4 AND EQ PUSH2 0x1326 JUMPI PUSH1 0x80 PUSH16 0xFFF97272373D413259A46990580E213A DUP3 MUL SWAP1 SHR SWAP1 POP JUMPDEST PUSH1 0x0 PUSH1 0x4 DUP4 AND EQ PUSH2 0x134B JUMPI PUSH1 0x80 PUSH16 0xFFF2E50F5F656932EF12357CF3C7FDCC DUP3 MUL SWAP1 SHR SWAP1 POP JUMPDEST PUSH1 0x0 PUSH1 0x8 DUP4 AND EQ PUSH2 0x1370 JUMPI PUSH1 0x80 PUSH16 0xFFE5CACA7E10E4E61C3624EAA0941CD0 DUP3 MUL SWAP1 SHR SWAP1 POP JUMPDEST PUSH1 0x0 PUSH1 0x10 DUP4 AND EQ PUSH2 0x1395 JUMPI PUSH1 0x80 PUSH16 0xFFCB9843D60F6159C9DB58835C926644 DUP3 MUL SWAP1 SHR SWAP1 POP JUMPDEST PUSH1 0x0 PUSH1 0x20 DUP4 AND EQ PUSH2 0x13BA JUMPI PUSH1 0x80 PUSH16 0xFF973B41FA98C081472E6896DFB254C0 DUP3 MUL SWAP1 SHR SWAP1 POP JUMPDEST PUSH1 0x0 PUSH1 0x40 DUP4 AND EQ PUSH2 0x13DF JUMPI PUSH1 0x80 PUSH16 0xFF2EA16466C96A3843EC78B326B52861 DUP3 MUL SWAP1 SHR SWAP1 POP JUMPDEST PUSH1 0x0 PUSH1 0x80 DUP4 AND EQ PUSH2 0x1404 JUMPI PUSH1 0x80 PUSH16 0xFE5DEE046A99A2A811C461F1969C3053 DUP3 MUL SWAP1 SHR SWAP1 POP JUMPDEST PUSH1 0x0 PUSH2 0x100 DUP4 AND EQ PUSH2 0x142A JUMPI PUSH1 0x80 PUSH16 0xFCBE86C7900A88AEDCFFC83B479AA3A4 DUP3 MUL SWAP1 SHR SWAP1 POP JUMPDEST PUSH1 0x0 PUSH2 0x200 DUP4 AND EQ PUSH2 0x1450 JUMPI PUSH1 0x80 PUSH16 0xF987A7253AC413176F2B074CF7815E54 DUP3 MUL SWAP1 SHR SWAP1 POP JUMPDEST PUSH1 0x0 PUSH2 0x400 DUP4 AND EQ PUSH2 0x1476 JUMPI PUSH1 0x80 PUSH16 0xF3392B0822B70005940C7A398E4B70F3 DUP3 MUL SWAP1 SHR SWAP1 POP JUMPDEST PUSH1 0x0 PUSH2 0x800 DUP4 AND EQ PUSH2 0x149C JUMPI PUSH1 0x80 PUSH16 0xE7159475A2C29B7443B29C7FA6E889D9 DUP3 MUL SWAP1 SHR SWAP1 POP JUMPDEST PUSH1 0x0 PUSH2 0x1000 DUP4 AND EQ PUSH2 0x14C2 JUMPI PUSH1 0x80 PUSH16 0xD097F3BDFD2022B8845AD8F792AA5825 DUP3 MUL SWAP1 SHR SWAP1 POP JUMPDEST PUSH1 0x0 PUSH2 0x2000 DUP4 AND EQ PUSH2 0x14E8 JUMPI PUSH1 0x80 PUSH16 0xA9F746462D870FDF8A65DC1F90E061E5 DUP3 MUL SWAP1 SHR SWAP1 POP JUMPDEST PUSH1 0x0 PUSH2 0x4000 DUP4 AND EQ PUSH2 0x150E JUMPI PUSH1 0x80 PUSH16 0x70D869A156D2A1B890BB3DF62BAF32F7 DUP3 MUL SWAP1 SHR SWAP1 POP JUMPDEST PUSH1 0x0 PUSH2 0x8000 DUP4 AND EQ PUSH2 0x1534 JUMPI PUSH1 0x80 PUSH16 0x31BE135F97D08FD981231505542FCFA6 DUP3 MUL SWAP1 SHR SWAP1 POP JUMPDEST PUSH1 0x0 PUSH3 0x10000 DUP4 AND EQ PUSH2 0x155B JUMPI PUSH1 0x80 PUSH16 0x9AA508B5B7A84E1C677DE54F3E99BC9 DUP3 MUL SWAP1 SHR SWAP1 POP JUMPDEST PUSH1 0x0 PUSH3 0x20000 DUP4 AND EQ PUSH2 0x1581 JUMPI PUSH1 0x80 PUSH15 0x5D6AF8DEDB81196699C329225EE604 DUP3 MUL SWAP1 SHR SWAP1 POP JUMPDEST PUSH1 0x0 PUSH3 0x40000 DUP4 AND EQ PUSH2 0x15A6 JUMPI PUSH1 0x80 PUSH14 0x2216E584F5FA1EA926041BEDFE98 DUP3 MUL SWAP1 SHR SWAP1 POP JUMPDEST PUSH1 0x0 PUSH3 0x80000 DUP4 AND EQ PUSH2 0x15C9 JUMPI PUSH1 0x80 PUSH12 0x48A170391F7DC42444E8FA2 DUP3 MUL SWAP1 SHR SWAP1 POP JUMPDEST PUSH1 0x0 DUP5 PUSH1 0x2 SIGNEXTEND SGT ISZERO PUSH2 0x1602 JUMPI DUP1 PUSH32 0xFFFFFFFFFFFFFFFFFFFFFFFFFFFFFFFFFFFFFFFFFFFFFFFFFFFFFFFFFFFFFFFF DUP2 PUSH2 0x15FE JUMPI INVALID JUMPDEST DIV SWAP1 POP JUMPDEST PUSH1 0x0 PUSH5 0x100000000 DUP3 DUP2 PUSH2 0x1612 JUMPI INVALID JUMPDEST MOD EQ PUSH2 0x161F JUMPI PUSH1 0x1 PUSH2 0x1622 JUMP JUMPDEST PUSH1 0x0 JUMPDEST PUSH1 0xFF AND PUSH1 0x20 DUP3 SWAP1 SHR ADD SWAP3 POP POP POP SWAP2 SWAP1 POP JUMP JUMPDEST PUSH1 0x0 DUP1 PUSH1 0x0 DUP1 NOT DUP6 DUP8 MULMOD DUP6 DUP8 MUL SWAP3 POP DUP3 DUP2 LT DUP4 DUP3 SUB SUB SWAP2 POP POP PUSH1 0x0 DUP2 EQ ISZERO PUSH2 0x166F JUMPI PUSH1 0x0 DUP5 GT PUSH2 0x1663 JUMPI PUSH1 0x0 DUP1 REVERT JUMPDEST DUP4 DUP3 DIV SWAP3 POP POP POP PUSH2 0x1707 JUMP JUMPDEST DUP1 DUP5 GT PUSH2 0x167B JUMPI PUSH1 0x0 DUP1 REVERT JUMPDEST PUSH1 0x0 DUP5 DUP7 DUP9 MULMOD SWAP1 POP DUP3 DUP2 GT DUP3 SUB SWAP2 POP DUP1 DUP4 SUB SWAP3 POP PUSH1 0x0 DUP6 DUP7 PUSH1 0x0 SUB AND SWAP1 POP DUP1 DUP7 DIV SWAP6 POP DUP1 DUP5 DIV SWAP4 POP PUSH1 0x1 DUP2 DUP3 PUSH1 0x0 SUB DIV ADD SWAP1 POP DUP1 DUP4 MUL DUP5 OR SWAP4 POP PUSH1 0x0 PUSH1 0x2 DUP8 PUSH1 0x3 MUL XOR SWAP1 POP DUP1 DUP8 MUL PUSH1 0x2 SUB DUP2 MUL SWAP1 POP DUP1 DUP8 MUL PUSH1 0x2 SUB DUP2 MUL SWAP1 POP DUP1 DUP8 MUL PUSH1 0x2 SUB DUP2 MUL SWAP1 POP DUP1 DUP8 MUL PUSH1 0x2 SUB DUP2 MUL SWAP1 POP DUP1 DUP8 MUL PUSH1 0x2 SUB DUP2 MUL SWAP1 POP DUP1 DUP8 MUL PUSH1 0x2 SUB DUP2 MUL SWAP1 POP DUP1 DUP6 MUL SWAP6 POP POP POP POP POP POP JUMPDEST SWAP4 SWAP3 POP POP POP JUMP JUMPDEST PUSH1 0x40 MLOAD DUP1 PUSH1 0x80 ADD PUSH1 0x40 MSTORE DUP1 PUSH1 0x4 SWAP1 PUSH1 0x20 DUP3 MUL DUP1 CALLDATASIZE DUP4 CALLDATACOPY DUP1 DUP3 ADD SWAP2 POP POP SWAP1 POP POP SWAP1 JUMP INVALID LOG2 PUSH5 0x6970667358 0x22 SLT KECCAK256 RETURN 0xF6 0xAE PUSH10 0x82DFB80D107D6C14CE12 PUSH3 0xF819D4 PUSH19 0xFBEB6E015DF3C349EE2A73330164736F6C6343 STOP SMOD MOD STOP CALLER "
				},
				"gasEstimates": {
					"creation": {
						"codeDepositCost": "1198000",
						"executionCost": "1273",
						"totalCost": "1199273"
					},
					"external": {
						"EstimateAmountOut(address,address,address,uint256)": "infinite",
						"PoolExists(address,address,address,uint256,uint256)": "infinite",
						"Price(address,address,address)": "infinite"
					}
				},
				"methodIdentifiers": {
					"EstimateAmountOut(address,address,address,uint256)": "8c39560e",
					"PoolExists(address,address,address,uint256,uint256)": "bcbcaa29",
					"Price(address,address,address)": "c361e0b1"
				}
			},
			"storageLayout": {
				"storage": [],
				"types": null
			},
			"userdoc": {
				"kind": "user",
				"methods": {},
				"version": 1
			}
		}
	}
}