{
	"contracts/PriceAggregator.sol": {
		"PriceAggregator": {
			"abi": [
				{
					"inputs": [
						{
							"components": [
								{
									"internalType": "address",
									"name": "t1",
									"type": "address"
								},
								{
									"internalType": "address",
									"name": "t2",
									"type": "address"
								},
								{
									"internalType": "address",
									"name": "provider",
									"type": "address"
								},
								{
									"internalType": "uint8",
									"name": "providerVersion",
									"type": "uint8"
								}
							],
							"internalType": "struct IPriceAggregator.input[]",
							"name": "inputs",
							"type": "tuple[]"
						}
					],
					"name": "getPrices",
					"outputs": [
						{
							"components": [
								{
									"internalType": "address",
									"name": "t1",
									"type": "address"
								},
								{
									"internalType": "address",
									"name": "t2",
									"type": "address"
								},
								{
									"internalType": "uint256",
									"name": "price",
									"type": "uint256"
								},
								{
									"internalType": "uint24",
									"name": "fee",
									"type": "uint24"
								}
							],
							"internalType": "struct IPriceAggregator.output[]",
							"name": "",
							"type": "tuple[]"
						}
					],
					"stateMutability": "view",
					"type": "function"
				}
			],
			"devdoc": {
				"kind": "dev",
				"methods": {},
				"version": 1
			},
			"evm": {
				"assembly": "    /* \"contracts/PriceAggregator.sol\":441:1200  contract PriceAggregator is IPriceAggregator {... */\n  mstore(0x40, 0x80)\n  callvalue\n  dup1\n  iszero\n  tag_1\n  jumpi\n  0x00\n  dup1\n  revert\ntag_1:\n  pop\n  dataSize(sub_0)\n  dup1\n  dataOffset(sub_0)\n  0x00\n  codecopy\n  0x00\n  return\nstop\n\nsub_0: assembly {\n        /* \"contracts/PriceAggregator.sol\":441:1200  contract PriceAggregator is IPriceAggregator {... */\n      mstore(0x40, 0x80)\n      callvalue\n      dup1\n      iszero\n      tag_1\n      jumpi\n      0x00\n      dup1\n      revert\n    tag_1:\n      pop\n      jumpi(tag_2, lt(calldatasize, 0x04))\n      shr(0xe0, calldataload(0x00))\n      dup1\n      0xff514fa3\n      eq\n      tag_3\n      jumpi\n    tag_2:\n      0x00\n      dup1\n      revert\n        /* \"contracts/PriceAggregator.sol\":493:1196  function getPrices(input[] memory inputs) public override view returns (output[] memory) {... */\n    tag_3:\n      tag_4\n      0x04\n      dup1\n      calldatasize\n      sub\n      dup2\n      add\n      swap1\n      tag_5\n      swap2\n      swap1\n      tag_6\n      jump\t// in\n    tag_5:\n      tag_7\n      jump\t// in\n    tag_4:\n      mload(0x40)\n      tag_8\n      swap2\n      swap1\n      tag_9\n      jump\t// in\n    tag_8:\n      mload(0x40)\n      dup1\n      swap2\n      sub\n      swap1\n      return\n    tag_7:\n        /* \"contracts/PriceAggregator.sol\":565:580  output[] memory */\n      0x60\n        /* \"contracts/PriceAggregator.sol\":592:615  output[] memory outputs */\n      0x00\n        /* \"contracts/PriceAggregator.sol\":631:637  inputs */\n      dup3\n        /* \"contracts/PriceAggregator.sol\":631:644  inputs.length */\n      mload\n        /* \"contracts/PriceAggregator.sol\":618:645  new output[](inputs.length) */\n      0xffffffffffffffff\n      dup2\n      gt\n      dup1\n      iszero\n      tag_11\n      jumpi\n      0x00\n      dup1\n      revert\n    tag_11:\n      pop\n      mload(0x40)\n      swap1\n      dup1\n      dup3\n      mstore\n      dup1\n      0x20\n      mul\n      0x20\n      add\n      dup3\n      add\n      0x40\n      mstore\n      dup1\n      iszero\n      tag_12\n      jumpi\n      dup2\n      0x20\n      add\n    tag_13:\n      tag_14\n      tag_15\n      jump\t// in\n    tag_14:\n      dup2\n      mstore\n      0x20\n      add\n      swap1\n      0x01\n      swap1\n      sub\n      swap1\n      dup2\n      tag_13\n      jumpi\n      swap1\n      pop\n    tag_12:\n      pop\n        /* \"contracts/PriceAggregator.sol\":592:645  output[] memory outputs = new output[](inputs.length) */\n      swap1\n      pop\n        /* \"contracts/PriceAggregator.sol\":659:665  uint i */\n      0x00\n        /* \"contracts/PriceAggregator.sol\":654:1162  for (uint i=0;i<inputs.length;i++){... */\n    tag_16:\n        /* \"contracts/PriceAggregator.sol\":670:676  inputs */\n      dup4\n        /* \"contracts/PriceAggregator.sol\":670:683  inputs.length */\n      mload\n        /* \"contracts/PriceAggregator.sol\":668:669  i */\n      dup2\n        /* \"contracts/PriceAggregator.sol\":668:683  i<inputs.length */\n      lt\n        /* \"contracts/PriceAggregator.sol\":654:1162  for (uint i=0;i<inputs.length;i++){... */\n      iszero\n      tag_17\n      jumpi\n        /* \"contracts/PriceAggregator.sol\":731:732  2 */\n      0x02\n        /* \"contracts/PriceAggregator.sol\":702:708  inputs */\n      dup5\n        /* \"contracts/PriceAggregator.sol\":709:710  i */\n      dup3\n        /* \"contracts/PriceAggregator.sol\":702:711  inputs[i] */\n      dup2\n      mload\n      dup2\n      lt\n      tag_19\n      jumpi\n      invalid\n    tag_19:\n      0x20\n      mul\n      0x20\n      add\n      add\n      mload\n        /* \"contracts/PriceAggregator.sol\":702:727  inputs[i].providerVersion */\n      0x60\n      add\n      mload\n        /* \"contracts/PriceAggregator.sol\":702:732  inputs[i].providerVersion == 2 */\n      0xff\n      and\n      eq\n        /* \"contracts/PriceAggregator.sol\":698:1153  if (inputs[i].providerVersion == 2) {... */\n      iszero\n      tag_20\n      jumpi\n        /* \"contracts/PriceAggregator.sol\":748:761  uint256 price */\n      0x00\n        /* \"contracts/PriceAggregator.sol\":764:773  UniswapV2 */\n      linkerSymbol(\"66db80e837caed232b747c0dfa8ba195e80afd37d58afd4790f0bc06a2afa716\")\n        /* \"contracts/PriceAggregator.sol\":764:779  UniswapV2.Price */\n      0xc361e0b1\n        /* \"contracts/PriceAggregator.sol\":780:786  inputs */\n      dup7\n        /* \"contracts/PriceAggregator.sol\":787:788  i */\n      dup5\n        /* \"contracts/PriceAggregator.sol\":780:789  inputs[i] */\n      dup2\n      mload\n      dup2\n      lt\n      tag_21\n      jumpi\n      invalid\n    tag_21:\n      0x20\n      mul\n      0x20\n      add\n      add\n      mload\n        /* \"contracts/PriceAggregator.sol\":780:798  inputs[i].provider */\n      0x40\n      add\n      mload\n        /* \"contracts/PriceAggregator.sol\":799:805  inputs */\n      dup8\n        /* \"contracts/PriceAggregator.sol\":806:807  i */\n      dup6\n        /* \"contracts/PriceAggregator.sol\":799:808  inputs[i] */\n      dup2\n      mload\n      dup2\n      lt\n      tag_22\n      jumpi\n      invalid\n    tag_22:\n      0x20\n      mul\n      0x20\n      add\n      add\n      mload\n        /* \"contracts/PriceAggregator.sol\":799:811  inputs[i].t1 */\n      0x00\n      add\n      mload\n        /* \"contracts/PriceAggregator.sol\":812:818  inputs */\n      dup9\n        /* \"contracts/PriceAggregator.sol\":819:820  i */\n      dup7\n        /* \"contracts/PriceAggregator.sol\":812:821  inputs[i] */\n      dup2\n      mload\n      dup2\n      lt\n      tag_23\n      jumpi\n      invalid\n    tag_23:\n      0x20\n      mul\n      0x20\n      add\n      add\n      mload\n        /* \"contracts/PriceAggregator.sol\":812:824  inputs[i].t2 */\n      0x20\n      add\n      mload\n        /* \"contracts/PriceAggregator.sol\":764:825  UniswapV2.Price(inputs[i].provider,inputs[i].t1,inputs[i].t2) */\n      mload(0x40)\n      dup5\n      0xffffffff\n      and\n      0xe0\n      shl\n      dup2\n      mstore\n      0x04\n      add\n      tag_24\n      swap4\n      swap3\n      swap2\n      swap1\n      tag_25\n      jump\t// in\n    tag_24:\n      0x20\n      mload(0x40)\n      dup1\n      dup4\n      sub\n      dup2\n      dup7\n      dup1\n      extcodesize\n      iszero\n      dup1\n      iszero\n      tag_26\n      jumpi\n      0x00\n      dup1\n      revert\n    tag_26:\n      pop\n      gas\n      delegatecall\n      iszero\n      dup1\n      iszero\n      tag_28\n      jumpi\n      returndatasize\n      0x00\n      dup1\n      returndatacopy\n      revert(0x00, returndatasize)\n    tag_28:\n      pop\n      pop\n      pop\n      pop\n      mload(0x40)\n      returndatasize\n      not(0x1f)\n      0x1f\n      dup3\n      add\n      and\n      dup3\n      add\n      dup1\n      0x40\n      mstore\n      pop\n      dup2\n      add\n      swap1\n      tag_29\n      swap2\n      swap1\n      tag_30\n      jump\t// in\n    tag_29:\n        /* \"contracts/PriceAggregator.sol\":748:825  uint256 price = UniswapV2.Price(inputs[i].provider,inputs[i].t1,inputs[i].t2) */\n      swap1\n      pop\n        /* \"contracts/PriceAggregator.sol\":852:893  output(inputs[i].t1,inputs[i].t2,price,0) */\n      mload(0x40)\n      dup1\n      0x80\n      add\n      0x40\n      mstore\n      dup1\n        /* \"contracts/PriceAggregator.sol\":859:865  inputs */\n      dup7\n        /* \"contracts/PriceAggregator.sol\":866:867  i */\n      dup5\n        /* \"contracts/PriceAggregator.sol\":859:868  inputs[i] */\n      dup2\n      mload\n      dup2\n      lt\n      tag_31\n      jumpi\n      invalid\n    tag_31:\n      0x20\n      mul\n      0x20\n      add\n      add\n      mload\n        /* \"contracts/PriceAggregator.sol\":859:871  inputs[i].t1 */\n      0x00\n      add\n      mload\n        /* \"contracts/PriceAggregator.sol\":852:893  output(inputs[i].t1,inputs[i].t2,price,0) */\n      0xffffffffffffffffffffffffffffffffffffffff\n      and\n      dup2\n      mstore\n      0x20\n      add\n        /* \"contracts/PriceAggregator.sol\":872:878  inputs */\n      dup7\n        /* \"contracts/PriceAggregator.sol\":879:880  i */\n      dup5\n        /* \"contracts/PriceAggregator.sol\":872:881  inputs[i] */\n      dup2\n      mload\n      dup2\n      lt\n      tag_32\n      jumpi\n      invalid\n    tag_32:\n      0x20\n      mul\n      0x20\n      add\n      add\n      mload\n        /* \"contracts/PriceAggregator.sol\":872:884  inputs[i].t2 */\n      0x20\n      add\n      mload\n        /* \"contracts/PriceAggregator.sol\":852:893  output(inputs[i].t1,inputs[i].t2,price,0) */\n      0xffffffffffffffffffffffffffffffffffffffff\n      and\n      dup2\n      mstore\n      0x20\n      add\n        /* \"contracts/PriceAggregator.sol\":885:890  price */\n      dup3\n        /* \"contracts/PriceAggregator.sol\":852:893  output(inputs[i].t1,inputs[i].t2,price,0) */\n      dup2\n      mstore\n      0x20\n      add\n        /* \"contracts/PriceAggregator.sol\":891:892  0 */\n      0x00\n        /* \"contracts/PriceAggregator.sol\":852:893  output(inputs[i].t1,inputs[i].t2,price,0) */\n      0xffffff\n      and\n      dup2\n      mstore\n      pop\n        /* \"contracts/PriceAggregator.sol\":839:846  outputs */\n      dup4\n        /* \"contracts/PriceAggregator.sol\":847:848  i */\n      dup4\n        /* \"contracts/PriceAggregator.sol\":839:849  outputs[i] */\n      dup2\n      mload\n      dup2\n      lt\n      tag_33\n      jumpi\n      invalid\n    tag_33:\n      0x20\n      mul\n      0x20\n      add\n      add\n        /* \"contracts/PriceAggregator.sol\":839:893  outputs[i] = output(inputs[i].t1,inputs[i].t2,price,0) */\n      dup2\n      swap1\n      mstore\n      pop\n        /* \"contracts/PriceAggregator.sol\":698:1153  if (inputs[i].providerVersion == 2) {... */\n      pop\n      jump(tag_34)\n    tag_20:\n        /* \"contracts/PriceAggregator.sol\":953:954  3 */\n      0x03\n        /* \"contracts/PriceAggregator.sol\":924:930  inputs */\n      dup5\n        /* \"contracts/PriceAggregator.sol\":931:932  i */\n      dup3\n        /* \"contracts/PriceAggregator.sol\":924:933  inputs[i] */\n      dup2\n      mload\n      dup2\n      lt\n      tag_35\n      jumpi\n      invalid\n    tag_35:\n      0x20\n      mul\n      0x20\n      add\n      add\n      mload\n        /* \"contracts/PriceAggregator.sol\":924:949  inputs[i].providerVersion */\n      0x60\n      add\n      mload\n        /* \"contracts/PriceAggregator.sol\":924:954  inputs[i].providerVersion == 3 */\n      0xff\n      and\n      eq\n        /* \"contracts/PriceAggregator.sol\":920:1153  if (inputs[i].providerVersion == 3) {... */\n      iszero\n      tag_36\n      jumpi\n        /* \"contracts/PriceAggregator.sol\":971:984  uint256 price */\n      0x00\n        /* \"contracts/PriceAggregator.sol\":985:995  uint24 fee */\n      dup1\n        /* \"contracts/PriceAggregator.sol\":999:1008  UniswapV3 */\n      linkerSymbol(\"295ab41254e875e078eae9a73e9e2c34b169d6e6e61c89bb6c8551dc204f08c5\")\n        /* \"contracts/PriceAggregator.sol\":999:1014  UniswapV3.Price */\n      0xc361e0b1\n        /* \"contracts/PriceAggregator.sol\":1015:1021  inputs */\n      dup8\n        /* \"contracts/PriceAggregator.sol\":1022:1023  i */\n      dup6\n        /* \"contracts/PriceAggregator.sol\":1015:1024  inputs[i] */\n      dup2\n      mload\n      dup2\n      lt\n      tag_37\n      jumpi\n      invalid\n    tag_37:\n      0x20\n      mul\n      0x20\n      add\n      add\n      mload\n        /* \"contracts/PriceAggregator.sol\":1015:1033  inputs[i].provider */\n      0x40\n      add\n      mload\n        /* \"contracts/PriceAggregator.sol\":1034:1040  inputs */\n      dup9\n        /* \"contracts/PriceAggregator.sol\":1041:1042  i */\n      dup7\n        /* \"contracts/PriceAggregator.sol\":1034:1043  inputs[i] */\n      dup2\n      mload\n      dup2\n      lt\n      tag_38\n      jumpi\n      invalid\n    tag_38:\n      0x20\n      mul\n      0x20\n      add\n      add\n      mload\n        /* \"contracts/PriceAggregator.sol\":1034:1046  inputs[i].t1 */\n      0x00\n      add\n      mload\n        /* \"contracts/PriceAggregator.sol\":1047:1053  inputs */\n      dup10\n        /* \"contracts/PriceAggregator.sol\":1054:1055  i */\n      dup8\n        /* \"contracts/PriceAggregator.sol\":1047:1056  inputs[i] */\n      dup2\n      mload\n      dup2\n      lt\n      tag_39\n      jumpi\n      invalid\n    tag_39:\n      0x20\n      mul\n      0x20\n      add\n      add\n      mload\n        /* \"contracts/PriceAggregator.sol\":1047:1059  inputs[i].t2 */\n      0x20\n      add\n      mload\n        /* \"contracts/PriceAggregator.sol\":999:1060  UniswapV3.Price(inputs[i].provider,inputs[i].t1,inputs[i].t2) */\n      mload(0x40)\n      dup5\n      0xffffffff\n      and\n      0xe0\n      shl\n      dup2\n      mstore\n      0x04\n      add\n      tag_40\n      swap4\n      swap3\n      swap2\n      swap1\n      tag_25\n      jump\t// in\n    tag_40:\n      0x40\n      dup1\n      mload\n      dup1\n      dup4\n      sub\n      dup2\n      dup7\n      dup1\n      extcodesize\n      iszero\n      dup1\n      iszero\n      tag_41\n      jumpi\n      0x00\n      dup1\n      revert\n    tag_41:\n      pop\n      gas\n      delegatecall\n      iszero\n      dup1\n      iszero\n      tag_43\n      jumpi\n      returndatasize\n      0x00\n      dup1\n      returndatacopy\n      revert(0x00, returndatasize)\n    tag_43:\n      pop\n      pop\n      pop\n      pop\n      mload(0x40)\n      returndatasize\n      not(0x1f)\n      0x1f\n      dup3\n      add\n      and\n      dup3\n      add\n      dup1\n      0x40\n      mstore\n      pop\n      dup2\n      add\n      swap1\n      tag_44\n      swap2\n      swap1\n      tag_45\n      jump\t// in\n    tag_44:\n        /* \"contracts/PriceAggregator.sol\":970:1060  (uint256 price,uint24 fee) = UniswapV3.Price(inputs[i].provider,inputs[i].t1,inputs[i].t2) */\n      swap2\n      pop\n      swap2\n      pop\n        /* \"contracts/PriceAggregator.sol\":1087:1130  output(inputs[i].t1,inputs[i].t2,price,fee) */\n      mload(0x40)\n      dup1\n      0x80\n      add\n      0x40\n      mstore\n      dup1\n        /* \"contracts/PriceAggregator.sol\":1094:1100  inputs */\n      dup8\n        /* \"contracts/PriceAggregator.sol\":1101:1102  i */\n      dup6\n        /* \"contracts/PriceAggregator.sol\":1094:1103  inputs[i] */\n      dup2\n      mload\n      dup2\n      lt\n      tag_46\n      jumpi\n      invalid\n    tag_46:\n      0x20\n      mul\n      0x20\n      add\n      add\n      mload\n        /* \"contracts/PriceAggregator.sol\":1094:1106  inputs[i].t1 */\n      0x00\n      add\n      mload\n        /* \"contracts/PriceAggregator.sol\":1087:1130  output(inputs[i].t1,inputs[i].t2,price,fee) */\n      0xffffffffffffffffffffffffffffffffffffffff\n      and\n      dup2\n      mstore\n      0x20\n      add\n        /* \"contracts/PriceAggregator.sol\":1107:1113  inputs */\n      dup8\n        /* \"contracts/PriceAggregator.sol\":1114:1115  i */\n      dup6\n        /* \"contracts/PriceAggregator.sol\":1107:1116  inputs[i] */\n      dup2\n      mload\n      dup2\n      lt\n      tag_47\n      jumpi\n      invalid\n    tag_47:\n      0x20\n      mul\n      0x20\n      add\n      add\n      mload\n        /* \"contracts/PriceAggregator.sol\":1107:1119  inputs[i].t2 */\n      0x20\n      add\n      mload\n        /* \"contracts/PriceAggregator.sol\":1087:1130  output(inputs[i].t1,inputs[i].t2,price,fee) */\n      0xffffffffffffffffffffffffffffffffffffffff\n      and\n      dup2\n      mstore\n      0x20\n      add\n        /* \"contracts/PriceAggregator.sol\":1120:1125  price */\n      dup4\n        /* \"contracts/PriceAggregator.sol\":1087:1130  output(inputs[i].t1,inputs[i].t2,price,fee) */\n      dup2\n      mstore\n      0x20\n      add\n        /* \"contracts/PriceAggregator.sol\":1126:1129  fee */\n      dup3\n        /* \"contracts/PriceAggregator.sol\":1087:1130  output(inputs[i].t1,inputs[i].t2,price,fee) */\n      0xffffff\n      and\n      dup2\n      mstore\n      pop\n        /* \"contracts/PriceAggregator.sol\":1074:1081  outputs */\n      dup5\n        /* \"contracts/PriceAggregator.sol\":1082:1083  i */\n      dup5\n        /* \"contracts/PriceAggregator.sol\":1074:1084  outputs[i] */\n      dup2\n      mload\n      dup2\n      lt\n      tag_48\n      jumpi\n      invalid\n    tag_48:\n      0x20\n      mul\n      0x20\n      add\n      add\n        /* \"contracts/PriceAggregator.sol\":1074:1130  outputs[i] = output(inputs[i].t1,inputs[i].t2,price,fee) */\n      dup2\n      swap1\n      mstore\n      pop\n        /* \"contracts/PriceAggregator.sol\":920:1153  if (inputs[i].providerVersion == 3) {... */\n      pop\n      pop\n    tag_36:\n        /* \"contracts/PriceAggregator.sol\":698:1153  if (inputs[i].providerVersion == 2) {... */\n    tag_34:\n        /* \"contracts/PriceAggregator.sol\":684:687  i++ */\n      dup1\n      dup1\n      0x01\n      add\n      swap2\n      pop\n      pop\n        /* \"contracts/PriceAggregator.sol\":654:1162  for (uint i=0;i<inputs.length;i++){... */\n      jump(tag_16)\n    tag_17:\n      pop\n        /* \"contracts/PriceAggregator.sol\":1182:1189  outputs */\n      dup1\n        /* \"contracts/PriceAggregator.sol\":1175:1189  return outputs */\n      swap2\n      pop\n      pop\n        /* \"contracts/PriceAggregator.sol\":493:1196  function getPrices(input[] memory inputs) public override view returns (output[] memory) {... */\n      swap2\n      swap1\n      pop\n      jump\t// out\n    tag_15:\n      mload(0x40)\n      dup1\n      0x80\n      add\n      0x40\n      mstore\n      dup1\n      and(0xffffffffffffffffffffffffffffffffffffffff, 0x00)\n      dup2\n      mstore\n      0x20\n      add\n      and(0xffffffffffffffffffffffffffffffffffffffff, 0x00)\n      dup2\n      mstore\n      0x20\n      add\n      0x00\n      dup2\n      mstore\n      0x20\n      add\n      and(0xffffff, 0x00)\n      dup2\n      mstore\n      pop\n      swap1\n      jump\t// out\n        /* \"#utility.yul\":46:737   */\n    tag_50:\n      0x00\n        /* \"#utility.yul\":190:293   */\n      tag_52\n        /* \"#utility.yul\":205:292   */\n      tag_53\n        /* \"#utility.yul\":285:291   */\n      dup5\n        /* \"#utility.yul\":205:292   */\n      tag_54\n      jump\t// in\n    tag_53:\n        /* \"#utility.yul\":190:293   */\n      tag_55\n      jump\t// in\n    tag_52:\n        /* \"#utility.yul\":181:293   */\n      swap1\n      pop\n        /* \"#utility.yul\":313:318   */\n      dup1\n        /* \"#utility.yul\":341:347   */\n      dup4\n        /* \"#utility.yul\":334:339   */\n      dup3\n        /* \"#utility.yul\":327:348   */\n      mstore\n        /* \"#utility.yul\":367:371   */\n      0x20\n        /* \"#utility.yul\":360:365   */\n      dup3\n        /* \"#utility.yul\":356:372   */\n      add\n        /* \"#utility.yul\":349:372   */\n      swap1\n      pop\n        /* \"#utility.yul\":392:398   */\n      dup3\n        /* \"#utility.yul\":442:445   */\n      dup6\n        /* \"#utility.yul\":434:438   */\n      0x80\n        /* \"#utility.yul\":426:432   */\n      dup7\n        /* \"#utility.yul\":422:439   */\n      mul\n        /* \"#utility.yul\":417:420   */\n      dup3\n        /* \"#utility.yul\":413:440   */\n      add\n        /* \"#utility.yul\":410:446   */\n      gt\n        /* \"#utility.yul\":407:409   */\n      iszero\n      tag_56\n      jumpi\n        /* \"#utility.yul\":459:460   */\n      0x00\n        /* \"#utility.yul\":456:457   */\n      dup1\n        /* \"#utility.yul\":449:461   */\n      revert\n        /* \"#utility.yul\":407:409   */\n    tag_56:\n        /* \"#utility.yul\":487:488   */\n      0x00\n        /* \"#utility.yul\":472:731   */\n    tag_57:\n        /* \"#utility.yul\":497:503   */\n      dup6\n        /* \"#utility.yul\":494:495   */\n      dup2\n        /* \"#utility.yul\":491:504   */\n      lt\n        /* \"#utility.yul\":472:731   */\n      iszero\n      tag_59\n      jumpi\n        /* \"#utility.yul\":564:567   */\n      dup2\n        /* \"#utility.yul\":592:652   */\n      tag_60\n        /* \"#utility.yul\":648:651   */\n      dup9\n        /* \"#utility.yul\":636:646   */\n      dup3\n        /* \"#utility.yul\":592:652   */\n      tag_61\n      jump\t// in\n    tag_60:\n        /* \"#utility.yul\":587:590   */\n      dup5\n        /* \"#utility.yul\":580:653   */\n      mstore\n        /* \"#utility.yul\":682:686   */\n      0x20\n        /* \"#utility.yul\":677:680   */\n      dup5\n        /* \"#utility.yul\":673:687   */\n      add\n        /* \"#utility.yul\":666:687   */\n      swap4\n      pop\n        /* \"#utility.yul\":716:720   */\n      0x80\n        /* \"#utility.yul\":711:714   */\n      dup4\n        /* \"#utility.yul\":707:721   */\n      add\n        /* \"#utility.yul\":700:721   */\n      swap3\n      pop\n        /* \"#utility.yul\":532:731   */\n      pop\n        /* \"#utility.yul\":519:520   */\n      0x01\n        /* \"#utility.yul\":516:517   */\n      dup2\n        /* \"#utility.yul\":512:521   */\n      add\n        /* \"#utility.yul\":507:521   */\n      swap1\n      pop\n        /* \"#utility.yul\":472:731   */\n      jump(tag_57)\n    tag_59:\n        /* \"#utility.yul\":476:490   */\n      pop\n        /* \"#utility.yul\":171:737   */\n      pop\n      pop\n      swap4\n      swap3\n      pop\n      pop\n      pop\n      jump\t// out\n        /* \"#utility.yul\":743:882   */\n    tag_62:\n      0x00\n        /* \"#utility.yul\":827:833   */\n      dup2\n        /* \"#utility.yul\":814:834   */\n      calldataload\n        /* \"#utility.yul\":805:834   */\n      swap1\n      pop\n        /* \"#utility.yul\":843:876   */\n      tag_64\n        /* \"#utility.yul\":870:875   */\n      dup2\n        /* \"#utility.yul\":843:876   */\n      tag_65\n      jump\t// in\n    tag_64:\n        /* \"#utility.yul\":795:882   */\n      swap3\n      swap2\n      pop\n      pop\n      jump\t// out\n        /* \"#utility.yul\":927:1276   */\n    tag_66:\n      0x00\n        /* \"#utility.yul\":1070:1073   */\n      dup3\n        /* \"#utility.yul\":1063:1067   */\n      0x1f\n        /* \"#utility.yul\":1055:1061   */\n      dup4\n        /* \"#utility.yul\":1051:1068   */\n      add\n        /* \"#utility.yul\":1047:1074   */\n      slt\n        /* \"#utility.yul\":1037:1039   */\n      tag_68\n      jumpi\n        /* \"#utility.yul\":1088:1089   */\n      0x00\n        /* \"#utility.yul\":1085:1086   */\n      dup1\n        /* \"#utility.yul\":1078:1090   */\n      revert\n        /* \"#utility.yul\":1037:1039   */\n    tag_68:\n        /* \"#utility.yul\":1128:1134   */\n      dup2\n        /* \"#utility.yul\":1115:1135   */\n      calldataload\n        /* \"#utility.yul\":1153:1270   */\n      tag_69\n        /* \"#utility.yul\":1266:1269   */\n      dup5\n        /* \"#utility.yul\":1258:1264   */\n      dup3\n        /* \"#utility.yul\":1251:1255   */\n      0x20\n        /* \"#utility.yul\":1243:1249   */\n      dup7\n        /* \"#utility.yul\":1239:1256   */\n      add\n        /* \"#utility.yul\":1153:1270   */\n      tag_50\n      jump\t// in\n    tag_69:\n        /* \"#utility.yul\":1144:1270   */\n      swap2\n      pop\n        /* \"#utility.yul\":1027:1276   */\n      pop\n      swap3\n      swap2\n      pop\n      pop\n      jump\t// out\n        /* \"#utility.yul\":1319:2154   */\n    tag_61:\n      0x00\n        /* \"#utility.yul\":1435:1439   */\n      0x80\n        /* \"#utility.yul\":1423:1432   */\n      dup3\n        /* \"#utility.yul\":1418:1421   */\n      dup5\n        /* \"#utility.yul\":1414:1433   */\n      sub\n        /* \"#utility.yul\":1410:1440   */\n      slt\n        /* \"#utility.yul\":1407:1409   */\n      iszero\n      tag_71\n      jumpi\n        /* \"#utility.yul\":1453:1454   */\n      0x00\n        /* \"#utility.yul\":1450:1451   */\n      dup1\n        /* \"#utility.yul\":1443:1455   */\n      revert\n        /* \"#utility.yul\":1407:1409   */\n    tag_71:\n        /* \"#utility.yul\":1475:1495   */\n      tag_72\n        /* \"#utility.yul\":1490:1494   */\n      0x80\n        /* \"#utility.yul\":1475:1495   */\n      tag_55\n      jump\t// in\n    tag_72:\n        /* \"#utility.yul\":1466:1495   */\n      swap1\n      pop\n        /* \"#utility.yul\":1552:1553   */\n      0x00\n        /* \"#utility.yul\":1592:1641   */\n      tag_73\n        /* \"#utility.yul\":1637:1640   */\n      dup5\n        /* \"#utility.yul\":1628:1634   */\n      dup3\n        /* \"#utility.yul\":1617:1626   */\n      dup6\n        /* \"#utility.yul\":1613:1635   */\n      add\n        /* \"#utility.yul\":1592:1641   */\n      tag_62\n      jump\t// in\n    tag_73:\n        /* \"#utility.yul\":1585:1589   */\n      0x00\n        /* \"#utility.yul\":1578:1583   */\n      dup4\n        /* \"#utility.yul\":1574:1590   */\n      add\n        /* \"#utility.yul\":1567:1642   */\n      mstore\n        /* \"#utility.yul\":1505:1653   */\n      pop\n        /* \"#utility.yul\":1710:1712   */\n      0x20\n        /* \"#utility.yul\":1751:1800   */\n      tag_74\n        /* \"#utility.yul\":1796:1799   */\n      dup5\n        /* \"#utility.yul\":1787:1793   */\n      dup3\n        /* \"#utility.yul\":1776:1785   */\n      dup6\n        /* \"#utility.yul\":1772:1794   */\n      add\n        /* \"#utility.yul\":1751:1800   */\n      tag_62\n      jump\t// in\n    tag_74:\n        /* \"#utility.yul\":1744:1748   */\n      0x20\n        /* \"#utility.yul\":1737:1742   */\n      dup4\n        /* \"#utility.yul\":1733:1749   */\n      add\n        /* \"#utility.yul\":1726:1801   */\n      mstore\n        /* \"#utility.yul\":1663:1812   */\n      pop\n        /* \"#utility.yul\":1875:1877   */\n      0x40\n        /* \"#utility.yul\":1916:1965   */\n      tag_75\n        /* \"#utility.yul\":1961:1964   */\n      dup5\n        /* \"#utility.yul\":1952:1958   */\n      dup3\n        /* \"#utility.yul\":1941:1950   */\n      dup6\n        /* \"#utility.yul\":1937:1959   */\n      add\n        /* \"#utility.yul\":1916:1965   */\n      tag_62\n      jump\t// in\n    tag_75:\n        /* \"#utility.yul\":1909:1913   */\n      0x40\n        /* \"#utility.yul\":1902:1907   */\n      dup4\n        /* \"#utility.yul\":1898:1914   */\n      add\n        /* \"#utility.yul\":1891:1966   */\n      mstore\n        /* \"#utility.yul\":1822:1977   */\n      pop\n        /* \"#utility.yul\":2047:2049   */\n      0x60\n        /* \"#utility.yul\":2088:2135   */\n      tag_76\n        /* \"#utility.yul\":2131:2134   */\n      dup5\n        /* \"#utility.yul\":2122:2128   */\n      dup3\n        /* \"#utility.yul\":2111:2120   */\n      dup6\n        /* \"#utility.yul\":2107:2129   */\n      add\n        /* \"#utility.yul\":2088:2135   */\n      tag_77\n      jump\t// in\n    tag_76:\n        /* \"#utility.yul\":2081:2085   */\n      0x60\n        /* \"#utility.yul\":2074:2079   */\n      dup4\n        /* \"#utility.yul\":2070:2086   */\n      add\n        /* \"#utility.yul\":2063:2136   */\n      mstore\n        /* \"#utility.yul\":1987:2147   */\n      pop\n        /* \"#utility.yul\":1397:2154   */\n      swap3\n      swap2\n      pop\n      pop\n      jump\t// out\n        /* \"#utility.yul\":2160:2301   */\n    tag_78:\n      0x00\n        /* \"#utility.yul\":2247:2253   */\n      dup2\n        /* \"#utility.yul\":2241:2254   */\n      mload\n        /* \"#utility.yul\":2232:2254   */\n      swap1\n      pop\n        /* \"#utility.yul\":2263:2295   */\n      tag_80\n        /* \"#utility.yul\":2289:2294   */\n      dup2\n        /* \"#utility.yul\":2263:2295   */\n      tag_81\n      jump\t// in\n    tag_80:\n        /* \"#utility.yul\":2222:2301   */\n      swap3\n      swap2\n      pop\n      pop\n      jump\t// out\n        /* \"#utility.yul\":2307:2450   */\n    tag_82:\n      0x00\n        /* \"#utility.yul\":2395:2401   */\n      dup2\n        /* \"#utility.yul\":2389:2402   */\n      mload\n        /* \"#utility.yul\":2380:2402   */\n      swap1\n      pop\n        /* \"#utility.yul\":2411:2444   */\n      tag_84\n        /* \"#utility.yul\":2438:2443   */\n      dup2\n        /* \"#utility.yul\":2411:2444   */\n      tag_85\n      jump\t// in\n    tag_84:\n        /* \"#utility.yul\":2370:2450   */\n      swap3\n      swap2\n      pop\n      pop\n      jump\t// out\n        /* \"#utility.yul\":2456:2591   */\n    tag_77:\n      0x00\n        /* \"#utility.yul\":2538:2544   */\n      dup2\n        /* \"#utility.yul\":2525:2545   */\n      calldataload\n        /* \"#utility.yul\":2516:2545   */\n      swap1\n      pop\n        /* \"#utility.yul\":2554:2585   */\n      tag_87\n        /* \"#utility.yul\":2579:2584   */\n      dup2\n        /* \"#utility.yul\":2554:2585   */\n      tag_88\n      jump\t// in\n    tag_87:\n        /* \"#utility.yul\":2506:2591   */\n      swap3\n      swap2\n      pop\n      pop\n      jump\t// out\n        /* \"#utility.yul\":2597:3048   */\n    tag_6:\n      0x00\n        /* \"#utility.yul\":2753:2755   */\n      0x20\n        /* \"#utility.yul\":2741:2750   */\n      dup3\n        /* \"#utility.yul\":2732:2739   */\n      dup5\n        /* \"#utility.yul\":2728:2751   */\n      sub\n        /* \"#utility.yul\":2724:2756   */\n      slt\n        /* \"#utility.yul\":2721:2723   */\n      iszero\n      tag_90\n      jumpi\n        /* \"#utility.yul\":2769:2770   */\n      0x00\n        /* \"#utility.yul\":2766:2767   */\n      dup1\n        /* \"#utility.yul\":2759:2771   */\n      revert\n        /* \"#utility.yul\":2721:2723   */\n    tag_90:\n        /* \"#utility.yul\":2840:2841   */\n      0x00\n        /* \"#utility.yul\":2829:2838   */\n      dup3\n        /* \"#utility.yul\":2825:2842   */\n      add\n        /* \"#utility.yul\":2812:2843   */\n      calldataload\n        /* \"#utility.yul\":2870:2888   */\n      0xffffffffffffffff\n        /* \"#utility.yul\":2862:2868   */\n      dup2\n        /* \"#utility.yul\":2859:2889   */\n      gt\n        /* \"#utility.yul\":2856:2858   */\n      iszero\n      tag_91\n      jumpi\n        /* \"#utility.yul\":2902:2903   */\n      0x00\n        /* \"#utility.yul\":2899:2900   */\n      dup1\n        /* \"#utility.yul\":2892:2904   */\n      revert\n        /* \"#utility.yul\":2856:2858   */\n    tag_91:\n        /* \"#utility.yul\":2930:3031   */\n      tag_92\n        /* \"#utility.yul\":3023:3030   */\n      dup5\n        /* \"#utility.yul\":3014:3020   */\n      dup3\n        /* \"#utility.yul\":3003:3012   */\n      dup6\n        /* \"#utility.yul\":2999:3021   */\n      add\n        /* \"#utility.yul\":2930:3031   */\n      tag_66\n      jump\t// in\n    tag_92:\n        /* \"#utility.yul\":2920:3031   */\n      swap2\n      pop\n        /* \"#utility.yul\":2783:3041   */\n      pop\n        /* \"#utility.yul\":2711:3048   */\n      swap3\n      swap2\n      pop\n      pop\n      jump\t// out\n        /* \"#utility.yul\":3054:3338   */\n    tag_30:\n      0x00\n        /* \"#utility.yul\":3173:3175   */\n      0x20\n        /* \"#utility.yul\":3161:3170   */\n      dup3\n        /* \"#utility.yul\":3152:3159   */\n      dup5\n        /* \"#utility.yul\":3148:3171   */\n      sub\n        /* \"#utility.yul\":3144:3176   */\n      slt\n        /* \"#utility.yul\":3141:3143   */\n      iszero\n      tag_94\n      jumpi\n        /* \"#utility.yul\":3189:3190   */\n      0x00\n        /* \"#utility.yul\":3186:3187   */\n      dup1\n        /* \"#utility.yul\":3179:3191   */\n      revert\n        /* \"#utility.yul\":3141:3143   */\n    tag_94:\n        /* \"#utility.yul\":3232:3233   */\n      0x00\n        /* \"#utility.yul\":3257:3321   */\n      tag_95\n        /* \"#utility.yul\":3313:3320   */\n      dup5\n        /* \"#utility.yul\":3304:3310   */\n      dup3\n        /* \"#utility.yul\":3293:3302   */\n      dup6\n        /* \"#utility.yul\":3289:3311   */\n      add\n        /* \"#utility.yul\":3257:3321   */\n      tag_82\n      jump\t// in\n    tag_95:\n        /* \"#utility.yul\":3247:3321   */\n      swap2\n      pop\n        /* \"#utility.yul\":3203:3331   */\n      pop\n        /* \"#utility.yul\":3131:3338   */\n      swap3\n      swap2\n      pop\n      pop\n      jump\t// out\n        /* \"#utility.yul\":3344:3782   */\n    tag_45:\n      0x00\n      dup1\n        /* \"#utility.yul\":3479:3481   */\n      0x40\n        /* \"#utility.yul\":3467:3476   */\n      dup4\n        /* \"#utility.yul\":3458:3465   */\n      dup6\n        /* \"#utility.yul\":3454:3477   */\n      sub\n        /* \"#utility.yul\":3450:3482   */\n      slt\n        /* \"#utility.yul\":3447:3449   */\n      iszero\n      tag_97\n      jumpi\n        /* \"#utility.yul\":3495:3496   */\n      0x00\n        /* \"#utility.yul\":3492:3493   */\n      dup1\n        /* \"#utility.yul\":3485:3497   */\n      revert\n        /* \"#utility.yul\":3447:3449   */\n    tag_97:\n        /* \"#utility.yul\":3538:3539   */\n      0x00\n        /* \"#utility.yul\":3563:3627   */\n      tag_98\n        /* \"#utility.yul\":3619:3626   */\n      dup6\n        /* \"#utility.yul\":3610:3616   */\n      dup3\n        /* \"#utility.yul\":3599:3608   */\n      dup7\n        /* \"#utility.yul\":3595:3617   */\n      add\n        /* \"#utility.yul\":3563:3627   */\n      tag_82\n      jump\t// in\n    tag_98:\n        /* \"#utility.yul\":3553:3627   */\n      swap3\n      pop\n        /* \"#utility.yul\":3509:3637   */\n      pop\n        /* \"#utility.yul\":3676:3678   */\n      0x20\n        /* \"#utility.yul\":3702:3765   */\n      tag_99\n        /* \"#utility.yul\":3757:3764   */\n      dup6\n        /* \"#utility.yul\":3748:3754   */\n      dup3\n        /* \"#utility.yul\":3737:3746   */\n      dup7\n        /* \"#utility.yul\":3733:3755   */\n      add\n        /* \"#utility.yul\":3702:3765   */\n      tag_78\n      jump\t// in\n    tag_99:\n        /* \"#utility.yul\":3692:3765   */\n      swap2\n      pop\n        /* \"#utility.yul\":3647:3775   */\n      pop\n        /* \"#utility.yul\":3437:3782   */\n      swap3\n      pop\n      swap3\n      swap1\n      pop\n      jump\t// out\n        /* \"#utility.yul\":3788:4063   */\n    tag_100:\n      0x00\n        /* \"#utility.yul\":3926:4020   */\n      tag_102\n        /* \"#utility.yul\":4016:4019   */\n      dup4\n        /* \"#utility.yul\":4008:4014   */\n      dup4\n        /* \"#utility.yul\":3926:4020   */\n      tag_103\n      jump\t// in\n    tag_102:\n        /* \"#utility.yul\":4052:4056   */\n      0x80\n        /* \"#utility.yul\":4047:4050   */\n      dup4\n        /* \"#utility.yul\":4043:4057   */\n      add\n        /* \"#utility.yul\":4029:4057   */\n      swap1\n      pop\n        /* \"#utility.yul\":3916:4063   */\n      swap3\n      swap2\n      pop\n      pop\n      jump\t// out\n        /* \"#utility.yul\":4069:4177   */\n    tag_104:\n        /* \"#utility.yul\":4146:4170   */\n      tag_106\n        /* \"#utility.yul\":4164:4169   */\n      dup2\n        /* \"#utility.yul\":4146:4170   */\n      tag_107\n      jump\t// in\n    tag_106:\n        /* \"#utility.yul\":4141:4144   */\n      dup3\n        /* \"#utility.yul\":4134:4171   */\n      mstore\n        /* \"#utility.yul\":4124:4177   */\n      pop\n      pop\n      jump\t// out\n        /* \"#utility.yul\":4183:4309   */\n    tag_108:\n        /* \"#utility.yul\":4278:4302   */\n      tag_110\n        /* \"#utility.yul\":4296:4301   */\n      dup2\n        /* \"#utility.yul\":4278:4302   */\n      tag_107\n      jump\t// in\n    tag_110:\n        /* \"#utility.yul\":4273:4276   */\n      dup3\n        /* \"#utility.yul\":4266:4303   */\n      mstore\n        /* \"#utility.yul\":4256:4309   */\n      pop\n      pop\n      jump\t// out\n        /* \"#utility.yul\":4391:5315   */\n    tag_111:\n      0x00\n        /* \"#utility.yul\":4587:4665   */\n      tag_113\n        /* \"#utility.yul\":4659:4664   */\n      dup3\n        /* \"#utility.yul\":4587:4665   */\n      tag_114\n      jump\t// in\n    tag_113:\n        /* \"#utility.yul\":4681:4791   */\n      tag_115\n        /* \"#utility.yul\":4784:4790   */\n      dup2\n        /* \"#utility.yul\":4779:4782   */\n      dup6\n        /* \"#utility.yul\":4681:4791   */\n      tag_116\n      jump\t// in\n    tag_115:\n        /* \"#utility.yul\":4674:4791   */\n      swap4\n      pop\n        /* \"#utility.yul\":4815:4895   */\n      tag_117\n        /* \"#utility.yul\":4889:4894   */\n      dup4\n        /* \"#utility.yul\":4815:4895   */\n      tag_118\n      jump\t// in\n    tag_117:\n        /* \"#utility.yul\":4918:4925   */\n      dup1\n        /* \"#utility.yul\":4949:4950   */\n      0x00\n        /* \"#utility.yul\":4934:5290   */\n    tag_119:\n        /* \"#utility.yul\":4959:4965   */\n      dup4\n        /* \"#utility.yul\":4956:4957   */\n      dup2\n        /* \"#utility.yul\":4953:4966   */\n      lt\n        /* \"#utility.yul\":4934:5290   */\n      iszero\n      tag_121\n      jumpi\n        /* \"#utility.yul\":5035:5041   */\n      dup2\n        /* \"#utility.yul\":5029:5042   */\n      mload\n        /* \"#utility.yul\":5062:5173   */\n      tag_122\n        /* \"#utility.yul\":5169:5172   */\n      dup9\n        /* \"#utility.yul\":5154:5167   */\n      dup3\n        /* \"#utility.yul\":5062:5173   */\n      tag_100\n      jump\t// in\n    tag_122:\n        /* \"#utility.yul\":5055:5173   */\n      swap8\n      pop\n        /* \"#utility.yul\":5196:5280   */\n      tag_123\n        /* \"#utility.yul\":5273:5279   */\n      dup4\n        /* \"#utility.yul\":5196:5280   */\n      tag_124\n      jump\t// in\n    tag_123:\n        /* \"#utility.yul\":5186:5280   */\n      swap3\n      pop\n        /* \"#utility.yul\":4994:5290   */\n      pop\n        /* \"#utility.yul\":4981:4982   */\n      0x01\n        /* \"#utility.yul\":4978:4979   */\n      dup2\n        /* \"#utility.yul\":4974:4983   */\n      add\n        /* \"#utility.yul\":4969:4983   */\n      swap1\n      pop\n        /* \"#utility.yul\":4934:5290   */\n      jump(tag_119)\n    tag_121:\n        /* \"#utility.yul\":4938:4952   */\n      pop\n        /* \"#utility.yul\":5306:5309   */\n      dup6\n        /* \"#utility.yul\":5299:5309   */\n      swap4\n      pop\n        /* \"#utility.yul\":4563:5315   */\n      pop\n      pop\n      pop\n      swap3\n      swap2\n      pop\n      pop\n      jump\t// out\n        /* \"#utility.yul\":5393:6230   */\n    tag_103:\n        /* \"#utility.yul\":5528:5532   */\n      0x80\n        /* \"#utility.yul\":5523:5526   */\n      dup3\n        /* \"#utility.yul\":5519:5533   */\n      add\n        /* \"#utility.yul\":5613:5617   */\n      0x00\n        /* \"#utility.yul\":5606:5611   */\n      dup3\n        /* \"#utility.yul\":5602:5618   */\n      add\n        /* \"#utility.yul\":5596:5619   */\n      mload\n        /* \"#utility.yul\":5632:5695   */\n      tag_126\n        /* \"#utility.yul\":5689:5693   */\n      0x00\n        /* \"#utility.yul\":5684:5687   */\n      dup6\n        /* \"#utility.yul\":5680:5694   */\n      add\n        /* \"#utility.yul\":5666:5678   */\n      dup3\n        /* \"#utility.yul\":5632:5695   */\n      tag_104\n      jump\t// in\n    tag_126:\n        /* \"#utility.yul\":5543:5705   */\n      pop\n        /* \"#utility.yul\":5785:5789   */\n      0x20\n        /* \"#utility.yul\":5778:5783   */\n      dup3\n        /* \"#utility.yul\":5774:5790   */\n      add\n        /* \"#utility.yul\":5768:5791   */\n      mload\n        /* \"#utility.yul\":5804:5867   */\n      tag_127\n        /* \"#utility.yul\":5861:5865   */\n      0x20\n        /* \"#utility.yul\":5856:5859   */\n      dup6\n        /* \"#utility.yul\":5852:5866   */\n      add\n        /* \"#utility.yul\":5838:5850   */\n      dup3\n        /* \"#utility.yul\":5804:5867   */\n      tag_104\n      jump\t// in\n    tag_127:\n        /* \"#utility.yul\":5715:5877   */\n      pop\n        /* \"#utility.yul\":5960:5964   */\n      0x40\n        /* \"#utility.yul\":5953:5958   */\n      dup3\n        /* \"#utility.yul\":5949:5965   */\n      add\n        /* \"#utility.yul\":5943:5966   */\n      mload\n        /* \"#utility.yul\":5979:6042   */\n      tag_128\n        /* \"#utility.yul\":6036:6040   */\n      0x40\n        /* \"#utility.yul\":6031:6034   */\n      dup6\n        /* \"#utility.yul\":6027:6041   */\n      add\n        /* \"#utility.yul\":6013:6025   */\n      dup3\n        /* \"#utility.yul\":5979:6042   */\n      tag_129\n      jump\t// in\n    tag_128:\n        /* \"#utility.yul\":5887:6052   */\n      pop\n        /* \"#utility.yul\":6133:6137   */\n      0x60\n        /* \"#utility.yul\":6126:6131   */\n      dup3\n        /* \"#utility.yul\":6122:6138   */\n      add\n        /* \"#utility.yul\":6116:6139   */\n      mload\n        /* \"#utility.yul\":6152:6213   */\n      tag_130\n        /* \"#utility.yul\":6207:6211   */\n      0x60\n        /* \"#utility.yul\":6202:6205   */\n      dup6\n        /* \"#utility.yul\":6198:6212   */\n      add\n        /* \"#utility.yul\":6184:6196   */\n      dup3\n        /* \"#utility.yul\":6152:6213   */\n      tag_131\n      jump\t// in\n    tag_130:\n        /* \"#utility.yul\":6062:6223   */\n      pop\n        /* \"#utility.yul\":5497:6230   */\n      pop\n      pop\n      pop\n      jump\t// out\n        /* \"#utility.yul\":6236:6341   */\n    tag_131:\n        /* \"#utility.yul\":6311:6334   */\n      tag_133\n        /* \"#utility.yul\":6328:6333   */\n      dup2\n        /* \"#utility.yul\":6311:6334   */\n      tag_134\n      jump\t// in\n    tag_133:\n        /* \"#utility.yul\":6306:6309   */\n      dup3\n        /* \"#utility.yul\":6299:6335   */\n      mstore\n        /* \"#utility.yul\":6289:6341   */\n      pop\n      pop\n      jump\t// out\n        /* \"#utility.yul\":6347:6455   */\n    tag_129:\n        /* \"#utility.yul\":6424:6448   */\n      tag_136\n        /* \"#utility.yul\":6442:6447   */\n      dup2\n        /* \"#utility.yul\":6424:6448   */\n      tag_137\n      jump\t// in\n    tag_136:\n        /* \"#utility.yul\":6419:6422   */\n      dup3\n        /* \"#utility.yul\":6412:6449   */\n      mstore\n        /* \"#utility.yul\":6402:6455   */\n      pop\n      pop\n      jump\t// out\n        /* \"#utility.yul\":6461:6935   */\n    tag_25:\n      0x00\n        /* \"#utility.yul\":6656:6658   */\n      0x60\n        /* \"#utility.yul\":6645:6654   */\n      dup3\n        /* \"#utility.yul\":6641:6659   */\n      add\n        /* \"#utility.yul\":6633:6659   */\n      swap1\n      pop\n        /* \"#utility.yul\":6669:6748   */\n      tag_139\n        /* \"#utility.yul\":6745:6746   */\n      0x00\n        /* \"#utility.yul\":6734:6743   */\n      dup4\n        /* \"#utility.yul\":6730:6747   */\n      add\n        /* \"#utility.yul\":6721:6727   */\n      dup7\n        /* \"#utility.yul\":6669:6748   */\n      tag_108\n      jump\t// in\n    tag_139:\n        /* \"#utility.yul\":6758:6838   */\n      tag_140\n        /* \"#utility.yul\":6834:6836   */\n      0x20\n        /* \"#utility.yul\":6823:6832   */\n      dup4\n        /* \"#utility.yul\":6819:6837   */\n      add\n        /* \"#utility.yul\":6810:6816   */\n      dup6\n        /* \"#utility.yul\":6758:6838   */\n      tag_108\n      jump\t// in\n    tag_140:\n        /* \"#utility.yul\":6848:6928   */\n      tag_141\n        /* \"#utility.yul\":6924:6926   */\n      0x40\n        /* \"#utility.yul\":6913:6922   */\n      dup4\n        /* \"#utility.yul\":6909:6927   */\n      add\n        /* \"#utility.yul\":6900:6906   */\n      dup5\n        /* \"#utility.yul\":6848:6928   */\n      tag_108\n      jump\t// in\n    tag_141:\n        /* \"#utility.yul\":6623:6935   */\n      swap5\n      swap4\n      pop\n      pop\n      pop\n      pop\n      jump\t// out\n        /* \"#utility.yul\":6941:7410   */\n    tag_9:\n      0x00\n        /* \"#utility.yul\":7170:7172   */\n      0x20\n        /* \"#utility.yul\":7159:7168   */\n      dup3\n        /* \"#utility.yul\":7155:7173   */\n      add\n        /* \"#utility.yul\":7147:7173   */\n      swap1\n      pop\n        /* \"#utility.yul\":7219:7228   */\n      dup2\n        /* \"#utility.yul\":7213:7217   */\n      dup2\n        /* \"#utility.yul\":7209:7229   */\n      sub\n        /* \"#utility.yul\":7205:7206   */\n      0x00\n        /* \"#utility.yul\":7194:7203   */\n      dup4\n        /* \"#utility.yul\":7190:7207   */\n      add\n        /* \"#utility.yul\":7183:7230   */\n      mstore\n        /* \"#utility.yul\":7247:7403   */\n      tag_143\n        /* \"#utility.yul\":7398:7402   */\n      dup2\n        /* \"#utility.yul\":7389:7395   */\n      dup5\n        /* \"#utility.yul\":7247:7403   */\n      tag_111\n      jump\t// in\n    tag_143:\n        /* \"#utility.yul\":7239:7403   */\n      swap1\n      pop\n        /* \"#utility.yul\":7137:7410   */\n      swap3\n      swap2\n      pop\n      pop\n      jump\t// out\n        /* \"#utility.yul\":7416:7694   */\n    tag_55:\n      0x00\n        /* \"#utility.yul\":7482:7484   */\n      0x40\n        /* \"#utility.yul\":7476:7485   */\n      mload\n        /* \"#utility.yul\":7466:7485   */\n      swap1\n      pop\n        /* \"#utility.yul\":7524:7528   */\n      dup2\n        /* \"#utility.yul\":7516:7522   */\n      dup2\n        /* \"#utility.yul\":7512:7529   */\n      add\n        /* \"#utility.yul\":7631:7637   */\n      dup2\n        /* \"#utility.yul\":7619:7629   */\n      dup2\n        /* \"#utility.yul\":7616:7638   */\n      lt\n        /* \"#utility.yul\":7595:7613   */\n      0xffffffffffffffff\n        /* \"#utility.yul\":7583:7593   */\n      dup3\n        /* \"#utility.yul\":7580:7614   */\n      gt\n        /* \"#utility.yul\":7577:7639   */\n      or\n        /* \"#utility.yul\":7574:7576   */\n      iszero\n      tag_145\n      jumpi\n        /* \"#utility.yul\":7642:7655   */\n      tag_146\n      tag_147\n      jump\t// in\n    tag_146:\n        /* \"#utility.yul\":7574:7576   */\n    tag_145:\n        /* \"#utility.yul\":7677:7687   */\n      dup1\n        /* \"#utility.yul\":7673:7675   */\n      0x40\n        /* \"#utility.yul\":7666:7688   */\n      mstore\n        /* \"#utility.yul\":7456:7694   */\n      pop\n      swap2\n      swap1\n      pop\n      jump\t// out\n        /* \"#utility.yul\":7700:8029   */\n    tag_54:\n      0x00\n        /* \"#utility.yul\":7890:7908   */\n      0xffffffffffffffff\n        /* \"#utility.yul\":7882:7888   */\n      dup3\n        /* \"#utility.yul\":7879:7909   */\n      gt\n        /* \"#utility.yul\":7876:7878   */\n      iszero\n      tag_149\n      jumpi\n        /* \"#utility.yul\":7912:7925   */\n      tag_150\n      tag_147\n      jump\t// in\n    tag_150:\n        /* \"#utility.yul\":7876:7878   */\n    tag_149:\n        /* \"#utility.yul\":7957:7961   */\n      0x20\n        /* \"#utility.yul\":7949:7955   */\n      dup3\n        /* \"#utility.yul\":7945:7962   */\n      mul\n        /* \"#utility.yul\":7937:7962   */\n      swap1\n      pop\n        /* \"#utility.yul\":8017:8021   */\n      0x20\n        /* \"#utility.yul\":8011:8015   */\n      dup2\n        /* \"#utility.yul\":8007:8022   */\n      add\n        /* \"#utility.yul\":7999:8022   */\n      swap1\n      pop\n        /* \"#utility.yul\":7805:8029   */\n      swap2\n      swap1\n      pop\n      jump\t// out\n        /* \"#utility.yul\":8035:8191   */\n    tag_118:\n      0x00\n        /* \"#utility.yul\":8149:8152   */\n      dup2\n        /* \"#utility.yul\":8141:8152   */\n      swap1\n      pop\n        /* \"#utility.yul\":8179:8183   */\n      0x20\n        /* \"#utility.yul\":8174:8177   */\n      dup3\n        /* \"#utility.yul\":8170:8184   */\n      add\n        /* \"#utility.yul\":8162:8184   */\n      swap1\n      pop\n        /* \"#utility.yul\":8131:8191   */\n      swap2\n      swap1\n      pop\n      jump\t// out\n        /* \"#utility.yul\":8197:8335   */\n    tag_114:\n      0x00\n        /* \"#utility.yul\":8322:8327   */\n      dup2\n        /* \"#utility.yul\":8316:8328   */\n      mload\n        /* \"#utility.yul\":8306:8328   */\n      swap1\n      pop\n        /* \"#utility.yul\":8295:8335   */\n      swap2\n      swap1\n      pop\n      jump\t// out\n        /* \"#utility.yul\":8341:8478   */\n    tag_124:\n      0x00\n        /* \"#utility.yul\":8467:8471   */\n      0x20\n        /* \"#utility.yul\":8462:8465   */\n      dup3\n        /* \"#utility.yul\":8458:8472   */\n      add\n        /* \"#utility.yul\":8450:8472   */\n      swap1\n      pop\n        /* \"#utility.yul\":8440:8478   */\n      swap2\n      swap1\n      pop\n      jump\t// out\n        /* \"#utility.yul\":8484:8692   */\n    tag_116:\n      0x00\n        /* \"#utility.yul\":8641:8647   */\n      dup3\n        /* \"#utility.yul\":8636:8639   */\n      dup3\n        /* \"#utility.yul\":8629:8648   */\n      mstore\n        /* \"#utility.yul\":8681:8685   */\n      0x20\n        /* \"#utility.yul\":8676:8679   */\n      dup3\n        /* \"#utility.yul\":8672:8686   */\n      add\n        /* \"#utility.yul\":8657:8686   */\n      swap1\n      pop\n        /* \"#utility.yul\":8619:8692   */\n      swap3\n      swap2\n      pop\n      pop\n      jump\t// out\n        /* \"#utility.yul\":8698:8794   */\n    tag_107:\n      0x00\n        /* \"#utility.yul\":8764:8788   */\n      tag_156\n        /* \"#utility.yul\":8782:8787   */\n      dup3\n        /* \"#utility.yul\":8764:8788   */\n      tag_157\n      jump\t// in\n    tag_156:\n        /* \"#utility.yul\":8753:8788   */\n      swap1\n      pop\n        /* \"#utility.yul\":8743:8794   */\n      swap2\n      swap1\n      pop\n      jump\t// out\n        /* \"#utility.yul\":8800:8926   */\n    tag_157:\n      0x00\n        /* \"#utility.yul\":8877:8919   */\n      0xffffffffffffffffffffffffffffffffffffffff\n        /* \"#utility.yul\":8870:8875   */\n      dup3\n        /* \"#utility.yul\":8866:8920   */\n      and\n        /* \"#utility.yul\":8855:8920   */\n      swap1\n      pop\n        /* \"#utility.yul\":8845:8926   */\n      swap2\n      swap1\n      pop\n      jump\t// out\n        /* \"#utility.yul\":8932:9023   */\n    tag_134:\n      0x00\n        /* \"#utility.yul\":9008:9016   */\n      0xffffff\n        /* \"#utility.yul\":9001:9006   */\n      dup3\n        /* \"#utility.yul\":8997:9017   */\n      and\n        /* \"#utility.yul\":8986:9017   */\n      swap1\n      pop\n        /* \"#utility.yul\":8976:9023   */\n      swap2\n      swap1\n      pop\n      jump\t// out\n        /* \"#utility.yul\":9029:9106   */\n    tag_137:\n      0x00\n        /* \"#utility.yul\":9095:9100   */\n      dup2\n        /* \"#utility.yul\":9084:9100   */\n      swap1\n      pop\n        /* \"#utility.yul\":9074:9106   */\n      swap2\n      swap1\n      pop\n      jump\t// out\n        /* \"#utility.yul\":9112:9198   */\n    tag_161:\n      0x00\n        /* \"#utility.yul\":9187:9191   */\n      0xff\n        /* \"#utility.yul\":9180:9185   */\n      dup3\n        /* \"#utility.yul\":9176:9192   */\n      and\n        /* \"#utility.yul\":9165:9192   */\n      swap1\n      pop\n        /* \"#utility.yul\":9155:9198   */\n      swap2\n      swap1\n      pop\n      jump\t// out\n        /* \"#utility.yul\":9204:9252   */\n    tag_147:\n        /* \"#utility.yul\":9237:9246   */\n      invalid\n        /* \"#utility.yul\":9258:9380   */\n    tag_65:\n        /* \"#utility.yul\":9331:9355   */\n      tag_165\n        /* \"#utility.yul\":9349:9354   */\n      dup2\n        /* \"#utility.yul\":9331:9355   */\n      tag_107\n      jump\t// in\n    tag_165:\n        /* \"#utility.yul\":9324:9329   */\n      dup2\n        /* \"#utility.yul\":9321:9356   */\n      eq\n        /* \"#utility.yul\":9311:9313   */\n      tag_166\n      jumpi\n        /* \"#utility.yul\":9370:9371   */\n      0x00\n        /* \"#utility.yul\":9367:9368   */\n      dup1\n        /* \"#utility.yul\":9360:9372   */\n      revert\n        /* \"#utility.yul\":9311:9313   */\n    tag_166:\n        /* \"#utility.yul\":9301:9380   */\n      pop\n      jump\t// out\n        /* \"#utility.yul\":9386:9506   */\n    tag_81:\n        /* \"#utility.yul\":9458:9481   */\n      tag_168\n        /* \"#utility.yul\":9475:9480   */\n      dup2\n        /* \"#utility.yul\":9458:9481   */\n      tag_134\n      jump\t// in\n    tag_168:\n        /* \"#utility.yul\":9451:9456   */\n      dup2\n        /* \"#utility.yul\":9448:9482   */\n      eq\n        /* \"#utility.yul\":9438:9440   */\n      tag_169\n      jumpi\n        /* \"#utility.yul\":9496:9497   */\n      0x00\n        /* \"#utility.yul\":9493:9494   */\n      dup1\n        /* \"#utility.yul\":9486:9498   */\n      revert\n        /* \"#utility.yul\":9438:9440   */\n    tag_169:\n        /* \"#utility.yul\":9428:9506   */\n      pop\n      jump\t// out\n        /* \"#utility.yul\":9512:9634   */\n    tag_85:\n        /* \"#utility.yul\":9585:9609   */\n      tag_171\n        /* \"#utility.yul\":9603:9608   */\n      dup2\n        /* \"#utility.yul\":9585:9609   */\n      tag_137\n      jump\t// in\n    tag_171:\n        /* \"#utility.yul\":9578:9583   */\n      dup2\n        /* \"#utility.yul\":9575:9610   */\n      eq\n        /* \"#utility.yul\":9565:9567   */\n      tag_172\n      jumpi\n        /* \"#utility.yul\":9624:9625   */\n      0x00\n        /* \"#utility.yul\":9621:9622   */\n      dup1\n        /* \"#utility.yul\":9614:9626   */\n      revert\n        /* \"#utility.yul\":9565:9567   */\n    tag_172:\n        /* \"#utility.yul\":9555:9634   */\n      pop\n      jump\t// out\n        /* \"#utility.yul\":9640:9758   */\n    tag_88:\n        /* \"#utility.yul\":9711:9733   */\n      tag_174\n        /* \"#utility.yul\":9727:9732   */\n      dup2\n        /* \"#utility.yul\":9711:9733   */\n      tag_161\n      jump\t// in\n    tag_174:\n        /* \"#utility.yul\":9704:9709   */\n      dup2\n        /* \"#utility.yul\":9701:9734   */\n      eq\n        /* \"#utility.yul\":9691:9693   */\n      tag_175\n      jumpi\n        /* \"#utility.yul\":9748:9749   */\n      0x00\n        /* \"#utility.yul\":9745:9746   */\n      dup1\n        /* \"#utility.yul\":9738:9750   */\n      revert\n        /* \"#utility.yul\":9691:9693   */\n    tag_175:\n        /* \"#utility.yul\":9681:9758   */\n      pop\n      jump\t// out\n\n    auxdata: 0xa264697066735822122070292eaa1f0a942112aabea08e7f81c541f6e96809324a98a50037c20bd06fd764736f6c63430007060033\n}\n",
				"bytecode": {
					"linkReferences": {
						"contracts/libraries/UniswapV2.sol": {
							"UniswapV2": [
								{
									"length": 20,
									"start": 268
								}
							]
						},
						"contracts/libraries/UniswapV3.sol": {
							"UniswapV3": [
								{
									"length": 20,
									"start": 674
								}
							]
						}
					},
					"object": "608060405234801561001057600080fd5b50610944806100206000396000f3fe608060405234801561001057600080fd5b506004361061002b5760003560e01c8063ff514fa314610030575b600080fd5b61004a600480360381019061004591906105bc565b610060565b60405161005791906107a0565b60405180910390f35b60606000825167ffffffffffffffff8111801561007c57600080fd5b506040519080825280602002602001820160405280156100b657816020015b6100a3610405565b81526020019060019003908161009b5790505b50905060005b83518110156103fb5760028482815181106100d357fe5b60200260200101516060015160ff16141561025a57600073__$66db80e837caed232b747c0dfa8ba195e8$__63c361e0b186848151811061011057fe5b60200260200101516040015187858151811061012857fe5b60200260200101516000015188868151811061014057fe5b6020026020010151602001516040518463ffffffff1660e01b815260040161016a93929190610769565b60206040518083038186803b15801561018257600080fd5b505af4158015610196573d6000803e3d6000fd5b505050506040513d601f19601f820116820180604052508101906101ba91906105fd565b905060405180608001604052808684815181106101d357fe5b60200260200101516000015173ffffffffffffffffffffffffffffffffffffffff16815260200186848151811061020657fe5b60200260200101516020015173ffffffffffffffffffffffffffffffffffffffff168152602001828152602001600062ffffff1681525083838151811061024957fe5b6020026020010181905250506103ee565b600384828151811061026857fe5b60200260200101516060015160ff1614156103ed5760008073__$295ab41254e875e078eae9a73e9e2c34b1$__63c361e0b18785815181106102a657fe5b6020026020010151604001518886815181106102be57fe5b6020026020010151600001518987815181106102d657fe5b6020026020010151602001516040518463ffffffff1660e01b815260040161030093929190610769565b604080518083038186803b15801561031757600080fd5b505af415801561032b573d6000803e3d6000fd5b505050506040513d601f19601f8201168201806040525081019061034f9190610626565b91509150604051806080016040528087858151811061036a57fe5b60200260200101516000015173ffffffffffffffffffffffffffffffffffffffff16815260200187858151811061039d57fe5b60200260200101516020015173ffffffffffffffffffffffffffffffffffffffff1681526020018381526020018262ffffff168152508484815181106103df57fe5b602002602001018190525050505b5b80806001019150506100bc565b5080915050919050565b6040518060800160405280600073ffffffffffffffffffffffffffffffffffffffff168152602001600073ffffffffffffffffffffffffffffffffffffffff16815260200160008152602001600062ffffff1681525090565b600061047161046c846107f3565b6107c2565b9050808382526020820190508285608086028201111561049057600080fd5b60005b858110156104c057816104a68882610509565b845260208401935060808301925050600181019050610493565b5050509392505050565b6000813590506104d9816108b2565b92915050565b600082601f8301126104f057600080fd5b813561050084826020860161045e565b91505092915050565b60006080828403121561051b57600080fd5b61052560806107c2565b90506000610535848285016104ca565b6000830152506020610549848285016104ca565b602083015250604061055d848285016104ca565b6040830152506060610571848285016105a7565b60608301525092915050565b60008151905061058c816108c9565b92915050565b6000815190506105a1816108e0565b92915050565b6000813590506105b6816108f7565b92915050565b6000602082840312156105ce57600080fd5b600082013567ffffffffffffffff8111156105e857600080fd5b6105f4848285016104df565b91505092915050565b60006020828403121561060f57600080fd5b600061061d84828501610592565b91505092915050565b6000806040838503121561063957600080fd5b600061064785828601610592565b92505060206106588582860161057d565b9150509250929050565b600061066e83836106f6565b60808301905092915050565b61068381610858565b82525050565b61069281610858565b82525050565b60006106a38261082f565b6106ad8185610847565b93506106b88361081f565b8060005b838110156106e95781516106d08882610662565b97506106db8361083a565b9250506001810190506106bc565b5085935050505092915050565b60808201600082015161070c600085018261067a565b50602082015161071f602085018261067a565b506040820151610732604085018261075a565b506060820151610745606085018261074b565b50505050565b6107548161088a565b82525050565b61076381610899565b82525050565b600060608201905061077e6000830186610689565b61078b6020830185610689565b6107986040830184610689565b949350505050565b600060208201905081810360008301526107ba8184610698565b905092915050565b6000604051905081810181811067ffffffffffffffff821117156107e9576107e86108b0565b5b8060405250919050565b600067ffffffffffffffff82111561080e5761080d6108b0565b5b602082029050602081019050919050565b6000819050602082019050919050565b600081519050919050565b6000602082019050919050565b600082825260208201905092915050565b60006108638261086a565b9050919050565b600073ffffffffffffffffffffffffffffffffffffffff82169050919050565b600062ffffff82169050919050565b6000819050919050565b600060ff82169050919050565bfe5b6108bb81610858565b81146108c657600080fd5b50565b6108d28161088a565b81146108dd57600080fd5b50565b6108e981610899565b81146108f457600080fd5b50565b610900816108a3565b811461090b57600080fd5b5056fea264697066735822122070292eaa1f0a942112aabea08e7f81c541f6e96809324a98a50037c20bd06fd764736f6c63430007060033",
					"opcodes": "PUSH1 0x80 PUSH1 0x40 MSTORE CALLVALUE DUP1 ISZERO PUSH2 0x10 JUMPI PUSH1 0x0 DUP1 REVERT JUMPDEST POP PUSH2 0x944 DUP1 PUSH2 0x20 PUSH1 0x0 CODECOPY PUSH1 0x0 RETURN INVALID PUSH1 0x80 PUSH1 0x40 MSTORE CALLVALUE DUP1 ISZERO PUSH2 0x10 JUMPI PUSH1 0x0 DUP1 REVERT JUMPDEST POP PUSH1 0x4 CALLDATASIZE LT PUSH2 0x2B JUMPI PUSH1 0x0 CALLDATALOAD PUSH1 0xE0 SHR DUP1 PUSH4 0xFF514FA3 EQ PUSH2 0x30 JUMPI JUMPDEST PUSH1 0x0 DUP1 REVERT JUMPDEST PUSH2 0x4A PUSH1 0x4 DUP1 CALLDATASIZE SUB DUP2 ADD SWAP1 PUSH2 0x45 SWAP2 SWAP1 PUSH2 0x5BC JUMP JUMPDEST PUSH2 0x60 JUMP JUMPDEST PUSH1 0x40 MLOAD PUSH2 0x57 SWAP2 SWAP1 PUSH2 0x7A0 JUMP JUMPDEST PUSH1 0x40 MLOAD DUP1 SWAP2 SUB SWAP1 RETURN JUMPDEST PUSH1 0x60 PUSH1 0x0 DUP3 MLOAD PUSH8 0xFFFFFFFFFFFFFFFF DUP2 GT DUP1 ISZERO PUSH2 0x7C JUMPI PUSH1 0x0 DUP1 REVERT JUMPDEST POP PUSH1 0x40 MLOAD SWAP1 DUP1 DUP3 MSTORE DUP1 PUSH1 0x20 MUL PUSH1 0x20 ADD DUP3 ADD PUSH1 0x40 MSTORE DUP1 ISZERO PUSH2 0xB6 JUMPI DUP2 PUSH1 0x20 ADD JUMPDEST PUSH2 0xA3 PUSH2 0x405 JUMP JUMPDEST DUP2 MSTORE PUSH1 0x20 ADD SWAP1 PUSH1 0x1 SWAP1 SUB SWAP1 DUP2 PUSH2 0x9B JUMPI SWAP1 POP JUMPDEST POP SWAP1 POP PUSH1 0x0 JUMPDEST DUP4 MLOAD DUP2 LT ISZERO PUSH2 0x3FB JUMPI PUSH1 0x2 DUP5 DUP3 DUP2 MLOAD DUP2 LT PUSH2 0xD3 JUMPI INVALID JUMPDEST PUSH1 0x20 MUL PUSH1 0x20 ADD ADD MLOAD PUSH1 0x60 ADD MLOAD PUSH1 0xFF AND EQ ISZERO PUSH2 0x25A JUMPI PUSH1 0x0 PUSH20 0x0 PUSH4 0xC361E0B1 DUP7 DUP5 DUP2 MLOAD DUP2 LT PUSH2 0x110 JUMPI INVALID JUMPDEST PUSH1 0x20 MUL PUSH1 0x20 ADD ADD MLOAD PUSH1 0x40 ADD MLOAD DUP8 DUP6 DUP2 MLOAD DUP2 LT PUSH2 0x128 JUMPI INVALID JUMPDEST PUSH1 0x20 MUL PUSH1 0x20 ADD ADD MLOAD PUSH1 0x0 ADD MLOAD DUP9 DUP7 DUP2 MLOAD DUP2 LT PUSH2 0x140 JUMPI INVALID JUMPDEST PUSH1 0x20 MUL PUSH1 0x20 ADD ADD MLOAD PUSH1 0x20 ADD MLOAD PUSH1 0x40 MLOAD DUP5 PUSH4 0xFFFFFFFF AND PUSH1 0xE0 SHL DUP2 MSTORE PUSH1 0x4 ADD PUSH2 0x16A SWAP4 SWAP3 SWAP2 SWAP1 PUSH2 0x769 JUMP JUMPDEST PUSH1 0x20 PUSH1 0x40 MLOAD DUP1 DUP4 SUB DUP2 DUP7 DUP1 EXTCODESIZE ISZERO DUP1 ISZERO PUSH2 0x182 JUMPI PUSH1 0x0 DUP1 REVERT JUMPDEST POP GAS DELEGATECALL ISZERO DUP1 ISZERO PUSH2 0x196 JUMPI RETURNDATASIZE PUSH1 0x0 DUP1 RETURNDATACOPY RETURNDATASIZE PUSH1 0x0 REVERT JUMPDEST POP POP POP POP PUSH1 0x40 MLOAD RETURNDATASIZE PUSH1 0x1F NOT PUSH1 0x1F DUP3 ADD AND DUP3 ADD DUP1 PUSH1 0x40 MSTORE POP DUP2 ADD SWAP1 PUSH2 0x1BA SWAP2 SWAP1 PUSH2 0x5FD JUMP JUMPDEST SWAP1 POP PUSH1 0x40 MLOAD DUP1 PUSH1 0x80 ADD PUSH1 0x40 MSTORE DUP1 DUP7 DUP5 DUP2 MLOAD DUP2 LT PUSH2 0x1D3 JUMPI INVALID JUMPDEST PUSH1 0x20 MUL PUSH1 0x20 ADD ADD MLOAD PUSH1 0x0 ADD MLOAD PUSH20 0xFFFFFFFFFFFFFFFFFFFFFFFFFFFFFFFFFFFFFFFF AND DUP2 MSTORE PUSH1 0x20 ADD DUP7 DUP5 DUP2 MLOAD DUP2 LT PUSH2 0x206 JUMPI INVALID JUMPDEST PUSH1 0x20 MUL PUSH1 0x20 ADD ADD MLOAD PUSH1 0x20 ADD MLOAD PUSH20 0xFFFFFFFFFFFFFFFFFFFFFFFFFFFFFFFFFFFFFFFF AND DUP2 MSTORE PUSH1 0x20 ADD DUP3 DUP2 MSTORE PUSH1 0x20 ADD PUSH1 0x0 PUSH3 0xFFFFFF AND DUP2 MSTORE POP DUP4 DUP4 DUP2 MLOAD DUP2 LT PUSH2 0x249 JUMPI INVALID JUMPDEST PUSH1 0x20 MUL PUSH1 0x20 ADD ADD DUP2 SWAP1 MSTORE POP POP PUSH2 0x3EE JUMP JUMPDEST PUSH1 0x3 DUP5 DUP3 DUP2 MLOAD DUP2 LT PUSH2 0x268 JUMPI INVALID JUMPDEST PUSH1 0x20 MUL PUSH1 0x20 ADD ADD MLOAD PUSH1 0x60 ADD MLOAD PUSH1 0xFF AND EQ ISZERO PUSH2 0x3ED JUMPI PUSH1 0x0 DUP1 PUSH20 0x0 PUSH4 0xC361E0B1 DUP8 DUP6 DUP2 MLOAD DUP2 LT PUSH2 0x2A6 JUMPI INVALID JUMPDEST PUSH1 0x20 MUL PUSH1 0x20 ADD ADD MLOAD PUSH1 0x40 ADD MLOAD DUP9 DUP7 DUP2 MLOAD DUP2 LT PUSH2 0x2BE JUMPI INVALID JUMPDEST PUSH1 0x20 MUL PUSH1 0x20 ADD ADD MLOAD PUSH1 0x0 ADD MLOAD DUP10 DUP8 DUP2 MLOAD DUP2 LT PUSH2 0x2D6 JUMPI INVALID JUMPDEST PUSH1 0x20 MUL PUSH1 0x20 ADD ADD MLOAD PUSH1 0x20 ADD MLOAD PUSH1 0x40 MLOAD DUP5 PUSH4 0xFFFFFFFF AND PUSH1 0xE0 SHL DUP2 MSTORE PUSH1 0x4 ADD PUSH2 0x300 SWAP4 SWAP3 SWAP2 SWAP1 PUSH2 0x769 JUMP JUMPDEST PUSH1 0x40 DUP1 MLOAD DUP1 DUP4 SUB DUP2 DUP7 DUP1 EXTCODESIZE ISZERO DUP1 ISZERO PUSH2 0x317 JUMPI PUSH1 0x0 DUP1 REVERT JUMPDEST POP GAS DELEGATECALL ISZERO DUP1 ISZERO PUSH2 0x32B JUMPI RETURNDATASIZE PUSH1 0x0 DUP1 RETURNDATACOPY RETURNDATASIZE PUSH1 0x0 REVERT JUMPDEST POP POP POP POP PUSH1 0x40 MLOAD RETURNDATASIZE PUSH1 0x1F NOT PUSH1 0x1F DUP3 ADD AND DUP3 ADD DUP1 PUSH1 0x40 MSTORE POP DUP2 ADD SWAP1 PUSH2 0x34F SWAP2 SWAP1 PUSH2 0x626 JUMP JUMPDEST SWAP2 POP SWAP2 POP PUSH1 0x40 MLOAD DUP1 PUSH1 0x80 ADD PUSH1 0x40 MSTORE DUP1 DUP8 DUP6 DUP2 MLOAD DUP2 LT PUSH2 0x36A JUMPI INVALID JUMPDEST PUSH1 0x20 MUL PUSH1 0x20 ADD ADD MLOAD PUSH1 0x0 ADD MLOAD PUSH20 0xFFFFFFFFFFFFFFFFFFFFFFFFFFFFFFFFFFFFFFFF AND DUP2 MSTORE PUSH1 0x20 ADD DUP8 DUP6 DUP2 MLOAD DUP2 LT PUSH2 0x39D JUMPI INVALID JUMPDEST PUSH1 0x20 MUL PUSH1 0x20 ADD ADD MLOAD PUSH1 0x20 ADD MLOAD PUSH20 0xFFFFFFFFFFFFFFFFFFFFFFFFFFFFFFFFFFFFFFFF AND DUP2 MSTORE PUSH1 0x20 ADD DUP4 DUP2 MSTORE PUSH1 0x20 ADD DUP3 PUSH3 0xFFFFFF AND DUP2 MSTORE POP DUP5 DUP5 DUP2 MLOAD DUP2 LT PUSH2 0x3DF JUMPI INVALID JUMPDEST PUSH1 0x20 MUL PUSH1 0x20 ADD ADD DUP2 SWAP1 MSTORE POP POP POP JUMPDEST JUMPDEST DUP1 DUP1 PUSH1 0x1 ADD SWAP2 POP POP PUSH2 0xBC JUMP JUMPDEST POP DUP1 SWAP2 POP POP SWAP2 SWAP1 POP JUMP JUMPDEST PUSH1 0x40 MLOAD DUP1 PUSH1 0x80 ADD PUSH1 0x40 MSTORE DUP1 PUSH1 0x0 PUSH20 0xFFFFFFFFFFFFFFFFFFFFFFFFFFFFFFFFFFFFFFFF AND DUP2 MSTORE PUSH1 0x20 ADD PUSH1 0x0 PUSH20 0xFFFFFFFFFFFFFFFFFFFFFFFFFFFFFFFFFFFFFFFF AND DUP2 MSTORE PUSH1 0x20 ADD PUSH1 0x0 DUP2 MSTORE PUSH1 0x20 ADD PUSH1 0x0 PUSH3 0xFFFFFF AND DUP2 MSTORE POP SWAP1 JUMP JUMPDEST PUSH1 0x0 PUSH2 0x471 PUSH2 0x46C DUP5 PUSH2 0x7F3 JUMP JUMPDEST PUSH2 0x7C2 JUMP JUMPDEST SWAP1 POP DUP1 DUP4 DUP3 MSTORE PUSH1 0x20 DUP3 ADD SWAP1 POP DUP3 DUP6 PUSH1 0x80 DUP7 MUL DUP3 ADD GT ISZERO PUSH2 0x490 JUMPI PUSH1 0x0 DUP1 REVERT JUMPDEST PUSH1 0x0 JUMPDEST DUP6 DUP2 LT ISZERO PUSH2 0x4C0 JUMPI DUP2 PUSH2 0x4A6 DUP9 DUP3 PUSH2 0x509 JUMP JUMPDEST DUP5 MSTORE PUSH1 0x20 DUP5 ADD SWAP4 POP PUSH1 0x80 DUP4 ADD SWAP3 POP POP PUSH1 0x1 DUP2 ADD SWAP1 POP PUSH2 0x493 JUMP JUMPDEST POP POP POP SWAP4 SWAP3 POP POP POP JUMP JUMPDEST PUSH1 0x0 DUP2 CALLDATALOAD SWAP1 POP PUSH2 0x4D9 DUP2 PUSH2 0x8B2 JUMP JUMPDEST SWAP3 SWAP2 POP POP JUMP JUMPDEST PUSH1 0x0 DUP3 PUSH1 0x1F DUP4 ADD SLT PUSH2 0x4F0 JUMPI PUSH1 0x0 DUP1 REVERT JUMPDEST DUP2 CALLDATALOAD PUSH2 0x500 DUP5 DUP3 PUSH1 0x20 DUP7 ADD PUSH2 0x45E JUMP JUMPDEST SWAP2 POP POP SWAP3 SWAP2 POP POP JUMP JUMPDEST PUSH1 0x0 PUSH1 0x80 DUP3 DUP5 SUB SLT ISZERO PUSH2 0x51B JUMPI PUSH1 0x0 DUP1 REVERT JUMPDEST PUSH2 0x525 PUSH1 0x80 PUSH2 0x7C2 JUMP JUMPDEST SWAP1 POP PUSH1 0x0 PUSH2 0x535 DUP5 DUP3 DUP6 ADD PUSH2 0x4CA JUMP JUMPDEST PUSH1 0x0 DUP4 ADD MSTORE POP PUSH1 0x20 PUSH2 0x549 DUP5 DUP3 DUP6 ADD PUSH2 0x4CA JUMP JUMPDEST PUSH1 0x20 DUP4 ADD MSTORE POP PUSH1 0x40 PUSH2 0x55D DUP5 DUP3 DUP6 ADD PUSH2 0x4CA JUMP JUMPDEST PUSH1 0x40 DUP4 ADD MSTORE POP PUSH1 0x60 PUSH2 0x571 DUP5 DUP3 DUP6 ADD PUSH2 0x5A7 JUMP JUMPDEST PUSH1 0x60 DUP4 ADD MSTORE POP SWAP3 SWAP2 POP POP JUMP JUMPDEST PUSH1 0x0 DUP2 MLOAD SWAP1 POP PUSH2 0x58C DUP2 PUSH2 0x8C9 JUMP JUMPDEST SWAP3 SWAP2 POP POP JUMP JUMPDEST PUSH1 0x0 DUP2 MLOAD SWAP1 POP PUSH2 0x5A1 DUP2 PUSH2 0x8E0 JUMP JUMPDEST SWAP3 SWAP2 POP POP JUMP JUMPDEST PUSH1 0x0 DUP2 CALLDATALOAD SWAP1 POP PUSH2 0x5B6 DUP2 PUSH2 0x8F7 JUMP JUMPDEST SWAP3 SWAP2 POP POP JUMP JUMPDEST PUSH1 0x0 PUSH1 0x20 DUP3 DUP5 SUB SLT ISZERO PUSH2 0x5CE JUMPI PUSH1 0x0 DUP1 REVERT JUMPDEST PUSH1 0x0 DUP3 ADD CALLDATALOAD PUSH8 0xFFFFFFFFFFFFFFFF DUP2 GT ISZERO PUSH2 0x5E8 JUMPI PUSH1 0x0 DUP1 REVERT JUMPDEST PUSH2 0x5F4 DUP5 DUP3 DUP6 ADD PUSH2 0x4DF JUMP JUMPDEST SWAP2 POP POP SWAP3 SWAP2 POP POP JUMP JUMPDEST PUSH1 0x0 PUSH1 0x20 DUP3 DUP5 SUB SLT ISZERO PUSH2 0x60F JUMPI PUSH1 0x0 DUP1 REVERT JUMPDEST PUSH1 0x0 PUSH2 0x61D DUP5 DUP3 DUP6 ADD PUSH2 0x592 JUMP JUMPDEST SWAP2 POP POP SWAP3 SWAP2 POP POP JUMP JUMPDEST PUSH1 0x0 DUP1 PUSH1 0x40 DUP4 DUP6 SUB SLT ISZERO PUSH2 0x639 JUMPI PUSH1 0x0 DUP1 REVERT JUMPDEST PUSH1 0x0 PUSH2 0x647 DUP6 DUP3 DUP7 ADD PUSH2 0x592 JUMP JUMPDEST SWAP3 POP POP PUSH1 0x20 PUSH2 0x658 DUP6 DUP3 DUP7 ADD PUSH2 0x57D JUMP JUMPDEST SWAP2 POP POP SWAP3 POP SWAP3 SWAP1 POP JUMP JUMPDEST PUSH1 0x0 PUSH2 0x66E DUP4 DUP4 PUSH2 0x6F6 JUMP JUMPDEST PUSH1 0x80 DUP4 ADD SWAP1 POP SWAP3 SWAP2 POP POP JUMP JUMPDEST PUSH2 0x683 DUP2 PUSH2 0x858 JUMP JUMPDEST DUP3 MSTORE POP POP JUMP JUMPDEST PUSH2 0x692 DUP2 PUSH2 0x858 JUMP JUMPDEST DUP3 MSTORE POP POP JUMP JUMPDEST PUSH1 0x0 PUSH2 0x6A3 DUP3 PUSH2 0x82F JUMP JUMPDEST PUSH2 0x6AD DUP2 DUP6 PUSH2 0x847 JUMP JUMPDEST SWAP4 POP PUSH2 0x6B8 DUP4 PUSH2 0x81F JUMP JUMPDEST DUP1 PUSH1 0x0 JUMPDEST DUP4 DUP2 LT ISZERO PUSH2 0x6E9 JUMPI DUP2 MLOAD PUSH2 0x6D0 DUP9 DUP3 PUSH2 0x662 JUMP JUMPDEST SWAP8 POP PUSH2 0x6DB DUP4 PUSH2 0x83A JUMP JUMPDEST SWAP3 POP POP PUSH1 0x1 DUP2 ADD SWAP1 POP PUSH2 0x6BC JUMP JUMPDEST POP DUP6 SWAP4 POP POP POP POP SWAP3 SWAP2 POP POP JUMP JUMPDEST PUSH1 0x80 DUP3 ADD PUSH1 0x0 DUP3 ADD MLOAD PUSH2 0x70C PUSH1 0x0 DUP6 ADD DUP3 PUSH2 0x67A JUMP JUMPDEST POP PUSH1 0x20 DUP3 ADD MLOAD PUSH2 0x71F PUSH1 0x20 DUP6 ADD DUP3 PUSH2 0x67A JUMP JUMPDEST POP PUSH1 0x40 DUP3 ADD MLOAD PUSH2 0x732 PUSH1 0x40 DUP6 ADD DUP3 PUSH2 0x75A JUMP JUMPDEST POP PUSH1 0x60 DUP3 ADD MLOAD PUSH2 0x745 PUSH1 0x60 DUP6 ADD DUP3 PUSH2 0x74B JUMP JUMPDEST POP POP POP POP JUMP JUMPDEST PUSH2 0x754 DUP2 PUSH2 0x88A JUMP JUMPDEST DUP3 MSTORE POP POP JUMP JUMPDEST PUSH2 0x763 DUP2 PUSH2 0x899 JUMP JUMPDEST DUP3 MSTORE POP POP JUMP JUMPDEST PUSH1 0x0 PUSH1 0x60 DUP3 ADD SWAP1 POP PUSH2 0x77E PUSH1 0x0 DUP4 ADD DUP7 PUSH2 0x689 JUMP JUMPDEST PUSH2 0x78B PUSH1 0x20 DUP4 ADD DUP6 PUSH2 0x689 JUMP JUMPDEST PUSH2 0x798 PUSH1 0x40 DUP4 ADD DUP5 PUSH2 0x689 JUMP JUMPDEST SWAP5 SWAP4 POP POP POP POP JUMP JUMPDEST PUSH1 0x0 PUSH1 0x20 DUP3 ADD SWAP1 POP DUP2 DUP2 SUB PUSH1 0x0 DUP4 ADD MSTORE PUSH2 0x7BA DUP2 DUP5 PUSH2 0x698 JUMP JUMPDEST SWAP1 POP SWAP3 SWAP2 POP POP JUMP JUMPDEST PUSH1 0x0 PUSH1 0x40 MLOAD SWAP1 POP DUP2 DUP2 ADD DUP2 DUP2 LT PUSH8 0xFFFFFFFFFFFFFFFF DUP3 GT OR ISZERO PUSH2 0x7E9 JUMPI PUSH2 0x7E8 PUSH2 0x8B0 JUMP JUMPDEST JUMPDEST DUP1 PUSH1 0x40 MSTORE POP SWAP2 SWAP1 POP JUMP JUMPDEST PUSH1 0x0 PUSH8 0xFFFFFFFFFFFFFFFF DUP3 GT ISZERO PUSH2 0x80E JUMPI PUSH2 0x80D PUSH2 0x8B0 JUMP JUMPDEST JUMPDEST PUSH1 0x20 DUP3 MUL SWAP1 POP PUSH1 0x20 DUP2 ADD SWAP1 POP SWAP2 SWAP1 POP JUMP JUMPDEST PUSH1 0x0 DUP2 SWAP1 POP PUSH1 0x20 DUP3 ADD SWAP1 POP SWAP2 SWAP1 POP JUMP JUMPDEST PUSH1 0x0 DUP2 MLOAD SWAP1 POP SWAP2 SWAP1 POP JUMP JUMPDEST PUSH1 0x0 PUSH1 0x20 DUP3 ADD SWAP1 POP SWAP2 SWAP1 POP JUMP JUMPDEST PUSH1 0x0 DUP3 DUP3 MSTORE PUSH1 0x20 DUP3 ADD SWAP1 POP SWAP3 SWAP2 POP POP JUMP JUMPDEST PUSH1 0x0 PUSH2 0x863 DUP3 PUSH2 0x86A JUMP JUMPDEST SWAP1 POP SWAP2 SWAP1 POP JUMP JUMPDEST PUSH1 0x0 PUSH20 0xFFFFFFFFFFFFFFFFFFFFFFFFFFFFFFFFFFFFFFFF DUP3 AND SWAP1 POP SWAP2 SWAP1 POP JUMP JUMPDEST PUSH1 0x0 PUSH3 0xFFFFFF DUP3 AND SWAP1 POP SWAP2 SWAP1 POP JUMP JUMPDEST PUSH1 0x0 DUP2 SWAP1 POP SWAP2 SWAP1 POP JUMP JUMPDEST PUSH1 0x0 PUSH1 0xFF DUP3 AND SWAP1 POP SWAP2 SWAP1 POP JUMP JUMPDEST INVALID JUMPDEST PUSH2 0x8BB DUP2 PUSH2 0x858 JUMP JUMPDEST DUP2 EQ PUSH2 0x8C6 JUMPI PUSH1 0x0 DUP1 REVERT JUMPDEST POP JUMP JUMPDEST PUSH2 0x8D2 DUP2 PUSH2 0x88A JUMP JUMPDEST DUP2 EQ PUSH2 0x8DD JUMPI PUSH1 0x0 DUP1 REVERT JUMPDEST POP JUMP JUMPDEST PUSH2 0x8E9 DUP2 PUSH2 0x899 JUMP JUMPDEST DUP2 EQ PUSH2 0x8F4 JUMPI PUSH1 0x0 DUP1 REVERT JUMPDEST POP JUMP JUMPDEST PUSH2 0x900 DUP2 PUSH2 0x8A3 JUMP JUMPDEST DUP2 EQ PUSH2 0x90B JUMPI PUSH1 0x0 DUP1 REVERT JUMPDEST POP JUMP INVALID LOG2 PUSH5 0x6970667358 0x22 SLT KECCAK256 PUSH17 0x292EAA1F0A942112AABEA08E7F81C541F6 0xE9 PUSH9 0x9324A98A50037C20B 0xD0 PUSH16 0xD764736F6C6343000706003300000000 "
				},
				"gasEstimates": {
					"creation": {
						"codeDepositCost": "474400",
						"executionCost": "511",
						"totalCost": "474911"
					},
					"external": {
						"getPrices((address,address,address,uint8)[])": "infinite"
					}
				},
				"methodIdentifiers": {
					"getPrices((address,address,address,uint8)[])": "ff514fa3"
				}
			},
			"storageLayout": {
				"storage": [],
				"types": null
			},
			"userdoc": {
				"kind": "user",
				"methods": {},
				"version": 1
			}
		}
	}
}