{
	"contracts/ExchangeAggregator.sol": {
		"MyContract": {
			"abi": [
				{
					"inputs": [
						{
							"internalType": "address",
							"name": "_WETH",
							"type": "address"
						}
					],
					"stateMutability": "nonpayable",
					"type": "constructor"
				},
				{
					"anonymous": false,
					"inputs": [
						{
							"indexed": true,
							"internalType": "address",
							"name": "previousOwner",
							"type": "address"
						},
						{
							"indexed": true,
							"internalType": "address",
							"name": "newOwner",
							"type": "address"
						}
					],
					"name": "OwnershipTransferred",
					"type": "event"
				},
				{
					"inputs": [
						{
							"internalType": "address",
							"name": "spender",
							"type": "address"
						},
						{
							"internalType": "uint256",
							"name": "amount",
							"type": "uint256"
						}
					],
					"name": "approve",
					"outputs": [],
					"stateMutability": "nonpayable",
					"type": "function"
				},
				{
					"inputs": [],
					"name": "owner",
					"outputs": [
						{
							"internalType": "address",
							"name": "",
							"type": "address"
						}
					],
					"stateMutability": "view",
					"type": "function"
				},
				{
					"inputs": [],
					"name": "renounceOwnership",
					"outputs": [],
					"stateMutability": "nonpayable",
					"type": "function"
				},
				{
					"inputs": [
						{
							"components": [
								{
									"internalType": "address",
									"name": "input",
									"type": "address"
								},
								{
									"internalType": "uint256",
									"name": "totalAmount",
									"type": "uint256"
								},
								{
									"internalType": "uint256",
									"name": "feeAmount",
									"type": "uint256"
								},
								{
									"internalType": "address",
									"name": "swapper",
									"type": "address"
								},
								{
									"internalType": "bytes",
									"name": "data",
									"type": "bytes"
								},
								{
									"internalType": "address",
									"name": "sender",
									"type": "address"
								}
							],
							"internalType": "struct MyContract.swapData",
							"name": "data",
							"type": "tuple"
						},
						{
							"internalType": "bytes",
							"name": "sig",
							"type": "bytes"
						}
					],
					"name": "signer",
					"outputs": [
						{
							"internalType": "address",
							"name": "",
							"type": "address"
						}
					],
					"stateMutability": "pure",
					"type": "function"
				},
				{
					"inputs": [
						{
							"components": [
								{
									"internalType": "address",
									"name": "input",
									"type": "address"
								},
								{
									"internalType": "uint256",
									"name": "totalAmount",
									"type": "uint256"
								},
								{
									"internalType": "uint256",
									"name": "feeAmount",
									"type": "uint256"
								},
								{
									"internalType": "address",
									"name": "swapper",
									"type": "address"
								},
								{
									"internalType": "bytes",
									"name": "data",
									"type": "bytes"
								},
								{
									"internalType": "address",
									"name": "sender",
									"type": "address"
								}
							],
							"internalType": "struct MyContract.swapData",
							"name": "data",
							"type": "tuple"
						},
						{
							"internalType": "bytes",
							"name": "sig",
							"type": "bytes"
						}
					],
					"name": "swap",
					"outputs": [],
					"stateMutability": "nonpayable",
					"type": "function"
				},
				{
					"inputs": [
						{
							"components": [
								{
									"internalType": "address",
									"name": "input",
									"type": "address"
								},
								{
									"internalType": "uint256",
									"name": "totalAmount",
									"type": "uint256"
								},
								{
									"internalType": "uint256",
									"name": "feeAmount",
									"type": "uint256"
								},
								{
									"internalType": "address",
									"name": "swapper",
									"type": "address"
								},
								{
									"internalType": "bytes",
									"name": "data",
									"type": "bytes"
								},
								{
									"internalType": "address",
									"name": "sender",
									"type": "address"
								}
							],
							"internalType": "struct MyContract.swapData",
							"name": "data",
							"type": "tuple"
						},
						{
							"internalType": "bytes",
							"name": "sig",
							"type": "bytes"
						}
					],
					"name": "swapNativeIn",
					"outputs": [],
					"stateMutability": "payable",
					"type": "function"
				},
				{
					"inputs": [],
					"name": "test",
					"outputs": [],
					"stateMutability": "payable",
					"type": "function"
				},
				{
					"inputs": [
						{
							"internalType": "address",
							"name": "newOwner",
							"type": "address"
						}
					],
					"name": "transferOwnership",
					"outputs": [],
					"stateMutability": "nonpayable",
					"type": "function"
				}
			],
			"devdoc": {
				"kind": "dev",
				"methods": {
					"owner()": {
						"details": "Returns the address of the current owner."
					},
					"renounceOwnership()": {
						"details": "Leaves the contract without owner. It will not be possible to call `onlyOwner` functions anymore. Can only be called by the current owner. NOTE: Renouncing ownership will leave the contract without an owner, thereby removing any functionality that is only available to the owner."
					},
					"transferOwnership(address)": {
						"details": "Transfers ownership of the contract to a new account (`newOwner`). Can only be called by the current owner."
					}
				},
				"version": 1
			},
			"evm": {
				"assembly": "    /* \"contracts/ExchangeAggregator.sol\":254:2120  contract MyContract is Ownable {... */\n  mstore(0x40, 0x80)\n    /* \"contracts/ExchangeAggregator.sol\":343:398  constructor(address _WETH){... */\n  callvalue\n  dup1\n  iszero\n  tag_1\n  jumpi\n  0x00\n  dup1\n  revert\ntag_1:\n  pop\n  mload(0x40)\n  sub(codesize, bytecodeSize)\n  dup1\n  bytecodeSize\n  dup4\n  codecopy\n  dup2\n  dup2\n  add\n  0x40\n  mstore\n  dup2\n  add\n  swap1\n  tag_2\n  swap2\n  swap1\n  tag_3\n  jump\t// in\ntag_2:\n    /* \"@openzeppelin/contracts/access/Ownable.sol\":936:968  _transferOwnership(_msgSender()) */\n  tag_7\n    /* \"@openzeppelin/contracts/access/Ownable.sol\":955:967  _msgSender() */\n  tag_8\n    /* \"@openzeppelin/contracts/access/Ownable.sol\":955:965  _msgSender */\n  shl(0x20, tag_9)\n    /* \"@openzeppelin/contracts/access/Ownable.sol\":955:967  _msgSender() */\n  0x20\n  shr\n  jump\t// in\ntag_8:\n    /* \"@openzeppelin/contracts/access/Ownable.sol\":936:954  _transferOwnership */\n  shl(0x20, tag_10)\n    /* \"@openzeppelin/contracts/access/Ownable.sol\":936:968  _transferOwnership(_msgSender()) */\n  0x20\n  shr\n  jump\t// in\ntag_7:\n    /* \"contracts/ExchangeAggregator.sol\":386:391  _WETH */\n  dup1\n    /* \"contracts/ExchangeAggregator.sol\":379:383  WETH */\n  0x01\n  0x00\n    /* \"contracts/ExchangeAggregator.sol\":379:391  WETH = _WETH */\n  0x0100\n  exp\n  dup2\n  sload\n  dup2\n  0xffffffffffffffffffffffffffffffffffffffff\n  mul\n  not\n  and\n  swap1\n  dup4\n  0xffffffffffffffffffffffffffffffffffffffff\n  and\n  mul\n  or\n  swap1\n  sstore\n  pop\n    /* \"contracts/ExchangeAggregator.sol\":343:398  constructor(address _WETH){... */\n  pop\n    /* \"contracts/ExchangeAggregator.sol\":254:2120  contract MyContract is Ownable {... */\n  jump(tag_12)\n    /* \"@openzeppelin/contracts/utils/Context.sol\":640:736  function _msgSender() internal view virtual returns (address) {... */\ntag_9:\n    /* \"@openzeppelin/contracts/utils/Context.sol\":693:700  address */\n  0x00\n    /* \"@openzeppelin/contracts/utils/Context.sol\":719:729  msg.sender */\n  caller\n    /* \"@openzeppelin/contracts/utils/Context.sol\":712:729  return msg.sender */\n  swap1\n  pop\n    /* \"@openzeppelin/contracts/utils/Context.sol\":640:736  function _msgSender() internal view virtual returns (address) {... */\n  swap1\n  jump\t// out\n    /* \"@openzeppelin/contracts/access/Ownable.sol\":2433:2620  function _transferOwnership(address newOwner) internal virtual {... */\ntag_10:\n    /* \"@openzeppelin/contracts/access/Ownable.sol\":2506:2522  address oldOwner */\n  0x00\n    /* \"@openzeppelin/contracts/access/Ownable.sol\":2525:2531  _owner */\n  dup1\n  0x00\n  swap1\n  sload\n  swap1\n  0x0100\n  exp\n  swap1\n  div\n  0xffffffffffffffffffffffffffffffffffffffff\n  and\n    /* \"@openzeppelin/contracts/access/Ownable.sol\":2506:2531  address oldOwner = _owner */\n  swap1\n  pop\n    /* \"@openzeppelin/contracts/access/Ownable.sol\":2550:2558  newOwner */\n  dup2\n    /* \"@openzeppelin/contracts/access/Ownable.sol\":2541:2547  _owner */\n  0x00\n  dup1\n    /* \"@openzeppelin/contracts/access/Ownable.sol\":2541:2558  _owner = newOwner */\n  0x0100\n  exp\n  dup2\n  sload\n  dup2\n  0xffffffffffffffffffffffffffffffffffffffff\n  mul\n  not\n  and\n  swap1\n  dup4\n  0xffffffffffffffffffffffffffffffffffffffff\n  and\n  mul\n  or\n  swap1\n  sstore\n  pop\n    /* \"@openzeppelin/contracts/access/Ownable.sol\":2604:2612  newOwner */\n  dup2\n    /* \"@openzeppelin/contracts/access/Ownable.sol\":2573:2613  OwnershipTransferred(oldOwner, newOwner) */\n  0xffffffffffffffffffffffffffffffffffffffff\n  and\n    /* \"@openzeppelin/contracts/access/Ownable.sol\":2594:2602  oldOwner */\n  dup2\n    /* \"@openzeppelin/contracts/access/Ownable.sol\":2573:2613  OwnershipTransferred(oldOwner, newOwner) */\n  0xffffffffffffffffffffffffffffffffffffffff\n  and\n  0x8be0079c531659141344cd1fd0a4f28419497f9722a3daafe3b4186f6b6457e0\n  mload(0x40)\n  mload(0x40)\n  dup1\n  swap2\n  sub\n  swap1\n  log3\n    /* \"@openzeppelin/contracts/access/Ownable.sol\":2496:2620  {... */\n  pop\n    /* \"@openzeppelin/contracts/access/Ownable.sol\":2433:2620  function _transferOwnership(address newOwner) internal virtual {... */\n  pop\n  jump\t// out\n    /* \"#utility.yul\":88:205   */\ntag_16:\n    /* \"#utility.yul\":197:198   */\n  0x00\n    /* \"#utility.yul\":194:195   */\n  dup1\n    /* \"#utility.yul\":187:199   */\n  revert\n    /* \"#utility.yul\":334:460   */\ntag_18:\n    /* \"#utility.yul\":371:378   */\n  0x00\n    /* \"#utility.yul\":411:453   */\n  0xffffffffffffffffffffffffffffffffffffffff\n    /* \"#utility.yul\":404:409   */\n  dup3\n    /* \"#utility.yul\":400:454   */\n  and\n    /* \"#utility.yul\":389:454   */\n  swap1\n  pop\n    /* \"#utility.yul\":334:460   */\n  swap2\n  swap1\n  pop\n  jump\t// out\n    /* \"#utility.yul\":466:562   */\ntag_19:\n    /* \"#utility.yul\":503:510   */\n  0x00\n    /* \"#utility.yul\":532:556   */\n  tag_28\n    /* \"#utility.yul\":550:555   */\n  dup3\n    /* \"#utility.yul\":532:556   */\n  tag_18\n  jump\t// in\ntag_28:\n    /* \"#utility.yul\":521:556   */\n  swap1\n  pop\n    /* \"#utility.yul\":466:562   */\n  swap2\n  swap1\n  pop\n  jump\t// out\n    /* \"#utility.yul\":568:690   */\ntag_20:\n    /* \"#utility.yul\":641:665   */\n  tag_30\n    /* \"#utility.yul\":659:664   */\n  dup2\n    /* \"#utility.yul\":641:665   */\n  tag_19\n  jump\t// in\ntag_30:\n    /* \"#utility.yul\":634:639   */\n  dup2\n    /* \"#utility.yul\":631:666   */\n  eq\n    /* \"#utility.yul\":621:684   */\n  tag_31\n  jumpi\n    /* \"#utility.yul\":680:681   */\n  0x00\n    /* \"#utility.yul\":677:678   */\n  dup1\n    /* \"#utility.yul\":670:682   */\n  revert\n    /* \"#utility.yul\":621:684   */\ntag_31:\n    /* \"#utility.yul\":568:690   */\n  pop\n  jump\t// out\n    /* \"#utility.yul\":696:839   */\ntag_21:\n    /* \"#utility.yul\":753:758   */\n  0x00\n    /* \"#utility.yul\":784:790   */\n  dup2\n    /* \"#utility.yul\":778:791   */\n  mload\n    /* \"#utility.yul\":769:791   */\n  swap1\n  pop\n    /* \"#utility.yul\":800:833   */\n  tag_33\n    /* \"#utility.yul\":827:832   */\n  dup2\n    /* \"#utility.yul\":800:833   */\n  tag_20\n  jump\t// in\ntag_33:\n    /* \"#utility.yul\":696:839   */\n  swap3\n  swap2\n  pop\n  pop\n  jump\t// out\n    /* \"#utility.yul\":845:1196   */\ntag_3:\n    /* \"#utility.yul\":915:921   */\n  0x00\n    /* \"#utility.yul\":964:966   */\n  0x20\n    /* \"#utility.yul\":952:961   */\n  dup3\n    /* \"#utility.yul\":943:950   */\n  dup5\n    /* \"#utility.yul\":939:962   */\n  sub\n    /* \"#utility.yul\":935:967   */\n  slt\n    /* \"#utility.yul\":932:1051   */\n  iszero\n  tag_35\n  jumpi\n    /* \"#utility.yul\":970:1049   */\n  tag_36\n  tag_16\n  jump\t// in\ntag_36:\n    /* \"#utility.yul\":932:1051   */\ntag_35:\n    /* \"#utility.yul\":1090:1091   */\n  0x00\n    /* \"#utility.yul\":1115:1179   */\n  tag_37\n    /* \"#utility.yul\":1171:1178   */\n  dup5\n    /* \"#utility.yul\":1162:1168   */\n  dup3\n    /* \"#utility.yul\":1151:1160   */\n  dup6\n    /* \"#utility.yul\":1147:1169   */\n  add\n    /* \"#utility.yul\":1115:1179   */\n  tag_21\n  jump\t// in\ntag_37:\n    /* \"#utility.yul\":1105:1179   */\n  swap2\n  pop\n    /* \"#utility.yul\":1061:1189   */\n  pop\n    /* \"#utility.yul\":845:1196   */\n  swap3\n  swap2\n  pop\n  pop\n  jump\t// out\n    /* \"contracts/ExchangeAggregator.sol\":254:2120  contract MyContract is Ownable {... */\ntag_12:\n  dataSize(sub_0)\n  dup1\n  dataOffset(sub_0)\n  0x00\n  codecopy\n  0x00\n  return\nstop\n\nsub_0: assembly {\n        /* \"contracts/ExchangeAggregator.sol\":254:2120  contract MyContract is Ownable {... */\n      mstore(0x40, 0x80)\n      jumpi(tag_1, lt(calldatasize, 0x04))\n      shr(0xe0, calldataload(0x00))\n      dup1\n      0x8da5cb5b\n      gt\n      tag_10\n      jumpi\n      dup1\n      0x8da5cb5b\n      eq\n      tag_6\n      jumpi\n      dup1\n      0xb0867883\n      eq\n      tag_7\n      jumpi\n      dup1\n      0xf2fde38b\n      eq\n      tag_8\n      jumpi\n      dup1\n      0xf8a8fd6d\n      eq\n      tag_9\n      jumpi\n      jump(tag_1)\n    tag_10:\n      dup1\n      0x095ea7b3\n      eq\n      tag_2\n      jumpi\n      dup1\n      0x2906799b\n      eq\n      tag_3\n      jumpi\n      dup1\n      0x5d86acf1\n      eq\n      tag_4\n      jumpi\n      dup1\n      0x715018a6\n      eq\n      tag_5\n      jumpi\n    tag_1:\n      0x00\n      dup1\n      revert\n        /* \"contracts/ExchangeAggregator.sol\":1484:1602  function approve(address spender,uint amount) public {... */\n    tag_2:\n      callvalue\n      dup1\n      iszero\n      tag_11\n      jumpi\n      0x00\n      dup1\n      revert\n    tag_11:\n      pop\n      tag_12\n      0x04\n      dup1\n      calldatasize\n      sub\n      dup2\n      add\n      swap1\n      tag_13\n      swap2\n      swap1\n      tag_14\n      jump\t// in\n    tag_13:\n      tag_15\n      jump\t// in\n    tag_12:\n      stop\n        /* \"contracts/ExchangeAggregator.sol\":575:991  function swap(swapData calldata data,bytes calldata sig) public {... */\n    tag_3:\n      callvalue\n      dup1\n      iszero\n      tag_16\n      jumpi\n      0x00\n      dup1\n      revert\n    tag_16:\n      pop\n      tag_17\n      0x04\n      dup1\n      calldatasize\n      sub\n      dup2\n      add\n      swap1\n      tag_18\n      swap2\n      swap1\n      tag_19\n      jump\t// in\n    tag_18:\n      tag_20\n      jump\t// in\n    tag_17:\n      stop\n        /* \"contracts/ExchangeAggregator.sol\":998:1440  function swapNativeIn(swapData calldata data,bytes calldata sig) public payable {... */\n    tag_4:\n      tag_21\n      0x04\n      dup1\n      calldatasize\n      sub\n      dup2\n      add\n      swap1\n      tag_22\n      swap2\n      swap1\n      tag_19\n      jump\t// in\n    tag_22:\n      tag_23\n      jump\t// in\n    tag_21:\n      stop\n        /* \"@openzeppelin/contracts/access/Ownable.sol\":1831:1932  function renounceOwnership() public virtual onlyOwner {... */\n    tag_5:\n      callvalue\n      dup1\n      iszero\n      tag_24\n      jumpi\n      0x00\n      dup1\n      revert\n    tag_24:\n      pop\n      tag_25\n      tag_26\n      jump\t// in\n    tag_25:\n      stop\n        /* \"@openzeppelin/contracts/access/Ownable.sol\":1201:1286  function owner() public view virtual returns (address) {... */\n    tag_6:\n      callvalue\n      dup1\n      iszero\n      tag_27\n      jumpi\n      0x00\n      dup1\n      revert\n    tag_27:\n      pop\n      tag_28\n      tag_29\n      jump\t// in\n    tag_28:\n      mload(0x40)\n      tag_30\n      swap2\n      swap1\n      tag_31\n      jump\t// in\n    tag_30:\n      mload(0x40)\n      dup1\n      swap2\n      sub\n      swap1\n      return\n        /* \"contracts/ExchangeAggregator.sol\":1863:2008  function signer(swapData calldata data, bytes memory sig) public pure returns(address){... */\n    tag_7:\n      callvalue\n      dup1\n      iszero\n      tag_32\n      jumpi\n      0x00\n      dup1\n      revert\n    tag_32:\n      pop\n      tag_33\n      0x04\n      dup1\n      calldatasize\n      sub\n      dup2\n      add\n      swap1\n      tag_34\n      swap2\n      swap1\n      tag_35\n      jump\t// in\n    tag_34:\n      tag_36\n      jump\t// in\n    tag_33:\n      mload(0x40)\n      tag_37\n      swap2\n      swap1\n      tag_31\n      jump\t// in\n    tag_37:\n      mload(0x40)\n      dup1\n      swap2\n      sub\n      swap1\n      return\n        /* \"@openzeppelin/contracts/access/Ownable.sol\":2081:2279  function transferOwnership(address newOwner) public virtual onlyOwner {... */\n    tag_8:\n      callvalue\n      dup1\n      iszero\n      tag_38\n      jumpi\n      0x00\n      dup1\n      revert\n    tag_38:\n      pop\n      tag_39\n      0x04\n      dup1\n      calldatasize\n      sub\n      dup2\n      add\n      swap1\n      tag_40\n      swap2\n      swap1\n      tag_41\n      jump\t// in\n    tag_40:\n      tag_42\n      jump\t// in\n    tag_39:\n      stop\n        /* \"contracts/ExchangeAggregator.sol\":1446:1479  function test() public payable {} */\n    tag_9:\n      tag_43\n      tag_44\n      jump\t// in\n    tag_43:\n      stop\n        /* \"contracts/ExchangeAggregator.sol\":1484:1602  function approve(address spender,uint amount) public {... */\n    tag_15:\n        /* \"contracts/ExchangeAggregator.sol\":1547:1594  TransferHelper.safeApprove(WETH,spender,amount) */\n      tag_46\n        /* \"contracts/ExchangeAggregator.sol\":1574:1578  WETH */\n      0x01\n      0x00\n      swap1\n      sload\n      swap1\n      0x0100\n      exp\n      swap1\n      div\n      0xffffffffffffffffffffffffffffffffffffffff\n      and\n        /* \"contracts/ExchangeAggregator.sol\":1579:1586  spender */\n      dup4\n        /* \"contracts/ExchangeAggregator.sol\":1587:1593  amount */\n      dup4\n        /* \"contracts/ExchangeAggregator.sol\":1547:1573  TransferHelper.safeApprove */\n      tag_47\n        /* \"contracts/ExchangeAggregator.sol\":1547:1594  TransferHelper.safeApprove(WETH,spender,amount) */\n      jump\t// in\n    tag_46:\n        /* \"contracts/ExchangeAggregator.sol\":1484:1602  function approve(address spender,uint amount) public {... */\n      pop\n      pop\n      jump\t// out\n        /* \"contracts/ExchangeAggregator.sol\":575:991  function swap(swapData calldata data,bytes calldata sig) public {... */\n    tag_20:\n        /* \"contracts/ExchangeAggregator.sol\":672:682  msg.sender */\n      caller\n        /* \"contracts/ExchangeAggregator.sol\":657:682  data.sender == msg.sender */\n      0xffffffffffffffffffffffffffffffffffffffff\n      and\n        /* \"contracts/ExchangeAggregator.sol\":657:661  data */\n      dup4\n        /* \"contracts/ExchangeAggregator.sol\":657:668  data.sender */\n      0xa0\n      add\n      0x20\n      dup2\n      add\n      swap1\n      tag_49\n      swap2\n      swap1\n      tag_41\n      jump\t// in\n    tag_49:\n        /* \"contracts/ExchangeAggregator.sol\":657:682  data.sender == msg.sender */\n      0xffffffffffffffffffffffffffffffffffffffff\n      and\n      eq\n        /* \"contracts/ExchangeAggregator.sol\":649:700  require(data.sender == msg.sender,\"invaled sender\") */\n      tag_50\n      jumpi\n      mload(0x40)\n      0x08c379a000000000000000000000000000000000000000000000000000000000\n      dup2\n      mstore\n      0x04\n      add\n      tag_51\n      swap1\n      tag_52\n      jump\t// in\n    tag_51:\n      mload(0x40)\n      dup1\n      swap2\n      sub\n      swap1\n      revert\n    tag_50:\n        /* \"contracts/ExchangeAggregator.sol\":710:741  checkSig(abi.encode(data), sig) */\n      tag_53\n        /* \"contracts/ExchangeAggregator.sol\":730:734  data */\n      dup4\n        /* \"contracts/ExchangeAggregator.sol\":719:735  abi.encode(data) */\n      add(0x20, mload(0x40))\n      tag_54\n      swap2\n      swap1\n      tag_55\n      jump\t// in\n    tag_54:\n      mload(0x40)\n      0x20\n      dup2\n      dup4\n      sub\n      sub\n      dup2\n      mstore\n      swap1\n      0x40\n      mstore\n        /* \"contracts/ExchangeAggregator.sol\":737:740  sig */\n      dup4\n      dup4\n        /* \"contracts/ExchangeAggregator.sol\":710:741  checkSig(abi.encode(data), sig) */\n      dup1\n      dup1\n      0x1f\n      add\n      0x20\n      dup1\n      swap2\n      div\n      mul\n      0x20\n      add\n      mload(0x40)\n      swap1\n      dup2\n      add\n      0x40\n      mstore\n      dup1\n      swap4\n      swap3\n      swap2\n      swap1\n      dup2\n      dup2\n      mstore\n      0x20\n      add\n      dup4\n      dup4\n      dup1\n      dup3\n      dup5\n      calldatacopy\n      0x00\n      dup2\n      dup5\n      add\n      mstore\n      not(0x1f)\n      0x1f\n      dup3\n      add\n      and\n      swap1\n      pop\n      dup1\n      dup4\n      add\n      swap3\n      pop\n      pop\n      pop\n      pop\n      pop\n      pop\n      pop\n        /* \"contracts/ExchangeAggregator.sol\":710:718  checkSig */\n      tag_56\n        /* \"contracts/ExchangeAggregator.sol\":710:741  checkSig(abi.encode(data), sig) */\n      jump\t// in\n    tag_53:\n        /* \"contracts/ExchangeAggregator.sol\":751:836  TransferHelper.safeTransferFrom(data.input,msg.sender,address(this),data.totalAmount) */\n      tag_57\n        /* \"contracts/ExchangeAggregator.sol\":783:787  data */\n      dup4\n        /* \"contracts/ExchangeAggregator.sol\":783:793  data.input */\n      0x00\n      add\n      0x20\n      dup2\n      add\n      swap1\n      tag_58\n      swap2\n      swap1\n      tag_41\n      jump\t// in\n    tag_58:\n        /* \"contracts/ExchangeAggregator.sol\":794:804  msg.sender */\n      caller\n        /* \"contracts/ExchangeAggregator.sol\":813:817  this */\n      address\n        /* \"contracts/ExchangeAggregator.sol\":819:823  data */\n      dup7\n        /* \"contracts/ExchangeAggregator.sol\":819:835  data.totalAmount */\n      0x20\n      add\n      calldataload\n        /* \"contracts/ExchangeAggregator.sol\":751:782  TransferHelper.safeTransferFrom */\n      tag_59\n        /* \"contracts/ExchangeAggregator.sol\":751:836  TransferHelper.safeTransferFrom(data.input,msg.sender,address(this),data.totalAmount) */\n      jump\t// in\n    tag_57:\n        /* \"contracts/ExchangeAggregator.sol\":846:929  TransferHelper.safeApprove(data.input,data.swapper,data.totalAmount-data.feeAmount) */\n      tag_60\n        /* \"contracts/ExchangeAggregator.sol\":873:877  data */\n      dup4\n        /* \"contracts/ExchangeAggregator.sol\":873:883  data.input */\n      0x00\n      add\n      0x20\n      dup2\n      add\n      swap1\n      tag_61\n      swap2\n      swap1\n      tag_41\n      jump\t// in\n    tag_61:\n        /* \"contracts/ExchangeAggregator.sol\":884:888  data */\n      dup5\n        /* \"contracts/ExchangeAggregator.sol\":884:896  data.swapper */\n      0x60\n      add\n      0x20\n      dup2\n      add\n      swap1\n      tag_62\n      swap2\n      swap1\n      tag_41\n      jump\t// in\n    tag_62:\n        /* \"contracts/ExchangeAggregator.sol\":914:918  data */\n      dup6\n        /* \"contracts/ExchangeAggregator.sol\":914:928  data.feeAmount */\n      0x40\n      add\n      calldataload\n        /* \"contracts/ExchangeAggregator.sol\":897:901  data */\n      dup7\n        /* \"contracts/ExchangeAggregator.sol\":897:913  data.totalAmount */\n      0x20\n      add\n      calldataload\n        /* \"contracts/ExchangeAggregator.sol\":897:928  data.totalAmount-data.feeAmount */\n      tag_63\n      swap2\n      swap1\n      tag_64\n      jump\t// in\n    tag_63:\n        /* \"contracts/ExchangeAggregator.sol\":846:872  TransferHelper.safeApprove */\n      tag_47\n        /* \"contracts/ExchangeAggregator.sol\":846:929  TransferHelper.safeApprove(data.input,data.swapper,data.totalAmount-data.feeAmount) */\n      jump\t// in\n    tag_60:\n        /* \"contracts/ExchangeAggregator.sol\":939:984  SafeCaller.safeCall(data.swapper,0,data.data) */\n      tag_65\n        /* \"contracts/ExchangeAggregator.sol\":959:963  data */\n      dup4\n        /* \"contracts/ExchangeAggregator.sol\":959:971  data.swapper */\n      0x60\n      add\n      0x20\n      dup2\n      add\n      swap1\n      tag_66\n      swap2\n      swap1\n      tag_41\n      jump\t// in\n    tag_66:\n        /* \"contracts/ExchangeAggregator.sol\":972:973  0 */\n      0x00\n        /* \"contracts/ExchangeAggregator.sol\":974:978  data */\n      dup6\n        /* \"contracts/ExchangeAggregator.sol\":974:983  data.data */\n      dup1\n      0x80\n      add\n      swap1\n      tag_67\n      swap2\n      swap1\n      tag_68\n      jump\t// in\n    tag_67:\n        /* \"contracts/ExchangeAggregator.sol\":939:984  SafeCaller.safeCall(data.swapper,0,data.data) */\n      dup1\n      dup1\n      0x1f\n      add\n      0x20\n      dup1\n      swap2\n      div\n      mul\n      0x20\n      add\n      mload(0x40)\n      swap1\n      dup2\n      add\n      0x40\n      mstore\n      dup1\n      swap4\n      swap3\n      swap2\n      swap1\n      dup2\n      dup2\n      mstore\n      0x20\n      add\n      dup4\n      dup4\n      dup1\n      dup3\n      dup5\n      calldatacopy\n      0x00\n      dup2\n      dup5\n      add\n      mstore\n      not(0x1f)\n      0x1f\n      dup3\n      add\n      and\n      swap1\n      pop\n      dup1\n      dup4\n      add\n      swap3\n      pop\n      pop\n      pop\n      pop\n      pop\n      pop\n      pop\n        /* \"contracts/ExchangeAggregator.sol\":939:958  SafeCaller.safeCall */\n      tag_69\n        /* \"contracts/ExchangeAggregator.sol\":939:984  SafeCaller.safeCall(data.swapper,0,data.data) */\n      jump\t// in\n    tag_65:\n        /* \"contracts/ExchangeAggregator.sol\":575:991  function swap(swapData calldata data,bytes calldata sig) public {... */\n      pop\n      pop\n      pop\n      jump\t// out\n        /* \"contracts/ExchangeAggregator.sol\":998:1440  function swapNativeIn(swapData calldata data,bytes calldata sig) public payable {... */\n    tag_23:\n        /* \"contracts/ExchangeAggregator.sol\":1111:1121  msg.sender */\n      caller\n        /* \"contracts/ExchangeAggregator.sol\":1096:1121  data.sender == msg.sender */\n      0xffffffffffffffffffffffffffffffffffffffff\n      and\n        /* \"contracts/ExchangeAggregator.sol\":1096:1100  data */\n      dup4\n        /* \"contracts/ExchangeAggregator.sol\":1096:1107  data.sender */\n      0xa0\n      add\n      0x20\n      dup2\n      add\n      swap1\n      tag_71\n      swap2\n      swap1\n      tag_41\n      jump\t// in\n    tag_71:\n        /* \"contracts/ExchangeAggregator.sol\":1096:1121  data.sender == msg.sender */\n      0xffffffffffffffffffffffffffffffffffffffff\n      and\n      eq\n        /* \"contracts/ExchangeAggregator.sol\":1088:1139  require(data.sender == msg.sender,\"invaled sender\") */\n      tag_72\n      jumpi\n      mload(0x40)\n      0x08c379a000000000000000000000000000000000000000000000000000000000\n      dup2\n      mstore\n      0x04\n      add\n      tag_73\n      swap1\n      tag_52\n      jump\t// in\n    tag_73:\n      mload(0x40)\n      dup1\n      swap2\n      sub\n      swap1\n      revert\n    tag_72:\n        /* \"contracts/ExchangeAggregator.sol\":1149:1180  checkSig(abi.encode(data), sig) */\n      tag_74\n        /* \"contracts/ExchangeAggregator.sol\":1169:1173  data */\n      dup4\n        /* \"contracts/ExchangeAggregator.sol\":1158:1174  abi.encode(data) */\n      add(0x20, mload(0x40))\n      tag_75\n      swap2\n      swap1\n      tag_55\n      jump\t// in\n    tag_75:\n      mload(0x40)\n      0x20\n      dup2\n      dup4\n      sub\n      sub\n      dup2\n      mstore\n      swap1\n      0x40\n      mstore\n        /* \"contracts/ExchangeAggregator.sol\":1176:1179  sig */\n      dup4\n      dup4\n        /* \"contracts/ExchangeAggregator.sol\":1149:1180  checkSig(abi.encode(data), sig) */\n      dup1\n      dup1\n      0x1f\n      add\n      0x20\n      dup1\n      swap2\n      div\n      mul\n      0x20\n      add\n      mload(0x40)\n      swap1\n      dup2\n      add\n      0x40\n      mstore\n      dup1\n      swap4\n      swap3\n      swap2\n      swap1\n      dup2\n      dup2\n      mstore\n      0x20\n      add\n      dup4\n      dup4\n      dup1\n      dup3\n      dup5\n      calldatacopy\n      0x00\n      dup2\n      dup5\n      add\n      mstore\n      not(0x1f)\n      0x1f\n      dup3\n      add\n      and\n      swap1\n      pop\n      dup1\n      dup4\n      add\n      swap3\n      pop\n      pop\n      pop\n      pop\n      pop\n      pop\n      pop\n        /* \"contracts/ExchangeAggregator.sol\":1149:1157  checkSig */\n      tag_56\n        /* \"contracts/ExchangeAggregator.sol\":1149:1180  checkSig(abi.encode(data), sig) */\n      jump\t// in\n    tag_74:\n        /* \"contracts/ExchangeAggregator.sol\":1211:1215  data */\n      dup3\n        /* \"contracts/ExchangeAggregator.sol\":1211:1227  data.totalAmount */\n      0x20\n      add\n      calldataload\n        /* \"contracts/ExchangeAggregator.sol\":1198:1207  msg.value */\n      callvalue\n        /* \"contracts/ExchangeAggregator.sol\":1198:1227  msg.value >= data.totalAmount */\n      lt\n      iszero\n        /* \"contracts/ExchangeAggregator.sol\":1190:1256  require(msg.value >= data.totalAmount,\"insufficient input amount\") */\n      tag_76\n      jumpi\n      mload(0x40)\n      0x08c379a000000000000000000000000000000000000000000000000000000000\n      dup2\n      mstore\n      0x04\n      add\n      tag_77\n      swap1\n      tag_78\n      jump\t// in\n    tag_77:\n      mload(0x40)\n      dup1\n      swap2\n      sub\n      swap1\n      revert\n    tag_76:\n        /* \"contracts/ExchangeAggregator.sol\":1266:1277  uint amount */\n      0x00\n        /* \"contracts/ExchangeAggregator.sol\":1292:1296  data */\n      dup4\n        /* \"contracts/ExchangeAggregator.sol\":1292:1306  data.feeAmount */\n      0x40\n      add\n      calldataload\n        /* \"contracts/ExchangeAggregator.sol\":1280:1289  msg.value */\n      callvalue\n        /* \"contracts/ExchangeAggregator.sol\":1280:1306  msg.value - data.feeAmount */\n      tag_79\n      swap2\n      swap1\n      tag_64\n      jump\t// in\n    tag_79:\n        /* \"contracts/ExchangeAggregator.sol\":1266:1306  uint amount = msg.value - data.feeAmount */\n      swap1\n      pop\n        /* \"contracts/ExchangeAggregator.sol\":1316:1368  TransferHelper.safeApprove(WETH,data.swapper,amount) */\n      tag_80\n        /* \"contracts/ExchangeAggregator.sol\":1343:1347  WETH */\n      0x01\n      0x00\n      swap1\n      sload\n      swap1\n      0x0100\n      exp\n      swap1\n      div\n      0xffffffffffffffffffffffffffffffffffffffff\n      and\n        /* \"contracts/ExchangeAggregator.sol\":1348:1352  data */\n      dup6\n        /* \"contracts/ExchangeAggregator.sol\":1348:1360  data.swapper */\n      0x60\n      add\n      0x20\n      dup2\n      add\n      swap1\n      tag_81\n      swap2\n      swap1\n      tag_41\n      jump\t// in\n    tag_81:\n        /* \"contracts/ExchangeAggregator.sol\":1361:1367  amount */\n      dup4\n        /* \"contracts/ExchangeAggregator.sol\":1316:1342  TransferHelper.safeApprove */\n      tag_47\n        /* \"contracts/ExchangeAggregator.sol\":1316:1368  TransferHelper.safeApprove(WETH,data.swapper,amount) */\n      jump\t// in\n    tag_80:\n        /* \"contracts/ExchangeAggregator.sol\":1383:1433  SafeCaller.safeCall(data.swapper,amount,data.data) */\n      tag_82\n        /* \"contracts/ExchangeAggregator.sol\":1403:1407  data */\n      dup5\n        /* \"contracts/ExchangeAggregator.sol\":1403:1415  data.swapper */\n      0x60\n      add\n      0x20\n      dup2\n      add\n      swap1\n      tag_83\n      swap2\n      swap1\n      tag_41\n      jump\t// in\n    tag_83:\n        /* \"contracts/ExchangeAggregator.sol\":1416:1422  amount */\n      dup3\n        /* \"contracts/ExchangeAggregator.sol\":1423:1427  data */\n      dup7\n        /* \"contracts/ExchangeAggregator.sol\":1423:1432  data.data */\n      dup1\n      0x80\n      add\n      swap1\n      tag_84\n      swap2\n      swap1\n      tag_68\n      jump\t// in\n    tag_84:\n        /* \"contracts/ExchangeAggregator.sol\":1383:1433  SafeCaller.safeCall(data.swapper,amount,data.data) */\n      dup1\n      dup1\n      0x1f\n      add\n      0x20\n      dup1\n      swap2\n      div\n      mul\n      0x20\n      add\n      mload(0x40)\n      swap1\n      dup2\n      add\n      0x40\n      mstore\n      dup1\n      swap4\n      swap3\n      swap2\n      swap1\n      dup2\n      dup2\n      mstore\n      0x20\n      add\n      dup4\n      dup4\n      dup1\n      dup3\n      dup5\n      calldatacopy\n      0x00\n      dup2\n      dup5\n      add\n      mstore\n      not(0x1f)\n      0x1f\n      dup3\n      add\n      and\n      swap1\n      pop\n      dup1\n      dup4\n      add\n      swap3\n      pop\n      pop\n      pop\n      pop\n      pop\n      pop\n      pop\n        /* \"contracts/ExchangeAggregator.sol\":1383:1402  SafeCaller.safeCall */\n      tag_69\n        /* \"contracts/ExchangeAggregator.sol\":1383:1433  SafeCaller.safeCall(data.swapper,amount,data.data) */\n      jump\t// in\n    tag_82:\n        /* \"contracts/ExchangeAggregator.sol\":1078:1440  {... */\n      pop\n        /* \"contracts/ExchangeAggregator.sol\":998:1440  function swapNativeIn(swapData calldata data,bytes calldata sig) public payable {... */\n      pop\n      pop\n      pop\n      jump\t// out\n        /* \"@openzeppelin/contracts/access/Ownable.sol\":1831:1932  function renounceOwnership() public virtual onlyOwner {... */\n    tag_26:\n        /* \"@openzeppelin/contracts/access/Ownable.sol\":1094:1107  _checkOwner() */\n      tag_86\n        /* \"@openzeppelin/contracts/access/Ownable.sol\":1094:1105  _checkOwner */\n      tag_87\n        /* \"@openzeppelin/contracts/access/Ownable.sol\":1094:1107  _checkOwner() */\n      jump\t// in\n    tag_86:\n        /* \"@openzeppelin/contracts/access/Ownable.sol\":1895:1925  _transferOwnership(address(0)) */\n      tag_89\n        /* \"@openzeppelin/contracts/access/Ownable.sol\":1922:1923  0 */\n      0x00\n        /* \"@openzeppelin/contracts/access/Ownable.sol\":1895:1913  _transferOwnership */\n      tag_90\n        /* \"@openzeppelin/contracts/access/Ownable.sol\":1895:1925  _transferOwnership(address(0)) */\n      jump\t// in\n    tag_89:\n        /* \"@openzeppelin/contracts/access/Ownable.sol\":1831:1932  function renounceOwnership() public virtual onlyOwner {... */\n      jump\t// out\n        /* \"@openzeppelin/contracts/access/Ownable.sol\":1201:1286  function owner() public view virtual returns (address) {... */\n    tag_29:\n        /* \"@openzeppelin/contracts/access/Ownable.sol\":1247:1254  address */\n      0x00\n        /* \"@openzeppelin/contracts/access/Ownable.sol\":1273:1279  _owner */\n      dup1\n      0x00\n      swap1\n      sload\n      swap1\n      0x0100\n      exp\n      swap1\n      div\n      0xffffffffffffffffffffffffffffffffffffffff\n      and\n        /* \"@openzeppelin/contracts/access/Ownable.sol\":1266:1279  return _owner */\n      swap1\n      pop\n        /* \"@openzeppelin/contracts/access/Ownable.sol\":1201:1286  function owner() public view virtual returns (address) {... */\n      swap1\n      jump\t// out\n        /* \"contracts/ExchangeAggregator.sol\":1863:2008  function signer(swapData calldata data, bytes memory sig) public pure returns(address){... */\n    tag_36:\n        /* \"contracts/ExchangeAggregator.sol\":1941:1948  address */\n      0x00\n        /* \"contracts/ExchangeAggregator.sol\":1966:2001  hash(abi.encode(data)).recover(sig) */\n      tag_93\n        /* \"contracts/ExchangeAggregator.sol\":1997:2000  sig */\n      dup3\n        /* \"contracts/ExchangeAggregator.sol\":1966:1988  hash(abi.encode(data)) */\n      tag_94\n        /* \"contracts/ExchangeAggregator.sol\":1982:1986  data */\n      dup6\n        /* \"contracts/ExchangeAggregator.sol\":1971:1987  abi.encode(data) */\n      add(0x20, mload(0x40))\n      tag_95\n      swap2\n      swap1\n      tag_55\n      jump\t// in\n    tag_95:\n      mload(0x40)\n      0x20\n      dup2\n      dup4\n      sub\n      sub\n      dup2\n      mstore\n      swap1\n      0x40\n      mstore\n        /* \"contracts/ExchangeAggregator.sol\":1966:1970  hash */\n      tag_96\n        /* \"contracts/ExchangeAggregator.sol\":1966:1988  hash(abi.encode(data)) */\n      jump\t// in\n    tag_94:\n        /* \"contracts/ExchangeAggregator.sol\":1966:1996  hash(abi.encode(data)).recover */\n      tag_97\n      swap1\n        /* \"contracts/ExchangeAggregator.sol\":1966:2001  hash(abi.encode(data)).recover(sig) */\n      swap2\n      swap1\n      0xffffffff\n      and\n      jump\t// in\n    tag_93:\n        /* \"contracts/ExchangeAggregator.sol\":1959:2001  return hash(abi.encode(data)).recover(sig) */\n      swap1\n      pop\n        /* \"contracts/ExchangeAggregator.sol\":1863:2008  function signer(swapData calldata data, bytes memory sig) public pure returns(address){... */\n      swap3\n      swap2\n      pop\n      pop\n      jump\t// out\n        /* \"@openzeppelin/contracts/access/Ownable.sol\":2081:2279  function transferOwnership(address newOwner) public virtual onlyOwner {... */\n    tag_42:\n        /* \"@openzeppelin/contracts/access/Ownable.sol\":1094:1107  _checkOwner() */\n      tag_99\n        /* \"@openzeppelin/contracts/access/Ownable.sol\":1094:1105  _checkOwner */\n      tag_87\n        /* \"@openzeppelin/contracts/access/Ownable.sol\":1094:1107  _checkOwner() */\n      jump\t// in\n    tag_99:\n        /* \"@openzeppelin/contracts/access/Ownable.sol\":2189:2190  0 */\n      0x00\n        /* \"@openzeppelin/contracts/access/Ownable.sol\":2169:2191  newOwner != address(0) */\n      0xffffffffffffffffffffffffffffffffffffffff\n      and\n        /* \"@openzeppelin/contracts/access/Ownable.sol\":2169:2177  newOwner */\n      dup2\n        /* \"@openzeppelin/contracts/access/Ownable.sol\":2169:2191  newOwner != address(0) */\n      0xffffffffffffffffffffffffffffffffffffffff\n      and\n      sub\n        /* \"@openzeppelin/contracts/access/Ownable.sol\":2161:2234  require(newOwner != address(0), \"Ownable: new owner is the zero address\") */\n      tag_101\n      jumpi\n      mload(0x40)\n      0x08c379a000000000000000000000000000000000000000000000000000000000\n      dup2\n      mstore\n      0x04\n      add\n      tag_102\n      swap1\n      tag_103\n      jump\t// in\n    tag_102:\n      mload(0x40)\n      dup1\n      swap2\n      sub\n      swap1\n      revert\n    tag_101:\n        /* \"@openzeppelin/contracts/access/Ownable.sol\":2244:2272  _transferOwnership(newOwner) */\n      tag_104\n        /* \"@openzeppelin/contracts/access/Ownable.sol\":2263:2271  newOwner */\n      dup2\n        /* \"@openzeppelin/contracts/access/Ownable.sol\":2244:2262  _transferOwnership */\n      tag_90\n        /* \"@openzeppelin/contracts/access/Ownable.sol\":2244:2272  _transferOwnership(newOwner) */\n      jump\t// in\n    tag_104:\n        /* \"@openzeppelin/contracts/access/Ownable.sol\":2081:2279  function transferOwnership(address newOwner) public virtual onlyOwner {... */\n      pop\n      jump\t// out\n        /* \"contracts/ExchangeAggregator.sol\":1446:1479  function test() public payable {} */\n    tag_44:\n      jump\t// out\n        /* \"contracts/libraries/transferHelper.sol\":212:646  function safeApprove(... */\n    tag_47:\n        /* \"contracts/libraries/transferHelper.sol\":390:402  bool success */\n      0x00\n        /* \"contracts/libraries/transferHelper.sol\":404:421  bytes memory data */\n      dup1\n        /* \"contracts/libraries/transferHelper.sol\":425:430  token */\n      dup5\n        /* \"contracts/libraries/transferHelper.sol\":425:435  token.call */\n      0xffffffffffffffffffffffffffffffffffffffff\n      and\n        /* \"contracts/libraries/transferHelper.sol\":459:469  0x095ea7b3 */\n      0x095ea7b3\n        /* \"contracts/libraries/transferHelper.sol\":471:473  to */\n      dup6\n        /* \"contracts/libraries/transferHelper.sol\":475:480  value */\n      dup6\n        /* \"contracts/libraries/transferHelper.sol\":436:481  abi.encodeWithSelector(0x095ea7b3, to, value) */\n      add(0x24, mload(0x40))\n      tag_107\n      swap3\n      swap2\n      swap1\n      tag_108\n      jump\t// in\n    tag_107:\n      mload(0x40)\n      0x20\n      dup2\n      dup4\n      sub\n      sub\n      dup2\n      mstore\n      swap1\n      0x40\n      mstore\n      swap1\n      0xe0\n      shl\n      0x20\n      dup3\n      add\n      dup1\n      mload\n      0xffffffffffffffffffffffffffffffffffffffffffffffffffffffff\n      dup4\n      dup2\n      dup4\n      and\n      or\n      dup4\n      mstore\n      pop\n      pop\n      pop\n      pop\n        /* \"contracts/libraries/transferHelper.sol\":425:482  token.call(abi.encodeWithSelector(0x095ea7b3, to, value)) */\n      mload(0x40)\n      tag_109\n      swap2\n      swap1\n      tag_110\n      jump\t// in\n    tag_109:\n      0x00\n      mload(0x40)\n      dup1\n      dup4\n      sub\n      dup2\n      0x00\n      dup7\n      gas\n      call\n      swap2\n      pop\n      pop\n      returndatasize\n      dup1\n      0x00\n      dup2\n      eq\n      tag_113\n      jumpi\n      mload(0x40)\n      swap2\n      pop\n      and(add(returndatasize, 0x3f), not(0x1f))\n      dup3\n      add\n      0x40\n      mstore\n      returndatasize\n      dup3\n      mstore\n      returndatasize\n      0x00\n      0x20\n      dup5\n      add\n      returndatacopy\n      jump(tag_112)\n    tag_113:\n      0x60\n      swap2\n      pop\n    tag_112:\n      pop\n        /* \"contracts/libraries/transferHelper.sol\":389:482  (bool success, bytes memory data) = token.call(abi.encodeWithSelector(0x095ea7b3, to, value)) */\n      swap2\n      pop\n      swap2\n      pop\n        /* \"contracts/libraries/transferHelper.sol\":513:520  success */\n      dup2\n        /* \"contracts/libraries/transferHelper.sol\":513:570  success && (data.length == 0 || abi.decode(data, (bool))) */\n      dup1\n      iszero\n      tag_114\n      jumpi\n      pop\n        /* \"contracts/libraries/transferHelper.sol\":540:541  0 */\n      0x00\n        /* \"contracts/libraries/transferHelper.sol\":525:529  data */\n      dup2\n        /* \"contracts/libraries/transferHelper.sol\":525:536  data.length */\n      mload\n        /* \"contracts/libraries/transferHelper.sol\":525:541  data.length == 0 */\n      eq\n        /* \"contracts/libraries/transferHelper.sol\":525:569  data.length == 0 || abi.decode(data, (bool)) */\n      dup1\n      tag_115\n      jumpi\n      pop\n        /* \"contracts/libraries/transferHelper.sol\":556:560  data */\n      dup1\n        /* \"contracts/libraries/transferHelper.sol\":545:569  abi.decode(data, (bool)) */\n      dup1\n      0x20\n      add\n      swap1\n      mload\n      dup2\n      add\n      swap1\n      tag_116\n      swap2\n      swap1\n      tag_117\n      jump\t// in\n    tag_116:\n        /* \"contracts/libraries/transferHelper.sol\":525:569  data.length == 0 || abi.decode(data, (bool)) */\n    tag_115:\n        /* \"contracts/libraries/transferHelper.sol\":513:570  success && (data.length == 0 || abi.decode(data, (bool))) */\n    tag_114:\n        /* \"contracts/libraries/transferHelper.sol\":492:639  require(... */\n      tag_118\n      jumpi\n      mload(0x40)\n      0x08c379a000000000000000000000000000000000000000000000000000000000\n      dup2\n      mstore\n      0x04\n      add\n      tag_119\n      swap1\n      tag_120\n      jump\t// in\n    tag_119:\n      mload(0x40)\n      dup1\n      swap2\n      sub\n      swap1\n      revert\n    tag_118:\n        /* \"contracts/libraries/transferHelper.sol\":314:646  {... */\n      pop\n      pop\n        /* \"contracts/libraries/transferHelper.sol\":212:646  function safeApprove(... */\n      pop\n      pop\n      pop\n      jump\t// out\n        /* \"contracts/ExchangeAggregator.sol\":1608:1857  function checkSig(bytes memory data, bytes memory sig) private view {... */\n    tag_56:\n        /* \"contracts/ExchangeAggregator.sol\":1696:1700  0x1b */\n      0x1b\n        /* \"contracts/ExchangeAggregator.sol\":1686:1700  sig[64] = 0x1b */\n      0xf8\n      shl\n        /* \"contracts/ExchangeAggregator.sol\":1686:1689  sig */\n      dup2\n        /* \"contracts/ExchangeAggregator.sol\":1690:1692  64 */\n      0x40\n        /* \"contracts/ExchangeAggregator.sol\":1686:1693  sig[64] */\n      dup2\n      mload\n      dup2\n      lt\n      tag_122\n      jumpi\n      tag_123\n      tag_124\n      jump\t// in\n    tag_123:\n    tag_122:\n      0x20\n      add\n      add\n        /* \"contracts/ExchangeAggregator.sol\":1686:1700  sig[64] = 0x1b */\n      swap1\n      not(0xffffffffffffffffffffffffffffffffffffffffffffffffffffffffffffff)\n      and\n      swap1\n      dup2\n      0x00\n      byte\n      swap1\n      mstore8\n      pop\n        /* \"contracts/ExchangeAggregator.sol\":1741:1748  owner() */\n      tag_125\n        /* \"contracts/ExchangeAggregator.sol\":1741:1746  owner */\n      tag_29\n        /* \"contracts/ExchangeAggregator.sol\":1741:1748  owner() */\n      jump\t// in\n    tag_125:\n        /* \"contracts/ExchangeAggregator.sol\":1714:1748  hash(data).recover(sig) == owner() */\n      0xffffffffffffffffffffffffffffffffffffffff\n      and\n        /* \"contracts/ExchangeAggregator.sol\":1714:1737  hash(data).recover(sig) */\n      tag_126\n        /* \"contracts/ExchangeAggregator.sol\":1733:1736  sig */\n      dup3\n        /* \"contracts/ExchangeAggregator.sol\":1714:1724  hash(data) */\n      tag_127\n        /* \"contracts/ExchangeAggregator.sol\":1719:1723  data */\n      dup6\n        /* \"contracts/ExchangeAggregator.sol\":1714:1718  hash */\n      tag_96\n        /* \"contracts/ExchangeAggregator.sol\":1714:1724  hash(data) */\n      jump\t// in\n    tag_127:\n        /* \"contracts/ExchangeAggregator.sol\":1714:1732  hash(data).recover */\n      tag_97\n      swap1\n        /* \"contracts/ExchangeAggregator.sol\":1714:1737  hash(data).recover(sig) */\n      swap2\n      swap1\n      0xffffffff\n      and\n      jump\t// in\n    tag_126:\n        /* \"contracts/ExchangeAggregator.sol\":1714:1748  hash(data).recover(sig) == owner() */\n      0xffffffffffffffffffffffffffffffffffffffff\n      and\n      sub\n        /* \"contracts/ExchangeAggregator.sol\":1710:1758  if (hash(data).recover(sig) == owner()) return ; */\n      iszero\n        /* \"contracts/ExchangeAggregator.sol\":1750:1758  return ; */\n      tag_121\n        /* \"contracts/ExchangeAggregator.sol\":1710:1758  if (hash(data).recover(sig) == owner()) return ; */\n      jumpi\n        /* \"contracts/ExchangeAggregator.sol\":1777:1781  0x1c */\n      0x1c\n        /* \"contracts/ExchangeAggregator.sol\":1767:1781  sig[64] = 0x1c */\n      0xf8\n      shl\n        /* \"contracts/ExchangeAggregator.sol\":1767:1770  sig */\n      dup2\n        /* \"contracts/ExchangeAggregator.sol\":1771:1773  64 */\n      0x40\n        /* \"contracts/ExchangeAggregator.sol\":1767:1774  sig[64] */\n      dup2\n      mload\n      dup2\n      lt\n      tag_129\n      jumpi\n      tag_130\n      tag_124\n      jump\t// in\n    tag_130:\n    tag_129:\n      0x20\n      add\n      add\n        /* \"contracts/ExchangeAggregator.sol\":1767:1781  sig[64] = 0x1c */\n      swap1\n      not(0xffffffffffffffffffffffffffffffffffffffffffffffffffffffffffffff)\n      and\n      swap1\n      dup2\n      0x00\n      byte\n      swap1\n      mstore8\n      pop\n        /* \"contracts/ExchangeAggregator.sol\":1826:1833  owner() */\n      tag_131\n        /* \"contracts/ExchangeAggregator.sol\":1826:1831  owner */\n      tag_29\n        /* \"contracts/ExchangeAggregator.sol\":1826:1833  owner() */\n      jump\t// in\n    tag_131:\n        /* \"contracts/ExchangeAggregator.sol\":1799:1833  hash(data).recover(sig) == owner() */\n      0xffffffffffffffffffffffffffffffffffffffff\n      and\n        /* \"contracts/ExchangeAggregator.sol\":1799:1822  hash(data).recover(sig) */\n      tag_132\n        /* \"contracts/ExchangeAggregator.sol\":1818:1821  sig */\n      dup3\n        /* \"contracts/ExchangeAggregator.sol\":1799:1809  hash(data) */\n      tag_133\n        /* \"contracts/ExchangeAggregator.sol\":1804:1808  data */\n      dup6\n        /* \"contracts/ExchangeAggregator.sol\":1799:1803  hash */\n      tag_96\n        /* \"contracts/ExchangeAggregator.sol\":1799:1809  hash(data) */\n      jump\t// in\n    tag_133:\n        /* \"contracts/ExchangeAggregator.sol\":1799:1817  hash(data).recover */\n      tag_97\n      swap1\n        /* \"contracts/ExchangeAggregator.sol\":1799:1822  hash(data).recover(sig) */\n      swap2\n      swap1\n      0xffffffff\n      and\n      jump\t// in\n    tag_132:\n        /* \"contracts/ExchangeAggregator.sol\":1799:1833  hash(data).recover(sig) == owner() */\n      0xffffffffffffffffffffffffffffffffffffffff\n      and\n      eq\n        /* \"contracts/ExchangeAggregator.sol\":1791:1850  require(hash(data).recover(sig) == owner(),\"data tampered\") */\n      tag_134\n      jumpi\n      mload(0x40)\n      0x08c379a000000000000000000000000000000000000000000000000000000000\n      dup2\n      mstore\n      0x04\n      add\n      tag_135\n      swap1\n      tag_136\n      jump\t// in\n    tag_135:\n      mload(0x40)\n      dup1\n      swap2\n      sub\n      swap1\n      revert\n    tag_134:\n        /* \"contracts/ExchangeAggregator.sol\":1608:1857  function checkSig(bytes memory data, bytes memory sig) private view {... */\n    tag_121:\n      pop\n      pop\n      jump\t// out\n        /* \"contracts/libraries/transferHelper.sol\":1096:1582  function safeTransferFrom(... */\n    tag_59:\n        /* \"contracts/libraries/transferHelper.sol\":1314:1326  bool success */\n      0x00\n        /* \"contracts/libraries/transferHelper.sol\":1328:1345  bytes memory data */\n      dup1\n        /* \"contracts/libraries/transferHelper.sol\":1349:1354  token */\n      dup6\n        /* \"contracts/libraries/transferHelper.sol\":1349:1359  token.call */\n      0xffffffffffffffffffffffffffffffffffffffff\n      and\n        /* \"contracts/libraries/transferHelper.sol\":1383:1393  0x23b872dd */\n      0x23b872dd\n        /* \"contracts/libraries/transferHelper.sol\":1395:1399  from */\n      dup7\n        /* \"contracts/libraries/transferHelper.sol\":1401:1403  to */\n      dup7\n        /* \"contracts/libraries/transferHelper.sol\":1405:1410  value */\n      dup7\n        /* \"contracts/libraries/transferHelper.sol\":1360:1411  abi.encodeWithSelector(0x23b872dd, from, to, value) */\n      add(0x24, mload(0x40))\n      tag_138\n      swap4\n      swap3\n      swap2\n      swap1\n      tag_139\n      jump\t// in\n    tag_138:\n      mload(0x40)\n      0x20\n      dup2\n      dup4\n      sub\n      sub\n      dup2\n      mstore\n      swap1\n      0x40\n      mstore\n      swap1\n      0xe0\n      shl\n      0x20\n      dup3\n      add\n      dup1\n      mload\n      0xffffffffffffffffffffffffffffffffffffffffffffffffffffffff\n      dup4\n      dup2\n      dup4\n      and\n      or\n      dup4\n      mstore\n      pop\n      pop\n      pop\n      pop\n        /* \"contracts/libraries/transferHelper.sol\":1349:1412  token.call(abi.encodeWithSelector(0x23b872dd, from, to, value)) */\n      mload(0x40)\n      tag_140\n      swap2\n      swap1\n      tag_110\n      jump\t// in\n    tag_140:\n      0x00\n      mload(0x40)\n      dup1\n      dup4\n      sub\n      dup2\n      0x00\n      dup7\n      gas\n      call\n      swap2\n      pop\n      pop\n      returndatasize\n      dup1\n      0x00\n      dup2\n      eq\n      tag_143\n      jumpi\n      mload(0x40)\n      swap2\n      pop\n      and(add(returndatasize, 0x3f), not(0x1f))\n      dup3\n      add\n      0x40\n      mstore\n      returndatasize\n      dup3\n      mstore\n      returndatasize\n      0x00\n      0x20\n      dup5\n      add\n      returndatacopy\n      jump(tag_142)\n    tag_143:\n      0x60\n      swap2\n      pop\n    tag_142:\n      pop\n        /* \"contracts/libraries/transferHelper.sol\":1313:1412  (bool success, bytes memory data) = token.call(abi.encodeWithSelector(0x23b872dd, from, to, value)) */\n      swap2\n      pop\n      swap2\n      pop\n        /* \"contracts/libraries/transferHelper.sol\":1443:1450  success */\n      dup2\n        /* \"contracts/libraries/transferHelper.sol\":1443:1500  success && (data.length == 0 || abi.decode(data, (bool))) */\n      dup1\n      iszero\n      tag_144\n      jumpi\n      pop\n        /* \"contracts/libraries/transferHelper.sol\":1470:1471  0 */\n      0x00\n        /* \"contracts/libraries/transferHelper.sol\":1455:1459  data */\n      dup2\n        /* \"contracts/libraries/transferHelper.sol\":1455:1466  data.length */\n      mload\n        /* \"contracts/libraries/transferHelper.sol\":1455:1471  data.length == 0 */\n      eq\n        /* \"contracts/libraries/transferHelper.sol\":1455:1499  data.length == 0 || abi.decode(data, (bool)) */\n      dup1\n      tag_145\n      jumpi\n      pop\n        /* \"contracts/libraries/transferHelper.sol\":1486:1490  data */\n      dup1\n        /* \"contracts/libraries/transferHelper.sol\":1475:1499  abi.decode(data, (bool)) */\n      dup1\n      0x20\n      add\n      swap1\n      mload\n      dup2\n      add\n      swap1\n      tag_146\n      swap2\n      swap1\n      tag_117\n      jump\t// in\n    tag_146:\n        /* \"contracts/libraries/transferHelper.sol\":1455:1499  data.length == 0 || abi.decode(data, (bool)) */\n    tag_145:\n        /* \"contracts/libraries/transferHelper.sol\":1443:1500  success && (data.length == 0 || abi.decode(data, (bool))) */\n    tag_144:\n        /* \"contracts/libraries/transferHelper.sol\":1422:1575  require(... */\n      tag_147\n      jumpi\n      mload(0x40)\n      0x08c379a000000000000000000000000000000000000000000000000000000000\n      dup2\n      mstore\n      0x04\n      add\n      tag_148\n      swap1\n      tag_149\n      jump\t// in\n    tag_148:\n      mload(0x40)\n      dup1\n      swap2\n      sub\n      swap1\n      revert\n    tag_147:\n        /* \"contracts/libraries/transferHelper.sol\":1225:1582  {... */\n      pop\n      pop\n        /* \"contracts/libraries/transferHelper.sol\":1096:1582  function safeTransferFrom(... */\n      pop\n      pop\n      pop\n      pop\n      jump\t// out\n        /* \"contracts/libraries/safeCaller.sol\":83:548  function safeCall(... */\n    tag_69:\n        /* \"contracts/libraries/safeCaller.sol\":201:213  bool succeed */\n      0x00\n        /* \"contracts/libraries/safeCaller.sol\":214:233  bytes memory result */\n      dup1\n        /* \"contracts/libraries/safeCaller.sol\":237:246  _contract */\n      dup5\n        /* \"contracts/libraries/safeCaller.sol\":237:251  _contract.call */\n      0xffffffffffffffffffffffffffffffffffffffff\n      and\n        /* \"contracts/libraries/safeCaller.sol\":259:264  value */\n      dup5\n        /* \"contracts/libraries/safeCaller.sol\":266:270  data */\n      dup5\n        /* \"contracts/libraries/safeCaller.sol\":237:271  _contract.call{value: value}(data) */\n      mload(0x40)\n      tag_151\n      swap2\n      swap1\n      tag_110\n      jump\t// in\n    tag_151:\n      0x00\n      mload(0x40)\n      dup1\n      dup4\n      sub\n      dup2\n      dup6\n      dup8\n      gas\n      call\n      swap3\n      pop\n      pop\n      pop\n      returndatasize\n      dup1\n      0x00\n      dup2\n      eq\n      tag_154\n      jumpi\n      mload(0x40)\n      swap2\n      pop\n      and(add(returndatasize, 0x3f), not(0x1f))\n      dup3\n      add\n      0x40\n      mstore\n      returndatasize\n      dup3\n      mstore\n      returndatasize\n      0x00\n      0x20\n      dup5\n      add\n      returndatacopy\n      jump(tag_153)\n    tag_154:\n      0x60\n      swap2\n      pop\n    tag_153:\n      pop\n        /* \"contracts/libraries/safeCaller.sol\":200:271  (bool succeed,bytes memory result) = _contract.call{value: value}(data) */\n      swap2\n      pop\n      swap2\n      pop\n        /* \"contracts/libraries/safeCaller.sol\":286:293  succeed */\n      dup2\n        /* \"contracts/libraries/safeCaller.sol\":281:542  if (!succeed) {... */\n      tag_155\n      jumpi\n        /* \"contracts/libraries/safeCaller.sol\":333:335  68 */\n      0x44\n        /* \"contracts/libraries/safeCaller.sol\":317:323  result */\n      dup2\n        /* \"contracts/libraries/safeCaller.sol\":317:330  result.length */\n      mload\n        /* \"contracts/libraries/safeCaller.sol\":317:335  result.length < 68 */\n      lt\n        /* \"contracts/libraries/safeCaller.sol\":313:380  if (result.length < 68) revert(\"SafeCaller::safeCall: call failed\") */\n      iszero\n      tag_156\n      jumpi\n        /* \"contracts/libraries/safeCaller.sol\":337:380  revert(\"SafeCaller::safeCall: call failed\") */\n      mload(0x40)\n      0x08c379a000000000000000000000000000000000000000000000000000000000\n      dup2\n      mstore\n      0x04\n      add\n      tag_157\n      swap1\n      tag_158\n      jump\t// in\n    tag_157:\n      mload(0x40)\n      dup1\n      swap2\n      sub\n      swap1\n      revert\n        /* \"contracts/libraries/safeCaller.sol\":313:380  if (result.length < 68) revert(\"SafeCaller::safeCall: call failed\") */\n    tag_156:\n        /* \"contracts/libraries/safeCaller.sol\":451:455  0x04 */\n      0x04\n        /* \"contracts/libraries/safeCaller.sol\":443:449  result */\n      dup2\n        /* \"contracts/libraries/safeCaller.sol\":439:456  add(result, 0x04) */\n      add\n        /* \"contracts/libraries/safeCaller.sol\":429:456  result := add(result, 0x04) */\n      swap1\n      pop\n        /* \"contracts/libraries/safeCaller.sol\":509:515  result */\n      dup1\n        /* \"contracts/libraries/safeCaller.sol\":498:526  abi.decode(result, (string)) */\n      dup1\n      0x20\n      add\n      swap1\n      mload\n      dup2\n      add\n      swap1\n      tag_159\n      swap2\n      swap1\n      tag_160\n      jump\t// in\n    tag_159:\n        /* \"contracts/libraries/safeCaller.sol\":491:527  revert(abi.decode(result, (string))) */\n      mload(0x40)\n      0x08c379a000000000000000000000000000000000000000000000000000000000\n      dup2\n      mstore\n      0x04\n      add\n      tag_161\n      swap2\n      swap1\n      tag_162\n      jump\t// in\n    tag_161:\n      mload(0x40)\n      dup1\n      swap2\n      sub\n      swap1\n      revert\n        /* \"contracts/libraries/safeCaller.sol\":281:542  if (!succeed) {... */\n    tag_155:\n        /* \"contracts/libraries/safeCaller.sol\":190:548  {... */\n      pop\n      pop\n        /* \"contracts/libraries/safeCaller.sol\":83:548  function safeCall(... */\n      pop\n      pop\n      pop\n      jump\t// out\n        /* \"@openzeppelin/contracts/access/Ownable.sol\":1359:1489  function _checkOwner() internal view virtual {... */\n    tag_87:\n        /* \"@openzeppelin/contracts/access/Ownable.sol\":1433:1445  _msgSender() */\n      tag_164\n        /* \"@openzeppelin/contracts/access/Ownable.sol\":1433:1443  _msgSender */\n      tag_165\n        /* \"@openzeppelin/contracts/access/Ownable.sol\":1433:1445  _msgSender() */\n      jump\t// in\n    tag_164:\n        /* \"@openzeppelin/contracts/access/Ownable.sol\":1422:1445  owner() == _msgSender() */\n      0xffffffffffffffffffffffffffffffffffffffff\n      and\n        /* \"@openzeppelin/contracts/access/Ownable.sol\":1422:1429  owner() */\n      tag_166\n        /* \"@openzeppelin/contracts/access/Ownable.sol\":1422:1427  owner */\n      tag_29\n        /* \"@openzeppelin/contracts/access/Ownable.sol\":1422:1429  owner() */\n      jump\t// in\n    tag_166:\n        /* \"@openzeppelin/contracts/access/Ownable.sol\":1422:1445  owner() == _msgSender() */\n      0xffffffffffffffffffffffffffffffffffffffff\n      and\n      eq\n        /* \"@openzeppelin/contracts/access/Ownable.sol\":1414:1482  require(owner() == _msgSender(), \"Ownable: caller is not the owner\") */\n      tag_167\n      jumpi\n      mload(0x40)\n      0x08c379a000000000000000000000000000000000000000000000000000000000\n      dup2\n      mstore\n      0x04\n      add\n      tag_168\n      swap1\n      tag_169\n      jump\t// in\n    tag_168:\n      mload(0x40)\n      dup1\n      swap2\n      sub\n      swap1\n      revert\n    tag_167:\n        /* \"@openzeppelin/contracts/access/Ownable.sol\":1359:1489  function _checkOwner() internal view virtual {... */\n      jump\t// out\n        /* \"@openzeppelin/contracts/access/Ownable.sol\":2433:2620  function _transferOwnership(address newOwner) internal virtual {... */\n    tag_90:\n        /* \"@openzeppelin/contracts/access/Ownable.sol\":2506:2522  address oldOwner */\n      0x00\n        /* \"@openzeppelin/contracts/access/Ownable.sol\":2525:2531  _owner */\n      dup1\n      0x00\n      swap1\n      sload\n      swap1\n      0x0100\n      exp\n      swap1\n      div\n      0xffffffffffffffffffffffffffffffffffffffff\n      and\n        /* \"@openzeppelin/contracts/access/Ownable.sol\":2506:2531  address oldOwner = _owner */\n      swap1\n      pop\n        /* \"@openzeppelin/contracts/access/Ownable.sol\":2550:2558  newOwner */\n      dup2\n        /* \"@openzeppelin/contracts/access/Ownable.sol\":2541:2547  _owner */\n      0x00\n      dup1\n        /* \"@openzeppelin/contracts/access/Ownable.sol\":2541:2558  _owner = newOwner */\n      0x0100\n      exp\n      dup2\n      sload\n      dup2\n      0xffffffffffffffffffffffffffffffffffffffff\n      mul\n      not\n      and\n      swap1\n      dup4\n      0xffffffffffffffffffffffffffffffffffffffff\n      and\n      mul\n      or\n      swap1\n      sstore\n      pop\n        /* \"@openzeppelin/contracts/access/Ownable.sol\":2604:2612  newOwner */\n      dup2\n        /* \"@openzeppelin/contracts/access/Ownable.sol\":2573:2613  OwnershipTransferred(oldOwner, newOwner) */\n      0xffffffffffffffffffffffffffffffffffffffff\n      and\n        /* \"@openzeppelin/contracts/access/Ownable.sol\":2594:2602  oldOwner */\n      dup2\n        /* \"@openzeppelin/contracts/access/Ownable.sol\":2573:2613  OwnershipTransferred(oldOwner, newOwner) */\n      0xffffffffffffffffffffffffffffffffffffffff\n      and\n      0x8be0079c531659141344cd1fd0a4f28419497f9722a3daafe3b4186f6b6457e0\n      mload(0x40)\n      mload(0x40)\n      dup1\n      swap2\n      sub\n      swap1\n      log3\n        /* \"@openzeppelin/contracts/access/Ownable.sol\":2496:2620  {... */\n      pop\n        /* \"@openzeppelin/contracts/access/Ownable.sol\":2433:2620  function _transferOwnership(address newOwner) internal virtual {... */\n      pop\n      jump\t// out\n        /* \"contracts/ExchangeAggregator.sol\":2014:2117  function hash(bytes memory data) private pure returns (bytes32) {... */\n    tag_96:\n        /* \"contracts/ExchangeAggregator.sol\":2069:2076  bytes32 */\n      0x00\n        /* \"contracts/ExchangeAggregator.sol\":2105:2109  data */\n      dup2\n        /* \"contracts/ExchangeAggregator.sol\":2095:2110  keccak256(data) */\n      dup1\n      mload\n      swap1\n      0x20\n      add\n      keccak256\n        /* \"contracts/ExchangeAggregator.sol\":2088:2110  return keccak256(data) */\n      swap1\n      pop\n        /* \"contracts/ExchangeAggregator.sol\":2014:2117  function hash(bytes memory data) private pure returns (bytes32) {... */\n      swap2\n      swap1\n      pop\n      jump\t// out\n        /* \"@openzeppelin/contracts/utils/cryptography/ECDSA.sol\":3661:3888  function recover(bytes32 hash, bytes memory signature) internal pure returns (address) {... */\n    tag_97:\n        /* \"@openzeppelin/contracts/utils/cryptography/ECDSA.sol\":3739:3746  address */\n      0x00\n        /* \"@openzeppelin/contracts/utils/cryptography/ECDSA.sol\":3759:3776  address recovered */\n      dup1\n        /* \"@openzeppelin/contracts/utils/cryptography/ECDSA.sol\":3778:3796  RecoverError error */\n      0x00\n        /* \"@openzeppelin/contracts/utils/cryptography/ECDSA.sol\":3800:3827  tryRecover(hash, signature) */\n      tag_173\n        /* \"@openzeppelin/contracts/utils/cryptography/ECDSA.sol\":3811:3815  hash */\n      dup6\n        /* \"@openzeppelin/contracts/utils/cryptography/ECDSA.sol\":3817:3826  signature */\n      dup6\n        /* \"@openzeppelin/contracts/utils/cryptography/ECDSA.sol\":3800:3810  tryRecover */\n      tag_174\n        /* \"@openzeppelin/contracts/utils/cryptography/ECDSA.sol\":3800:3827  tryRecover(hash, signature) */\n      jump\t// in\n    tag_173:\n        /* \"@openzeppelin/contracts/utils/cryptography/ECDSA.sol\":3758:3827  (address recovered, RecoverError error) = tryRecover(hash, signature) */\n      swap2\n      pop\n      swap2\n      pop\n        /* \"@openzeppelin/contracts/utils/cryptography/ECDSA.sol\":3837:3855  _throwError(error) */\n      tag_175\n        /* \"@openzeppelin/contracts/utils/cryptography/ECDSA.sol\":3849:3854  error */\n      dup2\n        /* \"@openzeppelin/contracts/utils/cryptography/ECDSA.sol\":3837:3848  _throwError */\n      tag_176\n        /* \"@openzeppelin/contracts/utils/cryptography/ECDSA.sol\":3837:3855  _throwError(error) */\n      jump\t// in\n    tag_175:\n        /* \"@openzeppelin/contracts/utils/cryptography/ECDSA.sol\":3872:3881  recovered */\n      dup2\n        /* \"@openzeppelin/contracts/utils/cryptography/ECDSA.sol\":3865:3881  return recovered */\n      swap3\n      pop\n      pop\n      pop\n        /* \"@openzeppelin/contracts/utils/cryptography/ECDSA.sol\":3661:3888  function recover(bytes32 hash, bytes memory signature) internal pure returns (address) {... */\n      swap3\n      swap2\n      pop\n      pop\n      jump\t// out\n        /* \"@openzeppelin/contracts/utils/Context.sol\":640:736  function _msgSender() internal view virtual returns (address) {... */\n    tag_165:\n        /* \"@openzeppelin/contracts/utils/Context.sol\":693:700  address */\n      0x00\n        /* \"@openzeppelin/contracts/utils/Context.sol\":719:729  msg.sender */\n      caller\n        /* \"@openzeppelin/contracts/utils/Context.sol\":712:729  return msg.sender */\n      swap1\n      pop\n        /* \"@openzeppelin/contracts/utils/Context.sol\":640:736  function _msgSender() internal view virtual returns (address) {... */\n      swap1\n      jump\t// out\n        /* \"@openzeppelin/contracts/utils/cryptography/ECDSA.sol\":2145:2875  function tryRecover(bytes32 hash, bytes memory signature) internal pure returns (address, RecoverError) {... */\n    tag_174:\n        /* \"@openzeppelin/contracts/utils/cryptography/ECDSA.sol\":2226:2233  address */\n      0x00\n        /* \"@openzeppelin/contracts/utils/cryptography/ECDSA.sol\":2235:2247  RecoverError */\n      dup1\n        /* \"@openzeppelin/contracts/utils/cryptography/ECDSA.sol\":2283:2285  65 */\n      0x41\n        /* \"@openzeppelin/contracts/utils/cryptography/ECDSA.sol\":2263:2272  signature */\n      dup4\n        /* \"@openzeppelin/contracts/utils/cryptography/ECDSA.sol\":2263:2279  signature.length */\n      mload\n        /* \"@openzeppelin/contracts/utils/cryptography/ECDSA.sol\":2263:2285  signature.length == 65 */\n      sub\n        /* \"@openzeppelin/contracts/utils/cryptography/ECDSA.sol\":2259:2869  if (signature.length == 65) {... */\n      tag_179\n      jumpi\n        /* \"@openzeppelin/contracts/utils/cryptography/ECDSA.sol\":2301:2310  bytes32 r */\n      0x00\n        /* \"@openzeppelin/contracts/utils/cryptography/ECDSA.sol\":2324:2333  bytes32 s */\n      dup1\n        /* \"@openzeppelin/contracts/utils/cryptography/ECDSA.sol\":2347:2354  uint8 v */\n      0x00\n        /* \"@openzeppelin/contracts/utils/cryptography/ECDSA.sol\":2599:2603  0x20 */\n      0x20\n        /* \"@openzeppelin/contracts/utils/cryptography/ECDSA.sol\":2588:2597  signature */\n      dup7\n        /* \"@openzeppelin/contracts/utils/cryptography/ECDSA.sol\":2584:2604  add(signature, 0x20) */\n      add\n        /* \"@openzeppelin/contracts/utils/cryptography/ECDSA.sol\":2578:2605  mload(add(signature, 0x20)) */\n      mload\n        /* \"@openzeppelin/contracts/utils/cryptography/ECDSA.sol\":2573:2605  r := mload(add(signature, 0x20)) */\n      swap3\n      pop\n        /* \"@openzeppelin/contracts/utils/cryptography/ECDSA.sol\":2648:2652  0x40 */\n      0x40\n        /* \"@openzeppelin/contracts/utils/cryptography/ECDSA.sol\":2637:2646  signature */\n      dup7\n        /* \"@openzeppelin/contracts/utils/cryptography/ECDSA.sol\":2633:2653  add(signature, 0x40) */\n      add\n        /* \"@openzeppelin/contracts/utils/cryptography/ECDSA.sol\":2627:2654  mload(add(signature, 0x40)) */\n      mload\n        /* \"@openzeppelin/contracts/utils/cryptography/ECDSA.sol\":2622:2654  s := mload(add(signature, 0x40)) */\n      swap2\n      pop\n        /* \"@openzeppelin/contracts/utils/cryptography/ECDSA.sol\":2705:2709  0x60 */\n      0x60\n        /* \"@openzeppelin/contracts/utils/cryptography/ECDSA.sol\":2694:2703  signature */\n      dup7\n        /* \"@openzeppelin/contracts/utils/cryptography/ECDSA.sol\":2690:2710  add(signature, 0x60) */\n      add\n        /* \"@openzeppelin/contracts/utils/cryptography/ECDSA.sol\":2684:2711  mload(add(signature, 0x60)) */\n      mload\n        /* \"@openzeppelin/contracts/utils/cryptography/ECDSA.sol\":2681:2682  0 */\n      0x00\n        /* \"@openzeppelin/contracts/utils/cryptography/ECDSA.sol\":2676:2712  byte(0, mload(add(signature, 0x60))) */\n      byte\n        /* \"@openzeppelin/contracts/utils/cryptography/ECDSA.sol\":2671:2712  v := byte(0, mload(add(signature, 0x60))) */\n      swap1\n      pop\n        /* \"@openzeppelin/contracts/utils/cryptography/ECDSA.sol\":2746:2771  tryRecover(hash, v, r, s) */\n      tag_180\n        /* \"@openzeppelin/contracts/utils/cryptography/ECDSA.sol\":2757:2761  hash */\n      dup8\n        /* \"@openzeppelin/contracts/utils/cryptography/ECDSA.sol\":2763:2764  v */\n      dup3\n        /* \"@openzeppelin/contracts/utils/cryptography/ECDSA.sol\":2766:2767  r */\n      dup6\n        /* \"@openzeppelin/contracts/utils/cryptography/ECDSA.sol\":2769:2770  s */\n      dup6\n        /* \"@openzeppelin/contracts/utils/cryptography/ECDSA.sol\":2746:2756  tryRecover */\n      tag_181\n        /* \"@openzeppelin/contracts/utils/cryptography/ECDSA.sol\":2746:2771  tryRecover(hash, v, r, s) */\n      jump\t// in\n    tag_180:\n        /* \"@openzeppelin/contracts/utils/cryptography/ECDSA.sol\":2739:2771  return tryRecover(hash, v, r, s) */\n      swap5\n      pop\n      swap5\n      pop\n      pop\n      pop\n      pop\n      jump(tag_178)\n        /* \"@openzeppelin/contracts/utils/cryptography/ECDSA.sol\":2259:2869  if (signature.length == 65) {... */\n    tag_179:\n        /* \"@openzeppelin/contracts/utils/cryptography/ECDSA.sol\":2818:2819  0 */\n      0x00\n        /* \"@openzeppelin/contracts/utils/cryptography/ECDSA.sol\":2822:2857  RecoverError.InvalidSignatureLength */\n      0x02\n        /* \"@openzeppelin/contracts/utils/cryptography/ECDSA.sol\":2802:2858  return (address(0), RecoverError.InvalidSignatureLength) */\n      swap2\n      pop\n      swap2\n      pop\n        /* \"@openzeppelin/contracts/utils/cryptography/ECDSA.sol\":2145:2875  function tryRecover(bytes32 hash, bytes memory signature) internal pure returns (address, RecoverError) {... */\n    tag_178:\n      swap3\n      pop\n      swap3\n      swap1\n      pop\n      jump\t// out\n        /* \"@openzeppelin/contracts/utils/cryptography/ECDSA.sol\":570:1081  function _throwError(RecoverError error) private pure {... */\n    tag_176:\n        /* \"@openzeppelin/contracts/utils/cryptography/ECDSA.sol\":647:667  RecoverError.NoError */\n      0x00\n        /* \"@openzeppelin/contracts/utils/cryptography/ECDSA.sol\":638:667  error == RecoverError.NoError */\n      0x04\n      dup2\n      gt\n      iszero\n      tag_184\n      jumpi\n      tag_185\n      tag_186\n      jump\t// in\n    tag_185:\n    tag_184:\n        /* \"@openzeppelin/contracts/utils/cryptography/ECDSA.sol\":638:643  error */\n      dup2\n        /* \"@openzeppelin/contracts/utils/cryptography/ECDSA.sol\":638:667  error == RecoverError.NoError */\n      0x04\n      dup2\n      gt\n      iszero\n      tag_187\n      jumpi\n      tag_188\n      tag_186\n      jump\t// in\n    tag_188:\n    tag_187:\n      sub\n        /* \"@openzeppelin/contracts/utils/cryptography/ECDSA.sol\":634:1075  if (error == RecoverError.NoError) {... */\n      iszero\n        /* \"@openzeppelin/contracts/utils/cryptography/ECDSA.sol\":683:690  return; */\n      tag_183\n        /* \"@openzeppelin/contracts/utils/cryptography/ECDSA.sol\":634:1075  if (error == RecoverError.NoError) {... */\n      jumpi\n        /* \"@openzeppelin/contracts/utils/cryptography/ECDSA.sol\":743:772  RecoverError.InvalidSignature */\n      0x01\n        /* \"@openzeppelin/contracts/utils/cryptography/ECDSA.sol\":734:772  error == RecoverError.InvalidSignature */\n      0x04\n      dup2\n      gt\n      iszero\n      tag_191\n      jumpi\n      tag_192\n      tag_186\n      jump\t// in\n    tag_192:\n    tag_191:\n        /* \"@openzeppelin/contracts/utils/cryptography/ECDSA.sol\":734:739  error */\n      dup2\n        /* \"@openzeppelin/contracts/utils/cryptography/ECDSA.sol\":734:772  error == RecoverError.InvalidSignature */\n      0x04\n      dup2\n      gt\n      iszero\n      tag_193\n      jumpi\n      tag_194\n      tag_186\n      jump\t// in\n    tag_194:\n    tag_193:\n      sub\n        /* \"@openzeppelin/contracts/utils/cryptography/ECDSA.sol\":730:1075  if (error == RecoverError.InvalidSignature) {... */\n      tag_195\n      jumpi\n        /* \"@openzeppelin/contracts/utils/cryptography/ECDSA.sol\":788:822  revert(\"ECDSA: invalid signature\") */\n      mload(0x40)\n      0x08c379a000000000000000000000000000000000000000000000000000000000\n      dup2\n      mstore\n      0x04\n      add\n      tag_196\n      swap1\n      tag_197\n      jump\t// in\n    tag_196:\n      mload(0x40)\n      dup1\n      swap2\n      sub\n      swap1\n      revert\n        /* \"@openzeppelin/contracts/utils/cryptography/ECDSA.sol\":730:1075  if (error == RecoverError.InvalidSignature) {... */\n    tag_195:\n        /* \"@openzeppelin/contracts/utils/cryptography/ECDSA.sol\":852:887  RecoverError.InvalidSignatureLength */\n      0x02\n        /* \"@openzeppelin/contracts/utils/cryptography/ECDSA.sol\":843:887  error == RecoverError.InvalidSignatureLength */\n      0x04\n      dup2\n      gt\n      iszero\n      tag_199\n      jumpi\n      tag_200\n      tag_186\n      jump\t// in\n    tag_200:\n    tag_199:\n        /* \"@openzeppelin/contracts/utils/cryptography/ECDSA.sol\":843:848  error */\n      dup2\n        /* \"@openzeppelin/contracts/utils/cryptography/ECDSA.sol\":843:887  error == RecoverError.InvalidSignatureLength */\n      0x04\n      dup2\n      gt\n      iszero\n      tag_201\n      jumpi\n      tag_202\n      tag_186\n      jump\t// in\n    tag_202:\n    tag_201:\n      sub\n        /* \"@openzeppelin/contracts/utils/cryptography/ECDSA.sol\":839:1075  if (error == RecoverError.InvalidSignatureLength) {... */\n      tag_203\n      jumpi\n        /* \"@openzeppelin/contracts/utils/cryptography/ECDSA.sol\":903:944  revert(\"ECDSA: invalid signature length\") */\n      mload(0x40)\n      0x08c379a000000000000000000000000000000000000000000000000000000000\n      dup2\n      mstore\n      0x04\n      add\n      tag_204\n      swap1\n      tag_205\n      jump\t// in\n    tag_204:\n      mload(0x40)\n      dup1\n      swap2\n      sub\n      swap1\n      revert\n        /* \"@openzeppelin/contracts/utils/cryptography/ECDSA.sol\":839:1075  if (error == RecoverError.InvalidSignatureLength) {... */\n    tag_203:\n        /* \"@openzeppelin/contracts/utils/cryptography/ECDSA.sol\":974:1004  RecoverError.InvalidSignatureS */\n      0x03\n        /* \"@openzeppelin/contracts/utils/cryptography/ECDSA.sol\":965:1004  error == RecoverError.InvalidSignatureS */\n      0x04\n      dup2\n      gt\n      iszero\n      tag_207\n      jumpi\n      tag_208\n      tag_186\n      jump\t// in\n    tag_208:\n    tag_207:\n        /* \"@openzeppelin/contracts/utils/cryptography/ECDSA.sol\":965:970  error */\n      dup2\n        /* \"@openzeppelin/contracts/utils/cryptography/ECDSA.sol\":965:1004  error == RecoverError.InvalidSignatureS */\n      0x04\n      dup2\n      gt\n      iszero\n      tag_209\n      jumpi\n      tag_210\n      tag_186\n      jump\t// in\n    tag_210:\n    tag_209:\n      sub\n        /* \"@openzeppelin/contracts/utils/cryptography/ECDSA.sol\":961:1075  if (error == RecoverError.InvalidSignatureS) {... */\n      tag_211\n      jumpi\n        /* \"@openzeppelin/contracts/utils/cryptography/ECDSA.sol\":1020:1064  revert(\"ECDSA: invalid signature 's' value\") */\n      mload(0x40)\n      0x08c379a000000000000000000000000000000000000000000000000000000000\n      dup2\n      mstore\n      0x04\n      add\n      tag_212\n      swap1\n      tag_213\n      jump\t// in\n    tag_212:\n      mload(0x40)\n      dup1\n      swap2\n      sub\n      swap1\n      revert\n        /* \"@openzeppelin/contracts/utils/cryptography/ECDSA.sol\":961:1075  if (error == RecoverError.InvalidSignatureS) {... */\n    tag_211:\n        /* \"@openzeppelin/contracts/utils/cryptography/ECDSA.sol\":570:1081  function _throwError(RecoverError error) private pure {... */\n    tag_183:\n      pop\n      jump\t// out\n        /* \"@openzeppelin/contracts/utils/cryptography/ECDSA.sol\":5069:6563  function tryRecover(... */\n    tag_181:\n        /* \"@openzeppelin/contracts/utils/cryptography/ECDSA.sol\":5195:5202  address */\n      0x00\n        /* \"@openzeppelin/contracts/utils/cryptography/ECDSA.sol\":5204:5216  RecoverError */\n      dup1\n        /* \"@openzeppelin/contracts/utils/cryptography/ECDSA.sol\":6119:6185  0x7FFFFFFFFFFFFFFFFFFFFFFFFFFFFFFF5D576E7357A4501DDFE92F46681B20A0 */\n      0x7fffffffffffffffffffffffffffffff5d576e7357a4501ddfe92f46681b20a0\n        /* \"@openzeppelin/contracts/utils/cryptography/ECDSA.sol\":6114:6115  s */\n      dup4\n        /* \"@openzeppelin/contracts/utils/cryptography/ECDSA.sol\":6106:6116  uint256(s) */\n      0x00\n      shr\n        /* \"@openzeppelin/contracts/utils/cryptography/ECDSA.sol\":6106:6185  uint256(s) > 0x7FFFFFFFFFFFFFFFFFFFFFFFFFFFFFFF5D576E7357A4501DDFE92F46681B20A0 */\n      gt\n        /* \"@openzeppelin/contracts/utils/cryptography/ECDSA.sol\":6102:6263  if (uint256(s) > 0x7FFFFFFFFFFFFFFFFFFFFFFFFFFFFFFF5D576E7357A4501DDFE92F46681B20A0) {... */\n      iszero\n      tag_215\n      jumpi\n        /* \"@openzeppelin/contracts/utils/cryptography/ECDSA.sol\":6217:6218  0 */\n      0x00\n        /* \"@openzeppelin/contracts/utils/cryptography/ECDSA.sol\":6221:6251  RecoverError.InvalidSignatureS */\n      0x03\n        /* \"@openzeppelin/contracts/utils/cryptography/ECDSA.sol\":6201:6252  return (address(0), RecoverError.InvalidSignatureS) */\n      swap2\n      pop\n      swap2\n      pop\n      jump(tag_214)\n        /* \"@openzeppelin/contracts/utils/cryptography/ECDSA.sol\":6102:6263  if (uint256(s) > 0x7FFFFFFFFFFFFFFFFFFFFFFFFFFFFFFF5D576E7357A4501DDFE92F46681B20A0) {... */\n    tag_215:\n        /* \"@openzeppelin/contracts/utils/cryptography/ECDSA.sol\":6357:6371  address signer */\n      0x00\n        /* \"@openzeppelin/contracts/utils/cryptography/ECDSA.sol\":6374:6398  ecrecover(hash, v, r, s) */\n      0x01\n        /* \"@openzeppelin/contracts/utils/cryptography/ECDSA.sol\":6384:6388  hash */\n      dup8\n        /* \"@openzeppelin/contracts/utils/cryptography/ECDSA.sol\":6390:6391  v */\n      dup8\n        /* \"@openzeppelin/contracts/utils/cryptography/ECDSA.sol\":6393:6394  r */\n      dup8\n        /* \"@openzeppelin/contracts/utils/cryptography/ECDSA.sol\":6396:6397  s */\n      dup8\n        /* \"@openzeppelin/contracts/utils/cryptography/ECDSA.sol\":6374:6398  ecrecover(hash, v, r, s) */\n      mload(0x40)\n      0x00\n      dup2\n      mstore\n      0x20\n      add\n      0x40\n      mstore\n      mload(0x40)\n      tag_216\n      swap5\n      swap4\n      swap3\n      swap2\n      swap1\n      tag_217\n      jump\t// in\n    tag_216:\n      0x20\n      mload(0x40)\n      0x20\n      dup2\n      sub\n      swap1\n      dup1\n      dup5\n      sub\n      swap1\n      dup6\n      gas\n      staticcall\n      iszero\n      dup1\n      iszero\n      tag_219\n      jumpi\n      returndatasize\n      0x00\n      dup1\n      returndatacopy\n      revert(0x00, returndatasize)\n    tag_219:\n      pop\n      pop\n      pop\n      mload(sub(mload(0x40), 0x20))\n        /* \"@openzeppelin/contracts/utils/cryptography/ECDSA.sol\":6357:6398  address signer = ecrecover(hash, v, r, s) */\n      swap1\n      pop\n        /* \"@openzeppelin/contracts/utils/cryptography/ECDSA.sol\":6430:6431  0 */\n      0x00\n        /* \"@openzeppelin/contracts/utils/cryptography/ECDSA.sol\":6412:6432  signer == address(0) */\n      0xffffffffffffffffffffffffffffffffffffffff\n      and\n        /* \"@openzeppelin/contracts/utils/cryptography/ECDSA.sol\":6412:6418  signer */\n      dup2\n        /* \"@openzeppelin/contracts/utils/cryptography/ECDSA.sol\":6412:6432  signer == address(0) */\n      0xffffffffffffffffffffffffffffffffffffffff\n      and\n      sub\n        /* \"@openzeppelin/contracts/utils/cryptography/ECDSA.sol\":6408:6509  if (signer == address(0)) {... */\n      tag_220\n      jumpi\n        /* \"@openzeppelin/contracts/utils/cryptography/ECDSA.sol\":6464:6465  0 */\n      0x00\n        /* \"@openzeppelin/contracts/utils/cryptography/ECDSA.sol\":6468:6497  RecoverError.InvalidSignature */\n      0x01\n        /* \"@openzeppelin/contracts/utils/cryptography/ECDSA.sol\":6448:6498  return (address(0), RecoverError.InvalidSignature) */\n      swap3\n      pop\n      swap3\n      pop\n      pop\n      jump(tag_214)\n        /* \"@openzeppelin/contracts/utils/cryptography/ECDSA.sol\":6408:6509  if (signer == address(0)) {... */\n    tag_220:\n        /* \"@openzeppelin/contracts/utils/cryptography/ECDSA.sol\":6527:6533  signer */\n      dup1\n        /* \"@openzeppelin/contracts/utils/cryptography/ECDSA.sol\":6535:6555  RecoverError.NoError */\n      0x00\n        /* \"@openzeppelin/contracts/utils/cryptography/ECDSA.sol\":6519:6556  return (signer, RecoverError.NoError) */\n      swap3\n      pop\n      swap3\n      pop\n      pop\n        /* \"@openzeppelin/contracts/utils/cryptography/ECDSA.sol\":5069:6563  function tryRecover(... */\n    tag_214:\n      swap5\n      pop\n      swap5\n      swap3\n      pop\n      pop\n      pop\n      jump\t// out\n        /* \"#utility.yul\":7:82   */\n    tag_221:\n        /* \"#utility.yul\":40:46   */\n      0x00\n        /* \"#utility.yul\":73:75   */\n      0x40\n        /* \"#utility.yul\":67:76   */\n      mload\n        /* \"#utility.yul\":57:76   */\n      swap1\n      pop\n        /* \"#utility.yul\":7:82   */\n      swap1\n      jump\t// out\n        /* \"#utility.yul\":88:205   */\n    tag_222:\n        /* \"#utility.yul\":197:198   */\n      0x00\n        /* \"#utility.yul\":194:195   */\n      dup1\n        /* \"#utility.yul\":187:199   */\n      revert\n        /* \"#utility.yul\":211:328   */\n    tag_223:\n        /* \"#utility.yul\":320:321   */\n      0x00\n        /* \"#utility.yul\":317:318   */\n      dup1\n        /* \"#utility.yul\":310:322   */\n      revert\n        /* \"#utility.yul\":334:460   */\n    tag_224:\n        /* \"#utility.yul\":371:378   */\n      0x00\n        /* \"#utility.yul\":411:453   */\n      0xffffffffffffffffffffffffffffffffffffffff\n        /* \"#utility.yul\":404:409   */\n      dup3\n        /* \"#utility.yul\":400:454   */\n      and\n        /* \"#utility.yul\":389:454   */\n      swap1\n      pop\n        /* \"#utility.yul\":334:460   */\n      swap2\n      swap1\n      pop\n      jump\t// out\n        /* \"#utility.yul\":466:562   */\n    tag_225:\n        /* \"#utility.yul\":503:510   */\n      0x00\n        /* \"#utility.yul\":532:556   */\n      tag_308\n        /* \"#utility.yul\":550:555   */\n      dup3\n        /* \"#utility.yul\":532:556   */\n      tag_224\n      jump\t// in\n    tag_308:\n        /* \"#utility.yul\":521:556   */\n      swap1\n      pop\n        /* \"#utility.yul\":466:562   */\n      swap2\n      swap1\n      pop\n      jump\t// out\n        /* \"#utility.yul\":568:690   */\n    tag_226:\n        /* \"#utility.yul\":641:665   */\n      tag_310\n        /* \"#utility.yul\":659:664   */\n      dup2\n        /* \"#utility.yul\":641:665   */\n      tag_225\n      jump\t// in\n    tag_310:\n        /* \"#utility.yul\":634:639   */\n      dup2\n        /* \"#utility.yul\":631:666   */\n      eq\n        /* \"#utility.yul\":621:684   */\n      tag_311\n      jumpi\n        /* \"#utility.yul\":680:681   */\n      0x00\n        /* \"#utility.yul\":677:678   */\n      dup1\n        /* \"#utility.yul\":670:682   */\n      revert\n        /* \"#utility.yul\":621:684   */\n    tag_311:\n        /* \"#utility.yul\":568:690   */\n      pop\n      jump\t// out\n        /* \"#utility.yul\":696:835   */\n    tag_227:\n        /* \"#utility.yul\":742:747   */\n      0x00\n        /* \"#utility.yul\":780:786   */\n      dup2\n        /* \"#utility.yul\":767:787   */\n      calldataload\n        /* \"#utility.yul\":758:787   */\n      swap1\n      pop\n        /* \"#utility.yul\":796:829   */\n      tag_313\n        /* \"#utility.yul\":823:828   */\n      dup2\n        /* \"#utility.yul\":796:829   */\n      tag_226\n      jump\t// in\n    tag_313:\n        /* \"#utility.yul\":696:835   */\n      swap3\n      swap2\n      pop\n      pop\n      jump\t// out\n        /* \"#utility.yul\":841:918   */\n    tag_228:\n        /* \"#utility.yul\":878:885   */\n      0x00\n        /* \"#utility.yul\":907:912   */\n      dup2\n        /* \"#utility.yul\":896:912   */\n      swap1\n      pop\n        /* \"#utility.yul\":841:918   */\n      swap2\n      swap1\n      pop\n      jump\t// out\n        /* \"#utility.yul\":924:1046   */\n    tag_229:\n        /* \"#utility.yul\":997:1021   */\n      tag_316\n        /* \"#utility.yul\":1015:1020   */\n      dup2\n        /* \"#utility.yul\":997:1021   */\n      tag_228\n      jump\t// in\n    tag_316:\n        /* \"#utility.yul\":990:995   */\n      dup2\n        /* \"#utility.yul\":987:1022   */\n      eq\n        /* \"#utility.yul\":977:1040   */\n      tag_317\n      jumpi\n        /* \"#utility.yul\":1036:1037   */\n      0x00\n        /* \"#utility.yul\":1033:1034   */\n      dup1\n        /* \"#utility.yul\":1026:1038   */\n      revert\n        /* \"#utility.yul\":977:1040   */\n    tag_317:\n        /* \"#utility.yul\":924:1046   */\n      pop\n      jump\t// out\n        /* \"#utility.yul\":1052:1191   */\n    tag_230:\n        /* \"#utility.yul\":1098:1103   */\n      0x00\n        /* \"#utility.yul\":1136:1142   */\n      dup2\n        /* \"#utility.yul\":1123:1143   */\n      calldataload\n        /* \"#utility.yul\":1114:1143   */\n      swap1\n      pop\n        /* \"#utility.yul\":1152:1185   */\n      tag_319\n        /* \"#utility.yul\":1179:1184   */\n      dup2\n        /* \"#utility.yul\":1152:1185   */\n      tag_229\n      jump\t// in\n    tag_319:\n        /* \"#utility.yul\":1052:1191   */\n      swap3\n      swap2\n      pop\n      pop\n      jump\t// out\n        /* \"#utility.yul\":1197:1671   */\n    tag_14:\n        /* \"#utility.yul\":1265:1271   */\n      0x00\n        /* \"#utility.yul\":1273:1279   */\n      dup1\n        /* \"#utility.yul\":1322:1324   */\n      0x40\n        /* \"#utility.yul\":1310:1319   */\n      dup4\n        /* \"#utility.yul\":1301:1308   */\n      dup6\n        /* \"#utility.yul\":1297:1320   */\n      sub\n        /* \"#utility.yul\":1293:1325   */\n      slt\n        /* \"#utility.yul\":1290:1409   */\n      iszero\n      tag_321\n      jumpi\n        /* \"#utility.yul\":1328:1407   */\n      tag_322\n      tag_222\n      jump\t// in\n    tag_322:\n        /* \"#utility.yul\":1290:1409   */\n    tag_321:\n        /* \"#utility.yul\":1448:1449   */\n      0x00\n        /* \"#utility.yul\":1473:1526   */\n      tag_323\n        /* \"#utility.yul\":1518:1525   */\n      dup6\n        /* \"#utility.yul\":1509:1515   */\n      dup3\n        /* \"#utility.yul\":1498:1507   */\n      dup7\n        /* \"#utility.yul\":1494:1516   */\n      add\n        /* \"#utility.yul\":1473:1526   */\n      tag_227\n      jump\t// in\n    tag_323:\n        /* \"#utility.yul\":1463:1526   */\n      swap3\n      pop\n        /* \"#utility.yul\":1419:1536   */\n      pop\n        /* \"#utility.yul\":1575:1577   */\n      0x20\n        /* \"#utility.yul\":1601:1654   */\n      tag_324\n        /* \"#utility.yul\":1646:1653   */\n      dup6\n        /* \"#utility.yul\":1637:1643   */\n      dup3\n        /* \"#utility.yul\":1626:1635   */\n      dup7\n        /* \"#utility.yul\":1622:1644   */\n      add\n        /* \"#utility.yul\":1601:1654   */\n      tag_230\n      jump\t// in\n    tag_324:\n        /* \"#utility.yul\":1591:1654   */\n      swap2\n      pop\n        /* \"#utility.yul\":1546:1664   */\n      pop\n        /* \"#utility.yul\":1197:1671   */\n      swap3\n      pop\n      swap3\n      swap1\n      pop\n      jump\t// out\n        /* \"#utility.yul\":1677:1794   */\n    tag_231:\n        /* \"#utility.yul\":1786:1787   */\n      0x00\n        /* \"#utility.yul\":1783:1784   */\n      dup1\n        /* \"#utility.yul\":1776:1788   */\n      revert\n        /* \"#utility.yul\":1834:2067   */\n    tag_232:\n        /* \"#utility.yul\":1908:1913   */\n      0x00\n        /* \"#utility.yul\":1949:1952   */\n      0xc0\n        /* \"#utility.yul\":1940:1946   */\n      dup3\n        /* \"#utility.yul\":1935:1938   */\n      dup5\n        /* \"#utility.yul\":1931:1947   */\n      sub\n        /* \"#utility.yul\":1927:1953   */\n      slt\n        /* \"#utility.yul\":1924:2037   */\n      iszero\n      tag_327\n      jumpi\n        /* \"#utility.yul\":1956:2035   */\n      tag_328\n      tag_231\n      jump\t// in\n    tag_328:\n        /* \"#utility.yul\":1924:2037   */\n    tag_327:\n        /* \"#utility.yul\":2055:2061   */\n      dup2\n        /* \"#utility.yul\":2046:2061   */\n      swap1\n      pop\n        /* \"#utility.yul\":1834:2067   */\n      swap3\n      swap2\n      pop\n      pop\n      jump\t// out\n        /* \"#utility.yul\":2073:2190   */\n    tag_233:\n        /* \"#utility.yul\":2182:2183   */\n      0x00\n        /* \"#utility.yul\":2179:2180   */\n      dup1\n        /* \"#utility.yul\":2172:2184   */\n      revert\n        /* \"#utility.yul\":2196:2313   */\n    tag_234:\n        /* \"#utility.yul\":2305:2306   */\n      0x00\n        /* \"#utility.yul\":2302:2303   */\n      dup1\n        /* \"#utility.yul\":2295:2307   */\n      revert\n        /* \"#utility.yul\":2319:2436   */\n    tag_235:\n        /* \"#utility.yul\":2428:2429   */\n      0x00\n        /* \"#utility.yul\":2425:2426   */\n      dup1\n        /* \"#utility.yul\":2418:2430   */\n      revert\n        /* \"#utility.yul\":2455:3007   */\n    tag_236:\n        /* \"#utility.yul\":2512:2520   */\n      0x00\n        /* \"#utility.yul\":2522:2528   */\n      dup1\n        /* \"#utility.yul\":2572:2575   */\n      dup4\n        /* \"#utility.yul\":2565:2569   */\n      0x1f\n        /* \"#utility.yul\":2557:2563   */\n      dup5\n        /* \"#utility.yul\":2553:2570   */\n      add\n        /* \"#utility.yul\":2549:2576   */\n      slt\n        /* \"#utility.yul\":2539:2661   */\n      tag_333\n      jumpi\n        /* \"#utility.yul\":2580:2659   */\n      tag_334\n      tag_233\n      jump\t// in\n    tag_334:\n        /* \"#utility.yul\":2539:2661   */\n    tag_333:\n        /* \"#utility.yul\":2693:2699   */\n      dup3\n        /* \"#utility.yul\":2680:2700   */\n      calldataload\n        /* \"#utility.yul\":2670:2700   */\n      swap1\n      pop\n        /* \"#utility.yul\":2723:2741   */\n      0xffffffffffffffff\n        /* \"#utility.yul\":2715:2721   */\n      dup2\n        /* \"#utility.yul\":2712:2742   */\n      gt\n        /* \"#utility.yul\":2709:2826   */\n      iszero\n      tag_335\n      jumpi\n        /* \"#utility.yul\":2745:2824   */\n      tag_336\n      tag_234\n      jump\t// in\n    tag_336:\n        /* \"#utility.yul\":2709:2826   */\n    tag_335:\n        /* \"#utility.yul\":2859:2863   */\n      0x20\n        /* \"#utility.yul\":2851:2857   */\n      dup4\n        /* \"#utility.yul\":2847:2864   */\n      add\n        /* \"#utility.yul\":2835:2864   */\n      swap2\n      pop\n        /* \"#utility.yul\":2913:2916   */\n      dup4\n        /* \"#utility.yul\":2905:2909   */\n      0x01\n        /* \"#utility.yul\":2897:2903   */\n      dup3\n        /* \"#utility.yul\":2893:2910   */\n      mul\n        /* \"#utility.yul\":2883:2891   */\n      dup4\n        /* \"#utility.yul\":2879:2911   */\n      add\n        /* \"#utility.yul\":2876:2917   */\n      gt\n        /* \"#utility.yul\":2873:3001   */\n      iszero\n      tag_337\n      jumpi\n        /* \"#utility.yul\":2920:2999   */\n      tag_338\n      tag_235\n      jump\t// in\n    tag_338:\n        /* \"#utility.yul\":2873:3001   */\n    tag_337:\n        /* \"#utility.yul\":2455:3007   */\n      swap3\n      pop\n      swap3\n      swap1\n      pop\n      jump\t// out\n        /* \"#utility.yul\":3013:3901   */\n    tag_19:\n        /* \"#utility.yul\":3120:3126   */\n      0x00\n        /* \"#utility.yul\":3128:3134   */\n      dup1\n        /* \"#utility.yul\":3136:3142   */\n      0x00\n        /* \"#utility.yul\":3185:3187   */\n      0x40\n        /* \"#utility.yul\":3173:3182   */\n      dup5\n        /* \"#utility.yul\":3164:3171   */\n      dup7\n        /* \"#utility.yul\":3160:3183   */\n      sub\n        /* \"#utility.yul\":3156:3188   */\n      slt\n        /* \"#utility.yul\":3153:3272   */\n      iszero\n      tag_340\n      jumpi\n        /* \"#utility.yul\":3191:3270   */\n      tag_341\n      tag_222\n      jump\t// in\n    tag_341:\n        /* \"#utility.yul\":3153:3272   */\n    tag_340:\n        /* \"#utility.yul\":3339:3340   */\n      0x00\n        /* \"#utility.yul\":3328:3337   */\n      dup5\n        /* \"#utility.yul\":3324:3341   */\n      add\n        /* \"#utility.yul\":3311:3342   */\n      calldataload\n        /* \"#utility.yul\":3369:3387   */\n      0xffffffffffffffff\n        /* \"#utility.yul\":3361:3367   */\n      dup2\n        /* \"#utility.yul\":3358:3388   */\n      gt\n        /* \"#utility.yul\":3355:3472   */\n      iszero\n      tag_342\n      jumpi\n        /* \"#utility.yul\":3391:3470   */\n      tag_343\n      tag_223\n      jump\t// in\n    tag_343:\n        /* \"#utility.yul\":3355:3472   */\n    tag_342:\n        /* \"#utility.yul\":3496:3577   */\n      tag_344\n        /* \"#utility.yul\":3569:3576   */\n      dup7\n        /* \"#utility.yul\":3560:3566   */\n      dup3\n        /* \"#utility.yul\":3549:3558   */\n      dup8\n        /* \"#utility.yul\":3545:3567   */\n      add\n        /* \"#utility.yul\":3496:3577   */\n      tag_232\n      jump\t// in\n    tag_344:\n        /* \"#utility.yul\":3486:3577   */\n      swap4\n      pop\n        /* \"#utility.yul\":3282:3587   */\n      pop\n        /* \"#utility.yul\":3654:3656   */\n      0x20\n        /* \"#utility.yul\":3643:3652   */\n      dup5\n        /* \"#utility.yul\":3639:3657   */\n      add\n        /* \"#utility.yul\":3626:3658   */\n      calldataload\n        /* \"#utility.yul\":3685:3703   */\n      0xffffffffffffffff\n        /* \"#utility.yul\":3677:3683   */\n      dup2\n        /* \"#utility.yul\":3674:3704   */\n      gt\n        /* \"#utility.yul\":3671:3788   */\n      iszero\n      tag_345\n      jumpi\n        /* \"#utility.yul\":3707:3786   */\n      tag_346\n      tag_223\n      jump\t// in\n    tag_346:\n        /* \"#utility.yul\":3671:3788   */\n    tag_345:\n        /* \"#utility.yul\":3820:3884   */\n      tag_347\n        /* \"#utility.yul\":3876:3883   */\n      dup7\n        /* \"#utility.yul\":3867:3873   */\n      dup3\n        /* \"#utility.yul\":3856:3865   */\n      dup8\n        /* \"#utility.yul\":3852:3874   */\n      add\n        /* \"#utility.yul\":3820:3884   */\n      tag_236\n      jump\t// in\n    tag_347:\n        /* \"#utility.yul\":3802:3884   */\n      swap3\n      pop\n      swap3\n      pop\n        /* \"#utility.yul\":3597:3894   */\n      pop\n        /* \"#utility.yul\":3013:3901   */\n      swap3\n      pop\n      swap3\n      pop\n      swap3\n      jump\t// out\n        /* \"#utility.yul\":3907:4025   */\n    tag_237:\n        /* \"#utility.yul\":3994:4018   */\n      tag_349\n        /* \"#utility.yul\":4012:4017   */\n      dup2\n        /* \"#utility.yul\":3994:4018   */\n      tag_225\n      jump\t// in\n    tag_349:\n        /* \"#utility.yul\":3989:3992   */\n      dup3\n        /* \"#utility.yul\":3982:4019   */\n      mstore\n        /* \"#utility.yul\":3907:4025   */\n      pop\n      pop\n      jump\t// out\n        /* \"#utility.yul\":4031:4253   */\n    tag_31:\n        /* \"#utility.yul\":4124:4128   */\n      0x00\n        /* \"#utility.yul\":4162:4164   */\n      0x20\n        /* \"#utility.yul\":4151:4160   */\n      dup3\n        /* \"#utility.yul\":4147:4165   */\n      add\n        /* \"#utility.yul\":4139:4165   */\n      swap1\n      pop\n        /* \"#utility.yul\":4175:4246   */\n      tag_351\n        /* \"#utility.yul\":4243:4244   */\n      0x00\n        /* \"#utility.yul\":4232:4241   */\n      dup4\n        /* \"#utility.yul\":4228:4245   */\n      add\n        /* \"#utility.yul\":4219:4225   */\n      dup5\n        /* \"#utility.yul\":4175:4246   */\n      tag_237\n      jump\t// in\n    tag_351:\n        /* \"#utility.yul\":4031:4253   */\n      swap3\n      swap2\n      pop\n      pop\n      jump\t// out\n        /* \"#utility.yul\":4259:4376   */\n    tag_238:\n        /* \"#utility.yul\":4368:4369   */\n      0x00\n        /* \"#utility.yul\":4365:4366   */\n      dup1\n        /* \"#utility.yul\":4358:4370   */\n      revert\n        /* \"#utility.yul\":4382:4484   */\n    tag_239:\n        /* \"#utility.yul\":4423:4429   */\n      0x00\n        /* \"#utility.yul\":4474:4476   */\n      0x1f\n        /* \"#utility.yul\":4470:4477   */\n      not\n        /* \"#utility.yul\":4465:4467   */\n      0x1f\n        /* \"#utility.yul\":4458:4463   */\n      dup4\n        /* \"#utility.yul\":4454:4468   */\n      add\n        /* \"#utility.yul\":4450:4478   */\n      and\n        /* \"#utility.yul\":4440:4478   */\n      swap1\n      pop\n        /* \"#utility.yul\":4382:4484   */\n      swap2\n      swap1\n      pop\n      jump\t// out\n        /* \"#utility.yul\":4490:4670   */\n    tag_240:\n        /* \"#utility.yul\":4538:4615   */\n      0x4e487b7100000000000000000000000000000000000000000000000000000000\n        /* \"#utility.yul\":4535:4536   */\n      0x00\n        /* \"#utility.yul\":4528:4616   */\n      mstore\n        /* \"#utility.yul\":4635:4639   */\n      0x41\n        /* \"#utility.yul\":4632:4633   */\n      0x04\n        /* \"#utility.yul\":4625:4640   */\n      mstore\n        /* \"#utility.yul\":4659:4663   */\n      0x24\n        /* \"#utility.yul\":4656:4657   */\n      0x00\n        /* \"#utility.yul\":4649:4664   */\n      revert\n        /* \"#utility.yul\":4676:4957   */\n    tag_241:\n        /* \"#utility.yul\":4759:4786   */\n      tag_356\n        /* \"#utility.yul\":4781:4785   */\n      dup3\n        /* \"#utility.yul\":4759:4786   */\n      tag_239\n      jump\t// in\n    tag_356:\n        /* \"#utility.yul\":4751:4757   */\n      dup2\n        /* \"#utility.yul\":4747:4787   */\n      add\n        /* \"#utility.yul\":4889:4895   */\n      dup2\n        /* \"#utility.yul\":4877:4887   */\n      dup2\n        /* \"#utility.yul\":4874:4896   */\n      lt\n        /* \"#utility.yul\":4853:4871   */\n      0xffffffffffffffff\n        /* \"#utility.yul\":4841:4851   */\n      dup3\n        /* \"#utility.yul\":4838:4872   */\n      gt\n        /* \"#utility.yul\":4835:4897   */\n      or\n        /* \"#utility.yul\":4832:4920   */\n      iszero\n      tag_357\n      jumpi\n        /* \"#utility.yul\":4900:4918   */\n      tag_358\n      tag_240\n      jump\t// in\n    tag_358:\n        /* \"#utility.yul\":4832:4920   */\n    tag_357:\n        /* \"#utility.yul\":4940:4950   */\n      dup1\n        /* \"#utility.yul\":4936:4938   */\n      0x40\n        /* \"#utility.yul\":4929:4951   */\n      mstore\n        /* \"#utility.yul\":4719:4957   */\n      pop\n        /* \"#utility.yul\":4676:4957   */\n      pop\n      pop\n      jump\t// out\n        /* \"#utility.yul\":4963:5092   */\n    tag_242:\n        /* \"#utility.yul\":4997:5003   */\n      0x00\n        /* \"#utility.yul\":5024:5044   */\n      tag_360\n      tag_221\n      jump\t// in\n    tag_360:\n        /* \"#utility.yul\":5014:5044   */\n      swap1\n      pop\n        /* \"#utility.yul\":5053:5086   */\n      tag_361\n        /* \"#utility.yul\":5081:5085   */\n      dup3\n        /* \"#utility.yul\":5073:5079   */\n      dup3\n        /* \"#utility.yul\":5053:5086   */\n      tag_241\n      jump\t// in\n    tag_361:\n        /* \"#utility.yul\":4963:5092   */\n      swap2\n      swap1\n      pop\n      jump\t// out\n        /* \"#utility.yul\":5098:5405   */\n    tag_243:\n        /* \"#utility.yul\":5159:5163   */\n      0x00\n        /* \"#utility.yul\":5249:5267   */\n      0xffffffffffffffff\n        /* \"#utility.yul\":5241:5247   */\n      dup3\n        /* \"#utility.yul\":5238:5268   */\n      gt\n        /* \"#utility.yul\":5235:5291   */\n      iszero\n      tag_363\n      jumpi\n        /* \"#utility.yul\":5271:5289   */\n      tag_364\n      tag_240\n      jump\t// in\n    tag_364:\n        /* \"#utility.yul\":5235:5291   */\n    tag_363:\n        /* \"#utility.yul\":5309:5338   */\n      tag_365\n        /* \"#utility.yul\":5331:5337   */\n      dup3\n        /* \"#utility.yul\":5309:5338   */\n      tag_239\n      jump\t// in\n    tag_365:\n        /* \"#utility.yul\":5301:5338   */\n      swap1\n      pop\n        /* \"#utility.yul\":5393:5397   */\n      0x20\n        /* \"#utility.yul\":5387:5391   */\n      dup2\n        /* \"#utility.yul\":5383:5398   */\n      add\n        /* \"#utility.yul\":5375:5398   */\n      swap1\n      pop\n        /* \"#utility.yul\":5098:5405   */\n      swap2\n      swap1\n      pop\n      jump\t// out\n        /* \"#utility.yul\":5411:5557   */\n    tag_244:\n        /* \"#utility.yul\":5508:5514   */\n      dup3\n        /* \"#utility.yul\":5503:5506   */\n      dup2\n        /* \"#utility.yul\":5498:5501   */\n      dup4\n        /* \"#utility.yul\":5485:5515   */\n      calldatacopy\n        /* \"#utility.yul\":5549:5550   */\n      0x00\n        /* \"#utility.yul\":5540:5546   */\n      dup4\n        /* \"#utility.yul\":5535:5538   */\n      dup4\n        /* \"#utility.yul\":5531:5547   */\n      add\n        /* \"#utility.yul\":5524:5551   */\n      mstore\n        /* \"#utility.yul\":5411:5557   */\n      pop\n      pop\n      pop\n      jump\t// out\n        /* \"#utility.yul\":5563:5986   */\n    tag_245:\n        /* \"#utility.yul\":5640:5645   */\n      0x00\n        /* \"#utility.yul\":5665:5730   */\n      tag_368\n        /* \"#utility.yul\":5681:5729   */\n      tag_369\n        /* \"#utility.yul\":5722:5728   */\n      dup5\n        /* \"#utility.yul\":5681:5729   */\n      tag_243\n      jump\t// in\n    tag_369:\n        /* \"#utility.yul\":5665:5730   */\n      tag_242\n      jump\t// in\n    tag_368:\n        /* \"#utility.yul\":5656:5730   */\n      swap1\n      pop\n        /* \"#utility.yul\":5753:5759   */\n      dup3\n        /* \"#utility.yul\":5746:5751   */\n      dup2\n        /* \"#utility.yul\":5739:5760   */\n      mstore\n        /* \"#utility.yul\":5791:5795   */\n      0x20\n        /* \"#utility.yul\":5784:5789   */\n      dup2\n        /* \"#utility.yul\":5780:5796   */\n      add\n        /* \"#utility.yul\":5829:5832   */\n      dup5\n        /* \"#utility.yul\":5820:5826   */\n      dup5\n        /* \"#utility.yul\":5815:5818   */\n      dup5\n        /* \"#utility.yul\":5811:5827   */\n      add\n        /* \"#utility.yul\":5808:5833   */\n      gt\n        /* \"#utility.yul\":5805:5917   */\n      iszero\n      tag_370\n      jumpi\n        /* \"#utility.yul\":5836:5915   */\n      tag_371\n      tag_238\n      jump\t// in\n    tag_371:\n        /* \"#utility.yul\":5805:5917   */\n    tag_370:\n        /* \"#utility.yul\":5926:5980   */\n      tag_372\n        /* \"#utility.yul\":5973:5979   */\n      dup5\n        /* \"#utility.yul\":5968:5971   */\n      dup3\n        /* \"#utility.yul\":5963:5966   */\n      dup6\n        /* \"#utility.yul\":5926:5980   */\n      tag_244\n      jump\t// in\n    tag_372:\n        /* \"#utility.yul\":5646:5986   */\n      pop\n        /* \"#utility.yul\":5563:5986   */\n      swap4\n      swap3\n      pop\n      pop\n      pop\n      jump\t// out\n        /* \"#utility.yul\":6005:6343   */\n    tag_246:\n        /* \"#utility.yul\":6060:6065   */\n      0x00\n        /* \"#utility.yul\":6109:6112   */\n      dup3\n        /* \"#utility.yul\":6102:6106   */\n      0x1f\n        /* \"#utility.yul\":6094:6100   */\n      dup4\n        /* \"#utility.yul\":6090:6107   */\n      add\n        /* \"#utility.yul\":6086:6113   */\n      slt\n        /* \"#utility.yul\":6076:6198   */\n      tag_374\n      jumpi\n        /* \"#utility.yul\":6117:6196   */\n      tag_375\n      tag_233\n      jump\t// in\n    tag_375:\n        /* \"#utility.yul\":6076:6198   */\n    tag_374:\n        /* \"#utility.yul\":6234:6240   */\n      dup2\n        /* \"#utility.yul\":6221:6241   */\n      calldataload\n        /* \"#utility.yul\":6259:6337   */\n      tag_376\n        /* \"#utility.yul\":6333:6336   */\n      dup5\n        /* \"#utility.yul\":6325:6331   */\n      dup3\n        /* \"#utility.yul\":6318:6322   */\n      0x20\n        /* \"#utility.yul\":6310:6316   */\n      dup7\n        /* \"#utility.yul\":6306:6323   */\n      add\n        /* \"#utility.yul\":6259:6337   */\n      tag_245\n      jump\t// in\n    tag_376:\n        /* \"#utility.yul\":6250:6337   */\n      swap2\n      pop\n        /* \"#utility.yul\":6066:6343   */\n      pop\n        /* \"#utility.yul\":6005:6343   */\n      swap3\n      swap2\n      pop\n      pop\n      jump\t// out\n        /* \"#utility.yul\":6349:7217   */\n    tag_35:\n        /* \"#utility.yul\":6454:6460   */\n      0x00\n        /* \"#utility.yul\":6462:6468   */\n      dup1\n        /* \"#utility.yul\":6511:6513   */\n      0x40\n        /* \"#utility.yul\":6499:6508   */\n      dup4\n        /* \"#utility.yul\":6490:6497   */\n      dup6\n        /* \"#utility.yul\":6486:6509   */\n      sub\n        /* \"#utility.yul\":6482:6514   */\n      slt\n        /* \"#utility.yul\":6479:6598   */\n      iszero\n      tag_378\n      jumpi\n        /* \"#utility.yul\":6517:6596   */\n      tag_379\n      tag_222\n      jump\t// in\n    tag_379:\n        /* \"#utility.yul\":6479:6598   */\n    tag_378:\n        /* \"#utility.yul\":6665:6666   */\n      0x00\n        /* \"#utility.yul\":6654:6663   */\n      dup4\n        /* \"#utility.yul\":6650:6667   */\n      add\n        /* \"#utility.yul\":6637:6668   */\n      calldataload\n        /* \"#utility.yul\":6695:6713   */\n      0xffffffffffffffff\n        /* \"#utility.yul\":6687:6693   */\n      dup2\n        /* \"#utility.yul\":6684:6714   */\n      gt\n        /* \"#utility.yul\":6681:6798   */\n      iszero\n      tag_380\n      jumpi\n        /* \"#utility.yul\":6717:6796   */\n      tag_381\n      tag_223\n      jump\t// in\n    tag_381:\n        /* \"#utility.yul\":6681:6798   */\n    tag_380:\n        /* \"#utility.yul\":6822:6903   */\n      tag_382\n        /* \"#utility.yul\":6895:6902   */\n      dup6\n        /* \"#utility.yul\":6886:6892   */\n      dup3\n        /* \"#utility.yul\":6875:6884   */\n      dup7\n        /* \"#utility.yul\":6871:6893   */\n      add\n        /* \"#utility.yul\":6822:6903   */\n      tag_232\n      jump\t// in\n    tag_382:\n        /* \"#utility.yul\":6812:6903   */\n      swap3\n      pop\n        /* \"#utility.yul\":6608:6913   */\n      pop\n        /* \"#utility.yul\":6980:6982   */\n      0x20\n        /* \"#utility.yul\":6969:6978   */\n      dup4\n        /* \"#utility.yul\":6965:6983   */\n      add\n        /* \"#utility.yul\":6952:6984   */\n      calldataload\n        /* \"#utility.yul\":7011:7029   */\n      0xffffffffffffffff\n        /* \"#utility.yul\":7003:7009   */\n      dup2\n        /* \"#utility.yul\":7000:7030   */\n      gt\n        /* \"#utility.yul\":6997:7114   */\n      iszero\n      tag_383\n      jumpi\n        /* \"#utility.yul\":7033:7112   */\n      tag_384\n      tag_223\n      jump\t// in\n    tag_384:\n        /* \"#utility.yul\":6997:7114   */\n    tag_383:\n        /* \"#utility.yul\":7138:7200   */\n      tag_385\n        /* \"#utility.yul\":7192:7199   */\n      dup6\n        /* \"#utility.yul\":7183:7189   */\n      dup3\n        /* \"#utility.yul\":7172:7181   */\n      dup7\n        /* \"#utility.yul\":7168:7190   */\n      add\n        /* \"#utility.yul\":7138:7200   */\n      tag_246\n      jump\t// in\n    tag_385:\n        /* \"#utility.yul\":7128:7200   */\n      swap2\n      pop\n        /* \"#utility.yul\":6923:7210   */\n      pop\n        /* \"#utility.yul\":6349:7217   */\n      swap3\n      pop\n      swap3\n      swap1\n      pop\n      jump\t// out\n        /* \"#utility.yul\":7223:7552   */\n    tag_41:\n        /* \"#utility.yul\":7282:7288   */\n      0x00\n        /* \"#utility.yul\":7331:7333   */\n      0x20\n        /* \"#utility.yul\":7319:7328   */\n      dup3\n        /* \"#utility.yul\":7310:7317   */\n      dup5\n        /* \"#utility.yul\":7306:7329   */\n      sub\n        /* \"#utility.yul\":7302:7334   */\n      slt\n        /* \"#utility.yul\":7299:7418   */\n      iszero\n      tag_387\n      jumpi\n        /* \"#utility.yul\":7337:7416   */\n      tag_388\n      tag_222\n      jump\t// in\n    tag_388:\n        /* \"#utility.yul\":7299:7418   */\n    tag_387:\n        /* \"#utility.yul\":7457:7458   */\n      0x00\n        /* \"#utility.yul\":7482:7535   */\n      tag_389\n        /* \"#utility.yul\":7527:7534   */\n      dup5\n        /* \"#utility.yul\":7518:7524   */\n      dup3\n        /* \"#utility.yul\":7507:7516   */\n      dup6\n        /* \"#utility.yul\":7503:7525   */\n      add\n        /* \"#utility.yul\":7482:7535   */\n      tag_227\n      jump\t// in\n    tag_389:\n        /* \"#utility.yul\":7472:7535   */\n      swap2\n      pop\n        /* \"#utility.yul\":7428:7545   */\n      pop\n        /* \"#utility.yul\":7223:7552   */\n      swap3\n      swap2\n      pop\n      pop\n      jump\t// out\n        /* \"#utility.yul\":7558:7727   */\n    tag_247:\n        /* \"#utility.yul\":7642:7653   */\n      0x00\n        /* \"#utility.yul\":7676:7682   */\n      dup3\n        /* \"#utility.yul\":7671:7674   */\n      dup3\n        /* \"#utility.yul\":7664:7683   */\n      mstore\n        /* \"#utility.yul\":7716:7720   */\n      0x20\n        /* \"#utility.yul\":7711:7714   */\n      dup3\n        /* \"#utility.yul\":7707:7721   */\n      add\n        /* \"#utility.yul\":7692:7721   */\n      swap1\n      pop\n        /* \"#utility.yul\":7558:7727   */\n      swap3\n      swap2\n      pop\n      pop\n      jump\t// out\n        /* \"#utility.yul\":7733:7897   */\n    tag_248:\n        /* \"#utility.yul\":7873:7889   */\n      0x696e76616c65642073656e646572000000000000000000000000000000000000\n        /* \"#utility.yul\":7869:7870   */\n      0x00\n        /* \"#utility.yul\":7861:7867   */\n      dup3\n        /* \"#utility.yul\":7857:7871   */\n      add\n        /* \"#utility.yul\":7850:7890   */\n      mstore\n        /* \"#utility.yul\":7733:7897   */\n      pop\n      jump\t// out\n        /* \"#utility.yul\":7903:8269   */\n    tag_249:\n        /* \"#utility.yul\":8045:8048   */\n      0x00\n        /* \"#utility.yul\":8066:8133   */\n      tag_393\n        /* \"#utility.yul\":8130:8132   */\n      0x0e\n        /* \"#utility.yul\":8125:8128   */\n      dup4\n        /* \"#utility.yul\":8066:8133   */\n      tag_247\n      jump\t// in\n    tag_393:\n        /* \"#utility.yul\":8059:8133   */\n      swap2\n      pop\n        /* \"#utility.yul\":8142:8235   */\n      tag_394\n        /* \"#utility.yul\":8231:8234   */\n      dup3\n        /* \"#utility.yul\":8142:8235   */\n      tag_248\n      jump\t// in\n    tag_394:\n        /* \"#utility.yul\":8260:8262   */\n      0x20\n        /* \"#utility.yul\":8255:8258   */\n      dup3\n        /* \"#utility.yul\":8251:8263   */\n      add\n        /* \"#utility.yul\":8244:8263   */\n      swap1\n      pop\n        /* \"#utility.yul\":7903:8269   */\n      swap2\n      swap1\n      pop\n      jump\t// out\n        /* \"#utility.yul\":8275:8694   */\n    tag_52:\n        /* \"#utility.yul\":8441:8445   */\n      0x00\n        /* \"#utility.yul\":8479:8481   */\n      0x20\n        /* \"#utility.yul\":8468:8477   */\n      dup3\n        /* \"#utility.yul\":8464:8482   */\n      add\n        /* \"#utility.yul\":8456:8482   */\n      swap1\n      pop\n        /* \"#utility.yul\":8528:8537   */\n      dup2\n        /* \"#utility.yul\":8522:8526   */\n      dup2\n        /* \"#utility.yul\":8518:8538   */\n      sub\n        /* \"#utility.yul\":8514:8515   */\n      0x00\n        /* \"#utility.yul\":8503:8512   */\n      dup4\n        /* \"#utility.yul\":8499:8516   */\n      add\n        /* \"#utility.yul\":8492:8539   */\n      mstore\n        /* \"#utility.yul\":8556:8687   */\n      tag_396\n        /* \"#utility.yul\":8682:8686   */\n      dup2\n        /* \"#utility.yul\":8556:8687   */\n      tag_249\n      jump\t// in\n    tag_396:\n        /* \"#utility.yul\":8548:8687   */\n      swap1\n      pop\n        /* \"#utility.yul\":8275:8694   */\n      swap2\n      swap1\n      pop\n      jump\t// out\n        /* \"#utility.yul\":8700:8822   */\n    tag_250:\n        /* \"#utility.yul\":8752:8757   */\n      0x00\n        /* \"#utility.yul\":8777:8816   */\n      tag_398\n        /* \"#utility.yul\":8812:8814   */\n      0x20\n        /* \"#utility.yul\":8807:8810   */\n      dup5\n        /* \"#utility.yul\":8803:8815   */\n      add\n        /* \"#utility.yul\":8798:8801   */\n      dup5\n        /* \"#utility.yul\":8777:8816   */\n      tag_227\n      jump\t// in\n    tag_398:\n        /* \"#utility.yul\":8768:8816   */\n      swap1\n      pop\n        /* \"#utility.yul\":8700:8822   */\n      swap3\n      swap2\n      pop\n      pop\n      jump\t// out\n        /* \"#utility.yul\":8828:8936   */\n    tag_251:\n        /* \"#utility.yul\":8905:8929   */\n      tag_400\n        /* \"#utility.yul\":8923:8928   */\n      dup2\n        /* \"#utility.yul\":8905:8929   */\n      tag_225\n      jump\t// in\n    tag_400:\n        /* \"#utility.yul\":8900:8903   */\n      dup3\n        /* \"#utility.yul\":8893:8930   */\n      mstore\n        /* \"#utility.yul\":8828:8936   */\n      pop\n      pop\n      jump\t// out\n        /* \"#utility.yul\":8942:9064   */\n    tag_252:\n        /* \"#utility.yul\":8994:8999   */\n      0x00\n        /* \"#utility.yul\":9019:9058   */\n      tag_402\n        /* \"#utility.yul\":9054:9056   */\n      0x20\n        /* \"#utility.yul\":9049:9052   */\n      dup5\n        /* \"#utility.yul\":9045:9057   */\n      add\n        /* \"#utility.yul\":9040:9043   */\n      dup5\n        /* \"#utility.yul\":9019:9058   */\n      tag_230\n      jump\t// in\n    tag_402:\n        /* \"#utility.yul\":9010:9058   */\n      swap1\n      pop\n        /* \"#utility.yul\":8942:9064   */\n      swap3\n      swap2\n      pop\n      pop\n      jump\t// out\n        /* \"#utility.yul\":9070:9178   */\n    tag_253:\n        /* \"#utility.yul\":9147:9171   */\n      tag_404\n        /* \"#utility.yul\":9165:9170   */\n      dup2\n        /* \"#utility.yul\":9147:9171   */\n      tag_228\n      jump\t// in\n    tag_404:\n        /* \"#utility.yul\":9142:9145   */\n      dup3\n        /* \"#utility.yul\":9135:9172   */\n      mstore\n        /* \"#utility.yul\":9070:9178   */\n      pop\n      pop\n      jump\t// out\n        /* \"#utility.yul\":9184:9301   */\n    tag_254:\n        /* \"#utility.yul\":9293:9294   */\n      0x00\n        /* \"#utility.yul\":9290:9291   */\n      dup1\n        /* \"#utility.yul\":9283:9295   */\n      revert\n        /* \"#utility.yul\":9307:9424   */\n    tag_255:\n        /* \"#utility.yul\":9416:9417   */\n      0x00\n        /* \"#utility.yul\":9413:9414   */\n      dup1\n        /* \"#utility.yul\":9406:9418   */\n      revert\n        /* \"#utility.yul\":9430:9547   */\n    tag_256:\n        /* \"#utility.yul\":9539:9540   */\n      0x00\n        /* \"#utility.yul\":9536:9537   */\n      dup1\n        /* \"#utility.yul\":9529:9541   */\n      revert\n        /* \"#utility.yul\":9553:10264   */\n    tag_257:\n        /* \"#utility.yul\":9617:9622   */\n      0x00\n        /* \"#utility.yul\":9624:9630   */\n      dup1\n        /* \"#utility.yul\":9680:9683   */\n      dup4\n        /* \"#utility.yul\":9667:9684   */\n      calldataload\n        /* \"#utility.yul\":9772:9773   */\n      0x01\n        /* \"#utility.yul\":9766:9770   */\n      0x20\n        /* \"#utility.yul\":9762:9774   */\n      sub\n        /* \"#utility.yul\":9751:9759   */\n      dup5\n        /* \"#utility.yul\":9735:9749   */\n      calldatasize\n        /* \"#utility.yul\":9731:9760   */\n      sub\n        /* \"#utility.yul\":9727:9775   */\n      sub\n        /* \"#utility.yul\":9707:9725   */\n      dup2\n        /* \"#utility.yul\":9703:9776   */\n      slt\n        /* \"#utility.yul\":9693:9861   */\n      tag_409\n      jumpi\n        /* \"#utility.yul\":9780:9859   */\n      tag_410\n      tag_256\n      jump\t// in\n    tag_410:\n        /* \"#utility.yul\":9693:9861   */\n    tag_409:\n        /* \"#utility.yul\":9903:9911   */\n      dup4\n        /* \"#utility.yul\":9883:9901   */\n      dup2\n        /* \"#utility.yul\":9879:9912   */\n      add\n        /* \"#utility.yul\":9870:9912   */\n      swap3\n      pop\n        /* \"#utility.yul\":9945:9950   */\n      dup3\n        /* \"#utility.yul\":9932:9951   */\n      calldataload\n        /* \"#utility.yul\":9922:9951   */\n      swap2\n      pop\n        /* \"#utility.yul\":9980:9984   */\n      0x20\n        /* \"#utility.yul\":9973:9978   */\n      dup4\n        /* \"#utility.yul\":9969:9985   */\n      add\n        /* \"#utility.yul\":9960:9985   */\n      swap3\n      pop\n        /* \"#utility.yul\":10008:10026   */\n      0xffffffffffffffff\n        /* \"#utility.yul\":10000:10006   */\n      dup3\n        /* \"#utility.yul\":9997:10027   */\n      gt\n        /* \"#utility.yul\":9994:10111   */\n      iszero\n      tag_411\n      jumpi\n        /* \"#utility.yul\":10030:10109   */\n      tag_412\n      tag_254\n      jump\t// in\n    tag_412:\n        /* \"#utility.yul\":9994:10111   */\n    tag_411:\n        /* \"#utility.yul\":10166:10170   */\n      0x01\n        /* \"#utility.yul\":10158:10164   */\n      dup3\n        /* \"#utility.yul\":10154:10171   */\n      mul\n        /* \"#utility.yul\":10138:10152   */\n      calldatasize\n        /* \"#utility.yul\":10134:10172   */\n      sub\n        /* \"#utility.yul\":10127:10132   */\n      dup4\n        /* \"#utility.yul\":10123:10173   */\n      sgt\n        /* \"#utility.yul\":10120:10257   */\n      iszero\n      tag_413\n      jumpi\n        /* \"#utility.yul\":10176:10255   */\n      tag_414\n      tag_255\n      jump\t// in\n    tag_414:\n        /* \"#utility.yul\":10120:10257   */\n    tag_413:\n        /* \"#utility.yul\":9631:10264   */\n      pop\n        /* \"#utility.yul\":9553:10264   */\n      swap3\n      pop\n      swap3\n      swap1\n      pop\n      jump\t// out\n        /* \"#utility.yul\":10270:10428   */\n    tag_258:\n        /* \"#utility.yul\":10343:10354   */\n      0x00\n        /* \"#utility.yul\":10377:10383   */\n      dup3\n        /* \"#utility.yul\":10372:10375   */\n      dup3\n        /* \"#utility.yul\":10365:10384   */\n      mstore\n        /* \"#utility.yul\":10417:10421   */\n      0x20\n        /* \"#utility.yul\":10412:10415   */\n      dup3\n        /* \"#utility.yul\":10408:10422   */\n      add\n        /* \"#utility.yul\":10393:10422   */\n      swap1\n      pop\n        /* \"#utility.yul\":10270:10428   */\n      swap3\n      swap2\n      pop\n      pop\n      jump\t// out\n        /* \"#utility.yul\":10456:10750   */\n    tag_259:\n        /* \"#utility.yul\":10542:10545   */\n      0x00\n        /* \"#utility.yul\":10563:10623   */\n      tag_417\n        /* \"#utility.yul\":10616:10622   */\n      dup4\n        /* \"#utility.yul\":10611:10614   */\n      dup6\n        /* \"#utility.yul\":10563:10623   */\n      tag_258\n      jump\t// in\n    tag_417:\n        /* \"#utility.yul\":10556:10623   */\n      swap4\n      pop\n        /* \"#utility.yul\":10633:10689   */\n      tag_418\n        /* \"#utility.yul\":10682:10688   */\n      dup4\n        /* \"#utility.yul\":10677:10680   */\n      dup6\n        /* \"#utility.yul\":10670:10675   */\n      dup5\n        /* \"#utility.yul\":10633:10689   */\n      tag_244\n      jump\t// in\n    tag_418:\n        /* \"#utility.yul\":10714:10743   */\n      tag_419\n        /* \"#utility.yul\":10736:10742   */\n      dup4\n        /* \"#utility.yul\":10714:10743   */\n      tag_239\n      jump\t// in\n    tag_419:\n        /* \"#utility.yul\":10709:10712   */\n      dup5\n        /* \"#utility.yul\":10705:10744   */\n      add\n        /* \"#utility.yul\":10698:10744   */\n      swap1\n      pop\n        /* \"#utility.yul\":10456:10750   */\n      swap4\n      swap3\n      pop\n      pop\n      pop\n      jump\t// out\n        /* \"#utility.yul\":10820:12345   */\n    tag_260:\n        /* \"#utility.yul\":10943:10946   */\n      0x00\n        /* \"#utility.yul\":10979:10983   */\n      0xc0\n        /* \"#utility.yul\":10974:10977   */\n      dup4\n        /* \"#utility.yul\":10970:10984   */\n      add\n        /* \"#utility.yul\":11050:11100   */\n      tag_421\n        /* \"#utility.yul\":11094:11098   */\n      0x00\n        /* \"#utility.yul\":11087:11092   */\n      dup5\n        /* \"#utility.yul\":11083:11099   */\n      add\n        /* \"#utility.yul\":11076:11081   */\n      dup5\n        /* \"#utility.yul\":11050:11100   */\n      tag_250\n      jump\t// in\n    tag_421:\n        /* \"#utility.yul\":11113:11176   */\n      tag_422\n        /* \"#utility.yul\":11170:11174   */\n      0x00\n        /* \"#utility.yul\":11165:11168   */\n      dup7\n        /* \"#utility.yul\":11161:11175   */\n      add\n        /* \"#utility.yul\":11147:11159   */\n      dup3\n        /* \"#utility.yul\":11113:11176   */\n      tag_251\n      jump\t// in\n    tag_422:\n        /* \"#utility.yul\":10994:11186   */\n      pop\n        /* \"#utility.yul\":11258:11308   */\n      tag_423\n        /* \"#utility.yul\":11302:11306   */\n      0x20\n        /* \"#utility.yul\":11295:11300   */\n      dup5\n        /* \"#utility.yul\":11291:11307   */\n      add\n        /* \"#utility.yul\":11284:11289   */\n      dup5\n        /* \"#utility.yul\":11258:11308   */\n      tag_252\n      jump\t// in\n    tag_423:\n        /* \"#utility.yul\":11321:11384   */\n      tag_424\n        /* \"#utility.yul\":11378:11382   */\n      0x20\n        /* \"#utility.yul\":11373:11376   */\n      dup7\n        /* \"#utility.yul\":11369:11383   */\n      add\n        /* \"#utility.yul\":11355:11367   */\n      dup3\n        /* \"#utility.yul\":11321:11384   */\n      tag_253\n      jump\t// in\n    tag_424:\n        /* \"#utility.yul\":11196:11394   */\n      pop\n        /* \"#utility.yul\":11464:11514   */\n      tag_425\n        /* \"#utility.yul\":11508:11512   */\n      0x40\n        /* \"#utility.yul\":11501:11506   */\n      dup5\n        /* \"#utility.yul\":11497:11513   */\n      add\n        /* \"#utility.yul\":11490:11495   */\n      dup5\n        /* \"#utility.yul\":11464:11514   */\n      tag_252\n      jump\t// in\n    tag_425:\n        /* \"#utility.yul\":11527:11590   */\n      tag_426\n        /* \"#utility.yul\":11584:11588   */\n      0x40\n        /* \"#utility.yul\":11579:11582   */\n      dup7\n        /* \"#utility.yul\":11575:11589   */\n      add\n        /* \"#utility.yul\":11561:11573   */\n      dup3\n        /* \"#utility.yul\":11527:11590   */\n      tag_253\n      jump\t// in\n    tag_426:\n        /* \"#utility.yul\":11404:11600   */\n      pop\n        /* \"#utility.yul\":11668:11718   */\n      tag_427\n        /* \"#utility.yul\":11712:11716   */\n      0x60\n        /* \"#utility.yul\":11705:11710   */\n      dup5\n        /* \"#utility.yul\":11701:11717   */\n      add\n        /* \"#utility.yul\":11694:11699   */\n      dup5\n        /* \"#utility.yul\":11668:11718   */\n      tag_250\n      jump\t// in\n    tag_427:\n        /* \"#utility.yul\":11731:11794   */\n      tag_428\n        /* \"#utility.yul\":11788:11792   */\n      0x60\n        /* \"#utility.yul\":11783:11786   */\n      dup7\n        /* \"#utility.yul\":11779:11793   */\n      add\n        /* \"#utility.yul\":11765:11777   */\n      dup3\n        /* \"#utility.yul\":11731:11794   */\n      tag_251\n      jump\t// in\n    tag_428:\n        /* \"#utility.yul\":11610:11804   */\n      pop\n        /* \"#utility.yul\":11883:11944   */\n      tag_429\n        /* \"#utility.yul\":11938:11942   */\n      0x80\n        /* \"#utility.yul\":11931:11936   */\n      dup5\n        /* \"#utility.yul\":11927:11943   */\n      add\n        /* \"#utility.yul\":11920:11925   */\n      dup5\n        /* \"#utility.yul\":11883:11944   */\n      tag_257\n      jump\t// in\n    tag_429:\n        /* \"#utility.yul\":11991:11994   */\n      dup6\n        /* \"#utility.yul\":11985:11989   */\n      dup4\n        /* \"#utility.yul\":11981:11995   */\n      sub\n        /* \"#utility.yul\":11974:11978   */\n      0x80\n        /* \"#utility.yul\":11969:11972   */\n      dup8\n        /* \"#utility.yul\":11965:11979   */\n      add\n        /* \"#utility.yul\":11958:11996   */\n      mstore\n        /* \"#utility.yul\":12017:12104   */\n      tag_430\n        /* \"#utility.yul\":12099:12103   */\n      dup4\n        /* \"#utility.yul\":12085:12097   */\n      dup3\n        /* \"#utility.yul\":12071:12083   */\n      dup5\n        /* \"#utility.yul\":12017:12104   */\n      tag_259\n      jump\t// in\n    tag_430:\n        /* \"#utility.yul\":12009:12104   */\n      swap3\n      pop\n        /* \"#utility.yul\":11814:12115   */\n      pop\n      pop\n        /* \"#utility.yul\":12182:12232   */\n      tag_431\n        /* \"#utility.yul\":12226:12230   */\n      0xa0\n        /* \"#utility.yul\":12219:12224   */\n      dup5\n        /* \"#utility.yul\":12215:12231   */\n      add\n        /* \"#utility.yul\":12208:12213   */\n      dup5\n        /* \"#utility.yul\":12182:12232   */\n      tag_250\n      jump\t// in\n    tag_431:\n        /* \"#utility.yul\":12245:12308   */\n      tag_432\n        /* \"#utility.yul\":12302:12306   */\n      0xa0\n        /* \"#utility.yul\":12297:12300   */\n      dup7\n        /* \"#utility.yul\":12293:12307   */\n      add\n        /* \"#utility.yul\":12279:12291   */\n      dup3\n        /* \"#utility.yul\":12245:12308   */\n      tag_251\n      jump\t// in\n    tag_432:\n        /* \"#utility.yul\":12125:12318   */\n      pop\n        /* \"#utility.yul\":12335:12339   */\n      dup1\n        /* \"#utility.yul\":12328:12339   */\n      swap2\n      pop\n        /* \"#utility.yul\":10948:12345   */\n      pop\n        /* \"#utility.yul\":10820:12345   */\n      swap3\n      swap2\n      pop\n      pop\n      jump\t// out\n        /* \"#utility.yul\":12351:12732   */\n    tag_55:\n        /* \"#utility.yul\":12498:12502   */\n      0x00\n        /* \"#utility.yul\":12536:12538   */\n      0x20\n        /* \"#utility.yul\":12525:12534   */\n      dup3\n        /* \"#utility.yul\":12521:12539   */\n      add\n        /* \"#utility.yul\":12513:12539   */\n      swap1\n      pop\n        /* \"#utility.yul\":12585:12594   */\n      dup2\n        /* \"#utility.yul\":12579:12583   */\n      dup2\n        /* \"#utility.yul\":12575:12595   */\n      sub\n        /* \"#utility.yul\":12571:12572   */\n      0x00\n        /* \"#utility.yul\":12560:12569   */\n      dup4\n        /* \"#utility.yul\":12556:12573   */\n      add\n        /* \"#utility.yul\":12549:12596   */\n      mstore\n        /* \"#utility.yul\":12613:12725   */\n      tag_434\n        /* \"#utility.yul\":12720:12724   */\n      dup2\n        /* \"#utility.yul\":12711:12717   */\n      dup5\n        /* \"#utility.yul\":12613:12725   */\n      tag_260\n      jump\t// in\n    tag_434:\n        /* \"#utility.yul\":12605:12725   */\n      swap1\n      pop\n        /* \"#utility.yul\":12351:12732   */\n      swap3\n      swap2\n      pop\n      pop\n      jump\t// out\n        /* \"#utility.yul\":12738:12918   */\n    tag_261:\n        /* \"#utility.yul\":12786:12863   */\n      0x4e487b7100000000000000000000000000000000000000000000000000000000\n        /* \"#utility.yul\":12783:12784   */\n      0x00\n        /* \"#utility.yul\":12776:12864   */\n      mstore\n        /* \"#utility.yul\":12883:12887   */\n      0x11\n        /* \"#utility.yul\":12880:12881   */\n      0x04\n        /* \"#utility.yul\":12873:12888   */\n      mstore\n        /* \"#utility.yul\":12907:12911   */\n      0x24\n        /* \"#utility.yul\":12904:12905   */\n      0x00\n        /* \"#utility.yul\":12897:12912   */\n      revert\n        /* \"#utility.yul\":12924:13118   */\n    tag_64:\n        /* \"#utility.yul\":12964:12968   */\n      0x00\n        /* \"#utility.yul\":12984:13004   */\n      tag_437\n        /* \"#utility.yul\":13002:13003   */\n      dup3\n        /* \"#utility.yul\":12984:13004   */\n      tag_228\n      jump\t// in\n    tag_437:\n        /* \"#utility.yul\":12979:13004   */\n      swap2\n      pop\n        /* \"#utility.yul\":13018:13038   */\n      tag_438\n        /* \"#utility.yul\":13036:13037   */\n      dup4\n        /* \"#utility.yul\":13018:13038   */\n      tag_228\n      jump\t// in\n    tag_438:\n        /* \"#utility.yul\":13013:13038   */\n      swap3\n      pop\n        /* \"#utility.yul\":13062:13063   */\n      dup3\n        /* \"#utility.yul\":13059:13060   */\n      dup3\n        /* \"#utility.yul\":13055:13064   */\n      sub\n        /* \"#utility.yul\":13047:13064   */\n      swap1\n      pop\n        /* \"#utility.yul\":13086:13087   */\n      dup2\n        /* \"#utility.yul\":13080:13084   */\n      dup2\n        /* \"#utility.yul\":13077:13088   */\n      gt\n        /* \"#utility.yul\":13074:13111   */\n      iszero\n      tag_439\n      jumpi\n        /* \"#utility.yul\":13091:13109   */\n      tag_440\n      tag_261\n      jump\t// in\n    tag_440:\n        /* \"#utility.yul\":13074:13111   */\n    tag_439:\n        /* \"#utility.yul\":12924:13118   */\n      swap3\n      swap2\n      pop\n      pop\n      jump\t// out\n        /* \"#utility.yul\":13124:13241   */\n    tag_262:\n        /* \"#utility.yul\":13233:13234   */\n      0x00\n        /* \"#utility.yul\":13230:13231   */\n      dup1\n        /* \"#utility.yul\":13223:13235   */\n      revert\n        /* \"#utility.yul\":13247:13364   */\n    tag_263:\n        /* \"#utility.yul\":13356:13357   */\n      0x00\n        /* \"#utility.yul\":13353:13354   */\n      dup1\n        /* \"#utility.yul\":13346:13358   */\n      revert\n        /* \"#utility.yul\":13370:13487   */\n    tag_264:\n        /* \"#utility.yul\":13479:13480   */\n      0x00\n        /* \"#utility.yul\":13476:13477   */\n      dup1\n        /* \"#utility.yul\":13469:13481   */\n      revert\n        /* \"#utility.yul\":13493:14217   */\n    tag_68:\n        /* \"#utility.yul\":13570:13574   */\n      0x00\n        /* \"#utility.yul\":13576:13582   */\n      dup1\n        /* \"#utility.yul\":13632:13643   */\n      dup4\n        /* \"#utility.yul\":13619:13644   */\n      calldataload\n        /* \"#utility.yul\":13732:13733   */\n      0x01\n        /* \"#utility.yul\":13726:13730   */\n      0x20\n        /* \"#utility.yul\":13722:13734   */\n      sub\n        /* \"#utility.yul\":13711:13719   */\n      dup5\n        /* \"#utility.yul\":13695:13709   */\n      calldatasize\n        /* \"#utility.yul\":13691:13720   */\n      sub\n        /* \"#utility.yul\":13687:13735   */\n      sub\n        /* \"#utility.yul\":13667:13685   */\n      dup2\n        /* \"#utility.yul\":13663:13736   */\n      slt\n        /* \"#utility.yul\":13653:13821   */\n      tag_445\n      jumpi\n        /* \"#utility.yul\":13740:13819   */\n      tag_446\n      tag_262\n      jump\t// in\n    tag_446:\n        /* \"#utility.yul\":13653:13821   */\n    tag_445:\n        /* \"#utility.yul\":13852:13870   */\n      dup1\n        /* \"#utility.yul\":13842:13850   */\n      dup5\n        /* \"#utility.yul\":13838:13871   */\n      add\n        /* \"#utility.yul\":13830:13871   */\n      swap3\n      pop\n        /* \"#utility.yul\":13904:13908   */\n      dup3\n        /* \"#utility.yul\":13891:13909   */\n      calldataload\n        /* \"#utility.yul\":13881:13909   */\n      swap2\n      pop\n        /* \"#utility.yul\":13932:13950   */\n      0xffffffffffffffff\n        /* \"#utility.yul\":13924:13930   */\n      dup3\n        /* \"#utility.yul\":13921:13951   */\n      gt\n        /* \"#utility.yul\":13918:14035   */\n      iszero\n      tag_447\n      jumpi\n        /* \"#utility.yul\":13954:14033   */\n      tag_448\n      tag_263\n      jump\t// in\n    tag_448:\n        /* \"#utility.yul\":13918:14035   */\n    tag_447:\n        /* \"#utility.yul\":14062:14064   */\n      0x20\n        /* \"#utility.yul\":14056:14060   */\n      dup4\n        /* \"#utility.yul\":14052:14065   */\n      add\n        /* \"#utility.yul\":14044:14065   */\n      swap3\n      pop\n        /* \"#utility.yul\":14119:14123   */\n      0x01\n        /* \"#utility.yul\":14111:14117   */\n      dup3\n        /* \"#utility.yul\":14107:14124   */\n      mul\n        /* \"#utility.yul\":14091:14105   */\n      calldatasize\n        /* \"#utility.yul\":14087:14125   */\n      sub\n        /* \"#utility.yul\":14081:14085   */\n      dup4\n        /* \"#utility.yul\":14077:14126   */\n      sgt\n        /* \"#utility.yul\":14074:14210   */\n      iszero\n      tag_449\n      jumpi\n        /* \"#utility.yul\":14129:14208   */\n      tag_450\n      tag_264\n      jump\t// in\n    tag_450:\n        /* \"#utility.yul\":14074:14210   */\n    tag_449:\n        /* \"#utility.yul\":13583:14217   */\n      pop\n        /* \"#utility.yul\":13493:14217   */\n      swap3\n      pop\n      swap3\n      swap1\n      pop\n      jump\t// out\n        /* \"#utility.yul\":14223:14398   */\n    tag_265:\n        /* \"#utility.yul\":14363:14390   */\n      0x696e73756666696369656e7420696e70757420616d6f756e7400000000000000\n        /* \"#utility.yul\":14359:14360   */\n      0x00\n        /* \"#utility.yul\":14351:14357   */\n      dup3\n        /* \"#utility.yul\":14347:14361   */\n      add\n        /* \"#utility.yul\":14340:14391   */\n      mstore\n        /* \"#utility.yul\":14223:14398   */\n      pop\n      jump\t// out\n        /* \"#utility.yul\":14404:14770   */\n    tag_266:\n        /* \"#utility.yul\":14546:14549   */\n      0x00\n        /* \"#utility.yul\":14567:14634   */\n      tag_453\n        /* \"#utility.yul\":14631:14633   */\n      0x19\n        /* \"#utility.yul\":14626:14629   */\n      dup4\n        /* \"#utility.yul\":14567:14634   */\n      tag_247\n      jump\t// in\n    tag_453:\n        /* \"#utility.yul\":14560:14634   */\n      swap2\n      pop\n        /* \"#utility.yul\":14643:14736   */\n      tag_454\n        /* \"#utility.yul\":14732:14735   */\n      dup3\n        /* \"#utility.yul\":14643:14736   */\n      tag_265\n      jump\t// in\n    tag_454:\n        /* \"#utility.yul\":14761:14763   */\n      0x20\n        /* \"#utility.yul\":14756:14759   */\n      dup3\n        /* \"#utility.yul\":14752:14764   */\n      add\n        /* \"#utility.yul\":14745:14764   */\n      swap1\n      pop\n        /* \"#utility.yul\":14404:14770   */\n      swap2\n      swap1\n      pop\n      jump\t// out\n        /* \"#utility.yul\":14776:15195   */\n    tag_78:\n        /* \"#utility.yul\":14942:14946   */\n      0x00\n        /* \"#utility.yul\":14980:14982   */\n      0x20\n        /* \"#utility.yul\":14969:14978   */\n      dup3\n        /* \"#utility.yul\":14965:14983   */\n      add\n        /* \"#utility.yul\":14957:14983   */\n      swap1\n      pop\n        /* \"#utility.yul\":15029:15038   */\n      dup2\n        /* \"#utility.yul\":15023:15027   */\n      dup2\n        /* \"#utility.yul\":15019:15039   */\n      sub\n        /* \"#utility.yul\":15015:15016   */\n      0x00\n        /* \"#utility.yul\":15004:15013   */\n      dup4\n        /* \"#utility.yul\":15000:15017   */\n      add\n        /* \"#utility.yul\":14993:15040   */\n      mstore\n        /* \"#utility.yul\":15057:15188   */\n      tag_456\n        /* \"#utility.yul\":15183:15187   */\n      dup2\n        /* \"#utility.yul\":15057:15188   */\n      tag_266\n      jump\t// in\n    tag_456:\n        /* \"#utility.yul\":15049:15188   */\n      swap1\n      pop\n        /* \"#utility.yul\":14776:15195   */\n      swap2\n      swap1\n      pop\n      jump\t// out\n        /* \"#utility.yul\":15201:15426   */\n    tag_267:\n        /* \"#utility.yul\":15341:15375   */\n      0x4f776e61626c653a206e6577206f776e657220697320746865207a65726f2061\n        /* \"#utility.yul\":15337:15338   */\n      0x00\n        /* \"#utility.yul\":15329:15335   */\n      dup3\n        /* \"#utility.yul\":15325:15339   */\n      add\n        /* \"#utility.yul\":15318:15376   */\n      mstore\n        /* \"#utility.yul\":15410:15418   */\n      0x6464726573730000000000000000000000000000000000000000000000000000\n        /* \"#utility.yul\":15405:15407   */\n      0x20\n        /* \"#utility.yul\":15397:15403   */\n      dup3\n        /* \"#utility.yul\":15393:15408   */\n      add\n        /* \"#utility.yul\":15386:15419   */\n      mstore\n        /* \"#utility.yul\":15201:15426   */\n      pop\n      jump\t// out\n        /* \"#utility.yul\":15432:15798   */\n    tag_268:\n        /* \"#utility.yul\":15574:15577   */\n      0x00\n        /* \"#utility.yul\":15595:15662   */\n      tag_459\n        /* \"#utility.yul\":15659:15661   */\n      0x26\n        /* \"#utility.yul\":15654:15657   */\n      dup4\n        /* \"#utility.yul\":15595:15662   */\n      tag_247\n      jump\t// in\n    tag_459:\n        /* \"#utility.yul\":15588:15662   */\n      swap2\n      pop\n        /* \"#utility.yul\":15671:15764   */\n      tag_460\n        /* \"#utility.yul\":15760:15763   */\n      dup3\n        /* \"#utility.yul\":15671:15764   */\n      tag_267\n      jump\t// in\n    tag_460:\n        /* \"#utility.yul\":15789:15791   */\n      0x40\n        /* \"#utility.yul\":15784:15787   */\n      dup3\n        /* \"#utility.yul\":15780:15792   */\n      add\n        /* \"#utility.yul\":15773:15792   */\n      swap1\n      pop\n        /* \"#utility.yul\":15432:15798   */\n      swap2\n      swap1\n      pop\n      jump\t// out\n        /* \"#utility.yul\":15804:16223   */\n    tag_103:\n        /* \"#utility.yul\":15970:15974   */\n      0x00\n        /* \"#utility.yul\":16008:16010   */\n      0x20\n        /* \"#utility.yul\":15997:16006   */\n      dup3\n        /* \"#utility.yul\":15993:16011   */\n      add\n        /* \"#utility.yul\":15985:16011   */\n      swap1\n      pop\n        /* \"#utility.yul\":16057:16066   */\n      dup2\n        /* \"#utility.yul\":16051:16055   */\n      dup2\n        /* \"#utility.yul\":16047:16067   */\n      sub\n        /* \"#utility.yul\":16043:16044   */\n      0x00\n        /* \"#utility.yul\":16032:16041   */\n      dup4\n        /* \"#utility.yul\":16028:16045   */\n      add\n        /* \"#utility.yul\":16021:16068   */\n      mstore\n        /* \"#utility.yul\":16085:16216   */\n      tag_462\n        /* \"#utility.yul\":16211:16215   */\n      dup2\n        /* \"#utility.yul\":16085:16216   */\n      tag_268\n      jump\t// in\n    tag_462:\n        /* \"#utility.yul\":16077:16216   */\n      swap1\n      pop\n        /* \"#utility.yul\":15804:16223   */\n      swap2\n      swap1\n      pop\n      jump\t// out\n        /* \"#utility.yul\":16229:16347   */\n    tag_269:\n        /* \"#utility.yul\":16316:16340   */\n      tag_464\n        /* \"#utility.yul\":16334:16339   */\n      dup2\n        /* \"#utility.yul\":16316:16340   */\n      tag_228\n      jump\t// in\n    tag_464:\n        /* \"#utility.yul\":16311:16314   */\n      dup3\n        /* \"#utility.yul\":16304:16341   */\n      mstore\n        /* \"#utility.yul\":16229:16347   */\n      pop\n      pop\n      jump\t// out\n        /* \"#utility.yul\":16353:16685   */\n    tag_108:\n        /* \"#utility.yul\":16474:16478   */\n      0x00\n        /* \"#utility.yul\":16512:16514   */\n      0x40\n        /* \"#utility.yul\":16501:16510   */\n      dup3\n        /* \"#utility.yul\":16497:16515   */\n      add\n        /* \"#utility.yul\":16489:16515   */\n      swap1\n      pop\n        /* \"#utility.yul\":16525:16596   */\n      tag_466\n        /* \"#utility.yul\":16593:16594   */\n      0x00\n        /* \"#utility.yul\":16582:16591   */\n      dup4\n        /* \"#utility.yul\":16578:16595   */\n      add\n        /* \"#utility.yul\":16569:16575   */\n      dup6\n        /* \"#utility.yul\":16525:16596   */\n      tag_237\n      jump\t// in\n    tag_466:\n        /* \"#utility.yul\":16606:16678   */\n      tag_467\n        /* \"#utility.yul\":16674:16676   */\n      0x20\n        /* \"#utility.yul\":16663:16672   */\n      dup4\n        /* \"#utility.yul\":16659:16677   */\n      add\n        /* \"#utility.yul\":16650:16656   */\n      dup5\n        /* \"#utility.yul\":16606:16678   */\n      tag_269\n      jump\t// in\n    tag_467:\n        /* \"#utility.yul\":16353:16685   */\n      swap4\n      swap3\n      pop\n      pop\n      pop\n      jump\t// out\n        /* \"#utility.yul\":16691:16789   */\n    tag_270:\n        /* \"#utility.yul\":16742:16748   */\n      0x00\n        /* \"#utility.yul\":16776:16781   */\n      dup2\n        /* \"#utility.yul\":16770:16782   */\n      mload\n        /* \"#utility.yul\":16760:16782   */\n      swap1\n      pop\n        /* \"#utility.yul\":16691:16789   */\n      swap2\n      swap1\n      pop\n      jump\t// out\n        /* \"#utility.yul\":16795:16942   */\n    tag_271:\n        /* \"#utility.yul\":16896:16907   */\n      0x00\n        /* \"#utility.yul\":16933:16936   */\n      dup2\n        /* \"#utility.yul\":16918:16936   */\n      swap1\n      pop\n        /* \"#utility.yul\":16795:16942   */\n      swap3\n      swap2\n      pop\n      pop\n      jump\t// out\n        /* \"#utility.yul\":16948:17194   */\n    tag_272:\n        /* \"#utility.yul\":17029:17030   */\n      0x00\n        /* \"#utility.yul\":17039:17152   */\n    tag_471:\n        /* \"#utility.yul\":17053:17059   */\n      dup4\n        /* \"#utility.yul\":17050:17051   */\n      dup2\n        /* \"#utility.yul\":17047:17060   */\n      lt\n        /* \"#utility.yul\":17039:17152   */\n      iszero\n      tag_473\n      jumpi\n        /* \"#utility.yul\":17138:17139   */\n      dup1\n        /* \"#utility.yul\":17133:17136   */\n      dup3\n        /* \"#utility.yul\":17129:17140   */\n      add\n        /* \"#utility.yul\":17123:17141   */\n      mload\n        /* \"#utility.yul\":17119:17120   */\n      dup2\n        /* \"#utility.yul\":17114:17117   */\n      dup5\n        /* \"#utility.yul\":17110:17121   */\n      add\n        /* \"#utility.yul\":17103:17142   */\n      mstore\n        /* \"#utility.yul\":17075:17077   */\n      0x20\n        /* \"#utility.yul\":17072:17073   */\n      dup2\n        /* \"#utility.yul\":17068:17078   */\n      add\n        /* \"#utility.yul\":17063:17078   */\n      swap1\n      pop\n        /* \"#utility.yul\":17039:17152   */\n      jump(tag_471)\n    tag_473:\n        /* \"#utility.yul\":17186:17187   */\n      0x00\n        /* \"#utility.yul\":17177:17183   */\n      dup5\n        /* \"#utility.yul\":17172:17175   */\n      dup5\n        /* \"#utility.yul\":17168:17184   */\n      add\n        /* \"#utility.yul\":17161:17188   */\n      mstore\n        /* \"#utility.yul\":17010:17194   */\n      pop\n        /* \"#utility.yul\":16948:17194   */\n      pop\n      pop\n      pop\n      jump\t// out\n        /* \"#utility.yul\":17200:17586   */\n    tag_273:\n        /* \"#utility.yul\":17304:17307   */\n      0x00\n        /* \"#utility.yul\":17332:17370   */\n      tag_475\n        /* \"#utility.yul\":17364:17369   */\n      dup3\n        /* \"#utility.yul\":17332:17370   */\n      tag_270\n      jump\t// in\n    tag_475:\n        /* \"#utility.yul\":17386:17474   */\n      tag_476\n        /* \"#utility.yul\":17467:17473   */\n      dup2\n        /* \"#utility.yul\":17462:17465   */\n      dup6\n        /* \"#utility.yul\":17386:17474   */\n      tag_271\n      jump\t// in\n    tag_476:\n        /* \"#utility.yul\":17379:17474   */\n      swap4\n      pop\n        /* \"#utility.yul\":17483:17548   */\n      tag_477\n        /* \"#utility.yul\":17541:17547   */\n      dup2\n        /* \"#utility.yul\":17536:17539   */\n      dup6\n        /* \"#utility.yul\":17529:17533   */\n      0x20\n        /* \"#utility.yul\":17522:17527   */\n      dup7\n        /* \"#utility.yul\":17518:17534   */\n      add\n        /* \"#utility.yul\":17483:17548   */\n      tag_272\n      jump\t// in\n    tag_477:\n        /* \"#utility.yul\":17573:17579   */\n      dup1\n        /* \"#utility.yul\":17568:17571   */\n      dup5\n        /* \"#utility.yul\":17564:17580   */\n      add\n        /* \"#utility.yul\":17557:17580   */\n      swap2\n      pop\n        /* \"#utility.yul\":17308:17586   */\n      pop\n        /* \"#utility.yul\":17200:17586   */\n      swap3\n      swap2\n      pop\n      pop\n      jump\t// out\n        /* \"#utility.yul\":17592:17863   */\n    tag_110:\n        /* \"#utility.yul\":17722:17725   */\n      0x00\n        /* \"#utility.yul\":17744:17837   */\n      tag_479\n        /* \"#utility.yul\":17833:17836   */\n      dup3\n        /* \"#utility.yul\":17824:17830   */\n      dup5\n        /* \"#utility.yul\":17744:17837   */\n      tag_273\n      jump\t// in\n    tag_479:\n        /* \"#utility.yul\":17737:17837   */\n      swap2\n      pop\n        /* \"#utility.yul\":17854:17857   */\n      dup2\n        /* \"#utility.yul\":17847:17857   */\n      swap1\n      pop\n        /* \"#utility.yul\":17592:17863   */\n      swap3\n      swap2\n      pop\n      pop\n      jump\t// out\n        /* \"#utility.yul\":17869:17959   */\n    tag_274:\n        /* \"#utility.yul\":17903:17910   */\n      0x00\n        /* \"#utility.yul\":17946:17951   */\n      dup2\n        /* \"#utility.yul\":17939:17952   */\n      iszero\n        /* \"#utility.yul\":17932:17953   */\n      iszero\n        /* \"#utility.yul\":17921:17953   */\n      swap1\n      pop\n        /* \"#utility.yul\":17869:17959   */\n      swap2\n      swap1\n      pop\n      jump\t// out\n        /* \"#utility.yul\":17965:18081   */\n    tag_275:\n        /* \"#utility.yul\":18035:18056   */\n      tag_482\n        /* \"#utility.yul\":18050:18055   */\n      dup2\n        /* \"#utility.yul\":18035:18056   */\n      tag_274\n      jump\t// in\n    tag_482:\n        /* \"#utility.yul\":18028:18033   */\n      dup2\n        /* \"#utility.yul\":18025:18057   */\n      eq\n        /* \"#utility.yul\":18015:18075   */\n      tag_483\n      jumpi\n        /* \"#utility.yul\":18071:18072   */\n      0x00\n        /* \"#utility.yul\":18068:18069   */\n      dup1\n        /* \"#utility.yul\":18061:18073   */\n      revert\n        /* \"#utility.yul\":18015:18075   */\n    tag_483:\n        /* \"#utility.yul\":17965:18081   */\n      pop\n      jump\t// out\n        /* \"#utility.yul\":18087:18224   */\n    tag_276:\n        /* \"#utility.yul\":18141:18146   */\n      0x00\n        /* \"#utility.yul\":18172:18178   */\n      dup2\n        /* \"#utility.yul\":18166:18179   */\n      mload\n        /* \"#utility.yul\":18157:18179   */\n      swap1\n      pop\n        /* \"#utility.yul\":18188:18218   */\n      tag_485\n        /* \"#utility.yul\":18212:18217   */\n      dup2\n        /* \"#utility.yul\":18188:18218   */\n      tag_275\n      jump\t// in\n    tag_485:\n        /* \"#utility.yul\":18087:18224   */\n      swap3\n      swap2\n      pop\n      pop\n      jump\t// out\n        /* \"#utility.yul\":18230:18575   */\n    tag_117:\n        /* \"#utility.yul\":18297:18303   */\n      0x00\n        /* \"#utility.yul\":18346:18348   */\n      0x20\n        /* \"#utility.yul\":18334:18343   */\n      dup3\n        /* \"#utility.yul\":18325:18332   */\n      dup5\n        /* \"#utility.yul\":18321:18344   */\n      sub\n        /* \"#utility.yul\":18317:18349   */\n      slt\n        /* \"#utility.yul\":18314:18433   */\n      iszero\n      tag_487\n      jumpi\n        /* \"#utility.yul\":18352:18431   */\n      tag_488\n      tag_222\n      jump\t// in\n    tag_488:\n        /* \"#utility.yul\":18314:18433   */\n    tag_487:\n        /* \"#utility.yul\":18472:18473   */\n      0x00\n        /* \"#utility.yul\":18497:18558   */\n      tag_489\n        /* \"#utility.yul\":18550:18557   */\n      dup5\n        /* \"#utility.yul\":18541:18547   */\n      dup3\n        /* \"#utility.yul\":18530:18539   */\n      dup6\n        /* \"#utility.yul\":18526:18548   */\n      add\n        /* \"#utility.yul\":18497:18558   */\n      tag_276\n      jump\t// in\n    tag_489:\n        /* \"#utility.yul\":18487:18558   */\n      swap2\n      pop\n        /* \"#utility.yul\":18443:18568   */\n      pop\n        /* \"#utility.yul\":18230:18575   */\n      swap3\n      swap2\n      pop\n      pop\n      jump\t// out\n        /* \"#utility.yul\":18581:18811   */\n    tag_277:\n        /* \"#utility.yul\":18721:18755   */\n      0x5472616e7366657248656c7065723a3a73616665417070726f76653a20617070\n        /* \"#utility.yul\":18717:18718   */\n      0x00\n        /* \"#utility.yul\":18709:18715   */\n      dup3\n        /* \"#utility.yul\":18705:18719   */\n      add\n        /* \"#utility.yul\":18698:18756   */\n      mstore\n        /* \"#utility.yul\":18790:18803   */\n      0x726f7665206661696c6564000000000000000000000000000000000000000000\n        /* \"#utility.yul\":18785:18787   */\n      0x20\n        /* \"#utility.yul\":18777:18783   */\n      dup3\n        /* \"#utility.yul\":18773:18788   */\n      add\n        /* \"#utility.yul\":18766:18804   */\n      mstore\n        /* \"#utility.yul\":18581:18811   */\n      pop\n      jump\t// out\n        /* \"#utility.yul\":18817:19183   */\n    tag_278:\n        /* \"#utility.yul\":18959:18962   */\n      0x00\n        /* \"#utility.yul\":18980:19047   */\n      tag_492\n        /* \"#utility.yul\":19044:19046   */\n      0x2b\n        /* \"#utility.yul\":19039:19042   */\n      dup4\n        /* \"#utility.yul\":18980:19047   */\n      tag_247\n      jump\t// in\n    tag_492:\n        /* \"#utility.yul\":18973:19047   */\n      swap2\n      pop\n        /* \"#utility.yul\":19056:19149   */\n      tag_493\n        /* \"#utility.yul\":19145:19148   */\n      dup3\n        /* \"#utility.yul\":19056:19149   */\n      tag_277\n      jump\t// in\n    tag_493:\n        /* \"#utility.yul\":19174:19176   */\n      0x40\n        /* \"#utility.yul\":19169:19172   */\n      dup3\n        /* \"#utility.yul\":19165:19177   */\n      add\n        /* \"#utility.yul\":19158:19177   */\n      swap1\n      pop\n        /* \"#utility.yul\":18817:19183   */\n      swap2\n      swap1\n      pop\n      jump\t// out\n        /* \"#utility.yul\":19189:19608   */\n    tag_120:\n        /* \"#utility.yul\":19355:19359   */\n      0x00\n        /* \"#utility.yul\":19393:19395   */\n      0x20\n        /* \"#utility.yul\":19382:19391   */\n      dup3\n        /* \"#utility.yul\":19378:19396   */\n      add\n        /* \"#utility.yul\":19370:19396   */\n      swap1\n      pop\n        /* \"#utility.yul\":19442:19451   */\n      dup2\n        /* \"#utility.yul\":19436:19440   */\n      dup2\n        /* \"#utility.yul\":19432:19452   */\n      sub\n        /* \"#utility.yul\":19428:19429   */\n      0x00\n        /* \"#utility.yul\":19417:19426   */\n      dup4\n        /* \"#utility.yul\":19413:19430   */\n      add\n        /* \"#utility.yul\":19406:19453   */\n      mstore\n        /* \"#utility.yul\":19470:19601   */\n      tag_495\n        /* \"#utility.yul\":19596:19600   */\n      dup2\n        /* \"#utility.yul\":19470:19601   */\n      tag_278\n      jump\t// in\n    tag_495:\n        /* \"#utility.yul\":19462:19601   */\n      swap1\n      pop\n        /* \"#utility.yul\":19189:19608   */\n      swap2\n      swap1\n      pop\n      jump\t// out\n        /* \"#utility.yul\":19614:19794   */\n    tag_124:\n        /* \"#utility.yul\":19662:19739   */\n      0x4e487b7100000000000000000000000000000000000000000000000000000000\n        /* \"#utility.yul\":19659:19660   */\n      0x00\n        /* \"#utility.yul\":19652:19740   */\n      mstore\n        /* \"#utility.yul\":19759:19763   */\n      0x32\n        /* \"#utility.yul\":19756:19757   */\n      0x04\n        /* \"#utility.yul\":19749:19764   */\n      mstore\n        /* \"#utility.yul\":19783:19787   */\n      0x24\n        /* \"#utility.yul\":19780:19781   */\n      0x00\n        /* \"#utility.yul\":19773:19788   */\n      revert\n        /* \"#utility.yul\":19800:19963   */\n    tag_279:\n        /* \"#utility.yul\":19940:19955   */\n      0x646174612074616d706572656400000000000000000000000000000000000000\n        /* \"#utility.yul\":19936:19937   */\n      0x00\n        /* \"#utility.yul\":19928:19934   */\n      dup3\n        /* \"#utility.yul\":19924:19938   */\n      add\n        /* \"#utility.yul\":19917:19956   */\n      mstore\n        /* \"#utility.yul\":19800:19963   */\n      pop\n      jump\t// out\n        /* \"#utility.yul\":19969:20335   */\n    tag_280:\n        /* \"#utility.yul\":20111:20114   */\n      0x00\n        /* \"#utility.yul\":20132:20199   */\n      tag_499\n        /* \"#utility.yul\":20196:20198   */\n      0x0d\n        /* \"#utility.yul\":20191:20194   */\n      dup4\n        /* \"#utility.yul\":20132:20199   */\n      tag_247\n      jump\t// in\n    tag_499:\n        /* \"#utility.yul\":20125:20199   */\n      swap2\n      pop\n        /* \"#utility.yul\":20208:20301   */\n      tag_500\n        /* \"#utility.yul\":20297:20300   */\n      dup3\n        /* \"#utility.yul\":20208:20301   */\n      tag_279\n      jump\t// in\n    tag_500:\n        /* \"#utility.yul\":20326:20328   */\n      0x20\n        /* \"#utility.yul\":20321:20324   */\n      dup3\n        /* \"#utility.yul\":20317:20329   */\n      add\n        /* \"#utility.yul\":20310:20329   */\n      swap1\n      pop\n        /* \"#utility.yul\":19969:20335   */\n      swap2\n      swap1\n      pop\n      jump\t// out\n        /* \"#utility.yul\":20341:20760   */\n    tag_136:\n        /* \"#utility.yul\":20507:20511   */\n      0x00\n        /* \"#utility.yul\":20545:20547   */\n      0x20\n        /* \"#utility.yul\":20534:20543   */\n      dup3\n        /* \"#utility.yul\":20530:20548   */\n      add\n        /* \"#utility.yul\":20522:20548   */\n      swap1\n      pop\n        /* \"#utility.yul\":20594:20603   */\n      dup2\n        /* \"#utility.yul\":20588:20592   */\n      dup2\n        /* \"#utility.yul\":20584:20604   */\n      sub\n        /* \"#utility.yul\":20580:20581   */\n      0x00\n        /* \"#utility.yul\":20569:20578   */\n      dup4\n        /* \"#utility.yul\":20565:20582   */\n      add\n        /* \"#utility.yul\":20558:20605   */\n      mstore\n        /* \"#utility.yul\":20622:20753   */\n      tag_502\n        /* \"#utility.yul\":20748:20752   */\n      dup2\n        /* \"#utility.yul\":20622:20753   */\n      tag_280\n      jump\t// in\n    tag_502:\n        /* \"#utility.yul\":20614:20753   */\n      swap1\n      pop\n        /* \"#utility.yul\":20341:20760   */\n      swap2\n      swap1\n      pop\n      jump\t// out\n        /* \"#utility.yul\":20766:21208   */\n    tag_139:\n        /* \"#utility.yul\":20915:20919   */\n      0x00\n        /* \"#utility.yul\":20953:20955   */\n      0x60\n        /* \"#utility.yul\":20942:20951   */\n      dup3\n        /* \"#utility.yul\":20938:20956   */\n      add\n        /* \"#utility.yul\":20930:20956   */\n      swap1\n      pop\n        /* \"#utility.yul\":20966:21037   */\n      tag_504\n        /* \"#utility.yul\":21034:21035   */\n      0x00\n        /* \"#utility.yul\":21023:21032   */\n      dup4\n        /* \"#utility.yul\":21019:21036   */\n      add\n        /* \"#utility.yul\":21010:21016   */\n      dup7\n        /* \"#utility.yul\":20966:21037   */\n      tag_237\n      jump\t// in\n    tag_504:\n        /* \"#utility.yul\":21047:21119   */\n      tag_505\n        /* \"#utility.yul\":21115:21117   */\n      0x20\n        /* \"#utility.yul\":21104:21113   */\n      dup4\n        /* \"#utility.yul\":21100:21118   */\n      add\n        /* \"#utility.yul\":21091:21097   */\n      dup6\n        /* \"#utility.yul\":21047:21119   */\n      tag_237\n      jump\t// in\n    tag_505:\n        /* \"#utility.yul\":21129:21201   */\n      tag_506\n        /* \"#utility.yul\":21197:21199   */\n      0x40\n        /* \"#utility.yul\":21186:21195   */\n      dup4\n        /* \"#utility.yul\":21182:21200   */\n      add\n        /* \"#utility.yul\":21173:21179   */\n      dup5\n        /* \"#utility.yul\":21129:21201   */\n      tag_269\n      jump\t// in\n    tag_506:\n        /* \"#utility.yul\":20766:21208   */\n      swap5\n      swap4\n      pop\n      pop\n      pop\n      pop\n      jump\t// out\n        /* \"#utility.yul\":21214:21450   */\n    tag_281:\n        /* \"#utility.yul\":21354:21388   */\n      0x5472616e7366657248656c7065723a3a7472616e7366657246726f6d3a207472\n        /* \"#utility.yul\":21350:21351   */\n      0x00\n        /* \"#utility.yul\":21342:21348   */\n      dup3\n        /* \"#utility.yul\":21338:21352   */\n      add\n        /* \"#utility.yul\":21331:21389   */\n      mstore\n        /* \"#utility.yul\":21423:21442   */\n      0x616e7366657246726f6d206661696c6564000000000000000000000000000000\n        /* \"#utility.yul\":21418:21420   */\n      0x20\n        /* \"#utility.yul\":21410:21416   */\n      dup3\n        /* \"#utility.yul\":21406:21421   */\n      add\n        /* \"#utility.yul\":21399:21443   */\n      mstore\n        /* \"#utility.yul\":21214:21450   */\n      pop\n      jump\t// out\n        /* \"#utility.yul\":21456:21822   */\n    tag_282:\n        /* \"#utility.yul\":21598:21601   */\n      0x00\n        /* \"#utility.yul\":21619:21686   */\n      tag_509\n        /* \"#utility.yul\":21683:21685   */\n      0x31\n        /* \"#utility.yul\":21678:21681   */\n      dup4\n        /* \"#utility.yul\":21619:21686   */\n      tag_247\n      jump\t// in\n    tag_509:\n        /* \"#utility.yul\":21612:21686   */\n      swap2\n      pop\n        /* \"#utility.yul\":21695:21788   */\n      tag_510\n        /* \"#utility.yul\":21784:21787   */\n      dup3\n        /* \"#utility.yul\":21695:21788   */\n      tag_281\n      jump\t// in\n    tag_510:\n        /* \"#utility.yul\":21813:21815   */\n      0x40\n        /* \"#utility.yul\":21808:21811   */\n      dup3\n        /* \"#utility.yul\":21804:21816   */\n      add\n        /* \"#utility.yul\":21797:21816   */\n      swap1\n      pop\n        /* \"#utility.yul\":21456:21822   */\n      swap2\n      swap1\n      pop\n      jump\t// out\n        /* \"#utility.yul\":21828:22247   */\n    tag_149:\n        /* \"#utility.yul\":21994:21998   */\n      0x00\n        /* \"#utility.yul\":22032:22034   */\n      0x20\n        /* \"#utility.yul\":22021:22030   */\n      dup3\n        /* \"#utility.yul\":22017:22035   */\n      add\n        /* \"#utility.yul\":22009:22035   */\n      swap1\n      pop\n        /* \"#utility.yul\":22081:22090   */\n      dup2\n        /* \"#utility.yul\":22075:22079   */\n      dup2\n        /* \"#utility.yul\":22071:22091   */\n      sub\n        /* \"#utility.yul\":22067:22068   */\n      0x00\n        /* \"#utility.yul\":22056:22065   */\n      dup4\n        /* \"#utility.yul\":22052:22069   */\n      add\n        /* \"#utility.yul\":22045:22092   */\n      mstore\n        /* \"#utility.yul\":22109:22240   */\n      tag_512\n        /* \"#utility.yul\":22235:22239   */\n      dup2\n        /* \"#utility.yul\":22109:22240   */\n      tag_282\n      jump\t// in\n    tag_512:\n        /* \"#utility.yul\":22101:22240   */\n      swap1\n      pop\n        /* \"#utility.yul\":21828:22247   */\n      swap2\n      swap1\n      pop\n      jump\t// out\n        /* \"#utility.yul\":22253:22473   */\n    tag_283:\n        /* \"#utility.yul\":22393:22427   */\n      0x5361666543616c6c65723a3a7361666543616c6c3a2063616c6c206661696c65\n        /* \"#utility.yul\":22389:22390   */\n      0x00\n        /* \"#utility.yul\":22381:22387   */\n      dup3\n        /* \"#utility.yul\":22377:22391   */\n      add\n        /* \"#utility.yul\":22370:22428   */\n      mstore\n        /* \"#utility.yul\":22462:22465   */\n      0x6400000000000000000000000000000000000000000000000000000000000000\n        /* \"#utility.yul\":22457:22459   */\n      0x20\n        /* \"#utility.yul\":22449:22455   */\n      dup3\n        /* \"#utility.yul\":22445:22460   */\n      add\n        /* \"#utility.yul\":22438:22466   */\n      mstore\n        /* \"#utility.yul\":22253:22473   */\n      pop\n      jump\t// out\n        /* \"#utility.yul\":22479:22845   */\n    tag_284:\n        /* \"#utility.yul\":22621:22624   */\n      0x00\n        /* \"#utility.yul\":22642:22709   */\n      tag_515\n        /* \"#utility.yul\":22706:22708   */\n      0x21\n        /* \"#utility.yul\":22701:22704   */\n      dup4\n        /* \"#utility.yul\":22642:22709   */\n      tag_247\n      jump\t// in\n    tag_515:\n        /* \"#utility.yul\":22635:22709   */\n      swap2\n      pop\n        /* \"#utility.yul\":22718:22811   */\n      tag_516\n        /* \"#utility.yul\":22807:22810   */\n      dup3\n        /* \"#utility.yul\":22718:22811   */\n      tag_283\n      jump\t// in\n    tag_516:\n        /* \"#utility.yul\":22836:22838   */\n      0x40\n        /* \"#utility.yul\":22831:22834   */\n      dup3\n        /* \"#utility.yul\":22827:22839   */\n      add\n        /* \"#utility.yul\":22820:22839   */\n      swap1\n      pop\n        /* \"#utility.yul\":22479:22845   */\n      swap2\n      swap1\n      pop\n      jump\t// out\n        /* \"#utility.yul\":22851:23270   */\n    tag_158:\n        /* \"#utility.yul\":23017:23021   */\n      0x00\n        /* \"#utility.yul\":23055:23057   */\n      0x20\n        /* \"#utility.yul\":23044:23053   */\n      dup3\n        /* \"#utility.yul\":23040:23058   */\n      add\n        /* \"#utility.yul\":23032:23058   */\n      swap1\n      pop\n        /* \"#utility.yul\":23104:23113   */\n      dup2\n        /* \"#utility.yul\":23098:23102   */\n      dup2\n        /* \"#utility.yul\":23094:23114   */\n      sub\n        /* \"#utility.yul\":23090:23091   */\n      0x00\n        /* \"#utility.yul\":23079:23088   */\n      dup4\n        /* \"#utility.yul\":23075:23092   */\n      add\n        /* \"#utility.yul\":23068:23115   */\n      mstore\n        /* \"#utility.yul\":23132:23263   */\n      tag_518\n        /* \"#utility.yul\":23258:23262   */\n      dup2\n        /* \"#utility.yul\":23132:23263   */\n      tag_284\n      jump\t// in\n    tag_518:\n        /* \"#utility.yul\":23124:23263   */\n      swap1\n      pop\n        /* \"#utility.yul\":22851:23270   */\n      swap2\n      swap1\n      pop\n      jump\t// out\n        /* \"#utility.yul\":23276:23584   */\n    tag_285:\n        /* \"#utility.yul\":23338:23342   */\n      0x00\n        /* \"#utility.yul\":23428:23446   */\n      0xffffffffffffffff\n        /* \"#utility.yul\":23420:23426   */\n      dup3\n        /* \"#utility.yul\":23417:23447   */\n      gt\n        /* \"#utility.yul\":23414:23470   */\n      iszero\n      tag_520\n      jumpi\n        /* \"#utility.yul\":23450:23468   */\n      tag_521\n      tag_240\n      jump\t// in\n    tag_521:\n        /* \"#utility.yul\":23414:23470   */\n    tag_520:\n        /* \"#utility.yul\":23488:23517   */\n      tag_522\n        /* \"#utility.yul\":23510:23516   */\n      dup3\n        /* \"#utility.yul\":23488:23517   */\n      tag_239\n      jump\t// in\n    tag_522:\n        /* \"#utility.yul\":23480:23517   */\n      swap1\n      pop\n        /* \"#utility.yul\":23572:23576   */\n      0x20\n        /* \"#utility.yul\":23566:23570   */\n      dup2\n        /* \"#utility.yul\":23562:23577   */\n      add\n        /* \"#utility.yul\":23554:23577   */\n      swap1\n      pop\n        /* \"#utility.yul\":23276:23584   */\n      swap2\n      swap1\n      pop\n      jump\t// out\n        /* \"#utility.yul\":23590:24024   */\n    tag_286:\n        /* \"#utility.yul\":23679:23684   */\n      0x00\n        /* \"#utility.yul\":23704:23770   */\n      tag_524\n        /* \"#utility.yul\":23720:23769   */\n      tag_525\n        /* \"#utility.yul\":23762:23768   */\n      dup5\n        /* \"#utility.yul\":23720:23769   */\n      tag_285\n      jump\t// in\n    tag_525:\n        /* \"#utility.yul\":23704:23770   */\n      tag_242\n      jump\t// in\n    tag_524:\n        /* \"#utility.yul\":23695:23770   */\n      swap1\n      pop\n        /* \"#utility.yul\":23793:23799   */\n      dup3\n        /* \"#utility.yul\":23786:23791   */\n      dup2\n        /* \"#utility.yul\":23779:23800   */\n      mstore\n        /* \"#utility.yul\":23831:23835   */\n      0x20\n        /* \"#utility.yul\":23824:23829   */\n      dup2\n        /* \"#utility.yul\":23820:23836   */\n      add\n        /* \"#utility.yul\":23869:23872   */\n      dup5\n        /* \"#utility.yul\":23860:23866   */\n      dup5\n        /* \"#utility.yul\":23855:23858   */\n      dup5\n        /* \"#utility.yul\":23851:23867   */\n      add\n        /* \"#utility.yul\":23848:23873   */\n      gt\n        /* \"#utility.yul\":23845:23957   */\n      iszero\n      tag_526\n      jumpi\n        /* \"#utility.yul\":23876:23955   */\n      tag_527\n      tag_238\n      jump\t// in\n    tag_527:\n        /* \"#utility.yul\":23845:23957   */\n    tag_526:\n        /* \"#utility.yul\":23966:24018   */\n      tag_528\n        /* \"#utility.yul\":24011:24017   */\n      dup5\n        /* \"#utility.yul\":24006:24009   */\n      dup3\n        /* \"#utility.yul\":24001:24004   */\n      dup6\n        /* \"#utility.yul\":23966:24018   */\n      tag_272\n      jump\t// in\n    tag_528:\n        /* \"#utility.yul\":23685:24024   */\n      pop\n        /* \"#utility.yul\":23590:24024   */\n      swap4\n      swap3\n      pop\n      pop\n      pop\n      jump\t// out\n        /* \"#utility.yul\":24044:24399   */\n    tag_287:\n        /* \"#utility.yul\":24111:24116   */\n      0x00\n        /* \"#utility.yul\":24160:24163   */\n      dup3\n        /* \"#utility.yul\":24153:24157   */\n      0x1f\n        /* \"#utility.yul\":24145:24151   */\n      dup4\n        /* \"#utility.yul\":24141:24158   */\n      add\n        /* \"#utility.yul\":24137:24164   */\n      slt\n        /* \"#utility.yul\":24127:24249   */\n      tag_530\n      jumpi\n        /* \"#utility.yul\":24168:24247   */\n      tag_531\n      tag_233\n      jump\t// in\n    tag_531:\n        /* \"#utility.yul\":24127:24249   */\n    tag_530:\n        /* \"#utility.yul\":24278:24284   */\n      dup2\n        /* \"#utility.yul\":24272:24285   */\n      mload\n        /* \"#utility.yul\":24303:24393   */\n      tag_532\n        /* \"#utility.yul\":24389:24392   */\n      dup5\n        /* \"#utility.yul\":24381:24387   */\n      dup3\n        /* \"#utility.yul\":24374:24378   */\n      0x20\n        /* \"#utility.yul\":24366:24372   */\n      dup7\n        /* \"#utility.yul\":24362:24379   */\n      add\n        /* \"#utility.yul\":24303:24393   */\n      tag_286\n      jump\t// in\n    tag_532:\n        /* \"#utility.yul\":24294:24393   */\n      swap2\n      pop\n        /* \"#utility.yul\":24117:24399   */\n      pop\n        /* \"#utility.yul\":24044:24399   */\n      swap3\n      swap2\n      pop\n      pop\n      jump\t// out\n        /* \"#utility.yul\":24405:24929   */\n    tag_160:\n        /* \"#utility.yul\":24485:24491   */\n      0x00\n        /* \"#utility.yul\":24534:24536   */\n      0x20\n        /* \"#utility.yul\":24522:24531   */\n      dup3\n        /* \"#utility.yul\":24513:24520   */\n      dup5\n        /* \"#utility.yul\":24509:24532   */\n      sub\n        /* \"#utility.yul\":24505:24537   */\n      slt\n        /* \"#utility.yul\":24502:24621   */\n      iszero\n      tag_534\n      jumpi\n        /* \"#utility.yul\":24540:24619   */\n      tag_535\n      tag_222\n      jump\t// in\n    tag_535:\n        /* \"#utility.yul\":24502:24621   */\n    tag_534:\n        /* \"#utility.yul\":24681:24682   */\n      0x00\n        /* \"#utility.yul\":24670:24679   */\n      dup3\n        /* \"#utility.yul\":24666:24683   */\n      add\n        /* \"#utility.yul\":24660:24684   */\n      mload\n        /* \"#utility.yul\":24711:24729   */\n      0xffffffffffffffff\n        /* \"#utility.yul\":24703:24709   */\n      dup2\n        /* \"#utility.yul\":24700:24730   */\n      gt\n        /* \"#utility.yul\":24697:24814   */\n      iszero\n      tag_536\n      jumpi\n        /* \"#utility.yul\":24733:24812   */\n      tag_537\n      tag_223\n      jump\t// in\n    tag_537:\n        /* \"#utility.yul\":24697:24814   */\n    tag_536:\n        /* \"#utility.yul\":24838:24912   */\n      tag_538\n        /* \"#utility.yul\":24904:24911   */\n      dup5\n        /* \"#utility.yul\":24895:24901   */\n      dup3\n        /* \"#utility.yul\":24884:24893   */\n      dup6\n        /* \"#utility.yul\":24880:24902   */\n      add\n        /* \"#utility.yul\":24838:24912   */\n      tag_287\n      jump\t// in\n    tag_538:\n        /* \"#utility.yul\":24828:24912   */\n      swap2\n      pop\n        /* \"#utility.yul\":24631:24922   */\n      pop\n        /* \"#utility.yul\":24405:24929   */\n      swap3\n      swap2\n      pop\n      pop\n      jump\t// out\n        /* \"#utility.yul\":24935:25034   */\n    tag_288:\n        /* \"#utility.yul\":24987:24993   */\n      0x00\n        /* \"#utility.yul\":25021:25026   */\n      dup2\n        /* \"#utility.yul\":25015:25027   */\n      mload\n        /* \"#utility.yul\":25005:25027   */\n      swap1\n      pop\n        /* \"#utility.yul\":24935:25034   */\n      swap2\n      swap1\n      pop\n      jump\t// out\n        /* \"#utility.yul\":25040:25417   */\n    tag_289:\n        /* \"#utility.yul\":25128:25131   */\n      0x00\n        /* \"#utility.yul\":25156:25195   */\n      tag_541\n        /* \"#utility.yul\":25189:25194   */\n      dup3\n        /* \"#utility.yul\":25156:25195   */\n      tag_288\n      jump\t// in\n    tag_541:\n        /* \"#utility.yul\":25211:25282   */\n      tag_542\n        /* \"#utility.yul\":25275:25281   */\n      dup2\n        /* \"#utility.yul\":25270:25273   */\n      dup6\n        /* \"#utility.yul\":25211:25282   */\n      tag_247\n      jump\t// in\n    tag_542:\n        /* \"#utility.yul\":25204:25282   */\n      swap4\n      pop\n        /* \"#utility.yul\":25291:25356   */\n      tag_543\n        /* \"#utility.yul\":25349:25355   */\n      dup2\n        /* \"#utility.yul\":25344:25347   */\n      dup6\n        /* \"#utility.yul\":25337:25341   */\n      0x20\n        /* \"#utility.yul\":25330:25335   */\n      dup7\n        /* \"#utility.yul\":25326:25342   */\n      add\n        /* \"#utility.yul\":25291:25356   */\n      tag_272\n      jump\t// in\n    tag_543:\n        /* \"#utility.yul\":25381:25410   */\n      tag_544\n        /* \"#utility.yul\":25403:25409   */\n      dup2\n        /* \"#utility.yul\":25381:25410   */\n      tag_239\n      jump\t// in\n    tag_544:\n        /* \"#utility.yul\":25376:25379   */\n      dup5\n        /* \"#utility.yul\":25372:25411   */\n      add\n        /* \"#utility.yul\":25365:25411   */\n      swap2\n      pop\n        /* \"#utility.yul\":25132:25417   */\n      pop\n        /* \"#utility.yul\":25040:25417   */\n      swap3\n      swap2\n      pop\n      pop\n      jump\t// out\n        /* \"#utility.yul\":25423:25736   */\n    tag_162:\n        /* \"#utility.yul\":25536:25540   */\n      0x00\n        /* \"#utility.yul\":25574:25576   */\n      0x20\n        /* \"#utility.yul\":25563:25572   */\n      dup3\n        /* \"#utility.yul\":25559:25577   */\n      add\n        /* \"#utility.yul\":25551:25577   */\n      swap1\n      pop\n        /* \"#utility.yul\":25623:25632   */\n      dup2\n        /* \"#utility.yul\":25617:25621   */\n      dup2\n        /* \"#utility.yul\":25613:25633   */\n      sub\n        /* \"#utility.yul\":25609:25610   */\n      0x00\n        /* \"#utility.yul\":25598:25607   */\n      dup4\n        /* \"#utility.yul\":25594:25611   */\n      add\n        /* \"#utility.yul\":25587:25634   */\n      mstore\n        /* \"#utility.yul\":25651:25729   */\n      tag_546\n        /* \"#utility.yul\":25724:25728   */\n      dup2\n        /* \"#utility.yul\":25715:25721   */\n      dup5\n        /* \"#utility.yul\":25651:25729   */\n      tag_289\n      jump\t// in\n    tag_546:\n        /* \"#utility.yul\":25643:25729   */\n      swap1\n      pop\n        /* \"#utility.yul\":25423:25736   */\n      swap3\n      swap2\n      pop\n      pop\n      jump\t// out\n        /* \"#utility.yul\":25742:25924   */\n    tag_290:\n        /* \"#utility.yul\":25882:25916   */\n      0x4f776e61626c653a2063616c6c6572206973206e6f7420746865206f776e6572\n        /* \"#utility.yul\":25878:25879   */\n      0x00\n        /* \"#utility.yul\":25870:25876   */\n      dup3\n        /* \"#utility.yul\":25866:25880   */\n      add\n        /* \"#utility.yul\":25859:25917   */\n      mstore\n        /* \"#utility.yul\":25742:25924   */\n      pop\n      jump\t// out\n        /* \"#utility.yul\":25930:26296   */\n    tag_291:\n        /* \"#utility.yul\":26072:26075   */\n      0x00\n        /* \"#utility.yul\":26093:26160   */\n      tag_549\n        /* \"#utility.yul\":26157:26159   */\n      0x20\n        /* \"#utility.yul\":26152:26155   */\n      dup4\n        /* \"#utility.yul\":26093:26160   */\n      tag_247\n      jump\t// in\n    tag_549:\n        /* \"#utility.yul\":26086:26160   */\n      swap2\n      pop\n        /* \"#utility.yul\":26169:26262   */\n      tag_550\n        /* \"#utility.yul\":26258:26261   */\n      dup3\n        /* \"#utility.yul\":26169:26262   */\n      tag_290\n      jump\t// in\n    tag_550:\n        /* \"#utility.yul\":26287:26289   */\n      0x20\n        /* \"#utility.yul\":26282:26285   */\n      dup3\n        /* \"#utility.yul\":26278:26290   */\n      add\n        /* \"#utility.yul\":26271:26290   */\n      swap1\n      pop\n        /* \"#utility.yul\":25930:26296   */\n      swap2\n      swap1\n      pop\n      jump\t// out\n        /* \"#utility.yul\":26302:26721   */\n    tag_169:\n        /* \"#utility.yul\":26468:26472   */\n      0x00\n        /* \"#utility.yul\":26506:26508   */\n      0x20\n        /* \"#utility.yul\":26495:26504   */\n      dup3\n        /* \"#utility.yul\":26491:26509   */\n      add\n        /* \"#utility.yul\":26483:26509   */\n      swap1\n      pop\n        /* \"#utility.yul\":26555:26564   */\n      dup2\n        /* \"#utility.yul\":26549:26553   */\n      dup2\n        /* \"#utility.yul\":26545:26565   */\n      sub\n        /* \"#utility.yul\":26541:26542   */\n      0x00\n        /* \"#utility.yul\":26530:26539   */\n      dup4\n        /* \"#utility.yul\":26526:26543   */\n      add\n        /* \"#utility.yul\":26519:26566   */\n      mstore\n        /* \"#utility.yul\":26583:26714   */\n      tag_552\n        /* \"#utility.yul\":26709:26713   */\n      dup2\n        /* \"#utility.yul\":26583:26714   */\n      tag_291\n      jump\t// in\n    tag_552:\n        /* \"#utility.yul\":26575:26714   */\n      swap1\n      pop\n        /* \"#utility.yul\":26302:26721   */\n      swap2\n      swap1\n      pop\n      jump\t// out\n        /* \"#utility.yul\":26727:26907   */\n    tag_186:\n        /* \"#utility.yul\":26775:26852   */\n      0x4e487b7100000000000000000000000000000000000000000000000000000000\n        /* \"#utility.yul\":26772:26773   */\n      0x00\n        /* \"#utility.yul\":26765:26853   */\n      mstore\n        /* \"#utility.yul\":26872:26876   */\n      0x21\n        /* \"#utility.yul\":26869:26870   */\n      0x04\n        /* \"#utility.yul\":26862:26877   */\n      mstore\n        /* \"#utility.yul\":26896:26900   */\n      0x24\n        /* \"#utility.yul\":26893:26894   */\n      0x00\n        /* \"#utility.yul\":26886:26901   */\n      revert\n        /* \"#utility.yul\":26913:27087   */\n    tag_292:\n        /* \"#utility.yul\":27053:27079   */\n      0x45434453413a20696e76616c6964207369676e61747572650000000000000000\n        /* \"#utility.yul\":27049:27050   */\n      0x00\n        /* \"#utility.yul\":27041:27047   */\n      dup3\n        /* \"#utility.yul\":27037:27051   */\n      add\n        /* \"#utility.yul\":27030:27080   */\n      mstore\n        /* \"#utility.yul\":26913:27087   */\n      pop\n      jump\t// out\n        /* \"#utility.yul\":27093:27459   */\n    tag_293:\n        /* \"#utility.yul\":27235:27238   */\n      0x00\n        /* \"#utility.yul\":27256:27323   */\n      tag_556\n        /* \"#utility.yul\":27320:27322   */\n      0x18\n        /* \"#utility.yul\":27315:27318   */\n      dup4\n        /* \"#utility.yul\":27256:27323   */\n      tag_247\n      jump\t// in\n    tag_556:\n        /* \"#utility.yul\":27249:27323   */\n      swap2\n      pop\n        /* \"#utility.yul\":27332:27425   */\n      tag_557\n        /* \"#utility.yul\":27421:27424   */\n      dup3\n        /* \"#utility.yul\":27332:27425   */\n      tag_292\n      jump\t// in\n    tag_557:\n        /* \"#utility.yul\":27450:27452   */\n      0x20\n        /* \"#utility.yul\":27445:27448   */\n      dup3\n        /* \"#utility.yul\":27441:27453   */\n      add\n        /* \"#utility.yul\":27434:27453   */\n      swap1\n      pop\n        /* \"#utility.yul\":27093:27459   */\n      swap2\n      swap1\n      pop\n      jump\t// out\n        /* \"#utility.yul\":27465:27884   */\n    tag_197:\n        /* \"#utility.yul\":27631:27635   */\n      0x00\n        /* \"#utility.yul\":27669:27671   */\n      0x20\n        /* \"#utility.yul\":27658:27667   */\n      dup3\n        /* \"#utility.yul\":27654:27672   */\n      add\n        /* \"#utility.yul\":27646:27672   */\n      swap1\n      pop\n        /* \"#utility.yul\":27718:27727   */\n      dup2\n        /* \"#utility.yul\":27712:27716   */\n      dup2\n        /* \"#utility.yul\":27708:27728   */\n      sub\n        /* \"#utility.yul\":27704:27705   */\n      0x00\n        /* \"#utility.yul\":27693:27702   */\n      dup4\n        /* \"#utility.yul\":27689:27706   */\n      add\n        /* \"#utility.yul\":27682:27729   */\n      mstore\n        /* \"#utility.yul\":27746:27877   */\n      tag_559\n        /* \"#utility.yul\":27872:27876   */\n      dup2\n        /* \"#utility.yul\":27746:27877   */\n      tag_293\n      jump\t// in\n    tag_559:\n        /* \"#utility.yul\":27738:27877   */\n      swap1\n      pop\n        /* \"#utility.yul\":27465:27884   */\n      swap2\n      swap1\n      pop\n      jump\t// out\n        /* \"#utility.yul\":27890:28071   */\n    tag_294:\n        /* \"#utility.yul\":28030:28063   */\n      0x45434453413a20696e76616c6964207369676e6174757265206c656e67746800\n        /* \"#utility.yul\":28026:28027   */\n      0x00\n        /* \"#utility.yul\":28018:28024   */\n      dup3\n        /* \"#utility.yul\":28014:28028   */\n      add\n        /* \"#utility.yul\":28007:28064   */\n      mstore\n        /* \"#utility.yul\":27890:28071   */\n      pop\n      jump\t// out\n        /* \"#utility.yul\":28077:28443   */\n    tag_295:\n        /* \"#utility.yul\":28219:28222   */\n      0x00\n        /* \"#utility.yul\":28240:28307   */\n      tag_562\n        /* \"#utility.yul\":28304:28306   */\n      0x1f\n        /* \"#utility.yul\":28299:28302   */\n      dup4\n        /* \"#utility.yul\":28240:28307   */\n      tag_247\n      jump\t// in\n    tag_562:\n        /* \"#utility.yul\":28233:28307   */\n      swap2\n      pop\n        /* \"#utility.yul\":28316:28409   */\n      tag_563\n        /* \"#utility.yul\":28405:28408   */\n      dup3\n        /* \"#utility.yul\":28316:28409   */\n      tag_294\n      jump\t// in\n    tag_563:\n        /* \"#utility.yul\":28434:28436   */\n      0x20\n        /* \"#utility.yul\":28429:28432   */\n      dup3\n        /* \"#utility.yul\":28425:28437   */\n      add\n        /* \"#utility.yul\":28418:28437   */\n      swap1\n      pop\n        /* \"#utility.yul\":28077:28443   */\n      swap2\n      swap1\n      pop\n      jump\t// out\n        /* \"#utility.yul\":28449:28868   */\n    tag_205:\n        /* \"#utility.yul\":28615:28619   */\n      0x00\n        /* \"#utility.yul\":28653:28655   */\n      0x20\n        /* \"#utility.yul\":28642:28651   */\n      dup3\n        /* \"#utility.yul\":28638:28656   */\n      add\n        /* \"#utility.yul\":28630:28656   */\n      swap1\n      pop\n        /* \"#utility.yul\":28702:28711   */\n      dup2\n        /* \"#utility.yul\":28696:28700   */\n      dup2\n        /* \"#utility.yul\":28692:28712   */\n      sub\n        /* \"#utility.yul\":28688:28689   */\n      0x00\n        /* \"#utility.yul\":28677:28686   */\n      dup4\n        /* \"#utility.yul\":28673:28690   */\n      add\n        /* \"#utility.yul\":28666:28713   */\n      mstore\n        /* \"#utility.yul\":28730:28861   */\n      tag_565\n        /* \"#utility.yul\":28856:28860   */\n      dup2\n        /* \"#utility.yul\":28730:28861   */\n      tag_295\n      jump\t// in\n    tag_565:\n        /* \"#utility.yul\":28722:28861   */\n      swap1\n      pop\n        /* \"#utility.yul\":28449:28868   */\n      swap2\n      swap1\n      pop\n      jump\t// out\n        /* \"#utility.yul\":28874:29095   */\n    tag_296:\n        /* \"#utility.yul\":29014:29048   */\n      0x45434453413a20696e76616c6964207369676e6174757265202773272076616c\n        /* \"#utility.yul\":29010:29011   */\n      0x00\n        /* \"#utility.yul\":29002:29008   */\n      dup3\n        /* \"#utility.yul\":28998:29012   */\n      add\n        /* \"#utility.yul\":28991:29049   */\n      mstore\n        /* \"#utility.yul\":29083:29087   */\n      0x7565000000000000000000000000000000000000000000000000000000000000\n        /* \"#utility.yul\":29078:29080   */\n      0x20\n        /* \"#utility.yul\":29070:29076   */\n      dup3\n        /* \"#utility.yul\":29066:29081   */\n      add\n        /* \"#utility.yul\":29059:29088   */\n      mstore\n        /* \"#utility.yul\":28874:29095   */\n      pop\n      jump\t// out\n        /* \"#utility.yul\":29101:29467   */\n    tag_297:\n        /* \"#utility.yul\":29243:29246   */\n      0x00\n        /* \"#utility.yul\":29264:29331   */\n      tag_568\n        /* \"#utility.yul\":29328:29330   */\n      0x22\n        /* \"#utility.yul\":29323:29326   */\n      dup4\n        /* \"#utility.yul\":29264:29331   */\n      tag_247\n      jump\t// in\n    tag_568:\n        /* \"#utility.yul\":29257:29331   */\n      swap2\n      pop\n        /* \"#utility.yul\":29340:29433   */\n      tag_569\n        /* \"#utility.yul\":29429:29432   */\n      dup3\n        /* \"#utility.yul\":29340:29433   */\n      tag_296\n      jump\t// in\n    tag_569:\n        /* \"#utility.yul\":29458:29460   */\n      0x40\n        /* \"#utility.yul\":29453:29456   */\n      dup3\n        /* \"#utility.yul\":29449:29461   */\n      add\n        /* \"#utility.yul\":29442:29461   */\n      swap1\n      pop\n        /* \"#utility.yul\":29101:29467   */\n      swap2\n      swap1\n      pop\n      jump\t// out\n        /* \"#utility.yul\":29473:29892   */\n    tag_213:\n        /* \"#utility.yul\":29639:29643   */\n      0x00\n        /* \"#utility.yul\":29677:29679   */\n      0x20\n        /* \"#utility.yul\":29666:29675   */\n      dup3\n        /* \"#utility.yul\":29662:29680   */\n      add\n        /* \"#utility.yul\":29654:29680   */\n      swap1\n      pop\n        /* \"#utility.yul\":29726:29735   */\n      dup2\n        /* \"#utility.yul\":29720:29724   */\n      dup2\n        /* \"#utility.yul\":29716:29736   */\n      sub\n        /* \"#utility.yul\":29712:29713   */\n      0x00\n        /* \"#utility.yul\":29701:29710   */\n      dup4\n        /* \"#utility.yul\":29697:29714   */\n      add\n        /* \"#utility.yul\":29690:29737   */\n      mstore\n        /* \"#utility.yul\":29754:29885   */\n      tag_571\n        /* \"#utility.yul\":29880:29884   */\n      dup2\n        /* \"#utility.yul\":29754:29885   */\n      tag_297\n      jump\t// in\n    tag_571:\n        /* \"#utility.yul\":29746:29885   */\n      swap1\n      pop\n        /* \"#utility.yul\":29473:29892   */\n      swap2\n      swap1\n      pop\n      jump\t// out\n        /* \"#utility.yul\":29898:29975   */\n    tag_298:\n        /* \"#utility.yul\":29935:29942   */\n      0x00\n        /* \"#utility.yul\":29964:29969   */\n      dup2\n        /* \"#utility.yul\":29953:29969   */\n      swap1\n      pop\n        /* \"#utility.yul\":29898:29975   */\n      swap2\n      swap1\n      pop\n      jump\t// out\n        /* \"#utility.yul\":29981:30099   */\n    tag_299:\n        /* \"#utility.yul\":30068:30092   */\n      tag_574\n        /* \"#utility.yul\":30086:30091   */\n      dup2\n        /* \"#utility.yul\":30068:30092   */\n      tag_298\n      jump\t// in\n    tag_574:\n        /* \"#utility.yul\":30063:30066   */\n      dup3\n        /* \"#utility.yul\":30056:30093   */\n      mstore\n        /* \"#utility.yul\":29981:30099   */\n      pop\n      pop\n      jump\t// out\n        /* \"#utility.yul\":30105:30191   */\n    tag_300:\n        /* \"#utility.yul\":30140:30147   */\n      0x00\n        /* \"#utility.yul\":30180:30184   */\n      0xff\n        /* \"#utility.yul\":30173:30178   */\n      dup3\n        /* \"#utility.yul\":30169:30185   */\n      and\n        /* \"#utility.yul\":30158:30185   */\n      swap1\n      pop\n        /* \"#utility.yul\":30105:30191   */\n      swap2\n      swap1\n      pop\n      jump\t// out\n        /* \"#utility.yul\":30197:30309   */\n    tag_301:\n        /* \"#utility.yul\":30280:30302   */\n      tag_577\n        /* \"#utility.yul\":30296:30301   */\n      dup2\n        /* \"#utility.yul\":30280:30302   */\n      tag_300\n      jump\t// in\n    tag_577:\n        /* \"#utility.yul\":30275:30278   */\n      dup3\n        /* \"#utility.yul\":30268:30303   */\n      mstore\n        /* \"#utility.yul\":30197:30309   */\n      pop\n      pop\n      jump\t// out\n        /* \"#utility.yul\":30315:30860   */\n    tag_217:\n        /* \"#utility.yul\":30488:30492   */\n      0x00\n        /* \"#utility.yul\":30526:30529   */\n      0x80\n        /* \"#utility.yul\":30515:30524   */\n      dup3\n        /* \"#utility.yul\":30511:30530   */\n      add\n        /* \"#utility.yul\":30503:30530   */\n      swap1\n      pop\n        /* \"#utility.yul\":30540:30611   */\n      tag_579\n        /* \"#utility.yul\":30608:30609   */\n      0x00\n        /* \"#utility.yul\":30597:30606   */\n      dup4\n        /* \"#utility.yul\":30593:30610   */\n      add\n        /* \"#utility.yul\":30584:30590   */\n      dup8\n        /* \"#utility.yul\":30540:30611   */\n      tag_299\n      jump\t// in\n    tag_579:\n        /* \"#utility.yul\":30621:30689   */\n      tag_580\n        /* \"#utility.yul\":30685:30687   */\n      0x20\n        /* \"#utility.yul\":30674:30683   */\n      dup4\n        /* \"#utility.yul\":30670:30688   */\n      add\n        /* \"#utility.yul\":30661:30667   */\n      dup7\n        /* \"#utility.yul\":30621:30689   */\n      tag_301\n      jump\t// in\n    tag_580:\n        /* \"#utility.yul\":30699:30771   */\n      tag_581\n        /* \"#utility.yul\":30767:30769   */\n      0x40\n        /* \"#utility.yul\":30756:30765   */\n      dup4\n        /* \"#utility.yul\":30752:30770   */\n      add\n        /* \"#utility.yul\":30743:30749   */\n      dup6\n        /* \"#utility.yul\":30699:30771   */\n      tag_299\n      jump\t// in\n    tag_581:\n        /* \"#utility.yul\":30781:30853   */\n      tag_582\n        /* \"#utility.yul\":30849:30851   */\n      0x60\n        /* \"#utility.yul\":30838:30847   */\n      dup4\n        /* \"#utility.yul\":30834:30852   */\n      add\n        /* \"#utility.yul\":30825:30831   */\n      dup5\n        /* \"#utility.yul\":30781:30853   */\n      tag_299\n      jump\t// in\n    tag_582:\n        /* \"#utility.yul\":30315:30860   */\n      swap6\n      swap5\n      pop\n      pop\n      pop\n      pop\n      pop\n      jump\t// out\n\n    auxdata: 0xa26469706673582212207a93628b5b0674d232417a12ade76a0d1efddecd817bf4f3916f4a30292e4a5764736f6c63430008110033\n}\n",
				"bytecode": {
					"linkReferences": {},
					"object": "60806040523480156200001157600080fd5b50604051620021a2380380620021a28339818101604052810190620000379190620001d5565b620000576200004b6200009f60201b60201c565b620000a760201b60201c565b80600160006101000a81548173ffffffffffffffffffffffffffffffffffffffff021916908373ffffffffffffffffffffffffffffffffffffffff1602179055505062000207565b600033905090565b60008060009054906101000a900473ffffffffffffffffffffffffffffffffffffffff169050816000806101000a81548173ffffffffffffffffffffffffffffffffffffffff021916908373ffffffffffffffffffffffffffffffffffffffff1602179055508173ffffffffffffffffffffffffffffffffffffffff168173ffffffffffffffffffffffffffffffffffffffff167f8be0079c531659141344cd1fd0a4f28419497f9722a3daafe3b4186f6b6457e060405160405180910390a35050565b600080fd5b600073ffffffffffffffffffffffffffffffffffffffff82169050919050565b60006200019d8262000170565b9050919050565b620001af8162000190565b8114620001bb57600080fd5b50565b600081519050620001cf81620001a4565b92915050565b600060208284031215620001ee57620001ed6200016b565b5b6000620001fe84828501620001be565b91505092915050565b611f8b80620002176000396000f3fe60806040526004361061007b5760003560e01c80638da5cb5b1161004e5780638da5cb5b14610105578063b086788314610130578063f2fde38b1461016d578063f8a8fd6d146101965761007b565b8063095ea7b3146100805780632906799b146100a95780635d86acf1146100d2578063715018a6146100ee575b600080fd5b34801561008c57600080fd5b506100a760048036038101906100a2919061105b565b6101a0565b005b3480156100b557600080fd5b506100d060048036038101906100cb9190611124565b6101d1565b005b6100ec60048036038101906100e79190611124565b610397565b005b3480156100fa57600080fd5b50610103610593565b005b34801561011157600080fd5b5061011a6105a7565b60405161012791906111af565b60405180910390f35b34801561013c57600080fd5b506101576004803603810190610152919061130b565b6105d0565b60405161016491906111af565b60405180910390f35b34801561017957600080fd5b50610194600480360381019061018f9190611383565b610614565b005b61019e610697565b005b6101cd600160009054906101000a900473ffffffffffffffffffffffffffffffffffffffff168383610699565b5050565b3373ffffffffffffffffffffffffffffffffffffffff168360a00160208101906101fb9190611383565b73ffffffffffffffffffffffffffffffffffffffff1614610251576040517f08c379a00000000000000000000000000000000000000000000000000000000081526004016102489061140d565b60405180910390fd5b6102be8360405160200161026591906115e4565b60405160208183030381529060405283838080601f016020809104026020016040519081016040528093929190818152602001838380828437600081840152601f19601f820116905080830192505050505050506107cf565b6102e08360000160208101906102d49190611383565b33308660200135610948565b6103228360000160208101906102f69190611383565b8460600160208101906103099190611383565b8560400135866020013561031d9190611635565b610699565b6103928360600160208101906103389190611383565b600085806080019061034a9190611678565b8080601f016020809104026020016040519081016040528093929190818152602001838380828437600081840152601f19601f82011690508083019250505050505050610a81565b505050565b3373ffffffffffffffffffffffffffffffffffffffff168360a00160208101906103c19190611383565b73ffffffffffffffffffffffffffffffffffffffff1614610417576040517f08c379a000000000000000000000000000000000000000000000000000000000815260040161040e9061140d565b60405180910390fd5b6104848360405160200161042b91906115e4565b60405160208183030381529060405283838080601f016020809104026020016040519081016040528093929190818152602001838380828437600081840152601f19601f820116905080830192505050505050506107cf565b82602001353410156104cb576040517f08c379a00000000000000000000000000000000000000000000000000000000081526004016104c290611727565b60405180910390fd5b60008360400135346104dd9190611635565b905061051e600160009054906101000a900473ffffffffffffffffffffffffffffffffffffffff168560600160208101906105189190611383565b83610699565b61058d8460600160208101906105349190611383565b828680608001906105459190611678565b8080601f016020809104026020016040519081016040528093929190818152602001838380828437600081840152601f19601f82011690508083019250505050505050610a81565b50505050565b61059b610b98565b6105a56000610c16565b565b60008060009054906101000a900473ffffffffffffffffffffffffffffffffffffffff16905090565b600061060c826105fe856040516020016105ea91906115e4565b604051602081830303815290604052610cda565b610ceb90919063ffffffff16565b905092915050565b61061c610b98565b600073ffffffffffffffffffffffffffffffffffffffff168173ffffffffffffffffffffffffffffffffffffffff160361068b576040517f08c379a0000000000000000000000000000000000000000000000000000000008152600401610682906117b9565b60405180910390fd5b61069481610c16565b50565b565b6000808473ffffffffffffffffffffffffffffffffffffffff1663095ea7b385856040516024016106cb9291906117e8565b6040516020818303038152906040529060e01b6020820180517bffffffffffffffffffffffffffffffffffffffffffffffffffffffff83818316178352505050506040516107199190611882565b6000604051808303816000865af19150503d8060008114610756576040519150601f19603f3d011682016040523d82523d6000602084013e61075b565b606091505b5091509150818015610789575060008151148061078857508080602001905181019061078791906118d1565b5b5b6107c8576040517f08c379a00000000000000000000000000000000000000000000000000000000081526004016107bf90611970565b60405180910390fd5b5050505050565b601b60f81b816040815181106107e8576107e7611990565b5b60200101907effffffffffffffffffffffffffffffffffffffffffffffffffffffffffffff1916908160001a90535061081f6105a7565b73ffffffffffffffffffffffffffffffffffffffff166108508261084285610cda565b610ceb90919063ffffffff16565b73ffffffffffffffffffffffffffffffffffffffff16031561094457601c60f81b8160408151811061088557610884611990565b5b60200101907effffffffffffffffffffffffffffffffffffffffffffffffffffffffffffff1916908160001a9053506108bc6105a7565b73ffffffffffffffffffffffffffffffffffffffff166108ed826108df85610cda565b610ceb90919063ffffffff16565b73ffffffffffffffffffffffffffffffffffffffff1614610943576040517f08c379a000000000000000000000000000000000000000000000000000000000815260040161093a90611a0b565b60405180910390fd5b5b5050565b6000808573ffffffffffffffffffffffffffffffffffffffff166323b872dd86868660405160240161097c93929190611a2b565b6040516020818303038152906040529060e01b6020820180517bffffffffffffffffffffffffffffffffffffffffffffffffffffffff83818316178352505050506040516109ca9190611882565b6000604051808303816000865af19150503d8060008114610a07576040519150601f19603f3d011682016040523d82523d6000602084013e610a0c565b606091505b5091509150818015610a3a5750600081511480610a39575080806020019051810190610a3891906118d1565b5b5b610a79576040517f08c379a0000000000000000000000000000000000000000000000000000000008152600401610a7090611ad4565b60405180910390fd5b505050505050565b6000808473ffffffffffffffffffffffffffffffffffffffff168484604051610aaa9190611882565b60006040518083038185875af1925050503d8060008114610ae7576040519150601f19603f3d011682016040523d82523d6000602084013e610aec565b606091505b509150915081610b9157604481511015610b3b576040517f08c379a0000000000000000000000000000000000000000000000000000000008152600401610b3290611b66565b60405180910390fd5b60048101905080806020019051810190610b559190611c27565b6040517f08c379a0000000000000000000000000000000000000000000000000000000008152600401610b889190611cb4565b60405180910390fd5b5050505050565b610ba0610d12565b73ffffffffffffffffffffffffffffffffffffffff16610bbe6105a7565b73ffffffffffffffffffffffffffffffffffffffff1614610c14576040517f08c379a0000000000000000000000000000000000000000000000000000000008152600401610c0b90611d22565b60405180910390fd5b565b60008060009054906101000a900473ffffffffffffffffffffffffffffffffffffffff169050816000806101000a81548173ffffffffffffffffffffffffffffffffffffffff021916908373ffffffffffffffffffffffffffffffffffffffff1602179055508173ffffffffffffffffffffffffffffffffffffffff168173ffffffffffffffffffffffffffffffffffffffff167f8be0079c531659141344cd1fd0a4f28419497f9722a3daafe3b4186f6b6457e060405160405180910390a35050565b600081805190602001209050919050565b6000806000610cfa8585610d1a565b91509150610d0781610d6b565b819250505092915050565b600033905090565b6000806041835103610d5b5760008060006020860151925060408601519150606086015160001a9050610d4f87828585610ed1565b94509450505050610d64565b60006002915091505b9250929050565b60006004811115610d7f57610d7e611d42565b5b816004811115610d9257610d91611d42565b5b0315610ece5760016004811115610dac57610dab611d42565b5b816004811115610dbf57610dbe611d42565b5b03610dff576040517f08c379a0000000000000000000000000000000000000000000000000000000008152600401610df690611dbd565b60405180910390fd5b60026004811115610e1357610e12611d42565b5b816004811115610e2657610e25611d42565b5b03610e66576040517f08c379a0000000000000000000000000000000000000000000000000000000008152600401610e5d90611e29565b60405180910390fd5b60036004811115610e7a57610e79611d42565b5b816004811115610e8d57610e8c611d42565b5b03610ecd576040517f08c379a0000000000000000000000000000000000000000000000000000000008152600401610ec490611ebb565b60405180910390fd5b5b50565b6000807f7fffffffffffffffffffffffffffffff5d576e7357a4501ddfe92f46681b20a08360001c1115610f0c576000600391509150610faa565b600060018787878760405160008152602001604052604051610f319493929190611f10565b6020604051602081039080840390855afa158015610f53573d6000803e3d6000fd5b505050602060405103519050600073ffffffffffffffffffffffffffffffffffffffff168173ffffffffffffffffffffffffffffffffffffffff1603610fa157600060019250925050610faa565b80600092509250505b94509492505050565b6000604051905090565b600080fd5b600080fd5b600073ffffffffffffffffffffffffffffffffffffffff82169050919050565b6000610ff282610fc7565b9050919050565b61100281610fe7565b811461100d57600080fd5b50565b60008135905061101f81610ff9565b92915050565b6000819050919050565b61103881611025565b811461104357600080fd5b50565b6000813590506110558161102f565b92915050565b6000806040838503121561107257611071610fbd565b5b600061108085828601611010565b925050602061109185828601611046565b9150509250929050565b600080fd5b600060c082840312156110b6576110b561109b565b5b81905092915050565b600080fd5b600080fd5b600080fd5b60008083601f8401126110e4576110e36110bf565b5b8235905067ffffffffffffffff811115611101576111006110c4565b5b60208301915083600182028301111561111d5761111c6110c9565b5b9250929050565b60008060006040848603121561113d5761113c610fbd565b5b600084013567ffffffffffffffff81111561115b5761115a610fc2565b5b611167868287016110a0565b935050602084013567ffffffffffffffff81111561118857611187610fc2565b5b611194868287016110ce565b92509250509250925092565b6111a981610fe7565b82525050565b60006020820190506111c460008301846111a0565b92915050565b600080fd5b6000601f19601f8301169050919050565b7f4e487b7100000000000000000000000000000000000000000000000000000000600052604160045260246000fd5b611218826111cf565b810181811067ffffffffffffffff82111715611237576112366111e0565b5b80604052505050565b600061124a610fb3565b9050611256828261120f565b919050565b600067ffffffffffffffff821115611276576112756111e0565b5b61127f826111cf565b9050602081019050919050565b82818337600083830152505050565b60006112ae6112a98461125b565b611240565b9050828152602081018484840111156112ca576112c96111ca565b5b6112d584828561128c565b509392505050565b600082601f8301126112f2576112f16110bf565b5b813561130284826020860161129b565b91505092915050565b6000806040838503121561132257611321610fbd565b5b600083013567ffffffffffffffff8111156113405761133f610fc2565b5b61134c858286016110a0565b925050602083013567ffffffffffffffff81111561136d5761136c610fc2565b5b611379858286016112dd565b9150509250929050565b60006020828403121561139957611398610fbd565b5b60006113a784828501611010565b91505092915050565b600082825260208201905092915050565b7f696e76616c65642073656e646572000000000000000000000000000000000000600082015250565b60006113f7600e836113b0565b9150611402826113c1565b602082019050919050565b60006020820190508181036000830152611426816113ea565b9050919050565b600061143c6020840184611010565b905092915050565b61144d81610fe7565b82525050565b60006114626020840184611046565b905092915050565b61147381611025565b82525050565b600080fd5b600080fd5b600080fd5b600080833560016020038436030381126114a5576114a4611483565b5b83810192508235915060208301925067ffffffffffffffff8211156114cd576114cc611479565b5b6001820236038313156114e3576114e261147e565b5b509250929050565b600082825260208201905092915050565b600061150883856114eb565b935061151583858461128c565b61151e836111cf565b840190509392505050565b600060c0830161153c600084018461142d565b6115496000860182611444565b506115576020840184611453565b611564602086018261146a565b506115726040840184611453565b61157f604086018261146a565b5061158d606084018461142d565b61159a6060860182611444565b506115a86080840184611488565b85830360808701526115bb8382846114fc565b925050506115cc60a084018461142d565b6115d960a0860182611444565b508091505092915050565b600060208201905081810360008301526115fe8184611529565b905092915050565b7f4e487b7100000000000000000000000000000000000000000000000000000000600052601160045260246000fd5b600061164082611025565b915061164b83611025565b925082820390508181111561166357611662611606565b5b92915050565b600080fd5b600080fd5b600080fd5b6000808335600160200384360303811261169557611694611669565b5b80840192508235915067ffffffffffffffff8211156116b7576116b661166e565b5b6020830192506001820236038313156116d3576116d2611673565b5b509250929050565b7f696e73756666696369656e7420696e70757420616d6f756e7400000000000000600082015250565b60006117116019836113b0565b915061171c826116db565b602082019050919050565b6000602082019050818103600083015261174081611704565b9050919050565b7f4f776e61626c653a206e6577206f776e657220697320746865207a65726f206160008201527f6464726573730000000000000000000000000000000000000000000000000000602082015250565b60006117a36026836113b0565b91506117ae82611747565b604082019050919050565b600060208201905081810360008301526117d281611796565b9050919050565b6117e281611025565b82525050565b60006040820190506117fd60008301856111a0565b61180a60208301846117d9565b9392505050565b600081519050919050565b600081905092915050565b60005b8381101561184557808201518184015260208101905061182a565b60008484015250505050565b600061185c82611811565b611866818561181c565b9350611876818560208601611827565b80840191505092915050565b600061188e8284611851565b915081905092915050565b60008115159050919050565b6118ae81611899565b81146118b957600080fd5b50565b6000815190506118cb816118a5565b92915050565b6000602082840312156118e7576118e6610fbd565b5b60006118f5848285016118bc565b91505092915050565b7f5472616e7366657248656c7065723a3a73616665417070726f76653a2061707060008201527f726f7665206661696c6564000000000000000000000000000000000000000000602082015250565b600061195a602b836113b0565b9150611965826118fe565b604082019050919050565b600060208201905081810360008301526119898161194d565b9050919050565b7f4e487b7100000000000000000000000000000000000000000000000000000000600052603260045260246000fd5b7f646174612074616d706572656400000000000000000000000000000000000000600082015250565b60006119f5600d836113b0565b9150611a00826119bf565b602082019050919050565b60006020820190508181036000830152611a24816119e8565b9050919050565b6000606082019050611a4060008301866111a0565b611a4d60208301856111a0565b611a5a60408301846117d9565b949350505050565b7f5472616e7366657248656c7065723a3a7472616e7366657246726f6d3a20747260008201527f616e7366657246726f6d206661696c6564000000000000000000000000000000602082015250565b6000611abe6031836113b0565b9150611ac982611a62565b604082019050919050565b60006020820190508181036000830152611aed81611ab1565b9050919050565b7f5361666543616c6c65723a3a7361666543616c6c3a2063616c6c206661696c6560008201527f6400000000000000000000000000000000000000000000000000000000000000602082015250565b6000611b506021836113b0565b9150611b5b82611af4565b604082019050919050565b60006020820190508181036000830152611b7f81611b43565b9050919050565b600067ffffffffffffffff821115611ba157611ba06111e0565b5b611baa826111cf565b9050602081019050919050565b6000611bca611bc584611b86565b611240565b905082815260208101848484011115611be657611be56111ca565b5b611bf1848285611827565b509392505050565b600082601f830112611c0e57611c0d6110bf565b5b8151611c1e848260208601611bb7565b91505092915050565b600060208284031215611c3d57611c3c610fbd565b5b600082015167ffffffffffffffff811115611c5b57611c5a610fc2565b5b611c6784828501611bf9565b91505092915050565b600081519050919050565b6000611c8682611c70565b611c9081856113b0565b9350611ca0818560208601611827565b611ca9816111cf565b840191505092915050565b60006020820190508181036000830152611cce8184611c7b565b905092915050565b7f4f776e61626c653a2063616c6c6572206973206e6f7420746865206f776e6572600082015250565b6000611d0c6020836113b0565b9150611d1782611cd6565b602082019050919050565b60006020820190508181036000830152611d3b81611cff565b9050919050565b7f4e487b7100000000000000000000000000000000000000000000000000000000600052602160045260246000fd5b7f45434453413a20696e76616c6964207369676e61747572650000000000000000600082015250565b6000611da76018836113b0565b9150611db282611d71565b602082019050919050565b60006020820190508181036000830152611dd681611d9a565b9050919050565b7f45434453413a20696e76616c6964207369676e6174757265206c656e67746800600082015250565b6000611e13601f836113b0565b9150611e1e82611ddd565b602082019050919050565b60006020820190508181036000830152611e4281611e06565b9050919050565b7f45434453413a20696e76616c6964207369676e6174757265202773272076616c60008201527f7565000000000000000000000000000000000000000000000000000000000000602082015250565b6000611ea56022836113b0565b9150611eb082611e49565b604082019050919050565b60006020820190508181036000830152611ed481611e98565b9050919050565b6000819050919050565b611eee81611edb565b82525050565b600060ff82169050919050565b611f0a81611ef4565b82525050565b6000608082019050611f256000830187611ee5565b611f326020830186611f01565b611f3f6040830185611ee5565b611f4c6060830184611ee5565b9594505050505056fea26469706673582212207a93628b5b0674d232417a12ade76a0d1efddecd817bf4f3916f4a30292e4a5764736f6c63430008110033",
					"opcodes": "PUSH1 0x80 PUSH1 0x40 MSTORE CALLVALUE DUP1 ISZERO PUSH3 0x11 JUMPI PUSH1 0x0 DUP1 REVERT JUMPDEST POP PUSH1 0x40 MLOAD PUSH3 0x21A2 CODESIZE SUB DUP1 PUSH3 0x21A2 DUP4 CODECOPY DUP2 DUP2 ADD PUSH1 0x40 MSTORE DUP2 ADD SWAP1 PUSH3 0x37 SWAP2 SWAP1 PUSH3 0x1D5 JUMP JUMPDEST PUSH3 0x57 PUSH3 0x4B PUSH3 0x9F PUSH1 0x20 SHL PUSH1 0x20 SHR JUMP JUMPDEST PUSH3 0xA7 PUSH1 0x20 SHL PUSH1 0x20 SHR JUMP JUMPDEST DUP1 PUSH1 0x1 PUSH1 0x0 PUSH2 0x100 EXP DUP2 SLOAD DUP2 PUSH20 0xFFFFFFFFFFFFFFFFFFFFFFFFFFFFFFFFFFFFFFFF MUL NOT AND SWAP1 DUP4 PUSH20 0xFFFFFFFFFFFFFFFFFFFFFFFFFFFFFFFFFFFFFFFF AND MUL OR SWAP1 SSTORE POP POP PUSH3 0x207 JUMP JUMPDEST PUSH1 0x0 CALLER SWAP1 POP SWAP1 JUMP JUMPDEST PUSH1 0x0 DUP1 PUSH1 0x0 SWAP1 SLOAD SWAP1 PUSH2 0x100 EXP SWAP1 DIV PUSH20 0xFFFFFFFFFFFFFFFFFFFFFFFFFFFFFFFFFFFFFFFF AND SWAP1 POP DUP2 PUSH1 0x0 DUP1 PUSH2 0x100 EXP DUP2 SLOAD DUP2 PUSH20 0xFFFFFFFFFFFFFFFFFFFFFFFFFFFFFFFFFFFFFFFF MUL NOT AND SWAP1 DUP4 PUSH20 0xFFFFFFFFFFFFFFFFFFFFFFFFFFFFFFFFFFFFFFFF AND MUL OR SWAP1 SSTORE POP DUP2 PUSH20 0xFFFFFFFFFFFFFFFFFFFFFFFFFFFFFFFFFFFFFFFF AND DUP2 PUSH20 0xFFFFFFFFFFFFFFFFFFFFFFFFFFFFFFFFFFFFFFFF AND PUSH32 0x8BE0079C531659141344CD1FD0A4F28419497F9722A3DAAFE3B4186F6B6457E0 PUSH1 0x40 MLOAD PUSH1 0x40 MLOAD DUP1 SWAP2 SUB SWAP1 LOG3 POP POP JUMP JUMPDEST PUSH1 0x0 DUP1 REVERT JUMPDEST PUSH1 0x0 PUSH20 0xFFFFFFFFFFFFFFFFFFFFFFFFFFFFFFFFFFFFFFFF DUP3 AND SWAP1 POP SWAP2 SWAP1 POP JUMP JUMPDEST PUSH1 0x0 PUSH3 0x19D DUP3 PUSH3 0x170 JUMP JUMPDEST SWAP1 POP SWAP2 SWAP1 POP JUMP JUMPDEST PUSH3 0x1AF DUP2 PUSH3 0x190 JUMP JUMPDEST DUP2 EQ PUSH3 0x1BB JUMPI PUSH1 0x0 DUP1 REVERT JUMPDEST POP JUMP JUMPDEST PUSH1 0x0 DUP2 MLOAD SWAP1 POP PUSH3 0x1CF DUP2 PUSH3 0x1A4 JUMP JUMPDEST SWAP3 SWAP2 POP POP JUMP JUMPDEST PUSH1 0x0 PUSH1 0x20 DUP3 DUP5 SUB SLT ISZERO PUSH3 0x1EE JUMPI PUSH3 0x1ED PUSH3 0x16B JUMP JUMPDEST JUMPDEST PUSH1 0x0 PUSH3 0x1FE DUP5 DUP3 DUP6 ADD PUSH3 0x1BE JUMP JUMPDEST SWAP2 POP POP SWAP3 SWAP2 POP POP JUMP JUMPDEST PUSH2 0x1F8B DUP1 PUSH3 0x217 PUSH1 0x0 CODECOPY PUSH1 0x0 RETURN INVALID PUSH1 0x80 PUSH1 0x40 MSTORE PUSH1 0x4 CALLDATASIZE LT PUSH2 0x7B JUMPI PUSH1 0x0 CALLDATALOAD PUSH1 0xE0 SHR DUP1 PUSH4 0x8DA5CB5B GT PUSH2 0x4E JUMPI DUP1 PUSH4 0x8DA5CB5B EQ PUSH2 0x105 JUMPI DUP1 PUSH4 0xB0867883 EQ PUSH2 0x130 JUMPI DUP1 PUSH4 0xF2FDE38B EQ PUSH2 0x16D JUMPI DUP1 PUSH4 0xF8A8FD6D EQ PUSH2 0x196 JUMPI PUSH2 0x7B JUMP JUMPDEST DUP1 PUSH4 0x95EA7B3 EQ PUSH2 0x80 JUMPI DUP1 PUSH4 0x2906799B EQ PUSH2 0xA9 JUMPI DUP1 PUSH4 0x5D86ACF1 EQ PUSH2 0xD2 JUMPI DUP1 PUSH4 0x715018A6 EQ PUSH2 0xEE JUMPI JUMPDEST PUSH1 0x0 DUP1 REVERT JUMPDEST CALLVALUE DUP1 ISZERO PUSH2 0x8C JUMPI PUSH1 0x0 DUP1 REVERT JUMPDEST POP PUSH2 0xA7 PUSH1 0x4 DUP1 CALLDATASIZE SUB DUP2 ADD SWAP1 PUSH2 0xA2 SWAP2 SWAP1 PUSH2 0x105B JUMP JUMPDEST PUSH2 0x1A0 JUMP JUMPDEST STOP JUMPDEST CALLVALUE DUP1 ISZERO PUSH2 0xB5 JUMPI PUSH1 0x0 DUP1 REVERT JUMPDEST POP PUSH2 0xD0 PUSH1 0x4 DUP1 CALLDATASIZE SUB DUP2 ADD SWAP1 PUSH2 0xCB SWAP2 SWAP1 PUSH2 0x1124 JUMP JUMPDEST PUSH2 0x1D1 JUMP JUMPDEST STOP JUMPDEST PUSH2 0xEC PUSH1 0x4 DUP1 CALLDATASIZE SUB DUP2 ADD SWAP1 PUSH2 0xE7 SWAP2 SWAP1 PUSH2 0x1124 JUMP JUMPDEST PUSH2 0x397 JUMP JUMPDEST STOP JUMPDEST CALLVALUE DUP1 ISZERO PUSH2 0xFA JUMPI PUSH1 0x0 DUP1 REVERT JUMPDEST POP PUSH2 0x103 PUSH2 0x593 JUMP JUMPDEST STOP JUMPDEST CALLVALUE DUP1 ISZERO PUSH2 0x111 JUMPI PUSH1 0x0 DUP1 REVERT JUMPDEST POP PUSH2 0x11A PUSH2 0x5A7 JUMP JUMPDEST PUSH1 0x40 MLOAD PUSH2 0x127 SWAP2 SWAP1 PUSH2 0x11AF JUMP JUMPDEST PUSH1 0x40 MLOAD DUP1 SWAP2 SUB SWAP1 RETURN JUMPDEST CALLVALUE DUP1 ISZERO PUSH2 0x13C JUMPI PUSH1 0x0 DUP1 REVERT JUMPDEST POP PUSH2 0x157 PUSH1 0x4 DUP1 CALLDATASIZE SUB DUP2 ADD SWAP1 PUSH2 0x152 SWAP2 SWAP1 PUSH2 0x130B JUMP JUMPDEST PUSH2 0x5D0 JUMP JUMPDEST PUSH1 0x40 MLOAD PUSH2 0x164 SWAP2 SWAP1 PUSH2 0x11AF JUMP JUMPDEST PUSH1 0x40 MLOAD DUP1 SWAP2 SUB SWAP1 RETURN JUMPDEST CALLVALUE DUP1 ISZERO PUSH2 0x179 JUMPI PUSH1 0x0 DUP1 REVERT JUMPDEST POP PUSH2 0x194 PUSH1 0x4 DUP1 CALLDATASIZE SUB DUP2 ADD SWAP1 PUSH2 0x18F SWAP2 SWAP1 PUSH2 0x1383 JUMP JUMPDEST PUSH2 0x614 JUMP JUMPDEST STOP JUMPDEST PUSH2 0x19E PUSH2 0x697 JUMP JUMPDEST STOP JUMPDEST PUSH2 0x1CD PUSH1 0x1 PUSH1 0x0 SWAP1 SLOAD SWAP1 PUSH2 0x100 EXP SWAP1 DIV PUSH20 0xFFFFFFFFFFFFFFFFFFFFFFFFFFFFFFFFFFFFFFFF AND DUP4 DUP4 PUSH2 0x699 JUMP JUMPDEST POP POP JUMP JUMPDEST CALLER PUSH20 0xFFFFFFFFFFFFFFFFFFFFFFFFFFFFFFFFFFFFFFFF AND DUP4 PUSH1 0xA0 ADD PUSH1 0x20 DUP2 ADD SWAP1 PUSH2 0x1FB SWAP2 SWAP1 PUSH2 0x1383 JUMP JUMPDEST PUSH20 0xFFFFFFFFFFFFFFFFFFFFFFFFFFFFFFFFFFFFFFFF AND EQ PUSH2 0x251 JUMPI PUSH1 0x40 MLOAD PUSH32 0x8C379A000000000000000000000000000000000000000000000000000000000 DUP2 MSTORE PUSH1 0x4 ADD PUSH2 0x248 SWAP1 PUSH2 0x140D JUMP JUMPDEST PUSH1 0x40 MLOAD DUP1 SWAP2 SUB SWAP1 REVERT JUMPDEST PUSH2 0x2BE DUP4 PUSH1 0x40 MLOAD PUSH1 0x20 ADD PUSH2 0x265 SWAP2 SWAP1 PUSH2 0x15E4 JUMP JUMPDEST PUSH1 0x40 MLOAD PUSH1 0x20 DUP2 DUP4 SUB SUB DUP2 MSTORE SWAP1 PUSH1 0x40 MSTORE DUP4 DUP4 DUP1 DUP1 PUSH1 0x1F ADD PUSH1 0x20 DUP1 SWAP2 DIV MUL PUSH1 0x20 ADD PUSH1 0x40 MLOAD SWAP1 DUP2 ADD PUSH1 0x40 MSTORE DUP1 SWAP4 SWAP3 SWAP2 SWAP1 DUP2 DUP2 MSTORE PUSH1 0x20 ADD DUP4 DUP4 DUP1 DUP3 DUP5 CALLDATACOPY PUSH1 0x0 DUP2 DUP5 ADD MSTORE PUSH1 0x1F NOT PUSH1 0x1F DUP3 ADD AND SWAP1 POP DUP1 DUP4 ADD SWAP3 POP POP POP POP POP POP POP PUSH2 0x7CF JUMP JUMPDEST PUSH2 0x2E0 DUP4 PUSH1 0x0 ADD PUSH1 0x20 DUP2 ADD SWAP1 PUSH2 0x2D4 SWAP2 SWAP1 PUSH2 0x1383 JUMP JUMPDEST CALLER ADDRESS DUP7 PUSH1 0x20 ADD CALLDATALOAD PUSH2 0x948 JUMP JUMPDEST PUSH2 0x322 DUP4 PUSH1 0x0 ADD PUSH1 0x20 DUP2 ADD SWAP1 PUSH2 0x2F6 SWAP2 SWAP1 PUSH2 0x1383 JUMP JUMPDEST DUP5 PUSH1 0x60 ADD PUSH1 0x20 DUP2 ADD SWAP1 PUSH2 0x309 SWAP2 SWAP1 PUSH2 0x1383 JUMP JUMPDEST DUP6 PUSH1 0x40 ADD CALLDATALOAD DUP7 PUSH1 0x20 ADD CALLDATALOAD PUSH2 0x31D SWAP2 SWAP1 PUSH2 0x1635 JUMP JUMPDEST PUSH2 0x699 JUMP JUMPDEST PUSH2 0x392 DUP4 PUSH1 0x60 ADD PUSH1 0x20 DUP2 ADD SWAP1 PUSH2 0x338 SWAP2 SWAP1 PUSH2 0x1383 JUMP JUMPDEST PUSH1 0x0 DUP6 DUP1 PUSH1 0x80 ADD SWAP1 PUSH2 0x34A SWAP2 SWAP1 PUSH2 0x1678 JUMP JUMPDEST DUP1 DUP1 PUSH1 0x1F ADD PUSH1 0x20 DUP1 SWAP2 DIV MUL PUSH1 0x20 ADD PUSH1 0x40 MLOAD SWAP1 DUP2 ADD PUSH1 0x40 MSTORE DUP1 SWAP4 SWAP3 SWAP2 SWAP1 DUP2 DUP2 MSTORE PUSH1 0x20 ADD DUP4 DUP4 DUP1 DUP3 DUP5 CALLDATACOPY PUSH1 0x0 DUP2 DUP5 ADD MSTORE PUSH1 0x1F NOT PUSH1 0x1F DUP3 ADD AND SWAP1 POP DUP1 DUP4 ADD SWAP3 POP POP POP POP POP POP POP PUSH2 0xA81 JUMP JUMPDEST POP POP POP JUMP JUMPDEST CALLER PUSH20 0xFFFFFFFFFFFFFFFFFFFFFFFFFFFFFFFFFFFFFFFF AND DUP4 PUSH1 0xA0 ADD PUSH1 0x20 DUP2 ADD SWAP1 PUSH2 0x3C1 SWAP2 SWAP1 PUSH2 0x1383 JUMP JUMPDEST PUSH20 0xFFFFFFFFFFFFFFFFFFFFFFFFFFFFFFFFFFFFFFFF AND EQ PUSH2 0x417 JUMPI PUSH1 0x40 MLOAD PUSH32 0x8C379A000000000000000000000000000000000000000000000000000000000 DUP2 MSTORE PUSH1 0x4 ADD PUSH2 0x40E SWAP1 PUSH2 0x140D JUMP JUMPDEST PUSH1 0x40 MLOAD DUP1 SWAP2 SUB SWAP1 REVERT JUMPDEST PUSH2 0x484 DUP4 PUSH1 0x40 MLOAD PUSH1 0x20 ADD PUSH2 0x42B SWAP2 SWAP1 PUSH2 0x15E4 JUMP JUMPDEST PUSH1 0x40 MLOAD PUSH1 0x20 DUP2 DUP4 SUB SUB DUP2 MSTORE SWAP1 PUSH1 0x40 MSTORE DUP4 DUP4 DUP1 DUP1 PUSH1 0x1F ADD PUSH1 0x20 DUP1 SWAP2 DIV MUL PUSH1 0x20 ADD PUSH1 0x40 MLOAD SWAP1 DUP2 ADD PUSH1 0x40 MSTORE DUP1 SWAP4 SWAP3 SWAP2 SWAP1 DUP2 DUP2 MSTORE PUSH1 0x20 ADD DUP4 DUP4 DUP1 DUP3 DUP5 CALLDATACOPY PUSH1 0x0 DUP2 DUP5 ADD MSTORE PUSH1 0x1F NOT PUSH1 0x1F DUP3 ADD AND SWAP1 POP DUP1 DUP4 ADD SWAP3 POP POP POP POP POP POP POP PUSH2 0x7CF JUMP JUMPDEST DUP3 PUSH1 0x20 ADD CALLDATALOAD CALLVALUE LT ISZERO PUSH2 0x4CB JUMPI PUSH1 0x40 MLOAD PUSH32 0x8C379A000000000000000000000000000000000000000000000000000000000 DUP2 MSTORE PUSH1 0x4 ADD PUSH2 0x4C2 SWAP1 PUSH2 0x1727 JUMP JUMPDEST PUSH1 0x40 MLOAD DUP1 SWAP2 SUB SWAP1 REVERT JUMPDEST PUSH1 0x0 DUP4 PUSH1 0x40 ADD CALLDATALOAD CALLVALUE PUSH2 0x4DD SWAP2 SWAP1 PUSH2 0x1635 JUMP JUMPDEST SWAP1 POP PUSH2 0x51E PUSH1 0x1 PUSH1 0x0 SWAP1 SLOAD SWAP1 PUSH2 0x100 EXP SWAP1 DIV PUSH20 0xFFFFFFFFFFFFFFFFFFFFFFFFFFFFFFFFFFFFFFFF AND DUP6 PUSH1 0x60 ADD PUSH1 0x20 DUP2 ADD SWAP1 PUSH2 0x518 SWAP2 SWAP1 PUSH2 0x1383 JUMP JUMPDEST DUP4 PUSH2 0x699 JUMP JUMPDEST PUSH2 0x58D DUP5 PUSH1 0x60 ADD PUSH1 0x20 DUP2 ADD SWAP1 PUSH2 0x534 SWAP2 SWAP1 PUSH2 0x1383 JUMP JUMPDEST DUP3 DUP7 DUP1 PUSH1 0x80 ADD SWAP1 PUSH2 0x545 SWAP2 SWAP1 PUSH2 0x1678 JUMP JUMPDEST DUP1 DUP1 PUSH1 0x1F ADD PUSH1 0x20 DUP1 SWAP2 DIV MUL PUSH1 0x20 ADD PUSH1 0x40 MLOAD SWAP1 DUP2 ADD PUSH1 0x40 MSTORE DUP1 SWAP4 SWAP3 SWAP2 SWAP1 DUP2 DUP2 MSTORE PUSH1 0x20 ADD DUP4 DUP4 DUP1 DUP3 DUP5 CALLDATACOPY PUSH1 0x0 DUP2 DUP5 ADD MSTORE PUSH1 0x1F NOT PUSH1 0x1F DUP3 ADD AND SWAP1 POP DUP1 DUP4 ADD SWAP3 POP POP POP POP POP POP POP PUSH2 0xA81 JUMP JUMPDEST POP POP POP POP JUMP JUMPDEST PUSH2 0x59B PUSH2 0xB98 JUMP JUMPDEST PUSH2 0x5A5 PUSH1 0x0 PUSH2 0xC16 JUMP JUMPDEST JUMP JUMPDEST PUSH1 0x0 DUP1 PUSH1 0x0 SWAP1 SLOAD SWAP1 PUSH2 0x100 EXP SWAP1 DIV PUSH20 0xFFFFFFFFFFFFFFFFFFFFFFFFFFFFFFFFFFFFFFFF AND SWAP1 POP SWAP1 JUMP JUMPDEST PUSH1 0x0 PUSH2 0x60C DUP3 PUSH2 0x5FE DUP6 PUSH1 0x40 MLOAD PUSH1 0x20 ADD PUSH2 0x5EA SWAP2 SWAP1 PUSH2 0x15E4 JUMP JUMPDEST PUSH1 0x40 MLOAD PUSH1 0x20 DUP2 DUP4 SUB SUB DUP2 MSTORE SWAP1 PUSH1 0x40 MSTORE PUSH2 0xCDA JUMP JUMPDEST PUSH2 0xCEB SWAP1 SWAP2 SWAP1 PUSH4 0xFFFFFFFF AND JUMP JUMPDEST SWAP1 POP SWAP3 SWAP2 POP POP JUMP JUMPDEST PUSH2 0x61C PUSH2 0xB98 JUMP JUMPDEST PUSH1 0x0 PUSH20 0xFFFFFFFFFFFFFFFFFFFFFFFFFFFFFFFFFFFFFFFF AND DUP2 PUSH20 0xFFFFFFFFFFFFFFFFFFFFFFFFFFFFFFFFFFFFFFFF AND SUB PUSH2 0x68B JUMPI PUSH1 0x40 MLOAD PUSH32 0x8C379A000000000000000000000000000000000000000000000000000000000 DUP2 MSTORE PUSH1 0x4 ADD PUSH2 0x682 SWAP1 PUSH2 0x17B9 JUMP JUMPDEST PUSH1 0x40 MLOAD DUP1 SWAP2 SUB SWAP1 REVERT JUMPDEST PUSH2 0x694 DUP2 PUSH2 0xC16 JUMP JUMPDEST POP JUMP JUMPDEST JUMP JUMPDEST PUSH1 0x0 DUP1 DUP5 PUSH20 0xFFFFFFFFFFFFFFFFFFFFFFFFFFFFFFFFFFFFFFFF AND PUSH4 0x95EA7B3 DUP6 DUP6 PUSH1 0x40 MLOAD PUSH1 0x24 ADD PUSH2 0x6CB SWAP3 SWAP2 SWAP1 PUSH2 0x17E8 JUMP JUMPDEST PUSH1 0x40 MLOAD PUSH1 0x20 DUP2 DUP4 SUB SUB DUP2 MSTORE SWAP1 PUSH1 0x40 MSTORE SWAP1 PUSH1 0xE0 SHL PUSH1 0x20 DUP3 ADD DUP1 MLOAD PUSH28 0xFFFFFFFFFFFFFFFFFFFFFFFFFFFFFFFFFFFFFFFFFFFFFFFFFFFFFFFF DUP4 DUP2 DUP4 AND OR DUP4 MSTORE POP POP POP POP PUSH1 0x40 MLOAD PUSH2 0x719 SWAP2 SWAP1 PUSH2 0x1882 JUMP JUMPDEST PUSH1 0x0 PUSH1 0x40 MLOAD DUP1 DUP4 SUB DUP2 PUSH1 0x0 DUP7 GAS CALL SWAP2 POP POP RETURNDATASIZE DUP1 PUSH1 0x0 DUP2 EQ PUSH2 0x756 JUMPI PUSH1 0x40 MLOAD SWAP2 POP PUSH1 0x1F NOT PUSH1 0x3F RETURNDATASIZE ADD AND DUP3 ADD PUSH1 0x40 MSTORE RETURNDATASIZE DUP3 MSTORE RETURNDATASIZE PUSH1 0x0 PUSH1 0x20 DUP5 ADD RETURNDATACOPY PUSH2 0x75B JUMP JUMPDEST PUSH1 0x60 SWAP2 POP JUMPDEST POP SWAP2 POP SWAP2 POP DUP2 DUP1 ISZERO PUSH2 0x789 JUMPI POP PUSH1 0x0 DUP2 MLOAD EQ DUP1 PUSH2 0x788 JUMPI POP DUP1 DUP1 PUSH1 0x20 ADD SWAP1 MLOAD DUP2 ADD SWAP1 PUSH2 0x787 SWAP2 SWAP1 PUSH2 0x18D1 JUMP JUMPDEST JUMPDEST JUMPDEST PUSH2 0x7C8 JUMPI PUSH1 0x40 MLOAD PUSH32 0x8C379A000000000000000000000000000000000000000000000000000000000 DUP2 MSTORE PUSH1 0x4 ADD PUSH2 0x7BF SWAP1 PUSH2 0x1970 JUMP JUMPDEST PUSH1 0x40 MLOAD DUP1 SWAP2 SUB SWAP1 REVERT JUMPDEST POP POP POP POP POP JUMP JUMPDEST PUSH1 0x1B PUSH1 0xF8 SHL DUP2 PUSH1 0x40 DUP2 MLOAD DUP2 LT PUSH2 0x7E8 JUMPI PUSH2 0x7E7 PUSH2 0x1990 JUMP JUMPDEST JUMPDEST PUSH1 0x20 ADD ADD SWAP1 PUSH31 0xFFFFFFFFFFFFFFFFFFFFFFFFFFFFFFFFFFFFFFFFFFFFFFFFFFFFFFFFFFFFFF NOT AND SWAP1 DUP2 PUSH1 0x0 BYTE SWAP1 MSTORE8 POP PUSH2 0x81F PUSH2 0x5A7 JUMP JUMPDEST PUSH20 0xFFFFFFFFFFFFFFFFFFFFFFFFFFFFFFFFFFFFFFFF AND PUSH2 0x850 DUP3 PUSH2 0x842 DUP6 PUSH2 0xCDA JUMP JUMPDEST PUSH2 0xCEB SWAP1 SWAP2 SWAP1 PUSH4 0xFFFFFFFF AND JUMP JUMPDEST PUSH20 0xFFFFFFFFFFFFFFFFFFFFFFFFFFFFFFFFFFFFFFFF AND SUB ISZERO PUSH2 0x944 JUMPI PUSH1 0x1C PUSH1 0xF8 SHL DUP2 PUSH1 0x40 DUP2 MLOAD DUP2 LT PUSH2 0x885 JUMPI PUSH2 0x884 PUSH2 0x1990 JUMP JUMPDEST JUMPDEST PUSH1 0x20 ADD ADD SWAP1 PUSH31 0xFFFFFFFFFFFFFFFFFFFFFFFFFFFFFFFFFFFFFFFFFFFFFFFFFFFFFFFFFFFFFF NOT AND SWAP1 DUP2 PUSH1 0x0 BYTE SWAP1 MSTORE8 POP PUSH2 0x8BC PUSH2 0x5A7 JUMP JUMPDEST PUSH20 0xFFFFFFFFFFFFFFFFFFFFFFFFFFFFFFFFFFFFFFFF AND PUSH2 0x8ED DUP3 PUSH2 0x8DF DUP6 PUSH2 0xCDA JUMP JUMPDEST PUSH2 0xCEB SWAP1 SWAP2 SWAP1 PUSH4 0xFFFFFFFF AND JUMP JUMPDEST PUSH20 0xFFFFFFFFFFFFFFFFFFFFFFFFFFFFFFFFFFFFFFFF AND EQ PUSH2 0x943 JUMPI PUSH1 0x40 MLOAD PUSH32 0x8C379A000000000000000000000000000000000000000000000000000000000 DUP2 MSTORE PUSH1 0x4 ADD PUSH2 0x93A SWAP1 PUSH2 0x1A0B JUMP JUMPDEST PUSH1 0x40 MLOAD DUP1 SWAP2 SUB SWAP1 REVERT JUMPDEST JUMPDEST POP POP JUMP JUMPDEST PUSH1 0x0 DUP1 DUP6 PUSH20 0xFFFFFFFFFFFFFFFFFFFFFFFFFFFFFFFFFFFFFFFF AND PUSH4 0x23B872DD DUP7 DUP7 DUP7 PUSH1 0x40 MLOAD PUSH1 0x24 ADD PUSH2 0x97C SWAP4 SWAP3 SWAP2 SWAP1 PUSH2 0x1A2B JUMP JUMPDEST PUSH1 0x40 MLOAD PUSH1 0x20 DUP2 DUP4 SUB SUB DUP2 MSTORE SWAP1 PUSH1 0x40 MSTORE SWAP1 PUSH1 0xE0 SHL PUSH1 0x20 DUP3 ADD DUP1 MLOAD PUSH28 0xFFFFFFFFFFFFFFFFFFFFFFFFFFFFFFFFFFFFFFFFFFFFFFFFFFFFFFFF DUP4 DUP2 DUP4 AND OR DUP4 MSTORE POP POP POP POP PUSH1 0x40 MLOAD PUSH2 0x9CA SWAP2 SWAP1 PUSH2 0x1882 JUMP JUMPDEST PUSH1 0x0 PUSH1 0x40 MLOAD DUP1 DUP4 SUB DUP2 PUSH1 0x0 DUP7 GAS CALL SWAP2 POP POP RETURNDATASIZE DUP1 PUSH1 0x0 DUP2 EQ PUSH2 0xA07 JUMPI PUSH1 0x40 MLOAD SWAP2 POP PUSH1 0x1F NOT PUSH1 0x3F RETURNDATASIZE ADD AND DUP3 ADD PUSH1 0x40 MSTORE RETURNDATASIZE DUP3 MSTORE RETURNDATASIZE PUSH1 0x0 PUSH1 0x20 DUP5 ADD RETURNDATACOPY PUSH2 0xA0C JUMP JUMPDEST PUSH1 0x60 SWAP2 POP JUMPDEST POP SWAP2 POP SWAP2 POP DUP2 DUP1 ISZERO PUSH2 0xA3A JUMPI POP PUSH1 0x0 DUP2 MLOAD EQ DUP1 PUSH2 0xA39 JUMPI POP DUP1 DUP1 PUSH1 0x20 ADD SWAP1 MLOAD DUP2 ADD SWAP1 PUSH2 0xA38 SWAP2 SWAP1 PUSH2 0x18D1 JUMP JUMPDEST JUMPDEST JUMPDEST PUSH2 0xA79 JUMPI PUSH1 0x40 MLOAD PUSH32 0x8C379A000000000000000000000000000000000000000000000000000000000 DUP2 MSTORE PUSH1 0x4 ADD PUSH2 0xA70 SWAP1 PUSH2 0x1AD4 JUMP JUMPDEST PUSH1 0x40 MLOAD DUP1 SWAP2 SUB SWAP1 REVERT JUMPDEST POP POP POP POP POP POP JUMP JUMPDEST PUSH1 0x0 DUP1 DUP5 PUSH20 0xFFFFFFFFFFFFFFFFFFFFFFFFFFFFFFFFFFFFFFFF AND DUP5 DUP5 PUSH1 0x40 MLOAD PUSH2 0xAAA SWAP2 SWAP1 PUSH2 0x1882 JUMP JUMPDEST PUSH1 0x0 PUSH1 0x40 MLOAD DUP1 DUP4 SUB DUP2 DUP6 DUP8 GAS CALL SWAP3 POP POP POP RETURNDATASIZE DUP1 PUSH1 0x0 DUP2 EQ PUSH2 0xAE7 JUMPI PUSH1 0x40 MLOAD SWAP2 POP PUSH1 0x1F NOT PUSH1 0x3F RETURNDATASIZE ADD AND DUP3 ADD PUSH1 0x40 MSTORE RETURNDATASIZE DUP3 MSTORE RETURNDATASIZE PUSH1 0x0 PUSH1 0x20 DUP5 ADD RETURNDATACOPY PUSH2 0xAEC JUMP JUMPDEST PUSH1 0x60 SWAP2 POP JUMPDEST POP SWAP2 POP SWAP2 POP DUP2 PUSH2 0xB91 JUMPI PUSH1 0x44 DUP2 MLOAD LT ISZERO PUSH2 0xB3B JUMPI PUSH1 0x40 MLOAD PUSH32 0x8C379A000000000000000000000000000000000000000000000000000000000 DUP2 MSTORE PUSH1 0x4 ADD PUSH2 0xB32 SWAP1 PUSH2 0x1B66 JUMP JUMPDEST PUSH1 0x40 MLOAD DUP1 SWAP2 SUB SWAP1 REVERT JUMPDEST PUSH1 0x4 DUP2 ADD SWAP1 POP DUP1 DUP1 PUSH1 0x20 ADD SWAP1 MLOAD DUP2 ADD SWAP1 PUSH2 0xB55 SWAP2 SWAP1 PUSH2 0x1C27 JUMP JUMPDEST PUSH1 0x40 MLOAD PUSH32 0x8C379A000000000000000000000000000000000000000000000000000000000 DUP2 MSTORE PUSH1 0x4 ADD PUSH2 0xB88 SWAP2 SWAP1 PUSH2 0x1CB4 JUMP JUMPDEST PUSH1 0x40 MLOAD DUP1 SWAP2 SUB SWAP1 REVERT JUMPDEST POP POP POP POP POP JUMP JUMPDEST PUSH2 0xBA0 PUSH2 0xD12 JUMP JUMPDEST PUSH20 0xFFFFFFFFFFFFFFFFFFFFFFFFFFFFFFFFFFFFFFFF AND PUSH2 0xBBE PUSH2 0x5A7 JUMP JUMPDEST PUSH20 0xFFFFFFFFFFFFFFFFFFFFFFFFFFFFFFFFFFFFFFFF AND EQ PUSH2 0xC14 JUMPI PUSH1 0x40 MLOAD PUSH32 0x8C379A000000000000000000000000000000000000000000000000000000000 DUP2 MSTORE PUSH1 0x4 ADD PUSH2 0xC0B SWAP1 PUSH2 0x1D22 JUMP JUMPDEST PUSH1 0x40 MLOAD DUP1 SWAP2 SUB SWAP1 REVERT JUMPDEST JUMP JUMPDEST PUSH1 0x0 DUP1 PUSH1 0x0 SWAP1 SLOAD SWAP1 PUSH2 0x100 EXP SWAP1 DIV PUSH20 0xFFFFFFFFFFFFFFFFFFFFFFFFFFFFFFFFFFFFFFFF AND SWAP1 POP DUP2 PUSH1 0x0 DUP1 PUSH2 0x100 EXP DUP2 SLOAD DUP2 PUSH20 0xFFFFFFFFFFFFFFFFFFFFFFFFFFFFFFFFFFFFFFFF MUL NOT AND SWAP1 DUP4 PUSH20 0xFFFFFFFFFFFFFFFFFFFFFFFFFFFFFFFFFFFFFFFF AND MUL OR SWAP1 SSTORE POP DUP2 PUSH20 0xFFFFFFFFFFFFFFFFFFFFFFFFFFFFFFFFFFFFFFFF AND DUP2 PUSH20 0xFFFFFFFFFFFFFFFFFFFFFFFFFFFFFFFFFFFFFFFF AND PUSH32 0x8BE0079C531659141344CD1FD0A4F28419497F9722A3DAAFE3B4186F6B6457E0 PUSH1 0x40 MLOAD PUSH1 0x40 MLOAD DUP1 SWAP2 SUB SWAP1 LOG3 POP POP JUMP JUMPDEST PUSH1 0x0 DUP2 DUP1 MLOAD SWAP1 PUSH1 0x20 ADD KECCAK256 SWAP1 POP SWAP2 SWAP1 POP JUMP JUMPDEST PUSH1 0x0 DUP1 PUSH1 0x0 PUSH2 0xCFA DUP6 DUP6 PUSH2 0xD1A JUMP JUMPDEST SWAP2 POP SWAP2 POP PUSH2 0xD07 DUP2 PUSH2 0xD6B JUMP JUMPDEST DUP2 SWAP3 POP POP POP SWAP3 SWAP2 POP POP JUMP JUMPDEST PUSH1 0x0 CALLER SWAP1 POP SWAP1 JUMP JUMPDEST PUSH1 0x0 DUP1 PUSH1 0x41 DUP4 MLOAD SUB PUSH2 0xD5B JUMPI PUSH1 0x0 DUP1 PUSH1 0x0 PUSH1 0x20 DUP7 ADD MLOAD SWAP3 POP PUSH1 0x40 DUP7 ADD MLOAD SWAP2 POP PUSH1 0x60 DUP7 ADD MLOAD PUSH1 0x0 BYTE SWAP1 POP PUSH2 0xD4F DUP8 DUP3 DUP6 DUP6 PUSH2 0xED1 JUMP JUMPDEST SWAP5 POP SWAP5 POP POP POP POP PUSH2 0xD64 JUMP JUMPDEST PUSH1 0x0 PUSH1 0x2 SWAP2 POP SWAP2 POP JUMPDEST SWAP3 POP SWAP3 SWAP1 POP JUMP JUMPDEST PUSH1 0x0 PUSH1 0x4 DUP2 GT ISZERO PUSH2 0xD7F JUMPI PUSH2 0xD7E PUSH2 0x1D42 JUMP JUMPDEST JUMPDEST DUP2 PUSH1 0x4 DUP2 GT ISZERO PUSH2 0xD92 JUMPI PUSH2 0xD91 PUSH2 0x1D42 JUMP JUMPDEST JUMPDEST SUB ISZERO PUSH2 0xECE JUMPI PUSH1 0x1 PUSH1 0x4 DUP2 GT ISZERO PUSH2 0xDAC JUMPI PUSH2 0xDAB PUSH2 0x1D42 JUMP JUMPDEST JUMPDEST DUP2 PUSH1 0x4 DUP2 GT ISZERO PUSH2 0xDBF JUMPI PUSH2 0xDBE PUSH2 0x1D42 JUMP JUMPDEST JUMPDEST SUB PUSH2 0xDFF JUMPI PUSH1 0x40 MLOAD PUSH32 0x8C379A000000000000000000000000000000000000000000000000000000000 DUP2 MSTORE PUSH1 0x4 ADD PUSH2 0xDF6 SWAP1 PUSH2 0x1DBD JUMP JUMPDEST PUSH1 0x40 MLOAD DUP1 SWAP2 SUB SWAP1 REVERT JUMPDEST PUSH1 0x2 PUSH1 0x4 DUP2 GT ISZERO PUSH2 0xE13 JUMPI PUSH2 0xE12 PUSH2 0x1D42 JUMP JUMPDEST JUMPDEST DUP2 PUSH1 0x4 DUP2 GT ISZERO PUSH2 0xE26 JUMPI PUSH2 0xE25 PUSH2 0x1D42 JUMP JUMPDEST JUMPDEST SUB PUSH2 0xE66 JUMPI PUSH1 0x40 MLOAD PUSH32 0x8C379A000000000000000000000000000000000000000000000000000000000 DUP2 MSTORE PUSH1 0x4 ADD PUSH2 0xE5D SWAP1 PUSH2 0x1E29 JUMP JUMPDEST PUSH1 0x40 MLOAD DUP1 SWAP2 SUB SWAP1 REVERT JUMPDEST PUSH1 0x3 PUSH1 0x4 DUP2 GT ISZERO PUSH2 0xE7A JUMPI PUSH2 0xE79 PUSH2 0x1D42 JUMP JUMPDEST JUMPDEST DUP2 PUSH1 0x4 DUP2 GT ISZERO PUSH2 0xE8D JUMPI PUSH2 0xE8C PUSH2 0x1D42 JUMP JUMPDEST JUMPDEST SUB PUSH2 0xECD JUMPI PUSH1 0x40 MLOAD PUSH32 0x8C379A000000000000000000000000000000000000000000000000000000000 DUP2 MSTORE PUSH1 0x4 ADD PUSH2 0xEC4 SWAP1 PUSH2 0x1EBB JUMP JUMPDEST PUSH1 0x40 MLOAD DUP1 SWAP2 SUB SWAP1 REVERT JUMPDEST JUMPDEST POP JUMP JUMPDEST PUSH1 0x0 DUP1 PUSH32 0x7FFFFFFFFFFFFFFFFFFFFFFFFFFFFFFF5D576E7357A4501DDFE92F46681B20A0 DUP4 PUSH1 0x0 SHR GT ISZERO PUSH2 0xF0C JUMPI PUSH1 0x0 PUSH1 0x3 SWAP2 POP SWAP2 POP PUSH2 0xFAA JUMP JUMPDEST PUSH1 0x0 PUSH1 0x1 DUP8 DUP8 DUP8 DUP8 PUSH1 0x40 MLOAD PUSH1 0x0 DUP2 MSTORE PUSH1 0x20 ADD PUSH1 0x40 MSTORE PUSH1 0x40 MLOAD PUSH2 0xF31 SWAP5 SWAP4 SWAP3 SWAP2 SWAP1 PUSH2 0x1F10 JUMP JUMPDEST PUSH1 0x20 PUSH1 0x40 MLOAD PUSH1 0x20 DUP2 SUB SWAP1 DUP1 DUP5 SUB SWAP1 DUP6 GAS STATICCALL ISZERO DUP1 ISZERO PUSH2 0xF53 JUMPI RETURNDATASIZE PUSH1 0x0 DUP1 RETURNDATACOPY RETURNDATASIZE PUSH1 0x0 REVERT JUMPDEST POP POP POP PUSH1 0x20 PUSH1 0x40 MLOAD SUB MLOAD SWAP1 POP PUSH1 0x0 PUSH20 0xFFFFFFFFFFFFFFFFFFFFFFFFFFFFFFFFFFFFFFFF AND DUP2 PUSH20 0xFFFFFFFFFFFFFFFFFFFFFFFFFFFFFFFFFFFFFFFF AND SUB PUSH2 0xFA1 JUMPI PUSH1 0x0 PUSH1 0x1 SWAP3 POP SWAP3 POP POP PUSH2 0xFAA JUMP JUMPDEST DUP1 PUSH1 0x0 SWAP3 POP SWAP3 POP POP JUMPDEST SWAP5 POP SWAP5 SWAP3 POP POP POP JUMP JUMPDEST PUSH1 0x0 PUSH1 0x40 MLOAD SWAP1 POP SWAP1 JUMP JUMPDEST PUSH1 0x0 DUP1 REVERT JUMPDEST PUSH1 0x0 DUP1 REVERT JUMPDEST PUSH1 0x0 PUSH20 0xFFFFFFFFFFFFFFFFFFFFFFFFFFFFFFFFFFFFFFFF DUP3 AND SWAP1 POP SWAP2 SWAP1 POP JUMP JUMPDEST PUSH1 0x0 PUSH2 0xFF2 DUP3 PUSH2 0xFC7 JUMP JUMPDEST SWAP1 POP SWAP2 SWAP1 POP JUMP JUMPDEST PUSH2 0x1002 DUP2 PUSH2 0xFE7 JUMP JUMPDEST DUP2 EQ PUSH2 0x100D JUMPI PUSH1 0x0 DUP1 REVERT JUMPDEST POP JUMP JUMPDEST PUSH1 0x0 DUP2 CALLDATALOAD SWAP1 POP PUSH2 0x101F DUP2 PUSH2 0xFF9 JUMP JUMPDEST SWAP3 SWAP2 POP POP JUMP JUMPDEST PUSH1 0x0 DUP2 SWAP1 POP SWAP2 SWAP1 POP JUMP JUMPDEST PUSH2 0x1038 DUP2 PUSH2 0x1025 JUMP JUMPDEST DUP2 EQ PUSH2 0x1043 JUMPI PUSH1 0x0 DUP1 REVERT JUMPDEST POP JUMP JUMPDEST PUSH1 0x0 DUP2 CALLDATALOAD SWAP1 POP PUSH2 0x1055 DUP2 PUSH2 0x102F JUMP JUMPDEST SWAP3 SWAP2 POP POP JUMP JUMPDEST PUSH1 0x0 DUP1 PUSH1 0x40 DUP4 DUP6 SUB SLT ISZERO PUSH2 0x1072 JUMPI PUSH2 0x1071 PUSH2 0xFBD JUMP JUMPDEST JUMPDEST PUSH1 0x0 PUSH2 0x1080 DUP6 DUP3 DUP7 ADD PUSH2 0x1010 JUMP JUMPDEST SWAP3 POP POP PUSH1 0x20 PUSH2 0x1091 DUP6 DUP3 DUP7 ADD PUSH2 0x1046 JUMP JUMPDEST SWAP2 POP POP SWAP3 POP SWAP3 SWAP1 POP JUMP JUMPDEST PUSH1 0x0 DUP1 REVERT JUMPDEST PUSH1 0x0 PUSH1 0xC0 DUP3 DUP5 SUB SLT ISZERO PUSH2 0x10B6 JUMPI PUSH2 0x10B5 PUSH2 0x109B JUMP JUMPDEST JUMPDEST DUP2 SWAP1 POP SWAP3 SWAP2 POP POP JUMP JUMPDEST PUSH1 0x0 DUP1 REVERT JUMPDEST PUSH1 0x0 DUP1 REVERT JUMPDEST PUSH1 0x0 DUP1 REVERT JUMPDEST PUSH1 0x0 DUP1 DUP4 PUSH1 0x1F DUP5 ADD SLT PUSH2 0x10E4 JUMPI PUSH2 0x10E3 PUSH2 0x10BF JUMP JUMPDEST JUMPDEST DUP3 CALLDATALOAD SWAP1 POP PUSH8 0xFFFFFFFFFFFFFFFF DUP2 GT ISZERO PUSH2 0x1101 JUMPI PUSH2 0x1100 PUSH2 0x10C4 JUMP JUMPDEST JUMPDEST PUSH1 0x20 DUP4 ADD SWAP2 POP DUP4 PUSH1 0x1 DUP3 MUL DUP4 ADD GT ISZERO PUSH2 0x111D JUMPI PUSH2 0x111C PUSH2 0x10C9 JUMP JUMPDEST JUMPDEST SWAP3 POP SWAP3 SWAP1 POP JUMP JUMPDEST PUSH1 0x0 DUP1 PUSH1 0x0 PUSH1 0x40 DUP5 DUP7 SUB SLT ISZERO PUSH2 0x113D JUMPI PUSH2 0x113C PUSH2 0xFBD JUMP JUMPDEST JUMPDEST PUSH1 0x0 DUP5 ADD CALLDATALOAD PUSH8 0xFFFFFFFFFFFFFFFF DUP2 GT ISZERO PUSH2 0x115B JUMPI PUSH2 0x115A PUSH2 0xFC2 JUMP JUMPDEST JUMPDEST PUSH2 0x1167 DUP7 DUP3 DUP8 ADD PUSH2 0x10A0 JUMP JUMPDEST SWAP4 POP POP PUSH1 0x20 DUP5 ADD CALLDATALOAD PUSH8 0xFFFFFFFFFFFFFFFF DUP2 GT ISZERO PUSH2 0x1188 JUMPI PUSH2 0x1187 PUSH2 0xFC2 JUMP JUMPDEST JUMPDEST PUSH2 0x1194 DUP7 DUP3 DUP8 ADD PUSH2 0x10CE JUMP JUMPDEST SWAP3 POP SWAP3 POP POP SWAP3 POP SWAP3 POP SWAP3 JUMP JUMPDEST PUSH2 0x11A9 DUP2 PUSH2 0xFE7 JUMP JUMPDEST DUP3 MSTORE POP POP JUMP JUMPDEST PUSH1 0x0 PUSH1 0x20 DUP3 ADD SWAP1 POP PUSH2 0x11C4 PUSH1 0x0 DUP4 ADD DUP5 PUSH2 0x11A0 JUMP JUMPDEST SWAP3 SWAP2 POP POP JUMP JUMPDEST PUSH1 0x0 DUP1 REVERT JUMPDEST PUSH1 0x0 PUSH1 0x1F NOT PUSH1 0x1F DUP4 ADD AND SWAP1 POP SWAP2 SWAP1 POP JUMP JUMPDEST PUSH32 0x4E487B7100000000000000000000000000000000000000000000000000000000 PUSH1 0x0 MSTORE PUSH1 0x41 PUSH1 0x4 MSTORE PUSH1 0x24 PUSH1 0x0 REVERT JUMPDEST PUSH2 0x1218 DUP3 PUSH2 0x11CF JUMP JUMPDEST DUP2 ADD DUP2 DUP2 LT PUSH8 0xFFFFFFFFFFFFFFFF DUP3 GT OR ISZERO PUSH2 0x1237 JUMPI PUSH2 0x1236 PUSH2 0x11E0 JUMP JUMPDEST JUMPDEST DUP1 PUSH1 0x40 MSTORE POP POP POP JUMP JUMPDEST PUSH1 0x0 PUSH2 0x124A PUSH2 0xFB3 JUMP JUMPDEST SWAP1 POP PUSH2 0x1256 DUP3 DUP3 PUSH2 0x120F JUMP JUMPDEST SWAP2 SWAP1 POP JUMP JUMPDEST PUSH1 0x0 PUSH8 0xFFFFFFFFFFFFFFFF DUP3 GT ISZERO PUSH2 0x1276 JUMPI PUSH2 0x1275 PUSH2 0x11E0 JUMP JUMPDEST JUMPDEST PUSH2 0x127F DUP3 PUSH2 0x11CF JUMP JUMPDEST SWAP1 POP PUSH1 0x20 DUP2 ADD SWAP1 POP SWAP2 SWAP1 POP JUMP JUMPDEST DUP3 DUP2 DUP4 CALLDATACOPY PUSH1 0x0 DUP4 DUP4 ADD MSTORE POP POP POP JUMP JUMPDEST PUSH1 0x0 PUSH2 0x12AE PUSH2 0x12A9 DUP5 PUSH2 0x125B JUMP JUMPDEST PUSH2 0x1240 JUMP JUMPDEST SWAP1 POP DUP3 DUP2 MSTORE PUSH1 0x20 DUP2 ADD DUP5 DUP5 DUP5 ADD GT ISZERO PUSH2 0x12CA JUMPI PUSH2 0x12C9 PUSH2 0x11CA JUMP JUMPDEST JUMPDEST PUSH2 0x12D5 DUP5 DUP3 DUP6 PUSH2 0x128C JUMP JUMPDEST POP SWAP4 SWAP3 POP POP POP JUMP JUMPDEST PUSH1 0x0 DUP3 PUSH1 0x1F DUP4 ADD SLT PUSH2 0x12F2 JUMPI PUSH2 0x12F1 PUSH2 0x10BF JUMP JUMPDEST JUMPDEST DUP2 CALLDATALOAD PUSH2 0x1302 DUP5 DUP3 PUSH1 0x20 DUP7 ADD PUSH2 0x129B JUMP JUMPDEST SWAP2 POP POP SWAP3 SWAP2 POP POP JUMP JUMPDEST PUSH1 0x0 DUP1 PUSH1 0x40 DUP4 DUP6 SUB SLT ISZERO PUSH2 0x1322 JUMPI PUSH2 0x1321 PUSH2 0xFBD JUMP JUMPDEST JUMPDEST PUSH1 0x0 DUP4 ADD CALLDATALOAD PUSH8 0xFFFFFFFFFFFFFFFF DUP2 GT ISZERO PUSH2 0x1340 JUMPI PUSH2 0x133F PUSH2 0xFC2 JUMP JUMPDEST JUMPDEST PUSH2 0x134C DUP6 DUP3 DUP7 ADD PUSH2 0x10A0 JUMP JUMPDEST SWAP3 POP POP PUSH1 0x20 DUP4 ADD CALLDATALOAD PUSH8 0xFFFFFFFFFFFFFFFF DUP2 GT ISZERO PUSH2 0x136D JUMPI PUSH2 0x136C PUSH2 0xFC2 JUMP JUMPDEST JUMPDEST PUSH2 0x1379 DUP6 DUP3 DUP7 ADD PUSH2 0x12DD JUMP JUMPDEST SWAP2 POP POP SWAP3 POP SWAP3 SWAP1 POP JUMP JUMPDEST PUSH1 0x0 PUSH1 0x20 DUP3 DUP5 SUB SLT ISZERO PUSH2 0x1399 JUMPI PUSH2 0x1398 PUSH2 0xFBD JUMP JUMPDEST JUMPDEST PUSH1 0x0 PUSH2 0x13A7 DUP5 DUP3 DUP6 ADD PUSH2 0x1010 JUMP JUMPDEST SWAP2 POP POP SWAP3 SWAP2 POP POP JUMP JUMPDEST PUSH1 0x0 DUP3 DUP3 MSTORE PUSH1 0x20 DUP3 ADD SWAP1 POP SWAP3 SWAP2 POP POP JUMP JUMPDEST PUSH32 0x696E76616C65642073656E646572000000000000000000000000000000000000 PUSH1 0x0 DUP3 ADD MSTORE POP JUMP JUMPDEST PUSH1 0x0 PUSH2 0x13F7 PUSH1 0xE DUP4 PUSH2 0x13B0 JUMP JUMPDEST SWAP2 POP PUSH2 0x1402 DUP3 PUSH2 0x13C1 JUMP JUMPDEST PUSH1 0x20 DUP3 ADD SWAP1 POP SWAP2 SWAP1 POP JUMP JUMPDEST PUSH1 0x0 PUSH1 0x20 DUP3 ADD SWAP1 POP DUP2 DUP2 SUB PUSH1 0x0 DUP4 ADD MSTORE PUSH2 0x1426 DUP2 PUSH2 0x13EA JUMP JUMPDEST SWAP1 POP SWAP2 SWAP1 POP JUMP JUMPDEST PUSH1 0x0 PUSH2 0x143C PUSH1 0x20 DUP5 ADD DUP5 PUSH2 0x1010 JUMP JUMPDEST SWAP1 POP SWAP3 SWAP2 POP POP JUMP JUMPDEST PUSH2 0x144D DUP2 PUSH2 0xFE7 JUMP JUMPDEST DUP3 MSTORE POP POP JUMP JUMPDEST PUSH1 0x0 PUSH2 0x1462 PUSH1 0x20 DUP5 ADD DUP5 PUSH2 0x1046 JUMP JUMPDEST SWAP1 POP SWAP3 SWAP2 POP POP JUMP JUMPDEST PUSH2 0x1473 DUP2 PUSH2 0x1025 JUMP JUMPDEST DUP3 MSTORE POP POP JUMP JUMPDEST PUSH1 0x0 DUP1 REVERT JUMPDEST PUSH1 0x0 DUP1 REVERT JUMPDEST PUSH1 0x0 DUP1 REVERT JUMPDEST PUSH1 0x0 DUP1 DUP4 CALLDATALOAD PUSH1 0x1 PUSH1 0x20 SUB DUP5 CALLDATASIZE SUB SUB DUP2 SLT PUSH2 0x14A5 JUMPI PUSH2 0x14A4 PUSH2 0x1483 JUMP JUMPDEST JUMPDEST DUP4 DUP2 ADD SWAP3 POP DUP3 CALLDATALOAD SWAP2 POP PUSH1 0x20 DUP4 ADD SWAP3 POP PUSH8 0xFFFFFFFFFFFFFFFF DUP3 GT ISZERO PUSH2 0x14CD JUMPI PUSH2 0x14CC PUSH2 0x1479 JUMP JUMPDEST JUMPDEST PUSH1 0x1 DUP3 MUL CALLDATASIZE SUB DUP4 SGT ISZERO PUSH2 0x14E3 JUMPI PUSH2 0x14E2 PUSH2 0x147E JUMP JUMPDEST JUMPDEST POP SWAP3 POP SWAP3 SWAP1 POP JUMP JUMPDEST PUSH1 0x0 DUP3 DUP3 MSTORE PUSH1 0x20 DUP3 ADD SWAP1 POP SWAP3 SWAP2 POP POP JUMP JUMPDEST PUSH1 0x0 PUSH2 0x1508 DUP4 DUP6 PUSH2 0x14EB JUMP JUMPDEST SWAP4 POP PUSH2 0x1515 DUP4 DUP6 DUP5 PUSH2 0x128C JUMP JUMPDEST PUSH2 0x151E DUP4 PUSH2 0x11CF JUMP JUMPDEST DUP5 ADD SWAP1 POP SWAP4 SWAP3 POP POP POP JUMP JUMPDEST PUSH1 0x0 PUSH1 0xC0 DUP4 ADD PUSH2 0x153C PUSH1 0x0 DUP5 ADD DUP5 PUSH2 0x142D JUMP JUMPDEST PUSH2 0x1549 PUSH1 0x0 DUP7 ADD DUP3 PUSH2 0x1444 JUMP JUMPDEST POP PUSH2 0x1557 PUSH1 0x20 DUP5 ADD DUP5 PUSH2 0x1453 JUMP JUMPDEST PUSH2 0x1564 PUSH1 0x20 DUP7 ADD DUP3 PUSH2 0x146A JUMP JUMPDEST POP PUSH2 0x1572 PUSH1 0x40 DUP5 ADD DUP5 PUSH2 0x1453 JUMP JUMPDEST PUSH2 0x157F PUSH1 0x40 DUP7 ADD DUP3 PUSH2 0x146A JUMP JUMPDEST POP PUSH2 0x158D PUSH1 0x60 DUP5 ADD DUP5 PUSH2 0x142D JUMP JUMPDEST PUSH2 0x159A PUSH1 0x60 DUP7 ADD DUP3 PUSH2 0x1444 JUMP JUMPDEST POP PUSH2 0x15A8 PUSH1 0x80 DUP5 ADD DUP5 PUSH2 0x1488 JUMP JUMPDEST DUP6 DUP4 SUB PUSH1 0x80 DUP8 ADD MSTORE PUSH2 0x15BB DUP4 DUP3 DUP5 PUSH2 0x14FC JUMP JUMPDEST SWAP3 POP POP POP PUSH2 0x15CC PUSH1 0xA0 DUP5 ADD DUP5 PUSH2 0x142D JUMP JUMPDEST PUSH2 0x15D9 PUSH1 0xA0 DUP7 ADD DUP3 PUSH2 0x1444 JUMP JUMPDEST POP DUP1 SWAP2 POP POP SWAP3 SWAP2 POP POP JUMP JUMPDEST PUSH1 0x0 PUSH1 0x20 DUP3 ADD SWAP1 POP DUP2 DUP2 SUB PUSH1 0x0 DUP4 ADD MSTORE PUSH2 0x15FE DUP2 DUP5 PUSH2 0x1529 JUMP JUMPDEST SWAP1 POP SWAP3 SWAP2 POP POP JUMP JUMPDEST PUSH32 0x4E487B7100000000000000000000000000000000000000000000000000000000 PUSH1 0x0 MSTORE PUSH1 0x11 PUSH1 0x4 MSTORE PUSH1 0x24 PUSH1 0x0 REVERT JUMPDEST PUSH1 0x0 PUSH2 0x1640 DUP3 PUSH2 0x1025 JUMP JUMPDEST SWAP2 POP PUSH2 0x164B DUP4 PUSH2 0x1025 JUMP JUMPDEST SWAP3 POP DUP3 DUP3 SUB SWAP1 POP DUP2 DUP2 GT ISZERO PUSH2 0x1663 JUMPI PUSH2 0x1662 PUSH2 0x1606 JUMP JUMPDEST JUMPDEST SWAP3 SWAP2 POP POP JUMP JUMPDEST PUSH1 0x0 DUP1 REVERT JUMPDEST PUSH1 0x0 DUP1 REVERT JUMPDEST PUSH1 0x0 DUP1 REVERT JUMPDEST PUSH1 0x0 DUP1 DUP4 CALLDATALOAD PUSH1 0x1 PUSH1 0x20 SUB DUP5 CALLDATASIZE SUB SUB DUP2 SLT PUSH2 0x1695 JUMPI PUSH2 0x1694 PUSH2 0x1669 JUMP JUMPDEST JUMPDEST DUP1 DUP5 ADD SWAP3 POP DUP3 CALLDATALOAD SWAP2 POP PUSH8 0xFFFFFFFFFFFFFFFF DUP3 GT ISZERO PUSH2 0x16B7 JUMPI PUSH2 0x16B6 PUSH2 0x166E JUMP JUMPDEST JUMPDEST PUSH1 0x20 DUP4 ADD SWAP3 POP PUSH1 0x1 DUP3 MUL CALLDATASIZE SUB DUP4 SGT ISZERO PUSH2 0x16D3 JUMPI PUSH2 0x16D2 PUSH2 0x1673 JUMP JUMPDEST JUMPDEST POP SWAP3 POP SWAP3 SWAP1 POP JUMP JUMPDEST PUSH32 0x696E73756666696369656E7420696E70757420616D6F756E7400000000000000 PUSH1 0x0 DUP3 ADD MSTORE POP JUMP JUMPDEST PUSH1 0x0 PUSH2 0x1711 PUSH1 0x19 DUP4 PUSH2 0x13B0 JUMP JUMPDEST SWAP2 POP PUSH2 0x171C DUP3 PUSH2 0x16DB JUMP JUMPDEST PUSH1 0x20 DUP3 ADD SWAP1 POP SWAP2 SWAP1 POP JUMP JUMPDEST PUSH1 0x0 PUSH1 0x20 DUP3 ADD SWAP1 POP DUP2 DUP2 SUB PUSH1 0x0 DUP4 ADD MSTORE PUSH2 0x1740 DUP2 PUSH2 0x1704 JUMP JUMPDEST SWAP1 POP SWAP2 SWAP1 POP JUMP JUMPDEST PUSH32 0x4F776E61626C653A206E6577206F776E657220697320746865207A65726F2061 PUSH1 0x0 DUP3 ADD MSTORE PUSH32 0x6464726573730000000000000000000000000000000000000000000000000000 PUSH1 0x20 DUP3 ADD MSTORE POP JUMP JUMPDEST PUSH1 0x0 PUSH2 0x17A3 PUSH1 0x26 DUP4 PUSH2 0x13B0 JUMP JUMPDEST SWAP2 POP PUSH2 0x17AE DUP3 PUSH2 0x1747 JUMP JUMPDEST PUSH1 0x40 DUP3 ADD SWAP1 POP SWAP2 SWAP1 POP JUMP JUMPDEST PUSH1 0x0 PUSH1 0x20 DUP3 ADD SWAP1 POP DUP2 DUP2 SUB PUSH1 0x0 DUP4 ADD MSTORE PUSH2 0x17D2 DUP2 PUSH2 0x1796 JUMP JUMPDEST SWAP1 POP SWAP2 SWAP1 POP JUMP JUMPDEST PUSH2 0x17E2 DUP2 PUSH2 0x1025 JUMP JUMPDEST DUP3 MSTORE POP POP JUMP JUMPDEST PUSH1 0x0 PUSH1 0x40 DUP3 ADD SWAP1 POP PUSH2 0x17FD PUSH1 0x0 DUP4 ADD DUP6 PUSH2 0x11A0 JUMP JUMPDEST PUSH2 0x180A PUSH1 0x20 DUP4 ADD DUP5 PUSH2 0x17D9 JUMP JUMPDEST SWAP4 SWAP3 POP POP POP JUMP JUMPDEST PUSH1 0x0 DUP2 MLOAD SWAP1 POP SWAP2 SWAP1 POP JUMP JUMPDEST PUSH1 0x0 DUP2 SWAP1 POP SWAP3 SWAP2 POP POP JUMP JUMPDEST PUSH1 0x0 JUMPDEST DUP4 DUP2 LT ISZERO PUSH2 0x1845 JUMPI DUP1 DUP3 ADD MLOAD DUP2 DUP5 ADD MSTORE PUSH1 0x20 DUP2 ADD SWAP1 POP PUSH2 0x182A JUMP JUMPDEST PUSH1 0x0 DUP5 DUP5 ADD MSTORE POP POP POP POP JUMP JUMPDEST PUSH1 0x0 PUSH2 0x185C DUP3 PUSH2 0x1811 JUMP JUMPDEST PUSH2 0x1866 DUP2 DUP6 PUSH2 0x181C JUMP JUMPDEST SWAP4 POP PUSH2 0x1876 DUP2 DUP6 PUSH1 0x20 DUP7 ADD PUSH2 0x1827 JUMP JUMPDEST DUP1 DUP5 ADD SWAP2 POP POP SWAP3 SWAP2 POP POP JUMP JUMPDEST PUSH1 0x0 PUSH2 0x188E DUP3 DUP5 PUSH2 0x1851 JUMP JUMPDEST SWAP2 POP DUP2 SWAP1 POP SWAP3 SWAP2 POP POP JUMP JUMPDEST PUSH1 0x0 DUP2 ISZERO ISZERO SWAP1 POP SWAP2 SWAP1 POP JUMP JUMPDEST PUSH2 0x18AE DUP2 PUSH2 0x1899 JUMP JUMPDEST DUP2 EQ PUSH2 0x18B9 JUMPI PUSH1 0x0 DUP1 REVERT JUMPDEST POP JUMP JUMPDEST PUSH1 0x0 DUP2 MLOAD SWAP1 POP PUSH2 0x18CB DUP2 PUSH2 0x18A5 JUMP JUMPDEST SWAP3 SWAP2 POP POP JUMP JUMPDEST PUSH1 0x0 PUSH1 0x20 DUP3 DUP5 SUB SLT ISZERO PUSH2 0x18E7 JUMPI PUSH2 0x18E6 PUSH2 0xFBD JUMP JUMPDEST JUMPDEST PUSH1 0x0 PUSH2 0x18F5 DUP5 DUP3 DUP6 ADD PUSH2 0x18BC JUMP JUMPDEST SWAP2 POP POP SWAP3 SWAP2 POP POP JUMP JUMPDEST PUSH32 0x5472616E7366657248656C7065723A3A73616665417070726F76653A20617070 PUSH1 0x0 DUP3 ADD MSTORE PUSH32 0x726F7665206661696C6564000000000000000000000000000000000000000000 PUSH1 0x20 DUP3 ADD MSTORE POP JUMP JUMPDEST PUSH1 0x0 PUSH2 0x195A PUSH1 0x2B DUP4 PUSH2 0x13B0 JUMP JUMPDEST SWAP2 POP PUSH2 0x1965 DUP3 PUSH2 0x18FE JUMP JUMPDEST PUSH1 0x40 DUP3 ADD SWAP1 POP SWAP2 SWAP1 POP JUMP JUMPDEST PUSH1 0x0 PUSH1 0x20 DUP3 ADD SWAP1 POP DUP2 DUP2 SUB PUSH1 0x0 DUP4 ADD MSTORE PUSH2 0x1989 DUP2 PUSH2 0x194D JUMP JUMPDEST SWAP1 POP SWAP2 SWAP1 POP JUMP JUMPDEST PUSH32 0x4E487B7100000000000000000000000000000000000000000000000000000000 PUSH1 0x0 MSTORE PUSH1 0x32 PUSH1 0x4 MSTORE PUSH1 0x24 PUSH1 0x0 REVERT JUMPDEST PUSH32 0x646174612074616D706572656400000000000000000000000000000000000000 PUSH1 0x0 DUP3 ADD MSTORE POP JUMP JUMPDEST PUSH1 0x0 PUSH2 0x19F5 PUSH1 0xD DUP4 PUSH2 0x13B0 JUMP JUMPDEST SWAP2 POP PUSH2 0x1A00 DUP3 PUSH2 0x19BF JUMP JUMPDEST PUSH1 0x20 DUP3 ADD SWAP1 POP SWAP2 SWAP1 POP JUMP JUMPDEST PUSH1 0x0 PUSH1 0x20 DUP3 ADD SWAP1 POP DUP2 DUP2 SUB PUSH1 0x0 DUP4 ADD MSTORE PUSH2 0x1A24 DUP2 PUSH2 0x19E8 JUMP JUMPDEST SWAP1 POP SWAP2 SWAP1 POP JUMP JUMPDEST PUSH1 0x0 PUSH1 0x60 DUP3 ADD SWAP1 POP PUSH2 0x1A40 PUSH1 0x0 DUP4 ADD DUP7 PUSH2 0x11A0 JUMP JUMPDEST PUSH2 0x1A4D PUSH1 0x20 DUP4 ADD DUP6 PUSH2 0x11A0 JUMP JUMPDEST PUSH2 0x1A5A PUSH1 0x40 DUP4 ADD DUP5 PUSH2 0x17D9 JUMP JUMPDEST SWAP5 SWAP4 POP POP POP POP JUMP JUMPDEST PUSH32 0x5472616E7366657248656C7065723A3A7472616E7366657246726F6D3A207472 PUSH1 0x0 DUP3 ADD MSTORE PUSH32 0x616E7366657246726F6D206661696C6564000000000000000000000000000000 PUSH1 0x20 DUP3 ADD MSTORE POP JUMP JUMPDEST PUSH1 0x0 PUSH2 0x1ABE PUSH1 0x31 DUP4 PUSH2 0x13B0 JUMP JUMPDEST SWAP2 POP PUSH2 0x1AC9 DUP3 PUSH2 0x1A62 JUMP JUMPDEST PUSH1 0x40 DUP3 ADD SWAP1 POP SWAP2 SWAP1 POP JUMP JUMPDEST PUSH1 0x0 PUSH1 0x20 DUP3 ADD SWAP1 POP DUP2 DUP2 SUB PUSH1 0x0 DUP4 ADD MSTORE PUSH2 0x1AED DUP2 PUSH2 0x1AB1 JUMP JUMPDEST SWAP1 POP SWAP2 SWAP1 POP JUMP JUMPDEST PUSH32 0x5361666543616C6C65723A3A7361666543616C6C3A2063616C6C206661696C65 PUSH1 0x0 DUP3 ADD MSTORE PUSH32 0x6400000000000000000000000000000000000000000000000000000000000000 PUSH1 0x20 DUP3 ADD MSTORE POP JUMP JUMPDEST PUSH1 0x0 PUSH2 0x1B50 PUSH1 0x21 DUP4 PUSH2 0x13B0 JUMP JUMPDEST SWAP2 POP PUSH2 0x1B5B DUP3 PUSH2 0x1AF4 JUMP JUMPDEST PUSH1 0x40 DUP3 ADD SWAP1 POP SWAP2 SWAP1 POP JUMP JUMPDEST PUSH1 0x0 PUSH1 0x20 DUP3 ADD SWAP1 POP DUP2 DUP2 SUB PUSH1 0x0 DUP4 ADD MSTORE PUSH2 0x1B7F DUP2 PUSH2 0x1B43 JUMP JUMPDEST SWAP1 POP SWAP2 SWAP1 POP JUMP JUMPDEST PUSH1 0x0 PUSH8 0xFFFFFFFFFFFFFFFF DUP3 GT ISZERO PUSH2 0x1BA1 JUMPI PUSH2 0x1BA0 PUSH2 0x11E0 JUMP JUMPDEST JUMPDEST PUSH2 0x1BAA DUP3 PUSH2 0x11CF JUMP JUMPDEST SWAP1 POP PUSH1 0x20 DUP2 ADD SWAP1 POP SWAP2 SWAP1 POP JUMP JUMPDEST PUSH1 0x0 PUSH2 0x1BCA PUSH2 0x1BC5 DUP5 PUSH2 0x1B86 JUMP JUMPDEST PUSH2 0x1240 JUMP JUMPDEST SWAP1 POP DUP3 DUP2 MSTORE PUSH1 0x20 DUP2 ADD DUP5 DUP5 DUP5 ADD GT ISZERO PUSH2 0x1BE6 JUMPI PUSH2 0x1BE5 PUSH2 0x11CA JUMP JUMPDEST JUMPDEST PUSH2 0x1BF1 DUP5 DUP3 DUP6 PUSH2 0x1827 JUMP JUMPDEST POP SWAP4 SWAP3 POP POP POP JUMP JUMPDEST PUSH1 0x0 DUP3 PUSH1 0x1F DUP4 ADD SLT PUSH2 0x1C0E JUMPI PUSH2 0x1C0D PUSH2 0x10BF JUMP JUMPDEST JUMPDEST DUP2 MLOAD PUSH2 0x1C1E DUP5 DUP3 PUSH1 0x20 DUP7 ADD PUSH2 0x1BB7 JUMP JUMPDEST SWAP2 POP POP SWAP3 SWAP2 POP POP JUMP JUMPDEST PUSH1 0x0 PUSH1 0x20 DUP3 DUP5 SUB SLT ISZERO PUSH2 0x1C3D JUMPI PUSH2 0x1C3C PUSH2 0xFBD JUMP JUMPDEST JUMPDEST PUSH1 0x0 DUP3 ADD MLOAD PUSH8 0xFFFFFFFFFFFFFFFF DUP2 GT ISZERO PUSH2 0x1C5B JUMPI PUSH2 0x1C5A PUSH2 0xFC2 JUMP JUMPDEST JUMPDEST PUSH2 0x1C67 DUP5 DUP3 DUP6 ADD PUSH2 0x1BF9 JUMP JUMPDEST SWAP2 POP POP SWAP3 SWAP2 POP POP JUMP JUMPDEST PUSH1 0x0 DUP2 MLOAD SWAP1 POP SWAP2 SWAP1 POP JUMP JUMPDEST PUSH1 0x0 PUSH2 0x1C86 DUP3 PUSH2 0x1C70 JUMP JUMPDEST PUSH2 0x1C90 DUP2 DUP6 PUSH2 0x13B0 JUMP JUMPDEST SWAP4 POP PUSH2 0x1CA0 DUP2 DUP6 PUSH1 0x20 DUP7 ADD PUSH2 0x1827 JUMP JUMPDEST PUSH2 0x1CA9 DUP2 PUSH2 0x11CF JUMP JUMPDEST DUP5 ADD SWAP2 POP POP SWAP3 SWAP2 POP POP JUMP JUMPDEST PUSH1 0x0 PUSH1 0x20 DUP3 ADD SWAP1 POP DUP2 DUP2 SUB PUSH1 0x0 DUP4 ADD MSTORE PUSH2 0x1CCE DUP2 DUP5 PUSH2 0x1C7B JUMP JUMPDEST SWAP1 POP SWAP3 SWAP2 POP POP JUMP JUMPDEST PUSH32 0x4F776E61626C653A2063616C6C6572206973206E6F7420746865206F776E6572 PUSH1 0x0 DUP3 ADD MSTORE POP JUMP JUMPDEST PUSH1 0x0 PUSH2 0x1D0C PUSH1 0x20 DUP4 PUSH2 0x13B0 JUMP JUMPDEST SWAP2 POP PUSH2 0x1D17 DUP3 PUSH2 0x1CD6 JUMP JUMPDEST PUSH1 0x20 DUP3 ADD SWAP1 POP SWAP2 SWAP1 POP JUMP JUMPDEST PUSH1 0x0 PUSH1 0x20 DUP3 ADD SWAP1 POP DUP2 DUP2 SUB PUSH1 0x0 DUP4 ADD MSTORE PUSH2 0x1D3B DUP2 PUSH2 0x1CFF JUMP JUMPDEST SWAP1 POP SWAP2 SWAP1 POP JUMP JUMPDEST PUSH32 0x4E487B7100000000000000000000000000000000000000000000000000000000 PUSH1 0x0 MSTORE PUSH1 0x21 PUSH1 0x4 MSTORE PUSH1 0x24 PUSH1 0x0 REVERT JUMPDEST PUSH32 0x45434453413A20696E76616C6964207369676E61747572650000000000000000 PUSH1 0x0 DUP3 ADD MSTORE POP JUMP JUMPDEST PUSH1 0x0 PUSH2 0x1DA7 PUSH1 0x18 DUP4 PUSH2 0x13B0 JUMP JUMPDEST SWAP2 POP PUSH2 0x1DB2 DUP3 PUSH2 0x1D71 JUMP JUMPDEST PUSH1 0x20 DUP3 ADD SWAP1 POP SWAP2 SWAP1 POP JUMP JUMPDEST PUSH1 0x0 PUSH1 0x20 DUP3 ADD SWAP1 POP DUP2 DUP2 SUB PUSH1 0x0 DUP4 ADD MSTORE PUSH2 0x1DD6 DUP2 PUSH2 0x1D9A JUMP JUMPDEST SWAP1 POP SWAP2 SWAP1 POP JUMP JUMPDEST PUSH32 0x45434453413A20696E76616C6964207369676E6174757265206C656E67746800 PUSH1 0x0 DUP3 ADD MSTORE POP JUMP JUMPDEST PUSH1 0x0 PUSH2 0x1E13 PUSH1 0x1F DUP4 PUSH2 0x13B0 JUMP JUMPDEST SWAP2 POP PUSH2 0x1E1E DUP3 PUSH2 0x1DDD JUMP JUMPDEST PUSH1 0x20 DUP3 ADD SWAP1 POP SWAP2 SWAP1 POP JUMP JUMPDEST PUSH1 0x0 PUSH1 0x20 DUP3 ADD SWAP1 POP DUP2 DUP2 SUB PUSH1 0x0 DUP4 ADD MSTORE PUSH2 0x1E42 DUP2 PUSH2 0x1E06 JUMP JUMPDEST SWAP1 POP SWAP2 SWAP1 POP JUMP JUMPDEST PUSH32 0x45434453413A20696E76616C6964207369676E6174757265202773272076616C PUSH1 0x0 DUP3 ADD MSTORE PUSH32 0x7565000000000000000000000000000000000000000000000000000000000000 PUSH1 0x20 DUP3 ADD MSTORE POP JUMP JUMPDEST PUSH1 0x0 PUSH2 0x1EA5 PUSH1 0x22 DUP4 PUSH2 0x13B0 JUMP JUMPDEST SWAP2 POP PUSH2 0x1EB0 DUP3 PUSH2 0x1E49 JUMP JUMPDEST PUSH1 0x40 DUP3 ADD SWAP1 POP SWAP2 SWAP1 POP JUMP JUMPDEST PUSH1 0x0 PUSH1 0x20 DUP3 ADD SWAP1 POP DUP2 DUP2 SUB PUSH1 0x0 DUP4 ADD MSTORE PUSH2 0x1ED4 DUP2 PUSH2 0x1E98 JUMP JUMPDEST SWAP1 POP SWAP2 SWAP1 POP JUMP JUMPDEST PUSH1 0x0 DUP2 SWAP1 POP SWAP2 SWAP1 POP JUMP JUMPDEST PUSH2 0x1EEE DUP2 PUSH2 0x1EDB JUMP JUMPDEST DUP3 MSTORE POP POP JUMP JUMPDEST PUSH1 0x0 PUSH1 0xFF DUP3 AND SWAP1 POP SWAP2 SWAP1 POP JUMP JUMPDEST PUSH2 0x1F0A DUP2 PUSH2 0x1EF4 JUMP JUMPDEST DUP3 MSTORE POP POP JUMP JUMPDEST PUSH1 0x0 PUSH1 0x80 DUP3 ADD SWAP1 POP PUSH2 0x1F25 PUSH1 0x0 DUP4 ADD DUP8 PUSH2 0x1EE5 JUMP JUMPDEST PUSH2 0x1F32 PUSH1 0x20 DUP4 ADD DUP7 PUSH2 0x1F01 JUMP JUMPDEST PUSH2 0x1F3F PUSH1 0x40 DUP4 ADD DUP6 PUSH2 0x1EE5 JUMP JUMPDEST PUSH2 0x1F4C PUSH1 0x60 DUP4 ADD DUP5 PUSH2 0x1EE5 JUMP JUMPDEST SWAP6 SWAP5 POP POP POP POP POP JUMP INVALID LOG2 PUSH5 0x6970667358 0x22 SLT KECCAK256 PUSH27 0x93628B5B0674D232417A12ADE76A0D1EFDDECD817BF4F3916F4A30 0x29 0x2E 0x4A JUMPI PUSH5 0x736F6C6343 STOP ADDMOD GT STOP CALLER "
				},
				"gasEstimates": {
					"creation": {
						"codeDepositCost": "1615000",
						"executionCost": "infinite",
						"totalCost": "infinite"
					},
					"external": {
						"approve(address,uint256)": "infinite",
						"owner()": "2522",
						"renounceOwnership()": "30465",
						"signer((address,uint256,uint256,address,bytes,address),bytes)": "infinite",
						"swap((address,uint256,uint256,address,bytes,address),bytes)": "infinite",
						"swapNativeIn((address,uint256,uint256,address,bytes,address),bytes)": "infinite",
						"test()": "186",
						"transferOwnership(address)": "30788"
					},
					"internal": {
						"checkSig(bytes memory,bytes memory)": "infinite",
						"hash(bytes memory)": "infinite"
					}
				},
				"methodIdentifiers": {
					"approve(address,uint256)": "095ea7b3",
					"owner()": "8da5cb5b",
					"renounceOwnership()": "715018a6",
					"signer((address,uint256,uint256,address,bytes,address),bytes)": "b0867883",
					"swap((address,uint256,uint256,address,bytes,address),bytes)": "2906799b",
					"swapNativeIn((address,uint256,uint256,address,bytes,address),bytes)": "5d86acf1",
					"test()": "f8a8fd6d",
					"transferOwnership(address)": "f2fde38b"
				}
			},
			"storageLayout": {
				"storage": [
					{
						"astId": 7,
						"contract": "contracts/ExchangeAggregator.sol:MyContract",
						"label": "_owner",
						"offset": 0,
						"slot": "0",
						"type": "t_address"
					},
					{
						"astId": 1489,
						"contract": "contracts/ExchangeAggregator.sol:MyContract",
						"label": "WETH",
						"offset": 0,
						"slot": "1",
						"type": "t_address"
					}
				],
				"types": {
					"t_address": {
						"encoding": "inplace",
						"label": "address",
						"numberOfBytes": "20"
					}
				}
			},
			"userdoc": {
				"kind": "user",
				"methods": {},
				"version": 1
			}
		}
	}
}