{
	"contracts/AllBridge.sol": {
		"ALLBridge": {
			"abi": [
				{
					"inputs": [
						{
							"internalType": "address[]",
							"name": "tokenAddresses",
							"type": "address[]"
						},
						{
							"internalType": "address",
							"name": "bridgeAddress",
							"type": "address"
						}
					],
					"stateMutability": "nonpayable",
					"type": "constructor"
				},
				{
					"anonymous": false,
					"inputs": [
						{
							"indexed": true,
							"internalType": "address",
							"name": "previousOwner",
							"type": "address"
						},
						{
							"indexed": true,
							"internalType": "address",
							"name": "newOwner",
							"type": "address"
						}
					],
					"name": "OwnershipTransferred",
					"type": "event"
				},
				{
					"inputs": [
						{
							"internalType": "bytes",
							"name": "data",
							"type": "bytes"
						},
						{
							"internalType": "uint256",
							"name": "amountIn",
							"type": "uint256"
						}
					],
					"name": "Bridge",
					"outputs": [],
					"stateMutability": "payable",
					"type": "function"
				},
				{
					"inputs": [
						{
							"internalType": "address",
							"name": "token",
							"type": "address"
						},
						{
							"internalType": "address",
							"name": "bridge",
							"type": "address"
						}
					],
					"name": "allowance",
					"outputs": [
						{
							"internalType": "uint256",
							"name": "",
							"type": "uint256"
						}
					],
					"stateMutability": "view",
					"type": "function"
				},
				{
					"inputs": [
						{
							"internalType": "address",
							"name": "token",
							"type": "address"
						},
						{
							"internalType": "address",
							"name": "bridge",
							"type": "address"
						}
					],
					"name": "approveToken",
					"outputs": [],
					"stateMutability": "nonpayable",
					"type": "function"
				},
				{
					"inputs": [
						{
							"internalType": "bytes",
							"name": "data",
							"type": "bytes"
						}
					],
					"name": "decodeInput",
					"outputs": [
						{
							"components": [
								{
									"internalType": "address",
									"name": "bridge",
									"type": "address"
								},
								{
									"internalType": "bytes32",
									"name": "tokenAddress",
									"type": "bytes32"
								},
								{
									"internalType": "bytes32",
									"name": "recipient",
									"type": "bytes32"
								},
								{
									"internalType": "uint256",
									"name": "destinationChainId",
									"type": "uint256"
								},
								{
									"internalType": "bytes32",
									"name": "receiveTokenAddress",
									"type": "bytes32"
								},
								{
									"internalType": "uint256",
									"name": "nonce",
									"type": "uint256"
								},
								{
									"internalType": "enum IAllBridge.MessengerProtocol",
									"name": "messenger",
									"type": "uint8"
								},
								{
									"internalType": "uint256",
									"name": "feeTokenAmount",
									"type": "uint256"
								}
							],
							"internalType": "struct ALLBridge.allBridgeInput",
							"name": "",
							"type": "tuple"
						}
					],
					"stateMutability": "pure",
					"type": "function"
				},
				{
					"inputs": [
						{
							"components": [
								{
									"internalType": "address",
									"name": "bridge",
									"type": "address"
								},
								{
									"internalType": "bytes32",
									"name": "tokenAddress",
									"type": "bytes32"
								},
								{
									"internalType": "bytes32",
									"name": "recipient",
									"type": "bytes32"
								},
								{
									"internalType": "uint256",
									"name": "destinationChainId",
									"type": "uint256"
								},
								{
									"internalType": "bytes32",
									"name": "receiveTokenAddress",
									"type": "bytes32"
								},
								{
									"internalType": "uint256",
									"name": "nonce",
									"type": "uint256"
								},
								{
									"internalType": "enum IAllBridge.MessengerProtocol",
									"name": "messenger",
									"type": "uint8"
								},
								{
									"internalType": "uint256",
									"name": "feeTokenAmount",
									"type": "uint256"
								}
							],
							"internalType": "struct ALLBridge.allBridgeInput",
							"name": "input",
							"type": "tuple"
						}
					],
					"name": "encode",
					"outputs": [
						{
							"internalType": "bytes",
							"name": "",
							"type": "bytes"
						}
					],
					"stateMutability": "pure",
					"type": "function"
				},
				{
					"inputs": [],
					"name": "owner",
					"outputs": [
						{
							"internalType": "address",
							"name": "",
							"type": "address"
						}
					],
					"stateMutability": "view",
					"type": "function"
				},
				{
					"inputs": [],
					"name": "renounceOwnership",
					"outputs": [],
					"stateMutability": "nonpayable",
					"type": "function"
				},
				{
					"inputs": [
						{
							"internalType": "address",
							"name": "newOwner",
							"type": "address"
						}
					],
					"name": "transferOwnership",
					"outputs": [],
					"stateMutability": "nonpayable",
					"type": "function"
				}
			],
			"devdoc": {
				"kind": "dev",
				"methods": {
					"owner()": {
						"details": "Returns the address of the current owner."
					},
					"renounceOwnership()": {
						"details": "Leaves the contract without owner. It will not be possible to call `onlyOwner` functions anymore. Can only be called by the current owner. NOTE: Renouncing ownership will leave the contract without an owner, thereby removing any functionality that is only available to the owner."
					},
					"transferOwnership(address)": {
						"details": "Transfers ownership of the contract to a new account (`newOwner`). Can only be called by the current owner."
					}
				},
				"version": 1
			},
			"evm": {
				"assembly": "    /* \"contracts/AllBridge.sol\":662:2974  contract ALLBridge is IBridge,Ownable {    ... */\n  mstore(0x40, 0x80)\n    /* \"contracts/AllBridge.sol\":995:1248  constructor(address[] memory tokenAddresses, address bridgeAddress) {... */\n  callvalue\n  dup1\n  iszero\n  tag_1\n  jumpi\n  0x00\n  dup1\n  revert\ntag_1:\n  pop\n  mload(0x40)\n  sub(codesize, bytecodeSize)\n  dup1\n  bytecodeSize\n  dup4\n  codecopy\n  dup2\n  dup2\n  add\n  0x40\n  mstore\n  dup2\n  add\n  swap1\n  tag_2\n  swap2\n  swap1\n  tag_3\n  jump\t// in\ntag_2:\n    /* \"@openzeppelin/contracts/access/Ownable.sol\":936:968  _transferOwnership(_msgSender()) */\n  tag_7\n    /* \"@openzeppelin/contracts/access/Ownable.sol\":955:967  _msgSender() */\n  tag_8\n    /* \"@openzeppelin/contracts/access/Ownable.sol\":955:965  _msgSender */\n  shl(0x20, tag_9)\n    /* \"@openzeppelin/contracts/access/Ownable.sol\":955:967  _msgSender() */\n  0x20\n  shr\n  jump\t// in\ntag_8:\n    /* \"@openzeppelin/contracts/access/Ownable.sol\":936:954  _transferOwnership */\n  shl(0x20, tag_10)\n    /* \"@openzeppelin/contracts/access/Ownable.sol\":936:968  _transferOwnership(_msgSender()) */\n  0x20\n  shr\n  jump\t// in\ntag_7:\n    /* \"contracts/AllBridge.sol\":1127:1133  uint i */\n  0x00\n    /* \"contracts/AllBridge.sol\":1122:1242  for (uint i = 0; i < tokenAddresses.length; i++) {... */\ntag_12:\n    /* \"contracts/AllBridge.sol\":1143:1157  tokenAddresses */\n  dup3\n    /* \"contracts/AllBridge.sol\":1143:1164  tokenAddresses.length */\n  mload\n    /* \"contracts/AllBridge.sol\":1139:1140  i */\n  dup2\n    /* \"contracts/AllBridge.sol\":1139:1164  i < tokenAddresses.length */\n  lt\n    /* \"contracts/AllBridge.sol\":1122:1242  for (uint i = 0; i < tokenAddresses.length; i++) {... */\n  iszero\n  tag_13\n  jumpi\n    /* \"contracts/AllBridge.sol\":1185:1231  approveToken(tokenAddresses[i], bridgeAddress) */\n  tag_15\n    /* \"contracts/AllBridge.sol\":1198:1212  tokenAddresses */\n  dup4\n    /* \"contracts/AllBridge.sol\":1213:1214  i */\n  dup3\n    /* \"contracts/AllBridge.sol\":1198:1215  tokenAddresses[i] */\n  dup2\n  mload\n  dup2\n  lt\n  tag_16\n  jumpi\n  tag_17\n  tag_18\n  jump\t// in\ntag_17:\ntag_16:\n  0x20\n  mul\n  0x20\n  add\n  add\n  mload\n    /* \"contracts/AllBridge.sol\":1217:1230  bridgeAddress */\n  dup4\n    /* \"contracts/AllBridge.sol\":1185:1197  approveToken */\n  shl(0x20, tag_19)\n    /* \"contracts/AllBridge.sol\":1185:1231  approveToken(tokenAddresses[i], bridgeAddress) */\n  0x20\n  shr\n  jump\t// in\ntag_15:\n    /* \"contracts/AllBridge.sol\":1166:1169  i++ */\n  dup1\n  dup1\n  tag_20\n  swap1\n  tag_21\n  jump\t// in\ntag_20:\n  swap2\n  pop\n  pop\n    /* \"contracts/AllBridge.sol\":1122:1242  for (uint i = 0; i < tokenAddresses.length; i++) {... */\n  jump(tag_12)\ntag_13:\n  pop\n    /* \"contracts/AllBridge.sol\":995:1248  constructor(address[] memory tokenAddresses, address bridgeAddress) {... */\n  pop\n  pop\n    /* \"contracts/AllBridge.sol\":662:2974  contract ALLBridge is IBridge,Ownable {    ... */\n  jump(tag_22)\n    /* \"@openzeppelin/contracts/utils/Context.sol\":640:736  function _msgSender() internal view virtual returns (address) {... */\ntag_9:\n    /* \"@openzeppelin/contracts/utils/Context.sol\":693:700  address */\n  0x00\n    /* \"@openzeppelin/contracts/utils/Context.sol\":719:729  msg.sender */\n  caller\n    /* \"@openzeppelin/contracts/utils/Context.sol\":712:729  return msg.sender */\n  swap1\n  pop\n    /* \"@openzeppelin/contracts/utils/Context.sol\":640:736  function _msgSender() internal view virtual returns (address) {... */\n  swap1\n  jump\t// out\n    /* \"@openzeppelin/contracts/access/Ownable.sol\":2433:2620  function _transferOwnership(address newOwner) internal virtual {... */\ntag_10:\n    /* \"@openzeppelin/contracts/access/Ownable.sol\":2506:2522  address oldOwner */\n  0x00\n    /* \"@openzeppelin/contracts/access/Ownable.sol\":2525:2531  _owner */\n  dup1\n  0x00\n  swap1\n  sload\n  swap1\n  0x0100\n  exp\n  swap1\n  div\n  0xffffffffffffffffffffffffffffffffffffffff\n  and\n    /* \"@openzeppelin/contracts/access/Ownable.sol\":2506:2531  address oldOwner = _owner */\n  swap1\n  pop\n    /* \"@openzeppelin/contracts/access/Ownable.sol\":2550:2558  newOwner */\n  dup2\n    /* \"@openzeppelin/contracts/access/Ownable.sol\":2541:2547  _owner */\n  0x00\n  dup1\n    /* \"@openzeppelin/contracts/access/Ownable.sol\":2541:2558  _owner = newOwner */\n  0x0100\n  exp\n  dup2\n  sload\n  dup2\n  0xffffffffffffffffffffffffffffffffffffffff\n  mul\n  not\n  and\n  swap1\n  dup4\n  0xffffffffffffffffffffffffffffffffffffffff\n  and\n  mul\n  or\n  swap1\n  sstore\n  pop\n    /* \"@openzeppelin/contracts/access/Ownable.sol\":2604:2612  newOwner */\n  dup2\n    /* \"@openzeppelin/contracts/access/Ownable.sol\":2573:2613  OwnershipTransferred(oldOwner, newOwner) */\n  0xffffffffffffffffffffffffffffffffffffffff\n  and\n    /* \"@openzeppelin/contracts/access/Ownable.sol\":2594:2602  oldOwner */\n  dup2\n    /* \"@openzeppelin/contracts/access/Ownable.sol\":2573:2613  OwnershipTransferred(oldOwner, newOwner) */\n  0xffffffffffffffffffffffffffffffffffffffff\n  and\n  0x8be0079c531659141344cd1fd0a4f28419497f9722a3daafe3b4186f6b6457e0\n  mload(0x40)\n  mload(0x40)\n  dup1\n  swap2\n  sub\n  swap1\n  log3\n    /* \"@openzeppelin/contracts/access/Ownable.sol\":2496:2620  {... */\n  pop\n    /* \"@openzeppelin/contracts/access/Ownable.sol\":2433:2620  function _transferOwnership(address newOwner) internal virtual {... */\n  pop\n  jump\t// out\n    /* \"contracts/AllBridge.sol\":2013:2157  function approveToken(address token,address bridge) public onlyOwner {... */\ntag_19:\n    /* \"@openzeppelin/contracts/access/Ownable.sol\":1094:1107  _checkOwner() */\n  tag_26\n    /* \"@openzeppelin/contracts/access/Ownable.sol\":1094:1105  _checkOwner */\n  shl(0x20, tag_27)\n    /* \"@openzeppelin/contracts/access/Ownable.sol\":1094:1107  _checkOwner() */\n  0x20\n  shr\n  jump\t// in\ntag_26:\n    /* \"contracts/AllBridge.sol\":2092:2150  TransferHelper.safeApprove(token,bridge,type(uint256).max) */\n  tag_29\n    /* \"contracts/AllBridge.sol\":2119:2124  token */\n  dup3\n    /* \"contracts/AllBridge.sol\":2125:2131  bridge */\n  dup3\n    /* \"contracts/AllBridge.sol\":2132:2149  type(uint256).max */\n  0xffffffffffffffffffffffffffffffffffffffffffffffffffffffffffffffff\n    /* \"contracts/AllBridge.sol\":2092:2118  TransferHelper.safeApprove */\n  or(tag_0_53, shl(0x20, tag_30))\n    /* \"contracts/AllBridge.sol\":2092:2150  TransferHelper.safeApprove(token,bridge,type(uint256).max) */\n  0x20\n  shr\n  jump\t// in\ntag_29:\n    /* \"contracts/AllBridge.sol\":2013:2157  function approveToken(address token,address bridge) public onlyOwner {... */\n  pop\n  pop\n  jump\t// out\n    /* \"@openzeppelin/contracts/access/Ownable.sol\":1359:1489  function _checkOwner() internal view virtual {... */\ntag_27:\n    /* \"@openzeppelin/contracts/access/Ownable.sol\":1433:1445  _msgSender() */\n  tag_32\n    /* \"@openzeppelin/contracts/access/Ownable.sol\":1433:1443  _msgSender */\n  shl(0x20, tag_9)\n    /* \"@openzeppelin/contracts/access/Ownable.sol\":1433:1445  _msgSender() */\n  0x20\n  shr\n  jump\t// in\ntag_32:\n    /* \"@openzeppelin/contracts/access/Ownable.sol\":1422:1445  owner() == _msgSender() */\n  0xffffffffffffffffffffffffffffffffffffffff\n  and\n    /* \"@openzeppelin/contracts/access/Ownable.sol\":1422:1429  owner() */\n  tag_33\n    /* \"@openzeppelin/contracts/access/Ownable.sol\":1422:1427  owner */\n  shl(0x20, tag_34)\n    /* \"@openzeppelin/contracts/access/Ownable.sol\":1422:1429  owner() */\n  0x20\n  shr\n  jump\t// in\ntag_33:\n    /* \"@openzeppelin/contracts/access/Ownable.sol\":1422:1445  owner() == _msgSender() */\n  0xffffffffffffffffffffffffffffffffffffffff\n  and\n  eq\n    /* \"@openzeppelin/contracts/access/Ownable.sol\":1414:1482  require(owner() == _msgSender(), \"Ownable: caller is not the owner\") */\n  tag_35\n  jumpi\n  mload(0x40)\n  0x08c379a000000000000000000000000000000000000000000000000000000000\n  dup2\n  mstore\n  0x04\n  add\n  tag_36\n  swap1\n  tag_37\n  jump\t// in\ntag_36:\n  mload(0x40)\n  dup1\n  swap2\n  sub\n  swap1\n  revert\ntag_35:\n    /* \"@openzeppelin/contracts/access/Ownable.sol\":1359:1489  function _checkOwner() internal view virtual {... */\n  jump\t// out\n    /* \"contracts/libraries/transferHelper.sol\":212:629  function safeApprove(... */\ntag_30:\n    /* \"contracts/libraries/transferHelper.sol\":390:402  bool success */\n  0x00\n    /* \"contracts/libraries/transferHelper.sol\":404:421  bytes memory data */\n  dup1\n    /* \"contracts/libraries/transferHelper.sol\":425:430  token */\n  dup5\n    /* \"contracts/libraries/transferHelper.sol\":425:435  token.call */\n  0xffffffffffffffffffffffffffffffffffffffff\n  and\n    /* \"contracts/libraries/transferHelper.sol\":459:469  0x095ea7b3 */\n  0x095ea7b3\n    /* \"contracts/libraries/transferHelper.sol\":471:473  to */\n  dup6\n    /* \"contracts/libraries/transferHelper.sol\":475:480  value */\n  dup6\n    /* \"contracts/libraries/transferHelper.sol\":436:481  abi.encodeWithSelector(0x095ea7b3, to, value) */\n  add(0x24, mload(0x40))\n  tag_39\n  swap3\n  swap2\n  swap1\n  tag_40\n  jump\t// in\ntag_39:\n  mload(0x40)\n  0x20\n  dup2\n  dup4\n  sub\n  sub\n  dup2\n  mstore\n  swap1\n  0x40\n  mstore\n  swap1\n  0xe0\n  shl\n  0x20\n  dup3\n  add\n  dup1\n  mload\n  0xffffffffffffffffffffffffffffffffffffffffffffffffffffffff\n  dup4\n  dup2\n  dup4\n  and\n  or\n  dup4\n  mstore\n  pop\n  pop\n  pop\n  pop\n    /* \"contracts/libraries/transferHelper.sol\":425:482  token.call(abi.encodeWithSelector(0x095ea7b3, to, value)) */\n  mload(0x40)\n  tag_41\n  swap2\n  swap1\n  tag_42\n  jump\t// in\ntag_41:\n  0x00\n  mload(0x40)\n  dup1\n  dup4\n  sub\n  dup2\n  0x00\n  dup7\n  gas\n  call\n  swap2\n  pop\n  pop\n  returndatasize\n  dup1\n  0x00\n  dup2\n  eq\n  tag_45\n  jumpi\n  mload(0x40)\n  swap2\n  pop\n  and(add(returndatasize, 0x3f), not(0x1f))\n  dup3\n  add\n  0x40\n  mstore\n  returndatasize\n  dup3\n  mstore\n  returndatasize\n  0x00\n  0x20\n  dup5\n  add\n  returndatacopy\n  jump(tag_44)\ntag_45:\n  0x60\n  swap2\n  pop\ntag_44:\n  pop\n    /* \"contracts/libraries/transferHelper.sol\":389:482  (bool success, bytes memory data) = token.call(abi.encodeWithSelector(0x095ea7b3, to, value)) */\n  swap2\n  pop\n  swap2\n  pop\n    /* \"contracts/libraries/transferHelper.sol\":513:520  success */\n  dup2\n    /* \"contracts/libraries/transferHelper.sol\":513:570  success && (data.length == 0 || abi.decode(data, (bool))) */\n  dup1\n  iszero\n  tag_46\n  jumpi\n  pop\n    /* \"contracts/libraries/transferHelper.sol\":540:541  0 */\n  0x00\n    /* \"contracts/libraries/transferHelper.sol\":525:529  data */\n  dup2\n    /* \"contracts/libraries/transferHelper.sol\":525:536  data.length */\n  mload\n    /* \"contracts/libraries/transferHelper.sol\":525:541  data.length == 0 */\n  eq\n    /* \"contracts/libraries/transferHelper.sol\":525:569  data.length == 0 || abi.decode(data, (bool)) */\n  dup1\n  tag_47\n  jumpi\n  pop\n    /* \"contracts/libraries/transferHelper.sol\":556:560  data */\n  dup1\n    /* \"contracts/libraries/transferHelper.sol\":545:569  abi.decode(data, (bool)) */\n  dup1\n  0x20\n  add\n  swap1\n  mload\n  dup2\n  add\n  swap1\n  tag_48\n  swap2\n  swap1\n  tag_49\n  jump\t// in\ntag_48:\n    /* \"contracts/libraries/transferHelper.sol\":525:569  data.length == 0 || abi.decode(data, (bool)) */\ntag_47:\n    /* \"contracts/libraries/transferHelper.sol\":513:570  success && (data.length == 0 || abi.decode(data, (bool))) */\ntag_46:\n    /* \"contracts/libraries/transferHelper.sol\":492:622  require(... */\n  tag_50\n  jumpi\n  mload(0x40)\n  0x08c379a000000000000000000000000000000000000000000000000000000000\n  dup2\n  mstore\n  0x04\n  add\n  tag_51\n  swap1\n  tag_52\n  jump\t// in\ntag_51:\n  mload(0x40)\n  dup1\n  swap2\n  sub\n  swap1\n  revert\ntag_50:\n    /* \"contracts/libraries/transferHelper.sol\":314:629  {... */\n  pop\n  pop\n    /* \"contracts/libraries/transferHelper.sol\":212:629  function safeApprove(... */\n  pop\n  pop\n  pop\n  jump\t// out\n    /* \"@openzeppelin/contracts/access/Ownable.sol\":1201:1286  function owner() public view virtual returns (address) {... */\ntag_34:\n    /* \"@openzeppelin/contracts/access/Ownable.sol\":1247:1254  address */\n  0x00\n    /* \"@openzeppelin/contracts/access/Ownable.sol\":1273:1279  _owner */\n  dup1\n  0x00\n  swap1\n  sload\n  swap1\n  0x0100\n  exp\n  swap1\n  div\n  0xffffffffffffffffffffffffffffffffffffffff\n  and\n    /* \"@openzeppelin/contracts/access/Ownable.sol\":1266:1279  return _owner */\n  swap1\n  pop\n    /* \"@openzeppelin/contracts/access/Ownable.sol\":1201:1286  function owner() public view virtual returns (address) {... */\n  swap1\n  jump\t// out\n    /* \"#utility.yul\":7:82   */\ntag_54:\n    /* \"#utility.yul\":40:46   */\n  0x00\n    /* \"#utility.yul\":73:75   */\n  0x40\n    /* \"#utility.yul\":67:76   */\n  mload\n    /* \"#utility.yul\":57:76   */\n  swap1\n  pop\n    /* \"#utility.yul\":7:82   */\n  swap1\n  jump\t// out\n    /* \"#utility.yul\":88:205   */\ntag_55:\n    /* \"#utility.yul\":197:198   */\n  0x00\n    /* \"#utility.yul\":194:195   */\n  dup1\n    /* \"#utility.yul\":187:199   */\n  revert\n    /* \"#utility.yul\":211:328   */\ntag_56:\n    /* \"#utility.yul\":320:321   */\n  0x00\n    /* \"#utility.yul\":317:318   */\n  dup1\n    /* \"#utility.yul\":310:322   */\n  revert\n    /* \"#utility.yul\":334:451   */\ntag_57:\n    /* \"#utility.yul\":443:444   */\n  0x00\n    /* \"#utility.yul\":440:441   */\n  dup1\n    /* \"#utility.yul\":433:445   */\n  revert\n    /* \"#utility.yul\":457:559   */\ntag_58:\n    /* \"#utility.yul\":498:504   */\n  0x00\n    /* \"#utility.yul\":549:551   */\n  0x1f\n    /* \"#utility.yul\":545:552   */\n  not\n    /* \"#utility.yul\":540:542   */\n  0x1f\n    /* \"#utility.yul\":533:538   */\n  dup4\n    /* \"#utility.yul\":529:543   */\n  add\n    /* \"#utility.yul\":525:553   */\n  and\n    /* \"#utility.yul\":515:553   */\n  swap1\n  pop\n    /* \"#utility.yul\":457:559   */\n  swap2\n  swap1\n  pop\n  jump\t// out\n    /* \"#utility.yul\":565:745   */\ntag_59:\n    /* \"#utility.yul\":613:690   */\n  0x4e487b7100000000000000000000000000000000000000000000000000000000\n    /* \"#utility.yul\":610:611   */\n  0x00\n    /* \"#utility.yul\":603:691   */\n  mstore\n    /* \"#utility.yul\":710:714   */\n  0x41\n    /* \"#utility.yul\":707:708   */\n  0x04\n    /* \"#utility.yul\":700:715   */\n  mstore\n    /* \"#utility.yul\":734:738   */\n  0x24\n    /* \"#utility.yul\":731:732   */\n  0x00\n    /* \"#utility.yul\":724:739   */\n  revert\n    /* \"#utility.yul\":751:1032   */\ntag_60:\n    /* \"#utility.yul\":834:861   */\n  tag_94\n    /* \"#utility.yul\":856:860   */\n  dup3\n    /* \"#utility.yul\":834:861   */\n  tag_58\n  jump\t// in\ntag_94:\n    /* \"#utility.yul\":826:832   */\n  dup2\n    /* \"#utility.yul\":822:862   */\n  add\n    /* \"#utility.yul\":964:970   */\n  dup2\n    /* \"#utility.yul\":952:962   */\n  dup2\n    /* \"#utility.yul\":949:971   */\n  lt\n    /* \"#utility.yul\":928:946   */\n  0xffffffffffffffff\n    /* \"#utility.yul\":916:926   */\n  dup3\n    /* \"#utility.yul\":913:947   */\n  gt\n    /* \"#utility.yul\":910:972   */\n  or\n    /* \"#utility.yul\":907:995   */\n  iszero\n  tag_95\n  jumpi\n    /* \"#utility.yul\":975:993   */\n  tag_96\n  tag_59\n  jump\t// in\ntag_96:\n    /* \"#utility.yul\":907:995   */\ntag_95:\n    /* \"#utility.yul\":1015:1025   */\n  dup1\n    /* \"#utility.yul\":1011:1013   */\n  0x40\n    /* \"#utility.yul\":1004:1026   */\n  mstore\n    /* \"#utility.yul\":794:1032   */\n  pop\n    /* \"#utility.yul\":751:1032   */\n  pop\n  pop\n  jump\t// out\n    /* \"#utility.yul\":1038:1167   */\ntag_61:\n    /* \"#utility.yul\":1072:1078   */\n  0x00\n    /* \"#utility.yul\":1099:1119   */\n  tag_98\n  tag_54\n  jump\t// in\ntag_98:\n    /* \"#utility.yul\":1089:1119   */\n  swap1\n  pop\n    /* \"#utility.yul\":1128:1161   */\n  tag_99\n    /* \"#utility.yul\":1156:1160   */\n  dup3\n    /* \"#utility.yul\":1148:1154   */\n  dup3\n    /* \"#utility.yul\":1128:1161   */\n  tag_60\n  jump\t// in\ntag_99:\n    /* \"#utility.yul\":1038:1167   */\n  swap2\n  swap1\n  pop\n  jump\t// out\n    /* \"#utility.yul\":1173:1484   */\ntag_62:\n    /* \"#utility.yul\":1250:1254   */\n  0x00\n    /* \"#utility.yul\":1340:1358   */\n  0xffffffffffffffff\n    /* \"#utility.yul\":1332:1338   */\n  dup3\n    /* \"#utility.yul\":1329:1359   */\n  gt\n    /* \"#utility.yul\":1326:1382   */\n  iszero\n  tag_101\n  jumpi\n    /* \"#utility.yul\":1362:1380   */\n  tag_102\n  tag_59\n  jump\t// in\ntag_102:\n    /* \"#utility.yul\":1326:1382   */\ntag_101:\n    /* \"#utility.yul\":1412:1416   */\n  0x20\n    /* \"#utility.yul\":1404:1410   */\n  dup3\n    /* \"#utility.yul\":1400:1417   */\n  mul\n    /* \"#utility.yul\":1392:1417   */\n  swap1\n  pop\n    /* \"#utility.yul\":1472:1476   */\n  0x20\n    /* \"#utility.yul\":1466:1470   */\n  dup2\n    /* \"#utility.yul\":1462:1477   */\n  add\n    /* \"#utility.yul\":1454:1477   */\n  swap1\n  pop\n    /* \"#utility.yul\":1173:1484   */\n  swap2\n  swap1\n  pop\n  jump\t// out\n    /* \"#utility.yul\":1490:1607   */\ntag_63:\n    /* \"#utility.yul\":1599:1600   */\n  0x00\n    /* \"#utility.yul\":1596:1597   */\n  dup1\n    /* \"#utility.yul\":1589:1601   */\n  revert\n    /* \"#utility.yul\":1613:1739   */\ntag_64:\n    /* \"#utility.yul\":1650:1657   */\n  0x00\n    /* \"#utility.yul\":1690:1732   */\n  0xffffffffffffffffffffffffffffffffffffffff\n    /* \"#utility.yul\":1683:1688   */\n  dup3\n    /* \"#utility.yul\":1679:1733   */\n  and\n    /* \"#utility.yul\":1668:1733   */\n  swap1\n  pop\n    /* \"#utility.yul\":1613:1739   */\n  swap2\n  swap1\n  pop\n  jump\t// out\n    /* \"#utility.yul\":1745:1841   */\ntag_65:\n    /* \"#utility.yul\":1782:1789   */\n  0x00\n    /* \"#utility.yul\":1811:1835   */\n  tag_106\n    /* \"#utility.yul\":1829:1834   */\n  dup3\n    /* \"#utility.yul\":1811:1835   */\n  tag_64\n  jump\t// in\ntag_106:\n    /* \"#utility.yul\":1800:1835   */\n  swap1\n  pop\n    /* \"#utility.yul\":1745:1841   */\n  swap2\n  swap1\n  pop\n  jump\t// out\n    /* \"#utility.yul\":1847:1969   */\ntag_66:\n    /* \"#utility.yul\":1920:1944   */\n  tag_108\n    /* \"#utility.yul\":1938:1943   */\n  dup2\n    /* \"#utility.yul\":1920:1944   */\n  tag_65\n  jump\t// in\ntag_108:\n    /* \"#utility.yul\":1913:1918   */\n  dup2\n    /* \"#utility.yul\":1910:1945   */\n  eq\n    /* \"#utility.yul\":1900:1963   */\n  tag_109\n  jumpi\n    /* \"#utility.yul\":1959:1960   */\n  0x00\n    /* \"#utility.yul\":1956:1957   */\n  dup1\n    /* \"#utility.yul\":1949:1961   */\n  revert\n    /* \"#utility.yul\":1900:1963   */\ntag_109:\n    /* \"#utility.yul\":1847:1969   */\n  pop\n  jump\t// out\n    /* \"#utility.yul\":1975:2118   */\ntag_67:\n    /* \"#utility.yul\":2032:2037   */\n  0x00\n    /* \"#utility.yul\":2063:2069   */\n  dup2\n    /* \"#utility.yul\":2057:2070   */\n  mload\n    /* \"#utility.yul\":2048:2070   */\n  swap1\n  pop\n    /* \"#utility.yul\":2079:2112   */\n  tag_111\n    /* \"#utility.yul\":2106:2111   */\n  dup2\n    /* \"#utility.yul\":2079:2112   */\n  tag_66\n  jump\t// in\ntag_111:\n    /* \"#utility.yul\":1975:2118   */\n  swap3\n  swap2\n  pop\n  pop\n  jump\t// out\n    /* \"#utility.yul\":2141:2873   */\ntag_68:\n    /* \"#utility.yul\":2248:2253   */\n  0x00\n    /* \"#utility.yul\":2273:2354   */\n  tag_113\n    /* \"#utility.yul\":2289:2353   */\n  tag_114\n    /* \"#utility.yul\":2346:2352   */\n  dup5\n    /* \"#utility.yul\":2289:2353   */\n  tag_62\n  jump\t// in\ntag_114:\n    /* \"#utility.yul\":2273:2354   */\n  tag_61\n  jump\t// in\ntag_113:\n    /* \"#utility.yul\":2264:2354   */\n  swap1\n  pop\n    /* \"#utility.yul\":2374:2379   */\n  dup1\n    /* \"#utility.yul\":2403:2409   */\n  dup4\n    /* \"#utility.yul\":2396:2401   */\n  dup3\n    /* \"#utility.yul\":2389:2410   */\n  mstore\n    /* \"#utility.yul\":2437:2441   */\n  0x20\n    /* \"#utility.yul\":2430:2435   */\n  dup3\n    /* \"#utility.yul\":2426:2442   */\n  add\n    /* \"#utility.yul\":2419:2442   */\n  swap1\n  pop\n    /* \"#utility.yul\":2490:2494   */\n  0x20\n    /* \"#utility.yul\":2482:2488   */\n  dup5\n    /* \"#utility.yul\":2478:2495   */\n  mul\n    /* \"#utility.yul\":2470:2476   */\n  dup4\n    /* \"#utility.yul\":2466:2496   */\n  add\n    /* \"#utility.yul\":2519:2522   */\n  dup6\n    /* \"#utility.yul\":2511:2517   */\n  dup2\n    /* \"#utility.yul\":2508:2523   */\n  gt\n    /* \"#utility.yul\":2505:2627   */\n  iszero\n  tag_115\n  jumpi\n    /* \"#utility.yul\":2538:2617   */\n  tag_116\n  tag_63\n  jump\t// in\ntag_116:\n    /* \"#utility.yul\":2505:2627   */\ntag_115:\n    /* \"#utility.yul\":2653:2659   */\n  dup4\n    /* \"#utility.yul\":2636:2867   */\ntag_117:\n    /* \"#utility.yul\":2670:2676   */\n  dup2\n    /* \"#utility.yul\":2665:2668   */\n  dup2\n    /* \"#utility.yul\":2662:2677   */\n  lt\n    /* \"#utility.yul\":2636:2867   */\n  iszero\n  tag_119\n  jumpi\n    /* \"#utility.yul\":2745:2748   */\n  dup1\n    /* \"#utility.yul\":2774:2822   */\n  tag_120\n    /* \"#utility.yul\":2818:2821   */\n  dup9\n    /* \"#utility.yul\":2806:2816   */\n  dup3\n    /* \"#utility.yul\":2774:2822   */\n  tag_67\n  jump\t// in\ntag_120:\n    /* \"#utility.yul\":2769:2772   */\n  dup5\n    /* \"#utility.yul\":2762:2823   */\n  mstore\n    /* \"#utility.yul\":2852:2856   */\n  0x20\n    /* \"#utility.yul\":2847:2850   */\n  dup5\n    /* \"#utility.yul\":2843:2857   */\n  add\n    /* \"#utility.yul\":2836:2857   */\n  swap4\n  pop\n    /* \"#utility.yul\":2712:2867   */\n  pop\n    /* \"#utility.yul\":2696:2700   */\n  0x20\n    /* \"#utility.yul\":2691:2694   */\n  dup2\n    /* \"#utility.yul\":2687:2701   */\n  add\n    /* \"#utility.yul\":2680:2701   */\n  swap1\n  pop\n    /* \"#utility.yul\":2636:2867   */\n  jump(tag_117)\ntag_119:\n    /* \"#utility.yul\":2640:2661   */\n  pop\n    /* \"#utility.yul\":2254:2873   */\n  pop\n  pop\n    /* \"#utility.yul\":2141:2873   */\n  swap4\n  swap3\n  pop\n  pop\n  pop\n  jump\t// out\n    /* \"#utility.yul\":2896:3281   */\ntag_69:\n    /* \"#utility.yul\":2978:2983   */\n  0x00\n    /* \"#utility.yul\":3027:3030   */\n  dup3\n    /* \"#utility.yul\":3020:3024   */\n  0x1f\n    /* \"#utility.yul\":3012:3018   */\n  dup4\n    /* \"#utility.yul\":3008:3025   */\n  add\n    /* \"#utility.yul\":3004:3031   */\n  slt\n    /* \"#utility.yul\":2994:3116   */\n  tag_122\n  jumpi\n    /* \"#utility.yul\":3035:3114   */\n  tag_123\n  tag_57\n  jump\t// in\ntag_123:\n    /* \"#utility.yul\":2994:3116   */\ntag_122:\n    /* \"#utility.yul\":3145:3151   */\n  dup2\n    /* \"#utility.yul\":3139:3152   */\n  mload\n    /* \"#utility.yul\":3170:3275   */\n  tag_124\n    /* \"#utility.yul\":3271:3274   */\n  dup5\n    /* \"#utility.yul\":3263:3269   */\n  dup3\n    /* \"#utility.yul\":3256:3260   */\n  0x20\n    /* \"#utility.yul\":3248:3254   */\n  dup7\n    /* \"#utility.yul\":3244:3261   */\n  add\n    /* \"#utility.yul\":3170:3275   */\n  tag_68\n  jump\t// in\ntag_124:\n    /* \"#utility.yul\":3161:3275   */\n  swap2\n  pop\n    /* \"#utility.yul\":2984:3281   */\n  pop\n    /* \"#utility.yul\":2896:3281   */\n  swap3\n  swap2\n  pop\n  pop\n  jump\t// out\n    /* \"#utility.yul\":3287:3997   */\ntag_3:\n    /* \"#utility.yul\":3391:3397   */\n  0x00\n    /* \"#utility.yul\":3399:3405   */\n  dup1\n    /* \"#utility.yul\":3448:3450   */\n  0x40\n    /* \"#utility.yul\":3436:3445   */\n  dup4\n    /* \"#utility.yul\":3427:3434   */\n  dup6\n    /* \"#utility.yul\":3423:3446   */\n  sub\n    /* \"#utility.yul\":3419:3451   */\n  slt\n    /* \"#utility.yul\":3416:3535   */\n  iszero\n  tag_126\n  jumpi\n    /* \"#utility.yul\":3454:3533   */\n  tag_127\n  tag_55\n  jump\t// in\ntag_127:\n    /* \"#utility.yul\":3416:3535   */\ntag_126:\n    /* \"#utility.yul\":3595:3596   */\n  0x00\n    /* \"#utility.yul\":3584:3593   */\n  dup4\n    /* \"#utility.yul\":3580:3597   */\n  add\n    /* \"#utility.yul\":3574:3598   */\n  mload\n    /* \"#utility.yul\":3625:3643   */\n  0xffffffffffffffff\n    /* \"#utility.yul\":3617:3623   */\n  dup2\n    /* \"#utility.yul\":3614:3644   */\n  gt\n    /* \"#utility.yul\":3611:3728   */\n  iszero\n  tag_128\n  jumpi\n    /* \"#utility.yul\":3647:3726   */\n  tag_129\n  tag_56\n  jump\t// in\ntag_129:\n    /* \"#utility.yul\":3611:3728   */\ntag_128:\n    /* \"#utility.yul\":3752:3841   */\n  tag_130\n    /* \"#utility.yul\":3833:3840   */\n  dup6\n    /* \"#utility.yul\":3824:3830   */\n  dup3\n    /* \"#utility.yul\":3813:3822   */\n  dup7\n    /* \"#utility.yul\":3809:3831   */\n  add\n    /* \"#utility.yul\":3752:3841   */\n  tag_69\n  jump\t// in\ntag_130:\n    /* \"#utility.yul\":3742:3841   */\n  swap3\n  pop\n    /* \"#utility.yul\":3545:3851   */\n  pop\n    /* \"#utility.yul\":3890:3892   */\n  0x20\n    /* \"#utility.yul\":3916:3980   */\n  tag_131\n    /* \"#utility.yul\":3972:3979   */\n  dup6\n    /* \"#utility.yul\":3963:3969   */\n  dup3\n    /* \"#utility.yul\":3952:3961   */\n  dup7\n    /* \"#utility.yul\":3948:3970   */\n  add\n    /* \"#utility.yul\":3916:3980   */\n  tag_67\n  jump\t// in\ntag_131:\n    /* \"#utility.yul\":3906:3980   */\n  swap2\n  pop\n    /* \"#utility.yul\":3861:3990   */\n  pop\n    /* \"#utility.yul\":3287:3997   */\n  swap3\n  pop\n  swap3\n  swap1\n  pop\n  jump\t// out\n    /* \"#utility.yul\":4003:4183   */\ntag_18:\n    /* \"#utility.yul\":4051:4128   */\n  0x4e487b7100000000000000000000000000000000000000000000000000000000\n    /* \"#utility.yul\":4048:4049   */\n  0x00\n    /* \"#utility.yul\":4041:4129   */\n  mstore\n    /* \"#utility.yul\":4148:4152   */\n  0x32\n    /* \"#utility.yul\":4145:4146   */\n  0x04\n    /* \"#utility.yul\":4138:4153   */\n  mstore\n    /* \"#utility.yul\":4172:4176   */\n  0x24\n    /* \"#utility.yul\":4169:4170   */\n  0x00\n    /* \"#utility.yul\":4162:4177   */\n  revert\n    /* \"#utility.yul\":4189:4369   */\ntag_70:\n    /* \"#utility.yul\":4237:4314   */\n  0x4e487b7100000000000000000000000000000000000000000000000000000000\n    /* \"#utility.yul\":4234:4235   */\n  0x00\n    /* \"#utility.yul\":4227:4315   */\n  mstore\n    /* \"#utility.yul\":4334:4338   */\n  0x11\n    /* \"#utility.yul\":4331:4332   */\n  0x04\n    /* \"#utility.yul\":4324:4339   */\n  mstore\n    /* \"#utility.yul\":4358:4362   */\n  0x24\n    /* \"#utility.yul\":4355:4356   */\n  0x00\n    /* \"#utility.yul\":4348:4363   */\n  revert\n    /* \"#utility.yul\":4375:4452   */\ntag_71:\n    /* \"#utility.yul\":4412:4419   */\n  0x00\n    /* \"#utility.yul\":4441:4446   */\n  dup2\n    /* \"#utility.yul\":4430:4446   */\n  swap1\n  pop\n    /* \"#utility.yul\":4375:4452   */\n  swap2\n  swap1\n  pop\n  jump\t// out\n    /* \"#utility.yul\":4458:4691   */\ntag_21:\n    /* \"#utility.yul\":4497:4500   */\n  0x00\n    /* \"#utility.yul\":4520:4544   */\n  tag_136\n    /* \"#utility.yul\":4538:4543   */\n  dup3\n    /* \"#utility.yul\":4520:4544   */\n  tag_71\n  jump\t// in\ntag_136:\n    /* \"#utility.yul\":4511:4544   */\n  swap2\n  pop\n    /* \"#utility.yul\":4566:4632   */\n  0xffffffffffffffffffffffffffffffffffffffffffffffffffffffffffffffff\n    /* \"#utility.yul\":4559:4564   */\n  dup3\n    /* \"#utility.yul\":4556:4633   */\n  sub\n    /* \"#utility.yul\":4553:4656   */\n  tag_137\n  jumpi\n    /* \"#utility.yul\":4636:4654   */\n  tag_138\n  tag_70\n  jump\t// in\ntag_138:\n    /* \"#utility.yul\":4553:4656   */\ntag_137:\n    /* \"#utility.yul\":4683:4684   */\n  0x01\n    /* \"#utility.yul\":4676:4681   */\n  dup3\n    /* \"#utility.yul\":4672:4685   */\n  add\n    /* \"#utility.yul\":4665:4685   */\n  swap1\n  pop\n    /* \"#utility.yul\":4458:4691   */\n  swap2\n  swap1\n  pop\n  jump\t// out\n    /* \"#utility.yul\":4697:4866   */\ntag_72:\n    /* \"#utility.yul\":4781:4792   */\n  0x00\n    /* \"#utility.yul\":4815:4821   */\n  dup3\n    /* \"#utility.yul\":4810:4813   */\n  dup3\n    /* \"#utility.yul\":4803:4822   */\n  mstore\n    /* \"#utility.yul\":4855:4859   */\n  0x20\n    /* \"#utility.yul\":4850:4853   */\n  dup3\n    /* \"#utility.yul\":4846:4860   */\n  add\n    /* \"#utility.yul\":4831:4860   */\n  swap1\n  pop\n    /* \"#utility.yul\":4697:4866   */\n  swap3\n  swap2\n  pop\n  pop\n  jump\t// out\n    /* \"#utility.yul\":4872:5054   */\ntag_73:\n    /* \"#utility.yul\":5012:5046   */\n  0x4f776e61626c653a2063616c6c6572206973206e6f7420746865206f776e6572\n    /* \"#utility.yul\":5008:5009   */\n  0x00\n    /* \"#utility.yul\":5000:5006   */\n  dup3\n    /* \"#utility.yul\":4996:5010   */\n  add\n    /* \"#utility.yul\":4989:5047   */\n  mstore\n    /* \"#utility.yul\":4872:5054   */\n  pop\n  jump\t// out\n    /* \"#utility.yul\":5060:5426   */\ntag_74:\n    /* \"#utility.yul\":5202:5205   */\n  0x00\n    /* \"#utility.yul\":5223:5290   */\n  tag_142\n    /* \"#utility.yul\":5287:5289   */\n  0x20\n    /* \"#utility.yul\":5282:5285   */\n  dup4\n    /* \"#utility.yul\":5223:5290   */\n  tag_72\n  jump\t// in\ntag_142:\n    /* \"#utility.yul\":5216:5290   */\n  swap2\n  pop\n    /* \"#utility.yul\":5299:5392   */\n  tag_143\n    /* \"#utility.yul\":5388:5391   */\n  dup3\n    /* \"#utility.yul\":5299:5392   */\n  tag_73\n  jump\t// in\ntag_143:\n    /* \"#utility.yul\":5417:5419   */\n  0x20\n    /* \"#utility.yul\":5412:5415   */\n  dup3\n    /* \"#utility.yul\":5408:5420   */\n  add\n    /* \"#utility.yul\":5401:5420   */\n  swap1\n  pop\n    /* \"#utility.yul\":5060:5426   */\n  swap2\n  swap1\n  pop\n  jump\t// out\n    /* \"#utility.yul\":5432:5851   */\ntag_37:\n    /* \"#utility.yul\":5598:5602   */\n  0x00\n    /* \"#utility.yul\":5636:5638   */\n  0x20\n    /* \"#utility.yul\":5625:5634   */\n  dup3\n    /* \"#utility.yul\":5621:5639   */\n  add\n    /* \"#utility.yul\":5613:5639   */\n  swap1\n  pop\n    /* \"#utility.yul\":5685:5694   */\n  dup2\n    /* \"#utility.yul\":5679:5683   */\n  dup2\n    /* \"#utility.yul\":5675:5695   */\n  sub\n    /* \"#utility.yul\":5671:5672   */\n  0x00\n    /* \"#utility.yul\":5660:5669   */\n  dup4\n    /* \"#utility.yul\":5656:5673   */\n  add\n    /* \"#utility.yul\":5649:5696   */\n  mstore\n    /* \"#utility.yul\":5713:5844   */\n  tag_145\n    /* \"#utility.yul\":5839:5843   */\n  dup2\n    /* \"#utility.yul\":5713:5844   */\n  tag_74\n  jump\t// in\ntag_145:\n    /* \"#utility.yul\":5705:5844   */\n  swap1\n  pop\n    /* \"#utility.yul\":5432:5851   */\n  swap2\n  swap1\n  pop\n  jump\t// out\n    /* \"#utility.yul\":5857:5975   */\ntag_75:\n    /* \"#utility.yul\":5944:5968   */\n  tag_147\n    /* \"#utility.yul\":5962:5967   */\n  dup2\n    /* \"#utility.yul\":5944:5968   */\n  tag_65\n  jump\t// in\ntag_147:\n    /* \"#utility.yul\":5939:5942   */\n  dup3\n    /* \"#utility.yul\":5932:5969   */\n  mstore\n    /* \"#utility.yul\":5857:5975   */\n  pop\n  pop\n  jump\t// out\n    /* \"#utility.yul\":5981:6099   */\ntag_76:\n    /* \"#utility.yul\":6068:6092   */\n  tag_149\n    /* \"#utility.yul\":6086:6091   */\n  dup2\n    /* \"#utility.yul\":6068:6092   */\n  tag_71\n  jump\t// in\ntag_149:\n    /* \"#utility.yul\":6063:6066   */\n  dup3\n    /* \"#utility.yul\":6056:6093   */\n  mstore\n    /* \"#utility.yul\":5981:6099   */\n  pop\n  pop\n  jump\t// out\n    /* \"#utility.yul\":6105:6437   */\ntag_40:\n    /* \"#utility.yul\":6226:6230   */\n  0x00\n    /* \"#utility.yul\":6264:6266   */\n  0x40\n    /* \"#utility.yul\":6253:6262   */\n  dup3\n    /* \"#utility.yul\":6249:6267   */\n  add\n    /* \"#utility.yul\":6241:6267   */\n  swap1\n  pop\n    /* \"#utility.yul\":6277:6348   */\n  tag_151\n    /* \"#utility.yul\":6345:6346   */\n  0x00\n    /* \"#utility.yul\":6334:6343   */\n  dup4\n    /* \"#utility.yul\":6330:6347   */\n  add\n    /* \"#utility.yul\":6321:6327   */\n  dup6\n    /* \"#utility.yul\":6277:6348   */\n  tag_75\n  jump\t// in\ntag_151:\n    /* \"#utility.yul\":6358:6430   */\n  tag_152\n    /* \"#utility.yul\":6426:6428   */\n  0x20\n    /* \"#utility.yul\":6415:6424   */\n  dup4\n    /* \"#utility.yul\":6411:6429   */\n  add\n    /* \"#utility.yul\":6402:6408   */\n  dup5\n    /* \"#utility.yul\":6358:6430   */\n  tag_76\n  jump\t// in\ntag_152:\n    /* \"#utility.yul\":6105:6437   */\n  swap4\n  swap3\n  pop\n  pop\n  pop\n  jump\t// out\n    /* \"#utility.yul\":6443:6541   */\ntag_77:\n    /* \"#utility.yul\":6494:6500   */\n  0x00\n    /* \"#utility.yul\":6528:6533   */\n  dup2\n    /* \"#utility.yul\":6522:6534   */\n  mload\n    /* \"#utility.yul\":6512:6534   */\n  swap1\n  pop\n    /* \"#utility.yul\":6443:6541   */\n  swap2\n  swap1\n  pop\n  jump\t// out\n    /* \"#utility.yul\":6547:6694   */\ntag_78:\n    /* \"#utility.yul\":6648:6659   */\n  0x00\n    /* \"#utility.yul\":6685:6688   */\n  dup2\n    /* \"#utility.yul\":6670:6688   */\n  swap1\n  pop\n    /* \"#utility.yul\":6547:6694   */\n  swap3\n  swap2\n  pop\n  pop\n  jump\t// out\n    /* \"#utility.yul\":6700:6946   */\ntag_79:\n    /* \"#utility.yul\":6781:6782   */\n  0x00\n    /* \"#utility.yul\":6791:6904   */\ntag_156:\n    /* \"#utility.yul\":6805:6811   */\n  dup4\n    /* \"#utility.yul\":6802:6803   */\n  dup2\n    /* \"#utility.yul\":6799:6812   */\n  lt\n    /* \"#utility.yul\":6791:6904   */\n  iszero\n  tag_158\n  jumpi\n    /* \"#utility.yul\":6890:6891   */\n  dup1\n    /* \"#utility.yul\":6885:6888   */\n  dup3\n    /* \"#utility.yul\":6881:6892   */\n  add\n    /* \"#utility.yul\":6875:6893   */\n  mload\n    /* \"#utility.yul\":6871:6872   */\n  dup2\n    /* \"#utility.yul\":6866:6869   */\n  dup5\n    /* \"#utility.yul\":6862:6873   */\n  add\n    /* \"#utility.yul\":6855:6894   */\n  mstore\n    /* \"#utility.yul\":6827:6829   */\n  0x20\n    /* \"#utility.yul\":6824:6825   */\n  dup2\n    /* \"#utility.yul\":6820:6830   */\n  add\n    /* \"#utility.yul\":6815:6830   */\n  swap1\n  pop\n    /* \"#utility.yul\":6791:6904   */\n  jump(tag_156)\ntag_158:\n    /* \"#utility.yul\":6938:6939   */\n  0x00\n    /* \"#utility.yul\":6929:6935   */\n  dup5\n    /* \"#utility.yul\":6924:6927   */\n  dup5\n    /* \"#utility.yul\":6920:6936   */\n  add\n    /* \"#utility.yul\":6913:6940   */\n  mstore\n    /* \"#utility.yul\":6762:6946   */\n  pop\n    /* \"#utility.yul\":6700:6946   */\n  pop\n  pop\n  pop\n  jump\t// out\n    /* \"#utility.yul\":6952:7338   */\ntag_80:\n    /* \"#utility.yul\":7056:7059   */\n  0x00\n    /* \"#utility.yul\":7084:7122   */\n  tag_160\n    /* \"#utility.yul\":7116:7121   */\n  dup3\n    /* \"#utility.yul\":7084:7122   */\n  tag_77\n  jump\t// in\ntag_160:\n    /* \"#utility.yul\":7138:7226   */\n  tag_161\n    /* \"#utility.yul\":7219:7225   */\n  dup2\n    /* \"#utility.yul\":7214:7217   */\n  dup6\n    /* \"#utility.yul\":7138:7226   */\n  tag_78\n  jump\t// in\ntag_161:\n    /* \"#utility.yul\":7131:7226   */\n  swap4\n  pop\n    /* \"#utility.yul\":7235:7300   */\n  tag_162\n    /* \"#utility.yul\":7293:7299   */\n  dup2\n    /* \"#utility.yul\":7288:7291   */\n  dup6\n    /* \"#utility.yul\":7281:7285   */\n  0x20\n    /* \"#utility.yul\":7274:7279   */\n  dup7\n    /* \"#utility.yul\":7270:7286   */\n  add\n    /* \"#utility.yul\":7235:7300   */\n  tag_79\n  jump\t// in\ntag_162:\n    /* \"#utility.yul\":7325:7331   */\n  dup1\n    /* \"#utility.yul\":7320:7323   */\n  dup5\n    /* \"#utility.yul\":7316:7332   */\n  add\n    /* \"#utility.yul\":7309:7332   */\n  swap2\n  pop\n    /* \"#utility.yul\":7060:7338   */\n  pop\n    /* \"#utility.yul\":6952:7338   */\n  swap3\n  swap2\n  pop\n  pop\n  jump\t// out\n    /* \"#utility.yul\":7344:7615   */\ntag_42:\n    /* \"#utility.yul\":7474:7477   */\n  0x00\n    /* \"#utility.yul\":7496:7589   */\n  tag_164\n    /* \"#utility.yul\":7585:7588   */\n  dup3\n    /* \"#utility.yul\":7576:7582   */\n  dup5\n    /* \"#utility.yul\":7496:7589   */\n  tag_80\n  jump\t// in\ntag_164:\n    /* \"#utility.yul\":7489:7589   */\n  swap2\n  pop\n    /* \"#utility.yul\":7606:7609   */\n  dup2\n    /* \"#utility.yul\":7599:7609   */\n  swap1\n  pop\n    /* \"#utility.yul\":7344:7615   */\n  swap3\n  swap2\n  pop\n  pop\n  jump\t// out\n    /* \"#utility.yul\":7621:7711   */\ntag_81:\n    /* \"#utility.yul\":7655:7662   */\n  0x00\n    /* \"#utility.yul\":7698:7703   */\n  dup2\n    /* \"#utility.yul\":7691:7704   */\n  iszero\n    /* \"#utility.yul\":7684:7705   */\n  iszero\n    /* \"#utility.yul\":7673:7705   */\n  swap1\n  pop\n    /* \"#utility.yul\":7621:7711   */\n  swap2\n  swap1\n  pop\n  jump\t// out\n    /* \"#utility.yul\":7717:7833   */\ntag_82:\n    /* \"#utility.yul\":7787:7808   */\n  tag_167\n    /* \"#utility.yul\":7802:7807   */\n  dup2\n    /* \"#utility.yul\":7787:7808   */\n  tag_81\n  jump\t// in\ntag_167:\n    /* \"#utility.yul\":7780:7785   */\n  dup2\n    /* \"#utility.yul\":7777:7809   */\n  eq\n    /* \"#utility.yul\":7767:7827   */\n  tag_168\n  jumpi\n    /* \"#utility.yul\":7823:7824   */\n  0x00\n    /* \"#utility.yul\":7820:7821   */\n  dup1\n    /* \"#utility.yul\":7813:7825   */\n  revert\n    /* \"#utility.yul\":7767:7827   */\ntag_168:\n    /* \"#utility.yul\":7717:7833   */\n  pop\n  jump\t// out\n    /* \"#utility.yul\":7839:7976   */\ntag_83:\n    /* \"#utility.yul\":7893:7898   */\n  0x00\n    /* \"#utility.yul\":7924:7930   */\n  dup2\n    /* \"#utility.yul\":7918:7931   */\n  mload\n    /* \"#utility.yul\":7909:7931   */\n  swap1\n  pop\n    /* \"#utility.yul\":7940:7970   */\n  tag_170\n    /* \"#utility.yul\":7964:7969   */\n  dup2\n    /* \"#utility.yul\":7940:7970   */\n  tag_82\n  jump\t// in\ntag_170:\n    /* \"#utility.yul\":7839:7976   */\n  swap3\n  swap2\n  pop\n  pop\n  jump\t// out\n    /* \"#utility.yul\":7982:8327   */\ntag_49:\n    /* \"#utility.yul\":8049:8055   */\n  0x00\n    /* \"#utility.yul\":8098:8100   */\n  0x20\n    /* \"#utility.yul\":8086:8095   */\n  dup3\n    /* \"#utility.yul\":8077:8084   */\n  dup5\n    /* \"#utility.yul\":8073:8096   */\n  sub\n    /* \"#utility.yul\":8069:8101   */\n  slt\n    /* \"#utility.yul\":8066:8185   */\n  iszero\n  tag_172\n  jumpi\n    /* \"#utility.yul\":8104:8183   */\n  tag_173\n  tag_55\n  jump\t// in\ntag_173:\n    /* \"#utility.yul\":8066:8185   */\ntag_172:\n    /* \"#utility.yul\":8224:8225   */\n  0x00\n    /* \"#utility.yul\":8249:8310   */\n  tag_174\n    /* \"#utility.yul\":8302:8309   */\n  dup5\n    /* \"#utility.yul\":8293:8299   */\n  dup3\n    /* \"#utility.yul\":8282:8291   */\n  dup6\n    /* \"#utility.yul\":8278:8300   */\n  add\n    /* \"#utility.yul\":8249:8310   */\n  tag_83\n  jump\t// in\ntag_174:\n    /* \"#utility.yul\":8239:8310   */\n  swap2\n  pop\n    /* \"#utility.yul\":8195:8320   */\n  pop\n    /* \"#utility.yul\":7982:8327   */\n  swap3\n  swap2\n  pop\n  pop\n  jump\t// out\n    /* \"#utility.yul\":8333:8509   */\ntag_84:\n    /* \"#utility.yul\":8473:8501   */\n  0x5472616e7366657248656c7065723a73616665417070726f7665000000000000\n    /* \"#utility.yul\":8469:8470   */\n  0x00\n    /* \"#utility.yul\":8461:8467   */\n  dup3\n    /* \"#utility.yul\":8457:8471   */\n  add\n    /* \"#utility.yul\":8450:8502   */\n  mstore\n    /* \"#utility.yul\":8333:8509   */\n  pop\n  jump\t// out\n    /* \"#utility.yul\":8515:8881   */\ntag_85:\n    /* \"#utility.yul\":8657:8660   */\n  0x00\n    /* \"#utility.yul\":8678:8745   */\n  tag_177\n    /* \"#utility.yul\":8742:8744   */\n  0x1a\n    /* \"#utility.yul\":8737:8740   */\n  dup4\n    /* \"#utility.yul\":8678:8745   */\n  tag_72\n  jump\t// in\ntag_177:\n    /* \"#utility.yul\":8671:8745   */\n  swap2\n  pop\n    /* \"#utility.yul\":8754:8847   */\n  tag_178\n    /* \"#utility.yul\":8843:8846   */\n  dup3\n    /* \"#utility.yul\":8754:8847   */\n  tag_84\n  jump\t// in\ntag_178:\n    /* \"#utility.yul\":8872:8874   */\n  0x20\n    /* \"#utility.yul\":8867:8870   */\n  dup3\n    /* \"#utility.yul\":8863:8875   */\n  add\n    /* \"#utility.yul\":8856:8875   */\n  swap1\n  pop\n    /* \"#utility.yul\":8515:8881   */\n  swap2\n  swap1\n  pop\n  jump\t// out\n    /* \"#utility.yul\":8887:9306   */\ntag_52:\n    /* \"#utility.yul\":9053:9057   */\n  0x00\n    /* \"#utility.yul\":9091:9093   */\n  0x20\n    /* \"#utility.yul\":9080:9089   */\n  dup3\n    /* \"#utility.yul\":9076:9094   */\n  add\n    /* \"#utility.yul\":9068:9094   */\n  swap1\n  pop\n    /* \"#utility.yul\":9140:9149   */\n  dup2\n    /* \"#utility.yul\":9134:9138   */\n  dup2\n    /* \"#utility.yul\":9130:9150   */\n  sub\n    /* \"#utility.yul\":9126:9127   */\n  0x00\n    /* \"#utility.yul\":9115:9124   */\n  dup4\n    /* \"#utility.yul\":9111:9128   */\n  add\n    /* \"#utility.yul\":9104:9151   */\n  mstore\n    /* \"#utility.yul\":9168:9299   */\n  tag_180\n    /* \"#utility.yul\":9294:9298   */\n  dup2\n    /* \"#utility.yul\":9168:9299   */\n  tag_85\n  jump\t// in\ntag_180:\n    /* \"#utility.yul\":9160:9299   */\n  swap1\n  pop\n    /* \"#utility.yul\":8887:9306   */\n  swap2\n  swap1\n  pop\n  jump\t// out\n    /* \"contracts/AllBridge.sol\":662:2974  contract ALLBridge is IBridge,Ownable {    ... */\ntag_22:\n  dataSize(sub_0)\n  dup1\n  dataOffset(sub_0)\n  0x00\n  codecopy\n  0x00\n  return\nstop\n\nsub_0: assembly {\n        /* \"contracts/AllBridge.sol\":662:2974  contract ALLBridge is IBridge,Ownable {    ... */\n      mstore(0x40, 0x80)\n      jumpi(tag_1, lt(calldatasize, 0x04))\n      shr(0xe0, calldataload(0x00))\n      dup1\n      0x8da5cb5b\n      gt\n      tag_10\n      jumpi\n      dup1\n      0x8da5cb5b\n      eq\n      tag_6\n      jumpi\n      dup1\n      0xdd62ed3e\n      eq\n      tag_7\n      jumpi\n      dup1\n      0xe34abd88\n      eq\n      tag_8\n      jumpi\n      dup1\n      0xf2fde38b\n      eq\n      tag_9\n      jumpi\n      jump(tag_1)\n    tag_10:\n      dup1\n      0x03105b04\n      eq\n      tag_2\n      jumpi\n      dup1\n      0x0a2fb374\n      eq\n      tag_3\n      jumpi\n      dup1\n      0x2e065ae5\n      eq\n      tag_4\n      jumpi\n      dup1\n      0x715018a6\n      eq\n      tag_5\n      jumpi\n    tag_1:\n      0x00\n      dup1\n      revert\n        /* \"contracts/AllBridge.sol\":2013:2157  function approveToken(address token,address bridge) public onlyOwner {... */\n    tag_2:\n      callvalue\n      dup1\n      iszero\n      tag_11\n      jumpi\n      0x00\n      dup1\n      revert\n    tag_11:\n      pop\n      tag_12\n      0x04\n      dup1\n      calldatasize\n      sub\n      dup2\n      add\n      swap1\n      tag_13\n      swap2\n      swap1\n      tag_14\n      jump\t// in\n    tag_13:\n      tag_15\n      jump\t// in\n    tag_12:\n      stop\n        /* \"contracts/AllBridge.sol\":1344:2003  function Bridge(bytes calldata data,uint amountIn) public payable {... */\n    tag_3:\n      tag_16\n      0x04\n      dup1\n      calldatasize\n      sub\n      dup2\n      add\n      swap1\n      tag_17\n      swap2\n      swap1\n      tag_18\n      jump\t// in\n    tag_17:\n      tag_19\n      jump\t// in\n    tag_16:\n      stop\n        /* \"contracts/AllBridge.sol\":2442:2967  function decodeInput(bytes calldata data) public pure returns (allBridgeInput memory) {... */\n    tag_4:\n      callvalue\n      dup1\n      iszero\n      tag_20\n      jumpi\n      0x00\n      dup1\n      revert\n    tag_20:\n      pop\n      tag_21\n      0x04\n      dup1\n      calldatasize\n      sub\n      dup2\n      add\n      swap1\n      tag_22\n      swap2\n      swap1\n      tag_23\n      jump\t// in\n    tag_22:\n      tag_24\n      jump\t// in\n    tag_21:\n      mload(0x40)\n      tag_25\n      swap2\n      swap1\n      tag_26\n      jump\t// in\n    tag_25:\n      mload(0x40)\n      dup1\n      swap2\n      sub\n      swap1\n      return\n        /* \"@openzeppelin/contracts/access/Ownable.sol\":1831:1932  function renounceOwnership() public virtual onlyOwner {... */\n    tag_5:\n      callvalue\n      dup1\n      iszero\n      tag_27\n      jumpi\n      0x00\n      dup1\n      revert\n    tag_27:\n      pop\n      tag_28\n      tag_29\n      jump\t// in\n    tag_28:\n      stop\n        /* \"@openzeppelin/contracts/access/Ownable.sol\":1201:1286  function owner() public view virtual returns (address) {... */\n    tag_6:\n      callvalue\n      dup1\n      iszero\n      tag_30\n      jumpi\n      0x00\n      dup1\n      revert\n    tag_30:\n      pop\n      tag_31\n      tag_32\n      jump\t// in\n    tag_31:\n      mload(0x40)\n      tag_33\n      swap2\n      swap1\n      tag_34\n      jump\t// in\n    tag_33:\n      mload(0x40)\n      dup1\n      swap2\n      sub\n      swap1\n      return\n        /* \"contracts/AllBridge.sol\":2163:2309  function allowance(address token,address bridge) public view returns(uint256){... */\n    tag_7:\n      callvalue\n      dup1\n      iszero\n      tag_35\n      jumpi\n      0x00\n      dup1\n      revert\n    tag_35:\n      pop\n      tag_36\n      0x04\n      dup1\n      calldatasize\n      sub\n      dup2\n      add\n      swap1\n      tag_37\n      swap2\n      swap1\n      tag_14\n      jump\t// in\n    tag_37:\n      tag_38\n      jump\t// in\n    tag_36:\n      mload(0x40)\n      tag_39\n      swap2\n      swap1\n      tag_40\n      jump\t// in\n    tag_39:\n      mload(0x40)\n      dup1\n      swap2\n      sub\n      swap1\n      return\n        /* \"contracts/AllBridge.sol\":2315:2436  function encode(allBridgeInput memory input) public pure returns (bytes memory) {... */\n    tag_8:\n      callvalue\n      dup1\n      iszero\n      tag_41\n      jumpi\n      0x00\n      dup1\n      revert\n    tag_41:\n      pop\n      tag_42\n      0x04\n      dup1\n      calldatasize\n      sub\n      dup2\n      add\n      swap1\n      tag_43\n      swap2\n      swap1\n      tag_44\n      jump\t// in\n    tag_43:\n      tag_45\n      jump\t// in\n    tag_42:\n      mload(0x40)\n      tag_46\n      swap2\n      swap1\n      tag_47\n      jump\t// in\n    tag_46:\n      mload(0x40)\n      dup1\n      swap2\n      sub\n      swap1\n      return\n        /* \"@openzeppelin/contracts/access/Ownable.sol\":2081:2279  function transferOwnership(address newOwner) public virtual onlyOwner {... */\n    tag_9:\n      callvalue\n      dup1\n      iszero\n      tag_48\n      jumpi\n      0x00\n      dup1\n      revert\n    tag_48:\n      pop\n      tag_49\n      0x04\n      dup1\n      calldatasize\n      sub\n      dup2\n      add\n      swap1\n      tag_50\n      swap2\n      swap1\n      tag_51\n      jump\t// in\n    tag_50:\n      tag_52\n      jump\t// in\n    tag_49:\n      stop\n        /* \"contracts/AllBridge.sol\":2013:2157  function approveToken(address token,address bridge) public onlyOwner {... */\n    tag_15:\n        /* \"@openzeppelin/contracts/access/Ownable.sol\":1094:1107  _checkOwner() */\n      tag_55\n        /* \"@openzeppelin/contracts/access/Ownable.sol\":1094:1105  _checkOwner */\n      tag_56\n        /* \"@openzeppelin/contracts/access/Ownable.sol\":1094:1107  _checkOwner() */\n      jump\t// in\n    tag_55:\n        /* \"contracts/AllBridge.sol\":2092:2150  TransferHelper.safeApprove(token,bridge,type(uint256).max) */\n      tag_58\n        /* \"contracts/AllBridge.sol\":2119:2124  token */\n      dup3\n        /* \"contracts/AllBridge.sol\":2125:2131  bridge */\n      dup3\n        /* \"contracts/AllBridge.sol\":2132:2149  type(uint256).max */\n      0xffffffffffffffffffffffffffffffffffffffffffffffffffffffffffffffff\n        /* \"contracts/AllBridge.sol\":2092:2118  TransferHelper.safeApprove */\n      tag_53\n        /* \"contracts/AllBridge.sol\":2092:2150  TransferHelper.safeApprove(token,bridge,type(uint256).max) */\n      jump\t// in\n    tag_58:\n        /* \"contracts/AllBridge.sol\":2013:2157  function approveToken(address token,address bridge) public onlyOwner {... */\n      pop\n      pop\n      jump\t// out\n        /* \"contracts/AllBridge.sol\":1344:2003  function Bridge(bytes calldata data,uint amountIn) public payable {... */\n    tag_19:\n        /* \"contracts/AllBridge.sol\":1424:1451  allBridgeInput memory input */\n      0x00\n        /* \"contracts/AllBridge.sol\":1454:1471  decodeInput(data) */\n      tag_60\n        /* \"contracts/AllBridge.sol\":1466:1470  data */\n      dup5\n      dup5\n        /* \"contracts/AllBridge.sol\":1454:1465  decodeInput */\n      tag_24\n        /* \"contracts/AllBridge.sol\":1454:1471  decodeInput(data) */\n      jump\t// in\n    tag_60:\n        /* \"contracts/AllBridge.sol\":1424:1471  allBridgeInput memory input = decodeInput(data) */\n      swap1\n      pop\n        /* \"contracts/AllBridge.sol\":1485:1505  address tokenAddress */\n      0x00\n        /* \"contracts/AllBridge.sol\":1532:1537  input */\n      dup2\n        /* \"contracts/AllBridge.sol\":1532:1550  input.tokenAddress */\n      0x20\n      add\n      mload\n        /* \"contracts/AllBridge.sol\":1524:1551  uint256(input.tokenAddress) */\n      0x00\n      shr\n        /* \"contracts/AllBridge.sol\":1485:1553  address tokenAddress = address(uint160(uint256(input.tokenAddress))) */\n      swap1\n      pop\n        /* \"contracts/AllBridge.sol\":1567:1646  TransferHelper.safeTransferFrom(tokenAddress,msg.sender,address(this),amountIn) */\n      tag_61\n        /* \"contracts/AllBridge.sol\":1599:1611  tokenAddress */\n      dup2\n        /* \"contracts/AllBridge.sol\":1612:1622  msg.sender */\n      caller\n        /* \"contracts/AllBridge.sol\":1631:1635  this */\n      address\n        /* \"contracts/AllBridge.sol\":1637:1645  amountIn */\n      dup7\n        /* \"contracts/AllBridge.sol\":1567:1598  TransferHelper.safeTransferFrom */\n      tag_62\n        /* \"contracts/AllBridge.sol\":1567:1646  TransferHelper.safeTransferFrom(tokenAddress,msg.sender,address(this),amountIn) */\n      jump\t// in\n    tag_61:\n        /* \"contracts/AllBridge.sol\":1671:1676  input */\n      dup2\n        /* \"contracts/AllBridge.sol\":1671:1683  input.bridge */\n      0x00\n      add\n      mload\n        /* \"contracts/AllBridge.sol\":1660:1698  IAllBridge(input.bridge).swapAndBridge */\n      0xffffffffffffffffffffffffffffffffffffffff\n      and\n      0x4cd480bd\n        /* \"contracts/AllBridge.sol\":1705:1714  msg.value */\n      callvalue\n        /* \"contracts/AllBridge.sol\":1733:1738  input */\n      dup5\n        /* \"contracts/AllBridge.sol\":1733:1751  input.tokenAddress */\n      0x20\n      add\n      mload\n        /* \"contracts/AllBridge.sol\":1769:1777  amountIn */\n      dup7\n        /* \"contracts/AllBridge.sol\":1795:1800  input */\n      dup7\n        /* \"contracts/AllBridge.sol\":1795:1810  input.recipient */\n      0x40\n      add\n      mload\n        /* \"contracts/AllBridge.sol\":1828:1833  input */\n      dup8\n        /* \"contracts/AllBridge.sol\":1828:1852  input.destinationChainId */\n      0x60\n      add\n      mload\n        /* \"contracts/AllBridge.sol\":1870:1875  input */\n      dup9\n        /* \"contracts/AllBridge.sol\":1870:1895  input.receiveTokenAddress */\n      0x80\n      add\n      mload\n        /* \"contracts/AllBridge.sol\":1913:1918  input */\n      dup10\n        /* \"contracts/AllBridge.sol\":1913:1924  input.nonce */\n      0xa0\n      add\n      mload\n        /* \"contracts/AllBridge.sol\":1942:1947  input */\n      dup11\n        /* \"contracts/AllBridge.sol\":1942:1957  input.messenger */\n      0xc0\n      add\n      mload\n        /* \"contracts/AllBridge.sol\":1975:1980  input */\n      dup12\n        /* \"contracts/AllBridge.sol\":1975:1995  input.feeTokenAmount */\n      0xe0\n      add\n      mload\n        /* \"contracts/AllBridge.sol\":1660:1996  IAllBridge(input.bridge).swapAndBridge{value:msg.value}(... */\n      mload(0x40)\n      dup11\n      0xffffffff\n      and\n      0xe0\n      shl\n      dup2\n      mstore\n      0x04\n      add\n      tag_63\n      swap9\n      swap8\n      swap7\n      swap6\n      swap5\n      swap4\n      swap3\n      swap2\n      swap1\n      tag_64\n      jump\t// in\n    tag_63:\n      0x00\n      mload(0x40)\n      dup1\n      dup4\n      sub\n      dup2\n      dup6\n      dup9\n      dup1\n      extcodesize\n      iszero\n      dup1\n      iszero\n      tag_65\n      jumpi\n      0x00\n      dup1\n      revert\n    tag_65:\n      pop\n      gas\n      call\n      iszero\n      dup1\n      iszero\n      tag_67\n      jumpi\n      returndatasize\n      0x00\n      dup1\n      returndatacopy\n      revert(0x00, returndatasize)\n    tag_67:\n      pop\n      pop\n      pop\n      pop\n      pop\n        /* \"contracts/AllBridge.sol\":1410:2003  {... */\n      pop\n      pop\n        /* \"contracts/AllBridge.sol\":1344:2003  function Bridge(bytes calldata data,uint amountIn) public payable {... */\n      pop\n      pop\n      pop\n      jump\t// out\n        /* \"contracts/AllBridge.sol\":2442:2967  function decodeInput(bytes calldata data) public pure returns (allBridgeInput memory) {... */\n    tag_24:\n        /* \"contracts/AllBridge.sol\":2505:2526  allBridgeInput memory */\n      tag_68\n      tag_69\n      jump\t// in\n    tag_68:\n        /* \"contracts/AllBridge.sol\":2538:2572  allBridgeInput memory decodedInput */\n      tag_71\n      tag_69\n      jump\t// in\n    tag_71:\n        /* \"contracts/AllBridge.sol\":2830:2834  data */\n      dup4\n      dup4\n        /* \"contracts/AllBridge.sol\":2819:2930  abi.decode(data, (address, bytes32, bytes32, uint256, bytes32, uint256, IAllBridge.MessengerProtocol, uint256)) */\n      dup2\n      add\n      swap1\n      tag_72\n      swap2\n      swap1\n      tag_73\n      jump\t// in\n    tag_72:\n        /* \"contracts/AllBridge.sol\":2584:2596  decodedInput */\n      dup9\n        /* \"contracts/AllBridge.sol\":2584:2603  decodedInput.bridge */\n      0x00\n      add\n        /* \"contracts/AllBridge.sol\":2605:2617  decodedInput */\n      dup10\n        /* \"contracts/AllBridge.sol\":2605:2630  decodedInput.tokenAddress */\n      0x20\n      add\n        /* \"contracts/AllBridge.sol\":2632:2644  decodedInput */\n      dup11\n        /* \"contracts/AllBridge.sol\":2632:2654  decodedInput.recipient */\n      0x40\n      add\n        /* \"contracts/AllBridge.sol\":2656:2668  decodedInput */\n      dup12\n        /* \"contracts/AllBridge.sol\":2656:2687  decodedInput.destinationChainId */\n      0x60\n      add\n        /* \"contracts/AllBridge.sol\":2698:2710  decodedInput */\n      dup13\n        /* \"contracts/AllBridge.sol\":2698:2730  decodedInput.receiveTokenAddress */\n      0x80\n      add\n        /* \"contracts/AllBridge.sol\":2732:2744  decodedInput */\n      dup14\n        /* \"contracts/AllBridge.sol\":2732:2750  decodedInput.nonce */\n      0xa0\n      add\n        /* \"contracts/AllBridge.sol\":2752:2764  decodedInput */\n      dup15\n        /* \"contracts/AllBridge.sol\":2752:2774  decodedInput.messenger */\n      0xc0\n      add\n        /* \"contracts/AllBridge.sol\":2776:2788  decodedInput */\n      dup16\n        /* \"contracts/AllBridge.sol\":2776:2803  decodedInput.feeTokenAmount */\n      0xe0\n      add\n        /* \"contracts/AllBridge.sol\":2583:2930  (decodedInput.bridge, decodedInput.tokenAddress, decodedInput.recipient, decodedInput.destinationChainId,... */\n      dup9\n      dup2\n      mstore\n      pop\n      dup9\n      0x03\n      dup2\n      gt\n      iszero\n      tag_74\n      jumpi\n      tag_75\n      tag_76\n      jump\t// in\n    tag_75:\n    tag_74:\n      0x03\n      dup2\n      gt\n      iszero\n      tag_77\n      jumpi\n      tag_78\n      tag_76\n      jump\t// in\n    tag_78:\n    tag_77:\n      dup2\n      mstore\n      pop\n      dup9\n      dup2\n      mstore\n      pop\n      dup9\n      dup2\n      mstore\n      pop\n      dup9\n      dup2\n      mstore\n      pop\n      dup9\n      dup2\n      mstore\n      pop\n      dup9\n      dup2\n      mstore\n      pop\n      dup9\n      0xffffffffffffffffffffffffffffffffffffffff\n      and\n      0xffffffffffffffffffffffffffffffffffffffff\n      and\n      dup2\n      mstore\n      pop\n      pop\n      pop\n      pop\n      pop\n      pop\n      pop\n      pop\n      pop\n        /* \"contracts/AllBridge.sol\":2948:2960  decodedInput */\n      dup1\n        /* \"contracts/AllBridge.sol\":2941:2960  return decodedInput */\n      swap2\n      pop\n      pop\n        /* \"contracts/AllBridge.sol\":2442:2967  function decodeInput(bytes calldata data) public pure returns (allBridgeInput memory) {... */\n      swap3\n      swap2\n      pop\n      pop\n      jump\t// out\n        /* \"@openzeppelin/contracts/access/Ownable.sol\":1831:1932  function renounceOwnership() public virtual onlyOwner {... */\n    tag_29:\n        /* \"@openzeppelin/contracts/access/Ownable.sol\":1094:1107  _checkOwner() */\n      tag_80\n        /* \"@openzeppelin/contracts/access/Ownable.sol\":1094:1105  _checkOwner */\n      tag_56\n        /* \"@openzeppelin/contracts/access/Ownable.sol\":1094:1107  _checkOwner() */\n      jump\t// in\n    tag_80:\n        /* \"@openzeppelin/contracts/access/Ownable.sol\":1895:1925  _transferOwnership(address(0)) */\n      tag_82\n        /* \"@openzeppelin/contracts/access/Ownable.sol\":1922:1923  0 */\n      0x00\n        /* \"@openzeppelin/contracts/access/Ownable.sol\":1895:1913  _transferOwnership */\n      tag_83\n        /* \"@openzeppelin/contracts/access/Ownable.sol\":1895:1925  _transferOwnership(address(0)) */\n      jump\t// in\n    tag_82:\n        /* \"@openzeppelin/contracts/access/Ownable.sol\":1831:1932  function renounceOwnership() public virtual onlyOwner {... */\n      jump\t// out\n        /* \"@openzeppelin/contracts/access/Ownable.sol\":1201:1286  function owner() public view virtual returns (address) {... */\n    tag_32:\n        /* \"@openzeppelin/contracts/access/Ownable.sol\":1247:1254  address */\n      0x00\n        /* \"@openzeppelin/contracts/access/Ownable.sol\":1273:1279  _owner */\n      dup1\n      0x00\n      swap1\n      sload\n      swap1\n      0x0100\n      exp\n      swap1\n      div\n      0xffffffffffffffffffffffffffffffffffffffff\n      and\n        /* \"@openzeppelin/contracts/access/Ownable.sol\":1266:1279  return _owner */\n      swap1\n      pop\n        /* \"@openzeppelin/contracts/access/Ownable.sol\":1201:1286  function owner() public view virtual returns (address) {... */\n      swap1\n      jump\t// out\n        /* \"contracts/AllBridge.sol\":2163:2309  function allowance(address token,address bridge) public view returns(uint256){... */\n    tag_38:\n        /* \"contracts/AllBridge.sol\":2232:2239  uint256 */\n      0x00\n        /* \"contracts/AllBridge.sol\":2264:2269  token */\n      dup3\n        /* \"contracts/AllBridge.sol\":2257:2280  IERC20(token).allowance */\n      0xffffffffffffffffffffffffffffffffffffffff\n      and\n      0xdd62ed3e\n        /* \"contracts/AllBridge.sol\":2289:2293  this */\n      address\n        /* \"contracts/AllBridge.sol\":2295:2301  bridge */\n      dup5\n        /* \"contracts/AllBridge.sol\":2257:2302  IERC20(token).allowance(address(this),bridge) */\n      mload(0x40)\n      dup4\n      0xffffffff\n      and\n      0xe0\n      shl\n      dup2\n      mstore\n      0x04\n      add\n      tag_86\n      swap3\n      swap2\n      swap1\n      tag_87\n      jump\t// in\n    tag_86:\n      0x20\n      mload(0x40)\n      dup1\n      dup4\n      sub\n      dup2\n      dup7\n      gas\n      staticcall\n      iszero\n      dup1\n      iszero\n      tag_89\n      jumpi\n      returndatasize\n      0x00\n      dup1\n      returndatacopy\n      revert(0x00, returndatasize)\n    tag_89:\n      pop\n      pop\n      pop\n      pop\n      mload(0x40)\n      returndatasize\n      not(0x1f)\n      0x1f\n      dup3\n      add\n      and\n      dup3\n      add\n      dup1\n      0x40\n      mstore\n      pop\n      dup2\n      add\n      swap1\n      tag_90\n      swap2\n      swap1\n      tag_91\n      jump\t// in\n    tag_90:\n        /* \"contracts/AllBridge.sol\":2250:2302  return IERC20(token).allowance(address(this),bridge) */\n      swap1\n      pop\n        /* \"contracts/AllBridge.sol\":2163:2309  function allowance(address token,address bridge) public view returns(uint256){... */\n      swap3\n      swap2\n      pop\n      pop\n      jump\t// out\n        /* \"contracts/AllBridge.sol\":2315:2436  function encode(allBridgeInput memory input) public pure returns (bytes memory) {... */\n    tag_45:\n        /* \"contracts/AllBridge.sol\":2381:2393  bytes memory */\n      0x60\n        /* \"contracts/AllBridge.sol\":2423:2428  input */\n      dup2\n        /* \"contracts/AllBridge.sol\":2412:2429  abi.encode(input) */\n      add(0x20, mload(0x40))\n      tag_93\n      swap2\n      swap1\n      tag_26\n      jump\t// in\n    tag_93:\n      mload(0x40)\n      0x20\n      dup2\n      dup4\n      sub\n      sub\n      dup2\n      mstore\n      swap1\n      0x40\n      mstore\n        /* \"contracts/AllBridge.sol\":2405:2429  return abi.encode(input) */\n      swap1\n      pop\n        /* \"contracts/AllBridge.sol\":2315:2436  function encode(allBridgeInput memory input) public pure returns (bytes memory) {... */\n      swap2\n      swap1\n      pop\n      jump\t// out\n        /* \"@openzeppelin/contracts/access/Ownable.sol\":2081:2279  function transferOwnership(address newOwner) public virtual onlyOwner {... */\n    tag_52:\n        /* \"@openzeppelin/contracts/access/Ownable.sol\":1094:1107  _checkOwner() */\n      tag_95\n        /* \"@openzeppelin/contracts/access/Ownable.sol\":1094:1105  _checkOwner */\n      tag_56\n        /* \"@openzeppelin/contracts/access/Ownable.sol\":1094:1107  _checkOwner() */\n      jump\t// in\n    tag_95:\n        /* \"@openzeppelin/contracts/access/Ownable.sol\":2189:2190  0 */\n      0x00\n        /* \"@openzeppelin/contracts/access/Ownable.sol\":2169:2191  newOwner != address(0) */\n      0xffffffffffffffffffffffffffffffffffffffff\n      and\n        /* \"@openzeppelin/contracts/access/Ownable.sol\":2169:2177  newOwner */\n      dup2\n        /* \"@openzeppelin/contracts/access/Ownable.sol\":2169:2191  newOwner != address(0) */\n      0xffffffffffffffffffffffffffffffffffffffff\n      and\n      sub\n        /* \"@openzeppelin/contracts/access/Ownable.sol\":2161:2234  require(newOwner != address(0), \"Ownable: new owner is the zero address\") */\n      tag_97\n      jumpi\n      mload(0x40)\n      0x08c379a000000000000000000000000000000000000000000000000000000000\n      dup2\n      mstore\n      0x04\n      add\n      tag_98\n      swap1\n      tag_99\n      jump\t// in\n    tag_98:\n      mload(0x40)\n      dup1\n      swap2\n      sub\n      swap1\n      revert\n    tag_97:\n        /* \"@openzeppelin/contracts/access/Ownable.sol\":2244:2272  _transferOwnership(newOwner) */\n      tag_100\n        /* \"@openzeppelin/contracts/access/Ownable.sol\":2263:2271  newOwner */\n      dup2\n        /* \"@openzeppelin/contracts/access/Ownable.sol\":2244:2262  _transferOwnership */\n      tag_83\n        /* \"@openzeppelin/contracts/access/Ownable.sol\":2244:2272  _transferOwnership(newOwner) */\n      jump\t// in\n    tag_100:\n        /* \"@openzeppelin/contracts/access/Ownable.sol\":2081:2279  function transferOwnership(address newOwner) public virtual onlyOwner {... */\n      pop\n      jump\t// out\n        /* \"contracts/libraries/transferHelper.sol\":212:629  function safeApprove(... */\n    tag_53:\n        /* \"contracts/libraries/transferHelper.sol\":390:402  bool success */\n      0x00\n        /* \"contracts/libraries/transferHelper.sol\":404:421  bytes memory data */\n      dup1\n        /* \"contracts/libraries/transferHelper.sol\":425:430  token */\n      dup5\n        /* \"contracts/libraries/transferHelper.sol\":425:435  token.call */\n      0xffffffffffffffffffffffffffffffffffffffff\n      and\n        /* \"contracts/libraries/transferHelper.sol\":459:469  0x095ea7b3 */\n      0x095ea7b3\n        /* \"contracts/libraries/transferHelper.sol\":471:473  to */\n      dup6\n        /* \"contracts/libraries/transferHelper.sol\":475:480  value */\n      dup6\n        /* \"contracts/libraries/transferHelper.sol\":436:481  abi.encodeWithSelector(0x095ea7b3, to, value) */\n      add(0x24, mload(0x40))\n      tag_102\n      swap3\n      swap2\n      swap1\n      tag_103\n      jump\t// in\n    tag_102:\n      mload(0x40)\n      0x20\n      dup2\n      dup4\n      sub\n      sub\n      dup2\n      mstore\n      swap1\n      0x40\n      mstore\n      swap1\n      0xe0\n      shl\n      0x20\n      dup3\n      add\n      dup1\n      mload\n      0xffffffffffffffffffffffffffffffffffffffffffffffffffffffff\n      dup4\n      dup2\n      dup4\n      and\n      or\n      dup4\n      mstore\n      pop\n      pop\n      pop\n      pop\n        /* \"contracts/libraries/transferHelper.sol\":425:482  token.call(abi.encodeWithSelector(0x095ea7b3, to, value)) */\n      mload(0x40)\n      tag_104\n      swap2\n      swap1\n      tag_105\n      jump\t// in\n    tag_104:\n      0x00\n      mload(0x40)\n      dup1\n      dup4\n      sub\n      dup2\n      0x00\n      dup7\n      gas\n      call\n      swap2\n      pop\n      pop\n      returndatasize\n      dup1\n      0x00\n      dup2\n      eq\n      tag_108\n      jumpi\n      mload(0x40)\n      swap2\n      pop\n      and(add(returndatasize, 0x3f), not(0x1f))\n      dup3\n      add\n      0x40\n      mstore\n      returndatasize\n      dup3\n      mstore\n      returndatasize\n      0x00\n      0x20\n      dup5\n      add\n      returndatacopy\n      jump(tag_107)\n    tag_108:\n      0x60\n      swap2\n      pop\n    tag_107:\n      pop\n        /* \"contracts/libraries/transferHelper.sol\":389:482  (bool success, bytes memory data) = token.call(abi.encodeWithSelector(0x095ea7b3, to, value)) */\n      swap2\n      pop\n      swap2\n      pop\n        /* \"contracts/libraries/transferHelper.sol\":513:520  success */\n      dup2\n        /* \"contracts/libraries/transferHelper.sol\":513:570  success && (data.length == 0 || abi.decode(data, (bool))) */\n      dup1\n      iszero\n      tag_109\n      jumpi\n      pop\n        /* \"contracts/libraries/transferHelper.sol\":540:541  0 */\n      0x00\n        /* \"contracts/libraries/transferHelper.sol\":525:529  data */\n      dup2\n        /* \"contracts/libraries/transferHelper.sol\":525:536  data.length */\n      mload\n        /* \"contracts/libraries/transferHelper.sol\":525:541  data.length == 0 */\n      eq\n        /* \"contracts/libraries/transferHelper.sol\":525:569  data.length == 0 || abi.decode(data, (bool)) */\n      dup1\n      tag_110\n      jumpi\n      pop\n        /* \"contracts/libraries/transferHelper.sol\":556:560  data */\n      dup1\n        /* \"contracts/libraries/transferHelper.sol\":545:569  abi.decode(data, (bool)) */\n      dup1\n      0x20\n      add\n      swap1\n      mload\n      dup2\n      add\n      swap1\n      tag_111\n      swap2\n      swap1\n      tag_112\n      jump\t// in\n    tag_111:\n        /* \"contracts/libraries/transferHelper.sol\":525:569  data.length == 0 || abi.decode(data, (bool)) */\n    tag_110:\n        /* \"contracts/libraries/transferHelper.sol\":513:570  success && (data.length == 0 || abi.decode(data, (bool))) */\n    tag_109:\n        /* \"contracts/libraries/transferHelper.sol\":492:622  require(... */\n      tag_113\n      jumpi\n      mload(0x40)\n      0x08c379a000000000000000000000000000000000000000000000000000000000\n      dup2\n      mstore\n      0x04\n      add\n      tag_114\n      swap1\n      tag_115\n      jump\t// in\n    tag_114:\n      mload(0x40)\n      dup1\n      swap2\n      sub\n      swap1\n      revert\n    tag_113:\n        /* \"contracts/libraries/transferHelper.sol\":314:629  {... */\n      pop\n      pop\n        /* \"contracts/libraries/transferHelper.sol\":212:629  function safeApprove(... */\n      pop\n      pop\n      pop\n      jump\t// out\n        /* \"@openzeppelin/contracts/access/Ownable.sol\":1359:1489  function _checkOwner() internal view virtual {... */\n    tag_56:\n        /* \"@openzeppelin/contracts/access/Ownable.sol\":1433:1445  _msgSender() */\n      tag_117\n        /* \"@openzeppelin/contracts/access/Ownable.sol\":1433:1443  _msgSender */\n      tag_118\n        /* \"@openzeppelin/contracts/access/Ownable.sol\":1433:1445  _msgSender() */\n      jump\t// in\n    tag_117:\n        /* \"@openzeppelin/contracts/access/Ownable.sol\":1422:1445  owner() == _msgSender() */\n      0xffffffffffffffffffffffffffffffffffffffff\n      and\n        /* \"@openzeppelin/contracts/access/Ownable.sol\":1422:1429  owner() */\n      tag_119\n        /* \"@openzeppelin/contracts/access/Ownable.sol\":1422:1427  owner */\n      tag_32\n        /* \"@openzeppelin/contracts/access/Ownable.sol\":1422:1429  owner() */\n      jump\t// in\n    tag_119:\n        /* \"@openzeppelin/contracts/access/Ownable.sol\":1422:1445  owner() == _msgSender() */\n      0xffffffffffffffffffffffffffffffffffffffff\n      and\n      eq\n        /* \"@openzeppelin/contracts/access/Ownable.sol\":1414:1482  require(owner() == _msgSender(), \"Ownable: caller is not the owner\") */\n      tag_120\n      jumpi\n      mload(0x40)\n      0x08c379a000000000000000000000000000000000000000000000000000000000\n      dup2\n      mstore\n      0x04\n      add\n      tag_121\n      swap1\n      tag_122\n      jump\t// in\n    tag_121:\n      mload(0x40)\n      dup1\n      swap2\n      sub\n      swap1\n      revert\n    tag_120:\n        /* \"@openzeppelin/contracts/access/Ownable.sol\":1359:1489  function _checkOwner() internal view virtual {... */\n      jump\t// out\n        /* \"contracts/libraries/transferHelper.sol\":1061:1529  function safeTransferFrom(... */\n    tag_62:\n        /* \"contracts/libraries/transferHelper.sol\":1279:1291  bool success */\n      0x00\n        /* \"contracts/libraries/transferHelper.sol\":1293:1310  bytes memory data */\n      dup1\n        /* \"contracts/libraries/transferHelper.sol\":1314:1319  token */\n      dup6\n        /* \"contracts/libraries/transferHelper.sol\":1314:1324  token.call */\n      0xffffffffffffffffffffffffffffffffffffffff\n      and\n        /* \"contracts/libraries/transferHelper.sol\":1348:1358  0x23b872dd */\n      0x23b872dd\n        /* \"contracts/libraries/transferHelper.sol\":1360:1364  from */\n      dup7\n        /* \"contracts/libraries/transferHelper.sol\":1366:1368  to */\n      dup7\n        /* \"contracts/libraries/transferHelper.sol\":1370:1375  value */\n      dup7\n        /* \"contracts/libraries/transferHelper.sol\":1325:1376  abi.encodeWithSelector(0x23b872dd, from, to, value) */\n      add(0x24, mload(0x40))\n      tag_124\n      swap4\n      swap3\n      swap2\n      swap1\n      tag_125\n      jump\t// in\n    tag_124:\n      mload(0x40)\n      0x20\n      dup2\n      dup4\n      sub\n      sub\n      dup2\n      mstore\n      swap1\n      0x40\n      mstore\n      swap1\n      0xe0\n      shl\n      0x20\n      dup3\n      add\n      dup1\n      mload\n      0xffffffffffffffffffffffffffffffffffffffffffffffffffffffff\n      dup4\n      dup2\n      dup4\n      and\n      or\n      dup4\n      mstore\n      pop\n      pop\n      pop\n      pop\n        /* \"contracts/libraries/transferHelper.sol\":1314:1377  token.call(abi.encodeWithSelector(0x23b872dd, from, to, value)) */\n      mload(0x40)\n      tag_126\n      swap2\n      swap1\n      tag_105\n      jump\t// in\n    tag_126:\n      0x00\n      mload(0x40)\n      dup1\n      dup4\n      sub\n      dup2\n      0x00\n      dup7\n      gas\n      call\n      swap2\n      pop\n      pop\n      returndatasize\n      dup1\n      0x00\n      dup2\n      eq\n      tag_129\n      jumpi\n      mload(0x40)\n      swap2\n      pop\n      and(add(returndatasize, 0x3f), not(0x1f))\n      dup3\n      add\n      0x40\n      mstore\n      returndatasize\n      dup3\n      mstore\n      returndatasize\n      0x00\n      0x20\n      dup5\n      add\n      returndatacopy\n      jump(tag_128)\n    tag_129:\n      0x60\n      swap2\n      pop\n    tag_128:\n      pop\n        /* \"contracts/libraries/transferHelper.sol\":1278:1377  (bool success, bytes memory data) = token.call(abi.encodeWithSelector(0x23b872dd, from, to, value)) */\n      swap2\n      pop\n      swap2\n      pop\n        /* \"contracts/libraries/transferHelper.sol\":1408:1415  success */\n      dup2\n        /* \"contracts/libraries/transferHelper.sol\":1408:1465  success && (data.length == 0 || abi.decode(data, (bool))) */\n      dup1\n      iszero\n      tag_130\n      jumpi\n      pop\n        /* \"contracts/libraries/transferHelper.sol\":1435:1436  0 */\n      0x00\n        /* \"contracts/libraries/transferHelper.sol\":1420:1424  data */\n      dup2\n        /* \"contracts/libraries/transferHelper.sol\":1420:1431  data.length */\n      mload\n        /* \"contracts/libraries/transferHelper.sol\":1420:1436  data.length == 0 */\n      eq\n        /* \"contracts/libraries/transferHelper.sol\":1420:1464  data.length == 0 || abi.decode(data, (bool)) */\n      dup1\n      tag_131\n      jumpi\n      pop\n        /* \"contracts/libraries/transferHelper.sol\":1451:1455  data */\n      dup1\n        /* \"contracts/libraries/transferHelper.sol\":1440:1464  abi.decode(data, (bool)) */\n      dup1\n      0x20\n      add\n      swap1\n      mload\n      dup2\n      add\n      swap1\n      tag_132\n      swap2\n      swap1\n      tag_112\n      jump\t// in\n    tag_132:\n        /* \"contracts/libraries/transferHelper.sol\":1420:1464  data.length == 0 || abi.decode(data, (bool)) */\n    tag_131:\n        /* \"contracts/libraries/transferHelper.sol\":1408:1465  success && (data.length == 0 || abi.decode(data, (bool))) */\n    tag_130:\n        /* \"contracts/libraries/transferHelper.sol\":1387:1522  require(... */\n      tag_133\n      jumpi\n      mload(0x40)\n      0x08c379a000000000000000000000000000000000000000000000000000000000\n      dup2\n      mstore\n      0x04\n      add\n      tag_134\n      swap1\n      tag_135\n      jump\t// in\n    tag_134:\n      mload(0x40)\n      dup1\n      swap2\n      sub\n      swap1\n      revert\n    tag_133:\n        /* \"contracts/libraries/transferHelper.sol\":1190:1529  {... */\n      pop\n      pop\n        /* \"contracts/libraries/transferHelper.sol\":1061:1529  function safeTransferFrom(... */\n      pop\n      pop\n      pop\n      pop\n      jump\t// out\n        /* \"@openzeppelin/contracts/access/Ownable.sol\":2433:2620  function _transferOwnership(address newOwner) internal virtual {... */\n    tag_83:\n        /* \"@openzeppelin/contracts/access/Ownable.sol\":2506:2522  address oldOwner */\n      0x00\n        /* \"@openzeppelin/contracts/access/Ownable.sol\":2525:2531  _owner */\n      dup1\n      0x00\n      swap1\n      sload\n      swap1\n      0x0100\n      exp\n      swap1\n      div\n      0xffffffffffffffffffffffffffffffffffffffff\n      and\n        /* \"@openzeppelin/contracts/access/Ownable.sol\":2506:2531  address oldOwner = _owner */\n      swap1\n      pop\n        /* \"@openzeppelin/contracts/access/Ownable.sol\":2550:2558  newOwner */\n      dup2\n        /* \"@openzeppelin/contracts/access/Ownable.sol\":2541:2547  _owner */\n      0x00\n      dup1\n        /* \"@openzeppelin/contracts/access/Ownable.sol\":2541:2558  _owner = newOwner */\n      0x0100\n      exp\n      dup2\n      sload\n      dup2\n      0xffffffffffffffffffffffffffffffffffffffff\n      mul\n      not\n      and\n      swap1\n      dup4\n      0xffffffffffffffffffffffffffffffffffffffff\n      and\n      mul\n      or\n      swap1\n      sstore\n      pop\n        /* \"@openzeppelin/contracts/access/Ownable.sol\":2604:2612  newOwner */\n      dup2\n        /* \"@openzeppelin/contracts/access/Ownable.sol\":2573:2613  OwnershipTransferred(oldOwner, newOwner) */\n      0xffffffffffffffffffffffffffffffffffffffff\n      and\n        /* \"@openzeppelin/contracts/access/Ownable.sol\":2594:2602  oldOwner */\n      dup2\n        /* \"@openzeppelin/contracts/access/Ownable.sol\":2573:2613  OwnershipTransferred(oldOwner, newOwner) */\n      0xffffffffffffffffffffffffffffffffffffffff\n      and\n      0x8be0079c531659141344cd1fd0a4f28419497f9722a3daafe3b4186f6b6457e0\n      mload(0x40)\n      mload(0x40)\n      dup1\n      swap2\n      sub\n      swap1\n      log3\n        /* \"@openzeppelin/contracts/access/Ownable.sol\":2496:2620  {... */\n      pop\n        /* \"@openzeppelin/contracts/access/Ownable.sol\":2433:2620  function _transferOwnership(address newOwner) internal virtual {... */\n      pop\n      jump\t// out\n        /* \"@openzeppelin/contracts/utils/Context.sol\":640:736  function _msgSender() internal view virtual returns (address) {... */\n    tag_118:\n        /* \"@openzeppelin/contracts/utils/Context.sol\":693:700  address */\n      0x00\n        /* \"@openzeppelin/contracts/utils/Context.sol\":719:729  msg.sender */\n      caller\n        /* \"@openzeppelin/contracts/utils/Context.sol\":712:729  return msg.sender */\n      swap1\n      pop\n        /* \"@openzeppelin/contracts/utils/Context.sol\":640:736  function _msgSender() internal view virtual returns (address) {... */\n      swap1\n      jump\t// out\n    tag_69:\n      mload(0x40)\n      dup1\n      0x0100\n      add\n      0x40\n      mstore\n      dup1\n      and(0xffffffffffffffffffffffffffffffffffffffff, 0x00)\n      dup2\n      mstore\n      0x20\n      add\n      0x00\n      dup1\n      not\n      and\n      dup2\n      mstore\n      0x20\n      add\n      0x00\n      dup1\n      not\n      and\n      dup2\n      mstore\n      0x20\n      add\n      0x00\n      dup2\n      mstore\n      0x20\n      add\n      0x00\n      dup1\n      not\n      and\n      dup2\n      mstore\n      0x20\n      add\n      0x00\n      dup2\n      mstore\n      0x20\n      add\n      0x00\n      0x03\n      dup2\n      gt\n      iszero\n      tag_138\n      jumpi\n      tag_139\n      tag_76\n      jump\t// in\n    tag_139:\n    tag_138:\n      dup2\n      mstore\n      0x20\n      add\n      0x00\n      dup2\n      mstore\n      pop\n      swap1\n      jump\t// out\n        /* \"#utility.yul\":7:82   */\n    tag_140:\n        /* \"#utility.yul\":40:46   */\n      0x00\n        /* \"#utility.yul\":73:75   */\n      0x40\n        /* \"#utility.yul\":67:76   */\n      mload\n        /* \"#utility.yul\":57:76   */\n      swap1\n      pop\n        /* \"#utility.yul\":7:82   */\n      swap1\n      jump\t// out\n        /* \"#utility.yul\":88:205   */\n    tag_141:\n        /* \"#utility.yul\":197:198   */\n      0x00\n        /* \"#utility.yul\":194:195   */\n      dup1\n        /* \"#utility.yul\":187:199   */\n      revert\n        /* \"#utility.yul\":211:328   */\n    tag_142:\n        /* \"#utility.yul\":320:321   */\n      0x00\n        /* \"#utility.yul\":317:318   */\n      dup1\n        /* \"#utility.yul\":310:322   */\n      revert\n        /* \"#utility.yul\":334:460   */\n    tag_143:\n        /* \"#utility.yul\":371:378   */\n      0x00\n        /* \"#utility.yul\":411:453   */\n      0xffffffffffffffffffffffffffffffffffffffff\n        /* \"#utility.yul\":404:409   */\n      dup3\n        /* \"#utility.yul\":400:454   */\n      and\n        /* \"#utility.yul\":389:454   */\n      swap1\n      pop\n        /* \"#utility.yul\":334:460   */\n      swap2\n      swap1\n      pop\n      jump\t// out\n        /* \"#utility.yul\":466:562   */\n    tag_144:\n        /* \"#utility.yul\":503:510   */\n      0x00\n        /* \"#utility.yul\":532:556   */\n      tag_206\n        /* \"#utility.yul\":550:555   */\n      dup3\n        /* \"#utility.yul\":532:556   */\n      tag_143\n      jump\t// in\n    tag_206:\n        /* \"#utility.yul\":521:556   */\n      swap1\n      pop\n        /* \"#utility.yul\":466:562   */\n      swap2\n      swap1\n      pop\n      jump\t// out\n        /* \"#utility.yul\":568:690   */\n    tag_145:\n        /* \"#utility.yul\":641:665   */\n      tag_208\n        /* \"#utility.yul\":659:664   */\n      dup2\n        /* \"#utility.yul\":641:665   */\n      tag_144\n      jump\t// in\n    tag_208:\n        /* \"#utility.yul\":634:639   */\n      dup2\n        /* \"#utility.yul\":631:666   */\n      eq\n        /* \"#utility.yul\":621:684   */\n      tag_209\n      jumpi\n        /* \"#utility.yul\":680:681   */\n      0x00\n        /* \"#utility.yul\":677:678   */\n      dup1\n        /* \"#utility.yul\":670:682   */\n      revert\n        /* \"#utility.yul\":621:684   */\n    tag_209:\n        /* \"#utility.yul\":568:690   */\n      pop\n      jump\t// out\n        /* \"#utility.yul\":696:835   */\n    tag_146:\n        /* \"#utility.yul\":742:747   */\n      0x00\n        /* \"#utility.yul\":780:786   */\n      dup2\n        /* \"#utility.yul\":767:787   */\n      calldataload\n        /* \"#utility.yul\":758:787   */\n      swap1\n      pop\n        /* \"#utility.yul\":796:829   */\n      tag_211\n        /* \"#utility.yul\":823:828   */\n      dup2\n        /* \"#utility.yul\":796:829   */\n      tag_145\n      jump\t// in\n    tag_211:\n        /* \"#utility.yul\":696:835   */\n      swap3\n      swap2\n      pop\n      pop\n      jump\t// out\n        /* \"#utility.yul\":841:1315   */\n    tag_14:\n        /* \"#utility.yul\":909:915   */\n      0x00\n        /* \"#utility.yul\":917:923   */\n      dup1\n        /* \"#utility.yul\":966:968   */\n      0x40\n        /* \"#utility.yul\":954:963   */\n      dup4\n        /* \"#utility.yul\":945:952   */\n      dup6\n        /* \"#utility.yul\":941:964   */\n      sub\n        /* \"#utility.yul\":937:969   */\n      slt\n        /* \"#utility.yul\":934:1053   */\n      iszero\n      tag_213\n      jumpi\n        /* \"#utility.yul\":972:1051   */\n      tag_214\n      tag_141\n      jump\t// in\n    tag_214:\n        /* \"#utility.yul\":934:1053   */\n    tag_213:\n        /* \"#utility.yul\":1092:1093   */\n      0x00\n        /* \"#utility.yul\":1117:1170   */\n      tag_215\n        /* \"#utility.yul\":1162:1169   */\n      dup6\n        /* \"#utility.yul\":1153:1159   */\n      dup3\n        /* \"#utility.yul\":1142:1151   */\n      dup7\n        /* \"#utility.yul\":1138:1160   */\n      add\n        /* \"#utility.yul\":1117:1170   */\n      tag_146\n      jump\t// in\n    tag_215:\n        /* \"#utility.yul\":1107:1170   */\n      swap3\n      pop\n        /* \"#utility.yul\":1063:1180   */\n      pop\n        /* \"#utility.yul\":1219:1221   */\n      0x20\n        /* \"#utility.yul\":1245:1298   */\n      tag_216\n        /* \"#utility.yul\":1290:1297   */\n      dup6\n        /* \"#utility.yul\":1281:1287   */\n      dup3\n        /* \"#utility.yul\":1270:1279   */\n      dup7\n        /* \"#utility.yul\":1266:1288   */\n      add\n        /* \"#utility.yul\":1245:1298   */\n      tag_146\n      jump\t// in\n    tag_216:\n        /* \"#utility.yul\":1235:1298   */\n      swap2\n      pop\n        /* \"#utility.yul\":1190:1308   */\n      pop\n        /* \"#utility.yul\":841:1315   */\n      swap3\n      pop\n      swap3\n      swap1\n      pop\n      jump\t// out\n        /* \"#utility.yul\":1321:1438   */\n    tag_147:\n        /* \"#utility.yul\":1430:1431   */\n      0x00\n        /* \"#utility.yul\":1427:1428   */\n      dup1\n        /* \"#utility.yul\":1420:1432   */\n      revert\n        /* \"#utility.yul\":1444:1561   */\n    tag_148:\n        /* \"#utility.yul\":1553:1554   */\n      0x00\n        /* \"#utility.yul\":1550:1551   */\n      dup1\n        /* \"#utility.yul\":1543:1555   */\n      revert\n        /* \"#utility.yul\":1567:1684   */\n    tag_149:\n        /* \"#utility.yul\":1676:1677   */\n      0x00\n        /* \"#utility.yul\":1673:1674   */\n      dup1\n        /* \"#utility.yul\":1666:1678   */\n      revert\n        /* \"#utility.yul\":1703:2255   */\n    tag_150:\n        /* \"#utility.yul\":1760:1768   */\n      0x00\n        /* \"#utility.yul\":1770:1776   */\n      dup1\n        /* \"#utility.yul\":1820:1823   */\n      dup4\n        /* \"#utility.yul\":1813:1817   */\n      0x1f\n        /* \"#utility.yul\":1805:1811   */\n      dup5\n        /* \"#utility.yul\":1801:1818   */\n      add\n        /* \"#utility.yul\":1797:1824   */\n      slt\n        /* \"#utility.yul\":1787:1909   */\n      tag_221\n      jumpi\n        /* \"#utility.yul\":1828:1907   */\n      tag_222\n      tag_147\n      jump\t// in\n    tag_222:\n        /* \"#utility.yul\":1787:1909   */\n    tag_221:\n        /* \"#utility.yul\":1941:1947   */\n      dup3\n        /* \"#utility.yul\":1928:1948   */\n      calldataload\n        /* \"#utility.yul\":1918:1948   */\n      swap1\n      pop\n        /* \"#utility.yul\":1971:1989   */\n      0xffffffffffffffff\n        /* \"#utility.yul\":1963:1969   */\n      dup2\n        /* \"#utility.yul\":1960:1990   */\n      gt\n        /* \"#utility.yul\":1957:2074   */\n      iszero\n      tag_223\n      jumpi\n        /* \"#utility.yul\":1993:2072   */\n      tag_224\n      tag_148\n      jump\t// in\n    tag_224:\n        /* \"#utility.yul\":1957:2074   */\n    tag_223:\n        /* \"#utility.yul\":2107:2111   */\n      0x20\n        /* \"#utility.yul\":2099:2105   */\n      dup4\n        /* \"#utility.yul\":2095:2112   */\n      add\n        /* \"#utility.yul\":2083:2112   */\n      swap2\n      pop\n        /* \"#utility.yul\":2161:2164   */\n      dup4\n        /* \"#utility.yul\":2153:2157   */\n      0x01\n        /* \"#utility.yul\":2145:2151   */\n      dup3\n        /* \"#utility.yul\":2141:2158   */\n      mul\n        /* \"#utility.yul\":2131:2139   */\n      dup4\n        /* \"#utility.yul\":2127:2159   */\n      add\n        /* \"#utility.yul\":2124:2165   */\n      gt\n        /* \"#utility.yul\":2121:2249   */\n      iszero\n      tag_225\n      jumpi\n        /* \"#utility.yul\":2168:2247   */\n      tag_226\n      tag_149\n      jump\t// in\n    tag_226:\n        /* \"#utility.yul\":2121:2249   */\n    tag_225:\n        /* \"#utility.yul\":1703:2255   */\n      swap3\n      pop\n      swap3\n      swap1\n      pop\n      jump\t// out\n        /* \"#utility.yul\":2261:2338   */\n    tag_151:\n        /* \"#utility.yul\":2298:2305   */\n      0x00\n        /* \"#utility.yul\":2327:2332   */\n      dup2\n        /* \"#utility.yul\":2316:2332   */\n      swap1\n      pop\n        /* \"#utility.yul\":2261:2338   */\n      swap2\n      swap1\n      pop\n      jump\t// out\n        /* \"#utility.yul\":2344:2466   */\n    tag_152:\n        /* \"#utility.yul\":2417:2441   */\n      tag_229\n        /* \"#utility.yul\":2435:2440   */\n      dup2\n        /* \"#utility.yul\":2417:2441   */\n      tag_151\n      jump\t// in\n    tag_229:\n        /* \"#utility.yul\":2410:2415   */\n      dup2\n        /* \"#utility.yul\":2407:2442   */\n      eq\n        /* \"#utility.yul\":2397:2460   */\n      tag_230\n      jumpi\n        /* \"#utility.yul\":2456:2457   */\n      0x00\n        /* \"#utility.yul\":2453:2454   */\n      dup1\n        /* \"#utility.yul\":2446:2458   */\n      revert\n        /* \"#utility.yul\":2397:2460   */\n    tag_230:\n        /* \"#utility.yul\":2344:2466   */\n      pop\n      jump\t// out\n        /* \"#utility.yul\":2472:2611   */\n    tag_153:\n        /* \"#utility.yul\":2518:2523   */\n      0x00\n        /* \"#utility.yul\":2556:2562   */\n      dup2\n        /* \"#utility.yul\":2543:2563   */\n      calldataload\n        /* \"#utility.yul\":2534:2563   */\n      swap1\n      pop\n        /* \"#utility.yul\":2572:2605   */\n      tag_232\n        /* \"#utility.yul\":2599:2604   */\n      dup2\n        /* \"#utility.yul\":2572:2605   */\n      tag_152\n      jump\t// in\n    tag_232:\n        /* \"#utility.yul\":2472:2611   */\n      swap3\n      swap2\n      pop\n      pop\n      jump\t// out\n        /* \"#utility.yul\":2617:3289   */\n    tag_18:\n        /* \"#utility.yul\":2696:2702   */\n      0x00\n        /* \"#utility.yul\":2704:2710   */\n      dup1\n        /* \"#utility.yul\":2712:2718   */\n      0x00\n        /* \"#utility.yul\":2761:2763   */\n      0x40\n        /* \"#utility.yul\":2749:2758   */\n      dup5\n        /* \"#utility.yul\":2740:2747   */\n      dup7\n        /* \"#utility.yul\":2736:2759   */\n      sub\n        /* \"#utility.yul\":2732:2764   */\n      slt\n        /* \"#utility.yul\":2729:2848   */\n      iszero\n      tag_234\n      jumpi\n        /* \"#utility.yul\":2767:2846   */\n      tag_235\n      tag_141\n      jump\t// in\n    tag_235:\n        /* \"#utility.yul\":2729:2848   */\n    tag_234:\n        /* \"#utility.yul\":2915:2916   */\n      0x00\n        /* \"#utility.yul\":2904:2913   */\n      dup5\n        /* \"#utility.yul\":2900:2917   */\n      add\n        /* \"#utility.yul\":2887:2918   */\n      calldataload\n        /* \"#utility.yul\":2945:2963   */\n      0xffffffffffffffff\n        /* \"#utility.yul\":2937:2943   */\n      dup2\n        /* \"#utility.yul\":2934:2964   */\n      gt\n        /* \"#utility.yul\":2931:3048   */\n      iszero\n      tag_236\n      jumpi\n        /* \"#utility.yul\":2967:3046   */\n      tag_237\n      tag_142\n      jump\t// in\n    tag_237:\n        /* \"#utility.yul\":2931:3048   */\n    tag_236:\n        /* \"#utility.yul\":3080:3144   */\n      tag_238\n        /* \"#utility.yul\":3136:3143   */\n      dup7\n        /* \"#utility.yul\":3127:3133   */\n      dup3\n        /* \"#utility.yul\":3116:3125   */\n      dup8\n        /* \"#utility.yul\":3112:3134   */\n      add\n        /* \"#utility.yul\":3080:3144   */\n      tag_150\n      jump\t// in\n    tag_238:\n        /* \"#utility.yul\":3062:3144   */\n      swap4\n      pop\n      swap4\n      pop\n        /* \"#utility.yul\":2858:3154   */\n      pop\n        /* \"#utility.yul\":3193:3195   */\n      0x20\n        /* \"#utility.yul\":3219:3272   */\n      tag_239\n        /* \"#utility.yul\":3264:3271   */\n      dup7\n        /* \"#utility.yul\":3255:3261   */\n      dup3\n        /* \"#utility.yul\":3244:3253   */\n      dup8\n        /* \"#utility.yul\":3240:3262   */\n      add\n        /* \"#utility.yul\":3219:3272   */\n      tag_153\n      jump\t// in\n    tag_239:\n        /* \"#utility.yul\":3209:3272   */\n      swap2\n      pop\n        /* \"#utility.yul\":3164:3282   */\n      pop\n        /* \"#utility.yul\":2617:3289   */\n      swap3\n      pop\n      swap3\n      pop\n      swap3\n      jump\t// out\n        /* \"#utility.yul\":3295:3822   */\n    tag_23:\n        /* \"#utility.yul\":3365:3371   */\n      0x00\n        /* \"#utility.yul\":3373:3379   */\n      dup1\n        /* \"#utility.yul\":3422:3424   */\n      0x20\n        /* \"#utility.yul\":3410:3419   */\n      dup4\n        /* \"#utility.yul\":3401:3408   */\n      dup6\n        /* \"#utility.yul\":3397:3420   */\n      sub\n        /* \"#utility.yul\":3393:3425   */\n      slt\n        /* \"#utility.yul\":3390:3509   */\n      iszero\n      tag_241\n      jumpi\n        /* \"#utility.yul\":3428:3507   */\n      tag_242\n      tag_141\n      jump\t// in\n    tag_242:\n        /* \"#utility.yul\":3390:3509   */\n    tag_241:\n        /* \"#utility.yul\":3576:3577   */\n      0x00\n        /* \"#utility.yul\":3565:3574   */\n      dup4\n        /* \"#utility.yul\":3561:3578   */\n      add\n        /* \"#utility.yul\":3548:3579   */\n      calldataload\n        /* \"#utility.yul\":3606:3624   */\n      0xffffffffffffffff\n        /* \"#utility.yul\":3598:3604   */\n      dup2\n        /* \"#utility.yul\":3595:3625   */\n      gt\n        /* \"#utility.yul\":3592:3709   */\n      iszero\n      tag_243\n      jumpi\n        /* \"#utility.yul\":3628:3707   */\n      tag_244\n      tag_142\n      jump\t// in\n    tag_244:\n        /* \"#utility.yul\":3592:3709   */\n    tag_243:\n        /* \"#utility.yul\":3741:3805   */\n      tag_245\n        /* \"#utility.yul\":3797:3804   */\n      dup6\n        /* \"#utility.yul\":3788:3794   */\n      dup3\n        /* \"#utility.yul\":3777:3786   */\n      dup7\n        /* \"#utility.yul\":3773:3795   */\n      add\n        /* \"#utility.yul\":3741:3805   */\n      tag_150\n      jump\t// in\n    tag_245:\n        /* \"#utility.yul\":3723:3805   */\n      swap3\n      pop\n      swap3\n      pop\n        /* \"#utility.yul\":3519:3815   */\n      pop\n        /* \"#utility.yul\":3295:3822   */\n      swap3\n      pop\n      swap3\n      swap1\n      pop\n      jump\t// out\n        /* \"#utility.yul\":3828:3936   */\n    tag_154:\n        /* \"#utility.yul\":3905:3929   */\n      tag_247\n        /* \"#utility.yul\":3923:3928   */\n      dup2\n        /* \"#utility.yul\":3905:3929   */\n      tag_144\n      jump\t// in\n    tag_247:\n        /* \"#utility.yul\":3900:3903   */\n      dup3\n        /* \"#utility.yul\":3893:3930   */\n      mstore\n        /* \"#utility.yul\":3828:3936   */\n      pop\n      pop\n      jump\t// out\n        /* \"#utility.yul\":3942:4019   */\n    tag_155:\n        /* \"#utility.yul\":3979:3986   */\n      0x00\n        /* \"#utility.yul\":4008:4013   */\n      dup2\n        /* \"#utility.yul\":3997:4013   */\n      swap1\n      pop\n        /* \"#utility.yul\":3942:4019   */\n      swap2\n      swap1\n      pop\n      jump\t// out\n        /* \"#utility.yul\":4025:4133   */\n    tag_156:\n        /* \"#utility.yul\":4102:4126   */\n      tag_250\n        /* \"#utility.yul\":4120:4125   */\n      dup2\n        /* \"#utility.yul\":4102:4126   */\n      tag_155\n      jump\t// in\n    tag_250:\n        /* \"#utility.yul\":4097:4100   */\n      dup3\n        /* \"#utility.yul\":4090:4127   */\n      mstore\n        /* \"#utility.yul\":4025:4133   */\n      pop\n      pop\n      jump\t// out\n        /* \"#utility.yul\":4139:4247   */\n    tag_157:\n        /* \"#utility.yul\":4216:4240   */\n      tag_252\n        /* \"#utility.yul\":4234:4239   */\n      dup2\n        /* \"#utility.yul\":4216:4240   */\n      tag_151\n      jump\t// in\n    tag_252:\n        /* \"#utility.yul\":4211:4214   */\n      dup3\n        /* \"#utility.yul\":4204:4241   */\n      mstore\n        /* \"#utility.yul\":4139:4247   */\n      pop\n      pop\n      jump\t// out\n        /* \"#utility.yul\":4253:4433   */\n    tag_76:\n        /* \"#utility.yul\":4301:4378   */\n      0x4e487b7100000000000000000000000000000000000000000000000000000000\n        /* \"#utility.yul\":4298:4299   */\n      0x00\n        /* \"#utility.yul\":4291:4379   */\n      mstore\n        /* \"#utility.yul\":4398:4402   */\n      0x21\n        /* \"#utility.yul\":4395:4396   */\n      0x04\n        /* \"#utility.yul\":4388:4403   */\n      mstore\n        /* \"#utility.yul\":4422:4426   */\n      0x24\n        /* \"#utility.yul\":4419:4420   */\n      0x00\n        /* \"#utility.yul\":4412:4427   */\n      revert\n        /* \"#utility.yul\":4439:4565   */\n    tag_158:\n        /* \"#utility.yul\":4533:4534   */\n      0x04\n        /* \"#utility.yul\":4526:4531   */\n      dup2\n        /* \"#utility.yul\":4523:4535   */\n      lt\n        /* \"#utility.yul\":4513:4559   */\n      tag_255\n      jumpi\n        /* \"#utility.yul\":4539:4557   */\n      tag_256\n      tag_76\n      jump\t// in\n    tag_256:\n        /* \"#utility.yul\":4513:4559   */\n    tag_255:\n        /* \"#utility.yul\":4439:4565   */\n      pop\n      jump\t// out\n        /* \"#utility.yul\":4571:4724   */\n    tag_159:\n        /* \"#utility.yul\":4629:4636   */\n      0x00\n        /* \"#utility.yul\":4658:4663   */\n      dup2\n        /* \"#utility.yul\":4647:4663   */\n      swap1\n      pop\n        /* \"#utility.yul\":4664:4718   */\n      tag_258\n        /* \"#utility.yul\":4712:4717   */\n      dup3\n        /* \"#utility.yul\":4664:4718   */\n      tag_158\n      jump\t// in\n    tag_258:\n        /* \"#utility.yul\":4571:4724   */\n      swap2\n      swap1\n      pop\n      jump\t// out\n        /* \"#utility.yul\":4730:4883   */\n    tag_160:\n        /* \"#utility.yul\":4799:4808   */\n      0x00\n        /* \"#utility.yul\":4832:4877   */\n      tag_260\n        /* \"#utility.yul\":4871:4876   */\n      dup3\n        /* \"#utility.yul\":4832:4877   */\n      tag_159\n      jump\t// in\n    tag_260:\n        /* \"#utility.yul\":4819:4877   */\n      swap1\n      pop\n        /* \"#utility.yul\":4730:4883   */\n      swap2\n      swap1\n      pop\n      jump\t// out\n        /* \"#utility.yul\":4889:5048   */\n    tag_161:\n        /* \"#utility.yul\":4985:5041   */\n      tag_262\n        /* \"#utility.yul\":5035:5040   */\n      dup2\n        /* \"#utility.yul\":4985:5041   */\n      tag_160\n      jump\t// in\n    tag_262:\n        /* \"#utility.yul\":4980:4983   */\n      dup3\n        /* \"#utility.yul\":4973:5042   */\n      mstore\n        /* \"#utility.yul\":4889:5048   */\n      pop\n      pop\n      jump\t// out\n        /* \"#utility.yul\":5128:6772   */\n    tag_162:\n        /* \"#utility.yul\":5287:5293   */\n      0x0100\n        /* \"#utility.yul\":5282:5285   */\n      dup3\n        /* \"#utility.yul\":5278:5294   */\n      add\n        /* \"#utility.yul\":5378:5382   */\n      0x00\n        /* \"#utility.yul\":5371:5376   */\n      dup3\n        /* \"#utility.yul\":5367:5383   */\n      add\n        /* \"#utility.yul\":5361:5384   */\n      mload\n        /* \"#utility.yul\":5397:5460   */\n      tag_264\n        /* \"#utility.yul\":5454:5458   */\n      0x00\n        /* \"#utility.yul\":5449:5452   */\n      dup6\n        /* \"#utility.yul\":5445:5459   */\n      add\n        /* \"#utility.yul\":5431:5443   */\n      dup3\n        /* \"#utility.yul\":5397:5460   */\n      tag_154\n      jump\t// in\n    tag_264:\n        /* \"#utility.yul\":5304:5470   */\n      pop\n        /* \"#utility.yul\":5560:5564   */\n      0x20\n        /* \"#utility.yul\":5553:5558   */\n      dup3\n        /* \"#utility.yul\":5549:5565   */\n      add\n        /* \"#utility.yul\":5543:5566   */\n      mload\n        /* \"#utility.yul\":5579:5642   */\n      tag_265\n        /* \"#utility.yul\":5636:5640   */\n      0x20\n        /* \"#utility.yul\":5631:5634   */\n      dup6\n        /* \"#utility.yul\":5627:5641   */\n      add\n        /* \"#utility.yul\":5613:5625   */\n      dup3\n        /* \"#utility.yul\":5579:5642   */\n      tag_156\n      jump\t// in\n    tag_265:\n        /* \"#utility.yul\":5480:5652   */\n      pop\n        /* \"#utility.yul\":5739:5743   */\n      0x40\n        /* \"#utility.yul\":5732:5737   */\n      dup3\n        /* \"#utility.yul\":5728:5744   */\n      add\n        /* \"#utility.yul\":5722:5745   */\n      mload\n        /* \"#utility.yul\":5758:5821   */\n      tag_266\n        /* \"#utility.yul\":5815:5819   */\n      0x40\n        /* \"#utility.yul\":5810:5813   */\n      dup6\n        /* \"#utility.yul\":5806:5820   */\n      add\n        /* \"#utility.yul\":5792:5804   */\n      dup3\n        /* \"#utility.yul\":5758:5821   */\n      tag_156\n      jump\t// in\n    tag_266:\n        /* \"#utility.yul\":5662:5831   */\n      pop\n        /* \"#utility.yul\":5927:5931   */\n      0x60\n        /* \"#utility.yul\":5920:5925   */\n      dup3\n        /* \"#utility.yul\":5916:5932   */\n      add\n        /* \"#utility.yul\":5910:5933   */\n      mload\n        /* \"#utility.yul\":5946:6009   */\n      tag_267\n        /* \"#utility.yul\":6003:6007   */\n      0x60\n        /* \"#utility.yul\":5998:6001   */\n      dup6\n        /* \"#utility.yul\":5994:6008   */\n      add\n        /* \"#utility.yul\":5980:5992   */\n      dup3\n        /* \"#utility.yul\":5946:6009   */\n      tag_157\n      jump\t// in\n    tag_267:\n        /* \"#utility.yul\":5841:6019   */\n      pop\n        /* \"#utility.yul\":6116:6120   */\n      0x80\n        /* \"#utility.yul\":6109:6114   */\n      dup3\n        /* \"#utility.yul\":6105:6121   */\n      add\n        /* \"#utility.yul\":6099:6122   */\n      mload\n        /* \"#utility.yul\":6135:6198   */\n      tag_268\n        /* \"#utility.yul\":6192:6196   */\n      0x80\n        /* \"#utility.yul\":6187:6190   */\n      dup6\n        /* \"#utility.yul\":6183:6197   */\n      add\n        /* \"#utility.yul\":6169:6181   */\n      dup3\n        /* \"#utility.yul\":6135:6198   */\n      tag_156\n      jump\t// in\n    tag_268:\n        /* \"#utility.yul\":6029:6208   */\n      pop\n        /* \"#utility.yul\":6291:6295   */\n      0xa0\n        /* \"#utility.yul\":6284:6289   */\n      dup3\n        /* \"#utility.yul\":6280:6296   */\n      add\n        /* \"#utility.yul\":6274:6297   */\n      mload\n        /* \"#utility.yul\":6310:6373   */\n      tag_269\n        /* \"#utility.yul\":6367:6371   */\n      0xa0\n        /* \"#utility.yul\":6362:6365   */\n      dup6\n        /* \"#utility.yul\":6358:6372   */\n      add\n        /* \"#utility.yul\":6344:6356   */\n      dup3\n        /* \"#utility.yul\":6310:6373   */\n      tag_157\n      jump\t// in\n    tag_269:\n        /* \"#utility.yul\":6218:6383   */\n      pop\n        /* \"#utility.yul\":6470:6474   */\n      0xc0\n        /* \"#utility.yul\":6463:6468   */\n      dup3\n        /* \"#utility.yul\":6459:6475   */\n      add\n        /* \"#utility.yul\":6453:6476   */\n      mload\n        /* \"#utility.yul\":6489:6571   */\n      tag_270\n        /* \"#utility.yul\":6565:6569   */\n      0xc0\n        /* \"#utility.yul\":6560:6563   */\n      dup6\n        /* \"#utility.yul\":6556:6570   */\n      add\n        /* \"#utility.yul\":6542:6554   */\n      dup3\n        /* \"#utility.yul\":6489:6571   */\n      tag_161\n      jump\t// in\n    tag_270:\n        /* \"#utility.yul\":6393:6581   */\n      pop\n        /* \"#utility.yul\":6673:6677   */\n      0xe0\n        /* \"#utility.yul\":6666:6671   */\n      dup3\n        /* \"#utility.yul\":6662:6678   */\n      add\n        /* \"#utility.yul\":6656:6679   */\n      mload\n        /* \"#utility.yul\":6692:6755   */\n      tag_271\n        /* \"#utility.yul\":6749:6753   */\n      0xe0\n        /* \"#utility.yul\":6744:6747   */\n      dup6\n        /* \"#utility.yul\":6740:6754   */\n      add\n        /* \"#utility.yul\":6726:6738   */\n      dup3\n        /* \"#utility.yul\":6692:6755   */\n      tag_157\n      jump\t// in\n    tag_271:\n        /* \"#utility.yul\":6591:6765   */\n      pop\n        /* \"#utility.yul\":5256:6772   */\n      pop\n        /* \"#utility.yul\":5128:6772   */\n      pop\n      pop\n      jump\t// out\n        /* \"#utility.yul\":6778:7125   */\n    tag_26:\n        /* \"#utility.yul\":6933:6937   */\n      0x00\n        /* \"#utility.yul\":6971:6974   */\n      0x0100\n        /* \"#utility.yul\":6960:6969   */\n      dup3\n        /* \"#utility.yul\":6956:6975   */\n      add\n        /* \"#utility.yul\":6948:6975   */\n      swap1\n      pop\n        /* \"#utility.yul\":6985:7118   */\n      tag_273\n        /* \"#utility.yul\":7115:7116   */\n      0x00\n        /* \"#utility.yul\":7104:7113   */\n      dup4\n        /* \"#utility.yul\":7100:7117   */\n      add\n        /* \"#utility.yul\":7091:7097   */\n      dup5\n        /* \"#utility.yul\":6985:7118   */\n      tag_162\n      jump\t// in\n    tag_273:\n        /* \"#utility.yul\":6778:7125   */\n      swap3\n      swap2\n      pop\n      pop\n      jump\t// out\n        /* \"#utility.yul\":7131:7249   */\n    tag_163:\n        /* \"#utility.yul\":7218:7242   */\n      tag_275\n        /* \"#utility.yul\":7236:7241   */\n      dup2\n        /* \"#utility.yul\":7218:7242   */\n      tag_144\n      jump\t// in\n    tag_275:\n        /* \"#utility.yul\":7213:7216   */\n      dup3\n        /* \"#utility.yul\":7206:7243   */\n      mstore\n        /* \"#utility.yul\":7131:7249   */\n      pop\n      pop\n      jump\t// out\n        /* \"#utility.yul\":7255:7477   */\n    tag_34:\n        /* \"#utility.yul\":7348:7352   */\n      0x00\n        /* \"#utility.yul\":7386:7388   */\n      0x20\n        /* \"#utility.yul\":7375:7384   */\n      dup3\n        /* \"#utility.yul\":7371:7389   */\n      add\n        /* \"#utility.yul\":7363:7389   */\n      swap1\n      pop\n        /* \"#utility.yul\":7399:7470   */\n      tag_277\n        /* \"#utility.yul\":7467:7468   */\n      0x00\n        /* \"#utility.yul\":7456:7465   */\n      dup4\n        /* \"#utility.yul\":7452:7469   */\n      add\n        /* \"#utility.yul\":7443:7449   */\n      dup5\n        /* \"#utility.yul\":7399:7470   */\n      tag_163\n      jump\t// in\n    tag_277:\n        /* \"#utility.yul\":7255:7477   */\n      swap3\n      swap2\n      pop\n      pop\n      jump\t// out\n        /* \"#utility.yul\":7483:7601   */\n    tag_164:\n        /* \"#utility.yul\":7570:7594   */\n      tag_279\n        /* \"#utility.yul\":7588:7593   */\n      dup2\n        /* \"#utility.yul\":7570:7594   */\n      tag_151\n      jump\t// in\n    tag_279:\n        /* \"#utility.yul\":7565:7568   */\n      dup3\n        /* \"#utility.yul\":7558:7595   */\n      mstore\n        /* \"#utility.yul\":7483:7601   */\n      pop\n      pop\n      jump\t// out\n        /* \"#utility.yul\":7607:7829   */\n    tag_40:\n        /* \"#utility.yul\":7700:7704   */\n      0x00\n        /* \"#utility.yul\":7738:7740   */\n      0x20\n        /* \"#utility.yul\":7727:7736   */\n      dup3\n        /* \"#utility.yul\":7723:7741   */\n      add\n        /* \"#utility.yul\":7715:7741   */\n      swap1\n      pop\n        /* \"#utility.yul\":7751:7822   */\n      tag_281\n        /* \"#utility.yul\":7819:7820   */\n      0x00\n        /* \"#utility.yul\":7808:7817   */\n      dup4\n        /* \"#utility.yul\":7804:7821   */\n      add\n        /* \"#utility.yul\":7795:7801   */\n      dup5\n        /* \"#utility.yul\":7751:7822   */\n      tag_164\n      jump\t// in\n    tag_281:\n        /* \"#utility.yul\":7607:7829   */\n      swap3\n      swap2\n      pop\n      pop\n      jump\t// out\n        /* \"#utility.yul\":7835:7952   */\n    tag_165:\n        /* \"#utility.yul\":7944:7945   */\n      0x00\n        /* \"#utility.yul\":7941:7942   */\n      dup1\n        /* \"#utility.yul\":7934:7946   */\n      revert\n        /* \"#utility.yul\":7958:8060   */\n    tag_166:\n        /* \"#utility.yul\":7999:8005   */\n      0x00\n        /* \"#utility.yul\":8050:8052   */\n      0x1f\n        /* \"#utility.yul\":8046:8053   */\n      not\n        /* \"#utility.yul\":8041:8043   */\n      0x1f\n        /* \"#utility.yul\":8034:8039   */\n      dup4\n        /* \"#utility.yul\":8030:8044   */\n      add\n        /* \"#utility.yul\":8026:8054   */\n      and\n        /* \"#utility.yul\":8016:8054   */\n      swap1\n      pop\n        /* \"#utility.yul\":7958:8060   */\n      swap2\n      swap1\n      pop\n      jump\t// out\n        /* \"#utility.yul\":8066:8246   */\n    tag_167:\n        /* \"#utility.yul\":8114:8191   */\n      0x4e487b7100000000000000000000000000000000000000000000000000000000\n        /* \"#utility.yul\":8111:8112   */\n      0x00\n        /* \"#utility.yul\":8104:8192   */\n      mstore\n        /* \"#utility.yul\":8211:8215   */\n      0x41\n        /* \"#utility.yul\":8208:8209   */\n      0x04\n        /* \"#utility.yul\":8201:8216   */\n      mstore\n        /* \"#utility.yul\":8235:8239   */\n      0x24\n        /* \"#utility.yul\":8232:8233   */\n      0x00\n        /* \"#utility.yul\":8225:8240   */\n      revert\n        /* \"#utility.yul\":8252:8533   */\n    tag_168:\n        /* \"#utility.yul\":8335:8362   */\n      tag_286\n        /* \"#utility.yul\":8357:8361   */\n      dup3\n        /* \"#utility.yul\":8335:8362   */\n      tag_166\n      jump\t// in\n    tag_286:\n        /* \"#utility.yul\":8327:8333   */\n      dup2\n        /* \"#utility.yul\":8323:8363   */\n      add\n        /* \"#utility.yul\":8465:8471   */\n      dup2\n        /* \"#utility.yul\":8453:8463   */\n      dup2\n        /* \"#utility.yul\":8450:8472   */\n      lt\n        /* \"#utility.yul\":8429:8447   */\n      0xffffffffffffffff\n        /* \"#utility.yul\":8417:8427   */\n      dup3\n        /* \"#utility.yul\":8414:8448   */\n      gt\n        /* \"#utility.yul\":8411:8473   */\n      or\n        /* \"#utility.yul\":8408:8496   */\n      iszero\n      tag_287\n      jumpi\n        /* \"#utility.yul\":8476:8494   */\n      tag_288\n      tag_167\n      jump\t// in\n    tag_288:\n        /* \"#utility.yul\":8408:8496   */\n    tag_287:\n        /* \"#utility.yul\":8516:8526   */\n      dup1\n        /* \"#utility.yul\":8512:8514   */\n      0x40\n        /* \"#utility.yul\":8505:8527   */\n      mstore\n        /* \"#utility.yul\":8295:8533   */\n      pop\n        /* \"#utility.yul\":8252:8533   */\n      pop\n      pop\n      jump\t// out\n        /* \"#utility.yul\":8539:8668   */\n    tag_169:\n        /* \"#utility.yul\":8573:8579   */\n      0x00\n        /* \"#utility.yul\":8600:8620   */\n      tag_290\n      tag_140\n      jump\t// in\n    tag_290:\n        /* \"#utility.yul\":8590:8620   */\n      swap1\n      pop\n        /* \"#utility.yul\":8629:8662   */\n      tag_291\n        /* \"#utility.yul\":8657:8661   */\n      dup3\n        /* \"#utility.yul\":8649:8655   */\n      dup3\n        /* \"#utility.yul\":8629:8662   */\n      tag_168\n      jump\t// in\n    tag_291:\n        /* \"#utility.yul\":8539:8668   */\n      swap2\n      swap1\n      pop\n      jump\t// out\n        /* \"#utility.yul\":8797:8919   */\n    tag_171:\n        /* \"#utility.yul\":8870:8894   */\n      tag_294\n        /* \"#utility.yul\":8888:8893   */\n      dup2\n        /* \"#utility.yul\":8870:8894   */\n      tag_155\n      jump\t// in\n    tag_294:\n        /* \"#utility.yul\":8863:8868   */\n      dup2\n        /* \"#utility.yul\":8860:8895   */\n      eq\n        /* \"#utility.yul\":8850:8913   */\n      tag_295\n      jumpi\n        /* \"#utility.yul\":8909:8910   */\n      0x00\n        /* \"#utility.yul\":8906:8907   */\n      dup1\n        /* \"#utility.yul\":8899:8911   */\n      revert\n        /* \"#utility.yul\":8850:8913   */\n    tag_295:\n        /* \"#utility.yul\":8797:8919   */\n      pop\n      jump\t// out\n        /* \"#utility.yul\":8925:9064   */\n    tag_172:\n        /* \"#utility.yul\":8971:8976   */\n      0x00\n        /* \"#utility.yul\":9009:9015   */\n      dup2\n        /* \"#utility.yul\":8996:9016   */\n      calldataload\n        /* \"#utility.yul\":8987:9016   */\n      swap1\n      pop\n        /* \"#utility.yul\":9025:9058   */\n      tag_297\n        /* \"#utility.yul\":9052:9057   */\n      dup2\n        /* \"#utility.yul\":9025:9058   */\n      tag_171\n      jump\t// in\n    tag_297:\n        /* \"#utility.yul\":8925:9064   */\n      swap3\n      swap2\n      pop\n      pop\n      jump\t// out\n        /* \"#utility.yul\":9070:9190   */\n    tag_173:\n        /* \"#utility.yul\":9164:9165   */\n      0x04\n        /* \"#utility.yul\":9157:9162   */\n      dup2\n        /* \"#utility.yul\":9154:9166   */\n      lt\n        /* \"#utility.yul\":9144:9184   */\n      tag_299\n      jumpi\n        /* \"#utility.yul\":9180:9181   */\n      0x00\n        /* \"#utility.yul\":9177:9178   */\n      dup1\n        /* \"#utility.yul\":9170:9182   */\n      revert\n        /* \"#utility.yul\":9144:9184   */\n    tag_299:\n        /* \"#utility.yul\":9070:9190   */\n      pop\n      jump\t// out\n        /* \"#utility.yul\":9196:9377   */\n    tag_174:\n        /* \"#utility.yul\":9263:9268   */\n      0x00\n        /* \"#utility.yul\":9301:9307   */\n      dup2\n        /* \"#utility.yul\":9288:9308   */\n      calldataload\n        /* \"#utility.yul\":9279:9308   */\n      swap1\n      pop\n        /* \"#utility.yul\":9317:9371   */\n      tag_301\n        /* \"#utility.yul\":9365:9370   */\n      dup2\n        /* \"#utility.yul\":9317:9371   */\n      tag_173\n      jump\t// in\n    tag_301:\n        /* \"#utility.yul\":9196:9377   */\n      swap3\n      swap2\n      pop\n      pop\n      jump\t// out\n        /* \"#utility.yul\":9422:11057   */\n    tag_175:\n        /* \"#utility.yul\":9502:9507   */\n      0x00\n        /* \"#utility.yul\":9546:9552   */\n      0x0100\n        /* \"#utility.yul\":9534:9543   */\n      dup3\n        /* \"#utility.yul\":9529:9532   */\n      dup5\n        /* \"#utility.yul\":9525:9544   */\n      sub\n        /* \"#utility.yul\":9521:9553   */\n      slt\n        /* \"#utility.yul\":9518:9637   */\n      iszero\n      tag_303\n      jumpi\n        /* \"#utility.yul\":9556:9635   */\n      tag_304\n      tag_165\n      jump\t// in\n    tag_304:\n        /* \"#utility.yul\":9518:9637   */\n    tag_303:\n        /* \"#utility.yul\":9655:9678   */\n      tag_305\n        /* \"#utility.yul\":9671:9677   */\n      0x0100\n        /* \"#utility.yul\":9655:9678   */\n      tag_169\n      jump\t// in\n    tag_305:\n        /* \"#utility.yul\":9646:9678   */\n      swap1\n      pop\n        /* \"#utility.yul\":9739:9740   */\n      0x00\n        /* \"#utility.yul\":9779:9828   */\n      tag_306\n        /* \"#utility.yul\":9824:9827   */\n      dup5\n        /* \"#utility.yul\":9815:9821   */\n      dup3\n        /* \"#utility.yul\":9804:9813   */\n      dup6\n        /* \"#utility.yul\":9800:9822   */\n      add\n        /* \"#utility.yul\":9779:9828   */\n      tag_146\n      jump\t// in\n    tag_306:\n        /* \"#utility.yul\":9772:9776   */\n      0x00\n        /* \"#utility.yul\":9765:9770   */\n      dup4\n        /* \"#utility.yul\":9761:9777   */\n      add\n        /* \"#utility.yul\":9754:9829   */\n      mstore\n        /* \"#utility.yul\":9688:9840   */\n      pop\n        /* \"#utility.yul\":9907:9909   */\n      0x20\n        /* \"#utility.yul\":9948:9997   */\n      tag_307\n        /* \"#utility.yul\":9993:9996   */\n      dup5\n        /* \"#utility.yul\":9984:9990   */\n      dup3\n        /* \"#utility.yul\":9973:9982   */\n      dup6\n        /* \"#utility.yul\":9969:9991   */\n      add\n        /* \"#utility.yul\":9948:9997   */\n      tag_172\n      jump\t// in\n    tag_307:\n        /* \"#utility.yul\":9941:9945   */\n      0x20\n        /* \"#utility.yul\":9934:9939   */\n      dup4\n        /* \"#utility.yul\":9930:9946   */\n      add\n        /* \"#utility.yul\":9923:9998   */\n      mstore\n        /* \"#utility.yul\":9850:10009   */\n      pop\n        /* \"#utility.yul\":10073:10075   */\n      0x40\n        /* \"#utility.yul\":10114:10163   */\n      tag_308\n        /* \"#utility.yul\":10159:10162   */\n      dup5\n        /* \"#utility.yul\":10150:10156   */\n      dup3\n        /* \"#utility.yul\":10139:10148   */\n      dup6\n        /* \"#utility.yul\":10135:10157   */\n      add\n        /* \"#utility.yul\":10114:10163   */\n      tag_172\n      jump\t// in\n    tag_308:\n        /* \"#utility.yul\":10107:10111   */\n      0x40\n        /* \"#utility.yul\":10100:10105   */\n      dup4\n        /* \"#utility.yul\":10096:10112   */\n      add\n        /* \"#utility.yul\":10089:10164   */\n      mstore\n        /* \"#utility.yul\":10019:10175   */\n      pop\n        /* \"#utility.yul\":10248:10250   */\n      0x60\n        /* \"#utility.yul\":10289:10338   */\n      tag_309\n        /* \"#utility.yul\":10334:10337   */\n      dup5\n        /* \"#utility.yul\":10325:10331   */\n      dup3\n        /* \"#utility.yul\":10314:10323   */\n      dup6\n        /* \"#utility.yul\":10310:10332   */\n      add\n        /* \"#utility.yul\":10289:10338   */\n      tag_153\n      jump\t// in\n    tag_309:\n        /* \"#utility.yul\":10282:10286   */\n      0x60\n        /* \"#utility.yul\":10275:10280   */\n      dup4\n        /* \"#utility.yul\":10271:10287   */\n      add\n        /* \"#utility.yul\":10264:10339   */\n      mstore\n        /* \"#utility.yul\":10185:10350   */\n      pop\n        /* \"#utility.yul\":10424:10427   */\n      0x80\n        /* \"#utility.yul\":10466:10515   */\n      tag_310\n        /* \"#utility.yul\":10511:10514   */\n      dup5\n        /* \"#utility.yul\":10502:10508   */\n      dup3\n        /* \"#utility.yul\":10491:10500   */\n      dup6\n        /* \"#utility.yul\":10487:10509   */\n      add\n        /* \"#utility.yul\":10466:10515   */\n      tag_172\n      jump\t// in\n    tag_310:\n        /* \"#utility.yul\":10459:10463   */\n      0x80\n        /* \"#utility.yul\":10452:10457   */\n      dup4\n        /* \"#utility.yul\":10448:10464   */\n      add\n        /* \"#utility.yul\":10441:10516   */\n      mstore\n        /* \"#utility.yul\":10360:10527   */\n      pop\n        /* \"#utility.yul\":10587:10590   */\n      0xa0\n        /* \"#utility.yul\":10629:10678   */\n      tag_311\n        /* \"#utility.yul\":10674:10677   */\n      dup5\n        /* \"#utility.yul\":10665:10671   */\n      dup3\n        /* \"#utility.yul\":10654:10663   */\n      dup6\n        /* \"#utility.yul\":10650:10672   */\n      add\n        /* \"#utility.yul\":10629:10678   */\n      tag_153\n      jump\t// in\n    tag_311:\n        /* \"#utility.yul\":10622:10626   */\n      0xa0\n        /* \"#utility.yul\":10615:10620   */\n      dup4\n        /* \"#utility.yul\":10611:10627   */\n      add\n        /* \"#utility.yul\":10604:10679   */\n      mstore\n        /* \"#utility.yul\":10537:10690   */\n      pop\n        /* \"#utility.yul\":10754:10757   */\n      0xc0\n        /* \"#utility.yul\":10796:10866   */\n      tag_312\n        /* \"#utility.yul\":10862:10865   */\n      dup5\n        /* \"#utility.yul\":10853:10859   */\n      dup3\n        /* \"#utility.yul\":10842:10851   */\n      dup6\n        /* \"#utility.yul\":10838:10860   */\n      add\n        /* \"#utility.yul\":10796:10866   */\n      tag_174\n      jump\t// in\n    tag_312:\n        /* \"#utility.yul\":10789:10793   */\n      0xc0\n        /* \"#utility.yul\":10782:10787   */\n      dup4\n        /* \"#utility.yul\":10778:10794   */\n      add\n        /* \"#utility.yul\":10771:10867   */\n      mstore\n        /* \"#utility.yul\":10700:10878   */\n      pop\n        /* \"#utility.yul\":10947:10950   */\n      0xe0\n        /* \"#utility.yul\":10989:11038   */\n      tag_313\n        /* \"#utility.yul\":11034:11037   */\n      dup5\n        /* \"#utility.yul\":11025:11031   */\n      dup3\n        /* \"#utility.yul\":11014:11023   */\n      dup6\n        /* \"#utility.yul\":11010:11032   */\n      add\n        /* \"#utility.yul\":10989:11038   */\n      tag_153\n      jump\t// in\n    tag_313:\n        /* \"#utility.yul\":10982:10986   */\n      0xe0\n        /* \"#utility.yul\":10975:10980   */\n      dup4\n        /* \"#utility.yul\":10971:10987   */\n      add\n        /* \"#utility.yul\":10964:11039   */\n      mstore\n        /* \"#utility.yul\":10888:11050   */\n      pop\n        /* \"#utility.yul\":9422:11057   */\n      swap3\n      swap2\n      pop\n      pop\n      jump\t// out\n        /* \"#utility.yul\":11063:11455   */\n    tag_44:\n        /* \"#utility.yul\":11153:11159   */\n      0x00\n        /* \"#utility.yul\":11202:11205   */\n      0x0100\n        /* \"#utility.yul\":11190:11199   */\n      dup3\n        /* \"#utility.yul\":11181:11188   */\n      dup5\n        /* \"#utility.yul\":11177:11200   */\n      sub\n        /* \"#utility.yul\":11173:11206   */\n      slt\n        /* \"#utility.yul\":11170:11290   */\n      iszero\n      tag_315\n      jumpi\n        /* \"#utility.yul\":11209:11288   */\n      tag_316\n      tag_141\n      jump\t// in\n    tag_316:\n        /* \"#utility.yul\":11170:11290   */\n    tag_315:\n        /* \"#utility.yul\":11329:11330   */\n      0x00\n        /* \"#utility.yul\":11354:11438   */\n      tag_317\n        /* \"#utility.yul\":11430:11437   */\n      dup5\n        /* \"#utility.yul\":11421:11427   */\n      dup3\n        /* \"#utility.yul\":11410:11419   */\n      dup6\n        /* \"#utility.yul\":11406:11428   */\n      add\n        /* \"#utility.yul\":11354:11438   */\n      tag_175\n      jump\t// in\n    tag_317:\n        /* \"#utility.yul\":11344:11438   */\n      swap2\n      pop\n        /* \"#utility.yul\":11300:11448   */\n      pop\n        /* \"#utility.yul\":11063:11455   */\n      swap3\n      swap2\n      pop\n      pop\n      jump\t// out\n        /* \"#utility.yul\":11461:11559   */\n    tag_176:\n        /* \"#utility.yul\":11512:11518   */\n      0x00\n        /* \"#utility.yul\":11546:11551   */\n      dup2\n        /* \"#utility.yul\":11540:11552   */\n      mload\n        /* \"#utility.yul\":11530:11552   */\n      swap1\n      pop\n        /* \"#utility.yul\":11461:11559   */\n      swap2\n      swap1\n      pop\n      jump\t// out\n        /* \"#utility.yul\":11565:11733   */\n    tag_177:\n        /* \"#utility.yul\":11648:11659   */\n      0x00\n        /* \"#utility.yul\":11682:11688   */\n      dup3\n        /* \"#utility.yul\":11677:11680   */\n      dup3\n        /* \"#utility.yul\":11670:11689   */\n      mstore\n        /* \"#utility.yul\":11722:11726   */\n      0x20\n        /* \"#utility.yul\":11717:11720   */\n      dup3\n        /* \"#utility.yul\":11713:11727   */\n      add\n        /* \"#utility.yul\":11698:11727   */\n      swap1\n      pop\n        /* \"#utility.yul\":11565:11733   */\n      swap3\n      swap2\n      pop\n      pop\n      jump\t// out\n        /* \"#utility.yul\":11739:11985   */\n    tag_178:\n        /* \"#utility.yul\":11820:11821   */\n      0x00\n        /* \"#utility.yul\":11830:11943   */\n    tag_321:\n        /* \"#utility.yul\":11844:11850   */\n      dup4\n        /* \"#utility.yul\":11841:11842   */\n      dup2\n        /* \"#utility.yul\":11838:11851   */\n      lt\n        /* \"#utility.yul\":11830:11943   */\n      iszero\n      tag_323\n      jumpi\n        /* \"#utility.yul\":11929:11930   */\n      dup1\n        /* \"#utility.yul\":11924:11927   */\n      dup3\n        /* \"#utility.yul\":11920:11931   */\n      add\n        /* \"#utility.yul\":11914:11932   */\n      mload\n        /* \"#utility.yul\":11910:11911   */\n      dup2\n        /* \"#utility.yul\":11905:11908   */\n      dup5\n        /* \"#utility.yul\":11901:11912   */\n      add\n        /* \"#utility.yul\":11894:11933   */\n      mstore\n        /* \"#utility.yul\":11866:11868   */\n      0x20\n        /* \"#utility.yul\":11863:11864   */\n      dup2\n        /* \"#utility.yul\":11859:11869   */\n      add\n        /* \"#utility.yul\":11854:11869   */\n      swap1\n      pop\n        /* \"#utility.yul\":11830:11943   */\n      jump(tag_321)\n    tag_323:\n        /* \"#utility.yul\":11977:11978   */\n      0x00\n        /* \"#utility.yul\":11968:11974   */\n      dup5\n        /* \"#utility.yul\":11963:11966   */\n      dup5\n        /* \"#utility.yul\":11959:11975   */\n      add\n        /* \"#utility.yul\":11952:11979   */\n      mstore\n        /* \"#utility.yul\":11801:11985   */\n      pop\n        /* \"#utility.yul\":11739:11985   */\n      pop\n      pop\n      pop\n      jump\t// out\n        /* \"#utility.yul\":11991:12364   */\n    tag_179:\n        /* \"#utility.yul\":12077:12080   */\n      0x00\n        /* \"#utility.yul\":12105:12143   */\n      tag_325\n        /* \"#utility.yul\":12137:12142   */\n      dup3\n        /* \"#utility.yul\":12105:12143   */\n      tag_176\n      jump\t// in\n    tag_325:\n        /* \"#utility.yul\":12159:12229   */\n      tag_326\n        /* \"#utility.yul\":12222:12228   */\n      dup2\n        /* \"#utility.yul\":12217:12220   */\n      dup6\n        /* \"#utility.yul\":12159:12229   */\n      tag_177\n      jump\t// in\n    tag_326:\n        /* \"#utility.yul\":12152:12229   */\n      swap4\n      pop\n        /* \"#utility.yul\":12238:12303   */\n      tag_327\n        /* \"#utility.yul\":12296:12302   */\n      dup2\n        /* \"#utility.yul\":12291:12294   */\n      dup6\n        /* \"#utility.yul\":12284:12288   */\n      0x20\n        /* \"#utility.yul\":12277:12282   */\n      dup7\n        /* \"#utility.yul\":12273:12289   */\n      add\n        /* \"#utility.yul\":12238:12303   */\n      tag_178\n      jump\t// in\n    tag_327:\n        /* \"#utility.yul\":12328:12357   */\n      tag_328\n        /* \"#utility.yul\":12350:12356   */\n      dup2\n        /* \"#utility.yul\":12328:12357   */\n      tag_166\n      jump\t// in\n    tag_328:\n        /* \"#utility.yul\":12323:12326   */\n      dup5\n        /* \"#utility.yul\":12319:12358   */\n      add\n        /* \"#utility.yul\":12312:12358   */\n      swap2\n      pop\n        /* \"#utility.yul\":12081:12364   */\n      pop\n        /* \"#utility.yul\":11991:12364   */\n      swap3\n      swap2\n      pop\n      pop\n      jump\t// out\n        /* \"#utility.yul\":12370:12679   */\n    tag_47:\n        /* \"#utility.yul\":12481:12485   */\n      0x00\n        /* \"#utility.yul\":12519:12521   */\n      0x20\n        /* \"#utility.yul\":12508:12517   */\n      dup3\n        /* \"#utility.yul\":12504:12522   */\n      add\n        /* \"#utility.yul\":12496:12522   */\n      swap1\n      pop\n        /* \"#utility.yul\":12568:12577   */\n      dup2\n        /* \"#utility.yul\":12562:12566   */\n      dup2\n        /* \"#utility.yul\":12558:12578   */\n      sub\n        /* \"#utility.yul\":12554:12555   */\n      0x00\n        /* \"#utility.yul\":12543:12552   */\n      dup4\n        /* \"#utility.yul\":12539:12556   */\n      add\n        /* \"#utility.yul\":12532:12579   */\n      mstore\n        /* \"#utility.yul\":12596:12672   */\n      tag_330\n        /* \"#utility.yul\":12667:12671   */\n      dup2\n        /* \"#utility.yul\":12658:12664   */\n      dup5\n        /* \"#utility.yul\":12596:12672   */\n      tag_179\n      jump\t// in\n    tag_330:\n        /* \"#utility.yul\":12588:12672   */\n      swap1\n      pop\n        /* \"#utility.yul\":12370:12679   */\n      swap3\n      swap2\n      pop\n      pop\n      jump\t// out\n        /* \"#utility.yul\":12685:13014   */\n    tag_51:\n        /* \"#utility.yul\":12744:12750   */\n      0x00\n        /* \"#utility.yul\":12793:12795   */\n      0x20\n        /* \"#utility.yul\":12781:12790   */\n      dup3\n        /* \"#utility.yul\":12772:12779   */\n      dup5\n        /* \"#utility.yul\":12768:12791   */\n      sub\n        /* \"#utility.yul\":12764:12796   */\n      slt\n        /* \"#utility.yul\":12761:12880   */\n      iszero\n      tag_332\n      jumpi\n        /* \"#utility.yul\":12799:12878   */\n      tag_333\n      tag_141\n      jump\t// in\n    tag_333:\n        /* \"#utility.yul\":12761:12880   */\n    tag_332:\n        /* \"#utility.yul\":12919:12920   */\n      0x00\n        /* \"#utility.yul\":12944:12997   */\n      tag_334\n        /* \"#utility.yul\":12989:12996   */\n      dup5\n        /* \"#utility.yul\":12980:12986   */\n      dup3\n        /* \"#utility.yul\":12969:12978   */\n      dup6\n        /* \"#utility.yul\":12965:12987   */\n      add\n        /* \"#utility.yul\":12944:12997   */\n      tag_146\n      jump\t// in\n    tag_334:\n        /* \"#utility.yul\":12934:12997   */\n      swap2\n      pop\n        /* \"#utility.yul\":12890:13007   */\n      pop\n        /* \"#utility.yul\":12685:13014   */\n      swap3\n      swap2\n      pop\n      pop\n      jump\t// out\n        /* \"#utility.yul\":13020:13138   */\n    tag_180:\n        /* \"#utility.yul\":13107:13131   */\n      tag_336\n        /* \"#utility.yul\":13125:13130   */\n      dup2\n        /* \"#utility.yul\":13107:13131   */\n      tag_155\n      jump\t// in\n    tag_336:\n        /* \"#utility.yul\":13102:13105   */\n      dup3\n        /* \"#utility.yul\":13095:13132   */\n      mstore\n        /* \"#utility.yul\":13020:13138   */\n      pop\n      pop\n      jump\t// out\n        /* \"#utility.yul\":13144:13313   */\n    tag_181:\n        /* \"#utility.yul\":13250:13306   */\n      tag_338\n        /* \"#utility.yul\":13300:13305   */\n      dup2\n        /* \"#utility.yul\":13250:13306   */\n      tag_160\n      jump\t// in\n    tag_338:\n        /* \"#utility.yul\":13245:13248   */\n      dup3\n        /* \"#utility.yul\":13238:13307   */\n      mstore\n        /* \"#utility.yul\":13144:13313   */\n      pop\n      pop\n      jump\t// out\n        /* \"#utility.yul\":13319:14354   */\n    tag_64:\n        /* \"#utility.yul\":13627:13631   */\n      0x00\n        /* \"#utility.yul\":13665:13668   */\n      0x0100\n        /* \"#utility.yul\":13654:13663   */\n      dup3\n        /* \"#utility.yul\":13650:13669   */\n      add\n        /* \"#utility.yul\":13642:13669   */\n      swap1\n      pop\n        /* \"#utility.yul\":13679:13750   */\n      tag_340\n        /* \"#utility.yul\":13747:13748   */\n      0x00\n        /* \"#utility.yul\":13736:13745   */\n      dup4\n        /* \"#utility.yul\":13732:13749   */\n      add\n        /* \"#utility.yul\":13723:13729   */\n      dup12\n        /* \"#utility.yul\":13679:13750   */\n      tag_180\n      jump\t// in\n    tag_340:\n        /* \"#utility.yul\":13760:13832   */\n      tag_341\n        /* \"#utility.yul\":13828:13830   */\n      0x20\n        /* \"#utility.yul\":13817:13826   */\n      dup4\n        /* \"#utility.yul\":13813:13831   */\n      add\n        /* \"#utility.yul\":13804:13810   */\n      dup11\n        /* \"#utility.yul\":13760:13832   */\n      tag_164\n      jump\t// in\n    tag_341:\n        /* \"#utility.yul\":13842:13914   */\n      tag_342\n        /* \"#utility.yul\":13910:13912   */\n      0x40\n        /* \"#utility.yul\":13899:13908   */\n      dup4\n        /* \"#utility.yul\":13895:13913   */\n      add\n        /* \"#utility.yul\":13886:13892   */\n      dup10\n        /* \"#utility.yul\":13842:13914   */\n      tag_180\n      jump\t// in\n    tag_342:\n        /* \"#utility.yul\":13924:13996   */\n      tag_343\n        /* \"#utility.yul\":13992:13994   */\n      0x60\n        /* \"#utility.yul\":13981:13990   */\n      dup4\n        /* \"#utility.yul\":13977:13995   */\n      add\n        /* \"#utility.yul\":13968:13974   */\n      dup9\n        /* \"#utility.yul\":13924:13996   */\n      tag_164\n      jump\t// in\n    tag_343:\n        /* \"#utility.yul\":14006:14079   */\n      tag_344\n        /* \"#utility.yul\":14074:14077   */\n      0x80\n        /* \"#utility.yul\":14063:14072   */\n      dup4\n        /* \"#utility.yul\":14059:14078   */\n      add\n        /* \"#utility.yul\":14050:14056   */\n      dup8\n        /* \"#utility.yul\":14006:14079   */\n      tag_180\n      jump\t// in\n    tag_344:\n        /* \"#utility.yul\":14089:14162   */\n      tag_345\n        /* \"#utility.yul\":14157:14160   */\n      0xa0\n        /* \"#utility.yul\":14146:14155   */\n      dup4\n        /* \"#utility.yul\":14142:14161   */\n      add\n        /* \"#utility.yul\":14133:14139   */\n      dup7\n        /* \"#utility.yul\":14089:14162   */\n      tag_164\n      jump\t// in\n    tag_345:\n        /* \"#utility.yul\":14172:14264   */\n      tag_346\n        /* \"#utility.yul\":14259:14262   */\n      0xc0\n        /* \"#utility.yul\":14248:14257   */\n      dup4\n        /* \"#utility.yul\":14244:14263   */\n      add\n        /* \"#utility.yul\":14235:14241   */\n      dup6\n        /* \"#utility.yul\":14172:14264   */\n      tag_181\n      jump\t// in\n    tag_346:\n        /* \"#utility.yul\":14274:14347   */\n      tag_347\n        /* \"#utility.yul\":14342:14345   */\n      0xe0\n        /* \"#utility.yul\":14331:14340   */\n      dup4\n        /* \"#utility.yul\":14327:14346   */\n      add\n        /* \"#utility.yul\":14318:14324   */\n      dup5\n        /* \"#utility.yul\":14274:14347   */\n      tag_164\n      jump\t// in\n    tag_347:\n        /* \"#utility.yul\":13319:14354   */\n      swap10\n      swap9\n      pop\n      pop\n      pop\n      pop\n      pop\n      pop\n      pop\n      pop\n      pop\n      jump\t// out\n        /* \"#utility.yul\":14360:14464   */\n    tag_182:\n        /* \"#utility.yul\":14405:14412   */\n      0x00\n        /* \"#utility.yul\":14434:14458   */\n      tag_349\n        /* \"#utility.yul\":14452:14457   */\n      dup3\n        /* \"#utility.yul\":14434:14458   */\n      tag_143\n      jump\t// in\n    tag_349:\n        /* \"#utility.yul\":14423:14458   */\n      swap1\n      pop\n        /* \"#utility.yul\":14360:14464   */\n      swap2\n      swap1\n      pop\n      jump\t// out\n        /* \"#utility.yul\":14470:14608   */\n    tag_183:\n        /* \"#utility.yul\":14551:14583   */\n      tag_351\n        /* \"#utility.yul\":14577:14582   */\n      dup2\n        /* \"#utility.yul\":14551:14583   */\n      tag_182\n      jump\t// in\n    tag_351:\n        /* \"#utility.yul\":14544:14549   */\n      dup2\n        /* \"#utility.yul\":14541:14584   */\n      eq\n        /* \"#utility.yul\":14531:14602   */\n      tag_352\n      jumpi\n        /* \"#utility.yul\":14598:14599   */\n      0x00\n        /* \"#utility.yul\":14595:14596   */\n      dup1\n        /* \"#utility.yul\":14588:14600   */\n      revert\n        /* \"#utility.yul\":14531:14602   */\n    tag_352:\n        /* \"#utility.yul\":14470:14608   */\n      pop\n      jump\t// out\n        /* \"#utility.yul\":14614:14769   */\n    tag_184:\n        /* \"#utility.yul\":14668:14673   */\n      0x00\n        /* \"#utility.yul\":14706:14712   */\n      dup2\n        /* \"#utility.yul\":14693:14713   */\n      calldataload\n        /* \"#utility.yul\":14684:14713   */\n      swap1\n      pop\n        /* \"#utility.yul\":14722:14763   */\n      tag_354\n        /* \"#utility.yul\":14757:14762   */\n      dup2\n        /* \"#utility.yul\":14722:14763   */\n      tag_183\n      jump\t// in\n    tag_354:\n        /* \"#utility.yul\":14614:14769   */\n      swap3\n      swap2\n      pop\n      pop\n      jump\t// out\n        /* \"#utility.yul\":14775:16182   */\n    tag_73:\n        /* \"#utility.yul\":14926:14932   */\n      0x00\n        /* \"#utility.yul\":14934:14940   */\n      dup1\n        /* \"#utility.yul\":14942:14948   */\n      0x00\n        /* \"#utility.yul\":14950:14956   */\n      dup1\n        /* \"#utility.yul\":14958:14964   */\n      0x00\n        /* \"#utility.yul\":14966:14972   */\n      dup1\n        /* \"#utility.yul\":14974:14980   */\n      0x00\n        /* \"#utility.yul\":14982:14988   */\n      dup1\n        /* \"#utility.yul\":15031:15034   */\n      0x0100\n        /* \"#utility.yul\":15019:15028   */\n      dup10\n        /* \"#utility.yul\":15010:15017   */\n      dup12\n        /* \"#utility.yul\":15006:15029   */\n      sub\n        /* \"#utility.yul\":15002:15035   */\n      slt\n        /* \"#utility.yul\":14999:15119   */\n      iszero\n      tag_356\n      jumpi\n        /* \"#utility.yul\":15038:15117   */\n      tag_357\n      tag_141\n      jump\t// in\n    tag_357:\n        /* \"#utility.yul\":14999:15119   */\n    tag_356:\n        /* \"#utility.yul\":15158:15159   */\n      0x00\n        /* \"#utility.yul\":15183:15244   */\n      tag_358\n        /* \"#utility.yul\":15236:15243   */\n      dup12\n        /* \"#utility.yul\":15227:15233   */\n      dup3\n        /* \"#utility.yul\":15216:15225   */\n      dup13\n        /* \"#utility.yul\":15212:15234   */\n      add\n        /* \"#utility.yul\":15183:15244   */\n      tag_184\n      jump\t// in\n    tag_358:\n        /* \"#utility.yul\":15173:15244   */\n      swap9\n      pop\n        /* \"#utility.yul\":15129:15254   */\n      pop\n        /* \"#utility.yul\":15293:15295   */\n      0x20\n        /* \"#utility.yul\":15319:15372   */\n      tag_359\n        /* \"#utility.yul\":15364:15371   */\n      dup12\n        /* \"#utility.yul\":15355:15361   */\n      dup3\n        /* \"#utility.yul\":15344:15353   */\n      dup13\n        /* \"#utility.yul\":15340:15362   */\n      add\n        /* \"#utility.yul\":15319:15372   */\n      tag_172\n      jump\t// in\n    tag_359:\n        /* \"#utility.yul\":15309:15372   */\n      swap8\n      pop\n        /* \"#utility.yul\":15264:15382   */\n      pop\n        /* \"#utility.yul\":15421:15423   */\n      0x40\n        /* \"#utility.yul\":15447:15500   */\n      tag_360\n        /* \"#utility.yul\":15492:15499   */\n      dup12\n        /* \"#utility.yul\":15483:15489   */\n      dup3\n        /* \"#utility.yul\":15472:15481   */\n      dup13\n        /* \"#utility.yul\":15468:15490   */\n      add\n        /* \"#utility.yul\":15447:15500   */\n      tag_172\n      jump\t// in\n    tag_360:\n        /* \"#utility.yul\":15437:15500   */\n      swap7\n      pop\n        /* \"#utility.yul\":15392:15510   */\n      pop\n        /* \"#utility.yul\":15549:15551   */\n      0x60\n        /* \"#utility.yul\":15575:15628   */\n      tag_361\n        /* \"#utility.yul\":15620:15627   */\n      dup12\n        /* \"#utility.yul\":15611:15617   */\n      dup3\n        /* \"#utility.yul\":15600:15609   */\n      dup13\n        /* \"#utility.yul\":15596:15618   */\n      add\n        /* \"#utility.yul\":15575:15628   */\n      tag_153\n      jump\t// in\n    tag_361:\n        /* \"#utility.yul\":15565:15628   */\n      swap6\n      pop\n        /* \"#utility.yul\":15520:15638   */\n      pop\n        /* \"#utility.yul\":15677:15680   */\n      0x80\n        /* \"#utility.yul\":15704:15757   */\n      tag_362\n        /* \"#utility.yul\":15749:15756   */\n      dup12\n        /* \"#utility.yul\":15740:15746   */\n      dup3\n        /* \"#utility.yul\":15729:15738   */\n      dup13\n        /* \"#utility.yul\":15725:15747   */\n      add\n        /* \"#utility.yul\":15704:15757   */\n      tag_172\n      jump\t// in\n    tag_362:\n        /* \"#utility.yul\":15694:15757   */\n      swap5\n      pop\n        /* \"#utility.yul\":15648:15767   */\n      pop\n        /* \"#utility.yul\":15806:15809   */\n      0xa0\n        /* \"#utility.yul\":15833:15886   */\n      tag_363\n        /* \"#utility.yul\":15878:15885   */\n      dup12\n        /* \"#utility.yul\":15869:15875   */\n      dup3\n        /* \"#utility.yul\":15858:15867   */\n      dup13\n        /* \"#utility.yul\":15854:15876   */\n      add\n        /* \"#utility.yul\":15833:15886   */\n      tag_153\n      jump\t// in\n    tag_363:\n        /* \"#utility.yul\":15823:15886   */\n      swap4\n      pop\n        /* \"#utility.yul\":15777:15896   */\n      pop\n        /* \"#utility.yul\":15935:15938   */\n      0xc0\n        /* \"#utility.yul\":15962:16036   */\n      tag_364\n        /* \"#utility.yul\":16028:16035   */\n      dup12\n        /* \"#utility.yul\":16019:16025   */\n      dup3\n        /* \"#utility.yul\":16008:16017   */\n      dup13\n        /* \"#utility.yul\":16004:16026   */\n      add\n        /* \"#utility.yul\":15962:16036   */\n      tag_174\n      jump\t// in\n    tag_364:\n        /* \"#utility.yul\":15952:16036   */\n      swap3\n      pop\n        /* \"#utility.yul\":15906:16046   */\n      pop\n        /* \"#utility.yul\":16085:16088   */\n      0xe0\n        /* \"#utility.yul\":16112:16165   */\n      tag_365\n        /* \"#utility.yul\":16157:16164   */\n      dup12\n        /* \"#utility.yul\":16148:16154   */\n      dup3\n        /* \"#utility.yul\":16137:16146   */\n      dup13\n        /* \"#utility.yul\":16133:16155   */\n      add\n        /* \"#utility.yul\":16112:16165   */\n      tag_153\n      jump\t// in\n    tag_365:\n        /* \"#utility.yul\":16102:16165   */\n      swap2\n      pop\n        /* \"#utility.yul\":16056:16175   */\n      pop\n        /* \"#utility.yul\":14775:16182   */\n      swap3\n      swap6\n      swap9\n      pop\n      swap3\n      swap6\n      swap9\n      swap1\n      swap4\n      swap7\n      pop\n      jump\t// out\n        /* \"#utility.yul\":16188:16520   */\n    tag_87:\n        /* \"#utility.yul\":16309:16313   */\n      0x00\n        /* \"#utility.yul\":16347:16349   */\n      0x40\n        /* \"#utility.yul\":16336:16345   */\n      dup3\n        /* \"#utility.yul\":16332:16350   */\n      add\n        /* \"#utility.yul\":16324:16350   */\n      swap1\n      pop\n        /* \"#utility.yul\":16360:16431   */\n      tag_367\n        /* \"#utility.yul\":16428:16429   */\n      0x00\n        /* \"#utility.yul\":16417:16426   */\n      dup4\n        /* \"#utility.yul\":16413:16430   */\n      add\n        /* \"#utility.yul\":16404:16410   */\n      dup6\n        /* \"#utility.yul\":16360:16431   */\n      tag_163\n      jump\t// in\n    tag_367:\n        /* \"#utility.yul\":16441:16513   */\n      tag_368\n        /* \"#utility.yul\":16509:16511   */\n      0x20\n        /* \"#utility.yul\":16498:16507   */\n      dup4\n        /* \"#utility.yul\":16494:16512   */\n      add\n        /* \"#utility.yul\":16485:16491   */\n      dup5\n        /* \"#utility.yul\":16441:16513   */\n      tag_163\n      jump\t// in\n    tag_368:\n        /* \"#utility.yul\":16188:16520   */\n      swap4\n      swap3\n      pop\n      pop\n      pop\n      jump\t// out\n        /* \"#utility.yul\":16526:16669   */\n    tag_185:\n        /* \"#utility.yul\":16583:16588   */\n      0x00\n        /* \"#utility.yul\":16614:16620   */\n      dup2\n        /* \"#utility.yul\":16608:16621   */\n      mload\n        /* \"#utility.yul\":16599:16621   */\n      swap1\n      pop\n        /* \"#utility.yul\":16630:16663   */\n      tag_370\n        /* \"#utility.yul\":16657:16662   */\n      dup2\n        /* \"#utility.yul\":16630:16663   */\n      tag_152\n      jump\t// in\n    tag_370:\n        /* \"#utility.yul\":16526:16669   */\n      swap3\n      swap2\n      pop\n      pop\n      jump\t// out\n        /* \"#utility.yul\":16675:17026   */\n    tag_91:\n        /* \"#utility.yul\":16745:16751   */\n      0x00\n        /* \"#utility.yul\":16794:16796   */\n      0x20\n        /* \"#utility.yul\":16782:16791   */\n      dup3\n        /* \"#utility.yul\":16773:16780   */\n      dup5\n        /* \"#utility.yul\":16769:16792   */\n      sub\n        /* \"#utility.yul\":16765:16797   */\n      slt\n        /* \"#utility.yul\":16762:16881   */\n      iszero\n      tag_372\n      jumpi\n        /* \"#utility.yul\":16800:16879   */\n      tag_373\n      tag_141\n      jump\t// in\n    tag_373:\n        /* \"#utility.yul\":16762:16881   */\n    tag_372:\n        /* \"#utility.yul\":16920:16921   */\n      0x00\n        /* \"#utility.yul\":16945:17009   */\n      tag_374\n        /* \"#utility.yul\":17001:17008   */\n      dup5\n        /* \"#utility.yul\":16992:16998   */\n      dup3\n        /* \"#utility.yul\":16981:16990   */\n      dup6\n        /* \"#utility.yul\":16977:16999   */\n      add\n        /* \"#utility.yul\":16945:17009   */\n      tag_185\n      jump\t// in\n    tag_374:\n        /* \"#utility.yul\":16935:17009   */\n      swap2\n      pop\n        /* \"#utility.yul\":16891:17019   */\n      pop\n        /* \"#utility.yul\":16675:17026   */\n      swap3\n      swap2\n      pop\n      pop\n      jump\t// out\n        /* \"#utility.yul\":17032:17201   */\n    tag_186:\n        /* \"#utility.yul\":17116:17127   */\n      0x00\n        /* \"#utility.yul\":17150:17156   */\n      dup3\n        /* \"#utility.yul\":17145:17148   */\n      dup3\n        /* \"#utility.yul\":17138:17157   */\n      mstore\n        /* \"#utility.yul\":17190:17194   */\n      0x20\n        /* \"#utility.yul\":17185:17188   */\n      dup3\n        /* \"#utility.yul\":17181:17195   */\n      add\n        /* \"#utility.yul\":17166:17195   */\n      swap1\n      pop\n        /* \"#utility.yul\":17032:17201   */\n      swap3\n      swap2\n      pop\n      pop\n      jump\t// out\n        /* \"#utility.yul\":17207:17432   */\n    tag_187:\n        /* \"#utility.yul\":17347:17381   */\n      0x4f776e61626c653a206e6577206f776e657220697320746865207a65726f2061\n        /* \"#utility.yul\":17343:17344   */\n      0x00\n        /* \"#utility.yul\":17335:17341   */\n      dup3\n        /* \"#utility.yul\":17331:17345   */\n      add\n        /* \"#utility.yul\":17324:17382   */\n      mstore\n        /* \"#utility.yul\":17416:17424   */\n      0x6464726573730000000000000000000000000000000000000000000000000000\n        /* \"#utility.yul\":17411:17413   */\n      0x20\n        /* \"#utility.yul\":17403:17409   */\n      dup3\n        /* \"#utility.yul\":17399:17414   */\n      add\n        /* \"#utility.yul\":17392:17425   */\n      mstore\n        /* \"#utility.yul\":17207:17432   */\n      pop\n      jump\t// out\n        /* \"#utility.yul\":17438:17804   */\n    tag_188:\n        /* \"#utility.yul\":17580:17583   */\n      0x00\n        /* \"#utility.yul\":17601:17668   */\n      tag_378\n        /* \"#utility.yul\":17665:17667   */\n      0x26\n        /* \"#utility.yul\":17660:17663   */\n      dup4\n        /* \"#utility.yul\":17601:17668   */\n      tag_186\n      jump\t// in\n    tag_378:\n        /* \"#utility.yul\":17594:17668   */\n      swap2\n      pop\n        /* \"#utility.yul\":17677:17770   */\n      tag_379\n        /* \"#utility.yul\":17766:17769   */\n      dup3\n        /* \"#utility.yul\":17677:17770   */\n      tag_187\n      jump\t// in\n    tag_379:\n        /* \"#utility.yul\":17795:17797   */\n      0x40\n        /* \"#utility.yul\":17790:17793   */\n      dup3\n        /* \"#utility.yul\":17786:17798   */\n      add\n        /* \"#utility.yul\":17779:17798   */\n      swap1\n      pop\n        /* \"#utility.yul\":17438:17804   */\n      swap2\n      swap1\n      pop\n      jump\t// out\n        /* \"#utility.yul\":17810:18229   */\n    tag_99:\n        /* \"#utility.yul\":17976:17980   */\n      0x00\n        /* \"#utility.yul\":18014:18016   */\n      0x20\n        /* \"#utility.yul\":18003:18012   */\n      dup3\n        /* \"#utility.yul\":17999:18017   */\n      add\n        /* \"#utility.yul\":17991:18017   */\n      swap1\n      pop\n        /* \"#utility.yul\":18063:18072   */\n      dup2\n        /* \"#utility.yul\":18057:18061   */\n      dup2\n        /* \"#utility.yul\":18053:18073   */\n      sub\n        /* \"#utility.yul\":18049:18050   */\n      0x00\n        /* \"#utility.yul\":18038:18047   */\n      dup4\n        /* \"#utility.yul\":18034:18051   */\n      add\n        /* \"#utility.yul\":18027:18074   */\n      mstore\n        /* \"#utility.yul\":18091:18222   */\n      tag_381\n        /* \"#utility.yul\":18217:18221   */\n      dup2\n        /* \"#utility.yul\":18091:18222   */\n      tag_188\n      jump\t// in\n    tag_381:\n        /* \"#utility.yul\":18083:18222   */\n      swap1\n      pop\n        /* \"#utility.yul\":17810:18229   */\n      swap2\n      swap1\n      pop\n      jump\t// out\n        /* \"#utility.yul\":18235:18567   */\n    tag_103:\n        /* \"#utility.yul\":18356:18360   */\n      0x00\n        /* \"#utility.yul\":18394:18396   */\n      0x40\n        /* \"#utility.yul\":18383:18392   */\n      dup3\n        /* \"#utility.yul\":18379:18397   */\n      add\n        /* \"#utility.yul\":18371:18397   */\n      swap1\n      pop\n        /* \"#utility.yul\":18407:18478   */\n      tag_383\n        /* \"#utility.yul\":18475:18476   */\n      0x00\n        /* \"#utility.yul\":18464:18473   */\n      dup4\n        /* \"#utility.yul\":18460:18477   */\n      add\n        /* \"#utility.yul\":18451:18457   */\n      dup6\n        /* \"#utility.yul\":18407:18478   */\n      tag_163\n      jump\t// in\n    tag_383:\n        /* \"#utility.yul\":18488:18560   */\n      tag_384\n        /* \"#utility.yul\":18556:18558   */\n      0x20\n        /* \"#utility.yul\":18545:18554   */\n      dup4\n        /* \"#utility.yul\":18541:18559   */\n      add\n        /* \"#utility.yul\":18532:18538   */\n      dup5\n        /* \"#utility.yul\":18488:18560   */\n      tag_164\n      jump\t// in\n    tag_384:\n        /* \"#utility.yul\":18235:18567   */\n      swap4\n      swap3\n      pop\n      pop\n      pop\n      jump\t// out\n        /* \"#utility.yul\":18573:18720   */\n    tag_189:\n        /* \"#utility.yul\":18674:18685   */\n      0x00\n        /* \"#utility.yul\":18711:18714   */\n      dup2\n        /* \"#utility.yul\":18696:18714   */\n      swap1\n      pop\n        /* \"#utility.yul\":18573:18720   */\n      swap3\n      swap2\n      pop\n      pop\n      jump\t// out\n        /* \"#utility.yul\":18726:19112   */\n    tag_190:\n        /* \"#utility.yul\":18830:18833   */\n      0x00\n        /* \"#utility.yul\":18858:18896   */\n      tag_387\n        /* \"#utility.yul\":18890:18895   */\n      dup3\n        /* \"#utility.yul\":18858:18896   */\n      tag_176\n      jump\t// in\n    tag_387:\n        /* \"#utility.yul\":18912:19000   */\n      tag_388\n        /* \"#utility.yul\":18993:18999   */\n      dup2\n        /* \"#utility.yul\":18988:18991   */\n      dup6\n        /* \"#utility.yul\":18912:19000   */\n      tag_189\n      jump\t// in\n    tag_388:\n        /* \"#utility.yul\":18905:19000   */\n      swap4\n      pop\n        /* \"#utility.yul\":19009:19074   */\n      tag_389\n        /* \"#utility.yul\":19067:19073   */\n      dup2\n        /* \"#utility.yul\":19062:19065   */\n      dup6\n        /* \"#utility.yul\":19055:19059   */\n      0x20\n        /* \"#utility.yul\":19048:19053   */\n      dup7\n        /* \"#utility.yul\":19044:19060   */\n      add\n        /* \"#utility.yul\":19009:19074   */\n      tag_178\n      jump\t// in\n    tag_389:\n        /* \"#utility.yul\":19099:19105   */\n      dup1\n        /* \"#utility.yul\":19094:19097   */\n      dup5\n        /* \"#utility.yul\":19090:19106   */\n      add\n        /* \"#utility.yul\":19083:19106   */\n      swap2\n      pop\n        /* \"#utility.yul\":18834:19112   */\n      pop\n        /* \"#utility.yul\":18726:19112   */\n      swap3\n      swap2\n      pop\n      pop\n      jump\t// out\n        /* \"#utility.yul\":19118:19389   */\n    tag_105:\n        /* \"#utility.yul\":19248:19251   */\n      0x00\n        /* \"#utility.yul\":19270:19363   */\n      tag_391\n        /* \"#utility.yul\":19359:19362   */\n      dup3\n        /* \"#utility.yul\":19350:19356   */\n      dup5\n        /* \"#utility.yul\":19270:19363   */\n      tag_190\n      jump\t// in\n    tag_391:\n        /* \"#utility.yul\":19263:19363   */\n      swap2\n      pop\n        /* \"#utility.yul\":19380:19383   */\n      dup2\n        /* \"#utility.yul\":19373:19383   */\n      swap1\n      pop\n        /* \"#utility.yul\":19118:19389   */\n      swap3\n      swap2\n      pop\n      pop\n      jump\t// out\n        /* \"#utility.yul\":19395:19485   */\n    tag_191:\n        /* \"#utility.yul\":19429:19436   */\n      0x00\n        /* \"#utility.yul\":19472:19477   */\n      dup2\n        /* \"#utility.yul\":19465:19478   */\n      iszero\n        /* \"#utility.yul\":19458:19479   */\n      iszero\n        /* \"#utility.yul\":19447:19479   */\n      swap1\n      pop\n        /* \"#utility.yul\":19395:19485   */\n      swap2\n      swap1\n      pop\n      jump\t// out\n        /* \"#utility.yul\":19491:19607   */\n    tag_192:\n        /* \"#utility.yul\":19561:19582   */\n      tag_394\n        /* \"#utility.yul\":19576:19581   */\n      dup2\n        /* \"#utility.yul\":19561:19582   */\n      tag_191\n      jump\t// in\n    tag_394:\n        /* \"#utility.yul\":19554:19559   */\n      dup2\n        /* \"#utility.yul\":19551:19583   */\n      eq\n        /* \"#utility.yul\":19541:19601   */\n      tag_395\n      jumpi\n        /* \"#utility.yul\":19597:19598   */\n      0x00\n        /* \"#utility.yul\":19594:19595   */\n      dup1\n        /* \"#utility.yul\":19587:19599   */\n      revert\n        /* \"#utility.yul\":19541:19601   */\n    tag_395:\n        /* \"#utility.yul\":19491:19607   */\n      pop\n      jump\t// out\n        /* \"#utility.yul\":19613:19750   */\n    tag_193:\n        /* \"#utility.yul\":19667:19672   */\n      0x00\n        /* \"#utility.yul\":19698:19704   */\n      dup2\n        /* \"#utility.yul\":19692:19705   */\n      mload\n        /* \"#utility.yul\":19683:19705   */\n      swap1\n      pop\n        /* \"#utility.yul\":19714:19744   */\n      tag_397\n        /* \"#utility.yul\":19738:19743   */\n      dup2\n        /* \"#utility.yul\":19714:19744   */\n      tag_192\n      jump\t// in\n    tag_397:\n        /* \"#utility.yul\":19613:19750   */\n      swap3\n      swap2\n      pop\n      pop\n      jump\t// out\n        /* \"#utility.yul\":19756:20101   */\n    tag_112:\n        /* \"#utility.yul\":19823:19829   */\n      0x00\n        /* \"#utility.yul\":19872:19874   */\n      0x20\n        /* \"#utility.yul\":19860:19869   */\n      dup3\n        /* \"#utility.yul\":19851:19858   */\n      dup5\n        /* \"#utility.yul\":19847:19870   */\n      sub\n        /* \"#utility.yul\":19843:19875   */\n      slt\n        /* \"#utility.yul\":19840:19959   */\n      iszero\n      tag_399\n      jumpi\n        /* \"#utility.yul\":19878:19957   */\n      tag_400\n      tag_141\n      jump\t// in\n    tag_400:\n        /* \"#utility.yul\":19840:19959   */\n    tag_399:\n        /* \"#utility.yul\":19998:19999   */\n      0x00\n        /* \"#utility.yul\":20023:20084   */\n      tag_401\n        /* \"#utility.yul\":20076:20083   */\n      dup5\n        /* \"#utility.yul\":20067:20073   */\n      dup3\n        /* \"#utility.yul\":20056:20065   */\n      dup6\n        /* \"#utility.yul\":20052:20074   */\n      add\n        /* \"#utility.yul\":20023:20084   */\n      tag_193\n      jump\t// in\n    tag_401:\n        /* \"#utility.yul\":20013:20084   */\n      swap2\n      pop\n        /* \"#utility.yul\":19969:20094   */\n      pop\n        /* \"#utility.yul\":19756:20101   */\n      swap3\n      swap2\n      pop\n      pop\n      jump\t// out\n        /* \"#utility.yul\":20107:20283   */\n    tag_194:\n        /* \"#utility.yul\":20247:20275   */\n      0x5472616e7366657248656c7065723a73616665417070726f7665000000000000\n        /* \"#utility.yul\":20243:20244   */\n      0x00\n        /* \"#utility.yul\":20235:20241   */\n      dup3\n        /* \"#utility.yul\":20231:20245   */\n      add\n        /* \"#utility.yul\":20224:20276   */\n      mstore\n        /* \"#utility.yul\":20107:20283   */\n      pop\n      jump\t// out\n        /* \"#utility.yul\":20289:20655   */\n    tag_195:\n        /* \"#utility.yul\":20431:20434   */\n      0x00\n        /* \"#utility.yul\":20452:20519   */\n      tag_404\n        /* \"#utility.yul\":20516:20518   */\n      0x1a\n        /* \"#utility.yul\":20511:20514   */\n      dup4\n        /* \"#utility.yul\":20452:20519   */\n      tag_186\n      jump\t// in\n    tag_404:\n        /* \"#utility.yul\":20445:20519   */\n      swap2\n      pop\n        /* \"#utility.yul\":20528:20621   */\n      tag_405\n        /* \"#utility.yul\":20617:20620   */\n      dup3\n        /* \"#utility.yul\":20528:20621   */\n      tag_194\n      jump\t// in\n    tag_405:\n        /* \"#utility.yul\":20646:20648   */\n      0x20\n        /* \"#utility.yul\":20641:20644   */\n      dup3\n        /* \"#utility.yul\":20637:20649   */\n      add\n        /* \"#utility.yul\":20630:20649   */\n      swap1\n      pop\n        /* \"#utility.yul\":20289:20655   */\n      swap2\n      swap1\n      pop\n      jump\t// out\n        /* \"#utility.yul\":20661:21080   */\n    tag_115:\n        /* \"#utility.yul\":20827:20831   */\n      0x00\n        /* \"#utility.yul\":20865:20867   */\n      0x20\n        /* \"#utility.yul\":20854:20863   */\n      dup3\n        /* \"#utility.yul\":20850:20868   */\n      add\n        /* \"#utility.yul\":20842:20868   */\n      swap1\n      pop\n        /* \"#utility.yul\":20914:20923   */\n      dup2\n        /* \"#utility.yul\":20908:20912   */\n      dup2\n        /* \"#utility.yul\":20904:20924   */\n      sub\n        /* \"#utility.yul\":20900:20901   */\n      0x00\n        /* \"#utility.yul\":20889:20898   */\n      dup4\n        /* \"#utility.yul\":20885:20902   */\n      add\n        /* \"#utility.yul\":20878:20925   */\n      mstore\n        /* \"#utility.yul\":20942:21073   */\n      tag_407\n        /* \"#utility.yul\":21068:21072   */\n      dup2\n        /* \"#utility.yul\":20942:21073   */\n      tag_195\n      jump\t// in\n    tag_407:\n        /* \"#utility.yul\":20934:21073   */\n      swap1\n      pop\n        /* \"#utility.yul\":20661:21080   */\n      swap2\n      swap1\n      pop\n      jump\t// out\n        /* \"#utility.yul\":21086:21268   */\n    tag_196:\n        /* \"#utility.yul\":21226:21260   */\n      0x4f776e61626c653a2063616c6c6572206973206e6f7420746865206f776e6572\n        /* \"#utility.yul\":21222:21223   */\n      0x00\n        /* \"#utility.yul\":21214:21220   */\n      dup3\n        /* \"#utility.yul\":21210:21224   */\n      add\n        /* \"#utility.yul\":21203:21261   */\n      mstore\n        /* \"#utility.yul\":21086:21268   */\n      pop\n      jump\t// out\n        /* \"#utility.yul\":21274:21640   */\n    tag_197:\n        /* \"#utility.yul\":21416:21419   */\n      0x00\n        /* \"#utility.yul\":21437:21504   */\n      tag_410\n        /* \"#utility.yul\":21501:21503   */\n      0x20\n        /* \"#utility.yul\":21496:21499   */\n      dup4\n        /* \"#utility.yul\":21437:21504   */\n      tag_186\n      jump\t// in\n    tag_410:\n        /* \"#utility.yul\":21430:21504   */\n      swap2\n      pop\n        /* \"#utility.yul\":21513:21606   */\n      tag_411\n        /* \"#utility.yul\":21602:21605   */\n      dup3\n        /* \"#utility.yul\":21513:21606   */\n      tag_196\n      jump\t// in\n    tag_411:\n        /* \"#utility.yul\":21631:21633   */\n      0x20\n        /* \"#utility.yul\":21626:21629   */\n      dup3\n        /* \"#utility.yul\":21622:21634   */\n      add\n        /* \"#utility.yul\":21615:21634   */\n      swap1\n      pop\n        /* \"#utility.yul\":21274:21640   */\n      swap2\n      swap1\n      pop\n      jump\t// out\n        /* \"#utility.yul\":21646:22065   */\n    tag_122:\n        /* \"#utility.yul\":21812:21816   */\n      0x00\n        /* \"#utility.yul\":21850:21852   */\n      0x20\n        /* \"#utility.yul\":21839:21848   */\n      dup3\n        /* \"#utility.yul\":21835:21853   */\n      add\n        /* \"#utility.yul\":21827:21853   */\n      swap1\n      pop\n        /* \"#utility.yul\":21899:21908   */\n      dup2\n        /* \"#utility.yul\":21893:21897   */\n      dup2\n        /* \"#utility.yul\":21889:21909   */\n      sub\n        /* \"#utility.yul\":21885:21886   */\n      0x00\n        /* \"#utility.yul\":21874:21883   */\n      dup4\n        /* \"#utility.yul\":21870:21887   */\n      add\n        /* \"#utility.yul\":21863:21910   */\n      mstore\n        /* \"#utility.yul\":21927:22058   */\n      tag_413\n        /* \"#utility.yul\":22053:22057   */\n      dup2\n        /* \"#utility.yul\":21927:22058   */\n      tag_197\n      jump\t// in\n    tag_413:\n        /* \"#utility.yul\":21919:22058   */\n      swap1\n      pop\n        /* \"#utility.yul\":21646:22065   */\n      swap2\n      swap1\n      pop\n      jump\t// out\n        /* \"#utility.yul\":22071:22513   */\n    tag_125:\n        /* \"#utility.yul\":22220:22224   */\n      0x00\n        /* \"#utility.yul\":22258:22260   */\n      0x60\n        /* \"#utility.yul\":22247:22256   */\n      dup3\n        /* \"#utility.yul\":22243:22261   */\n      add\n        /* \"#utility.yul\":22235:22261   */\n      swap1\n      pop\n        /* \"#utility.yul\":22271:22342   */\n      tag_415\n        /* \"#utility.yul\":22339:22340   */\n      0x00\n        /* \"#utility.yul\":22328:22337   */\n      dup4\n        /* \"#utility.yul\":22324:22341   */\n      add\n        /* \"#utility.yul\":22315:22321   */\n      dup7\n        /* \"#utility.yul\":22271:22342   */\n      tag_163\n      jump\t// in\n    tag_415:\n        /* \"#utility.yul\":22352:22424   */\n      tag_416\n        /* \"#utility.yul\":22420:22422   */\n      0x20\n        /* \"#utility.yul\":22409:22418   */\n      dup4\n        /* \"#utility.yul\":22405:22423   */\n      add\n        /* \"#utility.yul\":22396:22402   */\n      dup6\n        /* \"#utility.yul\":22352:22424   */\n      tag_163\n      jump\t// in\n    tag_416:\n        /* \"#utility.yul\":22434:22506   */\n      tag_417\n        /* \"#utility.yul\":22502:22504   */\n      0x40\n        /* \"#utility.yul\":22491:22500   */\n      dup4\n        /* \"#utility.yul\":22487:22505   */\n      add\n        /* \"#utility.yul\":22478:22484   */\n      dup5\n        /* \"#utility.yul\":22434:22506   */\n      tag_164\n      jump\t// in\n    tag_417:\n        /* \"#utility.yul\":22071:22513   */\n      swap5\n      swap4\n      pop\n      pop\n      pop\n      pop\n      jump\t// out\n        /* \"#utility.yul\":22519:22700   */\n    tag_198:\n        /* \"#utility.yul\":22659:22692   */\n      0x5472616e7366657248656c7065723a736166655472616e7366657246726f6d00\n        /* \"#utility.yul\":22655:22656   */\n      0x00\n        /* \"#utility.yul\":22647:22653   */\n      dup3\n        /* \"#utility.yul\":22643:22657   */\n      add\n        /* \"#utility.yul\":22636:22693   */\n      mstore\n        /* \"#utility.yul\":22519:22700   */\n      pop\n      jump\t// out\n        /* \"#utility.yul\":22706:23072   */\n    tag_199:\n        /* \"#utility.yul\":22848:22851   */\n      0x00\n        /* \"#utility.yul\":22869:22936   */\n      tag_420\n        /* \"#utility.yul\":22933:22935   */\n      0x1f\n        /* \"#utility.yul\":22928:22931   */\n      dup4\n        /* \"#utility.yul\":22869:22936   */\n      tag_186\n      jump\t// in\n    tag_420:\n        /* \"#utility.yul\":22862:22936   */\n      swap2\n      pop\n        /* \"#utility.yul\":22945:23038   */\n      tag_421\n        /* \"#utility.yul\":23034:23037   */\n      dup3\n        /* \"#utility.yul\":22945:23038   */\n      tag_198\n      jump\t// in\n    tag_421:\n        /* \"#utility.yul\":23063:23065   */\n      0x20\n        /* \"#utility.yul\":23058:23061   */\n      dup3\n        /* \"#utility.yul\":23054:23066   */\n      add\n        /* \"#utility.yul\":23047:23066   */\n      swap1\n      pop\n        /* \"#utility.yul\":22706:23072   */\n      swap2\n      swap1\n      pop\n      jump\t// out\n        /* \"#utility.yul\":23078:23497   */\n    tag_135:\n        /* \"#utility.yul\":23244:23248   */\n      0x00\n        /* \"#utility.yul\":23282:23284   */\n      0x20\n        /* \"#utility.yul\":23271:23280   */\n      dup3\n        /* \"#utility.yul\":23267:23285   */\n      add\n        /* \"#utility.yul\":23259:23285   */\n      swap1\n      pop\n        /* \"#utility.yul\":23331:23340   */\n      dup2\n        /* \"#utility.yul\":23325:23329   */\n      dup2\n        /* \"#utility.yul\":23321:23341   */\n      sub\n        /* \"#utility.yul\":23317:23318   */\n      0x00\n        /* \"#utility.yul\":23306:23315   */\n      dup4\n        /* \"#utility.yul\":23302:23319   */\n      add\n        /* \"#utility.yul\":23295:23342   */\n      mstore\n        /* \"#utility.yul\":23359:23490   */\n      tag_423\n        /* \"#utility.yul\":23485:23489   */\n      dup2\n        /* \"#utility.yul\":23359:23490   */\n      tag_199\n      jump\t// in\n    tag_423:\n        /* \"#utility.yul\":23351:23490   */\n      swap1\n      pop\n        /* \"#utility.yul\":23078:23497   */\n      swap2\n      swap1\n      pop\n      jump\t// out\n\n    auxdata: 0xa2646970667358221220aa5a6b1c6e2dda01d7f43bbe45ba90d915bcdc42855a6e7e38c800856e1890ba64736f6c63430008120033\n}\n",
				"bytecode": {
					"linkReferences": {},
					"object": "60806040523480156200001157600080fd5b5060405162001dfb38038062001dfb8339818101604052810190620000379190620005b5565b620000576200004b620000b260201b60201c565b620000ba60201b60201c565b60005b8251811015620000a957620000938382815181106200007e576200007d6200061b565b5b6020026020010151836200017e60201b60201c565b8080620000a09062000683565b9150506200005a565b50505062000915565b600033905090565b60008060009054906101000a900473ffffffffffffffffffffffffffffffffffffffff169050816000806101000a81548173ffffffffffffffffffffffffffffffffffffffff021916908373ffffffffffffffffffffffffffffffffffffffff1602179055508173ffffffffffffffffffffffffffffffffffffffff168173ffffffffffffffffffffffffffffffffffffffff167f8be0079c531659141344cd1fd0a4f28419497f9722a3daafe3b4186f6b6457e060405160405180910390a35050565b6200018e620001ca60201b60201c565b620001c682827fffffffffffffffffffffffffffffffffffffffffffffffffffffffffffffffff6200025b60201b620005151760201c565b5050565b620001da620000b260201b60201c565b73ffffffffffffffffffffffffffffffffffffffff16620002006200039e60201b60201c565b73ffffffffffffffffffffffffffffffffffffffff161462000259576040517f08c379a0000000000000000000000000000000000000000000000000000000008152600401620002509062000731565b60405180910390fd5b565b6000808473ffffffffffffffffffffffffffffffffffffffff1663095ea7b385856040516024016200028f92919062000775565b6040516020818303038152906040529060e01b6020820180517bffffffffffffffffffffffffffffffffffffffffffffffffffffffff8381831617835250505050604051620002df91906200081b565b6000604051808303816000865af19150503d80600081146200031e576040519150601f19603f3d011682016040523d82523d6000602084013e62000323565b606091505b50915091508180156200035557506000815114806200035457508080602001905181019062000353919062000871565b5b5b62000397576040517f08c379a00000000000000000000000000000000000000000000000000000000081526004016200038e90620008f3565b60405180910390fd5b5050505050565b60008060009054906101000a900473ffffffffffffffffffffffffffffffffffffffff16905090565b6000604051905090565b600080fd5b600080fd5b600080fd5b6000601f19601f8301169050919050565b7f4e487b7100000000000000000000000000000000000000000000000000000000600052604160045260246000fd5b6200042b82620003e0565b810181811067ffffffffffffffff821117156200044d576200044c620003f1565b5b80604052505050565b600062000462620003c7565b905062000470828262000420565b919050565b600067ffffffffffffffff821115620004935762000492620003f1565b5b602082029050602081019050919050565b600080fd5b600073ffffffffffffffffffffffffffffffffffffffff82169050919050565b6000620004d682620004a9565b9050919050565b620004e881620004c9565b8114620004f457600080fd5b50565b6000815190506200050881620004dd565b92915050565b6000620005256200051f8462000475565b62000456565b905080838252602082019050602084028301858111156200054b576200054a620004a4565b5b835b81811015620005785780620005638882620004f7565b8452602084019350506020810190506200054d565b5050509392505050565b600082601f8301126200059a5762000599620003db565b5b8151620005ac8482602086016200050e565b91505092915050565b60008060408385031215620005cf57620005ce620003d1565b5b600083015167ffffffffffffffff811115620005f057620005ef620003d6565b5b620005fe8582860162000582565b92505060206200061185828601620004f7565b9150509250929050565b7f4e487b7100000000000000000000000000000000000000000000000000000000600052603260045260246000fd5b7f4e487b7100000000000000000000000000000000000000000000000000000000600052601160045260246000fd5b6000819050919050565b6000620006908262000679565b91507fffffffffffffffffffffffffffffffffffffffffffffffffffffffffffffffff8203620006c557620006c46200064a565b5b600182019050919050565b600082825260208201905092915050565b7f4f776e61626c653a2063616c6c6572206973206e6f7420746865206f776e6572600082015250565b600062000719602083620006d0565b91506200072682620006e1565b602082019050919050565b600060208201905081810360008301526200074c816200070a565b9050919050565b6200075e81620004c9565b82525050565b6200076f8162000679565b82525050565b60006040820190506200078c600083018562000753565b6200079b602083018462000764565b9392505050565b600081519050919050565b600081905092915050565b60005b83811015620007d8578082015181840152602081019050620007bb565b60008484015250505050565b6000620007f182620007a2565b620007fd8185620007ad565b93506200080f818560208601620007b8565b80840191505092915050565b6000620008298284620007e4565b915081905092915050565b60008115159050919050565b6200084b8162000834565b81146200085757600080fd5b50565b6000815190506200086b8162000840565b92915050565b6000602082840312156200088a5762000889620003d1565b5b60006200089a848285016200085a565b91505092915050565b7f5472616e7366657248656c7065723a73616665417070726f7665000000000000600082015250565b6000620008db601a83620006d0565b9150620008e882620008a3565b602082019050919050565b600060208201905081810360008301526200090e81620008cc565b9050919050565b6114d680620009256000396000f3fe60806040526004361061007b5760003560e01c80638da5cb5b1161004e5780638da5cb5b14610119578063dd62ed3e14610144578063e34abd8814610181578063f2fde38b146101be5761007b565b806303105b04146100805780630a2fb374146100a95780632e065ae5146100c5578063715018a614610102575b600080fd5b34801561008c57600080fd5b506100a760048036038101906100a291906109b6565b6101e7565b005b6100c360048036038101906100be9190610a91565b61021e565b005b3480156100d157600080fd5b506100ec60048036038101906100e79190610af1565b6102e5565b6040516100f99190610c8e565b60405180910390f35b34801561010e57600080fd5b506101176103a6565b005b34801561012557600080fd5b5061012e6103ba565b60405161013b9190610cb9565b60405180910390f35b34801561015057600080fd5b5061016b600480360381019061016691906109b6565b6103e3565b6040516101789190610ce3565b60405180910390f35b34801561018d57600080fd5b506101a860048036038101906101a39190610eaa565b610469565b6040516101b59190610f57565b60405180910390f35b3480156101ca57600080fd5b506101e560048036038101906101e09190610f79565b610492565b005b6101ef61064b565b61021a82827fffffffffffffffffffffffffffffffffffffffffffffffffffffffffffffffff610515565b5050565b600061022a84846102e5565b90506000816020015160001c9050610244813330866106c9565b816000015173ffffffffffffffffffffffffffffffffffffffff16634cd480bd348460200151868660400151876060015188608001518960a001518a60c001518b60e001516040518a63ffffffff1660e01b81526004016102ac989796959493929190610fc4565b6000604051808303818588803b1580156102c557600080fd5b505af11580156102d9573d6000803e3d6000fd5b50505050505050505050565b6102ed6108ce565b6102f56108ce565b83838101906103049190611080565b88600001896020018a6040018b6060018c6080018d60a0018e60c0018f60e0018881525088600381111561033b5761033a610b75565b5b600381111561034d5761034c610b75565b5b81525088815250888152508881525088815250888152508873ffffffffffffffffffffffffffffffffffffffff1673ffffffffffffffffffffffffffffffffffffffff1681525050505050505050508091505092915050565b6103ae61064b565b6103b86000610802565b565b60008060009054906101000a900473ffffffffffffffffffffffffffffffffffffffff16905090565b60008273ffffffffffffffffffffffffffffffffffffffff1663dd62ed3e30846040518363ffffffff1660e01b8152600401610420929190611136565b602060405180830381865afa15801561043d573d6000803e3d6000fd5b505050506040513d601f19601f820116820180604052508101906104619190611174565b905092915050565b60608160405160200161047c9190610c8e565b6040516020818303038152906040529050919050565b61049a61064b565b600073ffffffffffffffffffffffffffffffffffffffff168173ffffffffffffffffffffffffffffffffffffffff1603610509576040517f08c379a000000000000000000000000000000000000000000000000000000000815260040161050090611224565b60405180910390fd5b61051281610802565b50565b6000808473ffffffffffffffffffffffffffffffffffffffff1663095ea7b38585604051602401610547929190611244565b6040516020818303038152906040529060e01b6020820180517bffffffffffffffffffffffffffffffffffffffffffffffffffffffff838183161783525050505060405161059591906112a9565b6000604051808303816000865af19150503d80600081146105d2576040519150601f19603f3d011682016040523d82523d6000602084013e6105d7565b606091505b5091509150818015610605575060008151148061060457508080602001905181019061060391906112f8565b5b5b610644576040517f08c379a000000000000000000000000000000000000000000000000000000000815260040161063b90611371565b60405180910390fd5b5050505050565b6106536108c6565b73ffffffffffffffffffffffffffffffffffffffff166106716103ba565b73ffffffffffffffffffffffffffffffffffffffff16146106c7576040517f08c379a00000000000000000000000000000000000000000000000000000000081526004016106be906113dd565b60405180910390fd5b565b6000808573ffffffffffffffffffffffffffffffffffffffff166323b872dd8686866040516024016106fd939291906113fd565b6040516020818303038152906040529060e01b6020820180517bffffffffffffffffffffffffffffffffffffffffffffffffffffffff838183161783525050505060405161074b91906112a9565b6000604051808303816000865af19150503d8060008114610788576040519150601f19603f3d011682016040523d82523d6000602084013e61078d565b606091505b50915091508180156107bb57506000815114806107ba5750808060200190518101906107b991906112f8565b5b5b6107fa576040517f08c379a00000000000000000000000000000000000000000000000000000000081526004016107f190611480565b60405180910390fd5b505050505050565b60008060009054906101000a900473ffffffffffffffffffffffffffffffffffffffff169050816000806101000a81548173ffffffffffffffffffffffffffffffffffffffff021916908373ffffffffffffffffffffffffffffffffffffffff1602179055508173ffffffffffffffffffffffffffffffffffffffff168173ffffffffffffffffffffffffffffffffffffffff167f8be0079c531659141344cd1fd0a4f28419497f9722a3daafe3b4186f6b6457e060405160405180910390a35050565b600033905090565b604051806101000160405280600073ffffffffffffffffffffffffffffffffffffffff16815260200160008019168152602001600080191681526020016000815260200160008019168152602001600081526020016000600381111561093757610936610b75565b5b8152602001600081525090565b6000604051905090565b600080fd5b600080fd5b600073ffffffffffffffffffffffffffffffffffffffff82169050919050565b600061098382610958565b9050919050565b61099381610978565b811461099e57600080fd5b50565b6000813590506109b08161098a565b92915050565b600080604083850312156109cd576109cc61094e565b5b60006109db858286016109a1565b92505060206109ec858286016109a1565b9150509250929050565b600080fd5b600080fd5b600080fd5b60008083601f840112610a1b57610a1a6109f6565b5b8235905067ffffffffffffffff811115610a3857610a376109fb565b5b602083019150836001820283011115610a5457610a53610a00565b5b9250929050565b6000819050919050565b610a6e81610a5b565b8114610a7957600080fd5b50565b600081359050610a8b81610a65565b92915050565b600080600060408486031215610aaa57610aa961094e565b5b600084013567ffffffffffffffff811115610ac857610ac7610953565b5b610ad486828701610a05565b93509350506020610ae786828701610a7c565b9150509250925092565b60008060208385031215610b0857610b0761094e565b5b600083013567ffffffffffffffff811115610b2657610b25610953565b5b610b3285828601610a05565b92509250509250929050565b610b4781610978565b82525050565b6000819050919050565b610b6081610b4d565b82525050565b610b6f81610a5b565b82525050565b7f4e487b7100000000000000000000000000000000000000000000000000000000600052602160045260246000fd5b60048110610bb557610bb4610b75565b5b50565b6000819050610bc682610ba4565b919050565b6000610bd682610bb8565b9050919050565b610be681610bcb565b82525050565b61010082016000820151610c036000850182610b3e565b506020820151610c166020850182610b57565b506040820151610c296040850182610b57565b506060820151610c3c6060850182610b66565b506080820151610c4f6080850182610b57565b5060a0820151610c6260a0850182610b66565b5060c0820151610c7560c0850182610bdd565b5060e0820151610c8860e0850182610b66565b50505050565b600061010082019050610ca46000830184610bec565b92915050565b610cb381610978565b82525050565b6000602082019050610cce6000830184610caa565b92915050565b610cdd81610a5b565b82525050565b6000602082019050610cf86000830184610cd4565b92915050565b600080fd5b6000601f19601f8301169050919050565b7f4e487b7100000000000000000000000000000000000000000000000000000000600052604160045260246000fd5b610d4c82610d03565b810181811067ffffffffffffffff82111715610d6b57610d6a610d14565b5b80604052505050565b6000610d7e610944565b9050610d8a8282610d43565b919050565b610d9881610b4d565b8114610da357600080fd5b50565b600081359050610db581610d8f565b92915050565b60048110610dc857600080fd5b50565b600081359050610dda81610dbb565b92915050565b60006101008284031215610df757610df6610cfe565b5b610e02610100610d74565b90506000610e12848285016109a1565b6000830152506020610e2684828501610da6565b6020830152506040610e3a84828501610da6565b6040830152506060610e4e84828501610a7c565b6060830152506080610e6284828501610da6565b60808301525060a0610e7684828501610a7c565b60a08301525060c0610e8a84828501610dcb565b60c08301525060e0610e9e84828501610a7c565b60e08301525092915050565b60006101008284031215610ec157610ec061094e565b5b6000610ecf84828501610de0565b91505092915050565b600081519050919050565b600082825260208201905092915050565b60005b83811015610f12578082015181840152602081019050610ef7565b60008484015250505050565b6000610f2982610ed8565b610f338185610ee3565b9350610f43818560208601610ef4565b610f4c81610d03565b840191505092915050565b60006020820190508181036000830152610f718184610f1e565b905092915050565b600060208284031215610f8f57610f8e61094e565b5b6000610f9d848285016109a1565b91505092915050565b610faf81610b4d565b82525050565b610fbe81610bcb565b82525050565b600061010082019050610fda600083018b610fa6565b610fe7602083018a610cd4565b610ff46040830189610fa6565b6110016060830188610cd4565b61100e6080830187610fa6565b61101b60a0830186610cd4565b61102860c0830185610fb5565b61103560e0830184610cd4565b9998505050505050505050565b600061104d82610958565b9050919050565b61105d81611042565b811461106857600080fd5b50565b60008135905061107a81611054565b92915050565b600080600080600080600080610100898b0312156110a1576110a061094e565b5b60006110af8b828c0161106b565b98505060206110c08b828c01610da6565b97505060406110d18b828c01610da6565b96505060606110e28b828c01610a7c565b95505060806110f38b828c01610da6565b94505060a06111048b828c01610a7c565b93505060c06111158b828c01610dcb565b92505060e06111268b828c01610a7c565b9150509295985092959890939650565b600060408201905061114b6000830185610caa565b6111586020830184610caa565b9392505050565b60008151905061116e81610a65565b92915050565b60006020828403121561118a5761118961094e565b5b60006111988482850161115f565b91505092915050565b600082825260208201905092915050565b7f4f776e61626c653a206e6577206f776e657220697320746865207a65726f206160008201527f6464726573730000000000000000000000000000000000000000000000000000602082015250565b600061120e6026836111a1565b9150611219826111b2565b604082019050919050565b6000602082019050818103600083015261123d81611201565b9050919050565b60006040820190506112596000830185610caa565b6112666020830184610cd4565b9392505050565b600081905092915050565b600061128382610ed8565b61128d818561126d565b935061129d818560208601610ef4565b80840191505092915050565b60006112b58284611278565b915081905092915050565b60008115159050919050565b6112d5816112c0565b81146112e057600080fd5b50565b6000815190506112f2816112cc565b92915050565b60006020828403121561130e5761130d61094e565b5b600061131c848285016112e3565b91505092915050565b7f5472616e7366657248656c7065723a73616665417070726f7665000000000000600082015250565b600061135b601a836111a1565b915061136682611325565b602082019050919050565b6000602082019050818103600083015261138a8161134e565b9050919050565b7f4f776e61626c653a2063616c6c6572206973206e6f7420746865206f776e6572600082015250565b60006113c76020836111a1565b91506113d282611391565b602082019050919050565b600060208201905081810360008301526113f6816113ba565b9050919050565b60006060820190506114126000830186610caa565b61141f6020830185610caa565b61142c6040830184610cd4565b949350505050565b7f5472616e7366657248656c7065723a736166655472616e7366657246726f6d00600082015250565b600061146a601f836111a1565b915061147582611434565b602082019050919050565b600060208201905081810360008301526114998161145d565b905091905056fea2646970667358221220aa5a6b1c6e2dda01d7f43bbe45ba90d915bcdc42855a6e7e38c800856e1890ba64736f6c63430008120033",
					"opcodes": "PUSH1 0x80 PUSH1 0x40 MSTORE CALLVALUE DUP1 ISZERO PUSH3 0x11 JUMPI PUSH1 0x0 DUP1 REVERT JUMPDEST POP PUSH1 0x40 MLOAD PUSH3 0x1DFB CODESIZE SUB DUP1 PUSH3 0x1DFB DUP4 CODECOPY DUP2 DUP2 ADD PUSH1 0x40 MSTORE DUP2 ADD SWAP1 PUSH3 0x37 SWAP2 SWAP1 PUSH3 0x5B5 JUMP JUMPDEST PUSH3 0x57 PUSH3 0x4B PUSH3 0xB2 PUSH1 0x20 SHL PUSH1 0x20 SHR JUMP JUMPDEST PUSH3 0xBA PUSH1 0x20 SHL PUSH1 0x20 SHR JUMP JUMPDEST PUSH1 0x0 JUMPDEST DUP3 MLOAD DUP2 LT ISZERO PUSH3 0xA9 JUMPI PUSH3 0x93 DUP4 DUP3 DUP2 MLOAD DUP2 LT PUSH3 0x7E JUMPI PUSH3 0x7D PUSH3 0x61B JUMP JUMPDEST JUMPDEST PUSH1 0x20 MUL PUSH1 0x20 ADD ADD MLOAD DUP4 PUSH3 0x17E PUSH1 0x20 SHL PUSH1 0x20 SHR JUMP JUMPDEST DUP1 DUP1 PUSH3 0xA0 SWAP1 PUSH3 0x683 JUMP JUMPDEST SWAP2 POP POP PUSH3 0x5A JUMP JUMPDEST POP POP POP PUSH3 0x915 JUMP JUMPDEST PUSH1 0x0 CALLER SWAP1 POP SWAP1 JUMP JUMPDEST PUSH1 0x0 DUP1 PUSH1 0x0 SWAP1 SLOAD SWAP1 PUSH2 0x100 EXP SWAP1 DIV PUSH20 0xFFFFFFFFFFFFFFFFFFFFFFFFFFFFFFFFFFFFFFFF AND SWAP1 POP DUP2 PUSH1 0x0 DUP1 PUSH2 0x100 EXP DUP2 SLOAD DUP2 PUSH20 0xFFFFFFFFFFFFFFFFFFFFFFFFFFFFFFFFFFFFFFFF MUL NOT AND SWAP1 DUP4 PUSH20 0xFFFFFFFFFFFFFFFFFFFFFFFFFFFFFFFFFFFFFFFF AND MUL OR SWAP1 SSTORE POP DUP2 PUSH20 0xFFFFFFFFFFFFFFFFFFFFFFFFFFFFFFFFFFFFFFFF AND DUP2 PUSH20 0xFFFFFFFFFFFFFFFFFFFFFFFFFFFFFFFFFFFFFFFF AND PUSH32 0x8BE0079C531659141344CD1FD0A4F28419497F9722A3DAAFE3B4186F6B6457E0 PUSH1 0x40 MLOAD PUSH1 0x40 MLOAD DUP1 SWAP2 SUB SWAP1 LOG3 POP POP JUMP JUMPDEST PUSH3 0x18E PUSH3 0x1CA PUSH1 0x20 SHL PUSH1 0x20 SHR JUMP JUMPDEST PUSH3 0x1C6 DUP3 DUP3 PUSH32 0xFFFFFFFFFFFFFFFFFFFFFFFFFFFFFFFFFFFFFFFFFFFFFFFFFFFFFFFFFFFFFFFF PUSH3 0x25B PUSH1 0x20 SHL PUSH3 0x515 OR PUSH1 0x20 SHR JUMP JUMPDEST POP POP JUMP JUMPDEST PUSH3 0x1DA PUSH3 0xB2 PUSH1 0x20 SHL PUSH1 0x20 SHR JUMP JUMPDEST PUSH20 0xFFFFFFFFFFFFFFFFFFFFFFFFFFFFFFFFFFFFFFFF AND PUSH3 0x200 PUSH3 0x39E PUSH1 0x20 SHL PUSH1 0x20 SHR JUMP JUMPDEST PUSH20 0xFFFFFFFFFFFFFFFFFFFFFFFFFFFFFFFFFFFFFFFF AND EQ PUSH3 0x259 JUMPI PUSH1 0x40 MLOAD PUSH32 0x8C379A000000000000000000000000000000000000000000000000000000000 DUP2 MSTORE PUSH1 0x4 ADD PUSH3 0x250 SWAP1 PUSH3 0x731 JUMP JUMPDEST PUSH1 0x40 MLOAD DUP1 SWAP2 SUB SWAP1 REVERT JUMPDEST JUMP JUMPDEST PUSH1 0x0 DUP1 DUP5 PUSH20 0xFFFFFFFFFFFFFFFFFFFFFFFFFFFFFFFFFFFFFFFF AND PUSH4 0x95EA7B3 DUP6 DUP6 PUSH1 0x40 MLOAD PUSH1 0x24 ADD PUSH3 0x28F SWAP3 SWAP2 SWAP1 PUSH3 0x775 JUMP JUMPDEST PUSH1 0x40 MLOAD PUSH1 0x20 DUP2 DUP4 SUB SUB DUP2 MSTORE SWAP1 PUSH1 0x40 MSTORE SWAP1 PUSH1 0xE0 SHL PUSH1 0x20 DUP3 ADD DUP1 MLOAD PUSH28 0xFFFFFFFFFFFFFFFFFFFFFFFFFFFFFFFFFFFFFFFFFFFFFFFFFFFFFFFF DUP4 DUP2 DUP4 AND OR DUP4 MSTORE POP POP POP POP PUSH1 0x40 MLOAD PUSH3 0x2DF SWAP2 SWAP1 PUSH3 0x81B JUMP JUMPDEST PUSH1 0x0 PUSH1 0x40 MLOAD DUP1 DUP4 SUB DUP2 PUSH1 0x0 DUP7 GAS CALL SWAP2 POP POP RETURNDATASIZE DUP1 PUSH1 0x0 DUP2 EQ PUSH3 0x31E JUMPI PUSH1 0x40 MLOAD SWAP2 POP PUSH1 0x1F NOT PUSH1 0x3F RETURNDATASIZE ADD AND DUP3 ADD PUSH1 0x40 MSTORE RETURNDATASIZE DUP3 MSTORE RETURNDATASIZE PUSH1 0x0 PUSH1 0x20 DUP5 ADD RETURNDATACOPY PUSH3 0x323 JUMP JUMPDEST PUSH1 0x60 SWAP2 POP JUMPDEST POP SWAP2 POP SWAP2 POP DUP2 DUP1 ISZERO PUSH3 0x355 JUMPI POP PUSH1 0x0 DUP2 MLOAD EQ DUP1 PUSH3 0x354 JUMPI POP DUP1 DUP1 PUSH1 0x20 ADD SWAP1 MLOAD DUP2 ADD SWAP1 PUSH3 0x353 SWAP2 SWAP1 PUSH3 0x871 JUMP JUMPDEST JUMPDEST JUMPDEST PUSH3 0x397 JUMPI PUSH1 0x40 MLOAD PUSH32 0x8C379A000000000000000000000000000000000000000000000000000000000 DUP2 MSTORE PUSH1 0x4 ADD PUSH3 0x38E SWAP1 PUSH3 0x8F3 JUMP JUMPDEST PUSH1 0x40 MLOAD DUP1 SWAP2 SUB SWAP1 REVERT JUMPDEST POP POP POP POP POP JUMP JUMPDEST PUSH1 0x0 DUP1 PUSH1 0x0 SWAP1 SLOAD SWAP1 PUSH2 0x100 EXP SWAP1 DIV PUSH20 0xFFFFFFFFFFFFFFFFFFFFFFFFFFFFFFFFFFFFFFFF AND SWAP1 POP SWAP1 JUMP JUMPDEST PUSH1 0x0 PUSH1 0x40 MLOAD SWAP1 POP SWAP1 JUMP JUMPDEST PUSH1 0x0 DUP1 REVERT JUMPDEST PUSH1 0x0 DUP1 REVERT JUMPDEST PUSH1 0x0 DUP1 REVERT JUMPDEST PUSH1 0x0 PUSH1 0x1F NOT PUSH1 0x1F DUP4 ADD AND SWAP1 POP SWAP2 SWAP1 POP JUMP JUMPDEST PUSH32 0x4E487B7100000000000000000000000000000000000000000000000000000000 PUSH1 0x0 MSTORE PUSH1 0x41 PUSH1 0x4 MSTORE PUSH1 0x24 PUSH1 0x0 REVERT JUMPDEST PUSH3 0x42B DUP3 PUSH3 0x3E0 JUMP JUMPDEST DUP2 ADD DUP2 DUP2 LT PUSH8 0xFFFFFFFFFFFFFFFF DUP3 GT OR ISZERO PUSH3 0x44D JUMPI PUSH3 0x44C PUSH3 0x3F1 JUMP JUMPDEST JUMPDEST DUP1 PUSH1 0x40 MSTORE POP POP POP JUMP JUMPDEST PUSH1 0x0 PUSH3 0x462 PUSH3 0x3C7 JUMP JUMPDEST SWAP1 POP PUSH3 0x470 DUP3 DUP3 PUSH3 0x420 JUMP JUMPDEST SWAP2 SWAP1 POP JUMP JUMPDEST PUSH1 0x0 PUSH8 0xFFFFFFFFFFFFFFFF DUP3 GT ISZERO PUSH3 0x493 JUMPI PUSH3 0x492 PUSH3 0x3F1 JUMP JUMPDEST JUMPDEST PUSH1 0x20 DUP3 MUL SWAP1 POP PUSH1 0x20 DUP2 ADD SWAP1 POP SWAP2 SWAP1 POP JUMP JUMPDEST PUSH1 0x0 DUP1 REVERT JUMPDEST PUSH1 0x0 PUSH20 0xFFFFFFFFFFFFFFFFFFFFFFFFFFFFFFFFFFFFFFFF DUP3 AND SWAP1 POP SWAP2 SWAP1 POP JUMP JUMPDEST PUSH1 0x0 PUSH3 0x4D6 DUP3 PUSH3 0x4A9 JUMP JUMPDEST SWAP1 POP SWAP2 SWAP1 POP JUMP JUMPDEST PUSH3 0x4E8 DUP2 PUSH3 0x4C9 JUMP JUMPDEST DUP2 EQ PUSH3 0x4F4 JUMPI PUSH1 0x0 DUP1 REVERT JUMPDEST POP JUMP JUMPDEST PUSH1 0x0 DUP2 MLOAD SWAP1 POP PUSH3 0x508 DUP2 PUSH3 0x4DD JUMP JUMPDEST SWAP3 SWAP2 POP POP JUMP JUMPDEST PUSH1 0x0 PUSH3 0x525 PUSH3 0x51F DUP5 PUSH3 0x475 JUMP JUMPDEST PUSH3 0x456 JUMP JUMPDEST SWAP1 POP DUP1 DUP4 DUP3 MSTORE PUSH1 0x20 DUP3 ADD SWAP1 POP PUSH1 0x20 DUP5 MUL DUP4 ADD DUP6 DUP2 GT ISZERO PUSH3 0x54B JUMPI PUSH3 0x54A PUSH3 0x4A4 JUMP JUMPDEST JUMPDEST DUP4 JUMPDEST DUP2 DUP2 LT ISZERO PUSH3 0x578 JUMPI DUP1 PUSH3 0x563 DUP9 DUP3 PUSH3 0x4F7 JUMP JUMPDEST DUP5 MSTORE PUSH1 0x20 DUP5 ADD SWAP4 POP POP PUSH1 0x20 DUP2 ADD SWAP1 POP PUSH3 0x54D JUMP JUMPDEST POP POP POP SWAP4 SWAP3 POP POP POP JUMP JUMPDEST PUSH1 0x0 DUP3 PUSH1 0x1F DUP4 ADD SLT PUSH3 0x59A JUMPI PUSH3 0x599 PUSH3 0x3DB JUMP JUMPDEST JUMPDEST DUP2 MLOAD PUSH3 0x5AC DUP5 DUP3 PUSH1 0x20 DUP7 ADD PUSH3 0x50E JUMP JUMPDEST SWAP2 POP POP SWAP3 SWAP2 POP POP JUMP JUMPDEST PUSH1 0x0 DUP1 PUSH1 0x40 DUP4 DUP6 SUB SLT ISZERO PUSH3 0x5CF JUMPI PUSH3 0x5CE PUSH3 0x3D1 JUMP JUMPDEST JUMPDEST PUSH1 0x0 DUP4 ADD MLOAD PUSH8 0xFFFFFFFFFFFFFFFF DUP2 GT ISZERO PUSH3 0x5F0 JUMPI PUSH3 0x5EF PUSH3 0x3D6 JUMP JUMPDEST JUMPDEST PUSH3 0x5FE DUP6 DUP3 DUP7 ADD PUSH3 0x582 JUMP JUMPDEST SWAP3 POP POP PUSH1 0x20 PUSH3 0x611 DUP6 DUP3 DUP7 ADD PUSH3 0x4F7 JUMP JUMPDEST SWAP2 POP POP SWAP3 POP SWAP3 SWAP1 POP JUMP JUMPDEST PUSH32 0x4E487B7100000000000000000000000000000000000000000000000000000000 PUSH1 0x0 MSTORE PUSH1 0x32 PUSH1 0x4 MSTORE PUSH1 0x24 PUSH1 0x0 REVERT JUMPDEST PUSH32 0x4E487B7100000000000000000000000000000000000000000000000000000000 PUSH1 0x0 MSTORE PUSH1 0x11 PUSH1 0x4 MSTORE PUSH1 0x24 PUSH1 0x0 REVERT JUMPDEST PUSH1 0x0 DUP2 SWAP1 POP SWAP2 SWAP1 POP JUMP JUMPDEST PUSH1 0x0 PUSH3 0x690 DUP3 PUSH3 0x679 JUMP JUMPDEST SWAP2 POP PUSH32 0xFFFFFFFFFFFFFFFFFFFFFFFFFFFFFFFFFFFFFFFFFFFFFFFFFFFFFFFFFFFFFFFF DUP3 SUB PUSH3 0x6C5 JUMPI PUSH3 0x6C4 PUSH3 0x64A JUMP JUMPDEST JUMPDEST PUSH1 0x1 DUP3 ADD SWAP1 POP SWAP2 SWAP1 POP JUMP JUMPDEST PUSH1 0x0 DUP3 DUP3 MSTORE PUSH1 0x20 DUP3 ADD SWAP1 POP SWAP3 SWAP2 POP POP JUMP JUMPDEST PUSH32 0x4F776E61626C653A2063616C6C6572206973206E6F7420746865206F776E6572 PUSH1 0x0 DUP3 ADD MSTORE POP JUMP JUMPDEST PUSH1 0x0 PUSH3 0x719 PUSH1 0x20 DUP4 PUSH3 0x6D0 JUMP JUMPDEST SWAP2 POP PUSH3 0x726 DUP3 PUSH3 0x6E1 JUMP JUMPDEST PUSH1 0x20 DUP3 ADD SWAP1 POP SWAP2 SWAP1 POP JUMP JUMPDEST PUSH1 0x0 PUSH1 0x20 DUP3 ADD SWAP1 POP DUP2 DUP2 SUB PUSH1 0x0 DUP4 ADD MSTORE PUSH3 0x74C DUP2 PUSH3 0x70A JUMP JUMPDEST SWAP1 POP SWAP2 SWAP1 POP JUMP JUMPDEST PUSH3 0x75E DUP2 PUSH3 0x4C9 JUMP JUMPDEST DUP3 MSTORE POP POP JUMP JUMPDEST PUSH3 0x76F DUP2 PUSH3 0x679 JUMP JUMPDEST DUP3 MSTORE POP POP JUMP JUMPDEST PUSH1 0x0 PUSH1 0x40 DUP3 ADD SWAP1 POP PUSH3 0x78C PUSH1 0x0 DUP4 ADD DUP6 PUSH3 0x753 JUMP JUMPDEST PUSH3 0x79B PUSH1 0x20 DUP4 ADD DUP5 PUSH3 0x764 JUMP JUMPDEST SWAP4 SWAP3 POP POP POP JUMP JUMPDEST PUSH1 0x0 DUP2 MLOAD SWAP1 POP SWAP2 SWAP1 POP JUMP JUMPDEST PUSH1 0x0 DUP2 SWAP1 POP SWAP3 SWAP2 POP POP JUMP JUMPDEST PUSH1 0x0 JUMPDEST DUP4 DUP2 LT ISZERO PUSH3 0x7D8 JUMPI DUP1 DUP3 ADD MLOAD DUP2 DUP5 ADD MSTORE PUSH1 0x20 DUP2 ADD SWAP1 POP PUSH3 0x7BB JUMP JUMPDEST PUSH1 0x0 DUP5 DUP5 ADD MSTORE POP POP POP POP JUMP JUMPDEST PUSH1 0x0 PUSH3 0x7F1 DUP3 PUSH3 0x7A2 JUMP JUMPDEST PUSH3 0x7FD DUP2 DUP6 PUSH3 0x7AD JUMP JUMPDEST SWAP4 POP PUSH3 0x80F DUP2 DUP6 PUSH1 0x20 DUP7 ADD PUSH3 0x7B8 JUMP JUMPDEST DUP1 DUP5 ADD SWAP2 POP POP SWAP3 SWAP2 POP POP JUMP JUMPDEST PUSH1 0x0 PUSH3 0x829 DUP3 DUP5 PUSH3 0x7E4 JUMP JUMPDEST SWAP2 POP DUP2 SWAP1 POP SWAP3 SWAP2 POP POP JUMP JUMPDEST PUSH1 0x0 DUP2 ISZERO ISZERO SWAP1 POP SWAP2 SWAP1 POP JUMP JUMPDEST PUSH3 0x84B DUP2 PUSH3 0x834 JUMP JUMPDEST DUP2 EQ PUSH3 0x857 JUMPI PUSH1 0x0 DUP1 REVERT JUMPDEST POP JUMP JUMPDEST PUSH1 0x0 DUP2 MLOAD SWAP1 POP PUSH3 0x86B DUP2 PUSH3 0x840 JUMP JUMPDEST SWAP3 SWAP2 POP POP JUMP JUMPDEST PUSH1 0x0 PUSH1 0x20 DUP3 DUP5 SUB SLT ISZERO PUSH3 0x88A JUMPI PUSH3 0x889 PUSH3 0x3D1 JUMP JUMPDEST JUMPDEST PUSH1 0x0 PUSH3 0x89A DUP5 DUP3 DUP6 ADD PUSH3 0x85A JUMP JUMPDEST SWAP2 POP POP SWAP3 SWAP2 POP POP JUMP JUMPDEST PUSH32 0x5472616E7366657248656C7065723A73616665417070726F7665000000000000 PUSH1 0x0 DUP3 ADD MSTORE POP JUMP JUMPDEST PUSH1 0x0 PUSH3 0x8DB PUSH1 0x1A DUP4 PUSH3 0x6D0 JUMP JUMPDEST SWAP2 POP PUSH3 0x8E8 DUP3 PUSH3 0x8A3 JUMP JUMPDEST PUSH1 0x20 DUP3 ADD SWAP1 POP SWAP2 SWAP1 POP JUMP JUMPDEST PUSH1 0x0 PUSH1 0x20 DUP3 ADD SWAP1 POP DUP2 DUP2 SUB PUSH1 0x0 DUP4 ADD MSTORE PUSH3 0x90E DUP2 PUSH3 0x8CC JUMP JUMPDEST SWAP1 POP SWAP2 SWAP1 POP JUMP JUMPDEST PUSH2 0x14D6 DUP1 PUSH3 0x925 PUSH1 0x0 CODECOPY PUSH1 0x0 RETURN INVALID PUSH1 0x80 PUSH1 0x40 MSTORE PUSH1 0x4 CALLDATASIZE LT PUSH2 0x7B JUMPI PUSH1 0x0 CALLDATALOAD PUSH1 0xE0 SHR DUP1 PUSH4 0x8DA5CB5B GT PUSH2 0x4E JUMPI DUP1 PUSH4 0x8DA5CB5B EQ PUSH2 0x119 JUMPI DUP1 PUSH4 0xDD62ED3E EQ PUSH2 0x144 JUMPI DUP1 PUSH4 0xE34ABD88 EQ PUSH2 0x181 JUMPI DUP1 PUSH4 0xF2FDE38B EQ PUSH2 0x1BE JUMPI PUSH2 0x7B JUMP JUMPDEST DUP1 PUSH4 0x3105B04 EQ PUSH2 0x80 JUMPI DUP1 PUSH4 0xA2FB374 EQ PUSH2 0xA9 JUMPI DUP1 PUSH4 0x2E065AE5 EQ PUSH2 0xC5 JUMPI DUP1 PUSH4 0x715018A6 EQ PUSH2 0x102 JUMPI JUMPDEST PUSH1 0x0 DUP1 REVERT JUMPDEST CALLVALUE DUP1 ISZERO PUSH2 0x8C JUMPI PUSH1 0x0 DUP1 REVERT JUMPDEST POP PUSH2 0xA7 PUSH1 0x4 DUP1 CALLDATASIZE SUB DUP2 ADD SWAP1 PUSH2 0xA2 SWAP2 SWAP1 PUSH2 0x9B6 JUMP JUMPDEST PUSH2 0x1E7 JUMP JUMPDEST STOP JUMPDEST PUSH2 0xC3 PUSH1 0x4 DUP1 CALLDATASIZE SUB DUP2 ADD SWAP1 PUSH2 0xBE SWAP2 SWAP1 PUSH2 0xA91 JUMP JUMPDEST PUSH2 0x21E JUMP JUMPDEST STOP JUMPDEST CALLVALUE DUP1 ISZERO PUSH2 0xD1 JUMPI PUSH1 0x0 DUP1 REVERT JUMPDEST POP PUSH2 0xEC PUSH1 0x4 DUP1 CALLDATASIZE SUB DUP2 ADD SWAP1 PUSH2 0xE7 SWAP2 SWAP1 PUSH2 0xAF1 JUMP JUMPDEST PUSH2 0x2E5 JUMP JUMPDEST PUSH1 0x40 MLOAD PUSH2 0xF9 SWAP2 SWAP1 PUSH2 0xC8E JUMP JUMPDEST PUSH1 0x40 MLOAD DUP1 SWAP2 SUB SWAP1 RETURN JUMPDEST CALLVALUE DUP1 ISZERO PUSH2 0x10E JUMPI PUSH1 0x0 DUP1 REVERT JUMPDEST POP PUSH2 0x117 PUSH2 0x3A6 JUMP JUMPDEST STOP JUMPDEST CALLVALUE DUP1 ISZERO PUSH2 0x125 JUMPI PUSH1 0x0 DUP1 REVERT JUMPDEST POP PUSH2 0x12E PUSH2 0x3BA JUMP JUMPDEST PUSH1 0x40 MLOAD PUSH2 0x13B SWAP2 SWAP1 PUSH2 0xCB9 JUMP JUMPDEST PUSH1 0x40 MLOAD DUP1 SWAP2 SUB SWAP1 RETURN JUMPDEST CALLVALUE DUP1 ISZERO PUSH2 0x150 JUMPI PUSH1 0x0 DUP1 REVERT JUMPDEST POP PUSH2 0x16B PUSH1 0x4 DUP1 CALLDATASIZE SUB DUP2 ADD SWAP1 PUSH2 0x166 SWAP2 SWAP1 PUSH2 0x9B6 JUMP JUMPDEST PUSH2 0x3E3 JUMP JUMPDEST PUSH1 0x40 MLOAD PUSH2 0x178 SWAP2 SWAP1 PUSH2 0xCE3 JUMP JUMPDEST PUSH1 0x40 MLOAD DUP1 SWAP2 SUB SWAP1 RETURN JUMPDEST CALLVALUE DUP1 ISZERO PUSH2 0x18D JUMPI PUSH1 0x0 DUP1 REVERT JUMPDEST POP PUSH2 0x1A8 PUSH1 0x4 DUP1 CALLDATASIZE SUB DUP2 ADD SWAP1 PUSH2 0x1A3 SWAP2 SWAP1 PUSH2 0xEAA JUMP JUMPDEST PUSH2 0x469 JUMP JUMPDEST PUSH1 0x40 MLOAD PUSH2 0x1B5 SWAP2 SWAP1 PUSH2 0xF57 JUMP JUMPDEST PUSH1 0x40 MLOAD DUP1 SWAP2 SUB SWAP1 RETURN JUMPDEST CALLVALUE DUP1 ISZERO PUSH2 0x1CA JUMPI PUSH1 0x0 DUP1 REVERT JUMPDEST POP PUSH2 0x1E5 PUSH1 0x4 DUP1 CALLDATASIZE SUB DUP2 ADD SWAP1 PUSH2 0x1E0 SWAP2 SWAP1 PUSH2 0xF79 JUMP JUMPDEST PUSH2 0x492 JUMP JUMPDEST STOP JUMPDEST PUSH2 0x1EF PUSH2 0x64B JUMP JUMPDEST PUSH2 0x21A DUP3 DUP3 PUSH32 0xFFFFFFFFFFFFFFFFFFFFFFFFFFFFFFFFFFFFFFFFFFFFFFFFFFFFFFFFFFFFFFFF PUSH2 0x515 JUMP JUMPDEST POP POP JUMP JUMPDEST PUSH1 0x0 PUSH2 0x22A DUP5 DUP5 PUSH2 0x2E5 JUMP JUMPDEST SWAP1 POP PUSH1 0x0 DUP2 PUSH1 0x20 ADD MLOAD PUSH1 0x0 SHR SWAP1 POP PUSH2 0x244 DUP2 CALLER ADDRESS DUP7 PUSH2 0x6C9 JUMP JUMPDEST DUP2 PUSH1 0x0 ADD MLOAD PUSH20 0xFFFFFFFFFFFFFFFFFFFFFFFFFFFFFFFFFFFFFFFF AND PUSH4 0x4CD480BD CALLVALUE DUP5 PUSH1 0x20 ADD MLOAD DUP7 DUP7 PUSH1 0x40 ADD MLOAD DUP8 PUSH1 0x60 ADD MLOAD DUP9 PUSH1 0x80 ADD MLOAD DUP10 PUSH1 0xA0 ADD MLOAD DUP11 PUSH1 0xC0 ADD MLOAD DUP12 PUSH1 0xE0 ADD MLOAD PUSH1 0x40 MLOAD DUP11 PUSH4 0xFFFFFFFF AND PUSH1 0xE0 SHL DUP2 MSTORE PUSH1 0x4 ADD PUSH2 0x2AC SWAP9 SWAP8 SWAP7 SWAP6 SWAP5 SWAP4 SWAP3 SWAP2 SWAP1 PUSH2 0xFC4 JUMP JUMPDEST PUSH1 0x0 PUSH1 0x40 MLOAD DUP1 DUP4 SUB DUP2 DUP6 DUP9 DUP1 EXTCODESIZE ISZERO DUP1 ISZERO PUSH2 0x2C5 JUMPI PUSH1 0x0 DUP1 REVERT JUMPDEST POP GAS CALL ISZERO DUP1 ISZERO PUSH2 0x2D9 JUMPI RETURNDATASIZE PUSH1 0x0 DUP1 RETURNDATACOPY RETURNDATASIZE PUSH1 0x0 REVERT JUMPDEST POP POP POP POP POP POP POP POP POP POP JUMP JUMPDEST PUSH2 0x2ED PUSH2 0x8CE JUMP JUMPDEST PUSH2 0x2F5 PUSH2 0x8CE JUMP JUMPDEST DUP4 DUP4 DUP2 ADD SWAP1 PUSH2 0x304 SWAP2 SWAP1 PUSH2 0x1080 JUMP JUMPDEST DUP9 PUSH1 0x0 ADD DUP10 PUSH1 0x20 ADD DUP11 PUSH1 0x40 ADD DUP12 PUSH1 0x60 ADD DUP13 PUSH1 0x80 ADD DUP14 PUSH1 0xA0 ADD DUP15 PUSH1 0xC0 ADD DUP16 PUSH1 0xE0 ADD DUP9 DUP2 MSTORE POP DUP9 PUSH1 0x3 DUP2 GT ISZERO PUSH2 0x33B JUMPI PUSH2 0x33A PUSH2 0xB75 JUMP JUMPDEST JUMPDEST PUSH1 0x3 DUP2 GT ISZERO PUSH2 0x34D JUMPI PUSH2 0x34C PUSH2 0xB75 JUMP JUMPDEST JUMPDEST DUP2 MSTORE POP DUP9 DUP2 MSTORE POP DUP9 DUP2 MSTORE POP DUP9 DUP2 MSTORE POP DUP9 DUP2 MSTORE POP DUP9 DUP2 MSTORE POP DUP9 PUSH20 0xFFFFFFFFFFFFFFFFFFFFFFFFFFFFFFFFFFFFFFFF AND PUSH20 0xFFFFFFFFFFFFFFFFFFFFFFFFFFFFFFFFFFFFFFFF AND DUP2 MSTORE POP POP POP POP POP POP POP POP POP DUP1 SWAP2 POP POP SWAP3 SWAP2 POP POP JUMP JUMPDEST PUSH2 0x3AE PUSH2 0x64B JUMP JUMPDEST PUSH2 0x3B8 PUSH1 0x0 PUSH2 0x802 JUMP JUMPDEST JUMP JUMPDEST PUSH1 0x0 DUP1 PUSH1 0x0 SWAP1 SLOAD SWAP1 PUSH2 0x100 EXP SWAP1 DIV PUSH20 0xFFFFFFFFFFFFFFFFFFFFFFFFFFFFFFFFFFFFFFFF AND SWAP1 POP SWAP1 JUMP JUMPDEST PUSH1 0x0 DUP3 PUSH20 0xFFFFFFFFFFFFFFFFFFFFFFFFFFFFFFFFFFFFFFFF AND PUSH4 0xDD62ED3E ADDRESS DUP5 PUSH1 0x40 MLOAD DUP4 PUSH4 0xFFFFFFFF AND PUSH1 0xE0 SHL DUP2 MSTORE PUSH1 0x4 ADD PUSH2 0x420 SWAP3 SWAP2 SWAP1 PUSH2 0x1136 JUMP JUMPDEST PUSH1 0x20 PUSH1 0x40 MLOAD DUP1 DUP4 SUB DUP2 DUP7 GAS STATICCALL ISZERO DUP1 ISZERO PUSH2 0x43D JUMPI RETURNDATASIZE PUSH1 0x0 DUP1 RETURNDATACOPY RETURNDATASIZE PUSH1 0x0 REVERT JUMPDEST POP POP POP POP PUSH1 0x40 MLOAD RETURNDATASIZE PUSH1 0x1F NOT PUSH1 0x1F DUP3 ADD AND DUP3 ADD DUP1 PUSH1 0x40 MSTORE POP DUP2 ADD SWAP1 PUSH2 0x461 SWAP2 SWAP1 PUSH2 0x1174 JUMP JUMPDEST SWAP1 POP SWAP3 SWAP2 POP POP JUMP JUMPDEST PUSH1 0x60 DUP2 PUSH1 0x40 MLOAD PUSH1 0x20 ADD PUSH2 0x47C SWAP2 SWAP1 PUSH2 0xC8E JUMP JUMPDEST PUSH1 0x40 MLOAD PUSH1 0x20 DUP2 DUP4 SUB SUB DUP2 MSTORE SWAP1 PUSH1 0x40 MSTORE SWAP1 POP SWAP2 SWAP1 POP JUMP JUMPDEST PUSH2 0x49A PUSH2 0x64B JUMP JUMPDEST PUSH1 0x0 PUSH20 0xFFFFFFFFFFFFFFFFFFFFFFFFFFFFFFFFFFFFFFFF AND DUP2 PUSH20 0xFFFFFFFFFFFFFFFFFFFFFFFFFFFFFFFFFFFFFFFF AND SUB PUSH2 0x509 JUMPI PUSH1 0x40 MLOAD PUSH32 0x8C379A000000000000000000000000000000000000000000000000000000000 DUP2 MSTORE PUSH1 0x4 ADD PUSH2 0x500 SWAP1 PUSH2 0x1224 JUMP JUMPDEST PUSH1 0x40 MLOAD DUP1 SWAP2 SUB SWAP1 REVERT JUMPDEST PUSH2 0x512 DUP2 PUSH2 0x802 JUMP JUMPDEST POP JUMP JUMPDEST PUSH1 0x0 DUP1 DUP5 PUSH20 0xFFFFFFFFFFFFFFFFFFFFFFFFFFFFFFFFFFFFFFFF AND PUSH4 0x95EA7B3 DUP6 DUP6 PUSH1 0x40 MLOAD PUSH1 0x24 ADD PUSH2 0x547 SWAP3 SWAP2 SWAP1 PUSH2 0x1244 JUMP JUMPDEST PUSH1 0x40 MLOAD PUSH1 0x20 DUP2 DUP4 SUB SUB DUP2 MSTORE SWAP1 PUSH1 0x40 MSTORE SWAP1 PUSH1 0xE0 SHL PUSH1 0x20 DUP3 ADD DUP1 MLOAD PUSH28 0xFFFFFFFFFFFFFFFFFFFFFFFFFFFFFFFFFFFFFFFFFFFFFFFFFFFFFFFF DUP4 DUP2 DUP4 AND OR DUP4 MSTORE POP POP POP POP PUSH1 0x40 MLOAD PUSH2 0x595 SWAP2 SWAP1 PUSH2 0x12A9 JUMP JUMPDEST PUSH1 0x0 PUSH1 0x40 MLOAD DUP1 DUP4 SUB DUP2 PUSH1 0x0 DUP7 GAS CALL SWAP2 POP POP RETURNDATASIZE DUP1 PUSH1 0x0 DUP2 EQ PUSH2 0x5D2 JUMPI PUSH1 0x40 MLOAD SWAP2 POP PUSH1 0x1F NOT PUSH1 0x3F RETURNDATASIZE ADD AND DUP3 ADD PUSH1 0x40 MSTORE RETURNDATASIZE DUP3 MSTORE RETURNDATASIZE PUSH1 0x0 PUSH1 0x20 DUP5 ADD RETURNDATACOPY PUSH2 0x5D7 JUMP JUMPDEST PUSH1 0x60 SWAP2 POP JUMPDEST POP SWAP2 POP SWAP2 POP DUP2 DUP1 ISZERO PUSH2 0x605 JUMPI POP PUSH1 0x0 DUP2 MLOAD EQ DUP1 PUSH2 0x604 JUMPI POP DUP1 DUP1 PUSH1 0x20 ADD SWAP1 MLOAD DUP2 ADD SWAP1 PUSH2 0x603 SWAP2 SWAP1 PUSH2 0x12F8 JUMP JUMPDEST JUMPDEST JUMPDEST PUSH2 0x644 JUMPI PUSH1 0x40 MLOAD PUSH32 0x8C379A000000000000000000000000000000000000000000000000000000000 DUP2 MSTORE PUSH1 0x4 ADD PUSH2 0x63B SWAP1 PUSH2 0x1371 JUMP JUMPDEST PUSH1 0x40 MLOAD DUP1 SWAP2 SUB SWAP1 REVERT JUMPDEST POP POP POP POP POP JUMP JUMPDEST PUSH2 0x653 PUSH2 0x8C6 JUMP JUMPDEST PUSH20 0xFFFFFFFFFFFFFFFFFFFFFFFFFFFFFFFFFFFFFFFF AND PUSH2 0x671 PUSH2 0x3BA JUMP JUMPDEST PUSH20 0xFFFFFFFFFFFFFFFFFFFFFFFFFFFFFFFFFFFFFFFF AND EQ PUSH2 0x6C7 JUMPI PUSH1 0x40 MLOAD PUSH32 0x8C379A000000000000000000000000000000000000000000000000000000000 DUP2 MSTORE PUSH1 0x4 ADD PUSH2 0x6BE SWAP1 PUSH2 0x13DD JUMP JUMPDEST PUSH1 0x40 MLOAD DUP1 SWAP2 SUB SWAP1 REVERT JUMPDEST JUMP JUMPDEST PUSH1 0x0 DUP1 DUP6 PUSH20 0xFFFFFFFFFFFFFFFFFFFFFFFFFFFFFFFFFFFFFFFF AND PUSH4 0x23B872DD DUP7 DUP7 DUP7 PUSH1 0x40 MLOAD PUSH1 0x24 ADD PUSH2 0x6FD SWAP4 SWAP3 SWAP2 SWAP1 PUSH2 0x13FD JUMP JUMPDEST PUSH1 0x40 MLOAD PUSH1 0x20 DUP2 DUP4 SUB SUB DUP2 MSTORE SWAP1 PUSH1 0x40 MSTORE SWAP1 PUSH1 0xE0 SHL PUSH1 0x20 DUP3 ADD DUP1 MLOAD PUSH28 0xFFFFFFFFFFFFFFFFFFFFFFFFFFFFFFFFFFFFFFFFFFFFFFFFFFFFFFFF DUP4 DUP2 DUP4 AND OR DUP4 MSTORE POP POP POP POP PUSH1 0x40 MLOAD PUSH2 0x74B SWAP2 SWAP1 PUSH2 0x12A9 JUMP JUMPDEST PUSH1 0x0 PUSH1 0x40 MLOAD DUP1 DUP4 SUB DUP2 PUSH1 0x0 DUP7 GAS CALL SWAP2 POP POP RETURNDATASIZE DUP1 PUSH1 0x0 DUP2 EQ PUSH2 0x788 JUMPI PUSH1 0x40 MLOAD SWAP2 POP PUSH1 0x1F NOT PUSH1 0x3F RETURNDATASIZE ADD AND DUP3 ADD PUSH1 0x40 MSTORE RETURNDATASIZE DUP3 MSTORE RETURNDATASIZE PUSH1 0x0 PUSH1 0x20 DUP5 ADD RETURNDATACOPY PUSH2 0x78D JUMP JUMPDEST PUSH1 0x60 SWAP2 POP JUMPDEST POP SWAP2 POP SWAP2 POP DUP2 DUP1 ISZERO PUSH2 0x7BB JUMPI POP PUSH1 0x0 DUP2 MLOAD EQ DUP1 PUSH2 0x7BA JUMPI POP DUP1 DUP1 PUSH1 0x20 ADD SWAP1 MLOAD DUP2 ADD SWAP1 PUSH2 0x7B9 SWAP2 SWAP1 PUSH2 0x12F8 JUMP JUMPDEST JUMPDEST JUMPDEST PUSH2 0x7FA JUMPI PUSH1 0x40 MLOAD PUSH32 0x8C379A000000000000000000000000000000000000000000000000000000000 DUP2 MSTORE PUSH1 0x4 ADD PUSH2 0x7F1 SWAP1 PUSH2 0x1480 JUMP JUMPDEST PUSH1 0x40 MLOAD DUP1 SWAP2 SUB SWAP1 REVERT JUMPDEST POP POP POP POP POP POP JUMP JUMPDEST PUSH1 0x0 DUP1 PUSH1 0x0 SWAP1 SLOAD SWAP1 PUSH2 0x100 EXP SWAP1 DIV PUSH20 0xFFFFFFFFFFFFFFFFFFFFFFFFFFFFFFFFFFFFFFFF AND SWAP1 POP DUP2 PUSH1 0x0 DUP1 PUSH2 0x100 EXP DUP2 SLOAD DUP2 PUSH20 0xFFFFFFFFFFFFFFFFFFFFFFFFFFFFFFFFFFFFFFFF MUL NOT AND SWAP1 DUP4 PUSH20 0xFFFFFFFFFFFFFFFFFFFFFFFFFFFFFFFFFFFFFFFF AND MUL OR SWAP1 SSTORE POP DUP2 PUSH20 0xFFFFFFFFFFFFFFFFFFFFFFFFFFFFFFFFFFFFFFFF AND DUP2 PUSH20 0xFFFFFFFFFFFFFFFFFFFFFFFFFFFFFFFFFFFFFFFF AND PUSH32 0x8BE0079C531659141344CD1FD0A4F28419497F9722A3DAAFE3B4186F6B6457E0 PUSH1 0x40 MLOAD PUSH1 0x40 MLOAD DUP1 SWAP2 SUB SWAP1 LOG3 POP POP JUMP JUMPDEST PUSH1 0x0 CALLER SWAP1 POP SWAP1 JUMP JUMPDEST PUSH1 0x40 MLOAD DUP1 PUSH2 0x100 ADD PUSH1 0x40 MSTORE DUP1 PUSH1 0x0 PUSH20 0xFFFFFFFFFFFFFFFFFFFFFFFFFFFFFFFFFFFFFFFF AND DUP2 MSTORE PUSH1 0x20 ADD PUSH1 0x0 DUP1 NOT AND DUP2 MSTORE PUSH1 0x20 ADD PUSH1 0x0 DUP1 NOT AND DUP2 MSTORE PUSH1 0x20 ADD PUSH1 0x0 DUP2 MSTORE PUSH1 0x20 ADD PUSH1 0x0 DUP1 NOT AND DUP2 MSTORE PUSH1 0x20 ADD PUSH1 0x0 DUP2 MSTORE PUSH1 0x20 ADD PUSH1 0x0 PUSH1 0x3 DUP2 GT ISZERO PUSH2 0x937 JUMPI PUSH2 0x936 PUSH2 0xB75 JUMP JUMPDEST JUMPDEST DUP2 MSTORE PUSH1 0x20 ADD PUSH1 0x0 DUP2 MSTORE POP SWAP1 JUMP JUMPDEST PUSH1 0x0 PUSH1 0x40 MLOAD SWAP1 POP SWAP1 JUMP JUMPDEST PUSH1 0x0 DUP1 REVERT JUMPDEST PUSH1 0x0 DUP1 REVERT JUMPDEST PUSH1 0x0 PUSH20 0xFFFFFFFFFFFFFFFFFFFFFFFFFFFFFFFFFFFFFFFF DUP3 AND SWAP1 POP SWAP2 SWAP1 POP JUMP JUMPDEST PUSH1 0x0 PUSH2 0x983 DUP3 PUSH2 0x958 JUMP JUMPDEST SWAP1 POP SWAP2 SWAP1 POP JUMP JUMPDEST PUSH2 0x993 DUP2 PUSH2 0x978 JUMP JUMPDEST DUP2 EQ PUSH2 0x99E JUMPI PUSH1 0x0 DUP1 REVERT JUMPDEST POP JUMP JUMPDEST PUSH1 0x0 DUP2 CALLDATALOAD SWAP1 POP PUSH2 0x9B0 DUP2 PUSH2 0x98A JUMP JUMPDEST SWAP3 SWAP2 POP POP JUMP JUMPDEST PUSH1 0x0 DUP1 PUSH1 0x40 DUP4 DUP6 SUB SLT ISZERO PUSH2 0x9CD JUMPI PUSH2 0x9CC PUSH2 0x94E JUMP JUMPDEST JUMPDEST PUSH1 0x0 PUSH2 0x9DB DUP6 DUP3 DUP7 ADD PUSH2 0x9A1 JUMP JUMPDEST SWAP3 POP POP PUSH1 0x20 PUSH2 0x9EC DUP6 DUP3 DUP7 ADD PUSH2 0x9A1 JUMP JUMPDEST SWAP2 POP POP SWAP3 POP SWAP3 SWAP1 POP JUMP JUMPDEST PUSH1 0x0 DUP1 REVERT JUMPDEST PUSH1 0x0 DUP1 REVERT JUMPDEST PUSH1 0x0 DUP1 REVERT JUMPDEST PUSH1 0x0 DUP1 DUP4 PUSH1 0x1F DUP5 ADD SLT PUSH2 0xA1B JUMPI PUSH2 0xA1A PUSH2 0x9F6 JUMP JUMPDEST JUMPDEST DUP3 CALLDATALOAD SWAP1 POP PUSH8 0xFFFFFFFFFFFFFFFF DUP2 GT ISZERO PUSH2 0xA38 JUMPI PUSH2 0xA37 PUSH2 0x9FB JUMP JUMPDEST JUMPDEST PUSH1 0x20 DUP4 ADD SWAP2 POP DUP4 PUSH1 0x1 DUP3 MUL DUP4 ADD GT ISZERO PUSH2 0xA54 JUMPI PUSH2 0xA53 PUSH2 0xA00 JUMP JUMPDEST JUMPDEST SWAP3 POP SWAP3 SWAP1 POP JUMP JUMPDEST PUSH1 0x0 DUP2 SWAP1 POP SWAP2 SWAP1 POP JUMP JUMPDEST PUSH2 0xA6E DUP2 PUSH2 0xA5B JUMP JUMPDEST DUP2 EQ PUSH2 0xA79 JUMPI PUSH1 0x0 DUP1 REVERT JUMPDEST POP JUMP JUMPDEST PUSH1 0x0 DUP2 CALLDATALOAD SWAP1 POP PUSH2 0xA8B DUP2 PUSH2 0xA65 JUMP JUMPDEST SWAP3 SWAP2 POP POP JUMP JUMPDEST PUSH1 0x0 DUP1 PUSH1 0x0 PUSH1 0x40 DUP5 DUP7 SUB SLT ISZERO PUSH2 0xAAA JUMPI PUSH2 0xAA9 PUSH2 0x94E JUMP JUMPDEST JUMPDEST PUSH1 0x0 DUP5 ADD CALLDATALOAD PUSH8 0xFFFFFFFFFFFFFFFF DUP2 GT ISZERO PUSH2 0xAC8 JUMPI PUSH2 0xAC7 PUSH2 0x953 JUMP JUMPDEST JUMPDEST PUSH2 0xAD4 DUP7 DUP3 DUP8 ADD PUSH2 0xA05 JUMP JUMPDEST SWAP4 POP SWAP4 POP POP PUSH1 0x20 PUSH2 0xAE7 DUP7 DUP3 DUP8 ADD PUSH2 0xA7C JUMP JUMPDEST SWAP2 POP POP SWAP3 POP SWAP3 POP SWAP3 JUMP JUMPDEST PUSH1 0x0 DUP1 PUSH1 0x20 DUP4 DUP6 SUB SLT ISZERO PUSH2 0xB08 JUMPI PUSH2 0xB07 PUSH2 0x94E JUMP JUMPDEST JUMPDEST PUSH1 0x0 DUP4 ADD CALLDATALOAD PUSH8 0xFFFFFFFFFFFFFFFF DUP2 GT ISZERO PUSH2 0xB26 JUMPI PUSH2 0xB25 PUSH2 0x953 JUMP JUMPDEST JUMPDEST PUSH2 0xB32 DUP6 DUP3 DUP7 ADD PUSH2 0xA05 JUMP JUMPDEST SWAP3 POP SWAP3 POP POP SWAP3 POP SWAP3 SWAP1 POP JUMP JUMPDEST PUSH2 0xB47 DUP2 PUSH2 0x978 JUMP JUMPDEST DUP3 MSTORE POP POP JUMP JUMPDEST PUSH1 0x0 DUP2 SWAP1 POP SWAP2 SWAP1 POP JUMP JUMPDEST PUSH2 0xB60 DUP2 PUSH2 0xB4D JUMP JUMPDEST DUP3 MSTORE POP POP JUMP JUMPDEST PUSH2 0xB6F DUP2 PUSH2 0xA5B JUMP JUMPDEST DUP3 MSTORE POP POP JUMP JUMPDEST PUSH32 0x4E487B7100000000000000000000000000000000000000000000000000000000 PUSH1 0x0 MSTORE PUSH1 0x21 PUSH1 0x4 MSTORE PUSH1 0x24 PUSH1 0x0 REVERT JUMPDEST PUSH1 0x4 DUP2 LT PUSH2 0xBB5 JUMPI PUSH2 0xBB4 PUSH2 0xB75 JUMP JUMPDEST JUMPDEST POP JUMP JUMPDEST PUSH1 0x0 DUP2 SWAP1 POP PUSH2 0xBC6 DUP3 PUSH2 0xBA4 JUMP JUMPDEST SWAP2 SWAP1 POP JUMP JUMPDEST PUSH1 0x0 PUSH2 0xBD6 DUP3 PUSH2 0xBB8 JUMP JUMPDEST SWAP1 POP SWAP2 SWAP1 POP JUMP JUMPDEST PUSH2 0xBE6 DUP2 PUSH2 0xBCB JUMP JUMPDEST DUP3 MSTORE POP POP JUMP JUMPDEST PUSH2 0x100 DUP3 ADD PUSH1 0x0 DUP3 ADD MLOAD PUSH2 0xC03 PUSH1 0x0 DUP6 ADD DUP3 PUSH2 0xB3E JUMP JUMPDEST POP PUSH1 0x20 DUP3 ADD MLOAD PUSH2 0xC16 PUSH1 0x20 DUP6 ADD DUP3 PUSH2 0xB57 JUMP JUMPDEST POP PUSH1 0x40 DUP3 ADD MLOAD PUSH2 0xC29 PUSH1 0x40 DUP6 ADD DUP3 PUSH2 0xB57 JUMP JUMPDEST POP PUSH1 0x60 DUP3 ADD MLOAD PUSH2 0xC3C PUSH1 0x60 DUP6 ADD DUP3 PUSH2 0xB66 JUMP JUMPDEST POP PUSH1 0x80 DUP3 ADD MLOAD PUSH2 0xC4F PUSH1 0x80 DUP6 ADD DUP3 PUSH2 0xB57 JUMP JUMPDEST POP PUSH1 0xA0 DUP3 ADD MLOAD PUSH2 0xC62 PUSH1 0xA0 DUP6 ADD DUP3 PUSH2 0xB66 JUMP JUMPDEST POP PUSH1 0xC0 DUP3 ADD MLOAD PUSH2 0xC75 PUSH1 0xC0 DUP6 ADD DUP3 PUSH2 0xBDD JUMP JUMPDEST POP PUSH1 0xE0 DUP3 ADD MLOAD PUSH2 0xC88 PUSH1 0xE0 DUP6 ADD DUP3 PUSH2 0xB66 JUMP JUMPDEST POP POP POP POP JUMP JUMPDEST PUSH1 0x0 PUSH2 0x100 DUP3 ADD SWAP1 POP PUSH2 0xCA4 PUSH1 0x0 DUP4 ADD DUP5 PUSH2 0xBEC JUMP JUMPDEST SWAP3 SWAP2 POP POP JUMP JUMPDEST PUSH2 0xCB3 DUP2 PUSH2 0x978 JUMP JUMPDEST DUP3 MSTORE POP POP JUMP JUMPDEST PUSH1 0x0 PUSH1 0x20 DUP3 ADD SWAP1 POP PUSH2 0xCCE PUSH1 0x0 DUP4 ADD DUP5 PUSH2 0xCAA JUMP JUMPDEST SWAP3 SWAP2 POP POP JUMP JUMPDEST PUSH2 0xCDD DUP2 PUSH2 0xA5B JUMP JUMPDEST DUP3 MSTORE POP POP JUMP JUMPDEST PUSH1 0x0 PUSH1 0x20 DUP3 ADD SWAP1 POP PUSH2 0xCF8 PUSH1 0x0 DUP4 ADD DUP5 PUSH2 0xCD4 JUMP JUMPDEST SWAP3 SWAP2 POP POP JUMP JUMPDEST PUSH1 0x0 DUP1 REVERT JUMPDEST PUSH1 0x0 PUSH1 0x1F NOT PUSH1 0x1F DUP4 ADD AND SWAP1 POP SWAP2 SWAP1 POP JUMP JUMPDEST PUSH32 0x4E487B7100000000000000000000000000000000000000000000000000000000 PUSH1 0x0 MSTORE PUSH1 0x41 PUSH1 0x4 MSTORE PUSH1 0x24 PUSH1 0x0 REVERT JUMPDEST PUSH2 0xD4C DUP3 PUSH2 0xD03 JUMP JUMPDEST DUP2 ADD DUP2 DUP2 LT PUSH8 0xFFFFFFFFFFFFFFFF DUP3 GT OR ISZERO PUSH2 0xD6B JUMPI PUSH2 0xD6A PUSH2 0xD14 JUMP JUMPDEST JUMPDEST DUP1 PUSH1 0x40 MSTORE POP POP POP JUMP JUMPDEST PUSH1 0x0 PUSH2 0xD7E PUSH2 0x944 JUMP JUMPDEST SWAP1 POP PUSH2 0xD8A DUP3 DUP3 PUSH2 0xD43 JUMP JUMPDEST SWAP2 SWAP1 POP JUMP JUMPDEST PUSH2 0xD98 DUP2 PUSH2 0xB4D JUMP JUMPDEST DUP2 EQ PUSH2 0xDA3 JUMPI PUSH1 0x0 DUP1 REVERT JUMPDEST POP JUMP JUMPDEST PUSH1 0x0 DUP2 CALLDATALOAD SWAP1 POP PUSH2 0xDB5 DUP2 PUSH2 0xD8F JUMP JUMPDEST SWAP3 SWAP2 POP POP JUMP JUMPDEST PUSH1 0x4 DUP2 LT PUSH2 0xDC8 JUMPI PUSH1 0x0 DUP1 REVERT JUMPDEST POP JUMP JUMPDEST PUSH1 0x0 DUP2 CALLDATALOAD SWAP1 POP PUSH2 0xDDA DUP2 PUSH2 0xDBB JUMP JUMPDEST SWAP3 SWAP2 POP POP JUMP JUMPDEST PUSH1 0x0 PUSH2 0x100 DUP3 DUP5 SUB SLT ISZERO PUSH2 0xDF7 JUMPI PUSH2 0xDF6 PUSH2 0xCFE JUMP JUMPDEST JUMPDEST PUSH2 0xE02 PUSH2 0x100 PUSH2 0xD74 JUMP JUMPDEST SWAP1 POP PUSH1 0x0 PUSH2 0xE12 DUP5 DUP3 DUP6 ADD PUSH2 0x9A1 JUMP JUMPDEST PUSH1 0x0 DUP4 ADD MSTORE POP PUSH1 0x20 PUSH2 0xE26 DUP5 DUP3 DUP6 ADD PUSH2 0xDA6 JUMP JUMPDEST PUSH1 0x20 DUP4 ADD MSTORE POP PUSH1 0x40 PUSH2 0xE3A DUP5 DUP3 DUP6 ADD PUSH2 0xDA6 JUMP JUMPDEST PUSH1 0x40 DUP4 ADD MSTORE POP PUSH1 0x60 PUSH2 0xE4E DUP5 DUP3 DUP6 ADD PUSH2 0xA7C JUMP JUMPDEST PUSH1 0x60 DUP4 ADD MSTORE POP PUSH1 0x80 PUSH2 0xE62 DUP5 DUP3 DUP6 ADD PUSH2 0xDA6 JUMP JUMPDEST PUSH1 0x80 DUP4 ADD MSTORE POP PUSH1 0xA0 PUSH2 0xE76 DUP5 DUP3 DUP6 ADD PUSH2 0xA7C JUMP JUMPDEST PUSH1 0xA0 DUP4 ADD MSTORE POP PUSH1 0xC0 PUSH2 0xE8A DUP5 DUP3 DUP6 ADD PUSH2 0xDCB JUMP JUMPDEST PUSH1 0xC0 DUP4 ADD MSTORE POP PUSH1 0xE0 PUSH2 0xE9E DUP5 DUP3 DUP6 ADD PUSH2 0xA7C JUMP JUMPDEST PUSH1 0xE0 DUP4 ADD MSTORE POP SWAP3 SWAP2 POP POP JUMP JUMPDEST PUSH1 0x0 PUSH2 0x100 DUP3 DUP5 SUB SLT ISZERO PUSH2 0xEC1 JUMPI PUSH2 0xEC0 PUSH2 0x94E JUMP JUMPDEST JUMPDEST PUSH1 0x0 PUSH2 0xECF DUP5 DUP3 DUP6 ADD PUSH2 0xDE0 JUMP JUMPDEST SWAP2 POP POP SWAP3 SWAP2 POP POP JUMP JUMPDEST PUSH1 0x0 DUP2 MLOAD SWAP1 POP SWAP2 SWAP1 POP JUMP JUMPDEST PUSH1 0x0 DUP3 DUP3 MSTORE PUSH1 0x20 DUP3 ADD SWAP1 POP SWAP3 SWAP2 POP POP JUMP JUMPDEST PUSH1 0x0 JUMPDEST DUP4 DUP2 LT ISZERO PUSH2 0xF12 JUMPI DUP1 DUP3 ADD MLOAD DUP2 DUP5 ADD MSTORE PUSH1 0x20 DUP2 ADD SWAP1 POP PUSH2 0xEF7 JUMP JUMPDEST PUSH1 0x0 DUP5 DUP5 ADD MSTORE POP POP POP POP JUMP JUMPDEST PUSH1 0x0 PUSH2 0xF29 DUP3 PUSH2 0xED8 JUMP JUMPDEST PUSH2 0xF33 DUP2 DUP6 PUSH2 0xEE3 JUMP JUMPDEST SWAP4 POP PUSH2 0xF43 DUP2 DUP6 PUSH1 0x20 DUP7 ADD PUSH2 0xEF4 JUMP JUMPDEST PUSH2 0xF4C DUP2 PUSH2 0xD03 JUMP JUMPDEST DUP5 ADD SWAP2 POP POP SWAP3 SWAP2 POP POP JUMP JUMPDEST PUSH1 0x0 PUSH1 0x20 DUP3 ADD SWAP1 POP DUP2 DUP2 SUB PUSH1 0x0 DUP4 ADD MSTORE PUSH2 0xF71 DUP2 DUP5 PUSH2 0xF1E JUMP JUMPDEST SWAP1 POP SWAP3 SWAP2 POP POP JUMP JUMPDEST PUSH1 0x0 PUSH1 0x20 DUP3 DUP5 SUB SLT ISZERO PUSH2 0xF8F JUMPI PUSH2 0xF8E PUSH2 0x94E JUMP JUMPDEST JUMPDEST PUSH1 0x0 PUSH2 0xF9D DUP5 DUP3 DUP6 ADD PUSH2 0x9A1 JUMP JUMPDEST SWAP2 POP POP SWAP3 SWAP2 POP POP JUMP JUMPDEST PUSH2 0xFAF DUP2 PUSH2 0xB4D JUMP JUMPDEST DUP3 MSTORE POP POP JUMP JUMPDEST PUSH2 0xFBE DUP2 PUSH2 0xBCB JUMP JUMPDEST DUP3 MSTORE POP POP JUMP JUMPDEST PUSH1 0x0 PUSH2 0x100 DUP3 ADD SWAP1 POP PUSH2 0xFDA PUSH1 0x0 DUP4 ADD DUP12 PUSH2 0xFA6 JUMP JUMPDEST PUSH2 0xFE7 PUSH1 0x20 DUP4 ADD DUP11 PUSH2 0xCD4 JUMP JUMPDEST PUSH2 0xFF4 PUSH1 0x40 DUP4 ADD DUP10 PUSH2 0xFA6 JUMP JUMPDEST PUSH2 0x1001 PUSH1 0x60 DUP4 ADD DUP9 PUSH2 0xCD4 JUMP JUMPDEST PUSH2 0x100E PUSH1 0x80 DUP4 ADD DUP8 PUSH2 0xFA6 JUMP JUMPDEST PUSH2 0x101B PUSH1 0xA0 DUP4 ADD DUP7 PUSH2 0xCD4 JUMP JUMPDEST PUSH2 0x1028 PUSH1 0xC0 DUP4 ADD DUP6 PUSH2 0xFB5 JUMP JUMPDEST PUSH2 0x1035 PUSH1 0xE0 DUP4 ADD DUP5 PUSH2 0xCD4 JUMP JUMPDEST SWAP10 SWAP9 POP POP POP POP POP POP POP POP POP JUMP JUMPDEST PUSH1 0x0 PUSH2 0x104D DUP3 PUSH2 0x958 JUMP JUMPDEST SWAP1 POP SWAP2 SWAP1 POP JUMP JUMPDEST PUSH2 0x105D DUP2 PUSH2 0x1042 JUMP JUMPDEST DUP2 EQ PUSH2 0x1068 JUMPI PUSH1 0x0 DUP1 REVERT JUMPDEST POP JUMP JUMPDEST PUSH1 0x0 DUP2 CALLDATALOAD SWAP1 POP PUSH2 0x107A DUP2 PUSH2 0x1054 JUMP JUMPDEST SWAP3 SWAP2 POP POP JUMP JUMPDEST PUSH1 0x0 DUP1 PUSH1 0x0 DUP1 PUSH1 0x0 DUP1 PUSH1 0x0 DUP1 PUSH2 0x100 DUP10 DUP12 SUB SLT ISZERO PUSH2 0x10A1 JUMPI PUSH2 0x10A0 PUSH2 0x94E JUMP JUMPDEST JUMPDEST PUSH1 0x0 PUSH2 0x10AF DUP12 DUP3 DUP13 ADD PUSH2 0x106B JUMP JUMPDEST SWAP9 POP POP PUSH1 0x20 PUSH2 0x10C0 DUP12 DUP3 DUP13 ADD PUSH2 0xDA6 JUMP JUMPDEST SWAP8 POP POP PUSH1 0x40 PUSH2 0x10D1 DUP12 DUP3 DUP13 ADD PUSH2 0xDA6 JUMP JUMPDEST SWAP7 POP POP PUSH1 0x60 PUSH2 0x10E2 DUP12 DUP3 DUP13 ADD PUSH2 0xA7C JUMP JUMPDEST SWAP6 POP POP PUSH1 0x80 PUSH2 0x10F3 DUP12 DUP3 DUP13 ADD PUSH2 0xDA6 JUMP JUMPDEST SWAP5 POP POP PUSH1 0xA0 PUSH2 0x1104 DUP12 DUP3 DUP13 ADD PUSH2 0xA7C JUMP JUMPDEST SWAP4 POP POP PUSH1 0xC0 PUSH2 0x1115 DUP12 DUP3 DUP13 ADD PUSH2 0xDCB JUMP JUMPDEST SWAP3 POP POP PUSH1 0xE0 PUSH2 0x1126 DUP12 DUP3 DUP13 ADD PUSH2 0xA7C JUMP JUMPDEST SWAP2 POP POP SWAP3 SWAP6 SWAP9 POP SWAP3 SWAP6 SWAP9 SWAP1 SWAP4 SWAP7 POP JUMP JUMPDEST PUSH1 0x0 PUSH1 0x40 DUP3 ADD SWAP1 POP PUSH2 0x114B PUSH1 0x0 DUP4 ADD DUP6 PUSH2 0xCAA JUMP JUMPDEST PUSH2 0x1158 PUSH1 0x20 DUP4 ADD DUP5 PUSH2 0xCAA JUMP JUMPDEST SWAP4 SWAP3 POP POP POP JUMP JUMPDEST PUSH1 0x0 DUP2 MLOAD SWAP1 POP PUSH2 0x116E DUP2 PUSH2 0xA65 JUMP JUMPDEST SWAP3 SWAP2 POP POP JUMP JUMPDEST PUSH1 0x0 PUSH1 0x20 DUP3 DUP5 SUB SLT ISZERO PUSH2 0x118A JUMPI PUSH2 0x1189 PUSH2 0x94E JUMP JUMPDEST JUMPDEST PUSH1 0x0 PUSH2 0x1198 DUP5 DUP3 DUP6 ADD PUSH2 0x115F JUMP JUMPDEST SWAP2 POP POP SWAP3 SWAP2 POP POP JUMP JUMPDEST PUSH1 0x0 DUP3 DUP3 MSTORE PUSH1 0x20 DUP3 ADD SWAP1 POP SWAP3 SWAP2 POP POP JUMP JUMPDEST PUSH32 0x4F776E61626C653A206E6577206F776E657220697320746865207A65726F2061 PUSH1 0x0 DUP3 ADD MSTORE PUSH32 0x6464726573730000000000000000000000000000000000000000000000000000 PUSH1 0x20 DUP3 ADD MSTORE POP JUMP JUMPDEST PUSH1 0x0 PUSH2 0x120E PUSH1 0x26 DUP4 PUSH2 0x11A1 JUMP JUMPDEST SWAP2 POP PUSH2 0x1219 DUP3 PUSH2 0x11B2 JUMP JUMPDEST PUSH1 0x40 DUP3 ADD SWAP1 POP SWAP2 SWAP1 POP JUMP JUMPDEST PUSH1 0x0 PUSH1 0x20 DUP3 ADD SWAP1 POP DUP2 DUP2 SUB PUSH1 0x0 DUP4 ADD MSTORE PUSH2 0x123D DUP2 PUSH2 0x1201 JUMP JUMPDEST SWAP1 POP SWAP2 SWAP1 POP JUMP JUMPDEST PUSH1 0x0 PUSH1 0x40 DUP3 ADD SWAP1 POP PUSH2 0x1259 PUSH1 0x0 DUP4 ADD DUP6 PUSH2 0xCAA JUMP JUMPDEST PUSH2 0x1266 PUSH1 0x20 DUP4 ADD DUP5 PUSH2 0xCD4 JUMP JUMPDEST SWAP4 SWAP3 POP POP POP JUMP JUMPDEST PUSH1 0x0 DUP2 SWAP1 POP SWAP3 SWAP2 POP POP JUMP JUMPDEST PUSH1 0x0 PUSH2 0x1283 DUP3 PUSH2 0xED8 JUMP JUMPDEST PUSH2 0x128D DUP2 DUP6 PUSH2 0x126D JUMP JUMPDEST SWAP4 POP PUSH2 0x129D DUP2 DUP6 PUSH1 0x20 DUP7 ADD PUSH2 0xEF4 JUMP JUMPDEST DUP1 DUP5 ADD SWAP2 POP POP SWAP3 SWAP2 POP POP JUMP JUMPDEST PUSH1 0x0 PUSH2 0x12B5 DUP3 DUP5 PUSH2 0x1278 JUMP JUMPDEST SWAP2 POP DUP2 SWAP1 POP SWAP3 SWAP2 POP POP JUMP JUMPDEST PUSH1 0x0 DUP2 ISZERO ISZERO SWAP1 POP SWAP2 SWAP1 POP JUMP JUMPDEST PUSH2 0x12D5 DUP2 PUSH2 0x12C0 JUMP JUMPDEST DUP2 EQ PUSH2 0x12E0 JUMPI PUSH1 0x0 DUP1 REVERT JUMPDEST POP JUMP JUMPDEST PUSH1 0x0 DUP2 MLOAD SWAP1 POP PUSH2 0x12F2 DUP2 PUSH2 0x12CC JUMP JUMPDEST SWAP3 SWAP2 POP POP JUMP JUMPDEST PUSH1 0x0 PUSH1 0x20 DUP3 DUP5 SUB SLT ISZERO PUSH2 0x130E JUMPI PUSH2 0x130D PUSH2 0x94E JUMP JUMPDEST JUMPDEST PUSH1 0x0 PUSH2 0x131C DUP5 DUP3 DUP6 ADD PUSH2 0x12E3 JUMP JUMPDEST SWAP2 POP POP SWAP3 SWAP2 POP POP JUMP JUMPDEST PUSH32 0x5472616E7366657248656C7065723A73616665417070726F7665000000000000 PUSH1 0x0 DUP3 ADD MSTORE POP JUMP JUMPDEST PUSH1 0x0 PUSH2 0x135B PUSH1 0x1A DUP4 PUSH2 0x11A1 JUMP JUMPDEST SWAP2 POP PUSH2 0x1366 DUP3 PUSH2 0x1325 JUMP JUMPDEST PUSH1 0x20 DUP3 ADD SWAP1 POP SWAP2 SWAP1 POP JUMP JUMPDEST PUSH1 0x0 PUSH1 0x20 DUP3 ADD SWAP1 POP DUP2 DUP2 SUB PUSH1 0x0 DUP4 ADD MSTORE PUSH2 0x138A DUP2 PUSH2 0x134E JUMP JUMPDEST SWAP1 POP SWAP2 SWAP1 POP JUMP JUMPDEST PUSH32 0x4F776E61626C653A2063616C6C6572206973206E6F7420746865206F776E6572 PUSH1 0x0 DUP3 ADD MSTORE POP JUMP JUMPDEST PUSH1 0x0 PUSH2 0x13C7 PUSH1 0x20 DUP4 PUSH2 0x11A1 JUMP JUMPDEST SWAP2 POP PUSH2 0x13D2 DUP3 PUSH2 0x1391 JUMP JUMPDEST PUSH1 0x20 DUP3 ADD SWAP1 POP SWAP2 SWAP1 POP JUMP JUMPDEST PUSH1 0x0 PUSH1 0x20 DUP3 ADD SWAP1 POP DUP2 DUP2 SUB PUSH1 0x0 DUP4 ADD MSTORE PUSH2 0x13F6 DUP2 PUSH2 0x13BA JUMP JUMPDEST SWAP1 POP SWAP2 SWAP1 POP JUMP JUMPDEST PUSH1 0x0 PUSH1 0x60 DUP3 ADD SWAP1 POP PUSH2 0x1412 PUSH1 0x0 DUP4 ADD DUP7 PUSH2 0xCAA JUMP JUMPDEST PUSH2 0x141F PUSH1 0x20 DUP4 ADD DUP6 PUSH2 0xCAA JUMP JUMPDEST PUSH2 0x142C PUSH1 0x40 DUP4 ADD DUP5 PUSH2 0xCD4 JUMP JUMPDEST SWAP5 SWAP4 POP POP POP POP JUMP JUMPDEST PUSH32 0x5472616E7366657248656C7065723A736166655472616E7366657246726F6D00 PUSH1 0x0 DUP3 ADD MSTORE POP JUMP JUMPDEST PUSH1 0x0 PUSH2 0x146A PUSH1 0x1F DUP4 PUSH2 0x11A1 JUMP JUMPDEST SWAP2 POP PUSH2 0x1475 DUP3 PUSH2 0x1434 JUMP JUMPDEST PUSH1 0x20 DUP3 ADD SWAP1 POP SWAP2 SWAP1 POP JUMP JUMPDEST PUSH1 0x0 PUSH1 0x20 DUP3 ADD SWAP1 POP DUP2 DUP2 SUB PUSH1 0x0 DUP4 ADD MSTORE PUSH2 0x1499 DUP2 PUSH2 0x145D JUMP JUMPDEST SWAP1 POP SWAP2 SWAP1 POP JUMP INVALID LOG2 PUSH5 0x6970667358 0x22 SLT KECCAK256 0xAA GAS PUSH12 0x1C6E2DDA01D7F43BBE45BA90 0xD9 ISZERO 0xBC 0xDC TIMESTAMP DUP6 GAS PUSH15 0x7E38C800856E1890BA64736F6C6343 STOP ADDMOD SLT STOP CALLER "
				},
				"gasEstimates": {
					"creation": {
						"codeDepositCost": "1066800",
						"executionCost": "infinite",
						"totalCost": "infinite"
					},
					"external": {
						"Bridge(bytes,uint256)": "infinite",
						"allowance(address,address)": "infinite",
						"approveToken(address,address)": "infinite",
						"decodeInput(bytes)": "infinite",
						"encode((address,bytes32,bytes32,uint256,bytes32,uint256,uint8,uint256))": "infinite",
						"owner()": "2522",
						"renounceOwnership()": "30465",
						"transferOwnership(address)": "30810"
					}
				},
				"methodIdentifiers": {
					"Bridge(bytes,uint256)": "0a2fb374",
					"allowance(address,address)": "dd62ed3e",
					"approveToken(address,address)": "03105b04",
					"decodeInput(bytes)": "2e065ae5",
					"encode((address,bytes32,bytes32,uint256,bytes32,uint256,uint8,uint256))": "e34abd88",
					"owner()": "8da5cb5b",
					"renounceOwnership()": "715018a6",
					"transferOwnership(address)": "f2fde38b"
				}
			},
			"storageLayout": {
				"storage": [
					{
						"astId": 7,
						"contract": "contracts/AllBridge.sol:ALLBridge",
						"label": "_owner",
						"offset": 0,
						"slot": "0",
						"type": "t_address"
					}
				],
				"types": {
					"t_address": {
						"encoding": "inplace",
						"label": "address",
						"numberOfBytes": "20"
					}
				}
			},
			"userdoc": {
				"kind": "user",
				"methods": {},
				"version": 1
			}
		}
	}
}