{
	"contracts/getpool.sol": {
		"test": {
			"abi": [
				{
					"inputs": [
						{
							"internalType": "bytes",
							"name": "pool",
							"type": "bytes"
						}
					],
					"name": "decode",
					"outputs": [
						{
							"internalType": "address",
							"name": "tokenA",
							"type": "address"
						},
						{
							"internalType": "address",
							"name": "tokenB",
							"type": "address"
						},
						{
							"internalType": "uint24",
							"name": "fee",
							"type": "uint24"
						}
					],
					"stateMutability": "view",
					"type": "function"
				}
			],
			"devdoc": {
				"kind": "dev",
				"methods": {},
				"version": 1
			},
			"evm": {
				"assembly": "    /* \"contracts/getpool.sol\":121:362  contract test {... */\n  mstore(0x40, 0x80)\n  callvalue\n  dup1\n  iszero\n  tag_1\n  jumpi\n  0x00\n  dup1\n  revert\ntag_1:\n  pop\n  dataSize(sub_0)\n  dup1\n  dataOffset(sub_0)\n  0x00\n  codecopy\n  0x00\n  return\nstop\n\nsub_0: assembly {\n        /* \"contracts/getpool.sol\":121:362  contract test {... */\n      mstore(0x40, 0x80)\n      callvalue\n      dup1\n      iszero\n      tag_1\n      jumpi\n      0x00\n      dup1\n      revert\n    tag_1:\n      pop\n      jumpi(tag_2, lt(calldatasize, 0x04))\n      shr(0xe0, calldataload(0x00))\n      dup1\n      0xe5c5e9a3\n      eq\n      tag_3\n      jumpi\n    tag_2:\n      0x00\n      dup1\n      revert\n        /* \"contracts/getpool.sol\":168:360  function decode(bytes memory pool) public view returns (... */\n    tag_3:\n      tag_4\n      0x04\n      dup1\n      calldatasize\n      sub\n      0x20\n      dup2\n      lt\n      iszero\n      tag_5\n      jumpi\n      0x00\n      dup1\n      revert\n    tag_5:\n      dup2\n      add\n      swap1\n      dup1\n      dup1\n      calldataload\n      swap1\n      0x20\n      add\n      swap1\n      0x0100000000\n      dup2\n      gt\n      iszero\n      tag_6\n      jumpi\n      0x00\n      dup1\n      revert\n    tag_6:\n      dup3\n      add\n      dup4\n      0x20\n      dup3\n      add\n      gt\n      iszero\n      tag_7\n      jumpi\n      0x00\n      dup1\n      revert\n    tag_7:\n      dup1\n      calldataload\n      swap1\n      0x20\n      add\n      swap2\n      dup5\n      0x01\n      dup4\n      mul\n      dup5\n      add\n      gt\n      0x0100000000\n      dup4\n      gt\n      or\n      iszero\n      tag_8\n      jumpi\n      0x00\n      dup1\n      revert\n    tag_8:\n      swap2\n      swap1\n      dup1\n      dup1\n      0x1f\n      add\n      0x20\n      dup1\n      swap2\n      div\n      mul\n      0x20\n      add\n      mload(0x40)\n      swap1\n      dup2\n      add\n      0x40\n      mstore\n      dup1\n      swap4\n      swap3\n      swap2\n      swap1\n      dup2\n      dup2\n      mstore\n      0x20\n      add\n      dup4\n      dup4\n      dup1\n      dup3\n      dup5\n      calldatacopy\n      0x00\n      dup2\n      dup5\n      add\n      mstore\n      not(0x1f)\n      0x1f\n      dup3\n      add\n      and\n      swap1\n      pop\n      dup1\n      dup4\n      add\n      swap3\n      pop\n      pop\n      pop\n      pop\n      pop\n      pop\n      pop\n      swap2\n      swap3\n      swap2\n      swap3\n      swap1\n      pop\n      pop\n      pop\n      tag_9\n      jump\t// in\n    tag_4:\n      mload(0x40)\n      dup1\n      dup5\n      0xffffffffffffffffffffffffffffffffffffffff\n      and\n      dup2\n      mstore\n      0x20\n      add\n      dup4\n      0xffffffffffffffffffffffffffffffffffffffff\n      and\n      dup2\n      mstore\n      0x20\n      add\n      dup3\n      0xffffff\n      and\n      dup2\n      mstore\n      0x20\n      add\n      swap4\n      pop\n      pop\n      pop\n      pop\n      mload(0x40)\n      dup1\n      swap2\n      sub\n      swap1\n      return\n    tag_9:\n        /* \"contracts/getpool.sol\":237:251  address tokenA */\n      0x00\n        /* \"contracts/getpool.sol\":265:279  address tokenB */\n      dup1\n        /* \"contracts/getpool.sol\":293:303  uint24 fee */\n      0x00\n        /* \"contracts/getpool.sol\":331:353  pool.decodeFirstPool() */\n      tag_11\n        /* \"contracts/getpool.sol\":331:335  pool */\n      dup5\n        /* \"contracts/getpool.sol\":331:351  pool.decodeFirstPool */\n      tag_12\n        /* \"contracts/getpool.sol\":331:353  pool.decodeFirstPool() */\n      jump\t// in\n    tag_11:\n        /* \"contracts/getpool.sol\":324:353  return pool.decodeFirstPool() */\n      swap3\n      pop\n      swap3\n      pop\n      swap3\n      pop\n        /* \"contracts/getpool.sol\":168:360  function decode(bytes memory pool) public view returns (... */\n      swap2\n      swap4\n      swap1\n      swap3\n      pop\n      jump\t// out\n        /* \"@uniswap/v3-periphery/contracts/libraries/Path.sol\":1779:2093  function decodeFirstPool(bytes memory path)... */\n    tag_12:\n        /* \"@uniswap/v3-periphery/contracts/libraries/Path.sol\":1883:1897  address tokenA */\n      0x00\n        /* \"@uniswap/v3-periphery/contracts/libraries/Path.sol\":1911:1925  address tokenB */\n      dup1\n        /* \"@uniswap/v3-periphery/contracts/libraries/Path.sol\":1939:1949  uint24 fee */\n      0x00\n        /* \"@uniswap/v3-periphery/contracts/libraries/Path.sol\":1983:2000  path.toAddress(0) */\n      tag_14\n        /* \"@uniswap/v3-periphery/contracts/libraries/Path.sol\":1998:1999  0 */\n      0x00\n        /* \"@uniswap/v3-periphery/contracts/libraries/Path.sol\":1983:1987  path */\n      dup6\n        /* \"@uniswap/v3-periphery/contracts/libraries/Path.sol\":1983:1997  path.toAddress */\n      tag_15\n      swap1\n        /* \"@uniswap/v3-periphery/contracts/libraries/Path.sol\":1983:2000  path.toAddress(0) */\n      swap2\n      swap1\n      0xffffffff\n      and\n      jump\t// in\n    tag_14:\n        /* \"@uniswap/v3-periphery/contracts/libraries/Path.sol\":1974:2000  tokenA = path.toAddress(0) */\n      swap3\n      pop\n        /* \"@uniswap/v3-periphery/contracts/libraries/Path.sol\":2016:2040  path.toUint24(ADDR_SIZE) */\n      tag_16\n        /* \"@uniswap/v3-periphery/contracts/libraries/Path.sol\":304:306  20 */\n      0x14\n        /* \"@uniswap/v3-periphery/contracts/libraries/Path.sol\":2016:2020  path */\n      dup6\n        /* \"@uniswap/v3-periphery/contracts/libraries/Path.sol\":2016:2029  path.toUint24 */\n      tag_17\n      swap1\n        /* \"@uniswap/v3-periphery/contracts/libraries/Path.sol\":2016:2040  path.toUint24(ADDR_SIZE) */\n      swap2\n      swap1\n      0xffffffff\n      and\n      jump\t// in\n    tag_16:\n        /* \"@uniswap/v3-periphery/contracts/libraries/Path.sol\":2010:2040  fee = path.toUint24(ADDR_SIZE) */\n      swap1\n      pop\n        /* \"@uniswap/v3-periphery/contracts/libraries/Path.sol\":2059:2086  path.toAddress(NEXT_OFFSET) */\n      tag_18\n        /* \"@uniswap/v3-periphery/contracts/libraries/Path.sol\":397:398  3 */\n      0x03\n        /* \"@uniswap/v3-periphery/contracts/libraries/Path.sol\":304:306  20 */\n      0x14\n        /* \"@uniswap/v3-periphery/contracts/libraries/Path.sol\":507:527  ADDR_SIZE + FEE_SIZE */\n      add\n        /* \"@uniswap/v3-periphery/contracts/libraries/Path.sol\":2059:2063  path */\n      dup6\n        /* \"@uniswap/v3-periphery/contracts/libraries/Path.sol\":2059:2073  path.toAddress */\n      tag_15\n      swap1\n        /* \"@uniswap/v3-periphery/contracts/libraries/Path.sol\":2059:2086  path.toAddress(NEXT_OFFSET) */\n      swap2\n      swap1\n      0xffffffff\n      and\n      jump\t// in\n    tag_18:\n        /* \"@uniswap/v3-periphery/contracts/libraries/Path.sol\":2050:2086  tokenB = path.toAddress(NEXT_OFFSET) */\n      swap2\n      pop\n        /* \"@uniswap/v3-periphery/contracts/libraries/Path.sol\":1779:2093  function decodeFirstPool(bytes memory path)... */\n      swap2\n      swap4\n      swap1\n      swap3\n      pop\n      jump\t// out\n        /* \"@uniswap/v3-periphery/contracts/libraries/BytesLib.sol\":3412:3828  function toAddress(bytes memory _bytes, uint256 _start) internal pure returns (address) {... */\n    tag_15:\n        /* \"@uniswap/v3-periphery/contracts/libraries/BytesLib.sol\":3491:3498  address */\n      0x00\n        /* \"@uniswap/v3-periphery/contracts/libraries/BytesLib.sol\":3533:3539  _start */\n      dup2\n        /* \"@uniswap/v3-periphery/contracts/libraries/BytesLib.sol\":3527:3529  20 */\n      0x14\n        /* \"@uniswap/v3-periphery/contracts/libraries/BytesLib.sol\":3518:3524  _start */\n      dup4\n        /* \"@uniswap/v3-periphery/contracts/libraries/BytesLib.sol\":3518:3529  _start + 20 */\n      add\n        /* \"@uniswap/v3-periphery/contracts/libraries/BytesLib.sol\":3518:3539  _start + 20 >= _start */\n      lt\n      iszero\n        /* \"@uniswap/v3-periphery/contracts/libraries/BytesLib.sol\":3510:3562  require(_start + 20 >= _start, 'toAddress_overflow') */\n      tag_20\n      jumpi\n      mload(0x40)\n      0x08c379a000000000000000000000000000000000000000000000000000000000\n      dup2\n      mstore\n      0x04\n      add\n      dup1\n      dup1\n      0x20\n      add\n      dup3\n      dup2\n      sub\n      dup3\n      mstore\n      0x12\n      dup2\n      mstore\n      0x20\n      add\n      dup1\n      0x746f416464726573735f6f766572666c6f770000000000000000000000000000\n      dup2\n      mstore\n      pop\n      0x20\n      add\n      swap2\n      pop\n      pop\n      mload(0x40)\n      dup1\n      swap2\n      sub\n      swap1\n      revert\n    tag_20:\n        /* \"@uniswap/v3-periphery/contracts/libraries/BytesLib.sol\":3606:3608  20 */\n      0x14\n        /* \"@uniswap/v3-periphery/contracts/libraries/BytesLib.sol\":3597:3603  _start */\n      dup3\n        /* \"@uniswap/v3-periphery/contracts/libraries/BytesLib.sol\":3597:3608  _start + 20 */\n      add\n        /* \"@uniswap/v3-periphery/contracts/libraries/BytesLib.sol\":3580:3586  _bytes */\n      dup4\n        /* \"@uniswap/v3-periphery/contracts/libraries/BytesLib.sol\":3580:3593  _bytes.length */\n      mload\n        /* \"@uniswap/v3-periphery/contracts/libraries/BytesLib.sol\":3580:3608  _bytes.length >= _start + 20 */\n      lt\n      iszero\n        /* \"@uniswap/v3-periphery/contracts/libraries/BytesLib.sol\":3572:3634  require(_bytes.length >= _start + 20, 'toAddress_outOfBounds') */\n      tag_21\n      jumpi\n      mload(0x40)\n      0x08c379a000000000000000000000000000000000000000000000000000000000\n      dup2\n      mstore\n      0x04\n      add\n      dup1\n      dup1\n      0x20\n      add\n      dup3\n      dup2\n      sub\n      dup3\n      mstore\n      0x15\n      dup2\n      mstore\n      0x20\n      add\n      dup1\n      0x746f416464726573735f6f75744f66426f756e64730000000000000000000000\n      dup2\n      mstore\n      pop\n      0x20\n      add\n      swap2\n      pop\n      pop\n      mload(0x40)\n      dup1\n      swap2\n      sub\n      swap1\n      revert\n    tag_21:\n        /* \"@uniswap/v3-periphery/contracts/libraries/BytesLib.sol\":3644:3663  address tempAddress */\n      0x00\n        /* \"@uniswap/v3-periphery/contracts/libraries/BytesLib.sol\":3755:3782  0x1000000000000000000000000 */\n      0x01000000000000000000000000\n        /* \"@uniswap/v3-periphery/contracts/libraries/BytesLib.sol\":3745:3751  _start */\n      dup4\n        /* \"@uniswap/v3-periphery/contracts/libraries/BytesLib.sol\":3738:3742  0x20 */\n      0x20\n        /* \"@uniswap/v3-periphery/contracts/libraries/BytesLib.sol\":3730:3736  _bytes */\n      dup7\n        /* \"@uniswap/v3-periphery/contracts/libraries/BytesLib.sol\":3726:3743  add(_bytes, 0x20) */\n      add\n        /* \"@uniswap/v3-periphery/contracts/libraries/BytesLib.sol\":3722:3752  add(add(_bytes, 0x20), _start) */\n      add\n        /* \"@uniswap/v3-periphery/contracts/libraries/BytesLib.sol\":3716:3753  mload(add(add(_bytes, 0x20), _start)) */\n      mload\n        /* \"@uniswap/v3-periphery/contracts/libraries/BytesLib.sol\":3712:3783  div(mload(add(add(_bytes, 0x20), _start)), 0x1000000000000000000000000) */\n      div\n        /* \"@uniswap/v3-periphery/contracts/libraries/BytesLib.sol\":3697:3783  tempAddress := div(mload(add(add(_bytes, 0x20), _start)), 0x1000000000000000000000000) */\n      swap1\n      pop\n        /* \"@uniswap/v3-periphery/contracts/libraries/BytesLib.sol\":3810:3821  tempAddress */\n      dup1\n        /* \"@uniswap/v3-periphery/contracts/libraries/BytesLib.sol\":3803:3821  return tempAddress */\n      swap2\n      pop\n      pop\n        /* \"@uniswap/v3-periphery/contracts/libraries/BytesLib.sol\":3412:3828  function toAddress(bytes memory _bytes, uint256 _start) internal pure returns (address) {... */\n      swap3\n      swap2\n      pop\n      pop\n      jump\t// out\n        /* \"@uniswap/v3-periphery/contracts/libraries/BytesLib.sol\":3834:4199  function toUint24(bytes memory _bytes, uint256 _start) internal pure returns (uint24) {... */\n    tag_17:\n        /* \"@uniswap/v3-periphery/contracts/libraries/BytesLib.sol\":3912:3918  uint24 */\n      0x00\n        /* \"@uniswap/v3-periphery/contracts/libraries/BytesLib.sol\":3952:3958  _start */\n      dup2\n        /* \"@uniswap/v3-periphery/contracts/libraries/BytesLib.sol\":3947:3948  3 */\n      0x03\n        /* \"@uniswap/v3-periphery/contracts/libraries/BytesLib.sol\":3938:3944  _start */\n      dup4\n        /* \"@uniswap/v3-periphery/contracts/libraries/BytesLib.sol\":3938:3948  _start + 3 */\n      add\n        /* \"@uniswap/v3-periphery/contracts/libraries/BytesLib.sol\":3938:3958  _start + 3 >= _start */\n      lt\n      iszero\n        /* \"@uniswap/v3-periphery/contracts/libraries/BytesLib.sol\":3930:3980  require(_start + 3 >= _start, 'toUint24_overflow') */\n      tag_23\n      jumpi\n      mload(0x40)\n      0x08c379a000000000000000000000000000000000000000000000000000000000\n      dup2\n      mstore\n      0x04\n      add\n      dup1\n      dup1\n      0x20\n      add\n      dup3\n      dup2\n      sub\n      dup3\n      mstore\n      0x11\n      dup2\n      mstore\n      0x20\n      add\n      dup1\n      0x746f55696e7432345f6f766572666c6f77000000000000000000000000000000\n      dup2\n      mstore\n      pop\n      0x20\n      add\n      swap2\n      pop\n      pop\n      mload(0x40)\n      dup1\n      swap2\n      sub\n      swap1\n      revert\n    tag_23:\n        /* \"@uniswap/v3-periphery/contracts/libraries/BytesLib.sol\":4024:4025  3 */\n      0x03\n        /* \"@uniswap/v3-periphery/contracts/libraries/BytesLib.sol\":4015:4021  _start */\n      dup3\n        /* \"@uniswap/v3-periphery/contracts/libraries/BytesLib.sol\":4015:4025  _start + 3 */\n      add\n        /* \"@uniswap/v3-periphery/contracts/libraries/BytesLib.sol\":3998:4004  _bytes */\n      dup4\n        /* \"@uniswap/v3-periphery/contracts/libraries/BytesLib.sol\":3998:4011  _bytes.length */\n      mload\n        /* \"@uniswap/v3-periphery/contracts/libraries/BytesLib.sol\":3998:4025  _bytes.length >= _start + 3 */\n      lt\n      iszero\n        /* \"@uniswap/v3-periphery/contracts/libraries/BytesLib.sol\":3990:4050  require(_bytes.length >= _start + 3, 'toUint24_outOfBounds') */\n      tag_24\n      jumpi\n      mload(0x40)\n      0x08c379a000000000000000000000000000000000000000000000000000000000\n      dup2\n      mstore\n      0x04\n      add\n      dup1\n      dup1\n      0x20\n      add\n      dup3\n      dup2\n      sub\n      dup3\n      mstore\n      0x14\n      dup2\n      mstore\n      0x20\n      add\n      dup1\n      0x746f55696e7432345f6f75744f66426f756e6473000000000000000000000000\n      dup2\n      mstore\n      pop\n      0x20\n      add\n      swap2\n      pop\n      pop\n      mload(0x40)\n      dup1\n      swap2\n      sub\n      swap1\n      revert\n    tag_24:\n        /* \"@uniswap/v3-periphery/contracts/libraries/BytesLib.sol\":4060:4075  uint24 tempUint */\n      0x00\n        /* \"@uniswap/v3-periphery/contracts/libraries/BytesLib.sol\":4149:4155  _start */\n      dup3\n        /* \"@uniswap/v3-periphery/contracts/libraries/BytesLib.sol\":4143:4146  0x3 */\n      0x03\n        /* \"@uniswap/v3-periphery/contracts/libraries/BytesLib.sol\":4135:4141  _bytes */\n      dup6\n        /* \"@uniswap/v3-periphery/contracts/libraries/BytesLib.sol\":4131:4147  add(_bytes, 0x3) */\n      add\n        /* \"@uniswap/v3-periphery/contracts/libraries/BytesLib.sol\":4127:4156  add(add(_bytes, 0x3), _start) */\n      add\n        /* \"@uniswap/v3-periphery/contracts/libraries/BytesLib.sol\":4121:4157  mload(add(add(_bytes, 0x3), _start)) */\n      mload\n        /* \"@uniswap/v3-periphery/contracts/libraries/BytesLib.sol\":4109:4157  tempUint := mload(add(add(_bytes, 0x3), _start)) */\n      swap1\n      pop\n        /* \"@uniswap/v3-periphery/contracts/libraries/BytesLib.sol\":4184:4192  tempUint */\n      dup1\n        /* \"@uniswap/v3-periphery/contracts/libraries/BytesLib.sol\":4177:4192  return tempUint */\n      swap2\n      pop\n      pop\n        /* \"@uniswap/v3-periphery/contracts/libraries/BytesLib.sol\":3834:4199  function toUint24(bytes memory _bytes, uint256 _start) internal pure returns (uint24) {... */\n      swap3\n      swap2\n      pop\n      pop\n      jump\t// out\n\n    auxdata: 0xa26469706673582212206703bd0e20efa19b8b3a31cbaf46760ecc43ab58239237ce940cc6a402991de664736f6c63430007060033\n}\n",
				"bytecode": {
					"linkReferences": {},
					"object": "608060405234801561001057600080fd5b50610403806100206000396000f3fe608060405234801561001057600080fd5b506004361061002b5760003560e01c8063e5c5e9a314610030575b600080fd5b6100e96004803603602081101561004657600080fd5b810190808035906020019064010000000081111561006357600080fd5b82018360208201111561007557600080fd5b8035906020019184600183028401116401000000008311171561009757600080fd5b91908080601f016020809104026020016040519081016040528093929190818152602001838380828437600081840152601f19601f82011690508083019250505050505050919291929050505061013e565b604051808473ffffffffffffffffffffffffffffffffffffffff1681526020018373ffffffffffffffffffffffffffffffffffffffff1681526020018262ffffff168152602001935050505060405180910390f35b600080600061014c84610159565b9250925092509193909250565b60008060006101726000856101aa90919063ffffffff16565b92506101886014856102c390919063ffffffff16565b90506101a16003601401856101aa90919063ffffffff16565b91509193909250565b600081601483011015610225576040517f08c379a00000000000000000000000000000000000000000000000000000000081526004018080602001828103825260128152602001807f746f416464726573735f6f766572666c6f77000000000000000000000000000081525060200191505060405180910390fd5b601482018351101561029f576040517f08c379a00000000000000000000000000000000000000000000000000000000081526004018080602001828103825260158152602001807f746f416464726573735f6f75744f66426f756e6473000000000000000000000081525060200191505060405180910390fd5b60006c01000000000000000000000000836020860101510490508091505092915050565b60008160038301101561033e576040517f08c379a00000000000000000000000000000000000000000000000000000000081526004018080602001828103825260118152602001807f746f55696e7432345f6f766572666c6f7700000000000000000000000000000081525060200191505060405180910390fd5b60038201835110156103b8576040517f08c379a00000000000000000000000000000000000000000000000000000000081526004018080602001828103825260148152602001807f746f55696e7432345f6f75744f66426f756e647300000000000000000000000081525060200191505060405180910390fd5b6000826003850101519050809150509291505056fea26469706673582212206703bd0e20efa19b8b3a31cbaf46760ecc43ab58239237ce940cc6a402991de664736f6c63430007060033",
					"opcodes": "PUSH1 0x80 PUSH1 0x40 MSTORE CALLVALUE DUP1 ISZERO PUSH2 0x10 JUMPI PUSH1 0x0 DUP1 REVERT JUMPDEST POP PUSH2 0x403 DUP1 PUSH2 0x20 PUSH1 0x0 CODECOPY PUSH1 0x0 RETURN INVALID PUSH1 0x80 PUSH1 0x40 MSTORE CALLVALUE DUP1 ISZERO PUSH2 0x10 JUMPI PUSH1 0x0 DUP1 REVERT JUMPDEST POP PUSH1 0x4 CALLDATASIZE LT PUSH2 0x2B JUMPI PUSH1 0x0 CALLDATALOAD PUSH1 0xE0 SHR DUP1 PUSH4 0xE5C5E9A3 EQ PUSH2 0x30 JUMPI JUMPDEST PUSH1 0x0 DUP1 REVERT JUMPDEST PUSH2 0xE9 PUSH1 0x4 DUP1 CALLDATASIZE SUB PUSH1 0x20 DUP2 LT ISZERO PUSH2 0x46 JUMPI PUSH1 0x0 DUP1 REVERT JUMPDEST DUP2 ADD SWAP1 DUP1 DUP1 CALLDATALOAD SWAP1 PUSH1 0x20 ADD SWAP1 PUSH5 0x100000000 DUP2 GT ISZERO PUSH2 0x63 JUMPI PUSH1 0x0 DUP1 REVERT JUMPDEST DUP3 ADD DUP4 PUSH1 0x20 DUP3 ADD GT ISZERO PUSH2 0x75 JUMPI PUSH1 0x0 DUP1 REVERT JUMPDEST DUP1 CALLDATALOAD SWAP1 PUSH1 0x20 ADD SWAP2 DUP5 PUSH1 0x1 DUP4 MUL DUP5 ADD GT PUSH5 0x100000000 DUP4 GT OR ISZERO PUSH2 0x97 JUMPI PUSH1 0x0 DUP1 REVERT JUMPDEST SWAP2 SWAP1 DUP1 DUP1 PUSH1 0x1F ADD PUSH1 0x20 DUP1 SWAP2 DIV MUL PUSH1 0x20 ADD PUSH1 0x40 MLOAD SWAP1 DUP2 ADD PUSH1 0x40 MSTORE DUP1 SWAP4 SWAP3 SWAP2 SWAP1 DUP2 DUP2 MSTORE PUSH1 0x20 ADD DUP4 DUP4 DUP1 DUP3 DUP5 CALLDATACOPY PUSH1 0x0 DUP2 DUP5 ADD MSTORE PUSH1 0x1F NOT PUSH1 0x1F DUP3 ADD AND SWAP1 POP DUP1 DUP4 ADD SWAP3 POP POP POP POP POP POP POP SWAP2 SWAP3 SWAP2 SWAP3 SWAP1 POP POP POP PUSH2 0x13E JUMP JUMPDEST PUSH1 0x40 MLOAD DUP1 DUP5 PUSH20 0xFFFFFFFFFFFFFFFFFFFFFFFFFFFFFFFFFFFFFFFF AND DUP2 MSTORE PUSH1 0x20 ADD DUP4 PUSH20 0xFFFFFFFFFFFFFFFFFFFFFFFFFFFFFFFFFFFFFFFF AND DUP2 MSTORE PUSH1 0x20 ADD DUP3 PUSH3 0xFFFFFF AND DUP2 MSTORE PUSH1 0x20 ADD SWAP4 POP POP POP POP PUSH1 0x40 MLOAD DUP1 SWAP2 SUB SWAP1 RETURN JUMPDEST PUSH1 0x0 DUP1 PUSH1 0x0 PUSH2 0x14C DUP5 PUSH2 0x159 JUMP JUMPDEST SWAP3 POP SWAP3 POP SWAP3 POP SWAP2 SWAP4 SWAP1 SWAP3 POP JUMP JUMPDEST PUSH1 0x0 DUP1 PUSH1 0x0 PUSH2 0x172 PUSH1 0x0 DUP6 PUSH2 0x1AA SWAP1 SWAP2 SWAP1 PUSH4 0xFFFFFFFF AND JUMP JUMPDEST SWAP3 POP PUSH2 0x188 PUSH1 0x14 DUP6 PUSH2 0x2C3 SWAP1 SWAP2 SWAP1 PUSH4 0xFFFFFFFF AND JUMP JUMPDEST SWAP1 POP PUSH2 0x1A1 PUSH1 0x3 PUSH1 0x14 ADD DUP6 PUSH2 0x1AA SWAP1 SWAP2 SWAP1 PUSH4 0xFFFFFFFF AND JUMP JUMPDEST SWAP2 POP SWAP2 SWAP4 SWAP1 SWAP3 POP JUMP JUMPDEST PUSH1 0x0 DUP2 PUSH1 0x14 DUP4 ADD LT ISZERO PUSH2 0x225 JUMPI PUSH1 0x40 MLOAD PUSH32 0x8C379A000000000000000000000000000000000000000000000000000000000 DUP2 MSTORE PUSH1 0x4 ADD DUP1 DUP1 PUSH1 0x20 ADD DUP3 DUP2 SUB DUP3 MSTORE PUSH1 0x12 DUP2 MSTORE PUSH1 0x20 ADD DUP1 PUSH32 0x746F416464726573735F6F766572666C6F770000000000000000000000000000 DUP2 MSTORE POP PUSH1 0x20 ADD SWAP2 POP POP PUSH1 0x40 MLOAD DUP1 SWAP2 SUB SWAP1 REVERT JUMPDEST PUSH1 0x14 DUP3 ADD DUP4 MLOAD LT ISZERO PUSH2 0x29F JUMPI PUSH1 0x40 MLOAD PUSH32 0x8C379A000000000000000000000000000000000000000000000000000000000 DUP2 MSTORE PUSH1 0x4 ADD DUP1 DUP1 PUSH1 0x20 ADD DUP3 DUP2 SUB DUP3 MSTORE PUSH1 0x15 DUP2 MSTORE PUSH1 0x20 ADD DUP1 PUSH32 0x746F416464726573735F6F75744F66426F756E64730000000000000000000000 DUP2 MSTORE POP PUSH1 0x20 ADD SWAP2 POP POP PUSH1 0x40 MLOAD DUP1 SWAP2 SUB SWAP1 REVERT JUMPDEST PUSH1 0x0 PUSH13 0x1000000000000000000000000 DUP4 PUSH1 0x20 DUP7 ADD ADD MLOAD DIV SWAP1 POP DUP1 SWAP2 POP POP SWAP3 SWAP2 POP POP JUMP JUMPDEST PUSH1 0x0 DUP2 PUSH1 0x3 DUP4 ADD LT ISZERO PUSH2 0x33E JUMPI PUSH1 0x40 MLOAD PUSH32 0x8C379A000000000000000000000000000000000000000000000000000000000 DUP2 MSTORE PUSH1 0x4 ADD DUP1 DUP1 PUSH1 0x20 ADD DUP3 DUP2 SUB DUP3 MSTORE PUSH1 0x11 DUP2 MSTORE PUSH1 0x20 ADD DUP1 PUSH32 0x746F55696E7432345F6F766572666C6F77000000000000000000000000000000 DUP2 MSTORE POP PUSH1 0x20 ADD SWAP2 POP POP PUSH1 0x40 MLOAD DUP1 SWAP2 SUB SWAP1 REVERT JUMPDEST PUSH1 0x3 DUP3 ADD DUP4 MLOAD LT ISZERO PUSH2 0x3B8 JUMPI PUSH1 0x40 MLOAD PUSH32 0x8C379A000000000000000000000000000000000000000000000000000000000 DUP2 MSTORE PUSH1 0x4 ADD DUP1 DUP1 PUSH1 0x20 ADD DUP3 DUP2 SUB DUP3 MSTORE PUSH1 0x14 DUP2 MSTORE PUSH1 0x20 ADD DUP1 PUSH32 0x746F55696E7432345F6F75744F66426F756E6473000000000000000000000000 DUP2 MSTORE POP PUSH1 0x20 ADD SWAP2 POP POP PUSH1 0x40 MLOAD DUP1 SWAP2 SUB SWAP1 REVERT JUMPDEST PUSH1 0x0 DUP3 PUSH1 0x3 DUP6 ADD ADD MLOAD SWAP1 POP DUP1 SWAP2 POP POP SWAP3 SWAP2 POP POP JUMP INVALID LOG2 PUSH5 0x6970667358 0x22 SLT KECCAK256 PUSH8 0x3BD0E20EFA19B8B GASPRICE BALANCE 0xCB 0xAF CHAINID PUSH23 0xECC43AB58239237CE940CC6A402991DE664736F6C6343 STOP SMOD MOD STOP CALLER "
				},
				"gasEstimates": {
					"creation": {
						"codeDepositCost": "205400",
						"executionCost": "251",
						"totalCost": "205651"
					},
					"external": {
						"decode(bytes)": "infinite"
					}
				},
				"methodIdentifiers": {
					"decode(bytes)": "e5c5e9a3"
				}
			},
			"storageLayout": {
				"storage": [],
				"types": null
			},
			"userdoc": {
				"kind": "user",
				"methods": {},
				"version": 1
			}
		}
	}
}