{
	"contracts/allBridge.sol": {
		"ALLBridge": {
			"abi": [
				{
					"inputs": [
						{
							"internalType": "address",
							"name": "_bridge",
							"type": "address"
						}
					],
					"stateMutability": "nonpayable",
					"type": "constructor"
				},
				{
					"anonymous": false,
					"inputs": [
						{
							"indexed": true,
							"internalType": "address",
							"name": "previousOwner",
							"type": "address"
						},
						{
							"indexed": true,
							"internalType": "address",
							"name": "newOwner",
							"type": "address"
						}
					],
					"name": "OwnershipTransferred",
					"type": "event"
				},
				{
					"inputs": [
						{
							"internalType": "bytes",
							"name": "data",
							"type": "bytes"
						},
						{
							"internalType": "uint256",
							"name": "amountIn",
							"type": "uint256"
						}
					],
					"name": "Bridge",
					"outputs": [],
					"stateMutability": "payable",
					"type": "function"
				},
				{
					"inputs": [
						{
							"internalType": "address",
							"name": "token",
							"type": "address"
						},
						{
							"internalType": "address",
							"name": "pool",
							"type": "address"
						}
					],
					"name": "approveToken",
					"outputs": [],
					"stateMutability": "nonpayable",
					"type": "function"
				},
				{
					"inputs": [],
					"name": "bridge",
					"outputs": [
						{
							"internalType": "address",
							"name": "",
							"type": "address"
						}
					],
					"stateMutability": "view",
					"type": "function"
				},
				{
					"inputs": [],
					"name": "owner",
					"outputs": [
						{
							"internalType": "address",
							"name": "",
							"type": "address"
						}
					],
					"stateMutability": "view",
					"type": "function"
				},
				{
					"inputs": [],
					"name": "renounceOwnership",
					"outputs": [],
					"stateMutability": "nonpayable",
					"type": "function"
				},
				{
					"inputs": [
						{
							"internalType": "address",
							"name": "newOwner",
							"type": "address"
						}
					],
					"name": "transferOwnership",
					"outputs": [],
					"stateMutability": "nonpayable",
					"type": "function"
				}
			],
			"devdoc": {
				"kind": "dev",
				"methods": {
					"owner()": {
						"details": "Returns the address of the current owner."
					},
					"renounceOwnership()": {
						"details": "Leaves the contract without owner. It will not be possible to call `onlyOwner` functions anymore. Can only be called by the current owner. NOTE: Renouncing ownership will leave the contract without an owner, thereby removing any functionality that is only available to the owner."
					},
					"transferOwnership(address)": {
						"details": "Transfers ownership of the contract to a new account (`newOwner`). Can only be called by the current owner."
					}
				},
				"version": 1
			},
			"evm": {
				"assembly": "    /* \"contracts/allBridge.sol\":612:1877  contract ALLBridge is IBridge,Ownable {    ... */\n  mstore(0x40, 0x80)\n    /* \"contracts/allBridge.sol\":678:744  0xffffffffffffffffffffffffffffffffffffffffffffffffffffffffffffffff */\n  0xffffffffffffffffffffffffffffffffffffffffffffffffffffffffffffffff\n    /* \"contracts/allBridge.sol\":660:744  uint256 MAX_INT = 0xffffffffffffffffffffffffffffffffffffffffffffffffffffffffffffffff */\n  0x01\n  sstore\n    /* \"contracts/allBridge.sol\":1041:1103  constructor(address _bridge) {... */\n  callvalue\n  dup1\n  iszero\n  tag_1\n  jumpi\n  0x00\n  dup1\n  revert\ntag_1:\n  pop\n  mload(0x40)\n  sub(codesize, bytecodeSize)\n  dup1\n  bytecodeSize\n  dup4\n  codecopy\n  dup2\n  dup2\n  add\n  0x40\n  mstore\n  dup2\n  add\n  swap1\n  tag_2\n  swap2\n  swap1\n  tag_3\n  jump\t// in\ntag_2:\n    /* \"@openzeppelin/contracts/access/Ownable.sol\":936:968  _transferOwnership(_msgSender()) */\n  tag_7\n    /* \"@openzeppelin/contracts/access/Ownable.sol\":955:967  _msgSender() */\n  tag_8\n    /* \"@openzeppelin/contracts/access/Ownable.sol\":955:965  _msgSender */\n  shl(0x20, tag_9)\n    /* \"@openzeppelin/contracts/access/Ownable.sol\":955:967  _msgSender() */\n  0x20\n  shr\n  jump\t// in\ntag_8:\n    /* \"@openzeppelin/contracts/access/Ownable.sol\":936:954  _transferOwnership */\n  shl(0x20, tag_10)\n    /* \"@openzeppelin/contracts/access/Ownable.sol\":936:968  _transferOwnership(_msgSender()) */\n  0x20\n  shr\n  jump\t// in\ntag_7:\n    /* \"contracts/allBridge.sol\":1089:1096  _bridge */\n  dup1\n    /* \"contracts/allBridge.sol\":1080:1086  bridge */\n  0x02\n  0x00\n    /* \"contracts/allBridge.sol\":1080:1096  bridge = _bridge */\n  0x0100\n  exp\n  dup2\n  sload\n  dup2\n  0xffffffffffffffffffffffffffffffffffffffff\n  mul\n  not\n  and\n  swap1\n  dup4\n  0xffffffffffffffffffffffffffffffffffffffff\n  and\n  mul\n  or\n  swap1\n  sstore\n  pop\n    /* \"contracts/allBridge.sol\":1041:1103  constructor(address _bridge) {... */\n  pop\n    /* \"contracts/allBridge.sol\":612:1877  contract ALLBridge is IBridge,Ownable {    ... */\n  jump(tag_12)\n    /* \"@openzeppelin/contracts/utils/Context.sol\":640:736  function _msgSender() internal view virtual returns (address) {... */\ntag_9:\n    /* \"@openzeppelin/contracts/utils/Context.sol\":693:700  address */\n  0x00\n    /* \"@openzeppelin/contracts/utils/Context.sol\":719:729  msg.sender */\n  caller\n    /* \"@openzeppelin/contracts/utils/Context.sol\":712:729  return msg.sender */\n  swap1\n  pop\n    /* \"@openzeppelin/contracts/utils/Context.sol\":640:736  function _msgSender() internal view virtual returns (address) {... */\n  swap1\n  jump\t// out\n    /* \"@openzeppelin/contracts/access/Ownable.sol\":2433:2620  function _transferOwnership(address newOwner) internal virtual {... */\ntag_10:\n    /* \"@openzeppelin/contracts/access/Ownable.sol\":2506:2522  address oldOwner */\n  0x00\n    /* \"@openzeppelin/contracts/access/Ownable.sol\":2525:2531  _owner */\n  dup1\n  0x00\n  swap1\n  sload\n  swap1\n  0x0100\n  exp\n  swap1\n  div\n  0xffffffffffffffffffffffffffffffffffffffff\n  and\n    /* \"@openzeppelin/contracts/access/Ownable.sol\":2506:2531  address oldOwner = _owner */\n  swap1\n  pop\n    /* \"@openzeppelin/contracts/access/Ownable.sol\":2550:2558  newOwner */\n  dup2\n    /* \"@openzeppelin/contracts/access/Ownable.sol\":2541:2547  _owner */\n  0x00\n  dup1\n    /* \"@openzeppelin/contracts/access/Ownable.sol\":2541:2558  _owner = newOwner */\n  0x0100\n  exp\n  dup2\n  sload\n  dup2\n  0xffffffffffffffffffffffffffffffffffffffff\n  mul\n  not\n  and\n  swap1\n  dup4\n  0xffffffffffffffffffffffffffffffffffffffff\n  and\n  mul\n  or\n  swap1\n  sstore\n  pop\n    /* \"@openzeppelin/contracts/access/Ownable.sol\":2604:2612  newOwner */\n  dup2\n    /* \"@openzeppelin/contracts/access/Ownable.sol\":2573:2613  OwnershipTransferred(oldOwner, newOwner) */\n  0xffffffffffffffffffffffffffffffffffffffff\n  and\n    /* \"@openzeppelin/contracts/access/Ownable.sol\":2594:2602  oldOwner */\n  dup2\n    /* \"@openzeppelin/contracts/access/Ownable.sol\":2573:2613  OwnershipTransferred(oldOwner, newOwner) */\n  0xffffffffffffffffffffffffffffffffffffffff\n  and\n  0x8be0079c531659141344cd1fd0a4f28419497f9722a3daafe3b4186f6b6457e0\n  mload(0x40)\n  mload(0x40)\n  dup1\n  swap2\n  sub\n  swap1\n  log3\n    /* \"@openzeppelin/contracts/access/Ownable.sol\":2496:2620  {... */\n  pop\n    /* \"@openzeppelin/contracts/access/Ownable.sol\":2433:2620  function _transferOwnership(address newOwner) internal virtual {... */\n  pop\n  jump\t// out\n    /* \"#utility.yul\":88:205   */\ntag_16:\n    /* \"#utility.yul\":197:198   */\n  0x00\n    /* \"#utility.yul\":194:195   */\n  dup1\n    /* \"#utility.yul\":187:199   */\n  revert\n    /* \"#utility.yul\":334:460   */\ntag_18:\n    /* \"#utility.yul\":371:378   */\n  0x00\n    /* \"#utility.yul\":411:453   */\n  0xffffffffffffffffffffffffffffffffffffffff\n    /* \"#utility.yul\":404:409   */\n  dup3\n    /* \"#utility.yul\":400:454   */\n  and\n    /* \"#utility.yul\":389:454   */\n  swap1\n  pop\n    /* \"#utility.yul\":334:460   */\n  swap2\n  swap1\n  pop\n  jump\t// out\n    /* \"#utility.yul\":466:562   */\ntag_19:\n    /* \"#utility.yul\":503:510   */\n  0x00\n    /* \"#utility.yul\":532:556   */\n  tag_28\n    /* \"#utility.yul\":550:555   */\n  dup3\n    /* \"#utility.yul\":532:556   */\n  tag_18\n  jump\t// in\ntag_28:\n    /* \"#utility.yul\":521:556   */\n  swap1\n  pop\n    /* \"#utility.yul\":466:562   */\n  swap2\n  swap1\n  pop\n  jump\t// out\n    /* \"#utility.yul\":568:690   */\ntag_20:\n    /* \"#utility.yul\":641:665   */\n  tag_30\n    /* \"#utility.yul\":659:664   */\n  dup2\n    /* \"#utility.yul\":641:665   */\n  tag_19\n  jump\t// in\ntag_30:\n    /* \"#utility.yul\":634:639   */\n  dup2\n    /* \"#utility.yul\":631:666   */\n  eq\n    /* \"#utility.yul\":621:684   */\n  tag_31\n  jumpi\n    /* \"#utility.yul\":680:681   */\n  0x00\n    /* \"#utility.yul\":677:678   */\n  dup1\n    /* \"#utility.yul\":670:682   */\n  revert\n    /* \"#utility.yul\":621:684   */\ntag_31:\n    /* \"#utility.yul\":568:690   */\n  pop\n  jump\t// out\n    /* \"#utility.yul\":696:839   */\ntag_21:\n    /* \"#utility.yul\":753:758   */\n  0x00\n    /* \"#utility.yul\":784:790   */\n  dup2\n    /* \"#utility.yul\":778:791   */\n  mload\n    /* \"#utility.yul\":769:791   */\n  swap1\n  pop\n    /* \"#utility.yul\":800:833   */\n  tag_33\n    /* \"#utility.yul\":827:832   */\n  dup2\n    /* \"#utility.yul\":800:833   */\n  tag_20\n  jump\t// in\ntag_33:\n    /* \"#utility.yul\":696:839   */\n  swap3\n  swap2\n  pop\n  pop\n  jump\t// out\n    /* \"#utility.yul\":845:1196   */\ntag_3:\n    /* \"#utility.yul\":915:921   */\n  0x00\n    /* \"#utility.yul\":964:966   */\n  0x20\n    /* \"#utility.yul\":952:961   */\n  dup3\n    /* \"#utility.yul\":943:950   */\n  dup5\n    /* \"#utility.yul\":939:962   */\n  sub\n    /* \"#utility.yul\":935:967   */\n  slt\n    /* \"#utility.yul\":932:1051   */\n  iszero\n  tag_35\n  jumpi\n    /* \"#utility.yul\":970:1049   */\n  tag_36\n  tag_16\n  jump\t// in\ntag_36:\n    /* \"#utility.yul\":932:1051   */\ntag_35:\n    /* \"#utility.yul\":1090:1091   */\n  0x00\n    /* \"#utility.yul\":1115:1179   */\n  tag_37\n    /* \"#utility.yul\":1171:1178   */\n  dup5\n    /* \"#utility.yul\":1162:1168   */\n  dup3\n    /* \"#utility.yul\":1151:1160   */\n  dup6\n    /* \"#utility.yul\":1147:1169   */\n  add\n    /* \"#utility.yul\":1115:1179   */\n  tag_21\n  jump\t// in\ntag_37:\n    /* \"#utility.yul\":1105:1179   */\n  swap2\n  pop\n    /* \"#utility.yul\":1061:1189   */\n  pop\n    /* \"#utility.yul\":845:1196   */\n  swap3\n  swap2\n  pop\n  pop\n  jump\t// out\n    /* \"contracts/allBridge.sol\":612:1877  contract ALLBridge is IBridge,Ownable {    ... */\ntag_12:\n  dataSize(sub_0)\n  dup1\n  dataOffset(sub_0)\n  0x00\n  codecopy\n  0x00\n  return\nstop\n\nsub_0: assembly {\n        /* \"contracts/allBridge.sol\":612:1877  contract ALLBridge is IBridge,Ownable {    ... */\n      mstore(0x40, 0x80)\n      jumpi(tag_1, lt(calldatasize, 0x04))\n      shr(0xe0, calldataload(0x00))\n      dup1\n      0x03105b04\n      eq\n      tag_2\n      jumpi\n      dup1\n      0x0a2fb374\n      eq\n      tag_3\n      jumpi\n      dup1\n      0x715018a6\n      eq\n      tag_4\n      jumpi\n      dup1\n      0x8da5cb5b\n      eq\n      tag_5\n      jumpi\n      dup1\n      0xe78cea92\n      eq\n      tag_6\n      jumpi\n      dup1\n      0xf2fde38b\n      eq\n      tag_7\n      jumpi\n    tag_1:\n      0x00\n      dup1\n      revert\n        /* \"contracts/allBridge.sol\":1744:1874  function approveToken(address token,address pool) public onlyOwner {... */\n    tag_2:\n      callvalue\n      dup1\n      iszero\n      tag_8\n      jumpi\n      0x00\n      dup1\n      revert\n    tag_8:\n      pop\n      tag_9\n      0x04\n      dup1\n      calldatasize\n      sub\n      dup2\n      add\n      swap1\n      tag_10\n      swap2\n      swap1\n      tag_11\n      jump\t// in\n    tag_10:\n      tag_12\n      jump\t// in\n    tag_9:\n      stop\n        /* \"contracts/allBridge.sol\":1109:1739  function Bridge(bytes calldata data,uint amountIn) public payable {... */\n    tag_3:\n      tag_13\n      0x04\n      dup1\n      calldatasize\n      sub\n      dup2\n      add\n      swap1\n      tag_14\n      swap2\n      swap1\n      tag_15\n      jump\t// in\n    tag_14:\n      tag_16\n      jump\t// in\n    tag_13:\n      stop\n        /* \"@openzeppelin/contracts/access/Ownable.sol\":1831:1932  function renounceOwnership() public virtual onlyOwner {... */\n    tag_4:\n      callvalue\n      dup1\n      iszero\n      tag_17\n      jumpi\n      0x00\n      dup1\n      revert\n    tag_17:\n      pop\n      tag_18\n      tag_19\n      jump\t// in\n    tag_18:\n      stop\n        /* \"@openzeppelin/contracts/access/Ownable.sol\":1201:1286  function owner() public view virtual returns (address) {... */\n    tag_5:\n      callvalue\n      dup1\n      iszero\n      tag_20\n      jumpi\n      0x00\n      dup1\n      revert\n    tag_20:\n      pop\n      tag_21\n      tag_22\n      jump\t// in\n    tag_21:\n      mload(0x40)\n      tag_23\n      swap2\n      swap1\n      tag_24\n      jump\t// in\n    tag_23:\n      mload(0x40)\n      dup1\n      swap2\n      sub\n      swap1\n      return\n        /* \"contracts/allBridge.sol\":750:771  address public bridge */\n    tag_6:\n      callvalue\n      dup1\n      iszero\n      tag_25\n      jumpi\n      0x00\n      dup1\n      revert\n    tag_25:\n      pop\n      tag_26\n      tag_27\n      jump\t// in\n    tag_26:\n      mload(0x40)\n      tag_28\n      swap2\n      swap1\n      tag_24\n      jump\t// in\n    tag_28:\n      mload(0x40)\n      dup1\n      swap2\n      sub\n      swap1\n      return\n        /* \"@openzeppelin/contracts/access/Ownable.sol\":2081:2279  function transferOwnership(address newOwner) public virtual onlyOwner {... */\n    tag_7:\n      callvalue\n      dup1\n      iszero\n      tag_29\n      jumpi\n      0x00\n      dup1\n      revert\n    tag_29:\n      pop\n      tag_30\n      0x04\n      dup1\n      calldatasize\n      sub\n      dup2\n      add\n      swap1\n      tag_31\n      swap2\n      swap1\n      tag_32\n      jump\t// in\n    tag_31:\n      tag_33\n      jump\t// in\n    tag_30:\n      stop\n        /* \"contracts/allBridge.sol\":1744:1874  function approveToken(address token,address pool) public onlyOwner {... */\n    tag_12:\n        /* \"@openzeppelin/contracts/access/Ownable.sol\":1094:1107  _checkOwner() */\n      tag_35\n        /* \"@openzeppelin/contracts/access/Ownable.sol\":1094:1105  _checkOwner */\n      tag_36\n        /* \"@openzeppelin/contracts/access/Ownable.sol\":1094:1107  _checkOwner() */\n      jump\t// in\n    tag_35:\n        /* \"contracts/allBridge.sol\":1821:1867  TransferHelper.safeApprove(token,pool,MAX_INT) */\n      tag_38\n        /* \"contracts/allBridge.sol\":1848:1853  token */\n      dup3\n        /* \"contracts/allBridge.sol\":1854:1858  pool */\n      dup3\n        /* \"contracts/allBridge.sol\":1859:1866  MAX_INT */\n      sload(0x01)\n        /* \"contracts/allBridge.sol\":1821:1847  TransferHelper.safeApprove */\n      tag_39\n        /* \"contracts/allBridge.sol\":1821:1867  TransferHelper.safeApprove(token,pool,MAX_INT) */\n      jump\t// in\n    tag_38:\n        /* \"contracts/allBridge.sol\":1744:1874  function approveToken(address token,address pool) public onlyOwner {... */\n      pop\n      pop\n      jump\t// out\n        /* \"contracts/allBridge.sol\":1109:1739  function Bridge(bytes calldata data,uint amountIn) public payable {... */\n    tag_16:\n        /* \"contracts/allBridge.sol\":1186:1213  allBridgeInput memory input */\n      0x00\n        /* \"contracts/allBridge.sol\":1228:1232  data */\n      dup4\n      dup4\n        /* \"contracts/allBridge.sol\":1217:1250  abi.decode(data,(allBridgeInput)) */\n      dup2\n      add\n      swap1\n      tag_41\n      swap2\n      swap1\n      tag_42\n      jump\t// in\n    tag_41:\n        /* \"contracts/allBridge.sol\":1185:1250  (allBridgeInput memory input) = abi.decode(data,(allBridgeInput)) */\n      swap1\n      pop\n        /* \"contracts/allBridge.sol\":1265:1285  address tokenAddress */\n      0x00\n        /* \"contracts/allBridge.sol\":1312:1317  input */\n      dup2\n        /* \"contracts/allBridge.sol\":1312:1330  input.tokenAddress */\n      0x20\n      add\n      mload\n        /* \"contracts/allBridge.sol\":1304:1331  uint256(input.tokenAddress) */\n      0x00\n      shr\n        /* \"contracts/allBridge.sol\":1265:1333  address tokenAddress = address(uint160(uint256(input.tokenAddress))) */\n      swap1\n      pop\n        /* \"contracts/allBridge.sol\":1347:1426  TransferHelper.safeTransferFrom(tokenAddress,msg.sender,address(this),amountIn) */\n      tag_43\n        /* \"contracts/allBridge.sol\":1379:1391  tokenAddress */\n      dup2\n        /* \"contracts/allBridge.sol\":1392:1402  msg.sender */\n      caller\n        /* \"contracts/allBridge.sol\":1411:1415  this */\n      address\n        /* \"contracts/allBridge.sol\":1417:1425  amountIn */\n      dup7\n        /* \"contracts/allBridge.sol\":1347:1378  TransferHelper.safeTransferFrom */\n      tag_44\n        /* \"contracts/allBridge.sol\":1347:1426  TransferHelper.safeTransferFrom(tokenAddress,msg.sender,address(this),amountIn) */\n      jump\t// in\n    tag_43:\n        /* \"contracts/allBridge.sol\":1451:1457  bridge */\n      0x02\n      0x00\n      swap1\n      sload\n      swap1\n      0x0100\n      exp\n      swap1\n      div\n      0xffffffffffffffffffffffffffffffffffffffff\n      and\n        /* \"contracts/allBridge.sol\":1440:1472  IAllBridge(bridge).swapAndBridge */\n      0xffffffffffffffffffffffffffffffffffffffff\n      and\n      0xf35e37d3\n        /* \"contracts/allBridge.sol\":1479:1488  msg.value */\n      callvalue\n        /* \"contracts/allBridge.sol\":1507:1512  input */\n      dup5\n        /* \"contracts/allBridge.sol\":1507:1525  input.tokenAddress */\n      0x20\n      add\n      mload\n        /* \"contracts/allBridge.sol\":1543:1551  amountIn */\n      dup7\n        /* \"contracts/allBridge.sol\":1569:1574  input */\n      dup7\n        /* \"contracts/allBridge.sol\":1569:1584  input.recipient */\n      0x40\n      add\n      mload\n        /* \"contracts/allBridge.sol\":1602:1607  input */\n      dup8\n        /* \"contracts/allBridge.sol\":1602:1626  input.destinationChainId */\n      0x60\n      add\n      mload\n        /* \"contracts/allBridge.sol\":1644:1649  input */\n      dup9\n        /* \"contracts/allBridge.sol\":1644:1669  input.receiveTokenAddress */\n      0x80\n      add\n      mload\n        /* \"contracts/allBridge.sol\":1687:1692  input */\n      dup10\n        /* \"contracts/allBridge.sol\":1687:1698  input.nonce */\n      0xa0\n      add\n      mload\n        /* \"contracts/allBridge.sol\":1716:1721  input */\n      dup11\n        /* \"contracts/allBridge.sol\":1716:1731  input.messenger */\n      0xc0\n      add\n      mload\n        /* \"contracts/allBridge.sol\":1440:1732  IAllBridge(bridge).swapAndBridge{value:msg.value}(... */\n      mload(0x40)\n      dup10\n      0xffffffff\n      and\n      0xe0\n      shl\n      dup2\n      mstore\n      0x04\n      add\n      tag_45\n      swap8\n      swap7\n      swap6\n      swap5\n      swap4\n      swap3\n      swap2\n      swap1\n      tag_46\n      jump\t// in\n    tag_45:\n      0x00\n      mload(0x40)\n      dup1\n      dup4\n      sub\n      dup2\n      dup6\n      dup9\n      dup1\n      extcodesize\n      iszero\n      dup1\n      iszero\n      tag_47\n      jumpi\n      0x00\n      dup1\n      revert\n    tag_47:\n      pop\n      gas\n      call\n      iszero\n      dup1\n      iszero\n      tag_49\n      jumpi\n      returndatasize\n      0x00\n      dup1\n      returndatacopy\n      revert(0x00, returndatasize)\n    tag_49:\n      pop\n      pop\n      pop\n      pop\n      pop\n        /* \"contracts/allBridge.sol\":1175:1739  {... */\n      pop\n      pop\n        /* \"contracts/allBridge.sol\":1109:1739  function Bridge(bytes calldata data,uint amountIn) public payable {... */\n      pop\n      pop\n      pop\n      jump\t// out\n        /* \"@openzeppelin/contracts/access/Ownable.sol\":1831:1932  function renounceOwnership() public virtual onlyOwner {... */\n    tag_19:\n        /* \"@openzeppelin/contracts/access/Ownable.sol\":1094:1107  _checkOwner() */\n      tag_51\n        /* \"@openzeppelin/contracts/access/Ownable.sol\":1094:1105  _checkOwner */\n      tag_36\n        /* \"@openzeppelin/contracts/access/Ownable.sol\":1094:1107  _checkOwner() */\n      jump\t// in\n    tag_51:\n        /* \"@openzeppelin/contracts/access/Ownable.sol\":1895:1925  _transferOwnership(address(0)) */\n      tag_53\n        /* \"@openzeppelin/contracts/access/Ownable.sol\":1922:1923  0 */\n      0x00\n        /* \"@openzeppelin/contracts/access/Ownable.sol\":1895:1913  _transferOwnership */\n      tag_54\n        /* \"@openzeppelin/contracts/access/Ownable.sol\":1895:1925  _transferOwnership(address(0)) */\n      jump\t// in\n    tag_53:\n        /* \"@openzeppelin/contracts/access/Ownable.sol\":1831:1932  function renounceOwnership() public virtual onlyOwner {... */\n      jump\t// out\n        /* \"@openzeppelin/contracts/access/Ownable.sol\":1201:1286  function owner() public view virtual returns (address) {... */\n    tag_22:\n        /* \"@openzeppelin/contracts/access/Ownable.sol\":1247:1254  address */\n      0x00\n        /* \"@openzeppelin/contracts/access/Ownable.sol\":1273:1279  _owner */\n      dup1\n      0x00\n      swap1\n      sload\n      swap1\n      0x0100\n      exp\n      swap1\n      div\n      0xffffffffffffffffffffffffffffffffffffffff\n      and\n        /* \"@openzeppelin/contracts/access/Ownable.sol\":1266:1279  return _owner */\n      swap1\n      pop\n        /* \"@openzeppelin/contracts/access/Ownable.sol\":1201:1286  function owner() public view virtual returns (address) {... */\n      swap1\n      jump\t// out\n        /* \"contracts/allBridge.sol\":750:771  address public bridge */\n    tag_27:\n      0x02\n      0x00\n      swap1\n      sload\n      swap1\n      0x0100\n      exp\n      swap1\n      div\n      0xffffffffffffffffffffffffffffffffffffffff\n      and\n      dup2\n      jump\t// out\n        /* \"@openzeppelin/contracts/access/Ownable.sol\":2081:2279  function transferOwnership(address newOwner) public virtual onlyOwner {... */\n    tag_33:\n        /* \"@openzeppelin/contracts/access/Ownable.sol\":1094:1107  _checkOwner() */\n      tag_57\n        /* \"@openzeppelin/contracts/access/Ownable.sol\":1094:1105  _checkOwner */\n      tag_36\n        /* \"@openzeppelin/contracts/access/Ownable.sol\":1094:1107  _checkOwner() */\n      jump\t// in\n    tag_57:\n        /* \"@openzeppelin/contracts/access/Ownable.sol\":2189:2190  0 */\n      0x00\n        /* \"@openzeppelin/contracts/access/Ownable.sol\":2169:2191  newOwner != address(0) */\n      0xffffffffffffffffffffffffffffffffffffffff\n      and\n        /* \"@openzeppelin/contracts/access/Ownable.sol\":2169:2177  newOwner */\n      dup2\n        /* \"@openzeppelin/contracts/access/Ownable.sol\":2169:2191  newOwner != address(0) */\n      0xffffffffffffffffffffffffffffffffffffffff\n      and\n      sub\n        /* \"@openzeppelin/contracts/access/Ownable.sol\":2161:2234  require(newOwner != address(0), \"Ownable: new owner is the zero address\") */\n      tag_59\n      jumpi\n      mload(0x40)\n      0x08c379a000000000000000000000000000000000000000000000000000000000\n      dup2\n      mstore\n      0x04\n      add\n      tag_60\n      swap1\n      tag_61\n      jump\t// in\n    tag_60:\n      mload(0x40)\n      dup1\n      swap2\n      sub\n      swap1\n      revert\n    tag_59:\n        /* \"@openzeppelin/contracts/access/Ownable.sol\":2244:2272  _transferOwnership(newOwner) */\n      tag_62\n        /* \"@openzeppelin/contracts/access/Ownable.sol\":2263:2271  newOwner */\n      dup2\n        /* \"@openzeppelin/contracts/access/Ownable.sol\":2244:2262  _transferOwnership */\n      tag_54\n        /* \"@openzeppelin/contracts/access/Ownable.sol\":2244:2272  _transferOwnership(newOwner) */\n      jump\t// in\n    tag_62:\n        /* \"@openzeppelin/contracts/access/Ownable.sol\":2081:2279  function transferOwnership(address newOwner) public virtual onlyOwner {... */\n      pop\n      jump\t// out\n        /* \"@openzeppelin/contracts/access/Ownable.sol\":1359:1489  function _checkOwner() internal view virtual {... */\n    tag_36:\n        /* \"@openzeppelin/contracts/access/Ownable.sol\":1433:1445  _msgSender() */\n      tag_64\n        /* \"@openzeppelin/contracts/access/Ownable.sol\":1433:1443  _msgSender */\n      tag_65\n        /* \"@openzeppelin/contracts/access/Ownable.sol\":1433:1445  _msgSender() */\n      jump\t// in\n    tag_64:\n        /* \"@openzeppelin/contracts/access/Ownable.sol\":1422:1445  owner() == _msgSender() */\n      0xffffffffffffffffffffffffffffffffffffffff\n      and\n        /* \"@openzeppelin/contracts/access/Ownable.sol\":1422:1429  owner() */\n      tag_66\n        /* \"@openzeppelin/contracts/access/Ownable.sol\":1422:1427  owner */\n      tag_22\n        /* \"@openzeppelin/contracts/access/Ownable.sol\":1422:1429  owner() */\n      jump\t// in\n    tag_66:\n        /* \"@openzeppelin/contracts/access/Ownable.sol\":1422:1445  owner() == _msgSender() */\n      0xffffffffffffffffffffffffffffffffffffffff\n      and\n      eq\n        /* \"@openzeppelin/contracts/access/Ownable.sol\":1414:1482  require(owner() == _msgSender(), \"Ownable: caller is not the owner\") */\n      tag_67\n      jumpi\n      mload(0x40)\n      0x08c379a000000000000000000000000000000000000000000000000000000000\n      dup2\n      mstore\n      0x04\n      add\n      tag_68\n      swap1\n      tag_69\n      jump\t// in\n    tag_68:\n      mload(0x40)\n      dup1\n      swap2\n      sub\n      swap1\n      revert\n    tag_67:\n        /* \"@openzeppelin/contracts/access/Ownable.sol\":1359:1489  function _checkOwner() internal view virtual {... */\n      jump\t// out\n        /* \"contracts/libraries/transferHelper.sol\":212:649  function safeApprove(... */\n    tag_39:\n        /* \"contracts/libraries/transferHelper.sol\":390:402  bool success */\n      0x00\n        /* \"contracts/libraries/transferHelper.sol\":404:421  bytes memory data */\n      dup1\n        /* \"contracts/libraries/transferHelper.sol\":425:430  token */\n      dup5\n        /* \"contracts/libraries/transferHelper.sol\":425:435  token.call */\n      0xffffffffffffffffffffffffffffffffffffffff\n      and\n        /* \"contracts/libraries/transferHelper.sol\":459:469  0x095ea7b3 */\n      0x095ea7b3\n        /* \"contracts/libraries/transferHelper.sol\":471:473  to */\n      dup6\n        /* \"contracts/libraries/transferHelper.sol\":475:480  value */\n      dup6\n        /* \"contracts/libraries/transferHelper.sol\":436:481  abi.encodeWithSelector(0x095ea7b3, to, value) */\n      add(0x24, mload(0x40))\n      tag_71\n      swap3\n      swap2\n      swap1\n      tag_72\n      jump\t// in\n    tag_71:\n      mload(0x40)\n      0x20\n      dup2\n      dup4\n      sub\n      sub\n      dup2\n      mstore\n      swap1\n      0x40\n      mstore\n      swap1\n      0xe0\n      shl\n      0x20\n      dup3\n      add\n      dup1\n      mload\n      0xffffffffffffffffffffffffffffffffffffffffffffffffffffffff\n      dup4\n      dup2\n      dup4\n      and\n      or\n      dup4\n      mstore\n      pop\n      pop\n      pop\n      pop\n        /* \"contracts/libraries/transferHelper.sol\":425:482  token.call(abi.encodeWithSelector(0x095ea7b3, to, value)) */\n      mload(0x40)\n      tag_73\n      swap2\n      swap1\n      tag_74\n      jump\t// in\n    tag_73:\n      0x00\n      mload(0x40)\n      dup1\n      dup4\n      sub\n      dup2\n      0x00\n      dup7\n      gas\n      call\n      swap2\n      pop\n      pop\n      returndatasize\n      dup1\n      0x00\n      dup2\n      eq\n      tag_77\n      jumpi\n      mload(0x40)\n      swap2\n      pop\n      and(add(returndatasize, 0x3f), not(0x1f))\n      dup3\n      add\n      0x40\n      mstore\n      returndatasize\n      dup3\n      mstore\n      returndatasize\n      0x00\n      0x20\n      dup5\n      add\n      returndatacopy\n      jump(tag_76)\n    tag_77:\n      0x60\n      swap2\n      pop\n    tag_76:\n      pop\n        /* \"contracts/libraries/transferHelper.sol\":389:482  (bool success, bytes memory data) = token.call(abi.encodeWithSelector(0x095ea7b3, to, value)) */\n      swap2\n      pop\n      swap2\n      pop\n        /* \"contracts/libraries/transferHelper.sol\":513:520  success */\n      dup2\n        /* \"contracts/libraries/transferHelper.sol\":513:570  success && (data.length == 0 || abi.decode(data, (bool))) */\n      dup1\n      iszero\n      tag_78\n      jumpi\n      pop\n        /* \"contracts/libraries/transferHelper.sol\":540:541  0 */\n      0x00\n        /* \"contracts/libraries/transferHelper.sol\":525:529  data */\n      dup2\n        /* \"contracts/libraries/transferHelper.sol\":525:536  data.length */\n      mload\n        /* \"contracts/libraries/transferHelper.sol\":525:541  data.length == 0 */\n      eq\n        /* \"contracts/libraries/transferHelper.sol\":525:569  data.length == 0 || abi.decode(data, (bool)) */\n      dup1\n      tag_79\n      jumpi\n      pop\n        /* \"contracts/libraries/transferHelper.sol\":556:560  data */\n      dup1\n        /* \"contracts/libraries/transferHelper.sol\":545:569  abi.decode(data, (bool)) */\n      dup1\n      0x20\n      add\n      swap1\n      mload\n      dup2\n      add\n      swap1\n      tag_80\n      swap2\n      swap1\n      tag_81\n      jump\t// in\n    tag_80:\n        /* \"contracts/libraries/transferHelper.sol\":525:569  data.length == 0 || abi.decode(data, (bool)) */\n    tag_79:\n        /* \"contracts/libraries/transferHelper.sol\":513:570  success && (data.length == 0 || abi.decode(data, (bool))) */\n    tag_78:\n        /* \"contracts/libraries/transferHelper.sol\":492:642  require(... */\n      tag_82\n      jumpi\n      mload(0x40)\n      0x08c379a000000000000000000000000000000000000000000000000000000000\n      dup2\n      mstore\n      0x04\n      add\n      tag_83\n      swap1\n      tag_84\n      jump\t// in\n    tag_83:\n      mload(0x40)\n      dup1\n      swap2\n      sub\n      swap1\n      revert\n    tag_82:\n        /* \"contracts/libraries/transferHelper.sol\":314:649  {... */\n      pop\n      pop\n        /* \"contracts/libraries/transferHelper.sol\":212:649  function safeApprove(... */\n      pop\n      pop\n      pop\n      jump\t// out\n        /* \"contracts/libraries/transferHelper.sol\":1101:1589  function safeTransferFrom(... */\n    tag_44:\n        /* \"contracts/libraries/transferHelper.sol\":1319:1331  bool success */\n      0x00\n        /* \"contracts/libraries/transferHelper.sol\":1333:1350  bytes memory data */\n      dup1\n        /* \"contracts/libraries/transferHelper.sol\":1354:1359  token */\n      dup6\n        /* \"contracts/libraries/transferHelper.sol\":1354:1364  token.call */\n      0xffffffffffffffffffffffffffffffffffffffff\n      and\n        /* \"contracts/libraries/transferHelper.sol\":1388:1398  0x23b872dd */\n      0x23b872dd\n        /* \"contracts/libraries/transferHelper.sol\":1400:1404  from */\n      dup7\n        /* \"contracts/libraries/transferHelper.sol\":1406:1408  to */\n      dup7\n        /* \"contracts/libraries/transferHelper.sol\":1410:1415  value */\n      dup7\n        /* \"contracts/libraries/transferHelper.sol\":1365:1416  abi.encodeWithSelector(0x23b872dd, from, to, value) */\n      add(0x24, mload(0x40))\n      tag_86\n      swap4\n      swap3\n      swap2\n      swap1\n      tag_87\n      jump\t// in\n    tag_86:\n      mload(0x40)\n      0x20\n      dup2\n      dup4\n      sub\n      sub\n      dup2\n      mstore\n      swap1\n      0x40\n      mstore\n      swap1\n      0xe0\n      shl\n      0x20\n      dup3\n      add\n      dup1\n      mload\n      0xffffffffffffffffffffffffffffffffffffffffffffffffffffffff\n      dup4\n      dup2\n      dup4\n      and\n      or\n      dup4\n      mstore\n      pop\n      pop\n      pop\n      pop\n        /* \"contracts/libraries/transferHelper.sol\":1354:1417  token.call(abi.encodeWithSelector(0x23b872dd, from, to, value)) */\n      mload(0x40)\n      tag_88\n      swap2\n      swap1\n      tag_74\n      jump\t// in\n    tag_88:\n      0x00\n      mload(0x40)\n      dup1\n      dup4\n      sub\n      dup2\n      0x00\n      dup7\n      gas\n      call\n      swap2\n      pop\n      pop\n      returndatasize\n      dup1\n      0x00\n      dup2\n      eq\n      tag_91\n      jumpi\n      mload(0x40)\n      swap2\n      pop\n      and(add(returndatasize, 0x3f), not(0x1f))\n      dup3\n      add\n      0x40\n      mstore\n      returndatasize\n      dup3\n      mstore\n      returndatasize\n      0x00\n      0x20\n      dup5\n      add\n      returndatacopy\n      jump(tag_90)\n    tag_91:\n      0x60\n      swap2\n      pop\n    tag_90:\n      pop\n        /* \"contracts/libraries/transferHelper.sol\":1318:1417  (bool success, bytes memory data) = token.call(abi.encodeWithSelector(0x23b872dd, from, to, value)) */\n      swap2\n      pop\n      swap2\n      pop\n        /* \"contracts/libraries/transferHelper.sol\":1448:1455  success */\n      dup2\n        /* \"contracts/libraries/transferHelper.sol\":1448:1505  success && (data.length == 0 || abi.decode(data, (bool))) */\n      dup1\n      iszero\n      tag_92\n      jumpi\n      pop\n        /* \"contracts/libraries/transferHelper.sol\":1475:1476  0 */\n      0x00\n        /* \"contracts/libraries/transferHelper.sol\":1460:1464  data */\n      dup2\n        /* \"contracts/libraries/transferHelper.sol\":1460:1471  data.length */\n      mload\n        /* \"contracts/libraries/transferHelper.sol\":1460:1476  data.length == 0 */\n      eq\n        /* \"contracts/libraries/transferHelper.sol\":1460:1504  data.length == 0 || abi.decode(data, (bool)) */\n      dup1\n      tag_93\n      jumpi\n      pop\n        /* \"contracts/libraries/transferHelper.sol\":1491:1495  data */\n      dup1\n        /* \"contracts/libraries/transferHelper.sol\":1480:1504  abi.decode(data, (bool)) */\n      dup1\n      0x20\n      add\n      swap1\n      mload\n      dup2\n      add\n      swap1\n      tag_94\n      swap2\n      swap1\n      tag_81\n      jump\t// in\n    tag_94:\n        /* \"contracts/libraries/transferHelper.sol\":1460:1504  data.length == 0 || abi.decode(data, (bool)) */\n    tag_93:\n        /* \"contracts/libraries/transferHelper.sol\":1448:1505  success && (data.length == 0 || abi.decode(data, (bool))) */\n    tag_92:\n        /* \"contracts/libraries/transferHelper.sol\":1427:1582  require(... */\n      tag_95\n      jumpi\n      mload(0x40)\n      0x08c379a000000000000000000000000000000000000000000000000000000000\n      dup2\n      mstore\n      0x04\n      add\n      tag_96\n      swap1\n      tag_97\n      jump\t// in\n    tag_96:\n      mload(0x40)\n      dup1\n      swap2\n      sub\n      swap1\n      revert\n    tag_95:\n        /* \"contracts/libraries/transferHelper.sol\":1230:1589  {... */\n      pop\n      pop\n        /* \"contracts/libraries/transferHelper.sol\":1101:1589  function safeTransferFrom(... */\n      pop\n      pop\n      pop\n      pop\n      jump\t// out\n        /* \"@openzeppelin/contracts/access/Ownable.sol\":2433:2620  function _transferOwnership(address newOwner) internal virtual {... */\n    tag_54:\n        /* \"@openzeppelin/contracts/access/Ownable.sol\":2506:2522  address oldOwner */\n      0x00\n        /* \"@openzeppelin/contracts/access/Ownable.sol\":2525:2531  _owner */\n      dup1\n      0x00\n      swap1\n      sload\n      swap1\n      0x0100\n      exp\n      swap1\n      div\n      0xffffffffffffffffffffffffffffffffffffffff\n      and\n        /* \"@openzeppelin/contracts/access/Ownable.sol\":2506:2531  address oldOwner = _owner */\n      swap1\n      pop\n        /* \"@openzeppelin/contracts/access/Ownable.sol\":2550:2558  newOwner */\n      dup2\n        /* \"@openzeppelin/contracts/access/Ownable.sol\":2541:2547  _owner */\n      0x00\n      dup1\n        /* \"@openzeppelin/contracts/access/Ownable.sol\":2541:2558  _owner = newOwner */\n      0x0100\n      exp\n      dup2\n      sload\n      dup2\n      0xffffffffffffffffffffffffffffffffffffffff\n      mul\n      not\n      and\n      swap1\n      dup4\n      0xffffffffffffffffffffffffffffffffffffffff\n      and\n      mul\n      or\n      swap1\n      sstore\n      pop\n        /* \"@openzeppelin/contracts/access/Ownable.sol\":2604:2612  newOwner */\n      dup2\n        /* \"@openzeppelin/contracts/access/Ownable.sol\":2573:2613  OwnershipTransferred(oldOwner, newOwner) */\n      0xffffffffffffffffffffffffffffffffffffffff\n      and\n        /* \"@openzeppelin/contracts/access/Ownable.sol\":2594:2602  oldOwner */\n      dup2\n        /* \"@openzeppelin/contracts/access/Ownable.sol\":2573:2613  OwnershipTransferred(oldOwner, newOwner) */\n      0xffffffffffffffffffffffffffffffffffffffff\n      and\n      0x8be0079c531659141344cd1fd0a4f28419497f9722a3daafe3b4186f6b6457e0\n      mload(0x40)\n      mload(0x40)\n      dup1\n      swap2\n      sub\n      swap1\n      log3\n        /* \"@openzeppelin/contracts/access/Ownable.sol\":2496:2620  {... */\n      pop\n        /* \"@openzeppelin/contracts/access/Ownable.sol\":2433:2620  function _transferOwnership(address newOwner) internal virtual {... */\n      pop\n      jump\t// out\n        /* \"@openzeppelin/contracts/utils/Context.sol\":640:736  function _msgSender() internal view virtual returns (address) {... */\n    tag_65:\n        /* \"@openzeppelin/contracts/utils/Context.sol\":693:700  address */\n      0x00\n        /* \"@openzeppelin/contracts/utils/Context.sol\":719:729  msg.sender */\n      caller\n        /* \"@openzeppelin/contracts/utils/Context.sol\":712:729  return msg.sender */\n      swap1\n      pop\n        /* \"@openzeppelin/contracts/utils/Context.sol\":640:736  function _msgSender() internal view virtual returns (address) {... */\n      swap1\n      jump\t// out\n        /* \"#utility.yul\":7:82   */\n    tag_100:\n        /* \"#utility.yul\":40:46   */\n      0x00\n        /* \"#utility.yul\":73:75   */\n      0x40\n        /* \"#utility.yul\":67:76   */\n      mload\n        /* \"#utility.yul\":57:76   */\n      swap1\n      pop\n        /* \"#utility.yul\":7:82   */\n      swap1\n      jump\t// out\n        /* \"#utility.yul\":88:205   */\n    tag_101:\n        /* \"#utility.yul\":197:198   */\n      0x00\n        /* \"#utility.yul\":194:195   */\n      dup1\n        /* \"#utility.yul\":187:199   */\n      revert\n        /* \"#utility.yul\":211:328   */\n    tag_102:\n        /* \"#utility.yul\":320:321   */\n      0x00\n        /* \"#utility.yul\":317:318   */\n      dup1\n        /* \"#utility.yul\":310:322   */\n      revert\n        /* \"#utility.yul\":334:460   */\n    tag_103:\n        /* \"#utility.yul\":371:378   */\n      0x00\n        /* \"#utility.yul\":411:453   */\n      0xffffffffffffffffffffffffffffffffffffffff\n        /* \"#utility.yul\":404:409   */\n      dup3\n        /* \"#utility.yul\":400:454   */\n      and\n        /* \"#utility.yul\":389:454   */\n      swap1\n      pop\n        /* \"#utility.yul\":334:460   */\n      swap2\n      swap1\n      pop\n      jump\t// out\n        /* \"#utility.yul\":466:562   */\n    tag_104:\n        /* \"#utility.yul\":503:510   */\n      0x00\n        /* \"#utility.yul\":532:556   */\n      tag_160\n        /* \"#utility.yul\":550:555   */\n      dup3\n        /* \"#utility.yul\":532:556   */\n      tag_103\n      jump\t// in\n    tag_160:\n        /* \"#utility.yul\":521:556   */\n      swap1\n      pop\n        /* \"#utility.yul\":466:562   */\n      swap2\n      swap1\n      pop\n      jump\t// out\n        /* \"#utility.yul\":568:690   */\n    tag_105:\n        /* \"#utility.yul\":641:665   */\n      tag_162\n        /* \"#utility.yul\":659:664   */\n      dup2\n        /* \"#utility.yul\":641:665   */\n      tag_104\n      jump\t// in\n    tag_162:\n        /* \"#utility.yul\":634:639   */\n      dup2\n        /* \"#utility.yul\":631:666   */\n      eq\n        /* \"#utility.yul\":621:684   */\n      tag_163\n      jumpi\n        /* \"#utility.yul\":680:681   */\n      0x00\n        /* \"#utility.yul\":677:678   */\n      dup1\n        /* \"#utility.yul\":670:682   */\n      revert\n        /* \"#utility.yul\":621:684   */\n    tag_163:\n        /* \"#utility.yul\":568:690   */\n      pop\n      jump\t// out\n        /* \"#utility.yul\":696:835   */\n    tag_106:\n        /* \"#utility.yul\":742:747   */\n      0x00\n        /* \"#utility.yul\":780:786   */\n      dup2\n        /* \"#utility.yul\":767:787   */\n      calldataload\n        /* \"#utility.yul\":758:787   */\n      swap1\n      pop\n        /* \"#utility.yul\":796:829   */\n      tag_165\n        /* \"#utility.yul\":823:828   */\n      dup2\n        /* \"#utility.yul\":796:829   */\n      tag_105\n      jump\t// in\n    tag_165:\n        /* \"#utility.yul\":696:835   */\n      swap3\n      swap2\n      pop\n      pop\n      jump\t// out\n        /* \"#utility.yul\":841:1315   */\n    tag_11:\n        /* \"#utility.yul\":909:915   */\n      0x00\n        /* \"#utility.yul\":917:923   */\n      dup1\n        /* \"#utility.yul\":966:968   */\n      0x40\n        /* \"#utility.yul\":954:963   */\n      dup4\n        /* \"#utility.yul\":945:952   */\n      dup6\n        /* \"#utility.yul\":941:964   */\n      sub\n        /* \"#utility.yul\":937:969   */\n      slt\n        /* \"#utility.yul\":934:1053   */\n      iszero\n      tag_167\n      jumpi\n        /* \"#utility.yul\":972:1051   */\n      tag_168\n      tag_101\n      jump\t// in\n    tag_168:\n        /* \"#utility.yul\":934:1053   */\n    tag_167:\n        /* \"#utility.yul\":1092:1093   */\n      0x00\n        /* \"#utility.yul\":1117:1170   */\n      tag_169\n        /* \"#utility.yul\":1162:1169   */\n      dup6\n        /* \"#utility.yul\":1153:1159   */\n      dup3\n        /* \"#utility.yul\":1142:1151   */\n      dup7\n        /* \"#utility.yul\":1138:1160   */\n      add\n        /* \"#utility.yul\":1117:1170   */\n      tag_106\n      jump\t// in\n    tag_169:\n        /* \"#utility.yul\":1107:1170   */\n      swap3\n      pop\n        /* \"#utility.yul\":1063:1180   */\n      pop\n        /* \"#utility.yul\":1219:1221   */\n      0x20\n        /* \"#utility.yul\":1245:1298   */\n      tag_170\n        /* \"#utility.yul\":1290:1297   */\n      dup6\n        /* \"#utility.yul\":1281:1287   */\n      dup3\n        /* \"#utility.yul\":1270:1279   */\n      dup7\n        /* \"#utility.yul\":1266:1288   */\n      add\n        /* \"#utility.yul\":1245:1298   */\n      tag_106\n      jump\t// in\n    tag_170:\n        /* \"#utility.yul\":1235:1298   */\n      swap2\n      pop\n        /* \"#utility.yul\":1190:1308   */\n      pop\n        /* \"#utility.yul\":841:1315   */\n      swap3\n      pop\n      swap3\n      swap1\n      pop\n      jump\t// out\n        /* \"#utility.yul\":1321:1438   */\n    tag_107:\n        /* \"#utility.yul\":1430:1431   */\n      0x00\n        /* \"#utility.yul\":1427:1428   */\n      dup1\n        /* \"#utility.yul\":1420:1432   */\n      revert\n        /* \"#utility.yul\":1444:1561   */\n    tag_108:\n        /* \"#utility.yul\":1553:1554   */\n      0x00\n        /* \"#utility.yul\":1550:1551   */\n      dup1\n        /* \"#utility.yul\":1543:1555   */\n      revert\n        /* \"#utility.yul\":1567:1684   */\n    tag_109:\n        /* \"#utility.yul\":1676:1677   */\n      0x00\n        /* \"#utility.yul\":1673:1674   */\n      dup1\n        /* \"#utility.yul\":1666:1678   */\n      revert\n        /* \"#utility.yul\":1703:2255   */\n    tag_110:\n        /* \"#utility.yul\":1760:1768   */\n      0x00\n        /* \"#utility.yul\":1770:1776   */\n      dup1\n        /* \"#utility.yul\":1820:1823   */\n      dup4\n        /* \"#utility.yul\":1813:1817   */\n      0x1f\n        /* \"#utility.yul\":1805:1811   */\n      dup5\n        /* \"#utility.yul\":1801:1818   */\n      add\n        /* \"#utility.yul\":1797:1824   */\n      slt\n        /* \"#utility.yul\":1787:1909   */\n      tag_175\n      jumpi\n        /* \"#utility.yul\":1828:1907   */\n      tag_176\n      tag_107\n      jump\t// in\n    tag_176:\n        /* \"#utility.yul\":1787:1909   */\n    tag_175:\n        /* \"#utility.yul\":1941:1947   */\n      dup3\n        /* \"#utility.yul\":1928:1948   */\n      calldataload\n        /* \"#utility.yul\":1918:1948   */\n      swap1\n      pop\n        /* \"#utility.yul\":1971:1989   */\n      0xffffffffffffffff\n        /* \"#utility.yul\":1963:1969   */\n      dup2\n        /* \"#utility.yul\":1960:1990   */\n      gt\n        /* \"#utility.yul\":1957:2074   */\n      iszero\n      tag_177\n      jumpi\n        /* \"#utility.yul\":1993:2072   */\n      tag_178\n      tag_108\n      jump\t// in\n    tag_178:\n        /* \"#utility.yul\":1957:2074   */\n    tag_177:\n        /* \"#utility.yul\":2107:2111   */\n      0x20\n        /* \"#utility.yul\":2099:2105   */\n      dup4\n        /* \"#utility.yul\":2095:2112   */\n      add\n        /* \"#utility.yul\":2083:2112   */\n      swap2\n      pop\n        /* \"#utility.yul\":2161:2164   */\n      dup4\n        /* \"#utility.yul\":2153:2157   */\n      0x01\n        /* \"#utility.yul\":2145:2151   */\n      dup3\n        /* \"#utility.yul\":2141:2158   */\n      mul\n        /* \"#utility.yul\":2131:2139   */\n      dup4\n        /* \"#utility.yul\":2127:2159   */\n      add\n        /* \"#utility.yul\":2124:2165   */\n      gt\n        /* \"#utility.yul\":2121:2249   */\n      iszero\n      tag_179\n      jumpi\n        /* \"#utility.yul\":2168:2247   */\n      tag_180\n      tag_109\n      jump\t// in\n    tag_180:\n        /* \"#utility.yul\":2121:2249   */\n    tag_179:\n        /* \"#utility.yul\":1703:2255   */\n      swap3\n      pop\n      swap3\n      swap1\n      pop\n      jump\t// out\n        /* \"#utility.yul\":2261:2338   */\n    tag_111:\n        /* \"#utility.yul\":2298:2305   */\n      0x00\n        /* \"#utility.yul\":2327:2332   */\n      dup2\n        /* \"#utility.yul\":2316:2332   */\n      swap1\n      pop\n        /* \"#utility.yul\":2261:2338   */\n      swap2\n      swap1\n      pop\n      jump\t// out\n        /* \"#utility.yul\":2344:2466   */\n    tag_112:\n        /* \"#utility.yul\":2417:2441   */\n      tag_183\n        /* \"#utility.yul\":2435:2440   */\n      dup2\n        /* \"#utility.yul\":2417:2441   */\n      tag_111\n      jump\t// in\n    tag_183:\n        /* \"#utility.yul\":2410:2415   */\n      dup2\n        /* \"#utility.yul\":2407:2442   */\n      eq\n        /* \"#utility.yul\":2397:2460   */\n      tag_184\n      jumpi\n        /* \"#utility.yul\":2456:2457   */\n      0x00\n        /* \"#utility.yul\":2453:2454   */\n      dup1\n        /* \"#utility.yul\":2446:2458   */\n      revert\n        /* \"#utility.yul\":2397:2460   */\n    tag_184:\n        /* \"#utility.yul\":2344:2466   */\n      pop\n      jump\t// out\n        /* \"#utility.yul\":2472:2611   */\n    tag_113:\n        /* \"#utility.yul\":2518:2523   */\n      0x00\n        /* \"#utility.yul\":2556:2562   */\n      dup2\n        /* \"#utility.yul\":2543:2563   */\n      calldataload\n        /* \"#utility.yul\":2534:2563   */\n      swap1\n      pop\n        /* \"#utility.yul\":2572:2605   */\n      tag_186\n        /* \"#utility.yul\":2599:2604   */\n      dup2\n        /* \"#utility.yul\":2572:2605   */\n      tag_112\n      jump\t// in\n    tag_186:\n        /* \"#utility.yul\":2472:2611   */\n      swap3\n      swap2\n      pop\n      pop\n      jump\t// out\n        /* \"#utility.yul\":2617:3289   */\n    tag_15:\n        /* \"#utility.yul\":2696:2702   */\n      0x00\n        /* \"#utility.yul\":2704:2710   */\n      dup1\n        /* \"#utility.yul\":2712:2718   */\n      0x00\n        /* \"#utility.yul\":2761:2763   */\n      0x40\n        /* \"#utility.yul\":2749:2758   */\n      dup5\n        /* \"#utility.yul\":2740:2747   */\n      dup7\n        /* \"#utility.yul\":2736:2759   */\n      sub\n        /* \"#utility.yul\":2732:2764   */\n      slt\n        /* \"#utility.yul\":2729:2848   */\n      iszero\n      tag_188\n      jumpi\n        /* \"#utility.yul\":2767:2846   */\n      tag_189\n      tag_101\n      jump\t// in\n    tag_189:\n        /* \"#utility.yul\":2729:2848   */\n    tag_188:\n        /* \"#utility.yul\":2915:2916   */\n      0x00\n        /* \"#utility.yul\":2904:2913   */\n      dup5\n        /* \"#utility.yul\":2900:2917   */\n      add\n        /* \"#utility.yul\":2887:2918   */\n      calldataload\n        /* \"#utility.yul\":2945:2963   */\n      0xffffffffffffffff\n        /* \"#utility.yul\":2937:2943   */\n      dup2\n        /* \"#utility.yul\":2934:2964   */\n      gt\n        /* \"#utility.yul\":2931:3048   */\n      iszero\n      tag_190\n      jumpi\n        /* \"#utility.yul\":2967:3046   */\n      tag_191\n      tag_102\n      jump\t// in\n    tag_191:\n        /* \"#utility.yul\":2931:3048   */\n    tag_190:\n        /* \"#utility.yul\":3080:3144   */\n      tag_192\n        /* \"#utility.yul\":3136:3143   */\n      dup7\n        /* \"#utility.yul\":3127:3133   */\n      dup3\n        /* \"#utility.yul\":3116:3125   */\n      dup8\n        /* \"#utility.yul\":3112:3134   */\n      add\n        /* \"#utility.yul\":3080:3144   */\n      tag_110\n      jump\t// in\n    tag_192:\n        /* \"#utility.yul\":3062:3144   */\n      swap4\n      pop\n      swap4\n      pop\n        /* \"#utility.yul\":2858:3154   */\n      pop\n        /* \"#utility.yul\":3193:3195   */\n      0x20\n        /* \"#utility.yul\":3219:3272   */\n      tag_193\n        /* \"#utility.yul\":3264:3271   */\n      dup7\n        /* \"#utility.yul\":3255:3261   */\n      dup3\n        /* \"#utility.yul\":3244:3253   */\n      dup8\n        /* \"#utility.yul\":3240:3262   */\n      add\n        /* \"#utility.yul\":3219:3272   */\n      tag_113\n      jump\t// in\n    tag_193:\n        /* \"#utility.yul\":3209:3272   */\n      swap2\n      pop\n        /* \"#utility.yul\":3164:3282   */\n      pop\n        /* \"#utility.yul\":2617:3289   */\n      swap3\n      pop\n      swap3\n      pop\n      swap3\n      jump\t// out\n        /* \"#utility.yul\":3295:3413   */\n    tag_114:\n        /* \"#utility.yul\":3382:3406   */\n      tag_195\n        /* \"#utility.yul\":3400:3405   */\n      dup2\n        /* \"#utility.yul\":3382:3406   */\n      tag_104\n      jump\t// in\n    tag_195:\n        /* \"#utility.yul\":3377:3380   */\n      dup3\n        /* \"#utility.yul\":3370:3407   */\n      mstore\n        /* \"#utility.yul\":3295:3413   */\n      pop\n      pop\n      jump\t// out\n        /* \"#utility.yul\":3419:3641   */\n    tag_24:\n        /* \"#utility.yul\":3512:3516   */\n      0x00\n        /* \"#utility.yul\":3550:3552   */\n      0x20\n        /* \"#utility.yul\":3539:3548   */\n      dup3\n        /* \"#utility.yul\":3535:3553   */\n      add\n        /* \"#utility.yul\":3527:3553   */\n      swap1\n      pop\n        /* \"#utility.yul\":3563:3634   */\n      tag_197\n        /* \"#utility.yul\":3631:3632   */\n      0x00\n        /* \"#utility.yul\":3620:3629   */\n      dup4\n        /* \"#utility.yul\":3616:3633   */\n      add\n        /* \"#utility.yul\":3607:3613   */\n      dup5\n        /* \"#utility.yul\":3563:3634   */\n      tag_114\n      jump\t// in\n    tag_197:\n        /* \"#utility.yul\":3419:3641   */\n      swap3\n      swap2\n      pop\n      pop\n      jump\t// out\n        /* \"#utility.yul\":3647:3976   */\n    tag_32:\n        /* \"#utility.yul\":3706:3712   */\n      0x00\n        /* \"#utility.yul\":3755:3757   */\n      0x20\n        /* \"#utility.yul\":3743:3752   */\n      dup3\n        /* \"#utility.yul\":3734:3741   */\n      dup5\n        /* \"#utility.yul\":3730:3753   */\n      sub\n        /* \"#utility.yul\":3726:3758   */\n      slt\n        /* \"#utility.yul\":3723:3842   */\n      iszero\n      tag_199\n      jumpi\n        /* \"#utility.yul\":3761:3840   */\n      tag_200\n      tag_101\n      jump\t// in\n    tag_200:\n        /* \"#utility.yul\":3723:3842   */\n    tag_199:\n        /* \"#utility.yul\":3881:3882   */\n      0x00\n        /* \"#utility.yul\":3906:3959   */\n      tag_201\n        /* \"#utility.yul\":3951:3958   */\n      dup5\n        /* \"#utility.yul\":3942:3948   */\n      dup3\n        /* \"#utility.yul\":3931:3940   */\n      dup6\n        /* \"#utility.yul\":3927:3949   */\n      add\n        /* \"#utility.yul\":3906:3959   */\n      tag_106\n      jump\t// in\n    tag_201:\n        /* \"#utility.yul\":3896:3959   */\n      swap2\n      pop\n        /* \"#utility.yul\":3852:3969   */\n      pop\n        /* \"#utility.yul\":3647:3976   */\n      swap3\n      swap2\n      pop\n      pop\n      jump\t// out\n        /* \"#utility.yul\":3982:4099   */\n    tag_115:\n        /* \"#utility.yul\":4091:4092   */\n      0x00\n        /* \"#utility.yul\":4088:4089   */\n      dup1\n        /* \"#utility.yul\":4081:4093   */\n      revert\n        /* \"#utility.yul\":4105:4207   */\n    tag_116:\n        /* \"#utility.yul\":4146:4152   */\n      0x00\n        /* \"#utility.yul\":4197:4199   */\n      0x1f\n        /* \"#utility.yul\":4193:4200   */\n      not\n        /* \"#utility.yul\":4188:4190   */\n      0x1f\n        /* \"#utility.yul\":4181:4186   */\n      dup4\n        /* \"#utility.yul\":4177:4191   */\n      add\n        /* \"#utility.yul\":4173:4201   */\n      and\n        /* \"#utility.yul\":4163:4201   */\n      swap1\n      pop\n        /* \"#utility.yul\":4105:4207   */\n      swap2\n      swap1\n      pop\n      jump\t// out\n        /* \"#utility.yul\":4213:4393   */\n    tag_117:\n        /* \"#utility.yul\":4261:4338   */\n      0x4e487b7100000000000000000000000000000000000000000000000000000000\n        /* \"#utility.yul\":4258:4259   */\n      0x00\n        /* \"#utility.yul\":4251:4339   */\n      mstore\n        /* \"#utility.yul\":4358:4362   */\n      0x41\n        /* \"#utility.yul\":4355:4356   */\n      0x04\n        /* \"#utility.yul\":4348:4363   */\n      mstore\n        /* \"#utility.yul\":4382:4386   */\n      0x24\n        /* \"#utility.yul\":4379:4380   */\n      0x00\n        /* \"#utility.yul\":4372:4387   */\n      revert\n        /* \"#utility.yul\":4399:4680   */\n    tag_118:\n        /* \"#utility.yul\":4482:4509   */\n      tag_206\n        /* \"#utility.yul\":4504:4508   */\n      dup3\n        /* \"#utility.yul\":4482:4509   */\n      tag_116\n      jump\t// in\n    tag_206:\n        /* \"#utility.yul\":4474:4480   */\n      dup2\n        /* \"#utility.yul\":4470:4510   */\n      add\n        /* \"#utility.yul\":4612:4618   */\n      dup2\n        /* \"#utility.yul\":4600:4610   */\n      dup2\n        /* \"#utility.yul\":4597:4619   */\n      lt\n        /* \"#utility.yul\":4576:4594   */\n      0xffffffffffffffff\n        /* \"#utility.yul\":4564:4574   */\n      dup3\n        /* \"#utility.yul\":4561:4595   */\n      gt\n        /* \"#utility.yul\":4558:4620   */\n      or\n        /* \"#utility.yul\":4555:4643   */\n      iszero\n      tag_207\n      jumpi\n        /* \"#utility.yul\":4623:4641   */\n      tag_208\n      tag_117\n      jump\t// in\n    tag_208:\n        /* \"#utility.yul\":4555:4643   */\n    tag_207:\n        /* \"#utility.yul\":4663:4673   */\n      dup1\n        /* \"#utility.yul\":4659:4661   */\n      0x40\n        /* \"#utility.yul\":4652:4674   */\n      mstore\n        /* \"#utility.yul\":4442:4680   */\n      pop\n        /* \"#utility.yul\":4399:4680   */\n      pop\n      pop\n      jump\t// out\n        /* \"#utility.yul\":4686:4815   */\n    tag_119:\n        /* \"#utility.yul\":4720:4726   */\n      0x00\n        /* \"#utility.yul\":4747:4767   */\n      tag_210\n      tag_100\n      jump\t// in\n    tag_210:\n        /* \"#utility.yul\":4737:4767   */\n      swap1\n      pop\n        /* \"#utility.yul\":4776:4809   */\n      tag_211\n        /* \"#utility.yul\":4804:4808   */\n      dup3\n        /* \"#utility.yul\":4796:4802   */\n      dup3\n        /* \"#utility.yul\":4776:4809   */\n      tag_118\n      jump\t// in\n    tag_211:\n        /* \"#utility.yul\":4686:4815   */\n      swap2\n      swap1\n      pop\n      jump\t// out\n        /* \"#utility.yul\":4944:5021   */\n    tag_121:\n        /* \"#utility.yul\":4981:4988   */\n      0x00\n        /* \"#utility.yul\":5010:5015   */\n      dup2\n        /* \"#utility.yul\":4999:5015   */\n      swap1\n      pop\n        /* \"#utility.yul\":4944:5021   */\n      swap2\n      swap1\n      pop\n      jump\t// out\n        /* \"#utility.yul\":5027:5149   */\n    tag_122:\n        /* \"#utility.yul\":5100:5124   */\n      tag_215\n        /* \"#utility.yul\":5118:5123   */\n      dup2\n        /* \"#utility.yul\":5100:5124   */\n      tag_121\n      jump\t// in\n    tag_215:\n        /* \"#utility.yul\":5093:5098   */\n      dup2\n        /* \"#utility.yul\":5090:5125   */\n      eq\n        /* \"#utility.yul\":5080:5143   */\n      tag_216\n      jumpi\n        /* \"#utility.yul\":5139:5140   */\n      0x00\n        /* \"#utility.yul\":5136:5137   */\n      dup1\n        /* \"#utility.yul\":5129:5141   */\n      revert\n        /* \"#utility.yul\":5080:5143   */\n    tag_216:\n        /* \"#utility.yul\":5027:5149   */\n      pop\n      jump\t// out\n        /* \"#utility.yul\":5155:5294   */\n    tag_123:\n        /* \"#utility.yul\":5201:5206   */\n      0x00\n        /* \"#utility.yul\":5239:5245   */\n      dup2\n        /* \"#utility.yul\":5226:5246   */\n      calldataload\n        /* \"#utility.yul\":5217:5246   */\n      swap1\n      pop\n        /* \"#utility.yul\":5255:5288   */\n      tag_218\n        /* \"#utility.yul\":5282:5287   */\n      dup2\n        /* \"#utility.yul\":5255:5288   */\n      tag_122\n      jump\t// in\n    tag_218:\n        /* \"#utility.yul\":5155:5294   */\n      swap3\n      swap2\n      pop\n      pop\n      jump\t// out\n        /* \"#utility.yul\":5300:5386   */\n    tag_124:\n        /* \"#utility.yul\":5335:5342   */\n      0x00\n        /* \"#utility.yul\":5375:5379   */\n      0xff\n        /* \"#utility.yul\":5368:5373   */\n      dup3\n        /* \"#utility.yul\":5364:5380   */\n      and\n        /* \"#utility.yul\":5353:5380   */\n      swap1\n      pop\n        /* \"#utility.yul\":5300:5386   */\n      swap2\n      swap1\n      pop\n      jump\t// out\n        /* \"#utility.yul\":5392:5510   */\n    tag_125:\n        /* \"#utility.yul\":5463:5485   */\n      tag_221\n        /* \"#utility.yul\":5479:5484   */\n      dup2\n        /* \"#utility.yul\":5463:5485   */\n      tag_124\n      jump\t// in\n    tag_221:\n        /* \"#utility.yul\":5456:5461   */\n      dup2\n        /* \"#utility.yul\":5453:5486   */\n      eq\n        /* \"#utility.yul\":5443:5504   */\n      tag_222\n      jumpi\n        /* \"#utility.yul\":5500:5501   */\n      0x00\n        /* \"#utility.yul\":5497:5498   */\n      dup1\n        /* \"#utility.yul\":5490:5502   */\n      revert\n        /* \"#utility.yul\":5443:5504   */\n    tag_222:\n        /* \"#utility.yul\":5392:5510   */\n      pop\n      jump\t// out\n        /* \"#utility.yul\":5516:5651   */\n    tag_126:\n        /* \"#utility.yul\":5560:5565   */\n      0x00\n        /* \"#utility.yul\":5598:5604   */\n      dup2\n        /* \"#utility.yul\":5585:5605   */\n      calldataload\n        /* \"#utility.yul\":5576:5605   */\n      swap1\n      pop\n        /* \"#utility.yul\":5614:5645   */\n      tag_224\n        /* \"#utility.yul\":5639:5644   */\n      dup2\n        /* \"#utility.yul\":5614:5645   */\n      tag_125\n      jump\t// in\n    tag_224:\n        /* \"#utility.yul\":5516:5651   */\n      swap3\n      swap2\n      pop\n      pop\n      jump\t// out\n        /* \"#utility.yul\":5657:5777   */\n    tag_127:\n        /* \"#utility.yul\":5751:5752   */\n      0x04\n        /* \"#utility.yul\":5744:5749   */\n      dup2\n        /* \"#utility.yul\":5741:5753   */\n      lt\n        /* \"#utility.yul\":5731:5771   */\n      tag_226\n      jumpi\n        /* \"#utility.yul\":5767:5768   */\n      0x00\n        /* \"#utility.yul\":5764:5765   */\n      dup1\n        /* \"#utility.yul\":5757:5769   */\n      revert\n        /* \"#utility.yul\":5731:5771   */\n    tag_226:\n        /* \"#utility.yul\":5657:5777   */\n      pop\n      jump\t// out\n        /* \"#utility.yul\":5783:5964   */\n    tag_128:\n        /* \"#utility.yul\":5850:5855   */\n      0x00\n        /* \"#utility.yul\":5888:5894   */\n      dup2\n        /* \"#utility.yul\":5875:5895   */\n      calldataload\n        /* \"#utility.yul\":5866:5895   */\n      swap1\n      pop\n        /* \"#utility.yul\":5904:5958   */\n      tag_228\n        /* \"#utility.yul\":5952:5957   */\n      dup2\n        /* \"#utility.yul\":5904:5958   */\n      tag_127\n      jump\t// in\n    tag_228:\n        /* \"#utility.yul\":5783:5964   */\n      swap3\n      swap2\n      pop\n      pop\n      jump\t// out\n        /* \"#utility.yul\":6009:7471   */\n    tag_129:\n        /* \"#utility.yul\":6089:6094   */\n      0x00\n        /* \"#utility.yul\":6133:6137   */\n      0xe0\n        /* \"#utility.yul\":6121:6130   */\n      dup3\n        /* \"#utility.yul\":6116:6119   */\n      dup5\n        /* \"#utility.yul\":6112:6131   */\n      sub\n        /* \"#utility.yul\":6108:6138   */\n      slt\n        /* \"#utility.yul\":6105:6222   */\n      iszero\n      tag_230\n      jumpi\n        /* \"#utility.yul\":6141:6220   */\n      tag_231\n      tag_115\n      jump\t// in\n    tag_231:\n        /* \"#utility.yul\":6105:6222   */\n    tag_230:\n        /* \"#utility.yul\":6240:6261   */\n      tag_232\n        /* \"#utility.yul\":6256:6260   */\n      0xe0\n        /* \"#utility.yul\":6240:6261   */\n      tag_119\n      jump\t// in\n    tag_232:\n        /* \"#utility.yul\":6231:6261   */\n      swap1\n      pop\n        /* \"#utility.yul\":6327:6328   */\n      0x00\n        /* \"#utility.yul\":6367:6416   */\n      tag_233\n        /* \"#utility.yul\":6412:6415   */\n      dup5\n        /* \"#utility.yul\":6403:6409   */\n      dup3\n        /* \"#utility.yul\":6392:6401   */\n      dup6\n        /* \"#utility.yul\":6388:6410   */\n      add\n        /* \"#utility.yul\":6367:6416   */\n      tag_113\n      jump\t// in\n    tag_233:\n        /* \"#utility.yul\":6360:6364   */\n      0x00\n        /* \"#utility.yul\":6353:6358   */\n      dup4\n        /* \"#utility.yul\":6349:6365   */\n      add\n        /* \"#utility.yul\":6342:6417   */\n      mstore\n        /* \"#utility.yul\":6271:6428   */\n      pop\n        /* \"#utility.yul\":6495:6497   */\n      0x20\n        /* \"#utility.yul\":6536:6585   */\n      tag_234\n        /* \"#utility.yul\":6581:6584   */\n      dup5\n        /* \"#utility.yul\":6572:6578   */\n      dup3\n        /* \"#utility.yul\":6561:6570   */\n      dup6\n        /* \"#utility.yul\":6557:6579   */\n      add\n        /* \"#utility.yul\":6536:6585   */\n      tag_123\n      jump\t// in\n    tag_234:\n        /* \"#utility.yul\":6529:6533   */\n      0x20\n        /* \"#utility.yul\":6522:6527   */\n      dup4\n        /* \"#utility.yul\":6518:6534   */\n      add\n        /* \"#utility.yul\":6511:6586   */\n      mstore\n        /* \"#utility.yul\":6438:6597   */\n      pop\n        /* \"#utility.yul\":6661:6663   */\n      0x40\n        /* \"#utility.yul\":6702:6751   */\n      tag_235\n        /* \"#utility.yul\":6747:6750   */\n      dup5\n        /* \"#utility.yul\":6738:6744   */\n      dup3\n        /* \"#utility.yul\":6727:6736   */\n      dup6\n        /* \"#utility.yul\":6723:6745   */\n      add\n        /* \"#utility.yul\":6702:6751   */\n      tag_123\n      jump\t// in\n    tag_235:\n        /* \"#utility.yul\":6695:6699   */\n      0x40\n        /* \"#utility.yul\":6688:6693   */\n      dup4\n        /* \"#utility.yul\":6684:6700   */\n      add\n        /* \"#utility.yul\":6677:6752   */\n      mstore\n        /* \"#utility.yul\":6607:6763   */\n      pop\n        /* \"#utility.yul\":6836:6838   */\n      0x60\n        /* \"#utility.yul\":6877:6924   */\n      tag_236\n        /* \"#utility.yul\":6920:6923   */\n      dup5\n        /* \"#utility.yul\":6911:6917   */\n      dup3\n        /* \"#utility.yul\":6900:6909   */\n      dup6\n        /* \"#utility.yul\":6896:6918   */\n      add\n        /* \"#utility.yul\":6877:6924   */\n      tag_126\n      jump\t// in\n    tag_236:\n        /* \"#utility.yul\":6870:6874   */\n      0x60\n        /* \"#utility.yul\":6863:6868   */\n      dup4\n        /* \"#utility.yul\":6859:6875   */\n      add\n        /* \"#utility.yul\":6852:6925   */\n      mstore\n        /* \"#utility.yul\":6773:6936   */\n      pop\n        /* \"#utility.yul\":7010:7013   */\n      0x80\n        /* \"#utility.yul\":7052:7101   */\n      tag_237\n        /* \"#utility.yul\":7097:7100   */\n      dup5\n        /* \"#utility.yul\":7088:7094   */\n      dup3\n        /* \"#utility.yul\":7077:7086   */\n      dup6\n        /* \"#utility.yul\":7073:7095   */\n      add\n        /* \"#utility.yul\":7052:7101   */\n      tag_123\n      jump\t// in\n    tag_237:\n        /* \"#utility.yul\":7045:7049   */\n      0x80\n        /* \"#utility.yul\":7038:7043   */\n      dup4\n        /* \"#utility.yul\":7034:7050   */\n      add\n        /* \"#utility.yul\":7027:7102   */\n      mstore\n        /* \"#utility.yul\":6946:7113   */\n      pop\n        /* \"#utility.yul\":7173:7176   */\n      0xa0\n        /* \"#utility.yul\":7215:7264   */\n      tag_238\n        /* \"#utility.yul\":7260:7263   */\n      dup5\n        /* \"#utility.yul\":7251:7257   */\n      dup3\n        /* \"#utility.yul\":7240:7249   */\n      dup6\n        /* \"#utility.yul\":7236:7258   */\n      add\n        /* \"#utility.yul\":7215:7264   */\n      tag_113\n      jump\t// in\n    tag_238:\n        /* \"#utility.yul\":7208:7212   */\n      0xa0\n        /* \"#utility.yul\":7201:7206   */\n      dup4\n        /* \"#utility.yul\":7197:7213   */\n      add\n        /* \"#utility.yul\":7190:7265   */\n      mstore\n        /* \"#utility.yul\":7123:7276   */\n      pop\n        /* \"#utility.yul\":7340:7343   */\n      0xc0\n        /* \"#utility.yul\":7382:7452   */\n      tag_239\n        /* \"#utility.yul\":7448:7451   */\n      dup5\n        /* \"#utility.yul\":7439:7445   */\n      dup3\n        /* \"#utility.yul\":7428:7437   */\n      dup6\n        /* \"#utility.yul\":7424:7446   */\n      add\n        /* \"#utility.yul\":7382:7452   */\n      tag_128\n      jump\t// in\n    tag_239:\n        /* \"#utility.yul\":7375:7379   */\n      0xc0\n        /* \"#utility.yul\":7368:7373   */\n      dup4\n        /* \"#utility.yul\":7364:7380   */\n      add\n        /* \"#utility.yul\":7357:7453   */\n      mstore\n        /* \"#utility.yul\":7286:7464   */\n      pop\n        /* \"#utility.yul\":6009:7471   */\n      swap3\n      swap2\n      pop\n      pop\n      jump\t// out\n        /* \"#utility.yul\":7477:7869   */\n    tag_42:\n        /* \"#utility.yul\":7567:7573   */\n      0x00\n        /* \"#utility.yul\":7616:7619   */\n      0xe0\n        /* \"#utility.yul\":7604:7613   */\n      dup3\n        /* \"#utility.yul\":7595:7602   */\n      dup5\n        /* \"#utility.yul\":7591:7614   */\n      sub\n        /* \"#utility.yul\":7587:7620   */\n      slt\n        /* \"#utility.yul\":7584:7704   */\n      iszero\n      tag_241\n      jumpi\n        /* \"#utility.yul\":7623:7702   */\n      tag_242\n      tag_101\n      jump\t// in\n    tag_242:\n        /* \"#utility.yul\":7584:7704   */\n    tag_241:\n        /* \"#utility.yul\":7743:7744   */\n      0x00\n        /* \"#utility.yul\":7768:7852   */\n      tag_243\n        /* \"#utility.yul\":7844:7851   */\n      dup5\n        /* \"#utility.yul\":7835:7841   */\n      dup3\n        /* \"#utility.yul\":7824:7833   */\n      dup6\n        /* \"#utility.yul\":7820:7842   */\n      add\n        /* \"#utility.yul\":7768:7852   */\n      tag_129\n      jump\t// in\n    tag_243:\n        /* \"#utility.yul\":7758:7852   */\n      swap2\n      pop\n        /* \"#utility.yul\":7714:7862   */\n      pop\n        /* \"#utility.yul\":7477:7869   */\n      swap3\n      swap2\n      pop\n      pop\n      jump\t// out\n        /* \"#utility.yul\":7875:7993   */\n    tag_130:\n        /* \"#utility.yul\":7962:7986   */\n      tag_245\n        /* \"#utility.yul\":7980:7985   */\n      dup2\n        /* \"#utility.yul\":7962:7986   */\n      tag_121\n      jump\t// in\n    tag_245:\n        /* \"#utility.yul\":7957:7960   */\n      dup3\n        /* \"#utility.yul\":7950:7987   */\n      mstore\n        /* \"#utility.yul\":7875:7993   */\n      pop\n      pop\n      jump\t// out\n        /* \"#utility.yul\":7999:8117   */\n    tag_131:\n        /* \"#utility.yul\":8086:8110   */\n      tag_247\n        /* \"#utility.yul\":8104:8109   */\n      dup2\n        /* \"#utility.yul\":8086:8110   */\n      tag_111\n      jump\t// in\n    tag_247:\n        /* \"#utility.yul\":8081:8084   */\n      dup3\n        /* \"#utility.yul\":8074:8111   */\n      mstore\n        /* \"#utility.yul\":7999:8117   */\n      pop\n      pop\n      jump\t// out\n        /* \"#utility.yul\":8123:8235   */\n    tag_132:\n        /* \"#utility.yul\":8206:8228   */\n      tag_249\n        /* \"#utility.yul\":8222:8227   */\n      dup2\n        /* \"#utility.yul\":8206:8228   */\n      tag_124\n      jump\t// in\n    tag_249:\n        /* \"#utility.yul\":8201:8204   */\n      dup3\n        /* \"#utility.yul\":8194:8229   */\n      mstore\n        /* \"#utility.yul\":8123:8235   */\n      pop\n      pop\n      jump\t// out\n        /* \"#utility.yul\":8241:8421   */\n    tag_133:\n        /* \"#utility.yul\":8289:8366   */\n      0x4e487b7100000000000000000000000000000000000000000000000000000000\n        /* \"#utility.yul\":8286:8287   */\n      0x00\n        /* \"#utility.yul\":8279:8367   */\n      mstore\n        /* \"#utility.yul\":8386:8390   */\n      0x21\n        /* \"#utility.yul\":8383:8384   */\n      0x04\n        /* \"#utility.yul\":8376:8391   */\n      mstore\n        /* \"#utility.yul\":8410:8414   */\n      0x24\n        /* \"#utility.yul\":8407:8408   */\n      0x00\n        /* \"#utility.yul\":8400:8415   */\n      revert\n        /* \"#utility.yul\":8427:8553   */\n    tag_134:\n        /* \"#utility.yul\":8521:8522   */\n      0x04\n        /* \"#utility.yul\":8514:8519   */\n      dup2\n        /* \"#utility.yul\":8511:8523   */\n      lt\n        /* \"#utility.yul\":8501:8547   */\n      tag_252\n      jumpi\n        /* \"#utility.yul\":8527:8545   */\n      tag_253\n      tag_133\n      jump\t// in\n    tag_253:\n        /* \"#utility.yul\":8501:8547   */\n    tag_252:\n        /* \"#utility.yul\":8427:8553   */\n      pop\n      jump\t// out\n        /* \"#utility.yul\":8559:8712   */\n    tag_135:\n        /* \"#utility.yul\":8617:8624   */\n      0x00\n        /* \"#utility.yul\":8646:8651   */\n      dup2\n        /* \"#utility.yul\":8635:8651   */\n      swap1\n      pop\n        /* \"#utility.yul\":8652:8706   */\n      tag_255\n        /* \"#utility.yul\":8700:8705   */\n      dup3\n        /* \"#utility.yul\":8652:8706   */\n      tag_134\n      jump\t// in\n    tag_255:\n        /* \"#utility.yul\":8559:8712   */\n      swap2\n      swap1\n      pop\n      jump\t// out\n        /* \"#utility.yul\":8718:8871   */\n    tag_136:\n        /* \"#utility.yul\":8787:8796   */\n      0x00\n        /* \"#utility.yul\":8820:8865   */\n      tag_257\n        /* \"#utility.yul\":8859:8864   */\n      dup3\n        /* \"#utility.yul\":8820:8865   */\n      tag_135\n      jump\t// in\n    tag_257:\n        /* \"#utility.yul\":8807:8865   */\n      swap1\n      pop\n        /* \"#utility.yul\":8718:8871   */\n      swap2\n      swap1\n      pop\n      jump\t// out\n        /* \"#utility.yul\":8877:9046   */\n    tag_137:\n        /* \"#utility.yul\":8983:9039   */\n      tag_259\n        /* \"#utility.yul\":9033:9038   */\n      dup2\n        /* \"#utility.yul\":8983:9039   */\n      tag_136\n      jump\t// in\n    tag_259:\n        /* \"#utility.yul\":8978:8981   */\n      dup3\n        /* \"#utility.yul\":8971:9040   */\n      mstore\n        /* \"#utility.yul\":8877:9046   */\n      pop\n      pop\n      jump\t// out\n        /* \"#utility.yul\":9052:9968   */\n    tag_46:\n        /* \"#utility.yul\":9328:9332   */\n      0x00\n        /* \"#utility.yul\":9366:9369   */\n      0xe0\n        /* \"#utility.yul\":9355:9364   */\n      dup3\n        /* \"#utility.yul\":9351:9370   */\n      add\n        /* \"#utility.yul\":9343:9370   */\n      swap1\n      pop\n        /* \"#utility.yul\":9380:9451   */\n      tag_261\n        /* \"#utility.yul\":9448:9449   */\n      0x00\n        /* \"#utility.yul\":9437:9446   */\n      dup4\n        /* \"#utility.yul\":9433:9450   */\n      add\n        /* \"#utility.yul\":9424:9430   */\n      dup11\n        /* \"#utility.yul\":9380:9451   */\n      tag_130\n      jump\t// in\n    tag_261:\n        /* \"#utility.yul\":9461:9533   */\n      tag_262\n        /* \"#utility.yul\":9529:9531   */\n      0x20\n        /* \"#utility.yul\":9518:9527   */\n      dup4\n        /* \"#utility.yul\":9514:9532   */\n      add\n        /* \"#utility.yul\":9505:9511   */\n      dup10\n        /* \"#utility.yul\":9461:9533   */\n      tag_131\n      jump\t// in\n    tag_262:\n        /* \"#utility.yul\":9543:9615   */\n      tag_263\n        /* \"#utility.yul\":9611:9613   */\n      0x40\n        /* \"#utility.yul\":9600:9609   */\n      dup4\n        /* \"#utility.yul\":9596:9614   */\n      add\n        /* \"#utility.yul\":9587:9593   */\n      dup9\n        /* \"#utility.yul\":9543:9615   */\n      tag_130\n      jump\t// in\n    tag_263:\n        /* \"#utility.yul\":9625:9693   */\n      tag_264\n        /* \"#utility.yul\":9689:9691   */\n      0x60\n        /* \"#utility.yul\":9678:9687   */\n      dup4\n        /* \"#utility.yul\":9674:9692   */\n      add\n        /* \"#utility.yul\":9665:9671   */\n      dup8\n        /* \"#utility.yul\":9625:9693   */\n      tag_132\n      jump\t// in\n    tag_264:\n        /* \"#utility.yul\":9703:9776   */\n      tag_265\n        /* \"#utility.yul\":9771:9774   */\n      0x80\n        /* \"#utility.yul\":9760:9769   */\n      dup4\n        /* \"#utility.yul\":9756:9775   */\n      add\n        /* \"#utility.yul\":9747:9753   */\n      dup7\n        /* \"#utility.yul\":9703:9776   */\n      tag_130\n      jump\t// in\n    tag_265:\n        /* \"#utility.yul\":9786:9859   */\n      tag_266\n        /* \"#utility.yul\":9854:9857   */\n      0xa0\n        /* \"#utility.yul\":9843:9852   */\n      dup4\n        /* \"#utility.yul\":9839:9858   */\n      add\n        /* \"#utility.yul\":9830:9836   */\n      dup6\n        /* \"#utility.yul\":9786:9859   */\n      tag_131\n      jump\t// in\n    tag_266:\n        /* \"#utility.yul\":9869:9961   */\n      tag_267\n        /* \"#utility.yul\":9956:9959   */\n      0xc0\n        /* \"#utility.yul\":9945:9954   */\n      dup4\n        /* \"#utility.yul\":9941:9960   */\n      add\n        /* \"#utility.yul\":9932:9938   */\n      dup5\n        /* \"#utility.yul\":9869:9961   */\n      tag_137\n      jump\t// in\n    tag_267:\n        /* \"#utility.yul\":9052:9968   */\n      swap9\n      swap8\n      pop\n      pop\n      pop\n      pop\n      pop\n      pop\n      pop\n      pop\n      jump\t// out\n        /* \"#utility.yul\":9974:10143   */\n    tag_138:\n        /* \"#utility.yul\":10058:10069   */\n      0x00\n        /* \"#utility.yul\":10092:10098   */\n      dup3\n        /* \"#utility.yul\":10087:10090   */\n      dup3\n        /* \"#utility.yul\":10080:10099   */\n      mstore\n        /* \"#utility.yul\":10132:10136   */\n      0x20\n        /* \"#utility.yul\":10127:10130   */\n      dup3\n        /* \"#utility.yul\":10123:10137   */\n      add\n        /* \"#utility.yul\":10108:10137   */\n      swap1\n      pop\n        /* \"#utility.yul\":9974:10143   */\n      swap3\n      swap2\n      pop\n      pop\n      jump\t// out\n        /* \"#utility.yul\":10149:10374   */\n    tag_139:\n        /* \"#utility.yul\":10289:10323   */\n      0x4f776e61626c653a206e6577206f776e657220697320746865207a65726f2061\n        /* \"#utility.yul\":10285:10286   */\n      0x00\n        /* \"#utility.yul\":10277:10283   */\n      dup3\n        /* \"#utility.yul\":10273:10287   */\n      add\n        /* \"#utility.yul\":10266:10324   */\n      mstore\n        /* \"#utility.yul\":10358:10366   */\n      0x6464726573730000000000000000000000000000000000000000000000000000\n        /* \"#utility.yul\":10353:10355   */\n      0x20\n        /* \"#utility.yul\":10345:10351   */\n      dup3\n        /* \"#utility.yul\":10341:10356   */\n      add\n        /* \"#utility.yul\":10334:10367   */\n      mstore\n        /* \"#utility.yul\":10149:10374   */\n      pop\n      jump\t// out\n        /* \"#utility.yul\":10380:10746   */\n    tag_140:\n        /* \"#utility.yul\":10522:10525   */\n      0x00\n        /* \"#utility.yul\":10543:10610   */\n      tag_271\n        /* \"#utility.yul\":10607:10609   */\n      0x26\n        /* \"#utility.yul\":10602:10605   */\n      dup4\n        /* \"#utility.yul\":10543:10610   */\n      tag_138\n      jump\t// in\n    tag_271:\n        /* \"#utility.yul\":10536:10610   */\n      swap2\n      pop\n        /* \"#utility.yul\":10619:10712   */\n      tag_272\n        /* \"#utility.yul\":10708:10711   */\n      dup3\n        /* \"#utility.yul\":10619:10712   */\n      tag_139\n      jump\t// in\n    tag_272:\n        /* \"#utility.yul\":10737:10739   */\n      0x40\n        /* \"#utility.yul\":10732:10735   */\n      dup3\n        /* \"#utility.yul\":10728:10740   */\n      add\n        /* \"#utility.yul\":10721:10740   */\n      swap1\n      pop\n        /* \"#utility.yul\":10380:10746   */\n      swap2\n      swap1\n      pop\n      jump\t// out\n        /* \"#utility.yul\":10752:11171   */\n    tag_61:\n        /* \"#utility.yul\":10918:10922   */\n      0x00\n        /* \"#utility.yul\":10956:10958   */\n      0x20\n        /* \"#utility.yul\":10945:10954   */\n      dup3\n        /* \"#utility.yul\":10941:10959   */\n      add\n        /* \"#utility.yul\":10933:10959   */\n      swap1\n      pop\n        /* \"#utility.yul\":11005:11014   */\n      dup2\n        /* \"#utility.yul\":10999:11003   */\n      dup2\n        /* \"#utility.yul\":10995:11015   */\n      sub\n        /* \"#utility.yul\":10991:10992   */\n      0x00\n        /* \"#utility.yul\":10980:10989   */\n      dup4\n        /* \"#utility.yul\":10976:10993   */\n      add\n        /* \"#utility.yul\":10969:11016   */\n      mstore\n        /* \"#utility.yul\":11033:11164   */\n      tag_274\n        /* \"#utility.yul\":11159:11163   */\n      dup2\n        /* \"#utility.yul\":11033:11164   */\n      tag_140\n      jump\t// in\n    tag_274:\n        /* \"#utility.yul\":11025:11164   */\n      swap1\n      pop\n        /* \"#utility.yul\":10752:11171   */\n      swap2\n      swap1\n      pop\n      jump\t// out\n        /* \"#utility.yul\":11177:11359   */\n    tag_141:\n        /* \"#utility.yul\":11317:11351   */\n      0x4f776e61626c653a2063616c6c6572206973206e6f7420746865206f776e6572\n        /* \"#utility.yul\":11313:11314   */\n      0x00\n        /* \"#utility.yul\":11305:11311   */\n      dup3\n        /* \"#utility.yul\":11301:11315   */\n      add\n        /* \"#utility.yul\":11294:11352   */\n      mstore\n        /* \"#utility.yul\":11177:11359   */\n      pop\n      jump\t// out\n        /* \"#utility.yul\":11365:11731   */\n    tag_142:\n        /* \"#utility.yul\":11507:11510   */\n      0x00\n        /* \"#utility.yul\":11528:11595   */\n      tag_277\n        /* \"#utility.yul\":11592:11594   */\n      0x20\n        /* \"#utility.yul\":11587:11590   */\n      dup4\n        /* \"#utility.yul\":11528:11595   */\n      tag_138\n      jump\t// in\n    tag_277:\n        /* \"#utility.yul\":11521:11595   */\n      swap2\n      pop\n        /* \"#utility.yul\":11604:11697   */\n      tag_278\n        /* \"#utility.yul\":11693:11696   */\n      dup3\n        /* \"#utility.yul\":11604:11697   */\n      tag_141\n      jump\t// in\n    tag_278:\n        /* \"#utility.yul\":11722:11724   */\n      0x20\n        /* \"#utility.yul\":11717:11720   */\n      dup3\n        /* \"#utility.yul\":11713:11725   */\n      add\n        /* \"#utility.yul\":11706:11725   */\n      swap1\n      pop\n        /* \"#utility.yul\":11365:11731   */\n      swap2\n      swap1\n      pop\n      jump\t// out\n        /* \"#utility.yul\":11737:12156   */\n    tag_69:\n        /* \"#utility.yul\":11903:11907   */\n      0x00\n        /* \"#utility.yul\":11941:11943   */\n      0x20\n        /* \"#utility.yul\":11930:11939   */\n      dup3\n        /* \"#utility.yul\":11926:11944   */\n      add\n        /* \"#utility.yul\":11918:11944   */\n      swap1\n      pop\n        /* \"#utility.yul\":11990:11999   */\n      dup2\n        /* \"#utility.yul\":11984:11988   */\n      dup2\n        /* \"#utility.yul\":11980:12000   */\n      sub\n        /* \"#utility.yul\":11976:11977   */\n      0x00\n        /* \"#utility.yul\":11965:11974   */\n      dup4\n        /* \"#utility.yul\":11961:11978   */\n      add\n        /* \"#utility.yul\":11954:12001   */\n      mstore\n        /* \"#utility.yul\":12018:12149   */\n      tag_280\n        /* \"#utility.yul\":12144:12148   */\n      dup2\n        /* \"#utility.yul\":12018:12149   */\n      tag_142\n      jump\t// in\n    tag_280:\n        /* \"#utility.yul\":12010:12149   */\n      swap1\n      pop\n        /* \"#utility.yul\":11737:12156   */\n      swap2\n      swap1\n      pop\n      jump\t// out\n        /* \"#utility.yul\":12162:12494   */\n    tag_72:\n        /* \"#utility.yul\":12283:12287   */\n      0x00\n        /* \"#utility.yul\":12321:12323   */\n      0x40\n        /* \"#utility.yul\":12310:12319   */\n      dup3\n        /* \"#utility.yul\":12306:12324   */\n      add\n        /* \"#utility.yul\":12298:12324   */\n      swap1\n      pop\n        /* \"#utility.yul\":12334:12405   */\n      tag_282\n        /* \"#utility.yul\":12402:12403   */\n      0x00\n        /* \"#utility.yul\":12391:12400   */\n      dup4\n        /* \"#utility.yul\":12387:12404   */\n      add\n        /* \"#utility.yul\":12378:12384   */\n      dup6\n        /* \"#utility.yul\":12334:12405   */\n      tag_114\n      jump\t// in\n    tag_282:\n        /* \"#utility.yul\":12415:12487   */\n      tag_283\n        /* \"#utility.yul\":12483:12485   */\n      0x20\n        /* \"#utility.yul\":12472:12481   */\n      dup4\n        /* \"#utility.yul\":12468:12486   */\n      add\n        /* \"#utility.yul\":12459:12465   */\n      dup5\n        /* \"#utility.yul\":12415:12487   */\n      tag_131\n      jump\t// in\n    tag_283:\n        /* \"#utility.yul\":12162:12494   */\n      swap4\n      swap3\n      pop\n      pop\n      pop\n      jump\t// out\n        /* \"#utility.yul\":12500:12598   */\n    tag_143:\n        /* \"#utility.yul\":12551:12557   */\n      0x00\n        /* \"#utility.yul\":12585:12590   */\n      dup2\n        /* \"#utility.yul\":12579:12591   */\n      mload\n        /* \"#utility.yul\":12569:12591   */\n      swap1\n      pop\n        /* \"#utility.yul\":12500:12598   */\n      swap2\n      swap1\n      pop\n      jump\t// out\n        /* \"#utility.yul\":12604:12751   */\n    tag_144:\n        /* \"#utility.yul\":12705:12716   */\n      0x00\n        /* \"#utility.yul\":12742:12745   */\n      dup2\n        /* \"#utility.yul\":12727:12745   */\n      swap1\n      pop\n        /* \"#utility.yul\":12604:12751   */\n      swap3\n      swap2\n      pop\n      pop\n      jump\t// out\n        /* \"#utility.yul\":12757:13003   */\n    tag_145:\n        /* \"#utility.yul\":12838:12839   */\n      0x00\n        /* \"#utility.yul\":12848:12961   */\n    tag_287:\n        /* \"#utility.yul\":12862:12868   */\n      dup4\n        /* \"#utility.yul\":12859:12860   */\n      dup2\n        /* \"#utility.yul\":12856:12869   */\n      lt\n        /* \"#utility.yul\":12848:12961   */\n      iszero\n      tag_289\n      jumpi\n        /* \"#utility.yul\":12947:12948   */\n      dup1\n        /* \"#utility.yul\":12942:12945   */\n      dup3\n        /* \"#utility.yul\":12938:12949   */\n      add\n        /* \"#utility.yul\":12932:12950   */\n      mload\n        /* \"#utility.yul\":12928:12929   */\n      dup2\n        /* \"#utility.yul\":12923:12926   */\n      dup5\n        /* \"#utility.yul\":12919:12930   */\n      add\n        /* \"#utility.yul\":12912:12951   */\n      mstore\n        /* \"#utility.yul\":12884:12886   */\n      0x20\n        /* \"#utility.yul\":12881:12882   */\n      dup2\n        /* \"#utility.yul\":12877:12887   */\n      add\n        /* \"#utility.yul\":12872:12887   */\n      swap1\n      pop\n        /* \"#utility.yul\":12848:12961   */\n      jump(tag_287)\n    tag_289:\n        /* \"#utility.yul\":12995:12996   */\n      0x00\n        /* \"#utility.yul\":12986:12992   */\n      dup5\n        /* \"#utility.yul\":12981:12984   */\n      dup5\n        /* \"#utility.yul\":12977:12993   */\n      add\n        /* \"#utility.yul\":12970:12997   */\n      mstore\n        /* \"#utility.yul\":12819:13003   */\n      pop\n        /* \"#utility.yul\":12757:13003   */\n      pop\n      pop\n      pop\n      jump\t// out\n        /* \"#utility.yul\":13009:13395   */\n    tag_146:\n        /* \"#utility.yul\":13113:13116   */\n      0x00\n        /* \"#utility.yul\":13141:13179   */\n      tag_291\n        /* \"#utility.yul\":13173:13178   */\n      dup3\n        /* \"#utility.yul\":13141:13179   */\n      tag_143\n      jump\t// in\n    tag_291:\n        /* \"#utility.yul\":13195:13283   */\n      tag_292\n        /* \"#utility.yul\":13276:13282   */\n      dup2\n        /* \"#utility.yul\":13271:13274   */\n      dup6\n        /* \"#utility.yul\":13195:13283   */\n      tag_144\n      jump\t// in\n    tag_292:\n        /* \"#utility.yul\":13188:13283   */\n      swap4\n      pop\n        /* \"#utility.yul\":13292:13357   */\n      tag_293\n        /* \"#utility.yul\":13350:13356   */\n      dup2\n        /* \"#utility.yul\":13345:13348   */\n      dup6\n        /* \"#utility.yul\":13338:13342   */\n      0x20\n        /* \"#utility.yul\":13331:13336   */\n      dup7\n        /* \"#utility.yul\":13327:13343   */\n      add\n        /* \"#utility.yul\":13292:13357   */\n      tag_145\n      jump\t// in\n    tag_293:\n        /* \"#utility.yul\":13382:13388   */\n      dup1\n        /* \"#utility.yul\":13377:13380   */\n      dup5\n        /* \"#utility.yul\":13373:13389   */\n      add\n        /* \"#utility.yul\":13366:13389   */\n      swap2\n      pop\n        /* \"#utility.yul\":13117:13395   */\n      pop\n        /* \"#utility.yul\":13009:13395   */\n      swap3\n      swap2\n      pop\n      pop\n      jump\t// out\n        /* \"#utility.yul\":13401:13672   */\n    tag_74:\n        /* \"#utility.yul\":13531:13534   */\n      0x00\n        /* \"#utility.yul\":13553:13646   */\n      tag_295\n        /* \"#utility.yul\":13642:13645   */\n      dup3\n        /* \"#utility.yul\":13633:13639   */\n      dup5\n        /* \"#utility.yul\":13553:13646   */\n      tag_146\n      jump\t// in\n    tag_295:\n        /* \"#utility.yul\":13546:13646   */\n      swap2\n      pop\n        /* \"#utility.yul\":13663:13666   */\n      dup2\n        /* \"#utility.yul\":13656:13666   */\n      swap1\n      pop\n        /* \"#utility.yul\":13401:13672   */\n      swap3\n      swap2\n      pop\n      pop\n      jump\t// out\n        /* \"#utility.yul\":13678:13768   */\n    tag_147:\n        /* \"#utility.yul\":13712:13719   */\n      0x00\n        /* \"#utility.yul\":13755:13760   */\n      dup2\n        /* \"#utility.yul\":13748:13761   */\n      iszero\n        /* \"#utility.yul\":13741:13762   */\n      iszero\n        /* \"#utility.yul\":13730:13762   */\n      swap1\n      pop\n        /* \"#utility.yul\":13678:13768   */\n      swap2\n      swap1\n      pop\n      jump\t// out\n        /* \"#utility.yul\":13774:13890   */\n    tag_148:\n        /* \"#utility.yul\":13844:13865   */\n      tag_298\n        /* \"#utility.yul\":13859:13864   */\n      dup2\n        /* \"#utility.yul\":13844:13865   */\n      tag_147\n      jump\t// in\n    tag_298:\n        /* \"#utility.yul\":13837:13842   */\n      dup2\n        /* \"#utility.yul\":13834:13866   */\n      eq\n        /* \"#utility.yul\":13824:13884   */\n      tag_299\n      jumpi\n        /* \"#utility.yul\":13880:13881   */\n      0x00\n        /* \"#utility.yul\":13877:13878   */\n      dup1\n        /* \"#utility.yul\":13870:13882   */\n      revert\n        /* \"#utility.yul\":13824:13884   */\n    tag_299:\n        /* \"#utility.yul\":13774:13890   */\n      pop\n      jump\t// out\n        /* \"#utility.yul\":13896:14033   */\n    tag_149:\n        /* \"#utility.yul\":13950:13955   */\n      0x00\n        /* \"#utility.yul\":13981:13987   */\n      dup2\n        /* \"#utility.yul\":13975:13988   */\n      mload\n        /* \"#utility.yul\":13966:13988   */\n      swap1\n      pop\n        /* \"#utility.yul\":13997:14027   */\n      tag_301\n        /* \"#utility.yul\":14021:14026   */\n      dup2\n        /* \"#utility.yul\":13997:14027   */\n      tag_148\n      jump\t// in\n    tag_301:\n        /* \"#utility.yul\":13896:14033   */\n      swap3\n      swap2\n      pop\n      pop\n      jump\t// out\n        /* \"#utility.yul\":14039:14384   */\n    tag_81:\n        /* \"#utility.yul\":14106:14112   */\n      0x00\n        /* \"#utility.yul\":14155:14157   */\n      0x20\n        /* \"#utility.yul\":14143:14152   */\n      dup3\n        /* \"#utility.yul\":14134:14141   */\n      dup5\n        /* \"#utility.yul\":14130:14153   */\n      sub\n        /* \"#utility.yul\":14126:14158   */\n      slt\n        /* \"#utility.yul\":14123:14242   */\n      iszero\n      tag_303\n      jumpi\n        /* \"#utility.yul\":14161:14240   */\n      tag_304\n      tag_101\n      jump\t// in\n    tag_304:\n        /* \"#utility.yul\":14123:14242   */\n    tag_303:\n        /* \"#utility.yul\":14281:14282   */\n      0x00\n        /* \"#utility.yul\":14306:14367   */\n      tag_305\n        /* \"#utility.yul\":14359:14366   */\n      dup5\n        /* \"#utility.yul\":14350:14356   */\n      dup3\n        /* \"#utility.yul\":14339:14348   */\n      dup6\n        /* \"#utility.yul\":14335:14357   */\n      add\n        /* \"#utility.yul\":14306:14367   */\n      tag_149\n      jump\t// in\n    tag_305:\n        /* \"#utility.yul\":14296:14367   */\n      swap2\n      pop\n        /* \"#utility.yul\":14252:14377   */\n      pop\n        /* \"#utility.yul\":14039:14384   */\n      swap3\n      swap2\n      pop\n      pop\n      jump\t// out\n        /* \"#utility.yul\":14390:14623   */\n    tag_150:\n        /* \"#utility.yul\":14530:14564   */\n      0x45786368616e676541676772656761746f723a3a5472616e7366657248656c70\n        /* \"#utility.yul\":14526:14527   */\n      0x00\n        /* \"#utility.yul\":14518:14524   */\n      dup3\n        /* \"#utility.yul\":14514:14528   */\n      add\n        /* \"#utility.yul\":14507:14565   */\n      mstore\n        /* \"#utility.yul\":14599:14615   */\n      0x65723a73616665417070726f7665000000000000000000000000000000000000\n        /* \"#utility.yul\":14594:14596   */\n      0x20\n        /* \"#utility.yul\":14586:14592   */\n      dup3\n        /* \"#utility.yul\":14582:14597   */\n      add\n        /* \"#utility.yul\":14575:14616   */\n      mstore\n        /* \"#utility.yul\":14390:14623   */\n      pop\n      jump\t// out\n        /* \"#utility.yul\":14629:14995   */\n    tag_151:\n        /* \"#utility.yul\":14771:14774   */\n      0x00\n        /* \"#utility.yul\":14792:14859   */\n      tag_308\n        /* \"#utility.yul\":14856:14858   */\n      0x2e\n        /* \"#utility.yul\":14851:14854   */\n      dup4\n        /* \"#utility.yul\":14792:14859   */\n      tag_138\n      jump\t// in\n    tag_308:\n        /* \"#utility.yul\":14785:14859   */\n      swap2\n      pop\n        /* \"#utility.yul\":14868:14961   */\n      tag_309\n        /* \"#utility.yul\":14957:14960   */\n      dup3\n        /* \"#utility.yul\":14868:14961   */\n      tag_150\n      jump\t// in\n    tag_309:\n        /* \"#utility.yul\":14986:14988   */\n      0x40\n        /* \"#utility.yul\":14981:14984   */\n      dup3\n        /* \"#utility.yul\":14977:14989   */\n      add\n        /* \"#utility.yul\":14970:14989   */\n      swap1\n      pop\n        /* \"#utility.yul\":14629:14995   */\n      swap2\n      swap1\n      pop\n      jump\t// out\n        /* \"#utility.yul\":15001:15420   */\n    tag_84:\n        /* \"#utility.yul\":15167:15171   */\n      0x00\n        /* \"#utility.yul\":15205:15207   */\n      0x20\n        /* \"#utility.yul\":15194:15203   */\n      dup3\n        /* \"#utility.yul\":15190:15208   */\n      add\n        /* \"#utility.yul\":15182:15208   */\n      swap1\n      pop\n        /* \"#utility.yul\":15254:15263   */\n      dup2\n        /* \"#utility.yul\":15248:15252   */\n      dup2\n        /* \"#utility.yul\":15244:15264   */\n      sub\n        /* \"#utility.yul\":15240:15241   */\n      0x00\n        /* \"#utility.yul\":15229:15238   */\n      dup4\n        /* \"#utility.yul\":15225:15242   */\n      add\n        /* \"#utility.yul\":15218:15265   */\n      mstore\n        /* \"#utility.yul\":15282:15413   */\n      tag_311\n        /* \"#utility.yul\":15408:15412   */\n      dup2\n        /* \"#utility.yul\":15282:15413   */\n      tag_151\n      jump\t// in\n    tag_311:\n        /* \"#utility.yul\":15274:15413   */\n      swap1\n      pop\n        /* \"#utility.yul\":15001:15420   */\n      swap2\n      swap1\n      pop\n      jump\t// out\n        /* \"#utility.yul\":15426:15868   */\n    tag_87:\n        /* \"#utility.yul\":15575:15579   */\n      0x00\n        /* \"#utility.yul\":15613:15615   */\n      0x60\n        /* \"#utility.yul\":15602:15611   */\n      dup3\n        /* \"#utility.yul\":15598:15616   */\n      add\n        /* \"#utility.yul\":15590:15616   */\n      swap1\n      pop\n        /* \"#utility.yul\":15626:15697   */\n      tag_313\n        /* \"#utility.yul\":15694:15695   */\n      0x00\n        /* \"#utility.yul\":15683:15692   */\n      dup4\n        /* \"#utility.yul\":15679:15696   */\n      add\n        /* \"#utility.yul\":15670:15676   */\n      dup7\n        /* \"#utility.yul\":15626:15697   */\n      tag_114\n      jump\t// in\n    tag_313:\n        /* \"#utility.yul\":15707:15779   */\n      tag_314\n        /* \"#utility.yul\":15775:15777   */\n      0x20\n        /* \"#utility.yul\":15764:15773   */\n      dup4\n        /* \"#utility.yul\":15760:15778   */\n      add\n        /* \"#utility.yul\":15751:15757   */\n      dup6\n        /* \"#utility.yul\":15707:15779   */\n      tag_114\n      jump\t// in\n    tag_314:\n        /* \"#utility.yul\":15789:15861   */\n      tag_315\n        /* \"#utility.yul\":15857:15859   */\n      0x40\n        /* \"#utility.yul\":15846:15855   */\n      dup4\n        /* \"#utility.yul\":15842:15860   */\n      add\n        /* \"#utility.yul\":15833:15839   */\n      dup5\n        /* \"#utility.yul\":15789:15861   */\n      tag_131\n      jump\t// in\n    tag_315:\n        /* \"#utility.yul\":15426:15868   */\n      swap5\n      swap4\n      pop\n      pop\n      pop\n      pop\n      jump\t// out\n        /* \"#utility.yul\":15874:16112   */\n    tag_152:\n        /* \"#utility.yul\":16014:16048   */\n      0x45786368616e676541676772656761746f723a3a5472616e7366657248656c70\n        /* \"#utility.yul\":16010:16011   */\n      0x00\n        /* \"#utility.yul\":16002:16008   */\n      dup3\n        /* \"#utility.yul\":15998:16012   */\n      add\n        /* \"#utility.yul\":15991:16049   */\n      mstore\n        /* \"#utility.yul\":16083:16104   */\n      0x65723a736166655472616e7366657246726f6d00000000000000000000000000\n        /* \"#utility.yul\":16078:16080   */\n      0x20\n        /* \"#utility.yul\":16070:16076   */\n      dup3\n        /* \"#utility.yul\":16066:16081   */\n      add\n        /* \"#utility.yul\":16059:16105   */\n      mstore\n        /* \"#utility.yul\":15874:16112   */\n      pop\n      jump\t// out\n        /* \"#utility.yul\":16118:16484   */\n    tag_153:\n        /* \"#utility.yul\":16260:16263   */\n      0x00\n        /* \"#utility.yul\":16281:16348   */\n      tag_318\n        /* \"#utility.yul\":16345:16347   */\n      0x33\n        /* \"#utility.yul\":16340:16343   */\n      dup4\n        /* \"#utility.yul\":16281:16348   */\n      tag_138\n      jump\t// in\n    tag_318:\n        /* \"#utility.yul\":16274:16348   */\n      swap2\n      pop\n        /* \"#utility.yul\":16357:16450   */\n      tag_319\n        /* \"#utility.yul\":16446:16449   */\n      dup3\n        /* \"#utility.yul\":16357:16450   */\n      tag_152\n      jump\t// in\n    tag_319:\n        /* \"#utility.yul\":16475:16477   */\n      0x40\n        /* \"#utility.yul\":16470:16473   */\n      dup3\n        /* \"#utility.yul\":16466:16478   */\n      add\n        /* \"#utility.yul\":16459:16478   */\n      swap1\n      pop\n        /* \"#utility.yul\":16118:16484   */\n      swap2\n      swap1\n      pop\n      jump\t// out\n        /* \"#utility.yul\":16490:16909   */\n    tag_97:\n        /* \"#utility.yul\":16656:16660   */\n      0x00\n        /* \"#utility.yul\":16694:16696   */\n      0x20\n        /* \"#utility.yul\":16683:16692   */\n      dup3\n        /* \"#utility.yul\":16679:16697   */\n      add\n        /* \"#utility.yul\":16671:16697   */\n      swap1\n      pop\n        /* \"#utility.yul\":16743:16752   */\n      dup2\n        /* \"#utility.yul\":16737:16741   */\n      dup2\n        /* \"#utility.yul\":16733:16753   */\n      sub\n        /* \"#utility.yul\":16729:16730   */\n      0x00\n        /* \"#utility.yul\":16718:16727   */\n      dup4\n        /* \"#utility.yul\":16714:16731   */\n      add\n        /* \"#utility.yul\":16707:16754   */\n      mstore\n        /* \"#utility.yul\":16771:16902   */\n      tag_321\n        /* \"#utility.yul\":16897:16901   */\n      dup2\n        /* \"#utility.yul\":16771:16902   */\n      tag_153\n      jump\t// in\n    tag_321:\n        /* \"#utility.yul\":16763:16902   */\n      swap1\n      pop\n        /* \"#utility.yul\":16490:16909   */\n      swap2\n      swap1\n      pop\n      jump\t// out\n\n    auxdata: 0xa264697066735822122072cac91294b4bc62cde6099b13df80e332f33bf9602b15f4e3f72ecffe545e8964736f6c63430008120033\n}\n",
				"bytecode": {
					"linkReferences": {},
					"object": "60806040527fffffffffffffffffffffffffffffffffffffffffffffffffffffffffffffffff6001553480156200003557600080fd5b50604051620011df380380620011df83398181016040528101906200005b9190620001f9565b6200007b6200006f620000c360201b60201c565b620000cb60201b60201c565b80600260006101000a81548173ffffffffffffffffffffffffffffffffffffffff021916908373ffffffffffffffffffffffffffffffffffffffff160217905550506200022b565b600033905090565b60008060009054906101000a900473ffffffffffffffffffffffffffffffffffffffff169050816000806101000a81548173ffffffffffffffffffffffffffffffffffffffff021916908373ffffffffffffffffffffffffffffffffffffffff1602179055508173ffffffffffffffffffffffffffffffffffffffff168173ffffffffffffffffffffffffffffffffffffffff167f8be0079c531659141344cd1fd0a4f28419497f9722a3daafe3b4186f6b6457e060405160405180910390a35050565b600080fd5b600073ffffffffffffffffffffffffffffffffffffffff82169050919050565b6000620001c18262000194565b9050919050565b620001d381620001b4565b8114620001df57600080fd5b50565b600081519050620001f381620001c8565b92915050565b6000602082840312156200021257620002116200018f565b5b60006200022284828501620001e2565b91505092915050565b610fa4806200023b6000396000f3fe6080604052600436106100555760003560e01c806303105b041461005a5780630a2fb37414610083578063715018a61461009f5780638da5cb5b146100b6578063e78cea92146100e1578063f2fde38b1461010c575b600080fd5b34801561006657600080fd5b50610081600480360381019061007c9190610743565b610135565b005b61009d6004803603810190610098919061081e565b61014e565b005b3480156100ab57600080fd5b506100b4610232565b005b3480156100c257600080fd5b506100cb610246565b6040516100d8919061088d565b60405180910390f35b3480156100ed57600080fd5b506100f661026f565b604051610103919061088d565b60405180910390f35b34801561011857600080fd5b50610133600480360381019061012e91906108a8565b610295565b005b61013d610318565b61014a8282600154610396565b5050565b6000838381019061015f9190610aae565b90506000816020015160001c9050610179813330866104cc565b600260009054906101000a900473ffffffffffffffffffffffffffffffffffffffff1673ffffffffffffffffffffffffffffffffffffffff1663f35e37d3348460200151868660400151876060015188608001518960a001518a60c001516040518963ffffffff1660e01b81526004016101f99796959493929190610b7f565b6000604051808303818588803b15801561021257600080fd5b505af1158015610226573d6000803e3d6000fd5b50505050505050505050565b61023a610318565b6102446000610605565b565b60008060009054906101000a900473ffffffffffffffffffffffffffffffffffffffff16905090565b600260009054906101000a900473ffffffffffffffffffffffffffffffffffffffff1681565b61029d610318565b600073ffffffffffffffffffffffffffffffffffffffff168173ffffffffffffffffffffffffffffffffffffffff160361030c576040517f08c379a000000000000000000000000000000000000000000000000000000000815260040161030390610c71565b60405180910390fd5b61031581610605565b50565b6103206106c9565b73ffffffffffffffffffffffffffffffffffffffff1661033e610246565b73ffffffffffffffffffffffffffffffffffffffff1614610394576040517f08c379a000000000000000000000000000000000000000000000000000000000815260040161038b90610cdd565b60405180910390fd5b565b6000808473ffffffffffffffffffffffffffffffffffffffff1663095ea7b385856040516024016103c8929190610cfd565b6040516020818303038152906040529060e01b6020820180517bffffffffffffffffffffffffffffffffffffffffffffffffffffffff83818316178352505050506040516104169190610d97565b6000604051808303816000865af19150503d8060008114610453576040519150601f19603f3d011682016040523d82523d6000602084013e610458565b606091505b509150915081801561048657506000815114806104855750808060200190518101906104849190610de6565b5b5b6104c5576040517f08c379a00000000000000000000000000000000000000000000000000000000081526004016104bc90610e85565b60405180910390fd5b5050505050565b6000808573ffffffffffffffffffffffffffffffffffffffff166323b872dd86868660405160240161050093929190610ea5565b6040516020818303038152906040529060e01b6020820180517bffffffffffffffffffffffffffffffffffffffffffffffffffffffff838183161783525050505060405161054e9190610d97565b6000604051808303816000865af19150503d806000811461058b576040519150601f19603f3d011682016040523d82523d6000602084013e610590565b606091505b50915091508180156105be57506000815114806105bd5750808060200190518101906105bc9190610de6565b5b5b6105fd576040517f08c379a00000000000000000000000000000000000000000000000000000000081526004016105f490610f4e565b60405180910390fd5b505050505050565b60008060009054906101000a900473ffffffffffffffffffffffffffffffffffffffff169050816000806101000a81548173ffffffffffffffffffffffffffffffffffffffff021916908373ffffffffffffffffffffffffffffffffffffffff1602179055508173ffffffffffffffffffffffffffffffffffffffff168173ffffffffffffffffffffffffffffffffffffffff167f8be0079c531659141344cd1fd0a4f28419497f9722a3daafe3b4186f6b6457e060405160405180910390a35050565b600033905090565b6000604051905090565b600080fd5b600080fd5b600073ffffffffffffffffffffffffffffffffffffffff82169050919050565b6000610710826106e5565b9050919050565b61072081610705565b811461072b57600080fd5b50565b60008135905061073d81610717565b92915050565b6000806040838503121561075a576107596106db565b5b60006107688582860161072e565b92505060206107798582860161072e565b9150509250929050565b600080fd5b600080fd5b600080fd5b60008083601f8401126107a8576107a7610783565b5b8235905067ffffffffffffffff8111156107c5576107c4610788565b5b6020830191508360018202830111156107e1576107e061078d565b5b9250929050565b6000819050919050565b6107fb816107e8565b811461080657600080fd5b50565b600081359050610818816107f2565b92915050565b600080600060408486031215610837576108366106db565b5b600084013567ffffffffffffffff811115610855576108546106e0565b5b61086186828701610792565b9350935050602061087486828701610809565b9150509250925092565b61088781610705565b82525050565b60006020820190506108a2600083018461087e565b92915050565b6000602082840312156108be576108bd6106db565b5b60006108cc8482850161072e565b91505092915050565b600080fd5b6000601f19601f8301169050919050565b7f4e487b7100000000000000000000000000000000000000000000000000000000600052604160045260246000fd5b610923826108da565b810181811067ffffffffffffffff82111715610942576109416108eb565b5b80604052505050565b60006109556106d1565b9050610961828261091a565b919050565b6000819050919050565b61097981610966565b811461098457600080fd5b50565b60008135905061099681610970565b92915050565b600060ff82169050919050565b6109b28161099c565b81146109bd57600080fd5b50565b6000813590506109cf816109a9565b92915050565b600481106109e257600080fd5b50565b6000813590506109f4816109d5565b92915050565b600060e08284031215610a1057610a0f6108d5565b5b610a1a60e061094b565b90506000610a2a84828501610809565b6000830152506020610a3e84828501610987565b6020830152506040610a5284828501610987565b6040830152506060610a66848285016109c0565b6060830152506080610a7a84828501610987565b60808301525060a0610a8e84828501610809565b60a08301525060c0610aa2848285016109e5565b60c08301525092915050565b600060e08284031215610ac457610ac36106db565b5b6000610ad2848285016109fa565b91505092915050565b610ae481610966565b82525050565b610af3816107e8565b82525050565b610b028161099c565b82525050565b7f4e487b7100000000000000000000000000000000000000000000000000000000600052602160045260246000fd5b60048110610b4857610b47610b08565b5b50565b6000819050610b5982610b37565b919050565b6000610b6982610b4b565b9050919050565b610b7981610b5e565b82525050565b600060e082019050610b94600083018a610adb565b610ba16020830189610aea565b610bae6040830188610adb565b610bbb6060830187610af9565b610bc86080830186610adb565b610bd560a0830185610aea565b610be260c0830184610b70565b98975050505050505050565b600082825260208201905092915050565b7f4f776e61626c653a206e6577206f776e657220697320746865207a65726f206160008201527f6464726573730000000000000000000000000000000000000000000000000000602082015250565b6000610c5b602683610bee565b9150610c6682610bff565b604082019050919050565b60006020820190508181036000830152610c8a81610c4e565b9050919050565b7f4f776e61626c653a2063616c6c6572206973206e6f7420746865206f776e6572600082015250565b6000610cc7602083610bee565b9150610cd282610c91565b602082019050919050565b60006020820190508181036000830152610cf681610cba565b9050919050565b6000604082019050610d12600083018561087e565b610d1f6020830184610aea565b9392505050565b600081519050919050565b600081905092915050565b60005b83811015610d5a578082015181840152602081019050610d3f565b60008484015250505050565b6000610d7182610d26565b610d7b8185610d31565b9350610d8b818560208601610d3c565b80840191505092915050565b6000610da38284610d66565b915081905092915050565b60008115159050919050565b610dc381610dae565b8114610dce57600080fd5b50565b600081519050610de081610dba565b92915050565b600060208284031215610dfc57610dfb6106db565b5b6000610e0a84828501610dd1565b91505092915050565b7f45786368616e676541676772656761746f723a3a5472616e7366657248656c7060008201527f65723a73616665417070726f7665000000000000000000000000000000000000602082015250565b6000610e6f602e83610bee565b9150610e7a82610e13565b604082019050919050565b60006020820190508181036000830152610e9e81610e62565b9050919050565b6000606082019050610eba600083018661087e565b610ec7602083018561087e565b610ed46040830184610aea565b949350505050565b7f45786368616e676541676772656761746f723a3a5472616e7366657248656c7060008201527f65723a736166655472616e7366657246726f6d00000000000000000000000000602082015250565b6000610f38603383610bee565b9150610f4382610edc565b604082019050919050565b60006020820190508181036000830152610f6781610f2b565b905091905056fea264697066735822122072cac91294b4bc62cde6099b13df80e332f33bf9602b15f4e3f72ecffe545e8964736f6c63430008120033",
					"opcodes": "PUSH1 0x80 PUSH1 0x40 MSTORE PUSH32 0xFFFFFFFFFFFFFFFFFFFFFFFFFFFFFFFFFFFFFFFFFFFFFFFFFFFFFFFFFFFFFFFF PUSH1 0x1 SSTORE CALLVALUE DUP1 ISZERO PUSH3 0x35 JUMPI PUSH1 0x0 DUP1 REVERT JUMPDEST POP PUSH1 0x40 MLOAD PUSH3 0x11DF CODESIZE SUB DUP1 PUSH3 0x11DF DUP4 CODECOPY DUP2 DUP2 ADD PUSH1 0x40 MSTORE DUP2 ADD SWAP1 PUSH3 0x5B SWAP2 SWAP1 PUSH3 0x1F9 JUMP JUMPDEST PUSH3 0x7B PUSH3 0x6F PUSH3 0xC3 PUSH1 0x20 SHL PUSH1 0x20 SHR JUMP JUMPDEST PUSH3 0xCB PUSH1 0x20 SHL PUSH1 0x20 SHR JUMP JUMPDEST DUP1 PUSH1 0x2 PUSH1 0x0 PUSH2 0x100 EXP DUP2 SLOAD DUP2 PUSH20 0xFFFFFFFFFFFFFFFFFFFFFFFFFFFFFFFFFFFFFFFF MUL NOT AND SWAP1 DUP4 PUSH20 0xFFFFFFFFFFFFFFFFFFFFFFFFFFFFFFFFFFFFFFFF AND MUL OR SWAP1 SSTORE POP POP PUSH3 0x22B JUMP JUMPDEST PUSH1 0x0 CALLER SWAP1 POP SWAP1 JUMP JUMPDEST PUSH1 0x0 DUP1 PUSH1 0x0 SWAP1 SLOAD SWAP1 PUSH2 0x100 EXP SWAP1 DIV PUSH20 0xFFFFFFFFFFFFFFFFFFFFFFFFFFFFFFFFFFFFFFFF AND SWAP1 POP DUP2 PUSH1 0x0 DUP1 PUSH2 0x100 EXP DUP2 SLOAD DUP2 PUSH20 0xFFFFFFFFFFFFFFFFFFFFFFFFFFFFFFFFFFFFFFFF MUL NOT AND SWAP1 DUP4 PUSH20 0xFFFFFFFFFFFFFFFFFFFFFFFFFFFFFFFFFFFFFFFF AND MUL OR SWAP1 SSTORE POP DUP2 PUSH20 0xFFFFFFFFFFFFFFFFFFFFFFFFFFFFFFFFFFFFFFFF AND DUP2 PUSH20 0xFFFFFFFFFFFFFFFFFFFFFFFFFFFFFFFFFFFFFFFF AND PUSH32 0x8BE0079C531659141344CD1FD0A4F28419497F9722A3DAAFE3B4186F6B6457E0 PUSH1 0x40 MLOAD PUSH1 0x40 MLOAD DUP1 SWAP2 SUB SWAP1 LOG3 POP POP JUMP JUMPDEST PUSH1 0x0 DUP1 REVERT JUMPDEST PUSH1 0x0 PUSH20 0xFFFFFFFFFFFFFFFFFFFFFFFFFFFFFFFFFFFFFFFF DUP3 AND SWAP1 POP SWAP2 SWAP1 POP JUMP JUMPDEST PUSH1 0x0 PUSH3 0x1C1 DUP3 PUSH3 0x194 JUMP JUMPDEST SWAP1 POP SWAP2 SWAP1 POP JUMP JUMPDEST PUSH3 0x1D3 DUP2 PUSH3 0x1B4 JUMP JUMPDEST DUP2 EQ PUSH3 0x1DF JUMPI PUSH1 0x0 DUP1 REVERT JUMPDEST POP JUMP JUMPDEST PUSH1 0x0 DUP2 MLOAD SWAP1 POP PUSH3 0x1F3 DUP2 PUSH3 0x1C8 JUMP JUMPDEST SWAP3 SWAP2 POP POP JUMP JUMPDEST PUSH1 0x0 PUSH1 0x20 DUP3 DUP5 SUB SLT ISZERO PUSH3 0x212 JUMPI PUSH3 0x211 PUSH3 0x18F JUMP JUMPDEST JUMPDEST PUSH1 0x0 PUSH3 0x222 DUP5 DUP3 DUP6 ADD PUSH3 0x1E2 JUMP JUMPDEST SWAP2 POP POP SWAP3 SWAP2 POP POP JUMP JUMPDEST PUSH2 0xFA4 DUP1 PUSH3 0x23B PUSH1 0x0 CODECOPY PUSH1 0x0 RETURN INVALID PUSH1 0x80 PUSH1 0x40 MSTORE PUSH1 0x4 CALLDATASIZE LT PUSH2 0x55 JUMPI PUSH1 0x0 CALLDATALOAD PUSH1 0xE0 SHR DUP1 PUSH4 0x3105B04 EQ PUSH2 0x5A JUMPI DUP1 PUSH4 0xA2FB374 EQ PUSH2 0x83 JUMPI DUP1 PUSH4 0x715018A6 EQ PUSH2 0x9F JUMPI DUP1 PUSH4 0x8DA5CB5B EQ PUSH2 0xB6 JUMPI DUP1 PUSH4 0xE78CEA92 EQ PUSH2 0xE1 JUMPI DUP1 PUSH4 0xF2FDE38B EQ PUSH2 0x10C JUMPI JUMPDEST PUSH1 0x0 DUP1 REVERT JUMPDEST CALLVALUE DUP1 ISZERO PUSH2 0x66 JUMPI PUSH1 0x0 DUP1 REVERT JUMPDEST POP PUSH2 0x81 PUSH1 0x4 DUP1 CALLDATASIZE SUB DUP2 ADD SWAP1 PUSH2 0x7C SWAP2 SWAP1 PUSH2 0x743 JUMP JUMPDEST PUSH2 0x135 JUMP JUMPDEST STOP JUMPDEST PUSH2 0x9D PUSH1 0x4 DUP1 CALLDATASIZE SUB DUP2 ADD SWAP1 PUSH2 0x98 SWAP2 SWAP1 PUSH2 0x81E JUMP JUMPDEST PUSH2 0x14E JUMP JUMPDEST STOP JUMPDEST CALLVALUE DUP1 ISZERO PUSH2 0xAB JUMPI PUSH1 0x0 DUP1 REVERT JUMPDEST POP PUSH2 0xB4 PUSH2 0x232 JUMP JUMPDEST STOP JUMPDEST CALLVALUE DUP1 ISZERO PUSH2 0xC2 JUMPI PUSH1 0x0 DUP1 REVERT JUMPDEST POP PUSH2 0xCB PUSH2 0x246 JUMP JUMPDEST PUSH1 0x40 MLOAD PUSH2 0xD8 SWAP2 SWAP1 PUSH2 0x88D JUMP JUMPDEST PUSH1 0x40 MLOAD DUP1 SWAP2 SUB SWAP1 RETURN JUMPDEST CALLVALUE DUP1 ISZERO PUSH2 0xED JUMPI PUSH1 0x0 DUP1 REVERT JUMPDEST POP PUSH2 0xF6 PUSH2 0x26F JUMP JUMPDEST PUSH1 0x40 MLOAD PUSH2 0x103 SWAP2 SWAP1 PUSH2 0x88D JUMP JUMPDEST PUSH1 0x40 MLOAD DUP1 SWAP2 SUB SWAP1 RETURN JUMPDEST CALLVALUE DUP1 ISZERO PUSH2 0x118 JUMPI PUSH1 0x0 DUP1 REVERT JUMPDEST POP PUSH2 0x133 PUSH1 0x4 DUP1 CALLDATASIZE SUB DUP2 ADD SWAP1 PUSH2 0x12E SWAP2 SWAP1 PUSH2 0x8A8 JUMP JUMPDEST PUSH2 0x295 JUMP JUMPDEST STOP JUMPDEST PUSH2 0x13D PUSH2 0x318 JUMP JUMPDEST PUSH2 0x14A DUP3 DUP3 PUSH1 0x1 SLOAD PUSH2 0x396 JUMP JUMPDEST POP POP JUMP JUMPDEST PUSH1 0x0 DUP4 DUP4 DUP2 ADD SWAP1 PUSH2 0x15F SWAP2 SWAP1 PUSH2 0xAAE JUMP JUMPDEST SWAP1 POP PUSH1 0x0 DUP2 PUSH1 0x20 ADD MLOAD PUSH1 0x0 SHR SWAP1 POP PUSH2 0x179 DUP2 CALLER ADDRESS DUP7 PUSH2 0x4CC JUMP JUMPDEST PUSH1 0x2 PUSH1 0x0 SWAP1 SLOAD SWAP1 PUSH2 0x100 EXP SWAP1 DIV PUSH20 0xFFFFFFFFFFFFFFFFFFFFFFFFFFFFFFFFFFFFFFFF AND PUSH20 0xFFFFFFFFFFFFFFFFFFFFFFFFFFFFFFFFFFFFFFFF AND PUSH4 0xF35E37D3 CALLVALUE DUP5 PUSH1 0x20 ADD MLOAD DUP7 DUP7 PUSH1 0x40 ADD MLOAD DUP8 PUSH1 0x60 ADD MLOAD DUP9 PUSH1 0x80 ADD MLOAD DUP10 PUSH1 0xA0 ADD MLOAD DUP11 PUSH1 0xC0 ADD MLOAD PUSH1 0x40 MLOAD DUP10 PUSH4 0xFFFFFFFF AND PUSH1 0xE0 SHL DUP2 MSTORE PUSH1 0x4 ADD PUSH2 0x1F9 SWAP8 SWAP7 SWAP6 SWAP5 SWAP4 SWAP3 SWAP2 SWAP1 PUSH2 0xB7F JUMP JUMPDEST PUSH1 0x0 PUSH1 0x40 MLOAD DUP1 DUP4 SUB DUP2 DUP6 DUP9 DUP1 EXTCODESIZE ISZERO DUP1 ISZERO PUSH2 0x212 JUMPI PUSH1 0x0 DUP1 REVERT JUMPDEST POP GAS CALL ISZERO DUP1 ISZERO PUSH2 0x226 JUMPI RETURNDATASIZE PUSH1 0x0 DUP1 RETURNDATACOPY RETURNDATASIZE PUSH1 0x0 REVERT JUMPDEST POP POP POP POP POP POP POP POP POP POP JUMP JUMPDEST PUSH2 0x23A PUSH2 0x318 JUMP JUMPDEST PUSH2 0x244 PUSH1 0x0 PUSH2 0x605 JUMP JUMPDEST JUMP JUMPDEST PUSH1 0x0 DUP1 PUSH1 0x0 SWAP1 SLOAD SWAP1 PUSH2 0x100 EXP SWAP1 DIV PUSH20 0xFFFFFFFFFFFFFFFFFFFFFFFFFFFFFFFFFFFFFFFF AND SWAP1 POP SWAP1 JUMP JUMPDEST PUSH1 0x2 PUSH1 0x0 SWAP1 SLOAD SWAP1 PUSH2 0x100 EXP SWAP1 DIV PUSH20 0xFFFFFFFFFFFFFFFFFFFFFFFFFFFFFFFFFFFFFFFF AND DUP2 JUMP JUMPDEST PUSH2 0x29D PUSH2 0x318 JUMP JUMPDEST PUSH1 0x0 PUSH20 0xFFFFFFFFFFFFFFFFFFFFFFFFFFFFFFFFFFFFFFFF AND DUP2 PUSH20 0xFFFFFFFFFFFFFFFFFFFFFFFFFFFFFFFFFFFFFFFF AND SUB PUSH2 0x30C JUMPI PUSH1 0x40 MLOAD PUSH32 0x8C379A000000000000000000000000000000000000000000000000000000000 DUP2 MSTORE PUSH1 0x4 ADD PUSH2 0x303 SWAP1 PUSH2 0xC71 JUMP JUMPDEST PUSH1 0x40 MLOAD DUP1 SWAP2 SUB SWAP1 REVERT JUMPDEST PUSH2 0x315 DUP2 PUSH2 0x605 JUMP JUMPDEST POP JUMP JUMPDEST PUSH2 0x320 PUSH2 0x6C9 JUMP JUMPDEST PUSH20 0xFFFFFFFFFFFFFFFFFFFFFFFFFFFFFFFFFFFFFFFF AND PUSH2 0x33E PUSH2 0x246 JUMP JUMPDEST PUSH20 0xFFFFFFFFFFFFFFFFFFFFFFFFFFFFFFFFFFFFFFFF AND EQ PUSH2 0x394 JUMPI PUSH1 0x40 MLOAD PUSH32 0x8C379A000000000000000000000000000000000000000000000000000000000 DUP2 MSTORE PUSH1 0x4 ADD PUSH2 0x38B SWAP1 PUSH2 0xCDD JUMP JUMPDEST PUSH1 0x40 MLOAD DUP1 SWAP2 SUB SWAP1 REVERT JUMPDEST JUMP JUMPDEST PUSH1 0x0 DUP1 DUP5 PUSH20 0xFFFFFFFFFFFFFFFFFFFFFFFFFFFFFFFFFFFFFFFF AND PUSH4 0x95EA7B3 DUP6 DUP6 PUSH1 0x40 MLOAD PUSH1 0x24 ADD PUSH2 0x3C8 SWAP3 SWAP2 SWAP1 PUSH2 0xCFD JUMP JUMPDEST PUSH1 0x40 MLOAD PUSH1 0x20 DUP2 DUP4 SUB SUB DUP2 MSTORE SWAP1 PUSH1 0x40 MSTORE SWAP1 PUSH1 0xE0 SHL PUSH1 0x20 DUP3 ADD DUP1 MLOAD PUSH28 0xFFFFFFFFFFFFFFFFFFFFFFFFFFFFFFFFFFFFFFFFFFFFFFFFFFFFFFFF DUP4 DUP2 DUP4 AND OR DUP4 MSTORE POP POP POP POP PUSH1 0x40 MLOAD PUSH2 0x416 SWAP2 SWAP1 PUSH2 0xD97 JUMP JUMPDEST PUSH1 0x0 PUSH1 0x40 MLOAD DUP1 DUP4 SUB DUP2 PUSH1 0x0 DUP7 GAS CALL SWAP2 POP POP RETURNDATASIZE DUP1 PUSH1 0x0 DUP2 EQ PUSH2 0x453 JUMPI PUSH1 0x40 MLOAD SWAP2 POP PUSH1 0x1F NOT PUSH1 0x3F RETURNDATASIZE ADD AND DUP3 ADD PUSH1 0x40 MSTORE RETURNDATASIZE DUP3 MSTORE RETURNDATASIZE PUSH1 0x0 PUSH1 0x20 DUP5 ADD RETURNDATACOPY PUSH2 0x458 JUMP JUMPDEST PUSH1 0x60 SWAP2 POP JUMPDEST POP SWAP2 POP SWAP2 POP DUP2 DUP1 ISZERO PUSH2 0x486 JUMPI POP PUSH1 0x0 DUP2 MLOAD EQ DUP1 PUSH2 0x485 JUMPI POP DUP1 DUP1 PUSH1 0x20 ADD SWAP1 MLOAD DUP2 ADD SWAP1 PUSH2 0x484 SWAP2 SWAP1 PUSH2 0xDE6 JUMP JUMPDEST JUMPDEST JUMPDEST PUSH2 0x4C5 JUMPI PUSH1 0x40 MLOAD PUSH32 0x8C379A000000000000000000000000000000000000000000000000000000000 DUP2 MSTORE PUSH1 0x4 ADD PUSH2 0x4BC SWAP1 PUSH2 0xE85 JUMP JUMPDEST PUSH1 0x40 MLOAD DUP1 SWAP2 SUB SWAP1 REVERT JUMPDEST POP POP POP POP POP JUMP JUMPDEST PUSH1 0x0 DUP1 DUP6 PUSH20 0xFFFFFFFFFFFFFFFFFFFFFFFFFFFFFFFFFFFFFFFF AND PUSH4 0x23B872DD DUP7 DUP7 DUP7 PUSH1 0x40 MLOAD PUSH1 0x24 ADD PUSH2 0x500 SWAP4 SWAP3 SWAP2 SWAP1 PUSH2 0xEA5 JUMP JUMPDEST PUSH1 0x40 MLOAD PUSH1 0x20 DUP2 DUP4 SUB SUB DUP2 MSTORE SWAP1 PUSH1 0x40 MSTORE SWAP1 PUSH1 0xE0 SHL PUSH1 0x20 DUP3 ADD DUP1 MLOAD PUSH28 0xFFFFFFFFFFFFFFFFFFFFFFFFFFFFFFFFFFFFFFFFFFFFFFFFFFFFFFFF DUP4 DUP2 DUP4 AND OR DUP4 MSTORE POP POP POP POP PUSH1 0x40 MLOAD PUSH2 0x54E SWAP2 SWAP1 PUSH2 0xD97 JUMP JUMPDEST PUSH1 0x0 PUSH1 0x40 MLOAD DUP1 DUP4 SUB DUP2 PUSH1 0x0 DUP7 GAS CALL SWAP2 POP POP RETURNDATASIZE DUP1 PUSH1 0x0 DUP2 EQ PUSH2 0x58B JUMPI PUSH1 0x40 MLOAD SWAP2 POP PUSH1 0x1F NOT PUSH1 0x3F RETURNDATASIZE ADD AND DUP3 ADD PUSH1 0x40 MSTORE RETURNDATASIZE DUP3 MSTORE RETURNDATASIZE PUSH1 0x0 PUSH1 0x20 DUP5 ADD RETURNDATACOPY PUSH2 0x590 JUMP JUMPDEST PUSH1 0x60 SWAP2 POP JUMPDEST POP SWAP2 POP SWAP2 POP DUP2 DUP1 ISZERO PUSH2 0x5BE JUMPI POP PUSH1 0x0 DUP2 MLOAD EQ DUP1 PUSH2 0x5BD JUMPI POP DUP1 DUP1 PUSH1 0x20 ADD SWAP1 MLOAD DUP2 ADD SWAP1 PUSH2 0x5BC SWAP2 SWAP1 PUSH2 0xDE6 JUMP JUMPDEST JUMPDEST JUMPDEST PUSH2 0x5FD JUMPI PUSH1 0x40 MLOAD PUSH32 0x8C379A000000000000000000000000000000000000000000000000000000000 DUP2 MSTORE PUSH1 0x4 ADD PUSH2 0x5F4 SWAP1 PUSH2 0xF4E JUMP JUMPDEST PUSH1 0x40 MLOAD DUP1 SWAP2 SUB SWAP1 REVERT JUMPDEST POP POP POP POP POP POP JUMP JUMPDEST PUSH1 0x0 DUP1 PUSH1 0x0 SWAP1 SLOAD SWAP1 PUSH2 0x100 EXP SWAP1 DIV PUSH20 0xFFFFFFFFFFFFFFFFFFFFFFFFFFFFFFFFFFFFFFFF AND SWAP1 POP DUP2 PUSH1 0x0 DUP1 PUSH2 0x100 EXP DUP2 SLOAD DUP2 PUSH20 0xFFFFFFFFFFFFFFFFFFFFFFFFFFFFFFFFFFFFFFFF MUL NOT AND SWAP1 DUP4 PUSH20 0xFFFFFFFFFFFFFFFFFFFFFFFFFFFFFFFFFFFFFFFF AND MUL OR SWAP1 SSTORE POP DUP2 PUSH20 0xFFFFFFFFFFFFFFFFFFFFFFFFFFFFFFFFFFFFFFFF AND DUP2 PUSH20 0xFFFFFFFFFFFFFFFFFFFFFFFFFFFFFFFFFFFFFFFF AND PUSH32 0x8BE0079C531659141344CD1FD0A4F28419497F9722A3DAAFE3B4186F6B6457E0 PUSH1 0x40 MLOAD PUSH1 0x40 MLOAD DUP1 SWAP2 SUB SWAP1 LOG3 POP POP JUMP JUMPDEST PUSH1 0x0 CALLER SWAP1 POP SWAP1 JUMP JUMPDEST PUSH1 0x0 PUSH1 0x40 MLOAD SWAP1 POP SWAP1 JUMP JUMPDEST PUSH1 0x0 DUP1 REVERT JUMPDEST PUSH1 0x0 DUP1 REVERT JUMPDEST PUSH1 0x0 PUSH20 0xFFFFFFFFFFFFFFFFFFFFFFFFFFFFFFFFFFFFFFFF DUP3 AND SWAP1 POP SWAP2 SWAP1 POP JUMP JUMPDEST PUSH1 0x0 PUSH2 0x710 DUP3 PUSH2 0x6E5 JUMP JUMPDEST SWAP1 POP SWAP2 SWAP1 POP JUMP JUMPDEST PUSH2 0x720 DUP2 PUSH2 0x705 JUMP JUMPDEST DUP2 EQ PUSH2 0x72B JUMPI PUSH1 0x0 DUP1 REVERT JUMPDEST POP JUMP JUMPDEST PUSH1 0x0 DUP2 CALLDATALOAD SWAP1 POP PUSH2 0x73D DUP2 PUSH2 0x717 JUMP JUMPDEST SWAP3 SWAP2 POP POP JUMP JUMPDEST PUSH1 0x0 DUP1 PUSH1 0x40 DUP4 DUP6 SUB SLT ISZERO PUSH2 0x75A JUMPI PUSH2 0x759 PUSH2 0x6DB JUMP JUMPDEST JUMPDEST PUSH1 0x0 PUSH2 0x768 DUP6 DUP3 DUP7 ADD PUSH2 0x72E JUMP JUMPDEST SWAP3 POP POP PUSH1 0x20 PUSH2 0x779 DUP6 DUP3 DUP7 ADD PUSH2 0x72E JUMP JUMPDEST SWAP2 POP POP SWAP3 POP SWAP3 SWAP1 POP JUMP JUMPDEST PUSH1 0x0 DUP1 REVERT JUMPDEST PUSH1 0x0 DUP1 REVERT JUMPDEST PUSH1 0x0 DUP1 REVERT JUMPDEST PUSH1 0x0 DUP1 DUP4 PUSH1 0x1F DUP5 ADD SLT PUSH2 0x7A8 JUMPI PUSH2 0x7A7 PUSH2 0x783 JUMP JUMPDEST JUMPDEST DUP3 CALLDATALOAD SWAP1 POP PUSH8 0xFFFFFFFFFFFFFFFF DUP2 GT ISZERO PUSH2 0x7C5 JUMPI PUSH2 0x7C4 PUSH2 0x788 JUMP JUMPDEST JUMPDEST PUSH1 0x20 DUP4 ADD SWAP2 POP DUP4 PUSH1 0x1 DUP3 MUL DUP4 ADD GT ISZERO PUSH2 0x7E1 JUMPI PUSH2 0x7E0 PUSH2 0x78D JUMP JUMPDEST JUMPDEST SWAP3 POP SWAP3 SWAP1 POP JUMP JUMPDEST PUSH1 0x0 DUP2 SWAP1 POP SWAP2 SWAP1 POP JUMP JUMPDEST PUSH2 0x7FB DUP2 PUSH2 0x7E8 JUMP JUMPDEST DUP2 EQ PUSH2 0x806 JUMPI PUSH1 0x0 DUP1 REVERT JUMPDEST POP JUMP JUMPDEST PUSH1 0x0 DUP2 CALLDATALOAD SWAP1 POP PUSH2 0x818 DUP2 PUSH2 0x7F2 JUMP JUMPDEST SWAP3 SWAP2 POP POP JUMP JUMPDEST PUSH1 0x0 DUP1 PUSH1 0x0 PUSH1 0x40 DUP5 DUP7 SUB SLT ISZERO PUSH2 0x837 JUMPI PUSH2 0x836 PUSH2 0x6DB JUMP JUMPDEST JUMPDEST PUSH1 0x0 DUP5 ADD CALLDATALOAD PUSH8 0xFFFFFFFFFFFFFFFF DUP2 GT ISZERO PUSH2 0x855 JUMPI PUSH2 0x854 PUSH2 0x6E0 JUMP JUMPDEST JUMPDEST PUSH2 0x861 DUP7 DUP3 DUP8 ADD PUSH2 0x792 JUMP JUMPDEST SWAP4 POP SWAP4 POP POP PUSH1 0x20 PUSH2 0x874 DUP7 DUP3 DUP8 ADD PUSH2 0x809 JUMP JUMPDEST SWAP2 POP POP SWAP3 POP SWAP3 POP SWAP3 JUMP JUMPDEST PUSH2 0x887 DUP2 PUSH2 0x705 JUMP JUMPDEST DUP3 MSTORE POP POP JUMP JUMPDEST PUSH1 0x0 PUSH1 0x20 DUP3 ADD SWAP1 POP PUSH2 0x8A2 PUSH1 0x0 DUP4 ADD DUP5 PUSH2 0x87E JUMP JUMPDEST SWAP3 SWAP2 POP POP JUMP JUMPDEST PUSH1 0x0 PUSH1 0x20 DUP3 DUP5 SUB SLT ISZERO PUSH2 0x8BE JUMPI PUSH2 0x8BD PUSH2 0x6DB JUMP JUMPDEST JUMPDEST PUSH1 0x0 PUSH2 0x8CC DUP5 DUP3 DUP6 ADD PUSH2 0x72E JUMP JUMPDEST SWAP2 POP POP SWAP3 SWAP2 POP POP JUMP JUMPDEST PUSH1 0x0 DUP1 REVERT JUMPDEST PUSH1 0x0 PUSH1 0x1F NOT PUSH1 0x1F DUP4 ADD AND SWAP1 POP SWAP2 SWAP1 POP JUMP JUMPDEST PUSH32 0x4E487B7100000000000000000000000000000000000000000000000000000000 PUSH1 0x0 MSTORE PUSH1 0x41 PUSH1 0x4 MSTORE PUSH1 0x24 PUSH1 0x0 REVERT JUMPDEST PUSH2 0x923 DUP3 PUSH2 0x8DA JUMP JUMPDEST DUP2 ADD DUP2 DUP2 LT PUSH8 0xFFFFFFFFFFFFFFFF DUP3 GT OR ISZERO PUSH2 0x942 JUMPI PUSH2 0x941 PUSH2 0x8EB JUMP JUMPDEST JUMPDEST DUP1 PUSH1 0x40 MSTORE POP POP POP JUMP JUMPDEST PUSH1 0x0 PUSH2 0x955 PUSH2 0x6D1 JUMP JUMPDEST SWAP1 POP PUSH2 0x961 DUP3 DUP3 PUSH2 0x91A JUMP JUMPDEST SWAP2 SWAP1 POP JUMP JUMPDEST PUSH1 0x0 DUP2 SWAP1 POP SWAP2 SWAP1 POP JUMP JUMPDEST PUSH2 0x979 DUP2 PUSH2 0x966 JUMP JUMPDEST DUP2 EQ PUSH2 0x984 JUMPI PUSH1 0x0 DUP1 REVERT JUMPDEST POP JUMP JUMPDEST PUSH1 0x0 DUP2 CALLDATALOAD SWAP1 POP PUSH2 0x996 DUP2 PUSH2 0x970 JUMP JUMPDEST SWAP3 SWAP2 POP POP JUMP JUMPDEST PUSH1 0x0 PUSH1 0xFF DUP3 AND SWAP1 POP SWAP2 SWAP1 POP JUMP JUMPDEST PUSH2 0x9B2 DUP2 PUSH2 0x99C JUMP JUMPDEST DUP2 EQ PUSH2 0x9BD JUMPI PUSH1 0x0 DUP1 REVERT JUMPDEST POP JUMP JUMPDEST PUSH1 0x0 DUP2 CALLDATALOAD SWAP1 POP PUSH2 0x9CF DUP2 PUSH2 0x9A9 JUMP JUMPDEST SWAP3 SWAP2 POP POP JUMP JUMPDEST PUSH1 0x4 DUP2 LT PUSH2 0x9E2 JUMPI PUSH1 0x0 DUP1 REVERT JUMPDEST POP JUMP JUMPDEST PUSH1 0x0 DUP2 CALLDATALOAD SWAP1 POP PUSH2 0x9F4 DUP2 PUSH2 0x9D5 JUMP JUMPDEST SWAP3 SWAP2 POP POP JUMP JUMPDEST PUSH1 0x0 PUSH1 0xE0 DUP3 DUP5 SUB SLT ISZERO PUSH2 0xA10 JUMPI PUSH2 0xA0F PUSH2 0x8D5 JUMP JUMPDEST JUMPDEST PUSH2 0xA1A PUSH1 0xE0 PUSH2 0x94B JUMP JUMPDEST SWAP1 POP PUSH1 0x0 PUSH2 0xA2A DUP5 DUP3 DUP6 ADD PUSH2 0x809 JUMP JUMPDEST PUSH1 0x0 DUP4 ADD MSTORE POP PUSH1 0x20 PUSH2 0xA3E DUP5 DUP3 DUP6 ADD PUSH2 0x987 JUMP JUMPDEST PUSH1 0x20 DUP4 ADD MSTORE POP PUSH1 0x40 PUSH2 0xA52 DUP5 DUP3 DUP6 ADD PUSH2 0x987 JUMP JUMPDEST PUSH1 0x40 DUP4 ADD MSTORE POP PUSH1 0x60 PUSH2 0xA66 DUP5 DUP3 DUP6 ADD PUSH2 0x9C0 JUMP JUMPDEST PUSH1 0x60 DUP4 ADD MSTORE POP PUSH1 0x80 PUSH2 0xA7A DUP5 DUP3 DUP6 ADD PUSH2 0x987 JUMP JUMPDEST PUSH1 0x80 DUP4 ADD MSTORE POP PUSH1 0xA0 PUSH2 0xA8E DUP5 DUP3 DUP6 ADD PUSH2 0x809 JUMP JUMPDEST PUSH1 0xA0 DUP4 ADD MSTORE POP PUSH1 0xC0 PUSH2 0xAA2 DUP5 DUP3 DUP6 ADD PUSH2 0x9E5 JUMP JUMPDEST PUSH1 0xC0 DUP4 ADD MSTORE POP SWAP3 SWAP2 POP POP JUMP JUMPDEST PUSH1 0x0 PUSH1 0xE0 DUP3 DUP5 SUB SLT ISZERO PUSH2 0xAC4 JUMPI PUSH2 0xAC3 PUSH2 0x6DB JUMP JUMPDEST JUMPDEST PUSH1 0x0 PUSH2 0xAD2 DUP5 DUP3 DUP6 ADD PUSH2 0x9FA JUMP JUMPDEST SWAP2 POP POP SWAP3 SWAP2 POP POP JUMP JUMPDEST PUSH2 0xAE4 DUP2 PUSH2 0x966 JUMP JUMPDEST DUP3 MSTORE POP POP JUMP JUMPDEST PUSH2 0xAF3 DUP2 PUSH2 0x7E8 JUMP JUMPDEST DUP3 MSTORE POP POP JUMP JUMPDEST PUSH2 0xB02 DUP2 PUSH2 0x99C JUMP JUMPDEST DUP3 MSTORE POP POP JUMP JUMPDEST PUSH32 0x4E487B7100000000000000000000000000000000000000000000000000000000 PUSH1 0x0 MSTORE PUSH1 0x21 PUSH1 0x4 MSTORE PUSH1 0x24 PUSH1 0x0 REVERT JUMPDEST PUSH1 0x4 DUP2 LT PUSH2 0xB48 JUMPI PUSH2 0xB47 PUSH2 0xB08 JUMP JUMPDEST JUMPDEST POP JUMP JUMPDEST PUSH1 0x0 DUP2 SWAP1 POP PUSH2 0xB59 DUP3 PUSH2 0xB37 JUMP JUMPDEST SWAP2 SWAP1 POP JUMP JUMPDEST PUSH1 0x0 PUSH2 0xB69 DUP3 PUSH2 0xB4B JUMP JUMPDEST SWAP1 POP SWAP2 SWAP1 POP JUMP JUMPDEST PUSH2 0xB79 DUP2 PUSH2 0xB5E JUMP JUMPDEST DUP3 MSTORE POP POP JUMP JUMPDEST PUSH1 0x0 PUSH1 0xE0 DUP3 ADD SWAP1 POP PUSH2 0xB94 PUSH1 0x0 DUP4 ADD DUP11 PUSH2 0xADB JUMP JUMPDEST PUSH2 0xBA1 PUSH1 0x20 DUP4 ADD DUP10 PUSH2 0xAEA JUMP JUMPDEST PUSH2 0xBAE PUSH1 0x40 DUP4 ADD DUP9 PUSH2 0xADB JUMP JUMPDEST PUSH2 0xBBB PUSH1 0x60 DUP4 ADD DUP8 PUSH2 0xAF9 JUMP JUMPDEST PUSH2 0xBC8 PUSH1 0x80 DUP4 ADD DUP7 PUSH2 0xADB JUMP JUMPDEST PUSH2 0xBD5 PUSH1 0xA0 DUP4 ADD DUP6 PUSH2 0xAEA JUMP JUMPDEST PUSH2 0xBE2 PUSH1 0xC0 DUP4 ADD DUP5 PUSH2 0xB70 JUMP JUMPDEST SWAP9 SWAP8 POP POP POP POP POP POP POP POP JUMP JUMPDEST PUSH1 0x0 DUP3 DUP3 MSTORE PUSH1 0x20 DUP3 ADD SWAP1 POP SWAP3 SWAP2 POP POP JUMP JUMPDEST PUSH32 0x4F776E61626C653A206E6577206F776E657220697320746865207A65726F2061 PUSH1 0x0 DUP3 ADD MSTORE PUSH32 0x6464726573730000000000000000000000000000000000000000000000000000 PUSH1 0x20 DUP3 ADD MSTORE POP JUMP JUMPDEST PUSH1 0x0 PUSH2 0xC5B PUSH1 0x26 DUP4 PUSH2 0xBEE JUMP JUMPDEST SWAP2 POP PUSH2 0xC66 DUP3 PUSH2 0xBFF JUMP JUMPDEST PUSH1 0x40 DUP3 ADD SWAP1 POP SWAP2 SWAP1 POP JUMP JUMPDEST PUSH1 0x0 PUSH1 0x20 DUP3 ADD SWAP1 POP DUP2 DUP2 SUB PUSH1 0x0 DUP4 ADD MSTORE PUSH2 0xC8A DUP2 PUSH2 0xC4E JUMP JUMPDEST SWAP1 POP SWAP2 SWAP1 POP JUMP JUMPDEST PUSH32 0x4F776E61626C653A2063616C6C6572206973206E6F7420746865206F776E6572 PUSH1 0x0 DUP3 ADD MSTORE POP JUMP JUMPDEST PUSH1 0x0 PUSH2 0xCC7 PUSH1 0x20 DUP4 PUSH2 0xBEE JUMP JUMPDEST SWAP2 POP PUSH2 0xCD2 DUP3 PUSH2 0xC91 JUMP JUMPDEST PUSH1 0x20 DUP3 ADD SWAP1 POP SWAP2 SWAP1 POP JUMP JUMPDEST PUSH1 0x0 PUSH1 0x20 DUP3 ADD SWAP1 POP DUP2 DUP2 SUB PUSH1 0x0 DUP4 ADD MSTORE PUSH2 0xCF6 DUP2 PUSH2 0xCBA JUMP JUMPDEST SWAP1 POP SWAP2 SWAP1 POP JUMP JUMPDEST PUSH1 0x0 PUSH1 0x40 DUP3 ADD SWAP1 POP PUSH2 0xD12 PUSH1 0x0 DUP4 ADD DUP6 PUSH2 0x87E JUMP JUMPDEST PUSH2 0xD1F PUSH1 0x20 DUP4 ADD DUP5 PUSH2 0xAEA JUMP JUMPDEST SWAP4 SWAP3 POP POP POP JUMP JUMPDEST PUSH1 0x0 DUP2 MLOAD SWAP1 POP SWAP2 SWAP1 POP JUMP JUMPDEST PUSH1 0x0 DUP2 SWAP1 POP SWAP3 SWAP2 POP POP JUMP JUMPDEST PUSH1 0x0 JUMPDEST DUP4 DUP2 LT ISZERO PUSH2 0xD5A JUMPI DUP1 DUP3 ADD MLOAD DUP2 DUP5 ADD MSTORE PUSH1 0x20 DUP2 ADD SWAP1 POP PUSH2 0xD3F JUMP JUMPDEST PUSH1 0x0 DUP5 DUP5 ADD MSTORE POP POP POP POP JUMP JUMPDEST PUSH1 0x0 PUSH2 0xD71 DUP3 PUSH2 0xD26 JUMP JUMPDEST PUSH2 0xD7B DUP2 DUP6 PUSH2 0xD31 JUMP JUMPDEST SWAP4 POP PUSH2 0xD8B DUP2 DUP6 PUSH1 0x20 DUP7 ADD PUSH2 0xD3C JUMP JUMPDEST DUP1 DUP5 ADD SWAP2 POP POP SWAP3 SWAP2 POP POP JUMP JUMPDEST PUSH1 0x0 PUSH2 0xDA3 DUP3 DUP5 PUSH2 0xD66 JUMP JUMPDEST SWAP2 POP DUP2 SWAP1 POP SWAP3 SWAP2 POP POP JUMP JUMPDEST PUSH1 0x0 DUP2 ISZERO ISZERO SWAP1 POP SWAP2 SWAP1 POP JUMP JUMPDEST PUSH2 0xDC3 DUP2 PUSH2 0xDAE JUMP JUMPDEST DUP2 EQ PUSH2 0xDCE JUMPI PUSH1 0x0 DUP1 REVERT JUMPDEST POP JUMP JUMPDEST PUSH1 0x0 DUP2 MLOAD SWAP1 POP PUSH2 0xDE0 DUP2 PUSH2 0xDBA JUMP JUMPDEST SWAP3 SWAP2 POP POP JUMP JUMPDEST PUSH1 0x0 PUSH1 0x20 DUP3 DUP5 SUB SLT ISZERO PUSH2 0xDFC JUMPI PUSH2 0xDFB PUSH2 0x6DB JUMP JUMPDEST JUMPDEST PUSH1 0x0 PUSH2 0xE0A DUP5 DUP3 DUP6 ADD PUSH2 0xDD1 JUMP JUMPDEST SWAP2 POP POP SWAP3 SWAP2 POP POP JUMP JUMPDEST PUSH32 0x45786368616E676541676772656761746F723A3A5472616E7366657248656C70 PUSH1 0x0 DUP3 ADD MSTORE PUSH32 0x65723A73616665417070726F7665000000000000000000000000000000000000 PUSH1 0x20 DUP3 ADD MSTORE POP JUMP JUMPDEST PUSH1 0x0 PUSH2 0xE6F PUSH1 0x2E DUP4 PUSH2 0xBEE JUMP JUMPDEST SWAP2 POP PUSH2 0xE7A DUP3 PUSH2 0xE13 JUMP JUMPDEST PUSH1 0x40 DUP3 ADD SWAP1 POP SWAP2 SWAP1 POP JUMP JUMPDEST PUSH1 0x0 PUSH1 0x20 DUP3 ADD SWAP1 POP DUP2 DUP2 SUB PUSH1 0x0 DUP4 ADD MSTORE PUSH2 0xE9E DUP2 PUSH2 0xE62 JUMP JUMPDEST SWAP1 POP SWAP2 SWAP1 POP JUMP JUMPDEST PUSH1 0x0 PUSH1 0x60 DUP3 ADD SWAP1 POP PUSH2 0xEBA PUSH1 0x0 DUP4 ADD DUP7 PUSH2 0x87E JUMP JUMPDEST PUSH2 0xEC7 PUSH1 0x20 DUP4 ADD DUP6 PUSH2 0x87E JUMP JUMPDEST PUSH2 0xED4 PUSH1 0x40 DUP4 ADD DUP5 PUSH2 0xAEA JUMP JUMPDEST SWAP5 SWAP4 POP POP POP POP JUMP JUMPDEST PUSH32 0x45786368616E676541676772656761746F723A3A5472616E7366657248656C70 PUSH1 0x0 DUP3 ADD MSTORE PUSH32 0x65723A736166655472616E7366657246726F6D00000000000000000000000000 PUSH1 0x20 DUP3 ADD MSTORE POP JUMP JUMPDEST PUSH1 0x0 PUSH2 0xF38 PUSH1 0x33 DUP4 PUSH2 0xBEE JUMP JUMPDEST SWAP2 POP PUSH2 0xF43 DUP3 PUSH2 0xEDC JUMP JUMPDEST PUSH1 0x40 DUP3 ADD SWAP1 POP SWAP2 SWAP1 POP JUMP JUMPDEST PUSH1 0x0 PUSH1 0x20 DUP3 ADD SWAP1 POP DUP2 DUP2 SUB PUSH1 0x0 DUP4 ADD MSTORE PUSH2 0xF67 DUP2 PUSH2 0xF2B JUMP JUMPDEST SWAP1 POP SWAP2 SWAP1 POP JUMP INVALID LOG2 PUSH5 0x6970667358 0x22 SLT KECCAK256 PUSH19 0xCAC91294B4BC62CDE6099B13DF80E332F33BF9 PUSH1 0x2B ISZERO DELEGATECALL 0xE3 0xF7 0x2E 0xCF INVALID SLOAD 0x5E DUP10 PUSH5 0x736F6C6343 STOP ADDMOD SLT STOP CALLER "
				},
				"gasEstimates": {
					"creation": {
						"codeDepositCost": "800800",
						"executionCost": "infinite",
						"totalCost": "infinite"
					},
					"external": {
						"Bridge(bytes,uint256)": "infinite",
						"approveToken(address,address)": "infinite",
						"bridge()": "2580",
						"owner()": "2566",
						"renounceOwnership()": "30420",
						"transferOwnership(address)": "30832"
					}
				},
				"methodIdentifiers": {
					"Bridge(bytes,uint256)": "0a2fb374",
					"approveToken(address,address)": "03105b04",
					"bridge()": "e78cea92",
					"owner()": "8da5cb5b",
					"renounceOwnership()": "715018a6",
					"transferOwnership(address)": "f2fde38b"
				}
			},
			"storageLayout": {
				"storage": [
					{
						"astId": 7,
						"contract": "contracts/allBridge.sol:ALLBridge",
						"label": "_owner",
						"offset": 0,
						"slot": "0",
						"type": "t_address"
					},
					{
						"astId": 171,
						"contract": "contracts/allBridge.sol:ALLBridge",
						"label": "MAX_INT",
						"offset": 0,
						"slot": "1",
						"type": "t_uint256"
					},
					{
						"astId": 173,
						"contract": "contracts/allBridge.sol:ALLBridge",
						"label": "bridge",
						"offset": 0,
						"slot": "2",
						"type": "t_address"
					}
				],
				"types": {
					"t_address": {
						"encoding": "inplace",
						"label": "address",
						"numberOfBytes": "20"
					},
					"t_uint256": {
						"encoding": "inplace",
						"label": "uint256",
						"numberOfBytes": "32"
					}
				}
			},
			"userdoc": {
				"kind": "user",
				"methods": {},
				"version": 1
			}
		}
	}
}