{
	"data": {
		"bytecode": {
			"linkReferences": {},
			"object": "60806040523480156200001157600080fd5b5062000032620000266200007960201b60201c565b6200008160201b60201c565b33600160006101000a81548173ffffffffffffffffffffffffffffffffffffffff021916908373ffffffffffffffffffffffffffffffffffffffff16021790555062000145565b600033905090565b60008060009054906101000a900473ffffffffffffffffffffffffffffffffffffffff169050816000806101000a81548173ffffffffffffffffffffffffffffffffffffffff021916908373ffffffffffffffffffffffffffffffffffffffff1602179055508173ffffffffffffffffffffffffffffffffffffffff168173ffffffffffffffffffffffffffffffffffffffff167f8be0079c531659141344cd1fd0a4f28419497f9722a3daafe3b4186f6b6457e060405160405180910390a35050565b61329d80620001556000396000f3fe6080604052600436106100e15760003560e01c80638da5cb5b1161007f578063ac9650d811610059578063ac9650d81461027d578063ddd0fcd5146102ad578063f2fde38b146102d6578063f61db740146102ff576100e8565b80638da5cb5b146101eb5780639b1bfa7f14610216578063a299ed7d1461023f576100e8565b80633f464ff5116100bb5780633f464ff514610180578063566e45b11461019c5780635cedfda0146101b8578063715018a6146101d4576100e8565b806322cedf7d146100ed578063231da50d14610118578063239fcf0f14610143576100e8565b366100e857005b600080fd5b3480156100f957600080fd5b5061010261032a565b60405161010f9190611aff565b60405180910390f35b34801561012457600080fd5b5061012d610330565b60405161013a9190611aff565b60405180910390f35b34801561014f57600080fd5b5061016a60048036038101906101659190611b8c565b610338565b6040516101779190611aff565b60405180910390f35b61019a60048036038101906101959190611c43565b6103bb565b005b6101b660048036038101906101b19190611ceb565b6108b0565b005b6101d260048036038101906101cd9190611d4b565b6108c6565b005b3480156101e057600080fd5b506101e9610c2c565b005b3480156101f757600080fd5b50610200610c40565b60405161020d9190611dd6565b60405180910390f35b34801561022257600080fd5b5061023d60048036038101906102389190611df1565b610c69565b005b34801561024b57600080fd5b5061026660048036038101906102619190611e7d565b610c81565b604051610274929190611f28565b60405180910390f35b61029760048036038101906102929190611fa7565b610d14565b6040516102a49190612146565b60405180910390f35b3480156102b957600080fd5b506102d460048036038101906102cf9190611b8c565b610eae565b005b3480156102e257600080fd5b506102fd60048036038101906102f89190611b8c565b610efa565b005b34801561030b57600080fd5b50610314610f7d565b6040516103219190611dd6565b60405180910390f35b60035481565b600047905090565b60008173ffffffffffffffffffffffffffffffffffffffff166370a08231306040518263ffffffff1660e01b81526004016103739190611dd6565b602060405180830381865afa158015610390573d6000803e3d6000fd5b505050506040513d601f19601f820116820180604052508101906103b4919061217d565b9050919050565b8181600282826040516103cf9291906121e9565b908152602001604051809103902060009054906101000a900460ff161561042b576040517f08c379a00000000000000000000000000000000000000000000000000000000081526004016104229061225f565b60405180910390fd5b3373ffffffffffffffffffffffffffffffffffffffff16856101000160208101906104569190611b8c565b73ffffffffffffffffffffffffffffffffffffffff16146104ac576040517f08c379a00000000000000000000000000000000000000000000000000000000081526004016104a3906122cb565b60405180910390fd5b6105216104b7610c40565b866040516020016104c8919061257d565b60405160208183030381529060405286868080601f016020809104026020016040519081016040528093929190818152602001838380828437600081840152601f19601f82011690508083019250505050505050610fa3565b600085610140016020810190610537919061259f565b6105fe578560a001602081019061054e919061259f565b610575576105748660000160208101906105689190611b8c565b3330896040013561110f565b5b6000866060013511156105c6576105c58660000160208101906105989190611b8c565b600160009054906101000a900473ffffffffffffffffffffffffffffffffffffffff168860600135611248565b5b6105f98660000160208101906105dc9190611b8c565b8760c00160208101906105ef9190611b8c565b886080013561137e565b61067d565b8560400135341015610645576040517f08c379a000000000000000000000000000000000000000000000000000000000815260040161063c90612618565b60405180910390fd5b610675600160009054906101000a900473ffffffffffffffffffffffffffffffffffffffff1687606001356114b4565b856080013590505b60008660200160208101906106929190611b8c565b73ffffffffffffffffffffffffffffffffffffffff166370a08231306040518263ffffffff1660e01b81526004016106ca9190611dd6565b602060405180830381865afa1580156106e7573d6000803e3d6000fd5b505050506040513d601f19601f8201168201806040525081019061070b919061217d565b905061077c8760c00160208101906107239190611b8c565b83898060e001906107349190612647565b8080601f016020809104026020016040519081016040528093929190818152602001838380828437600081840152601f19601f820116905080830192505050505050506115b4565b60008760200160208101906107919190611b8c565b73ffffffffffffffffffffffffffffffffffffffff166370a08231306040518263ffffffff1660e01b81526004016107c99190611dd6565b602060405180830381865afa1580156107e6573d6000803e3d6000fd5b505050506040513d601f19601f8201168201806040525081019061080a919061217d565b90508181111561082b57818161082091906126d9565b600381905550610834565b60006003819055505b6001600288886040516108489291906121e9565b908152602001604051809103902060006101000a81548160ff0219169083151502179055505050506001600283836040516108849291906121e9565b908152602001604051809103902060006101000a81548160ff0219169083151502179055505050505050565b6108b86116cb565b6108c282826114b4565b5050565b8181600282826040516108da9291906121e9565b908152602001604051809103902060009054906101000a900460ff1615610936576040517f08c379a000000000000000000000000000000000000000000000000000000000815260040161092d9061225f565b60405180910390fd5b3373ffffffffffffffffffffffffffffffffffffffff168560400160208101906109609190611b8c565b73ffffffffffffffffffffffffffffffffffffffff16146109b6576040517f08c379a00000000000000000000000000000000000000000000000000000000081526004016109ad906122cb565b60405180910390fd5b84606001353410156109fd576040517f08c379a00000000000000000000000000000000000000000000000000000000081526004016109f490612618565b60405180910390fd5b610a72610a08610c40565b86604051602001610a1991906127ff565b60405160208183030381529060405286868080601f016020809104026020016040519081016040528093929190818152602001838380828437600081840152601f19601f82011690508083019250505050505050610fa3565b6000856080016020810190610a87919061259f565b15610a9e5760035490506000600381905550610b28565b610acf866020016020810190610ab49190611b8c565b33308960c001358a60a00135610aca9190612821565b61110f565b60008660c001351115610b2057610b1f866020016020810190610af29190611b8c565b600160009054906101000a900473ffffffffffffffffffffffffffffffffffffffff168860c00135611248565b5b8560a0013590505b610b57866020016020810190610b3e9190611b8c565b876000016020810190610b519190611b8c565b8361137e565b856000016020810190610b6a9190611b8c565b73ffffffffffffffffffffffffffffffffffffffff16630a2fb3748760600135888060e00190610b9a9190612647565b856040518563ffffffff1660e01b8152600401610bb993929190612893565b6000604051808303818588803b158015610bd257600080fd5b505af1158015610be6573d6000803e3d6000fd5b505050505050600160028383604051610c009291906121e9565b908152602001604051809103902060006101000a81548160ff0219169083151502179055505050505050565b610c346116cb565b610c3e6000611749565b565b60008060009054906101000a900473ffffffffffffffffffffffffffffffffffffffff16905090565b610c716116cb565b610c7c838383611248565b505050565b6000808773ffffffffffffffffffffffffffffffffffffffff16636110358d88888888886040518663ffffffff1660e01b8152600401610cc59594939291906128d4565b6040805180830381865afa158015610ce1573d6000803e3d6000fd5b505050506040513d601f19601f82011682018060405250810190610d059190612953565b91509150965096945050505050565b60608282905067ffffffffffffffff811115610d3357610d32612993565b5b604051908082528060200260200182016040528015610d6657816020015b6060815260200190600190039081610d515790505b50905060005b83839050811015610ea7576000803073ffffffffffffffffffffffffffffffffffffffff16868685818110610da457610da36129c2565b5b9050602002810190610db69190612647565b604051610dc49291906121e9565b600060405180830381855af49150503d8060008114610dff576040519150601f19603f3d011682016040523d82523d6000602084013e610e04565b606091505b509150915081610e7357604481511015610e1d57600080fd5b60048101905080806020019051810190610e379190612ae3565b6040517f08c379a0000000000000000000000000000000000000000000000000000000008152600401610e6a9190612b70565b60405180910390fd5b80848481518110610e8757610e866129c2565b5b602002602001018190525050508080610e9f90612b92565b915050610d6c565b5092915050565b610eb66116cb565b80600160006101000a81548173ffffffffffffffffffffffffffffffffffffffff021916908373ffffffffffffffffffffffffffffffffffffffff16021790555050565b610f026116cb565b600073ffffffffffffffffffffffffffffffffffffffff168173ffffffffffffffffffffffffffffffffffffffff1603610f71576040517f08c379a0000000000000000000000000000000000000000000000000000000008152600401610f6890612c4c565b60405180910390fd5b610f7a81611749565b50565b600160009054906101000a900473ffffffffffffffffffffffffffffffffffffffff1681565b601b60f81b81604081518110610fbc57610fbb6129c2565b5b60200101907effffffffffffffffffffffffffffffffffffffffffffffffffffffffffffff1916908160001a9053508273ffffffffffffffffffffffffffffffffffffffff1661101d8261100f8561180d565b61181e90919063ffffffff16565b73ffffffffffffffffffffffffffffffffffffffff16031561110a57601c60f81b81604081518110611052576110516129c2565b5b60200101907effffffffffffffffffffffffffffffffffffffffffffffffffffffffffffff1916908160001a9053508273ffffffffffffffffffffffffffffffffffffffff166110b3826110a58561180d565b61181e90919063ffffffff16565b73ffffffffffffffffffffffffffffffffffffffff1614611109576040517f08c379a000000000000000000000000000000000000000000000000000000000815260040161110090612cb8565b60405180910390fd5b5b505050565b6000808573ffffffffffffffffffffffffffffffffffffffff166323b872dd86868660405160240161114393929190612cd8565b6040516020818303038152906040529060e01b6020820180517bffffffffffffffffffffffffffffffffffffffffffffffffffffffff83818316178352505050506040516111919190612d40565b6000604051808303816000865af19150503d80600081146111ce576040519150601f19603f3d011682016040523d82523d6000602084013e6111d3565b606091505b509150915081801561120157506000815114806112005750808060200190518101906111ff9190612d6c565b5b5b611240576040517f08c379a000000000000000000000000000000000000000000000000000000000815260040161123790612de5565b60405180910390fd5b505050505050565b6000808473ffffffffffffffffffffffffffffffffffffffff1663a9059cbb858560405160240161127a929190612e05565b6040516020818303038152906040529060e01b6020820180517bffffffffffffffffffffffffffffffffffffffffffffffffffffffff83818316178352505050506040516112c89190612d40565b6000604051808303816000865af19150503d8060008114611305576040519150601f19603f3d011682016040523d82523d6000602084013e61130a565b606091505b509150915081801561133857506000815114806113375750808060200190518101906113369190612d6c565b5b5b611377576040517f08c379a000000000000000000000000000000000000000000000000000000000815260040161136e90612e7a565b60405180910390fd5b5050505050565b6000808473ffffffffffffffffffffffffffffffffffffffff1663095ea7b385856040516024016113b0929190612e05565b6040516020818303038152906040529060e01b6020820180517bffffffffffffffffffffffffffffffffffffffffffffffffffffffff83818316178352505050506040516113fe9190612d40565b6000604051808303816000865af19150503d806000811461143b576040519150601f19603f3d011682016040523d82523d6000602084013e611440565b606091505b509150915081801561146e575060008151148061146d57508080602001905181019061146c9190612d6c565b5b5b6114ad576040517f08c379a00000000000000000000000000000000000000000000000000000000081526004016114a490612ee6565b60405180910390fd5b5050505050565b60008273ffffffffffffffffffffffffffffffffffffffff1682600067ffffffffffffffff8111156114e9576114e8612993565b5b6040519080825280601f01601f19166020018201604052801561151b5781602001600182028036833780820191505090505b506040516115299190612d40565b60006040518083038185875af1925050503d8060008114611566576040519150601f19603f3d011682016040523d82523d6000602084013e61156b565b606091505b50509050806115af576040517f08c379a00000000000000000000000000000000000000000000000000000000081526004016115a690612f52565b60405180910390fd5b505050565b6000808473ffffffffffffffffffffffffffffffffffffffff1684846040516115dd9190612d40565b60006040518083038185875af1925050503d806000811461161a576040519150601f19603f3d011682016040523d82523d6000602084013e61161f565b606091505b5091509150816116c45760448151101561166e576040517f08c379a000000000000000000000000000000000000000000000000000000000815260040161166590612fe4565b60405180910390fd5b600481019050808060200190518101906116889190612ae3565b6040517f08c379a00000000000000000000000000000000000000000000000000000000081526004016116bb9190612b70565b60405180910390fd5b5050505050565b6116d3611845565b73ffffffffffffffffffffffffffffffffffffffff166116f1610c40565b73ffffffffffffffffffffffffffffffffffffffff1614611747576040517f08c379a000000000000000000000000000000000000000000000000000000000815260040161173e90613050565b60405180910390fd5b565b60008060009054906101000a900473ffffffffffffffffffffffffffffffffffffffff169050816000806101000a81548173ffffffffffffffffffffffffffffffffffffffff021916908373ffffffffffffffffffffffffffffffffffffffff1602179055508173ffffffffffffffffffffffffffffffffffffffff168173ffffffffffffffffffffffffffffffffffffffff167f8be0079c531659141344cd1fd0a4f28419497f9722a3daafe3b4186f6b6457e060405160405180910390a35050565b600081805190602001209050919050565b600080600061182d858561184d565b9150915061183a8161189e565b819250505092915050565b600033905090565b600080604183510361188e5760008060006020860151925060408601519150606086015160001a905061188287828585611a04565b94509450505050611897565b60006002915091505b9250929050565b600060048111156118b2576118b1613070565b5b8160048111156118c5576118c4613070565b5b0315611a0157600160048111156118df576118de613070565b5b8160048111156118f2576118f1613070565b5b03611932576040517f08c379a0000000000000000000000000000000000000000000000000000000008152600401611929906130eb565b60405180910390fd5b6002600481111561194657611945613070565b5b81600481111561195957611958613070565b5b03611999576040517f08c379a000000000000000000000000000000000000000000000000000000000815260040161199090613157565b60405180910390fd5b600360048111156119ad576119ac613070565b5b8160048111156119c0576119bf613070565b5b03611a00576040517f08c379a00000000000000000000000000000000000000000000000000000000081526004016119f7906131e9565b60405180910390fd5b5b50565b6000807f7fffffffffffffffffffffffffffffff5d576e7357a4501ddfe92f46681b20a08360001c1115611a3f576000600391509150611add565b600060018787878760405160008152602001604052604051611a649493929190613222565b6020604051602081039080840390855afa158015611a86573d6000803e3d6000fd5b505050602060405103519050600073ffffffffffffffffffffffffffffffffffffffff168173ffffffffffffffffffffffffffffffffffffffff1603611ad457600060019250925050611add565b80600092509250505b94509492505050565b6000819050919050565b611af981611ae6565b82525050565b6000602082019050611b146000830184611af0565b92915050565b6000604051905090565b600080fd5b600080fd5b600073ffffffffffffffffffffffffffffffffffffffff82169050919050565b6000611b5982611b2e565b9050919050565b611b6981611b4e565b8114611b7457600080fd5b50565b600081359050611b8681611b60565b92915050565b600060208284031215611ba257611ba1611b24565b5b6000611bb084828501611b77565b91505092915050565b600080fd5b60006101608284031215611bd557611bd4611bb9565b5b81905092915050565b600080fd5b600080fd5b600080fd5b60008083601f840112611c0357611c02611bde565b5b8235905067ffffffffffffffff811115611c2057611c1f611be3565b5b602083019150836001820283011115611c3c57611c3b611be8565b5b9250929050565b600080600060408486031215611c5c57611c5b611b24565b5b600084013567ffffffffffffffff811115611c7a57611c79611b29565b5b611c8686828701611bbe565b935050602084013567ffffffffffffffff811115611ca757611ca6611b29565b5b611cb386828701611bed565b92509250509250925092565b611cc881611ae6565b8114611cd357600080fd5b50565b600081359050611ce581611cbf565b92915050565b60008060408385031215611d0257611d01611b24565b5b6000611d1085828601611b77565b9250506020611d2185828601611cd6565b9150509250929050565b60006101008284031215611d4257611d41611bb9565b5b81905092915050565b600080600060408486031215611d6457611d63611b24565b5b600084013567ffffffffffffffff811115611d8257611d81611b29565b5b611d8e86828701611d2b565b935050602084013567ffffffffffffffff811115611daf57611dae611b29565b5b611dbb86828701611bed565b92509250509250925092565b611dd081611b4e565b82525050565b6000602082019050611deb6000830184611dc7565b92915050565b600080600060608486031215611e0a57611e09611b24565b5b6000611e1886828701611b77565b9350506020611e2986828701611b77565b9250506040611e3a86828701611cd6565b9150509250925092565b600060ff82169050919050565b611e5a81611e44565b8114611e6557600080fd5b50565b600081359050611e7781611e51565b92915050565b60008060008060008060c08789031215611e9a57611e99611b24565b5b6000611ea889828a01611b77565b9650506020611eb989828a01611b77565b9550506040611eca89828a01611b77565b9450506060611edb89828a01611b77565b9350506080611eec89828a01611cd6565b92505060a0611efd89828a01611e68565b9150509295509295509295565b600062ffffff82169050919050565b611f2281611f0a565b82525050565b6000604082019050611f3d6000830185611af0565b611f4a6020830184611f19565b9392505050565b60008083601f840112611f6757611f66611bde565b5b8235905067ffffffffffffffff811115611f8457611f83611be3565b5b602083019150836020820283011115611fa057611f9f611be8565b5b9250929050565b60008060208385031215611fbe57611fbd611b24565b5b600083013567ffffffffffffffff811115611fdc57611fdb611b29565b5b611fe885828601611f51565b92509250509250929050565b600081519050919050565b600082825260208201905092915050565b6000819050602082019050919050565b600081519050919050565b600082825260208201905092915050565b60005b8381101561205a57808201518184015260208101905061203f565b60008484015250505050565b6000601f19601f8301169050919050565b600061208282612020565b61208c818561202b565b935061209c81856020860161203c565b6120a581612066565b840191505092915050565b60006120bc8383612077565b905092915050565b6000602082019050919050565b60006120dc82611ff4565b6120e68185611fff565b9350836020820285016120f885612010565b8060005b85811015612134578484038952815161211585826120b0565b9450612120836120c4565b925060208a019950506001810190506120fc565b50829750879550505050505092915050565b6000602082019050818103600083015261216081846120d1565b905092915050565b60008151905061217781611cbf565b92915050565b60006020828403121561219357612192611b24565b5b60006121a184828501612168565b91505092915050565b600081905092915050565b82818337600083830152505050565b60006121d083856121aa565b93506121dd8385846121b5565b82840190509392505050565b60006121f68284866121c4565b91508190509392505050565b600082825260208201905092915050565b7f746869732074784461746120616c72656164792070726f636573736564000000600082015250565b6000612249601d83612202565b915061225482612213565b602082019050919050565b600060208201905081810360008301526122788161223c565b9050919050565b7f696e76616c69642073656e646572000000000000000000000000000000000000600082015250565b60006122b5600e83612202565b91506122c08261227f565b602082019050919050565b600060208201905081810360008301526122e4816122a8565b9050919050565b60006122fa6020840184611b77565b905092915050565b61230b81611b4e565b82525050565b60006123206020840184611cd6565b905092915050565b61233181611ae6565b82525050565b60008115159050919050565b61234c81612337565b811461235757600080fd5b50565b60008135905061236981612343565b92915050565b600061237e602084018461235a565b905092915050565b61238f81612337565b82525050565b600080fd5b600080fd5b600080fd5b600080833560016020038436030381126123c1576123c061239f565b5b83810192508235915060208301925067ffffffffffffffff8211156123e9576123e8612395565b5b6001820236038313156123ff576123fe61239a565b5b509250929050565b6000612413838561202b565b93506124208385846121b5565b61242983612066565b840190509392505050565b6000610160830161244860008401846122eb565b6124556000860182612302565b5061246360208401846122eb565b6124706020860182612302565b5061247e6040840184612311565b61248b6040860182612328565b506124996060840184612311565b6124a66060860182612328565b506124b46080840184612311565b6124c16080860182612328565b506124cf60a084018461236f565b6124dc60a0860182612386565b506124ea60c08401846122eb565b6124f760c0860182612302565b5061250560e08401846123a4565b85830360e0870152612518838284612407565b9250505061252a6101008401846122eb565b612538610100860182612302565b506125476101208401846122eb565b612555610120860182612302565b5061256461014084018461236f565b612572610140860182612386565b508091505092915050565b600060208201905081810360008301526125978184612434565b905092915050565b6000602082840312156125b5576125b4611b24565b5b60006125c38482850161235a565b91505092915050565b7f696e73756666696369656e742076616c75650000000000000000000000000000600082015250565b6000612602601283612202565b915061260d826125cc565b602082019050919050565b60006020820190508181036000830152612631816125f5565b9050919050565b600080fd5b600080fd5b600080fd5b6000808335600160200384360303811261266457612663612638565b5b80840192508235915067ffffffffffffffff8211156126865761268561263d565b5b6020830192506001820236038313156126a2576126a1612642565b5b509250929050565b7f4e487b7100000000000000000000000000000000000000000000000000000000600052601160045260246000fd5b60006126e482611ae6565b91506126ef83611ae6565b9250828203905081811115612707576127066126aa565b5b92915050565b6000610100830161272160008401846122eb565b61272e6000860182612302565b5061273c60208401846122eb565b6127496020860182612302565b5061275760408401846122eb565b6127646040860182612302565b506127726060840184612311565b61277f6060860182612328565b5061278d608084018461236f565b61279a6080860182612386565b506127a860a0840184612311565b6127b560a0860182612328565b506127c360c0840184612311565b6127d060c0860182612328565b506127de60e08401846123a4565b85830360e08701526127f1838284612407565b925050508091505092915050565b60006020820190508181036000830152612819818461270d565b905092915050565b600061282c82611ae6565b915061283783611ae6565b925082820190508082111561284f5761284e6126aa565b5b92915050565b600082825260208201905092915050565b60006128728385612855565b935061287f8385846121b5565b61288883612066565b840190509392505050565b600060408201905081810360008301526128ae818587612866565b90506128bd6020830184611af0565b949350505050565b6128ce81611e44565b82525050565b600060a0820190506128e96000830188611dc7565b6128f66020830187611dc7565b6129036040830186611dc7565b6129106060830185611af0565b61291d60808301846128c5565b9695505050505050565b61293081611f0a565b811461293b57600080fd5b50565b60008151905061294d81612927565b92915050565b6000806040838503121561296a57612969611b24565b5b600061297885828601612168565b92505060206129898582860161293e565b9150509250929050565b7f4e487b7100000000000000000000000000000000000000000000000000000000600052604160045260246000fd5b7f4e487b7100000000000000000000000000000000000000000000000000000000600052603260045260246000fd5b600080fd5b6129ff82612066565b810181811067ffffffffffffffff82111715612a1e57612a1d612993565b5b80604052505050565b6000612a31611b1a565b9050612a3d82826129f6565b919050565b600067ffffffffffffffff821115612a5d57612a5c612993565b5b612a6682612066565b9050602081019050919050565b6000612a86612a8184612a42565b612a27565b905082815260208101848484011115612aa257612aa16129f1565b5b612aad84828561203c565b509392505050565b600082601f830112612aca57612ac9611bde565b5b8151612ada848260208601612a73565b91505092915050565b600060208284031215612af957612af8611b24565b5b600082015167ffffffffffffffff811115612b1757612b16611b29565b5b612b2384828501612ab5565b91505092915050565b600081519050919050565b6000612b4282612b2c565b612b4c8185612202565b9350612b5c81856020860161203c565b612b6581612066565b840191505092915050565b60006020820190508181036000830152612b8a8184612b37565b905092915050565b6000612b9d82611ae6565b91507fffffffffffffffffffffffffffffffffffffffffffffffffffffffffffffffff8203612bcf57612bce6126aa565b5b600182019050919050565b7f4f776e61626c653a206e6577206f776e657220697320746865207a65726f206160008201527f6464726573730000000000000000000000000000000000000000000000000000602082015250565b6000612c36602683612202565b9150612c4182612bda565b604082019050919050565b60006020820190508181036000830152612c6581612c29565b9050919050565b7f646174612074616d706572656400000000000000000000000000000000000000600082015250565b6000612ca2600d83612202565b9150612cad82612c6c565b602082019050919050565b60006020820190508181036000830152612cd181612c95565b9050919050565b6000606082019050612ced6000830186611dc7565b612cfa6020830185611dc7565b612d076040830184611af0565b949350505050565b6000612d1a82612020565b612d2481856121aa565b9350612d3481856020860161203c565b80840191505092915050565b6000612d4c8284612d0f565b915081905092915050565b600081519050612d6681612343565b92915050565b600060208284031215612d8257612d81611b24565b5b6000612d9084828501612d57565b91505092915050565b7f5472616e7366657248656c7065723a736166655472616e7366657246726f6d00600082015250565b6000612dcf601f83612202565b9150612dda82612d99565b602082019050919050565b60006020820190508181036000830152612dfe81612dc2565b9050919050565b6000604082019050612e1a6000830185611dc7565b612e276020830184611af0565b9392505050565b7f5472616e7366657248656c7065723a736166655472616e736665720000000000600082015250565b6000612e64601b83612202565b9150612e6f82612e2e565b602082019050919050565b60006020820190508181036000830152612e9381612e57565b9050919050565b7f5472616e7366657248656c7065723a73616665417070726f7665000000000000600082015250565b6000612ed0601a83612202565b9150612edb82612e9a565b602082019050919050565b60006020820190508181036000830152612eff81612ec3565b9050919050565b7f5472616e7366657248656c7065723a736166655472616e736665724554480000600082015250565b6000612f3c601e83612202565b9150612f4782612f06565b602082019050919050565b60006020820190508181036000830152612f6b81612f2f565b9050919050565b7f45786368616e676541676772656761746f723a3a5361666543616c6c65723a7360008201527f61666543616c6c00000000000000000000000000000000000000000000000000602082015250565b6000612fce602783612202565b9150612fd982612f72565b604082019050919050565b60006020820190508181036000830152612ffd81612fc1565b9050919050565b7f4f776e61626c653a2063616c6c6572206973206e6f7420746865206f776e6572600082015250565b600061303a602083612202565b915061304582613004565b602082019050919050565b600060208201905081810360008301526130698161302d565b9050919050565b7f4e487b7100000000000000000000000000000000000000000000000000000000600052602160045260246000fd5b7f45434453413a20696e76616c6964207369676e61747572650000000000000000600082015250565b60006130d5601883612202565b91506130e08261309f565b602082019050919050565b60006020820190508181036000830152613104816130c8565b9050919050565b7f45434453413a20696e76616c6964207369676e6174757265206c656e67746800600082015250565b6000613141601f83612202565b915061314c8261310b565b602082019050919050565b6000602082019050818103600083015261317081613134565b9050919050565b7f45434453413a20696e76616c6964207369676e6174757265202773272076616c60008201527f7565000000000000000000000000000000000000000000000000000000000000602082015250565b60006131d3602283612202565b91506131de82613177565b604082019050919050565b60006020820190508181036000830152613202816131c6565b9050919050565b6000819050919050565b61321c81613209565b82525050565b60006080820190506132376000830187613213565b61324460208301866128c5565b6132516040830185613213565b61325e6060830184613213565b9594505050505056fea26469706673582212201a253159ed8869166abce26424f79daa464c684fdd7ba915238ad83d57b0c52164736f6c63430008120033",
			"opcodes": "PUSH1 0x80 PUSH1 0x40 MSTORE CALLVALUE DUP1 ISZERO PUSH3 0x11 JUMPI PUSH1 0x0 DUP1 REVERT JUMPDEST POP PUSH3 0x32 PUSH3 0x26 PUSH3 0x79 PUSH1 0x20 SHL PUSH1 0x20 SHR JUMP JUMPDEST PUSH3 0x81 PUSH1 0x20 SHL PUSH1 0x20 SHR JUMP JUMPDEST CALLER PUSH1 0x1 PUSH1 0x0 PUSH2 0x100 EXP DUP2 SLOAD DUP2 PUSH20 0xFFFFFFFFFFFFFFFFFFFFFFFFFFFFFFFFFFFFFFFF MUL NOT AND SWAP1 DUP4 PUSH20 0xFFFFFFFFFFFFFFFFFFFFFFFFFFFFFFFFFFFFFFFF AND MUL OR SWAP1 SSTORE POP PUSH3 0x145 JUMP JUMPDEST PUSH1 0x0 CALLER SWAP1 POP SWAP1 JUMP JUMPDEST PUSH1 0x0 DUP1 PUSH1 0x0 SWAP1 SLOAD SWAP1 PUSH2 0x100 EXP SWAP1 DIV PUSH20 0xFFFFFFFFFFFFFFFFFFFFFFFFFFFFFFFFFFFFFFFF AND SWAP1 POP DUP2 PUSH1 0x0 DUP1 PUSH2 0x100 EXP DUP2 SLOAD DUP2 PUSH20 0xFFFFFFFFFFFFFFFFFFFFFFFFFFFFFFFFFFFFFFFF MUL NOT AND SWAP1 DUP4 PUSH20 0xFFFFFFFFFFFFFFFFFFFFFFFFFFFFFFFFFFFFFFFF AND MUL OR SWAP1 SSTORE POP DUP2 PUSH20 0xFFFFFFFFFFFFFFFFFFFFFFFFFFFFFFFFFFFFFFFF AND DUP2 PUSH20 0xFFFFFFFFFFFFFFFFFFFFFFFFFFFFFFFFFFFFFFFF AND PUSH32 0x8BE0079C531659141344CD1FD0A4F28419497F9722A3DAAFE3B4186F6B6457E0 PUSH1 0x40 MLOAD PUSH1 0x40 MLOAD DUP1 SWAP2 SUB SWAP1 LOG3 POP POP JUMP JUMPDEST PUSH2 0x329D DUP1 PUSH3 0x155 PUSH1 0x0 CODECOPY PUSH1 0x0 RETURN INVALID PUSH1 0x80 PUSH1 0x40 MSTORE PUSH1 0x4 CALLDATASIZE LT PUSH2 0xE1 JUMPI PUSH1 0x0 CALLDATALOAD PUSH1 0xE0 SHR DUP1 PUSH4 0x8DA5CB5B GT PUSH2 0x7F JUMPI DUP1 PUSH4 0xAC9650D8 GT PUSH2 0x59 JUMPI DUP1 PUSH4 0xAC9650D8 EQ PUSH2 0x27D JUMPI DUP1 PUSH4 0xDDD0FCD5 EQ PUSH2 0x2AD JUMPI DUP1 PUSH4 0xF2FDE38B EQ PUSH2 0x2D6 JUMPI DUP1 PUSH4 0xF61DB740 EQ PUSH2 0x2FF JUMPI PUSH2 0xE8 JUMP JUMPDEST DUP1 PUSH4 0x8DA5CB5B EQ PUSH2 0x1EB JUMPI DUP1 PUSH4 0x9B1BFA7F EQ PUSH2 0x216 JUMPI DUP1 PUSH4 0xA299ED7D EQ PUSH2 0x23F JUMPI PUSH2 0xE8 JUMP JUMPDEST DUP1 PUSH4 0x3F464FF5 GT PUSH2 0xBB JUMPI DUP1 PUSH4 0x3F464FF5 EQ PUSH2 0x180 JUMPI DUP1 PUSH4 0x566E45B1 EQ PUSH2 0x19C JUMPI DUP1 PUSH4 0x5CEDFDA0 EQ PUSH2 0x1B8 JUMPI DUP1 PUSH4 0x715018A6 EQ PUSH2 0x1D4 JUMPI PUSH2 0xE8 JUMP JUMPDEST DUP1 PUSH4 0x22CEDF7D EQ PUSH2 0xED JUMPI DUP1 PUSH4 0x231DA50D EQ PUSH2 0x118 JUMPI DUP1 PUSH4 0x239FCF0F EQ PUSH2 0x143 JUMPI PUSH2 0xE8 JUMP JUMPDEST CALLDATASIZE PUSH2 0xE8 JUMPI STOP JUMPDEST PUSH1 0x0 DUP1 REVERT JUMPDEST CALLVALUE DUP1 ISZERO PUSH2 0xF9 JUMPI PUSH1 0x0 DUP1 REVERT JUMPDEST POP PUSH2 0x102 PUSH2 0x32A JUMP JUMPDEST PUSH1 0x40 MLOAD PUSH2 0x10F SWAP2 SWAP1 PUSH2 0x1AFF JUMP JUMPDEST PUSH1 0x40 MLOAD DUP1 SWAP2 SUB SWAP1 RETURN JUMPDEST CALLVALUE DUP1 ISZERO PUSH2 0x124 JUMPI PUSH1 0x0 DUP1 REVERT JUMPDEST POP PUSH2 0x12D PUSH2 0x330 JUMP JUMPDEST PUSH1 0x40 MLOAD PUSH2 0x13A SWAP2 SWAP1 PUSH2 0x1AFF JUMP JUMPDEST PUSH1 0x40 MLOAD DUP1 SWAP2 SUB SWAP1 RETURN JUMPDEST CALLVALUE DUP1 ISZERO PUSH2 0x14F JUMPI PUSH1 0x0 DUP1 REVERT JUMPDEST POP PUSH2 0x16A PUSH1 0x4 DUP1 CALLDATASIZE SUB DUP2 ADD SWAP1 PUSH2 0x165 SWAP2 SWAP1 PUSH2 0x1B8C JUMP JUMPDEST PUSH2 0x338 JUMP JUMPDEST PUSH1 0x40 MLOAD PUSH2 0x177 SWAP2 SWAP1 PUSH2 0x1AFF JUMP JUMPDEST PUSH1 0x40 MLOAD DUP1 SWAP2 SUB SWAP1 RETURN JUMPDEST PUSH2 0x19A PUSH1 0x4 DUP1 CALLDATASIZE SUB DUP2 ADD SWAP1 PUSH2 0x195 SWAP2 SWAP1 PUSH2 0x1C43 JUMP JUMPDEST PUSH2 0x3BB JUMP JUMPDEST STOP JUMPDEST PUSH2 0x1B6 PUSH1 0x4 DUP1 CALLDATASIZE SUB DUP2 ADD SWAP1 PUSH2 0x1B1 SWAP2 SWAP1 PUSH2 0x1CEB JUMP JUMPDEST PUSH2 0x8B0 JUMP JUMPDEST STOP JUMPDEST PUSH2 0x1D2 PUSH1 0x4 DUP1 CALLDATASIZE SUB DUP2 ADD SWAP1 PUSH2 0x1CD SWAP2 SWAP1 PUSH2 0x1D4B JUMP JUMPDEST PUSH2 0x8C6 JUMP JUMPDEST STOP JUMPDEST CALLVALUE DUP1 ISZERO PUSH2 0x1E0 JUMPI PUSH1 0x0 DUP1 REVERT JUMPDEST POP PUSH2 0x1E9 PUSH2 0xC2C JUMP JUMPDEST STOP JUMPDEST CALLVALUE DUP1 ISZERO PUSH2 0x1F7 JUMPI PUSH1 0x0 DUP1 REVERT JUMPDEST POP PUSH2 0x200 PUSH2 0xC40 JUMP JUMPDEST PUSH1 0x40 MLOAD PUSH2 0x20D SWAP2 SWAP1 PUSH2 0x1DD6 JUMP JUMPDEST PUSH1 0x40 MLOAD DUP1 SWAP2 SUB SWAP1 RETURN JUMPDEST CALLVALUE DUP1 ISZERO PUSH2 0x222 JUMPI PUSH1 0x0 DUP1 REVERT JUMPDEST POP PUSH2 0x23D PUSH1 0x4 DUP1 CALLDATASIZE SUB DUP2 ADD SWAP1 PUSH2 0x238 SWAP2 SWAP1 PUSH2 0x1DF1 JUMP JUMPDEST PUSH2 0xC69 JUMP JUMPDEST STOP JUMPDEST CALLVALUE DUP1 ISZERO PUSH2 0x24B JUMPI PUSH1 0x0 DUP1 REVERT JUMPDEST POP PUSH2 0x266 PUSH1 0x4 DUP1 CALLDATASIZE SUB DUP2 ADD SWAP1 PUSH2 0x261 SWAP2 SWAP1 PUSH2 0x1E7D JUMP JUMPDEST PUSH2 0xC81 JUMP JUMPDEST PUSH1 0x40 MLOAD PUSH2 0x274 SWAP3 SWAP2 SWAP1 PUSH2 0x1F28 JUMP JUMPDEST PUSH1 0x40 MLOAD DUP1 SWAP2 SUB SWAP1 RETURN JUMPDEST PUSH2 0x297 PUSH1 0x4 DUP1 CALLDATASIZE SUB DUP2 ADD SWAP1 PUSH2 0x292 SWAP2 SWAP1 PUSH2 0x1FA7 JUMP JUMPDEST PUSH2 0xD14 JUMP JUMPDEST PUSH1 0x40 MLOAD PUSH2 0x2A4 SWAP2 SWAP1 PUSH2 0x2146 JUMP JUMPDEST PUSH1 0x40 MLOAD DUP1 SWAP2 SUB SWAP1 RETURN JUMPDEST CALLVALUE DUP1 ISZERO PUSH2 0x2B9 JUMPI PUSH1 0x0 DUP1 REVERT JUMPDEST POP PUSH2 0x2D4 PUSH1 0x4 DUP1 CALLDATASIZE SUB DUP2 ADD SWAP1 PUSH2 0x2CF SWAP2 SWAP1 PUSH2 0x1B8C JUMP JUMPDEST PUSH2 0xEAE JUMP JUMPDEST STOP JUMPDEST CALLVALUE DUP1 ISZERO PUSH2 0x2E2 JUMPI PUSH1 0x0 DUP1 REVERT JUMPDEST POP PUSH2 0x2FD PUSH1 0x4 DUP1 CALLDATASIZE SUB DUP2 ADD SWAP1 PUSH2 0x2F8 SWAP2 SWAP1 PUSH2 0x1B8C JUMP JUMPDEST PUSH2 0xEFA JUMP JUMPDEST STOP JUMPDEST CALLVALUE DUP1 ISZERO PUSH2 0x30B JUMPI PUSH1 0x0 DUP1 REVERT JUMPDEST POP PUSH2 0x314 PUSH2 0xF7D JUMP JUMPDEST PUSH1 0x40 MLOAD PUSH2 0x321 SWAP2 SWAP1 PUSH2 0x1DD6 JUMP JUMPDEST PUSH1 0x40 MLOAD DUP1 SWAP2 SUB SWAP1 RETURN JUMPDEST PUSH1 0x3 SLOAD DUP2 JUMP JUMPDEST PUSH1 0x0 SELFBALANCE SWAP1 POP SWAP1 JUMP JUMPDEST PUSH1 0x0 DUP2 PUSH20 0xFFFFFFFFFFFFFFFFFFFFFFFFFFFFFFFFFFFFFFFF AND PUSH4 0x70A08231 ADDRESS PUSH1 0x40 MLOAD DUP3 PUSH4 0xFFFFFFFF AND PUSH1 0xE0 SHL DUP2 MSTORE PUSH1 0x4 ADD PUSH2 0x373 SWAP2 SWAP1 PUSH2 0x1DD6 JUMP JUMPDEST PUSH1 0x20 PUSH1 0x40 MLOAD DUP1 DUP4 SUB DUP2 DUP7 GAS STATICCALL ISZERO DUP1 ISZERO PUSH2 0x390 JUMPI RETURNDATASIZE PUSH1 0x0 DUP1 RETURNDATACOPY RETURNDATASIZE PUSH1 0x0 REVERT JUMPDEST POP POP POP POP PUSH1 0x40 MLOAD RETURNDATASIZE PUSH1 0x1F NOT PUSH1 0x1F DUP3 ADD AND DUP3 ADD DUP1 PUSH1 0x40 MSTORE POP DUP2 ADD SWAP1 PUSH2 0x3B4 SWAP2 SWAP1 PUSH2 0x217D JUMP JUMPDEST SWAP1 POP SWAP2 SWAP1 POP JUMP JUMPDEST DUP2 DUP2 PUSH1 0x2 DUP3 DUP3 PUSH1 0x40 MLOAD PUSH2 0x3CF SWAP3 SWAP2 SWAP1 PUSH2 0x21E9 JUMP JUMPDEST SWAP1 DUP2 MSTORE PUSH1 0x20 ADD PUSH1 0x40 MLOAD DUP1 SWAP2 SUB SWAP1 KECCAK256 PUSH1 0x0 SWAP1 SLOAD SWAP1 PUSH2 0x100 EXP SWAP1 DIV PUSH1 0xFF AND ISZERO PUSH2 0x42B JUMPI PUSH1 0x40 MLOAD PUSH32 0x8C379A000000000000000000000000000000000000000000000000000000000 DUP2 MSTORE PUSH1 0x4 ADD PUSH2 0x422 SWAP1 PUSH2 0x225F JUMP JUMPDEST PUSH1 0x40 MLOAD DUP1 SWAP2 SUB SWAP1 REVERT JUMPDEST CALLER PUSH20 0xFFFFFFFFFFFFFFFFFFFFFFFFFFFFFFFFFFFFFFFF AND DUP6 PUSH2 0x100 ADD PUSH1 0x20 DUP2 ADD SWAP1 PUSH2 0x456 SWAP2 SWAP1 PUSH2 0x1B8C JUMP JUMPDEST PUSH20 0xFFFFFFFFFFFFFFFFFFFFFFFFFFFFFFFFFFFFFFFF AND EQ PUSH2 0x4AC JUMPI PUSH1 0x40 MLOAD PUSH32 0x8C379A000000000000000000000000000000000000000000000000000000000 DUP2 MSTORE PUSH1 0x4 ADD PUSH2 0x4A3 SWAP1 PUSH2 0x22CB JUMP JUMPDEST PUSH1 0x40 MLOAD DUP1 SWAP2 SUB SWAP1 REVERT JUMPDEST PUSH2 0x521 PUSH2 0x4B7 PUSH2 0xC40 JUMP JUMPDEST DUP7 PUSH1 0x40 MLOAD PUSH1 0x20 ADD PUSH2 0x4C8 SWAP2 SWAP1 PUSH2 0x257D JUMP JUMPDEST PUSH1 0x40 MLOAD PUSH1 0x20 DUP2 DUP4 SUB SUB DUP2 MSTORE SWAP1 PUSH1 0x40 MSTORE DUP7 DUP7 DUP1 DUP1 PUSH1 0x1F ADD PUSH1 0x20 DUP1 SWAP2 DIV MUL PUSH1 0x20 ADD PUSH1 0x40 MLOAD SWAP1 DUP2 ADD PUSH1 0x40 MSTORE DUP1 SWAP4 SWAP3 SWAP2 SWAP1 DUP2 DUP2 MSTORE PUSH1 0x20 ADD DUP4 DUP4 DUP1 DUP3 DUP5 CALLDATACOPY PUSH1 0x0 DUP2 DUP5 ADD MSTORE PUSH1 0x1F NOT PUSH1 0x1F DUP3 ADD AND SWAP1 POP DUP1 DUP4 ADD SWAP3 POP POP POP POP POP POP POP PUSH2 0xFA3 JUMP JUMPDEST PUSH1 0x0 DUP6 PUSH2 0x140 ADD PUSH1 0x20 DUP2 ADD SWAP1 PUSH2 0x537 SWAP2 SWAP1 PUSH2 0x259F JUMP JUMPDEST PUSH2 0x5FE JUMPI DUP6 PUSH1 0xA0 ADD PUSH1 0x20 DUP2 ADD SWAP1 PUSH2 0x54E SWAP2 SWAP1 PUSH2 0x259F JUMP JUMPDEST PUSH2 0x575 JUMPI PUSH2 0x574 DUP7 PUSH1 0x0 ADD PUSH1 0x20 DUP2 ADD SWAP1 PUSH2 0x568 SWAP2 SWAP1 PUSH2 0x1B8C JUMP JUMPDEST CALLER ADDRESS DUP10 PUSH1 0x40 ADD CALLDATALOAD PUSH2 0x110F JUMP JUMPDEST JUMPDEST PUSH1 0x0 DUP7 PUSH1 0x60 ADD CALLDATALOAD GT ISZERO PUSH2 0x5C6 JUMPI PUSH2 0x5C5 DUP7 PUSH1 0x0 ADD PUSH1 0x20 DUP2 ADD SWAP1 PUSH2 0x598 SWAP2 SWAP1 PUSH2 0x1B8C JUMP JUMPDEST PUSH1 0x1 PUSH1 0x0 SWAP1 SLOAD SWAP1 PUSH2 0x100 EXP SWAP1 DIV PUSH20 0xFFFFFFFFFFFFFFFFFFFFFFFFFFFFFFFFFFFFFFFF AND DUP9 PUSH1 0x60 ADD CALLDATALOAD PUSH2 0x1248 JUMP JUMPDEST JUMPDEST PUSH2 0x5F9 DUP7 PUSH1 0x0 ADD PUSH1 0x20 DUP2 ADD SWAP1 PUSH2 0x5DC SWAP2 SWAP1 PUSH2 0x1B8C JUMP JUMPDEST DUP8 PUSH1 0xC0 ADD PUSH1 0x20 DUP2 ADD SWAP1 PUSH2 0x5EF SWAP2 SWAP1 PUSH2 0x1B8C JUMP JUMPDEST DUP9 PUSH1 0x80 ADD CALLDATALOAD PUSH2 0x137E JUMP JUMPDEST PUSH2 0x67D JUMP JUMPDEST DUP6 PUSH1 0x40 ADD CALLDATALOAD CALLVALUE LT ISZERO PUSH2 0x645 JUMPI PUSH1 0x40 MLOAD PUSH32 0x8C379A000000000000000000000000000000000000000000000000000000000 DUP2 MSTORE PUSH1 0x4 ADD PUSH2 0x63C SWAP1 PUSH2 0x2618 JUMP JUMPDEST PUSH1 0x40 MLOAD DUP1 SWAP2 SUB SWAP1 REVERT JUMPDEST PUSH2 0x675 PUSH1 0x1 PUSH1 0x0 SWAP1 SLOAD SWAP1 PUSH2 0x100 EXP SWAP1 DIV PUSH20 0xFFFFFFFFFFFFFFFFFFFFFFFFFFFFFFFFFFFFFFFF AND DUP8 PUSH1 0x60 ADD CALLDATALOAD PUSH2 0x14B4 JUMP JUMPDEST DUP6 PUSH1 0x80 ADD CALLDATALOAD SWAP1 POP JUMPDEST PUSH1 0x0 DUP7 PUSH1 0x20 ADD PUSH1 0x20 DUP2 ADD SWAP1 PUSH2 0x692 SWAP2 SWAP1 PUSH2 0x1B8C JUMP JUMPDEST PUSH20 0xFFFFFFFFFFFFFFFFFFFFFFFFFFFFFFFFFFFFFFFF AND PUSH4 0x70A08231 ADDRESS PUSH1 0x40 MLOAD DUP3 PUSH4 0xFFFFFFFF AND PUSH1 0xE0 SHL DUP2 MSTORE PUSH1 0x4 ADD PUSH2 0x6CA SWAP2 SWAP1 PUSH2 0x1DD6 JUMP JUMPDEST PUSH1 0x20 PUSH1 0x40 MLOAD DUP1 DUP4 SUB DUP2 DUP7 GAS STATICCALL ISZERO DUP1 ISZERO PUSH2 0x6E7 JUMPI RETURNDATASIZE PUSH1 0x0 DUP1 RETURNDATACOPY RETURNDATASIZE PUSH1 0x0 REVERT JUMPDEST POP POP POP POP PUSH1 0x40 MLOAD RETURNDATASIZE PUSH1 0x1F NOT PUSH1 0x1F DUP3 ADD AND DUP3 ADD DUP1 PUSH1 0x40 MSTORE POP DUP2 ADD SWAP1 PUSH2 0x70B SWAP2 SWAP1 PUSH2 0x217D JUMP JUMPDEST SWAP1 POP PUSH2 0x77C DUP8 PUSH1 0xC0 ADD PUSH1 0x20 DUP2 ADD SWAP1 PUSH2 0x723 SWAP2 SWAP1 PUSH2 0x1B8C JUMP JUMPDEST DUP4 DUP10 DUP1 PUSH1 0xE0 ADD SWAP1 PUSH2 0x734 SWAP2 SWAP1 PUSH2 0x2647 JUMP JUMPDEST DUP1 DUP1 PUSH1 0x1F ADD PUSH1 0x20 DUP1 SWAP2 DIV MUL PUSH1 0x20 ADD PUSH1 0x40 MLOAD SWAP1 DUP2 ADD PUSH1 0x40 MSTORE DUP1 SWAP4 SWAP3 SWAP2 SWAP1 DUP2 DUP2 MSTORE PUSH1 0x20 ADD DUP4 DUP4 DUP1 DUP3 DUP5 CALLDATACOPY PUSH1 0x0 DUP2 DUP5 ADD MSTORE PUSH1 0x1F NOT PUSH1 0x1F DUP3 ADD AND SWAP1 POP DUP1 DUP4 ADD SWAP3 POP POP POP POP POP POP POP PUSH2 0x15B4 JUMP JUMPDEST PUSH1 0x0 DUP8 PUSH1 0x20 ADD PUSH1 0x20 DUP2 ADD SWAP1 PUSH2 0x791 SWAP2 SWAP1 PUSH2 0x1B8C JUMP JUMPDEST PUSH20 0xFFFFFFFFFFFFFFFFFFFFFFFFFFFFFFFFFFFFFFFF AND PUSH4 0x70A08231 ADDRESS PUSH1 0x40 MLOAD DUP3 PUSH4 0xFFFFFFFF AND PUSH1 0xE0 SHL DUP2 MSTORE PUSH1 0x4 ADD PUSH2 0x7C9 SWAP2 SWAP1 PUSH2 0x1DD6 JUMP JUMPDEST PUSH1 0x20 PUSH1 0x40 MLOAD DUP1 DUP4 SUB DUP2 DUP7 GAS STATICCALL ISZERO DUP1 ISZERO PUSH2 0x7E6 JUMPI RETURNDATASIZE PUSH1 0x0 DUP1 RETURNDATACOPY RETURNDATASIZE PUSH1 0x0 REVERT JUMPDEST POP POP POP POP PUSH1 0x40 MLOAD RETURNDATASIZE PUSH1 0x1F NOT PUSH1 0x1F DUP3 ADD AND DUP3 ADD DUP1 PUSH1 0x40 MSTORE POP DUP2 ADD SWAP1 PUSH2 0x80A SWAP2 SWAP1 PUSH2 0x217D JUMP JUMPDEST SWAP1 POP DUP2 DUP2 GT ISZERO PUSH2 0x82B JUMPI DUP2 DUP2 PUSH2 0x820 SWAP2 SWAP1 PUSH2 0x26D9 JUMP JUMPDEST PUSH1 0x3 DUP2 SWAP1 SSTORE POP PUSH2 0x834 JUMP JUMPDEST PUSH1 0x0 PUSH1 0x3 DUP2 SWAP1 SSTORE POP JUMPDEST PUSH1 0x1 PUSH1 0x2 DUP9 DUP9 PUSH1 0x40 MLOAD PUSH2 0x848 SWAP3 SWAP2 SWAP1 PUSH2 0x21E9 JUMP JUMPDEST SWAP1 DUP2 MSTORE PUSH1 0x20 ADD PUSH1 0x40 MLOAD DUP1 SWAP2 SUB SWAP1 KECCAK256 PUSH1 0x0 PUSH2 0x100 EXP DUP2 SLOAD DUP2 PUSH1 0xFF MUL NOT AND SWAP1 DUP4 ISZERO ISZERO MUL OR SWAP1 SSTORE POP POP POP POP PUSH1 0x1 PUSH1 0x2 DUP4 DUP4 PUSH1 0x40 MLOAD PUSH2 0x884 SWAP3 SWAP2 SWAP1 PUSH2 0x21E9 JUMP JUMPDEST SWAP1 DUP2 MSTORE PUSH1 0x20 ADD PUSH1 0x40 MLOAD DUP1 SWAP2 SUB SWAP1 KECCAK256 PUSH1 0x0 PUSH2 0x100 EXP DUP2 SLOAD DUP2 PUSH1 0xFF MUL NOT AND SWAP1 DUP4 ISZERO ISZERO MUL OR SWAP1 SSTORE POP POP POP POP POP POP JUMP JUMPDEST PUSH2 0x8B8 PUSH2 0x16CB JUMP JUMPDEST PUSH2 0x8C2 DUP3 DUP3 PUSH2 0x14B4 JUMP JUMPDEST POP POP JUMP JUMPDEST DUP2 DUP2 PUSH1 0x2 DUP3 DUP3 PUSH1 0x40 MLOAD PUSH2 0x8DA SWAP3 SWAP2 SWAP1 PUSH2 0x21E9 JUMP JUMPDEST SWAP1 DUP2 MSTORE PUSH1 0x20 ADD PUSH1 0x40 MLOAD DUP1 SWAP2 SUB SWAP1 KECCAK256 PUSH1 0x0 SWAP1 SLOAD SWAP1 PUSH2 0x100 EXP SWAP1 DIV PUSH1 0xFF AND ISZERO PUSH2 0x936 JUMPI PUSH1 0x40 MLOAD PUSH32 0x8C379A000000000000000000000000000000000000000000000000000000000 DUP2 MSTORE PUSH1 0x4 ADD PUSH2 0x92D SWAP1 PUSH2 0x225F JUMP JUMPDEST PUSH1 0x40 MLOAD DUP1 SWAP2 SUB SWAP1 REVERT JUMPDEST CALLER PUSH20 0xFFFFFFFFFFFFFFFFFFFFFFFFFFFFFFFFFFFFFFFF AND DUP6 PUSH1 0x40 ADD PUSH1 0x20 DUP2 ADD SWAP1 PUSH2 0x960 SWAP2 SWAP1 PUSH2 0x1B8C JUMP JUMPDEST PUSH20 0xFFFFFFFFFFFFFFFFFFFFFFFFFFFFFFFFFFFFFFFF AND EQ PUSH2 0x9B6 JUMPI PUSH1 0x40 MLOAD PUSH32 0x8C379A000000000000000000000000000000000000000000000000000000000 DUP2 MSTORE PUSH1 0x4 ADD PUSH2 0x9AD SWAP1 PUSH2 0x22CB JUMP JUMPDEST PUSH1 0x40 MLOAD DUP1 SWAP2 SUB SWAP1 REVERT JUMPDEST DUP5 PUSH1 0x60 ADD CALLDATALOAD CALLVALUE LT ISZERO PUSH2 0x9FD JUMPI PUSH1 0x40 MLOAD PUSH32 0x8C379A000000000000000000000000000000000000000000000000000000000 DUP2 MSTORE PUSH1 0x4 ADD PUSH2 0x9F4 SWAP1 PUSH2 0x2618 JUMP JUMPDEST PUSH1 0x40 MLOAD DUP1 SWAP2 SUB SWAP1 REVERT JUMPDEST PUSH2 0xA72 PUSH2 0xA08 PUSH2 0xC40 JUMP JUMPDEST DUP7 PUSH1 0x40 MLOAD PUSH1 0x20 ADD PUSH2 0xA19 SWAP2 SWAP1 PUSH2 0x27FF JUMP JUMPDEST PUSH1 0x40 MLOAD PUSH1 0x20 DUP2 DUP4 SUB SUB DUP2 MSTORE SWAP1 PUSH1 0x40 MSTORE DUP7 DUP7 DUP1 DUP1 PUSH1 0x1F ADD PUSH1 0x20 DUP1 SWAP2 DIV MUL PUSH1 0x20 ADD PUSH1 0x40 MLOAD SWAP1 DUP2 ADD PUSH1 0x40 MSTORE DUP1 SWAP4 SWAP3 SWAP2 SWAP1 DUP2 DUP2 MSTORE PUSH1 0x20 ADD DUP4 DUP4 DUP1 DUP3 DUP5 CALLDATACOPY PUSH1 0x0 DUP2 DUP5 ADD MSTORE PUSH1 0x1F NOT PUSH1 0x1F DUP3 ADD AND SWAP1 POP DUP1 DUP4 ADD SWAP3 POP POP POP POP POP POP POP PUSH2 0xFA3 JUMP JUMPDEST PUSH1 0x0 DUP6 PUSH1 0x80 ADD PUSH1 0x20 DUP2 ADD SWAP1 PUSH2 0xA87 SWAP2 SWAP1 PUSH2 0x259F JUMP JUMPDEST ISZERO PUSH2 0xA9E JUMPI PUSH1 0x3 SLOAD SWAP1 POP PUSH1 0x0 PUSH1 0x3 DUP2 SWAP1 SSTORE POP PUSH2 0xB28 JUMP JUMPDEST PUSH2 0xACF DUP7 PUSH1 0x20 ADD PUSH1 0x20 DUP2 ADD SWAP1 PUSH2 0xAB4 SWAP2 SWAP1 PUSH2 0x1B8C JUMP JUMPDEST CALLER ADDRESS DUP10 PUSH1 0xC0 ADD CALLDATALOAD DUP11 PUSH1 0xA0 ADD CALLDATALOAD PUSH2 0xACA SWAP2 SWAP1 PUSH2 0x2821 JUMP JUMPDEST PUSH2 0x110F JUMP JUMPDEST PUSH1 0x0 DUP7 PUSH1 0xC0 ADD CALLDATALOAD GT ISZERO PUSH2 0xB20 JUMPI PUSH2 0xB1F DUP7 PUSH1 0x20 ADD PUSH1 0x20 DUP2 ADD SWAP1 PUSH2 0xAF2 SWAP2 SWAP1 PUSH2 0x1B8C JUMP JUMPDEST PUSH1 0x1 PUSH1 0x0 SWAP1 SLOAD SWAP1 PUSH2 0x100 EXP SWAP1 DIV PUSH20 0xFFFFFFFFFFFFFFFFFFFFFFFFFFFFFFFFFFFFFFFF AND DUP9 PUSH1 0xC0 ADD CALLDATALOAD PUSH2 0x1248 JUMP JUMPDEST JUMPDEST DUP6 PUSH1 0xA0 ADD CALLDATALOAD SWAP1 POP JUMPDEST PUSH2 0xB57 DUP7 PUSH1 0x20 ADD PUSH1 0x20 DUP2 ADD SWAP1 PUSH2 0xB3E SWAP2 SWAP1 PUSH2 0x1B8C JUMP JUMPDEST DUP8 PUSH1 0x0 ADD PUSH1 0x20 DUP2 ADD SWAP1 PUSH2 0xB51 SWAP2 SWAP1 PUSH2 0x1B8C JUMP JUMPDEST DUP4 PUSH2 0x137E JUMP JUMPDEST DUP6 PUSH1 0x0 ADD PUSH1 0x20 DUP2 ADD SWAP1 PUSH2 0xB6A SWAP2 SWAP1 PUSH2 0x1B8C JUMP JUMPDEST PUSH20 0xFFFFFFFFFFFFFFFFFFFFFFFFFFFFFFFFFFFFFFFF AND PUSH4 0xA2FB374 DUP8 PUSH1 0x60 ADD CALLDATALOAD DUP9 DUP1 PUSH1 0xE0 ADD SWAP1 PUSH2 0xB9A SWAP2 SWAP1 PUSH2 0x2647 JUMP JUMPDEST DUP6 PUSH1 0x40 MLOAD DUP6 PUSH4 0xFFFFFFFF AND PUSH1 0xE0 SHL DUP2 MSTORE PUSH1 0x4 ADD PUSH2 0xBB9 SWAP4 SWAP3 SWAP2 SWAP1 PUSH2 0x2893 JUMP JUMPDEST PUSH1 0x0 PUSH1 0x40 MLOAD DUP1 DUP4 SUB DUP2 DUP6 DUP9 DUP1 EXTCODESIZE ISZERO DUP1 ISZERO PUSH2 0xBD2 JUMPI PUSH1 0x0 DUP1 REVERT JUMPDEST POP GAS CALL ISZERO DUP1 ISZERO PUSH2 0xBE6 JUMPI RETURNDATASIZE PUSH1 0x0 DUP1 RETURNDATACOPY RETURNDATASIZE PUSH1 0x0 REVERT JUMPDEST POP POP POP POP POP POP PUSH1 0x1 PUSH1 0x2 DUP4 DUP4 PUSH1 0x40 MLOAD PUSH2 0xC00 SWAP3 SWAP2 SWAP1 PUSH2 0x21E9 JUMP JUMPDEST SWAP1 DUP2 MSTORE PUSH1 0x20 ADD PUSH1 0x40 MLOAD DUP1 SWAP2 SUB SWAP1 KECCAK256 PUSH1 0x0 PUSH2 0x100 EXP DUP2 SLOAD DUP2 PUSH1 0xFF MUL NOT AND SWAP1 DUP4 ISZERO ISZERO MUL OR SWAP1 SSTORE POP POP POP POP POP POP JUMP JUMPDEST PUSH2 0xC34 PUSH2 0x16CB JUMP JUMPDEST PUSH2 0xC3E PUSH1 0x0 PUSH2 0x1749 JUMP JUMPDEST JUMP JUMPDEST PUSH1 0x0 DUP1 PUSH1 0x0 SWAP1 SLOAD SWAP1 PUSH2 0x100 EXP SWAP1 DIV PUSH20 0xFFFFFFFFFFFFFFFFFFFFFFFFFFFFFFFFFFFFFFFF AND SWAP1 POP SWAP1 JUMP JUMPDEST PUSH2 0xC71 PUSH2 0x16CB JUMP JUMPDEST PUSH2 0xC7C DUP4 DUP4 DUP4 PUSH2 0x1248 JUMP JUMPDEST POP POP POP JUMP JUMPDEST PUSH1 0x0 DUP1 DUP8 PUSH20 0xFFFFFFFFFFFFFFFFFFFFFFFFFFFFFFFFFFFFFFFF AND PUSH4 0x6110358D DUP9 DUP9 DUP9 DUP9 DUP9 PUSH1 0x40 MLOAD DUP7 PUSH4 0xFFFFFFFF AND PUSH1 0xE0 SHL DUP2 MSTORE PUSH1 0x4 ADD PUSH2 0xCC5 SWAP6 SWAP5 SWAP4 SWAP3 SWAP2 SWAP1 PUSH2 0x28D4 JUMP JUMPDEST PUSH1 0x40 DUP1 MLOAD DUP1 DUP4 SUB DUP2 DUP7 GAS STATICCALL ISZERO DUP1 ISZERO PUSH2 0xCE1 JUMPI RETURNDATASIZE PUSH1 0x0 DUP1 RETURNDATACOPY RETURNDATASIZE PUSH1 0x0 REVERT JUMPDEST POP POP POP POP PUSH1 0x40 MLOAD RETURNDATASIZE PUSH1 0x1F NOT PUSH1 0x1F DUP3 ADD AND DUP3 ADD DUP1 PUSH1 0x40 MSTORE POP DUP2 ADD SWAP1 PUSH2 0xD05 SWAP2 SWAP1 PUSH2 0x2953 JUMP JUMPDEST SWAP2 POP SWAP2 POP SWAP7 POP SWAP7 SWAP5 POP POP POP POP POP JUMP JUMPDEST PUSH1 0x60 DUP3 DUP3 SWAP1 POP PUSH8 0xFFFFFFFFFFFFFFFF DUP2 GT ISZERO PUSH2 0xD33 JUMPI PUSH2 0xD32 PUSH2 0x2993 JUMP JUMPDEST JUMPDEST PUSH1 0x40 MLOAD SWAP1 DUP1 DUP3 MSTORE DUP1 PUSH1 0x20 MUL PUSH1 0x20 ADD DUP3 ADD PUSH1 0x40 MSTORE DUP1 ISZERO PUSH2 0xD66 JUMPI DUP2 PUSH1 0x20 ADD JUMPDEST PUSH1 0x60 DUP2 MSTORE PUSH1 0x20 ADD SWAP1 PUSH1 0x1 SWAP1 SUB SWAP1 DUP2 PUSH2 0xD51 JUMPI SWAP1 POP JUMPDEST POP SWAP1 POP PUSH1 0x0 JUMPDEST DUP4 DUP4 SWAP1 POP DUP2 LT ISZERO PUSH2 0xEA7 JUMPI PUSH1 0x0 DUP1 ADDRESS PUSH20 0xFFFFFFFFFFFFFFFFFFFFFFFFFFFFFFFFFFFFFFFF AND DUP7 DUP7 DUP6 DUP2 DUP2 LT PUSH2 0xDA4 JUMPI PUSH2 0xDA3 PUSH2 0x29C2 JUMP JUMPDEST JUMPDEST SWAP1 POP PUSH1 0x20 MUL DUP2 ADD SWAP1 PUSH2 0xDB6 SWAP2 SWAP1 PUSH2 0x2647 JUMP JUMPDEST PUSH1 0x40 MLOAD PUSH2 0xDC4 SWAP3 SWAP2 SWAP1 PUSH2 0x21E9 JUMP JUMPDEST PUSH1 0x0 PUSH1 0x40 MLOAD DUP1 DUP4 SUB DUP2 DUP6 GAS DELEGATECALL SWAP2 POP POP RETURNDATASIZE DUP1 PUSH1 0x0 DUP2 EQ PUSH2 0xDFF JUMPI PUSH1 0x40 MLOAD SWAP2 POP PUSH1 0x1F NOT PUSH1 0x3F RETURNDATASIZE ADD AND DUP3 ADD PUSH1 0x40 MSTORE RETURNDATASIZE DUP3 MSTORE RETURNDATASIZE PUSH1 0x0 PUSH1 0x20 DUP5 ADD RETURNDATACOPY PUSH2 0xE04 JUMP JUMPDEST PUSH1 0x60 SWAP2 POP JUMPDEST POP SWAP2 POP SWAP2 POP DUP2 PUSH2 0xE73 JUMPI PUSH1 0x44 DUP2 MLOAD LT ISZERO PUSH2 0xE1D JUMPI PUSH1 0x0 DUP1 REVERT JUMPDEST PUSH1 0x4 DUP2 ADD SWAP1 POP DUP1 DUP1 PUSH1 0x20 ADD SWAP1 MLOAD DUP2 ADD SWAP1 PUSH2 0xE37 SWAP2 SWAP1 PUSH2 0x2AE3 JUMP JUMPDEST PUSH1 0x40 MLOAD PUSH32 0x8C379A000000000000000000000000000000000000000000000000000000000 DUP2 MSTORE PUSH1 0x4 ADD PUSH2 0xE6A SWAP2 SWAP1 PUSH2 0x2B70 JUMP JUMPDEST PUSH1 0x40 MLOAD DUP1 SWAP2 SUB SWAP1 REVERT JUMPDEST DUP1 DUP5 DUP5 DUP2 MLOAD DUP2 LT PUSH2 0xE87 JUMPI PUSH2 0xE86 PUSH2 0x29C2 JUMP JUMPDEST JUMPDEST PUSH1 0x20 MUL PUSH1 0x20 ADD ADD DUP2 SWAP1 MSTORE POP POP POP DUP1 DUP1 PUSH2 0xE9F SWAP1 PUSH2 0x2B92 JUMP JUMPDEST SWAP2 POP POP PUSH2 0xD6C JUMP JUMPDEST POP SWAP3 SWAP2 POP POP JUMP JUMPDEST PUSH2 0xEB6 PUSH2 0x16CB JUMP JUMPDEST DUP1 PUSH1 0x1 PUSH1 0x0 PUSH2 0x100 EXP DUP2 SLOAD DUP2 PUSH20 0xFFFFFFFFFFFFFFFFFFFFFFFFFFFFFFFFFFFFFFFF MUL NOT AND SWAP1 DUP4 PUSH20 0xFFFFFFFFFFFFFFFFFFFFFFFFFFFFFFFFFFFFFFFF AND MUL OR SWAP1 SSTORE POP POP JUMP JUMPDEST PUSH2 0xF02 PUSH2 0x16CB JUMP JUMPDEST PUSH1 0x0 PUSH20 0xFFFFFFFFFFFFFFFFFFFFFFFFFFFFFFFFFFFFFFFF AND DUP2 PUSH20 0xFFFFFFFFFFFFFFFFFFFFFFFFFFFFFFFFFFFFFFFF AND SUB PUSH2 0xF71 JUMPI PUSH1 0x40 MLOAD PUSH32 0x8C379A000000000000000000000000000000000000000000000000000000000 DUP2 MSTORE PUSH1 0x4 ADD PUSH2 0xF68 SWAP1 PUSH2 0x2C4C JUMP JUMPDEST PUSH1 0x40 MLOAD DUP1 SWAP2 SUB SWAP1 REVERT JUMPDEST PUSH2 0xF7A DUP2 PUSH2 0x1749 JUMP JUMPDEST POP JUMP JUMPDEST PUSH1 0x1 PUSH1 0x0 SWAP1 SLOAD SWAP1 PUSH2 0x100 EXP SWAP1 DIV PUSH20 0xFFFFFFFFFFFFFFFFFFFFFFFFFFFFFFFFFFFFFFFF AND DUP2 JUMP JUMPDEST PUSH1 0x1B PUSH1 0xF8 SHL DUP2 PUSH1 0x40 DUP2 MLOAD DUP2 LT PUSH2 0xFBC JUMPI PUSH2 0xFBB PUSH2 0x29C2 JUMP JUMPDEST JUMPDEST PUSH1 0x20 ADD ADD SWAP1 PUSH31 0xFFFFFFFFFFFFFFFFFFFFFFFFFFFFFFFFFFFFFFFFFFFFFFFFFFFFFFFFFFFFFF NOT AND SWAP1 DUP2 PUSH1 0x0 BYTE SWAP1 MSTORE8 POP DUP3 PUSH20 0xFFFFFFFFFFFFFFFFFFFFFFFFFFFFFFFFFFFFFFFF AND PUSH2 0x101D DUP3 PUSH2 0x100F DUP6 PUSH2 0x180D JUMP JUMPDEST PUSH2 0x181E SWAP1 SWAP2 SWAP1 PUSH4 0xFFFFFFFF AND JUMP JUMPDEST PUSH20 0xFFFFFFFFFFFFFFFFFFFFFFFFFFFFFFFFFFFFFFFF AND SUB ISZERO PUSH2 0x110A JUMPI PUSH1 0x1C PUSH1 0xF8 SHL DUP2 PUSH1 0x40 DUP2 MLOAD DUP2 LT PUSH2 0x1052 JUMPI PUSH2 0x1051 PUSH2 0x29C2 JUMP JUMPDEST JUMPDEST PUSH1 0x20 ADD ADD SWAP1 PUSH31 0xFFFFFFFFFFFFFFFFFFFFFFFFFFFFFFFFFFFFFFFFFFFFFFFFFFFFFFFFFFFFFF NOT AND SWAP1 DUP2 PUSH1 0x0 BYTE SWAP1 MSTORE8 POP DUP3 PUSH20 0xFFFFFFFFFFFFFFFFFFFFFFFFFFFFFFFFFFFFFFFF AND PUSH2 0x10B3 DUP3 PUSH2 0x10A5 DUP6 PUSH2 0x180D JUMP JUMPDEST PUSH2 0x181E SWAP1 SWAP2 SWAP1 PUSH4 0xFFFFFFFF AND JUMP JUMPDEST PUSH20 0xFFFFFFFFFFFFFFFFFFFFFFFFFFFFFFFFFFFFFFFF AND EQ PUSH2 0x1109 JUMPI PUSH1 0x40 MLOAD PUSH32 0x8C379A000000000000000000000000000000000000000000000000000000000 DUP2 MSTORE PUSH1 0x4 ADD PUSH2 0x1100 SWAP1 PUSH2 0x2CB8 JUMP JUMPDEST PUSH1 0x40 MLOAD DUP1 SWAP2 SUB SWAP1 REVERT JUMPDEST JUMPDEST POP POP POP JUMP JUMPDEST PUSH1 0x0 DUP1 DUP6 PUSH20 0xFFFFFFFFFFFFFFFFFFFFFFFFFFFFFFFFFFFFFFFF AND PUSH4 0x23B872DD DUP7 DUP7 DUP7 PUSH1 0x40 MLOAD PUSH1 0x24 ADD PUSH2 0x1143 SWAP4 SWAP3 SWAP2 SWAP1 PUSH2 0x2CD8 JUMP JUMPDEST PUSH1 0x40 MLOAD PUSH1 0x20 DUP2 DUP4 SUB SUB DUP2 MSTORE SWAP1 PUSH1 0x40 MSTORE SWAP1 PUSH1 0xE0 SHL PUSH1 0x20 DUP3 ADD DUP1 MLOAD PUSH28 0xFFFFFFFFFFFFFFFFFFFFFFFFFFFFFFFFFFFFFFFFFFFFFFFFFFFFFFFF DUP4 DUP2 DUP4 AND OR DUP4 MSTORE POP POP POP POP PUSH1 0x40 MLOAD PUSH2 0x1191 SWAP2 SWAP1 PUSH2 0x2D40 JUMP JUMPDEST PUSH1 0x0 PUSH1 0x40 MLOAD DUP1 DUP4 SUB DUP2 PUSH1 0x0 DUP7 GAS CALL SWAP2 POP POP RETURNDATASIZE DUP1 PUSH1 0x0 DUP2 EQ PUSH2 0x11CE JUMPI PUSH1 0x40 MLOAD SWAP2 POP PUSH1 0x1F NOT PUSH1 0x3F RETURNDATASIZE ADD AND DUP3 ADD PUSH1 0x40 MSTORE RETURNDATASIZE DUP3 MSTORE RETURNDATASIZE PUSH1 0x0 PUSH1 0x20 DUP5 ADD RETURNDATACOPY PUSH2 0x11D3 JUMP JUMPDEST PUSH1 0x60 SWAP2 POP JUMPDEST POP SWAP2 POP SWAP2 POP DUP2 DUP1 ISZERO PUSH2 0x1201 JUMPI POP PUSH1 0x0 DUP2 MLOAD EQ DUP1 PUSH2 0x1200 JUMPI POP DUP1 DUP1 PUSH1 0x20 ADD SWAP1 MLOAD DUP2 ADD SWAP1 PUSH2 0x11FF SWAP2 SWAP1 PUSH2 0x2D6C JUMP JUMPDEST JUMPDEST JUMPDEST PUSH2 0x1240 JUMPI PUSH1 0x40 MLOAD PUSH32 0x8C379A000000000000000000000000000000000000000000000000000000000 DUP2 MSTORE PUSH1 0x4 ADD PUSH2 0x1237 SWAP1 PUSH2 0x2DE5 JUMP JUMPDEST PUSH1 0x40 MLOAD DUP1 SWAP2 SUB SWAP1 REVERT JUMPDEST POP POP POP POP POP POP JUMP JUMPDEST PUSH1 0x0 DUP1 DUP5 PUSH20 0xFFFFFFFFFFFFFFFFFFFFFFFFFFFFFFFFFFFFFFFF AND PUSH4 0xA9059CBB DUP6 DUP6 PUSH1 0x40 MLOAD PUSH1 0x24 ADD PUSH2 0x127A SWAP3 SWAP2 SWAP1 PUSH2 0x2E05 JUMP JUMPDEST PUSH1 0x40 MLOAD PUSH1 0x20 DUP2 DUP4 SUB SUB DUP2 MSTORE SWAP1 PUSH1 0x40 MSTORE SWAP1 PUSH1 0xE0 SHL PUSH1 0x20 DUP3 ADD DUP1 MLOAD PUSH28 0xFFFFFFFFFFFFFFFFFFFFFFFFFFFFFFFFFFFFFFFFFFFFFFFFFFFFFFFF DUP4 DUP2 DUP4 AND OR DUP4 MSTORE POP POP POP POP PUSH1 0x40 MLOAD PUSH2 0x12C8 SWAP2 SWAP1 PUSH2 0x2D40 JUMP JUMPDEST PUSH1 0x0 PUSH1 0x40 MLOAD DUP1 DUP4 SUB DUP2 PUSH1 0x0 DUP7 GAS CALL SWAP2 POP POP RETURNDATASIZE DUP1 PUSH1 0x0 DUP2 EQ PUSH2 0x1305 JUMPI PUSH1 0x40 MLOAD SWAP2 POP PUSH1 0x1F NOT PUSH1 0x3F RETURNDATASIZE ADD AND DUP3 ADD PUSH1 0x40 MSTORE RETURNDATASIZE DUP3 MSTORE RETURNDATASIZE PUSH1 0x0 PUSH1 0x20 DUP5 ADD RETURNDATACOPY PUSH2 0x130A JUMP JUMPDEST PUSH1 0x60 SWAP2 POP JUMPDEST POP SWAP2 POP SWAP2 POP DUP2 DUP1 ISZERO PUSH2 0x1338 JUMPI POP PUSH1 0x0 DUP2 MLOAD EQ DUP1 PUSH2 0x1337 JUMPI POP DUP1 DUP1 PUSH1 0x20 ADD SWAP1 MLOAD DUP2 ADD SWAP1 PUSH2 0x1336 SWAP2 SWAP1 PUSH2 0x2D6C JUMP JUMPDEST JUMPDEST JUMPDEST PUSH2 0x1377 JUMPI PUSH1 0x40 MLOAD PUSH32 0x8C379A000000000000000000000000000000000000000000000000000000000 DUP2 MSTORE PUSH1 0x4 ADD PUSH2 0x136E SWAP1 PUSH2 0x2E7A JUMP JUMPDEST PUSH1 0x40 MLOAD DUP1 SWAP2 SUB SWAP1 REVERT JUMPDEST POP POP POP POP POP JUMP JUMPDEST PUSH1 0x0 DUP1 DUP5 PUSH20 0xFFFFFFFFFFFFFFFFFFFFFFFFFFFFFFFFFFFFFFFF AND PUSH4 0x95EA7B3 DUP6 DUP6 PUSH1 0x40 MLOAD PUSH1 0x24 ADD PUSH2 0x13B0 SWAP3 SWAP2 SWAP1 PUSH2 0x2E05 JUMP JUMPDEST PUSH1 0x40 MLOAD PUSH1 0x20 DUP2 DUP4 SUB SUB DUP2 MSTORE SWAP1 PUSH1 0x40 MSTORE SWAP1 PUSH1 0xE0 SHL PUSH1 0x20 DUP3 ADD DUP1 MLOAD PUSH28 0xFFFFFFFFFFFFFFFFFFFFFFFFFFFFFFFFFFFFFFFFFFFFFFFFFFFFFFFF DUP4 DUP2 DUP4 AND OR DUP4 MSTORE POP POP POP POP PUSH1 0x40 MLOAD PUSH2 0x13FE SWAP2 SWAP1 PUSH2 0x2D40 JUMP JUMPDEST PUSH1 0x0 PUSH1 0x40 MLOAD DUP1 DUP4 SUB DUP2 PUSH1 0x0 DUP7 GAS CALL SWAP2 POP POP RETURNDATASIZE DUP1 PUSH1 0x0 DUP2 EQ PUSH2 0x143B JUMPI PUSH1 0x40 MLOAD SWAP2 POP PUSH1 0x1F NOT PUSH1 0x3F RETURNDATASIZE ADD AND DUP3 ADD PUSH1 0x40 MSTORE RETURNDATASIZE DUP3 MSTORE RETURNDATASIZE PUSH1 0x0 PUSH1 0x20 DUP5 ADD RETURNDATACOPY PUSH2 0x1440 JUMP JUMPDEST PUSH1 0x60 SWAP2 POP JUMPDEST POP SWAP2 POP SWAP2 POP DUP2 DUP1 ISZERO PUSH2 0x146E JUMPI POP PUSH1 0x0 DUP2 MLOAD EQ DUP1 PUSH2 0x146D JUMPI POP DUP1 DUP1 PUSH1 0x20 ADD SWAP1 MLOAD DUP2 ADD SWAP1 PUSH2 0x146C SWAP2 SWAP1 PUSH2 0x2D6C JUMP JUMPDEST JUMPDEST JUMPDEST PUSH2 0x14AD JUMPI PUSH1 0x40 MLOAD PUSH32 0x8C379A000000000000000000000000000000000000000000000000000000000 DUP2 MSTORE PUSH1 0x4 ADD PUSH2 0x14A4 SWAP1 PUSH2 0x2EE6 JUMP JUMPDEST PUSH1 0x40 MLOAD DUP1 SWAP2 SUB SWAP1 REVERT JUMPDEST POP POP POP POP POP JUMP JUMPDEST PUSH1 0x0 DUP3 PUSH20 0xFFFFFFFFFFFFFFFFFFFFFFFFFFFFFFFFFFFFFFFF AND DUP3 PUSH1 0x0 PUSH8 0xFFFFFFFFFFFFFFFF DUP2 GT ISZERO PUSH2 0x14E9 JUMPI PUSH2 0x14E8 PUSH2 0x2993 JUMP JUMPDEST JUMPDEST PUSH1 0x40 MLOAD SWAP1 DUP1 DUP3 MSTORE DUP1 PUSH1 0x1F ADD PUSH1 0x1F NOT AND PUSH1 0x20 ADD DUP3 ADD PUSH1 0x40 MSTORE DUP1 ISZERO PUSH2 0x151B JUMPI DUP2 PUSH1 0x20 ADD PUSH1 0x1 DUP3 MUL DUP1 CALLDATASIZE DUP4 CALLDATACOPY DUP1 DUP3 ADD SWAP2 POP POP SWAP1 POP JUMPDEST POP PUSH1 0x40 MLOAD PUSH2 0x1529 SWAP2 SWAP1 PUSH2 0x2D40 JUMP JUMPDEST PUSH1 0x0 PUSH1 0x40 MLOAD DUP1 DUP4 SUB DUP2 DUP6 DUP8 GAS CALL SWAP3 POP POP POP RETURNDATASIZE DUP1 PUSH1 0x0 DUP2 EQ PUSH2 0x1566 JUMPI PUSH1 0x40 MLOAD SWAP2 POP PUSH1 0x1F NOT PUSH1 0x3F RETURNDATASIZE ADD AND DUP3 ADD PUSH1 0x40 MSTORE RETURNDATASIZE DUP3 MSTORE RETURNDATASIZE PUSH1 0x0 PUSH1 0x20 DUP5 ADD RETURNDATACOPY PUSH2 0x156B JUMP JUMPDEST PUSH1 0x60 SWAP2 POP JUMPDEST POP POP SWAP1 POP DUP1 PUSH2 0x15AF JUMPI PUSH1 0x40 MLOAD PUSH32 0x8C379A000000000000000000000000000000000000000000000000000000000 DUP2 MSTORE PUSH1 0x4 ADD PUSH2 0x15A6 SWAP1 PUSH2 0x2F52 JUMP JUMPDEST PUSH1 0x40 MLOAD DUP1 SWAP2 SUB SWAP1 REVERT JUMPDEST POP POP POP JUMP JUMPDEST PUSH1 0x0 DUP1 DUP5 PUSH20 0xFFFFFFFFFFFFFFFFFFFFFFFFFFFFFFFFFFFFFFFF AND DUP5 DUP5 PUSH1 0x40 MLOAD PUSH2 0x15DD SWAP2 SWAP1 PUSH2 0x2D40 JUMP JUMPDEST PUSH1 0x0 PUSH1 0x40 MLOAD DUP1 DUP4 SUB DUP2 DUP6 DUP8 GAS CALL SWAP3 POP POP POP RETURNDATASIZE DUP1 PUSH1 0x0 DUP2 EQ PUSH2 0x161A JUMPI PUSH1 0x40 MLOAD SWAP2 POP PUSH1 0x1F NOT PUSH1 0x3F RETURNDATASIZE ADD AND DUP3 ADD PUSH1 0x40 MSTORE RETURNDATASIZE DUP3 MSTORE RETURNDATASIZE PUSH1 0x0 PUSH1 0x20 DUP5 ADD RETURNDATACOPY PUSH2 0x161F JUMP JUMPDEST PUSH1 0x60 SWAP2 POP JUMPDEST POP SWAP2 POP SWAP2 POP DUP2 PUSH2 0x16C4 JUMPI PUSH1 0x44 DUP2 MLOAD LT ISZERO PUSH2 0x166E JUMPI PUSH1 0x40 MLOAD PUSH32 0x8C379A000000000000000000000000000000000000000000000000000000000 DUP2 MSTORE PUSH1 0x4 ADD PUSH2 0x1665 SWAP1 PUSH2 0x2FE4 JUMP JUMPDEST PUSH1 0x40 MLOAD DUP1 SWAP2 SUB SWAP1 REVERT JUMPDEST PUSH1 0x4 DUP2 ADD SWAP1 POP DUP1 DUP1 PUSH1 0x20 ADD SWAP1 MLOAD DUP2 ADD SWAP1 PUSH2 0x1688 SWAP2 SWAP1 PUSH2 0x2AE3 JUMP JUMPDEST PUSH1 0x40 MLOAD PUSH32 0x8C379A000000000000000000000000000000000000000000000000000000000 DUP2 MSTORE PUSH1 0x4 ADD PUSH2 0x16BB SWAP2 SWAP1 PUSH2 0x2B70 JUMP JUMPDEST PUSH1 0x40 MLOAD DUP1 SWAP2 SUB SWAP1 REVERT JUMPDEST POP POP POP POP POP JUMP JUMPDEST PUSH2 0x16D3 PUSH2 0x1845 JUMP JUMPDEST PUSH20 0xFFFFFFFFFFFFFFFFFFFFFFFFFFFFFFFFFFFFFFFF AND PUSH2 0x16F1 PUSH2 0xC40 JUMP JUMPDEST PUSH20 0xFFFFFFFFFFFFFFFFFFFFFFFFFFFFFFFFFFFFFFFF AND EQ PUSH2 0x1747 JUMPI PUSH1 0x40 MLOAD PUSH32 0x8C379A000000000000000000000000000000000000000000000000000000000 DUP2 MSTORE PUSH1 0x4 ADD PUSH2 0x173E SWAP1 PUSH2 0x3050 JUMP JUMPDEST PUSH1 0x40 MLOAD DUP1 SWAP2 SUB SWAP1 REVERT JUMPDEST JUMP JUMPDEST PUSH1 0x0 DUP1 PUSH1 0x0 SWAP1 SLOAD SWAP1 PUSH2 0x100 EXP SWAP1 DIV PUSH20 0xFFFFFFFFFFFFFFFFFFFFFFFFFFFFFFFFFFFFFFFF AND SWAP1 POP DUP2 PUSH1 0x0 DUP1 PUSH2 0x100 EXP DUP2 SLOAD DUP2 PUSH20 0xFFFFFFFFFFFFFFFFFFFFFFFFFFFFFFFFFFFFFFFF MUL NOT AND SWAP1 DUP4 PUSH20 0xFFFFFFFFFFFFFFFFFFFFFFFFFFFFFFFFFFFFFFFF AND MUL OR SWAP1 SSTORE POP DUP2 PUSH20 0xFFFFFFFFFFFFFFFFFFFFFFFFFFFFFFFFFFFFFFFF AND DUP2 PUSH20 0xFFFFFFFFFFFFFFFFFFFFFFFFFFFFFFFFFFFFFFFF AND PUSH32 0x8BE0079C531659141344CD1FD0A4F28419497F9722A3DAAFE3B4186F6B6457E0 PUSH1 0x40 MLOAD PUSH1 0x40 MLOAD DUP1 SWAP2 SUB SWAP1 LOG3 POP POP JUMP JUMPDEST PUSH1 0x0 DUP2 DUP1 MLOAD SWAP1 PUSH1 0x20 ADD KECCAK256 SWAP1 POP SWAP2 SWAP1 POP JUMP JUMPDEST PUSH1 0x0 DUP1 PUSH1 0x0 PUSH2 0x182D DUP6 DUP6 PUSH2 0x184D JUMP JUMPDEST SWAP2 POP SWAP2 POP PUSH2 0x183A DUP2 PUSH2 0x189E JUMP JUMPDEST DUP2 SWAP3 POP POP POP SWAP3 SWAP2 POP POP JUMP JUMPDEST PUSH1 0x0 CALLER SWAP1 POP SWAP1 JUMP JUMPDEST PUSH1 0x0 DUP1 PUSH1 0x41 DUP4 MLOAD SUB PUSH2 0x188E JUMPI PUSH1 0x0 DUP1 PUSH1 0x0 PUSH1 0x20 DUP7 ADD MLOAD SWAP3 POP PUSH1 0x40 DUP7 ADD MLOAD SWAP2 POP PUSH1 0x60 DUP7 ADD MLOAD PUSH1 0x0 BYTE SWAP1 POP PUSH2 0x1882 DUP8 DUP3 DUP6 DUP6 PUSH2 0x1A04 JUMP JUMPDEST SWAP5 POP SWAP5 POP POP POP POP PUSH2 0x1897 JUMP JUMPDEST PUSH1 0x0 PUSH1 0x2 SWAP2 POP SWAP2 POP JUMPDEST SWAP3 POP SWAP3 SWAP1 POP JUMP JUMPDEST PUSH1 0x0 PUSH1 0x4 DUP2 GT ISZERO PUSH2 0x18B2 JUMPI PUSH2 0x18B1 PUSH2 0x3070 JUMP JUMPDEST JUMPDEST DUP2 PUSH1 0x4 DUP2 GT ISZERO PUSH2 0x18C5 JUMPI PUSH2 0x18C4 PUSH2 0x3070 JUMP JUMPDEST JUMPDEST SUB ISZERO PUSH2 0x1A01 JUMPI PUSH1 0x1 PUSH1 0x4 DUP2 GT ISZERO PUSH2 0x18DF JUMPI PUSH2 0x18DE PUSH2 0x3070 JUMP JUMPDEST JUMPDEST DUP2 PUSH1 0x4 DUP2 GT ISZERO PUSH2 0x18F2 JUMPI PUSH2 0x18F1 PUSH2 0x3070 JUMP JUMPDEST JUMPDEST SUB PUSH2 0x1932 JUMPI PUSH1 0x40 MLOAD PUSH32 0x8C379A000000000000000000000000000000000000000000000000000000000 DUP2 MSTORE PUSH1 0x4 ADD PUSH2 0x1929 SWAP1 PUSH2 0x30EB JUMP JUMPDEST PUSH1 0x40 MLOAD DUP1 SWAP2 SUB SWAP1 REVERT JUMPDEST PUSH1 0x2 PUSH1 0x4 DUP2 GT ISZERO PUSH2 0x1946 JUMPI PUSH2 0x1945 PUSH2 0x3070 JUMP JUMPDEST JUMPDEST DUP2 PUSH1 0x4 DUP2 GT ISZERO PUSH2 0x1959 JUMPI PUSH2 0x1958 PUSH2 0x3070 JUMP JUMPDEST JUMPDEST SUB PUSH2 0x1999 JUMPI PUSH1 0x40 MLOAD PUSH32 0x8C379A000000000000000000000000000000000000000000000000000000000 DUP2 MSTORE PUSH1 0x4 ADD PUSH2 0x1990 SWAP1 PUSH2 0x3157 JUMP JUMPDEST PUSH1 0x40 MLOAD DUP1 SWAP2 SUB SWAP1 REVERT JUMPDEST PUSH1 0x3 PUSH1 0x4 DUP2 GT ISZERO PUSH2 0x19AD JUMPI PUSH2 0x19AC PUSH2 0x3070 JUMP JUMPDEST JUMPDEST DUP2 PUSH1 0x4 DUP2 GT ISZERO PUSH2 0x19C0 JUMPI PUSH2 0x19BF PUSH2 0x3070 JUMP JUMPDEST JUMPDEST SUB PUSH2 0x1A00 JUMPI PUSH1 0x40 MLOAD PUSH32 0x8C379A000000000000000000000000000000000000000000000000000000000 DUP2 MSTORE PUSH1 0x4 ADD PUSH2 0x19F7 SWAP1 PUSH2 0x31E9 JUMP JUMPDEST PUSH1 0x40 MLOAD DUP1 SWAP2 SUB SWAP1 REVERT JUMPDEST JUMPDEST POP JUMP JUMPDEST PUSH1 0x0 DUP1 PUSH32 0x7FFFFFFFFFFFFFFFFFFFFFFFFFFFFFFF5D576E7357A4501DDFE92F46681B20A0 DUP4 PUSH1 0x0 SHR GT ISZERO PUSH2 0x1A3F JUMPI PUSH1 0x0 PUSH1 0x3 SWAP2 POP SWAP2 POP PUSH2 0x1ADD JUMP JUMPDEST PUSH1 0x0 PUSH1 0x1 DUP8 DUP8 DUP8 DUP8 PUSH1 0x40 MLOAD PUSH1 0x0 DUP2 MSTORE PUSH1 0x20 ADD PUSH1 0x40 MSTORE PUSH1 0x40 MLOAD PUSH2 0x1A64 SWAP5 SWAP4 SWAP3 SWAP2 SWAP1 PUSH2 0x3222 JUMP JUMPDEST PUSH1 0x20 PUSH1 0x40 MLOAD PUSH1 0x20 DUP2 SUB SWAP1 DUP1 DUP5 SUB SWAP1 DUP6 GAS STATICCALL ISZERO DUP1 ISZERO PUSH2 0x1A86 JUMPI RETURNDATASIZE PUSH1 0x0 DUP1 RETURNDATACOPY RETURNDATASIZE PUSH1 0x0 REVERT JUMPDEST POP POP POP PUSH1 0x20 PUSH1 0x40 MLOAD SUB MLOAD SWAP1 POP PUSH1 0x0 PUSH20 0xFFFFFFFFFFFFFFFFFFFFFFFFFFFFFFFFFFFFFFFF AND DUP2 PUSH20 0xFFFFFFFFFFFFFFFFFFFFFFFFFFFFFFFFFFFFFFFF AND SUB PUSH2 0x1AD4 JUMPI PUSH1 0x0 PUSH1 0x1 SWAP3 POP SWAP3 POP POP PUSH2 0x1ADD JUMP JUMPDEST DUP1 PUSH1 0x0 SWAP3 POP SWAP3 POP POP JUMPDEST SWAP5 POP SWAP5 SWAP3 POP POP POP JUMP JUMPDEST PUSH1 0x0 DUP2 SWAP1 POP SWAP2 SWAP1 POP JUMP JUMPDEST PUSH2 0x1AF9 DUP2 PUSH2 0x1AE6 JUMP JUMPDEST DUP3 MSTORE POP POP JUMP JUMPDEST PUSH1 0x0 PUSH1 0x20 DUP3 ADD SWAP1 POP PUSH2 0x1B14 PUSH1 0x0 DUP4 ADD DUP5 PUSH2 0x1AF0 JUMP JUMPDEST SWAP3 SWAP2 POP POP JUMP JUMPDEST PUSH1 0x0 PUSH1 0x40 MLOAD SWAP1 POP SWAP1 JUMP JUMPDEST PUSH1 0x0 DUP1 REVERT JUMPDEST PUSH1 0x0 DUP1 REVERT JUMPDEST PUSH1 0x0 PUSH20 0xFFFFFFFFFFFFFFFFFFFFFFFFFFFFFFFFFFFFFFFF DUP3 AND SWAP1 POP SWAP2 SWAP1 POP JUMP JUMPDEST PUSH1 0x0 PUSH2 0x1B59 DUP3 PUSH2 0x1B2E JUMP JUMPDEST SWAP1 POP SWAP2 SWAP1 POP JUMP JUMPDEST PUSH2 0x1B69 DUP2 PUSH2 0x1B4E JUMP JUMPDEST DUP2 EQ PUSH2 0x1B74 JUMPI PUSH1 0x0 DUP1 REVERT JUMPDEST POP JUMP JUMPDEST PUSH1 0x0 DUP2 CALLDATALOAD SWAP1 POP PUSH2 0x1B86 DUP2 PUSH2 0x1B60 JUMP JUMPDEST SWAP3 SWAP2 POP POP JUMP JUMPDEST PUSH1 0x0 PUSH1 0x20 DUP3 DUP5 SUB SLT ISZERO PUSH2 0x1BA2 JUMPI PUSH2 0x1BA1 PUSH2 0x1B24 JUMP JUMPDEST JUMPDEST PUSH1 0x0 PUSH2 0x1BB0 DUP5 DUP3 DUP6 ADD PUSH2 0x1B77 JUMP JUMPDEST SWAP2 POP POP SWAP3 SWAP2 POP POP JUMP JUMPDEST PUSH1 0x0 DUP1 REVERT JUMPDEST PUSH1 0x0 PUSH2 0x160 DUP3 DUP5 SUB SLT ISZERO PUSH2 0x1BD5 JUMPI PUSH2 0x1BD4 PUSH2 0x1BB9 JUMP JUMPDEST JUMPDEST DUP2 SWAP1 POP SWAP3 SWAP2 POP POP JUMP JUMPDEST PUSH1 0x0 DUP1 REVERT JUMPDEST PUSH1 0x0 DUP1 REVERT JUMPDEST PUSH1 0x0 DUP1 REVERT JUMPDEST PUSH1 0x0 DUP1 DUP4 PUSH1 0x1F DUP5 ADD SLT PUSH2 0x1C03 JUMPI PUSH2 0x1C02 PUSH2 0x1BDE JUMP JUMPDEST JUMPDEST DUP3 CALLDATALOAD SWAP1 POP PUSH8 0xFFFFFFFFFFFFFFFF DUP2 GT ISZERO PUSH2 0x1C20 JUMPI PUSH2 0x1C1F PUSH2 0x1BE3 JUMP JUMPDEST JUMPDEST PUSH1 0x20 DUP4 ADD SWAP2 POP DUP4 PUSH1 0x1 DUP3 MUL DUP4 ADD GT ISZERO PUSH2 0x1C3C JUMPI PUSH2 0x1C3B PUSH2 0x1BE8 JUMP JUMPDEST JUMPDEST SWAP3 POP SWAP3 SWAP1 POP JUMP JUMPDEST PUSH1 0x0 DUP1 PUSH1 0x0 PUSH1 0x40 DUP5 DUP7 SUB SLT ISZERO PUSH2 0x1C5C JUMPI PUSH2 0x1C5B PUSH2 0x1B24 JUMP JUMPDEST JUMPDEST PUSH1 0x0 DUP5 ADD CALLDATALOAD PUSH8 0xFFFFFFFFFFFFFFFF DUP2 GT ISZERO PUSH2 0x1C7A JUMPI PUSH2 0x1C79 PUSH2 0x1B29 JUMP JUMPDEST JUMPDEST PUSH2 0x1C86 DUP7 DUP3 DUP8 ADD PUSH2 0x1BBE JUMP JUMPDEST SWAP4 POP POP PUSH1 0x20 DUP5 ADD CALLDATALOAD PUSH8 0xFFFFFFFFFFFFFFFF DUP2 GT ISZERO PUSH2 0x1CA7 JUMPI PUSH2 0x1CA6 PUSH2 0x1B29 JUMP JUMPDEST JUMPDEST PUSH2 0x1CB3 DUP7 DUP3 DUP8 ADD PUSH2 0x1BED JUMP JUMPDEST SWAP3 POP SWAP3 POP POP SWAP3 POP SWAP3 POP SWAP3 JUMP JUMPDEST PUSH2 0x1CC8 DUP2 PUSH2 0x1AE6 JUMP JUMPDEST DUP2 EQ PUSH2 0x1CD3 JUMPI PUSH1 0x0 DUP1 REVERT JUMPDEST POP JUMP JUMPDEST PUSH1 0x0 DUP2 CALLDATALOAD SWAP1 POP PUSH2 0x1CE5 DUP2 PUSH2 0x1CBF JUMP JUMPDEST SWAP3 SWAP2 POP POP JUMP JUMPDEST PUSH1 0x0 DUP1 PUSH1 0x40 DUP4 DUP6 SUB SLT ISZERO PUSH2 0x1D02 JUMPI PUSH2 0x1D01 PUSH2 0x1B24 JUMP JUMPDEST JUMPDEST PUSH1 0x0 PUSH2 0x1D10 DUP6 DUP3 DUP7 ADD PUSH2 0x1B77 JUMP JUMPDEST SWAP3 POP POP PUSH1 0x20 PUSH2 0x1D21 DUP6 DUP3 DUP7 ADD PUSH2 0x1CD6 JUMP JUMPDEST SWAP2 POP POP SWAP3 POP SWAP3 SWAP1 POP JUMP JUMPDEST PUSH1 0x0 PUSH2 0x100 DUP3 DUP5 SUB SLT ISZERO PUSH2 0x1D42 JUMPI PUSH2 0x1D41 PUSH2 0x1BB9 JUMP JUMPDEST JUMPDEST DUP2 SWAP1 POP SWAP3 SWAP2 POP POP JUMP JUMPDEST PUSH1 0x0 DUP1 PUSH1 0x0 PUSH1 0x40 DUP5 DUP7 SUB SLT ISZERO PUSH2 0x1D64 JUMPI PUSH2 0x1D63 PUSH2 0x1B24 JUMP JUMPDEST JUMPDEST PUSH1 0x0 DUP5 ADD CALLDATALOAD PUSH8 0xFFFFFFFFFFFFFFFF DUP2 GT ISZERO PUSH2 0x1D82 JUMPI PUSH2 0x1D81 PUSH2 0x1B29 JUMP JUMPDEST JUMPDEST PUSH2 0x1D8E DUP7 DUP3 DUP8 ADD PUSH2 0x1D2B JUMP JUMPDEST SWAP4 POP POP PUSH1 0x20 DUP5 ADD CALLDATALOAD PUSH8 0xFFFFFFFFFFFFFFFF DUP2 GT ISZERO PUSH2 0x1DAF JUMPI PUSH2 0x1DAE PUSH2 0x1B29 JUMP JUMPDEST JUMPDEST PUSH2 0x1DBB DUP7 DUP3 DUP8 ADD PUSH2 0x1BED JUMP JUMPDEST SWAP3 POP SWAP3 POP POP SWAP3 POP SWAP3 POP SWAP3 JUMP JUMPDEST PUSH2 0x1DD0 DUP2 PUSH2 0x1B4E JUMP JUMPDEST DUP3 MSTORE POP POP JUMP JUMPDEST PUSH1 0x0 PUSH1 0x20 DUP3 ADD SWAP1 POP PUSH2 0x1DEB PUSH1 0x0 DUP4 ADD DUP5 PUSH2 0x1DC7 JUMP JUMPDEST SWAP3 SWAP2 POP POP JUMP JUMPDEST PUSH1 0x0 DUP1 PUSH1 0x0 PUSH1 0x60 DUP5 DUP7 SUB SLT ISZERO PUSH2 0x1E0A JUMPI PUSH2 0x1E09 PUSH2 0x1B24 JUMP JUMPDEST JUMPDEST PUSH1 0x0 PUSH2 0x1E18 DUP7 DUP3 DUP8 ADD PUSH2 0x1B77 JUMP JUMPDEST SWAP4 POP POP PUSH1 0x20 PUSH2 0x1E29 DUP7 DUP3 DUP8 ADD PUSH2 0x1B77 JUMP JUMPDEST SWAP3 POP POP PUSH1 0x40 PUSH2 0x1E3A DUP7 DUP3 DUP8 ADD PUSH2 0x1CD6 JUMP JUMPDEST SWAP2 POP POP SWAP3 POP SWAP3 POP SWAP3 JUMP JUMPDEST PUSH1 0x0 PUSH1 0xFF DUP3 AND SWAP1 POP SWAP2 SWAP1 POP JUMP JUMPDEST PUSH2 0x1E5A DUP2 PUSH2 0x1E44 JUMP JUMPDEST DUP2 EQ PUSH2 0x1E65 JUMPI PUSH1 0x0 DUP1 REVERT JUMPDEST POP JUMP JUMPDEST PUSH1 0x0 DUP2 CALLDATALOAD SWAP1 POP PUSH2 0x1E77 DUP2 PUSH2 0x1E51 JUMP JUMPDEST SWAP3 SWAP2 POP POP JUMP JUMPDEST PUSH1 0x0 DUP1 PUSH1 0x0 DUP1 PUSH1 0x0 DUP1 PUSH1 0xC0 DUP8 DUP10 SUB SLT ISZERO PUSH2 0x1E9A JUMPI PUSH2 0x1E99 PUSH2 0x1B24 JUMP JUMPDEST JUMPDEST PUSH1 0x0 PUSH2 0x1EA8 DUP10 DUP3 DUP11 ADD PUSH2 0x1B77 JUMP JUMPDEST SWAP7 POP POP PUSH1 0x20 PUSH2 0x1EB9 DUP10 DUP3 DUP11 ADD PUSH2 0x1B77 JUMP JUMPDEST SWAP6 POP POP PUSH1 0x40 PUSH2 0x1ECA DUP10 DUP3 DUP11 ADD PUSH2 0x1B77 JUMP JUMPDEST SWAP5 POP POP PUSH1 0x60 PUSH2 0x1EDB DUP10 DUP3 DUP11 ADD PUSH2 0x1B77 JUMP JUMPDEST SWAP4 POP POP PUSH1 0x80 PUSH2 0x1EEC DUP10 DUP3 DUP11 ADD PUSH2 0x1CD6 JUMP JUMPDEST SWAP3 POP POP PUSH1 0xA0 PUSH2 0x1EFD DUP10 DUP3 DUP11 ADD PUSH2 0x1E68 JUMP JUMPDEST SWAP2 POP POP SWAP3 SWAP6 POP SWAP3 SWAP6 POP SWAP3 SWAP6 JUMP JUMPDEST PUSH1 0x0 PUSH3 0xFFFFFF DUP3 AND SWAP1 POP SWAP2 SWAP1 POP JUMP JUMPDEST PUSH2 0x1F22 DUP2 PUSH2 0x1F0A JUMP JUMPDEST DUP3 MSTORE POP POP JUMP JUMPDEST PUSH1 0x0 PUSH1 0x40 DUP3 ADD SWAP1 POP PUSH2 0x1F3D PUSH1 0x0 DUP4 ADD DUP6 PUSH2 0x1AF0 JUMP JUMPDEST PUSH2 0x1F4A PUSH1 0x20 DUP4 ADD DUP5 PUSH2 0x1F19 JUMP JUMPDEST SWAP4 SWAP3 POP POP POP JUMP JUMPDEST PUSH1 0x0 DUP1 DUP4 PUSH1 0x1F DUP5 ADD SLT PUSH2 0x1F67 JUMPI PUSH2 0x1F66 PUSH2 0x1BDE JUMP JUMPDEST JUMPDEST DUP3 CALLDATALOAD SWAP1 POP PUSH8 0xFFFFFFFFFFFFFFFF DUP2 GT ISZERO PUSH2 0x1F84 JUMPI PUSH2 0x1F83 PUSH2 0x1BE3 JUMP JUMPDEST JUMPDEST PUSH1 0x20 DUP4 ADD SWAP2 POP DUP4 PUSH1 0x20 DUP3 MUL DUP4 ADD GT ISZERO PUSH2 0x1FA0 JUMPI PUSH2 0x1F9F PUSH2 0x1BE8 JUMP JUMPDEST JUMPDEST SWAP3 POP SWAP3 SWAP1 POP JUMP JUMPDEST PUSH1 0x0 DUP1 PUSH1 0x20 DUP4 DUP6 SUB SLT ISZERO PUSH2 0x1FBE JUMPI PUSH2 0x1FBD PUSH2 0x1B24 JUMP JUMPDEST JUMPDEST PUSH1 0x0 DUP4 ADD CALLDATALOAD PUSH8 0xFFFFFFFFFFFFFFFF DUP2 GT ISZERO PUSH2 0x1FDC JUMPI PUSH2 0x1FDB PUSH2 0x1B29 JUMP JUMPDEST JUMPDEST PUSH2 0x1FE8 DUP6 DUP3 DUP7 ADD PUSH2 0x1F51 JUMP JUMPDEST SWAP3 POP SWAP3 POP POP SWAP3 POP SWAP3 SWAP1 POP JUMP JUMPDEST PUSH1 0x0 DUP2 MLOAD SWAP1 POP SWAP2 SWAP1 POP JUMP JUMPDEST PUSH1 0x0 DUP3 DUP3 MSTORE PUSH1 0x20 DUP3 ADD SWAP1 POP SWAP3 SWAP2 POP POP JUMP JUMPDEST PUSH1 0x0 DUP2 SWAP1 POP PUSH1 0x20 DUP3 ADD SWAP1 POP SWAP2 SWAP1 POP JUMP JUMPDEST PUSH1 0x0 DUP2 MLOAD SWAP1 POP SWAP2 SWAP1 POP JUMP JUMPDEST PUSH1 0x0 DUP3 DUP3 MSTORE PUSH1 0x20 DUP3 ADD SWAP1 POP SWAP3 SWAP2 POP POP JUMP JUMPDEST PUSH1 0x0 JUMPDEST DUP4 DUP2 LT ISZERO PUSH2 0x205A JUMPI DUP1 DUP3 ADD MLOAD DUP2 DUP5 ADD MSTORE PUSH1 0x20 DUP2 ADD SWAP1 POP PUSH2 0x203F JUMP JUMPDEST PUSH1 0x0 DUP5 DUP5 ADD MSTORE POP POP POP POP JUMP JUMPDEST PUSH1 0x0 PUSH1 0x1F NOT PUSH1 0x1F DUP4 ADD AND SWAP1 POP SWAP2 SWAP1 POP JUMP JUMPDEST PUSH1 0x0 PUSH2 0x2082 DUP3 PUSH2 0x2020 JUMP JUMPDEST PUSH2 0x208C DUP2 DUP6 PUSH2 0x202B JUMP JUMPDEST SWAP4 POP PUSH2 0x209C DUP2 DUP6 PUSH1 0x20 DUP7 ADD PUSH2 0x203C JUMP JUMPDEST PUSH2 0x20A5 DUP2 PUSH2 0x2066 JUMP JUMPDEST DUP5 ADD SWAP2 POP POP SWAP3 SWAP2 POP POP JUMP JUMPDEST PUSH1 0x0 PUSH2 0x20BC DUP4 DUP4 PUSH2 0x2077 JUMP JUMPDEST SWAP1 POP SWAP3 SWAP2 POP POP JUMP JUMPDEST PUSH1 0x0 PUSH1 0x20 DUP3 ADD SWAP1 POP SWAP2 SWAP1 POP JUMP JUMPDEST PUSH1 0x0 PUSH2 0x20DC DUP3 PUSH2 0x1FF4 JUMP JUMPDEST PUSH2 0x20E6 DUP2 DUP6 PUSH2 0x1FFF JUMP JUMPDEST SWAP4 POP DUP4 PUSH1 0x20 DUP3 MUL DUP6 ADD PUSH2 0x20F8 DUP6 PUSH2 0x2010 JUMP JUMPDEST DUP1 PUSH1 0x0 JUMPDEST DUP6 DUP2 LT ISZERO PUSH2 0x2134 JUMPI DUP5 DUP5 SUB DUP10 MSTORE DUP2 MLOAD PUSH2 0x2115 DUP6 DUP3 PUSH2 0x20B0 JUMP JUMPDEST SWAP5 POP PUSH2 0x2120 DUP4 PUSH2 0x20C4 JUMP JUMPDEST SWAP3 POP PUSH1 0x20 DUP11 ADD SWAP10 POP POP PUSH1 0x1 DUP2 ADD SWAP1 POP PUSH2 0x20FC JUMP JUMPDEST POP DUP3 SWAP8 POP DUP8 SWAP6 POP POP POP POP POP POP SWAP3 SWAP2 POP POP JUMP JUMPDEST PUSH1 0x0 PUSH1 0x20 DUP3 ADD SWAP1 POP DUP2 DUP2 SUB PUSH1 0x0 DUP4 ADD MSTORE PUSH2 0x2160 DUP2 DUP5 PUSH2 0x20D1 JUMP JUMPDEST SWAP1 POP SWAP3 SWAP2 POP POP JUMP JUMPDEST PUSH1 0x0 DUP2 MLOAD SWAP1 POP PUSH2 0x2177 DUP2 PUSH2 0x1CBF JUMP JUMPDEST SWAP3 SWAP2 POP POP JUMP JUMPDEST PUSH1 0x0 PUSH1 0x20 DUP3 DUP5 SUB SLT ISZERO PUSH2 0x2193 JUMPI PUSH2 0x2192 PUSH2 0x1B24 JUMP JUMPDEST JUMPDEST PUSH1 0x0 PUSH2 0x21A1 DUP5 DUP3 DUP6 ADD PUSH2 0x2168 JUMP JUMPDEST SWAP2 POP POP SWAP3 SWAP2 POP POP JUMP JUMPDEST PUSH1 0x0 DUP2 SWAP1 POP SWAP3 SWAP2 POP POP JUMP JUMPDEST DUP3 DUP2 DUP4 CALLDATACOPY PUSH1 0x0 DUP4 DUP4 ADD MSTORE POP POP POP JUMP JUMPDEST PUSH1 0x0 PUSH2 0x21D0 DUP4 DUP6 PUSH2 0x21AA JUMP JUMPDEST SWAP4 POP PUSH2 0x21DD DUP4 DUP6 DUP5 PUSH2 0x21B5 JUMP JUMPDEST DUP3 DUP5 ADD SWAP1 POP SWAP4 SWAP3 POP POP POP JUMP JUMPDEST PUSH1 0x0 PUSH2 0x21F6 DUP3 DUP5 DUP7 PUSH2 0x21C4 JUMP JUMPDEST SWAP2 POP DUP2 SWAP1 POP SWAP4 SWAP3 POP POP POP JUMP JUMPDEST PUSH1 0x0 DUP3 DUP3 MSTORE PUSH1 0x20 DUP3 ADD SWAP1 POP SWAP3 SWAP2 POP POP JUMP JUMPDEST PUSH32 0x746869732074784461746120616C72656164792070726F636573736564000000 PUSH1 0x0 DUP3 ADD MSTORE POP JUMP JUMPDEST PUSH1 0x0 PUSH2 0x2249 PUSH1 0x1D DUP4 PUSH2 0x2202 JUMP JUMPDEST SWAP2 POP PUSH2 0x2254 DUP3 PUSH2 0x2213 JUMP JUMPDEST PUSH1 0x20 DUP3 ADD SWAP1 POP SWAP2 SWAP1 POP JUMP JUMPDEST PUSH1 0x0 PUSH1 0x20 DUP3 ADD SWAP1 POP DUP2 DUP2 SUB PUSH1 0x0 DUP4 ADD MSTORE PUSH2 0x2278 DUP2 PUSH2 0x223C JUMP JUMPDEST SWAP1 POP SWAP2 SWAP1 POP JUMP JUMPDEST PUSH32 0x696E76616C69642073656E646572000000000000000000000000000000000000 PUSH1 0x0 DUP3 ADD MSTORE POP JUMP JUMPDEST PUSH1 0x0 PUSH2 0x22B5 PUSH1 0xE DUP4 PUSH2 0x2202 JUMP JUMPDEST SWAP2 POP PUSH2 0x22C0 DUP3 PUSH2 0x227F JUMP JUMPDEST PUSH1 0x20 DUP3 ADD SWAP1 POP SWAP2 SWAP1 POP JUMP JUMPDEST PUSH1 0x0 PUSH1 0x20 DUP3 ADD SWAP1 POP DUP2 DUP2 SUB PUSH1 0x0 DUP4 ADD MSTORE PUSH2 0x22E4 DUP2 PUSH2 0x22A8 JUMP JUMPDEST SWAP1 POP SWAP2 SWAP1 POP JUMP JUMPDEST PUSH1 0x0 PUSH2 0x22FA PUSH1 0x20 DUP5 ADD DUP5 PUSH2 0x1B77 JUMP JUMPDEST SWAP1 POP SWAP3 SWAP2 POP POP JUMP JUMPDEST PUSH2 0x230B DUP2 PUSH2 0x1B4E JUMP JUMPDEST DUP3 MSTORE POP POP JUMP JUMPDEST PUSH1 0x0 PUSH2 0x2320 PUSH1 0x20 DUP5 ADD DUP5 PUSH2 0x1CD6 JUMP JUMPDEST SWAP1 POP SWAP3 SWAP2 POP POP JUMP JUMPDEST PUSH2 0x2331 DUP2 PUSH2 0x1AE6 JUMP JUMPDEST DUP3 MSTORE POP POP JUMP JUMPDEST PUSH1 0x0 DUP2 ISZERO ISZERO SWAP1 POP SWAP2 SWAP1 POP JUMP JUMPDEST PUSH2 0x234C DUP2 PUSH2 0x2337 JUMP JUMPDEST DUP2 EQ PUSH2 0x2357 JUMPI PUSH1 0x0 DUP1 REVERT JUMPDEST POP JUMP JUMPDEST PUSH1 0x0 DUP2 CALLDATALOAD SWAP1 POP PUSH2 0x2369 DUP2 PUSH2 0x2343 JUMP JUMPDEST SWAP3 SWAP2 POP POP JUMP JUMPDEST PUSH1 0x0 PUSH2 0x237E PUSH1 0x20 DUP5 ADD DUP5 PUSH2 0x235A JUMP JUMPDEST SWAP1 POP SWAP3 SWAP2 POP POP JUMP JUMPDEST PUSH2 0x238F DUP2 PUSH2 0x2337 JUMP JUMPDEST DUP3 MSTORE POP POP JUMP JUMPDEST PUSH1 0x0 DUP1 REVERT JUMPDEST PUSH1 0x0 DUP1 REVERT JUMPDEST PUSH1 0x0 DUP1 REVERT JUMPDEST PUSH1 0x0 DUP1 DUP4 CALLDATALOAD PUSH1 0x1 PUSH1 0x20 SUB DUP5 CALLDATASIZE SUB SUB DUP2 SLT PUSH2 0x23C1 JUMPI PUSH2 0x23C0 PUSH2 0x239F JUMP JUMPDEST JUMPDEST DUP4 DUP2 ADD SWAP3 POP DUP3 CALLDATALOAD SWAP2 POP PUSH1 0x20 DUP4 ADD SWAP3 POP PUSH8 0xFFFFFFFFFFFFFFFF DUP3 GT ISZERO PUSH2 0x23E9 JUMPI PUSH2 0x23E8 PUSH2 0x2395 JUMP JUMPDEST JUMPDEST PUSH1 0x1 DUP3 MUL CALLDATASIZE SUB DUP4 SGT ISZERO PUSH2 0x23FF JUMPI PUSH2 0x23FE PUSH2 0x239A JUMP JUMPDEST JUMPDEST POP SWAP3 POP SWAP3 SWAP1 POP JUMP JUMPDEST PUSH1 0x0 PUSH2 0x2413 DUP4 DUP6 PUSH2 0x202B JUMP JUMPDEST SWAP4 POP PUSH2 0x2420 DUP4 DUP6 DUP5 PUSH2 0x21B5 JUMP JUMPDEST PUSH2 0x2429 DUP4 PUSH2 0x2066 JUMP JUMPDEST DUP5 ADD SWAP1 POP SWAP4 SWAP3 POP POP POP JUMP JUMPDEST PUSH1 0x0 PUSH2 0x160 DUP4 ADD PUSH2 0x2448 PUSH1 0x0 DUP5 ADD DUP5 PUSH2 0x22EB JUMP JUMPDEST PUSH2 0x2455 PUSH1 0x0 DUP7 ADD DUP3 PUSH2 0x2302 JUMP JUMPDEST POP PUSH2 0x2463 PUSH1 0x20 DUP5 ADD DUP5 PUSH2 0x22EB JUMP JUMPDEST PUSH2 0x2470 PUSH1 0x20 DUP7 ADD DUP3 PUSH2 0x2302 JUMP JUMPDEST POP PUSH2 0x247E PUSH1 0x40 DUP5 ADD DUP5 PUSH2 0x2311 JUMP JUMPDEST PUSH2 0x248B PUSH1 0x40 DUP7 ADD DUP3 PUSH2 0x2328 JUMP JUMPDEST POP PUSH2 0x2499 PUSH1 0x60 DUP5 ADD DUP5 PUSH2 0x2311 JUMP JUMPDEST PUSH2 0x24A6 PUSH1 0x60 DUP7 ADD DUP3 PUSH2 0x2328 JUMP JUMPDEST POP PUSH2 0x24B4 PUSH1 0x80 DUP5 ADD DUP5 PUSH2 0x2311 JUMP JUMPDEST PUSH2 0x24C1 PUSH1 0x80 DUP7 ADD DUP3 PUSH2 0x2328 JUMP JUMPDEST POP PUSH2 0x24CF PUSH1 0xA0 DUP5 ADD DUP5 PUSH2 0x236F JUMP JUMPDEST PUSH2 0x24DC PUSH1 0xA0 DUP7 ADD DUP3 PUSH2 0x2386 JUMP JUMPDEST POP PUSH2 0x24EA PUSH1 0xC0 DUP5 ADD DUP5 PUSH2 0x22EB JUMP JUMPDEST PUSH2 0x24F7 PUSH1 0xC0 DUP7 ADD DUP3 PUSH2 0x2302 JUMP JUMPDEST POP PUSH2 0x2505 PUSH1 0xE0 DUP5 ADD DUP5 PUSH2 0x23A4 JUMP JUMPDEST DUP6 DUP4 SUB PUSH1 0xE0 DUP8 ADD MSTORE PUSH2 0x2518 DUP4 DUP3 DUP5 PUSH2 0x2407 JUMP JUMPDEST SWAP3 POP POP POP PUSH2 0x252A PUSH2 0x100 DUP5 ADD DUP5 PUSH2 0x22EB JUMP JUMPDEST PUSH2 0x2538 PUSH2 0x100 DUP7 ADD DUP3 PUSH2 0x2302 JUMP JUMPDEST POP PUSH2 0x2547 PUSH2 0x120 DUP5 ADD DUP5 PUSH2 0x22EB JUMP JUMPDEST PUSH2 0x2555 PUSH2 0x120 DUP7 ADD DUP3 PUSH2 0x2302 JUMP JUMPDEST POP PUSH2 0x2564 PUSH2 0x140 DUP5 ADD DUP5 PUSH2 0x236F JUMP JUMPDEST PUSH2 0x2572 PUSH2 0x140 DUP7 ADD DUP3 PUSH2 0x2386 JUMP JUMPDEST POP DUP1 SWAP2 POP POP SWAP3 SWAP2 POP POP JUMP JUMPDEST PUSH1 0x0 PUSH1 0x20 DUP3 ADD SWAP1 POP DUP2 DUP2 SUB PUSH1 0x0 DUP4 ADD MSTORE PUSH2 0x2597 DUP2 DUP5 PUSH2 0x2434 JUMP JUMPDEST SWAP1 POP SWAP3 SWAP2 POP POP JUMP JUMPDEST PUSH1 0x0 PUSH1 0x20 DUP3 DUP5 SUB SLT ISZERO PUSH2 0x25B5 JUMPI PUSH2 0x25B4 PUSH2 0x1B24 JUMP JUMPDEST JUMPDEST PUSH1 0x0 PUSH2 0x25C3 DUP5 DUP3 DUP6 ADD PUSH2 0x235A JUMP JUMPDEST SWAP2 POP POP SWAP3 SWAP2 POP POP JUMP JUMPDEST PUSH32 0x696E73756666696369656E742076616C75650000000000000000000000000000 PUSH1 0x0 DUP3 ADD MSTORE POP JUMP JUMPDEST PUSH1 0x0 PUSH2 0x2602 PUSH1 0x12 DUP4 PUSH2 0x2202 JUMP JUMPDEST SWAP2 POP PUSH2 0x260D DUP3 PUSH2 0x25CC JUMP JUMPDEST PUSH1 0x20 DUP3 ADD SWAP1 POP SWAP2 SWAP1 POP JUMP JUMPDEST PUSH1 0x0 PUSH1 0x20 DUP3 ADD SWAP1 POP DUP2 DUP2 SUB PUSH1 0x0 DUP4 ADD MSTORE PUSH2 0x2631 DUP2 PUSH2 0x25F5 JUMP JUMPDEST SWAP1 POP SWAP2 SWAP1 POP JUMP JUMPDEST PUSH1 0x0 DUP1 REVERT JUMPDEST PUSH1 0x0 DUP1 REVERT JUMPDEST PUSH1 0x0 DUP1 REVERT JUMPDEST PUSH1 0x0 DUP1 DUP4 CALLDATALOAD PUSH1 0x1 PUSH1 0x20 SUB DUP5 CALLDATASIZE SUB SUB DUP2 SLT PUSH2 0x2664 JUMPI PUSH2 0x2663 PUSH2 0x2638 JUMP JUMPDEST JUMPDEST DUP1 DUP5 ADD SWAP3 POP DUP3 CALLDATALOAD SWAP2 POP PUSH8 0xFFFFFFFFFFFFFFFF DUP3 GT ISZERO PUSH2 0x2686 JUMPI PUSH2 0x2685 PUSH2 0x263D JUMP JUMPDEST JUMPDEST PUSH1 0x20 DUP4 ADD SWAP3 POP PUSH1 0x1 DUP3 MUL CALLDATASIZE SUB DUP4 SGT ISZERO PUSH2 0x26A2 JUMPI PUSH2 0x26A1 PUSH2 0x2642 JUMP JUMPDEST JUMPDEST POP SWAP3 POP SWAP3 SWAP1 POP JUMP JUMPDEST PUSH32 0x4E487B7100000000000000000000000000000000000000000000000000000000 PUSH1 0x0 MSTORE PUSH1 0x11 PUSH1 0x4 MSTORE PUSH1 0x24 PUSH1 0x0 REVERT JUMPDEST PUSH1 0x0 PUSH2 0x26E4 DUP3 PUSH2 0x1AE6 JUMP JUMPDEST SWAP2 POP PUSH2 0x26EF DUP4 PUSH2 0x1AE6 JUMP JUMPDEST SWAP3 POP DUP3 DUP3 SUB SWAP1 POP DUP2 DUP2 GT ISZERO PUSH2 0x2707 JUMPI PUSH2 0x2706 PUSH2 0x26AA JUMP JUMPDEST JUMPDEST SWAP3 SWAP2 POP POP JUMP JUMPDEST PUSH1 0x0 PUSH2 0x100 DUP4 ADD PUSH2 0x2721 PUSH1 0x0 DUP5 ADD DUP5 PUSH2 0x22EB JUMP JUMPDEST PUSH2 0x272E PUSH1 0x0 DUP7 ADD DUP3 PUSH2 0x2302 JUMP JUMPDEST POP PUSH2 0x273C PUSH1 0x20 DUP5 ADD DUP5 PUSH2 0x22EB JUMP JUMPDEST PUSH2 0x2749 PUSH1 0x20 DUP7 ADD DUP3 PUSH2 0x2302 JUMP JUMPDEST POP PUSH2 0x2757 PUSH1 0x40 DUP5 ADD DUP5 PUSH2 0x22EB JUMP JUMPDEST PUSH2 0x2764 PUSH1 0x40 DUP7 ADD DUP3 PUSH2 0x2302 JUMP JUMPDEST POP PUSH2 0x2772 PUSH1 0x60 DUP5 ADD DUP5 PUSH2 0x2311 JUMP JUMPDEST PUSH2 0x277F PUSH1 0x60 DUP7 ADD DUP3 PUSH2 0x2328 JUMP JUMPDEST POP PUSH2 0x278D PUSH1 0x80 DUP5 ADD DUP5 PUSH2 0x236F JUMP JUMPDEST PUSH2 0x279A PUSH1 0x80 DUP7 ADD DUP3 PUSH2 0x2386 JUMP JUMPDEST POP PUSH2 0x27A8 PUSH1 0xA0 DUP5 ADD DUP5 PUSH2 0x2311 JUMP JUMPDEST PUSH2 0x27B5 PUSH1 0xA0 DUP7 ADD DUP3 PUSH2 0x2328 JUMP JUMPDEST POP PUSH2 0x27C3 PUSH1 0xC0 DUP5 ADD DUP5 PUSH2 0x2311 JUMP JUMPDEST PUSH2 0x27D0 PUSH1 0xC0 DUP7 ADD DUP3 PUSH2 0x2328 JUMP JUMPDEST POP PUSH2 0x27DE PUSH1 0xE0 DUP5 ADD DUP5 PUSH2 0x23A4 JUMP JUMPDEST DUP6 DUP4 SUB PUSH1 0xE0 DUP8 ADD MSTORE PUSH2 0x27F1 DUP4 DUP3 DUP5 PUSH2 0x2407 JUMP JUMPDEST SWAP3 POP POP POP DUP1 SWAP2 POP POP SWAP3 SWAP2 POP POP JUMP JUMPDEST PUSH1 0x0 PUSH1 0x20 DUP3 ADD SWAP1 POP DUP2 DUP2 SUB PUSH1 0x0 DUP4 ADD MSTORE PUSH2 0x2819 DUP2 DUP5 PUSH2 0x270D JUMP JUMPDEST SWAP1 POP SWAP3 SWAP2 POP POP JUMP JUMPDEST PUSH1 0x0 PUSH2 0x282C DUP3 PUSH2 0x1AE6 JUMP JUMPDEST SWAP2 POP PUSH2 0x2837 DUP4 PUSH2 0x1AE6 JUMP JUMPDEST SWAP3 POP DUP3 DUP3 ADD SWAP1 POP DUP1 DUP3 GT ISZERO PUSH2 0x284F JUMPI PUSH2 0x284E PUSH2 0x26AA JUMP JUMPDEST JUMPDEST SWAP3 SWAP2 POP POP JUMP JUMPDEST PUSH1 0x0 DUP3 DUP3 MSTORE PUSH1 0x20 DUP3 ADD SWAP1 POP SWAP3 SWAP2 POP POP JUMP JUMPDEST PUSH1 0x0 PUSH2 0x2872 DUP4 DUP6 PUSH2 0x2855 JUMP JUMPDEST SWAP4 POP PUSH2 0x287F DUP4 DUP6 DUP5 PUSH2 0x21B5 JUMP JUMPDEST PUSH2 0x2888 DUP4 PUSH2 0x2066 JUMP JUMPDEST DUP5 ADD SWAP1 POP SWAP4 SWAP3 POP POP POP JUMP JUMPDEST PUSH1 0x0 PUSH1 0x40 DUP3 ADD SWAP1 POP DUP2 DUP2 SUB PUSH1 0x0 DUP4 ADD MSTORE PUSH2 0x28AE DUP2 DUP6 DUP8 PUSH2 0x2866 JUMP JUMPDEST SWAP1 POP PUSH2 0x28BD PUSH1 0x20 DUP4 ADD DUP5 PUSH2 0x1AF0 JUMP JUMPDEST SWAP5 SWAP4 POP POP POP POP JUMP JUMPDEST PUSH2 0x28CE DUP2 PUSH2 0x1E44 JUMP JUMPDEST DUP3 MSTORE POP POP JUMP JUMPDEST PUSH1 0x0 PUSH1 0xA0 DUP3 ADD SWAP1 POP PUSH2 0x28E9 PUSH1 0x0 DUP4 ADD DUP9 PUSH2 0x1DC7 JUMP JUMPDEST PUSH2 0x28F6 PUSH1 0x20 DUP4 ADD DUP8 PUSH2 0x1DC7 JUMP JUMPDEST PUSH2 0x2903 PUSH1 0x40 DUP4 ADD DUP7 PUSH2 0x1DC7 JUMP JUMPDEST PUSH2 0x2910 PUSH1 0x60 DUP4 ADD DUP6 PUSH2 0x1AF0 JUMP JUMPDEST PUSH2 0x291D PUSH1 0x80 DUP4 ADD DUP5 PUSH2 0x28C5 JUMP JUMPDEST SWAP7 SWAP6 POP POP POP POP POP POP JUMP JUMPDEST PUSH2 0x2930 DUP2 PUSH2 0x1F0A JUMP JUMPDEST DUP2 EQ PUSH2 0x293B JUMPI PUSH1 0x0 DUP1 REVERT JUMPDEST POP JUMP JUMPDEST PUSH1 0x0 DUP2 MLOAD SWAP1 POP PUSH2 0x294D DUP2 PUSH2 0x2927 JUMP JUMPDEST SWAP3 SWAP2 POP POP JUMP JUMPDEST PUSH1 0x0 DUP1 PUSH1 0x40 DUP4 DUP6 SUB SLT ISZERO PUSH2 0x296A JUMPI PUSH2 0x2969 PUSH2 0x1B24 JUMP JUMPDEST JUMPDEST PUSH1 0x0 PUSH2 0x2978 DUP6 DUP3 DUP7 ADD PUSH2 0x2168 JUMP JUMPDEST SWAP3 POP POP PUSH1 0x20 PUSH2 0x2989 DUP6 DUP3 DUP7 ADD PUSH2 0x293E JUMP JUMPDEST SWAP2 POP POP SWAP3 POP SWAP3 SWAP1 POP JUMP JUMPDEST PUSH32 0x4E487B7100000000000000000000000000000000000000000000000000000000 PUSH1 0x0 MSTORE PUSH1 0x41 PUSH1 0x4 MSTORE PUSH1 0x24 PUSH1 0x0 REVERT JUMPDEST PUSH32 0x4E487B7100000000000000000000000000000000000000000000000000000000 PUSH1 0x0 MSTORE PUSH1 0x32 PUSH1 0x4 MSTORE PUSH1 0x24 PUSH1 0x0 REVERT JUMPDEST PUSH1 0x0 DUP1 REVERT JUMPDEST PUSH2 0x29FF DUP3 PUSH2 0x2066 JUMP JUMPDEST DUP2 ADD DUP2 DUP2 LT PUSH8 0xFFFFFFFFFFFFFFFF DUP3 GT OR ISZERO PUSH2 0x2A1E JUMPI PUSH2 0x2A1D PUSH2 0x2993 JUMP JUMPDEST JUMPDEST DUP1 PUSH1 0x40 MSTORE POP POP POP JUMP JUMPDEST PUSH1 0x0 PUSH2 0x2A31 PUSH2 0x1B1A JUMP JUMPDEST SWAP1 POP PUSH2 0x2A3D DUP3 DUP3 PUSH2 0x29F6 JUMP JUMPDEST SWAP2 SWAP1 POP JUMP JUMPDEST PUSH1 0x0 PUSH8 0xFFFFFFFFFFFFFFFF DUP3 GT ISZERO PUSH2 0x2A5D JUMPI PUSH2 0x2A5C PUSH2 0x2993 JUMP JUMPDEST JUMPDEST PUSH2 0x2A66 DUP3 PUSH2 0x2066 JUMP JUMPDEST SWAP1 POP PUSH1 0x20 DUP2 ADD SWAP1 POP SWAP2 SWAP1 POP JUMP JUMPDEST PUSH1 0x0 PUSH2 0x2A86 PUSH2 0x2A81 DUP5 PUSH2 0x2A42 JUMP JUMPDEST PUSH2 0x2A27 JUMP JUMPDEST SWAP1 POP DUP3 DUP2 MSTORE PUSH1 0x20 DUP2 ADD DUP5 DUP5 DUP5 ADD GT ISZERO PUSH2 0x2AA2 JUMPI PUSH2 0x2AA1 PUSH2 0x29F1 JUMP JUMPDEST JUMPDEST PUSH2 0x2AAD DUP5 DUP3 DUP6 PUSH2 0x203C JUMP JUMPDEST POP SWAP4 SWAP3 POP POP POP JUMP JUMPDEST PUSH1 0x0 DUP3 PUSH1 0x1F DUP4 ADD SLT PUSH2 0x2ACA JUMPI PUSH2 0x2AC9 PUSH2 0x1BDE JUMP JUMPDEST JUMPDEST DUP2 MLOAD PUSH2 0x2ADA DUP5 DUP3 PUSH1 0x20 DUP7 ADD PUSH2 0x2A73 JUMP JUMPDEST SWAP2 POP POP SWAP3 SWAP2 POP POP JUMP JUMPDEST PUSH1 0x0 PUSH1 0x20 DUP3 DUP5 SUB SLT ISZERO PUSH2 0x2AF9 JUMPI PUSH2 0x2AF8 PUSH2 0x1B24 JUMP JUMPDEST JUMPDEST PUSH1 0x0 DUP3 ADD MLOAD PUSH8 0xFFFFFFFFFFFFFFFF DUP2 GT ISZERO PUSH2 0x2B17 JUMPI PUSH2 0x2B16 PUSH2 0x1B29 JUMP JUMPDEST JUMPDEST PUSH2 0x2B23 DUP5 DUP3 DUP6 ADD PUSH2 0x2AB5 JUMP JUMPDEST SWAP2 POP POP SWAP3 SWAP2 POP POP JUMP JUMPDEST PUSH1 0x0 DUP2 MLOAD SWAP1 POP SWAP2 SWAP1 POP JUMP JUMPDEST PUSH1 0x0 PUSH2 0x2B42 DUP3 PUSH2 0x2B2C JUMP JUMPDEST PUSH2 0x2B4C DUP2 DUP6 PUSH2 0x2202 JUMP JUMPDEST SWAP4 POP PUSH2 0x2B5C DUP2 DUP6 PUSH1 0x20 DUP7 ADD PUSH2 0x203C JUMP JUMPDEST PUSH2 0x2B65 DUP2 PUSH2 0x2066 JUMP JUMPDEST DUP5 ADD SWAP2 POP POP SWAP3 SWAP2 POP POP JUMP JUMPDEST PUSH1 0x0 PUSH1 0x20 DUP3 ADD SWAP1 POP DUP2 DUP2 SUB PUSH1 0x0 DUP4 ADD MSTORE PUSH2 0x2B8A DUP2 DUP5 PUSH2 0x2B37 JUMP JUMPDEST SWAP1 POP SWAP3 SWAP2 POP POP JUMP JUMPDEST PUSH1 0x0 PUSH2 0x2B9D DUP3 PUSH2 0x1AE6 JUMP JUMPDEST SWAP2 POP PUSH32 0xFFFFFFFFFFFFFFFFFFFFFFFFFFFFFFFFFFFFFFFFFFFFFFFFFFFFFFFFFFFFFFFF DUP3 SUB PUSH2 0x2BCF JUMPI PUSH2 0x2BCE PUSH2 0x26AA JUMP JUMPDEST JUMPDEST PUSH1 0x1 DUP3 ADD SWAP1 POP SWAP2 SWAP1 POP JUMP JUMPDEST PUSH32 0x4F776E61626C653A206E6577206F776E657220697320746865207A65726F2061 PUSH1 0x0 DUP3 ADD MSTORE PUSH32 0x6464726573730000000000000000000000000000000000000000000000000000 PUSH1 0x20 DUP3 ADD MSTORE POP JUMP JUMPDEST PUSH1 0x0 PUSH2 0x2C36 PUSH1 0x26 DUP4 PUSH2 0x2202 JUMP JUMPDEST SWAP2 POP PUSH2 0x2C41 DUP3 PUSH2 0x2BDA JUMP JUMPDEST PUSH1 0x40 DUP3 ADD SWAP1 POP SWAP2 SWAP1 POP JUMP JUMPDEST PUSH1 0x0 PUSH1 0x20 DUP3 ADD SWAP1 POP DUP2 DUP2 SUB PUSH1 0x0 DUP4 ADD MSTORE PUSH2 0x2C65 DUP2 PUSH2 0x2C29 JUMP JUMPDEST SWAP1 POP SWAP2 SWAP1 POP JUMP JUMPDEST PUSH32 0x646174612074616D706572656400000000000000000000000000000000000000 PUSH1 0x0 DUP3 ADD MSTORE POP JUMP JUMPDEST PUSH1 0x0 PUSH2 0x2CA2 PUSH1 0xD DUP4 PUSH2 0x2202 JUMP JUMPDEST SWAP2 POP PUSH2 0x2CAD DUP3 PUSH2 0x2C6C JUMP JUMPDEST PUSH1 0x20 DUP3 ADD SWAP1 POP SWAP2 SWAP1 POP JUMP JUMPDEST PUSH1 0x0 PUSH1 0x20 DUP3 ADD SWAP1 POP DUP2 DUP2 SUB PUSH1 0x0 DUP4 ADD MSTORE PUSH2 0x2CD1 DUP2 PUSH2 0x2C95 JUMP JUMPDEST SWAP1 POP SWAP2 SWAP1 POP JUMP JUMPDEST PUSH1 0x0 PUSH1 0x60 DUP3 ADD SWAP1 POP PUSH2 0x2CED PUSH1 0x0 DUP4 ADD DUP7 PUSH2 0x1DC7 JUMP JUMPDEST PUSH2 0x2CFA PUSH1 0x20 DUP4 ADD DUP6 PUSH2 0x1DC7 JUMP JUMPDEST PUSH2 0x2D07 PUSH1 0x40 DUP4 ADD DUP5 PUSH2 0x1AF0 JUMP JUMPDEST SWAP5 SWAP4 POP POP POP POP JUMP JUMPDEST PUSH1 0x0 PUSH2 0x2D1A DUP3 PUSH2 0x2020 JUMP JUMPDEST PUSH2 0x2D24 DUP2 DUP6 PUSH2 0x21AA JUMP JUMPDEST SWAP4 POP PUSH2 0x2D34 DUP2 DUP6 PUSH1 0x20 DUP7 ADD PUSH2 0x203C JUMP JUMPDEST DUP1 DUP5 ADD SWAP2 POP POP SWAP3 SWAP2 POP POP JUMP JUMPDEST PUSH1 0x0 PUSH2 0x2D4C DUP3 DUP5 PUSH2 0x2D0F JUMP JUMPDEST SWAP2 POP DUP2 SWAP1 POP SWAP3 SWAP2 POP POP JUMP JUMPDEST PUSH1 0x0 DUP2 MLOAD SWAP1 POP PUSH2 0x2D66 DUP2 PUSH2 0x2343 JUMP JUMPDEST SWAP3 SWAP2 POP POP JUMP JUMPDEST PUSH1 0x0 PUSH1 0x20 DUP3 DUP5 SUB SLT ISZERO PUSH2 0x2D82 JUMPI PUSH2 0x2D81 PUSH2 0x1B24 JUMP JUMPDEST JUMPDEST PUSH1 0x0 PUSH2 0x2D90 DUP5 DUP3 DUP6 ADD PUSH2 0x2D57 JUMP JUMPDEST SWAP2 POP POP SWAP3 SWAP2 POP POP JUMP JUMPDEST PUSH32 0x5472616E7366657248656C7065723A736166655472616E7366657246726F6D00 PUSH1 0x0 DUP3 ADD MSTORE POP JUMP JUMPDEST PUSH1 0x0 PUSH2 0x2DCF PUSH1 0x1F DUP4 PUSH2 0x2202 JUMP JUMPDEST SWAP2 POP PUSH2 0x2DDA DUP3 PUSH2 0x2D99 JUMP JUMPDEST PUSH1 0x20 DUP3 ADD SWAP1 POP SWAP2 SWAP1 POP JUMP JUMPDEST PUSH1 0x0 PUSH1 0x20 DUP3 ADD SWAP1 POP DUP2 DUP2 SUB PUSH1 0x0 DUP4 ADD MSTORE PUSH2 0x2DFE DUP2 PUSH2 0x2DC2 JUMP JUMPDEST SWAP1 POP SWAP2 SWAP1 POP JUMP JUMPDEST PUSH1 0x0 PUSH1 0x40 DUP3 ADD SWAP1 POP PUSH2 0x2E1A PUSH1 0x0 DUP4 ADD DUP6 PUSH2 0x1DC7 JUMP JUMPDEST PUSH2 0x2E27 PUSH1 0x20 DUP4 ADD DUP5 PUSH2 0x1AF0 JUMP JUMPDEST SWAP4 SWAP3 POP POP POP JUMP JUMPDEST PUSH32 0x5472616E7366657248656C7065723A736166655472616E736665720000000000 PUSH1 0x0 DUP3 ADD MSTORE POP JUMP JUMPDEST PUSH1 0x0 PUSH2 0x2E64 PUSH1 0x1B DUP4 PUSH2 0x2202 JUMP JUMPDEST SWAP2 POP PUSH2 0x2E6F DUP3 PUSH2 0x2E2E JUMP JUMPDEST PUSH1 0x20 DUP3 ADD SWAP1 POP SWAP2 SWAP1 POP JUMP JUMPDEST PUSH1 0x0 PUSH1 0x20 DUP3 ADD SWAP1 POP DUP2 DUP2 SUB PUSH1 0x0 DUP4 ADD MSTORE PUSH2 0x2E93 DUP2 PUSH2 0x2E57 JUMP JUMPDEST SWAP1 POP SWAP2 SWAP1 POP JUMP JUMPDEST PUSH32 0x5472616E7366657248656C7065723A73616665417070726F7665000000000000 PUSH1 0x0 DUP3 ADD MSTORE POP JUMP JUMPDEST PUSH1 0x0 PUSH2 0x2ED0 PUSH1 0x1A DUP4 PUSH2 0x2202 JUMP JUMPDEST SWAP2 POP PUSH2 0x2EDB DUP3 PUSH2 0x2E9A JUMP JUMPDEST PUSH1 0x20 DUP3 ADD SWAP1 POP SWAP2 SWAP1 POP JUMP JUMPDEST PUSH1 0x0 PUSH1 0x20 DUP3 ADD SWAP1 POP DUP2 DUP2 SUB PUSH1 0x0 DUP4 ADD MSTORE PUSH2 0x2EFF DUP2 PUSH2 0x2EC3 JUMP JUMPDEST SWAP1 POP SWAP2 SWAP1 POP JUMP JUMPDEST PUSH32 0x5472616E7366657248656C7065723A736166655472616E736665724554480000 PUSH1 0x0 DUP3 ADD MSTORE POP JUMP JUMPDEST PUSH1 0x0 PUSH2 0x2F3C PUSH1 0x1E DUP4 PUSH2 0x2202 JUMP JUMPDEST SWAP2 POP PUSH2 0x2F47 DUP3 PUSH2 0x2F06 JUMP JUMPDEST PUSH1 0x20 DUP3 ADD SWAP1 POP SWAP2 SWAP1 POP JUMP JUMPDEST PUSH1 0x0 PUSH1 0x20 DUP3 ADD SWAP1 POP DUP2 DUP2 SUB PUSH1 0x0 DUP4 ADD MSTORE PUSH2 0x2F6B DUP2 PUSH2 0x2F2F JUMP JUMPDEST SWAP1 POP SWAP2 SWAP1 POP JUMP JUMPDEST PUSH32 0x45786368616E676541676772656761746F723A3A5361666543616C6C65723A73 PUSH1 0x0 DUP3 ADD MSTORE PUSH32 0x61666543616C6C00000000000000000000000000000000000000000000000000 PUSH1 0x20 DUP3 ADD MSTORE POP JUMP JUMPDEST PUSH1 0x0 PUSH2 0x2FCE PUSH1 0x27 DUP4 PUSH2 0x2202 JUMP JUMPDEST SWAP2 POP PUSH2 0x2FD9 DUP3 PUSH2 0x2F72 JUMP JUMPDEST PUSH1 0x40 DUP3 ADD SWAP1 POP SWAP2 SWAP1 POP JUMP JUMPDEST PUSH1 0x0 PUSH1 0x20 DUP3 ADD SWAP1 POP DUP2 DUP2 SUB PUSH1 0x0 DUP4 ADD MSTORE PUSH2 0x2FFD DUP2 PUSH2 0x2FC1 JUMP JUMPDEST SWAP1 POP SWAP2 SWAP1 POP JUMP JUMPDEST PUSH32 0x4F776E61626C653A2063616C6C6572206973206E6F7420746865206F776E6572 PUSH1 0x0 DUP3 ADD MSTORE POP JUMP JUMPDEST PUSH1 0x0 PUSH2 0x303A PUSH1 0x20 DUP4 PUSH2 0x2202 JUMP JUMPDEST SWAP2 POP PUSH2 0x3045 DUP3 PUSH2 0x3004 JUMP JUMPDEST PUSH1 0x20 DUP3 ADD SWAP1 POP SWAP2 SWAP1 POP JUMP JUMPDEST PUSH1 0x0 PUSH1 0x20 DUP3 ADD SWAP1 POP DUP2 DUP2 SUB PUSH1 0x0 DUP4 ADD MSTORE PUSH2 0x3069 DUP2 PUSH2 0x302D JUMP JUMPDEST SWAP1 POP SWAP2 SWAP1 POP JUMP JUMPDEST PUSH32 0x4E487B7100000000000000000000000000000000000000000000000000000000 PUSH1 0x0 MSTORE PUSH1 0x21 PUSH1 0x4 MSTORE PUSH1 0x24 PUSH1 0x0 REVERT JUMPDEST PUSH32 0x45434453413A20696E76616C6964207369676E61747572650000000000000000 PUSH1 0x0 DUP3 ADD MSTORE POP JUMP JUMPDEST PUSH1 0x0 PUSH2 0x30D5 PUSH1 0x18 DUP4 PUSH2 0x2202 JUMP JUMPDEST SWAP2 POP PUSH2 0x30E0 DUP3 PUSH2 0x309F JUMP JUMPDEST PUSH1 0x20 DUP3 ADD SWAP1 POP SWAP2 SWAP1 POP JUMP JUMPDEST PUSH1 0x0 PUSH1 0x20 DUP3 ADD SWAP1 POP DUP2 DUP2 SUB PUSH1 0x0 DUP4 ADD MSTORE PUSH2 0x3104 DUP2 PUSH2 0x30C8 JUMP JUMPDEST SWAP1 POP SWAP2 SWAP1 POP JUMP JUMPDEST PUSH32 0x45434453413A20696E76616C6964207369676E6174757265206C656E67746800 PUSH1 0x0 DUP3 ADD MSTORE POP JUMP JUMPDEST PUSH1 0x0 PUSH2 0x3141 PUSH1 0x1F DUP4 PUSH2 0x2202 JUMP JUMPDEST SWAP2 POP PUSH2 0x314C DUP3 PUSH2 0x310B JUMP JUMPDEST PUSH1 0x20 DUP3 ADD SWAP1 POP SWAP2 SWAP1 POP JUMP JUMPDEST PUSH1 0x0 PUSH1 0x20 DUP3 ADD SWAP1 POP DUP2 DUP2 SUB PUSH1 0x0 DUP4 ADD MSTORE PUSH2 0x3170 DUP2 PUSH2 0x3134 JUMP JUMPDEST SWAP1 POP SWAP2 SWAP1 POP JUMP JUMPDEST PUSH32 0x45434453413A20696E76616C6964207369676E6174757265202773272076616C PUSH1 0x0 DUP3 ADD MSTORE PUSH32 0x7565000000000000000000000000000000000000000000000000000000000000 PUSH1 0x20 DUP3 ADD MSTORE POP JUMP JUMPDEST PUSH1 0x0 PUSH2 0x31D3 PUSH1 0x22 DUP4 PUSH2 0x2202 JUMP JUMPDEST SWAP2 POP PUSH2 0x31DE DUP3 PUSH2 0x3177 JUMP JUMPDEST PUSH1 0x40 DUP3 ADD SWAP1 POP SWAP2 SWAP1 POP JUMP JUMPDEST PUSH1 0x0 PUSH1 0x20 DUP3 ADD SWAP1 POP DUP2 DUP2 SUB PUSH1 0x0 DUP4 ADD MSTORE PUSH2 0x3202 DUP2 PUSH2 0x31C6 JUMP JUMPDEST SWAP1 POP SWAP2 SWAP1 POP JUMP JUMPDEST PUSH1 0x0 DUP2 SWAP1 POP SWAP2 SWAP1 POP JUMP JUMPDEST PUSH2 0x321C DUP2 PUSH2 0x3209 JUMP JUMPDEST DUP3 MSTORE POP POP JUMP JUMPDEST PUSH1 0x0 PUSH1 0x80 DUP3 ADD SWAP1 POP PUSH2 0x3237 PUSH1 0x0 DUP4 ADD DUP8 PUSH2 0x3213 JUMP JUMPDEST PUSH2 0x3244 PUSH1 0x20 DUP4 ADD DUP7 PUSH2 0x28C5 JUMP JUMPDEST PUSH2 0x3251 PUSH1 0x40 DUP4 ADD DUP6 PUSH2 0x3213 JUMP JUMPDEST PUSH2 0x325E PUSH1 0x60 DUP4 ADD DUP5 PUSH2 0x3213 JUMP JUMPDEST SWAP6 SWAP5 POP POP POP POP POP JUMP INVALID LOG2 PUSH5 0x6970667358 0x22 SLT KECCAK256 BYTE 0x25 BALANCE MSIZE 0xED DUP9 PUSH10 0x166ABCE26424F79DAA46 0x4C PUSH9 0x4FDD7BA915238AD83D JUMPI 0xB0 0xC5 0x21 PUSH5 0x736F6C6343 STOP ADDMOD SLT STOP CALLER "
		},
		"gasEstimates": {
			"creation": {
				"codeDepositCost": "2591400",
				"executionCost": "infinite",
				"totalCost": "infinite"
			},
			"external": {
				"Balance(address)": "infinite",
				"BalanceETH()": "385",
				"Bridge((address,address,address,uint256,bool,uint256,uint256,bytes),bytes)": "infinite",
				"ChangeFeeReciever(address)": "27030",
				"Swap((address,address,uint256,uint256,uint256,bool,address,bytes,address,address,bool),bytes)": "infinite",
				"Withdraw(address,address,uint256)": "infinite",
				"WithdrawETH(address,uint256)": "infinite",
				"estimateAmountOut(address,address,address,address,uint256,uint8)": "infinite",
				"feeReciever()": "2602",
				"multicall(bytes[])": "infinite",
				"owner()": "2545",
				"renounceOwnership()": "30487",
				"swapAmountOut()": "2453",
				"transferOwnership(address)": "30810"
			}
		},
		"methodIdentifiers": {
			"Balance(address)": "239fcf0f",
			"BalanceETH()": "231da50d",
			"Bridge((address,address,address,uint256,bool,uint256,uint256,bytes),bytes)": "5cedfda0",
			"ChangeFeeReciever(address)": "ddd0fcd5",
			"Swap((address,address,uint256,uint256,uint256,bool,address,bytes,address,address,bool),bytes)": "3f464ff5",
			"Withdraw(address,address,uint256)": "9b1bfa7f",
			"WithdrawETH(address,uint256)": "566e45b1",
			"estimateAmountOut(address,address,address,address,uint256,uint8)": "a299ed7d",
			"feeReciever()": "f61db740",
			"multicall(bytes[])": "ac9650d8",
			"owner()": "8da5cb5b",
			"renounceOwnership()": "715018a6",
			"swapAmountOut()": "22cedf7d",
			"transferOwnership(address)": "f2fde38b"
		}
	},
	"abi": [
		{
			"inputs": [],
			"stateMutability": "nonpayable",
			"type": "constructor"
		},
		{
			"anonymous": false,
			"inputs": [
				{
					"indexed": true,
					"internalType": "address",
					"name": "previousOwner",
					"type": "address"
				},
				{
					"indexed": true,
					"internalType": "address",
					"name": "newOwner",
					"type": "address"
				}
			],
			"name": "OwnershipTransferred",
			"type": "event"
		},
		{
			"inputs": [
				{
					"internalType": "address",
					"name": "token",
					"type": "address"
				}
			],
			"name": "Balance",
			"outputs": [
				{
					"internalType": "uint256",
					"name": "",
					"type": "uint256"
				}
			],
			"stateMutability": "view",
			"type": "function"
		},
		{
			"inputs": [],
			"name": "BalanceETH",
			"outputs": [
				{
					"internalType": "uint256",
					"name": "",
					"type": "uint256"
				}
			],
			"stateMutability": "view",
			"type": "function"
		},
		{
			"inputs": [
				{
					"components": [
						{
							"internalType": "address",
							"name": "bridge",
							"type": "address"
						},
						{
							"internalType": "address",
							"name": "tokenIn",
							"type": "address"
						},
						{
							"internalType": "address",
							"name": "sender",
							"type": "address"
						},
						{
							"internalType": "uint256",
							"name": "bridgeFee",
							"type": "uint256"
						},
						{
							"internalType": "bool",
							"name": "afterSwap",
							"type": "bool"
						},
						{
							"internalType": "uint256",
							"name": "amountIn",
							"type": "uint256"
						},
						{
							"internalType": "uint256",
							"name": "feeAmount",
							"type": "uint256"
						},
						{
							"internalType": "bytes",
							"name": "bridgeData",
							"type": "bytes"
						}
					],
					"internalType": "struct IBridgeAggregator.bridgeInput",
					"name": "data",
					"type": "tuple"
				},
				{
					"internalType": "bytes",
					"name": "sig",
					"type": "bytes"
				}
			],
			"name": "Bridge",
			"outputs": [],
			"stateMutability": "payable",
			"type": "function"
		},
		{
			"inputs": [
				{
					"internalType": "address",
					"name": "_feeReciever",
					"type": "address"
				}
			],
			"name": "ChangeFeeReciever",
			"outputs": [],
			"stateMutability": "nonpayable",
			"type": "function"
		},
		{
			"inputs": [
				{
					"components": [
						{
							"internalType": "address",
							"name": "tokenIn",
							"type": "address"
						},
						{
							"internalType": "address",
							"name": "tokenOut",
							"type": "address"
						},
						{
							"internalType": "uint256",
							"name": "totalAmount",
							"type": "uint256"
						},
						{
							"internalType": "uint256",
							"name": "feeAmount",
							"type": "uint256"
						},
						{
							"internalType": "uint256",
							"name": "amountIn",
							"type": "uint256"
						},
						{
							"internalType": "bool",
							"name": "fromContract",
							"type": "bool"
						},
						{
							"internalType": "address",
							"name": "swapper",
							"type": "address"
						},
						{
							"internalType": "bytes",
							"name": "swapperData",
							"type": "bytes"
						},
						{
							"internalType": "address",
							"name": "sender",
							"type": "address"
						},
						{
							"internalType": "address",
							"name": "receiver",
							"type": "address"
						},
						{
							"internalType": "bool",
							"name": "native",
							"type": "bool"
						}
					],
					"internalType": "struct IExchangeAggregator.swapInput",
					"name": "data",
					"type": "tuple"
				},
				{
					"internalType": "bytes",
					"name": "sig",
					"type": "bytes"
				}
			],
			"name": "Swap",
			"outputs": [],
			"stateMutability": "payable",
			"type": "function"
		},
		{
			"inputs": [
				{
					"internalType": "address",
					"name": "token",
					"type": "address"
				},
				{
					"internalType": "address",
					"name": "to",
					"type": "address"
				},
				{
					"internalType": "uint256",
					"name": "amount",
					"type": "uint256"
				}
			],
			"name": "Withdraw",
			"outputs": [],
			"stateMutability": "nonpayable",
			"type": "function"
		},
		{
			"inputs": [
				{
					"internalType": "address",
					"name": "to",
					"type": "address"
				},
				{
					"internalType": "uint256",
					"name": "amount",
					"type": "uint256"
				}
			],
			"name": "WithdrawETH",
			"outputs": [],
			"stateMutability": "payable",
			"type": "function"
		},
		{
			"inputs": [
				{
					"internalType": "address",
					"name": "priceProvider",
					"type": "address"
				},
				{
					"internalType": "address",
					"name": "provider",
					"type": "address"
				},
				{
					"internalType": "address",
					"name": "tA",
					"type": "address"
				},
				{
					"internalType": "address",
					"name": "tB",
					"type": "address"
				},
				{
					"internalType": "uint256",
					"name": "amountIn",
					"type": "uint256"
				},
				{
					"internalType": "uint8",
					"name": "version",
					"type": "uint8"
				}
			],
			"name": "estimateAmountOut",
			"outputs": [
				{
					"internalType": "uint256",
					"name": "amountOut",
					"type": "uint256"
				},
				{
					"internalType": "uint24",
					"name": "fee",
					"type": "uint24"
				}
			],
			"stateMutability": "view",
			"type": "function"
		},
		{
			"inputs": [],
			"name": "feeReciever",
			"outputs": [
				{
					"internalType": "address",
					"name": "",
					"type": "address"
				}
			],
			"stateMutability": "view",
			"type": "function"
		},
		{
			"inputs": [
				{
					"internalType": "bytes[]",
					"name": "data",
					"type": "bytes[]"
				}
			],
			"name": "multicall",
			"outputs": [
				{
					"internalType": "bytes[]",
					"name": "results",
					"type": "bytes[]"
				}
			],
			"stateMutability": "payable",
			"type": "function"
		},
		{
			"inputs": [],
			"name": "owner",
			"outputs": [
				{
					"internalType": "address",
					"name": "",
					"type": "address"
				}
			],
			"stateMutability": "view",
			"type": "function"
		},
		{
			"inputs": [],
			"name": "renounceOwnership",
			"outputs": [],
			"stateMutability": "nonpayable",
			"type": "function"
		},
		{
			"inputs": [],
			"name": "swapAmountOut",
			"outputs": [
				{
					"internalType": "uint256",
					"name": "",
					"type": "uint256"
				}
			],
			"stateMutability": "view",
			"type": "function"
		},
		{
			"inputs": [
				{
					"internalType": "address",
					"name": "newOwner",
					"type": "address"
				}
			],
			"name": "transferOwnership",
			"outputs": [],
			"stateMutability": "nonpayable",
			"type": "function"
		},
		{
			"stateMutability": "payable",
			"type": "receive"
		}
	]
}