{
	"contracts/libraries/UniswapV3.sol": {
		"UniswapV3": {
			"abi": [
				{
					"inputs": [
						{
							"internalType": "address",
							"name": "provider",
							"type": "address"
						},
						{
							"internalType": "address",
							"name": "tIn",
							"type": "address"
						},
						{
							"internalType": "address",
							"name": "tOut",
							"type": "address"
						}
					],
					"name": "sqrtPrice",
					"outputs": [
						{
							"internalType": "uint256",
							"name": "",
							"type": "uint256"
						}
					],
					"stateMutability": "view",
					"type": "function"
				}
			],
			"devdoc": {
				"kind": "dev",
				"methods": {},
				"version": 1
			},
			"evm": {
				"assembly": "    /* \"contracts/libraries/UniswapV3.sol\":232:597  library UniswapV3 {... */\n  dataSize(sub_0)\n  dataOffset(sub_0)\n  0x0b\n  dup3\n  dup3\n  dup3\n  codecopy\n  dup1\n  mload\n  0x00\n  byte\n  0x73\n  eq\n  tag_1\n  jumpi\n  mstore(0x00, 0x4e487b7100000000000000000000000000000000000000000000000000000000)\n  mstore(0x04, 0x00)\n  revert(0x00, 0x24)\ntag_1:\n  mstore(0x00, address)\n  0x73\n  dup2\n  mstore8\n  dup3\n  dup2\n  return\nstop\n\nsub_0: assembly {\n        /* \"contracts/libraries/UniswapV3.sol\":232:597  library UniswapV3 {... */\n      eq(address, deployTimeAddress())\n      mstore(0x40, 0x80)\n      jumpi(tag_1, lt(calldatasize, 0x04))\n      shr(0xe0, calldataload(0x00))\n      dup1\n      0xedf15a9a\n      eq\n      tag_2\n      jumpi\n    tag_1:\n      0x00\n      dup1\n      revert\n        /* \"contracts/libraries/UniswapV3.sol\":261:595  function sqrtPrice(address provider,address tIn,address tOut) external view returns (uint256){... */\n    tag_2:\n      tag_3\n      0x04\n      dup1\n      calldatasize\n      sub\n      dup2\n      add\n      swap1\n      tag_4\n      swap2\n      swap1\n      tag_5\n      jump\t// in\n    tag_4:\n      tag_6\n      jump\t// in\n    tag_3:\n      mload(0x40)\n      tag_7\n      swap2\n      swap1\n      tag_8\n      jump\t// in\n    tag_7:\n      mload(0x40)\n      dup1\n      swap2\n      sub\n      swap1\n      return\n    tag_6:\n        /* \"contracts/libraries/UniswapV3.sol\":346:353  uint256 */\n      0x00\n        /* \"contracts/libraries/UniswapV3.sol\":368:380  address pool */\n      dup1\n        /* \"contracts/libraries/UniswapV3.sol\":401:409  provider */\n      dup5\n        /* \"contracts/libraries/UniswapV3.sol\":383:418  IUniswapV3Factory(provider).getPool */\n      0xffffffffffffffffffffffffffffffffffffffff\n      and\n      0x1698ee82\n        /* \"contracts/libraries/UniswapV3.sol\":419:422  tIn */\n      dup6\n        /* \"contracts/libraries/UniswapV3.sol\":423:427  tOut */\n      dup6\n        /* \"contracts/libraries/UniswapV3.sol\":428:432  3000 */\n      0x0bb8\n        /* \"contracts/libraries/UniswapV3.sol\":383:433  IUniswapV3Factory(provider).getPool(tIn,tOut,3000) */\n      mload(0x40)\n      dup5\n      0xffffffff\n      and\n      0xe0\n      shl\n      dup2\n      mstore\n      0x04\n      add\n      tag_10\n      swap4\n      swap3\n      swap2\n      swap1\n      tag_11\n      jump\t// in\n    tag_10:\n      0x20\n      mload(0x40)\n      dup1\n      dup4\n      sub\n      dup2\n      dup7\n      gas\n      staticcall\n      iszero\n      dup1\n      iszero\n      tag_13\n      jumpi\n      returndatasize\n      0x00\n      dup1\n      returndatacopy\n      revert(0x00, returndatasize)\n    tag_13:\n      pop\n      pop\n      pop\n      pop\n      mload(0x40)\n      returndatasize\n      not(0x1f)\n      0x1f\n      dup3\n      add\n      and\n      dup3\n      add\n      dup1\n      0x40\n      mstore\n      pop\n      dup2\n      add\n      swap1\n      tag_14\n      swap2\n      swap1\n      tag_15\n      jump\t// in\n    tag_14:\n        /* \"contracts/libraries/UniswapV3.sol\":368:433  address pool = IUniswapV3Factory(provider).getPool(tIn,tOut,3000) */\n      swap1\n      pop\n        /* \"contracts/libraries/UniswapV3.sol\":467:468  0 */\n      0x00\n        /* \"contracts/libraries/UniswapV3.sol\":451:469  pool == address(0) */\n      0xffffffffffffffffffffffffffffffffffffffff\n      and\n        /* \"contracts/libraries/UniswapV3.sol\":451:455  pool */\n      dup2\n        /* \"contracts/libraries/UniswapV3.sol\":451:469  pool == address(0) */\n      0xffffffffffffffffffffffffffffffffffffffff\n      and\n      sub\n        /* \"contracts/libraries/UniswapV3.sol\":447:479  if (pool == address(0)) return 0 */\n      tag_16\n      jumpi\n        /* \"contracts/libraries/UniswapV3.sol\":478:479  0 */\n      0x00\n        /* \"contracts/libraries/UniswapV3.sol\":471:479  return 0 */\n      swap2\n      pop\n      pop\n      jump(tag_9)\n        /* \"contracts/libraries/UniswapV3.sol\":447:479  if (pool == address(0)) return 0 */\n    tag_16:\n        /* \"contracts/libraries/UniswapV3.sol\":495:515  uint160 sqrtPriceX96 */\n      0x00\n        /* \"contracts/libraries/UniswapV3.sol\":540:544  pool */\n      dup2\n        /* \"contracts/libraries/UniswapV3.sol\":525:551  IUniswapV3Pool(pool).slot0 */\n      0xffffffffffffffffffffffffffffffffffffffff\n      and\n      0x3850c7bd\n        /* \"contracts/libraries/UniswapV3.sol\":525:553  IUniswapV3Pool(pool).slot0() */\n      mload(0x40)\n      dup2\n      0xffffffff\n      and\n      0xe0\n      shl\n      dup2\n      mstore\n      0x04\n      add\n      0xe0\n      mload(0x40)\n      dup1\n      dup4\n      sub\n      dup2\n      dup7\n      gas\n      staticcall\n      iszero\n      dup1\n      iszero\n      tag_18\n      jumpi\n      returndatasize\n      0x00\n      dup1\n      returndatacopy\n      revert(0x00, returndatasize)\n    tag_18:\n      pop\n      pop\n      pop\n      pop\n      mload(0x40)\n      returndatasize\n      not(0x1f)\n      0x1f\n      dup3\n      add\n      and\n      dup3\n      add\n      dup1\n      0x40\n      mstore\n      pop\n      dup2\n      add\n      swap1\n      tag_19\n      swap2\n      swap1\n      tag_20\n      jump\t// in\n    tag_19:\n        /* \"contracts/libraries/UniswapV3.sol\":494:553  (uint160 sqrtPriceX96,,,,,,) = IUniswapV3Pool(pool).slot0() */\n      pop\n      pop\n      pop\n      pop\n      pop\n      pop\n      swap1\n      pop\n        /* \"contracts/libraries/UniswapV3.sol\":575:587  sqrtPriceX96 */\n      dup1\n        /* \"contracts/libraries/UniswapV3.sol\":568:587  return sqrtPriceX96 */\n      0xffffffffffffffffffffffffffffffffffffffff\n      and\n      swap3\n      pop\n      pop\n      pop\n        /* \"contracts/libraries/UniswapV3.sol\":261:595  function sqrtPrice(address provider,address tIn,address tOut) external view returns (uint256){... */\n    tag_9:\n      swap4\n      swap3\n      pop\n      pop\n      pop\n      jump\t// out\n        /* \"#utility.yul\":88:205   */\n    tag_22:\n        /* \"#utility.yul\":197:198   */\n      0x00\n        /* \"#utility.yul\":194:195   */\n      dup1\n        /* \"#utility.yul\":187:199   */\n      revert\n        /* \"#utility.yul\":334:460   */\n    tag_24:\n        /* \"#utility.yul\":371:378   */\n      0x00\n        /* \"#utility.yul\":411:453   */\n      0xffffffffffffffffffffffffffffffffffffffff\n        /* \"#utility.yul\":404:409   */\n      dup3\n        /* \"#utility.yul\":400:454   */\n      and\n        /* \"#utility.yul\":389:454   */\n      swap1\n      pop\n        /* \"#utility.yul\":334:460   */\n      swap2\n      swap1\n      pop\n      jump\t// out\n        /* \"#utility.yul\":466:562   */\n    tag_25:\n        /* \"#utility.yul\":503:510   */\n      0x00\n        /* \"#utility.yul\":532:556   */\n      tag_57\n        /* \"#utility.yul\":550:555   */\n      dup3\n        /* \"#utility.yul\":532:556   */\n      tag_24\n      jump\t// in\n    tag_57:\n        /* \"#utility.yul\":521:556   */\n      swap1\n      pop\n        /* \"#utility.yul\":466:562   */\n      swap2\n      swap1\n      pop\n      jump\t// out\n        /* \"#utility.yul\":568:690   */\n    tag_26:\n        /* \"#utility.yul\":641:665   */\n      tag_59\n        /* \"#utility.yul\":659:664   */\n      dup2\n        /* \"#utility.yul\":641:665   */\n      tag_25\n      jump\t// in\n    tag_59:\n        /* \"#utility.yul\":634:639   */\n      dup2\n        /* \"#utility.yul\":631:666   */\n      eq\n        /* \"#utility.yul\":621:684   */\n      tag_60\n      jumpi\n        /* \"#utility.yul\":680:681   */\n      0x00\n        /* \"#utility.yul\":677:678   */\n      dup1\n        /* \"#utility.yul\":670:682   */\n      revert\n        /* \"#utility.yul\":621:684   */\n    tag_60:\n        /* \"#utility.yul\":568:690   */\n      pop\n      jump\t// out\n        /* \"#utility.yul\":696:835   */\n    tag_27:\n        /* \"#utility.yul\":742:747   */\n      0x00\n        /* \"#utility.yul\":780:786   */\n      dup2\n        /* \"#utility.yul\":767:787   */\n      calldataload\n        /* \"#utility.yul\":758:787   */\n      swap1\n      pop\n        /* \"#utility.yul\":796:829   */\n      tag_62\n        /* \"#utility.yul\":823:828   */\n      dup2\n        /* \"#utility.yul\":796:829   */\n      tag_26\n      jump\t// in\n    tag_62:\n        /* \"#utility.yul\":696:835   */\n      swap3\n      swap2\n      pop\n      pop\n      jump\t// out\n        /* \"#utility.yul\":841:1460   */\n    tag_5:\n        /* \"#utility.yul\":918:924   */\n      0x00\n        /* \"#utility.yul\":926:932   */\n      dup1\n        /* \"#utility.yul\":934:940   */\n      0x00\n        /* \"#utility.yul\":983:985   */\n      0x60\n        /* \"#utility.yul\":971:980   */\n      dup5\n        /* \"#utility.yul\":962:969   */\n      dup7\n        /* \"#utility.yul\":958:981   */\n      sub\n        /* \"#utility.yul\":954:986   */\n      slt\n        /* \"#utility.yul\":951:1070   */\n      iszero\n      tag_64\n      jumpi\n        /* \"#utility.yul\":989:1068   */\n      tag_65\n      tag_22\n      jump\t// in\n    tag_65:\n        /* \"#utility.yul\":951:1070   */\n    tag_64:\n        /* \"#utility.yul\":1109:1110   */\n      0x00\n        /* \"#utility.yul\":1134:1187   */\n      tag_66\n        /* \"#utility.yul\":1179:1186   */\n      dup7\n        /* \"#utility.yul\":1170:1176   */\n      dup3\n        /* \"#utility.yul\":1159:1168   */\n      dup8\n        /* \"#utility.yul\":1155:1177   */\n      add\n        /* \"#utility.yul\":1134:1187   */\n      tag_27\n      jump\t// in\n    tag_66:\n        /* \"#utility.yul\":1124:1187   */\n      swap4\n      pop\n        /* \"#utility.yul\":1080:1197   */\n      pop\n        /* \"#utility.yul\":1236:1238   */\n      0x20\n        /* \"#utility.yul\":1262:1315   */\n      tag_67\n        /* \"#utility.yul\":1307:1314   */\n      dup7\n        /* \"#utility.yul\":1298:1304   */\n      dup3\n        /* \"#utility.yul\":1287:1296   */\n      dup8\n        /* \"#utility.yul\":1283:1305   */\n      add\n        /* \"#utility.yul\":1262:1315   */\n      tag_27\n      jump\t// in\n    tag_67:\n        /* \"#utility.yul\":1252:1315   */\n      swap3\n      pop\n        /* \"#utility.yul\":1207:1325   */\n      pop\n        /* \"#utility.yul\":1364:1366   */\n      0x40\n        /* \"#utility.yul\":1390:1443   */\n      tag_68\n        /* \"#utility.yul\":1435:1442   */\n      dup7\n        /* \"#utility.yul\":1426:1432   */\n      dup3\n        /* \"#utility.yul\":1415:1424   */\n      dup8\n        /* \"#utility.yul\":1411:1433   */\n      add\n        /* \"#utility.yul\":1390:1443   */\n      tag_27\n      jump\t// in\n    tag_68:\n        /* \"#utility.yul\":1380:1443   */\n      swap2\n      pop\n        /* \"#utility.yul\":1335:1453   */\n      pop\n        /* \"#utility.yul\":841:1460   */\n      swap3\n      pop\n      swap3\n      pop\n      swap3\n      jump\t// out\n        /* \"#utility.yul\":1466:1543   */\n    tag_28:\n        /* \"#utility.yul\":1503:1510   */\n      0x00\n        /* \"#utility.yul\":1532:1537   */\n      dup2\n        /* \"#utility.yul\":1521:1537   */\n      swap1\n      pop\n        /* \"#utility.yul\":1466:1543   */\n      swap2\n      swap1\n      pop\n      jump\t// out\n        /* \"#utility.yul\":1549:1675   */\n    tag_29:\n        /* \"#utility.yul\":1644:1668   */\n      tag_71\n        /* \"#utility.yul\":1662:1667   */\n      dup2\n        /* \"#utility.yul\":1644:1668   */\n      tag_28\n      jump\t// in\n    tag_71:\n        /* \"#utility.yul\":1639:1642   */\n      dup3\n        /* \"#utility.yul\":1632:1669   */\n      mstore\n        /* \"#utility.yul\":1549:1675   */\n      pop\n      pop\n      jump\t// out\n        /* \"#utility.yul\":1681:1919   */\n    tag_8:\n        /* \"#utility.yul\":1782:1786   */\n      0x00\n        /* \"#utility.yul\":1820:1822   */\n      0x20\n        /* \"#utility.yul\":1809:1818   */\n      dup3\n        /* \"#utility.yul\":1805:1823   */\n      add\n        /* \"#utility.yul\":1797:1823   */\n      swap1\n      pop\n        /* \"#utility.yul\":1833:1912   */\n      tag_73\n        /* \"#utility.yul\":1909:1910   */\n      0x00\n        /* \"#utility.yul\":1898:1907   */\n      dup4\n        /* \"#utility.yul\":1894:1911   */\n      add\n        /* \"#utility.yul\":1885:1891   */\n      dup5\n        /* \"#utility.yul\":1833:1912   */\n      tag_29\n      jump\t// in\n    tag_73:\n        /* \"#utility.yul\":1681:1919   */\n      swap3\n      swap2\n      pop\n      pop\n      jump\t// out\n        /* \"#utility.yul\":1925:2043   */\n    tag_30:\n        /* \"#utility.yul\":2012:2036   */\n      tag_75\n        /* \"#utility.yul\":2030:2035   */\n      dup2\n        /* \"#utility.yul\":2012:2036   */\n      tag_25\n      jump\t// in\n    tag_75:\n        /* \"#utility.yul\":2007:2010   */\n      dup3\n        /* \"#utility.yul\":2000:2037   */\n      mstore\n        /* \"#utility.yul\":1925:2043   */\n      pop\n      pop\n      jump\t// out\n        /* \"#utility.yul\":2049:2137   */\n    tag_31:\n        /* \"#utility.yul\":2097:2104   */\n      0x00\n        /* \"#utility.yul\":2126:2131   */\n      dup2\n        /* \"#utility.yul\":2115:2131   */\n      swap1\n      pop\n        /* \"#utility.yul\":2049:2137   */\n      swap2\n      swap1\n      pop\n      jump\t// out\n        /* \"#utility.yul\":2143:2234   */\n    tag_32:\n        /* \"#utility.yul\":2179:2186   */\n      0x00\n        /* \"#utility.yul\":2219:2227   */\n      0xffffff\n        /* \"#utility.yul\":2212:2217   */\n      dup3\n        /* \"#utility.yul\":2208:2228   */\n      and\n        /* \"#utility.yul\":2197:2228   */\n      swap1\n      pop\n        /* \"#utility.yul\":2143:2234   */\n      swap2\n      swap1\n      pop\n      jump\t// out\n        /* \"#utility.yul\":2240:2300   */\n    tag_33:\n        /* \"#utility.yul\":2268:2271   */\n      0x00\n        /* \"#utility.yul\":2289:2294   */\n      dup2\n        /* \"#utility.yul\":2282:2294   */\n      swap1\n      pop\n        /* \"#utility.yul\":2240:2300   */\n      swap2\n      swap1\n      pop\n      jump\t// out\n        /* \"#utility.yul\":2306:2468   */\n    tag_34:\n        /* \"#utility.yul\":2366:2375   */\n      0x00\n        /* \"#utility.yul\":2399:2462   */\n      tag_80\n        /* \"#utility.yul\":2416:2461   */\n      tag_81\n        /* \"#utility.yul\":2425:2460   */\n      tag_82\n        /* \"#utility.yul\":2454:2459   */\n      dup5\n        /* \"#utility.yul\":2425:2460   */\n      tag_31\n      jump\t// in\n    tag_82:\n        /* \"#utility.yul\":2416:2461   */\n      tag_33\n      jump\t// in\n    tag_81:\n        /* \"#utility.yul\":2399:2462   */\n      tag_32\n      jump\t// in\n    tag_80:\n        /* \"#utility.yul\":2386:2462   */\n      swap1\n      pop\n        /* \"#utility.yul\":2306:2468   */\n      swap2\n      swap1\n      pop\n      jump\t// out\n        /* \"#utility.yul\":2474:2625   */\n    tag_35:\n        /* \"#utility.yul\":2571:2618   */\n      tag_84\n        /* \"#utility.yul\":2612:2617   */\n      dup2\n        /* \"#utility.yul\":2571:2618   */\n      tag_34\n      jump\t// in\n    tag_84:\n        /* \"#utility.yul\":2566:2569   */\n      dup3\n        /* \"#utility.yul\":2559:2619   */\n      mstore\n        /* \"#utility.yul\":2474:2625   */\n      pop\n      pop\n      jump\t// out\n        /* \"#utility.yul\":2631:3093   */\n    tag_11:\n        /* \"#utility.yul\":2790:2794   */\n      0x00\n        /* \"#utility.yul\":2828:2830   */\n      0x60\n        /* \"#utility.yul\":2817:2826   */\n      dup3\n        /* \"#utility.yul\":2813:2831   */\n      add\n        /* \"#utility.yul\":2805:2831   */\n      swap1\n      pop\n        /* \"#utility.yul\":2841:2912   */\n      tag_86\n        /* \"#utility.yul\":2909:2910   */\n      0x00\n        /* \"#utility.yul\":2898:2907   */\n      dup4\n        /* \"#utility.yul\":2894:2911   */\n      add\n        /* \"#utility.yul\":2885:2891   */\n      dup7\n        /* \"#utility.yul\":2841:2912   */\n      tag_30\n      jump\t// in\n    tag_86:\n        /* \"#utility.yul\":2922:2994   */\n      tag_87\n        /* \"#utility.yul\":2990:2992   */\n      0x20\n        /* \"#utility.yul\":2979:2988   */\n      dup4\n        /* \"#utility.yul\":2975:2993   */\n      add\n        /* \"#utility.yul\":2966:2972   */\n      dup6\n        /* \"#utility.yul\":2922:2994   */\n      tag_30\n      jump\t// in\n    tag_87:\n        /* \"#utility.yul\":3004:3086   */\n      tag_88\n        /* \"#utility.yul\":3082:3084   */\n      0x40\n        /* \"#utility.yul\":3071:3080   */\n      dup4\n        /* \"#utility.yul\":3067:3085   */\n      add\n        /* \"#utility.yul\":3058:3064   */\n      dup5\n        /* \"#utility.yul\":3004:3086   */\n      tag_35\n      jump\t// in\n    tag_88:\n        /* \"#utility.yul\":2631:3093   */\n      swap5\n      swap4\n      pop\n      pop\n      pop\n      pop\n      jump\t// out\n        /* \"#utility.yul\":3099:3242   */\n    tag_36:\n        /* \"#utility.yul\":3156:3161   */\n      0x00\n        /* \"#utility.yul\":3187:3193   */\n      dup2\n        /* \"#utility.yul\":3181:3194   */\n      mload\n        /* \"#utility.yul\":3172:3194   */\n      swap1\n      pop\n        /* \"#utility.yul\":3203:3236   */\n      tag_90\n        /* \"#utility.yul\":3230:3235   */\n      dup2\n        /* \"#utility.yul\":3203:3236   */\n      tag_26\n      jump\t// in\n    tag_90:\n        /* \"#utility.yul\":3099:3242   */\n      swap3\n      swap2\n      pop\n      pop\n      jump\t// out\n        /* \"#utility.yul\":3248:3599   */\n    tag_15:\n        /* \"#utility.yul\":3318:3324   */\n      0x00\n        /* \"#utility.yul\":3367:3369   */\n      0x20\n        /* \"#utility.yul\":3355:3364   */\n      dup3\n        /* \"#utility.yul\":3346:3353   */\n      dup5\n        /* \"#utility.yul\":3342:3365   */\n      sub\n        /* \"#utility.yul\":3338:3370   */\n      slt\n        /* \"#utility.yul\":3335:3454   */\n      iszero\n      tag_92\n      jumpi\n        /* \"#utility.yul\":3373:3452   */\n      tag_93\n      tag_22\n      jump\t// in\n    tag_93:\n        /* \"#utility.yul\":3335:3454   */\n    tag_92:\n        /* \"#utility.yul\":3493:3494   */\n      0x00\n        /* \"#utility.yul\":3518:3582   */\n      tag_94\n        /* \"#utility.yul\":3574:3581   */\n      dup5\n        /* \"#utility.yul\":3565:3571   */\n      dup3\n        /* \"#utility.yul\":3554:3563   */\n      dup6\n        /* \"#utility.yul\":3550:3572   */\n      add\n        /* \"#utility.yul\":3518:3582   */\n      tag_36\n      jump\t// in\n    tag_94:\n        /* \"#utility.yul\":3508:3582   */\n      swap2\n      pop\n        /* \"#utility.yul\":3464:3592   */\n      pop\n        /* \"#utility.yul\":3248:3599   */\n      swap3\n      swap2\n      pop\n      pop\n      jump\t// out\n        /* \"#utility.yul\":3605:3727   */\n    tag_37:\n        /* \"#utility.yul\":3678:3702   */\n      tag_96\n        /* \"#utility.yul\":3696:3701   */\n      dup2\n        /* \"#utility.yul\":3678:3702   */\n      tag_24\n      jump\t// in\n    tag_96:\n        /* \"#utility.yul\":3671:3676   */\n      dup2\n        /* \"#utility.yul\":3668:3703   */\n      eq\n        /* \"#utility.yul\":3658:3721   */\n      tag_97\n      jumpi\n        /* \"#utility.yul\":3717:3718   */\n      0x00\n        /* \"#utility.yul\":3714:3715   */\n      dup1\n        /* \"#utility.yul\":3707:3719   */\n      revert\n        /* \"#utility.yul\":3658:3721   */\n    tag_97:\n        /* \"#utility.yul\":3605:3727   */\n      pop\n      jump\t// out\n        /* \"#utility.yul\":3733:3876   */\n    tag_38:\n        /* \"#utility.yul\":3790:3795   */\n      0x00\n        /* \"#utility.yul\":3821:3827   */\n      dup2\n        /* \"#utility.yul\":3815:3828   */\n      mload\n        /* \"#utility.yul\":3806:3828   */\n      swap1\n      pop\n        /* \"#utility.yul\":3837:3870   */\n      tag_99\n        /* \"#utility.yul\":3864:3869   */\n      dup2\n        /* \"#utility.yul\":3837:3870   */\n      tag_37\n      jump\t// in\n    tag_99:\n        /* \"#utility.yul\":3733:3876   */\n      swap3\n      swap2\n      pop\n      pop\n      jump\t// out\n        /* \"#utility.yul\":3882:3972   */\n    tag_39:\n        /* \"#utility.yul\":3917:3924   */\n      0x00\n        /* \"#utility.yul\":3960:3965   */\n      dup2\n        /* \"#utility.yul\":3957:3958   */\n      0x02\n        /* \"#utility.yul\":3946:3966   */\n      signextend\n        /* \"#utility.yul\":3935:3966   */\n      swap1\n      pop\n        /* \"#utility.yul\":3882:3972   */\n      swap2\n      swap1\n      pop\n      jump\t// out\n        /* \"#utility.yul\":3978:4096   */\n    tag_40:\n        /* \"#utility.yul\":4049:4071   */\n      tag_102\n        /* \"#utility.yul\":4065:4070   */\n      dup2\n        /* \"#utility.yul\":4049:4071   */\n      tag_39\n      jump\t// in\n    tag_102:\n        /* \"#utility.yul\":4042:4047   */\n      dup2\n        /* \"#utility.yul\":4039:4072   */\n      eq\n        /* \"#utility.yul\":4029:4090   */\n      tag_103\n      jumpi\n        /* \"#utility.yul\":4086:4087   */\n      0x00\n        /* \"#utility.yul\":4083:4084   */\n      dup1\n        /* \"#utility.yul\":4076:4088   */\n      revert\n        /* \"#utility.yul\":4029:4090   */\n    tag_103:\n        /* \"#utility.yul\":3978:4096   */\n      pop\n      jump\t// out\n        /* \"#utility.yul\":4102:4241   */\n    tag_41:\n        /* \"#utility.yul\":4157:4162   */\n      0x00\n        /* \"#utility.yul\":4188:4194   */\n      dup2\n        /* \"#utility.yul\":4182:4195   */\n      mload\n        /* \"#utility.yul\":4173:4195   */\n      swap1\n      pop\n        /* \"#utility.yul\":4204:4235   */\n      tag_105\n        /* \"#utility.yul\":4229:4234   */\n      dup2\n        /* \"#utility.yul\":4204:4235   */\n      tag_40\n      jump\t// in\n    tag_105:\n        /* \"#utility.yul\":4102:4241   */\n      swap3\n      swap2\n      pop\n      pop\n      jump\t// out\n        /* \"#utility.yul\":4247:4336   */\n    tag_42:\n        /* \"#utility.yul\":4283:4290   */\n      0x00\n        /* \"#utility.yul\":4323:4329   */\n      0xffff\n        /* \"#utility.yul\":4316:4321   */\n      dup3\n        /* \"#utility.yul\":4312:4330   */\n      and\n        /* \"#utility.yul\":4301:4330   */\n      swap1\n      pop\n        /* \"#utility.yul\":4247:4336   */\n      swap2\n      swap1\n      pop\n      jump\t// out\n        /* \"#utility.yul\":4342:4462   */\n    tag_43:\n        /* \"#utility.yul\":4414:4437   */\n      tag_108\n        /* \"#utility.yul\":4431:4436   */\n      dup2\n        /* \"#utility.yul\":4414:4437   */\n      tag_42\n      jump\t// in\n    tag_108:\n        /* \"#utility.yul\":4407:4412   */\n      dup2\n        /* \"#utility.yul\":4404:4438   */\n      eq\n        /* \"#utility.yul\":4394:4456   */\n      tag_109\n      jumpi\n        /* \"#utility.yul\":4452:4453   */\n      0x00\n        /* \"#utility.yul\":4449:4450   */\n      dup1\n        /* \"#utility.yul\":4442:4454   */\n      revert\n        /* \"#utility.yul\":4394:4456   */\n    tag_109:\n        /* \"#utility.yul\":4342:4462   */\n      pop\n      jump\t// out\n        /* \"#utility.yul\":4468:4609   */\n    tag_44:\n        /* \"#utility.yul\":4524:4529   */\n      0x00\n        /* \"#utility.yul\":4555:4561   */\n      dup2\n        /* \"#utility.yul\":4549:4562   */\n      mload\n        /* \"#utility.yul\":4540:4562   */\n      swap1\n      pop\n        /* \"#utility.yul\":4571:4603   */\n      tag_111\n        /* \"#utility.yul\":4597:4602   */\n      dup2\n        /* \"#utility.yul\":4571:4603   */\n      tag_43\n      jump\t// in\n    tag_111:\n        /* \"#utility.yul\":4468:4609   */\n      swap3\n      swap2\n      pop\n      pop\n      jump\t// out\n        /* \"#utility.yul\":4615:4701   */\n    tag_45:\n        /* \"#utility.yul\":4650:4657   */\n      0x00\n        /* \"#utility.yul\":4690:4694   */\n      0xff\n        /* \"#utility.yul\":4683:4688   */\n      dup3\n        /* \"#utility.yul\":4679:4695   */\n      and\n        /* \"#utility.yul\":4668:4695   */\n      swap1\n      pop\n        /* \"#utility.yul\":4615:4701   */\n      swap2\n      swap1\n      pop\n      jump\t// out\n        /* \"#utility.yul\":4707:4825   */\n    tag_46:\n        /* \"#utility.yul\":4778:4800   */\n      tag_114\n        /* \"#utility.yul\":4794:4799   */\n      dup2\n        /* \"#utility.yul\":4778:4800   */\n      tag_45\n      jump\t// in\n    tag_114:\n        /* \"#utility.yul\":4771:4776   */\n      dup2\n        /* \"#utility.yul\":4768:4801   */\n      eq\n        /* \"#utility.yul\":4758:4819   */\n      tag_115\n      jumpi\n        /* \"#utility.yul\":4815:4816   */\n      0x00\n        /* \"#utility.yul\":4812:4813   */\n      dup1\n        /* \"#utility.yul\":4805:4817   */\n      revert\n        /* \"#utility.yul\":4758:4819   */\n    tag_115:\n        /* \"#utility.yul\":4707:4825   */\n      pop\n      jump\t// out\n        /* \"#utility.yul\":4831:4970   */\n    tag_47:\n        /* \"#utility.yul\":4886:4891   */\n      0x00\n        /* \"#utility.yul\":4917:4923   */\n      dup2\n        /* \"#utility.yul\":4911:4924   */\n      mload\n        /* \"#utility.yul\":4902:4924   */\n      swap1\n      pop\n        /* \"#utility.yul\":4933:4964   */\n      tag_117\n        /* \"#utility.yul\":4958:4963   */\n      dup2\n        /* \"#utility.yul\":4933:4964   */\n      tag_46\n      jump\t// in\n    tag_117:\n        /* \"#utility.yul\":4831:4970   */\n      swap3\n      swap2\n      pop\n      pop\n      jump\t// out\n        /* \"#utility.yul\":4976:5066   */\n    tag_48:\n        /* \"#utility.yul\":5010:5017   */\n      0x00\n        /* \"#utility.yul\":5053:5058   */\n      dup2\n        /* \"#utility.yul\":5046:5059   */\n      iszero\n        /* \"#utility.yul\":5039:5060   */\n      iszero\n        /* \"#utility.yul\":5028:5060   */\n      swap1\n      pop\n        /* \"#utility.yul\":4976:5066   */\n      swap2\n      swap1\n      pop\n      jump\t// out\n        /* \"#utility.yul\":5072:5188   */\n    tag_49:\n        /* \"#utility.yul\":5142:5163   */\n      tag_120\n        /* \"#utility.yul\":5157:5162   */\n      dup2\n        /* \"#utility.yul\":5142:5163   */\n      tag_48\n      jump\t// in\n    tag_120:\n        /* \"#utility.yul\":5135:5140   */\n      dup2\n        /* \"#utility.yul\":5132:5164   */\n      eq\n        /* \"#utility.yul\":5122:5182   */\n      tag_121\n      jumpi\n        /* \"#utility.yul\":5178:5179   */\n      0x00\n        /* \"#utility.yul\":5175:5176   */\n      dup1\n        /* \"#utility.yul\":5168:5180   */\n      revert\n        /* \"#utility.yul\":5122:5182   */\n    tag_121:\n        /* \"#utility.yul\":5072:5188   */\n      pop\n      jump\t// out\n        /* \"#utility.yul\":5194:5331   */\n    tag_50:\n        /* \"#utility.yul\":5248:5253   */\n      0x00\n        /* \"#utility.yul\":5279:5285   */\n      dup2\n        /* \"#utility.yul\":5273:5286   */\n      mload\n        /* \"#utility.yul\":5264:5286   */\n      swap1\n      pop\n        /* \"#utility.yul\":5295:5325   */\n      tag_123\n        /* \"#utility.yul\":5319:5324   */\n      dup2\n        /* \"#utility.yul\":5295:5325   */\n      tag_49\n      jump\t// in\n    tag_123:\n        /* \"#utility.yul\":5194:5331   */\n      swap3\n      swap2\n      pop\n      pop\n      jump\t// out\n        /* \"#utility.yul\":5337:6608   */\n    tag_20:\n        /* \"#utility.yul\":5451:5457   */\n      0x00\n        /* \"#utility.yul\":5459:5465   */\n      dup1\n        /* \"#utility.yul\":5467:5473   */\n      0x00\n        /* \"#utility.yul\":5475:5481   */\n      dup1\n        /* \"#utility.yul\":5483:5489   */\n      0x00\n        /* \"#utility.yul\":5491:5497   */\n      dup1\n        /* \"#utility.yul\":5499:5505   */\n      0x00\n        /* \"#utility.yul\":5548:5551   */\n      0xe0\n        /* \"#utility.yul\":5536:5545   */\n      dup9\n        /* \"#utility.yul\":5527:5534   */\n      dup11\n        /* \"#utility.yul\":5523:5546   */\n      sub\n        /* \"#utility.yul\":5519:5552   */\n      slt\n        /* \"#utility.yul\":5516:5636   */\n      iszero\n      tag_125\n      jumpi\n        /* \"#utility.yul\":5555:5634   */\n      tag_126\n      tag_22\n      jump\t// in\n    tag_126:\n        /* \"#utility.yul\":5516:5636   */\n    tag_125:\n        /* \"#utility.yul\":5675:5676   */\n      0x00\n        /* \"#utility.yul\":5700:5764   */\n      tag_127\n        /* \"#utility.yul\":5756:5763   */\n      dup11\n        /* \"#utility.yul\":5747:5753   */\n      dup3\n        /* \"#utility.yul\":5736:5745   */\n      dup12\n        /* \"#utility.yul\":5732:5754   */\n      add\n        /* \"#utility.yul\":5700:5764   */\n      tag_38\n      jump\t// in\n    tag_127:\n        /* \"#utility.yul\":5690:5764   */\n      swap8\n      pop\n        /* \"#utility.yul\":5646:5774   */\n      pop\n        /* \"#utility.yul\":5813:5815   */\n      0x20\n        /* \"#utility.yul\":5839:5901   */\n      tag_128\n        /* \"#utility.yul\":5893:5900   */\n      dup11\n        /* \"#utility.yul\":5884:5890   */\n      dup3\n        /* \"#utility.yul\":5873:5882   */\n      dup12\n        /* \"#utility.yul\":5869:5891   */\n      add\n        /* \"#utility.yul\":5839:5901   */\n      tag_41\n      jump\t// in\n    tag_128:\n        /* \"#utility.yul\":5829:5901   */\n      swap7\n      pop\n        /* \"#utility.yul\":5784:5911   */\n      pop\n        /* \"#utility.yul\":5950:5952   */\n      0x40\n        /* \"#utility.yul\":5976:6039   */\n      tag_129\n        /* \"#utility.yul\":6031:6038   */\n      dup11\n        /* \"#utility.yul\":6022:6028   */\n      dup3\n        /* \"#utility.yul\":6011:6020   */\n      dup12\n        /* \"#utility.yul\":6007:6029   */\n      add\n        /* \"#utility.yul\":5976:6039   */\n      tag_44\n      jump\t// in\n    tag_129:\n        /* \"#utility.yul\":5966:6039   */\n      swap6\n      pop\n        /* \"#utility.yul\":5921:6049   */\n      pop\n        /* \"#utility.yul\":6088:6090   */\n      0x60\n        /* \"#utility.yul\":6114:6177   */\n      tag_130\n        /* \"#utility.yul\":6169:6176   */\n      dup11\n        /* \"#utility.yul\":6160:6166   */\n      dup3\n        /* \"#utility.yul\":6149:6158   */\n      dup12\n        /* \"#utility.yul\":6145:6167   */\n      add\n        /* \"#utility.yul\":6114:6177   */\n      tag_44\n      jump\t// in\n    tag_130:\n        /* \"#utility.yul\":6104:6177   */\n      swap5\n      pop\n        /* \"#utility.yul\":6059:6187   */\n      pop\n        /* \"#utility.yul\":6226:6229   */\n      0x80\n        /* \"#utility.yul\":6253:6316   */\n      tag_131\n        /* \"#utility.yul\":6308:6315   */\n      dup11\n        /* \"#utility.yul\":6299:6305   */\n      dup3\n        /* \"#utility.yul\":6288:6297   */\n      dup12\n        /* \"#utility.yul\":6284:6306   */\n      add\n        /* \"#utility.yul\":6253:6316   */\n      tag_44\n      jump\t// in\n    tag_131:\n        /* \"#utility.yul\":6243:6316   */\n      swap4\n      pop\n        /* \"#utility.yul\":6197:6326   */\n      pop\n        /* \"#utility.yul\":6365:6368   */\n      0xa0\n        /* \"#utility.yul\":6392:6454   */\n      tag_132\n        /* \"#utility.yul\":6446:6453   */\n      dup11\n        /* \"#utility.yul\":6437:6443   */\n      dup3\n        /* \"#utility.yul\":6426:6435   */\n      dup12\n        /* \"#utility.yul\":6422:6444   */\n      add\n        /* \"#utility.yul\":6392:6454   */\n      tag_47\n      jump\t// in\n    tag_132:\n        /* \"#utility.yul\":6382:6454   */\n      swap3\n      pop\n        /* \"#utility.yul\":6336:6464   */\n      pop\n        /* \"#utility.yul\":6503:6506   */\n      0xc0\n        /* \"#utility.yul\":6530:6591   */\n      tag_133\n        /* \"#utility.yul\":6583:6590   */\n      dup11\n        /* \"#utility.yul\":6574:6580   */\n      dup3\n        /* \"#utility.yul\":6563:6572   */\n      dup12\n        /* \"#utility.yul\":6559:6581   */\n      add\n        /* \"#utility.yul\":6530:6591   */\n      tag_50\n      jump\t// in\n    tag_133:\n        /* \"#utility.yul\":6520:6591   */\n      swap2\n      pop\n        /* \"#utility.yul\":6474:6601   */\n      pop\n        /* \"#utility.yul\":5337:6608   */\n      swap3\n      swap6\n      swap9\n      swap2\n      swap5\n      swap8\n      pop\n      swap3\n      swap6\n      pop\n      jump\t// out\n\n    auxdata: 0xa2646970667358221220d3d90ca81bb6b5aa2b4923f7f99497428bf1d8e22869e834d6c8e0145b73d88d64736f6c63430008110033\n}\n",
				"bytecode": {
					"linkReferences": {},
					"object": "610577610053600b82828239805160001a607314610046577f4e487b7100000000000000000000000000000000000000000000000000000000600052600060045260246000fd5b30600052607381538281f3fe73000000000000000000000000000000000000000030146080604052600436106100355760003560e01c8063edf15a9a1461003a575b600080fd5b610054600480360381019061004f919061022c565b61006a565b6040516100619190610298565b60405180910390f35b6000808473ffffffffffffffffffffffffffffffffffffffff16631698ee828585610bb86040518463ffffffff1660e01b81526004016100ac93929190610316565b602060405180830381865afa1580156100c9573d6000803e3d6000fd5b505050506040513d601f19601f820116820180604052508101906100ed9190610362565b9050600073ffffffffffffffffffffffffffffffffffffffff168173ffffffffffffffffffffffffffffffffffffffff160361012d5760009150506101c2565b60008173ffffffffffffffffffffffffffffffffffffffff16633850c7bd6040518163ffffffff1660e01b815260040160e060405180830381865afa15801561017a573d6000803e3d6000fd5b505050506040513d601f19601f8201168201806040525081019061019e919061049f565b50505050505090508073ffffffffffffffffffffffffffffffffffffffff16925050505b9392505050565b600080fd5b600073ffffffffffffffffffffffffffffffffffffffff82169050919050565b60006101f9826101ce565b9050919050565b610209816101ee565b811461021457600080fd5b50565b60008135905061022681610200565b92915050565b600080600060608486031215610245576102446101c9565b5b600061025386828701610217565b935050602061026486828701610217565b925050604061027586828701610217565b9150509250925092565b6000819050919050565b6102928161027f565b82525050565b60006020820190506102ad6000830184610289565b92915050565b6102bc816101ee565b82525050565b6000819050919050565b600062ffffff82169050919050565b6000819050919050565b60006103006102fb6102f6846102c2565b6102db565b6102cc565b9050919050565b610310816102e5565b82525050565b600060608201905061032b60008301866102b3565b61033860208301856102b3565b6103456040830184610307565b949350505050565b60008151905061035c81610200565b92915050565b600060208284031215610378576103776101c9565b5b60006103868482850161034d565b91505092915050565b610398816101ce565b81146103a357600080fd5b50565b6000815190506103b58161038f565b92915050565b60008160020b9050919050565b6103d1816103bb565b81146103dc57600080fd5b50565b6000815190506103ee816103c8565b92915050565b600061ffff82169050919050565b61040b816103f4565b811461041657600080fd5b50565b60008151905061042881610402565b92915050565b600060ff82169050919050565b6104448161042e565b811461044f57600080fd5b50565b6000815190506104618161043b565b92915050565b60008115159050919050565b61047c81610467565b811461048757600080fd5b50565b60008151905061049981610473565b92915050565b600080600080600080600060e0888a0312156104be576104bd6101c9565b5b60006104cc8a828b016103a6565b97505060206104dd8a828b016103df565b96505060406104ee8a828b01610419565b95505060606104ff8a828b01610419565b94505060806105108a828b01610419565b93505060a06105218a828b01610452565b92505060c06105328a828b0161048a565b9150509295989194975092955056fea2646970667358221220d3d90ca81bb6b5aa2b4923f7f99497428bf1d8e22869e834d6c8e0145b73d88d64736f6c63430008110033",
					"opcodes": "PUSH2 0x577 PUSH2 0x53 PUSH1 0xB DUP3 DUP3 DUP3 CODECOPY DUP1 MLOAD PUSH1 0x0 BYTE PUSH1 0x73 EQ PUSH2 0x46 JUMPI PUSH32 0x4E487B7100000000000000000000000000000000000000000000000000000000 PUSH1 0x0 MSTORE PUSH1 0x0 PUSH1 0x4 MSTORE PUSH1 0x24 PUSH1 0x0 REVERT JUMPDEST ADDRESS PUSH1 0x0 MSTORE PUSH1 0x73 DUP2 MSTORE8 DUP3 DUP2 RETURN INVALID PUSH20 0x0 ADDRESS EQ PUSH1 0x80 PUSH1 0x40 MSTORE PUSH1 0x4 CALLDATASIZE LT PUSH2 0x35 JUMPI PUSH1 0x0 CALLDATALOAD PUSH1 0xE0 SHR DUP1 PUSH4 0xEDF15A9A EQ PUSH2 0x3A JUMPI JUMPDEST PUSH1 0x0 DUP1 REVERT JUMPDEST PUSH2 0x54 PUSH1 0x4 DUP1 CALLDATASIZE SUB DUP2 ADD SWAP1 PUSH2 0x4F SWAP2 SWAP1 PUSH2 0x22C JUMP JUMPDEST PUSH2 0x6A JUMP JUMPDEST PUSH1 0x40 MLOAD PUSH2 0x61 SWAP2 SWAP1 PUSH2 0x298 JUMP JUMPDEST PUSH1 0x40 MLOAD DUP1 SWAP2 SUB SWAP1 RETURN JUMPDEST PUSH1 0x0 DUP1 DUP5 PUSH20 0xFFFFFFFFFFFFFFFFFFFFFFFFFFFFFFFFFFFFFFFF AND PUSH4 0x1698EE82 DUP6 DUP6 PUSH2 0xBB8 PUSH1 0x40 MLOAD DUP5 PUSH4 0xFFFFFFFF AND PUSH1 0xE0 SHL DUP2 MSTORE PUSH1 0x4 ADD PUSH2 0xAC SWAP4 SWAP3 SWAP2 SWAP1 PUSH2 0x316 JUMP JUMPDEST PUSH1 0x20 PUSH1 0x40 MLOAD DUP1 DUP4 SUB DUP2 DUP7 GAS STATICCALL ISZERO DUP1 ISZERO PUSH2 0xC9 JUMPI RETURNDATASIZE PUSH1 0x0 DUP1 RETURNDATACOPY RETURNDATASIZE PUSH1 0x0 REVERT JUMPDEST POP POP POP POP PUSH1 0x40 MLOAD RETURNDATASIZE PUSH1 0x1F NOT PUSH1 0x1F DUP3 ADD AND DUP3 ADD DUP1 PUSH1 0x40 MSTORE POP DUP2 ADD SWAP1 PUSH2 0xED SWAP2 SWAP1 PUSH2 0x362 JUMP JUMPDEST SWAP1 POP PUSH1 0x0 PUSH20 0xFFFFFFFFFFFFFFFFFFFFFFFFFFFFFFFFFFFFFFFF AND DUP2 PUSH20 0xFFFFFFFFFFFFFFFFFFFFFFFFFFFFFFFFFFFFFFFF AND SUB PUSH2 0x12D JUMPI PUSH1 0x0 SWAP2 POP POP PUSH2 0x1C2 JUMP JUMPDEST PUSH1 0x0 DUP2 PUSH20 0xFFFFFFFFFFFFFFFFFFFFFFFFFFFFFFFFFFFFFFFF AND PUSH4 0x3850C7BD PUSH1 0x40 MLOAD DUP2 PUSH4 0xFFFFFFFF AND PUSH1 0xE0 SHL DUP2 MSTORE PUSH1 0x4 ADD PUSH1 0xE0 PUSH1 0x40 MLOAD DUP1 DUP4 SUB DUP2 DUP7 GAS STATICCALL ISZERO DUP1 ISZERO PUSH2 0x17A JUMPI RETURNDATASIZE PUSH1 0x0 DUP1 RETURNDATACOPY RETURNDATASIZE PUSH1 0x0 REVERT JUMPDEST POP POP POP POP PUSH1 0x40 MLOAD RETURNDATASIZE PUSH1 0x1F NOT PUSH1 0x1F DUP3 ADD AND DUP3 ADD DUP1 PUSH1 0x40 MSTORE POP DUP2 ADD SWAP1 PUSH2 0x19E SWAP2 SWAP1 PUSH2 0x49F JUMP JUMPDEST POP POP POP POP POP POP SWAP1 POP DUP1 PUSH20 0xFFFFFFFFFFFFFFFFFFFFFFFFFFFFFFFFFFFFFFFF AND SWAP3 POP POP POP JUMPDEST SWAP4 SWAP3 POP POP POP JUMP JUMPDEST PUSH1 0x0 DUP1 REVERT JUMPDEST PUSH1 0x0 PUSH20 0xFFFFFFFFFFFFFFFFFFFFFFFFFFFFFFFFFFFFFFFF DUP3 AND SWAP1 POP SWAP2 SWAP1 POP JUMP JUMPDEST PUSH1 0x0 PUSH2 0x1F9 DUP3 PUSH2 0x1CE JUMP JUMPDEST SWAP1 POP SWAP2 SWAP1 POP JUMP JUMPDEST PUSH2 0x209 DUP2 PUSH2 0x1EE JUMP JUMPDEST DUP2 EQ PUSH2 0x214 JUMPI PUSH1 0x0 DUP1 REVERT JUMPDEST POP JUMP JUMPDEST PUSH1 0x0 DUP2 CALLDATALOAD SWAP1 POP PUSH2 0x226 DUP2 PUSH2 0x200 JUMP JUMPDEST SWAP3 SWAP2 POP POP JUMP JUMPDEST PUSH1 0x0 DUP1 PUSH1 0x0 PUSH1 0x60 DUP5 DUP7 SUB SLT ISZERO PUSH2 0x245 JUMPI PUSH2 0x244 PUSH2 0x1C9 JUMP JUMPDEST JUMPDEST PUSH1 0x0 PUSH2 0x253 DUP7 DUP3 DUP8 ADD PUSH2 0x217 JUMP JUMPDEST SWAP4 POP POP PUSH1 0x20 PUSH2 0x264 DUP7 DUP3 DUP8 ADD PUSH2 0x217 JUMP JUMPDEST SWAP3 POP POP PUSH1 0x40 PUSH2 0x275 DUP7 DUP3 DUP8 ADD PUSH2 0x217 JUMP JUMPDEST SWAP2 POP POP SWAP3 POP SWAP3 POP SWAP3 JUMP JUMPDEST PUSH1 0x0 DUP2 SWAP1 POP SWAP2 SWAP1 POP JUMP JUMPDEST PUSH2 0x292 DUP2 PUSH2 0x27F JUMP JUMPDEST DUP3 MSTORE POP POP JUMP JUMPDEST PUSH1 0x0 PUSH1 0x20 DUP3 ADD SWAP1 POP PUSH2 0x2AD PUSH1 0x0 DUP4 ADD DUP5 PUSH2 0x289 JUMP JUMPDEST SWAP3 SWAP2 POP POP JUMP JUMPDEST PUSH2 0x2BC DUP2 PUSH2 0x1EE JUMP JUMPDEST DUP3 MSTORE POP POP JUMP JUMPDEST PUSH1 0x0 DUP2 SWAP1 POP SWAP2 SWAP1 POP JUMP JUMPDEST PUSH1 0x0 PUSH3 0xFFFFFF DUP3 AND SWAP1 POP SWAP2 SWAP1 POP JUMP JUMPDEST PUSH1 0x0 DUP2 SWAP1 POP SWAP2 SWAP1 POP JUMP JUMPDEST PUSH1 0x0 PUSH2 0x300 PUSH2 0x2FB PUSH2 0x2F6 DUP5 PUSH2 0x2C2 JUMP JUMPDEST PUSH2 0x2DB JUMP JUMPDEST PUSH2 0x2CC JUMP JUMPDEST SWAP1 POP SWAP2 SWAP1 POP JUMP JUMPDEST PUSH2 0x310 DUP2 PUSH2 0x2E5 JUMP JUMPDEST DUP3 MSTORE POP POP JUMP JUMPDEST PUSH1 0x0 PUSH1 0x60 DUP3 ADD SWAP1 POP PUSH2 0x32B PUSH1 0x0 DUP4 ADD DUP7 PUSH2 0x2B3 JUMP JUMPDEST PUSH2 0x338 PUSH1 0x20 DUP4 ADD DUP6 PUSH2 0x2B3 JUMP JUMPDEST PUSH2 0x345 PUSH1 0x40 DUP4 ADD DUP5 PUSH2 0x307 JUMP JUMPDEST SWAP5 SWAP4 POP POP POP POP JUMP JUMPDEST PUSH1 0x0 DUP2 MLOAD SWAP1 POP PUSH2 0x35C DUP2 PUSH2 0x200 JUMP JUMPDEST SWAP3 SWAP2 POP POP JUMP JUMPDEST PUSH1 0x0 PUSH1 0x20 DUP3 DUP5 SUB SLT ISZERO PUSH2 0x378 JUMPI PUSH2 0x377 PUSH2 0x1C9 JUMP JUMPDEST JUMPDEST PUSH1 0x0 PUSH2 0x386 DUP5 DUP3 DUP6 ADD PUSH2 0x34D JUMP JUMPDEST SWAP2 POP POP SWAP3 SWAP2 POP POP JUMP JUMPDEST PUSH2 0x398 DUP2 PUSH2 0x1CE JUMP JUMPDEST DUP2 EQ PUSH2 0x3A3 JUMPI PUSH1 0x0 DUP1 REVERT JUMPDEST POP JUMP JUMPDEST PUSH1 0x0 DUP2 MLOAD SWAP1 POP PUSH2 0x3B5 DUP2 PUSH2 0x38F JUMP JUMPDEST SWAP3 SWAP2 POP POP JUMP JUMPDEST PUSH1 0x0 DUP2 PUSH1 0x2 SIGNEXTEND SWAP1 POP SWAP2 SWAP1 POP JUMP JUMPDEST PUSH2 0x3D1 DUP2 PUSH2 0x3BB JUMP JUMPDEST DUP2 EQ PUSH2 0x3DC JUMPI PUSH1 0x0 DUP1 REVERT JUMPDEST POP JUMP JUMPDEST PUSH1 0x0 DUP2 MLOAD SWAP1 POP PUSH2 0x3EE DUP2 PUSH2 0x3C8 JUMP JUMPDEST SWAP3 SWAP2 POP POP JUMP JUMPDEST PUSH1 0x0 PUSH2 0xFFFF DUP3 AND SWAP1 POP SWAP2 SWAP1 POP JUMP JUMPDEST PUSH2 0x40B DUP2 PUSH2 0x3F4 JUMP JUMPDEST DUP2 EQ PUSH2 0x416 JUMPI PUSH1 0x0 DUP1 REVERT JUMPDEST POP JUMP JUMPDEST PUSH1 0x0 DUP2 MLOAD SWAP1 POP PUSH2 0x428 DUP2 PUSH2 0x402 JUMP JUMPDEST SWAP3 SWAP2 POP POP JUMP JUMPDEST PUSH1 0x0 PUSH1 0xFF DUP3 AND SWAP1 POP SWAP2 SWAP1 POP JUMP JUMPDEST PUSH2 0x444 DUP2 PUSH2 0x42E JUMP JUMPDEST DUP2 EQ PUSH2 0x44F JUMPI PUSH1 0x0 DUP1 REVERT JUMPDEST POP JUMP JUMPDEST PUSH1 0x0 DUP2 MLOAD SWAP1 POP PUSH2 0x461 DUP2 PUSH2 0x43B JUMP JUMPDEST SWAP3 SWAP2 POP POP JUMP JUMPDEST PUSH1 0x0 DUP2 ISZERO ISZERO SWAP1 POP SWAP2 SWAP1 POP JUMP JUMPDEST PUSH2 0x47C DUP2 PUSH2 0x467 JUMP JUMPDEST DUP2 EQ PUSH2 0x487 JUMPI PUSH1 0x0 DUP1 REVERT JUMPDEST POP JUMP JUMPDEST PUSH1 0x0 DUP2 MLOAD SWAP1 POP PUSH2 0x499 DUP2 PUSH2 0x473 JUMP JUMPDEST SWAP3 SWAP2 POP POP JUMP JUMPDEST PUSH1 0x0 DUP1 PUSH1 0x0 DUP1 PUSH1 0x0 DUP1 PUSH1 0x0 PUSH1 0xE0 DUP9 DUP11 SUB SLT ISZERO PUSH2 0x4BE JUMPI PUSH2 0x4BD PUSH2 0x1C9 JUMP JUMPDEST JUMPDEST PUSH1 0x0 PUSH2 0x4CC DUP11 DUP3 DUP12 ADD PUSH2 0x3A6 JUMP JUMPDEST SWAP8 POP POP PUSH1 0x20 PUSH2 0x4DD DUP11 DUP3 DUP12 ADD PUSH2 0x3DF JUMP JUMPDEST SWAP7 POP POP PUSH1 0x40 PUSH2 0x4EE DUP11 DUP3 DUP12 ADD PUSH2 0x419 JUMP JUMPDEST SWAP6 POP POP PUSH1 0x60 PUSH2 0x4FF DUP11 DUP3 DUP12 ADD PUSH2 0x419 JUMP JUMPDEST SWAP5 POP POP PUSH1 0x80 PUSH2 0x510 DUP11 DUP3 DUP12 ADD PUSH2 0x419 JUMP JUMPDEST SWAP4 POP POP PUSH1 0xA0 PUSH2 0x521 DUP11 DUP3 DUP12 ADD PUSH2 0x452 JUMP JUMPDEST SWAP3 POP POP PUSH1 0xC0 PUSH2 0x532 DUP11 DUP3 DUP12 ADD PUSH2 0x48A JUMP JUMPDEST SWAP2 POP POP SWAP3 SWAP6 SWAP9 SWAP2 SWAP5 SWAP8 POP SWAP3 SWAP6 POP JUMP INVALID LOG2 PUSH5 0x6970667358 0x22 SLT KECCAK256 0xD3 0xD9 0xC 0xA8 SHL 0xB6 0xB5 0xAA 0x2B 0x49 0x23 0xF7 0xF9 SWAP5 SWAP8 TIMESTAMP DUP12 CALL 0xD8 0xE2 0x28 PUSH10 0xE834D6C8E0145B73D88D PUSH5 0x736F6C6343 STOP ADDMOD GT STOP CALLER "
				},
				"gasEstimates": {
					"creation": {
						"codeDepositCost": "279800",
						"executionCost": "346",
						"totalCost": "280146"
					},
					"external": {
						"sqrtPrice(address,address,address)": "infinite"
					}
				},
				"methodIdentifiers": {
					"sqrtPrice(address,address,address)": "edf15a9a"
				}
			},
			"storageLayout": {
				"storage": [],
				"types": null
			},
			"userdoc": {
				"kind": "user",
				"methods": {},
				"version": 1
			}
		}
	}
}