{
	"contracts/libraries/UniswapV3.sol": {
		"UniswapV3": {
			"abi": [
				{
					"inputs": [
						{
							"internalType": "uint24[]",
							"name": "fee",
							"type": "uint24[]"
						},
						{
							"internalType": "address",
							"name": "provider",
							"type": "address"
						},
						{
							"internalType": "address",
							"name": "t1",
							"type": "address"
						},
						{
							"internalType": "address",
							"name": "t2",
							"type": "address"
						}
					],
					"name": "price",
					"outputs": [
						{
							"internalType": "uint256",
							"name": "",
							"type": "uint256"
						}
					],
					"stateMutability": "view",
					"type": "function"
				}
			],
			"devdoc": {
				"kind": "dev",
				"methods": {},
				"version": 1
			},
			"evm": {
				"assembly": "    /* \"contracts/libraries/UniswapV3.sol\":232:1030  library UniswapV3 {... */\n  dataSize(sub_0)\n  dataOffset(sub_0)\n  0x0b\n  dup3\n  dup3\n  dup3\n  codecopy\n  dup1\n  mload\n  0x00\n  byte\n  0x73\n  eq\n  tag_1\n  jumpi\n  mstore(0x00, 0x4e487b7100000000000000000000000000000000000000000000000000000000)\n  mstore(0x04, 0x00)\n  revert(0x00, 0x24)\ntag_1:\n  mstore(0x00, address)\n  0x73\n  dup2\n  mstore8\n  dup3\n  dup2\n  return\nstop\n\nsub_0: assembly {\n        /* \"contracts/libraries/UniswapV3.sol\":232:1030  library UniswapV3 {... */\n      eq(address, deployTimeAddress())\n      mstore(0x40, 0x80)\n      jumpi(tag_1, lt(calldatasize, 0x04))\n      shr(0xe0, calldataload(0x00))\n      dup1\n      0x97d784b1\n      eq\n      tag_2\n      jumpi\n    tag_1:\n      0x00\n      dup1\n      revert\n        /* \"contracts/libraries/UniswapV3.sol\":261:1028  function price(uint24[] calldata fee,address provider,address t1,address t2) external view returns (uint256){... */\n    tag_2:\n      tag_3\n      0x04\n      dup1\n      calldatasize\n      sub\n      dup2\n      add\n      swap1\n      tag_4\n      swap2\n      swap1\n      tag_5\n      jump\t// in\n    tag_4:\n      tag_6\n      jump\t// in\n    tag_3:\n      mload(0x40)\n      tag_7\n      swap2\n      swap1\n      tag_8\n      jump\t// in\n    tag_7:\n      mload(0x40)\n      dup1\n      swap2\n      sub\n      swap1\n      return\n    tag_6:\n        /* \"contracts/libraries/UniswapV3.sol\":361:368  uint256 */\n      0x00\n        /* \"contracts/libraries/UniswapV3.sol\":383:389  uint i */\n      dup1\n        /* \"contracts/libraries/UniswapV3.sol\":390:391  0 */\n      0x00\n        /* \"contracts/libraries/UniswapV3.sol\":383:391  uint i=0 */\n      swap1\n      pop\n        /* \"contracts/libraries/UniswapV3.sol\":379:1022  for(uint i=0;i<fee.length;i++){... */\n    tag_10:\n        /* \"contracts/libraries/UniswapV3.sol\":394:397  fee */\n      dup7\n      dup7\n        /* \"contracts/libraries/UniswapV3.sol\":394:404  fee.length */\n      swap1\n      pop\n        /* \"contracts/libraries/UniswapV3.sol\":392:393  i */\n      dup2\n        /* \"contracts/libraries/UniswapV3.sol\":392:404  i<fee.length */\n      lt\n        /* \"contracts/libraries/UniswapV3.sol\":379:1022  for(uint i=0;i<fee.length;i++){... */\n      iszero\n      tag_11\n      jumpi\n        /* \"contracts/libraries/UniswapV3.sol\":423:435  address pool */\n      0x00\n        /* \"contracts/libraries/UniswapV3.sol\":456:464  provider */\n      dup6\n        /* \"contracts/libraries/UniswapV3.sol\":438:473  IUniswapV3Factory(provider).getPool */\n      0xffffffffffffffffffffffffffffffffffffffff\n      and\n      0x1698ee82\n        /* \"contracts/libraries/UniswapV3.sol\":474:476  t1 */\n      dup7\n        /* \"contracts/libraries/UniswapV3.sol\":477:479  t2 */\n      dup7\n        /* \"contracts/libraries/UniswapV3.sol\":480:483  fee */\n      dup12\n      dup12\n        /* \"contracts/libraries/UniswapV3.sol\":484:485  i */\n      dup8\n        /* \"contracts/libraries/UniswapV3.sol\":480:486  fee[i] */\n      dup2\n      dup2\n      lt\n      tag_13\n      jumpi\n      tag_14\n      tag_15\n      jump\t// in\n    tag_14:\n    tag_13:\n      swap1\n      pop\n      0x20\n      mul\n      add\n      0x20\n      dup2\n      add\n      swap1\n      tag_16\n      swap2\n      swap1\n      tag_17\n      jump\t// in\n    tag_16:\n        /* \"contracts/libraries/UniswapV3.sol\":438:487  IUniswapV3Factory(provider).getPool(t1,t2,fee[i]) */\n      mload(0x40)\n      dup5\n      0xffffffff\n      and\n      0xe0\n      shl\n      dup2\n      mstore\n      0x04\n      add\n      tag_18\n      swap4\n      swap3\n      swap2\n      swap1\n      tag_19\n      jump\t// in\n    tag_18:\n      0x20\n      mload(0x40)\n      dup1\n      dup4\n      sub\n      dup2\n      dup7\n      gas\n      staticcall\n      iszero\n      dup1\n      iszero\n      tag_21\n      jumpi\n      returndatasize\n      0x00\n      dup1\n      returndatacopy\n      revert(0x00, returndatasize)\n    tag_21:\n      pop\n      pop\n      pop\n      pop\n      mload(0x40)\n      returndatasize\n      not(0x1f)\n      0x1f\n      dup3\n      add\n      and\n      dup3\n      add\n      dup1\n      0x40\n      mstore\n      pop\n      dup2\n      add\n      swap1\n      tag_22\n      swap2\n      swap1\n      tag_23\n      jump\t// in\n    tag_22:\n        /* \"contracts/libraries/UniswapV3.sol\":423:487  address pool = IUniswapV3Factory(provider).getPool(t1,t2,fee[i]) */\n      swap1\n      pop\n        /* \"contracts/libraries/UniswapV3.sol\":521:522  0 */\n      0x00\n        /* \"contracts/libraries/UniswapV3.sol\":505:523  pool == address(0) */\n      0xffffffffffffffffffffffffffffffffffffffff\n      and\n        /* \"contracts/libraries/UniswapV3.sol\":505:509  pool */\n      dup2\n        /* \"contracts/libraries/UniswapV3.sol\":505:523  pool == address(0) */\n      0xffffffffffffffffffffffffffffffffffffffff\n      and\n      sub\n        /* \"contracts/libraries/UniswapV3.sol\":501:567  if (pool == address(0)) {... */\n      tag_24\n      jumpi\n        /* \"contracts/libraries/UniswapV3.sol\":543:551  continue */\n      pop\n      jump(tag_12)\n        /* \"contracts/libraries/UniswapV3.sol\":501:567  if (pool == address(0)) {... */\n    tag_24:\n        /* \"contracts/libraries/UniswapV3.sol\":580:589  uint128 l */\n      0x00\n        /* \"contracts/libraries/UniswapV3.sol\":607:611  pool */\n      dup2\n        /* \"contracts/libraries/UniswapV3.sol\":592:622  IUniswapV3Pool(pool).liquidity */\n      0xffffffffffffffffffffffffffffffffffffffff\n      and\n      0x1a686502\n        /* \"contracts/libraries/UniswapV3.sol\":592:624  IUniswapV3Pool(pool).liquidity() */\n      mload(0x40)\n      dup2\n      0xffffffff\n      and\n      0xe0\n      shl\n      dup2\n      mstore\n      0x04\n      add\n      0x20\n      mload(0x40)\n      dup1\n      dup4\n      sub\n      dup2\n      dup7\n      gas\n      staticcall\n      iszero\n      dup1\n      iszero\n      tag_26\n      jumpi\n      returndatasize\n      0x00\n      dup1\n      returndatacopy\n      revert(0x00, returndatasize)\n    tag_26:\n      pop\n      pop\n      pop\n      pop\n      mload(0x40)\n      returndatasize\n      not(0x1f)\n      0x1f\n      dup3\n      add\n      and\n      dup3\n      add\n      dup1\n      0x40\n      mstore\n      pop\n      dup2\n      add\n      swap1\n      tag_27\n      swap2\n      swap1\n      tag_28\n      jump\t// in\n    tag_27:\n        /* \"contracts/libraries/UniswapV3.sol\":580:624  uint128 l = IUniswapV3Pool(pool).liquidity() */\n      swap1\n      pop\n        /* \"contracts/libraries/UniswapV3.sol\":647:648  0 */\n      0x00\n        /* \"contracts/libraries/UniswapV3.sol\":642:643  l */\n      dup2\n        /* \"contracts/libraries/UniswapV3.sol\":642:648  l == 0 */\n      0xffffffffffffffffffffffffffffffff\n      and\n      sub\n        /* \"contracts/libraries/UniswapV3.sol\":638:694  if (l == 0) {... */\n      tag_29\n      jumpi\n        /* \"contracts/libraries/UniswapV3.sol\":668:676  continue */\n      pop\n      pop\n      jump(tag_12)\n        /* \"contracts/libraries/UniswapV3.sol\":638:694  if (l == 0) {... */\n    tag_29:\n        /* \"contracts/libraries/UniswapV3.sol\":708:728  uint160 sqrtPriceX96 */\n      0x00\n        /* \"contracts/libraries/UniswapV3.sol\":753:757  pool */\n      dup3\n        /* \"contracts/libraries/UniswapV3.sol\":738:764  IUniswapV3Pool(pool).slot0 */\n      0xffffffffffffffffffffffffffffffffffffffff\n      and\n      0x3850c7bd\n        /* \"contracts/libraries/UniswapV3.sol\":738:766  IUniswapV3Pool(pool).slot0() */\n      mload(0x40)\n      dup2\n      0xffffffff\n      and\n      0xe0\n      shl\n      dup2\n      mstore\n      0x04\n      add\n      0xe0\n      mload(0x40)\n      dup1\n      dup4\n      sub\n      dup2\n      dup7\n      gas\n      staticcall\n      iszero\n      dup1\n      iszero\n      tag_31\n      jumpi\n      returndatasize\n      0x00\n      dup1\n      returndatacopy\n      revert(0x00, returndatasize)\n    tag_31:\n      pop\n      pop\n      pop\n      pop\n      mload(0x40)\n      returndatasize\n      not(0x1f)\n      0x1f\n      dup3\n      add\n      and\n      dup3\n      add\n      dup1\n      0x40\n      mstore\n      pop\n      dup2\n      add\n      swap1\n      tag_32\n      swap2\n      swap1\n      tag_33\n      jump\t// in\n    tag_32:\n        /* \"contracts/libraries/UniswapV3.sol\":707:766  (uint160 sqrtPriceX96,,,,,,) = IUniswapV3Pool(pool).slot0() */\n      pop\n      pop\n      pop\n      pop\n      pop\n      pop\n      swap1\n      pop\n        /* \"contracts/libraries/UniswapV3.sol\":799:800  0 */\n      0x00\n        /* \"contracts/libraries/UniswapV3.sol\":783:795  sqrtPriceX96 */\n      dup2\n        /* \"contracts/libraries/UniswapV3.sol\":783:800  sqrtPriceX96 == 0 */\n      0xffffffffffffffffffffffffffffffffffffffff\n      and\n      sub\n        /* \"contracts/libraries/UniswapV3.sol\":780:844  if(sqrtPriceX96 == 0) {... */\n      tag_34\n      jumpi\n        /* \"contracts/libraries/UniswapV3.sol\":820:828  continue */\n      pop\n      pop\n      pop\n      jump(tag_12)\n        /* \"contracts/libraries/UniswapV3.sol\":780:844  if(sqrtPriceX96 == 0) {... */\n    tag_34:\n        /* \"contracts/libraries/UniswapV3.sol\":858:866  uint8 d1 */\n      0x00\n        /* \"contracts/libraries/UniswapV3.sol\":876:878  t1 */\n      dup8\n        /* \"contracts/libraries/UniswapV3.sol\":869:888  IERC20(t1).decimals */\n      0xffffffffffffffffffffffffffffffffffffffff\n      and\n      0x313ce567\n        /* \"contracts/libraries/UniswapV3.sol\":869:890  IERC20(t1).decimals() */\n      mload(0x40)\n      dup2\n      0xffffffff\n      and\n      0xe0\n      shl\n      dup2\n      mstore\n      0x04\n      add\n      0x20\n      mload(0x40)\n      dup1\n      dup4\n      sub\n      dup2\n      dup7\n      gas\n      staticcall\n      iszero\n      dup1\n      iszero\n      tag_36\n      jumpi\n      returndatasize\n      0x00\n      dup1\n      returndatacopy\n      revert(0x00, returndatasize)\n    tag_36:\n      pop\n      pop\n      pop\n      pop\n      mload(0x40)\n      returndatasize\n      not(0x1f)\n      0x1f\n      dup3\n      add\n      and\n      dup3\n      add\n      dup1\n      0x40\n      mstore\n      pop\n      dup2\n      add\n      swap1\n      tag_37\n      swap2\n      swap1\n      tag_38\n      jump\t// in\n    tag_37:\n        /* \"contracts/libraries/UniswapV3.sol\":858:890  uint8 d1 = IERC20(t1).decimals() */\n      swap1\n      pop\n        /* \"contracts/libraries/UniswapV3.sol\":904:912  uint8 d2 */\n      0x00\n        /* \"contracts/libraries/UniswapV3.sol\":922:924  t2 */\n      dup8\n        /* \"contracts/libraries/UniswapV3.sol\":915:934  IERC20(t2).decimals */\n      0xffffffffffffffffffffffffffffffffffffffff\n      and\n      0x313ce567\n        /* \"contracts/libraries/UniswapV3.sol\":915:936  IERC20(t2).decimals() */\n      mload(0x40)\n      dup2\n      0xffffffff\n      and\n      0xe0\n      shl\n      dup2\n      mstore\n      0x04\n      add\n      0x20\n      mload(0x40)\n      dup1\n      dup4\n      sub\n      dup2\n      dup7\n      gas\n      staticcall\n      iszero\n      dup1\n      iszero\n      tag_40\n      jumpi\n      returndatasize\n      0x00\n      dup1\n      returndatacopy\n      revert(0x00, returndatasize)\n    tag_40:\n      pop\n      pop\n      pop\n      pop\n      mload(0x40)\n      returndatasize\n      not(0x1f)\n      0x1f\n      dup3\n      add\n      and\n      dup3\n      add\n      dup1\n      0x40\n      mstore\n      pop\n      dup2\n      add\n      swap1\n      tag_41\n      swap2\n      swap1\n      tag_38\n      jump\t// in\n    tag_41:\n        /* \"contracts/libraries/UniswapV3.sol\":904:936  uint8 d2 = IERC20(t2).decimals() */\n      swap1\n      pop\n        /* \"contracts/libraries/UniswapV3.sol\":409:1022  {... */\n      pop\n      pop\n      pop\n      pop\n      pop\n        /* \"contracts/libraries/UniswapV3.sol\":379:1022  for(uint i=0;i<fee.length;i++){... */\n    tag_12:\n        /* \"contracts/libraries/UniswapV3.sol\":405:408  i++ */\n      dup1\n      dup1\n      tag_42\n      swap1\n      tag_43\n      jump\t// in\n    tag_42:\n      swap2\n      pop\n      pop\n        /* \"contracts/libraries/UniswapV3.sol\":379:1022  for(uint i=0;i<fee.length;i++){... */\n      jump(tag_10)\n    tag_11:\n      pop\n        /* \"contracts/libraries/UniswapV3.sol\":261:1028  function price(uint24[] calldata fee,address provider,address t1,address t2) external view returns (uint256){... */\n      swap6\n      swap5\n      pop\n      pop\n      pop\n      pop\n      pop\n      jump\t// out\n        /* \"#utility.yul\":88:205   */\n    tag_45:\n        /* \"#utility.yul\":197:198   */\n      0x00\n        /* \"#utility.yul\":194:195   */\n      dup1\n        /* \"#utility.yul\":187:199   */\n      revert\n        /* \"#utility.yul\":211:328   */\n    tag_46:\n        /* \"#utility.yul\":320:321   */\n      0x00\n        /* \"#utility.yul\":317:318   */\n      dup1\n        /* \"#utility.yul\":310:322   */\n      revert\n        /* \"#utility.yul\":334:451   */\n    tag_47:\n        /* \"#utility.yul\":443:444   */\n      0x00\n        /* \"#utility.yul\":440:441   */\n      dup1\n        /* \"#utility.yul\":433:445   */\n      revert\n        /* \"#utility.yul\":457:574   */\n    tag_48:\n        /* \"#utility.yul\":566:567   */\n      0x00\n        /* \"#utility.yul\":563:564   */\n      dup1\n        /* \"#utility.yul\":556:568   */\n      revert\n        /* \"#utility.yul\":580:697   */\n    tag_49:\n        /* \"#utility.yul\":689:690   */\n      0x00\n        /* \"#utility.yul\":686:687   */\n      dup1\n        /* \"#utility.yul\":679:691   */\n      revert\n        /* \"#utility.yul\":719:1286   */\n    tag_50:\n        /* \"#utility.yul\":791:799   */\n      0x00\n        /* \"#utility.yul\":801:807   */\n      dup1\n        /* \"#utility.yul\":851:854   */\n      dup4\n        /* \"#utility.yul\":844:848   */\n      0x1f\n        /* \"#utility.yul\":836:842   */\n      dup5\n        /* \"#utility.yul\":832:849   */\n      add\n        /* \"#utility.yul\":828:855   */\n      slt\n        /* \"#utility.yul\":818:940   */\n      tag_89\n      jumpi\n        /* \"#utility.yul\":859:938   */\n      tag_90\n      tag_47\n      jump\t// in\n    tag_90:\n        /* \"#utility.yul\":818:940   */\n    tag_89:\n        /* \"#utility.yul\":972:978   */\n      dup3\n        /* \"#utility.yul\":959:979   */\n      calldataload\n        /* \"#utility.yul\":949:979   */\n      swap1\n      pop\n        /* \"#utility.yul\":1002:1020   */\n      0xffffffffffffffff\n        /* \"#utility.yul\":994:1000   */\n      dup2\n        /* \"#utility.yul\":991:1021   */\n      gt\n        /* \"#utility.yul\":988:1105   */\n      iszero\n      tag_91\n      jumpi\n        /* \"#utility.yul\":1024:1103   */\n      tag_92\n      tag_48\n      jump\t// in\n    tag_92:\n        /* \"#utility.yul\":988:1105   */\n    tag_91:\n        /* \"#utility.yul\":1138:1142   */\n      0x20\n        /* \"#utility.yul\":1130:1136   */\n      dup4\n        /* \"#utility.yul\":1126:1143   */\n      add\n        /* \"#utility.yul\":1114:1143   */\n      swap2\n      pop\n        /* \"#utility.yul\":1192:1195   */\n      dup4\n        /* \"#utility.yul\":1184:1188   */\n      0x20\n        /* \"#utility.yul\":1176:1182   */\n      dup3\n        /* \"#utility.yul\":1172:1189   */\n      mul\n        /* \"#utility.yul\":1162:1170   */\n      dup4\n        /* \"#utility.yul\":1158:1190   */\n      add\n        /* \"#utility.yul\":1155:1196   */\n      gt\n        /* \"#utility.yul\":1152:1280   */\n      iszero\n      tag_93\n      jumpi\n        /* \"#utility.yul\":1199:1278   */\n      tag_94\n      tag_49\n      jump\t// in\n    tag_94:\n        /* \"#utility.yul\":1152:1280   */\n    tag_93:\n        /* \"#utility.yul\":719:1286   */\n      swap3\n      pop\n      swap3\n      swap1\n      pop\n      jump\t// out\n        /* \"#utility.yul\":1292:1418   */\n    tag_51:\n        /* \"#utility.yul\":1329:1336   */\n      0x00\n        /* \"#utility.yul\":1369:1411   */\n      0xffffffffffffffffffffffffffffffffffffffff\n        /* \"#utility.yul\":1362:1367   */\n      dup3\n        /* \"#utility.yul\":1358:1412   */\n      and\n        /* \"#utility.yul\":1347:1412   */\n      swap1\n      pop\n        /* \"#utility.yul\":1292:1418   */\n      swap2\n      swap1\n      pop\n      jump\t// out\n        /* \"#utility.yul\":1424:1520   */\n    tag_52:\n        /* \"#utility.yul\":1461:1468   */\n      0x00\n        /* \"#utility.yul\":1490:1514   */\n      tag_97\n        /* \"#utility.yul\":1508:1513   */\n      dup3\n        /* \"#utility.yul\":1490:1514   */\n      tag_51\n      jump\t// in\n    tag_97:\n        /* \"#utility.yul\":1479:1514   */\n      swap1\n      pop\n        /* \"#utility.yul\":1424:1520   */\n      swap2\n      swap1\n      pop\n      jump\t// out\n        /* \"#utility.yul\":1526:1648   */\n    tag_53:\n        /* \"#utility.yul\":1599:1623   */\n      tag_99\n        /* \"#utility.yul\":1617:1622   */\n      dup2\n        /* \"#utility.yul\":1599:1623   */\n      tag_52\n      jump\t// in\n    tag_99:\n        /* \"#utility.yul\":1592:1597   */\n      dup2\n        /* \"#utility.yul\":1589:1624   */\n      eq\n        /* \"#utility.yul\":1579:1642   */\n      tag_100\n      jumpi\n        /* \"#utility.yul\":1638:1639   */\n      0x00\n        /* \"#utility.yul\":1635:1636   */\n      dup1\n        /* \"#utility.yul\":1628:1640   */\n      revert\n        /* \"#utility.yul\":1579:1642   */\n    tag_100:\n        /* \"#utility.yul\":1526:1648   */\n      pop\n      jump\t// out\n        /* \"#utility.yul\":1654:1793   */\n    tag_54:\n        /* \"#utility.yul\":1700:1705   */\n      0x00\n        /* \"#utility.yul\":1738:1744   */\n      dup2\n        /* \"#utility.yul\":1725:1745   */\n      calldataload\n        /* \"#utility.yul\":1716:1745   */\n      swap1\n      pop\n        /* \"#utility.yul\":1754:1787   */\n      tag_102\n        /* \"#utility.yul\":1781:1786   */\n      dup2\n        /* \"#utility.yul\":1754:1787   */\n      tag_53\n      jump\t// in\n    tag_102:\n        /* \"#utility.yul\":1654:1793   */\n      swap3\n      swap2\n      pop\n      pop\n      jump\t// out\n        /* \"#utility.yul\":1799:2792   */\n    tag_5:\n        /* \"#utility.yul\":1911:1917   */\n      0x00\n        /* \"#utility.yul\":1919:1925   */\n      dup1\n        /* \"#utility.yul\":1927:1933   */\n      0x00\n        /* \"#utility.yul\":1935:1941   */\n      dup1\n        /* \"#utility.yul\":1943:1949   */\n      0x00\n        /* \"#utility.yul\":1992:1995   */\n      0x80\n        /* \"#utility.yul\":1980:1989   */\n      dup7\n        /* \"#utility.yul\":1971:1978   */\n      dup9\n        /* \"#utility.yul\":1967:1990   */\n      sub\n        /* \"#utility.yul\":1963:1996   */\n      slt\n        /* \"#utility.yul\":1960:2080   */\n      iszero\n      tag_104\n      jumpi\n        /* \"#utility.yul\":1999:2078   */\n      tag_105\n      tag_45\n      jump\t// in\n    tag_105:\n        /* \"#utility.yul\":1960:2080   */\n    tag_104:\n        /* \"#utility.yul\":2147:2148   */\n      0x00\n        /* \"#utility.yul\":2136:2145   */\n      dup7\n        /* \"#utility.yul\":2132:2149   */\n      add\n        /* \"#utility.yul\":2119:2150   */\n      calldataload\n        /* \"#utility.yul\":2177:2195   */\n      0xffffffffffffffff\n        /* \"#utility.yul\":2169:2175   */\n      dup2\n        /* \"#utility.yul\":2166:2196   */\n      gt\n        /* \"#utility.yul\":2163:2280   */\n      iszero\n      tag_106\n      jumpi\n        /* \"#utility.yul\":2199:2278   */\n      tag_107\n      tag_46\n      jump\t// in\n    tag_107:\n        /* \"#utility.yul\":2163:2280   */\n    tag_106:\n        /* \"#utility.yul\":2312:2391   */\n      tag_108\n        /* \"#utility.yul\":2383:2390   */\n      dup9\n        /* \"#utility.yul\":2374:2380   */\n      dup3\n        /* \"#utility.yul\":2363:2372   */\n      dup10\n        /* \"#utility.yul\":2359:2381   */\n      add\n        /* \"#utility.yul\":2312:2391   */\n      tag_50\n      jump\t// in\n    tag_108:\n        /* \"#utility.yul\":2294:2391   */\n      swap6\n      pop\n      swap6\n      pop\n        /* \"#utility.yul\":2090:2401   */\n      pop\n        /* \"#utility.yul\":2440:2442   */\n      0x20\n        /* \"#utility.yul\":2466:2519   */\n      tag_109\n        /* \"#utility.yul\":2511:2518   */\n      dup9\n        /* \"#utility.yul\":2502:2508   */\n      dup3\n        /* \"#utility.yul\":2491:2500   */\n      dup10\n        /* \"#utility.yul\":2487:2509   */\n      add\n        /* \"#utility.yul\":2466:2519   */\n      tag_54\n      jump\t// in\n    tag_109:\n        /* \"#utility.yul\":2456:2519   */\n      swap4\n      pop\n        /* \"#utility.yul\":2411:2529   */\n      pop\n        /* \"#utility.yul\":2568:2570   */\n      0x40\n        /* \"#utility.yul\":2594:2647   */\n      tag_110\n        /* \"#utility.yul\":2639:2646   */\n      dup9\n        /* \"#utility.yul\":2630:2636   */\n      dup3\n        /* \"#utility.yul\":2619:2628   */\n      dup10\n        /* \"#utility.yul\":2615:2637   */\n      add\n        /* \"#utility.yul\":2594:2647   */\n      tag_54\n      jump\t// in\n    tag_110:\n        /* \"#utility.yul\":2584:2647   */\n      swap3\n      pop\n        /* \"#utility.yul\":2539:2657   */\n      pop\n        /* \"#utility.yul\":2696:2698   */\n      0x60\n        /* \"#utility.yul\":2722:2775   */\n      tag_111\n        /* \"#utility.yul\":2767:2774   */\n      dup9\n        /* \"#utility.yul\":2758:2764   */\n      dup3\n        /* \"#utility.yul\":2747:2756   */\n      dup10\n        /* \"#utility.yul\":2743:2765   */\n      add\n        /* \"#utility.yul\":2722:2775   */\n      tag_54\n      jump\t// in\n    tag_111:\n        /* \"#utility.yul\":2712:2775   */\n      swap2\n      pop\n        /* \"#utility.yul\":2667:2785   */\n      pop\n        /* \"#utility.yul\":1799:2792   */\n      swap3\n      swap6\n      pop\n      swap3\n      swap6\n      swap1\n      swap4\n      pop\n      jump\t// out\n        /* \"#utility.yul\":2798:2875   */\n    tag_55:\n        /* \"#utility.yul\":2835:2842   */\n      0x00\n        /* \"#utility.yul\":2864:2869   */\n      dup2\n        /* \"#utility.yul\":2853:2869   */\n      swap1\n      pop\n        /* \"#utility.yul\":2798:2875   */\n      swap2\n      swap1\n      pop\n      jump\t// out\n        /* \"#utility.yul\":2881:3007   */\n    tag_56:\n        /* \"#utility.yul\":2976:3000   */\n      tag_114\n        /* \"#utility.yul\":2994:2999   */\n      dup2\n        /* \"#utility.yul\":2976:3000   */\n      tag_55\n      jump\t// in\n    tag_114:\n        /* \"#utility.yul\":2971:2974   */\n      dup3\n        /* \"#utility.yul\":2964:3001   */\n      mstore\n        /* \"#utility.yul\":2881:3007   */\n      pop\n      pop\n      jump\t// out\n        /* \"#utility.yul\":3013:3251   */\n    tag_8:\n        /* \"#utility.yul\":3114:3118   */\n      0x00\n        /* \"#utility.yul\":3152:3154   */\n      0x20\n        /* \"#utility.yul\":3141:3150   */\n      dup3\n        /* \"#utility.yul\":3137:3155   */\n      add\n        /* \"#utility.yul\":3129:3155   */\n      swap1\n      pop\n        /* \"#utility.yul\":3165:3244   */\n      tag_116\n        /* \"#utility.yul\":3241:3242   */\n      0x00\n        /* \"#utility.yul\":3230:3239   */\n      dup4\n        /* \"#utility.yul\":3226:3243   */\n      add\n        /* \"#utility.yul\":3217:3223   */\n      dup5\n        /* \"#utility.yul\":3165:3244   */\n      tag_56\n      jump\t// in\n    tag_116:\n        /* \"#utility.yul\":3013:3251   */\n      swap3\n      swap2\n      pop\n      pop\n      jump\t// out\n        /* \"#utility.yul\":3257:3437   */\n    tag_15:\n        /* \"#utility.yul\":3305:3382   */\n      0x4e487b7100000000000000000000000000000000000000000000000000000000\n        /* \"#utility.yul\":3302:3303   */\n      0x00\n        /* \"#utility.yul\":3295:3383   */\n      mstore\n        /* \"#utility.yul\":3402:3406   */\n      0x32\n        /* \"#utility.yul\":3399:3400   */\n      0x04\n        /* \"#utility.yul\":3392:3407   */\n      mstore\n        /* \"#utility.yul\":3426:3430   */\n      0x24\n        /* \"#utility.yul\":3423:3424   */\n      0x00\n        /* \"#utility.yul\":3416:3431   */\n      revert\n        /* \"#utility.yul\":3443:3534   */\n    tag_57:\n        /* \"#utility.yul\":3479:3486   */\n      0x00\n        /* \"#utility.yul\":3519:3527   */\n      0xffffff\n        /* \"#utility.yul\":3512:3517   */\n      dup3\n        /* \"#utility.yul\":3508:3528   */\n      and\n        /* \"#utility.yul\":3497:3528   */\n      swap1\n      pop\n        /* \"#utility.yul\":3443:3534   */\n      swap2\n      swap1\n      pop\n      jump\t// out\n        /* \"#utility.yul\":3540:3660   */\n    tag_58:\n        /* \"#utility.yul\":3612:3635   */\n      tag_120\n        /* \"#utility.yul\":3629:3634   */\n      dup2\n        /* \"#utility.yul\":3612:3635   */\n      tag_57\n      jump\t// in\n    tag_120:\n        /* \"#utility.yul\":3605:3610   */\n      dup2\n        /* \"#utility.yul\":3602:3636   */\n      eq\n        /* \"#utility.yul\":3592:3654   */\n      tag_121\n      jumpi\n        /* \"#utility.yul\":3650:3651   */\n      0x00\n        /* \"#utility.yul\":3647:3648   */\n      dup1\n        /* \"#utility.yul\":3640:3652   */\n      revert\n        /* \"#utility.yul\":3592:3654   */\n    tag_121:\n        /* \"#utility.yul\":3540:3660   */\n      pop\n      jump\t// out\n        /* \"#utility.yul\":3666:3803   */\n    tag_59:\n        /* \"#utility.yul\":3711:3716   */\n      0x00\n        /* \"#utility.yul\":3749:3755   */\n      dup2\n        /* \"#utility.yul\":3736:3756   */\n      calldataload\n        /* \"#utility.yul\":3727:3756   */\n      swap1\n      pop\n        /* \"#utility.yul\":3765:3797   */\n      tag_123\n        /* \"#utility.yul\":3791:3796   */\n      dup2\n        /* \"#utility.yul\":3765:3797   */\n      tag_58\n      jump\t// in\n    tag_123:\n        /* \"#utility.yul\":3666:3803   */\n      swap3\n      swap2\n      pop\n      pop\n      jump\t// out\n        /* \"#utility.yul\":3809:4136   */\n    tag_17:\n        /* \"#utility.yul\":3867:3873   */\n      0x00\n        /* \"#utility.yul\":3916:3918   */\n      0x20\n        /* \"#utility.yul\":3904:3913   */\n      dup3\n        /* \"#utility.yul\":3895:3902   */\n      dup5\n        /* \"#utility.yul\":3891:3914   */\n      sub\n        /* \"#utility.yul\":3887:3919   */\n      slt\n        /* \"#utility.yul\":3884:4003   */\n      iszero\n      tag_125\n      jumpi\n        /* \"#utility.yul\":3922:4001   */\n      tag_126\n      tag_45\n      jump\t// in\n    tag_126:\n        /* \"#utility.yul\":3884:4003   */\n    tag_125:\n        /* \"#utility.yul\":4042:4043   */\n      0x00\n        /* \"#utility.yul\":4067:4119   */\n      tag_127\n        /* \"#utility.yul\":4111:4118   */\n      dup5\n        /* \"#utility.yul\":4102:4108   */\n      dup3\n        /* \"#utility.yul\":4091:4100   */\n      dup6\n        /* \"#utility.yul\":4087:4109   */\n      add\n        /* \"#utility.yul\":4067:4119   */\n      tag_59\n      jump\t// in\n    tag_127:\n        /* \"#utility.yul\":4057:4119   */\n      swap2\n      pop\n        /* \"#utility.yul\":4013:4129   */\n      pop\n        /* \"#utility.yul\":3809:4136   */\n      swap3\n      swap2\n      pop\n      pop\n      jump\t// out\n        /* \"#utility.yul\":4142:4260   */\n    tag_60:\n        /* \"#utility.yul\":4229:4253   */\n      tag_129\n        /* \"#utility.yul\":4247:4252   */\n      dup2\n        /* \"#utility.yul\":4229:4253   */\n      tag_52\n      jump\t// in\n    tag_129:\n        /* \"#utility.yul\":4224:4227   */\n      dup3\n        /* \"#utility.yul\":4217:4254   */\n      mstore\n        /* \"#utility.yul\":4142:4260   */\n      pop\n      pop\n      jump\t// out\n        /* \"#utility.yul\":4266:4381   */\n    tag_61:\n        /* \"#utility.yul\":4351:4374   */\n      tag_131\n        /* \"#utility.yul\":4368:4373   */\n      dup2\n        /* \"#utility.yul\":4351:4374   */\n      tag_57\n      jump\t// in\n    tag_131:\n        /* \"#utility.yul\":4346:4349   */\n      dup3\n        /* \"#utility.yul\":4339:4375   */\n      mstore\n        /* \"#utility.yul\":4266:4381   */\n      pop\n      pop\n      jump\t// out\n        /* \"#utility.yul\":4387:4825   */\n    tag_19:\n        /* \"#utility.yul\":4534:4538   */\n      0x00\n        /* \"#utility.yul\":4572:4574   */\n      0x60\n        /* \"#utility.yul\":4561:4570   */\n      dup3\n        /* \"#utility.yul\":4557:4575   */\n      add\n        /* \"#utility.yul\":4549:4575   */\n      swap1\n      pop\n        /* \"#utility.yul\":4585:4656   */\n      tag_133\n        /* \"#utility.yul\":4653:4654   */\n      0x00\n        /* \"#utility.yul\":4642:4651   */\n      dup4\n        /* \"#utility.yul\":4638:4655   */\n      add\n        /* \"#utility.yul\":4629:4635   */\n      dup7\n        /* \"#utility.yul\":4585:4656   */\n      tag_60\n      jump\t// in\n    tag_133:\n        /* \"#utility.yul\":4666:4738   */\n      tag_134\n        /* \"#utility.yul\":4734:4736   */\n      0x20\n        /* \"#utility.yul\":4723:4732   */\n      dup4\n        /* \"#utility.yul\":4719:4737   */\n      add\n        /* \"#utility.yul\":4710:4716   */\n      dup6\n        /* \"#utility.yul\":4666:4738   */\n      tag_60\n      jump\t// in\n    tag_134:\n        /* \"#utility.yul\":4748:4818   */\n      tag_135\n        /* \"#utility.yul\":4814:4816   */\n      0x40\n        /* \"#utility.yul\":4803:4812   */\n      dup4\n        /* \"#utility.yul\":4799:4817   */\n      add\n        /* \"#utility.yul\":4790:4796   */\n      dup5\n        /* \"#utility.yul\":4748:4818   */\n      tag_61\n      jump\t// in\n    tag_135:\n        /* \"#utility.yul\":4387:4825   */\n      swap5\n      swap4\n      pop\n      pop\n      pop\n      pop\n      jump\t// out\n        /* \"#utility.yul\":4831:4974   */\n    tag_62:\n        /* \"#utility.yul\":4888:4893   */\n      0x00\n        /* \"#utility.yul\":4919:4925   */\n      dup2\n        /* \"#utility.yul\":4913:4926   */\n      mload\n        /* \"#utility.yul\":4904:4926   */\n      swap1\n      pop\n        /* \"#utility.yul\":4935:4968   */\n      tag_137\n        /* \"#utility.yul\":4962:4967   */\n      dup2\n        /* \"#utility.yul\":4935:4968   */\n      tag_53\n      jump\t// in\n    tag_137:\n        /* \"#utility.yul\":4831:4974   */\n      swap3\n      swap2\n      pop\n      pop\n      jump\t// out\n        /* \"#utility.yul\":4980:5331   */\n    tag_23:\n        /* \"#utility.yul\":5050:5056   */\n      0x00\n        /* \"#utility.yul\":5099:5101   */\n      0x20\n        /* \"#utility.yul\":5087:5096   */\n      dup3\n        /* \"#utility.yul\":5078:5085   */\n      dup5\n        /* \"#utility.yul\":5074:5097   */\n      sub\n        /* \"#utility.yul\":5070:5102   */\n      slt\n        /* \"#utility.yul\":5067:5186   */\n      iszero\n      tag_139\n      jumpi\n        /* \"#utility.yul\":5105:5184   */\n      tag_140\n      tag_45\n      jump\t// in\n    tag_140:\n        /* \"#utility.yul\":5067:5186   */\n    tag_139:\n        /* \"#utility.yul\":5225:5226   */\n      0x00\n        /* \"#utility.yul\":5250:5314   */\n      tag_141\n        /* \"#utility.yul\":5306:5313   */\n      dup5\n        /* \"#utility.yul\":5297:5303   */\n      dup3\n        /* \"#utility.yul\":5286:5295   */\n      dup6\n        /* \"#utility.yul\":5282:5304   */\n      add\n        /* \"#utility.yul\":5250:5314   */\n      tag_62\n      jump\t// in\n    tag_141:\n        /* \"#utility.yul\":5240:5314   */\n      swap2\n      pop\n        /* \"#utility.yul\":5196:5324   */\n      pop\n        /* \"#utility.yul\":4980:5331   */\n      swap3\n      swap2\n      pop\n      pop\n      jump\t// out\n        /* \"#utility.yul\":5337:5455   */\n    tag_63:\n        /* \"#utility.yul\":5374:5381   */\n      0x00\n        /* \"#utility.yul\":5414:5448   */\n      0xffffffffffffffffffffffffffffffff\n        /* \"#utility.yul\":5407:5412   */\n      dup3\n        /* \"#utility.yul\":5403:5449   */\n      and\n        /* \"#utility.yul\":5392:5449   */\n      swap1\n      pop\n        /* \"#utility.yul\":5337:5455   */\n      swap2\n      swap1\n      pop\n      jump\t// out\n        /* \"#utility.yul\":5461:5583   */\n    tag_64:\n        /* \"#utility.yul\":5534:5558   */\n      tag_144\n        /* \"#utility.yul\":5552:5557   */\n      dup2\n        /* \"#utility.yul\":5534:5558   */\n      tag_63\n      jump\t// in\n    tag_144:\n        /* \"#utility.yul\":5527:5532   */\n      dup2\n        /* \"#utility.yul\":5524:5559   */\n      eq\n        /* \"#utility.yul\":5514:5577   */\n      tag_145\n      jumpi\n        /* \"#utility.yul\":5573:5574   */\n      0x00\n        /* \"#utility.yul\":5570:5571   */\n      dup1\n        /* \"#utility.yul\":5563:5575   */\n      revert\n        /* \"#utility.yul\":5514:5577   */\n    tag_145:\n        /* \"#utility.yul\":5461:5583   */\n      pop\n      jump\t// out\n        /* \"#utility.yul\":5589:5732   */\n    tag_65:\n        /* \"#utility.yul\":5646:5651   */\n      0x00\n        /* \"#utility.yul\":5677:5683   */\n      dup2\n        /* \"#utility.yul\":5671:5684   */\n      mload\n        /* \"#utility.yul\":5662:5684   */\n      swap1\n      pop\n        /* \"#utility.yul\":5693:5726   */\n      tag_147\n        /* \"#utility.yul\":5720:5725   */\n      dup2\n        /* \"#utility.yul\":5693:5726   */\n      tag_64\n      jump\t// in\n    tag_147:\n        /* \"#utility.yul\":5589:5732   */\n      swap3\n      swap2\n      pop\n      pop\n      jump\t// out\n        /* \"#utility.yul\":5738:6089   */\n    tag_28:\n        /* \"#utility.yul\":5808:5814   */\n      0x00\n        /* \"#utility.yul\":5857:5859   */\n      0x20\n        /* \"#utility.yul\":5845:5854   */\n      dup3\n        /* \"#utility.yul\":5836:5843   */\n      dup5\n        /* \"#utility.yul\":5832:5855   */\n      sub\n        /* \"#utility.yul\":5828:5860   */\n      slt\n        /* \"#utility.yul\":5825:5944   */\n      iszero\n      tag_149\n      jumpi\n        /* \"#utility.yul\":5863:5942   */\n      tag_150\n      tag_45\n      jump\t// in\n    tag_150:\n        /* \"#utility.yul\":5825:5944   */\n    tag_149:\n        /* \"#utility.yul\":5983:5984   */\n      0x00\n        /* \"#utility.yul\":6008:6072   */\n      tag_151\n        /* \"#utility.yul\":6064:6071   */\n      dup5\n        /* \"#utility.yul\":6055:6061   */\n      dup3\n        /* \"#utility.yul\":6044:6053   */\n      dup6\n        /* \"#utility.yul\":6040:6062   */\n      add\n        /* \"#utility.yul\":6008:6072   */\n      tag_65\n      jump\t// in\n    tag_151:\n        /* \"#utility.yul\":5998:6072   */\n      swap2\n      pop\n        /* \"#utility.yul\":5954:6082   */\n      pop\n        /* \"#utility.yul\":5738:6089   */\n      swap3\n      swap2\n      pop\n      pop\n      jump\t// out\n        /* \"#utility.yul\":6095:6217   */\n    tag_66:\n        /* \"#utility.yul\":6168:6192   */\n      tag_153\n        /* \"#utility.yul\":6186:6191   */\n      dup2\n        /* \"#utility.yul\":6168:6192   */\n      tag_51\n      jump\t// in\n    tag_153:\n        /* \"#utility.yul\":6161:6166   */\n      dup2\n        /* \"#utility.yul\":6158:6193   */\n      eq\n        /* \"#utility.yul\":6148:6211   */\n      tag_154\n      jumpi\n        /* \"#utility.yul\":6207:6208   */\n      0x00\n        /* \"#utility.yul\":6204:6205   */\n      dup1\n        /* \"#utility.yul\":6197:6209   */\n      revert\n        /* \"#utility.yul\":6148:6211   */\n    tag_154:\n        /* \"#utility.yul\":6095:6217   */\n      pop\n      jump\t// out\n        /* \"#utility.yul\":6223:6366   */\n    tag_67:\n        /* \"#utility.yul\":6280:6285   */\n      0x00\n        /* \"#utility.yul\":6311:6317   */\n      dup2\n        /* \"#utility.yul\":6305:6318   */\n      mload\n        /* \"#utility.yul\":6296:6318   */\n      swap1\n      pop\n        /* \"#utility.yul\":6327:6360   */\n      tag_156\n        /* \"#utility.yul\":6354:6359   */\n      dup2\n        /* \"#utility.yul\":6327:6360   */\n      tag_66\n      jump\t// in\n    tag_156:\n        /* \"#utility.yul\":6223:6366   */\n      swap3\n      swap2\n      pop\n      pop\n      jump\t// out\n        /* \"#utility.yul\":6372:6462   */\n    tag_68:\n        /* \"#utility.yul\":6407:6414   */\n      0x00\n        /* \"#utility.yul\":6450:6455   */\n      dup2\n        /* \"#utility.yul\":6447:6448   */\n      0x02\n        /* \"#utility.yul\":6436:6456   */\n      signextend\n        /* \"#utility.yul\":6425:6456   */\n      swap1\n      pop\n        /* \"#utility.yul\":6372:6462   */\n      swap2\n      swap1\n      pop\n      jump\t// out\n        /* \"#utility.yul\":6468:6586   */\n    tag_69:\n        /* \"#utility.yul\":6539:6561   */\n      tag_159\n        /* \"#utility.yul\":6555:6560   */\n      dup2\n        /* \"#utility.yul\":6539:6561   */\n      tag_68\n      jump\t// in\n    tag_159:\n        /* \"#utility.yul\":6532:6537   */\n      dup2\n        /* \"#utility.yul\":6529:6562   */\n      eq\n        /* \"#utility.yul\":6519:6580   */\n      tag_160\n      jumpi\n        /* \"#utility.yul\":6576:6577   */\n      0x00\n        /* \"#utility.yul\":6573:6574   */\n      dup1\n        /* \"#utility.yul\":6566:6578   */\n      revert\n        /* \"#utility.yul\":6519:6580   */\n    tag_160:\n        /* \"#utility.yul\":6468:6586   */\n      pop\n      jump\t// out\n        /* \"#utility.yul\":6592:6731   */\n    tag_70:\n        /* \"#utility.yul\":6647:6652   */\n      0x00\n        /* \"#utility.yul\":6678:6684   */\n      dup2\n        /* \"#utility.yul\":6672:6685   */\n      mload\n        /* \"#utility.yul\":6663:6685   */\n      swap1\n      pop\n        /* \"#utility.yul\":6694:6725   */\n      tag_162\n        /* \"#utility.yul\":6719:6724   */\n      dup2\n        /* \"#utility.yul\":6694:6725   */\n      tag_69\n      jump\t// in\n    tag_162:\n        /* \"#utility.yul\":6592:6731   */\n      swap3\n      swap2\n      pop\n      pop\n      jump\t// out\n        /* \"#utility.yul\":6737:6826   */\n    tag_71:\n        /* \"#utility.yul\":6773:6780   */\n      0x00\n        /* \"#utility.yul\":6813:6819   */\n      0xffff\n        /* \"#utility.yul\":6806:6811   */\n      dup3\n        /* \"#utility.yul\":6802:6820   */\n      and\n        /* \"#utility.yul\":6791:6820   */\n      swap1\n      pop\n        /* \"#utility.yul\":6737:6826   */\n      swap2\n      swap1\n      pop\n      jump\t// out\n        /* \"#utility.yul\":6832:6952   */\n    tag_72:\n        /* \"#utility.yul\":6904:6927   */\n      tag_165\n        /* \"#utility.yul\":6921:6926   */\n      dup2\n        /* \"#utility.yul\":6904:6927   */\n      tag_71\n      jump\t// in\n    tag_165:\n        /* \"#utility.yul\":6897:6902   */\n      dup2\n        /* \"#utility.yul\":6894:6928   */\n      eq\n        /* \"#utility.yul\":6884:6946   */\n      tag_166\n      jumpi\n        /* \"#utility.yul\":6942:6943   */\n      0x00\n        /* \"#utility.yul\":6939:6940   */\n      dup1\n        /* \"#utility.yul\":6932:6944   */\n      revert\n        /* \"#utility.yul\":6884:6946   */\n    tag_166:\n        /* \"#utility.yul\":6832:6952   */\n      pop\n      jump\t// out\n        /* \"#utility.yul\":6958:7099   */\n    tag_73:\n        /* \"#utility.yul\":7014:7019   */\n      0x00\n        /* \"#utility.yul\":7045:7051   */\n      dup2\n        /* \"#utility.yul\":7039:7052   */\n      mload\n        /* \"#utility.yul\":7030:7052   */\n      swap1\n      pop\n        /* \"#utility.yul\":7061:7093   */\n      tag_168\n        /* \"#utility.yul\":7087:7092   */\n      dup2\n        /* \"#utility.yul\":7061:7093   */\n      tag_72\n      jump\t// in\n    tag_168:\n        /* \"#utility.yul\":6958:7099   */\n      swap3\n      swap2\n      pop\n      pop\n      jump\t// out\n        /* \"#utility.yul\":7105:7191   */\n    tag_74:\n        /* \"#utility.yul\":7140:7147   */\n      0x00\n        /* \"#utility.yul\":7180:7184   */\n      0xff\n        /* \"#utility.yul\":7173:7178   */\n      dup3\n        /* \"#utility.yul\":7169:7185   */\n      and\n        /* \"#utility.yul\":7158:7185   */\n      swap1\n      pop\n        /* \"#utility.yul\":7105:7191   */\n      swap2\n      swap1\n      pop\n      jump\t// out\n        /* \"#utility.yul\":7197:7315   */\n    tag_75:\n        /* \"#utility.yul\":7268:7290   */\n      tag_171\n        /* \"#utility.yul\":7284:7289   */\n      dup2\n        /* \"#utility.yul\":7268:7290   */\n      tag_74\n      jump\t// in\n    tag_171:\n        /* \"#utility.yul\":7261:7266   */\n      dup2\n        /* \"#utility.yul\":7258:7291   */\n      eq\n        /* \"#utility.yul\":7248:7309   */\n      tag_172\n      jumpi\n        /* \"#utility.yul\":7305:7306   */\n      0x00\n        /* \"#utility.yul\":7302:7303   */\n      dup1\n        /* \"#utility.yul\":7295:7307   */\n      revert\n        /* \"#utility.yul\":7248:7309   */\n    tag_172:\n        /* \"#utility.yul\":7197:7315   */\n      pop\n      jump\t// out\n        /* \"#utility.yul\":7321:7460   */\n    tag_76:\n        /* \"#utility.yul\":7376:7381   */\n      0x00\n        /* \"#utility.yul\":7407:7413   */\n      dup2\n        /* \"#utility.yul\":7401:7414   */\n      mload\n        /* \"#utility.yul\":7392:7414   */\n      swap1\n      pop\n        /* \"#utility.yul\":7423:7454   */\n      tag_174\n        /* \"#utility.yul\":7448:7453   */\n      dup2\n        /* \"#utility.yul\":7423:7454   */\n      tag_75\n      jump\t// in\n    tag_174:\n        /* \"#utility.yul\":7321:7460   */\n      swap3\n      swap2\n      pop\n      pop\n      jump\t// out\n        /* \"#utility.yul\":7466:7556   */\n    tag_77:\n        /* \"#utility.yul\":7500:7507   */\n      0x00\n        /* \"#utility.yul\":7543:7548   */\n      dup2\n        /* \"#utility.yul\":7536:7549   */\n      iszero\n        /* \"#utility.yul\":7529:7550   */\n      iszero\n        /* \"#utility.yul\":7518:7550   */\n      swap1\n      pop\n        /* \"#utility.yul\":7466:7556   */\n      swap2\n      swap1\n      pop\n      jump\t// out\n        /* \"#utility.yul\":7562:7678   */\n    tag_78:\n        /* \"#utility.yul\":7632:7653   */\n      tag_177\n        /* \"#utility.yul\":7647:7652   */\n      dup2\n        /* \"#utility.yul\":7632:7653   */\n      tag_77\n      jump\t// in\n    tag_177:\n        /* \"#utility.yul\":7625:7630   */\n      dup2\n        /* \"#utility.yul\":7622:7654   */\n      eq\n        /* \"#utility.yul\":7612:7672   */\n      tag_178\n      jumpi\n        /* \"#utility.yul\":7668:7669   */\n      0x00\n        /* \"#utility.yul\":7665:7666   */\n      dup1\n        /* \"#utility.yul\":7658:7670   */\n      revert\n        /* \"#utility.yul\":7612:7672   */\n    tag_178:\n        /* \"#utility.yul\":7562:7678   */\n      pop\n      jump\t// out\n        /* \"#utility.yul\":7684:7821   */\n    tag_79:\n        /* \"#utility.yul\":7738:7743   */\n      0x00\n        /* \"#utility.yul\":7769:7775   */\n      dup2\n        /* \"#utility.yul\":7763:7776   */\n      mload\n        /* \"#utility.yul\":7754:7776   */\n      swap1\n      pop\n        /* \"#utility.yul\":7785:7815   */\n      tag_180\n        /* \"#utility.yul\":7809:7814   */\n      dup2\n        /* \"#utility.yul\":7785:7815   */\n      tag_78\n      jump\t// in\n    tag_180:\n        /* \"#utility.yul\":7684:7821   */\n      swap3\n      swap2\n      pop\n      pop\n      jump\t// out\n        /* \"#utility.yul\":7827:9098   */\n    tag_33:\n        /* \"#utility.yul\":7941:7947   */\n      0x00\n        /* \"#utility.yul\":7949:7955   */\n      dup1\n        /* \"#utility.yul\":7957:7963   */\n      0x00\n        /* \"#utility.yul\":7965:7971   */\n      dup1\n        /* \"#utility.yul\":7973:7979   */\n      0x00\n        /* \"#utility.yul\":7981:7987   */\n      dup1\n        /* \"#utility.yul\":7989:7995   */\n      0x00\n        /* \"#utility.yul\":8038:8041   */\n      0xe0\n        /* \"#utility.yul\":8026:8035   */\n      dup9\n        /* \"#utility.yul\":8017:8024   */\n      dup11\n        /* \"#utility.yul\":8013:8036   */\n      sub\n        /* \"#utility.yul\":8009:8042   */\n      slt\n        /* \"#utility.yul\":8006:8126   */\n      iszero\n      tag_182\n      jumpi\n        /* \"#utility.yul\":8045:8124   */\n      tag_183\n      tag_45\n      jump\t// in\n    tag_183:\n        /* \"#utility.yul\":8006:8126   */\n    tag_182:\n        /* \"#utility.yul\":8165:8166   */\n      0x00\n        /* \"#utility.yul\":8190:8254   */\n      tag_184\n        /* \"#utility.yul\":8246:8253   */\n      dup11\n        /* \"#utility.yul\":8237:8243   */\n      dup3\n        /* \"#utility.yul\":8226:8235   */\n      dup12\n        /* \"#utility.yul\":8222:8244   */\n      add\n        /* \"#utility.yul\":8190:8254   */\n      tag_67\n      jump\t// in\n    tag_184:\n        /* \"#utility.yul\":8180:8254   */\n      swap8\n      pop\n        /* \"#utility.yul\":8136:8264   */\n      pop\n        /* \"#utility.yul\":8303:8305   */\n      0x20\n        /* \"#utility.yul\":8329:8391   */\n      tag_185\n        /* \"#utility.yul\":8383:8390   */\n      dup11\n        /* \"#utility.yul\":8374:8380   */\n      dup3\n        /* \"#utility.yul\":8363:8372   */\n      dup12\n        /* \"#utility.yul\":8359:8381   */\n      add\n        /* \"#utility.yul\":8329:8391   */\n      tag_70\n      jump\t// in\n    tag_185:\n        /* \"#utility.yul\":8319:8391   */\n      swap7\n      pop\n        /* \"#utility.yul\":8274:8401   */\n      pop\n        /* \"#utility.yul\":8440:8442   */\n      0x40\n        /* \"#utility.yul\":8466:8529   */\n      tag_186\n        /* \"#utility.yul\":8521:8528   */\n      dup11\n        /* \"#utility.yul\":8512:8518   */\n      dup3\n        /* \"#utility.yul\":8501:8510   */\n      dup12\n        /* \"#utility.yul\":8497:8519   */\n      add\n        /* \"#utility.yul\":8466:8529   */\n      tag_73\n      jump\t// in\n    tag_186:\n        /* \"#utility.yul\":8456:8529   */\n      swap6\n      pop\n        /* \"#utility.yul\":8411:8539   */\n      pop\n        /* \"#utility.yul\":8578:8580   */\n      0x60\n        /* \"#utility.yul\":8604:8667   */\n      tag_187\n        /* \"#utility.yul\":8659:8666   */\n      dup11\n        /* \"#utility.yul\":8650:8656   */\n      dup3\n        /* \"#utility.yul\":8639:8648   */\n      dup12\n        /* \"#utility.yul\":8635:8657   */\n      add\n        /* \"#utility.yul\":8604:8667   */\n      tag_73\n      jump\t// in\n    tag_187:\n        /* \"#utility.yul\":8594:8667   */\n      swap5\n      pop\n        /* \"#utility.yul\":8549:8677   */\n      pop\n        /* \"#utility.yul\":8716:8719   */\n      0x80\n        /* \"#utility.yul\":8743:8806   */\n      tag_188\n        /* \"#utility.yul\":8798:8805   */\n      dup11\n        /* \"#utility.yul\":8789:8795   */\n      dup3\n        /* \"#utility.yul\":8778:8787   */\n      dup12\n        /* \"#utility.yul\":8774:8796   */\n      add\n        /* \"#utility.yul\":8743:8806   */\n      tag_73\n      jump\t// in\n    tag_188:\n        /* \"#utility.yul\":8733:8806   */\n      swap4\n      pop\n        /* \"#utility.yul\":8687:8816   */\n      pop\n        /* \"#utility.yul\":8855:8858   */\n      0xa0\n        /* \"#utility.yul\":8882:8944   */\n      tag_189\n        /* \"#utility.yul\":8936:8943   */\n      dup11\n        /* \"#utility.yul\":8927:8933   */\n      dup3\n        /* \"#utility.yul\":8916:8925   */\n      dup12\n        /* \"#utility.yul\":8912:8934   */\n      add\n        /* \"#utility.yul\":8882:8944   */\n      tag_76\n      jump\t// in\n    tag_189:\n        /* \"#utility.yul\":8872:8944   */\n      swap3\n      pop\n        /* \"#utility.yul\":8826:8954   */\n      pop\n        /* \"#utility.yul\":8993:8996   */\n      0xc0\n        /* \"#utility.yul\":9020:9081   */\n      tag_190\n        /* \"#utility.yul\":9073:9080   */\n      dup11\n        /* \"#utility.yul\":9064:9070   */\n      dup3\n        /* \"#utility.yul\":9053:9062   */\n      dup12\n        /* \"#utility.yul\":9049:9071   */\n      add\n        /* \"#utility.yul\":9020:9081   */\n      tag_79\n      jump\t// in\n    tag_190:\n        /* \"#utility.yul\":9010:9081   */\n      swap2\n      pop\n        /* \"#utility.yul\":8964:9091   */\n      pop\n        /* \"#utility.yul\":7827:9098   */\n      swap3\n      swap6\n      swap9\n      swap2\n      swap5\n      swap8\n      pop\n      swap3\n      swap6\n      pop\n      jump\t// out\n        /* \"#utility.yul\":9104:9451   */\n    tag_38:\n        /* \"#utility.yul\":9172:9178   */\n      0x00\n        /* \"#utility.yul\":9221:9223   */\n      0x20\n        /* \"#utility.yul\":9209:9218   */\n      dup3\n        /* \"#utility.yul\":9200:9207   */\n      dup5\n        /* \"#utility.yul\":9196:9219   */\n      sub\n        /* \"#utility.yul\":9192:9224   */\n      slt\n        /* \"#utility.yul\":9189:9308   */\n      iszero\n      tag_192\n      jumpi\n        /* \"#utility.yul\":9227:9306   */\n      tag_193\n      tag_45\n      jump\t// in\n    tag_193:\n        /* \"#utility.yul\":9189:9308   */\n    tag_192:\n        /* \"#utility.yul\":9347:9348   */\n      0x00\n        /* \"#utility.yul\":9372:9434   */\n      tag_194\n        /* \"#utility.yul\":9426:9433   */\n      dup5\n        /* \"#utility.yul\":9417:9423   */\n      dup3\n        /* \"#utility.yul\":9406:9415   */\n      dup6\n        /* \"#utility.yul\":9402:9424   */\n      add\n        /* \"#utility.yul\":9372:9434   */\n      tag_76\n      jump\t// in\n    tag_194:\n        /* \"#utility.yul\":9362:9434   */\n      swap2\n      pop\n        /* \"#utility.yul\":9318:9444   */\n      pop\n        /* \"#utility.yul\":9104:9451   */\n      swap3\n      swap2\n      pop\n      pop\n      jump\t// out\n        /* \"#utility.yul\":9457:9637   */\n    tag_80:\n        /* \"#utility.yul\":9505:9582   */\n      0x4e487b7100000000000000000000000000000000000000000000000000000000\n        /* \"#utility.yul\":9502:9503   */\n      0x00\n        /* \"#utility.yul\":9495:9583   */\n      mstore\n        /* \"#utility.yul\":9602:9606   */\n      0x11\n        /* \"#utility.yul\":9599:9600   */\n      0x04\n        /* \"#utility.yul\":9592:9607   */\n      mstore\n        /* \"#utility.yul\":9626:9630   */\n      0x24\n        /* \"#utility.yul\":9623:9624   */\n      0x00\n        /* \"#utility.yul\":9616:9631   */\n      revert\n        /* \"#utility.yul\":9643:9876   */\n    tag_43:\n        /* \"#utility.yul\":9682:9685   */\n      0x00\n        /* \"#utility.yul\":9705:9729   */\n      tag_197\n        /* \"#utility.yul\":9723:9728   */\n      dup3\n        /* \"#utility.yul\":9705:9729   */\n      tag_55\n      jump\t// in\n    tag_197:\n        /* \"#utility.yul\":9696:9729   */\n      swap2\n      pop\n        /* \"#utility.yul\":9751:9817   */\n      0xffffffffffffffffffffffffffffffffffffffffffffffffffffffffffffffff\n        /* \"#utility.yul\":9744:9749   */\n      dup3\n        /* \"#utility.yul\":9741:9818   */\n      sub\n        /* \"#utility.yul\":9738:9841   */\n      tag_198\n      jumpi\n        /* \"#utility.yul\":9821:9839   */\n      tag_199\n      tag_80\n      jump\t// in\n    tag_199:\n        /* \"#utility.yul\":9738:9841   */\n    tag_198:\n        /* \"#utility.yul\":9868:9869   */\n      0x01\n        /* \"#utility.yul\":9861:9866   */\n      dup3\n        /* \"#utility.yul\":9857:9870   */\n      add\n        /* \"#utility.yul\":9850:9870   */\n      swap1\n      pop\n        /* \"#utility.yul\":9643:9876   */\n      swap2\n      swap1\n      pop\n      jump\t// out\n\n    auxdata: 0xa26469706673582212203d49f24c15d2da9026880a4d588f5dbe1a8696c2399cc2a07344385b46175f9064736f6c63430008110033\n}\n",
				"bytecode": {
					"linkReferences": {},
					"object": "610954610053600b82828239805160001a607314610046577f4e487b7100000000000000000000000000000000000000000000000000000000600052600060045260246000fd5b30600052607381538281f3fe73000000000000000000000000000000000000000030146080604052600436106100355760003560e01c806397d784b11461003a575b600080fd5b610054600480360381019061004f9190610469565b61006a565b604051610061919061050a565b60405180910390f35b600080600090505b868690508110156103925760008573ffffffffffffffffffffffffffffffffffffffff16631698ee8286868b8b878181106100b0576100af610525565b5b90506020020160208101906100c5919061058f565b6040518463ffffffff1660e01b81526004016100e3939291906105da565b602060405180830381865afa158015610100573d6000803e3d6000fd5b505050506040513d601f19601f820116820180604052508101906101249190610626565b9050600073ffffffffffffffffffffffffffffffffffffffff168173ffffffffffffffffffffffffffffffffffffffff1603610160575061037f565b60008173ffffffffffffffffffffffffffffffffffffffff16631a6865026040518163ffffffff1660e01b8152600401602060405180830381865afa1580156101ad573d6000803e3d6000fd5b505050506040513d601f19601f820116820180604052508101906101d1919061069b565b90506000816fffffffffffffffffffffffffffffffff16036101f457505061037f565b60008273ffffffffffffffffffffffffffffffffffffffff16633850c7bd6040518163ffffffff1660e01b815260040160e060405180830381865afa158015610241573d6000803e3d6000fd5b505050506040513d601f19601f8201168201806040525081019061026591906107d8565b505050505050905060008173ffffffffffffffffffffffffffffffffffffffff16036102935750505061037f565b60008773ffffffffffffffffffffffffffffffffffffffff1663313ce5676040518163ffffffff1660e01b8152600401602060405180830381865afa1580156102e0573d6000803e3d6000fd5b505050506040513d601f19601f82011682018060405250810190610304919061087a565b905060008773ffffffffffffffffffffffffffffffffffffffff1663313ce5676040518163ffffffff1660e01b8152600401602060405180830381865afa158015610353573d6000803e3d6000fd5b505050506040513d601f19601f82011682018060405250810190610377919061087a565b905050505050505b808061038a906108d6565b915050610072565b5095945050505050565b600080fd5b600080fd5b600080fd5b600080fd5b600080fd5b60008083601f8401126103cb576103ca6103a6565b5b8235905067ffffffffffffffff8111156103e8576103e76103ab565b5b602083019150836020820283011115610404576104036103b0565b5b9250929050565b600073ffffffffffffffffffffffffffffffffffffffff82169050919050565b60006104368261040b565b9050919050565b6104468161042b565b811461045157600080fd5b50565b6000813590506104638161043d565b92915050565b6000806000806000608086880312156104855761048461039c565b5b600086013567ffffffffffffffff8111156104a3576104a26103a1565b5b6104af888289016103b5565b955095505060206104c288828901610454565b93505060406104d388828901610454565b92505060606104e488828901610454565b9150509295509295909350565b6000819050919050565b610504816104f1565b82525050565b600060208201905061051f60008301846104fb565b92915050565b7f4e487b7100000000000000000000000000000000000000000000000000000000600052603260045260246000fd5b600062ffffff82169050919050565b61056c81610554565b811461057757600080fd5b50565b60008135905061058981610563565b92915050565b6000602082840312156105a5576105a461039c565b5b60006105b38482850161057a565b91505092915050565b6105c58161042b565b82525050565b6105d481610554565b82525050565b60006060820190506105ef60008301866105bc565b6105fc60208301856105bc565b61060960408301846105cb565b949350505050565b6000815190506106208161043d565b92915050565b60006020828403121561063c5761063b61039c565b5b600061064a84828501610611565b91505092915050565b60006fffffffffffffffffffffffffffffffff82169050919050565b61067881610653565b811461068357600080fd5b50565b6000815190506106958161066f565b92915050565b6000602082840312156106b1576106b061039c565b5b60006106bf84828501610686565b91505092915050565b6106d18161040b565b81146106dc57600080fd5b50565b6000815190506106ee816106c8565b92915050565b60008160020b9050919050565b61070a816106f4565b811461071557600080fd5b50565b60008151905061072781610701565b92915050565b600061ffff82169050919050565b6107448161072d565b811461074f57600080fd5b50565b6000815190506107618161073b565b92915050565b600060ff82169050919050565b61077d81610767565b811461078857600080fd5b50565b60008151905061079a81610774565b92915050565b60008115159050919050565b6107b5816107a0565b81146107c057600080fd5b50565b6000815190506107d2816107ac565b92915050565b600080600080600080600060e0888a0312156107f7576107f661039c565b5b60006108058a828b016106df565b97505060206108168a828b01610718565b96505060406108278a828b01610752565b95505060606108388a828b01610752565b94505060806108498a828b01610752565b93505060a061085a8a828b0161078b565b92505060c061086b8a828b016107c3565b91505092959891949750929550565b6000602082840312156108905761088f61039c565b5b600061089e8482850161078b565b91505092915050565b7f4e487b7100000000000000000000000000000000000000000000000000000000600052601160045260246000fd5b60006108e1826104f1565b91507fffffffffffffffffffffffffffffffffffffffffffffffffffffffffffffffff8203610913576109126108a7565b5b60018201905091905056fea26469706673582212203d49f24c15d2da9026880a4d588f5dbe1a8696c2399cc2a07344385b46175f9064736f6c63430008110033",
					"opcodes": "PUSH2 0x954 PUSH2 0x53 PUSH1 0xB DUP3 DUP3 DUP3 CODECOPY DUP1 MLOAD PUSH1 0x0 BYTE PUSH1 0x73 EQ PUSH2 0x46 JUMPI PUSH32 0x4E487B7100000000000000000000000000000000000000000000000000000000 PUSH1 0x0 MSTORE PUSH1 0x0 PUSH1 0x4 MSTORE PUSH1 0x24 PUSH1 0x0 REVERT JUMPDEST ADDRESS PUSH1 0x0 MSTORE PUSH1 0x73 DUP2 MSTORE8 DUP3 DUP2 RETURN INVALID PUSH20 0x0 ADDRESS EQ PUSH1 0x80 PUSH1 0x40 MSTORE PUSH1 0x4 CALLDATASIZE LT PUSH2 0x35 JUMPI PUSH1 0x0 CALLDATALOAD PUSH1 0xE0 SHR DUP1 PUSH4 0x97D784B1 EQ PUSH2 0x3A JUMPI JUMPDEST PUSH1 0x0 DUP1 REVERT JUMPDEST PUSH2 0x54 PUSH1 0x4 DUP1 CALLDATASIZE SUB DUP2 ADD SWAP1 PUSH2 0x4F SWAP2 SWAP1 PUSH2 0x469 JUMP JUMPDEST PUSH2 0x6A JUMP JUMPDEST PUSH1 0x40 MLOAD PUSH2 0x61 SWAP2 SWAP1 PUSH2 0x50A JUMP JUMPDEST PUSH1 0x40 MLOAD DUP1 SWAP2 SUB SWAP1 RETURN JUMPDEST PUSH1 0x0 DUP1 PUSH1 0x0 SWAP1 POP JUMPDEST DUP7 DUP7 SWAP1 POP DUP2 LT ISZERO PUSH2 0x392 JUMPI PUSH1 0x0 DUP6 PUSH20 0xFFFFFFFFFFFFFFFFFFFFFFFFFFFFFFFFFFFFFFFF AND PUSH4 0x1698EE82 DUP7 DUP7 DUP12 DUP12 DUP8 DUP2 DUP2 LT PUSH2 0xB0 JUMPI PUSH2 0xAF PUSH2 0x525 JUMP JUMPDEST JUMPDEST SWAP1 POP PUSH1 0x20 MUL ADD PUSH1 0x20 DUP2 ADD SWAP1 PUSH2 0xC5 SWAP2 SWAP1 PUSH2 0x58F JUMP JUMPDEST PUSH1 0x40 MLOAD DUP5 PUSH4 0xFFFFFFFF AND PUSH1 0xE0 SHL DUP2 MSTORE PUSH1 0x4 ADD PUSH2 0xE3 SWAP4 SWAP3 SWAP2 SWAP1 PUSH2 0x5DA JUMP JUMPDEST PUSH1 0x20 PUSH1 0x40 MLOAD DUP1 DUP4 SUB DUP2 DUP7 GAS STATICCALL ISZERO DUP1 ISZERO PUSH2 0x100 JUMPI RETURNDATASIZE PUSH1 0x0 DUP1 RETURNDATACOPY RETURNDATASIZE PUSH1 0x0 REVERT JUMPDEST POP POP POP POP PUSH1 0x40 MLOAD RETURNDATASIZE PUSH1 0x1F NOT PUSH1 0x1F DUP3 ADD AND DUP3 ADD DUP1 PUSH1 0x40 MSTORE POP DUP2 ADD SWAP1 PUSH2 0x124 SWAP2 SWAP1 PUSH2 0x626 JUMP JUMPDEST SWAP1 POP PUSH1 0x0 PUSH20 0xFFFFFFFFFFFFFFFFFFFFFFFFFFFFFFFFFFFFFFFF AND DUP2 PUSH20 0xFFFFFFFFFFFFFFFFFFFFFFFFFFFFFFFFFFFFFFFF AND SUB PUSH2 0x160 JUMPI POP PUSH2 0x37F JUMP JUMPDEST PUSH1 0x0 DUP2 PUSH20 0xFFFFFFFFFFFFFFFFFFFFFFFFFFFFFFFFFFFFFFFF AND PUSH4 0x1A686502 PUSH1 0x40 MLOAD DUP2 PUSH4 0xFFFFFFFF AND PUSH1 0xE0 SHL DUP2 MSTORE PUSH1 0x4 ADD PUSH1 0x20 PUSH1 0x40 MLOAD DUP1 DUP4 SUB DUP2 DUP7 GAS STATICCALL ISZERO DUP1 ISZERO PUSH2 0x1AD JUMPI RETURNDATASIZE PUSH1 0x0 DUP1 RETURNDATACOPY RETURNDATASIZE PUSH1 0x0 REVERT JUMPDEST POP POP POP POP PUSH1 0x40 MLOAD RETURNDATASIZE PUSH1 0x1F NOT PUSH1 0x1F DUP3 ADD AND DUP3 ADD DUP1 PUSH1 0x40 MSTORE POP DUP2 ADD SWAP1 PUSH2 0x1D1 SWAP2 SWAP1 PUSH2 0x69B JUMP JUMPDEST SWAP1 POP PUSH1 0x0 DUP2 PUSH16 0xFFFFFFFFFFFFFFFFFFFFFFFFFFFFFFFF AND SUB PUSH2 0x1F4 JUMPI POP POP PUSH2 0x37F JUMP JUMPDEST PUSH1 0x0 DUP3 PUSH20 0xFFFFFFFFFFFFFFFFFFFFFFFFFFFFFFFFFFFFFFFF AND PUSH4 0x3850C7BD PUSH1 0x40 MLOAD DUP2 PUSH4 0xFFFFFFFF AND PUSH1 0xE0 SHL DUP2 MSTORE PUSH1 0x4 ADD PUSH1 0xE0 PUSH1 0x40 MLOAD DUP1 DUP4 SUB DUP2 DUP7 GAS STATICCALL ISZERO DUP1 ISZERO PUSH2 0x241 JUMPI RETURNDATASIZE PUSH1 0x0 DUP1 RETURNDATACOPY RETURNDATASIZE PUSH1 0x0 REVERT JUMPDEST POP POP POP POP PUSH1 0x40 MLOAD RETURNDATASIZE PUSH1 0x1F NOT PUSH1 0x1F DUP3 ADD AND DUP3 ADD DUP1 PUSH1 0x40 MSTORE POP DUP2 ADD SWAP1 PUSH2 0x265 SWAP2 SWAP1 PUSH2 0x7D8 JUMP JUMPDEST POP POP POP POP POP POP SWAP1 POP PUSH1 0x0 DUP2 PUSH20 0xFFFFFFFFFFFFFFFFFFFFFFFFFFFFFFFFFFFFFFFF AND SUB PUSH2 0x293 JUMPI POP POP POP PUSH2 0x37F JUMP JUMPDEST PUSH1 0x0 DUP8 PUSH20 0xFFFFFFFFFFFFFFFFFFFFFFFFFFFFFFFFFFFFFFFF AND PUSH4 0x313CE567 PUSH1 0x40 MLOAD DUP2 PUSH4 0xFFFFFFFF AND PUSH1 0xE0 SHL DUP2 MSTORE PUSH1 0x4 ADD PUSH1 0x20 PUSH1 0x40 MLOAD DUP1 DUP4 SUB DUP2 DUP7 GAS STATICCALL ISZERO DUP1 ISZERO PUSH2 0x2E0 JUMPI RETURNDATASIZE PUSH1 0x0 DUP1 RETURNDATACOPY RETURNDATASIZE PUSH1 0x0 REVERT JUMPDEST POP POP POP POP PUSH1 0x40 MLOAD RETURNDATASIZE PUSH1 0x1F NOT PUSH1 0x1F DUP3 ADD AND DUP3 ADD DUP1 PUSH1 0x40 MSTORE POP DUP2 ADD SWAP1 PUSH2 0x304 SWAP2 SWAP1 PUSH2 0x87A JUMP JUMPDEST SWAP1 POP PUSH1 0x0 DUP8 PUSH20 0xFFFFFFFFFFFFFFFFFFFFFFFFFFFFFFFFFFFFFFFF AND PUSH4 0x313CE567 PUSH1 0x40 MLOAD DUP2 PUSH4 0xFFFFFFFF AND PUSH1 0xE0 SHL DUP2 MSTORE PUSH1 0x4 ADD PUSH1 0x20 PUSH1 0x40 MLOAD DUP1 DUP4 SUB DUP2 DUP7 GAS STATICCALL ISZERO DUP1 ISZERO PUSH2 0x353 JUMPI RETURNDATASIZE PUSH1 0x0 DUP1 RETURNDATACOPY RETURNDATASIZE PUSH1 0x0 REVERT JUMPDEST POP POP POP POP PUSH1 0x40 MLOAD RETURNDATASIZE PUSH1 0x1F NOT PUSH1 0x1F DUP3 ADD AND DUP3 ADD DUP1 PUSH1 0x40 MSTORE POP DUP2 ADD SWAP1 PUSH2 0x377 SWAP2 SWAP1 PUSH2 0x87A JUMP JUMPDEST SWAP1 POP POP POP POP POP POP JUMPDEST DUP1 DUP1 PUSH2 0x38A SWAP1 PUSH2 0x8D6 JUMP JUMPDEST SWAP2 POP POP PUSH2 0x72 JUMP JUMPDEST POP SWAP6 SWAP5 POP POP POP POP POP JUMP JUMPDEST PUSH1 0x0 DUP1 REVERT JUMPDEST PUSH1 0x0 DUP1 REVERT JUMPDEST PUSH1 0x0 DUP1 REVERT JUMPDEST PUSH1 0x0 DUP1 REVERT JUMPDEST PUSH1 0x0 DUP1 REVERT JUMPDEST PUSH1 0x0 DUP1 DUP4 PUSH1 0x1F DUP5 ADD SLT PUSH2 0x3CB JUMPI PUSH2 0x3CA PUSH2 0x3A6 JUMP JUMPDEST JUMPDEST DUP3 CALLDATALOAD SWAP1 POP PUSH8 0xFFFFFFFFFFFFFFFF DUP2 GT ISZERO PUSH2 0x3E8 JUMPI PUSH2 0x3E7 PUSH2 0x3AB JUMP JUMPDEST JUMPDEST PUSH1 0x20 DUP4 ADD SWAP2 POP DUP4 PUSH1 0x20 DUP3 MUL DUP4 ADD GT ISZERO PUSH2 0x404 JUMPI PUSH2 0x403 PUSH2 0x3B0 JUMP JUMPDEST JUMPDEST SWAP3 POP SWAP3 SWAP1 POP JUMP JUMPDEST PUSH1 0x0 PUSH20 0xFFFFFFFFFFFFFFFFFFFFFFFFFFFFFFFFFFFFFFFF DUP3 AND SWAP1 POP SWAP2 SWAP1 POP JUMP JUMPDEST PUSH1 0x0 PUSH2 0x436 DUP3 PUSH2 0x40B JUMP JUMPDEST SWAP1 POP SWAP2 SWAP1 POP JUMP JUMPDEST PUSH2 0x446 DUP2 PUSH2 0x42B JUMP JUMPDEST DUP2 EQ PUSH2 0x451 JUMPI PUSH1 0x0 DUP1 REVERT JUMPDEST POP JUMP JUMPDEST PUSH1 0x0 DUP2 CALLDATALOAD SWAP1 POP PUSH2 0x463 DUP2 PUSH2 0x43D JUMP JUMPDEST SWAP3 SWAP2 POP POP JUMP JUMPDEST PUSH1 0x0 DUP1 PUSH1 0x0 DUP1 PUSH1 0x0 PUSH1 0x80 DUP7 DUP9 SUB SLT ISZERO PUSH2 0x485 JUMPI PUSH2 0x484 PUSH2 0x39C JUMP JUMPDEST JUMPDEST PUSH1 0x0 DUP7 ADD CALLDATALOAD PUSH8 0xFFFFFFFFFFFFFFFF DUP2 GT ISZERO PUSH2 0x4A3 JUMPI PUSH2 0x4A2 PUSH2 0x3A1 JUMP JUMPDEST JUMPDEST PUSH2 0x4AF DUP9 DUP3 DUP10 ADD PUSH2 0x3B5 JUMP JUMPDEST SWAP6 POP SWAP6 POP POP PUSH1 0x20 PUSH2 0x4C2 DUP9 DUP3 DUP10 ADD PUSH2 0x454 JUMP JUMPDEST SWAP4 POP POP PUSH1 0x40 PUSH2 0x4D3 DUP9 DUP3 DUP10 ADD PUSH2 0x454 JUMP JUMPDEST SWAP3 POP POP PUSH1 0x60 PUSH2 0x4E4 DUP9 DUP3 DUP10 ADD PUSH2 0x454 JUMP JUMPDEST SWAP2 POP POP SWAP3 SWAP6 POP SWAP3 SWAP6 SWAP1 SWAP4 POP JUMP JUMPDEST PUSH1 0x0 DUP2 SWAP1 POP SWAP2 SWAP1 POP JUMP JUMPDEST PUSH2 0x504 DUP2 PUSH2 0x4F1 JUMP JUMPDEST DUP3 MSTORE POP POP JUMP JUMPDEST PUSH1 0x0 PUSH1 0x20 DUP3 ADD SWAP1 POP PUSH2 0x51F PUSH1 0x0 DUP4 ADD DUP5 PUSH2 0x4FB JUMP JUMPDEST SWAP3 SWAP2 POP POP JUMP JUMPDEST PUSH32 0x4E487B7100000000000000000000000000000000000000000000000000000000 PUSH1 0x0 MSTORE PUSH1 0x32 PUSH1 0x4 MSTORE PUSH1 0x24 PUSH1 0x0 REVERT JUMPDEST PUSH1 0x0 PUSH3 0xFFFFFF DUP3 AND SWAP1 POP SWAP2 SWAP1 POP JUMP JUMPDEST PUSH2 0x56C DUP2 PUSH2 0x554 JUMP JUMPDEST DUP2 EQ PUSH2 0x577 JUMPI PUSH1 0x0 DUP1 REVERT JUMPDEST POP JUMP JUMPDEST PUSH1 0x0 DUP2 CALLDATALOAD SWAP1 POP PUSH2 0x589 DUP2 PUSH2 0x563 JUMP JUMPDEST SWAP3 SWAP2 POP POP JUMP JUMPDEST PUSH1 0x0 PUSH1 0x20 DUP3 DUP5 SUB SLT ISZERO PUSH2 0x5A5 JUMPI PUSH2 0x5A4 PUSH2 0x39C JUMP JUMPDEST JUMPDEST PUSH1 0x0 PUSH2 0x5B3 DUP5 DUP3 DUP6 ADD PUSH2 0x57A JUMP JUMPDEST SWAP2 POP POP SWAP3 SWAP2 POP POP JUMP JUMPDEST PUSH2 0x5C5 DUP2 PUSH2 0x42B JUMP JUMPDEST DUP3 MSTORE POP POP JUMP JUMPDEST PUSH2 0x5D4 DUP2 PUSH2 0x554 JUMP JUMPDEST DUP3 MSTORE POP POP JUMP JUMPDEST PUSH1 0x0 PUSH1 0x60 DUP3 ADD SWAP1 POP PUSH2 0x5EF PUSH1 0x0 DUP4 ADD DUP7 PUSH2 0x5BC JUMP JUMPDEST PUSH2 0x5FC PUSH1 0x20 DUP4 ADD DUP6 PUSH2 0x5BC JUMP JUMPDEST PUSH2 0x609 PUSH1 0x40 DUP4 ADD DUP5 PUSH2 0x5CB JUMP JUMPDEST SWAP5 SWAP4 POP POP POP POP JUMP JUMPDEST PUSH1 0x0 DUP2 MLOAD SWAP1 POP PUSH2 0x620 DUP2 PUSH2 0x43D JUMP JUMPDEST SWAP3 SWAP2 POP POP JUMP JUMPDEST PUSH1 0x0 PUSH1 0x20 DUP3 DUP5 SUB SLT ISZERO PUSH2 0x63C JUMPI PUSH2 0x63B PUSH2 0x39C JUMP JUMPDEST JUMPDEST PUSH1 0x0 PUSH2 0x64A DUP5 DUP3 DUP6 ADD PUSH2 0x611 JUMP JUMPDEST SWAP2 POP POP SWAP3 SWAP2 POP POP JUMP JUMPDEST PUSH1 0x0 PUSH16 0xFFFFFFFFFFFFFFFFFFFFFFFFFFFFFFFF DUP3 AND SWAP1 POP SWAP2 SWAP1 POP JUMP JUMPDEST PUSH2 0x678 DUP2 PUSH2 0x653 JUMP JUMPDEST DUP2 EQ PUSH2 0x683 JUMPI PUSH1 0x0 DUP1 REVERT JUMPDEST POP JUMP JUMPDEST PUSH1 0x0 DUP2 MLOAD SWAP1 POP PUSH2 0x695 DUP2 PUSH2 0x66F JUMP JUMPDEST SWAP3 SWAP2 POP POP JUMP JUMPDEST PUSH1 0x0 PUSH1 0x20 DUP3 DUP5 SUB SLT ISZERO PUSH2 0x6B1 JUMPI PUSH2 0x6B0 PUSH2 0x39C JUMP JUMPDEST JUMPDEST PUSH1 0x0 PUSH2 0x6BF DUP5 DUP3 DUP6 ADD PUSH2 0x686 JUMP JUMPDEST SWAP2 POP POP SWAP3 SWAP2 POP POP JUMP JUMPDEST PUSH2 0x6D1 DUP2 PUSH2 0x40B JUMP JUMPDEST DUP2 EQ PUSH2 0x6DC JUMPI PUSH1 0x0 DUP1 REVERT JUMPDEST POP JUMP JUMPDEST PUSH1 0x0 DUP2 MLOAD SWAP1 POP PUSH2 0x6EE DUP2 PUSH2 0x6C8 JUMP JUMPDEST SWAP3 SWAP2 POP POP JUMP JUMPDEST PUSH1 0x0 DUP2 PUSH1 0x2 SIGNEXTEND SWAP1 POP SWAP2 SWAP1 POP JUMP JUMPDEST PUSH2 0x70A DUP2 PUSH2 0x6F4 JUMP JUMPDEST DUP2 EQ PUSH2 0x715 JUMPI PUSH1 0x0 DUP1 REVERT JUMPDEST POP JUMP JUMPDEST PUSH1 0x0 DUP2 MLOAD SWAP1 POP PUSH2 0x727 DUP2 PUSH2 0x701 JUMP JUMPDEST SWAP3 SWAP2 POP POP JUMP JUMPDEST PUSH1 0x0 PUSH2 0xFFFF DUP3 AND SWAP1 POP SWAP2 SWAP1 POP JUMP JUMPDEST PUSH2 0x744 DUP2 PUSH2 0x72D JUMP JUMPDEST DUP2 EQ PUSH2 0x74F JUMPI PUSH1 0x0 DUP1 REVERT JUMPDEST POP JUMP JUMPDEST PUSH1 0x0 DUP2 MLOAD SWAP1 POP PUSH2 0x761 DUP2 PUSH2 0x73B JUMP JUMPDEST SWAP3 SWAP2 POP POP JUMP JUMPDEST PUSH1 0x0 PUSH1 0xFF DUP3 AND SWAP1 POP SWAP2 SWAP1 POP JUMP JUMPDEST PUSH2 0x77D DUP2 PUSH2 0x767 JUMP JUMPDEST DUP2 EQ PUSH2 0x788 JUMPI PUSH1 0x0 DUP1 REVERT JUMPDEST POP JUMP JUMPDEST PUSH1 0x0 DUP2 MLOAD SWAP1 POP PUSH2 0x79A DUP2 PUSH2 0x774 JUMP JUMPDEST SWAP3 SWAP2 POP POP JUMP JUMPDEST PUSH1 0x0 DUP2 ISZERO ISZERO SWAP1 POP SWAP2 SWAP1 POP JUMP JUMPDEST PUSH2 0x7B5 DUP2 PUSH2 0x7A0 JUMP JUMPDEST DUP2 EQ PUSH2 0x7C0 JUMPI PUSH1 0x0 DUP1 REVERT JUMPDEST POP JUMP JUMPDEST PUSH1 0x0 DUP2 MLOAD SWAP1 POP PUSH2 0x7D2 DUP2 PUSH2 0x7AC JUMP JUMPDEST SWAP3 SWAP2 POP POP JUMP JUMPDEST PUSH1 0x0 DUP1 PUSH1 0x0 DUP1 PUSH1 0x0 DUP1 PUSH1 0x0 PUSH1 0xE0 DUP9 DUP11 SUB SLT ISZERO PUSH2 0x7F7 JUMPI PUSH2 0x7F6 PUSH2 0x39C JUMP JUMPDEST JUMPDEST PUSH1 0x0 PUSH2 0x805 DUP11 DUP3 DUP12 ADD PUSH2 0x6DF JUMP JUMPDEST SWAP8 POP POP PUSH1 0x20 PUSH2 0x816 DUP11 DUP3 DUP12 ADD PUSH2 0x718 JUMP JUMPDEST SWAP7 POP POP PUSH1 0x40 PUSH2 0x827 DUP11 DUP3 DUP12 ADD PUSH2 0x752 JUMP JUMPDEST SWAP6 POP POP PUSH1 0x60 PUSH2 0x838 DUP11 DUP3 DUP12 ADD PUSH2 0x752 JUMP JUMPDEST SWAP5 POP POP PUSH1 0x80 PUSH2 0x849 DUP11 DUP3 DUP12 ADD PUSH2 0x752 JUMP JUMPDEST SWAP4 POP POP PUSH1 0xA0 PUSH2 0x85A DUP11 DUP3 DUP12 ADD PUSH2 0x78B JUMP JUMPDEST SWAP3 POP POP PUSH1 0xC0 PUSH2 0x86B DUP11 DUP3 DUP12 ADD PUSH2 0x7C3 JUMP JUMPDEST SWAP2 POP POP SWAP3 SWAP6 SWAP9 SWAP2 SWAP5 SWAP8 POP SWAP3 SWAP6 POP JUMP JUMPDEST PUSH1 0x0 PUSH1 0x20 DUP3 DUP5 SUB SLT ISZERO PUSH2 0x890 JUMPI PUSH2 0x88F PUSH2 0x39C JUMP JUMPDEST JUMPDEST PUSH1 0x0 PUSH2 0x89E DUP5 DUP3 DUP6 ADD PUSH2 0x78B JUMP JUMPDEST SWAP2 POP POP SWAP3 SWAP2 POP POP JUMP JUMPDEST PUSH32 0x4E487B7100000000000000000000000000000000000000000000000000000000 PUSH1 0x0 MSTORE PUSH1 0x11 PUSH1 0x4 MSTORE PUSH1 0x24 PUSH1 0x0 REVERT JUMPDEST PUSH1 0x0 PUSH2 0x8E1 DUP3 PUSH2 0x4F1 JUMP JUMPDEST SWAP2 POP PUSH32 0xFFFFFFFFFFFFFFFFFFFFFFFFFFFFFFFFFFFFFFFFFFFFFFFFFFFFFFFFFFFFFFFF DUP3 SUB PUSH2 0x913 JUMPI PUSH2 0x912 PUSH2 0x8A7 JUMP JUMPDEST JUMPDEST PUSH1 0x1 DUP3 ADD SWAP1 POP SWAP2 SWAP1 POP JUMP INVALID LOG2 PUSH5 0x6970667358 0x22 SLT KECCAK256 RETURNDATASIZE 0x49 CALLCODE 0x4C ISZERO 0xD2 0xDA SWAP1 0x26 DUP9 EXP 0x4D PC DUP16 0x5D 0xBE BYTE DUP7 SWAP7 0xC2 CODECOPY SWAP13 0xC2 LOG0 PUSH20 0x44385B46175F9064736F6C634300081100330000 "
				},
				"gasEstimates": {
					"creation": {
						"codeDepositCost": "477600",
						"executionCost": "536",
						"totalCost": "478136"
					},
					"external": {
						"price(uint24[],address,address,address)": "infinite"
					}
				},
				"methodIdentifiers": {
					"price(uint24[],address,address,address)": "97d784b1"
				}
			},
			"storageLayout": {
				"storage": [],
				"types": null
			},
			"userdoc": {
				"kind": "user",
				"methods": {},
				"version": 1
			}
		}
	}
}